{
	"contracts/bettoken.sol": {
		"Bettoken": {
			"abi": [
				{
					"inputs": [],
					"stateMutability": "nonpayable",
					"type": "constructor"
				},
				{
					"inputs": [
						{
							"internalType": "address",
							"name": "spender",
							"type": "address"
						},
						{
							"internalType": "uint256",
							"name": "allowance",
							"type": "uint256"
						},
						{
							"internalType": "uint256",
							"name": "needed",
							"type": "uint256"
						}
					],
					"name": "ERC20InsufficientAllowance",
					"type": "error"
				},
				{
					"inputs": [
						{
							"internalType": "address",
							"name": "sender",
							"type": "address"
						},
						{
							"internalType": "uint256",
							"name": "balance",
							"type": "uint256"
						},
						{
							"internalType": "uint256",
							"name": "needed",
							"type": "uint256"
						}
					],
					"name": "ERC20InsufficientBalance",
					"type": "error"
				},
				{
					"inputs": [
						{
							"internalType": "address",
							"name": "approver",
							"type": "address"
						}
					],
					"name": "ERC20InvalidApprover",
					"type": "error"
				},
				{
					"inputs": [
						{
							"internalType": "address",
							"name": "receiver",
							"type": "address"
						}
					],
					"name": "ERC20InvalidReceiver",
					"type": "error"
				},
				{
					"inputs": [
						{
							"internalType": "address",
							"name": "sender",
							"type": "address"
						}
					],
					"name": "ERC20InvalidSender",
					"type": "error"
				},
				{
					"inputs": [
						{
							"internalType": "address",
							"name": "spender",
							"type": "address"
						}
					],
					"name": "ERC20InvalidSpender",
					"type": "error"
				},
				{
					"inputs": [
						{
							"internalType": "address",
							"name": "owner",
							"type": "address"
						}
					],
					"name": "OwnableInvalidOwner",
					"type": "error"
				},
				{
					"inputs": [
						{
							"internalType": "address",
							"name": "account",
							"type": "address"
						}
					],
					"name": "OwnableUnauthorizedAccount",
					"type": "error"
				},
				{
					"anonymous": false,
					"inputs": [
						{
							"indexed": true,
							"internalType": "address",
							"name": "owner",
							"type": "address"
						},
						{
							"indexed": true,
							"internalType": "address",
							"name": "spender",
							"type": "address"
						},
						{
							"indexed": false,
							"internalType": "uint256",
							"name": "value",
							"type": "uint256"
						}
					],
					"name": "Approval",
					"type": "event"
				},
				{
					"anonymous": false,
					"inputs": [
						{
							"indexed": true,
							"internalType": "address",
							"name": "previousOwner",
							"type": "address"
						},
						{
							"indexed": true,
							"internalType": "address",
							"name": "newOwner",
							"type": "address"
						}
					],
					"name": "OwnershipTransferred",
					"type": "event"
				},
				{
					"anonymous": false,
					"inputs": [
						{
							"indexed": true,
							"internalType": "address",
							"name": "buyer",
							"type": "address"
						},
						{
							"indexed": false,
							"internalType": "uint256",
							"name": "amount",
							"type": "uint256"
						}
					],
					"name": "PreSale",
					"type": "event"
				},
				{
					"anonymous": false,
					"inputs": [
						{
							"indexed": true,
							"internalType": "address",
							"name": "buyer",
							"type": "address"
						},
						{
							"indexed": false,
							"internalType": "uint256",
							"name": "amount",
							"type": "uint256"
						}
					],
					"name": "PrivateSale",
					"type": "event"
				},
				{
					"anonymous": false,
					"inputs": [
						{
							"indexed": true,
							"internalType": "address",
							"name": "from",
							"type": "address"
						},
						{
							"indexed": true,
							"internalType": "address",
							"name": "to",
							"type": "address"
						},
						{
							"indexed": false,
							"internalType": "uint256",
							"name": "value",
							"type": "uint256"
						}
					],
					"name": "Transfer",
					"type": "event"
				},
				{
					"stateMutability": "payable",
					"type": "fallback"
				},
				{
					"inputs": [],
					"name": "TOTAL_SUPPLY",
					"outputs": [
						{
							"internalType": "uint256",
							"name": "",
							"type": "uint256"
						}
					],
					"stateMutability": "view",
					"type": "function"
				},
				{
					"inputs": [
						{
							"internalType": "address",
							"name": "owner",
							"type": "address"
						},
						{
							"internalType": "address",
							"name": "spender",
							"type": "address"
						}
					],
					"name": "allowance",
					"outputs": [
						{
							"internalType": "uint256",
							"name": "",
							"type": "uint256"
						}
					],
					"stateMutability": "view",
					"type": "function"
				},
				{
					"inputs": [
						{
							"internalType": "address",
							"name": "spender",
							"type": "address"
						},
						{
							"internalType": "uint256",
							"name": "value",
							"type": "uint256"
						}
					],
					"name": "approve",
					"outputs": [
						{
							"internalType": "bool",
							"name": "",
							"type": "bool"
						}
					],
					"stateMutability": "nonpayable",
					"type": "function"
				},
				{
					"inputs": [
						{
							"internalType": "address",
							"name": "account",
							"type": "address"
						}
					],
					"name": "balanceOf",
					"outputs": [
						{
							"internalType": "uint256",
							"name": "",
							"type": "uint256"
						}
					],
					"stateMutability": "view",
					"type": "function"
				},
				{
					"inputs": [
						{
							"internalType": "uint256",
							"name": "usdAmount",
							"type": "uint256"
						}
					],
					"name": "buyTokens",
					"outputs": [],
					"stateMutability": "payable",
					"type": "function"
				},
				{
					"inputs": [],
					"name": "decimals",
					"outputs": [
						{
							"internalType": "uint8",
							"name": "",
							"type": "uint8"
						}
					],
					"stateMutability": "view",
					"type": "function"
				},
				{
					"inputs": [],
					"name": "haltSales",
					"outputs": [],
					"stateMutability": "nonpayable",
					"type": "function"
				},
				{
					"inputs": [],
					"name": "name",
					"outputs": [
						{
							"internalType": "string",
							"name": "",
							"type": "string"
						}
					],
					"stateMutability": "view",
					"type": "function"
				},
				{
					"inputs": [],
					"name": "owner",
					"outputs": [
						{
							"internalType": "address",
							"name": "",
							"type": "address"
						}
					],
					"stateMutability": "view",
					"type": "function"
				},
				{
					"inputs": [],
					"name": "preSaleEndPrice",
					"outputs": [
						{
							"internalType": "uint256",
							"name": "",
							"type": "uint256"
						}
					],
					"stateMutability": "view",
					"type": "function"
				},
				{
					"inputs": [],
					"name": "preSaleSoldTokens",
					"outputs": [
						{
							"internalType": "uint256",
							"name": "",
							"type": "uint256"
						}
					],
					"stateMutability": "view",
					"type": "function"
				},
				{
					"inputs": [],
					"name": "preSaleStartPrice",
					"outputs": [
						{
							"internalType": "uint256",
							"name": "",
							"type": "uint256"
						}
					],
					"stateMutability": "view",
					"type": "function"
				},
				{
					"inputs": [],
					"name": "preSaleTarget",
					"outputs": [
						{
							"internalType": "uint256",
							"name": "",
							"type": "uint256"
						}
					],
					"stateMutability": "view",
					"type": "function"
				},
				{
					"inputs": [],
					"name": "preSaleTokens",
					"outputs": [
						{
							"internalType": "uint256",
							"name": "",
							"type": "uint256"
						}
					],
					"stateMutability": "view",
					"type": "function"
				},
				{
					"inputs": [],
					"name": "privateSaleEndPrice",
					"outputs": [
						{
							"internalType": "uint256",
							"name": "",
							"type": "uint256"
						}
					],
					"stateMutability": "view",
					"type": "function"
				},
				{
					"inputs": [],
					"name": "privateSaleSoldTokens",
					"outputs": [
						{
							"internalType": "uint256",
							"name": "",
							"type": "uint256"
						}
					],
					"stateMutability": "view",
					"type": "function"
				},
				{
					"inputs": [],
					"name": "privateSaleStartPrice",
					"outputs": [
						{
							"internalType": "uint256",
							"name": "",
							"type": "uint256"
						}
					],
					"stateMutability": "view",
					"type": "function"
				},
				{
					"inputs": [],
					"name": "privateSaleTarget",
					"outputs": [
						{
							"internalType": "uint256",
							"name": "",
							"type": "uint256"
						}
					],
					"stateMutability": "view",
					"type": "function"
				},
				{
					"inputs": [],
					"name": "privateSaleTokens",
					"outputs": [
						{
							"internalType": "uint256",
							"name": "",
							"type": "uint256"
						}
					],
					"stateMutability": "view",
					"type": "function"
				},
				{
					"inputs": [],
					"name": "releaseVestedTokens",
					"outputs": [],
					"stateMutability": "nonpayable",
					"type": "function"
				},
				{
					"inputs": [],
					"name": "renounceOwnership",
					"outputs": [],
					"stateMutability": "nonpayable",
					"type": "function"
				},
				{
					"inputs": [],
					"name": "stage",
					"outputs": [
						{
							"internalType": "enum Bettoken.SaleStage",
							"name": "",
							"type": "uint8"
						}
					],
					"stateMutability": "view",
					"type": "function"
				},
				{
					"inputs": [],
					"name": "stakeDuration",
					"outputs": [
						{
							"internalType": "uint256",
							"name": "",
							"type": "uint256"
						}
					],
					"stateMutability": "view",
					"type": "function"
				},
				{
					"inputs": [],
					"name": "startPreSale",
					"outputs": [],
					"stateMutability": "nonpayable",
					"type": "function"
				},
				{
					"inputs": [],
					"name": "startPrivateSale",
					"outputs": [],
					"stateMutability": "nonpayable",
					"type": "function"
				},
				{
					"inputs": [],
					"name": "symbol",
					"outputs": [
						{
							"internalType": "string",
							"name": "",
							"type": "string"
						}
					],
					"stateMutability": "view",
					"type": "function"
				},
				{
					"inputs": [],
					"name": "totalSupply",
					"outputs": [
						{
							"internalType": "uint256",
							"name": "",
							"type": "uint256"
						}
					],
					"stateMutability": "view",
					"type": "function"
				},
				{
					"inputs": [
						{
							"internalType": "address",
							"name": "to",
							"type": "address"
						},
						{
							"internalType": "uint256",
							"name": "value",
							"type": "uint256"
						}
					],
					"name": "transfer",
					"outputs": [
						{
							"internalType": "bool",
							"name": "",
							"type": "bool"
						}
					],
					"stateMutability": "nonpayable",
					"type": "function"
				},
				{
					"inputs": [
						{
							"internalType": "address",
							"name": "from",
							"type": "address"
						},
						{
							"internalType": "address",
							"name": "to",
							"type": "address"
						},
						{
							"internalType": "uint256",
							"name": "value",
							"type": "uint256"
						}
					],
					"name": "transferFrom",
					"outputs": [
						{
							"internalType": "bool",
							"name": "",
							"type": "bool"
						}
					],
					"stateMutability": "nonpayable",
					"type": "function"
				},
				{
					"inputs": [
						{
							"internalType": "address",
							"name": "newOwner",
							"type": "address"
						}
					],
					"name": "transferOwnership",
					"outputs": [],
					"stateMutability": "nonpayable",
					"type": "function"
				},
				{
					"inputs": [
						{
							"internalType": "address",
							"name": "",
							"type": "address"
						}
					],
					"name": "vestingBalance",
					"outputs": [
						{
							"internalType": "uint256",
							"name": "",
							"type": "uint256"
						}
					],
					"stateMutability": "view",
					"type": "function"
				},
				{
					"inputs": [],
					"name": "vestingDuration",
					"outputs": [
						{
							"internalType": "uint256",
							"name": "",
							"type": "uint256"
						}
					],
					"stateMutability": "view",
					"type": "function"
				},
				{
					"inputs": [
						{
							"internalType": "address",
							"name": "",
							"type": "address"
						}
					],
					"name": "vestingReleaseTime",
					"outputs": [
						{
							"internalType": "uint256",
							"name": "",
							"type": "uint256"
						}
					],
					"stateMutability": "view",
					"type": "function"
				},
				{
					"inputs": [],
					"name": "withdrawFunds",
					"outputs": [],
					"stateMutability": "nonpayable",
					"type": "function"
				},
				{
					"stateMutability": "payable",
					"type": "receive"
				}
			],
			"devdoc": {
				"errors": {
					"ERC20InsufficientAllowance(address,uint256,uint256)": [
						{
							"details": "Indicates a failure with the `spender`’s `allowance`. Used in transfers.",
							"params": {
								"allowance": "Amount of tokens a `spender` is allowed to operate with.",
								"needed": "Minimum amount required to perform a transfer.",
								"spender": "Address that may be allowed to operate on tokens without being their owner."
							}
						}
					],
					"ERC20InsufficientBalance(address,uint256,uint256)": [
						{
							"details": "Indicates an error related to the current `balance` of a `sender`. Used in transfers.",
							"params": {
								"balance": "Current balance for the interacting account.",
								"needed": "Minimum amount required to perform a transfer.",
								"sender": "Address whose tokens are being transferred."
							}
						}
					],
					"ERC20InvalidApprover(address)": [
						{
							"details": "Indicates a failure with the `approver` of a token to be approved. Used in approvals.",
							"params": {
								"approver": "Address initiating an approval operation."
							}
						}
					],
					"ERC20InvalidReceiver(address)": [
						{
							"details": "Indicates a failure with the token `receiver`. Used in transfers.",
							"params": {
								"receiver": "Address to which tokens are being transferred."
							}
						}
					],
					"ERC20InvalidSender(address)": [
						{
							"details": "Indicates a failure with the token `sender`. Used in transfers.",
							"params": {
								"sender": "Address whose tokens are being transferred."
							}
						}
					],
					"ERC20InvalidSpender(address)": [
						{
							"details": "Indicates a failure with the `spender` to be approved. Used in approvals.",
							"params": {
								"spender": "Address that may be allowed to operate on tokens without being their owner."
							}
						}
					],
					"OwnableInvalidOwner(address)": [
						{
							"details": "The owner is not a valid owner account. (eg. `address(0)`)"
						}
					],
					"OwnableUnauthorizedAccount(address)": [
						{
							"details": "The caller account is not authorized to perform an operation."
						}
					]
				},
				"events": {
					"Approval(address,address,uint256)": {
						"details": "Emitted when the allowance of a `spender` for an `owner` is set by a call to {approve}. `value` is the new allowance."
					},
					"Transfer(address,address,uint256)": {
						"details": "Emitted when `value` tokens are moved from one account (`from`) to another (`to`). Note that `value` may be zero."
					}
				},
				"kind": "dev",
				"methods": {
					"allowance(address,address)": {
						"details": "See {IERC20-allowance}."
					},
					"approve(address,uint256)": {
						"details": "See {IERC20-approve}. NOTE: If `value` is the maximum `uint256`, the allowance is not updated on `transferFrom`. This is semantically equivalent to an infinite approval. Requirements: - `spender` cannot be the zero address."
					},
					"balanceOf(address)": {
						"details": "See {IERC20-balanceOf}."
					},
					"decimals()": {
						"details": "Returns the number of decimals used to get its user representation. For example, if `decimals` equals `2`, a balance of `505` tokens should be displayed to a user as `5.05` (`505 / 10 ** 2`). Tokens usually opt for a value of 18, imitating the relationship between Ether and Wei. This is the default value returned by this function, unless it's overridden. NOTE: This information is only used for _display_ purposes: it in no way affects any of the arithmetic of the contract, including {IERC20-balanceOf} and {IERC20-transfer}."
					},
					"name()": {
						"details": "Returns the name of the token."
					},
					"owner()": {
						"details": "Returns the address of the current owner."
					},
					"renounceOwnership()": {
						"details": "Leaves the contract without owner. It will not be possible to call `onlyOwner` functions. Can only be called by the current owner. NOTE: Renouncing ownership will leave the contract without an owner, thereby disabling any functionality that is only available to the owner."
					},
					"symbol()": {
						"details": "Returns the symbol of the token, usually a shorter version of the name."
					},
					"totalSupply()": {
						"details": "See {IERC20-totalSupply}."
					},
					"transfer(address,uint256)": {
						"details": "See {IERC20-transfer}. Requirements: - `to` cannot be the zero address. - the caller must have a balance of at least `value`."
					},
					"transferFrom(address,address,uint256)": {
						"details": "See {IERC20-transferFrom}. Emits an {Approval} event indicating the updated allowance. This is not required by the EIP. See the note at the beginning of {ERC20}. NOTE: Does not update the allowance if the current allowance is the maximum `uint256`. Requirements: - `from` and `to` cannot be the zero address. - `from` must have a balance of at least `value`. - the caller must have allowance for ``from``'s tokens of at least `value`."
					},
					"transferOwnership(address)": {
						"details": "Transfers ownership of the contract to a new account (`newOwner`). Can only be called by the current owner."
					}
				},
				"version": 1
			},
			"evm": {
				"assembly": "    /* \"contracts/bettoken.sol\":290:5167  contract Bettoken is ERC20, Ownable, ReentrancyGuard {... */\n  mstore(0x40, 0x80)\n    /* \"contracts/bettoken.sol\":554:574  1_000_000 * 10 ** 18 */\n  0xd3c21bcecceda1000000\n    /* \"contracts/bettoken.sol\":519:574  uint256 public privateSaleTarget = 1_000_000 * 10 ** 18 */\n  0x07\n  sstore\n    /* \"contracts/bettoken.sol\":639:660  38_835_764 * 10 ** 18 */\n  0x201fcafc2577d298500000\n    /* \"contracts/bettoken.sol\":604:660  uint256 public privateSaleTokens = 38_835_764 * 10 ** 18 */\n  0x08\n  sstore\n    /* \"contracts/bettoken.sol\":724:740  0.001 * 10 ** 18 */\n  0x038d7ea4c68000\n    /* \"contracts/bettoken.sol\":685:740  uint256 public privateSaleStartPrice = 0.001 * 10 ** 18 */\n  0x09\n  sstore\n    /* \"contracts/bettoken.sol\":805:822  0.0505 * 10 ** 18 */\n  0xb3697b81284000\n    /* \"contracts/bettoken.sol\":768:822  uint256 public privateSaleEndPrice = 0.0505 * 10 ** 18 */\n  0x0a\n  sstore\n    /* \"contracts/bettoken.sol\":890:891  0 */\n  0x00\n    /* \"contracts/bettoken.sol\":851:891  uint256 public privateSaleSoldTokens = 0 */\n  0x0b\n  sstore\n    /* \"contracts/bettoken.sol\":955:976  19_000_000 * 10 ** 18 */\n  0x0fb768105935a2f3000000\n    /* \"contracts/bettoken.sol\":924:976  uint256 public preSaleTarget = 19_000_000 * 10 ** 18 */\n  0x0c\n  sstore\n    /* \"contracts/bettoken.sol\":1038:1060  161_164_236 * 10 ** 18 */\n  0x854fdabd6aa1d32fb00000\n    /* \"contracts/bettoken.sol\":1007:1060  uint256 public preSaleTokens = 161_164_236 * 10 ** 18 */\n  0x0d\n  sstore\n    /* \"contracts/bettoken.sol\":1121:1138  0.0505 * 10 ** 18 */\n  0xb3697b81284000\n    /* \"contracts/bettoken.sol\":1086:1138  uint256 public preSaleStartPrice = 0.0505 * 10 ** 18 */\n  0x0e\n  sstore\n    /* \"contracts/bettoken.sol\":1200:1214  0.1 * 10 ** 18 */\n  0x016345785d8a0000\n    /* \"contracts/bettoken.sol\":1167:1214  uint256 public preSaleEndPrice = 0.1 * 10 ** 18 */\n  0x0f\n  sstore\n    /* \"contracts/bettoken.sol\":1275:1276  0 */\n  0x00\n    /* \"contracts/bettoken.sol\":1240:1276  uint256 public preSaleSoldTokens = 0 */\n  0x10\n  sstore\n    /* \"contracts/bettoken.sol\":1373:1387  SaleStage.NONE */\n  0x00\n    /* \"contracts/bettoken.sol\":1348:1387  SaleStage public stage = SaleStage.NONE */\n  0x11\n  exp(0x0100, 0x00)\n  dup2\n  sload\n  dup2\n  0xff\n  mul\n  not\n  and\n  swap1\n  dup4\n  0x02\n  dup2\n  gt\n  iszero\n  tag_1\n  jumpi\n  tag_2\n  tag_3\n  jump\t// in\ntag_2:\ntag_1:\n  mul\n  or\n  swap1\n  sstore\n  pop\n    /* \"contracts/bettoken.sol\":1567:1578  6 * 30 days */\n  0xed4e00\n    /* \"contracts/bettoken.sol\":1534:1578  uint256 public vestingDuration = 6 * 30 days */\n  0x14\n  sstore\n    /* \"contracts/bettoken.sol\":1637:1645  365 days */\n  0x01e13380\n    /* \"contracts/bettoken.sol\":1606:1645  uint256 public stakeDuration = 365 days */\n  0x15\n  sstore\n    /* \"contracts/bettoken.sol\":1808:1919  constructor() ERC20(\"Bettoken\", \"BETT\") Ownable(msg.sender) {... */\n  callvalue\n  dup1\n  iszero\n  tag_4\n  jumpi\n  0x00\n  dup1\n  revert\ntag_4:\n  pop\n    /* \"contracts/bettoken.sol\":1856:1866  msg.sender */\n  caller\n    /* \"@openzeppelin/contracts/token/ERC20/ERC20.sol\":1896:2009  constructor(string memory name_, string memory symbol_) {... */\n  mload(0x40)\n  dup1\n  0x40\n  add\n  0x40\n  mstore\n  dup1\n  0x08\n  dup2\n  mstore\n  0x20\n  add\n  0x426574746f6b656e000000000000000000000000000000000000000000000000\n  dup2\n  mstore\n  pop\n  mload(0x40)\n  dup1\n  0x40\n  add\n  0x40\n  mstore\n  dup1\n  0x04\n  dup2\n  mstore\n  0x20\n  add\n  0x4245545400000000000000000000000000000000000000000000000000000000\n  dup2\n  mstore\n  pop\n    /* \"@openzeppelin/contracts/token/ERC20/ERC20.sol\":1970:1975  name_ */\n  dup2\n    /* \"@openzeppelin/contracts/token/ERC20/ERC20.sol\":1962:1967  _name */\n  0x03\n    /* \"@openzeppelin/contracts/token/ERC20/ERC20.sol\":1962:1975  _name = name_ */\n  swap1\n  dup2\n  tag_10\n  swap2\n  swap1\n  tag_11\n  jump\t// in\ntag_10:\n  pop\n    /* \"@openzeppelin/contracts/token/ERC20/ERC20.sol\":1995:2002  symbol_ */\n  dup1\n    /* \"@openzeppelin/contracts/token/ERC20/ERC20.sol\":1985:1992  _symbol */\n  0x04\n    /* \"@openzeppelin/contracts/token/ERC20/ERC20.sol\":1985:2002  _symbol = symbol_ */\n  swap1\n  dup2\n  tag_12\n  swap2\n  swap1\n  tag_11\n  jump\t// in\ntag_12:\n  pop\n    /* \"@openzeppelin/contracts/token/ERC20/ERC20.sol\":1896:2009  constructor(string memory name_, string memory symbol_) {... */\n  pop\n  pop\n    /* \"@openzeppelin/contracts/access/Ownable.sol\":1297:1298  0 */\n  0x00\n    /* \"@openzeppelin/contracts/access/Ownable.sol\":1273:1299  initialOwner == address(0) */\n  0xffffffffffffffffffffffffffffffffffffffff\n  and\n    /* \"@openzeppelin/contracts/access/Ownable.sol\":1273:1285  initialOwner */\n  dup2\n    /* \"@openzeppelin/contracts/access/Ownable.sol\":1273:1299  initialOwner == address(0) */\n  0xffffffffffffffffffffffffffffffffffffffff\n  and\n  sub\n    /* \"@openzeppelin/contracts/access/Ownable.sol\":1269:1364  if (initialOwner == address(0)) {... */\n  tag_14\n  jumpi\n    /* \"@openzeppelin/contracts/access/Ownable.sol\":1350:1351  0 */\n  0x00\n    /* \"@openzeppelin/contracts/access/Ownable.sol\":1322:1353  OwnableInvalidOwner(address(0)) */\n  mload(0x40)\n  0x1e4fbdf700000000000000000000000000000000000000000000000000000000\n  dup2\n  mstore\n  0x04\n  add\n  tag_15\n  swap2\n  swap1\n  tag_16\n  jump\t// in\ntag_15:\n  mload(0x40)\n  dup1\n  swap2\n  sub\n  swap1\n  revert\n    /* \"@openzeppelin/contracts/access/Ownable.sol\":1269:1364  if (initialOwner == address(0)) {... */\ntag_14:\n    /* \"@openzeppelin/contracts/access/Ownable.sol\":1373:1405  _transferOwnership(initialOwner) */\n  tag_17\n    /* \"@openzeppelin/contracts/access/Ownable.sol\":1392:1404  initialOwner */\n  dup2\n    /* \"@openzeppelin/contracts/access/Ownable.sol\":1373:1391  _transferOwnership */\n  shl(0x20, tag_18)\n    /* \"@openzeppelin/contracts/access/Ownable.sol\":1373:1405  _transferOwnership(initialOwner) */\n  0x20\n  shr\n  jump\t// in\ntag_17:\n    /* \"@openzeppelin/contracts/access/Ownable.sol\":1225:1412  constructor(address initialOwner) {... */\n  pop\n    /* \"@openzeppelin/contracts/security/ReentrancyGuard.sol\":1716:1717  1 */\n  0x01\n    /* \"@openzeppelin/contracts/security/ReentrancyGuard.sol\":1821:1828  _status */\n  0x06\n    /* \"@openzeppelin/contracts/security/ReentrancyGuard.sol\":1821:1843  _status = _NOT_ENTERED */\n  dup2\n  swap1\n  sstore\n  pop\n    /* \"contracts/bettoken.sol\":1878:1912  _mint(address(this), TOTAL_SUPPLY) */\n  tag_21\n    /* \"contracts/bettoken.sol\":1892:1896  this */\n  address\n    /* \"contracts/bettoken.sol\":423:445  200_000_000 * 10 ** 18 */\n  0xa56fa5b99019a5c8000000\n    /* \"contracts/bettoken.sol\":1878:1883  _mint */\n  shl(0x20, tag_22)\n    /* \"contracts/bettoken.sol\":1878:1912  _mint(address(this), TOTAL_SUPPLY) */\n  0x20\n  shr\n  jump\t// in\ntag_21:\n    /* \"contracts/bettoken.sol\":290:5167  contract Bettoken is ERC20, Ownable, ReentrancyGuard {... */\n  jump(tag_23)\n    /* \"@openzeppelin/contracts/access/Ownable.sol\":2912:3099  function _transferOwnership(address newOwner) internal virtual {... */\ntag_18:\n    /* \"@openzeppelin/contracts/access/Ownable.sol\":2985:3001  address oldOwner */\n  0x00\n    /* \"@openzeppelin/contracts/access/Ownable.sol\":3004:3010  _owner */\n  0x05\n  0x00\n  swap1\n  sload\n  swap1\n  0x0100\n  exp\n  swap1\n  div\n  0xffffffffffffffffffffffffffffffffffffffff\n  and\n    /* \"@openzeppelin/contracts/access/Ownable.sol\":2985:3010  address oldOwner = _owner */\n  swap1\n  pop\n    /* \"@openzeppelin/contracts/access/Ownable.sol\":3029:3037  newOwner */\n  dup2\n    /* \"@openzeppelin/contracts/access/Ownable.sol\":3020:3026  _owner */\n  0x05\n  0x00\n    /* \"@openzeppelin/contracts/access/Ownable.sol\":3020:3037  _owner = newOwner */\n  0x0100\n  exp\n  dup2\n  sload\n  dup2\n  0xffffffffffffffffffffffffffffffffffffffff\n  mul\n  not\n  and\n  swap1\n  dup4\n  0xffffffffffffffffffffffffffffffffffffffff\n  and\n  mul\n  or\n  swap1\n  sstore\n  pop\n    /* \"@openzeppelin/contracts/access/Ownable.sol\":3083:3091  newOwner */\n  dup2\n    /* \"@openzeppelin/contracts/access/Ownable.sol\":3052:3092  OwnershipTransferred(oldOwner, newOwner) */\n  0xffffffffffffffffffffffffffffffffffffffff\n  and\n    /* \"@openzeppelin/contracts/access/Ownable.sol\":3073:3081  oldOwner */\n  dup2\n    /* \"@openzeppelin/contracts/access/Ownable.sol\":3052:3092  OwnershipTransferred(oldOwner, newOwner) */\n  0xffffffffffffffffffffffffffffffffffffffff\n  and\n  0x8be0079c531659141344cd1fd0a4f28419497f9722a3daafe3b4186f6b6457e0\n  mload(0x40)\n  mload(0x40)\n  dup1\n  swap2\n  sub\n  swap1\n  log3\n    /* \"@openzeppelin/contracts/access/Ownable.sol\":2975:3099  {... */\n  pop\n    /* \"@openzeppelin/contracts/access/Ownable.sol\":2912:3099  function _transferOwnership(address newOwner) internal virtual {... */\n  pop\n  jump\t// out\n    /* \"@openzeppelin/contracts/token/ERC20/ERC20.sol\":7721:7929  function _mint(address account, uint256 value) internal {... */\ntag_22:\n    /* \"@openzeppelin/contracts/token/ERC20/ERC20.sol\":7810:7811  0 */\n  0x00\n    /* \"@openzeppelin/contracts/token/ERC20/ERC20.sol\":7791:7812  account == address(0) */\n  0xffffffffffffffffffffffffffffffffffffffff\n  and\n    /* \"@openzeppelin/contracts/token/ERC20/ERC20.sol\":7791:7798  account */\n  dup3\n    /* \"@openzeppelin/contracts/token/ERC20/ERC20.sol\":7791:7812  account == address(0) */\n  0xffffffffffffffffffffffffffffffffffffffff\n  and\n  sub\n    /* \"@openzeppelin/contracts/token/ERC20/ERC20.sol\":7787:7878  if (account == address(0)) {... */\n  tag_26\n  jumpi\n    /* \"@openzeppelin/contracts/token/ERC20/ERC20.sol\":7864:7865  0 */\n  0x00\n    /* \"@openzeppelin/contracts/token/ERC20/ERC20.sol\":7835:7867  ERC20InvalidReceiver(address(0)) */\n  mload(0x40)\n  0xec442f0500000000000000000000000000000000000000000000000000000000\n  dup2\n  mstore\n  0x04\n  add\n  tag_27\n  swap2\n  swap1\n  tag_16\n  jump\t// in\ntag_27:\n  mload(0x40)\n  dup1\n  swap2\n  sub\n  swap1\n  revert\n    /* \"@openzeppelin/contracts/token/ERC20/ERC20.sol\":7787:7878  if (account == address(0)) {... */\ntag_26:\n    /* \"@openzeppelin/contracts/token/ERC20/ERC20.sol\":7887:7922  _update(address(0), account, value) */\n  tag_28\n    /* \"@openzeppelin/contracts/token/ERC20/ERC20.sol\":7903:7904  0 */\n  0x00\n    /* \"@openzeppelin/contracts/token/ERC20/ERC20.sol\":7907:7914  account */\n  dup4\n    /* \"@openzeppelin/contracts/token/ERC20/ERC20.sol\":7916:7921  value */\n  dup4\n    /* \"@openzeppelin/contracts/token/ERC20/ERC20.sol\":7887:7894  _update */\n  shl(0x20, tag_29)\n    /* \"@openzeppelin/contracts/token/ERC20/ERC20.sol\":7887:7922  _update(address(0), account, value) */\n  0x20\n  shr\n  jump\t// in\ntag_28:\n    /* \"@openzeppelin/contracts/token/ERC20/ERC20.sol\":7721:7929  function _mint(address account, uint256 value) internal {... */\n  pop\n  pop\n  jump\t// out\n    /* \"@openzeppelin/contracts/token/ERC20/ERC20.sol\":6271:7378  function _update(address from, address to, uint256 value) internal virtual {... */\ntag_29:\n    /* \"@openzeppelin/contracts/token/ERC20/ERC20.sol\":6376:6377  0 */\n  0x00\n    /* \"@openzeppelin/contracts/token/ERC20/ERC20.sol\":6360:6378  from == address(0) */\n  0xffffffffffffffffffffffffffffffffffffffff\n  and\n    /* \"@openzeppelin/contracts/token/ERC20/ERC20.sol\":6360:6364  from */\n  dup4\n    /* \"@openzeppelin/contracts/token/ERC20/ERC20.sol\":6360:6378  from == address(0) */\n  0xffffffffffffffffffffffffffffffffffffffff\n  and\n  sub\n    /* \"@openzeppelin/contracts/token/ERC20/ERC20.sol\":6356:6896  if (from == address(0)) {... */\n  tag_31\n  jumpi\n    /* \"@openzeppelin/contracts/token/ERC20/ERC20.sol\":6512:6517  value */\n  dup1\n    /* \"@openzeppelin/contracts/token/ERC20/ERC20.sol\":6496:6508  _totalSupply */\n  0x02\n  0x00\n    /* \"@openzeppelin/contracts/token/ERC20/ERC20.sol\":6496:6517  _totalSupply += value */\n  dup3\n  dup3\n  sload\n  tag_32\n  swap2\n  swap1\n  tag_33\n  jump\t// in\ntag_32:\n  swap3\n  pop\n  pop\n  dup2\n  swap1\n  sstore\n  pop\n    /* \"@openzeppelin/contracts/token/ERC20/ERC20.sol\":6356:6896  if (from == address(0)) {... */\n  jump(tag_34)\ntag_31:\n    /* \"@openzeppelin/contracts/token/ERC20/ERC20.sol\":6548:6567  uint256 fromBalance */\n  0x00\n    /* \"@openzeppelin/contracts/token/ERC20/ERC20.sol\":6570:6579  _balances */\n  dup1\n    /* \"@openzeppelin/contracts/token/ERC20/ERC20.sol\":6570:6585  _balances[from] */\n  0x00\n    /* \"@openzeppelin/contracts/token/ERC20/ERC20.sol\":6580:6584  from */\n  dup6\n    /* \"@openzeppelin/contracts/token/ERC20/ERC20.sol\":6570:6585  _balances[from] */\n  0xffffffffffffffffffffffffffffffffffffffff\n  and\n  0xffffffffffffffffffffffffffffffffffffffff\n  and\n  dup2\n  mstore\n  0x20\n  add\n  swap1\n  dup2\n  mstore\n  0x20\n  add\n  0x00\n  keccak256\n  sload\n    /* \"@openzeppelin/contracts/token/ERC20/ERC20.sol\":6548:6585  uint256 fromBalance = _balances[from] */\n  swap1\n  pop\n    /* \"@openzeppelin/contracts/token/ERC20/ERC20.sol\":6617:6622  value */\n  dup2\n    /* \"@openzeppelin/contracts/token/ERC20/ERC20.sol\":6603:6614  fromBalance */\n  dup2\n    /* \"@openzeppelin/contracts/token/ERC20/ERC20.sol\":6603:6622  fromBalance < value */\n  lt\n    /* \"@openzeppelin/contracts/token/ERC20/ERC20.sol\":6599:6714  if (fromBalance < value) {... */\n  iszero\n  tag_35\n  jumpi\n    /* \"@openzeppelin/contracts/token/ERC20/ERC20.sol\":6674:6678  from */\n  dup4\n    /* \"@openzeppelin/contracts/token/ERC20/ERC20.sol\":6680:6691  fromBalance */\n  dup2\n    /* \"@openzeppelin/contracts/token/ERC20/ERC20.sol\":6693:6698  value */\n  dup4\n    /* \"@openzeppelin/contracts/token/ERC20/ERC20.sol\":6649:6699  ERC20InsufficientBalance(from, fromBalance, value) */\n  mload(0x40)\n  0xe450d38c00000000000000000000000000000000000000000000000000000000\n  dup2\n  mstore\n  0x04\n  add\n  tag_36\n  swap4\n  swap3\n  swap2\n  swap1\n  tag_37\n  jump\t// in\ntag_36:\n  mload(0x40)\n  dup1\n  swap2\n  sub\n  swap1\n  revert\n    /* \"@openzeppelin/contracts/token/ERC20/ERC20.sol\":6599:6714  if (fromBalance < value) {... */\ntag_35:\n    /* \"@openzeppelin/contracts/token/ERC20/ERC20.sol\":6866:6871  value */\n  dup2\n    /* \"@openzeppelin/contracts/token/ERC20/ERC20.sol\":6852:6863  fromBalance */\n  dup2\n    /* \"@openzeppelin/contracts/token/ERC20/ERC20.sol\":6852:6871  fromBalance - value */\n  sub\n    /* \"@openzeppelin/contracts/token/ERC20/ERC20.sol\":6834:6843  _balances */\n  0x00\n    /* \"@openzeppelin/contracts/token/ERC20/ERC20.sol\":6834:6849  _balances[from] */\n  dup1\n    /* \"@openzeppelin/contracts/token/ERC20/ERC20.sol\":6844:6848  from */\n  dup7\n    /* \"@openzeppelin/contracts/token/ERC20/ERC20.sol\":6834:6849  _balances[from] */\n  0xffffffffffffffffffffffffffffffffffffffff\n  and\n  0xffffffffffffffffffffffffffffffffffffffff\n  and\n  dup2\n  mstore\n  0x20\n  add\n  swap1\n  dup2\n  mstore\n  0x20\n  add\n  0x00\n  keccak256\n    /* \"@openzeppelin/contracts/token/ERC20/ERC20.sol\":6834:6871  _balances[from] = fromBalance - value */\n  dup2\n  swap1\n  sstore\n  pop\n    /* \"@openzeppelin/contracts/token/ERC20/ERC20.sol\":6534:6896  {... */\n  pop\n    /* \"@openzeppelin/contracts/token/ERC20/ERC20.sol\":6356:6896  if (from == address(0)) {... */\ntag_34:\n    /* \"@openzeppelin/contracts/token/ERC20/ERC20.sol\":6924:6925  0 */\n  0x00\n    /* \"@openzeppelin/contracts/token/ERC20/ERC20.sol\":6910:6926  to == address(0) */\n  0xffffffffffffffffffffffffffffffffffffffff\n  and\n    /* \"@openzeppelin/contracts/token/ERC20/ERC20.sol\":6910:6912  to */\n  dup3\n    /* \"@openzeppelin/contracts/token/ERC20/ERC20.sol\":6910:6926  to == address(0) */\n  0xffffffffffffffffffffffffffffffffffffffff\n  and\n  sub\n    /* \"@openzeppelin/contracts/token/ERC20/ERC20.sol\":6906:7331  if (to == address(0)) {... */\n  tag_38\n  jumpi\n    /* \"@openzeppelin/contracts/token/ERC20/ERC20.sol\":7089:7094  value */\n  dup1\n    /* \"@openzeppelin/contracts/token/ERC20/ERC20.sol\":7073:7085  _totalSupply */\n  0x02\n  0x00\n    /* \"@openzeppelin/contracts/token/ERC20/ERC20.sol\":7073:7094  _totalSupply -= value */\n  dup3\n  dup3\n  sload\n  sub\n  swap3\n  pop\n  pop\n  dup2\n  swap1\n  sstore\n  pop\n    /* \"@openzeppelin/contracts/token/ERC20/ERC20.sol\":6906:7331  if (to == address(0)) {... */\n  jump(tag_39)\ntag_38:\n    /* \"@openzeppelin/contracts/token/ERC20/ERC20.sol\":7301:7306  value */\n  dup1\n    /* \"@openzeppelin/contracts/token/ERC20/ERC20.sol\":7284:7293  _balances */\n  0x00\n    /* \"@openzeppelin/contracts/token/ERC20/ERC20.sol\":7284:7297  _balances[to] */\n  dup1\n    /* \"@openzeppelin/contracts/token/ERC20/ERC20.sol\":7294:7296  to */\n  dup5\n    /* \"@openzeppelin/contracts/token/ERC20/ERC20.sol\":7284:7297  _balances[to] */\n  0xffffffffffffffffffffffffffffffffffffffff\n  and\n  0xffffffffffffffffffffffffffffffffffffffff\n  and\n  dup2\n  mstore\n  0x20\n  add\n  swap1\n  dup2\n  mstore\n  0x20\n  add\n  0x00\n  keccak256\n  0x00\n    /* \"@openzeppelin/contracts/token/ERC20/ERC20.sol\":7284:7306  _balances[to] += value */\n  dup3\n  dup3\n  sload\n  add\n  swap3\n  pop\n  pop\n  dup2\n  swap1\n  sstore\n  pop\n    /* \"@openzeppelin/contracts/token/ERC20/ERC20.sol\":6906:7331  if (to == address(0)) {... */\ntag_39:\n    /* \"@openzeppelin/contracts/token/ERC20/ERC20.sol\":7361:7363  to */\n  dup2\n    /* \"@openzeppelin/contracts/token/ERC20/ERC20.sol\":7346:7371  Transfer(from, to, value) */\n  0xffffffffffffffffffffffffffffffffffffffff\n  and\n    /* \"@openzeppelin/contracts/token/ERC20/ERC20.sol\":7355:7359  from */\n  dup4\n    /* \"@openzeppelin/contracts/token/ERC20/ERC20.sol\":7346:7371  Transfer(from, to, value) */\n  0xffffffffffffffffffffffffffffffffffffffff\n  and\n  0xddf252ad1be2c89b69c2b068fc378daa952ba7f163c4a11628f55a4df523b3ef\n    /* \"@openzeppelin/contracts/token/ERC20/ERC20.sol\":7365:7370  value */\n  dup4\n    /* \"@openzeppelin/contracts/token/ERC20/ERC20.sol\":7346:7371  Transfer(from, to, value) */\n  mload(0x40)\n  tag_40\n  swap2\n  swap1\n  tag_41\n  jump\t// in\ntag_40:\n  mload(0x40)\n  dup1\n  swap2\n  sub\n  swap1\n  log3\n    /* \"@openzeppelin/contracts/token/ERC20/ERC20.sol\":6271:7378  function _update(address from, address to, uint256 value) internal virtual {... */\n  pop\n  pop\n  pop\n  jump\t// out\n    /* \"#utility.yul\":7:187   */\ntag_3:\n    /* \"#utility.yul\":55:132   */\n  0x4e487b7100000000000000000000000000000000000000000000000000000000\n    /* \"#utility.yul\":52:53   */\n  0x00\n    /* \"#utility.yul\":45:133   */\n  mstore\n    /* \"#utility.yul\":152:156   */\n  0x21\n    /* \"#utility.yul\":149:150   */\n  0x04\n    /* \"#utility.yul\":142:157   */\n  mstore\n    /* \"#utility.yul\":176:180   */\n  0x24\n    /* \"#utility.yul\":173:174   */\n  0x00\n    /* \"#utility.yul\":166:181   */\n  revert\n    /* \"#utility.yul\":193:292   */\ntag_42:\n    /* \"#utility.yul\":245:251   */\n  0x00\n    /* \"#utility.yul\":279:284   */\n  dup2\n    /* \"#utility.yul\":273:285   */\n  mload\n    /* \"#utility.yul\":263:285   */\n  swap1\n  pop\n    /* \"#utility.yul\":193:292   */\n  swap2\n  swap1\n  pop\n  jump\t// out\n    /* \"#utility.yul\":298:478   */\ntag_43:\n    /* \"#utility.yul\":346:423   */\n  0x4e487b7100000000000000000000000000000000000000000000000000000000\n    /* \"#utility.yul\":343:344   */\n  0x00\n    /* \"#utility.yul\":336:424   */\n  mstore\n    /* \"#utility.yul\":443:447   */\n  0x41\n    /* \"#utility.yul\":440:441   */\n  0x04\n    /* \"#utility.yul\":433:448   */\n  mstore\n    /* \"#utility.yul\":467:471   */\n  0x24\n    /* \"#utility.yul\":464:465   */\n  0x00\n    /* \"#utility.yul\":457:472   */\n  revert\n    /* \"#utility.yul\":484:664   */\ntag_44:\n    /* \"#utility.yul\":532:609   */\n  0x4e487b7100000000000000000000000000000000000000000000000000000000\n    /* \"#utility.yul\":529:530   */\n  0x00\n    /* \"#utility.yul\":522:610   */\n  mstore\n    /* \"#utility.yul\":629:633   */\n  0x22\n    /* \"#utility.yul\":626:627   */\n  0x04\n    /* \"#utility.yul\":619:634   */\n  mstore\n    /* \"#utility.yul\":653:657   */\n  0x24\n    /* \"#utility.yul\":650:651   */\n  0x00\n    /* \"#utility.yul\":643:658   */\n  revert\n    /* \"#utility.yul\":670:990   */\ntag_45:\n    /* \"#utility.yul\":714:720   */\n  0x00\n    /* \"#utility.yul\":751:752   */\n  0x02\n    /* \"#utility.yul\":745:749   */\n  dup3\n    /* \"#utility.yul\":741:753   */\n  div\n    /* \"#utility.yul\":731:753   */\n  swap1\n  pop\n    /* \"#utility.yul\":798:799   */\n  0x01\n    /* \"#utility.yul\":792:796   */\n  dup3\n    /* \"#utility.yul\":788:800   */\n  and\n    /* \"#utility.yul\":819:837   */\n  dup1\n    /* \"#utility.yul\":809:890   */\n  tag_73\n  jumpi\n    /* \"#utility.yul\":875:879   */\n  0x7f\n    /* \"#utility.yul\":867:873   */\n  dup3\n    /* \"#utility.yul\":863:880   */\n  and\n    /* \"#utility.yul\":853:880   */\n  swap2\n  pop\n    /* \"#utility.yul\":809:890   */\ntag_73:\n    /* \"#utility.yul\":937:939   */\n  0x20\n    /* \"#utility.yul\":929:935   */\n  dup3\n    /* \"#utility.yul\":926:940   */\n  lt\n    /* \"#utility.yul\":906:924   */\n  dup2\n    /* \"#utility.yul\":903:941   */\n  sub\n    /* \"#utility.yul\":900:984   */\n  tag_74\n  jumpi\n    /* \"#utility.yul\":956:974   */\n  tag_75\n  tag_44\n  jump\t// in\ntag_75:\n    /* \"#utility.yul\":900:984   */\ntag_74:\n    /* \"#utility.yul\":721:990   */\n  pop\n    /* \"#utility.yul\":670:990   */\n  swap2\n  swap1\n  pop\n  jump\t// out\n    /* \"#utility.yul\":996:1137   */\ntag_46:\n    /* \"#utility.yul\":1045:1049   */\n  0x00\n    /* \"#utility.yul\":1068:1071   */\n  dup2\n    /* \"#utility.yul\":1060:1071   */\n  swap1\n  pop\n    /* \"#utility.yul\":1091:1094   */\n  dup2\n    /* \"#utility.yul\":1088:1089   */\n  0x00\n    /* \"#utility.yul\":1081:1095   */\n  mstore\n    /* \"#utility.yul\":1125:1129   */\n  0x20\n    /* \"#utility.yul\":1122:1123   */\n  0x00\n    /* \"#utility.yul\":1112:1130   */\n  keccak256\n    /* \"#utility.yul\":1104:1130   */\n  swap1\n  pop\n    /* \"#utility.yul\":996:1137   */\n  swap2\n  swap1\n  pop\n  jump\t// out\n    /* \"#utility.yul\":1143:1236   */\ntag_47:\n    /* \"#utility.yul\":1180:1186   */\n  0x00\n    /* \"#utility.yul\":1227:1229   */\n  0x20\n    /* \"#utility.yul\":1222:1224   */\n  0x1f\n    /* \"#utility.yul\":1215:1220   */\n  dup4\n    /* \"#utility.yul\":1211:1225   */\n  add\n    /* \"#utility.yul\":1207:1230   */\n  div\n    /* \"#utility.yul\":1197:1230   */\n  swap1\n  pop\n    /* \"#utility.yul\":1143:1236   */\n  swap2\n  swap1\n  pop\n  jump\t// out\n    /* \"#utility.yul\":1242:1349   */\ntag_48:\n    /* \"#utility.yul\":1286:1294   */\n  0x00\n    /* \"#utility.yul\":1336:1341   */\n  dup3\n    /* \"#utility.yul\":1330:1334   */\n  dup3\n    /* \"#utility.yul\":1326:1342   */\n  shl\n    /* \"#utility.yul\":1305:1342   */\n  swap1\n  pop\n    /* \"#utility.yul\":1242:1349   */\n  swap3\n  swap2\n  pop\n  pop\n  jump\t// out\n    /* \"#utility.yul\":1355:1748   */\ntag_49:\n    /* \"#utility.yul\":1424:1430   */\n  0x00\n    /* \"#utility.yul\":1474:1475   */\n  0x08\n    /* \"#utility.yul\":1462:1472   */\n  dup4\n    /* \"#utility.yul\":1458:1476   */\n  mul\n    /* \"#utility.yul\":1497:1594   */\n  tag_80\n    /* \"#utility.yul\":1527:1593   */\n  0xffffffffffffffffffffffffffffffffffffffffffffffffffffffffffffffff\n    /* \"#utility.yul\":1516:1525   */\n  dup3\n    /* \"#utility.yul\":1497:1594   */\n  tag_48\n  jump\t// in\ntag_80:\n    /* \"#utility.yul\":1615:1654   */\n  tag_81\n    /* \"#utility.yul\":1645:1653   */\n  dup7\n    /* \"#utility.yul\":1634:1643   */\n  dup4\n    /* \"#utility.yul\":1615:1654   */\n  tag_48\n  jump\t// in\ntag_81:\n    /* \"#utility.yul\":1603:1654   */\n  swap6\n  pop\n    /* \"#utility.yul\":1687:1691   */\n  dup1\n    /* \"#utility.yul\":1683:1692   */\n  not\n    /* \"#utility.yul\":1676:1681   */\n  dup5\n    /* \"#utility.yul\":1672:1693   */\n  and\n    /* \"#utility.yul\":1663:1693   */\n  swap4\n  pop\n    /* \"#utility.yul\":1736:1740   */\n  dup1\n    /* \"#utility.yul\":1726:1734   */\n  dup7\n    /* \"#utility.yul\":1722:1741   */\n  and\n    /* \"#utility.yul\":1715:1720   */\n  dup5\n    /* \"#utility.yul\":1712:1742   */\n  or\n    /* \"#utility.yul\":1702:1742   */\n  swap3\n  pop\n    /* \"#utility.yul\":1431:1748   */\n  pop\n  pop\n    /* \"#utility.yul\":1355:1748   */\n  swap4\n  swap3\n  pop\n  pop\n  pop\n  jump\t// out\n    /* \"#utility.yul\":1754:1831   */\ntag_50:\n    /* \"#utility.yul\":1791:1798   */\n  0x00\n    /* \"#utility.yul\":1820:1825   */\n  dup2\n    /* \"#utility.yul\":1809:1825   */\n  swap1\n  pop\n    /* \"#utility.yul\":1754:1831   */\n  swap2\n  swap1\n  pop\n  jump\t// out\n    /* \"#utility.yul\":1837:1897   */\ntag_51:\n    /* \"#utility.yul\":1865:1868   */\n  0x00\n    /* \"#utility.yul\":1886:1891   */\n  dup2\n    /* \"#utility.yul\":1879:1891   */\n  swap1\n  pop\n    /* \"#utility.yul\":1837:1897   */\n  swap2\n  swap1\n  pop\n  jump\t// out\n    /* \"#utility.yul\":1903:2045   */\ntag_52:\n    /* \"#utility.yul\":1953:1962   */\n  0x00\n    /* \"#utility.yul\":1986:2039   */\n  tag_85\n    /* \"#utility.yul\":2004:2038   */\n  tag_86\n    /* \"#utility.yul\":2013:2037   */\n  tag_87\n    /* \"#utility.yul\":2031:2036   */\n  dup5\n    /* \"#utility.yul\":2013:2037   */\n  tag_50\n  jump\t// in\ntag_87:\n    /* \"#utility.yul\":2004:2038   */\n  tag_51\n  jump\t// in\ntag_86:\n    /* \"#utility.yul\":1986:2039   */\n  tag_50\n  jump\t// in\ntag_85:\n    /* \"#utility.yul\":1973:2039   */\n  swap1\n  pop\n    /* \"#utility.yul\":1903:2045   */\n  swap2\n  swap1\n  pop\n  jump\t// out\n    /* \"#utility.yul\":2051:2126   */\ntag_53:\n    /* \"#utility.yul\":2094:2097   */\n  0x00\n    /* \"#utility.yul\":2115:2120   */\n  dup2\n    /* \"#utility.yul\":2108:2120   */\n  swap1\n  pop\n    /* \"#utility.yul\":2051:2126   */\n  swap2\n  swap1\n  pop\n  jump\t// out\n    /* \"#utility.yul\":2132:2401   */\ntag_54:\n    /* \"#utility.yul\":2242:2281   */\n  tag_90\n    /* \"#utility.yul\":2273:2280   */\n  dup4\n    /* \"#utility.yul\":2242:2281   */\n  tag_52\n  jump\t// in\ntag_90:\n    /* \"#utility.yul\":2303:2394   */\n  tag_91\n    /* \"#utility.yul\":2352:2393   */\n  tag_92\n    /* \"#utility.yul\":2376:2392   */\n  dup3\n    /* \"#utility.yul\":2352:2393   */\n  tag_53\n  jump\t// in\ntag_92:\n    /* \"#utility.yul\":2344:2350   */\n  dup5\n    /* \"#utility.yul\":2337:2341   */\n  dup5\n    /* \"#utility.yul\":2331:2342   */\n  sload\n    /* \"#utility.yul\":2303:2394   */\n  tag_49\n  jump\t// in\ntag_91:\n    /* \"#utility.yul\":2297:2301   */\n  dup3\n    /* \"#utility.yul\":2290:2395   */\n  sstore\n    /* \"#utility.yul\":2208:2401   */\n  pop\n    /* \"#utility.yul\":2132:2401   */\n  pop\n  pop\n  pop\n  jump\t// out\n    /* \"#utility.yul\":2407:2480   */\ntag_55:\n    /* \"#utility.yul\":2452:2455   */\n  0x00\n    /* \"#utility.yul\":2407:2480   */\n  swap1\n  jump\t// out\n    /* \"#utility.yul\":2486:2675   */\ntag_56:\n    /* \"#utility.yul\":2563:2595   */\n  tag_95\n  tag_55\n  jump\t// in\ntag_95:\n    /* \"#utility.yul\":2604:2669   */\n  tag_96\n    /* \"#utility.yul\":2662:2668   */\n  dup2\n    /* \"#utility.yul\":2654:2660   */\n  dup5\n    /* \"#utility.yul\":2648:2652   */\n  dup5\n    /* \"#utility.yul\":2604:2669   */\n  tag_54\n  jump\t// in\ntag_96:\n    /* \"#utility.yul\":2539:2675   */\n  pop\n    /* \"#utility.yul\":2486:2675   */\n  pop\n  pop\n  jump\t// out\n    /* \"#utility.yul\":2681:2867   */\ntag_57:\n    /* \"#utility.yul\":2741:2861   */\ntag_98:\n    /* \"#utility.yul\":2758:2761   */\n  dup2\n    /* \"#utility.yul\":2751:2756   */\n  dup2\n    /* \"#utility.yul\":2748:2762   */\n  lt\n    /* \"#utility.yul\":2741:2861   */\n  iszero\n  tag_100\n  jumpi\n    /* \"#utility.yul\":2812:2851   */\n  tag_101\n    /* \"#utility.yul\":2849:2850   */\n  0x00\n    /* \"#utility.yul\":2842:2847   */\n  dup3\n    /* \"#utility.yul\":2812:2851   */\n  tag_56\n  jump\t// in\ntag_101:\n    /* \"#utility.yul\":2785:2786   */\n  0x01\n    /* \"#utility.yul\":2778:2783   */\n  dup2\n    /* \"#utility.yul\":2774:2787   */\n  add\n    /* \"#utility.yul\":2765:2787   */\n  swap1\n  pop\n    /* \"#utility.yul\":2741:2861   */\n  jump(tag_98)\ntag_100:\n    /* \"#utility.yul\":2681:2867   */\n  pop\n  pop\n  jump\t// out\n    /* \"#utility.yul\":2873:3416   */\ntag_58:\n    /* \"#utility.yul\":2974:2976   */\n  0x1f\n    /* \"#utility.yul\":2969:2972   */\n  dup3\n    /* \"#utility.yul\":2966:2977   */\n  gt\n    /* \"#utility.yul\":2963:3409   */\n  iszero\n  tag_103\n  jumpi\n    /* \"#utility.yul\":3008:3046   */\n  tag_104\n    /* \"#utility.yul\":3040:3045   */\n  dup2\n    /* \"#utility.yul\":3008:3046   */\n  tag_46\n  jump\t// in\ntag_104:\n    /* \"#utility.yul\":3092:3121   */\n  tag_105\n    /* \"#utility.yul\":3110:3120   */\n  dup5\n    /* \"#utility.yul\":3092:3121   */\n  tag_47\n  jump\t// in\ntag_105:\n    /* \"#utility.yul\":3082:3090   */\n  dup2\n    /* \"#utility.yul\":3078:3122   */\n  add\n    /* \"#utility.yul\":3275:3277   */\n  0x20\n    /* \"#utility.yul\":3263:3273   */\n  dup6\n    /* \"#utility.yul\":3260:3278   */\n  lt\n    /* \"#utility.yul\":3257:3306   */\n  iszero\n  tag_106\n  jumpi\n    /* \"#utility.yul\":3296:3304   */\n  dup2\n    /* \"#utility.yul\":3281:3304   */\n  swap1\n  pop\n    /* \"#utility.yul\":3257:3306   */\ntag_106:\n    /* \"#utility.yul\":3319:3399   */\n  tag_107\n    /* \"#utility.yul\":3375:3397   */\n  tag_108\n    /* \"#utility.yul\":3393:3396   */\n  dup6\n    /* \"#utility.yul\":3375:3397   */\n  tag_47\n  jump\t// in\ntag_108:\n    /* \"#utility.yul\":3365:3373   */\n  dup4\n    /* \"#utility.yul\":3361:3398   */\n  add\n    /* \"#utility.yul\":3348:3359   */\n  dup3\n    /* \"#utility.yul\":3319:3399   */\n  tag_57\n  jump\t// in\ntag_107:\n    /* \"#utility.yul\":2978:3409   */\n  pop\n  pop\n    /* \"#utility.yul\":2963:3409   */\ntag_103:\n    /* \"#utility.yul\":2873:3416   */\n  pop\n  pop\n  pop\n  jump\t// out\n    /* \"#utility.yul\":3422:3539   */\ntag_59:\n    /* \"#utility.yul\":3476:3484   */\n  0x00\n    /* \"#utility.yul\":3526:3531   */\n  dup3\n    /* \"#utility.yul\":3520:3524   */\n  dup3\n    /* \"#utility.yul\":3516:3532   */\n  shr\n    /* \"#utility.yul\":3495:3532   */\n  swap1\n  pop\n    /* \"#utility.yul\":3422:3539   */\n  swap3\n  swap2\n  pop\n  pop\n  jump\t// out\n    /* \"#utility.yul\":3545:3714   */\ntag_60:\n    /* \"#utility.yul\":3589:3595   */\n  0x00\n    /* \"#utility.yul\":3622:3673   */\n  tag_111\n    /* \"#utility.yul\":3670:3671   */\n  0x00\n    /* \"#utility.yul\":3666:3672   */\n  not\n    /* \"#utility.yul\":3658:3663   */\n  dup5\n    /* \"#utility.yul\":3655:3656   */\n  0x08\n    /* \"#utility.yul\":3651:3664   */\n  mul\n    /* \"#utility.yul\":3622:3673   */\n  tag_59\n  jump\t// in\ntag_111:\n    /* \"#utility.yul\":3618:3674   */\n  not\n    /* \"#utility.yul\":3703:3707   */\n  dup1\n    /* \"#utility.yul\":3697:3701   */\n  dup4\n    /* \"#utility.yul\":3693:3708   */\n  and\n    /* \"#utility.yul\":3683:3708   */\n  swap2\n  pop\n    /* \"#utility.yul\":3596:3714   */\n  pop\n    /* \"#utility.yul\":3545:3714   */\n  swap3\n  swap2\n  pop\n  pop\n  jump\t// out\n    /* \"#utility.yul\":3719:4014   */\ntag_61:\n    /* \"#utility.yul\":3795:3799   */\n  0x00\n    /* \"#utility.yul\":3941:3970   */\n  tag_113\n    /* \"#utility.yul\":3966:3969   */\n  dup4\n    /* \"#utility.yul\":3960:3964   */\n  dup4\n    /* \"#utility.yul\":3941:3970   */\n  tag_60\n  jump\t// in\ntag_113:\n    /* \"#utility.yul\":3933:3970   */\n  swap2\n  pop\n    /* \"#utility.yul\":4003:4006   */\n  dup3\n    /* \"#utility.yul\":4000:4001   */\n  0x02\n    /* \"#utility.yul\":3996:4007   */\n  mul\n    /* \"#utility.yul\":3990:3994   */\n  dup3\n    /* \"#utility.yul\":3987:4008   */\n  or\n    /* \"#utility.yul\":3979:4008   */\n  swap1\n  pop\n    /* \"#utility.yul\":3719:4014   */\n  swap3\n  swap2\n  pop\n  pop\n  jump\t// out\n    /* \"#utility.yul\":4019:5414   */\ntag_11:\n    /* \"#utility.yul\":4136:4173   */\n  tag_115\n    /* \"#utility.yul\":4169:4172   */\n  dup3\n    /* \"#utility.yul\":4136:4173   */\n  tag_42\n  jump\t// in\ntag_115:\n    /* \"#utility.yul\":4238:4256   */\n  0xffffffffffffffff\n    /* \"#utility.yul\":4230:4236   */\n  dup2\n    /* \"#utility.yul\":4227:4257   */\n  gt\n    /* \"#utility.yul\":4224:4280   */\n  iszero\n  tag_116\n  jumpi\n    /* \"#utility.yul\":4260:4278   */\n  tag_117\n  tag_43\n  jump\t// in\ntag_117:\n    /* \"#utility.yul\":4224:4280   */\ntag_116:\n    /* \"#utility.yul\":4304:4342   */\n  tag_118\n    /* \"#utility.yul\":4336:4340   */\n  dup3\n    /* \"#utility.yul\":4330:4341   */\n  sload\n    /* \"#utility.yul\":4304:4342   */\n  tag_45\n  jump\t// in\ntag_118:\n    /* \"#utility.yul\":4389:4456   */\n  tag_119\n    /* \"#utility.yul\":4449:4455   */\n  dup3\n    /* \"#utility.yul\":4441:4447   */\n  dup3\n    /* \"#utility.yul\":4435:4439   */\n  dup6\n    /* \"#utility.yul\":4389:4456   */\n  tag_58\n  jump\t// in\ntag_119:\n    /* \"#utility.yul\":4483:4484   */\n  0x00\n    /* \"#utility.yul\":4507:4511   */\n  0x20\n    /* \"#utility.yul\":4494:4511   */\n  swap1\n  pop\n    /* \"#utility.yul\":4539:4541   */\n  0x1f\n    /* \"#utility.yul\":4531:4537   */\n  dup4\n    /* \"#utility.yul\":4528:4542   */\n  gt\n    /* \"#utility.yul\":4556:4557   */\n  0x01\n    /* \"#utility.yul\":4551:5169   */\n  dup2\n  eq\n  tag_121\n  jumpi\n    /* \"#utility.yul\":5213:5214   */\n  0x00\n    /* \"#utility.yul\":5230:5236   */\n  dup5\n    /* \"#utility.yul\":5227:5304   */\n  iszero\n  tag_122\n  jumpi\n    /* \"#utility.yul\":5279:5288   */\n  dup3\n    /* \"#utility.yul\":5274:5277   */\n  dup8\n    /* \"#utility.yul\":5270:5289   */\n  add\n    /* \"#utility.yul\":5264:5290   */\n  mload\n    /* \"#utility.yul\":5255:5290   */\n  swap1\n  pop\n    /* \"#utility.yul\":5227:5304   */\ntag_122:\n    /* \"#utility.yul\":5330:5397   */\n  tag_123\n    /* \"#utility.yul\":5390:5396   */\n  dup6\n    /* \"#utility.yul\":5383:5388   */\n  dup3\n    /* \"#utility.yul\":5330:5397   */\n  tag_61\n  jump\t// in\ntag_123:\n    /* \"#utility.yul\":5324:5328   */\n  dup7\n    /* \"#utility.yul\":5317:5398   */\n  sstore\n    /* \"#utility.yul\":5186:5408   */\n  pop\n    /* \"#utility.yul\":4521:5408   */\n  jump(tag_120)\n    /* \"#utility.yul\":4551:5169   */\ntag_121:\n    /* \"#utility.yul\":4603:4607   */\n  0x1f\n    /* \"#utility.yul\":4599:4608   */\n  not\n    /* \"#utility.yul\":4591:4597   */\n  dup5\n    /* \"#utility.yul\":4587:4609   */\n  and\n    /* \"#utility.yul\":4637:4674   */\n  tag_124\n    /* \"#utility.yul\":4669:4673   */\n  dup7\n    /* \"#utility.yul\":4637:4674   */\n  tag_46\n  jump\t// in\ntag_124:\n    /* \"#utility.yul\":4696:4697   */\n  0x00\n    /* \"#utility.yul\":4710:4918   */\ntag_125:\n    /* \"#utility.yul\":4724:4731   */\n  dup3\n    /* \"#utility.yul\":4721:4722   */\n  dup2\n    /* \"#utility.yul\":4718:4732   */\n  lt\n    /* \"#utility.yul\":4710:4918   */\n  iszero\n  tag_127\n  jumpi\n    /* \"#utility.yul\":4803:4812   */\n  dup5\n    /* \"#utility.yul\":4798:4801   */\n  dup10\n    /* \"#utility.yul\":4794:4813   */\n  add\n    /* \"#utility.yul\":4788:4814   */\n  mload\n    /* \"#utility.yul\":4780:4786   */\n  dup3\n    /* \"#utility.yul\":4773:4815   */\n  sstore\n    /* \"#utility.yul\":4854:4855   */\n  0x01\n    /* \"#utility.yul\":4846:4852   */\n  dup3\n    /* \"#utility.yul\":4842:4856   */\n  add\n    /* \"#utility.yul\":4832:4856   */\n  swap2\n  pop\n    /* \"#utility.yul\":4901:4903   */\n  0x20\n    /* \"#utility.yul\":4890:4899   */\n  dup6\n    /* \"#utility.yul\":4886:4904   */\n  add\n    /* \"#utility.yul\":4873:4904   */\n  swap5\n  pop\n    /* \"#utility.yul\":4747:4751   */\n  0x20\n    /* \"#utility.yul\":4744:4745   */\n  dup2\n    /* \"#utility.yul\":4740:4752   */\n  add\n    /* \"#utility.yul\":4735:4752   */\n  swap1\n  pop\n    /* \"#utility.yul\":4710:4918   */\n  jump(tag_125)\ntag_127:\n    /* \"#utility.yul\":4946:4952   */\n  dup7\n    /* \"#utility.yul\":4937:4944   */\n  dup4\n    /* \"#utility.yul\":4934:4953   */\n  lt\n    /* \"#utility.yul\":4931:5110   */\n  iszero\n  tag_128\n  jumpi\n    /* \"#utility.yul\":5004:5013   */\n  dup5\n    /* \"#utility.yul\":4999:5002   */\n  dup10\n    /* \"#utility.yul\":4995:5014   */\n  add\n    /* \"#utility.yul\":4989:5015   */\n  mload\n    /* \"#utility.yul\":5047:5095   */\n  tag_129\n    /* \"#utility.yul\":5089:5093   */\n  0x1f\n    /* \"#utility.yul\":5081:5087   */\n  dup10\n    /* \"#utility.yul\":5077:5094   */\n  and\n    /* \"#utility.yul\":5066:5075   */\n  dup3\n    /* \"#utility.yul\":5047:5095   */\n  tag_60\n  jump\t// in\ntag_129:\n    /* \"#utility.yul\":5039:5045   */\n  dup4\n    /* \"#utility.yul\":5032:5096   */\n  sstore\n    /* \"#utility.yul\":4954:5110   */\n  pop\n    /* \"#utility.yul\":4931:5110   */\ntag_128:\n    /* \"#utility.yul\":5156:5157   */\n  0x01\n    /* \"#utility.yul\":5152:5153   */\n  0x02\n    /* \"#utility.yul\":5144:5150   */\n  dup9\n    /* \"#utility.yul\":5140:5154   */\n  mul\n    /* \"#utility.yul\":5136:5158   */\n  add\n    /* \"#utility.yul\":5130:5134   */\n  dup9\n    /* \"#utility.yul\":5123:5159   */\n  sstore\n    /* \"#utility.yul\":4558:5169   */\n  pop\n  pop\n  pop\n    /* \"#utility.yul\":4521:5408   */\ntag_120:\n  pop\n    /* \"#utility.yul\":4111:5414   */\n  pop\n  pop\n  pop\n    /* \"#utility.yul\":4019:5414   */\n  pop\n  pop\n  jump\t// out\n    /* \"#utility.yul\":5420:5546   */\ntag_62:\n    /* \"#utility.yul\":5457:5464   */\n  0x00\n    /* \"#utility.yul\":5497:5539   */\n  0xffffffffffffffffffffffffffffffffffffffff\n    /* \"#utility.yul\":5490:5495   */\n  dup3\n    /* \"#utility.yul\":5486:5540   */\n  and\n    /* \"#utility.yul\":5475:5540   */\n  swap1\n  pop\n    /* \"#utility.yul\":5420:5546   */\n  swap2\n  swap1\n  pop\n  jump\t// out\n    /* \"#utility.yul\":5552:5648   */\ntag_63:\n    /* \"#utility.yul\":5589:5596   */\n  0x00\n    /* \"#utility.yul\":5618:5642   */\n  tag_132\n    /* \"#utility.yul\":5636:5641   */\n  dup3\n    /* \"#utility.yul\":5618:5642   */\n  tag_62\n  jump\t// in\ntag_132:\n    /* \"#utility.yul\":5607:5642   */\n  swap1\n  pop\n    /* \"#utility.yul\":5552:5648   */\n  swap2\n  swap1\n  pop\n  jump\t// out\n    /* \"#utility.yul\":5654:5772   */\ntag_64:\n    /* \"#utility.yul\":5741:5765   */\n  tag_134\n    /* \"#utility.yul\":5759:5764   */\n  dup2\n    /* \"#utility.yul\":5741:5765   */\n  tag_63\n  jump\t// in\ntag_134:\n    /* \"#utility.yul\":5736:5739   */\n  dup3\n    /* \"#utility.yul\":5729:5766   */\n  mstore\n    /* \"#utility.yul\":5654:5772   */\n  pop\n  pop\n  jump\t// out\n    /* \"#utility.yul\":5778:6000   */\ntag_16:\n    /* \"#utility.yul\":5871:5875   */\n  0x00\n    /* \"#utility.yul\":5909:5911   */\n  0x20\n    /* \"#utility.yul\":5898:5907   */\n  dup3\n    /* \"#utility.yul\":5894:5912   */\n  add\n    /* \"#utility.yul\":5886:5912   */\n  swap1\n  pop\n    /* \"#utility.yul\":5922:5993   */\n  tag_136\n    /* \"#utility.yul\":5990:5991   */\n  0x00\n    /* \"#utility.yul\":5979:5988   */\n  dup4\n    /* \"#utility.yul\":5975:5992   */\n  add\n    /* \"#utility.yul\":5966:5972   */\n  dup5\n    /* \"#utility.yul\":5922:5993   */\n  tag_64\n  jump\t// in\ntag_136:\n    /* \"#utility.yul\":5778:6000   */\n  swap3\n  swap2\n  pop\n  pop\n  jump\t// out\n    /* \"#utility.yul\":6006:6186   */\ntag_65:\n    /* \"#utility.yul\":6054:6131   */\n  0x4e487b7100000000000000000000000000000000000000000000000000000000\n    /* \"#utility.yul\":6051:6052   */\n  0x00\n    /* \"#utility.yul\":6044:6132   */\n  mstore\n    /* \"#utility.yul\":6151:6155   */\n  0x11\n    /* \"#utility.yul\":6148:6149   */\n  0x04\n    /* \"#utility.yul\":6141:6156   */\n  mstore\n    /* \"#utility.yul\":6175:6179   */\n  0x24\n    /* \"#utility.yul\":6172:6173   */\n  0x00\n    /* \"#utility.yul\":6165:6180   */\n  revert\n    /* \"#utility.yul\":6192:6383   */\ntag_33:\n    /* \"#utility.yul\":6232:6235   */\n  0x00\n    /* \"#utility.yul\":6251:6271   */\n  tag_139\n    /* \"#utility.yul\":6269:6270   */\n  dup3\n    /* \"#utility.yul\":6251:6271   */\n  tag_50\n  jump\t// in\ntag_139:\n    /* \"#utility.yul\":6246:6271   */\n  swap2\n  pop\n    /* \"#utility.yul\":6285:6305   */\n  tag_140\n    /* \"#utility.yul\":6303:6304   */\n  dup4\n    /* \"#utility.yul\":6285:6305   */\n  tag_50\n  jump\t// in\ntag_140:\n    /* \"#utility.yul\":6280:6305   */\n  swap3\n  pop\n    /* \"#utility.yul\":6328:6329   */\n  dup3\n    /* \"#utility.yul\":6325:6326   */\n  dup3\n    /* \"#utility.yul\":6321:6330   */\n  add\n    /* \"#utility.yul\":6314:6330   */\n  swap1\n  pop\n    /* \"#utility.yul\":6349:6352   */\n  dup1\n    /* \"#utility.yul\":6346:6347   */\n  dup3\n    /* \"#utility.yul\":6343:6353   */\n  gt\n    /* \"#utility.yul\":6340:6376   */\n  iszero\n  tag_141\n  jumpi\n    /* \"#utility.yul\":6356:6374   */\n  tag_142\n  tag_65\n  jump\t// in\ntag_142:\n    /* \"#utility.yul\":6340:6376   */\ntag_141:\n    /* \"#utility.yul\":6192:6383   */\n  swap3\n  swap2\n  pop\n  pop\n  jump\t// out\n    /* \"#utility.yul\":6389:6507   */\ntag_66:\n    /* \"#utility.yul\":6476:6500   */\n  tag_144\n    /* \"#utility.yul\":6494:6499   */\n  dup2\n    /* \"#utility.yul\":6476:6500   */\n  tag_50\n  jump\t// in\ntag_144:\n    /* \"#utility.yul\":6471:6474   */\n  dup3\n    /* \"#utility.yul\":6464:6501   */\n  mstore\n    /* \"#utility.yul\":6389:6507   */\n  pop\n  pop\n  jump\t// out\n    /* \"#utility.yul\":6513:6955   */\ntag_37:\n    /* \"#utility.yul\":6662:6666   */\n  0x00\n    /* \"#utility.yul\":6700:6702   */\n  0x60\n    /* \"#utility.yul\":6689:6698   */\n  dup3\n    /* \"#utility.yul\":6685:6703   */\n  add\n    /* \"#utility.yul\":6677:6703   */\n  swap1\n  pop\n    /* \"#utility.yul\":6713:6784   */\n  tag_146\n    /* \"#utility.yul\":6781:6782   */\n  0x00\n    /* \"#utility.yul\":6770:6779   */\n  dup4\n    /* \"#utility.yul\":6766:6783   */\n  add\n    /* \"#utility.yul\":6757:6763   */\n  dup7\n    /* \"#utility.yul\":6713:6784   */\n  tag_64\n  jump\t// in\ntag_146:\n    /* \"#utility.yul\":6794:6866   */\n  tag_147\n    /* \"#utility.yul\":6862:6864   */\n  0x20\n    /* \"#utility.yul\":6851:6860   */\n  dup4\n    /* \"#utility.yul\":6847:6865   */\n  add\n    /* \"#utility.yul\":6838:6844   */\n  dup6\n    /* \"#utility.yul\":6794:6866   */\n  tag_66\n  jump\t// in\ntag_147:\n    /* \"#utility.yul\":6876:6948   */\n  tag_148\n    /* \"#utility.yul\":6944:6946   */\n  0x40\n    /* \"#utility.yul\":6933:6942   */\n  dup4\n    /* \"#utility.yul\":6929:6947   */\n  add\n    /* \"#utility.yul\":6920:6926   */\n  dup5\n    /* \"#utility.yul\":6876:6948   */\n  tag_66\n  jump\t// in\ntag_148:\n    /* \"#utility.yul\":6513:6955   */\n  swap5\n  swap4\n  pop\n  pop\n  pop\n  pop\n  jump\t// out\n    /* \"#utility.yul\":6961:7183   */\ntag_41:\n    /* \"#utility.yul\":7054:7058   */\n  0x00\n    /* \"#utility.yul\":7092:7094   */\n  0x20\n    /* \"#utility.yul\":7081:7090   */\n  dup3\n    /* \"#utility.yul\":7077:7095   */\n  add\n    /* \"#utility.yul\":7069:7095   */\n  swap1\n  pop\n    /* \"#utility.yul\":7105:7176   */\n  tag_150\n    /* \"#utility.yul\":7173:7174   */\n  0x00\n    /* \"#utility.yul\":7162:7171   */\n  dup4\n    /* \"#utility.yul\":7158:7175   */\n  add\n    /* \"#utility.yul\":7149:7155   */\n  dup5\n    /* \"#utility.yul\":7105:7176   */\n  tag_66\n  jump\t// in\ntag_150:\n    /* \"#utility.yul\":6961:7183   */\n  swap3\n  swap2\n  pop\n  pop\n  jump\t// out\n    /* \"contracts/bettoken.sol\":290:5167  contract Bettoken is ERC20, Ownable, ReentrancyGuard {... */\ntag_23:\n  dataSize(sub_0)\n  dup1\n  dataOffset(sub_0)\n  0x00\n  codecopy\n  0x00\n  return\nstop\n\nsub_0: assembly {\n        /* \"contracts/bettoken.sol\":290:5167  contract Bettoken is ERC20, Ownable, ReentrancyGuard {... */\n      mstore(0x40, 0x80)\n      jumpi(tag_1, lt(calldatasize, 0x04))\n      shr(0xe0, calldataload(0x00))\n      dup1\n      0x70a08231\n      gt\n      tag_37\n      jumpi\n      dup1\n      0xb0e68630\n      gt\n      tag_38\n      jumpi\n      dup1\n      0xc040e6b8\n      gt\n      tag_39\n      jumpi\n      dup1\n      0xc040e6b8\n      eq\n      tag_32\n      jumpi\n      dup1\n      0xc552e04b\n      eq\n      tag_33\n      jumpi\n      dup1\n      0xdd62ed3e\n      eq\n      tag_34\n      jumpi\n      dup1\n      0xe6bd92b9\n      eq\n      tag_35\n      jumpi\n      dup1\n      0xf2fde38b\n      eq\n      tag_36\n      jumpi\n      jump(tag_2)\n    tag_39:\n      dup1\n      0xb0e68630\n      eq\n      tag_28\n      jumpi\n      dup1\n      0xb68ed11f\n      eq\n      tag_29\n      jumpi\n      dup1\n      0xba20cf4c\n      eq\n      tag_30\n      jumpi\n      dup1\n      0xbda95633\n      eq\n      tag_31\n      jumpi\n      jump(tag_2)\n    tag_38:\n      dup1\n      0x902d55a5\n      gt\n      tag_40\n      jumpi\n      dup1\n      0x902d55a5\n      eq\n      tag_24\n      jumpi\n      dup1\n      0x920168b3\n      eq\n      tag_25\n      jumpi\n      dup1\n      0x95d89b41\n      eq\n      tag_26\n      jumpi\n      dup1\n      0xa9059cbb\n      eq\n      tag_27\n      jumpi\n      jump(tag_2)\n    tag_40:\n      dup1\n      0x70a08231\n      eq\n      tag_20\n      jumpi\n      dup1\n      0x715018a6\n      eq\n      tag_21\n      jumpi\n      dup1\n      0x8da5cb5b\n      eq\n      tag_22\n      jumpi\n      dup1\n      0x8f7713ff\n      eq\n      tag_23\n      jumpi\n      jump(tag_2)\n    tag_37:\n      dup1\n      0x2b1cbc38\n      gt\n      tag_41\n      jumpi\n      dup1\n      0x3610724e\n      gt\n      tag_42\n      jumpi\n      dup1\n      0x3610724e\n      eq\n      tag_15\n      jumpi\n      dup1\n      0x40f02ab6\n      eq\n      tag_16\n      jumpi\n      dup1\n      0x54dd1da4\n      eq\n      tag_17\n      jumpi\n      dup1\n      0x55dd574c\n      eq\n      tag_18\n      jumpi\n      dup1\n      0x5fb3b944\n      eq\n      tag_19\n      jumpi\n      jump(tag_2)\n    tag_42:\n      dup1\n      0x2b1cbc38\n      eq\n      tag_11\n      jumpi\n      dup1\n      0x313ce567\n      eq\n      tag_12\n      jumpi\n      dup1\n      0x32c85ac0\n      eq\n      tag_13\n      jumpi\n      dup1\n      0x338dbf59\n      eq\n      tag_14\n      jumpi\n      jump(tag_2)\n    tag_41:\n      dup1\n      0x18160ddd\n      gt\n      tag_43\n      jumpi\n      dup1\n      0x18160ddd\n      eq\n      tag_7\n      jumpi\n      dup1\n      0x192399d1\n      eq\n      tag_8\n      jumpi\n      dup1\n      0x23b872dd\n      eq\n      tag_9\n      jumpi\n      dup1\n      0x24600fc3\n      eq\n      tag_10\n      jumpi\n      jump(tag_2)\n    tag_43:\n      dup1\n      0x06fdde03\n      eq\n      tag_3\n      jumpi\n      dup1\n      0x095ea7b3\n      eq\n      tag_4\n      jumpi\n      dup1\n      0x0fe83bb8\n      eq\n      tag_5\n      jumpi\n      dup1\n      0x1514617e\n      eq\n      tag_6\n      jumpi\n      jump(tag_2)\n    tag_1:\n      jumpi(tag_2, calldatasize)\n        /* \"contracts/bettoken.sol\":5115:5158  revert(\"Direct ETH transfers not allowed.\") */\n      mload(0x40)\n      0x08c379a000000000000000000000000000000000000000000000000000000000\n      dup2\n      mstore\n      0x04\n      add\n      tag_46\n      swap1\n      tag_47\n      jump\t// in\n    tag_46:\n      mload(0x40)\n      dup1\n      swap2\n      sub\n      swap1\n      revert\n        /* \"contracts/bettoken.sol\":290:5167  contract Bettoken is ERC20, Ownable, ReentrancyGuard {... */\n    tag_2:\n        /* \"contracts/bettoken.sol\":5022:5065  revert(\"Direct ETH transfers not allowed.\") */\n      mload(0x40)\n      0x08c379a000000000000000000000000000000000000000000000000000000000\n      dup2\n      mstore\n      0x04\n      add\n      tag_50\n      swap1\n      tag_47\n      jump\t// in\n    tag_50:\n      mload(0x40)\n      dup1\n      swap2\n      sub\n      swap1\n      revert\n        /* \"@openzeppelin/contracts/token/ERC20/ERC20.sol\":2074:2163  function name() public view virtual returns (string memory) {... */\n    tag_3:\n      callvalue\n      dup1\n      iszero\n      tag_51\n      jumpi\n      0x00\n      dup1\n      revert\n    tag_51:\n      pop\n      tag_52\n      tag_53\n      jump\t// in\n    tag_52:\n      mload(0x40)\n      tag_54\n      swap2\n      swap1\n      tag_55\n      jump\t// in\n    tag_54:\n      mload(0x40)\n      dup1\n      swap2\n      sub\n      swap1\n      return\n        /* \"@openzeppelin/contracts/token/ERC20/ERC20.sol\":4293:4479  function approve(address spender, uint256 value) public virtual returns (bool) {... */\n    tag_4:\n      callvalue\n      dup1\n      iszero\n      tag_56\n      jumpi\n      0x00\n      dup1\n      revert\n    tag_56:\n      pop\n      tag_57\n      0x04\n      dup1\n      calldatasize\n      sub\n      dup2\n      add\n      swap1\n      tag_58\n      swap2\n      swap1\n      tag_59\n      jump\t// in\n    tag_58:\n      tag_60\n      jump\t// in\n    tag_57:\n      mload(0x40)\n      tag_61\n      swap2\n      swap1\n      tag_62\n      jump\t// in\n    tag_61:\n      mload(0x40)\n      dup1\n      swap2\n      sub\n      swap1\n      return\n        /* \"contracts/bettoken.sol\":1007:1060  uint256 public preSaleTokens = 161_164_236 * 10 ** 18 */\n    tag_5:\n      callvalue\n      dup1\n      iszero\n      tag_63\n      jumpi\n      0x00\n      dup1\n      revert\n    tag_63:\n      pop\n      tag_64\n      tag_65\n      jump\t// in\n    tag_64:\n      mload(0x40)\n      tag_66\n      swap2\n      swap1\n      tag_67\n      jump\t// in\n    tag_66:\n      mload(0x40)\n      dup1\n      swap2\n      sub\n      swap1\n      return\n        /* \"contracts/bettoken.sol\":1534:1578  uint256 public vestingDuration = 6 * 30 days */\n    tag_6:\n      callvalue\n      dup1\n      iszero\n      tag_68\n      jumpi\n      0x00\n      dup1\n      revert\n    tag_68:\n      pop\n      tag_69\n      tag_70\n      jump\t// in\n    tag_69:\n      mload(0x40)\n      tag_71\n      swap2\n      swap1\n      tag_67\n      jump\t// in\n    tag_71:\n      mload(0x40)\n      dup1\n      swap2\n      sub\n      swap1\n      return\n        /* \"@openzeppelin/contracts/token/ERC20/ERC20.sol\":3144:3241  function totalSupply() public view virtual returns (uint256) {... */\n    tag_7:\n      callvalue\n      dup1\n      iszero\n      tag_72\n      jumpi\n      0x00\n      dup1\n      revert\n    tag_72:\n      pop\n      tag_73\n      tag_74\n      jump\t// in\n    tag_73:\n      mload(0x40)\n      tag_75\n      swap2\n      swap1\n      tag_67\n      jump\t// in\n    tag_75:\n      mload(0x40)\n      dup1\n      swap2\n      sub\n      swap1\n      return\n        /* \"contracts/bettoken.sol\":1420:1469  mapping(address => uint256) public vestingBalance */\n    tag_8:\n      callvalue\n      dup1\n      iszero\n      tag_76\n      jumpi\n      0x00\n      dup1\n      revert\n    tag_76:\n      pop\n      tag_77\n      0x04\n      dup1\n      calldatasize\n      sub\n      dup2\n      add\n      swap1\n      tag_78\n      swap2\n      swap1\n      tag_79\n      jump\t// in\n    tag_78:\n      tag_80\n      jump\t// in\n    tag_77:\n      mload(0x40)\n      tag_81\n      swap2\n      swap1\n      tag_67\n      jump\t// in\n    tag_81:\n      mload(0x40)\n      dup1\n      swap2\n      sub\n      swap1\n      return\n        /* \"@openzeppelin/contracts/token/ERC20/ERC20.sol\":5039:5283  function transferFrom(address from, address to, uint256 value) public virtual returns (bool) {... */\n    tag_9:\n      callvalue\n      dup1\n      iszero\n      tag_82\n      jumpi\n      0x00\n      dup1\n      revert\n    tag_82:\n      pop\n      tag_83\n      0x04\n      dup1\n      calldatasize\n      sub\n      dup2\n      add\n      swap1\n      tag_84\n      swap2\n      swap1\n      tag_85\n      jump\t// in\n    tag_84:\n      tag_86\n      jump\t// in\n    tag_83:\n      mload(0x40)\n      tag_87\n      swap2\n      swap1\n      tag_62\n      jump\t// in\n    tag_87:\n      mload(0x40)\n      dup1\n      swap2\n      sub\n      swap1\n      return\n        /* \"contracts/bettoken.sol\":4856:4978  function withdrawFunds() external onlyOwner nonReentrant {... */\n    tag_10:\n      callvalue\n      dup1\n      iszero\n      tag_88\n      jumpi\n      0x00\n      dup1\n      revert\n    tag_88:\n      pop\n      tag_89\n      tag_90\n      jump\t// in\n    tag_89:\n      stop\n        /* \"contracts/bettoken.sol\":1475:1528  mapping(address => uint256) public vestingReleaseTime */\n    tag_11:\n      callvalue\n      dup1\n      iszero\n      tag_91\n      jumpi\n      0x00\n      dup1\n      revert\n    tag_91:\n      pop\n      tag_92\n      0x04\n      dup1\n      calldatasize\n      sub\n      dup2\n      add\n      swap1\n      tag_93\n      swap2\n      swap1\n      tag_79\n      jump\t// in\n    tag_93:\n      tag_94\n      jump\t// in\n    tag_92:\n      mload(0x40)\n      tag_95\n      swap2\n      swap1\n      tag_67\n      jump\t// in\n    tag_95:\n      mload(0x40)\n      dup1\n      swap2\n      sub\n      swap1\n      return\n        /* \"@openzeppelin/contracts/token/ERC20/ERC20.sol\":3002:3084  function decimals() public view virtual returns (uint8) {... */\n    tag_12:\n      callvalue\n      dup1\n      iszero\n      tag_96\n      jumpi\n      0x00\n      dup1\n      revert\n    tag_96:\n      pop\n      tag_97\n      tag_98\n      jump\t// in\n    tag_97:\n      mload(0x40)\n      tag_99\n      swap2\n      swap1\n      tag_100\n      jump\t// in\n    tag_99:\n      mload(0x40)\n      dup1\n      swap2\n      sub\n      swap1\n      return\n        /* \"contracts/bettoken.sol\":4625:4850  function haltSales() external onlyOwner {... */\n    tag_13:\n      callvalue\n      dup1\n      iszero\n      tag_101\n      jumpi\n      0x00\n      dup1\n      revert\n    tag_101:\n      pop\n      tag_102\n      tag_103\n      jump\t// in\n    tag_102:\n      stop\n        /* \"contracts/bettoken.sol\":1925:2106  function startPrivateSale() external onlyOwner {... */\n    tag_14:\n      callvalue\n      dup1\n      iszero\n      tag_104\n      jumpi\n      0x00\n      dup1\n      revert\n    tag_104:\n      pop\n      tag_105\n      tag_106\n      jump\t// in\n    tag_105:\n      stop\n        /* \"contracts/bettoken.sol\":2388:3677  function buyTokens(uint256 usdAmount) external payable nonReentrant {... */\n    tag_15:\n      tag_107\n      0x04\n      dup1\n      calldatasize\n      sub\n      dup2\n      add\n      swap1\n      tag_108\n      swap2\n      swap1\n      tag_109\n      jump\t// in\n    tag_108:\n      tag_110\n      jump\t// in\n    tag_107:\n      stop\n        /* \"contracts/bettoken.sol\":1606:1645  uint256 public stakeDuration = 365 days */\n    tag_16:\n      callvalue\n      dup1\n      iszero\n      tag_111\n      jumpi\n      0x00\n      dup1\n      revert\n    tag_111:\n      pop\n      tag_112\n      tag_113\n      jump\t// in\n    tag_112:\n      mload(0x40)\n      tag_114\n      swap2\n      swap1\n      tag_67\n      jump\t// in\n    tag_114:\n      mload(0x40)\n      dup1\n      swap2\n      sub\n      swap1\n      return\n        /* \"contracts/bettoken.sol\":4263:4619  function releaseVestedTokens() external nonReentrant {... */\n    tag_17:\n      callvalue\n      dup1\n      iszero\n      tag_115\n      jumpi\n      0x00\n      dup1\n      revert\n    tag_115:\n      pop\n      tag_116\n      tag_117\n      jump\t// in\n    tag_116:\n      stop\n        /* \"contracts/bettoken.sol\":2112:2382  function startPreSale() external onlyOwner {... */\n    tag_18:\n      callvalue\n      dup1\n      iszero\n      tag_118\n      jumpi\n      0x00\n      dup1\n      revert\n    tag_118:\n      pop\n      tag_119\n      tag_120\n      jump\t// in\n    tag_119:\n      stop\n        /* \"contracts/bettoken.sol\":851:891  uint256 public privateSaleSoldTokens = 0 */\n    tag_19:\n      callvalue\n      dup1\n      iszero\n      tag_121\n      jumpi\n      0x00\n      dup1\n      revert\n    tag_121:\n      pop\n      tag_122\n      tag_123\n      jump\t// in\n    tag_122:\n      mload(0x40)\n      tag_124\n      swap2\n      swap1\n      tag_67\n      jump\t// in\n    tag_124:\n      mload(0x40)\n      dup1\n      swap2\n      sub\n      swap1\n      return\n        /* \"@openzeppelin/contracts/token/ERC20/ERC20.sol\":3299:3415  function balanceOf(address account) public view virtual returns (uint256) {... */\n    tag_20:\n      callvalue\n      dup1\n      iszero\n      tag_125\n      jumpi\n      0x00\n      dup1\n      revert\n    tag_125:\n      pop\n      tag_126\n      0x04\n      dup1\n      calldatasize\n      sub\n      dup2\n      add\n      swap1\n      tag_127\n      swap2\n      swap1\n      tag_79\n      jump\t// in\n    tag_127:\n      tag_128\n      jump\t// in\n    tag_126:\n      mload(0x40)\n      tag_129\n      swap2\n      swap1\n      tag_67\n      jump\t// in\n    tag_129:\n      mload(0x40)\n      dup1\n      swap2\n      sub\n      swap1\n      return\n        /* \"@openzeppelin/contracts/access/Ownable.sol\":2293:2394  function renounceOwnership() public virtual onlyOwner {... */\n    tag_21:\n      callvalue\n      dup1\n      iszero\n      tag_130\n      jumpi\n      0x00\n      dup1\n      revert\n    tag_130:\n      pop\n      tag_131\n      tag_132\n      jump\t// in\n    tag_131:\n      stop\n        /* \"@openzeppelin/contracts/access/Ownable.sol\":1638:1723  function owner() public view virtual returns (address) {... */\n    tag_22:\n      callvalue\n      dup1\n      iszero\n      tag_133\n      jumpi\n      0x00\n      dup1\n      revert\n    tag_133:\n      pop\n      tag_134\n      tag_135\n      jump\t// in\n    tag_134:\n      mload(0x40)\n      tag_136\n      swap2\n      swap1\n      tag_137\n      jump\t// in\n    tag_136:\n      mload(0x40)\n      dup1\n      swap2\n      sub\n      swap1\n      return\n        /* \"contracts/bettoken.sol\":1167:1214  uint256 public preSaleEndPrice = 0.1 * 10 ** 18 */\n    tag_23:\n      callvalue\n      dup1\n      iszero\n      tag_138\n      jumpi\n      0x00\n      dup1\n      revert\n    tag_138:\n      pop\n      tag_139\n      tag_140\n      jump\t// in\n    tag_139:\n      mload(0x40)\n      tag_141\n      swap2\n      swap1\n      tag_67\n      jump\t// in\n    tag_141:\n      mload(0x40)\n      dup1\n      swap2\n      sub\n      swap1\n      return\n        /* \"contracts/bettoken.sol\":384:445  uint256 public constant TOTAL_SUPPLY = 200_000_000 * 10 ** 18 */\n    tag_24:\n      callvalue\n      dup1\n      iszero\n      tag_142\n      jumpi\n      0x00\n      dup1\n      revert\n    tag_142:\n      pop\n      tag_143\n      tag_144\n      jump\t// in\n    tag_143:\n      mload(0x40)\n      tag_145\n      swap2\n      swap1\n      tag_67\n      jump\t// in\n    tag_145:\n      mload(0x40)\n      dup1\n      swap2\n      sub\n      swap1\n      return\n        /* \"contracts/bettoken.sol\":1086:1138  uint256 public preSaleStartPrice = 0.0505 * 10 ** 18 */\n    tag_25:\n      callvalue\n      dup1\n      iszero\n      tag_146\n      jumpi\n      0x00\n      dup1\n      revert\n    tag_146:\n      pop\n      tag_147\n      tag_148\n      jump\t// in\n    tag_147:\n      mload(0x40)\n      tag_149\n      swap2\n      swap1\n      tag_67\n      jump\t// in\n    tag_149:\n      mload(0x40)\n      dup1\n      swap2\n      sub\n      swap1\n      return\n        /* \"@openzeppelin/contracts/token/ERC20/ERC20.sol\":2276:2369  function symbol() public view virtual returns (string memory) {... */\n    tag_26:\n      callvalue\n      dup1\n      iszero\n      tag_150\n      jumpi\n      0x00\n      dup1\n      revert\n    tag_150:\n      pop\n      tag_151\n      tag_152\n      jump\t// in\n    tag_151:\n      mload(0x40)\n      tag_153\n      swap2\n      swap1\n      tag_55\n      jump\t// in\n    tag_153:\n      mload(0x40)\n      dup1\n      swap2\n      sub\n      swap1\n      return\n        /* \"@openzeppelin/contracts/token/ERC20/ERC20.sol\":3610:3788  function transfer(address to, uint256 value) public virtual returns (bool) {... */\n    tag_27:\n      callvalue\n      dup1\n      iszero\n      tag_154\n      jumpi\n      0x00\n      dup1\n      revert\n    tag_154:\n      pop\n      tag_155\n      0x04\n      dup1\n      calldatasize\n      sub\n      dup2\n      add\n      swap1\n      tag_156\n      swap2\n      swap1\n      tag_59\n      jump\t// in\n    tag_156:\n      tag_157\n      jump\t// in\n    tag_155:\n      mload(0x40)\n      tag_158\n      swap2\n      swap1\n      tag_62\n      jump\t// in\n    tag_158:\n      mload(0x40)\n      dup1\n      swap2\n      sub\n      swap1\n      return\n        /* \"contracts/bettoken.sol\":685:740  uint256 public privateSaleStartPrice = 0.001 * 10 ** 18 */\n    tag_28:\n      callvalue\n      dup1\n      iszero\n      tag_159\n      jumpi\n      0x00\n      dup1\n      revert\n    tag_159:\n      pop\n      tag_160\n      tag_161\n      jump\t// in\n    tag_160:\n      mload(0x40)\n      tag_162\n      swap2\n      swap1\n      tag_67\n      jump\t// in\n    tag_162:\n      mload(0x40)\n      dup1\n      swap2\n      sub\n      swap1\n      return\n        /* \"contracts/bettoken.sol\":1240:1276  uint256 public preSaleSoldTokens = 0 */\n    tag_29:\n      callvalue\n      dup1\n      iszero\n      tag_163\n      jumpi\n      0x00\n      dup1\n      revert\n    tag_163:\n      pop\n      tag_164\n      tag_165\n      jump\t// in\n    tag_164:\n      mload(0x40)\n      tag_166\n      swap2\n      swap1\n      tag_67\n      jump\t// in\n    tag_166:\n      mload(0x40)\n      dup1\n      swap2\n      sub\n      swap1\n      return\n        /* \"contracts/bettoken.sol\":519:574  uint256 public privateSaleTarget = 1_000_000 * 10 ** 18 */\n    tag_30:\n      callvalue\n      dup1\n      iszero\n      tag_167\n      jumpi\n      0x00\n      dup1\n      revert\n    tag_167:\n      pop\n      tag_168\n      tag_169\n      jump\t// in\n    tag_168:\n      mload(0x40)\n      tag_170\n      swap2\n      swap1\n      tag_67\n      jump\t// in\n    tag_170:\n      mload(0x40)\n      dup1\n      swap2\n      sub\n      swap1\n      return\n        /* \"contracts/bettoken.sol\":768:822  uint256 public privateSaleEndPrice = 0.0505 * 10 ** 18 */\n    tag_31:\n      callvalue\n      dup1\n      iszero\n      tag_171\n      jumpi\n      0x00\n      dup1\n      revert\n    tag_171:\n      pop\n      tag_172\n      tag_173\n      jump\t// in\n    tag_172:\n      mload(0x40)\n      tag_174\n      swap2\n      swap1\n      tag_67\n      jump\t// in\n    tag_174:\n      mload(0x40)\n      dup1\n      swap2\n      sub\n      swap1\n      return\n        /* \"contracts/bettoken.sol\":1348:1387  SaleStage public stage = SaleStage.NONE */\n    tag_32:\n      callvalue\n      dup1\n      iszero\n      tag_175\n      jumpi\n      0x00\n      dup1\n      revert\n    tag_175:\n      pop\n      tag_176\n      tag_177\n      jump\t// in\n    tag_176:\n      mload(0x40)\n      tag_178\n      swap2\n      swap1\n      tag_179\n      jump\t// in\n    tag_178:\n      mload(0x40)\n      dup1\n      swap2\n      sub\n      swap1\n      return\n        /* \"contracts/bettoken.sol\":604:660  uint256 public privateSaleTokens = 38_835_764 * 10 ** 18 */\n    tag_33:\n      callvalue\n      dup1\n      iszero\n      tag_180\n      jumpi\n      0x00\n      dup1\n      revert\n    tag_180:\n      pop\n      tag_181\n      tag_182\n      jump\t// in\n    tag_181:\n      mload(0x40)\n      tag_183\n      swap2\n      swap1\n      tag_67\n      jump\t// in\n    tag_183:\n      mload(0x40)\n      dup1\n      swap2\n      sub\n      swap1\n      return\n        /* \"@openzeppelin/contracts/token/ERC20/ERC20.sol\":3846:3986  function allowance(address owner, address spender) public view virtual returns (uint256) {... */\n    tag_34:\n      callvalue\n      dup1\n      iszero\n      tag_184\n      jumpi\n      0x00\n      dup1\n      revert\n    tag_184:\n      pop\n      tag_185\n      0x04\n      dup1\n      calldatasize\n      sub\n      dup2\n      add\n      swap1\n      tag_186\n      swap2\n      swap1\n      tag_187\n      jump\t// in\n    tag_186:\n      tag_188\n      jump\t// in\n    tag_185:\n      mload(0x40)\n      tag_189\n      swap2\n      swap1\n      tag_67\n      jump\t// in\n    tag_189:\n      mload(0x40)\n      dup1\n      swap2\n      sub\n      swap1\n      return\n        /* \"contracts/bettoken.sol\":924:976  uint256 public preSaleTarget = 19_000_000 * 10 ** 18 */\n    tag_35:\n      callvalue\n      dup1\n      iszero\n      tag_190\n      jumpi\n      0x00\n      dup1\n      revert\n    tag_190:\n      pop\n      tag_191\n      tag_192\n      jump\t// in\n    tag_191:\n      mload(0x40)\n      tag_193\n      swap2\n      swap1\n      tag_67\n      jump\t// in\n    tag_193:\n      mload(0x40)\n      dup1\n      swap2\n      sub\n      swap1\n      return\n        /* \"@openzeppelin/contracts/access/Ownable.sol\":2543:2758  function transferOwnership(address newOwner) public virtual onlyOwner {... */\n    tag_36:\n      callvalue\n      dup1\n      iszero\n      tag_194\n      jumpi\n      0x00\n      dup1\n      revert\n    tag_194:\n      pop\n      tag_195\n      0x04\n      dup1\n      calldatasize\n      sub\n      dup2\n      add\n      swap1\n      tag_196\n      swap2\n      swap1\n      tag_79\n      jump\t// in\n    tag_196:\n      tag_197\n      jump\t// in\n    tag_195:\n      stop\n        /* \"@openzeppelin/contracts/token/ERC20/ERC20.sol\":2074:2163  function name() public view virtual returns (string memory) {... */\n    tag_53:\n        /* \"@openzeppelin/contracts/token/ERC20/ERC20.sol\":2119:2132  string memory */\n      0x60\n        /* \"@openzeppelin/contracts/token/ERC20/ERC20.sol\":2151:2156  _name */\n      0x03\n        /* \"@openzeppelin/contracts/token/ERC20/ERC20.sol\":2144:2156  return _name */\n      dup1\n      sload\n      tag_199\n      swap1\n      tag_200\n      jump\t// in\n    tag_199:\n      dup1\n      0x1f\n      add\n      0x20\n      dup1\n      swap2\n      div\n      mul\n      0x20\n      add\n      mload(0x40)\n      swap1\n      dup2\n      add\n      0x40\n      mstore\n      dup1\n      swap3\n      swap2\n      swap1\n      dup2\n      dup2\n      mstore\n      0x20\n      add\n      dup3\n      dup1\n      sload\n      tag_201\n      swap1\n      tag_200\n      jump\t// in\n    tag_201:\n      dup1\n      iszero\n      tag_202\n      jumpi\n      dup1\n      0x1f\n      lt\n      tag_203\n      jumpi\n      0x0100\n      dup1\n      dup4\n      sload\n      div\n      mul\n      dup4\n      mstore\n      swap2\n      0x20\n      add\n      swap2\n      jump(tag_202)\n    tag_203:\n      dup3\n      add\n      swap2\n      swap1\n      0x00\n      mstore\n      keccak256(0x00, 0x20)\n      swap1\n    tag_204:\n      dup2\n      sload\n      dup2\n      mstore\n      swap1\n      0x01\n      add\n      swap1\n      0x20\n      add\n      dup1\n      dup4\n      gt\n      tag_204\n      jumpi\n      dup3\n      swap1\n      sub\n      0x1f\n      and\n      dup3\n      add\n      swap2\n    tag_202:\n      pop\n      pop\n      pop\n      pop\n      pop\n      swap1\n      pop\n        /* \"@openzeppelin/contracts/token/ERC20/ERC20.sol\":2074:2163  function name() public view virtual returns (string memory) {... */\n      swap1\n      jump\t// out\n        /* \"@openzeppelin/contracts/token/ERC20/ERC20.sol\":4293:4479  function approve(address spender, uint256 value) public virtual returns (bool) {... */\n    tag_60:\n        /* \"@openzeppelin/contracts/token/ERC20/ERC20.sol\":4366:4370  bool */\n      0x00\n        /* \"@openzeppelin/contracts/token/ERC20/ERC20.sol\":4382:4395  address owner */\n      dup1\n        /* \"@openzeppelin/contracts/token/ERC20/ERC20.sol\":4398:4410  _msgSender() */\n      tag_206\n        /* \"@openzeppelin/contracts/token/ERC20/ERC20.sol\":4398:4408  _msgSender */\n      tag_207\n        /* \"@openzeppelin/contracts/token/ERC20/ERC20.sol\":4398:4410  _msgSender() */\n      jump\t// in\n    tag_206:\n        /* \"@openzeppelin/contracts/token/ERC20/ERC20.sol\":4382:4410  address owner = _msgSender() */\n      swap1\n      pop\n        /* \"@openzeppelin/contracts/token/ERC20/ERC20.sol\":4420:4451  _approve(owner, spender, value) */\n      tag_208\n        /* \"@openzeppelin/contracts/token/ERC20/ERC20.sol\":4429:4434  owner */\n      dup2\n        /* \"@openzeppelin/contracts/token/ERC20/ERC20.sol\":4436:4443  spender */\n      dup6\n        /* \"@openzeppelin/contracts/token/ERC20/ERC20.sol\":4445:4450  value */\n      dup6\n        /* \"@openzeppelin/contracts/token/ERC20/ERC20.sol\":4420:4428  _approve */\n      tag_209\n        /* \"@openzeppelin/contracts/token/ERC20/ERC20.sol\":4420:4451  _approve(owner, spender, value) */\n      jump\t// in\n    tag_208:\n        /* \"@openzeppelin/contracts/token/ERC20/ERC20.sol\":4468:4472  true */\n      0x01\n        /* \"@openzeppelin/contracts/token/ERC20/ERC20.sol\":4461:4472  return true */\n      swap2\n      pop\n      pop\n        /* \"@openzeppelin/contracts/token/ERC20/ERC20.sol\":4293:4479  function approve(address spender, uint256 value) public virtual returns (bool) {... */\n      swap3\n      swap2\n      pop\n      pop\n      jump\t// out\n        /* \"contracts/bettoken.sol\":1007:1060  uint256 public preSaleTokens = 161_164_236 * 10 ** 18 */\n    tag_65:\n      sload(0x0d)\n      dup2\n      jump\t// out\n        /* \"contracts/bettoken.sol\":1534:1578  uint256 public vestingDuration = 6 * 30 days */\n    tag_70:\n      sload(0x14)\n      dup2\n      jump\t// out\n        /* \"@openzeppelin/contracts/token/ERC20/ERC20.sol\":3144:3241  function totalSupply() public view virtual returns (uint256) {... */\n    tag_74:\n        /* \"@openzeppelin/contracts/token/ERC20/ERC20.sol\":3196:3203  uint256 */\n      0x00\n        /* \"@openzeppelin/contracts/token/ERC20/ERC20.sol\":3222:3234  _totalSupply */\n      sload(0x02)\n        /* \"@openzeppelin/contracts/token/ERC20/ERC20.sol\":3215:3234  return _totalSupply */\n      swap1\n      pop\n        /* \"@openzeppelin/contracts/token/ERC20/ERC20.sol\":3144:3241  function totalSupply() public view virtual returns (uint256) {... */\n      swap1\n      jump\t// out\n        /* \"contracts/bettoken.sol\":1420:1469  mapping(address => uint256) public vestingBalance */\n    tag_80:\n      mstore(0x20, 0x12)\n      dup1\n      0x00\n      mstore\n      keccak256(0x00, 0x40)\n      0x00\n      swap2\n      pop\n      swap1\n      pop\n      sload\n      dup2\n      jump\t// out\n        /* \"@openzeppelin/contracts/token/ERC20/ERC20.sol\":5039:5283  function transferFrom(address from, address to, uint256 value) public virtual returns (bool) {... */\n    tag_86:\n        /* \"@openzeppelin/contracts/token/ERC20/ERC20.sol\":5126:5130  bool */\n      0x00\n        /* \"@openzeppelin/contracts/token/ERC20/ERC20.sol\":5142:5157  address spender */\n      dup1\n        /* \"@openzeppelin/contracts/token/ERC20/ERC20.sol\":5160:5172  _msgSender() */\n      tag_212\n        /* \"@openzeppelin/contracts/token/ERC20/ERC20.sol\":5160:5170  _msgSender */\n      tag_207\n        /* \"@openzeppelin/contracts/token/ERC20/ERC20.sol\":5160:5172  _msgSender() */\n      jump\t// in\n    tag_212:\n        /* \"@openzeppelin/contracts/token/ERC20/ERC20.sol\":5142:5172  address spender = _msgSender() */\n      swap1\n      pop\n        /* \"@openzeppelin/contracts/token/ERC20/ERC20.sol\":5182:5219  _spendAllowance(from, spender, value) */\n      tag_213\n        /* \"@openzeppelin/contracts/token/ERC20/ERC20.sol\":5198:5202  from */\n      dup6\n        /* \"@openzeppelin/contracts/token/ERC20/ERC20.sol\":5204:5211  spender */\n      dup3\n        /* \"@openzeppelin/contracts/token/ERC20/ERC20.sol\":5213:5218  value */\n      dup6\n        /* \"@openzeppelin/contracts/token/ERC20/ERC20.sol\":5182:5197  _spendAllowance */\n      tag_214\n        /* \"@openzeppelin/contracts/token/ERC20/ERC20.sol\":5182:5219  _spendAllowance(from, spender, value) */\n      jump\t// in\n    tag_213:\n        /* \"@openzeppelin/contracts/token/ERC20/ERC20.sol\":5229:5255  _transfer(from, to, value) */\n      tag_215\n        /* \"@openzeppelin/contracts/token/ERC20/ERC20.sol\":5239:5243  from */\n      dup6\n        /* \"@openzeppelin/contracts/token/ERC20/ERC20.sol\":5245:5247  to */\n      dup6\n        /* \"@openzeppelin/contracts/token/ERC20/ERC20.sol\":5249:5254  value */\n      dup6\n        /* \"@openzeppelin/contracts/token/ERC20/ERC20.sol\":5229:5238  _transfer */\n      tag_216\n        /* \"@openzeppelin/contracts/token/ERC20/ERC20.sol\":5229:5255  _transfer(from, to, value) */\n      jump\t// in\n    tag_215:\n        /* \"@openzeppelin/contracts/token/ERC20/ERC20.sol\":5272:5276  true */\n      0x01\n        /* \"@openzeppelin/contracts/token/ERC20/ERC20.sol\":5265:5276  return true */\n      swap2\n      pop\n      pop\n        /* \"@openzeppelin/contracts/token/ERC20/ERC20.sol\":5039:5283  function transferFrom(address from, address to, uint256 value) public virtual returns (bool) {... */\n      swap4\n      swap3\n      pop\n      pop\n      pop\n      jump\t// out\n        /* \"contracts/bettoken.sol\":4856:4978  function withdrawFunds() external onlyOwner nonReentrant {... */\n    tag_90:\n        /* \"@openzeppelin/contracts/access/Ownable.sol\":1531:1544  _checkOwner() */\n      tag_218\n        /* \"@openzeppelin/contracts/access/Ownable.sol\":1531:1542  _checkOwner */\n      tag_219\n        /* \"@openzeppelin/contracts/access/Ownable.sol\":1531:1544  _checkOwner() */\n      jump\t// in\n    tag_218:\n        /* \"@openzeppelin/contracts/security/ReentrancyGuard.sol\":2261:2282  _nonReentrantBefore() */\n      tag_221\n        /* \"@openzeppelin/contracts/security/ReentrancyGuard.sol\":2261:2280  _nonReentrantBefore */\n      tag_222\n        /* \"@openzeppelin/contracts/security/ReentrancyGuard.sol\":2261:2282  _nonReentrantBefore() */\n      jump\t// in\n    tag_221:\n        /* \"contracts/bettoken.sol\":4931:4938  owner() */\n      tag_224\n        /* \"contracts/bettoken.sol\":4931:4936  owner */\n      tag_135\n        /* \"contracts/bettoken.sol\":4931:4938  owner() */\n      jump\t// in\n    tag_224:\n        /* \"contracts/bettoken.sol\":4923:4948  payable(owner()).transfer */\n      0xffffffffffffffffffffffffffffffffffffffff\n      and\n        /* \"contracts/bettoken.sol\":4923:4971  payable(owner()).transfer(address(this).balance) */\n      0x08fc\n        /* \"contracts/bettoken.sol\":4949:4970  address(this).balance */\n      selfbalance\n        /* \"contracts/bettoken.sol\":4923:4971  payable(owner()).transfer(address(this).balance) */\n      swap1\n      dup2\n      iszero\n      mul\n      swap1\n      mload(0x40)\n      0x00\n      mload(0x40)\n      dup1\n      dup4\n      sub\n      dup2\n      dup6\n      dup9\n      dup9\n      call\n      swap4\n      pop\n      pop\n      pop\n      pop\n      iszero\n      dup1\n      iszero\n      tag_226\n      jumpi\n      returndatasize\n      0x00\n      dup1\n      returndatacopy\n      revert(0x00, returndatasize)\n    tag_226:\n      pop\n        /* \"@openzeppelin/contracts/security/ReentrancyGuard.sol\":2303:2323  _nonReentrantAfter() */\n      tag_227\n        /* \"@openzeppelin/contracts/security/ReentrancyGuard.sol\":2303:2321  _nonReentrantAfter */\n      tag_228\n        /* \"@openzeppelin/contracts/security/ReentrancyGuard.sol\":2303:2323  _nonReentrantAfter() */\n      jump\t// in\n    tag_227:\n        /* \"contracts/bettoken.sol\":4856:4978  function withdrawFunds() external onlyOwner nonReentrant {... */\n      jump\t// out\n        /* \"contracts/bettoken.sol\":1475:1528  mapping(address => uint256) public vestingReleaseTime */\n    tag_94:\n      mstore(0x20, 0x13)\n      dup1\n      0x00\n      mstore\n      keccak256(0x00, 0x40)\n      0x00\n      swap2\n      pop\n      swap1\n      pop\n      sload\n      dup2\n      jump\t// out\n        /* \"@openzeppelin/contracts/token/ERC20/ERC20.sol\":3002:3084  function decimals() public view virtual returns (uint8) {... */\n    tag_98:\n        /* \"@openzeppelin/contracts/token/ERC20/ERC20.sol\":3051:3056  uint8 */\n      0x00\n        /* \"@openzeppelin/contracts/token/ERC20/ERC20.sol\":3075:3077  18 */\n      0x12\n        /* \"@openzeppelin/contracts/token/ERC20/ERC20.sol\":3068:3077  return 18 */\n      swap1\n      pop\n        /* \"@openzeppelin/contracts/token/ERC20/ERC20.sol\":3002:3084  function decimals() public view virtual returns (uint8) {... */\n      swap1\n      jump\t// out\n        /* \"contracts/bettoken.sol\":4625:4850  function haltSales() external onlyOwner {... */\n    tag_103:\n        /* \"@openzeppelin/contracts/access/Ownable.sol\":1531:1544  _checkOwner() */\n      tag_231\n        /* \"@openzeppelin/contracts/access/Ownable.sol\":1531:1542  _checkOwner */\n      tag_219\n        /* \"@openzeppelin/contracts/access/Ownable.sol\":1531:1544  _checkOwner() */\n      jump\t// in\n    tag_231:\n        /* \"contracts/bettoken.sol\":4708:4725  privateSaleTokens */\n      sload(0x08)\n        /* \"contracts/bettoken.sol\":4683:4704  privateSaleSoldTokens */\n      sload(0x0b)\n        /* \"contracts/bettoken.sol\":4683:4725  privateSaleSoldTokens == privateSaleTokens */\n      eq\n        /* \"contracts/bettoken.sol\":4683:4763  privateSaleSoldTokens == privateSaleTokens || preSaleSoldTokens == preSaleTokens */\n      dup1\n      tag_233\n      jumpi\n      pop\n        /* \"contracts/bettoken.sol\":4750:4763  preSaleTokens */\n      sload(0x0d)\n        /* \"contracts/bettoken.sol\":4729:4746  preSaleSoldTokens */\n      sload(0x10)\n        /* \"contracts/bettoken.sol\":4729:4763  preSaleSoldTokens == preSaleTokens */\n      eq\n        /* \"contracts/bettoken.sol\":4683:4763  privateSaleSoldTokens == privateSaleTokens || preSaleSoldTokens == preSaleTokens */\n    tag_233:\n        /* \"contracts/bettoken.sol\":4675:4811  require(privateSaleSoldTokens == privateSaleTokens || preSaleSoldTokens == preSaleTokens, ... */\n      tag_234\n      jumpi\n      mload(0x40)\n      0x08c379a000000000000000000000000000000000000000000000000000000000\n      dup2\n      mstore\n      0x04\n      add\n      tag_235\n      swap1\n      tag_236\n      jump\t// in\n    tag_235:\n      mload(0x40)\n      dup1\n      swap2\n      sub\n      swap1\n      revert\n    tag_234:\n        /* \"contracts/bettoken.sol\":4829:4843  SaleStage.NONE */\n      0x00\n        /* \"contracts/bettoken.sol\":4821:4826  stage */\n      0x11\n      0x00\n        /* \"contracts/bettoken.sol\":4821:4843  stage = SaleStage.NONE */\n      0x0100\n      exp\n      dup2\n      sload\n      dup2\n      0xff\n      mul\n      not\n      and\n      swap1\n      dup4\n      0x02\n      dup2\n      gt\n      iszero\n      tag_237\n      jumpi\n      tag_238\n      tag_239\n      jump\t// in\n    tag_238:\n    tag_237:\n      mul\n      or\n      swap1\n      sstore\n      pop\n        /* \"contracts/bettoken.sol\":4625:4850  function haltSales() external onlyOwner {... */\n      jump\t// out\n        /* \"contracts/bettoken.sol\":1925:2106  function startPrivateSale() external onlyOwner {... */\n    tag_106:\n        /* \"@openzeppelin/contracts/access/Ownable.sol\":1531:1544  _checkOwner() */\n      tag_241\n        /* \"@openzeppelin/contracts/access/Ownable.sol\":1531:1542  _checkOwner */\n      tag_219\n        /* \"@openzeppelin/contracts/access/Ownable.sol\":1531:1544  _checkOwner() */\n      jump\t// in\n    tag_241:\n        /* \"contracts/bettoken.sol\":1999:2013  SaleStage.NONE */\n      0x00\n        /* \"contracts/bettoken.sol\":1990:2013  stage == SaleStage.NONE */\n      0x02\n      dup2\n      gt\n      iszero\n      tag_243\n      jumpi\n      tag_244\n      tag_239\n      jump\t// in\n    tag_244:\n    tag_243:\n        /* \"contracts/bettoken.sol\":1990:1995  stage */\n      0x11\n      0x00\n      swap1\n      sload\n      swap1\n      0x0100\n      exp\n      swap1\n      div\n      0xff\n      and\n        /* \"contracts/bettoken.sol\":1990:2013  stage == SaleStage.NONE */\n      0x02\n      dup2\n      gt\n      iszero\n      tag_245\n      jumpi\n      tag_246\n      tag_239\n      jump\t// in\n    tag_246:\n    tag_245:\n      eq\n        /* \"contracts/bettoken.sol\":1982:2064  require(stage == SaleStage.NONE, \"Private Sale has already started or concluded.\") */\n      tag_247\n      jumpi\n      mload(0x40)\n      0x08c379a000000000000000000000000000000000000000000000000000000000\n      dup2\n      mstore\n      0x04\n      add\n      tag_248\n      swap1\n      tag_249\n      jump\t// in\n    tag_248:\n      mload(0x40)\n      dup1\n      swap2\n      sub\n      swap1\n      revert\n    tag_247:\n        /* \"contracts/bettoken.sol\":2082:2099  SaleStage.PRIVATE */\n      0x01\n        /* \"contracts/bettoken.sol\":2074:2079  stage */\n      0x11\n      0x00\n        /* \"contracts/bettoken.sol\":2074:2099  stage = SaleStage.PRIVATE */\n      0x0100\n      exp\n      dup2\n      sload\n      dup2\n      0xff\n      mul\n      not\n      and\n      swap1\n      dup4\n      0x02\n      dup2\n      gt\n      iszero\n      tag_250\n      jumpi\n      tag_251\n      tag_239\n      jump\t// in\n    tag_251:\n    tag_250:\n      mul\n      or\n      swap1\n      sstore\n      pop\n        /* \"contracts/bettoken.sol\":1925:2106  function startPrivateSale() external onlyOwner {... */\n      jump\t// out\n        /* \"contracts/bettoken.sol\":2388:3677  function buyTokens(uint256 usdAmount) external payable nonReentrant {... */\n    tag_110:\n        /* \"@openzeppelin/contracts/security/ReentrancyGuard.sol\":2261:2282  _nonReentrantBefore() */\n      tag_253\n        /* \"@openzeppelin/contracts/security/ReentrancyGuard.sol\":2261:2280  _nonReentrantBefore */\n      tag_222\n        /* \"@openzeppelin/contracts/security/ReentrancyGuard.sol\":2261:2282  _nonReentrantBefore() */\n      jump\t// in\n    tag_253:\n        /* \"contracts/bettoken.sol\":2483:2497  SaleStage.NONE */\n      0x00\n        /* \"contracts/bettoken.sol\":2474:2497  stage != SaleStage.NONE */\n      0x02\n      dup2\n      gt\n      iszero\n      tag_255\n      jumpi\n      tag_256\n      tag_239\n      jump\t// in\n    tag_256:\n    tag_255:\n        /* \"contracts/bettoken.sol\":2474:2479  stage */\n      0x11\n      0x00\n      swap1\n      sload\n      swap1\n      0x0100\n      exp\n      swap1\n      div\n      0xff\n      and\n        /* \"contracts/bettoken.sol\":2474:2497  stage != SaleStage.NONE */\n      0x02\n      dup2\n      gt\n      iszero\n      tag_257\n      jumpi\n      tag_258\n      tag_239\n      jump\t// in\n    tag_258:\n    tag_257:\n      sub\n        /* \"contracts/bettoken.sol\":2466:2520  require(stage != SaleStage.NONE, \"No sale is active.\") */\n      tag_259\n      jumpi\n      mload(0x40)\n      0x08c379a000000000000000000000000000000000000000000000000000000000\n      dup2\n      mstore\n      0x04\n      add\n      tag_260\n      swap1\n      tag_261\n      jump\t// in\n    tag_260:\n      mload(0x40)\n      dup1\n      swap2\n      sub\n      swap1\n      revert\n    tag_259:\n        /* \"contracts/bettoken.sol\":2531:2550  uint256 tokensToBuy */\n      0x00\n        /* \"contracts/bettoken.sol\":2573:2590  SaleStage.PRIVATE */\n      0x01\n        /* \"contracts/bettoken.sol\":2564:2590  stage == SaleStage.PRIVATE */\n      0x02\n      dup2\n      gt\n      iszero\n      tag_262\n      jumpi\n      tag_263\n      tag_239\n      jump\t// in\n    tag_263:\n    tag_262:\n        /* \"contracts/bettoken.sol\":2564:2569  stage */\n      0x11\n      0x00\n      swap1\n      sload\n      swap1\n      0x0100\n      exp\n      swap1\n      div\n      0xff\n      and\n        /* \"contracts/bettoken.sol\":2564:2590  stage == SaleStage.PRIVATE */\n      0x02\n      dup2\n      gt\n      iszero\n      tag_264\n      jumpi\n      tag_265\n      tag_239\n      jump\t// in\n    tag_265:\n    tag_264:\n      sub\n        /* \"contracts/bettoken.sol\":2560:3671  if (stage == SaleStage.PRIVATE) {... */\n      tag_266\n      jumpi\n        /* \"contracts/bettoken.sol\":2638:2655  privateSaleTokens */\n      sload(0x08)\n        /* \"contracts/bettoken.sol\":2614:2635  privateSaleSoldTokens */\n      sload(0x0b)\n        /* \"contracts/bettoken.sol\":2614:2655  privateSaleSoldTokens < privateSaleTokens */\n      lt\n        /* \"contracts/bettoken.sol\":2606:2682  require(privateSaleSoldTokens < privateSaleTokens, \"Private Sale sold out.\") */\n      tag_267\n      jumpi\n      mload(0x40)\n      0x08c379a000000000000000000000000000000000000000000000000000000000\n      dup2\n      mstore\n      0x04\n      add\n      tag_268\n      swap1\n      tag_269\n      jump\t// in\n    tag_268:\n      mload(0x40)\n      dup1\n      swap2\n      sub\n      swap1\n      revert\n    tag_267:\n        /* \"contracts/bettoken.sol\":2710:2747  calculatePrivateSaleTokens(usdAmount) */\n      tag_270\n        /* \"contracts/bettoken.sol\":2737:2746  usdAmount */\n      dup3\n        /* \"contracts/bettoken.sol\":2710:2736  calculatePrivateSaleTokens */\n      tag_271\n        /* \"contracts/bettoken.sol\":2710:2747  calculatePrivateSaleTokens(usdAmount) */\n      jump\t// in\n    tag_270:\n        /* \"contracts/bettoken.sol\":2696:2747  tokensToBuy = calculatePrivateSaleTokens(usdAmount) */\n      swap1\n      pop\n        /* \"contracts/bettoken.sol\":2786:2797  tokensToBuy */\n      dup1\n        /* \"contracts/bettoken.sol\":2761:2782  privateSaleSoldTokens */\n      0x0b\n      0x00\n        /* \"contracts/bettoken.sol\":2761:2797  privateSaleSoldTokens += tokensToBuy */\n      dup3\n      dup3\n      sload\n      tag_272\n      swap2\n      swap1\n      tag_273\n      jump\t// in\n    tag_272:\n      swap3\n      pop\n      pop\n      dup2\n      swap1\n      sstore\n      pop\n        /* \"contracts/bettoken.sol\":2844:2861  privateSaleTokens */\n      sload(0x08)\n        /* \"contracts/bettoken.sol\":2819:2840  privateSaleSoldTokens */\n      sload(0x0b)\n        /* \"contracts/bettoken.sol\":2819:2861  privateSaleSoldTokens <= privateSaleTokens */\n      gt\n      iszero\n        /* \"contracts/bettoken.sol\":2811:2899  require(privateSaleSoldTokens <= privateSaleTokens, \"Exceeds Private Sale token limit.\") */\n      tag_274\n      jumpi\n      mload(0x40)\n      0x08c379a000000000000000000000000000000000000000000000000000000000\n      dup2\n      mstore\n      0x04\n      add\n      tag_275\n      swap1\n      tag_276\n      jump\t// in\n    tag_275:\n      mload(0x40)\n      dup1\n      swap2\n      sub\n      swap1\n      revert\n    tag_274:\n        /* \"contracts/bettoken.sol\":2943:2954  tokensToBuy */\n      dup1\n        /* \"contracts/bettoken.sol\":2913:2927  vestingBalance */\n      0x12\n        /* \"contracts/bettoken.sol\":2913:2939  vestingBalance[msg.sender] */\n      0x00\n        /* \"contracts/bettoken.sol\":2928:2938  msg.sender */\n      caller\n        /* \"contracts/bettoken.sol\":2913:2939  vestingBalance[msg.sender] */\n      0xffffffffffffffffffffffffffffffffffffffff\n      and\n      0xffffffffffffffffffffffffffffffffffffffff\n      and\n      dup2\n      mstore\n      0x20\n      add\n      swap1\n      dup2\n      mstore\n      0x20\n      add\n      0x00\n      keccak256\n      0x00\n        /* \"contracts/bettoken.sol\":2913:2954  vestingBalance[msg.sender] += tokensToBuy */\n      dup3\n      dup3\n      sload\n      tag_277\n      swap2\n      swap1\n      tag_273\n      jump\t// in\n    tag_277:\n      swap3\n      pop\n      pop\n      dup2\n      swap1\n      sstore\n      pop\n        /* \"contracts/bettoken.sol\":3035:3050  vestingDuration */\n      sload(0x14)\n        /* \"contracts/bettoken.sol\":3019:3032  stakeDuration */\n      sload(0x15)\n        /* \"contracts/bettoken.sol\":3001:3016  block.timestamp */\n      timestamp\n        /* \"contracts/bettoken.sol\":3001:3032  block.timestamp + stakeDuration */\n      tag_278\n      swap2\n      swap1\n      tag_273\n      jump\t// in\n    tag_278:\n        /* \"contracts/bettoken.sol\":3001:3050  block.timestamp + stakeDuration + vestingDuration */\n      tag_279\n      swap2\n      swap1\n      tag_273\n      jump\t// in\n    tag_279:\n        /* \"contracts/bettoken.sol\":2968:2986  vestingReleaseTime */\n      0x13\n        /* \"contracts/bettoken.sol\":2968:2998  vestingReleaseTime[msg.sender] */\n      0x00\n        /* \"contracts/bettoken.sol\":2987:2997  msg.sender */\n      caller\n        /* \"contracts/bettoken.sol\":2968:2998  vestingReleaseTime[msg.sender] */\n      0xffffffffffffffffffffffffffffffffffffffff\n      and\n      0xffffffffffffffffffffffffffffffffffffffff\n      and\n      dup2\n      mstore\n      0x20\n      add\n      swap1\n      dup2\n      mstore\n      0x20\n      add\n      0x00\n      keccak256\n        /* \"contracts/bettoken.sol\":2968:3050  vestingReleaseTime[msg.sender] = block.timestamp + stakeDuration + vestingDuration */\n      dup2\n      swap1\n      sstore\n      pop\n        /* \"contracts/bettoken.sol\":3081:3091  msg.sender */\n      caller\n        /* \"contracts/bettoken.sol\":3069:3105  PrivateSale(msg.sender, tokensToBuy) */\n      0xffffffffffffffffffffffffffffffffffffffff\n      and\n      0x8fa81bb0702332ea2a0aee44bb9e4d359cf4a2c5a820dd59d9129369bdbca73f\n        /* \"contracts/bettoken.sol\":3093:3104  tokensToBuy */\n      dup3\n        /* \"contracts/bettoken.sol\":3069:3105  PrivateSale(msg.sender, tokensToBuy) */\n      mload(0x40)\n      tag_280\n      swap2\n      swap1\n      tag_67\n      jump\t// in\n    tag_280:\n      mload(0x40)\n      dup1\n      swap2\n      sub\n      swap1\n      log2\n        /* \"contracts/bettoken.sol\":2560:3671  if (stage == SaleStage.PRIVATE) {... */\n      jump(tag_281)\n    tag_266:\n        /* \"contracts/bettoken.sol\":3135:3152  SaleStage.PRESALE */\n      0x02\n        /* \"contracts/bettoken.sol\":3126:3152  stage == SaleStage.PRESALE */\n      dup1\n      dup2\n      gt\n      iszero\n      tag_282\n      jumpi\n      tag_283\n      tag_239\n      jump\t// in\n    tag_283:\n    tag_282:\n        /* \"contracts/bettoken.sol\":3126:3131  stage */\n      0x11\n      0x00\n      swap1\n      sload\n      swap1\n      0x0100\n      exp\n      swap1\n      div\n      0xff\n      and\n        /* \"contracts/bettoken.sol\":3126:3152  stage == SaleStage.PRESALE */\n      0x02\n      dup2\n      gt\n      iszero\n      tag_284\n      jumpi\n      tag_285\n      tag_239\n      jump\t// in\n    tag_285:\n    tag_284:\n      sub\n        /* \"contracts/bettoken.sol\":3122:3671  if (stage == SaleStage.PRESALE) {... */\n      tag_286\n      jumpi\n        /* \"contracts/bettoken.sol\":3196:3209  preSaleTokens */\n      sload(0x0d)\n        /* \"contracts/bettoken.sol\":3176:3193  preSaleSoldTokens */\n      sload(0x10)\n        /* \"contracts/bettoken.sol\":3176:3209  preSaleSoldTokens < preSaleTokens */\n      lt\n        /* \"contracts/bettoken.sol\":3168:3232  require(preSaleSoldTokens < preSaleTokens, \"Pre-Sale sold out.\") */\n      tag_287\n      jumpi\n      mload(0x40)\n      0x08c379a000000000000000000000000000000000000000000000000000000000\n      dup2\n      mstore\n      0x04\n      add\n      tag_288\n      swap1\n      tag_289\n      jump\t// in\n    tag_288:\n      mload(0x40)\n      dup1\n      swap2\n      sub\n      swap1\n      revert\n    tag_287:\n        /* \"contracts/bettoken.sol\":3267:3281  100 * 10 ** 18 */\n      0x056bc75e2d63100000\n        /* \"contracts/bettoken.sol\":3254:3263  usdAmount */\n      dup3\n        /* \"contracts/bettoken.sol\":3254:3281  usdAmount >= 100 * 10 ** 18 */\n      lt\n      iszero\n        /* \"contracts/bettoken.sol\":3254:3314  usdAmount >= 100 * 10 ** 18 && usdAmount <= 3_000 * 10 ** 18 */\n      dup1\n      iszero\n      tag_290\n      jumpi\n      pop\n        /* \"contracts/bettoken.sol\":3298:3314  3_000 * 10 ** 18 */\n      0xa2a15d09519be00000\n        /* \"contracts/bettoken.sol\":3285:3294  usdAmount */\n      dup3\n        /* \"contracts/bettoken.sol\":3285:3314  usdAmount <= 3_000 * 10 ** 18 */\n      gt\n      iszero\n        /* \"contracts/bettoken.sol\":3254:3314  usdAmount >= 100 * 10 ** 18 && usdAmount <= 3_000 * 10 ** 18 */\n    tag_290:\n        /* \"contracts/bettoken.sol\":3246:3349  require(usdAmount >= 100 * 10 ** 18 && usdAmount <= 3_000 * 10 ** 18, \"Purchase amount out of limits.\") */\n      tag_291\n      jumpi\n      mload(0x40)\n      0x08c379a000000000000000000000000000000000000000000000000000000000\n      dup2\n      mstore\n      0x04\n      add\n      tag_292\n      swap1\n      tag_293\n      jump\t// in\n    tag_292:\n      mload(0x40)\n      dup1\n      swap2\n      sub\n      swap1\n      revert\n    tag_291:\n        /* \"contracts/bettoken.sol\":3377:3410  calculatePreSaleTokens(usdAmount) */\n      tag_294\n        /* \"contracts/bettoken.sol\":3400:3409  usdAmount */\n      dup3\n        /* \"contracts/bettoken.sol\":3377:3399  calculatePreSaleTokens */\n      tag_295\n        /* \"contracts/bettoken.sol\":3377:3410  calculatePreSaleTokens(usdAmount) */\n      jump\t// in\n    tag_294:\n        /* \"contracts/bettoken.sol\":3363:3410  tokensToBuy = calculatePreSaleTokens(usdAmount) */\n      swap1\n      pop\n        /* \"contracts/bettoken.sol\":3445:3456  tokensToBuy */\n      dup1\n        /* \"contracts/bettoken.sol\":3424:3441  preSaleSoldTokens */\n      0x10\n      0x00\n        /* \"contracts/bettoken.sol\":3424:3456  preSaleSoldTokens += tokensToBuy */\n      dup3\n      dup3\n      sload\n      tag_296\n      swap2\n      swap1\n      tag_273\n      jump\t// in\n    tag_296:\n      swap3\n      pop\n      pop\n      dup2\n      swap1\n      sstore\n      pop\n        /* \"contracts/bettoken.sol\":3499:3512  preSaleTokens */\n      sload(0x0d)\n        /* \"contracts/bettoken.sol\":3478:3495  preSaleSoldTokens */\n      sload(0x10)\n        /* \"contracts/bettoken.sol\":3478:3512  preSaleSoldTokens <= preSaleTokens */\n      gt\n      iszero\n        /* \"contracts/bettoken.sol\":3470:3546  require(preSaleSoldTokens <= preSaleTokens, \"Exceeds Pre-Sale token limit.\") */\n      tag_297\n      jumpi\n      mload(0x40)\n      0x08c379a000000000000000000000000000000000000000000000000000000000\n      dup2\n      mstore\n      0x04\n      add\n      tag_298\n      swap1\n      tag_299\n      jump\t// in\n    tag_298:\n      mload(0x40)\n      dup1\n      swap2\n      sub\n      swap1\n      revert\n    tag_297:\n        /* \"contracts/bettoken.sol\":3560:3609  _transfer(address(this), msg.sender, tokensToBuy) */\n      tag_300\n        /* \"contracts/bettoken.sol\":3578:3582  this */\n      address\n        /* \"contracts/bettoken.sol\":3585:3595  msg.sender */\n      caller\n        /* \"contracts/bettoken.sol\":3597:3608  tokensToBuy */\n      dup4\n        /* \"contracts/bettoken.sol\":3560:3569  _transfer */\n      tag_216\n        /* \"contracts/bettoken.sol\":3560:3609  _transfer(address(this), msg.sender, tokensToBuy) */\n      jump\t// in\n    tag_300:\n        /* \"contracts/bettoken.sol\":3636:3646  msg.sender */\n      caller\n        /* \"contracts/bettoken.sol\":3628:3660  PreSale(msg.sender, tokensToBuy) */\n      0xffffffffffffffffffffffffffffffffffffffff\n      and\n      0x550498dc565cc74203b9d14cba907c9f60ceefe26e82b37df98f6cb98529cf19\n        /* \"contracts/bettoken.sol\":3648:3659  tokensToBuy */\n      dup3\n        /* \"contracts/bettoken.sol\":3628:3660  PreSale(msg.sender, tokensToBuy) */\n      mload(0x40)\n      tag_301\n      swap2\n      swap1\n      tag_67\n      jump\t// in\n    tag_301:\n      mload(0x40)\n      dup1\n      swap2\n      sub\n      swap1\n      log2\n        /* \"contracts/bettoken.sol\":3122:3671  if (stage == SaleStage.PRESALE) {... */\n    tag_286:\n        /* \"contracts/bettoken.sol\":2560:3671  if (stage == SaleStage.PRIVATE) {... */\n    tag_281:\n        /* \"contracts/bettoken.sol\":2456:3677  {... */\n      pop\n        /* \"@openzeppelin/contracts/security/ReentrancyGuard.sol\":2303:2323  _nonReentrantAfter() */\n      tag_302\n        /* \"@openzeppelin/contracts/security/ReentrancyGuard.sol\":2303:2321  _nonReentrantAfter */\n      tag_228\n        /* \"@openzeppelin/contracts/security/ReentrancyGuard.sol\":2303:2323  _nonReentrantAfter() */\n      jump\t// in\n    tag_302:\n        /* \"contracts/bettoken.sol\":2388:3677  function buyTokens(uint256 usdAmount) external payable nonReentrant {... */\n      pop\n      jump\t// out\n        /* \"contracts/bettoken.sol\":1606:1645  uint256 public stakeDuration = 365 days */\n    tag_113:\n      sload(0x15)\n      dup2\n      jump\t// out\n        /* \"contracts/bettoken.sol\":4263:4619  function releaseVestedTokens() external nonReentrant {... */\n    tag_117:\n        /* \"@openzeppelin/contracts/security/ReentrancyGuard.sol\":2261:2282  _nonReentrantBefore() */\n      tag_304\n        /* \"@openzeppelin/contracts/security/ReentrancyGuard.sol\":2261:2280  _nonReentrantBefore */\n      tag_222\n        /* \"@openzeppelin/contracts/security/ReentrancyGuard.sol\":2261:2282  _nonReentrantBefore() */\n      jump\t// in\n    tag_304:\n        /* \"contracts/bettoken.sol\":4353:4371  vestingReleaseTime */\n      0x13\n        /* \"contracts/bettoken.sol\":4353:4383  vestingReleaseTime[msg.sender] */\n      0x00\n        /* \"contracts/bettoken.sol\":4372:4382  msg.sender */\n      caller\n        /* \"contracts/bettoken.sol\":4353:4383  vestingReleaseTime[msg.sender] */\n      0xffffffffffffffffffffffffffffffffffffffff\n      and\n      0xffffffffffffffffffffffffffffffffffffffff\n      and\n      dup2\n      mstore\n      0x20\n      add\n      swap1\n      dup2\n      mstore\n      0x20\n      add\n      0x00\n      keccak256\n      sload\n        /* \"contracts/bettoken.sol\":4334:4349  block.timestamp */\n      timestamp\n        /* \"contracts/bettoken.sol\":4334:4383  block.timestamp >= vestingReleaseTime[msg.sender] */\n      lt\n      iszero\n        /* \"contracts/bettoken.sol\":4326:4421  require(block.timestamp >= vestingReleaseTime[msg.sender], \"Vesting period not yet completed.\") */\n      tag_306\n      jumpi\n      mload(0x40)\n      0x08c379a000000000000000000000000000000000000000000000000000000000\n      dup2\n      mstore\n      0x04\n      add\n      tag_307\n      swap1\n      tag_308\n      jump\t// in\n    tag_307:\n      mload(0x40)\n      dup1\n      swap2\n      sub\n      swap1\n      revert\n    tag_306:\n        /* \"contracts/bettoken.sol\":4431:4445  uint256 amount */\n      0x00\n        /* \"contracts/bettoken.sol\":4448:4462  vestingBalance */\n      0x12\n        /* \"contracts/bettoken.sol\":4448:4474  vestingBalance[msg.sender] */\n      0x00\n        /* \"contracts/bettoken.sol\":4463:4473  msg.sender */\n      caller\n        /* \"contracts/bettoken.sol\":4448:4474  vestingBalance[msg.sender] */\n      0xffffffffffffffffffffffffffffffffffffffff\n      and\n      0xffffffffffffffffffffffffffffffffffffffff\n      and\n      dup2\n      mstore\n      0x20\n      add\n      swap1\n      dup2\n      mstore\n      0x20\n      add\n      0x00\n      keccak256\n      sload\n        /* \"contracts/bettoken.sol\":4431:4474  uint256 amount = vestingBalance[msg.sender] */\n      swap1\n      pop\n        /* \"contracts/bettoken.sol\":4513:4514  0 */\n      0x00\n        /* \"contracts/bettoken.sol\":4484:4498  vestingBalance */\n      0x12\n        /* \"contracts/bettoken.sol\":4484:4510  vestingBalance[msg.sender] */\n      0x00\n        /* \"contracts/bettoken.sol\":4499:4509  msg.sender */\n      caller\n        /* \"contracts/bettoken.sol\":4484:4510  vestingBalance[msg.sender] */\n      0xffffffffffffffffffffffffffffffffffffffff\n      and\n      0xffffffffffffffffffffffffffffffffffffffff\n      and\n      dup2\n      mstore\n      0x20\n      add\n      swap1\n      dup2\n      mstore\n      0x20\n      add\n      0x00\n      keccak256\n        /* \"contracts/bettoken.sol\":4484:4514  vestingBalance[msg.sender] = 0 */\n      dup2\n      swap1\n      sstore\n      pop\n        /* \"contracts/bettoken.sol\":4557:4558  0 */\n      0x00\n        /* \"contracts/bettoken.sol\":4524:4542  vestingReleaseTime */\n      0x13\n        /* \"contracts/bettoken.sol\":4524:4554  vestingReleaseTime[msg.sender] */\n      0x00\n        /* \"contracts/bettoken.sol\":4543:4553  msg.sender */\n      caller\n        /* \"contracts/bettoken.sol\":4524:4554  vestingReleaseTime[msg.sender] */\n      0xffffffffffffffffffffffffffffffffffffffff\n      and\n      0xffffffffffffffffffffffffffffffffffffffff\n      and\n      dup2\n      mstore\n      0x20\n      add\n      swap1\n      dup2\n      mstore\n      0x20\n      add\n      0x00\n      keccak256\n        /* \"contracts/bettoken.sol\":4524:4558  vestingReleaseTime[msg.sender] = 0 */\n      dup2\n      swap1\n      sstore\n      pop\n        /* \"contracts/bettoken.sol\":4568:4612  _transfer(address(this), msg.sender, amount) */\n      tag_309\n        /* \"contracts/bettoken.sol\":4586:4590  this */\n      address\n        /* \"contracts/bettoken.sol\":4593:4603  msg.sender */\n      caller\n        /* \"contracts/bettoken.sol\":4605:4611  amount */\n      dup4\n        /* \"contracts/bettoken.sol\":4568:4577  _transfer */\n      tag_216\n        /* \"contracts/bettoken.sol\":4568:4612  _transfer(address(this), msg.sender, amount) */\n      jump\t// in\n    tag_309:\n        /* \"contracts/bettoken.sol\":4316:4619  {... */\n      pop\n        /* \"@openzeppelin/contracts/security/ReentrancyGuard.sol\":2303:2323  _nonReentrantAfter() */\n      tag_310\n        /* \"@openzeppelin/contracts/security/ReentrancyGuard.sol\":2303:2321  _nonReentrantAfter */\n      tag_228\n        /* \"@openzeppelin/contracts/security/ReentrancyGuard.sol\":2303:2323  _nonReentrantAfter() */\n      jump\t// in\n    tag_310:\n        /* \"contracts/bettoken.sol\":4263:4619  function releaseVestedTokens() external nonReentrant {... */\n      jump\t// out\n        /* \"contracts/bettoken.sol\":2112:2382  function startPreSale() external onlyOwner {... */\n    tag_120:\n        /* \"@openzeppelin/contracts/access/Ownable.sol\":1531:1544  _checkOwner() */\n      tag_312\n        /* \"@openzeppelin/contracts/access/Ownable.sol\":1531:1542  _checkOwner */\n      tag_219\n        /* \"@openzeppelin/contracts/access/Ownable.sol\":1531:1544  _checkOwner() */\n      jump\t// in\n    tag_312:\n        /* \"contracts/bettoken.sol\":2182:2199  SaleStage.PRIVATE */\n      0x01\n        /* \"contracts/bettoken.sol\":2173:2199  stage == SaleStage.PRIVATE */\n      0x02\n      dup2\n      gt\n      iszero\n      tag_314\n      jumpi\n      tag_315\n      tag_239\n      jump\t// in\n    tag_315:\n    tag_314:\n        /* \"contracts/bettoken.sol\":2173:2178  stage */\n      0x11\n      0x00\n      swap1\n      sload\n      swap1\n      0x0100\n      exp\n      swap1\n      div\n      0xff\n      and\n        /* \"contracts/bettoken.sol\":2173:2199  stage == SaleStage.PRIVATE */\n      0x02\n      dup2\n      gt\n      iszero\n      tag_316\n      jumpi\n      tag_317\n      tag_239\n      jump\t// in\n    tag_317:\n    tag_316:\n      eq\n        /* \"contracts/bettoken.sol\":2165:2243  require(stage == SaleStage.PRIVATE, \"Private Sale should be concluded first.\") */\n      tag_318\n      jumpi\n      mload(0x40)\n      0x08c379a000000000000000000000000000000000000000000000000000000000\n      dup2\n      mstore\n      0x04\n      add\n      tag_319\n      swap1\n      tag_320\n      jump\t// in\n    tag_319:\n      mload(0x40)\n      dup1\n      swap2\n      sub\n      swap1\n      revert\n    tag_318:\n        /* \"contracts/bettoken.sol\":2286:2303  privateSaleTokens */\n      sload(0x08)\n        /* \"contracts/bettoken.sol\":2261:2282  privateSaleSoldTokens */\n      sload(0x0b)\n        /* \"contracts/bettoken.sol\":2261:2303  privateSaleSoldTokens == privateSaleTokens */\n      eq\n        /* \"contracts/bettoken.sol\":2253:2340  require(privateSaleSoldTokens == privateSaleTokens, \"Private Sale target not reached.\") */\n      tag_321\n      jumpi\n      mload(0x40)\n      0x08c379a000000000000000000000000000000000000000000000000000000000\n      dup2\n      mstore\n      0x04\n      add\n      tag_322\n      swap1\n      tag_323\n      jump\t// in\n    tag_322:\n      mload(0x40)\n      dup1\n      swap2\n      sub\n      swap1\n      revert\n    tag_321:\n        /* \"contracts/bettoken.sol\":2358:2375  SaleStage.PRESALE */\n      0x02\n        /* \"contracts/bettoken.sol\":2350:2355  stage */\n      0x11\n      0x00\n        /* \"contracts/bettoken.sol\":2350:2375  stage = SaleStage.PRESALE */\n      0x0100\n      exp\n      dup2\n      sload\n      dup2\n      0xff\n      mul\n      not\n      and\n      swap1\n      dup4\n      0x02\n      dup2\n      gt\n      iszero\n      tag_324\n      jumpi\n      tag_325\n      tag_239\n      jump\t// in\n    tag_325:\n    tag_324:\n      mul\n      or\n      swap1\n      sstore\n      pop\n        /* \"contracts/bettoken.sol\":2112:2382  function startPreSale() external onlyOwner {... */\n      jump\t// out\n        /* \"contracts/bettoken.sol\":851:891  uint256 public privateSaleSoldTokens = 0 */\n    tag_123:\n      sload(0x0b)\n      dup2\n      jump\t// out\n        /* \"@openzeppelin/contracts/token/ERC20/ERC20.sol\":3299:3415  function balanceOf(address account) public view virtual returns (uint256) {... */\n    tag_128:\n        /* \"@openzeppelin/contracts/token/ERC20/ERC20.sol\":3364:3371  uint256 */\n      0x00\n        /* \"@openzeppelin/contracts/token/ERC20/ERC20.sol\":3390:3399  _balances */\n      dup1\n        /* \"@openzeppelin/contracts/token/ERC20/ERC20.sol\":3390:3408  _balances[account] */\n      0x00\n        /* \"@openzeppelin/contracts/token/ERC20/ERC20.sol\":3400:3407  account */\n      dup4\n        /* \"@openzeppelin/contracts/token/ERC20/ERC20.sol\":3390:3408  _balances[account] */\n      0xffffffffffffffffffffffffffffffffffffffff\n      and\n      0xffffffffffffffffffffffffffffffffffffffff\n      and\n      dup2\n      mstore\n      0x20\n      add\n      swap1\n      dup2\n      mstore\n      0x20\n      add\n      0x00\n      keccak256\n      sload\n        /* \"@openzeppelin/contracts/token/ERC20/ERC20.sol\":3383:3408  return _balances[account] */\n      swap1\n      pop\n        /* \"@openzeppelin/contracts/token/ERC20/ERC20.sol\":3299:3415  function balanceOf(address account) public view virtual returns (uint256) {... */\n      swap2\n      swap1\n      pop\n      jump\t// out\n        /* \"@openzeppelin/contracts/access/Ownable.sol\":2293:2394  function renounceOwnership() public virtual onlyOwner {... */\n    tag_132:\n        /* \"@openzeppelin/contracts/access/Ownable.sol\":1531:1544  _checkOwner() */\n      tag_328\n        /* \"@openzeppelin/contracts/access/Ownable.sol\":1531:1542  _checkOwner */\n      tag_219\n        /* \"@openzeppelin/contracts/access/Ownable.sol\":1531:1544  _checkOwner() */\n      jump\t// in\n    tag_328:\n        /* \"@openzeppelin/contracts/access/Ownable.sol\":2357:2387  _transferOwnership(address(0)) */\n      tag_330\n        /* \"@openzeppelin/contracts/access/Ownable.sol\":2384:2385  0 */\n      0x00\n        /* \"@openzeppelin/contracts/access/Ownable.sol\":2357:2375  _transferOwnership */\n      tag_331\n        /* \"@openzeppelin/contracts/access/Ownable.sol\":2357:2387  _transferOwnership(address(0)) */\n      jump\t// in\n    tag_330:\n        /* \"@openzeppelin/contracts/access/Ownable.sol\":2293:2394  function renounceOwnership() public virtual onlyOwner {... */\n      jump\t// out\n        /* \"@openzeppelin/contracts/access/Ownable.sol\":1638:1723  function owner() public view virtual returns (address) {... */\n    tag_135:\n        /* \"@openzeppelin/contracts/access/Ownable.sol\":1684:1691  address */\n      0x00\n        /* \"@openzeppelin/contracts/access/Ownable.sol\":1710:1716  _owner */\n      0x05\n      0x00\n      swap1\n      sload\n      swap1\n      0x0100\n      exp\n      swap1\n      div\n      0xffffffffffffffffffffffffffffffffffffffff\n      and\n        /* \"@openzeppelin/contracts/access/Ownable.sol\":1703:1716  return _owner */\n      swap1\n      pop\n        /* \"@openzeppelin/contracts/access/Ownable.sol\":1638:1723  function owner() public view virtual returns (address) {... */\n      swap1\n      jump\t// out\n        /* \"contracts/bettoken.sol\":1167:1214  uint256 public preSaleEndPrice = 0.1 * 10 ** 18 */\n    tag_140:\n      sload(0x0f)\n      dup2\n      jump\t// out\n        /* \"contracts/bettoken.sol\":384:445  uint256 public constant TOTAL_SUPPLY = 200_000_000 * 10 ** 18 */\n    tag_144:\n        /* \"contracts/bettoken.sol\":423:445  200_000_000 * 10 ** 18 */\n      0xa56fa5b99019a5c8000000\n        /* \"contracts/bettoken.sol\":384:445  uint256 public constant TOTAL_SUPPLY = 200_000_000 * 10 ** 18 */\n      dup2\n      jump\t// out\n        /* \"contracts/bettoken.sol\":1086:1138  uint256 public preSaleStartPrice = 0.0505 * 10 ** 18 */\n    tag_148:\n      sload(0x0e)\n      dup2\n      jump\t// out\n        /* \"@openzeppelin/contracts/token/ERC20/ERC20.sol\":2276:2369  function symbol() public view virtual returns (string memory) {... */\n    tag_152:\n        /* \"@openzeppelin/contracts/token/ERC20/ERC20.sol\":2323:2336  string memory */\n      0x60\n        /* \"@openzeppelin/contracts/token/ERC20/ERC20.sol\":2355:2362  _symbol */\n      0x04\n        /* \"@openzeppelin/contracts/token/ERC20/ERC20.sol\":2348:2362  return _symbol */\n      dup1\n      sload\n      tag_334\n      swap1\n      tag_200\n      jump\t// in\n    tag_334:\n      dup1\n      0x1f\n      add\n      0x20\n      dup1\n      swap2\n      div\n      mul\n      0x20\n      add\n      mload(0x40)\n      swap1\n      dup2\n      add\n      0x40\n      mstore\n      dup1\n      swap3\n      swap2\n      swap1\n      dup2\n      dup2\n      mstore\n      0x20\n      add\n      dup3\n      dup1\n      sload\n      tag_335\n      swap1\n      tag_200\n      jump\t// in\n    tag_335:\n      dup1\n      iszero\n      tag_336\n      jumpi\n      dup1\n      0x1f\n      lt\n      tag_337\n      jumpi\n      0x0100\n      dup1\n      dup4\n      sload\n      div\n      mul\n      dup4\n      mstore\n      swap2\n      0x20\n      add\n      swap2\n      jump(tag_336)\n    tag_337:\n      dup3\n      add\n      swap2\n      swap1\n      0x00\n      mstore\n      keccak256(0x00, 0x20)\n      swap1\n    tag_338:\n      dup2\n      sload\n      dup2\n      mstore\n      swap1\n      0x01\n      add\n      swap1\n      0x20\n      add\n      dup1\n      dup4\n      gt\n      tag_338\n      jumpi\n      dup3\n      swap1\n      sub\n      0x1f\n      and\n      dup3\n      add\n      swap2\n    tag_336:\n      pop\n      pop\n      pop\n      pop\n      pop\n      swap1\n      pop\n        /* \"@openzeppelin/contracts/token/ERC20/ERC20.sol\":2276:2369  function symbol() public view virtual returns (string memory) {... */\n      swap1\n      jump\t// out\n        /* \"@openzeppelin/contracts/token/ERC20/ERC20.sol\":3610:3788  function transfer(address to, uint256 value) public virtual returns (bool) {... */\n    tag_157:\n        /* \"@openzeppelin/contracts/token/ERC20/ERC20.sol\":3679:3683  bool */\n      0x00\n        /* \"@openzeppelin/contracts/token/ERC20/ERC20.sol\":3695:3708  address owner */\n      dup1\n        /* \"@openzeppelin/contracts/token/ERC20/ERC20.sol\":3711:3723  _msgSender() */\n      tag_340\n        /* \"@openzeppelin/contracts/token/ERC20/ERC20.sol\":3711:3721  _msgSender */\n      tag_207\n        /* \"@openzeppelin/contracts/token/ERC20/ERC20.sol\":3711:3723  _msgSender() */\n      jump\t// in\n    tag_340:\n        /* \"@openzeppelin/contracts/token/ERC20/ERC20.sol\":3695:3723  address owner = _msgSender() */\n      swap1\n      pop\n        /* \"@openzeppelin/contracts/token/ERC20/ERC20.sol\":3733:3760  _transfer(owner, to, value) */\n      tag_341\n        /* \"@openzeppelin/contracts/token/ERC20/ERC20.sol\":3743:3748  owner */\n      dup2\n        /* \"@openzeppelin/contracts/token/ERC20/ERC20.sol\":3750:3752  to */\n      dup6\n        /* \"@openzeppelin/contracts/token/ERC20/ERC20.sol\":3754:3759  value */\n      dup6\n        /* \"@openzeppelin/contracts/token/ERC20/ERC20.sol\":3733:3742  _transfer */\n      tag_216\n        /* \"@openzeppelin/contracts/token/ERC20/ERC20.sol\":3733:3760  _transfer(owner, to, value) */\n      jump\t// in\n    tag_341:\n        /* \"@openzeppelin/contracts/token/ERC20/ERC20.sol\":3777:3781  true */\n      0x01\n        /* \"@openzeppelin/contracts/token/ERC20/ERC20.sol\":3770:3781  return true */\n      swap2\n      pop\n      pop\n        /* \"@openzeppelin/contracts/token/ERC20/ERC20.sol\":3610:3788  function transfer(address to, uint256 value) public virtual returns (bool) {... */\n      swap3\n      swap2\n      pop\n      pop\n      jump\t// out\n        /* \"contracts/bettoken.sol\":685:740  uint256 public privateSaleStartPrice = 0.001 * 10 ** 18 */\n    tag_161:\n      sload(0x09)\n      dup2\n      jump\t// out\n        /* \"contracts/bettoken.sol\":1240:1276  uint256 public preSaleSoldTokens = 0 */\n    tag_165:\n      sload(0x10)\n      dup2\n      jump\t// out\n        /* \"contracts/bettoken.sol\":519:574  uint256 public privateSaleTarget = 1_000_000 * 10 ** 18 */\n    tag_169:\n      sload(0x07)\n      dup2\n      jump\t// out\n        /* \"contracts/bettoken.sol\":768:822  uint256 public privateSaleEndPrice = 0.0505 * 10 ** 18 */\n    tag_173:\n      sload(0x0a)\n      dup2\n      jump\t// out\n        /* \"contracts/bettoken.sol\":1348:1387  SaleStage public stage = SaleStage.NONE */\n    tag_177:\n      0x11\n      0x00\n      swap1\n      sload\n      swap1\n      0x0100\n      exp\n      swap1\n      div\n      0xff\n      and\n      dup2\n      jump\t// out\n        /* \"contracts/bettoken.sol\":604:660  uint256 public privateSaleTokens = 38_835_764 * 10 ** 18 */\n    tag_182:\n      sload(0x08)\n      dup2\n      jump\t// out\n        /* \"@openzeppelin/contracts/token/ERC20/ERC20.sol\":3846:3986  function allowance(address owner, address spender) public view virtual returns (uint256) {... */\n    tag_188:\n        /* \"@openzeppelin/contracts/token/ERC20/ERC20.sol\":3926:3933  uint256 */\n      0x00\n        /* \"@openzeppelin/contracts/token/ERC20/ERC20.sol\":3952:3963  _allowances */\n      0x01\n        /* \"@openzeppelin/contracts/token/ERC20/ERC20.sol\":3952:3970  _allowances[owner] */\n      0x00\n        /* \"@openzeppelin/contracts/token/ERC20/ERC20.sol\":3964:3969  owner */\n      dup5\n        /* \"@openzeppelin/contracts/token/ERC20/ERC20.sol\":3952:3970  _allowances[owner] */\n      0xffffffffffffffffffffffffffffffffffffffff\n      and\n      0xffffffffffffffffffffffffffffffffffffffff\n      and\n      dup2\n      mstore\n      0x20\n      add\n      swap1\n      dup2\n      mstore\n      0x20\n      add\n      0x00\n      keccak256\n        /* \"@openzeppelin/contracts/token/ERC20/ERC20.sol\":3952:3979  _allowances[owner][spender] */\n      0x00\n        /* \"@openzeppelin/contracts/token/ERC20/ERC20.sol\":3971:3978  spender */\n      dup4\n        /* \"@openzeppelin/contracts/token/ERC20/ERC20.sol\":3952:3979  _allowances[owner][spender] */\n      0xffffffffffffffffffffffffffffffffffffffff\n      and\n      0xffffffffffffffffffffffffffffffffffffffff\n      and\n      dup2\n      mstore\n      0x20\n      add\n      swap1\n      dup2\n      mstore\n      0x20\n      add\n      0x00\n      keccak256\n      sload\n        /* \"@openzeppelin/contracts/token/ERC20/ERC20.sol\":3945:3979  return _allowances[owner][spender] */\n      swap1\n      pop\n        /* \"@openzeppelin/contracts/token/ERC20/ERC20.sol\":3846:3986  function allowance(address owner, address spender) public view virtual returns (uint256) {... */\n      swap3\n      swap2\n      pop\n      pop\n      jump\t// out\n        /* \"contracts/bettoken.sol\":924:976  uint256 public preSaleTarget = 19_000_000 * 10 ** 18 */\n    tag_192:\n      sload(0x0c)\n      dup2\n      jump\t// out\n        /* \"@openzeppelin/contracts/access/Ownable.sol\":2543:2758  function transferOwnership(address newOwner) public virtual onlyOwner {... */\n    tag_197:\n        /* \"@openzeppelin/contracts/access/Ownable.sol\":1531:1544  _checkOwner() */\n      tag_344\n        /* \"@openzeppelin/contracts/access/Ownable.sol\":1531:1542  _checkOwner */\n      tag_219\n        /* \"@openzeppelin/contracts/access/Ownable.sol\":1531:1544  _checkOwner() */\n      jump\t// in\n    tag_344:\n        /* \"@openzeppelin/contracts/access/Ownable.sol\":2647:2648  0 */\n      0x00\n        /* \"@openzeppelin/contracts/access/Ownable.sol\":2627:2649  newOwner == address(0) */\n      0xffffffffffffffffffffffffffffffffffffffff\n      and\n        /* \"@openzeppelin/contracts/access/Ownable.sol\":2627:2635  newOwner */\n      dup2\n        /* \"@openzeppelin/contracts/access/Ownable.sol\":2627:2649  newOwner == address(0) */\n      0xffffffffffffffffffffffffffffffffffffffff\n      and\n      sub\n        /* \"@openzeppelin/contracts/access/Ownable.sol\":2623:2714  if (newOwner == address(0)) {... */\n      tag_346\n      jumpi\n        /* \"@openzeppelin/contracts/access/Ownable.sol\":2700:2701  0 */\n      0x00\n        /* \"@openzeppelin/contracts/access/Ownable.sol\":2672:2703  OwnableInvalidOwner(address(0)) */\n      mload(0x40)\n      0x1e4fbdf700000000000000000000000000000000000000000000000000000000\n      dup2\n      mstore\n      0x04\n      add\n      tag_347\n      swap2\n      swap1\n      tag_137\n      jump\t// in\n    tag_347:\n      mload(0x40)\n      dup1\n      swap2\n      sub\n      swap1\n      revert\n        /* \"@openzeppelin/contracts/access/Ownable.sol\":2623:2714  if (newOwner == address(0)) {... */\n    tag_346:\n        /* \"@openzeppelin/contracts/access/Ownable.sol\":2723:2751  _transferOwnership(newOwner) */\n      tag_348\n        /* \"@openzeppelin/contracts/access/Ownable.sol\":2742:2750  newOwner */\n      dup2\n        /* \"@openzeppelin/contracts/access/Ownable.sol\":2723:2741  _transferOwnership */\n      tag_331\n        /* \"@openzeppelin/contracts/access/Ownable.sol\":2723:2751  _transferOwnership(newOwner) */\n      jump\t// in\n    tag_348:\n        /* \"@openzeppelin/contracts/access/Ownable.sol\":2543:2758  function transferOwnership(address newOwner) public virtual onlyOwner {... */\n      pop\n      jump\t// out\n        /* \"@openzeppelin/contracts/utils/Context.sol\":656:752  function _msgSender() internal view virtual returns (address) {... */\n    tag_207:\n        /* \"@openzeppelin/contracts/utils/Context.sol\":709:716  address */\n      0x00\n        /* \"@openzeppelin/contracts/utils/Context.sol\":735:745  msg.sender */\n      caller\n        /* \"@openzeppelin/contracts/utils/Context.sol\":728:745  return msg.sender */\n      swap1\n      pop\n        /* \"@openzeppelin/contracts/utils/Context.sol\":656:752  function _msgSender() internal view virtual returns (address) {... */\n      swap1\n      jump\t// out\n        /* \"@openzeppelin/contracts/token/ERC20/ERC20.sol\":8989:9117  function _approve(address owner, address spender, uint256 value) internal {... */\n    tag_209:\n        /* \"@openzeppelin/contracts/token/ERC20/ERC20.sol\":9073:9110  _approve(owner, spender, value, true) */\n      tag_351\n        /* \"@openzeppelin/contracts/token/ERC20/ERC20.sol\":9082:9087  owner */\n      dup4\n        /* \"@openzeppelin/contracts/token/ERC20/ERC20.sol\":9089:9096  spender */\n      dup4\n        /* \"@openzeppelin/contracts/token/ERC20/ERC20.sol\":9098:9103  value */\n      dup4\n        /* \"@openzeppelin/contracts/token/ERC20/ERC20.sol\":9105:9109  true */\n      0x01\n        /* \"@openzeppelin/contracts/token/ERC20/ERC20.sol\":9073:9081  _approve */\n      tag_352\n        /* \"@openzeppelin/contracts/token/ERC20/ERC20.sol\":9073:9110  _approve(owner, spender, value, true) */\n      jump\t// in\n    tag_351:\n        /* \"@openzeppelin/contracts/token/ERC20/ERC20.sol\":8989:9117  function _approve(address owner, address spender, uint256 value) internal {... */\n      pop\n      pop\n      pop\n      jump\t// out\n        /* \"@openzeppelin/contracts/token/ERC20/ERC20.sol\":10663:11140  function _spendAllowance(address owner, address spender, uint256 value) internal virtual {... */\n    tag_214:\n        /* \"@openzeppelin/contracts/token/ERC20/ERC20.sol\":10762:10786  uint256 currentAllowance */\n      0x00\n        /* \"@openzeppelin/contracts/token/ERC20/ERC20.sol\":10789:10814  allowance(owner, spender) */\n      tag_354\n        /* \"@openzeppelin/contracts/token/ERC20/ERC20.sol\":10799:10804  owner */\n      dup5\n        /* \"@openzeppelin/contracts/token/ERC20/ERC20.sol\":10806:10813  spender */\n      dup5\n        /* \"@openzeppelin/contracts/token/ERC20/ERC20.sol\":10789:10798  allowance */\n      tag_188\n        /* \"@openzeppelin/contracts/token/ERC20/ERC20.sol\":10789:10814  allowance(owner, spender) */\n      jump\t// in\n    tag_354:\n        /* \"@openzeppelin/contracts/token/ERC20/ERC20.sol\":10762:10814  uint256 currentAllowance = allowance(owner, spender) */\n      swap1\n      pop\n        /* \"@openzeppelin/contracts/token/ERC20/ERC20.sol\":10848:10865  type(uint256).max */\n      0xffffffffffffffffffffffffffffffffffffffffffffffffffffffffffffffff\n        /* \"@openzeppelin/contracts/token/ERC20/ERC20.sol\":10828:10844  currentAllowance */\n      dup2\n        /* \"@openzeppelin/contracts/token/ERC20/ERC20.sol\":10828:10865  currentAllowance != type(uint256).max */\n      eq\n        /* \"@openzeppelin/contracts/token/ERC20/ERC20.sol\":10824:11134  if (currentAllowance != type(uint256).max) {... */\n      tag_355\n      jumpi\n        /* \"@openzeppelin/contracts/token/ERC20/ERC20.sol\":10904:10909  value */\n      dup2\n        /* \"@openzeppelin/contracts/token/ERC20/ERC20.sol\":10885:10901  currentAllowance */\n      dup2\n        /* \"@openzeppelin/contracts/token/ERC20/ERC20.sol\":10885:10909  currentAllowance < value */\n      lt\n        /* \"@openzeppelin/contracts/token/ERC20/ERC20.sol\":10881:11011  if (currentAllowance < value) {... */\n      iszero\n      tag_356\n      jumpi\n        /* \"@openzeppelin/contracts/token/ERC20/ERC20.sol\":10963:10970  spender */\n      dup3\n        /* \"@openzeppelin/contracts/token/ERC20/ERC20.sol\":10972:10988  currentAllowance */\n      dup2\n        /* \"@openzeppelin/contracts/token/ERC20/ERC20.sol\":10990:10995  value */\n      dup4\n        /* \"@openzeppelin/contracts/token/ERC20/ERC20.sol\":10936:10996  ERC20InsufficientAllowance(spender, currentAllowance, value) */\n      mload(0x40)\n      0xfb8f41b200000000000000000000000000000000000000000000000000000000\n      dup2\n      mstore\n      0x04\n      add\n      tag_357\n      swap4\n      swap3\n      swap2\n      swap1\n      tag_358\n      jump\t// in\n    tag_357:\n      mload(0x40)\n      dup1\n      swap2\n      sub\n      swap1\n      revert\n        /* \"@openzeppelin/contracts/token/ERC20/ERC20.sol\":10881:11011  if (currentAllowance < value) {... */\n    tag_356:\n        /* \"@openzeppelin/contracts/token/ERC20/ERC20.sol\":11052:11109  _approve(owner, spender, currentAllowance - value, false) */\n      tag_359\n        /* \"@openzeppelin/contracts/token/ERC20/ERC20.sol\":11061:11066  owner */\n      dup5\n        /* \"@openzeppelin/contracts/token/ERC20/ERC20.sol\":11068:11075  spender */\n      dup5\n        /* \"@openzeppelin/contracts/token/ERC20/ERC20.sol\":11096:11101  value */\n      dup5\n        /* \"@openzeppelin/contracts/token/ERC20/ERC20.sol\":11077:11093  currentAllowance */\n      dup5\n        /* \"@openzeppelin/contracts/token/ERC20/ERC20.sol\":11077:11101  currentAllowance - value */\n      sub\n        /* \"@openzeppelin/contracts/token/ERC20/ERC20.sol\":11103:11108  false */\n      0x00\n        /* \"@openzeppelin/contracts/token/ERC20/ERC20.sol\":11052:11060  _approve */\n      tag_352\n        /* \"@openzeppelin/contracts/token/ERC20/ERC20.sol\":11052:11109  _approve(owner, spender, currentAllowance - value, false) */\n      jump\t// in\n    tag_359:\n        /* \"@openzeppelin/contracts/token/ERC20/ERC20.sol\":10824:11134  if (currentAllowance != type(uint256).max) {... */\n    tag_355:\n        /* \"@openzeppelin/contracts/token/ERC20/ERC20.sol\":10752:11140  {... */\n      pop\n        /* \"@openzeppelin/contracts/token/ERC20/ERC20.sol\":10663:11140  function _spendAllowance(address owner, address spender, uint256 value) internal virtual {... */\n      pop\n      pop\n      pop\n      jump\t// out\n        /* \"@openzeppelin/contracts/token/ERC20/ERC20.sol\":5656:5956  function _transfer(address from, address to, uint256 value) internal {... */\n    tag_216:\n        /* \"@openzeppelin/contracts/token/ERC20/ERC20.sol\":5755:5756  0 */\n      0x00\n        /* \"@openzeppelin/contracts/token/ERC20/ERC20.sol\":5739:5757  from == address(0) */\n      0xffffffffffffffffffffffffffffffffffffffff\n      and\n        /* \"@openzeppelin/contracts/token/ERC20/ERC20.sol\":5739:5743  from */\n      dup4\n        /* \"@openzeppelin/contracts/token/ERC20/ERC20.sol\":5739:5757  from == address(0) */\n      0xffffffffffffffffffffffffffffffffffffffff\n      and\n      sub\n        /* \"@openzeppelin/contracts/token/ERC20/ERC20.sol\":5735:5821  if (from == address(0)) {... */\n      tag_361\n      jumpi\n        /* \"@openzeppelin/contracts/token/ERC20/ERC20.sol\":5807:5808  0 */\n      0x00\n        /* \"@openzeppelin/contracts/token/ERC20/ERC20.sol\":5780:5810  ERC20InvalidSender(address(0)) */\n      mload(0x40)\n      0x96c6fd1e00000000000000000000000000000000000000000000000000000000\n      dup2\n      mstore\n      0x04\n      add\n      tag_362\n      swap2\n      swap1\n      tag_137\n      jump\t// in\n    tag_362:\n      mload(0x40)\n      dup1\n      swap2\n      sub\n      swap1\n      revert\n        /* \"@openzeppelin/contracts/token/ERC20/ERC20.sol\":5735:5821  if (from == address(0)) {... */\n    tag_361:\n        /* \"@openzeppelin/contracts/token/ERC20/ERC20.sol\":5848:5849  0 */\n      0x00\n        /* \"@openzeppelin/contracts/token/ERC20/ERC20.sol\":5834:5850  to == address(0) */\n      0xffffffffffffffffffffffffffffffffffffffff\n      and\n        /* \"@openzeppelin/contracts/token/ERC20/ERC20.sol\":5834:5836  to */\n      dup3\n        /* \"@openzeppelin/contracts/token/ERC20/ERC20.sol\":5834:5850  to == address(0) */\n      0xffffffffffffffffffffffffffffffffffffffff\n      and\n      sub\n        /* \"@openzeppelin/contracts/token/ERC20/ERC20.sol\":5830:5916  if (to == address(0)) {... */\n      tag_363\n      jumpi\n        /* \"@openzeppelin/contracts/token/ERC20/ERC20.sol\":5902:5903  0 */\n      0x00\n        /* \"@openzeppelin/contracts/token/ERC20/ERC20.sol\":5873:5905  ERC20InvalidReceiver(address(0)) */\n      mload(0x40)\n      0xec442f0500000000000000000000000000000000000000000000000000000000\n      dup2\n      mstore\n      0x04\n      add\n      tag_364\n      swap2\n      swap1\n      tag_137\n      jump\t// in\n    tag_364:\n      mload(0x40)\n      dup1\n      swap2\n      sub\n      swap1\n      revert\n        /* \"@openzeppelin/contracts/token/ERC20/ERC20.sol\":5830:5916  if (to == address(0)) {... */\n    tag_363:\n        /* \"@openzeppelin/contracts/token/ERC20/ERC20.sol\":5925:5949  _update(from, to, value) */\n      tag_365\n        /* \"@openzeppelin/contracts/token/ERC20/ERC20.sol\":5933:5937  from */\n      dup4\n        /* \"@openzeppelin/contracts/token/ERC20/ERC20.sol\":5939:5941  to */\n      dup4\n        /* \"@openzeppelin/contracts/token/ERC20/ERC20.sol\":5943:5948  value */\n      dup4\n        /* \"@openzeppelin/contracts/token/ERC20/ERC20.sol\":5925:5932  _update */\n      tag_366\n        /* \"@openzeppelin/contracts/token/ERC20/ERC20.sol\":5925:5949  _update(from, to, value) */\n      jump\t// in\n    tag_365:\n        /* \"@openzeppelin/contracts/token/ERC20/ERC20.sol\":5656:5956  function _transfer(address from, address to, uint256 value) internal {... */\n      pop\n      pop\n      pop\n      jump\t// out\n        /* \"@openzeppelin/contracts/access/Ownable.sol\":1796:1958  function _checkOwner() internal view virtual {... */\n    tag_219:\n        /* \"@openzeppelin/contracts/access/Ownable.sol\":1866:1878  _msgSender() */\n      tag_368\n        /* \"@openzeppelin/contracts/access/Ownable.sol\":1866:1876  _msgSender */\n      tag_207\n        /* \"@openzeppelin/contracts/access/Ownable.sol\":1866:1878  _msgSender() */\n      jump\t// in\n    tag_368:\n        /* \"@openzeppelin/contracts/access/Ownable.sol\":1855:1878  owner() != _msgSender() */\n      0xffffffffffffffffffffffffffffffffffffffff\n      and\n        /* \"@openzeppelin/contracts/access/Ownable.sol\":1855:1862  owner() */\n      tag_369\n        /* \"@openzeppelin/contracts/access/Ownable.sol\":1855:1860  owner */\n      tag_135\n        /* \"@openzeppelin/contracts/access/Ownable.sol\":1855:1862  owner() */\n      jump\t// in\n    tag_369:\n        /* \"@openzeppelin/contracts/access/Ownable.sol\":1855:1878  owner() != _msgSender() */\n      0xffffffffffffffffffffffffffffffffffffffff\n      and\n      eq\n        /* \"@openzeppelin/contracts/access/Ownable.sol\":1851:1952  if (owner() != _msgSender()) {... */\n      tag_370\n      jumpi\n        /* \"@openzeppelin/contracts/access/Ownable.sol\":1928:1940  _msgSender() */\n      tag_371\n        /* \"@openzeppelin/contracts/access/Ownable.sol\":1928:1938  _msgSender */\n      tag_207\n        /* \"@openzeppelin/contracts/access/Ownable.sol\":1928:1940  _msgSender() */\n      jump\t// in\n    tag_371:\n        /* \"@openzeppelin/contracts/access/Ownable.sol\":1901:1941  OwnableUnauthorizedAccount(_msgSender()) */\n      mload(0x40)\n      0x118cdaa700000000000000000000000000000000000000000000000000000000\n      dup2\n      mstore\n      0x04\n      add\n      tag_372\n      swap2\n      swap1\n      tag_137\n      jump\t// in\n    tag_372:\n      mload(0x40)\n      dup1\n      swap2\n      sub\n      swap1\n      revert\n        /* \"@openzeppelin/contracts/access/Ownable.sol\":1851:1952  if (owner() != _msgSender()) {... */\n    tag_370:\n        /* \"@openzeppelin/contracts/access/Ownable.sol\":1796:1958  function _checkOwner() internal view virtual {... */\n      jump\t// out\n        /* \"@openzeppelin/contracts/security/ReentrancyGuard.sol\":2336:2623  function _nonReentrantBefore() private {... */\n    tag_222:\n        /* \"@openzeppelin/contracts/security/ReentrancyGuard.sol\":1759:1760  2 */\n      0x02\n        /* \"@openzeppelin/contracts/security/ReentrancyGuard.sol\":2468:2475  _status */\n      sload(0x06)\n        /* \"@openzeppelin/contracts/security/ReentrancyGuard.sol\":2468:2487  _status != _ENTERED */\n      sub\n        /* \"@openzeppelin/contracts/security/ReentrancyGuard.sol\":2460:2523  require(_status != _ENTERED, \"ReentrancyGuard: reentrant call\") */\n      tag_374\n      jumpi\n      mload(0x40)\n      0x08c379a000000000000000000000000000000000000000000000000000000000\n      dup2\n      mstore\n      0x04\n      add\n      tag_375\n      swap1\n      tag_376\n      jump\t// in\n    tag_375:\n      mload(0x40)\n      dup1\n      swap2\n      sub\n      swap1\n      revert\n    tag_374:\n        /* \"@openzeppelin/contracts/security/ReentrancyGuard.sol\":1759:1760  2 */\n      0x02\n        /* \"@openzeppelin/contracts/security/ReentrancyGuard.sol\":2598:2605  _status */\n      0x06\n        /* \"@openzeppelin/contracts/security/ReentrancyGuard.sol\":2598:2616  _status = _ENTERED */\n      dup2\n      swap1\n      sstore\n      pop\n        /* \"@openzeppelin/contracts/security/ReentrancyGuard.sol\":2336:2623  function _nonReentrantBefore() private {... */\n      jump\t// out\n        /* \"@openzeppelin/contracts/security/ReentrancyGuard.sol\":2629:2838  function _nonReentrantAfter() private {... */\n    tag_228:\n        /* \"@openzeppelin/contracts/security/ReentrancyGuard.sol\":1716:1717  1 */\n      0x01\n        /* \"@openzeppelin/contracts/security/ReentrancyGuard.sol\":2809:2816  _status */\n      0x06\n        /* \"@openzeppelin/contracts/security/ReentrancyGuard.sol\":2809:2831  _status = _NOT_ENTERED */\n      dup2\n      swap1\n      sstore\n      pop\n        /* \"@openzeppelin/contracts/security/ReentrancyGuard.sol\":2629:2838  function _nonReentrantAfter() private {... */\n      jump\t// out\n        /* \"contracts/bettoken.sol\":3683:3979  function calculatePrivateSaleTokens(uint256 usdAmount) internal view returns (uint256) {... */\n    tag_271:\n        /* \"contracts/bettoken.sol\":3761:3768  uint256 */\n      0x00\n        /* \"contracts/bettoken.sol\":3780:3800  uint256 currentPrice */\n      dup1\n        /* \"contracts/bettoken.sol\":3913:3930  privateSaleTokens */\n      sload(0x08)\n        /* \"contracts/bettoken.sol\":3889:3910  privateSaleSoldTokens */\n      sload(0x0b)\n        /* \"contracts/bettoken.sol\":3864:3885  privateSaleStartPrice */\n      sload(0x09)\n        /* \"contracts/bettoken.sol\":3842:3861  privateSaleEndPrice */\n      sload(0x0a)\n        /* \"contracts/bettoken.sol\":3842:3885  privateSaleEndPrice - privateSaleStartPrice */\n      tag_379\n      swap2\n      swap1\n      tag_380\n      jump\t// in\n    tag_379:\n        /* \"contracts/bettoken.sol\":3841:3910  (privateSaleEndPrice - privateSaleStartPrice) * privateSaleSoldTokens */\n      tag_381\n      swap2\n      swap1\n      tag_382\n      jump\t// in\n    tag_381:\n        /* \"contracts/bettoken.sol\":3841:3930  (privateSaleEndPrice - privateSaleStartPrice) * privateSaleSoldTokens / privateSaleTokens */\n      tag_383\n      swap2\n      swap1\n      tag_384\n      jump\t// in\n    tag_383:\n        /* \"contracts/bettoken.sol\":3803:3824  privateSaleStartPrice */\n      sload(0x09)\n        /* \"contracts/bettoken.sol\":3803:3931  privateSaleStartPrice + ... */\n      tag_385\n      swap2\n      swap1\n      tag_273\n      jump\t// in\n    tag_385:\n        /* \"contracts/bettoken.sol\":3780:3931  uint256 currentPrice = privateSaleStartPrice + ... */\n      swap1\n      pop\n        /* \"contracts/bettoken.sol\":3960:3972  currentPrice */\n      dup1\n        /* \"contracts/bettoken.sol\":3948:3957  usdAmount */\n      dup4\n        /* \"contracts/bettoken.sol\":3948:3972  usdAmount / currentPrice */\n      tag_386\n      swap2\n      swap1\n      tag_384\n      jump\t// in\n    tag_386:\n        /* \"contracts/bettoken.sol\":3941:3972  return usdAmount / currentPrice */\n      swap2\n      pop\n      pop\n        /* \"contracts/bettoken.sol\":3683:3979  function calculatePrivateSaleTokens(uint256 usdAmount) internal view returns (uint256) {... */\n      swap2\n      swap1\n      pop\n      jump\t// out\n        /* \"contracts/bettoken.sol\":3985:4257  function calculatePreSaleTokens(uint256 usdAmount) internal view returns (uint256) {... */\n    tag_295:\n        /* \"contracts/bettoken.sol\":4059:4066  uint256 */\n      0x00\n        /* \"contracts/bettoken.sol\":4078:4098  uint256 currentPrice */\n      dup1\n        /* \"contracts/bettoken.sol\":4195:4208  preSaleTokens */\n      sload(0x0d)\n        /* \"contracts/bettoken.sol\":4175:4192  preSaleSoldTokens */\n      sload(0x10)\n        /* \"contracts/bettoken.sol\":4154:4171  preSaleStartPrice */\n      sload(0x0e)\n        /* \"contracts/bettoken.sol\":4136:4151  preSaleEndPrice */\n      sload(0x0f)\n        /* \"contracts/bettoken.sol\":4136:4171  preSaleEndPrice - preSaleStartPrice */\n      tag_388\n      swap2\n      swap1\n      tag_380\n      jump\t// in\n    tag_388:\n        /* \"contracts/bettoken.sol\":4135:4192  (preSaleEndPrice - preSaleStartPrice) * preSaleSoldTokens */\n      tag_389\n      swap2\n      swap1\n      tag_382\n      jump\t// in\n    tag_389:\n        /* \"contracts/bettoken.sol\":4135:4208  (preSaleEndPrice - preSaleStartPrice) * preSaleSoldTokens / preSaleTokens */\n      tag_390\n      swap2\n      swap1\n      tag_384\n      jump\t// in\n    tag_390:\n        /* \"contracts/bettoken.sol\":4101:4118  preSaleStartPrice */\n      sload(0x0e)\n        /* \"contracts/bettoken.sol\":4101:4209  preSaleStartPrice + ... */\n      tag_391\n      swap2\n      swap1\n      tag_273\n      jump\t// in\n    tag_391:\n        /* \"contracts/bettoken.sol\":4078:4209  uint256 currentPrice = preSaleStartPrice + ... */\n      swap1\n      pop\n        /* \"contracts/bettoken.sol\":4238:4250  currentPrice */\n      dup1\n        /* \"contracts/bettoken.sol\":4226:4235  usdAmount */\n      dup4\n        /* \"contracts/bettoken.sol\":4226:4250  usdAmount / currentPrice */\n      tag_392\n      swap2\n      swap1\n      tag_384\n      jump\t// in\n    tag_392:\n        /* \"contracts/bettoken.sol\":4219:4250  return usdAmount / currentPrice */\n      swap2\n      pop\n      pop\n        /* \"contracts/bettoken.sol\":3985:4257  function calculatePreSaleTokens(uint256 usdAmount) internal view returns (uint256) {... */\n      swap2\n      swap1\n      pop\n      jump\t// out\n        /* \"@openzeppelin/contracts/access/Ownable.sol\":2912:3099  function _transferOwnership(address newOwner) internal virtual {... */\n    tag_331:\n        /* \"@openzeppelin/contracts/access/Ownable.sol\":2985:3001  address oldOwner */\n      0x00\n        /* \"@openzeppelin/contracts/access/Ownable.sol\":3004:3010  _owner */\n      0x05\n      0x00\n      swap1\n      sload\n      swap1\n      0x0100\n      exp\n      swap1\n      div\n      0xffffffffffffffffffffffffffffffffffffffff\n      and\n        /* \"@openzeppelin/contracts/access/Ownable.sol\":2985:3010  address oldOwner = _owner */\n      swap1\n      pop\n        /* \"@openzeppelin/contracts/access/Ownable.sol\":3029:3037  newOwner */\n      dup2\n        /* \"@openzeppelin/contracts/access/Ownable.sol\":3020:3026  _owner */\n      0x05\n      0x00\n        /* \"@openzeppelin/contracts/access/Ownable.sol\":3020:3037  _owner = newOwner */\n      0x0100\n      exp\n      dup2\n      sload\n      dup2\n      0xffffffffffffffffffffffffffffffffffffffff\n      mul\n      not\n      and\n      swap1\n      dup4\n      0xffffffffffffffffffffffffffffffffffffffff\n      and\n      mul\n      or\n      swap1\n      sstore\n      pop\n        /* \"@openzeppelin/contracts/access/Ownable.sol\":3083:3091  newOwner */\n      dup2\n        /* \"@openzeppelin/contracts/access/Ownable.sol\":3052:3092  OwnershipTransferred(oldOwner, newOwner) */\n      0xffffffffffffffffffffffffffffffffffffffff\n      and\n        /* \"@openzeppelin/contracts/access/Ownable.sol\":3073:3081  oldOwner */\n      dup2\n        /* \"@openzeppelin/contracts/access/Ownable.sol\":3052:3092  OwnershipTransferred(oldOwner, newOwner) */\n      0xffffffffffffffffffffffffffffffffffffffff\n      and\n      0x8be0079c531659141344cd1fd0a4f28419497f9722a3daafe3b4186f6b6457e0\n      mload(0x40)\n      mload(0x40)\n      dup1\n      swap2\n      sub\n      swap1\n      log3\n        /* \"@openzeppelin/contracts/access/Ownable.sol\":2975:3099  {... */\n      pop\n        /* \"@openzeppelin/contracts/access/Ownable.sol\":2912:3099  function _transferOwnership(address newOwner) internal virtual {... */\n      pop\n      jump\t// out\n        /* \"@openzeppelin/contracts/token/ERC20/ERC20.sol\":9949:10381  function _approve(address owner, address spender, uint256 value, bool emitEvent) internal virtual {... */\n    tag_352:\n        /* \"@openzeppelin/contracts/token/ERC20/ERC20.sol\":10078:10079  0 */\n      0x00\n        /* \"@openzeppelin/contracts/token/ERC20/ERC20.sol\":10061:10080  owner == address(0) */\n      0xffffffffffffffffffffffffffffffffffffffff\n      and\n        /* \"@openzeppelin/contracts/token/ERC20/ERC20.sol\":10061:10066  owner */\n      dup5\n        /* \"@openzeppelin/contracts/token/ERC20/ERC20.sol\":10061:10080  owner == address(0) */\n      0xffffffffffffffffffffffffffffffffffffffff\n      and\n      sub\n        /* \"@openzeppelin/contracts/token/ERC20/ERC20.sol\":10057:10146  if (owner == address(0)) {... */\n      tag_395\n      jumpi\n        /* \"@openzeppelin/contracts/token/ERC20/ERC20.sol\":10132:10133  0 */\n      0x00\n        /* \"@openzeppelin/contracts/token/ERC20/ERC20.sol\":10103:10135  ERC20InvalidApprover(address(0)) */\n      mload(0x40)\n      0xe602df0500000000000000000000000000000000000000000000000000000000\n      dup2\n      mstore\n      0x04\n      add\n      tag_396\n      swap2\n      swap1\n      tag_137\n      jump\t// in\n    tag_396:\n      mload(0x40)\n      dup1\n      swap2\n      sub\n      swap1\n      revert\n        /* \"@openzeppelin/contracts/token/ERC20/ERC20.sol\":10057:10146  if (owner == address(0)) {... */\n    tag_395:\n        /* \"@openzeppelin/contracts/token/ERC20/ERC20.sol\":10178:10179  0 */\n      0x00\n        /* \"@openzeppelin/contracts/token/ERC20/ERC20.sol\":10159:10180  spender == address(0) */\n      0xffffffffffffffffffffffffffffffffffffffff\n      and\n        /* \"@openzeppelin/contracts/token/ERC20/ERC20.sol\":10159:10166  spender */\n      dup4\n        /* \"@openzeppelin/contracts/token/ERC20/ERC20.sol\":10159:10180  spender == address(0) */\n      0xffffffffffffffffffffffffffffffffffffffff\n      and\n      sub\n        /* \"@openzeppelin/contracts/token/ERC20/ERC20.sol\":10155:10245  if (spender == address(0)) {... */\n      tag_397\n      jumpi\n        /* \"@openzeppelin/contracts/token/ERC20/ERC20.sol\":10231:10232  0 */\n      0x00\n        /* \"@openzeppelin/contracts/token/ERC20/ERC20.sol\":10203:10234  ERC20InvalidSpender(address(0)) */\n      mload(0x40)\n      0x94280d6200000000000000000000000000000000000000000000000000000000\n      dup2\n      mstore\n      0x04\n      add\n      tag_398\n      swap2\n      swap1\n      tag_137\n      jump\t// in\n    tag_398:\n      mload(0x40)\n      dup1\n      swap2\n      sub\n      swap1\n      revert\n        /* \"@openzeppelin/contracts/token/ERC20/ERC20.sol\":10155:10245  if (spender == address(0)) {... */\n    tag_397:\n        /* \"@openzeppelin/contracts/token/ERC20/ERC20.sol\":10284:10289  value */\n      dup2\n        /* \"@openzeppelin/contracts/token/ERC20/ERC20.sol\":10254:10265  _allowances */\n      0x01\n        /* \"@openzeppelin/contracts/token/ERC20/ERC20.sol\":10254:10272  _allowances[owner] */\n      0x00\n        /* \"@openzeppelin/contracts/token/ERC20/ERC20.sol\":10266:10271  owner */\n      dup7\n        /* \"@openzeppelin/contracts/token/ERC20/ERC20.sol\":10254:10272  _allowances[owner] */\n      0xffffffffffffffffffffffffffffffffffffffff\n      and\n      0xffffffffffffffffffffffffffffffffffffffff\n      and\n      dup2\n      mstore\n      0x20\n      add\n      swap1\n      dup2\n      mstore\n      0x20\n      add\n      0x00\n      keccak256\n        /* \"@openzeppelin/contracts/token/ERC20/ERC20.sol\":10254:10281  _allowances[owner][spender] */\n      0x00\n        /* \"@openzeppelin/contracts/token/ERC20/ERC20.sol\":10273:10280  spender */\n      dup6\n        /* \"@openzeppelin/contracts/token/ERC20/ERC20.sol\":10254:10281  _allowances[owner][spender] */\n      0xffffffffffffffffffffffffffffffffffffffff\n      and\n      0xffffffffffffffffffffffffffffffffffffffff\n      and\n      dup2\n      mstore\n      0x20\n      add\n      swap1\n      dup2\n      mstore\n      0x20\n      add\n      0x00\n      keccak256\n        /* \"@openzeppelin/contracts/token/ERC20/ERC20.sol\":10254:10289  _allowances[owner][spender] = value */\n      dup2\n      swap1\n      sstore\n      pop\n        /* \"@openzeppelin/contracts/token/ERC20/ERC20.sol\":10303:10312  emitEvent */\n      dup1\n        /* \"@openzeppelin/contracts/token/ERC20/ERC20.sol\":10299:10375  if (emitEvent) {... */\n      iszero\n      tag_399\n      jumpi\n        /* \"@openzeppelin/contracts/token/ERC20/ERC20.sol\":10349:10356  spender */\n      dup3\n        /* \"@openzeppelin/contracts/token/ERC20/ERC20.sol\":10333:10364  Approval(owner, spender, value) */\n      0xffffffffffffffffffffffffffffffffffffffff\n      and\n        /* \"@openzeppelin/contracts/token/ERC20/ERC20.sol\":10342:10347  owner */\n      dup5\n        /* \"@openzeppelin/contracts/token/ERC20/ERC20.sol\":10333:10364  Approval(owner, spender, value) */\n      0xffffffffffffffffffffffffffffffffffffffff\n      and\n      0x8c5be1e5ebec7d5bd14f71427d1e84f3dd0314c0f7b2291e5b200ac8c7c3b925\n        /* \"@openzeppelin/contracts/token/ERC20/ERC20.sol\":10358:10363  value */\n      dup5\n        /* \"@openzeppelin/contracts/token/ERC20/ERC20.sol\":10333:10364  Approval(owner, spender, value) */\n      mload(0x40)\n      tag_400\n      swap2\n      swap1\n      tag_67\n      jump\t// in\n    tag_400:\n      mload(0x40)\n      dup1\n      swap2\n      sub\n      swap1\n      log3\n        /* \"@openzeppelin/contracts/token/ERC20/ERC20.sol\":10299:10375  if (emitEvent) {... */\n    tag_399:\n        /* \"@openzeppelin/contracts/token/ERC20/ERC20.sol\":9949:10381  function _approve(address owner, address spender, uint256 value, bool emitEvent) internal virtual {... */\n      pop\n      pop\n      pop\n      pop\n      jump\t// out\n        /* \"@openzeppelin/contracts/token/ERC20/ERC20.sol\":6271:7378  function _update(address from, address to, uint256 value) internal virtual {... */\n    tag_366:\n        /* \"@openzeppelin/contracts/token/ERC20/ERC20.sol\":6376:6377  0 */\n      0x00\n        /* \"@openzeppelin/contracts/token/ERC20/ERC20.sol\":6360:6378  from == address(0) */\n      0xffffffffffffffffffffffffffffffffffffffff\n      and\n        /* \"@openzeppelin/contracts/token/ERC20/ERC20.sol\":6360:6364  from */\n      dup4\n        /* \"@openzeppelin/contracts/token/ERC20/ERC20.sol\":6360:6378  from == address(0) */\n      0xffffffffffffffffffffffffffffffffffffffff\n      and\n      sub\n        /* \"@openzeppelin/contracts/token/ERC20/ERC20.sol\":6356:6896  if (from == address(0)) {... */\n      tag_402\n      jumpi\n        /* \"@openzeppelin/contracts/token/ERC20/ERC20.sol\":6512:6517  value */\n      dup1\n        /* \"@openzeppelin/contracts/token/ERC20/ERC20.sol\":6496:6508  _totalSupply */\n      0x02\n      0x00\n        /* \"@openzeppelin/contracts/token/ERC20/ERC20.sol\":6496:6517  _totalSupply += value */\n      dup3\n      dup3\n      sload\n      tag_403\n      swap2\n      swap1\n      tag_273\n      jump\t// in\n    tag_403:\n      swap3\n      pop\n      pop\n      dup2\n      swap1\n      sstore\n      pop\n        /* \"@openzeppelin/contracts/token/ERC20/ERC20.sol\":6356:6896  if (from == address(0)) {... */\n      jump(tag_404)\n    tag_402:\n        /* \"@openzeppelin/contracts/token/ERC20/ERC20.sol\":6548:6567  uint256 fromBalance */\n      0x00\n        /* \"@openzeppelin/contracts/token/ERC20/ERC20.sol\":6570:6579  _balances */\n      dup1\n        /* \"@openzeppelin/contracts/token/ERC20/ERC20.sol\":6570:6585  _balances[from] */\n      0x00\n        /* \"@openzeppelin/contracts/token/ERC20/ERC20.sol\":6580:6584  from */\n      dup6\n        /* \"@openzeppelin/contracts/token/ERC20/ERC20.sol\":6570:6585  _balances[from] */\n      0xffffffffffffffffffffffffffffffffffffffff\n      and\n      0xffffffffffffffffffffffffffffffffffffffff\n      and\n      dup2\n      mstore\n      0x20\n      add\n      swap1\n      dup2\n      mstore\n      0x20\n      add\n      0x00\n      keccak256\n      sload\n        /* \"@openzeppelin/contracts/token/ERC20/ERC20.sol\":6548:6585  uint256 fromBalance = _balances[from] */\n      swap1\n      pop\n        /* \"@openzeppelin/contracts/token/ERC20/ERC20.sol\":6617:6622  value */\n      dup2\n        /* \"@openzeppelin/contracts/token/ERC20/ERC20.sol\":6603:6614  fromBalance */\n      dup2\n        /* \"@openzeppelin/contracts/token/ERC20/ERC20.sol\":6603:6622  fromBalance < value */\n      lt\n        /* \"@openzeppelin/contracts/token/ERC20/ERC20.sol\":6599:6714  if (fromBalance < value) {... */\n      iszero\n      tag_405\n      jumpi\n        /* \"@openzeppelin/contracts/token/ERC20/ERC20.sol\":6674:6678  from */\n      dup4\n        /* \"@openzeppelin/contracts/token/ERC20/ERC20.sol\":6680:6691  fromBalance */\n      dup2\n        /* \"@openzeppelin/contracts/token/ERC20/ERC20.sol\":6693:6698  value */\n      dup4\n        /* \"@openzeppelin/contracts/token/ERC20/ERC20.sol\":6649:6699  ERC20InsufficientBalance(from, fromBalance, value) */\n      mload(0x40)\n      0xe450d38c00000000000000000000000000000000000000000000000000000000\n      dup2\n      mstore\n      0x04\n      add\n      tag_406\n      swap4\n      swap3\n      swap2\n      swap1\n      tag_358\n      jump\t// in\n    tag_406:\n      mload(0x40)\n      dup1\n      swap2\n      sub\n      swap1\n      revert\n        /* \"@openzeppelin/contracts/token/ERC20/ERC20.sol\":6599:6714  if (fromBalance < value) {... */\n    tag_405:\n        /* \"@openzeppelin/contracts/token/ERC20/ERC20.sol\":6866:6871  value */\n      dup2\n        /* \"@openzeppelin/contracts/token/ERC20/ERC20.sol\":6852:6863  fromBalance */\n      dup2\n        /* \"@openzeppelin/contracts/token/ERC20/ERC20.sol\":6852:6871  fromBalance - value */\n      sub\n        /* \"@openzeppelin/contracts/token/ERC20/ERC20.sol\":6834:6843  _balances */\n      0x00\n        /* \"@openzeppelin/contracts/token/ERC20/ERC20.sol\":6834:6849  _balances[from] */\n      dup1\n        /* \"@openzeppelin/contracts/token/ERC20/ERC20.sol\":6844:6848  from */\n      dup7\n        /* \"@openzeppelin/contracts/token/ERC20/ERC20.sol\":6834:6849  _balances[from] */\n      0xffffffffffffffffffffffffffffffffffffffff\n      and\n      0xffffffffffffffffffffffffffffffffffffffff\n      and\n      dup2\n      mstore\n      0x20\n      add\n      swap1\n      dup2\n      mstore\n      0x20\n      add\n      0x00\n      keccak256\n        /* \"@openzeppelin/contracts/token/ERC20/ERC20.sol\":6834:6871  _balances[from] = fromBalance - value */\n      dup2\n      swap1\n      sstore\n      pop\n        /* \"@openzeppelin/contracts/token/ERC20/ERC20.sol\":6534:6896  {... */\n      pop\n        /* \"@openzeppelin/contracts/token/ERC20/ERC20.sol\":6356:6896  if (from == address(0)) {... */\n    tag_404:\n        /* \"@openzeppelin/contracts/token/ERC20/ERC20.sol\":6924:6925  0 */\n      0x00\n        /* \"@openzeppelin/contracts/token/ERC20/ERC20.sol\":6910:6926  to == address(0) */\n      0xffffffffffffffffffffffffffffffffffffffff\n      and\n        /* \"@openzeppelin/contracts/token/ERC20/ERC20.sol\":6910:6912  to */\n      dup3\n        /* \"@openzeppelin/contracts/token/ERC20/ERC20.sol\":6910:6926  to == address(0) */\n      0xffffffffffffffffffffffffffffffffffffffff\n      and\n      sub\n        /* \"@openzeppelin/contracts/token/ERC20/ERC20.sol\":6906:7331  if (to == address(0)) {... */\n      tag_407\n      jumpi\n        /* \"@openzeppelin/contracts/token/ERC20/ERC20.sol\":7089:7094  value */\n      dup1\n        /* \"@openzeppelin/contracts/token/ERC20/ERC20.sol\":7073:7085  _totalSupply */\n      0x02\n      0x00\n        /* \"@openzeppelin/contracts/token/ERC20/ERC20.sol\":7073:7094  _totalSupply -= value */\n      dup3\n      dup3\n      sload\n      sub\n      swap3\n      pop\n      pop\n      dup2\n      swap1\n      sstore\n      pop\n        /* \"@openzeppelin/contracts/token/ERC20/ERC20.sol\":6906:7331  if (to == address(0)) {... */\n      jump(tag_408)\n    tag_407:\n        /* \"@openzeppelin/contracts/token/ERC20/ERC20.sol\":7301:7306  value */\n      dup1\n        /* \"@openzeppelin/contracts/token/ERC20/ERC20.sol\":7284:7293  _balances */\n      0x00\n        /* \"@openzeppelin/contracts/token/ERC20/ERC20.sol\":7284:7297  _balances[to] */\n      dup1\n        /* \"@openzeppelin/contracts/token/ERC20/ERC20.sol\":7294:7296  to */\n      dup5\n        /* \"@openzeppelin/contracts/token/ERC20/ERC20.sol\":7284:7297  _balances[to] */\n      0xffffffffffffffffffffffffffffffffffffffff\n      and\n      0xffffffffffffffffffffffffffffffffffffffff\n      and\n      dup2\n      mstore\n      0x20\n      add\n      swap1\n      dup2\n      mstore\n      0x20\n      add\n      0x00\n      keccak256\n      0x00\n        /* \"@openzeppelin/contracts/token/ERC20/ERC20.sol\":7284:7306  _balances[to] += value */\n      dup3\n      dup3\n      sload\n      add\n      swap3\n      pop\n      pop\n      dup2\n      swap1\n      sstore\n      pop\n        /* \"@openzeppelin/contracts/token/ERC20/ERC20.sol\":6906:7331  if (to == address(0)) {... */\n    tag_408:\n        /* \"@openzeppelin/contracts/token/ERC20/ERC20.sol\":7361:7363  to */\n      dup2\n        /* \"@openzeppelin/contracts/token/ERC20/ERC20.sol\":7346:7371  Transfer(from, to, value) */\n      0xffffffffffffffffffffffffffffffffffffffff\n      and\n        /* \"@openzeppelin/contracts/token/ERC20/ERC20.sol\":7355:7359  from */\n      dup4\n        /* \"@openzeppelin/contracts/token/ERC20/ERC20.sol\":7346:7371  Transfer(from, to, value) */\n      0xffffffffffffffffffffffffffffffffffffffff\n      and\n      0xddf252ad1be2c89b69c2b068fc378daa952ba7f163c4a11628f55a4df523b3ef\n        /* \"@openzeppelin/contracts/token/ERC20/ERC20.sol\":7365:7370  value */\n      dup4\n        /* \"@openzeppelin/contracts/token/ERC20/ERC20.sol\":7346:7371  Transfer(from, to, value) */\n      mload(0x40)\n      tag_409\n      swap2\n      swap1\n      tag_67\n      jump\t// in\n    tag_409:\n      mload(0x40)\n      dup1\n      swap2\n      sub\n      swap1\n      log3\n        /* \"@openzeppelin/contracts/token/ERC20/ERC20.sol\":6271:7378  function _update(address from, address to, uint256 value) internal virtual {... */\n      pop\n      pop\n      pop\n      jump\t// out\n        /* \"#utility.yul\":7:176   */\n    tag_410:\n        /* \"#utility.yul\":91:102   */\n      0x00\n        /* \"#utility.yul\":125:131   */\n      dup3\n        /* \"#utility.yul\":120:123   */\n      dup3\n        /* \"#utility.yul\":113:132   */\n      mstore\n        /* \"#utility.yul\":165:169   */\n      0x20\n        /* \"#utility.yul\":160:163   */\n      dup3\n        /* \"#utility.yul\":156:170   */\n      add\n        /* \"#utility.yul\":141:170   */\n      swap1\n      pop\n        /* \"#utility.yul\":7:176   */\n      swap3\n      swap2\n      pop\n      pop\n      jump\t// out\n        /* \"#utility.yul\":182:402   */\n    tag_411:\n        /* \"#utility.yul\":322:356   */\n      0x44697265637420455448207472616e7366657273206e6f7420616c6c6f776564\n        /* \"#utility.yul\":318:319   */\n      0x00\n        /* \"#utility.yul\":310:316   */\n      dup3\n        /* \"#utility.yul\":306:320   */\n      add\n        /* \"#utility.yul\":299:357   */\n      mstore\n        /* \"#utility.yul\":391:394   */\n      0x2e00000000000000000000000000000000000000000000000000000000000000\n        /* \"#utility.yul\":386:388   */\n      0x20\n        /* \"#utility.yul\":378:384   */\n      dup3\n        /* \"#utility.yul\":374:389   */\n      add\n        /* \"#utility.yul\":367:395   */\n      mstore\n        /* \"#utility.yul\":182:402   */\n      pop\n      jump\t// out\n        /* \"#utility.yul\":408:774   */\n    tag_412:\n        /* \"#utility.yul\":550:553   */\n      0x00\n        /* \"#utility.yul\":571:638   */\n      tag_468\n        /* \"#utility.yul\":635:637   */\n      0x21\n        /* \"#utility.yul\":630:633   */\n      dup4\n        /* \"#utility.yul\":571:638   */\n      tag_410\n      jump\t// in\n    tag_468:\n        /* \"#utility.yul\":564:638   */\n      swap2\n      pop\n        /* \"#utility.yul\":647:740   */\n      tag_469\n        /* \"#utility.yul\":736:739   */\n      dup3\n        /* \"#utility.yul\":647:740   */\n      tag_411\n      jump\t// in\n    tag_469:\n        /* \"#utility.yul\":765:767   */\n      0x40\n        /* \"#utility.yul\":760:763   */\n      dup3\n        /* \"#utility.yul\":756:768   */\n      add\n        /* \"#utility.yul\":749:768   */\n      swap1\n      pop\n        /* \"#utility.yul\":408:774   */\n      swap2\n      swap1\n      pop\n      jump\t// out\n        /* \"#utility.yul\":780:1199   */\n    tag_47:\n        /* \"#utility.yul\":946:950   */\n      0x00\n        /* \"#utility.yul\":984:986   */\n      0x20\n        /* \"#utility.yul\":973:982   */\n      dup3\n        /* \"#utility.yul\":969:987   */\n      add\n        /* \"#utility.yul\":961:987   */\n      swap1\n      pop\n        /* \"#utility.yul\":1033:1042   */\n      dup2\n        /* \"#utility.yul\":1027:1031   */\n      dup2\n        /* \"#utility.yul\":1023:1043   */\n      sub\n        /* \"#utility.yul\":1019:1020   */\n      0x00\n        /* \"#utility.yul\":1008:1017   */\n      dup4\n        /* \"#utility.yul\":1004:1021   */\n      add\n        /* \"#utility.yul\":997:1044   */\n      mstore\n        /* \"#utility.yul\":1061:1192   */\n      tag_471\n        /* \"#utility.yul\":1187:1191   */\n      dup2\n        /* \"#utility.yul\":1061:1192   */\n      tag_412\n      jump\t// in\n    tag_471:\n        /* \"#utility.yul\":1053:1192   */\n      swap1\n      pop\n        /* \"#utility.yul\":780:1199   */\n      swap2\n      swap1\n      pop\n      jump\t// out\n        /* \"#utility.yul\":1205:1304   */\n    tag_413:\n        /* \"#utility.yul\":1257:1263   */\n      0x00\n        /* \"#utility.yul\":1291:1296   */\n      dup2\n        /* \"#utility.yul\":1285:1297   */\n      mload\n        /* \"#utility.yul\":1275:1297   */\n      swap1\n      pop\n        /* \"#utility.yul\":1205:1304   */\n      swap2\n      swap1\n      pop\n      jump\t// out\n        /* \"#utility.yul\":1310:1449   */\n    tag_414:\n        /* \"#utility.yul\":1399:1405   */\n      dup3\n        /* \"#utility.yul\":1394:1397   */\n      dup2\n        /* \"#utility.yul\":1389:1392   */\n      dup4\n        /* \"#utility.yul\":1383:1406   */\n      mcopy\n        /* \"#utility.yul\":1440:1441   */\n      0x00\n        /* \"#utility.yul\":1431:1437   */\n      dup4\n        /* \"#utility.yul\":1426:1429   */\n      dup4\n        /* \"#utility.yul\":1422:1438   */\n      add\n        /* \"#utility.yul\":1415:1442   */\n      mstore\n        /* \"#utility.yul\":1310:1449   */\n      pop\n      pop\n      pop\n      jump\t// out\n        /* \"#utility.yul\":1455:1557   */\n    tag_415:\n        /* \"#utility.yul\":1496:1502   */\n      0x00\n        /* \"#utility.yul\":1547:1549   */\n      0x1f\n        /* \"#utility.yul\":1543:1550   */\n      not\n        /* \"#utility.yul\":1538:1540   */\n      0x1f\n        /* \"#utility.yul\":1531:1536   */\n      dup4\n        /* \"#utility.yul\":1527:1541   */\n      add\n        /* \"#utility.yul\":1523:1551   */\n      and\n        /* \"#utility.yul\":1513:1551   */\n      swap1\n      pop\n        /* \"#utility.yul\":1455:1557   */\n      swap2\n      swap1\n      pop\n      jump\t// out\n        /* \"#utility.yul\":1563:1940   */\n    tag_416:\n        /* \"#utility.yul\":1651:1654   */\n      0x00\n        /* \"#utility.yul\":1679:1718   */\n      tag_476\n        /* \"#utility.yul\":1712:1717   */\n      dup3\n        /* \"#utility.yul\":1679:1718   */\n      tag_413\n      jump\t// in\n    tag_476:\n        /* \"#utility.yul\":1734:1805   */\n      tag_477\n        /* \"#utility.yul\":1798:1804   */\n      dup2\n        /* \"#utility.yul\":1793:1796   */\n      dup6\n        /* \"#utility.yul\":1734:1805   */\n      tag_410\n      jump\t// in\n    tag_477:\n        /* \"#utility.yul\":1727:1805   */\n      swap4\n      pop\n        /* \"#utility.yul\":1814:1879   */\n      tag_478\n        /* \"#utility.yul\":1872:1878   */\n      dup2\n        /* \"#utility.yul\":1867:1870   */\n      dup6\n        /* \"#utility.yul\":1860:1864   */\n      0x20\n        /* \"#utility.yul\":1853:1858   */\n      dup7\n        /* \"#utility.yul\":1849:1865   */\n      add\n        /* \"#utility.yul\":1814:1879   */\n      tag_414\n      jump\t// in\n    tag_478:\n        /* \"#utility.yul\":1904:1933   */\n      tag_479\n        /* \"#utility.yul\":1926:1932   */\n      dup2\n        /* \"#utility.yul\":1904:1933   */\n      tag_415\n      jump\t// in\n    tag_479:\n        /* \"#utility.yul\":1899:1902   */\n      dup5\n        /* \"#utility.yul\":1895:1934   */\n      add\n        /* \"#utility.yul\":1888:1934   */\n      swap2\n      pop\n        /* \"#utility.yul\":1655:1940   */\n      pop\n        /* \"#utility.yul\":1563:1940   */\n      swap3\n      swap2\n      pop\n      pop\n      jump\t// out\n        /* \"#utility.yul\":1946:2259   */\n    tag_55:\n        /* \"#utility.yul\":2059:2063   */\n      0x00\n        /* \"#utility.yul\":2097:2099   */\n      0x20\n        /* \"#utility.yul\":2086:2095   */\n      dup3\n        /* \"#utility.yul\":2082:2100   */\n      add\n        /* \"#utility.yul\":2074:2100   */\n      swap1\n      pop\n        /* \"#utility.yul\":2146:2155   */\n      dup2\n        /* \"#utility.yul\":2140:2144   */\n      dup2\n        /* \"#utility.yul\":2136:2156   */\n      sub\n        /* \"#utility.yul\":2132:2133   */\n      0x00\n        /* \"#utility.yul\":2121:2130   */\n      dup4\n        /* \"#utility.yul\":2117:2134   */\n      add\n        /* \"#utility.yul\":2110:2157   */\n      mstore\n        /* \"#utility.yul\":2174:2252   */\n      tag_481\n        /* \"#utility.yul\":2247:2251   */\n      dup2\n        /* \"#utility.yul\":2238:2244   */\n      dup5\n        /* \"#utility.yul\":2174:2252   */\n      tag_416\n      jump\t// in\n    tag_481:\n        /* \"#utility.yul\":2166:2252   */\n      swap1\n      pop\n        /* \"#utility.yul\":1946:2259   */\n      swap3\n      swap2\n      pop\n      pop\n      jump\t// out\n        /* \"#utility.yul\":2346:2463   */\n    tag_418:\n        /* \"#utility.yul\":2455:2456   */\n      0x00\n        /* \"#utility.yul\":2452:2453   */\n      dup1\n        /* \"#utility.yul\":2445:2457   */\n      revert\n        /* \"#utility.yul\":2592:2718   */\n    tag_420:\n        /* \"#utility.yul\":2629:2636   */\n      0x00\n        /* \"#utility.yul\":2669:2711   */\n      0xffffffffffffffffffffffffffffffffffffffff\n        /* \"#utility.yul\":2662:2667   */\n      dup3\n        /* \"#utility.yul\":2658:2712   */\n      and\n        /* \"#utility.yul\":2647:2712   */\n      swap1\n      pop\n        /* \"#utility.yul\":2592:2718   */\n      swap2\n      swap1\n      pop\n      jump\t// out\n        /* \"#utility.yul\":2724:2820   */\n    tag_421:\n        /* \"#utility.yul\":2761:2768   */\n      0x00\n        /* \"#utility.yul\":2790:2814   */\n      tag_487\n        /* \"#utility.yul\":2808:2813   */\n      dup3\n        /* \"#utility.yul\":2790:2814   */\n      tag_420\n      jump\t// in\n    tag_487:\n        /* \"#utility.yul\":2779:2814   */\n      swap1\n      pop\n        /* \"#utility.yul\":2724:2820   */\n      swap2\n      swap1\n      pop\n      jump\t// out\n        /* \"#utility.yul\":2826:2948   */\n    tag_422:\n        /* \"#utility.yul\":2899:2923   */\n      tag_489\n        /* \"#utility.yul\":2917:2922   */\n      dup2\n        /* \"#utility.yul\":2899:2923   */\n      tag_421\n      jump\t// in\n    tag_489:\n        /* \"#utility.yul\":2892:2897   */\n      dup2\n        /* \"#utility.yul\":2889:2924   */\n      eq\n        /* \"#utility.yul\":2879:2942   */\n      tag_490\n      jumpi\n        /* \"#utility.yul\":2938:2939   */\n      0x00\n        /* \"#utility.yul\":2935:2936   */\n      dup1\n        /* \"#utility.yul\":2928:2940   */\n      revert\n        /* \"#utility.yul\":2879:2942   */\n    tag_490:\n        /* \"#utility.yul\":2826:2948   */\n      pop\n      jump\t// out\n        /* \"#utility.yul\":2954:3093   */\n    tag_423:\n        /* \"#utility.yul\":3000:3005   */\n      0x00\n        /* \"#utility.yul\":3038:3044   */\n      dup2\n        /* \"#utility.yul\":3025:3045   */\n      calldataload\n        /* \"#utility.yul\":3016:3045   */\n      swap1\n      pop\n        /* \"#utility.yul\":3054:3087   */\n      tag_492\n        /* \"#utility.yul\":3081:3086   */\n      dup2\n        /* \"#utility.yul\":3054:3087   */\n      tag_422\n      jump\t// in\n    tag_492:\n        /* \"#utility.yul\":2954:3093   */\n      swap3\n      swap2\n      pop\n      pop\n      jump\t// out\n        /* \"#utility.yul\":3099:3176   */\n    tag_424:\n        /* \"#utility.yul\":3136:3143   */\n      0x00\n        /* \"#utility.yul\":3165:3170   */\n      dup2\n        /* \"#utility.yul\":3154:3170   */\n      swap1\n      pop\n        /* \"#utility.yul\":3099:3176   */\n      swap2\n      swap1\n      pop\n      jump\t// out\n        /* \"#utility.yul\":3182:3304   */\n    tag_425:\n        /* \"#utility.yul\":3255:3279   */\n      tag_495\n        /* \"#utility.yul\":3273:3278   */\n      dup2\n        /* \"#utility.yul\":3255:3279   */\n      tag_424\n      jump\t// in\n    tag_495:\n        /* \"#utility.yul\":3248:3253   */\n      dup2\n        /* \"#utility.yul\":3245:3280   */\n      eq\n        /* \"#utility.yul\":3235:3298   */\n      tag_496\n      jumpi\n        /* \"#utility.yul\":3294:3295   */\n      0x00\n        /* \"#utility.yul\":3291:3292   */\n      dup1\n        /* \"#utility.yul\":3284:3296   */\n      revert\n        /* \"#utility.yul\":3235:3298   */\n    tag_496:\n        /* \"#utility.yul\":3182:3304   */\n      pop\n      jump\t// out\n        /* \"#utility.yul\":3310:3449   */\n    tag_426:\n        /* \"#utility.yul\":3356:3361   */\n      0x00\n        /* \"#utility.yul\":3394:3400   */\n      dup2\n        /* \"#utility.yul\":3381:3401   */\n      calldataload\n        /* \"#utility.yul\":3372:3401   */\n      swap1\n      pop\n        /* \"#utility.yul\":3410:3443   */\n      tag_498\n        /* \"#utility.yul\":3437:3442   */\n      dup2\n        /* \"#utility.yul\":3410:3443   */\n      tag_425\n      jump\t// in\n    tag_498:\n        /* \"#utility.yul\":3310:3449   */\n      swap3\n      swap2\n      pop\n      pop\n      jump\t// out\n        /* \"#utility.yul\":3455:3929   */\n    tag_59:\n        /* \"#utility.yul\":3523:3529   */\n      0x00\n        /* \"#utility.yul\":3531:3537   */\n      dup1\n        /* \"#utility.yul\":3580:3582   */\n      0x40\n        /* \"#utility.yul\":3568:3577   */\n      dup4\n        /* \"#utility.yul\":3559:3566   */\n      dup6\n        /* \"#utility.yul\":3555:3578   */\n      sub\n        /* \"#utility.yul\":3551:3583   */\n      slt\n        /* \"#utility.yul\":3548:3667   */\n      iszero\n      tag_500\n      jumpi\n        /* \"#utility.yul\":3586:3665   */\n      tag_501\n      tag_418\n      jump\t// in\n    tag_501:\n        /* \"#utility.yul\":3548:3667   */\n    tag_500:\n        /* \"#utility.yul\":3706:3707   */\n      0x00\n        /* \"#utility.yul\":3731:3784   */\n      tag_502\n        /* \"#utility.yul\":3776:3783   */\n      dup6\n        /* \"#utility.yul\":3767:3773   */\n      dup3\n        /* \"#utility.yul\":3756:3765   */\n      dup7\n        /* \"#utility.yul\":3752:3774   */\n      add\n        /* \"#utility.yul\":3731:3784   */\n      tag_423\n      jump\t// in\n    tag_502:\n        /* \"#utility.yul\":3721:3784   */\n      swap3\n      pop\n        /* \"#utility.yul\":3677:3794   */\n      pop\n        /* \"#utility.yul\":3833:3835   */\n      0x20\n        /* \"#utility.yul\":3859:3912   */\n      tag_503\n        /* \"#utility.yul\":3904:3911   */\n      dup6\n        /* \"#utility.yul\":3895:3901   */\n      dup3\n        /* \"#utility.yul\":3884:3893   */\n      dup7\n        /* \"#utility.yul\":3880:3902   */\n      add\n        /* \"#utility.yul\":3859:3912   */\n      tag_426\n      jump\t// in\n    tag_503:\n        /* \"#utility.yul\":3849:3912   */\n      swap2\n      pop\n        /* \"#utility.yul\":3804:3922   */\n      pop\n        /* \"#utility.yul\":3455:3929   */\n      swap3\n      pop\n      swap3\n      swap1\n      pop\n      jump\t// out\n        /* \"#utility.yul\":3935:4025   */\n    tag_427:\n        /* \"#utility.yul\":3969:3976   */\n      0x00\n        /* \"#utility.yul\":4012:4017   */\n      dup2\n        /* \"#utility.yul\":4005:4018   */\n      iszero\n        /* \"#utility.yul\":3998:4019   */\n      iszero\n        /* \"#utility.yul\":3987:4019   */\n      swap1\n      pop\n        /* \"#utility.yul\":3935:4025   */\n      swap2\n      swap1\n      pop\n      jump\t// out\n        /* \"#utility.yul\":4031:4140   */\n    tag_428:\n        /* \"#utility.yul\":4112:4133   */\n      tag_506\n        /* \"#utility.yul\":4127:4132   */\n      dup2\n        /* \"#utility.yul\":4112:4133   */\n      tag_427\n      jump\t// in\n    tag_506:\n        /* \"#utility.yul\":4107:4110   */\n      dup3\n        /* \"#utility.yul\":4100:4134   */\n      mstore\n        /* \"#utility.yul\":4031:4140   */\n      pop\n      pop\n      jump\t// out\n        /* \"#utility.yul\":4146:4356   */\n    tag_62:\n        /* \"#utility.yul\":4233:4237   */\n      0x00\n        /* \"#utility.yul\":4271:4273   */\n      0x20\n        /* \"#utility.yul\":4260:4269   */\n      dup3\n        /* \"#utility.yul\":4256:4274   */\n      add\n        /* \"#utility.yul\":4248:4274   */\n      swap1\n      pop\n        /* \"#utility.yul\":4284:4349   */\n      tag_508\n        /* \"#utility.yul\":4346:4347   */\n      0x00\n        /* \"#utility.yul\":4335:4344   */\n      dup4\n        /* \"#utility.yul\":4331:4348   */\n      add\n        /* \"#utility.yul\":4322:4328   */\n      dup5\n        /* \"#utility.yul\":4284:4349   */\n      tag_428\n      jump\t// in\n    tag_508:\n        /* \"#utility.yul\":4146:4356   */\n      swap3\n      swap2\n      pop\n      pop\n      jump\t// out\n        /* \"#utility.yul\":4362:4480   */\n    tag_429:\n        /* \"#utility.yul\":4449:4473   */\n      tag_510\n        /* \"#utility.yul\":4467:4472   */\n      dup2\n        /* \"#utility.yul\":4449:4473   */\n      tag_424\n      jump\t// in\n    tag_510:\n        /* \"#utility.yul\":4444:4447   */\n      dup3\n        /* \"#utility.yul\":4437:4474   */\n      mstore\n        /* \"#utility.yul\":4362:4480   */\n      pop\n      pop\n      jump\t// out\n        /* \"#utility.yul\":4486:4708   */\n    tag_67:\n        /* \"#utility.yul\":4579:4583   */\n      0x00\n        /* \"#utility.yul\":4617:4619   */\n      0x20\n        /* \"#utility.yul\":4606:4615   */\n      dup3\n        /* \"#utility.yul\":4602:4620   */\n      add\n        /* \"#utility.yul\":4594:4620   */\n      swap1\n      pop\n        /* \"#utility.yul\":4630:4701   */\n      tag_512\n        /* \"#utility.yul\":4698:4699   */\n      0x00\n        /* \"#utility.yul\":4687:4696   */\n      dup4\n        /* \"#utility.yul\":4683:4700   */\n      add\n        /* \"#utility.yul\":4674:4680   */\n      dup5\n        /* \"#utility.yul\":4630:4701   */\n      tag_429\n      jump\t// in\n    tag_512:\n        /* \"#utility.yul\":4486:4708   */\n      swap3\n      swap2\n      pop\n      pop\n      jump\t// out\n        /* \"#utility.yul\":4714:5043   */\n    tag_79:\n        /* \"#utility.yul\":4773:4779   */\n      0x00\n        /* \"#utility.yul\":4822:4824   */\n      0x20\n        /* \"#utility.yul\":4810:4819   */\n      dup3\n        /* \"#utility.yul\":4801:4808   */\n      dup5\n        /* \"#utility.yul\":4797:4820   */\n      sub\n        /* \"#utility.yul\":4793:4825   */\n      slt\n        /* \"#utility.yul\":4790:4909   */\n      iszero\n      tag_514\n      jumpi\n        /* \"#utility.yul\":4828:4907   */\n      tag_515\n      tag_418\n      jump\t// in\n    tag_515:\n        /* \"#utility.yul\":4790:4909   */\n    tag_514:\n        /* \"#utility.yul\":4948:4949   */\n      0x00\n        /* \"#utility.yul\":4973:5026   */\n      tag_516\n        /* \"#utility.yul\":5018:5025   */\n      dup5\n        /* \"#utility.yul\":5009:5015   */\n      dup3\n        /* \"#utility.yul\":4998:5007   */\n      dup6\n        /* \"#utility.yul\":4994:5016   */\n      add\n        /* \"#utility.yul\":4973:5026   */\n      tag_423\n      jump\t// in\n    tag_516:\n        /* \"#utility.yul\":4963:5026   */\n      swap2\n      pop\n        /* \"#utility.yul\":4919:5036   */\n      pop\n        /* \"#utility.yul\":4714:5043   */\n      swap3\n      swap2\n      pop\n      pop\n      jump\t// out\n        /* \"#utility.yul\":5049:5668   */\n    tag_85:\n        /* \"#utility.yul\":5126:5132   */\n      0x00\n        /* \"#utility.yul\":5134:5140   */\n      dup1\n        /* \"#utility.yul\":5142:5148   */\n      0x00\n        /* \"#utility.yul\":5191:5193   */\n      0x60\n        /* \"#utility.yul\":5179:5188   */\n      dup5\n        /* \"#utility.yul\":5170:5177   */\n      dup7\n        /* \"#utility.yul\":5166:5189   */\n      sub\n        /* \"#utility.yul\":5162:5194   */\n      slt\n        /* \"#utility.yul\":5159:5278   */\n      iszero\n      tag_518\n      jumpi\n        /* \"#utility.yul\":5197:5276   */\n      tag_519\n      tag_418\n      jump\t// in\n    tag_519:\n        /* \"#utility.yul\":5159:5278   */\n    tag_518:\n        /* \"#utility.yul\":5317:5318   */\n      0x00\n        /* \"#utility.yul\":5342:5395   */\n      tag_520\n        /* \"#utility.yul\":5387:5394   */\n      dup7\n        /* \"#utility.yul\":5378:5384   */\n      dup3\n        /* \"#utility.yul\":5367:5376   */\n      dup8\n        /* \"#utility.yul\":5363:5385   */\n      add\n        /* \"#utility.yul\":5342:5395   */\n      tag_423\n      jump\t// in\n    tag_520:\n        /* \"#utility.yul\":5332:5395   */\n      swap4\n      pop\n        /* \"#utility.yul\":5288:5405   */\n      pop\n        /* \"#utility.yul\":5444:5446   */\n      0x20\n        /* \"#utility.yul\":5470:5523   */\n      tag_521\n        /* \"#utility.yul\":5515:5522   */\n      dup7\n        /* \"#utility.yul\":5506:5512   */\n      dup3\n        /* \"#utility.yul\":5495:5504   */\n      dup8\n        /* \"#utility.yul\":5491:5513   */\n      add\n        /* \"#utility.yul\":5470:5523   */\n      tag_423\n      jump\t// in\n    tag_521:\n        /* \"#utility.yul\":5460:5523   */\n      swap3\n      pop\n        /* \"#utility.yul\":5415:5533   */\n      pop\n        /* \"#utility.yul\":5572:5574   */\n      0x40\n        /* \"#utility.yul\":5598:5651   */\n      tag_522\n        /* \"#utility.yul\":5643:5650   */\n      dup7\n        /* \"#utility.yul\":5634:5640   */\n      dup3\n        /* \"#utility.yul\":5623:5632   */\n      dup8\n        /* \"#utility.yul\":5619:5641   */\n      add\n        /* \"#utility.yul\":5598:5651   */\n      tag_426\n      jump\t// in\n    tag_522:\n        /* \"#utility.yul\":5588:5651   */\n      swap2\n      pop\n        /* \"#utility.yul\":5543:5661   */\n      pop\n        /* \"#utility.yul\":5049:5668   */\n      swap3\n      pop\n      swap3\n      pop\n      swap3\n      jump\t// out\n        /* \"#utility.yul\":5674:5760   */\n    tag_430:\n        /* \"#utility.yul\":5709:5716   */\n      0x00\n        /* \"#utility.yul\":5749:5753   */\n      0xff\n        /* \"#utility.yul\":5742:5747   */\n      dup3\n        /* \"#utility.yul\":5738:5754   */\n      and\n        /* \"#utility.yul\":5727:5754   */\n      swap1\n      pop\n        /* \"#utility.yul\":5674:5760   */\n      swap2\n      swap1\n      pop\n      jump\t// out\n        /* \"#utility.yul\":5766:5878   */\n    tag_431:\n        /* \"#utility.yul\":5849:5871   */\n      tag_525\n        /* \"#utility.yul\":5865:5870   */\n      dup2\n        /* \"#utility.yul\":5849:5871   */\n      tag_430\n      jump\t// in\n    tag_525:\n        /* \"#utility.yul\":5844:5847   */\n      dup3\n        /* \"#utility.yul\":5837:5872   */\n      mstore\n        /* \"#utility.yul\":5766:5878   */\n      pop\n      pop\n      jump\t// out\n        /* \"#utility.yul\":5884:6098   */\n    tag_100:\n        /* \"#utility.yul\":5973:5977   */\n      0x00\n        /* \"#utility.yul\":6011:6013   */\n      0x20\n        /* \"#utility.yul\":6000:6009   */\n      dup3\n        /* \"#utility.yul\":5996:6014   */\n      add\n        /* \"#utility.yul\":5988:6014   */\n      swap1\n      pop\n        /* \"#utility.yul\":6024:6091   */\n      tag_527\n        /* \"#utility.yul\":6088:6089   */\n      0x00\n        /* \"#utility.yul\":6077:6086   */\n      dup4\n        /* \"#utility.yul\":6073:6090   */\n      add\n        /* \"#utility.yul\":6064:6070   */\n      dup5\n        /* \"#utility.yul\":6024:6091   */\n      tag_431\n      jump\t// in\n    tag_527:\n        /* \"#utility.yul\":5884:6098   */\n      swap3\n      swap2\n      pop\n      pop\n      jump\t// out\n        /* \"#utility.yul\":6104:6433   */\n    tag_109:\n        /* \"#utility.yul\":6163:6169   */\n      0x00\n        /* \"#utility.yul\":6212:6214   */\n      0x20\n        /* \"#utility.yul\":6200:6209   */\n      dup3\n        /* \"#utility.yul\":6191:6198   */\n      dup5\n        /* \"#utility.yul\":6187:6210   */\n      sub\n        /* \"#utility.yul\":6183:6215   */\n      slt\n        /* \"#utility.yul\":6180:6299   */\n      iszero\n      tag_529\n      jumpi\n        /* \"#utility.yul\":6218:6297   */\n      tag_530\n      tag_418\n      jump\t// in\n    tag_530:\n        /* \"#utility.yul\":6180:6299   */\n    tag_529:\n        /* \"#utility.yul\":6338:6339   */\n      0x00\n        /* \"#utility.yul\":6363:6416   */\n      tag_531\n        /* \"#utility.yul\":6408:6415   */\n      dup5\n        /* \"#utility.yul\":6399:6405   */\n      dup3\n        /* \"#utility.yul\":6388:6397   */\n      dup6\n        /* \"#utility.yul\":6384:6406   */\n      add\n        /* \"#utility.yul\":6363:6416   */\n      tag_426\n      jump\t// in\n    tag_531:\n        /* \"#utility.yul\":6353:6416   */\n      swap2\n      pop\n        /* \"#utility.yul\":6309:6426   */\n      pop\n        /* \"#utility.yul\":6104:6433   */\n      swap3\n      swap2\n      pop\n      pop\n      jump\t// out\n        /* \"#utility.yul\":6439:6557   */\n    tag_432:\n        /* \"#utility.yul\":6526:6550   */\n      tag_533\n        /* \"#utility.yul\":6544:6549   */\n      dup2\n        /* \"#utility.yul\":6526:6550   */\n      tag_421\n      jump\t// in\n    tag_533:\n        /* \"#utility.yul\":6521:6524   */\n      dup3\n        /* \"#utility.yul\":6514:6551   */\n      mstore\n        /* \"#utility.yul\":6439:6557   */\n      pop\n      pop\n      jump\t// out\n        /* \"#utility.yul\":6563:6785   */\n    tag_137:\n        /* \"#utility.yul\":6656:6660   */\n      0x00\n        /* \"#utility.yul\":6694:6696   */\n      0x20\n        /* \"#utility.yul\":6683:6692   */\n      dup3\n        /* \"#utility.yul\":6679:6697   */\n      add\n        /* \"#utility.yul\":6671:6697   */\n      swap1\n      pop\n        /* \"#utility.yul\":6707:6778   */\n      tag_535\n        /* \"#utility.yul\":6775:6776   */\n      0x00\n        /* \"#utility.yul\":6764:6773   */\n      dup4\n        /* \"#utility.yul\":6760:6777   */\n      add\n        /* \"#utility.yul\":6751:6757   */\n      dup5\n        /* \"#utility.yul\":6707:6778   */\n      tag_432\n      jump\t// in\n    tag_535:\n        /* \"#utility.yul\":6563:6785   */\n      swap3\n      swap2\n      pop\n      pop\n      jump\t// out\n        /* \"#utility.yul\":6791:6971   */\n    tag_239:\n        /* \"#utility.yul\":6839:6916   */\n      0x4e487b7100000000000000000000000000000000000000000000000000000000\n        /* \"#utility.yul\":6836:6837   */\n      0x00\n        /* \"#utility.yul\":6829:6917   */\n      mstore\n        /* \"#utility.yul\":6936:6940   */\n      0x21\n        /* \"#utility.yul\":6933:6934   */\n      0x04\n        /* \"#utility.yul\":6926:6941   */\n      mstore\n        /* \"#utility.yul\":6960:6964   */\n      0x24\n        /* \"#utility.yul\":6957:6958   */\n      0x00\n        /* \"#utility.yul\":6950:6965   */\n      revert\n        /* \"#utility.yul\":6977:7096   */\n    tag_433:\n        /* \"#utility.yul\":7064:7065   */\n      0x03\n        /* \"#utility.yul\":7057:7062   */\n      dup2\n        /* \"#utility.yul\":7054:7066   */\n      lt\n        /* \"#utility.yul\":7044:7090   */\n      tag_538\n      jumpi\n        /* \"#utility.yul\":7070:7088   */\n      tag_539\n      tag_239\n      jump\t// in\n    tag_539:\n        /* \"#utility.yul\":7044:7090   */\n    tag_538:\n        /* \"#utility.yul\":6977:7096   */\n      pop\n      jump\t// out\n        /* \"#utility.yul\":7102:7241   */\n    tag_434:\n        /* \"#utility.yul\":7153:7160   */\n      0x00\n        /* \"#utility.yul\":7182:7187   */\n      dup2\n        /* \"#utility.yul\":7171:7187   */\n      swap1\n      pop\n        /* \"#utility.yul\":7188:7235   */\n      tag_541\n        /* \"#utility.yul\":7229:7234   */\n      dup3\n        /* \"#utility.yul\":7188:7235   */\n      tag_433\n      jump\t// in\n    tag_541:\n        /* \"#utility.yul\":7102:7241   */\n      swap2\n      swap1\n      pop\n      jump\t// out\n        /* \"#utility.yul\":7247:7386   */\n    tag_435:\n        /* \"#utility.yul\":7309:7318   */\n      0x00\n        /* \"#utility.yul\":7342:7380   */\n      tag_543\n        /* \"#utility.yul\":7374:7379   */\n      dup3\n        /* \"#utility.yul\":7342:7380   */\n      tag_434\n      jump\t// in\n    tag_543:\n        /* \"#utility.yul\":7329:7380   */\n      swap1\n      pop\n        /* \"#utility.yul\":7247:7386   */\n      swap2\n      swap1\n      pop\n      jump\t// out\n        /* \"#utility.yul\":7392:7547   */\n    tag_436:\n        /* \"#utility.yul\":7491:7540   */\n      tag_545\n        /* \"#utility.yul\":7534:7539   */\n      dup2\n        /* \"#utility.yul\":7491:7540   */\n      tag_435\n      jump\t// in\n    tag_545:\n        /* \"#utility.yul\":7486:7489   */\n      dup3\n        /* \"#utility.yul\":7479:7541   */\n      mstore\n        /* \"#utility.yul\":7392:7547   */\n      pop\n      pop\n      jump\t// out\n        /* \"#utility.yul\":7553:7799   */\n    tag_179:\n        /* \"#utility.yul\":7658:7662   */\n      0x00\n        /* \"#utility.yul\":7696:7698   */\n      0x20\n        /* \"#utility.yul\":7685:7694   */\n      dup3\n        /* \"#utility.yul\":7681:7699   */\n      add\n        /* \"#utility.yul\":7673:7699   */\n      swap1\n      pop\n        /* \"#utility.yul\":7709:7792   */\n      tag_547\n        /* \"#utility.yul\":7789:7790   */\n      0x00\n        /* \"#utility.yul\":7778:7787   */\n      dup4\n        /* \"#utility.yul\":7774:7791   */\n      add\n        /* \"#utility.yul\":7765:7771   */\n      dup5\n        /* \"#utility.yul\":7709:7792   */\n      tag_436\n      jump\t// in\n    tag_547:\n        /* \"#utility.yul\":7553:7799   */\n      swap3\n      swap2\n      pop\n      pop\n      jump\t// out\n        /* \"#utility.yul\":7805:8279   */\n    tag_187:\n        /* \"#utility.yul\":7873:7879   */\n      0x00\n        /* \"#utility.yul\":7881:7887   */\n      dup1\n        /* \"#utility.yul\":7930:7932   */\n      0x40\n        /* \"#utility.yul\":7918:7927   */\n      dup4\n        /* \"#utility.yul\":7909:7916   */\n      dup6\n        /* \"#utility.yul\":7905:7928   */\n      sub\n        /* \"#utility.yul\":7901:7933   */\n      slt\n        /* \"#utility.yul\":7898:8017   */\n      iszero\n      tag_549\n      jumpi\n        /* \"#utility.yul\":7936:8015   */\n      tag_550\n      tag_418\n      jump\t// in\n    tag_550:\n        /* \"#utility.yul\":7898:8017   */\n    tag_549:\n        /* \"#utility.yul\":8056:8057   */\n      0x00\n        /* \"#utility.yul\":8081:8134   */\n      tag_551\n        /* \"#utility.yul\":8126:8133   */\n      dup6\n        /* \"#utility.yul\":8117:8123   */\n      dup3\n        /* \"#utility.yul\":8106:8115   */\n      dup7\n        /* \"#utility.yul\":8102:8124   */\n      add\n        /* \"#utility.yul\":8081:8134   */\n      tag_423\n      jump\t// in\n    tag_551:\n        /* \"#utility.yul\":8071:8134   */\n      swap3\n      pop\n        /* \"#utility.yul\":8027:8144   */\n      pop\n        /* \"#utility.yul\":8183:8185   */\n      0x20\n        /* \"#utility.yul\":8209:8262   */\n      tag_552\n        /* \"#utility.yul\":8254:8261   */\n      dup6\n        /* \"#utility.yul\":8245:8251   */\n      dup3\n        /* \"#utility.yul\":8234:8243   */\n      dup7\n        /* \"#utility.yul\":8230:8252   */\n      add\n        /* \"#utility.yul\":8209:8262   */\n      tag_423\n      jump\t// in\n    tag_552:\n        /* \"#utility.yul\":8199:8262   */\n      swap2\n      pop\n        /* \"#utility.yul\":8154:8272   */\n      pop\n        /* \"#utility.yul\":7805:8279   */\n      swap3\n      pop\n      swap3\n      swap1\n      pop\n      jump\t// out\n        /* \"#utility.yul\":8285:8465   */\n    tag_437:\n        /* \"#utility.yul\":8333:8410   */\n      0x4e487b7100000000000000000000000000000000000000000000000000000000\n        /* \"#utility.yul\":8330:8331   */\n      0x00\n        /* \"#utility.yul\":8323:8411   */\n      mstore\n        /* \"#utility.yul\":8430:8434   */\n      0x22\n        /* \"#utility.yul\":8427:8428   */\n      0x04\n        /* \"#utility.yul\":8420:8435   */\n      mstore\n        /* \"#utility.yul\":8454:8458   */\n      0x24\n        /* \"#utility.yul\":8451:8452   */\n      0x00\n        /* \"#utility.yul\":8444:8459   */\n      revert\n        /* \"#utility.yul\":8471:8791   */\n    tag_200:\n        /* \"#utility.yul\":8515:8521   */\n      0x00\n        /* \"#utility.yul\":8552:8553   */\n      0x02\n        /* \"#utility.yul\":8546:8550   */\n      dup3\n        /* \"#utility.yul\":8542:8554   */\n      div\n        /* \"#utility.yul\":8532:8554   */\n      swap1\n      pop\n        /* \"#utility.yul\":8599:8600   */\n      0x01\n        /* \"#utility.yul\":8593:8597   */\n      dup3\n        /* \"#utility.yul\":8589:8601   */\n      and\n        /* \"#utility.yul\":8620:8638   */\n      dup1\n        /* \"#utility.yul\":8610:8691   */\n      tag_555\n      jumpi\n        /* \"#utility.yul\":8676:8680   */\n      0x7f\n        /* \"#utility.yul\":8668:8674   */\n      dup3\n        /* \"#utility.yul\":8664:8681   */\n      and\n        /* \"#utility.yul\":8654:8681   */\n      swap2\n      pop\n        /* \"#utility.yul\":8610:8691   */\n    tag_555:\n        /* \"#utility.yul\":8738:8740   */\n      0x20\n        /* \"#utility.yul\":8730:8736   */\n      dup3\n        /* \"#utility.yul\":8727:8741   */\n      lt\n        /* \"#utility.yul\":8707:8725   */\n      dup2\n        /* \"#utility.yul\":8704:8742   */\n      sub\n        /* \"#utility.yul\":8701:8785   */\n      tag_556\n      jumpi\n        /* \"#utility.yul\":8757:8775   */\n      tag_557\n      tag_437\n      jump\t// in\n    tag_557:\n        /* \"#utility.yul\":8701:8785   */\n    tag_556:\n        /* \"#utility.yul\":8522:8791   */\n      pop\n        /* \"#utility.yul\":8471:8791   */\n      swap2\n      swap1\n      pop\n      jump\t// out\n        /* \"#utility.yul\":8797:8973   */\n    tag_438:\n        /* \"#utility.yul\":8937:8965   */\n      0x53616c65732074617267657473206e6f7420796574206d65742e000000000000\n        /* \"#utility.yul\":8933:8934   */\n      0x00\n        /* \"#utility.yul\":8925:8931   */\n      dup3\n        /* \"#utility.yul\":8921:8935   */\n      add\n        /* \"#utility.yul\":8914:8966   */\n      mstore\n        /* \"#utility.yul\":8797:8973   */\n      pop\n      jump\t// out\n        /* \"#utility.yul\":8979:9345   */\n    tag_439:\n        /* \"#utility.yul\":9121:9124   */\n      0x00\n        /* \"#utility.yul\":9142:9209   */\n      tag_560\n        /* \"#utility.yul\":9206:9208   */\n      0x1a\n        /* \"#utility.yul\":9201:9204   */\n      dup4\n        /* \"#utility.yul\":9142:9209   */\n      tag_410\n      jump\t// in\n    tag_560:\n        /* \"#utility.yul\":9135:9209   */\n      swap2\n      pop\n        /* \"#utility.yul\":9218:9311   */\n      tag_561\n        /* \"#utility.yul\":9307:9310   */\n      dup3\n        /* \"#utility.yul\":9218:9311   */\n      tag_438\n      jump\t// in\n    tag_561:\n        /* \"#utility.yul\":9336:9338   */\n      0x20\n        /* \"#utility.yul\":9331:9334   */\n      dup3\n        /* \"#utility.yul\":9327:9339   */\n      add\n        /* \"#utility.yul\":9320:9339   */\n      swap1\n      pop\n        /* \"#utility.yul\":8979:9345   */\n      swap2\n      swap1\n      pop\n      jump\t// out\n        /* \"#utility.yul\":9351:9770   */\n    tag_236:\n        /* \"#utility.yul\":9517:9521   */\n      0x00\n        /* \"#utility.yul\":9555:9557   */\n      0x20\n        /* \"#utility.yul\":9544:9553   */\n      dup3\n        /* \"#utility.yul\":9540:9558   */\n      add\n        /* \"#utility.yul\":9532:9558   */\n      swap1\n      pop\n        /* \"#utility.yul\":9604:9613   */\n      dup2\n        /* \"#utility.yul\":9598:9602   */\n      dup2\n        /* \"#utility.yul\":9594:9614   */\n      sub\n        /* \"#utility.yul\":9590:9591   */\n      0x00\n        /* \"#utility.yul\":9579:9588   */\n      dup4\n        /* \"#utility.yul\":9575:9592   */\n      add\n        /* \"#utility.yul\":9568:9615   */\n      mstore\n        /* \"#utility.yul\":9632:9763   */\n      tag_563\n        /* \"#utility.yul\":9758:9762   */\n      dup2\n        /* \"#utility.yul\":9632:9763   */\n      tag_439\n      jump\t// in\n    tag_563:\n        /* \"#utility.yul\":9624:9763   */\n      swap1\n      pop\n        /* \"#utility.yul\":9351:9770   */\n      swap2\n      swap1\n      pop\n      jump\t// out\n        /* \"#utility.yul\":9776:10009   */\n    tag_440:\n        /* \"#utility.yul\":9916:9950   */\n      0x507269766174652053616c652068617320616c72656164792073746172746564\n        /* \"#utility.yul\":9912:9913   */\n      0x00\n        /* \"#utility.yul\":9904:9910   */\n      dup3\n        /* \"#utility.yul\":9900:9914   */\n      add\n        /* \"#utility.yul\":9893:9951   */\n      mstore\n        /* \"#utility.yul\":9985:10001   */\n      0x206f7220636f6e636c756465642e000000000000000000000000000000000000\n        /* \"#utility.yul\":9980:9982   */\n      0x20\n        /* \"#utility.yul\":9972:9978   */\n      dup3\n        /* \"#utility.yul\":9968:9983   */\n      add\n        /* \"#utility.yul\":9961:10002   */\n      mstore\n        /* \"#utility.yul\":9776:10009   */\n      pop\n      jump\t// out\n        /* \"#utility.yul\":10015:10381   */\n    tag_441:\n        /* \"#utility.yul\":10157:10160   */\n      0x00\n        /* \"#utility.yul\":10178:10245   */\n      tag_566\n        /* \"#utility.yul\":10242:10244   */\n      0x2e\n        /* \"#utility.yul\":10237:10240   */\n      dup4\n        /* \"#utility.yul\":10178:10245   */\n      tag_410\n      jump\t// in\n    tag_566:\n        /* \"#utility.yul\":10171:10245   */\n      swap2\n      pop\n        /* \"#utility.yul\":10254:10347   */\n      tag_567\n        /* \"#utility.yul\":10343:10346   */\n      dup3\n        /* \"#utility.yul\":10254:10347   */\n      tag_440\n      jump\t// in\n    tag_567:\n        /* \"#utility.yul\":10372:10374   */\n      0x40\n        /* \"#utility.yul\":10367:10370   */\n      dup3\n        /* \"#utility.yul\":10363:10375   */\n      add\n        /* \"#utility.yul\":10356:10375   */\n      swap1\n      pop\n        /* \"#utility.yul\":10015:10381   */\n      swap2\n      swap1\n      pop\n      jump\t// out\n        /* \"#utility.yul\":10387:10806   */\n    tag_249:\n        /* \"#utility.yul\":10553:10557   */\n      0x00\n        /* \"#utility.yul\":10591:10593   */\n      0x20\n        /* \"#utility.yul\":10580:10589   */\n      dup3\n        /* \"#utility.yul\":10576:10594   */\n      add\n        /* \"#utility.yul\":10568:10594   */\n      swap1\n      pop\n        /* \"#utility.yul\":10640:10649   */\n      dup2\n        /* \"#utility.yul\":10634:10638   */\n      dup2\n        /* \"#utility.yul\":10630:10650   */\n      sub\n        /* \"#utility.yul\":10626:10627   */\n      0x00\n        /* \"#utility.yul\":10615:10624   */\n      dup4\n        /* \"#utility.yul\":10611:10628   */\n      add\n        /* \"#utility.yul\":10604:10651   */\n      mstore\n        /* \"#utility.yul\":10668:10799   */\n      tag_569\n        /* \"#utility.yul\":10794:10798   */\n      dup2\n        /* \"#utility.yul\":10668:10799   */\n      tag_441\n      jump\t// in\n    tag_569:\n        /* \"#utility.yul\":10660:10799   */\n      swap1\n      pop\n        /* \"#utility.yul\":10387:10806   */\n      swap2\n      swap1\n      pop\n      jump\t// out\n        /* \"#utility.yul\":10812:10980   */\n    tag_442:\n        /* \"#utility.yul\":10952:10972   */\n      0x4e6f2073616c65206973206163746976652e0000000000000000000000000000\n        /* \"#utility.yul\":10948:10949   */\n      0x00\n        /* \"#utility.yul\":10940:10946   */\n      dup3\n        /* \"#utility.yul\":10936:10950   */\n      add\n        /* \"#utility.yul\":10929:10973   */\n      mstore\n        /* \"#utility.yul\":10812:10980   */\n      pop\n      jump\t// out\n        /* \"#utility.yul\":10986:11352   */\n    tag_443:\n        /* \"#utility.yul\":11128:11131   */\n      0x00\n        /* \"#utility.yul\":11149:11216   */\n      tag_572\n        /* \"#utility.yul\":11213:11215   */\n      0x12\n        /* \"#utility.yul\":11208:11211   */\n      dup4\n        /* \"#utility.yul\":11149:11216   */\n      tag_410\n      jump\t// in\n    tag_572:\n        /* \"#utility.yul\":11142:11216   */\n      swap2\n      pop\n        /* \"#utility.yul\":11225:11318   */\n      tag_573\n        /* \"#utility.yul\":11314:11317   */\n      dup3\n        /* \"#utility.yul\":11225:11318   */\n      tag_442\n      jump\t// in\n    tag_573:\n        /* \"#utility.yul\":11343:11345   */\n      0x20\n        /* \"#utility.yul\":11338:11341   */\n      dup3\n        /* \"#utility.yul\":11334:11346   */\n      add\n        /* \"#utility.yul\":11327:11346   */\n      swap1\n      pop\n        /* \"#utility.yul\":10986:11352   */\n      swap2\n      swap1\n      pop\n      jump\t// out\n        /* \"#utility.yul\":11358:11777   */\n    tag_261:\n        /* \"#utility.yul\":11524:11528   */\n      0x00\n        /* \"#utility.yul\":11562:11564   */\n      0x20\n        /* \"#utility.yul\":11551:11560   */\n      dup3\n        /* \"#utility.yul\":11547:11565   */\n      add\n        /* \"#utility.yul\":11539:11565   */\n      swap1\n      pop\n        /* \"#utility.yul\":11611:11620   */\n      dup2\n        /* \"#utility.yul\":11605:11609   */\n      dup2\n        /* \"#utility.yul\":11601:11621   */\n      sub\n        /* \"#utility.yul\":11597:11598   */\n      0x00\n        /* \"#utility.yul\":11586:11595   */\n      dup4\n        /* \"#utility.yul\":11582:11599   */\n      add\n        /* \"#utility.yul\":11575:11622   */\n      mstore\n        /* \"#utility.yul\":11639:11770   */\n      tag_575\n        /* \"#utility.yul\":11765:11769   */\n      dup2\n        /* \"#utility.yul\":11639:11770   */\n      tag_443\n      jump\t// in\n    tag_575:\n        /* \"#utility.yul\":11631:11770   */\n      swap1\n      pop\n        /* \"#utility.yul\":11358:11777   */\n      swap2\n      swap1\n      pop\n      jump\t// out\n        /* \"#utility.yul\":11783:11955   */\n    tag_444:\n        /* \"#utility.yul\":11923:11947   */\n      0x507269766174652053616c6520736f6c64206f75742e00000000000000000000\n        /* \"#utility.yul\":11919:11920   */\n      0x00\n        /* \"#utility.yul\":11911:11917   */\n      dup3\n        /* \"#utility.yul\":11907:11921   */\n      add\n        /* \"#utility.yul\":11900:11948   */\n      mstore\n        /* \"#utility.yul\":11783:11955   */\n      pop\n      jump\t// out\n        /* \"#utility.yul\":11961:12327   */\n    tag_445:\n        /* \"#utility.yul\":12103:12106   */\n      0x00\n        /* \"#utility.yul\":12124:12191   */\n      tag_578\n        /* \"#utility.yul\":12188:12190   */\n      0x16\n        /* \"#utility.yul\":12183:12186   */\n      dup4\n        /* \"#utility.yul\":12124:12191   */\n      tag_410\n      jump\t// in\n    tag_578:\n        /* \"#utility.yul\":12117:12191   */\n      swap2\n      pop\n        /* \"#utility.yul\":12200:12293   */\n      tag_579\n        /* \"#utility.yul\":12289:12292   */\n      dup3\n        /* \"#utility.yul\":12200:12293   */\n      tag_444\n      jump\t// in\n    tag_579:\n        /* \"#utility.yul\":12318:12320   */\n      0x20\n        /* \"#utility.yul\":12313:12316   */\n      dup3\n        /* \"#utility.yul\":12309:12321   */\n      add\n        /* \"#utility.yul\":12302:12321   */\n      swap1\n      pop\n        /* \"#utility.yul\":11961:12327   */\n      swap2\n      swap1\n      pop\n      jump\t// out\n        /* \"#utility.yul\":12333:12752   */\n    tag_269:\n        /* \"#utility.yul\":12499:12503   */\n      0x00\n        /* \"#utility.yul\":12537:12539   */\n      0x20\n        /* \"#utility.yul\":12526:12535   */\n      dup3\n        /* \"#utility.yul\":12522:12540   */\n      add\n        /* \"#utility.yul\":12514:12540   */\n      swap1\n      pop\n        /* \"#utility.yul\":12586:12595   */\n      dup2\n        /* \"#utility.yul\":12580:12584   */\n      dup2\n        /* \"#utility.yul\":12576:12596   */\n      sub\n        /* \"#utility.yul\":12572:12573   */\n      0x00\n        /* \"#utility.yul\":12561:12570   */\n      dup4\n        /* \"#utility.yul\":12557:12574   */\n      add\n        /* \"#utility.yul\":12550:12597   */\n      mstore\n        /* \"#utility.yul\":12614:12745   */\n      tag_581\n        /* \"#utility.yul\":12740:12744   */\n      dup2\n        /* \"#utility.yul\":12614:12745   */\n      tag_445\n      jump\t// in\n    tag_581:\n        /* \"#utility.yul\":12606:12745   */\n      swap1\n      pop\n        /* \"#utility.yul\":12333:12752   */\n      swap2\n      swap1\n      pop\n      jump\t// out\n        /* \"#utility.yul\":12758:12938   */\n    tag_446:\n        /* \"#utility.yul\":12806:12883   */\n      0x4e487b7100000000000000000000000000000000000000000000000000000000\n        /* \"#utility.yul\":12803:12804   */\n      0x00\n        /* \"#utility.yul\":12796:12884   */\n      mstore\n        /* \"#utility.yul\":12903:12907   */\n      0x11\n        /* \"#utility.yul\":12900:12901   */\n      0x04\n        /* \"#utility.yul\":12893:12908   */\n      mstore\n        /* \"#utility.yul\":12927:12931   */\n      0x24\n        /* \"#utility.yul\":12924:12925   */\n      0x00\n        /* \"#utility.yul\":12917:12932   */\n      revert\n        /* \"#utility.yul\":12944:13135   */\n    tag_273:\n        /* \"#utility.yul\":12984:12987   */\n      0x00\n        /* \"#utility.yul\":13003:13023   */\n      tag_584\n        /* \"#utility.yul\":13021:13022   */\n      dup3\n        /* \"#utility.yul\":13003:13023   */\n      tag_424\n      jump\t// in\n    tag_584:\n        /* \"#utility.yul\":12998:13023   */\n      swap2\n      pop\n        /* \"#utility.yul\":13037:13057   */\n      tag_585\n        /* \"#utility.yul\":13055:13056   */\n      dup4\n        /* \"#utility.yul\":13037:13057   */\n      tag_424\n      jump\t// in\n    tag_585:\n        /* \"#utility.yul\":13032:13057   */\n      swap3\n      pop\n        /* \"#utility.yul\":13080:13081   */\n      dup3\n        /* \"#utility.yul\":13077:13078   */\n      dup3\n        /* \"#utility.yul\":13073:13082   */\n      add\n        /* \"#utility.yul\":13066:13082   */\n      swap1\n      pop\n        /* \"#utility.yul\":13101:13104   */\n      dup1\n        /* \"#utility.yul\":13098:13099   */\n      dup3\n        /* \"#utility.yul\":13095:13105   */\n      gt\n        /* \"#utility.yul\":13092:13128   */\n      iszero\n      tag_586\n      jumpi\n        /* \"#utility.yul\":13108:13126   */\n      tag_587\n      tag_446\n      jump\t// in\n    tag_587:\n        /* \"#utility.yul\":13092:13128   */\n    tag_586:\n        /* \"#utility.yul\":12944:13135   */\n      swap3\n      swap2\n      pop\n      pop\n      jump\t// out\n        /* \"#utility.yul\":13141:13361   */\n    tag_447:\n        /* \"#utility.yul\":13281:13315   */\n      0x4578636565647320507269766174652053616c6520746f6b656e206c696d6974\n        /* \"#utility.yul\":13277:13278   */\n      0x00\n        /* \"#utility.yul\":13269:13275   */\n      dup3\n        /* \"#utility.yul\":13265:13279   */\n      add\n        /* \"#utility.yul\":13258:13316   */\n      mstore\n        /* \"#utility.yul\":13350:13353   */\n      0x2e00000000000000000000000000000000000000000000000000000000000000\n        /* \"#utility.yul\":13345:13347   */\n      0x20\n        /* \"#utility.yul\":13337:13343   */\n      dup3\n        /* \"#utility.yul\":13333:13348   */\n      add\n        /* \"#utility.yul\":13326:13354   */\n      mstore\n        /* \"#utility.yul\":13141:13361   */\n      pop\n      jump\t// out\n        /* \"#utility.yul\":13367:13733   */\n    tag_448:\n        /* \"#utility.yul\":13509:13512   */\n      0x00\n        /* \"#utility.yul\":13530:13597   */\n      tag_590\n        /* \"#utility.yul\":13594:13596   */\n      0x21\n        /* \"#utility.yul\":13589:13592   */\n      dup4\n        /* \"#utility.yul\":13530:13597   */\n      tag_410\n      jump\t// in\n    tag_590:\n        /* \"#utility.yul\":13523:13597   */\n      swap2\n      pop\n        /* \"#utility.yul\":13606:13699   */\n      tag_591\n        /* \"#utility.yul\":13695:13698   */\n      dup3\n        /* \"#utility.yul\":13606:13699   */\n      tag_447\n      jump\t// in\n    tag_591:\n        /* \"#utility.yul\":13724:13726   */\n      0x40\n        /* \"#utility.yul\":13719:13722   */\n      dup3\n        /* \"#utility.yul\":13715:13727   */\n      add\n        /* \"#utility.yul\":13708:13727   */\n      swap1\n      pop\n        /* \"#utility.yul\":13367:13733   */\n      swap2\n      swap1\n      pop\n      jump\t// out\n        /* \"#utility.yul\":13739:14158   */\n    tag_276:\n        /* \"#utility.yul\":13905:13909   */\n      0x00\n        /* \"#utility.yul\":13943:13945   */\n      0x20\n        /* \"#utility.yul\":13932:13941   */\n      dup3\n        /* \"#utility.yul\":13928:13946   */\n      add\n        /* \"#utility.yul\":13920:13946   */\n      swap1\n      pop\n        /* \"#utility.yul\":13992:14001   */\n      dup2\n        /* \"#utility.yul\":13986:13990   */\n      dup2\n        /* \"#utility.yul\":13982:14002   */\n      sub\n        /* \"#utility.yul\":13978:13979   */\n      0x00\n        /* \"#utility.yul\":13967:13976   */\n      dup4\n        /* \"#utility.yul\":13963:13980   */\n      add\n        /* \"#utility.yul\":13956:14003   */\n      mstore\n        /* \"#utility.yul\":14020:14151   */\n      tag_593\n        /* \"#utility.yul\":14146:14150   */\n      dup2\n        /* \"#utility.yul\":14020:14151   */\n      tag_448\n      jump\t// in\n    tag_593:\n        /* \"#utility.yul\":14012:14151   */\n      swap1\n      pop\n        /* \"#utility.yul\":13739:14158   */\n      swap2\n      swap1\n      pop\n      jump\t// out\n        /* \"#utility.yul\":14164:14332   */\n    tag_449:\n        /* \"#utility.yul\":14304:14324   */\n      0x5072652d53616c6520736f6c64206f75742e0000000000000000000000000000\n        /* \"#utility.yul\":14300:14301   */\n      0x00\n        /* \"#utility.yul\":14292:14298   */\n      dup3\n        /* \"#utility.yul\":14288:14302   */\n      add\n        /* \"#utility.yul\":14281:14325   */\n      mstore\n        /* \"#utility.yul\":14164:14332   */\n      pop\n      jump\t// out\n        /* \"#utility.yul\":14338:14704   */\n    tag_450:\n        /* \"#utility.yul\":14480:14483   */\n      0x00\n        /* \"#utility.yul\":14501:14568   */\n      tag_596\n        /* \"#utility.yul\":14565:14567   */\n      0x12\n        /* \"#utility.yul\":14560:14563   */\n      dup4\n        /* \"#utility.yul\":14501:14568   */\n      tag_410\n      jump\t// in\n    tag_596:\n        /* \"#utility.yul\":14494:14568   */\n      swap2\n      pop\n        /* \"#utility.yul\":14577:14670   */\n      tag_597\n        /* \"#utility.yul\":14666:14669   */\n      dup3\n        /* \"#utility.yul\":14577:14670   */\n      tag_449\n      jump\t// in\n    tag_597:\n        /* \"#utility.yul\":14695:14697   */\n      0x20\n        /* \"#utility.yul\":14690:14693   */\n      dup3\n        /* \"#utility.yul\":14686:14698   */\n      add\n        /* \"#utility.yul\":14679:14698   */\n      swap1\n      pop\n        /* \"#utility.yul\":14338:14704   */\n      swap2\n      swap1\n      pop\n      jump\t// out\n        /* \"#utility.yul\":14710:15129   */\n    tag_289:\n        /* \"#utility.yul\":14876:14880   */\n      0x00\n        /* \"#utility.yul\":14914:14916   */\n      0x20\n        /* \"#utility.yul\":14903:14912   */\n      dup3\n        /* \"#utility.yul\":14899:14917   */\n      add\n        /* \"#utility.yul\":14891:14917   */\n      swap1\n      pop\n        /* \"#utility.yul\":14963:14972   */\n      dup2\n        /* \"#utility.yul\":14957:14961   */\n      dup2\n        /* \"#utility.yul\":14953:14973   */\n      sub\n        /* \"#utility.yul\":14949:14950   */\n      0x00\n        /* \"#utility.yul\":14938:14947   */\n      dup4\n        /* \"#utility.yul\":14934:14951   */\n      add\n        /* \"#utility.yul\":14927:14974   */\n      mstore\n        /* \"#utility.yul\":14991:15122   */\n      tag_599\n        /* \"#utility.yul\":15117:15121   */\n      dup2\n        /* \"#utility.yul\":14991:15122   */\n      tag_450\n      jump\t// in\n    tag_599:\n        /* \"#utility.yul\":14983:15122   */\n      swap1\n      pop\n        /* \"#utility.yul\":14710:15129   */\n      swap2\n      swap1\n      pop\n      jump\t// out\n        /* \"#utility.yul\":15135:15315   */\n    tag_451:\n        /* \"#utility.yul\":15275:15307   */\n      0x507572636861736520616d6f756e74206f7574206f66206c696d6974732e0000\n        /* \"#utility.yul\":15271:15272   */\n      0x00\n        /* \"#utility.yul\":15263:15269   */\n      dup3\n        /* \"#utility.yul\":15259:15273   */\n      add\n        /* \"#utility.yul\":15252:15308   */\n      mstore\n        /* \"#utility.yul\":15135:15315   */\n      pop\n      jump\t// out\n        /* \"#utility.yul\":15321:15687   */\n    tag_452:\n        /* \"#utility.yul\":15463:15466   */\n      0x00\n        /* \"#utility.yul\":15484:15551   */\n      tag_602\n        /* \"#utility.yul\":15548:15550   */\n      0x1e\n        /* \"#utility.yul\":15543:15546   */\n      dup4\n        /* \"#utility.yul\":15484:15551   */\n      tag_410\n      jump\t// in\n    tag_602:\n        /* \"#utility.yul\":15477:15551   */\n      swap2\n      pop\n        /* \"#utility.yul\":15560:15653   */\n      tag_603\n        /* \"#utility.yul\":15649:15652   */\n      dup3\n        /* \"#utility.yul\":15560:15653   */\n      tag_451\n      jump\t// in\n    tag_603:\n        /* \"#utility.yul\":15678:15680   */\n      0x20\n        /* \"#utility.yul\":15673:15676   */\n      dup3\n        /* \"#utility.yul\":15669:15681   */\n      add\n        /* \"#utility.yul\":15662:15681   */\n      swap1\n      pop\n        /* \"#utility.yul\":15321:15687   */\n      swap2\n      swap1\n      pop\n      jump\t// out\n        /* \"#utility.yul\":15693:16112   */\n    tag_293:\n        /* \"#utility.yul\":15859:15863   */\n      0x00\n        /* \"#utility.yul\":15897:15899   */\n      0x20\n        /* \"#utility.yul\":15886:15895   */\n      dup3\n        /* \"#utility.yul\":15882:15900   */\n      add\n        /* \"#utility.yul\":15874:15900   */\n      swap1\n      pop\n        /* \"#utility.yul\":15946:15955   */\n      dup2\n        /* \"#utility.yul\":15940:15944   */\n      dup2\n        /* \"#utility.yul\":15936:15956   */\n      sub\n        /* \"#utility.yul\":15932:15933   */\n      0x00\n        /* \"#utility.yul\":15921:15930   */\n      dup4\n        /* \"#utility.yul\":15917:15934   */\n      add\n        /* \"#utility.yul\":15910:15957   */\n      mstore\n        /* \"#utility.yul\":15974:16105   */\n      tag_605\n        /* \"#utility.yul\":16100:16104   */\n      dup2\n        /* \"#utility.yul\":15974:16105   */\n      tag_452\n      jump\t// in\n    tag_605:\n        /* \"#utility.yul\":15966:16105   */\n      swap1\n      pop\n        /* \"#utility.yul\":15693:16112   */\n      swap2\n      swap1\n      pop\n      jump\t// out\n        /* \"#utility.yul\":16118:16297   */\n    tag_453:\n        /* \"#utility.yul\":16258:16289   */\n      0x45786365656473205072652d53616c6520746f6b656e206c696d69742e000000\n        /* \"#utility.yul\":16254:16255   */\n      0x00\n        /* \"#utility.yul\":16246:16252   */\n      dup3\n        /* \"#utility.yul\":16242:16256   */\n      add\n        /* \"#utility.yul\":16235:16290   */\n      mstore\n        /* \"#utility.yul\":16118:16297   */\n      pop\n      jump\t// out\n        /* \"#utility.yul\":16303:16669   */\n    tag_454:\n        /* \"#utility.yul\":16445:16448   */\n      0x00\n        /* \"#utility.yul\":16466:16533   */\n      tag_608\n        /* \"#utility.yul\":16530:16532   */\n      0x1d\n        /* \"#utility.yul\":16525:16528   */\n      dup4\n        /* \"#utility.yul\":16466:16533   */\n      tag_410\n      jump\t// in\n    tag_608:\n        /* \"#utility.yul\":16459:16533   */\n      swap2\n      pop\n        /* \"#utility.yul\":16542:16635   */\n      tag_609\n        /* \"#utility.yul\":16631:16634   */\n      dup3\n        /* \"#utility.yul\":16542:16635   */\n      tag_453\n      jump\t// in\n    tag_609:\n        /* \"#utility.yul\":16660:16662   */\n      0x20\n        /* \"#utility.yul\":16655:16658   */\n      dup3\n        /* \"#utility.yul\":16651:16663   */\n      add\n        /* \"#utility.yul\":16644:16663   */\n      swap1\n      pop\n        /* \"#utility.yul\":16303:16669   */\n      swap2\n      swap1\n      pop\n      jump\t// out\n        /* \"#utility.yul\":16675:17094   */\n    tag_299:\n        /* \"#utility.yul\":16841:16845   */\n      0x00\n        /* \"#utility.yul\":16879:16881   */\n      0x20\n        /* \"#utility.yul\":16868:16877   */\n      dup3\n        /* \"#utility.yul\":16864:16882   */\n      add\n        /* \"#utility.yul\":16856:16882   */\n      swap1\n      pop\n        /* \"#utility.yul\":16928:16937   */\n      dup2\n        /* \"#utility.yul\":16922:16926   */\n      dup2\n        /* \"#utility.yul\":16918:16938   */\n      sub\n        /* \"#utility.yul\":16914:16915   */\n      0x00\n        /* \"#utility.yul\":16903:16912   */\n      dup4\n        /* \"#utility.yul\":16899:16916   */\n      add\n        /* \"#utility.yul\":16892:16939   */\n      mstore\n        /* \"#utility.yul\":16956:17087   */\n      tag_611\n        /* \"#utility.yul\":17082:17086   */\n      dup2\n        /* \"#utility.yul\":16956:17087   */\n      tag_454\n      jump\t// in\n    tag_611:\n        /* \"#utility.yul\":16948:17087   */\n      swap1\n      pop\n        /* \"#utility.yul\":16675:17094   */\n      swap2\n      swap1\n      pop\n      jump\t// out\n        /* \"#utility.yul\":17100:17320   */\n    tag_455:\n        /* \"#utility.yul\":17240:17274   */\n      0x56657374696e6720706572696f64206e6f742079657420636f6d706c65746564\n        /* \"#utility.yul\":17236:17237   */\n      0x00\n        /* \"#utility.yul\":17228:17234   */\n      dup3\n        /* \"#utility.yul\":17224:17238   */\n      add\n        /* \"#utility.yul\":17217:17275   */\n      mstore\n        /* \"#utility.yul\":17309:17312   */\n      0x2e00000000000000000000000000000000000000000000000000000000000000\n        /* \"#utility.yul\":17304:17306   */\n      0x20\n        /* \"#utility.yul\":17296:17302   */\n      dup3\n        /* \"#utility.yul\":17292:17307   */\n      add\n        /* \"#utility.yul\":17285:17313   */\n      mstore\n        /* \"#utility.yul\":17100:17320   */\n      pop\n      jump\t// out\n        /* \"#utility.yul\":17326:17692   */\n    tag_456:\n        /* \"#utility.yul\":17468:17471   */\n      0x00\n        /* \"#utility.yul\":17489:17556   */\n      tag_614\n        /* \"#utility.yul\":17553:17555   */\n      0x21\n        /* \"#utility.yul\":17548:17551   */\n      dup4\n        /* \"#utility.yul\":17489:17556   */\n      tag_410\n      jump\t// in\n    tag_614:\n        /* \"#utility.yul\":17482:17556   */\n      swap2\n      pop\n        /* \"#utility.yul\":17565:17658   */\n      tag_615\n        /* \"#utility.yul\":17654:17657   */\n      dup3\n        /* \"#utility.yul\":17565:17658   */\n      tag_455\n      jump\t// in\n    tag_615:\n        /* \"#utility.yul\":17683:17685   */\n      0x40\n        /* \"#utility.yul\":17678:17681   */\n      dup3\n        /* \"#utility.yul\":17674:17686   */\n      add\n        /* \"#utility.yul\":17667:17686   */\n      swap1\n      pop\n        /* \"#utility.yul\":17326:17692   */\n      swap2\n      swap1\n      pop\n      jump\t// out\n        /* \"#utility.yul\":17698:18117   */\n    tag_308:\n        /* \"#utility.yul\":17864:17868   */\n      0x00\n        /* \"#utility.yul\":17902:17904   */\n      0x20\n        /* \"#utility.yul\":17891:17900   */\n      dup3\n        /* \"#utility.yul\":17887:17905   */\n      add\n        /* \"#utility.yul\":17879:17905   */\n      swap1\n      pop\n        /* \"#utility.yul\":17951:17960   */\n      dup2\n        /* \"#utility.yul\":17945:17949   */\n      dup2\n        /* \"#utility.yul\":17941:17961   */\n      sub\n        /* \"#utility.yul\":17937:17938   */\n      0x00\n        /* \"#utility.yul\":17926:17935   */\n      dup4\n        /* \"#utility.yul\":17922:17939   */\n      add\n        /* \"#utility.yul\":17915:17962   */\n      mstore\n        /* \"#utility.yul\":17979:18110   */\n      tag_617\n        /* \"#utility.yul\":18105:18109   */\n      dup2\n        /* \"#utility.yul\":17979:18110   */\n      tag_456\n      jump\t// in\n    tag_617:\n        /* \"#utility.yul\":17971:18110   */\n      swap1\n      pop\n        /* \"#utility.yul\":17698:18117   */\n      swap2\n      swap1\n      pop\n      jump\t// out\n        /* \"#utility.yul\":18123:18349   */\n    tag_457:\n        /* \"#utility.yul\":18263:18297   */\n      0x507269766174652053616c652073686f756c6420626520636f6e636c75646564\n        /* \"#utility.yul\":18259:18260   */\n      0x00\n        /* \"#utility.yul\":18251:18257   */\n      dup3\n        /* \"#utility.yul\":18247:18261   */\n      add\n        /* \"#utility.yul\":18240:18298   */\n      mstore\n        /* \"#utility.yul\":18332:18341   */\n      0x2066697273742e00000000000000000000000000000000000000000000000000\n        /* \"#utility.yul\":18327:18329   */\n      0x20\n        /* \"#utility.yul\":18319:18325   */\n      dup3\n        /* \"#utility.yul\":18315:18330   */\n      add\n        /* \"#utility.yul\":18308:18342   */\n      mstore\n        /* \"#utility.yul\":18123:18349   */\n      pop\n      jump\t// out\n        /* \"#utility.yul\":18355:18721   */\n    tag_458:\n        /* \"#utility.yul\":18497:18500   */\n      0x00\n        /* \"#utility.yul\":18518:18585   */\n      tag_620\n        /* \"#utility.yul\":18582:18584   */\n      0x27\n        /* \"#utility.yul\":18577:18580   */\n      dup4\n        /* \"#utility.yul\":18518:18585   */\n      tag_410\n      jump\t// in\n    tag_620:\n        /* \"#utility.yul\":18511:18585   */\n      swap2\n      pop\n        /* \"#utility.yul\":18594:18687   */\n      tag_621\n        /* \"#utility.yul\":18683:18686   */\n      dup3\n        /* \"#utility.yul\":18594:18687   */\n      tag_457\n      jump\t// in\n    tag_621:\n        /* \"#utility.yul\":18712:18714   */\n      0x40\n        /* \"#utility.yul\":18707:18710   */\n      dup3\n        /* \"#utility.yul\":18703:18715   */\n      add\n        /* \"#utility.yul\":18696:18715   */\n      swap1\n      pop\n        /* \"#utility.yul\":18355:18721   */\n      swap2\n      swap1\n      pop\n      jump\t// out\n        /* \"#utility.yul\":18727:19146   */\n    tag_320:\n        /* \"#utility.yul\":18893:18897   */\n      0x00\n        /* \"#utility.yul\":18931:18933   */\n      0x20\n        /* \"#utility.yul\":18920:18929   */\n      dup3\n        /* \"#utility.yul\":18916:18934   */\n      add\n        /* \"#utility.yul\":18908:18934   */\n      swap1\n      pop\n        /* \"#utility.yul\":18980:18989   */\n      dup2\n        /* \"#utility.yul\":18974:18978   */\n      dup2\n        /* \"#utility.yul\":18970:18990   */\n      sub\n        /* \"#utility.yul\":18966:18967   */\n      0x00\n        /* \"#utility.yul\":18955:18964   */\n      dup4\n        /* \"#utility.yul\":18951:18968   */\n      add\n        /* \"#utility.yul\":18944:18991   */\n      mstore\n        /* \"#utility.yul\":19008:19139   */\n      tag_623\n        /* \"#utility.yul\":19134:19138   */\n      dup2\n        /* \"#utility.yul\":19008:19139   */\n      tag_458\n      jump\t// in\n    tag_623:\n        /* \"#utility.yul\":19000:19139   */\n      swap1\n      pop\n        /* \"#utility.yul\":18727:19146   */\n      swap2\n      swap1\n      pop\n      jump\t// out\n        /* \"#utility.yul\":19152:19334   */\n    tag_459:\n        /* \"#utility.yul\":19292:19326   */\n      0x507269766174652053616c6520746172676574206e6f7420726561636865642e\n        /* \"#utility.yul\":19288:19289   */\n      0x00\n        /* \"#utility.yul\":19280:19286   */\n      dup3\n        /* \"#utility.yul\":19276:19290   */\n      add\n        /* \"#utility.yul\":19269:19327   */\n      mstore\n        /* \"#utility.yul\":19152:19334   */\n      pop\n      jump\t// out\n        /* \"#utility.yul\":19340:19706   */\n    tag_460:\n        /* \"#utility.yul\":19482:19485   */\n      0x00\n        /* \"#utility.yul\":19503:19570   */\n      tag_626\n        /* \"#utility.yul\":19567:19569   */\n      0x20\n        /* \"#utility.yul\":19562:19565   */\n      dup4\n        /* \"#utility.yul\":19503:19570   */\n      tag_410\n      jump\t// in\n    tag_626:\n        /* \"#utility.yul\":19496:19570   */\n      swap2\n      pop\n        /* \"#utility.yul\":19579:19672   */\n      tag_627\n        /* \"#utility.yul\":19668:19671   */\n      dup3\n        /* \"#utility.yul\":19579:19672   */\n      tag_459\n      jump\t// in\n    tag_627:\n        /* \"#utility.yul\":19697:19699   */\n      0x20\n        /* \"#utility.yul\":19692:19695   */\n      dup3\n        /* \"#utility.yul\":19688:19700   */\n      add\n        /* \"#utility.yul\":19681:19700   */\n      swap1\n      pop\n        /* \"#utility.yul\":19340:19706   */\n      swap2\n      swap1\n      pop\n      jump\t// out\n        /* \"#utility.yul\":19712:20131   */\n    tag_323:\n        /* \"#utility.yul\":19878:19882   */\n      0x00\n        /* \"#utility.yul\":19916:19918   */\n      0x20\n        /* \"#utility.yul\":19905:19914   */\n      dup3\n        /* \"#utility.yul\":19901:19919   */\n      add\n        /* \"#utility.yul\":19893:19919   */\n      swap1\n      pop\n        /* \"#utility.yul\":19965:19974   */\n      dup2\n        /* \"#utility.yul\":19959:19963   */\n      dup2\n        /* \"#utility.yul\":19955:19975   */\n      sub\n        /* \"#utility.yul\":19951:19952   */\n      0x00\n        /* \"#utility.yul\":19940:19949   */\n      dup4\n        /* \"#utility.yul\":19936:19953   */\n      add\n        /* \"#utility.yul\":19929:19976   */\n      mstore\n        /* \"#utility.yul\":19993:20124   */\n      tag_629\n        /* \"#utility.yul\":20119:20123   */\n      dup2\n        /* \"#utility.yul\":19993:20124   */\n      tag_460\n      jump\t// in\n    tag_629:\n        /* \"#utility.yul\":19985:20124   */\n      swap1\n      pop\n        /* \"#utility.yul\":19712:20131   */\n      swap2\n      swap1\n      pop\n      jump\t// out\n        /* \"#utility.yul\":20137:20579   */\n    tag_358:\n        /* \"#utility.yul\":20286:20290   */\n      0x00\n        /* \"#utility.yul\":20324:20326   */\n      0x60\n        /* \"#utility.yul\":20313:20322   */\n      dup3\n        /* \"#utility.yul\":20309:20327   */\n      add\n        /* \"#utility.yul\":20301:20327   */\n      swap1\n      pop\n        /* \"#utility.yul\":20337:20408   */\n      tag_631\n        /* \"#utility.yul\":20405:20406   */\n      0x00\n        /* \"#utility.yul\":20394:20403   */\n      dup4\n        /* \"#utility.yul\":20390:20407   */\n      add\n        /* \"#utility.yul\":20381:20387   */\n      dup7\n        /* \"#utility.yul\":20337:20408   */\n      tag_432\n      jump\t// in\n    tag_631:\n        /* \"#utility.yul\":20418:20490   */\n      tag_632\n        /* \"#utility.yul\":20486:20488   */\n      0x20\n        /* \"#utility.yul\":20475:20484   */\n      dup4\n        /* \"#utility.yul\":20471:20489   */\n      add\n        /* \"#utility.yul\":20462:20468   */\n      dup6\n        /* \"#utility.yul\":20418:20490   */\n      tag_429\n      jump\t// in\n    tag_632:\n        /* \"#utility.yul\":20500:20572   */\n      tag_633\n        /* \"#utility.yul\":20568:20570   */\n      0x40\n        /* \"#utility.yul\":20557:20566   */\n      dup4\n        /* \"#utility.yul\":20553:20571   */\n      add\n        /* \"#utility.yul\":20544:20550   */\n      dup5\n        /* \"#utility.yul\":20500:20572   */\n      tag_429\n      jump\t// in\n    tag_633:\n        /* \"#utility.yul\":20137:20579   */\n      swap5\n      swap4\n      pop\n      pop\n      pop\n      pop\n      jump\t// out\n        /* \"#utility.yul\":20585:20766   */\n    tag_461:\n        /* \"#utility.yul\":20725:20758   */\n      0x5265656e7472616e637947756172643a207265656e7472616e742063616c6c00\n        /* \"#utility.yul\":20721:20722   */\n      0x00\n        /* \"#utility.yul\":20713:20719   */\n      dup3\n        /* \"#utility.yul\":20709:20723   */\n      add\n        /* \"#utility.yul\":20702:20759   */\n      mstore\n        /* \"#utility.yul\":20585:20766   */\n      pop\n      jump\t// out\n        /* \"#utility.yul\":20772:21138   */\n    tag_462:\n        /* \"#utility.yul\":20914:20917   */\n      0x00\n        /* \"#utility.yul\":20935:21002   */\n      tag_636\n        /* \"#utility.yul\":20999:21001   */\n      0x1f\n        /* \"#utility.yul\":20994:20997   */\n      dup4\n        /* \"#utility.yul\":20935:21002   */\n      tag_410\n      jump\t// in\n    tag_636:\n        /* \"#utility.yul\":20928:21002   */\n      swap2\n      pop\n        /* \"#utility.yul\":21011:21104   */\n      tag_637\n        /* \"#utility.yul\":21100:21103   */\n      dup3\n        /* \"#utility.yul\":21011:21104   */\n      tag_461\n      jump\t// in\n    tag_637:\n        /* \"#utility.yul\":21129:21131   */\n      0x20\n        /* \"#utility.yul\":21124:21127   */\n      dup3\n        /* \"#utility.yul\":21120:21132   */\n      add\n        /* \"#utility.yul\":21113:21132   */\n      swap1\n      pop\n        /* \"#utility.yul\":20772:21138   */\n      swap2\n      swap1\n      pop\n      jump\t// out\n        /* \"#utility.yul\":21144:21563   */\n    tag_376:\n        /* \"#utility.yul\":21310:21314   */\n      0x00\n        /* \"#utility.yul\":21348:21350   */\n      0x20\n        /* \"#utility.yul\":21337:21346   */\n      dup3\n        /* \"#utility.yul\":21333:21351   */\n      add\n        /* \"#utility.yul\":21325:21351   */\n      swap1\n      pop\n        /* \"#utility.yul\":21397:21406   */\n      dup2\n        /* \"#utility.yul\":21391:21395   */\n      dup2\n        /* \"#utility.yul\":21387:21407   */\n      sub\n        /* \"#utility.yul\":21383:21384   */\n      0x00\n        /* \"#utility.yul\":21372:21381   */\n      dup4\n        /* \"#utility.yul\":21368:21385   */\n      add\n        /* \"#utility.yul\":21361:21408   */\n      mstore\n        /* \"#utility.yul\":21425:21556   */\n      tag_639\n        /* \"#utility.yul\":21551:21555   */\n      dup2\n        /* \"#utility.yul\":21425:21556   */\n      tag_462\n      jump\t// in\n    tag_639:\n        /* \"#utility.yul\":21417:21556   */\n      swap1\n      pop\n        /* \"#utility.yul\":21144:21563   */\n      swap2\n      swap1\n      pop\n      jump\t// out\n        /* \"#utility.yul\":21569:21763   */\n    tag_380:\n        /* \"#utility.yul\":21609:21613   */\n      0x00\n        /* \"#utility.yul\":21629:21649   */\n      tag_641\n        /* \"#utility.yul\":21647:21648   */\n      dup3\n        /* \"#utility.yul\":21629:21649   */\n      tag_424\n      jump\t// in\n    tag_641:\n        /* \"#utility.yul\":21624:21649   */\n      swap2\n      pop\n        /* \"#utility.yul\":21663:21683   */\n      tag_642\n        /* \"#utility.yul\":21681:21682   */\n      dup4\n        /* \"#utility.yul\":21663:21683   */\n      tag_424\n      jump\t// in\n    tag_642:\n        /* \"#utility.yul\":21658:21683   */\n      swap3\n      pop\n        /* \"#utility.yul\":21707:21708   */\n      dup3\n        /* \"#utility.yul\":21704:21705   */\n      dup3\n        /* \"#utility.yul\":21700:21709   */\n      sub\n        /* \"#utility.yul\":21692:21709   */\n      swap1\n      pop\n        /* \"#utility.yul\":21731:21732   */\n      dup2\n        /* \"#utility.yul\":21725:21729   */\n      dup2\n        /* \"#utility.yul\":21722:21733   */\n      gt\n        /* \"#utility.yul\":21719:21756   */\n      iszero\n      tag_643\n      jumpi\n        /* \"#utility.yul\":21736:21754   */\n      tag_644\n      tag_446\n      jump\t// in\n    tag_644:\n        /* \"#utility.yul\":21719:21756   */\n    tag_643:\n        /* \"#utility.yul\":21569:21763   */\n      swap3\n      swap2\n      pop\n      pop\n      jump\t// out\n        /* \"#utility.yul\":21769:22179   */\n    tag_382:\n        /* \"#utility.yul\":21809:21816   */\n      0x00\n        /* \"#utility.yul\":21832:21852   */\n      tag_646\n        /* \"#utility.yul\":21850:21851   */\n      dup3\n        /* \"#utility.yul\":21832:21852   */\n      tag_424\n      jump\t// in\n    tag_646:\n        /* \"#utility.yul\":21827:21852   */\n      swap2\n      pop\n        /* \"#utility.yul\":21866:21886   */\n      tag_647\n        /* \"#utility.yul\":21884:21885   */\n      dup4\n        /* \"#utility.yul\":21866:21886   */\n      tag_424\n      jump\t// in\n    tag_647:\n        /* \"#utility.yul\":21861:21886   */\n      swap3\n      pop\n        /* \"#utility.yul\":21921:21922   */\n      dup3\n        /* \"#utility.yul\":21918:21919   */\n      dup3\n        /* \"#utility.yul\":21914:21923   */\n      mul\n        /* \"#utility.yul\":21943:21973   */\n      tag_648\n        /* \"#utility.yul\":21961:21972   */\n      dup2\n        /* \"#utility.yul\":21943:21973   */\n      tag_424\n      jump\t// in\n    tag_648:\n        /* \"#utility.yul\":21932:21973   */\n      swap2\n      pop\n        /* \"#utility.yul\":22122:22123   */\n      dup3\n        /* \"#utility.yul\":22113:22120   */\n      dup3\n        /* \"#utility.yul\":22109:22124   */\n      div\n        /* \"#utility.yul\":22106:22107   */\n      dup5\n        /* \"#utility.yul\":22103:22125   */\n      eq\n        /* \"#utility.yul\":22083:22084   */\n      dup4\n        /* \"#utility.yul\":22076:22085   */\n      iszero\n        /* \"#utility.yul\":22056:22139   */\n      or\n        /* \"#utility.yul\":22033:22172   */\n      tag_649\n      jumpi\n        /* \"#utility.yul\":22152:22170   */\n      tag_650\n      tag_446\n      jump\t// in\n    tag_650:\n        /* \"#utility.yul\":22033:22172   */\n    tag_649:\n        /* \"#utility.yul\":21817:22179   */\n      pop\n        /* \"#utility.yul\":21769:22179   */\n      swap3\n      swap2\n      pop\n      pop\n      jump\t// out\n        /* \"#utility.yul\":22185:22365   */\n    tag_463:\n        /* \"#utility.yul\":22233:22310   */\n      0x4e487b7100000000000000000000000000000000000000000000000000000000\n        /* \"#utility.yul\":22230:22231   */\n      0x00\n        /* \"#utility.yul\":22223:22311   */\n      mstore\n        /* \"#utility.yul\":22330:22334   */\n      0x12\n        /* \"#utility.yul\":22327:22328   */\n      0x04\n        /* \"#utility.yul\":22320:22335   */\n      mstore\n        /* \"#utility.yul\":22354:22358   */\n      0x24\n        /* \"#utility.yul\":22351:22352   */\n      0x00\n        /* \"#utility.yul\":22344:22359   */\n      revert\n        /* \"#utility.yul\":22371:22556   */\n    tag_384:\n        /* \"#utility.yul\":22411:22412   */\n      0x00\n        /* \"#utility.yul\":22428:22448   */\n      tag_653\n        /* \"#utility.yul\":22446:22447   */\n      dup3\n        /* \"#utility.yul\":22428:22448   */\n      tag_424\n      jump\t// in\n    tag_653:\n        /* \"#utility.yul\":22423:22448   */\n      swap2\n      pop\n        /* \"#utility.yul\":22462:22482   */\n      tag_654\n        /* \"#utility.yul\":22480:22481   */\n      dup4\n        /* \"#utility.yul\":22462:22482   */\n      tag_424\n      jump\t// in\n    tag_654:\n        /* \"#utility.yul\":22457:22482   */\n      swap3\n      pop\n        /* \"#utility.yul\":22501:22502   */\n      dup3\n        /* \"#utility.yul\":22491:22526   */\n      tag_655\n      jumpi\n        /* \"#utility.yul\":22506:22524   */\n      tag_656\n      tag_463\n      jump\t// in\n    tag_656:\n        /* \"#utility.yul\":22491:22526   */\n    tag_655:\n        /* \"#utility.yul\":22548:22549   */\n      dup3\n        /* \"#utility.yul\":22545:22546   */\n      dup3\n        /* \"#utility.yul\":22541:22550   */\n      div\n        /* \"#utility.yul\":22536:22550   */\n      swap1\n      pop\n        /* \"#utility.yul\":22371:22556   */\n      swap3\n      swap2\n      pop\n      pop\n      jump\t// out\n\n    auxdata: 0xa2646970667358221220092d6ebf1ef9f3a25290c943b0061a2486924efb9bf38c01240c66534473fec364736f6c634300081a0033\n}\n",
				"bytecode": {
					"linkReferences": {},
					"object": "608060405269d3c21bcecceda10000006007556a201fcafc2577d29850000060085566038d7ea4c6800060095566b3697b81284000600a555f600b556a0fb768105935a2f3000000600c556a854fdabd6aa1d32fb00000600d5566b3697b81284000600e5567016345785d8a0000600f555f6010555f60115f6101000a81548160ff0219169083600281111561009857610097610550565b5b021790555062ed4e006014556301e133806015553480156100b7575f80fd5b50336040518060400160405280600881526020017f426574746f6b656e0000000000000000000000000000000000000000000000008152506040518060400160405280600481526020017f4245545400000000000000000000000000000000000000000000000000000000815250816003908161013491906107b7565b50806004908161014491906107b7565b5050505f73ffffffffffffffffffffffffffffffffffffffff168173ffffffffffffffffffffffffffffffffffffffff16036101b7575f6040517f1e4fbdf70000000000000000000000000000000000000000000000000000000081526004016101ae91906108c5565b60405180910390fd5b6101c6816101ef60201b60201c565b5060016006819055506101ea306aa56fa5b99019a5c80000006102b260201b60201c565b61099b565b5f60055f9054906101000a900473ffffffffffffffffffffffffffffffffffffffff1690508160055f6101000a81548173ffffffffffffffffffffffffffffffffffffffff021916908373ffffffffffffffffffffffffffffffffffffffff1602179055508173ffffffffffffffffffffffffffffffffffffffff168173ffffffffffffffffffffffffffffffffffffffff167f8be0079c531659141344cd1fd0a4f28419497f9722a3daafe3b4186f6b6457e060405160405180910390a35050565b5f73ffffffffffffffffffffffffffffffffffffffff168273ffffffffffffffffffffffffffffffffffffffff1603610322575f6040517fec442f0500000000000000000000000000000000000000000000000000000000815260040161031991906108c5565b60405180910390fd5b6103335f838361033760201b60201c565b5050565b5f73ffffffffffffffffffffffffffffffffffffffff168373ffffffffffffffffffffffffffffffffffffffff1603610387578060025f82825461037b919061090b565b92505081905550610455565b5f805f8573ffffffffffffffffffffffffffffffffffffffff1673ffffffffffffffffffffffffffffffffffffffff1681526020019081526020015f2054905081811015610410578381836040517fe450d38c0000000000000000000000000000000000000000000000000000000081526004016104079392919061094d565b60405180910390fd5b8181035f808673ffffffffffffffffffffffffffffffffffffffff1673ffffffffffffffffffffffffffffffffffffffff1681526020019081526020015f2081905550505b5f73ffffffffffffffffffffffffffffffffffffffff168273ffffffffffffffffffffffffffffffffffffffff160361049c578060025f82825403925050819055506104e6565b805f808473ffffffffffffffffffffffffffffffffffffffff1673ffffffffffffffffffffffffffffffffffffffff1681526020019081526020015f205f82825401925050819055505b8173ffffffffffffffffffffffffffffffffffffffff168373ffffffffffffffffffffffffffffffffffffffff167fddf252ad1be2c89b69c2b068fc378daa952ba7f163c4a11628f55a4df523b3ef836040516105439190610982565b60405180910390a3505050565b7f4e487b71000000000000000000000000000000000000000000000000000000005f52602160045260245ffd5b5f81519050919050565b7f4e487b71000000000000000000000000000000000000000000000000000000005f52604160045260245ffd5b7f4e487b71000000000000000000000000000000000000000000000000000000005f52602260045260245ffd5b5f60028204905060018216806105f857607f821691505b60208210810361060b5761060a6105b4565b5b50919050565b5f819050815f5260205f209050919050565b5f6020601f8301049050919050565b5f82821b905092915050565b5f6008830261066d7fffffffffffffffffffffffffffffffffffffffffffffffffffffffffffffffff82610632565b6106778683610632565b95508019841693508086168417925050509392505050565b5f819050919050565b5f819050919050565b5f6106bb6106b66106b18461068f565b610698565b61068f565b9050919050565b5f819050919050565b6106d4836106a1565b6106e86106e0826106c2565b84845461063e565b825550505050565b5f90565b6106fc6106f0565b6107078184846106cb565b505050565b5b8181101561072a5761071f5f826106f4565b60018101905061070d565b5050565b601f82111561076f5761074081610611565b61074984610623565b81016020851015610758578190505b61076c61076485610623565b83018261070c565b50505b505050565b5f82821c905092915050565b5f61078f5f1984600802610774565b1980831691505092915050565b5f6107a78383610780565b9150826002028217905092915050565b6107c08261057d565b67ffffffffffffffff8111156107d9576107d8610587565b5b6107e382546105e1565b6107ee82828561072e565b5f60209050601f83116001811461081f575f841561080d578287015190505b610817858261079c565b86555061087e565b601f19841661082d86610611565b5f5b828110156108545784890151825560018201915060208501945060208101905061082f565b86831015610871578489015161086d601f891682610780565b8355505b6001600288020188555050505b505050505050565b5f73ffffffffffffffffffffffffffffffffffffffff82169050919050565b5f6108af82610886565b9050919050565b6108bf816108a5565b82525050565b5f6020820190506108d85f8301846108b6565b92915050565b7f4e487b71000000000000000000000000000000000000000000000000000000005f52601160045260245ffd5b5f6109158261068f565b91506109208361068f565b9250828201905080821115610938576109376108de565b5b92915050565b6109478161068f565b82525050565b5f6060820190506109605f8301866108b6565b61096d602083018561093e565b61097a604083018461093e565b949350505050565b5f6020820190506109955f83018461093e565b92915050565b612706806109a85f395ff3fe6080604052600436106101fc575f3560e01c806370a082311161010c578063b0e686301161009f578063c040e6b81161006e578063c040e6b81461071f578063c552e04b14610749578063dd62ed3e14610773578063e6bd92b9146107af578063f2fde38b146107d95761023c565b8063b0e6863014610677578063b68ed11f146106a1578063ba20cf4c146106cb578063bda95633146106f55761023c565b8063902d55a5116100db578063902d55a5146105bd578063920168b3146105e757806395d89b4114610611578063a9059cbb1461063b5761023c565b806370a0823114610517578063715018a6146105535780638da5cb5b146105695780638f7713ff146105935761023c565b80632b1cbc381161018f5780633610724e1161015e5780633610724e1461047b57806340f02ab61461049757806354dd1da4146104c157806355dd574c146104d75780635fb3b944146104ed5761023c565b80632b1cbc38146103e9578063313ce5671461042557806332c85ac01461044f578063338dbf59146104655761023c565b806318160ddd116101cb57806318160ddd14610331578063192399d11461035b57806323b872dd1461039757806324600fc3146103d35761023c565b806306fdde0314610277578063095ea7b3146102a15780630fe83bb8146102dd5780631514617e146103075761023c565b3661023c576040517f08c379a000000000000000000000000000000000000000000000000000000000815260040161023390611c01565b60405180910390fd5b6040517f08c379a000000000000000000000000000000000000000000000000000000000815260040161026e90611c01565b60405180910390fd5b348015610282575f80fd5b5061028b610801565b6040516102989190611c7f565b60405180910390f35b3480156102ac575f80fd5b506102c760048036038101906102c29190611d30565b610891565b6040516102d49190611d88565b60405180910390f35b3480156102e8575f80fd5b506102f16108b3565b6040516102fe9190611db0565b60405180910390f35b348015610312575f80fd5b5061031b6108b9565b6040516103289190611db0565b60405180910390f35b34801561033c575f80fd5b506103456108bf565b6040516103529190611db0565b60405180910390f35b348015610366575f80fd5b50610381600480360381019061037c9190611dc9565b6108c8565b60405161038e9190611db0565b60405180910390f35b3480156103a2575f80fd5b506103bd60048036038101906103b89190611df4565b6108dd565b6040516103ca9190611d88565b60405180910390f35b3480156103de575f80fd5b506103e761090b565b005b3480156103f4575f80fd5b5061040f600480360381019061040a9190611dc9565b610970565b60405161041c9190611db0565b60405180910390f35b348015610430575f80fd5b50610439610985565b6040516104469190611e5f565b60405180910390f35b34801561045a575f80fd5b5061046361098d565b005b348015610470575f80fd5b50610479610a14565b005b61049560048036038101906104909190611e78565b610abc565b005b3480156104a2575f80fd5b506104ab610ed6565b6040516104b89190611db0565b60405180910390f35b3480156104cc575f80fd5b506104d5610edc565b005b3480156104e2575f80fd5b506104eb61103f565b005b3480156104f8575f80fd5b5061050161112e565b60405161050e9190611db0565b60405180910390f35b348015610522575f80fd5b5061053d60048036038101906105389190611dc9565b611134565b60405161054a9190611db0565b60405180910390f35b34801561055e575f80fd5b50610567611179565b005b348015610574575f80fd5b5061057d61118c565b60405161058a9190611eb2565b60405180910390f35b34801561059e575f80fd5b506105a76111b4565b6040516105b49190611db0565b60405180910390f35b3480156105c8575f80fd5b506105d16111ba565b6040516105de9190611db0565b60405180910390f35b3480156105f2575f80fd5b506105fb6111c9565b6040516106089190611db0565b60405180910390f35b34801561061c575f80fd5b506106256111cf565b6040516106329190611c7f565b60405180910390f35b348015610646575f80fd5b50610661600480360381019061065c9190611d30565b61125f565b60405161066e9190611d88565b60405180910390f35b348015610682575f80fd5b5061068b611281565b6040516106989190611db0565b60405180910390f35b3480156106ac575f80fd5b506106b5611287565b6040516106c29190611db0565b60405180910390f35b3480156106d6575f80fd5b506106df61128d565b6040516106ec9190611db0565b60405180910390f35b348015610700575f80fd5b50610709611293565b6040516107169190611db0565b60405180910390f35b34801561072a575f80fd5b50610733611299565b6040516107409190611f3e565b60405180910390f35b348015610754575f80fd5b5061075d6112ab565b60405161076a9190611db0565b60405180910390f35b34801561077e575f80fd5b5061079960048036038101906107949190611f57565b6112b1565b6040516107a69190611db0565b60405180910390f35b3480156107ba575f80fd5b506107c3611333565b6040516107d09190611db0565b60405180910390f35b3480156107e4575f80fd5b506107ff60048036038101906107fa9190611dc9565b611339565b005b60606003805461081090611fc2565b80601f016020809104026020016040519081016040528092919081815260200182805461083c90611fc2565b80156108875780601f1061085e57610100808354040283529160200191610887565b820191905f5260205f20905b81548152906001019060200180831161086a57829003601f168201915b5050505050905090565b5f8061089b6113bd565b90506108a88185856113c4565b600191505092915050565b600d5481565b60145481565b5f600254905090565b6012602052805f5260405f205f915090505481565b5f806108e76113bd565b90506108f48582856113d6565b6108ff858585611468565b60019150509392505050565b610913611558565b61091b6115df565b61092361118c565b73ffffffffffffffffffffffffffffffffffffffff166108fc4790811502906040515f60405180830381858888f19350505050158015610965573d5f803e3d5ffd5b5061096e61162e565b565b6013602052805f5260405f205f915090505481565b5f6012905090565b610995611558565b600854600b5414806109aa5750600d54601054145b6109e9576040517f08c379a00000000000000000000000000000000000000000000000000000000081526004016109e09061203c565b60405180910390fd5b5f60115f6101000a81548160ff02191690836002811115610a0d57610a0c611ecb565b5b0217905550565b610a1c611558565b5f6002811115610a2f57610a2e611ecb565b5b60115f9054906101000a900460ff166002811115610a5057610a4f611ecb565b5b14610a90576040517f08c379a0000000000000000000000000000000000000000000000000000000008152600401610a87906120ca565b60405180910390fd5b600160115f6101000a81548160ff02191690836002811115610ab557610ab4611ecb565b5b0217905550565b610ac46115df565b5f6002811115610ad757610ad6611ecb565b5b60115f9054906101000a900460ff166002811115610af857610af7611ecb565b5b03610b38576040517f08c379a0000000000000000000000000000000000000000000000000000000008152600401610b2f90612132565b60405180910390fd5b5f60016002811115610b4d57610b4c611ecb565b5b60115f9054906101000a900460ff166002811115610b6e57610b6d611ecb565b5b03610d2557600854600b5410610bb9576040517f08c379a0000000000000000000000000000000000000000000000000000000008152600401610bb09061219a565b60405180910390fd5b610bc282611638565b905080600b5f828254610bd591906121e5565b92505081905550600854600b541115610c23576040517f08c379a0000000000000000000000000000000000000000000000000000000008152600401610c1a90612288565b60405180910390fd5b8060125f3373ffffffffffffffffffffffffffffffffffffffff1673ffffffffffffffffffffffffffffffffffffffff1681526020019081526020015f205f828254610c6f91906121e5565b9250508190555060145460155442610c8791906121e5565b610c9191906121e5565b60135f3373ffffffffffffffffffffffffffffffffffffffff1673ffffffffffffffffffffffffffffffffffffffff1681526020019081526020015f20819055503373ffffffffffffffffffffffffffffffffffffffff167f8fa81bb0702332ea2a0aee44bb9e4d359cf4a2c5a820dd59d9129369bdbca73f82604051610d189190611db0565b60405180910390a2610eca565b600280811115610d3857610d37611ecb565b5b60115f9054906101000a900460ff166002811115610d5957610d58611ecb565b5b03610ec957600d5460105410610da4576040517f08c379a0000000000000000000000000000000000000000000000000000000008152600401610d9b906122f0565b60405180910390fd5b68056bc75e2d631000008210158015610dc6575068a2a15d09519be000008211155b610e05576040517f08c379a0000000000000000000000000000000000000000000000000000000008152600401610dfc90612358565b60405180910390fd5b610e0e82611687565b90508060105f828254610e2191906121e5565b92505081905550600d546010541115610e6f576040517f08c379a0000000000000000000000000000000000000000000000000000000008152600401610e66906123c0565b60405180910390fd5b610e7a303383611468565b3373ffffffffffffffffffffffffffffffffffffffff167f550498dc565cc74203b9d14cba907c9f60ceefe26e82b37df98f6cb98529cf1982604051610ec09190611db0565b60405180910390a25b5b50610ed361162e565b50565b60155481565b610ee46115df565b60135f3373ffffffffffffffffffffffffffffffffffffffff1673ffffffffffffffffffffffffffffffffffffffff1681526020019081526020015f2054421015610f64576040517f08c379a0000000000000000000000000000000000000000000000000000000008152600401610f5b9061244e565b60405180910390fd5b5f60125f3373ffffffffffffffffffffffffffffffffffffffff1673ffffffffffffffffffffffffffffffffffffffff1681526020019081526020015f205490505f60125f3373ffffffffffffffffffffffffffffffffffffffff1673ffffffffffffffffffffffffffffffffffffffff1681526020019081526020015f20819055505f60135f3373ffffffffffffffffffffffffffffffffffffffff1673ffffffffffffffffffffffffffffffffffffffff1681526020019081526020015f2081905550611034303383611468565b5061103d61162e565b565b611047611558565b6001600281111561105b5761105a611ecb565b5b60115f9054906101000a900460ff16600281111561107c5761107b611ecb565b5b146110bc576040517f08c379a00000000000000000000000000000000000000000000000000000000081526004016110b3906124dc565b60405180910390fd5b600854600b5414611102576040517f08c379a00000000000000000000000000000000000000000000000000000000081526004016110f990612544565b60405180910390fd5b600260115f6101000a81548160ff0219169083600281111561112757611126611ecb565b5b0217905550565b600b5481565b5f805f8373ffffffffffffffffffffffffffffffffffffffff1673ffffffffffffffffffffffffffffffffffffffff1681526020019081526020015f20549050919050565b611181611558565b61118a5f6116d6565b565b5f60055f9054906101000a900473ffffffffffffffffffffffffffffffffffffffff16905090565b600f5481565b6aa56fa5b99019a5c800000081565b600e5481565b6060600480546111de90611fc2565b80601f016020809104026020016040519081016040528092919081815260200182805461120a90611fc2565b80156112555780601f1061122c57610100808354040283529160200191611255565b820191905f5260205f20905b81548152906001019060200180831161123857829003601f168201915b5050505050905090565b5f806112696113bd565b9050611276818585611468565b600191505092915050565b60095481565b60105481565b60075481565b600a5481565b60115f9054906101000a900460ff1681565b60085481565b5f60015f8473ffffffffffffffffffffffffffffffffffffffff1673ffffffffffffffffffffffffffffffffffffffff1681526020019081526020015f205f8373ffffffffffffffffffffffffffffffffffffffff1673ffffffffffffffffffffffffffffffffffffffff1681526020019081526020015f2054905092915050565b600c5481565b611341611558565b5f73ffffffffffffffffffffffffffffffffffffffff168173ffffffffffffffffffffffffffffffffffffffff16036113b1575f6040517f1e4fbdf70000000000000000000000000000000000000000000000000000000081526004016113a89190611eb2565b60405180910390fd5b6113ba816116d6565b50565b5f33905090565b6113d18383836001611799565b505050565b5f6113e184846112b1565b90507fffffffffffffffffffffffffffffffffffffffffffffffffffffffffffffffff81146114625781811015611453578281836040517ffb8f41b200000000000000000000000000000000000000000000000000000000815260040161144a93929190612562565b60405180910390fd5b61146184848484035f611799565b5b50505050565b5f73ffffffffffffffffffffffffffffffffffffffff168373ffffffffffffffffffffffffffffffffffffffff16036114d8575f6040517f96c6fd1e0000000000000000000000000000000000000000000000000000000081526004016114cf9190611eb2565b60405180910390fd5b5f73ffffffffffffffffffffffffffffffffffffffff168273ffffffffffffffffffffffffffffffffffffffff1603611548575f6040517fec442f0500000000000000000000000000000000000000000000000000000000815260040161153f9190611eb2565b60405180910390fd5b611553838383611968565b505050565b6115606113bd565b73ffffffffffffffffffffffffffffffffffffffff1661157e61118c565b73ffffffffffffffffffffffffffffffffffffffff16146115dd576115a16113bd565b6040517f118cdaa70000000000000000000000000000000000000000000000000000000081526004016115d49190611eb2565b60405180910390fd5b565b600260065403611624576040517f08c379a000000000000000000000000000000000000000000000000000000000815260040161161b906125e1565b60405180910390fd5b6002600681905550565b6001600681905550565b5f80600854600b54600954600a5461165091906125ff565b61165a9190612632565b61166491906126a0565b60095461167191906121e5565b9050808361167f91906126a0565b915050919050565b5f80600d54601054600e54600f5461169f91906125ff565b6116a99190612632565b6116b391906126a0565b600e546116c091906121e5565b905080836116ce91906126a0565b915050919050565b5f60055f9054906101000a900473ffffffffffffffffffffffffffffffffffffffff1690508160055f6101000a81548173ffffffffffffffffffffffffffffffffffffffff021916908373ffffffffffffffffffffffffffffffffffffffff1602179055508173ffffffffffffffffffffffffffffffffffffffff168173ffffffffffffffffffffffffffffffffffffffff167f8be0079c531659141344cd1fd0a4f28419497f9722a3daafe3b4186f6b6457e060405160405180910390a35050565b5f73ffffffffffffffffffffffffffffffffffffffff168473ffffffffffffffffffffffffffffffffffffffff1603611809575f6040517fe602df050000000000000000000000000000000000000000000000000000000081526004016118009190611eb2565b60405180910390fd5b5f73ffffffffffffffffffffffffffffffffffffffff168373ffffffffffffffffffffffffffffffffffffffff1603611879575f6040517f94280d620000000000000000000000000000000000000000000000000000000081526004016118709190611eb2565b60405180910390fd5b8160015f8673ffffffffffffffffffffffffffffffffffffffff1673ffffffffffffffffffffffffffffffffffffffff1681526020019081526020015f205f8573ffffffffffffffffffffffffffffffffffffffff1673ffffffffffffffffffffffffffffffffffffffff1681526020019081526020015f20819055508015611962578273ffffffffffffffffffffffffffffffffffffffff168473ffffffffffffffffffffffffffffffffffffffff167f8c5be1e5ebec7d5bd14f71427d1e84f3dd0314c0f7b2291e5b200ac8c7c3b925846040516119599190611db0565b60405180910390a35b50505050565b5f73ffffffffffffffffffffffffffffffffffffffff168373ffffffffffffffffffffffffffffffffffffffff16036119b8578060025f8282546119ac91906121e5565b92505081905550611a86565b5f805f8573ffffffffffffffffffffffffffffffffffffffff1673ffffffffffffffffffffffffffffffffffffffff1681526020019081526020015f2054905081811015611a41578381836040517fe450d38c000000000000000000000000000000000000000000000000000000008152600401611a3893929190612562565b60405180910390fd5b8181035f808673ffffffffffffffffffffffffffffffffffffffff1673ffffffffffffffffffffffffffffffffffffffff1681526020019081526020015f2081905550505b5f73ffffffffffffffffffffffffffffffffffffffff168273ffffffffffffffffffffffffffffffffffffffff1603611acd578060025f8282540392505081905550611b17565b805f808473ffffffffffffffffffffffffffffffffffffffff1673ffffffffffffffffffffffffffffffffffffffff1681526020019081526020015f205f82825401925050819055505b8173ffffffffffffffffffffffffffffffffffffffff168373ffffffffffffffffffffffffffffffffffffffff167fddf252ad1be2c89b69c2b068fc378daa952ba7f163c4a11628f55a4df523b3ef83604051611b749190611db0565b60405180910390a3505050565b5f82825260208201905092915050565b7f44697265637420455448207472616e7366657273206e6f7420616c6c6f7765645f8201527f2e00000000000000000000000000000000000000000000000000000000000000602082015250565b5f611beb602183611b81565b9150611bf682611b91565b604082019050919050565b5f6020820190508181035f830152611c1881611bdf565b9050919050565b5f81519050919050565b8281835e5f83830152505050565b5f601f19601f8301169050919050565b5f611c5182611c1f565b611c5b8185611b81565b9350611c6b818560208601611c29565b611c7481611c37565b840191505092915050565b5f6020820190508181035f830152611c978184611c47565b905092915050565b5f80fd5b5f73ffffffffffffffffffffffffffffffffffffffff82169050919050565b5f611ccc82611ca3565b9050919050565b611cdc81611cc2565b8114611ce6575f80fd5b50565b5f81359050611cf781611cd3565b92915050565b5f819050919050565b611d0f81611cfd565b8114611d19575f80fd5b50565b5f81359050611d2a81611d06565b92915050565b5f8060408385031215611d4657611d45611c9f565b5b5f611d5385828601611ce9565b9250506020611d6485828601611d1c565b9150509250929050565b5f8115159050919050565b611d8281611d6e565b82525050565b5f602082019050611d9b5f830184611d79565b92915050565b611daa81611cfd565b82525050565b5f602082019050611dc35f830184611da1565b92915050565b5f60208284031215611dde57611ddd611c9f565b5b5f611deb84828501611ce9565b91505092915050565b5f805f60608486031215611e0b57611e0a611c9f565b5b5f611e1886828701611ce9565b9350506020611e2986828701611ce9565b9250506040611e3a86828701611d1c565b9150509250925092565b5f60ff82169050919050565b611e5981611e44565b82525050565b5f602082019050611e725f830184611e50565b92915050565b5f60208284031215611e8d57611e8c611c9f565b5b5f611e9a84828501611d1c565b91505092915050565b611eac81611cc2565b82525050565b5f602082019050611ec55f830184611ea3565b92915050565b7f4e487b71000000000000000000000000000000000000000000000000000000005f52602160045260245ffd5b60038110611f0957611f08611ecb565b5b50565b5f819050611f1982611ef8565b919050565b5f611f2882611f0c565b9050919050565b611f3881611f1e565b82525050565b5f602082019050611f515f830184611f2f565b92915050565b5f8060408385031215611f6d57611f6c611c9f565b5b5f611f7a85828601611ce9565b9250506020611f8b85828601611ce9565b9150509250929050565b7f4e487b71000000000000000000000000000000000000000000000000000000005f52602260045260245ffd5b5f6002820490506001821680611fd957607f821691505b602082108103611fec57611feb611f95565b5b50919050565b7f53616c65732074617267657473206e6f7420796574206d65742e0000000000005f82015250565b5f612026601a83611b81565b915061203182611ff2565b602082019050919050565b5f6020820190508181035f8301526120538161201a565b9050919050565b7f507269766174652053616c652068617320616c726561647920737461727465645f8201527f206f7220636f6e636c756465642e000000000000000000000000000000000000602082015250565b5f6120b4602e83611b81565b91506120bf8261205a565b604082019050919050565b5f6020820190508181035f8301526120e1816120a8565b9050919050565b7f4e6f2073616c65206973206163746976652e00000000000000000000000000005f82015250565b5f61211c601283611b81565b9150612127826120e8565b602082019050919050565b5f6020820190508181035f83015261214981612110565b9050919050565b7f507269766174652053616c6520736f6c64206f75742e000000000000000000005f82015250565b5f612184601683611b81565b915061218f82612150565b602082019050919050565b5f6020820190508181035f8301526121b181612178565b9050919050565b7f4e487b71000000000000000000000000000000000000000000000000000000005f52601160045260245ffd5b5f6121ef82611cfd565b91506121fa83611cfd565b9250828201905080821115612212576122116121b8565b5b92915050565b7f4578636565647320507269766174652053616c6520746f6b656e206c696d69745f8201527f2e00000000000000000000000000000000000000000000000000000000000000602082015250565b5f612272602183611b81565b915061227d82612218565b604082019050919050565b5f6020820190508181035f83015261229f81612266565b9050919050565b7f5072652d53616c6520736f6c64206f75742e00000000000000000000000000005f82015250565b5f6122da601283611b81565b91506122e5826122a6565b602082019050919050565b5f6020820190508181035f830152612307816122ce565b9050919050565b7f507572636861736520616d6f756e74206f7574206f66206c696d6974732e00005f82015250565b5f612342601e83611b81565b915061234d8261230e565b602082019050919050565b5f6020820190508181035f83015261236f81612336565b9050919050565b7f45786365656473205072652d53616c6520746f6b656e206c696d69742e0000005f82015250565b5f6123aa601d83611b81565b91506123b582612376565b602082019050919050565b5f6020820190508181035f8301526123d78161239e565b9050919050565b7f56657374696e6720706572696f64206e6f742079657420636f6d706c657465645f8201527f2e00000000000000000000000000000000000000000000000000000000000000602082015250565b5f612438602183611b81565b9150612443826123de565b604082019050919050565b5f6020820190508181035f8301526124658161242c565b9050919050565b7f507269766174652053616c652073686f756c6420626520636f6e636c756465645f8201527f2066697273742e00000000000000000000000000000000000000000000000000602082015250565b5f6124c6602783611b81565b91506124d18261246c565b604082019050919050565b5f6020820190508181035f8301526124f3816124ba565b9050919050565b7f507269766174652053616c6520746172676574206e6f7420726561636865642e5f82015250565b5f61252e602083611b81565b9150612539826124fa565b602082019050919050565b5f6020820190508181035f83015261255b81612522565b9050919050565b5f6060820190506125755f830186611ea3565b6125826020830185611da1565b61258f6040830184611da1565b949350505050565b7f5265656e7472616e637947756172643a207265656e7472616e742063616c6c005f82015250565b5f6125cb601f83611b81565b91506125d682612597565b602082019050919050565b5f6020820190508181035f8301526125f8816125bf565b9050919050565b5f61260982611cfd565b915061261483611cfd565b925082820390508181111561262c5761262b6121b8565b5b92915050565b5f61263c82611cfd565b915061264783611cfd565b925082820261265581611cfd565b9150828204841483151761266c5761266b6121b8565b5b5092915050565b7f4e487b71000000000000000000000000000000000000000000000000000000005f52601260045260245ffd5b5f6126aa82611cfd565b91506126b583611cfd565b9250826126c5576126c4612673565b5b82820490509291505056fea2646970667358221220092d6ebf1ef9f3a25290c943b0061a2486924efb9bf38c01240c66534473fec364736f6c634300081a0033",
					"opcodes": "PUSH1 0x80 PUSH1 0x40 MSTORE PUSH10 0xD3C21BCECCEDA1000000 PUSH1 0x7 SSTORE PUSH11 0x201FCAFC2577D298500000 PUSH1 0x8 SSTORE PUSH7 0x38D7EA4C68000 PUSH1 0x9 SSTORE PUSH7 0xB3697B81284000 PUSH1 0xA SSTORE PUSH0 PUSH1 0xB SSTORE PUSH11 0xFB768105935A2F3000000 PUSH1 0xC SSTORE PUSH11 0x854FDABD6AA1D32FB00000 PUSH1 0xD SSTORE PUSH7 0xB3697B81284000 PUSH1 0xE SSTORE PUSH8 0x16345785D8A0000 PUSH1 0xF SSTORE PUSH0 PUSH1 0x10 SSTORE PUSH0 PUSH1 0x11 PUSH0 PUSH2 0x100 EXP DUP2 SLOAD DUP2 PUSH1 0xFF MUL NOT AND SWAP1 DUP4 PUSH1 0x2 DUP2 GT ISZERO PUSH2 0x98 JUMPI PUSH2 0x97 PUSH2 0x550 JUMP JUMPDEST JUMPDEST MUL OR SWAP1 SSTORE POP PUSH3 0xED4E00 PUSH1 0x14 SSTORE PUSH4 0x1E13380 PUSH1 0x15 SSTORE CALLVALUE DUP1 ISZERO PUSH2 0xB7 JUMPI PUSH0 DUP1 REVERT JUMPDEST POP CALLER PUSH1 0x40 MLOAD DUP1 PUSH1 0x40 ADD PUSH1 0x40 MSTORE DUP1 PUSH1 0x8 DUP2 MSTORE PUSH1 0x20 ADD PUSH32 0x426574746F6B656E000000000000000000000000000000000000000000000000 DUP2 MSTORE POP PUSH1 0x40 MLOAD DUP1 PUSH1 0x40 ADD PUSH1 0x40 MSTORE DUP1 PUSH1 0x4 DUP2 MSTORE PUSH1 0x20 ADD PUSH32 0x4245545400000000000000000000000000000000000000000000000000000000 DUP2 MSTORE POP DUP2 PUSH1 0x3 SWAP1 DUP2 PUSH2 0x134 SWAP2 SWAP1 PUSH2 0x7B7 JUMP JUMPDEST POP DUP1 PUSH1 0x4 SWAP1 DUP2 PUSH2 0x144 SWAP2 SWAP1 PUSH2 0x7B7 JUMP JUMPDEST POP POP POP PUSH0 PUSH20 0xFFFFFFFFFFFFFFFFFFFFFFFFFFFFFFFFFFFFFFFF AND DUP2 PUSH20 0xFFFFFFFFFFFFFFFFFFFFFFFFFFFFFFFFFFFFFFFF AND SUB PUSH2 0x1B7 JUMPI PUSH0 PUSH1 0x40 MLOAD PUSH32 0x1E4FBDF700000000000000000000000000000000000000000000000000000000 DUP2 MSTORE PUSH1 0x4 ADD PUSH2 0x1AE SWAP2 SWAP1 PUSH2 0x8C5 JUMP JUMPDEST PUSH1 0x40 MLOAD DUP1 SWAP2 SUB SWAP1 REVERT JUMPDEST PUSH2 0x1C6 DUP2 PUSH2 0x1EF PUSH1 0x20 SHL PUSH1 0x20 SHR JUMP JUMPDEST POP PUSH1 0x1 PUSH1 0x6 DUP2 SWAP1 SSTORE POP PUSH2 0x1EA ADDRESS PUSH11 0xA56FA5B99019A5C8000000 PUSH2 0x2B2 PUSH1 0x20 SHL PUSH1 0x20 SHR JUMP JUMPDEST PUSH2 0x99B JUMP JUMPDEST PUSH0 PUSH1 0x5 PUSH0 SWAP1 SLOAD SWAP1 PUSH2 0x100 EXP SWAP1 DIV PUSH20 0xFFFFFFFFFFFFFFFFFFFFFFFFFFFFFFFFFFFFFFFF AND SWAP1 POP DUP2 PUSH1 0x5 PUSH0 PUSH2 0x100 EXP DUP2 SLOAD DUP2 PUSH20 0xFFFFFFFFFFFFFFFFFFFFFFFFFFFFFFFFFFFFFFFF MUL NOT AND SWAP1 DUP4 PUSH20 0xFFFFFFFFFFFFFFFFFFFFFFFFFFFFFFFFFFFFFFFF AND MUL OR SWAP1 SSTORE POP DUP2 PUSH20 0xFFFFFFFFFFFFFFFFFFFFFFFFFFFFFFFFFFFFFFFF AND DUP2 PUSH20 0xFFFFFFFFFFFFFFFFFFFFFFFFFFFFFFFFFFFFFFFF AND PUSH32 0x8BE0079C531659141344CD1FD0A4F28419497F9722A3DAAFE3B4186F6B6457E0 PUSH1 0x40 MLOAD PUSH1 0x40 MLOAD DUP1 SWAP2 SUB SWAP1 LOG3 POP POP JUMP JUMPDEST PUSH0 PUSH20 0xFFFFFFFFFFFFFFFFFFFFFFFFFFFFFFFFFFFFFFFF AND DUP3 PUSH20 0xFFFFFFFFFFFFFFFFFFFFFFFFFFFFFFFFFFFFFFFF AND SUB PUSH2 0x322 JUMPI PUSH0 PUSH1 0x40 MLOAD PUSH32 0xEC442F0500000000000000000000000000000000000000000000000000000000 DUP2 MSTORE PUSH1 0x4 ADD PUSH2 0x319 SWAP2 SWAP1 PUSH2 0x8C5 JUMP JUMPDEST PUSH1 0x40 MLOAD DUP1 SWAP2 SUB SWAP1 REVERT JUMPDEST PUSH2 0x333 PUSH0 DUP4 DUP4 PUSH2 0x337 PUSH1 0x20 SHL PUSH1 0x20 SHR JUMP JUMPDEST POP POP JUMP JUMPDEST PUSH0 PUSH20 0xFFFFFFFFFFFFFFFFFFFFFFFFFFFFFFFFFFFFFFFF AND DUP4 PUSH20 0xFFFFFFFFFFFFFFFFFFFFFFFFFFFFFFFFFFFFFFFF AND SUB PUSH2 0x387 JUMPI DUP1 PUSH1 0x2 PUSH0 DUP3 DUP3 SLOAD PUSH2 0x37B SWAP2 SWAP1 PUSH2 0x90B JUMP JUMPDEST SWAP3 POP POP DUP2 SWAP1 SSTORE POP PUSH2 0x455 JUMP JUMPDEST PUSH0 DUP1 PUSH0 DUP6 PUSH20 0xFFFFFFFFFFFFFFFFFFFFFFFFFFFFFFFFFFFFFFFF AND PUSH20 0xFFFFFFFFFFFFFFFFFFFFFFFFFFFFFFFFFFFFFFFF AND DUP2 MSTORE PUSH1 0x20 ADD SWAP1 DUP2 MSTORE PUSH1 0x20 ADD PUSH0 KECCAK256 SLOAD SWAP1 POP DUP2 DUP2 LT ISZERO PUSH2 0x410 JUMPI DUP4 DUP2 DUP4 PUSH1 0x40 MLOAD PUSH32 0xE450D38C00000000000000000000000000000000000000000000000000000000 DUP2 MSTORE PUSH1 0x4 ADD PUSH2 0x407 SWAP4 SWAP3 SWAP2 SWAP1 PUSH2 0x94D JUMP JUMPDEST PUSH1 0x40 MLOAD DUP1 SWAP2 SUB SWAP1 REVERT JUMPDEST DUP2 DUP2 SUB PUSH0 DUP1 DUP7 PUSH20 0xFFFFFFFFFFFFFFFFFFFFFFFFFFFFFFFFFFFFFFFF AND PUSH20 0xFFFFFFFFFFFFFFFFFFFFFFFFFFFFFFFFFFFFFFFF AND DUP2 MSTORE PUSH1 0x20 ADD SWAP1 DUP2 MSTORE PUSH1 0x20 ADD PUSH0 KECCAK256 DUP2 SWAP1 SSTORE POP POP JUMPDEST PUSH0 PUSH20 0xFFFFFFFFFFFFFFFFFFFFFFFFFFFFFFFFFFFFFFFF AND DUP3 PUSH20 0xFFFFFFFFFFFFFFFFFFFFFFFFFFFFFFFFFFFFFFFF AND SUB PUSH2 0x49C JUMPI DUP1 PUSH1 0x2 PUSH0 DUP3 DUP3 SLOAD SUB SWAP3 POP POP DUP2 SWAP1 SSTORE POP PUSH2 0x4E6 JUMP JUMPDEST DUP1 PUSH0 DUP1 DUP5 PUSH20 0xFFFFFFFFFFFFFFFFFFFFFFFFFFFFFFFFFFFFFFFF AND PUSH20 0xFFFFFFFFFFFFFFFFFFFFFFFFFFFFFFFFFFFFFFFF AND DUP2 MSTORE PUSH1 0x20 ADD SWAP1 DUP2 MSTORE PUSH1 0x20 ADD PUSH0 KECCAK256 PUSH0 DUP3 DUP3 SLOAD ADD SWAP3 POP POP DUP2 SWAP1 SSTORE POP JUMPDEST DUP2 PUSH20 0xFFFFFFFFFFFFFFFFFFFFFFFFFFFFFFFFFFFFFFFF AND DUP4 PUSH20 0xFFFFFFFFFFFFFFFFFFFFFFFFFFFFFFFFFFFFFFFF AND PUSH32 0xDDF252AD1BE2C89B69C2B068FC378DAA952BA7F163C4A11628F55A4DF523B3EF DUP4 PUSH1 0x40 MLOAD PUSH2 0x543 SWAP2 SWAP1 PUSH2 0x982 JUMP JUMPDEST PUSH1 0x40 MLOAD DUP1 SWAP2 SUB SWAP1 LOG3 POP POP POP JUMP JUMPDEST PUSH32 0x4E487B7100000000000000000000000000000000000000000000000000000000 PUSH0 MSTORE PUSH1 0x21 PUSH1 0x4 MSTORE PUSH1 0x24 PUSH0 REVERT JUMPDEST PUSH0 DUP2 MLOAD SWAP1 POP SWAP2 SWAP1 POP JUMP JUMPDEST PUSH32 0x4E487B7100000000000000000000000000000000000000000000000000000000 PUSH0 MSTORE PUSH1 0x41 PUSH1 0x4 MSTORE PUSH1 0x24 PUSH0 REVERT JUMPDEST PUSH32 0x4E487B7100000000000000000000000000000000000000000000000000000000 PUSH0 MSTORE PUSH1 0x22 PUSH1 0x4 MSTORE PUSH1 0x24 PUSH0 REVERT JUMPDEST PUSH0 PUSH1 0x2 DUP3 DIV SWAP1 POP PUSH1 0x1 DUP3 AND DUP1 PUSH2 0x5F8 JUMPI PUSH1 0x7F DUP3 AND SWAP2 POP JUMPDEST PUSH1 0x20 DUP3 LT DUP2 SUB PUSH2 0x60B JUMPI PUSH2 0x60A PUSH2 0x5B4 JUMP JUMPDEST JUMPDEST POP SWAP2 SWAP1 POP JUMP JUMPDEST PUSH0 DUP2 SWAP1 POP DUP2 PUSH0 MSTORE PUSH1 0x20 PUSH0 KECCAK256 SWAP1 POP SWAP2 SWAP1 POP JUMP JUMPDEST PUSH0 PUSH1 0x20 PUSH1 0x1F DUP4 ADD DIV SWAP1 POP SWAP2 SWAP1 POP JUMP JUMPDEST PUSH0 DUP3 DUP3 SHL SWAP1 POP SWAP3 SWAP2 POP POP JUMP JUMPDEST PUSH0 PUSH1 0x8 DUP4 MUL PUSH2 0x66D PUSH32 0xFFFFFFFFFFFFFFFFFFFFFFFFFFFFFFFFFFFFFFFFFFFFFFFFFFFFFFFFFFFFFFFF DUP3 PUSH2 0x632 JUMP JUMPDEST PUSH2 0x677 DUP7 DUP4 PUSH2 0x632 JUMP JUMPDEST SWAP6 POP DUP1 NOT DUP5 AND SWAP4 POP DUP1 DUP7 AND DUP5 OR SWAP3 POP POP POP SWAP4 SWAP3 POP POP POP JUMP JUMPDEST PUSH0 DUP2 SWAP1 POP SWAP2 SWAP1 POP JUMP JUMPDEST PUSH0 DUP2 SWAP1 POP SWAP2 SWAP1 POP JUMP JUMPDEST PUSH0 PUSH2 0x6BB PUSH2 0x6B6 PUSH2 0x6B1 DUP5 PUSH2 0x68F JUMP JUMPDEST PUSH2 0x698 JUMP JUMPDEST PUSH2 0x68F JUMP JUMPDEST SWAP1 POP SWAP2 SWAP1 POP JUMP JUMPDEST PUSH0 DUP2 SWAP1 POP SWAP2 SWAP1 POP JUMP JUMPDEST PUSH2 0x6D4 DUP4 PUSH2 0x6A1 JUMP JUMPDEST PUSH2 0x6E8 PUSH2 0x6E0 DUP3 PUSH2 0x6C2 JUMP JUMPDEST DUP5 DUP5 SLOAD PUSH2 0x63E JUMP JUMPDEST DUP3 SSTORE POP POP POP POP JUMP JUMPDEST PUSH0 SWAP1 JUMP JUMPDEST PUSH2 0x6FC PUSH2 0x6F0 JUMP JUMPDEST PUSH2 0x707 DUP2 DUP5 DUP5 PUSH2 0x6CB JUMP JUMPDEST POP POP POP JUMP JUMPDEST JUMPDEST DUP2 DUP2 LT ISZERO PUSH2 0x72A JUMPI PUSH2 0x71F PUSH0 DUP3 PUSH2 0x6F4 JUMP JUMPDEST PUSH1 0x1 DUP2 ADD SWAP1 POP PUSH2 0x70D JUMP JUMPDEST POP POP JUMP JUMPDEST PUSH1 0x1F DUP3 GT ISZERO PUSH2 0x76F JUMPI PUSH2 0x740 DUP2 PUSH2 0x611 JUMP JUMPDEST PUSH2 0x749 DUP5 PUSH2 0x623 JUMP JUMPDEST DUP2 ADD PUSH1 0x20 DUP6 LT ISZERO PUSH2 0x758 JUMPI DUP2 SWAP1 POP JUMPDEST PUSH2 0x76C PUSH2 0x764 DUP6 PUSH2 0x623 JUMP JUMPDEST DUP4 ADD DUP3 PUSH2 0x70C JUMP JUMPDEST POP POP JUMPDEST POP POP POP JUMP JUMPDEST PUSH0 DUP3 DUP3 SHR SWAP1 POP SWAP3 SWAP2 POP POP JUMP JUMPDEST PUSH0 PUSH2 0x78F PUSH0 NOT DUP5 PUSH1 0x8 MUL PUSH2 0x774 JUMP JUMPDEST NOT DUP1 DUP4 AND SWAP2 POP POP SWAP3 SWAP2 POP POP JUMP JUMPDEST PUSH0 PUSH2 0x7A7 DUP4 DUP4 PUSH2 0x780 JUMP JUMPDEST SWAP2 POP DUP3 PUSH1 0x2 MUL DUP3 OR SWAP1 POP SWAP3 SWAP2 POP POP JUMP JUMPDEST PUSH2 0x7C0 DUP3 PUSH2 0x57D JUMP JUMPDEST PUSH8 0xFFFFFFFFFFFFFFFF DUP2 GT ISZERO PUSH2 0x7D9 JUMPI PUSH2 0x7D8 PUSH2 0x587 JUMP JUMPDEST JUMPDEST PUSH2 0x7E3 DUP3 SLOAD PUSH2 0x5E1 JUMP JUMPDEST PUSH2 0x7EE DUP3 DUP3 DUP6 PUSH2 0x72E JUMP JUMPDEST PUSH0 PUSH1 0x20 SWAP1 POP PUSH1 0x1F DUP4 GT PUSH1 0x1 DUP2 EQ PUSH2 0x81F JUMPI PUSH0 DUP5 ISZERO PUSH2 0x80D JUMPI DUP3 DUP8 ADD MLOAD SWAP1 POP JUMPDEST PUSH2 0x817 DUP6 DUP3 PUSH2 0x79C JUMP JUMPDEST DUP7 SSTORE POP PUSH2 0x87E JUMP JUMPDEST PUSH1 0x1F NOT DUP5 AND PUSH2 0x82D DUP7 PUSH2 0x611 JUMP JUMPDEST PUSH0 JUMPDEST DUP3 DUP2 LT ISZERO PUSH2 0x854 JUMPI DUP5 DUP10 ADD MLOAD DUP3 SSTORE PUSH1 0x1 DUP3 ADD SWAP2 POP PUSH1 0x20 DUP6 ADD SWAP5 POP PUSH1 0x20 DUP2 ADD SWAP1 POP PUSH2 0x82F JUMP JUMPDEST DUP7 DUP4 LT ISZERO PUSH2 0x871 JUMPI DUP5 DUP10 ADD MLOAD PUSH2 0x86D PUSH1 0x1F DUP10 AND DUP3 PUSH2 0x780 JUMP JUMPDEST DUP4 SSTORE POP JUMPDEST PUSH1 0x1 PUSH1 0x2 DUP9 MUL ADD DUP9 SSTORE POP POP POP JUMPDEST POP POP POP POP POP POP JUMP JUMPDEST PUSH0 PUSH20 0xFFFFFFFFFFFFFFFFFFFFFFFFFFFFFFFFFFFFFFFF DUP3 AND SWAP1 POP SWAP2 SWAP1 POP JUMP JUMPDEST PUSH0 PUSH2 0x8AF DUP3 PUSH2 0x886 JUMP JUMPDEST SWAP1 POP SWAP2 SWAP1 POP JUMP JUMPDEST PUSH2 0x8BF DUP2 PUSH2 0x8A5 JUMP JUMPDEST DUP3 MSTORE POP POP JUMP JUMPDEST PUSH0 PUSH1 0x20 DUP3 ADD SWAP1 POP PUSH2 0x8D8 PUSH0 DUP4 ADD DUP5 PUSH2 0x8B6 JUMP JUMPDEST SWAP3 SWAP2 POP POP JUMP JUMPDEST PUSH32 0x4E487B7100000000000000000000000000000000000000000000000000000000 PUSH0 MSTORE PUSH1 0x11 PUSH1 0x4 MSTORE PUSH1 0x24 PUSH0 REVERT JUMPDEST PUSH0 PUSH2 0x915 DUP3 PUSH2 0x68F JUMP JUMPDEST SWAP2 POP PUSH2 0x920 DUP4 PUSH2 0x68F JUMP JUMPDEST SWAP3 POP DUP3 DUP3 ADD SWAP1 POP DUP1 DUP3 GT ISZERO PUSH2 0x938 JUMPI PUSH2 0x937 PUSH2 0x8DE JUMP JUMPDEST JUMPDEST SWAP3 SWAP2 POP POP JUMP JUMPDEST PUSH2 0x947 DUP2 PUSH2 0x68F JUMP JUMPDEST DUP3 MSTORE POP POP JUMP JUMPDEST PUSH0 PUSH1 0x60 DUP3 ADD SWAP1 POP PUSH2 0x960 PUSH0 DUP4 ADD DUP7 PUSH2 0x8B6 JUMP JUMPDEST PUSH2 0x96D PUSH1 0x20 DUP4 ADD DUP6 PUSH2 0x93E JUMP JUMPDEST PUSH2 0x97A PUSH1 0x40 DUP4 ADD DUP5 PUSH2 0x93E JUMP JUMPDEST SWAP5 SWAP4 POP POP POP POP JUMP JUMPDEST PUSH0 PUSH1 0x20 DUP3 ADD SWAP1 POP PUSH2 0x995 PUSH0 DUP4 ADD DUP5 PUSH2 0x93E JUMP JUMPDEST SWAP3 SWAP2 POP POP JUMP JUMPDEST PUSH2 0x2706 DUP1 PUSH2 0x9A8 PUSH0 CODECOPY PUSH0 RETURN INVALID PUSH1 0x80 PUSH1 0x40 MSTORE PUSH1 0x4 CALLDATASIZE LT PUSH2 0x1FC JUMPI PUSH0 CALLDATALOAD PUSH1 0xE0 SHR DUP1 PUSH4 0x70A08231 GT PUSH2 0x10C JUMPI DUP1 PUSH4 0xB0E68630 GT PUSH2 0x9F JUMPI DUP1 PUSH4 0xC040E6B8 GT PUSH2 0x6E JUMPI DUP1 PUSH4 0xC040E6B8 EQ PUSH2 0x71F JUMPI DUP1 PUSH4 0xC552E04B EQ PUSH2 0x749 JUMPI DUP1 PUSH4 0xDD62ED3E EQ PUSH2 0x773 JUMPI DUP1 PUSH4 0xE6BD92B9 EQ PUSH2 0x7AF JUMPI DUP1 PUSH4 0xF2FDE38B EQ PUSH2 0x7D9 JUMPI PUSH2 0x23C JUMP JUMPDEST DUP1 PUSH4 0xB0E68630 EQ PUSH2 0x677 JUMPI DUP1 PUSH4 0xB68ED11F EQ PUSH2 0x6A1 JUMPI DUP1 PUSH4 0xBA20CF4C EQ PUSH2 0x6CB JUMPI DUP1 PUSH4 0xBDA95633 EQ PUSH2 0x6F5 JUMPI PUSH2 0x23C JUMP JUMPDEST DUP1 PUSH4 0x902D55A5 GT PUSH2 0xDB JUMPI DUP1 PUSH4 0x902D55A5 EQ PUSH2 0x5BD JUMPI DUP1 PUSH4 0x920168B3 EQ PUSH2 0x5E7 JUMPI DUP1 PUSH4 0x95D89B41 EQ PUSH2 0x611 JUMPI DUP1 PUSH4 0xA9059CBB EQ PUSH2 0x63B JUMPI PUSH2 0x23C JUMP JUMPDEST DUP1 PUSH4 0x70A08231 EQ PUSH2 0x517 JUMPI DUP1 PUSH4 0x715018A6 EQ PUSH2 0x553 JUMPI DUP1 PUSH4 0x8DA5CB5B EQ PUSH2 0x569 JUMPI DUP1 PUSH4 0x8F7713FF EQ PUSH2 0x593 JUMPI PUSH2 0x23C JUMP JUMPDEST DUP1 PUSH4 0x2B1CBC38 GT PUSH2 0x18F JUMPI DUP1 PUSH4 0x3610724E GT PUSH2 0x15E JUMPI DUP1 PUSH4 0x3610724E EQ PUSH2 0x47B JUMPI DUP1 PUSH4 0x40F02AB6 EQ PUSH2 0x497 JUMPI DUP1 PUSH4 0x54DD1DA4 EQ PUSH2 0x4C1 JUMPI DUP1 PUSH4 0x55DD574C EQ PUSH2 0x4D7 JUMPI DUP1 PUSH4 0x5FB3B944 EQ PUSH2 0x4ED JUMPI PUSH2 0x23C JUMP JUMPDEST DUP1 PUSH4 0x2B1CBC38 EQ PUSH2 0x3E9 JUMPI DUP1 PUSH4 0x313CE567 EQ PUSH2 0x425 JUMPI DUP1 PUSH4 0x32C85AC0 EQ PUSH2 0x44F JUMPI DUP1 PUSH4 0x338DBF59 EQ PUSH2 0x465 JUMPI PUSH2 0x23C JUMP JUMPDEST DUP1 PUSH4 0x18160DDD GT PUSH2 0x1CB JUMPI DUP1 PUSH4 0x18160DDD EQ PUSH2 0x331 JUMPI DUP1 PUSH4 0x192399D1 EQ PUSH2 0x35B JUMPI DUP1 PUSH4 0x23B872DD EQ PUSH2 0x397 JUMPI DUP1 PUSH4 0x24600FC3 EQ PUSH2 0x3D3 JUMPI PUSH2 0x23C JUMP JUMPDEST DUP1 PUSH4 0x6FDDE03 EQ PUSH2 0x277 JUMPI DUP1 PUSH4 0x95EA7B3 EQ PUSH2 0x2A1 JUMPI DUP1 PUSH4 0xFE83BB8 EQ PUSH2 0x2DD JUMPI DUP1 PUSH4 0x1514617E EQ PUSH2 0x307 JUMPI PUSH2 0x23C JUMP JUMPDEST CALLDATASIZE PUSH2 0x23C JUMPI PUSH1 0x40 MLOAD PUSH32 0x8C379A000000000000000000000000000000000000000000000000000000000 DUP2 MSTORE PUSH1 0x4 ADD PUSH2 0x233 SWAP1 PUSH2 0x1C01 JUMP JUMPDEST PUSH1 0x40 MLOAD DUP1 SWAP2 SUB SWAP1 REVERT JUMPDEST PUSH1 0x40 MLOAD PUSH32 0x8C379A000000000000000000000000000000000000000000000000000000000 DUP2 MSTORE PUSH1 0x4 ADD PUSH2 0x26E SWAP1 PUSH2 0x1C01 JUMP JUMPDEST PUSH1 0x40 MLOAD DUP1 SWAP2 SUB SWAP1 REVERT JUMPDEST CALLVALUE DUP1 ISZERO PUSH2 0x282 JUMPI PUSH0 DUP1 REVERT JUMPDEST POP PUSH2 0x28B PUSH2 0x801 JUMP JUMPDEST PUSH1 0x40 MLOAD PUSH2 0x298 SWAP2 SWAP1 PUSH2 0x1C7F JUMP JUMPDEST PUSH1 0x40 MLOAD DUP1 SWAP2 SUB SWAP1 RETURN JUMPDEST CALLVALUE DUP1 ISZERO PUSH2 0x2AC JUMPI PUSH0 DUP1 REVERT JUMPDEST POP PUSH2 0x2C7 PUSH1 0x4 DUP1 CALLDATASIZE SUB DUP2 ADD SWAP1 PUSH2 0x2C2 SWAP2 SWAP1 PUSH2 0x1D30 JUMP JUMPDEST PUSH2 0x891 JUMP JUMPDEST PUSH1 0x40 MLOAD PUSH2 0x2D4 SWAP2 SWAP1 PUSH2 0x1D88 JUMP JUMPDEST PUSH1 0x40 MLOAD DUP1 SWAP2 SUB SWAP1 RETURN JUMPDEST CALLVALUE DUP1 ISZERO PUSH2 0x2E8 JUMPI PUSH0 DUP1 REVERT JUMPDEST POP PUSH2 0x2F1 PUSH2 0x8B3 JUMP JUMPDEST PUSH1 0x40 MLOAD PUSH2 0x2FE SWAP2 SWAP1 PUSH2 0x1DB0 JUMP JUMPDEST PUSH1 0x40 MLOAD DUP1 SWAP2 SUB SWAP1 RETURN JUMPDEST CALLVALUE DUP1 ISZERO PUSH2 0x312 JUMPI PUSH0 DUP1 REVERT JUMPDEST POP PUSH2 0x31B PUSH2 0x8B9 JUMP JUMPDEST PUSH1 0x40 MLOAD PUSH2 0x328 SWAP2 SWAP1 PUSH2 0x1DB0 JUMP JUMPDEST PUSH1 0x40 MLOAD DUP1 SWAP2 SUB SWAP1 RETURN JUMPDEST CALLVALUE DUP1 ISZERO PUSH2 0x33C JUMPI PUSH0 DUP1 REVERT JUMPDEST POP PUSH2 0x345 PUSH2 0x8BF JUMP JUMPDEST PUSH1 0x40 MLOAD PUSH2 0x352 SWAP2 SWAP1 PUSH2 0x1DB0 JUMP JUMPDEST PUSH1 0x40 MLOAD DUP1 SWAP2 SUB SWAP1 RETURN JUMPDEST CALLVALUE DUP1 ISZERO PUSH2 0x366 JUMPI PUSH0 DUP1 REVERT JUMPDEST POP PUSH2 0x381 PUSH1 0x4 DUP1 CALLDATASIZE SUB DUP2 ADD SWAP1 PUSH2 0x37C SWAP2 SWAP1 PUSH2 0x1DC9 JUMP JUMPDEST PUSH2 0x8C8 JUMP JUMPDEST PUSH1 0x40 MLOAD PUSH2 0x38E SWAP2 SWAP1 PUSH2 0x1DB0 JUMP JUMPDEST PUSH1 0x40 MLOAD DUP1 SWAP2 SUB SWAP1 RETURN JUMPDEST CALLVALUE DUP1 ISZERO PUSH2 0x3A2 JUMPI PUSH0 DUP1 REVERT JUMPDEST POP PUSH2 0x3BD PUSH1 0x4 DUP1 CALLDATASIZE SUB DUP2 ADD SWAP1 PUSH2 0x3B8 SWAP2 SWAP1 PUSH2 0x1DF4 JUMP JUMPDEST PUSH2 0x8DD JUMP JUMPDEST PUSH1 0x40 MLOAD PUSH2 0x3CA SWAP2 SWAP1 PUSH2 0x1D88 JUMP JUMPDEST PUSH1 0x40 MLOAD DUP1 SWAP2 SUB SWAP1 RETURN JUMPDEST CALLVALUE DUP1 ISZERO PUSH2 0x3DE JUMPI PUSH0 DUP1 REVERT JUMPDEST POP PUSH2 0x3E7 PUSH2 0x90B JUMP JUMPDEST STOP JUMPDEST CALLVALUE DUP1 ISZERO PUSH2 0x3F4 JUMPI PUSH0 DUP1 REVERT JUMPDEST POP PUSH2 0x40F PUSH1 0x4 DUP1 CALLDATASIZE SUB DUP2 ADD SWAP1 PUSH2 0x40A SWAP2 SWAP1 PUSH2 0x1DC9 JUMP JUMPDEST PUSH2 0x970 JUMP JUMPDEST PUSH1 0x40 MLOAD PUSH2 0x41C SWAP2 SWAP1 PUSH2 0x1DB0 JUMP JUMPDEST PUSH1 0x40 MLOAD DUP1 SWAP2 SUB SWAP1 RETURN JUMPDEST CALLVALUE DUP1 ISZERO PUSH2 0x430 JUMPI PUSH0 DUP1 REVERT JUMPDEST POP PUSH2 0x439 PUSH2 0x985 JUMP JUMPDEST PUSH1 0x40 MLOAD PUSH2 0x446 SWAP2 SWAP1 PUSH2 0x1E5F JUMP JUMPDEST PUSH1 0x40 MLOAD DUP1 SWAP2 SUB SWAP1 RETURN JUMPDEST CALLVALUE DUP1 ISZERO PUSH2 0x45A JUMPI PUSH0 DUP1 REVERT JUMPDEST POP PUSH2 0x463 PUSH2 0x98D JUMP JUMPDEST STOP JUMPDEST CALLVALUE DUP1 ISZERO PUSH2 0x470 JUMPI PUSH0 DUP1 REVERT JUMPDEST POP PUSH2 0x479 PUSH2 0xA14 JUMP JUMPDEST STOP JUMPDEST PUSH2 0x495 PUSH1 0x4 DUP1 CALLDATASIZE SUB DUP2 ADD SWAP1 PUSH2 0x490 SWAP2 SWAP1 PUSH2 0x1E78 JUMP JUMPDEST PUSH2 0xABC JUMP JUMPDEST STOP JUMPDEST CALLVALUE DUP1 ISZERO PUSH2 0x4A2 JUMPI PUSH0 DUP1 REVERT JUMPDEST POP PUSH2 0x4AB PUSH2 0xED6 JUMP JUMPDEST PUSH1 0x40 MLOAD PUSH2 0x4B8 SWAP2 SWAP1 PUSH2 0x1DB0 JUMP JUMPDEST PUSH1 0x40 MLOAD DUP1 SWAP2 SUB SWAP1 RETURN JUMPDEST CALLVALUE DUP1 ISZERO PUSH2 0x4CC JUMPI PUSH0 DUP1 REVERT JUMPDEST POP PUSH2 0x4D5 PUSH2 0xEDC JUMP JUMPDEST STOP JUMPDEST CALLVALUE DUP1 ISZERO PUSH2 0x4E2 JUMPI PUSH0 DUP1 REVERT JUMPDEST POP PUSH2 0x4EB PUSH2 0x103F JUMP JUMPDEST STOP JUMPDEST CALLVALUE DUP1 ISZERO PUSH2 0x4F8 JUMPI PUSH0 DUP1 REVERT JUMPDEST POP PUSH2 0x501 PUSH2 0x112E JUMP JUMPDEST PUSH1 0x40 MLOAD PUSH2 0x50E SWAP2 SWAP1 PUSH2 0x1DB0 JUMP JUMPDEST PUSH1 0x40 MLOAD DUP1 SWAP2 SUB SWAP1 RETURN JUMPDEST CALLVALUE DUP1 ISZERO PUSH2 0x522 JUMPI PUSH0 DUP1 REVERT JUMPDEST POP PUSH2 0x53D PUSH1 0x4 DUP1 CALLDATASIZE SUB DUP2 ADD SWAP1 PUSH2 0x538 SWAP2 SWAP1 PUSH2 0x1DC9 JUMP JUMPDEST PUSH2 0x1134 JUMP JUMPDEST PUSH1 0x40 MLOAD PUSH2 0x54A SWAP2 SWAP1 PUSH2 0x1DB0 JUMP JUMPDEST PUSH1 0x40 MLOAD DUP1 SWAP2 SUB SWAP1 RETURN JUMPDEST CALLVALUE DUP1 ISZERO PUSH2 0x55E JUMPI PUSH0 DUP1 REVERT JUMPDEST POP PUSH2 0x567 PUSH2 0x1179 JUMP JUMPDEST STOP JUMPDEST CALLVALUE DUP1 ISZERO PUSH2 0x574 JUMPI PUSH0 DUP1 REVERT JUMPDEST POP PUSH2 0x57D PUSH2 0x118C JUMP JUMPDEST PUSH1 0x40 MLOAD PUSH2 0x58A SWAP2 SWAP1 PUSH2 0x1EB2 JUMP JUMPDEST PUSH1 0x40 MLOAD DUP1 SWAP2 SUB SWAP1 RETURN JUMPDEST CALLVALUE DUP1 ISZERO PUSH2 0x59E JUMPI PUSH0 DUP1 REVERT JUMPDEST POP PUSH2 0x5A7 PUSH2 0x11B4 JUMP JUMPDEST PUSH1 0x40 MLOAD PUSH2 0x5B4 SWAP2 SWAP1 PUSH2 0x1DB0 JUMP JUMPDEST PUSH1 0x40 MLOAD DUP1 SWAP2 SUB SWAP1 RETURN JUMPDEST CALLVALUE DUP1 ISZERO PUSH2 0x5C8 JUMPI PUSH0 DUP1 REVERT JUMPDEST POP PUSH2 0x5D1 PUSH2 0x11BA JUMP JUMPDEST PUSH1 0x40 MLOAD PUSH2 0x5DE SWAP2 SWAP1 PUSH2 0x1DB0 JUMP JUMPDEST PUSH1 0x40 MLOAD DUP1 SWAP2 SUB SWAP1 RETURN JUMPDEST CALLVALUE DUP1 ISZERO PUSH2 0x5F2 JUMPI PUSH0 DUP1 REVERT JUMPDEST POP PUSH2 0x5FB PUSH2 0x11C9 JUMP JUMPDEST PUSH1 0x40 MLOAD PUSH2 0x608 SWAP2 SWAP1 PUSH2 0x1DB0 JUMP JUMPDEST PUSH1 0x40 MLOAD DUP1 SWAP2 SUB SWAP1 RETURN JUMPDEST CALLVALUE DUP1 ISZERO PUSH2 0x61C JUMPI PUSH0 DUP1 REVERT JUMPDEST POP PUSH2 0x625 PUSH2 0x11CF JUMP JUMPDEST PUSH1 0x40 MLOAD PUSH2 0x632 SWAP2 SWAP1 PUSH2 0x1C7F JUMP JUMPDEST PUSH1 0x40 MLOAD DUP1 SWAP2 SUB SWAP1 RETURN JUMPDEST CALLVALUE DUP1 ISZERO PUSH2 0x646 JUMPI PUSH0 DUP1 REVERT JUMPDEST POP PUSH2 0x661 PUSH1 0x4 DUP1 CALLDATASIZE SUB DUP2 ADD SWAP1 PUSH2 0x65C SWAP2 SWAP1 PUSH2 0x1D30 JUMP JUMPDEST PUSH2 0x125F JUMP JUMPDEST PUSH1 0x40 MLOAD PUSH2 0x66E SWAP2 SWAP1 PUSH2 0x1D88 JUMP JUMPDEST PUSH1 0x40 MLOAD DUP1 SWAP2 SUB SWAP1 RETURN JUMPDEST CALLVALUE DUP1 ISZERO PUSH2 0x682 JUMPI PUSH0 DUP1 REVERT JUMPDEST POP PUSH2 0x68B PUSH2 0x1281 JUMP JUMPDEST PUSH1 0x40 MLOAD PUSH2 0x698 SWAP2 SWAP1 PUSH2 0x1DB0 JUMP JUMPDEST PUSH1 0x40 MLOAD DUP1 SWAP2 SUB SWAP1 RETURN JUMPDEST CALLVALUE DUP1 ISZERO PUSH2 0x6AC JUMPI PUSH0 DUP1 REVERT JUMPDEST POP PUSH2 0x6B5 PUSH2 0x1287 JUMP JUMPDEST PUSH1 0x40 MLOAD PUSH2 0x6C2 SWAP2 SWAP1 PUSH2 0x1DB0 JUMP JUMPDEST PUSH1 0x40 MLOAD DUP1 SWAP2 SUB SWAP1 RETURN JUMPDEST CALLVALUE DUP1 ISZERO PUSH2 0x6D6 JUMPI PUSH0 DUP1 REVERT JUMPDEST POP PUSH2 0x6DF PUSH2 0x128D JUMP JUMPDEST PUSH1 0x40 MLOAD PUSH2 0x6EC SWAP2 SWAP1 PUSH2 0x1DB0 JUMP JUMPDEST PUSH1 0x40 MLOAD DUP1 SWAP2 SUB SWAP1 RETURN JUMPDEST CALLVALUE DUP1 ISZERO PUSH2 0x700 JUMPI PUSH0 DUP1 REVERT JUMPDEST POP PUSH2 0x709 PUSH2 0x1293 JUMP JUMPDEST PUSH1 0x40 MLOAD PUSH2 0x716 SWAP2 SWAP1 PUSH2 0x1DB0 JUMP JUMPDEST PUSH1 0x40 MLOAD DUP1 SWAP2 SUB SWAP1 RETURN JUMPDEST CALLVALUE DUP1 ISZERO PUSH2 0x72A JUMPI PUSH0 DUP1 REVERT JUMPDEST POP PUSH2 0x733 PUSH2 0x1299 JUMP JUMPDEST PUSH1 0x40 MLOAD PUSH2 0x740 SWAP2 SWAP1 PUSH2 0x1F3E JUMP JUMPDEST PUSH1 0x40 MLOAD DUP1 SWAP2 SUB SWAP1 RETURN JUMPDEST CALLVALUE DUP1 ISZERO PUSH2 0x754 JUMPI PUSH0 DUP1 REVERT JUMPDEST POP PUSH2 0x75D PUSH2 0x12AB JUMP JUMPDEST PUSH1 0x40 MLOAD PUSH2 0x76A SWAP2 SWAP1 PUSH2 0x1DB0 JUMP JUMPDEST PUSH1 0x40 MLOAD DUP1 SWAP2 SUB SWAP1 RETURN JUMPDEST CALLVALUE DUP1 ISZERO PUSH2 0x77E JUMPI PUSH0 DUP1 REVERT JUMPDEST POP PUSH2 0x799 PUSH1 0x4 DUP1 CALLDATASIZE SUB DUP2 ADD SWAP1 PUSH2 0x794 SWAP2 SWAP1 PUSH2 0x1F57 JUMP JUMPDEST PUSH2 0x12B1 JUMP JUMPDEST PUSH1 0x40 MLOAD PUSH2 0x7A6 SWAP2 SWAP1 PUSH2 0x1DB0 JUMP JUMPDEST PUSH1 0x40 MLOAD DUP1 SWAP2 SUB SWAP1 RETURN JUMPDEST CALLVALUE DUP1 ISZERO PUSH2 0x7BA JUMPI PUSH0 DUP1 REVERT JUMPDEST POP PUSH2 0x7C3 PUSH2 0x1333 JUMP JUMPDEST PUSH1 0x40 MLOAD PUSH2 0x7D0 SWAP2 SWAP1 PUSH2 0x1DB0 JUMP JUMPDEST PUSH1 0x40 MLOAD DUP1 SWAP2 SUB SWAP1 RETURN JUMPDEST CALLVALUE DUP1 ISZERO PUSH2 0x7E4 JUMPI PUSH0 DUP1 REVERT JUMPDEST POP PUSH2 0x7FF PUSH1 0x4 DUP1 CALLDATASIZE SUB DUP2 ADD SWAP1 PUSH2 0x7FA SWAP2 SWAP1 PUSH2 0x1DC9 JUMP JUMPDEST PUSH2 0x1339 JUMP JUMPDEST STOP JUMPDEST PUSH1 0x60 PUSH1 0x3 DUP1 SLOAD PUSH2 0x810 SWAP1 PUSH2 0x1FC2 JUMP JUMPDEST DUP1 PUSH1 0x1F ADD PUSH1 0x20 DUP1 SWAP2 DIV MUL PUSH1 0x20 ADD PUSH1 0x40 MLOAD SWAP1 DUP2 ADD PUSH1 0x40 MSTORE DUP1 SWAP3 SWAP2 SWAP1 DUP2 DUP2 MSTORE PUSH1 0x20 ADD DUP3 DUP1 SLOAD PUSH2 0x83C SWAP1 PUSH2 0x1FC2 JUMP JUMPDEST DUP1 ISZERO PUSH2 0x887 JUMPI DUP1 PUSH1 0x1F LT PUSH2 0x85E JUMPI PUSH2 0x100 DUP1 DUP4 SLOAD DIV MUL DUP4 MSTORE SWAP2 PUSH1 0x20 ADD SWAP2 PUSH2 0x887 JUMP JUMPDEST DUP3 ADD SWAP2 SWAP1 PUSH0 MSTORE PUSH1 0x20 PUSH0 KECCAK256 SWAP1 JUMPDEST DUP2 SLOAD DUP2 MSTORE SWAP1 PUSH1 0x1 ADD SWAP1 PUSH1 0x20 ADD DUP1 DUP4 GT PUSH2 0x86A JUMPI DUP3 SWAP1 SUB PUSH1 0x1F AND DUP3 ADD SWAP2 JUMPDEST POP POP POP POP POP SWAP1 POP SWAP1 JUMP JUMPDEST PUSH0 DUP1 PUSH2 0x89B PUSH2 0x13BD JUMP JUMPDEST SWAP1 POP PUSH2 0x8A8 DUP2 DUP6 DUP6 PUSH2 0x13C4 JUMP JUMPDEST PUSH1 0x1 SWAP2 POP POP SWAP3 SWAP2 POP POP JUMP JUMPDEST PUSH1 0xD SLOAD DUP2 JUMP JUMPDEST PUSH1 0x14 SLOAD DUP2 JUMP JUMPDEST PUSH0 PUSH1 0x2 SLOAD SWAP1 POP SWAP1 JUMP JUMPDEST PUSH1 0x12 PUSH1 0x20 MSTORE DUP1 PUSH0 MSTORE PUSH1 0x40 PUSH0 KECCAK256 PUSH0 SWAP2 POP SWAP1 POP SLOAD DUP2 JUMP JUMPDEST PUSH0 DUP1 PUSH2 0x8E7 PUSH2 0x13BD JUMP JUMPDEST SWAP1 POP PUSH2 0x8F4 DUP6 DUP3 DUP6 PUSH2 0x13D6 JUMP JUMPDEST PUSH2 0x8FF DUP6 DUP6 DUP6 PUSH2 0x1468 JUMP JUMPDEST PUSH1 0x1 SWAP2 POP POP SWAP4 SWAP3 POP POP POP JUMP JUMPDEST PUSH2 0x913 PUSH2 0x1558 JUMP JUMPDEST PUSH2 0x91B PUSH2 0x15DF JUMP JUMPDEST PUSH2 0x923 PUSH2 0x118C JUMP JUMPDEST PUSH20 0xFFFFFFFFFFFFFFFFFFFFFFFFFFFFFFFFFFFFFFFF AND PUSH2 0x8FC SELFBALANCE SWAP1 DUP2 ISZERO MUL SWAP1 PUSH1 0x40 MLOAD PUSH0 PUSH1 0x40 MLOAD DUP1 DUP4 SUB DUP2 DUP6 DUP9 DUP9 CALL SWAP4 POP POP POP POP ISZERO DUP1 ISZERO PUSH2 0x965 JUMPI RETURNDATASIZE PUSH0 DUP1 RETURNDATACOPY RETURNDATASIZE PUSH0 REVERT JUMPDEST POP PUSH2 0x96E PUSH2 0x162E JUMP JUMPDEST JUMP JUMPDEST PUSH1 0x13 PUSH1 0x20 MSTORE DUP1 PUSH0 MSTORE PUSH1 0x40 PUSH0 KECCAK256 PUSH0 SWAP2 POP SWAP1 POP SLOAD DUP2 JUMP JUMPDEST PUSH0 PUSH1 0x12 SWAP1 POP SWAP1 JUMP JUMPDEST PUSH2 0x995 PUSH2 0x1558 JUMP JUMPDEST PUSH1 0x8 SLOAD PUSH1 0xB SLOAD EQ DUP1 PUSH2 0x9AA JUMPI POP PUSH1 0xD SLOAD PUSH1 0x10 SLOAD EQ JUMPDEST PUSH2 0x9E9 JUMPI PUSH1 0x40 MLOAD PUSH32 0x8C379A000000000000000000000000000000000000000000000000000000000 DUP2 MSTORE PUSH1 0x4 ADD PUSH2 0x9E0 SWAP1 PUSH2 0x203C JUMP JUMPDEST PUSH1 0x40 MLOAD DUP1 SWAP2 SUB SWAP1 REVERT JUMPDEST PUSH0 PUSH1 0x11 PUSH0 PUSH2 0x100 EXP DUP2 SLOAD DUP2 PUSH1 0xFF MUL NOT AND SWAP1 DUP4 PUSH1 0x2 DUP2 GT ISZERO PUSH2 0xA0D JUMPI PUSH2 0xA0C PUSH2 0x1ECB JUMP JUMPDEST JUMPDEST MUL OR SWAP1 SSTORE POP JUMP JUMPDEST PUSH2 0xA1C PUSH2 0x1558 JUMP JUMPDEST PUSH0 PUSH1 0x2 DUP2 GT ISZERO PUSH2 0xA2F JUMPI PUSH2 0xA2E PUSH2 0x1ECB JUMP JUMPDEST JUMPDEST PUSH1 0x11 PUSH0 SWAP1 SLOAD SWAP1 PUSH2 0x100 EXP SWAP1 DIV PUSH1 0xFF AND PUSH1 0x2 DUP2 GT ISZERO PUSH2 0xA50 JUMPI PUSH2 0xA4F PUSH2 0x1ECB JUMP JUMPDEST JUMPDEST EQ PUSH2 0xA90 JUMPI PUSH1 0x40 MLOAD PUSH32 0x8C379A000000000000000000000000000000000000000000000000000000000 DUP2 MSTORE PUSH1 0x4 ADD PUSH2 0xA87 SWAP1 PUSH2 0x20CA JUMP JUMPDEST PUSH1 0x40 MLOAD DUP1 SWAP2 SUB SWAP1 REVERT JUMPDEST PUSH1 0x1 PUSH1 0x11 PUSH0 PUSH2 0x100 EXP DUP2 SLOAD DUP2 PUSH1 0xFF MUL NOT AND SWAP1 DUP4 PUSH1 0x2 DUP2 GT ISZERO PUSH2 0xAB5 JUMPI PUSH2 0xAB4 PUSH2 0x1ECB JUMP JUMPDEST JUMPDEST MUL OR SWAP1 SSTORE POP JUMP JUMPDEST PUSH2 0xAC4 PUSH2 0x15DF JUMP JUMPDEST PUSH0 PUSH1 0x2 DUP2 GT ISZERO PUSH2 0xAD7 JUMPI PUSH2 0xAD6 PUSH2 0x1ECB JUMP JUMPDEST JUMPDEST PUSH1 0x11 PUSH0 SWAP1 SLOAD SWAP1 PUSH2 0x100 EXP SWAP1 DIV PUSH1 0xFF AND PUSH1 0x2 DUP2 GT ISZERO PUSH2 0xAF8 JUMPI PUSH2 0xAF7 PUSH2 0x1ECB JUMP JUMPDEST JUMPDEST SUB PUSH2 0xB38 JUMPI PUSH1 0x40 MLOAD PUSH32 0x8C379A000000000000000000000000000000000000000000000000000000000 DUP2 MSTORE PUSH1 0x4 ADD PUSH2 0xB2F SWAP1 PUSH2 0x2132 JUMP JUMPDEST PUSH1 0x40 MLOAD DUP1 SWAP2 SUB SWAP1 REVERT JUMPDEST PUSH0 PUSH1 0x1 PUSH1 0x2 DUP2 GT ISZERO PUSH2 0xB4D JUMPI PUSH2 0xB4C PUSH2 0x1ECB JUMP JUMPDEST JUMPDEST PUSH1 0x11 PUSH0 SWAP1 SLOAD SWAP1 PUSH2 0x100 EXP SWAP1 DIV PUSH1 0xFF AND PUSH1 0x2 DUP2 GT ISZERO PUSH2 0xB6E JUMPI PUSH2 0xB6D PUSH2 0x1ECB JUMP JUMPDEST JUMPDEST SUB PUSH2 0xD25 JUMPI PUSH1 0x8 SLOAD PUSH1 0xB SLOAD LT PUSH2 0xBB9 JUMPI PUSH1 0x40 MLOAD PUSH32 0x8C379A000000000000000000000000000000000000000000000000000000000 DUP2 MSTORE PUSH1 0x4 ADD PUSH2 0xBB0 SWAP1 PUSH2 0x219A JUMP JUMPDEST PUSH1 0x40 MLOAD DUP1 SWAP2 SUB SWAP1 REVERT JUMPDEST PUSH2 0xBC2 DUP3 PUSH2 0x1638 JUMP JUMPDEST SWAP1 POP DUP1 PUSH1 0xB PUSH0 DUP3 DUP3 SLOAD PUSH2 0xBD5 SWAP2 SWAP1 PUSH2 0x21E5 JUMP JUMPDEST SWAP3 POP POP DUP2 SWAP1 SSTORE POP PUSH1 0x8 SLOAD PUSH1 0xB SLOAD GT ISZERO PUSH2 0xC23 JUMPI PUSH1 0x40 MLOAD PUSH32 0x8C379A000000000000000000000000000000000000000000000000000000000 DUP2 MSTORE PUSH1 0x4 ADD PUSH2 0xC1A SWAP1 PUSH2 0x2288 JUMP JUMPDEST PUSH1 0x40 MLOAD DUP1 SWAP2 SUB SWAP1 REVERT JUMPDEST DUP1 PUSH1 0x12 PUSH0 CALLER PUSH20 0xFFFFFFFFFFFFFFFFFFFFFFFFFFFFFFFFFFFFFFFF AND PUSH20 0xFFFFFFFFFFFFFFFFFFFFFFFFFFFFFFFFFFFFFFFF AND DUP2 MSTORE PUSH1 0x20 ADD SWAP1 DUP2 MSTORE PUSH1 0x20 ADD PUSH0 KECCAK256 PUSH0 DUP3 DUP3 SLOAD PUSH2 0xC6F SWAP2 SWAP1 PUSH2 0x21E5 JUMP JUMPDEST SWAP3 POP POP DUP2 SWAP1 SSTORE POP PUSH1 0x14 SLOAD PUSH1 0x15 SLOAD TIMESTAMP PUSH2 0xC87 SWAP2 SWAP1 PUSH2 0x21E5 JUMP JUMPDEST PUSH2 0xC91 SWAP2 SWAP1 PUSH2 0x21E5 JUMP JUMPDEST PUSH1 0x13 PUSH0 CALLER PUSH20 0xFFFFFFFFFFFFFFFFFFFFFFFFFFFFFFFFFFFFFFFF AND PUSH20 0xFFFFFFFFFFFFFFFFFFFFFFFFFFFFFFFFFFFFFFFF AND DUP2 MSTORE PUSH1 0x20 ADD SWAP1 DUP2 MSTORE PUSH1 0x20 ADD PUSH0 KECCAK256 DUP2 SWAP1 SSTORE POP CALLER PUSH20 0xFFFFFFFFFFFFFFFFFFFFFFFFFFFFFFFFFFFFFFFF AND PUSH32 0x8FA81BB0702332EA2A0AEE44BB9E4D359CF4A2C5A820DD59D9129369BDBCA73F DUP3 PUSH1 0x40 MLOAD PUSH2 0xD18 SWAP2 SWAP1 PUSH2 0x1DB0 JUMP JUMPDEST PUSH1 0x40 MLOAD DUP1 SWAP2 SUB SWAP1 LOG2 PUSH2 0xECA JUMP JUMPDEST PUSH1 0x2 DUP1 DUP2 GT ISZERO PUSH2 0xD38 JUMPI PUSH2 0xD37 PUSH2 0x1ECB JUMP JUMPDEST JUMPDEST PUSH1 0x11 PUSH0 SWAP1 SLOAD SWAP1 PUSH2 0x100 EXP SWAP1 DIV PUSH1 0xFF AND PUSH1 0x2 DUP2 GT ISZERO PUSH2 0xD59 JUMPI PUSH2 0xD58 PUSH2 0x1ECB JUMP JUMPDEST JUMPDEST SUB PUSH2 0xEC9 JUMPI PUSH1 0xD SLOAD PUSH1 0x10 SLOAD LT PUSH2 0xDA4 JUMPI PUSH1 0x40 MLOAD PUSH32 0x8C379A000000000000000000000000000000000000000000000000000000000 DUP2 MSTORE PUSH1 0x4 ADD PUSH2 0xD9B SWAP1 PUSH2 0x22F0 JUMP JUMPDEST PUSH1 0x40 MLOAD DUP1 SWAP2 SUB SWAP1 REVERT JUMPDEST PUSH9 0x56BC75E2D63100000 DUP3 LT ISZERO DUP1 ISZERO PUSH2 0xDC6 JUMPI POP PUSH9 0xA2A15D09519BE00000 DUP3 GT ISZERO JUMPDEST PUSH2 0xE05 JUMPI PUSH1 0x40 MLOAD PUSH32 0x8C379A000000000000000000000000000000000000000000000000000000000 DUP2 MSTORE PUSH1 0x4 ADD PUSH2 0xDFC SWAP1 PUSH2 0x2358 JUMP JUMPDEST PUSH1 0x40 MLOAD DUP1 SWAP2 SUB SWAP1 REVERT JUMPDEST PUSH2 0xE0E DUP3 PUSH2 0x1687 JUMP JUMPDEST SWAP1 POP DUP1 PUSH1 0x10 PUSH0 DUP3 DUP3 SLOAD PUSH2 0xE21 SWAP2 SWAP1 PUSH2 0x21E5 JUMP JUMPDEST SWAP3 POP POP DUP2 SWAP1 SSTORE POP PUSH1 0xD SLOAD PUSH1 0x10 SLOAD GT ISZERO PUSH2 0xE6F JUMPI PUSH1 0x40 MLOAD PUSH32 0x8C379A000000000000000000000000000000000000000000000000000000000 DUP2 MSTORE PUSH1 0x4 ADD PUSH2 0xE66 SWAP1 PUSH2 0x23C0 JUMP JUMPDEST PUSH1 0x40 MLOAD DUP1 SWAP2 SUB SWAP1 REVERT JUMPDEST PUSH2 0xE7A ADDRESS CALLER DUP4 PUSH2 0x1468 JUMP JUMPDEST CALLER PUSH20 0xFFFFFFFFFFFFFFFFFFFFFFFFFFFFFFFFFFFFFFFF AND PUSH32 0x550498DC565CC74203B9D14CBA907C9F60CEEFE26E82B37DF98F6CB98529CF19 DUP3 PUSH1 0x40 MLOAD PUSH2 0xEC0 SWAP2 SWAP1 PUSH2 0x1DB0 JUMP JUMPDEST PUSH1 0x40 MLOAD DUP1 SWAP2 SUB SWAP1 LOG2 JUMPDEST JUMPDEST POP PUSH2 0xED3 PUSH2 0x162E JUMP JUMPDEST POP JUMP JUMPDEST PUSH1 0x15 SLOAD DUP2 JUMP JUMPDEST PUSH2 0xEE4 PUSH2 0x15DF JUMP JUMPDEST PUSH1 0x13 PUSH0 CALLER PUSH20 0xFFFFFFFFFFFFFFFFFFFFFFFFFFFFFFFFFFFFFFFF AND PUSH20 0xFFFFFFFFFFFFFFFFFFFFFFFFFFFFFFFFFFFFFFFF AND DUP2 MSTORE PUSH1 0x20 ADD SWAP1 DUP2 MSTORE PUSH1 0x20 ADD PUSH0 KECCAK256 SLOAD TIMESTAMP LT ISZERO PUSH2 0xF64 JUMPI PUSH1 0x40 MLOAD PUSH32 0x8C379A000000000000000000000000000000000000000000000000000000000 DUP2 MSTORE PUSH1 0x4 ADD PUSH2 0xF5B SWAP1 PUSH2 0x244E JUMP JUMPDEST PUSH1 0x40 MLOAD DUP1 SWAP2 SUB SWAP1 REVERT JUMPDEST PUSH0 PUSH1 0x12 PUSH0 CALLER PUSH20 0xFFFFFFFFFFFFFFFFFFFFFFFFFFFFFFFFFFFFFFFF AND PUSH20 0xFFFFFFFFFFFFFFFFFFFFFFFFFFFFFFFFFFFFFFFF AND DUP2 MSTORE PUSH1 0x20 ADD SWAP1 DUP2 MSTORE PUSH1 0x20 ADD PUSH0 KECCAK256 SLOAD SWAP1 POP PUSH0 PUSH1 0x12 PUSH0 CALLER PUSH20 0xFFFFFFFFFFFFFFFFFFFFFFFFFFFFFFFFFFFFFFFF AND PUSH20 0xFFFFFFFFFFFFFFFFFFFFFFFFFFFFFFFFFFFFFFFF AND DUP2 MSTORE PUSH1 0x20 ADD SWAP1 DUP2 MSTORE PUSH1 0x20 ADD PUSH0 KECCAK256 DUP2 SWAP1 SSTORE POP PUSH0 PUSH1 0x13 PUSH0 CALLER PUSH20 0xFFFFFFFFFFFFFFFFFFFFFFFFFFFFFFFFFFFFFFFF AND PUSH20 0xFFFFFFFFFFFFFFFFFFFFFFFFFFFFFFFFFFFFFFFF AND DUP2 MSTORE PUSH1 0x20 ADD SWAP1 DUP2 MSTORE PUSH1 0x20 ADD PUSH0 KECCAK256 DUP2 SWAP1 SSTORE POP PUSH2 0x1034 ADDRESS CALLER DUP4 PUSH2 0x1468 JUMP JUMPDEST POP PUSH2 0x103D PUSH2 0x162E JUMP JUMPDEST JUMP JUMPDEST PUSH2 0x1047 PUSH2 0x1558 JUMP JUMPDEST PUSH1 0x1 PUSH1 0x2 DUP2 GT ISZERO PUSH2 0x105B JUMPI PUSH2 0x105A PUSH2 0x1ECB JUMP JUMPDEST JUMPDEST PUSH1 0x11 PUSH0 SWAP1 SLOAD SWAP1 PUSH2 0x100 EXP SWAP1 DIV PUSH1 0xFF AND PUSH1 0x2 DUP2 GT ISZERO PUSH2 0x107C JUMPI PUSH2 0x107B PUSH2 0x1ECB JUMP JUMPDEST JUMPDEST EQ PUSH2 0x10BC JUMPI PUSH1 0x40 MLOAD PUSH32 0x8C379A000000000000000000000000000000000000000000000000000000000 DUP2 MSTORE PUSH1 0x4 ADD PUSH2 0x10B3 SWAP1 PUSH2 0x24DC JUMP JUMPDEST PUSH1 0x40 MLOAD DUP1 SWAP2 SUB SWAP1 REVERT JUMPDEST PUSH1 0x8 SLOAD PUSH1 0xB SLOAD EQ PUSH2 0x1102 JUMPI PUSH1 0x40 MLOAD PUSH32 0x8C379A000000000000000000000000000000000000000000000000000000000 DUP2 MSTORE PUSH1 0x4 ADD PUSH2 0x10F9 SWAP1 PUSH2 0x2544 JUMP JUMPDEST PUSH1 0x40 MLOAD DUP1 SWAP2 SUB SWAP1 REVERT JUMPDEST PUSH1 0x2 PUSH1 0x11 PUSH0 PUSH2 0x100 EXP DUP2 SLOAD DUP2 PUSH1 0xFF MUL NOT AND SWAP1 DUP4 PUSH1 0x2 DUP2 GT ISZERO PUSH2 0x1127 JUMPI PUSH2 0x1126 PUSH2 0x1ECB JUMP JUMPDEST JUMPDEST MUL OR SWAP1 SSTORE POP JUMP JUMPDEST PUSH1 0xB SLOAD DUP2 JUMP JUMPDEST PUSH0 DUP1 PUSH0 DUP4 PUSH20 0xFFFFFFFFFFFFFFFFFFFFFFFFFFFFFFFFFFFFFFFF AND PUSH20 0xFFFFFFFFFFFFFFFFFFFFFFFFFFFFFFFFFFFFFFFF AND DUP2 MSTORE PUSH1 0x20 ADD SWAP1 DUP2 MSTORE PUSH1 0x20 ADD PUSH0 KECCAK256 SLOAD SWAP1 POP SWAP2 SWAP1 POP JUMP JUMPDEST PUSH2 0x1181 PUSH2 0x1558 JUMP JUMPDEST PUSH2 0x118A PUSH0 PUSH2 0x16D6 JUMP JUMPDEST JUMP JUMPDEST PUSH0 PUSH1 0x5 PUSH0 SWAP1 SLOAD SWAP1 PUSH2 0x100 EXP SWAP1 DIV PUSH20 0xFFFFFFFFFFFFFFFFFFFFFFFFFFFFFFFFFFFFFFFF AND SWAP1 POP SWAP1 JUMP JUMPDEST PUSH1 0xF SLOAD DUP2 JUMP JUMPDEST PUSH11 0xA56FA5B99019A5C8000000 DUP2 JUMP JUMPDEST PUSH1 0xE SLOAD DUP2 JUMP JUMPDEST PUSH1 0x60 PUSH1 0x4 DUP1 SLOAD PUSH2 0x11DE SWAP1 PUSH2 0x1FC2 JUMP JUMPDEST DUP1 PUSH1 0x1F ADD PUSH1 0x20 DUP1 SWAP2 DIV MUL PUSH1 0x20 ADD PUSH1 0x40 MLOAD SWAP1 DUP2 ADD PUSH1 0x40 MSTORE DUP1 SWAP3 SWAP2 SWAP1 DUP2 DUP2 MSTORE PUSH1 0x20 ADD DUP3 DUP1 SLOAD PUSH2 0x120A SWAP1 PUSH2 0x1FC2 JUMP JUMPDEST DUP1 ISZERO PUSH2 0x1255 JUMPI DUP1 PUSH1 0x1F LT PUSH2 0x122C JUMPI PUSH2 0x100 DUP1 DUP4 SLOAD DIV MUL DUP4 MSTORE SWAP2 PUSH1 0x20 ADD SWAP2 PUSH2 0x1255 JUMP JUMPDEST DUP3 ADD SWAP2 SWAP1 PUSH0 MSTORE PUSH1 0x20 PUSH0 KECCAK256 SWAP1 JUMPDEST DUP2 SLOAD DUP2 MSTORE SWAP1 PUSH1 0x1 ADD SWAP1 PUSH1 0x20 ADD DUP1 DUP4 GT PUSH2 0x1238 JUMPI DUP3 SWAP1 SUB PUSH1 0x1F AND DUP3 ADD SWAP2 JUMPDEST POP POP POP POP POP SWAP1 POP SWAP1 JUMP JUMPDEST PUSH0 DUP1 PUSH2 0x1269 PUSH2 0x13BD JUMP JUMPDEST SWAP1 POP PUSH2 0x1276 DUP2 DUP6 DUP6 PUSH2 0x1468 JUMP JUMPDEST PUSH1 0x1 SWAP2 POP POP SWAP3 SWAP2 POP POP JUMP JUMPDEST PUSH1 0x9 SLOAD DUP2 JUMP JUMPDEST PUSH1 0x10 SLOAD DUP2 JUMP JUMPDEST PUSH1 0x7 SLOAD DUP2 JUMP JUMPDEST PUSH1 0xA SLOAD DUP2 JUMP JUMPDEST PUSH1 0x11 PUSH0 SWAP1 SLOAD SWAP1 PUSH2 0x100 EXP SWAP1 DIV PUSH1 0xFF AND DUP2 JUMP JUMPDEST PUSH1 0x8 SLOAD DUP2 JUMP JUMPDEST PUSH0 PUSH1 0x1 PUSH0 DUP5 PUSH20 0xFFFFFFFFFFFFFFFFFFFFFFFFFFFFFFFFFFFFFFFF AND PUSH20 0xFFFFFFFFFFFFFFFFFFFFFFFFFFFFFFFFFFFFFFFF AND DUP2 MSTORE PUSH1 0x20 ADD SWAP1 DUP2 MSTORE PUSH1 0x20 ADD PUSH0 KECCAK256 PUSH0 DUP4 PUSH20 0xFFFFFFFFFFFFFFFFFFFFFFFFFFFFFFFFFFFFFFFF AND PUSH20 0xFFFFFFFFFFFFFFFFFFFFFFFFFFFFFFFFFFFFFFFF AND DUP2 MSTORE PUSH1 0x20 ADD SWAP1 DUP2 MSTORE PUSH1 0x20 ADD PUSH0 KECCAK256 SLOAD SWAP1 POP SWAP3 SWAP2 POP POP JUMP JUMPDEST PUSH1 0xC SLOAD DUP2 JUMP JUMPDEST PUSH2 0x1341 PUSH2 0x1558 JUMP JUMPDEST PUSH0 PUSH20 0xFFFFFFFFFFFFFFFFFFFFFFFFFFFFFFFFFFFFFFFF AND DUP2 PUSH20 0xFFFFFFFFFFFFFFFFFFFFFFFFFFFFFFFFFFFFFFFF AND SUB PUSH2 0x13B1 JUMPI PUSH0 PUSH1 0x40 MLOAD PUSH32 0x1E4FBDF700000000000000000000000000000000000000000000000000000000 DUP2 MSTORE PUSH1 0x4 ADD PUSH2 0x13A8 SWAP2 SWAP1 PUSH2 0x1EB2 JUMP JUMPDEST PUSH1 0x40 MLOAD DUP1 SWAP2 SUB SWAP1 REVERT JUMPDEST PUSH2 0x13BA DUP2 PUSH2 0x16D6 JUMP JUMPDEST POP JUMP JUMPDEST PUSH0 CALLER SWAP1 POP SWAP1 JUMP JUMPDEST PUSH2 0x13D1 DUP4 DUP4 DUP4 PUSH1 0x1 PUSH2 0x1799 JUMP JUMPDEST POP POP POP JUMP JUMPDEST PUSH0 PUSH2 0x13E1 DUP5 DUP5 PUSH2 0x12B1 JUMP JUMPDEST SWAP1 POP PUSH32 0xFFFFFFFFFFFFFFFFFFFFFFFFFFFFFFFFFFFFFFFFFFFFFFFFFFFFFFFFFFFFFFFF DUP2 EQ PUSH2 0x1462 JUMPI DUP2 DUP2 LT ISZERO PUSH2 0x1453 JUMPI DUP3 DUP2 DUP4 PUSH1 0x40 MLOAD PUSH32 0xFB8F41B200000000000000000000000000000000000000000000000000000000 DUP2 MSTORE PUSH1 0x4 ADD PUSH2 0x144A SWAP4 SWAP3 SWAP2 SWAP1 PUSH2 0x2562 JUMP JUMPDEST PUSH1 0x40 MLOAD DUP1 SWAP2 SUB SWAP1 REVERT JUMPDEST PUSH2 0x1461 DUP5 DUP5 DUP5 DUP5 SUB PUSH0 PUSH2 0x1799 JUMP JUMPDEST JUMPDEST POP POP POP POP JUMP JUMPDEST PUSH0 PUSH20 0xFFFFFFFFFFFFFFFFFFFFFFFFFFFFFFFFFFFFFFFF AND DUP4 PUSH20 0xFFFFFFFFFFFFFFFFFFFFFFFFFFFFFFFFFFFFFFFF AND SUB PUSH2 0x14D8 JUMPI PUSH0 PUSH1 0x40 MLOAD PUSH32 0x96C6FD1E00000000000000000000000000000000000000000000000000000000 DUP2 MSTORE PUSH1 0x4 ADD PUSH2 0x14CF SWAP2 SWAP1 PUSH2 0x1EB2 JUMP JUMPDEST PUSH1 0x40 MLOAD DUP1 SWAP2 SUB SWAP1 REVERT JUMPDEST PUSH0 PUSH20 0xFFFFFFFFFFFFFFFFFFFFFFFFFFFFFFFFFFFFFFFF AND DUP3 PUSH20 0xFFFFFFFFFFFFFFFFFFFFFFFFFFFFFFFFFFFFFFFF AND SUB PUSH2 0x1548 JUMPI PUSH0 PUSH1 0x40 MLOAD PUSH32 0xEC442F0500000000000000000000000000000000000000000000000000000000 DUP2 MSTORE PUSH1 0x4 ADD PUSH2 0x153F SWAP2 SWAP1 PUSH2 0x1EB2 JUMP JUMPDEST PUSH1 0x40 MLOAD DUP1 SWAP2 SUB SWAP1 REVERT JUMPDEST PUSH2 0x1553 DUP4 DUP4 DUP4 PUSH2 0x1968 JUMP JUMPDEST POP POP POP JUMP JUMPDEST PUSH2 0x1560 PUSH2 0x13BD JUMP JUMPDEST PUSH20 0xFFFFFFFFFFFFFFFFFFFFFFFFFFFFFFFFFFFFFFFF AND PUSH2 0x157E PUSH2 0x118C JUMP JUMPDEST PUSH20 0xFFFFFFFFFFFFFFFFFFFFFFFFFFFFFFFFFFFFFFFF AND EQ PUSH2 0x15DD JUMPI PUSH2 0x15A1 PUSH2 0x13BD JUMP JUMPDEST PUSH1 0x40 MLOAD PUSH32 0x118CDAA700000000000000000000000000000000000000000000000000000000 DUP2 MSTORE PUSH1 0x4 ADD PUSH2 0x15D4 SWAP2 SWAP1 PUSH2 0x1EB2 JUMP JUMPDEST PUSH1 0x40 MLOAD DUP1 SWAP2 SUB SWAP1 REVERT JUMPDEST JUMP JUMPDEST PUSH1 0x2 PUSH1 0x6 SLOAD SUB PUSH2 0x1624 JUMPI PUSH1 0x40 MLOAD PUSH32 0x8C379A000000000000000000000000000000000000000000000000000000000 DUP2 MSTORE PUSH1 0x4 ADD PUSH2 0x161B SWAP1 PUSH2 0x25E1 JUMP JUMPDEST PUSH1 0x40 MLOAD DUP1 SWAP2 SUB SWAP1 REVERT JUMPDEST PUSH1 0x2 PUSH1 0x6 DUP2 SWAP1 SSTORE POP JUMP JUMPDEST PUSH1 0x1 PUSH1 0x6 DUP2 SWAP1 SSTORE POP JUMP JUMPDEST PUSH0 DUP1 PUSH1 0x8 SLOAD PUSH1 0xB SLOAD PUSH1 0x9 SLOAD PUSH1 0xA SLOAD PUSH2 0x1650 SWAP2 SWAP1 PUSH2 0x25FF JUMP JUMPDEST PUSH2 0x165A SWAP2 SWAP1 PUSH2 0x2632 JUMP JUMPDEST PUSH2 0x1664 SWAP2 SWAP1 PUSH2 0x26A0 JUMP JUMPDEST PUSH1 0x9 SLOAD PUSH2 0x1671 SWAP2 SWAP1 PUSH2 0x21E5 JUMP JUMPDEST SWAP1 POP DUP1 DUP4 PUSH2 0x167F SWAP2 SWAP1 PUSH2 0x26A0 JUMP JUMPDEST SWAP2 POP POP SWAP2 SWAP1 POP JUMP JUMPDEST PUSH0 DUP1 PUSH1 0xD SLOAD PUSH1 0x10 SLOAD PUSH1 0xE SLOAD PUSH1 0xF SLOAD PUSH2 0x169F SWAP2 SWAP1 PUSH2 0x25FF JUMP JUMPDEST PUSH2 0x16A9 SWAP2 SWAP1 PUSH2 0x2632 JUMP JUMPDEST PUSH2 0x16B3 SWAP2 SWAP1 PUSH2 0x26A0 JUMP JUMPDEST PUSH1 0xE SLOAD PUSH2 0x16C0 SWAP2 SWAP1 PUSH2 0x21E5 JUMP JUMPDEST SWAP1 POP DUP1 DUP4 PUSH2 0x16CE SWAP2 SWAP1 PUSH2 0x26A0 JUMP JUMPDEST SWAP2 POP POP SWAP2 SWAP1 POP JUMP JUMPDEST PUSH0 PUSH1 0x5 PUSH0 SWAP1 SLOAD SWAP1 PUSH2 0x100 EXP SWAP1 DIV PUSH20 0xFFFFFFFFFFFFFFFFFFFFFFFFFFFFFFFFFFFFFFFF AND SWAP1 POP DUP2 PUSH1 0x5 PUSH0 PUSH2 0x100 EXP DUP2 SLOAD DUP2 PUSH20 0xFFFFFFFFFFFFFFFFFFFFFFFFFFFFFFFFFFFFFFFF MUL NOT AND SWAP1 DUP4 PUSH20 0xFFFFFFFFFFFFFFFFFFFFFFFFFFFFFFFFFFFFFFFF AND MUL OR SWAP1 SSTORE POP DUP2 PUSH20 0xFFFFFFFFFFFFFFFFFFFFFFFFFFFFFFFFFFFFFFFF AND DUP2 PUSH20 0xFFFFFFFFFFFFFFFFFFFFFFFFFFFFFFFFFFFFFFFF AND PUSH32 0x8BE0079C531659141344CD1FD0A4F28419497F9722A3DAAFE3B4186F6B6457E0 PUSH1 0x40 MLOAD PUSH1 0x40 MLOAD DUP1 SWAP2 SUB SWAP1 LOG3 POP POP JUMP JUMPDEST PUSH0 PUSH20 0xFFFFFFFFFFFFFFFFFFFFFFFFFFFFFFFFFFFFFFFF AND DUP5 PUSH20 0xFFFFFFFFFFFFFFFFFFFFFFFFFFFFFFFFFFFFFFFF AND SUB PUSH2 0x1809 JUMPI PUSH0 PUSH1 0x40 MLOAD PUSH32 0xE602DF0500000000000000000000000000000000000000000000000000000000 DUP2 MSTORE PUSH1 0x4 ADD PUSH2 0x1800 SWAP2 SWAP1 PUSH2 0x1EB2 JUMP JUMPDEST PUSH1 0x40 MLOAD DUP1 SWAP2 SUB SWAP1 REVERT JUMPDEST PUSH0 PUSH20 0xFFFFFFFFFFFFFFFFFFFFFFFFFFFFFFFFFFFFFFFF AND DUP4 PUSH20 0xFFFFFFFFFFFFFFFFFFFFFFFFFFFFFFFFFFFFFFFF AND SUB PUSH2 0x1879 JUMPI PUSH0 PUSH1 0x40 MLOAD PUSH32 0x94280D6200000000000000000000000000000000000000000000000000000000 DUP2 MSTORE PUSH1 0x4 ADD PUSH2 0x1870 SWAP2 SWAP1 PUSH2 0x1EB2 JUMP JUMPDEST PUSH1 0x40 MLOAD DUP1 SWAP2 SUB SWAP1 REVERT JUMPDEST DUP2 PUSH1 0x1 PUSH0 DUP7 PUSH20 0xFFFFFFFFFFFFFFFFFFFFFFFFFFFFFFFFFFFFFFFF AND PUSH20 0xFFFFFFFFFFFFFFFFFFFFFFFFFFFFFFFFFFFFFFFF AND DUP2 MSTORE PUSH1 0x20 ADD SWAP1 DUP2 MSTORE PUSH1 0x20 ADD PUSH0 KECCAK256 PUSH0 DUP6 PUSH20 0xFFFFFFFFFFFFFFFFFFFFFFFFFFFFFFFFFFFFFFFF AND PUSH20 0xFFFFFFFFFFFFFFFFFFFFFFFFFFFFFFFFFFFFFFFF AND DUP2 MSTORE PUSH1 0x20 ADD SWAP1 DUP2 MSTORE PUSH1 0x20 ADD PUSH0 KECCAK256 DUP2 SWAP1 SSTORE POP DUP1 ISZERO PUSH2 0x1962 JUMPI DUP3 PUSH20 0xFFFFFFFFFFFFFFFFFFFFFFFFFFFFFFFFFFFFFFFF AND DUP5 PUSH20 0xFFFFFFFFFFFFFFFFFFFFFFFFFFFFFFFFFFFFFFFF AND PUSH32 0x8C5BE1E5EBEC7D5BD14F71427D1E84F3DD0314C0F7B2291E5B200AC8C7C3B925 DUP5 PUSH1 0x40 MLOAD PUSH2 0x1959 SWAP2 SWAP1 PUSH2 0x1DB0 JUMP JUMPDEST PUSH1 0x40 MLOAD DUP1 SWAP2 SUB SWAP1 LOG3 JUMPDEST POP POP POP POP JUMP JUMPDEST PUSH0 PUSH20 0xFFFFFFFFFFFFFFFFFFFFFFFFFFFFFFFFFFFFFFFF AND DUP4 PUSH20 0xFFFFFFFFFFFFFFFFFFFFFFFFFFFFFFFFFFFFFFFF AND SUB PUSH2 0x19B8 JUMPI DUP1 PUSH1 0x2 PUSH0 DUP3 DUP3 SLOAD PUSH2 0x19AC SWAP2 SWAP1 PUSH2 0x21E5 JUMP JUMPDEST SWAP3 POP POP DUP2 SWAP1 SSTORE POP PUSH2 0x1A86 JUMP JUMPDEST PUSH0 DUP1 PUSH0 DUP6 PUSH20 0xFFFFFFFFFFFFFFFFFFFFFFFFFFFFFFFFFFFFFFFF AND PUSH20 0xFFFFFFFFFFFFFFFFFFFFFFFFFFFFFFFFFFFFFFFF AND DUP2 MSTORE PUSH1 0x20 ADD SWAP1 DUP2 MSTORE PUSH1 0x20 ADD PUSH0 KECCAK256 SLOAD SWAP1 POP DUP2 DUP2 LT ISZERO PUSH2 0x1A41 JUMPI DUP4 DUP2 DUP4 PUSH1 0x40 MLOAD PUSH32 0xE450D38C00000000000000000000000000000000000000000000000000000000 DUP2 MSTORE PUSH1 0x4 ADD PUSH2 0x1A38 SWAP4 SWAP3 SWAP2 SWAP1 PUSH2 0x2562 JUMP JUMPDEST PUSH1 0x40 MLOAD DUP1 SWAP2 SUB SWAP1 REVERT JUMPDEST DUP2 DUP2 SUB PUSH0 DUP1 DUP7 PUSH20 0xFFFFFFFFFFFFFFFFFFFFFFFFFFFFFFFFFFFFFFFF AND PUSH20 0xFFFFFFFFFFFFFFFFFFFFFFFFFFFFFFFFFFFFFFFF AND DUP2 MSTORE PUSH1 0x20 ADD SWAP1 DUP2 MSTORE PUSH1 0x20 ADD PUSH0 KECCAK256 DUP2 SWAP1 SSTORE POP POP JUMPDEST PUSH0 PUSH20 0xFFFFFFFFFFFFFFFFFFFFFFFFFFFFFFFFFFFFFFFF AND DUP3 PUSH20 0xFFFFFFFFFFFFFFFFFFFFFFFFFFFFFFFFFFFFFFFF AND SUB PUSH2 0x1ACD JUMPI DUP1 PUSH1 0x2 PUSH0 DUP3 DUP3 SLOAD SUB SWAP3 POP POP DUP2 SWAP1 SSTORE POP PUSH2 0x1B17 JUMP JUMPDEST DUP1 PUSH0 DUP1 DUP5 PUSH20 0xFFFFFFFFFFFFFFFFFFFFFFFFFFFFFFFFFFFFFFFF AND PUSH20 0xFFFFFFFFFFFFFFFFFFFFFFFFFFFFFFFFFFFFFFFF AND DUP2 MSTORE PUSH1 0x20 ADD SWAP1 DUP2 MSTORE PUSH1 0x20 ADD PUSH0 KECCAK256 PUSH0 DUP3 DUP3 SLOAD ADD SWAP3 POP POP DUP2 SWAP1 SSTORE POP JUMPDEST DUP2 PUSH20 0xFFFFFFFFFFFFFFFFFFFFFFFFFFFFFFFFFFFFFFFF AND DUP4 PUSH20 0xFFFFFFFFFFFFFFFFFFFFFFFFFFFFFFFFFFFFFFFF AND PUSH32 0xDDF252AD1BE2C89B69C2B068FC378DAA952BA7F163C4A11628F55A4DF523B3EF DUP4 PUSH1 0x40 MLOAD PUSH2 0x1B74 SWAP2 SWAP1 PUSH2 0x1DB0 JUMP JUMPDEST PUSH1 0x40 MLOAD DUP1 SWAP2 SUB SWAP1 LOG3 POP POP POP JUMP JUMPDEST PUSH0 DUP3 DUP3 MSTORE PUSH1 0x20 DUP3 ADD SWAP1 POP SWAP3 SWAP2 POP POP JUMP JUMPDEST PUSH32 0x44697265637420455448207472616E7366657273206E6F7420616C6C6F776564 PUSH0 DUP3 ADD MSTORE PUSH32 0x2E00000000000000000000000000000000000000000000000000000000000000 PUSH1 0x20 DUP3 ADD MSTORE POP JUMP JUMPDEST PUSH0 PUSH2 0x1BEB PUSH1 0x21 DUP4 PUSH2 0x1B81 JUMP JUMPDEST SWAP2 POP PUSH2 0x1BF6 DUP3 PUSH2 0x1B91 JUMP JUMPDEST PUSH1 0x40 DUP3 ADD SWAP1 POP SWAP2 SWAP1 POP JUMP JUMPDEST PUSH0 PUSH1 0x20 DUP3 ADD SWAP1 POP DUP2 DUP2 SUB PUSH0 DUP4 ADD MSTORE PUSH2 0x1C18 DUP2 PUSH2 0x1BDF JUMP JUMPDEST SWAP1 POP SWAP2 SWAP1 POP JUMP JUMPDEST PUSH0 DUP2 MLOAD SWAP1 POP SWAP2 SWAP1 POP JUMP JUMPDEST DUP3 DUP2 DUP4 MCOPY PUSH0 DUP4 DUP4 ADD MSTORE POP POP POP JUMP JUMPDEST PUSH0 PUSH1 0x1F NOT PUSH1 0x1F DUP4 ADD AND SWAP1 POP SWAP2 SWAP1 POP JUMP JUMPDEST PUSH0 PUSH2 0x1C51 DUP3 PUSH2 0x1C1F JUMP JUMPDEST PUSH2 0x1C5B DUP2 DUP6 PUSH2 0x1B81 JUMP JUMPDEST SWAP4 POP PUSH2 0x1C6B DUP2 DUP6 PUSH1 0x20 DUP7 ADD PUSH2 0x1C29 JUMP JUMPDEST PUSH2 0x1C74 DUP2 PUSH2 0x1C37 JUMP JUMPDEST DUP5 ADD SWAP2 POP POP SWAP3 SWAP2 POP POP JUMP JUMPDEST PUSH0 PUSH1 0x20 DUP3 ADD SWAP1 POP DUP2 DUP2 SUB PUSH0 DUP4 ADD MSTORE PUSH2 0x1C97 DUP2 DUP5 PUSH2 0x1C47 JUMP JUMPDEST SWAP1 POP SWAP3 SWAP2 POP POP JUMP JUMPDEST PUSH0 DUP1 REVERT JUMPDEST PUSH0 PUSH20 0xFFFFFFFFFFFFFFFFFFFFFFFFFFFFFFFFFFFFFFFF DUP3 AND SWAP1 POP SWAP2 SWAP1 POP JUMP JUMPDEST PUSH0 PUSH2 0x1CCC DUP3 PUSH2 0x1CA3 JUMP JUMPDEST SWAP1 POP SWAP2 SWAP1 POP JUMP JUMPDEST PUSH2 0x1CDC DUP2 PUSH2 0x1CC2 JUMP JUMPDEST DUP2 EQ PUSH2 0x1CE6 JUMPI PUSH0 DUP1 REVERT JUMPDEST POP JUMP JUMPDEST PUSH0 DUP2 CALLDATALOAD SWAP1 POP PUSH2 0x1CF7 DUP2 PUSH2 0x1CD3 JUMP JUMPDEST SWAP3 SWAP2 POP POP JUMP JUMPDEST PUSH0 DUP2 SWAP1 POP SWAP2 SWAP1 POP JUMP JUMPDEST PUSH2 0x1D0F DUP2 PUSH2 0x1CFD JUMP JUMPDEST DUP2 EQ PUSH2 0x1D19 JUMPI PUSH0 DUP1 REVERT JUMPDEST POP JUMP JUMPDEST PUSH0 DUP2 CALLDATALOAD SWAP1 POP PUSH2 0x1D2A DUP2 PUSH2 0x1D06 JUMP JUMPDEST SWAP3 SWAP2 POP POP JUMP JUMPDEST PUSH0 DUP1 PUSH1 0x40 DUP4 DUP6 SUB SLT ISZERO PUSH2 0x1D46 JUMPI PUSH2 0x1D45 PUSH2 0x1C9F JUMP JUMPDEST JUMPDEST PUSH0 PUSH2 0x1D53 DUP6 DUP3 DUP7 ADD PUSH2 0x1CE9 JUMP JUMPDEST SWAP3 POP POP PUSH1 0x20 PUSH2 0x1D64 DUP6 DUP3 DUP7 ADD PUSH2 0x1D1C JUMP JUMPDEST SWAP2 POP POP SWAP3 POP SWAP3 SWAP1 POP JUMP JUMPDEST PUSH0 DUP2 ISZERO ISZERO SWAP1 POP SWAP2 SWAP1 POP JUMP JUMPDEST PUSH2 0x1D82 DUP2 PUSH2 0x1D6E JUMP JUMPDEST DUP3 MSTORE POP POP JUMP JUMPDEST PUSH0 PUSH1 0x20 DUP3 ADD SWAP1 POP PUSH2 0x1D9B PUSH0 DUP4 ADD DUP5 PUSH2 0x1D79 JUMP JUMPDEST SWAP3 SWAP2 POP POP JUMP JUMPDEST PUSH2 0x1DAA DUP2 PUSH2 0x1CFD JUMP JUMPDEST DUP3 MSTORE POP POP JUMP JUMPDEST PUSH0 PUSH1 0x20 DUP3 ADD SWAP1 POP PUSH2 0x1DC3 PUSH0 DUP4 ADD DUP5 PUSH2 0x1DA1 JUMP JUMPDEST SWAP3 SWAP2 POP POP JUMP JUMPDEST PUSH0 PUSH1 0x20 DUP3 DUP5 SUB SLT ISZERO PUSH2 0x1DDE JUMPI PUSH2 0x1DDD PUSH2 0x1C9F JUMP JUMPDEST JUMPDEST PUSH0 PUSH2 0x1DEB DUP5 DUP3 DUP6 ADD PUSH2 0x1CE9 JUMP JUMPDEST SWAP2 POP POP SWAP3 SWAP2 POP POP JUMP JUMPDEST PUSH0 DUP1 PUSH0 PUSH1 0x60 DUP5 DUP7 SUB SLT ISZERO PUSH2 0x1E0B JUMPI PUSH2 0x1E0A PUSH2 0x1C9F JUMP JUMPDEST JUMPDEST PUSH0 PUSH2 0x1E18 DUP7 DUP3 DUP8 ADD PUSH2 0x1CE9 JUMP JUMPDEST SWAP4 POP POP PUSH1 0x20 PUSH2 0x1E29 DUP7 DUP3 DUP8 ADD PUSH2 0x1CE9 JUMP JUMPDEST SWAP3 POP POP PUSH1 0x40 PUSH2 0x1E3A DUP7 DUP3 DUP8 ADD PUSH2 0x1D1C JUMP JUMPDEST SWAP2 POP POP SWAP3 POP SWAP3 POP SWAP3 JUMP JUMPDEST PUSH0 PUSH1 0xFF DUP3 AND SWAP1 POP SWAP2 SWAP1 POP JUMP JUMPDEST PUSH2 0x1E59 DUP2 PUSH2 0x1E44 JUMP JUMPDEST DUP3 MSTORE POP POP JUMP JUMPDEST PUSH0 PUSH1 0x20 DUP3 ADD SWAP1 POP PUSH2 0x1E72 PUSH0 DUP4 ADD DUP5 PUSH2 0x1E50 JUMP JUMPDEST SWAP3 SWAP2 POP POP JUMP JUMPDEST PUSH0 PUSH1 0x20 DUP3 DUP5 SUB SLT ISZERO PUSH2 0x1E8D JUMPI PUSH2 0x1E8C PUSH2 0x1C9F JUMP JUMPDEST JUMPDEST PUSH0 PUSH2 0x1E9A DUP5 DUP3 DUP6 ADD PUSH2 0x1D1C JUMP JUMPDEST SWAP2 POP POP SWAP3 SWAP2 POP POP JUMP JUMPDEST PUSH2 0x1EAC DUP2 PUSH2 0x1CC2 JUMP JUMPDEST DUP3 MSTORE POP POP JUMP JUMPDEST PUSH0 PUSH1 0x20 DUP3 ADD SWAP1 POP PUSH2 0x1EC5 PUSH0 DUP4 ADD DUP5 PUSH2 0x1EA3 JUMP JUMPDEST SWAP3 SWAP2 POP POP JUMP JUMPDEST PUSH32 0x4E487B7100000000000000000000000000000000000000000000000000000000 PUSH0 MSTORE PUSH1 0x21 PUSH1 0x4 MSTORE PUSH1 0x24 PUSH0 REVERT JUMPDEST PUSH1 0x3 DUP2 LT PUSH2 0x1F09 JUMPI PUSH2 0x1F08 PUSH2 0x1ECB JUMP JUMPDEST JUMPDEST POP JUMP JUMPDEST PUSH0 DUP2 SWAP1 POP PUSH2 0x1F19 DUP3 PUSH2 0x1EF8 JUMP JUMPDEST SWAP2 SWAP1 POP JUMP JUMPDEST PUSH0 PUSH2 0x1F28 DUP3 PUSH2 0x1F0C JUMP JUMPDEST SWAP1 POP SWAP2 SWAP1 POP JUMP JUMPDEST PUSH2 0x1F38 DUP2 PUSH2 0x1F1E JUMP JUMPDEST DUP3 MSTORE POP POP JUMP JUMPDEST PUSH0 PUSH1 0x20 DUP3 ADD SWAP1 POP PUSH2 0x1F51 PUSH0 DUP4 ADD DUP5 PUSH2 0x1F2F JUMP JUMPDEST SWAP3 SWAP2 POP POP JUMP JUMPDEST PUSH0 DUP1 PUSH1 0x40 DUP4 DUP6 SUB SLT ISZERO PUSH2 0x1F6D JUMPI PUSH2 0x1F6C PUSH2 0x1C9F JUMP JUMPDEST JUMPDEST PUSH0 PUSH2 0x1F7A DUP6 DUP3 DUP7 ADD PUSH2 0x1CE9 JUMP JUMPDEST SWAP3 POP POP PUSH1 0x20 PUSH2 0x1F8B DUP6 DUP3 DUP7 ADD PUSH2 0x1CE9 JUMP JUMPDEST SWAP2 POP POP SWAP3 POP SWAP3 SWAP1 POP JUMP JUMPDEST PUSH32 0x4E487B7100000000000000000000000000000000000000000000000000000000 PUSH0 MSTORE PUSH1 0x22 PUSH1 0x4 MSTORE PUSH1 0x24 PUSH0 REVERT JUMPDEST PUSH0 PUSH1 0x2 DUP3 DIV SWAP1 POP PUSH1 0x1 DUP3 AND DUP1 PUSH2 0x1FD9 JUMPI PUSH1 0x7F DUP3 AND SWAP2 POP JUMPDEST PUSH1 0x20 DUP3 LT DUP2 SUB PUSH2 0x1FEC JUMPI PUSH2 0x1FEB PUSH2 0x1F95 JUMP JUMPDEST JUMPDEST POP SWAP2 SWAP1 POP JUMP JUMPDEST PUSH32 0x53616C65732074617267657473206E6F7420796574206D65742E000000000000 PUSH0 DUP3 ADD MSTORE POP JUMP JUMPDEST PUSH0 PUSH2 0x2026 PUSH1 0x1A DUP4 PUSH2 0x1B81 JUMP JUMPDEST SWAP2 POP PUSH2 0x2031 DUP3 PUSH2 0x1FF2 JUMP JUMPDEST PUSH1 0x20 DUP3 ADD SWAP1 POP SWAP2 SWAP1 POP JUMP JUMPDEST PUSH0 PUSH1 0x20 DUP3 ADD SWAP1 POP DUP2 DUP2 SUB PUSH0 DUP4 ADD MSTORE PUSH2 0x2053 DUP2 PUSH2 0x201A JUMP JUMPDEST SWAP1 POP SWAP2 SWAP1 POP JUMP JUMPDEST PUSH32 0x507269766174652053616C652068617320616C72656164792073746172746564 PUSH0 DUP3 ADD MSTORE PUSH32 0x206F7220636F6E636C756465642E000000000000000000000000000000000000 PUSH1 0x20 DUP3 ADD MSTORE POP JUMP JUMPDEST PUSH0 PUSH2 0x20B4 PUSH1 0x2E DUP4 PUSH2 0x1B81 JUMP JUMPDEST SWAP2 POP PUSH2 0x20BF DUP3 PUSH2 0x205A JUMP JUMPDEST PUSH1 0x40 DUP3 ADD SWAP1 POP SWAP2 SWAP1 POP JUMP JUMPDEST PUSH0 PUSH1 0x20 DUP3 ADD SWAP1 POP DUP2 DUP2 SUB PUSH0 DUP4 ADD MSTORE PUSH2 0x20E1 DUP2 PUSH2 0x20A8 JUMP JUMPDEST SWAP1 POP SWAP2 SWAP1 POP JUMP JUMPDEST PUSH32 0x4E6F2073616C65206973206163746976652E0000000000000000000000000000 PUSH0 DUP3 ADD MSTORE POP JUMP JUMPDEST PUSH0 PUSH2 0x211C PUSH1 0x12 DUP4 PUSH2 0x1B81 JUMP JUMPDEST SWAP2 POP PUSH2 0x2127 DUP3 PUSH2 0x20E8 JUMP JUMPDEST PUSH1 0x20 DUP3 ADD SWAP1 POP SWAP2 SWAP1 POP JUMP JUMPDEST PUSH0 PUSH1 0x20 DUP3 ADD SWAP1 POP DUP2 DUP2 SUB PUSH0 DUP4 ADD MSTORE PUSH2 0x2149 DUP2 PUSH2 0x2110 JUMP JUMPDEST SWAP1 POP SWAP2 SWAP1 POP JUMP JUMPDEST PUSH32 0x507269766174652053616C6520736F6C64206F75742E00000000000000000000 PUSH0 DUP3 ADD MSTORE POP JUMP JUMPDEST PUSH0 PUSH2 0x2184 PUSH1 0x16 DUP4 PUSH2 0x1B81 JUMP JUMPDEST SWAP2 POP PUSH2 0x218F DUP3 PUSH2 0x2150 JUMP JUMPDEST PUSH1 0x20 DUP3 ADD SWAP1 POP SWAP2 SWAP1 POP JUMP JUMPDEST PUSH0 PUSH1 0x20 DUP3 ADD SWAP1 POP DUP2 DUP2 SUB PUSH0 DUP4 ADD MSTORE PUSH2 0x21B1 DUP2 PUSH2 0x2178 JUMP JUMPDEST SWAP1 POP SWAP2 SWAP1 POP JUMP JUMPDEST PUSH32 0x4E487B7100000000000000000000000000000000000000000000000000000000 PUSH0 MSTORE PUSH1 0x11 PUSH1 0x4 MSTORE PUSH1 0x24 PUSH0 REVERT JUMPDEST PUSH0 PUSH2 0x21EF DUP3 PUSH2 0x1CFD JUMP JUMPDEST SWAP2 POP PUSH2 0x21FA DUP4 PUSH2 0x1CFD JUMP JUMPDEST SWAP3 POP DUP3 DUP3 ADD SWAP1 POP DUP1 DUP3 GT ISZERO PUSH2 0x2212 JUMPI PUSH2 0x2211 PUSH2 0x21B8 JUMP JUMPDEST JUMPDEST SWAP3 SWAP2 POP POP JUMP JUMPDEST PUSH32 0x4578636565647320507269766174652053616C6520746F6B656E206C696D6974 PUSH0 DUP3 ADD MSTORE PUSH32 0x2E00000000000000000000000000000000000000000000000000000000000000 PUSH1 0x20 DUP3 ADD MSTORE POP JUMP JUMPDEST PUSH0 PUSH2 0x2272 PUSH1 0x21 DUP4 PUSH2 0x1B81 JUMP JUMPDEST SWAP2 POP PUSH2 0x227D DUP3 PUSH2 0x2218 JUMP JUMPDEST PUSH1 0x40 DUP3 ADD SWAP1 POP SWAP2 SWAP1 POP JUMP JUMPDEST PUSH0 PUSH1 0x20 DUP3 ADD SWAP1 POP DUP2 DUP2 SUB PUSH0 DUP4 ADD MSTORE PUSH2 0x229F DUP2 PUSH2 0x2266 JUMP JUMPDEST SWAP1 POP SWAP2 SWAP1 POP JUMP JUMPDEST PUSH32 0x5072652D53616C6520736F6C64206F75742E0000000000000000000000000000 PUSH0 DUP3 ADD MSTORE POP JUMP JUMPDEST PUSH0 PUSH2 0x22DA PUSH1 0x12 DUP4 PUSH2 0x1B81 JUMP JUMPDEST SWAP2 POP PUSH2 0x22E5 DUP3 PUSH2 0x22A6 JUMP JUMPDEST PUSH1 0x20 DUP3 ADD SWAP1 POP SWAP2 SWAP1 POP JUMP JUMPDEST PUSH0 PUSH1 0x20 DUP3 ADD SWAP1 POP DUP2 DUP2 SUB PUSH0 DUP4 ADD MSTORE PUSH2 0x2307 DUP2 PUSH2 0x22CE JUMP JUMPDEST SWAP1 POP SWAP2 SWAP1 POP JUMP JUMPDEST PUSH32 0x507572636861736520616D6F756E74206F7574206F66206C696D6974732E0000 PUSH0 DUP3 ADD MSTORE POP JUMP JUMPDEST PUSH0 PUSH2 0x2342 PUSH1 0x1E DUP4 PUSH2 0x1B81 JUMP JUMPDEST SWAP2 POP PUSH2 0x234D DUP3 PUSH2 0x230E JUMP JUMPDEST PUSH1 0x20 DUP3 ADD SWAP1 POP SWAP2 SWAP1 POP JUMP JUMPDEST PUSH0 PUSH1 0x20 DUP3 ADD SWAP1 POP DUP2 DUP2 SUB PUSH0 DUP4 ADD MSTORE PUSH2 0x236F DUP2 PUSH2 0x2336 JUMP JUMPDEST SWAP1 POP SWAP2 SWAP1 POP JUMP JUMPDEST PUSH32 0x45786365656473205072652D53616C6520746F6B656E206C696D69742E000000 PUSH0 DUP3 ADD MSTORE POP JUMP JUMPDEST PUSH0 PUSH2 0x23AA PUSH1 0x1D DUP4 PUSH2 0x1B81 JUMP JUMPDEST SWAP2 POP PUSH2 0x23B5 DUP3 PUSH2 0x2376 JUMP JUMPDEST PUSH1 0x20 DUP3 ADD SWAP1 POP SWAP2 SWAP1 POP JUMP JUMPDEST PUSH0 PUSH1 0x20 DUP3 ADD SWAP1 POP DUP2 DUP2 SUB PUSH0 DUP4 ADD MSTORE PUSH2 0x23D7 DUP2 PUSH2 0x239E JUMP JUMPDEST SWAP1 POP SWAP2 SWAP1 POP JUMP JUMPDEST PUSH32 0x56657374696E6720706572696F64206E6F742079657420636F6D706C65746564 PUSH0 DUP3 ADD MSTORE PUSH32 0x2E00000000000000000000000000000000000000000000000000000000000000 PUSH1 0x20 DUP3 ADD MSTORE POP JUMP JUMPDEST PUSH0 PUSH2 0x2438 PUSH1 0x21 DUP4 PUSH2 0x1B81 JUMP JUMPDEST SWAP2 POP PUSH2 0x2443 DUP3 PUSH2 0x23DE JUMP JUMPDEST PUSH1 0x40 DUP3 ADD SWAP1 POP SWAP2 SWAP1 POP JUMP JUMPDEST PUSH0 PUSH1 0x20 DUP3 ADD SWAP1 POP DUP2 DUP2 SUB PUSH0 DUP4 ADD MSTORE PUSH2 0x2465 DUP2 PUSH2 0x242C JUMP JUMPDEST SWAP1 POP SWAP2 SWAP1 POP JUMP JUMPDEST PUSH32 0x507269766174652053616C652073686F756C6420626520636F6E636C75646564 PUSH0 DUP3 ADD MSTORE PUSH32 0x2066697273742E00000000000000000000000000000000000000000000000000 PUSH1 0x20 DUP3 ADD MSTORE POP JUMP JUMPDEST PUSH0 PUSH2 0x24C6 PUSH1 0x27 DUP4 PUSH2 0x1B81 JUMP JUMPDEST SWAP2 POP PUSH2 0x24D1 DUP3 PUSH2 0x246C JUMP JUMPDEST PUSH1 0x40 DUP3 ADD SWAP1 POP SWAP2 SWAP1 POP JUMP JUMPDEST PUSH0 PUSH1 0x20 DUP3 ADD SWAP1 POP DUP2 DUP2 SUB PUSH0 DUP4 ADD MSTORE PUSH2 0x24F3 DUP2 PUSH2 0x24BA JUMP JUMPDEST SWAP1 POP SWAP2 SWAP1 POP JUMP JUMPDEST PUSH32 0x507269766174652053616C6520746172676574206E6F7420726561636865642E PUSH0 DUP3 ADD MSTORE POP JUMP JUMPDEST PUSH0 PUSH2 0x252E PUSH1 0x20 DUP4 PUSH2 0x1B81 JUMP JUMPDEST SWAP2 POP PUSH2 0x2539 DUP3 PUSH2 0x24FA JUMP JUMPDEST PUSH1 0x20 DUP3 ADD SWAP1 POP SWAP2 SWAP1 POP JUMP JUMPDEST PUSH0 PUSH1 0x20 DUP3 ADD SWAP1 POP DUP2 DUP2 SUB PUSH0 DUP4 ADD MSTORE PUSH2 0x255B DUP2 PUSH2 0x2522 JUMP JUMPDEST SWAP1 POP SWAP2 SWAP1 POP JUMP JUMPDEST PUSH0 PUSH1 0x60 DUP3 ADD SWAP1 POP PUSH2 0x2575 PUSH0 DUP4 ADD DUP7 PUSH2 0x1EA3 JUMP JUMPDEST PUSH2 0x2582 PUSH1 0x20 DUP4 ADD DUP6 PUSH2 0x1DA1 JUMP JUMPDEST PUSH2 0x258F PUSH1 0x40 DUP4 ADD DUP5 PUSH2 0x1DA1 JUMP JUMPDEST SWAP5 SWAP4 POP POP POP POP JUMP JUMPDEST PUSH32 0x5265656E7472616E637947756172643A207265656E7472616E742063616C6C00 PUSH0 DUP3 ADD MSTORE POP JUMP JUMPDEST PUSH0 PUSH2 0x25CB PUSH1 0x1F DUP4 PUSH2 0x1B81 JUMP JUMPDEST SWAP2 POP PUSH2 0x25D6 DUP3 PUSH2 0x2597 JUMP JUMPDEST PUSH1 0x20 DUP3 ADD SWAP1 POP SWAP2 SWAP1 POP JUMP JUMPDEST PUSH0 PUSH1 0x20 DUP3 ADD SWAP1 POP DUP2 DUP2 SUB PUSH0 DUP4 ADD MSTORE PUSH2 0x25F8 DUP2 PUSH2 0x25BF JUMP JUMPDEST SWAP1 POP SWAP2 SWAP1 POP JUMP JUMPDEST PUSH0 PUSH2 0x2609 DUP3 PUSH2 0x1CFD JUMP JUMPDEST SWAP2 POP PUSH2 0x2614 DUP4 PUSH2 0x1CFD JUMP JUMPDEST SWAP3 POP DUP3 DUP3 SUB SWAP1 POP DUP2 DUP2 GT ISZERO PUSH2 0x262C JUMPI PUSH2 0x262B PUSH2 0x21B8 JUMP JUMPDEST JUMPDEST SWAP3 SWAP2 POP POP JUMP JUMPDEST PUSH0 PUSH2 0x263C DUP3 PUSH2 0x1CFD JUMP JUMPDEST SWAP2 POP PUSH2 0x2647 DUP4 PUSH2 0x1CFD JUMP JUMPDEST SWAP3 POP DUP3 DUP3 MUL PUSH2 0x2655 DUP2 PUSH2 0x1CFD JUMP JUMPDEST SWAP2 POP DUP3 DUP3 DIV DUP5 EQ DUP4 ISZERO OR PUSH2 0x266C JUMPI PUSH2 0x266B PUSH2 0x21B8 JUMP JUMPDEST JUMPDEST POP SWAP3 SWAP2 POP POP JUMP JUMPDEST PUSH32 0x4E487B7100000000000000000000000000000000000000000000000000000000 PUSH0 MSTORE PUSH1 0x12 PUSH1 0x4 MSTORE PUSH1 0x24 PUSH0 REVERT JUMPDEST PUSH0 PUSH2 0x26AA DUP3 PUSH2 0x1CFD JUMP JUMPDEST SWAP2 POP PUSH2 0x26B5 DUP4 PUSH2 0x1CFD JUMP JUMPDEST SWAP3 POP DUP3 PUSH2 0x26C5 JUMPI PUSH2 0x26C4 PUSH2 0x2673 JUMP JUMPDEST JUMPDEST DUP3 DUP3 DIV SWAP1 POP SWAP3 SWAP2 POP POP JUMP INVALID LOG2 PUSH5 0x6970667358 0x22 SLT KECCAK256 MULMOD 0x2D PUSH15 0xBF1EF9F3A25290C943B0061A248692 0x4E 0xFB SWAP12 RETURN DUP13 ADD 0x24 0xC PUSH7 0x534473FEC36473 PUSH16 0x6C634300081A00330000000000000000 "
				},
				"gasEstimates": {
					"creation": {
						"codeDepositCost": "1998000",
						"executionCost": "infinite",
						"totalCost": "infinite"
					},
					"external": {
						"": "531",
						"TOTAL_SUPPLY()": "370",
						"allowance(address,address)": "infinite",
						"approve(address,uint256)": "infinite",
						"balanceOf(address)": "2875",
						"buyTokens(uint256)": "infinite",
						"decimals()": "406",
						"haltSales()": "infinite",
						"name()": "infinite",
						"owner()": "2605",
						"preSaleEndPrice()": "2537",
						"preSaleSoldTokens()": "2492",
						"preSaleStartPrice()": "2492",
						"preSaleTarget()": "2535",
						"preSaleTokens()": "2516",
						"privateSaleEndPrice()": "2536",
						"privateSaleSoldTokens()": "2558",
						"privateSaleStartPrice()": "2470",
						"privateSaleTarget()": "2514",
						"privateSaleTokens()": "2491",
						"releaseVestedTokens()": "infinite",
						"renounceOwnership()": "infinite",
						"stage()": "2598",
						"stakeDuration()": "2492",
						"startPreSale()": "infinite",
						"startPrivateSale()": "infinite",
						"symbol()": "infinite",
						"totalSupply()": "2478",
						"transfer(address,uint256)": "infinite",
						"transferFrom(address,address,uint256)": "infinite",
						"transferOwnership(address)": "infinite",
						"vestingBalance(address)": "2870",
						"vestingDuration()": "2538",
						"vestingReleaseTime(address)": "2848",
						"withdrawFunds()": "infinite"
					},
					"internal": {
						"calculatePreSaleTokens(uint256)": "infinite",
						"calculatePrivateSaleTokens(uint256)": "infinite"
					}
				},
				"methodIdentifiers": {
					"TOTAL_SUPPLY()": "902d55a5",
					"allowance(address,address)": "dd62ed3e",
					"approve(address,uint256)": "095ea7b3",
					"balanceOf(address)": "70a08231",
					"buyTokens(uint256)": "3610724e",
					"decimals()": "313ce567",
					"haltSales()": "32c85ac0",
					"name()": "06fdde03",
					"owner()": "8da5cb5b",
					"preSaleEndPrice()": "8f7713ff",
					"preSaleSoldTokens()": "b68ed11f",
					"preSaleStartPrice()": "920168b3",
					"preSaleTarget()": "e6bd92b9",
					"preSaleTokens()": "0fe83bb8",
					"privateSaleEndPrice()": "bda95633",
					"privateSaleSoldTokens()": "5fb3b944",
					"privateSaleStartPrice()": "b0e68630",
					"privateSaleTarget()": "ba20cf4c",
					"privateSaleTokens()": "c552e04b",
					"releaseVestedTokens()": "54dd1da4",
					"renounceOwnership()": "715018a6",
					"stage()": "c040e6b8",
					"stakeDuration()": "40f02ab6",
					"startPreSale()": "55dd574c",
					"startPrivateSale()": "338dbf59",
					"symbol()": "95d89b41",
					"totalSupply()": "18160ddd",
					"transfer(address,uint256)": "a9059cbb",
					"transferFrom(address,address,uint256)": "23b872dd",
					"transferOwnership(address)": "f2fde38b",
					"vestingBalance(address)": "192399d1",
					"vestingDuration()": "1514617e",
					"vestingReleaseTime(address)": "2b1cbc38",
					"withdrawFunds()": "24600fc3"
				}
			},
			"storageLayout": {
				"storage": [
					{
						"astId": 372,
						"contract": "contracts/bettoken.sol:Bettoken",
						"label": "_balances",
						"offset": 0,
						"slot": "0",
						"type": "t_mapping(t_address,t_uint256)"
					},
					{
						"astId": 378,
						"contract": "contracts/bettoken.sol:Bettoken",
						"label": "_allowances",
						"offset": 0,
						"slot": "1",
						"type": "t_mapping(t_address,t_mapping(t_address,t_uint256))"
					},
					{
						"astId": 380,
						"contract": "contracts/bettoken.sol:Bettoken",
						"label": "_totalSupply",
						"offset": 0,
						"slot": "2",
						"type": "t_uint256"
					},
					{
						"astId": 382,
						"contract": "contracts/bettoken.sol:Bettoken",
						"label": "_name",
						"offset": 0,
						"slot": "3",
						"type": "t_string_storage"
					},
					{
						"astId": 384,
						"contract": "contracts/bettoken.sol:Bettoken",
						"label": "_symbol",
						"offset": 0,
						"slot": "4",
						"type": "t_string_storage"
					},
					{
						"astId": 8,
						"contract": "contracts/bettoken.sol:Bettoken",
						"label": "_owner",
						"offset": 0,
						"slot": "5",
						"type": "t_address"
					},
					{
						"astId": 295,
						"contract": "contracts/bettoken.sol:Bettoken",
						"label": "_status",
						"offset": 0,
						"slot": "6",
						"type": "t_uint256"
					},
					{
						"astId": 1339,
						"contract": "contracts/bettoken.sol:Bettoken",
						"label": "privateSaleTarget",
						"offset": 0,
						"slot": "7",
						"type": "t_uint256"
					},
					{
						"astId": 1346,
						"contract": "contracts/bettoken.sol:Bettoken",
						"label": "privateSaleTokens",
						"offset": 0,
						"slot": "8",
						"type": "t_uint256"
					},
					{
						"astId": 1353,
						"contract": "contracts/bettoken.sol:Bettoken",
						"label": "privateSaleStartPrice",
						"offset": 0,
						"slot": "9",
						"type": "t_uint256"
					},
					{
						"astId": 1360,
						"contract": "contracts/bettoken.sol:Bettoken",
						"label": "privateSaleEndPrice",
						"offset": 0,
						"slot": "10",
						"type": "t_uint256"
					},
					{
						"astId": 1363,
						"contract": "contracts/bettoken.sol:Bettoken",
						"label": "privateSaleSoldTokens",
						"offset": 0,
						"slot": "11",
						"type": "t_uint256"
					},
					{
						"astId": 1370,
						"contract": "contracts/bettoken.sol:Bettoken",
						"label": "preSaleTarget",
						"offset": 0,
						"slot": "12",
						"type": "t_uint256"
					},
					{
						"astId": 1377,
						"contract": "contracts/bettoken.sol:Bettoken",
						"label": "preSaleTokens",
						"offset": 0,
						"slot": "13",
						"type": "t_uint256"
					},
					{
						"astId": 1384,
						"contract": "contracts/bettoken.sol:Bettoken",
						"label": "preSaleStartPrice",
						"offset": 0,
						"slot": "14",
						"type": "t_uint256"
					},
					{
						"astId": 1391,
						"contract": "contracts/bettoken.sol:Bettoken",
						"label": "preSaleEndPrice",
						"offset": 0,
						"slot": "15",
						"type": "t_uint256"
					},
					{
						"astId": 1394,
						"contract": "contracts/bettoken.sol:Bettoken",
						"label": "preSaleSoldTokens",
						"offset": 0,
						"slot": "16",
						"type": "t_uint256"
					},
					{
						"astId": 1403,
						"contract": "contracts/bettoken.sol:Bettoken",
						"label": "stage",
						"offset": 0,
						"slot": "17",
						"type": "t_enum(SaleStage)1398"
					},
					{
						"astId": 1407,
						"contract": "contracts/bettoken.sol:Bettoken",
						"label": "vestingBalance",
						"offset": 0,
						"slot": "18",
						"type": "t_mapping(t_address,t_uint256)"
					},
					{
						"astId": 1411,
						"contract": "contracts/bettoken.sol:Bettoken",
						"label": "vestingReleaseTime",
						"offset": 0,
						"slot": "19",
						"type": "t_mapping(t_address,t_uint256)"
					},
					{
						"astId": 1416,
						"contract": "contracts/bettoken.sol:Bettoken",
						"label": "vestingDuration",
						"offset": 0,
						"slot": "20",
						"type": "t_uint256"
					},
					{
						"astId": 1419,
						"contract": "contracts/bettoken.sol:Bettoken",
						"label": "stakeDuration",
						"offset": 0,
						"slot": "21",
						"type": "t_uint256"
					}
				],
				"types": {
					"t_address": {
						"encoding": "inplace",
						"label": "address",
						"numberOfBytes": "20"
					},
					"t_enum(SaleStage)1398": {
						"encoding": "inplace",
						"label": "enum Bettoken.SaleStage",
						"numberOfBytes": "1"
					},
					"t_mapping(t_address,t_mapping(t_address,t_uint256))": {
						"encoding": "mapping",
						"key": "t_address",
						"label": "mapping(address => mapping(address => uint256))",
						"numberOfBytes": "32",
						"value": "t_mapping(t_address,t_uint256)"
					},
					"t_mapping(t_address,t_uint256)": {
						"encoding": "mapping",
						"key": "t_address",
						"label": "mapping(address => uint256)",
						"numberOfBytes": "32",
						"value": "t_uint256"
					},
					"t_string_storage": {
						"encoding": "bytes",
						"label": "string",
						"numberOfBytes": "32"
					},
					"t_uint256": {
						"encoding": "inplace",
						"label": "uint256",
						"numberOfBytes": "32"
					}
				}
			},
			"userdoc": {
				"kind": "user",
				"methods": {},
				"version": 1
			}
		}
	}
}