{
	"contracts/TokenBridgeETH.sol": {
		"TokenBridgeETH": {
			"abi": [
				{
					"inputs": [
						{
							"internalType": "address",
							"name": "_token",
							"type": "address"
						},
						{
							"internalType": "address",
							"name": "_priceFeed",
							"type": "address"
						}
					],
					"stateMutability": "nonpayable",
					"type": "constructor"
				},
				{
					"inputs": [
						{
							"internalType": "address",
							"name": "owner",
							"type": "address"
						}
					],
					"name": "OwnableInvalidOwner",
					"type": "error"
				},
				{
					"inputs": [
						{
							"internalType": "address",
							"name": "account",
							"type": "address"
						}
					],
					"name": "OwnableUnauthorizedAccount",
					"type": "error"
				},
				{
					"anonymous": false,
					"inputs": [
						{
							"indexed": true,
							"internalType": "address",
							"name": "previousOwner",
							"type": "address"
						},
						{
							"indexed": true,
							"internalType": "address",
							"name": "newOwner",
							"type": "address"
						}
					],
					"name": "OwnershipTransferred",
					"type": "event"
				},
				{
					"anonymous": false,
					"inputs": [
						{
							"indexed": false,
							"internalType": "string",
							"name": "message",
							"type": "string"
						}
					],
					"name": "PriceFeedError",
					"type": "event"
				},
				{
					"anonymous": false,
					"inputs": [
						{
							"indexed": true,
							"internalType": "address",
							"name": "user",
							"type": "address"
						},
						{
							"indexed": false,
							"internalType": "uint256",
							"name": "amount",
							"type": "uint256"
						}
					],
					"name": "TokensLocked",
					"type": "event"
				},
				{
					"anonymous": false,
					"inputs": [
						{
							"indexed": true,
							"internalType": "address",
							"name": "user",
							"type": "address"
						},
						{
							"indexed": false,
							"internalType": "uint256",
							"name": "amount",
							"type": "uint256"
						}
					],
					"name": "TokensReleased",
					"type": "event"
				},
				{
					"anonymous": false,
					"inputs": [
						{
							"indexed": true,
							"internalType": "address",
							"name": "user",
							"type": "address"
						},
						{
							"indexed": false,
							"internalType": "uint256",
							"name": "amount",
							"type": "uint256"
						}
					],
					"name": "TransferFailed",
					"type": "event"
				},
				{
					"inputs": [],
					"name": "getLatestPrice",
					"outputs": [
						{
							"internalType": "int256",
							"name": "",
							"type": "int256"
						}
					],
					"stateMutability": "view",
					"type": "function"
				},
				{
					"inputs": [
						{
							"internalType": "uint256",
							"name": "amount",
							"type": "uint256"
						}
					],
					"name": "lockTokens",
					"outputs": [],
					"stateMutability": "nonpayable",
					"type": "function"
				},
				{
					"inputs": [
						{
							"internalType": "address",
							"name": "",
							"type": "address"
						}
					],
					"name": "lockedTokens",
					"outputs": [
						{
							"internalType": "uint256",
							"name": "",
							"type": "uint256"
						}
					],
					"stateMutability": "view",
					"type": "function"
				},
				{
					"inputs": [],
					"name": "owner",
					"outputs": [
						{
							"internalType": "address",
							"name": "",
							"type": "address"
						}
					],
					"stateMutability": "view",
					"type": "function"
				},
				{
					"inputs": [
						{
							"internalType": "address",
							"name": "user",
							"type": "address"
						},
						{
							"internalType": "uint256",
							"name": "amount",
							"type": "uint256"
						}
					],
					"name": "releaseTokens",
					"outputs": [],
					"stateMutability": "nonpayable",
					"type": "function"
				},
				{
					"inputs": [],
					"name": "renounceOwnership",
					"outputs": [],
					"stateMutability": "nonpayable",
					"type": "function"
				},
				{
					"inputs": [],
					"name": "token",
					"outputs": [
						{
							"internalType": "contract IERC20",
							"name": "",
							"type": "address"
						}
					],
					"stateMutability": "view",
					"type": "function"
				},
				{
					"inputs": [
						{
							"internalType": "address",
							"name": "newOwner",
							"type": "address"
						}
					],
					"name": "transferOwnership",
					"outputs": [],
					"stateMutability": "nonpayable",
					"type": "function"
				}
			],
			"devdoc": {
				"errors": {
					"OwnableInvalidOwner(address)": [
						{
							"details": "The owner is not a valid owner account. (eg. `address(0)`)"
						}
					],
					"OwnableUnauthorizedAccount(address)": [
						{
							"details": "The caller account is not authorized to perform an operation."
						}
					]
				},
				"kind": "dev",
				"methods": {
					"owner()": {
						"details": "Returns the address of the current owner."
					},
					"renounceOwnership()": {
						"details": "Leaves the contract without owner. It will not be possible to call `onlyOwner` functions. Can only be called by the current owner. NOTE: Renouncing ownership will leave the contract without an owner, thereby disabling any functionality that is only available to the owner."
					},
					"transferOwnership(address)": {
						"details": "Transfers ownership of the contract to a new account (`newOwner`). Can only be called by the current owner."
					}
				},
				"version": 1
			},
			"evm": {
				"assembly": "    /* \"contracts/TokenBridgeETH.sol\":308:2142  contract TokenBridgeETH is Ownable, ReentrancyGuard {... */\n  mstore(0x40, 0x80)\n    /* \"contracts/TokenBridgeETH.sol\":732:894  constructor(address _token, address _priceFeed) Ownable(msg.sender) {... */\n  callvalue\n  dup1\n  iszero\n  tag_1\n  jumpi\n  0x00\n  dup1\n  revert\ntag_1:\n  pop\n  mload(0x40)\n  sub(codesize, bytecodeSize)\n  dup1\n  bytecodeSize\n  dup4\n  codecopy\n  dup2\n  dup2\n  add\n  0x40\n  mstore\n  dup2\n  add\n  swap1\n  tag_2\n  swap2\n  swap1\n  tag_3\n  jump\t// in\ntag_2:\n    /* \"contracts/TokenBridgeETH.sol\":788:798  msg.sender */\n  caller\n    /* \"@openzeppelin/contracts/access/Ownable.sol\":1297:1298  0 */\n  0x00\n    /* \"@openzeppelin/contracts/access/Ownable.sol\":1273:1299  initialOwner == address(0) */\n  0xffffffffffffffffffffffffffffffffffffffff\n  and\n    /* \"@openzeppelin/contracts/access/Ownable.sol\":1273:1285  initialOwner */\n  dup2\n    /* \"@openzeppelin/contracts/access/Ownable.sol\":1273:1299  initialOwner == address(0) */\n  0xffffffffffffffffffffffffffffffffffffffff\n  and\n  sub\n    /* \"@openzeppelin/contracts/access/Ownable.sol\":1269:1364  if (initialOwner == address(0)) {... */\n  tag_8\n  jumpi\n    /* \"@openzeppelin/contracts/access/Ownable.sol\":1350:1351  0 */\n  0x00\n    /* \"@openzeppelin/contracts/access/Ownable.sol\":1322:1353  OwnableInvalidOwner(address(0)) */\n  mload(0x40)\n  0x1e4fbdf700000000000000000000000000000000000000000000000000000000\n  dup2\n  mstore\n  0x04\n  add\n  tag_9\n  swap2\n  swap1\n  tag_10\n  jump\t// in\ntag_9:\n  mload(0x40)\n  dup1\n  swap2\n  sub\n  swap1\n  revert\n    /* \"@openzeppelin/contracts/access/Ownable.sol\":1269:1364  if (initialOwner == address(0)) {... */\ntag_8:\n    /* \"@openzeppelin/contracts/access/Ownable.sol\":1373:1405  _transferOwnership(initialOwner) */\n  tag_11\n    /* \"@openzeppelin/contracts/access/Ownable.sol\":1392:1404  initialOwner */\n  dup2\n    /* \"@openzeppelin/contracts/access/Ownable.sol\":1373:1391  _transferOwnership */\n  shl(0x20, tag_12)\n    /* \"@openzeppelin/contracts/access/Ownable.sol\":1373:1405  _transferOwnership(initialOwner) */\n  0x20\n  shr\n  jump\t// in\ntag_11:\n    /* \"@openzeppelin/contracts/access/Ownable.sol\":1225:1412  constructor(address initialOwner) {... */\n  pop\n    /* \"@openzeppelin/contracts/security/ReentrancyGuard.sol\":1716:1717  1 */\n  0x01\n    /* \"@openzeppelin/contracts/security/ReentrancyGuard.sol\":1821:1828  _status */\n  dup1\n    /* \"@openzeppelin/contracts/security/ReentrancyGuard.sol\":1821:1843  _status = _NOT_ENTERED */\n  dup2\n  swap1\n  sstore\n  pop\n    /* \"contracts/TokenBridgeETH.sol\":825:831  _token */\n  dup2\n    /* \"contracts/TokenBridgeETH.sol\":810:815  token */\n  0x02\n  0x00\n    /* \"contracts/TokenBridgeETH.sol\":810:832  token = IERC20(_token) */\n  0x0100\n  exp\n  dup2\n  sload\n  dup2\n  0xffffffffffffffffffffffffffffffffffffffff\n  mul\n  not\n  and\n  swap1\n  dup4\n  0xffffffffffffffffffffffffffffffffffffffff\n  and\n  mul\n  or\n  swap1\n  sstore\n  pop\n    /* \"contracts/TokenBridgeETH.sol\":876:886  _priceFeed */\n  dup1\n    /* \"contracts/TokenBridgeETH.sol\":842:851  priceFeed */\n  0x03\n  0x00\n    /* \"contracts/TokenBridgeETH.sol\":842:887  priceFeed = AggregatorV3Interface(_priceFeed) */\n  0x0100\n  exp\n  dup2\n  sload\n  dup2\n  0xffffffffffffffffffffffffffffffffffffffff\n  mul\n  not\n  and\n  swap1\n  dup4\n  0xffffffffffffffffffffffffffffffffffffffff\n  and\n  mul\n  or\n  swap1\n  sstore\n  pop\n    /* \"contracts/TokenBridgeETH.sol\":732:894  constructor(address _token, address _priceFeed) Ownable(msg.sender) {... */\n  pop\n  pop\n    /* \"contracts/TokenBridgeETH.sol\":308:2142  contract TokenBridgeETH is Ownable, ReentrancyGuard {... */\n  jump(tag_15)\n    /* \"@openzeppelin/contracts/access/Ownable.sol\":2912:3099  function _transferOwnership(address newOwner) internal virtual {... */\ntag_12:\n    /* \"@openzeppelin/contracts/access/Ownable.sol\":2985:3001  address oldOwner */\n  0x00\n    /* \"@openzeppelin/contracts/access/Ownable.sol\":3004:3010  _owner */\n  dup1\n  0x00\n  swap1\n  sload\n  swap1\n  0x0100\n  exp\n  swap1\n  div\n  0xffffffffffffffffffffffffffffffffffffffff\n  and\n    /* \"@openzeppelin/contracts/access/Ownable.sol\":2985:3010  address oldOwner = _owner */\n  swap1\n  pop\n    /* \"@openzeppelin/contracts/access/Ownable.sol\":3029:3037  newOwner */\n  dup2\n    /* \"@openzeppelin/contracts/access/Ownable.sol\":3020:3026  _owner */\n  0x00\n  dup1\n    /* \"@openzeppelin/contracts/access/Ownable.sol\":3020:3037  _owner = newOwner */\n  0x0100\n  exp\n  dup2\n  sload\n  dup2\n  0xffffffffffffffffffffffffffffffffffffffff\n  mul\n  not\n  and\n  swap1\n  dup4\n  0xffffffffffffffffffffffffffffffffffffffff\n  and\n  mul\n  or\n  swap1\n  sstore\n  pop\n    /* \"@openzeppelin/contracts/access/Ownable.sol\":3083:3091  newOwner */\n  dup2\n    /* \"@openzeppelin/contracts/access/Ownable.sol\":3052:3092  OwnershipTransferred(oldOwner, newOwner) */\n  0xffffffffffffffffffffffffffffffffffffffff\n  and\n    /* \"@openzeppelin/contracts/access/Ownable.sol\":3073:3081  oldOwner */\n  dup2\n    /* \"@openzeppelin/contracts/access/Ownable.sol\":3052:3092  OwnershipTransferred(oldOwner, newOwner) */\n  0xffffffffffffffffffffffffffffffffffffffff\n  and\n  0x8be0079c531659141344cd1fd0a4f28419497f9722a3daafe3b4186f6b6457e0\n  mload(0x40)\n  mload(0x40)\n  dup1\n  swap2\n  sub\n  swap1\n  log3\n    /* \"@openzeppelin/contracts/access/Ownable.sol\":2975:3099  {... */\n  pop\n    /* \"@openzeppelin/contracts/access/Ownable.sol\":2912:3099  function _transferOwnership(address newOwner) internal virtual {... */\n  pop\n  jump\t// out\n    /* \"#utility.yul\":88:205   */\ntag_18:\n    /* \"#utility.yul\":197:198   */\n  0x00\n    /* \"#utility.yul\":194:195   */\n  dup1\n    /* \"#utility.yul\":187:199   */\n  revert\n    /* \"#utility.yul\":334:460   */\ntag_20:\n    /* \"#utility.yul\":371:378   */\n  0x00\n    /* \"#utility.yul\":411:453   */\n  0xffffffffffffffffffffffffffffffffffffffff\n    /* \"#utility.yul\":404:409   */\n  dup3\n    /* \"#utility.yul\":400:454   */\n  and\n    /* \"#utility.yul\":389:454   */\n  swap1\n  pop\n    /* \"#utility.yul\":334:460   */\n  swap2\n  swap1\n  pop\n  jump\t// out\n    /* \"#utility.yul\":466:562   */\ntag_21:\n    /* \"#utility.yul\":503:510   */\n  0x00\n    /* \"#utility.yul\":532:556   */\n  tag_31\n    /* \"#utility.yul\":550:555   */\n  dup3\n    /* \"#utility.yul\":532:556   */\n  tag_20\n  jump\t// in\ntag_31:\n    /* \"#utility.yul\":521:556   */\n  swap1\n  pop\n    /* \"#utility.yul\":466:562   */\n  swap2\n  swap1\n  pop\n  jump\t// out\n    /* \"#utility.yul\":568:690   */\ntag_22:\n    /* \"#utility.yul\":641:665   */\n  tag_33\n    /* \"#utility.yul\":659:664   */\n  dup2\n    /* \"#utility.yul\":641:665   */\n  tag_21\n  jump\t// in\ntag_33:\n    /* \"#utility.yul\":634:639   */\n  dup2\n    /* \"#utility.yul\":631:666   */\n  eq\n    /* \"#utility.yul\":621:684   */\n  tag_34\n  jumpi\n    /* \"#utility.yul\":680:681   */\n  0x00\n    /* \"#utility.yul\":677:678   */\n  dup1\n    /* \"#utility.yul\":670:682   */\n  revert\n    /* \"#utility.yul\":621:684   */\ntag_34:\n    /* \"#utility.yul\":568:690   */\n  pop\n  jump\t// out\n    /* \"#utility.yul\":696:839   */\ntag_23:\n    /* \"#utility.yul\":753:758   */\n  0x00\n    /* \"#utility.yul\":784:790   */\n  dup2\n    /* \"#utility.yul\":778:791   */\n  mload\n    /* \"#utility.yul\":769:791   */\n  swap1\n  pop\n    /* \"#utility.yul\":800:833   */\n  tag_36\n    /* \"#utility.yul\":827:832   */\n  dup2\n    /* \"#utility.yul\":800:833   */\n  tag_22\n  jump\t// in\ntag_36:\n    /* \"#utility.yul\":696:839   */\n  swap3\n  swap2\n  pop\n  pop\n  jump\t// out\n    /* \"#utility.yul\":845:1352   */\ntag_3:\n    /* \"#utility.yul\":924:930   */\n  0x00\n    /* \"#utility.yul\":932:938   */\n  dup1\n    /* \"#utility.yul\":981:983   */\n  0x40\n    /* \"#utility.yul\":969:978   */\n  dup4\n    /* \"#utility.yul\":960:967   */\n  dup6\n    /* \"#utility.yul\":956:979   */\n  sub\n    /* \"#utility.yul\":952:984   */\n  slt\n    /* \"#utility.yul\":949:1068   */\n  iszero\n  tag_38\n  jumpi\n    /* \"#utility.yul\":987:1066   */\n  tag_39\n  tag_18\n  jump\t// in\ntag_39:\n    /* \"#utility.yul\":949:1068   */\ntag_38:\n    /* \"#utility.yul\":1107:1108   */\n  0x00\n    /* \"#utility.yul\":1132:1196   */\n  tag_40\n    /* \"#utility.yul\":1188:1195   */\n  dup6\n    /* \"#utility.yul\":1179:1185   */\n  dup3\n    /* \"#utility.yul\":1168:1177   */\n  dup7\n    /* \"#utility.yul\":1164:1186   */\n  add\n    /* \"#utility.yul\":1132:1196   */\n  tag_23\n  jump\t// in\ntag_40:\n    /* \"#utility.yul\":1122:1196   */\n  swap3\n  pop\n    /* \"#utility.yul\":1078:1206   */\n  pop\n    /* \"#utility.yul\":1245:1247   */\n  0x20\n    /* \"#utility.yul\":1271:1335   */\n  tag_41\n    /* \"#utility.yul\":1327:1334   */\n  dup6\n    /* \"#utility.yul\":1318:1324   */\n  dup3\n    /* \"#utility.yul\":1307:1316   */\n  dup7\n    /* \"#utility.yul\":1303:1325   */\n  add\n    /* \"#utility.yul\":1271:1335   */\n  tag_23\n  jump\t// in\ntag_41:\n    /* \"#utility.yul\":1261:1335   */\n  swap2\n  pop\n    /* \"#utility.yul\":1216:1345   */\n  pop\n    /* \"#utility.yul\":845:1352   */\n  swap3\n  pop\n  swap3\n  swap1\n  pop\n  jump\t// out\n    /* \"#utility.yul\":1358:1476   */\ntag_24:\n    /* \"#utility.yul\":1445:1469   */\n  tag_43\n    /* \"#utility.yul\":1463:1468   */\n  dup2\n    /* \"#utility.yul\":1445:1469   */\n  tag_21\n  jump\t// in\ntag_43:\n    /* \"#utility.yul\":1440:1443   */\n  dup3\n    /* \"#utility.yul\":1433:1470   */\n  mstore\n    /* \"#utility.yul\":1358:1476   */\n  pop\n  pop\n  jump\t// out\n    /* \"#utility.yul\":1482:1704   */\ntag_10:\n    /* \"#utility.yul\":1575:1579   */\n  0x00\n    /* \"#utility.yul\":1613:1615   */\n  0x20\n    /* \"#utility.yul\":1602:1611   */\n  dup3\n    /* \"#utility.yul\":1598:1616   */\n  add\n    /* \"#utility.yul\":1590:1616   */\n  swap1\n  pop\n    /* \"#utility.yul\":1626:1697   */\n  tag_45\n    /* \"#utility.yul\":1694:1695   */\n  0x00\n    /* \"#utility.yul\":1683:1692   */\n  dup4\n    /* \"#utility.yul\":1679:1696   */\n  add\n    /* \"#utility.yul\":1670:1676   */\n  dup5\n    /* \"#utility.yul\":1626:1697   */\n  tag_24\n  jump\t// in\ntag_45:\n    /* \"#utility.yul\":1482:1704   */\n  swap3\n  swap2\n  pop\n  pop\n  jump\t// out\n    /* \"contracts/TokenBridgeETH.sol\":308:2142  contract TokenBridgeETH is Ownable, ReentrancyGuard {... */\ntag_15:\n  dataSize(sub_0)\n  dup1\n  dataOffset(sub_0)\n  0x00\n  codecopy\n  0x00\n  return\nstop\n\nsub_0: assembly {\n        /* \"contracts/TokenBridgeETH.sol\":308:2142  contract TokenBridgeETH is Ownable, ReentrancyGuard {... */\n      mstore(0x40, 0x80)\n      callvalue\n      dup1\n      iszero\n      tag_1\n      jumpi\n      0x00\n      dup1\n      revert\n    tag_1:\n      pop\n      jumpi(tag_2, lt(calldatasize, 0x04))\n      shr(0xe0, calldataload(0x00))\n      dup1\n      0x8e15f473\n      gt\n      tag_11\n      jumpi\n      dup1\n      0x8e15f473\n      eq\n      tag_7\n      jumpi\n      dup1\n      0xf2fde38b\n      eq\n      tag_8\n      jumpi\n      dup1\n      0xf40d71f1\n      eq\n      tag_9\n      jumpi\n      dup1\n      0xfc0c546a\n      eq\n      tag_10\n      jumpi\n      jump(tag_2)\n    tag_11:\n      dup1\n      0x5eb7413a\n      eq\n      tag_3\n      jumpi\n      dup1\n      0x6e27d889\n      eq\n      tag_4\n      jumpi\n      dup1\n      0x715018a6\n      eq\n      tag_5\n      jumpi\n      dup1\n      0x8da5cb5b\n      eq\n      tag_6\n      jumpi\n    tag_2:\n      0x00\n      dup1\n      revert\n        /* \"contracts/TokenBridgeETH.sol\":437:484  mapping(address => uint256) public lockedTokens */\n    tag_3:\n      tag_12\n      0x04\n      dup1\n      calldatasize\n      sub\n      dup2\n      add\n      swap1\n      tag_13\n      swap2\n      swap1\n      tag_14\n      jump\t// in\n    tag_13:\n      tag_15\n      jump\t// in\n    tag_12:\n      mload(0x40)\n      tag_16\n      swap2\n      swap1\n      tag_17\n      jump\t// in\n    tag_16:\n      mload(0x40)\n      dup1\n      swap2\n      sub\n      swap1\n      return\n        /* \"contracts/TokenBridgeETH.sol\":1208:1680  function lockTokens(uint256 amount) external nonReentrant {... */\n    tag_4:\n      tag_18\n      0x04\n      dup1\n      calldatasize\n      sub\n      dup2\n      add\n      swap1\n      tag_19\n      swap2\n      swap1\n      tag_20\n      jump\t// in\n    tag_19:\n      tag_21\n      jump\t// in\n    tag_18:\n      stop\n        /* \"@openzeppelin/contracts/access/Ownable.sol\":2293:2394  function renounceOwnership() public virtual onlyOwner {... */\n    tag_5:\n      tag_22\n      tag_23\n      jump\t// in\n    tag_22:\n      stop\n        /* \"@openzeppelin/contracts/access/Ownable.sol\":1638:1723  function owner() public view virtual returns (address) {... */\n    tag_6:\n      tag_24\n      tag_25\n      jump\t// in\n    tag_24:\n      mload(0x40)\n      tag_26\n      swap2\n      swap1\n      tag_27\n      jump\t// in\n    tag_26:\n      mload(0x40)\n      dup1\n      swap2\n      sub\n      swap1\n      return\n        /* \"contracts/TokenBridgeETH.sol\":943:1202  function getLatestPrice() public view returns (int) {... */\n    tag_7:\n      tag_28\n      tag_29\n      jump\t// in\n    tag_28:\n      mload(0x40)\n      tag_30\n      swap2\n      swap1\n      tag_31\n      jump\t// in\n    tag_30:\n      mload(0x40)\n      dup1\n      swap2\n      sub\n      swap1\n      return\n        /* \"@openzeppelin/contracts/access/Ownable.sol\":2543:2758  function transferOwnership(address newOwner) public virtual onlyOwner {... */\n    tag_8:\n      tag_32\n      0x04\n      dup1\n      calldatasize\n      sub\n      dup2\n      add\n      swap1\n      tag_33\n      swap2\n      swap1\n      tag_14\n      jump\t// in\n    tag_33:\n      tag_34\n      jump\t// in\n    tag_32:\n      stop\n        /* \"contracts/TokenBridgeETH.sol\":1686:2140  function releaseTokens(address user, uint256 amount) external onlyOwner nonReentrant {... */\n    tag_9:\n      tag_35\n      0x04\n      dup1\n      calldatasize\n      sub\n      dup2\n      add\n      swap1\n      tag_36\n      swap2\n      swap1\n      tag_37\n      jump\t// in\n    tag_36:\n      tag_38\n      jump\t// in\n    tag_35:\n      stop\n        /* \"contracts/TokenBridgeETH.sol\":366:385  IERC20 public token */\n    tag_10:\n      tag_39\n      tag_40\n      jump\t// in\n    tag_39:\n      mload(0x40)\n      tag_41\n      swap2\n      swap1\n      tag_42\n      jump\t// in\n    tag_41:\n      mload(0x40)\n      dup1\n      swap2\n      sub\n      swap1\n      return\n        /* \"contracts/TokenBridgeETH.sol\":437:484  mapping(address => uint256) public lockedTokens */\n    tag_15:\n      mstore(0x20, 0x04)\n      dup1\n      0x00\n      mstore\n      keccak256(0x00, 0x40)\n      0x00\n      swap2\n      pop\n      swap1\n      pop\n      sload\n      dup2\n      jump\t// out\n        /* \"contracts/TokenBridgeETH.sol\":1208:1680  function lockTokens(uint256 amount) external nonReentrant {... */\n    tag_21:\n        /* \"@openzeppelin/contracts/security/ReentrancyGuard.sol\":2261:2282  _nonReentrantBefore() */\n      tag_44\n        /* \"@openzeppelin/contracts/security/ReentrancyGuard.sol\":2261:2280  _nonReentrantBefore */\n      tag_45\n        /* \"@openzeppelin/contracts/security/ReentrancyGuard.sol\":2261:2282  _nonReentrantBefore() */\n      jump\t// in\n    tag_44:\n        /* \"contracts/TokenBridgeETH.sol\":1293:1294  0 */\n      0x00\n        /* \"contracts/TokenBridgeETH.sol\":1284:1290  amount */\n      dup2\n        /* \"contracts/TokenBridgeETH.sol\":1284:1294  amount > 0 */\n      gt\n        /* \"contracts/TokenBridgeETH.sol\":1276:1328  require(amount > 0, \"Amount must be greater than 0\") */\n      tag_47\n      jumpi\n      mload(0x40)\n      0x08c379a000000000000000000000000000000000000000000000000000000000\n      dup2\n      mstore\n      0x04\n      add\n      tag_48\n      swap1\n      tag_49\n      jump\t// in\n    tag_48:\n      mload(0x40)\n      dup1\n      swap2\n      sub\n      swap1\n      revert\n    tag_47:\n        /* \"contracts/TokenBridgeETH.sol\":1339:1348  int price */\n      0x00\n        /* \"contracts/TokenBridgeETH.sol\":1351:1367  getLatestPrice() */\n      tag_50\n        /* \"contracts/TokenBridgeETH.sol\":1351:1365  getLatestPrice */\n      tag_29\n        /* \"contracts/TokenBridgeETH.sol\":1351:1367  getLatestPrice() */\n      jump\t// in\n    tag_50:\n        /* \"contracts/TokenBridgeETH.sol\":1339:1367  int price = getLatestPrice() */\n      swap1\n      pop\n        /* \"contracts/TokenBridgeETH.sol\":1424:1425  0 */\n      0x00\n        /* \"contracts/TokenBridgeETH.sol\":1416:1421  price */\n      dup2\n        /* \"contracts/TokenBridgeETH.sol\":1416:1425  price > 0 */\n      sgt\n        /* \"contracts/TokenBridgeETH.sol\":1408:1446  require(price > 0, \"Price feed error\") */\n      tag_51\n      jumpi\n      mload(0x40)\n      0x08c379a000000000000000000000000000000000000000000000000000000000\n      dup2\n      mstore\n      0x04\n      add\n      tag_52\n      swap1\n      tag_53\n      jump\t// in\n    tag_52:\n      mload(0x40)\n      dup1\n      swap2\n      sub\n      swap1\n      revert\n    tag_51:\n        /* \"contracts/TokenBridgeETH.sol\":1508:1513  token */\n      0x02\n      0x00\n      swap1\n      sload\n      swap1\n      0x0100\n      exp\n      swap1\n      div\n      0xffffffffffffffffffffffffffffffffffffffff\n      and\n        /* \"contracts/TokenBridgeETH.sol\":1508:1526  token.transferFrom */\n      0xffffffffffffffffffffffffffffffffffffffff\n      and\n      0x23b872dd\n        /* \"contracts/TokenBridgeETH.sol\":1527:1537  msg.sender */\n      caller\n        /* \"contracts/TokenBridgeETH.sol\":1547:1551  this */\n      address\n        /* \"contracts/TokenBridgeETH.sol\":1554:1560  amount */\n      dup6\n        /* \"contracts/TokenBridgeETH.sol\":1508:1561  token.transferFrom(msg.sender, address(this), amount) */\n      mload(0x40)\n      dup5\n      0xffffffff\n      and\n      0xe0\n      shl\n      dup2\n      mstore\n      0x04\n      add\n      tag_54\n      swap4\n      swap3\n      swap2\n      swap1\n      tag_55\n      jump\t// in\n    tag_54:\n      0x20\n      mload(0x40)\n      dup1\n      dup4\n      sub\n      dup2\n      0x00\n      dup8\n      gas\n      call\n      iszero\n      dup1\n      iszero\n      tag_57\n      jumpi\n      returndatasize\n      0x00\n      dup1\n      returndatacopy\n      revert(0x00, returndatasize)\n    tag_57:\n      pop\n      pop\n      pop\n      pop\n      mload(0x40)\n      returndatasize\n      not(0x1f)\n      0x1f\n      dup3\n      add\n      and\n      dup3\n      add\n      dup1\n      0x40\n      mstore\n      pop\n      dup2\n      add\n      swap1\n      tag_58\n      swap2\n      swap1\n      tag_59\n      jump\t// in\n    tag_58:\n        /* \"contracts/TokenBridgeETH.sol\":1500:1581  require(token.transferFrom(msg.sender, address(this), amount), \"Transfer failed\") */\n      tag_60\n      jumpi\n      mload(0x40)\n      0x08c379a000000000000000000000000000000000000000000000000000000000\n      dup2\n      mstore\n      0x04\n      add\n      tag_61\n      swap1\n      tag_62\n      jump\t// in\n    tag_61:\n      mload(0x40)\n      dup1\n      swap2\n      sub\n      swap1\n      revert\n    tag_60:\n        /* \"contracts/TokenBridgeETH.sol\":1619:1625  amount */\n      dup2\n        /* \"contracts/TokenBridgeETH.sol\":1591:1603  lockedTokens */\n      0x04\n        /* \"contracts/TokenBridgeETH.sol\":1591:1615  lockedTokens[msg.sender] */\n      0x00\n        /* \"contracts/TokenBridgeETH.sol\":1604:1614  msg.sender */\n      caller\n        /* \"contracts/TokenBridgeETH.sol\":1591:1615  lockedTokens[msg.sender] */\n      0xffffffffffffffffffffffffffffffffffffffff\n      and\n      0xffffffffffffffffffffffffffffffffffffffff\n      and\n      dup2\n      mstore\n      0x20\n      add\n      swap1\n      dup2\n      mstore\n      0x20\n      add\n      0x00\n      keccak256\n      0x00\n        /* \"contracts/TokenBridgeETH.sol\":1591:1625  lockedTokens[msg.sender] += amount */\n      dup3\n      dup3\n      sload\n      tag_63\n      swap2\n      swap1\n      tag_64\n      jump\t// in\n    tag_63:\n      swap3\n      pop\n      pop\n      dup2\n      swap1\n      sstore\n      pop\n        /* \"contracts/TokenBridgeETH.sol\":1654:1664  msg.sender */\n      caller\n        /* \"contracts/TokenBridgeETH.sol\":1641:1673  TokensLocked(msg.sender, amount) */\n      0xffffffffffffffffffffffffffffffffffffffff\n      and\n      0xac87f20a77d28ee8bbb58ec87ea8fa968b3393efae1a368fd50b767c2847391c\n        /* \"contracts/TokenBridgeETH.sol\":1666:1672  amount */\n      dup4\n        /* \"contracts/TokenBridgeETH.sol\":1641:1673  TokensLocked(msg.sender, amount) */\n      mload(0x40)\n      tag_65\n      swap2\n      swap1\n      tag_17\n      jump\t// in\n    tag_65:\n      mload(0x40)\n      dup1\n      swap2\n      sub\n      swap1\n      log2\n        /* \"contracts/TokenBridgeETH.sol\":1266:1680  {... */\n      pop\n        /* \"@openzeppelin/contracts/security/ReentrancyGuard.sol\":2303:2323  _nonReentrantAfter() */\n      tag_66\n        /* \"@openzeppelin/contracts/security/ReentrancyGuard.sol\":2303:2321  _nonReentrantAfter */\n      tag_67\n        /* \"@openzeppelin/contracts/security/ReentrancyGuard.sol\":2303:2323  _nonReentrantAfter() */\n      jump\t// in\n    tag_66:\n        /* \"contracts/TokenBridgeETH.sol\":1208:1680  function lockTokens(uint256 amount) external nonReentrant {... */\n      pop\n      jump\t// out\n        /* \"@openzeppelin/contracts/access/Ownable.sol\":2293:2394  function renounceOwnership() public virtual onlyOwner {... */\n    tag_23:\n        /* \"@openzeppelin/contracts/access/Ownable.sol\":1531:1544  _checkOwner() */\n      tag_69\n        /* \"@openzeppelin/contracts/access/Ownable.sol\":1531:1542  _checkOwner */\n      tag_70\n        /* \"@openzeppelin/contracts/access/Ownable.sol\":1531:1544  _checkOwner() */\n      jump\t// in\n    tag_69:\n        /* \"@openzeppelin/contracts/access/Ownable.sol\":2357:2387  _transferOwnership(address(0)) */\n      tag_72\n        /* \"@openzeppelin/contracts/access/Ownable.sol\":2384:2385  0 */\n      0x00\n        /* \"@openzeppelin/contracts/access/Ownable.sol\":2357:2375  _transferOwnership */\n      tag_73\n        /* \"@openzeppelin/contracts/access/Ownable.sol\":2357:2387  _transferOwnership(address(0)) */\n      jump\t// in\n    tag_72:\n        /* \"@openzeppelin/contracts/access/Ownable.sol\":2293:2394  function renounceOwnership() public virtual onlyOwner {... */\n      jump\t// out\n        /* \"@openzeppelin/contracts/access/Ownable.sol\":1638:1723  function owner() public view virtual returns (address) {... */\n    tag_25:\n        /* \"@openzeppelin/contracts/access/Ownable.sol\":1684:1691  address */\n      0x00\n        /* \"@openzeppelin/contracts/access/Ownable.sol\":1710:1716  _owner */\n      dup1\n      0x00\n      swap1\n      sload\n      swap1\n      0x0100\n      exp\n      swap1\n      div\n      0xffffffffffffffffffffffffffffffffffffffff\n      and\n        /* \"@openzeppelin/contracts/access/Ownable.sol\":1703:1716  return _owner */\n      swap1\n      pop\n        /* \"@openzeppelin/contracts/access/Ownable.sol\":1638:1723  function owner() public view virtual returns (address) {... */\n      swap1\n      jump\t// out\n        /* \"contracts/TokenBridgeETH.sol\":943:1202  function getLatestPrice() public view returns (int) {... */\n    tag_29:\n        /* \"contracts/TokenBridgeETH.sol\":990:993  int */\n      0x00\n        /* \"contracts/TokenBridgeETH.sol\":1033:1042  int price */\n      dup1\n        /* \"contracts/TokenBridgeETH.sol\":1084:1093  priceFeed */\n      0x03\n      0x00\n      swap1\n      sload\n      swap1\n      0x0100\n      exp\n      swap1\n      div\n      0xffffffffffffffffffffffffffffffffffffffff\n      and\n        /* \"contracts/TokenBridgeETH.sol\":1084:1109  priceFeed.latestRoundData */\n      0xffffffffffffffffffffffffffffffffffffffff\n      and\n      0xfeaf968c\n        /* \"contracts/TokenBridgeETH.sol\":1084:1111  priceFeed.latestRoundData() */\n      mload(0x40)\n      dup2\n      0xffffffff\n      and\n      0xe0\n      shl\n      dup2\n      mstore\n      0x04\n      add\n      0xa0\n      mload(0x40)\n      dup1\n      dup4\n      sub\n      dup2\n      dup7\n      gas\n      staticcall\n      iszero\n      dup1\n      iszero\n      tag_77\n      jumpi\n      returndatasize\n      0x00\n      dup1\n      returndatacopy\n      revert(0x00, returndatasize)\n    tag_77:\n      pop\n      pop\n      pop\n      pop\n      mload(0x40)\n      returndatasize\n      not(0x1f)\n      0x1f\n      dup3\n      add\n      and\n      dup3\n      add\n      dup1\n      0x40\n      mstore\n      pop\n      dup2\n      add\n      swap1\n      tag_78\n      swap2\n      swap1\n      tag_79\n      jump\t// in\n    tag_78:\n        /* \"contracts/TokenBridgeETH.sol\":1005:1111  (... */\n      pop\n      pop\n      pop\n      swap2\n      pop\n      pop\n        /* \"contracts/TokenBridgeETH.sol\":1137:1138  0 */\n      0x00\n        /* \"contracts/TokenBridgeETH.sol\":1129:1134  price */\n      dup2\n        /* \"contracts/TokenBridgeETH.sol\":1129:1138  price > 0 */\n      sgt\n        /* \"contracts/TokenBridgeETH.sol\":1121:1173  require(price > 0, \"Invalid price data from oracle\") */\n      tag_80\n      jumpi\n      mload(0x40)\n      0x08c379a000000000000000000000000000000000000000000000000000000000\n      dup2\n      mstore\n      0x04\n      add\n      tag_81\n      swap1\n      tag_82\n      jump\t// in\n    tag_81:\n      mload(0x40)\n      dup1\n      swap2\n      sub\n      swap1\n      revert\n    tag_80:\n        /* \"contracts/TokenBridgeETH.sol\":1190:1195  price */\n      dup1\n        /* \"contracts/TokenBridgeETH.sol\":1183:1195  return price */\n      swap2\n      pop\n      pop\n        /* \"contracts/TokenBridgeETH.sol\":943:1202  function getLatestPrice() public view returns (int) {... */\n      swap1\n      jump\t// out\n        /* \"@openzeppelin/contracts/access/Ownable.sol\":2543:2758  function transferOwnership(address newOwner) public virtual onlyOwner {... */\n    tag_34:\n        /* \"@openzeppelin/contracts/access/Ownable.sol\":1531:1544  _checkOwner() */\n      tag_84\n        /* \"@openzeppelin/contracts/access/Ownable.sol\":1531:1542  _checkOwner */\n      tag_70\n        /* \"@openzeppelin/contracts/access/Ownable.sol\":1531:1544  _checkOwner() */\n      jump\t// in\n    tag_84:\n        /* \"@openzeppelin/contracts/access/Ownable.sol\":2647:2648  0 */\n      0x00\n        /* \"@openzeppelin/contracts/access/Ownable.sol\":2627:2649  newOwner == address(0) */\n      0xffffffffffffffffffffffffffffffffffffffff\n      and\n        /* \"@openzeppelin/contracts/access/Ownable.sol\":2627:2635  newOwner */\n      dup2\n        /* \"@openzeppelin/contracts/access/Ownable.sol\":2627:2649  newOwner == address(0) */\n      0xffffffffffffffffffffffffffffffffffffffff\n      and\n      sub\n        /* \"@openzeppelin/contracts/access/Ownable.sol\":2623:2714  if (newOwner == address(0)) {... */\n      tag_86\n      jumpi\n        /* \"@openzeppelin/contracts/access/Ownable.sol\":2700:2701  0 */\n      0x00\n        /* \"@openzeppelin/contracts/access/Ownable.sol\":2672:2703  OwnableInvalidOwner(address(0)) */\n      mload(0x40)\n      0x1e4fbdf700000000000000000000000000000000000000000000000000000000\n      dup2\n      mstore\n      0x04\n      add\n      tag_87\n      swap2\n      swap1\n      tag_27\n      jump\t// in\n    tag_87:\n      mload(0x40)\n      dup1\n      swap2\n      sub\n      swap1\n      revert\n        /* \"@openzeppelin/contracts/access/Ownable.sol\":2623:2714  if (newOwner == address(0)) {... */\n    tag_86:\n        /* \"@openzeppelin/contracts/access/Ownable.sol\":2723:2751  _transferOwnership(newOwner) */\n      tag_88\n        /* \"@openzeppelin/contracts/access/Ownable.sol\":2742:2750  newOwner */\n      dup2\n        /* \"@openzeppelin/contracts/access/Ownable.sol\":2723:2741  _transferOwnership */\n      tag_73\n        /* \"@openzeppelin/contracts/access/Ownable.sol\":2723:2751  _transferOwnership(newOwner) */\n      jump\t// in\n    tag_88:\n        /* \"@openzeppelin/contracts/access/Ownable.sol\":2543:2758  function transferOwnership(address newOwner) public virtual onlyOwner {... */\n      pop\n      jump\t// out\n        /* \"contracts/TokenBridgeETH.sol\":1686:2140  function releaseTokens(address user, uint256 amount) external onlyOwner nonReentrant {... */\n    tag_38:\n        /* \"@openzeppelin/contracts/access/Ownable.sol\":1531:1544  _checkOwner() */\n      tag_90\n        /* \"@openzeppelin/contracts/access/Ownable.sol\":1531:1542  _checkOwner */\n      tag_70\n        /* \"@openzeppelin/contracts/access/Ownable.sol\":1531:1544  _checkOwner() */\n      jump\t// in\n    tag_90:\n        /* \"@openzeppelin/contracts/security/ReentrancyGuard.sol\":2261:2282  _nonReentrantBefore() */\n      tag_92\n        /* \"@openzeppelin/contracts/security/ReentrancyGuard.sol\":2261:2280  _nonReentrantBefore */\n      tag_45\n        /* \"@openzeppelin/contracts/security/ReentrancyGuard.sol\":2261:2282  _nonReentrantBefore() */\n      jump\t// in\n    tag_92:\n        /* \"contracts/TokenBridgeETH.sol\":1811:1817  amount */\n      dup1\n        /* \"contracts/TokenBridgeETH.sol\":1789:1801  lockedTokens */\n      0x04\n        /* \"contracts/TokenBridgeETH.sol\":1789:1807  lockedTokens[user] */\n      0x00\n        /* \"contracts/TokenBridgeETH.sol\":1802:1806  user */\n      dup5\n        /* \"contracts/TokenBridgeETH.sol\":1789:1807  lockedTokens[user] */\n      0xffffffffffffffffffffffffffffffffffffffff\n      and\n      0xffffffffffffffffffffffffffffffffffffffff\n      and\n      dup2\n      mstore\n      0x20\n      add\n      swap1\n      dup2\n      mstore\n      0x20\n      add\n      0x00\n      keccak256\n      sload\n        /* \"contracts/TokenBridgeETH.sol\":1789:1817  lockedTokens[user] >= amount */\n      lt\n      iszero\n        /* \"contracts/TokenBridgeETH.sol\":1781:1848  require(lockedTokens[user] >= amount, \"Insufficient locked tokens\") */\n      tag_94\n      jumpi\n      mload(0x40)\n      0x08c379a000000000000000000000000000000000000000000000000000000000\n      dup2\n      mstore\n      0x04\n      add\n      tag_95\n      swap1\n      tag_96\n      jump\t// in\n    tag_95:\n      mload(0x40)\n      dup1\n      swap2\n      sub\n      swap1\n      revert\n    tag_94:\n        /* \"contracts/TokenBridgeETH.sol\":1881:1887  amount */\n      dup1\n        /* \"contracts/TokenBridgeETH.sol\":1859:1871  lockedTokens */\n      0x04\n        /* \"contracts/TokenBridgeETH.sol\":1859:1877  lockedTokens[user] */\n      0x00\n        /* \"contracts/TokenBridgeETH.sol\":1872:1876  user */\n      dup5\n        /* \"contracts/TokenBridgeETH.sol\":1859:1877  lockedTokens[user] */\n      0xffffffffffffffffffffffffffffffffffffffff\n      and\n      0xffffffffffffffffffffffffffffffffffffffff\n      and\n      dup2\n      mstore\n      0x20\n      add\n      swap1\n      dup2\n      mstore\n      0x20\n      add\n      0x00\n      keccak256\n      0x00\n        /* \"contracts/TokenBridgeETH.sol\":1859:1887  lockedTokens[user] -= amount */\n      dup3\n      dup3\n      sload\n      tag_97\n      swap2\n      swap1\n      tag_98\n      jump\t// in\n    tag_97:\n      swap3\n      pop\n      pop\n      dup2\n      swap1\n      sstore\n      pop\n        /* \"contracts/TokenBridgeETH.sol\":1903:1908  token */\n      0x02\n      0x00\n      swap1\n      sload\n      swap1\n      0x0100\n      exp\n      swap1\n      div\n      0xffffffffffffffffffffffffffffffffffffffff\n      and\n        /* \"contracts/TokenBridgeETH.sol\":1903:1917  token.transfer */\n      0xffffffffffffffffffffffffffffffffffffffff\n      and\n      0xa9059cbb\n        /* \"contracts/TokenBridgeETH.sol\":1918:1922  user */\n      dup4\n        /* \"contracts/TokenBridgeETH.sol\":1924:1930  amount */\n      dup4\n        /* \"contracts/TokenBridgeETH.sol\":1903:1931  token.transfer(user, amount) */\n      mload(0x40)\n      dup4\n      0xffffffff\n      and\n      0xe0\n      shl\n      dup2\n      mstore\n      0x04\n      add\n      tag_99\n      swap3\n      swap2\n      swap1\n      tag_100\n      jump\t// in\n    tag_99:\n      0x20\n      mload(0x40)\n      dup1\n      dup4\n      sub\n      dup2\n      0x00\n      dup8\n      gas\n      call\n      iszero\n      dup1\n      iszero\n      tag_102\n      jumpi\n      returndatasize\n      0x00\n      dup1\n      returndatacopy\n      revert(0x00, returndatasize)\n    tag_102:\n      pop\n      pop\n      pop\n      pop\n      mload(0x40)\n      returndatasize\n      not(0x1f)\n      0x1f\n      dup3\n      add\n      and\n      dup3\n      add\n      dup1\n      0x40\n      mstore\n      pop\n      dup2\n      add\n      swap1\n      tag_103\n      swap2\n      swap1\n      tag_59\n      jump\t// in\n    tag_103:\n        /* \"contracts/TokenBridgeETH.sol\":1898:2090  if (!token.transfer(user, amount)) {... */\n      tag_104\n      jumpi\n        /* \"contracts/TokenBridgeETH.sol\":1967:1971  user */\n      dup2\n        /* \"contracts/TokenBridgeETH.sol\":1952:1980  TransferFailed(user, amount) */\n      0xffffffffffffffffffffffffffffffffffffffff\n      and\n      0x1c43b9761b3fba5321ca8212bfc231945f668ccc0c446f333999eea9ce8fda81\n        /* \"contracts/TokenBridgeETH.sol\":1973:1979  amount */\n      dup3\n        /* \"contracts/TokenBridgeETH.sol\":1952:1980  TransferFailed(user, amount) */\n      mload(0x40)\n      tag_105\n      swap2\n      swap1\n      tag_17\n      jump\t// in\n    tag_105:\n      mload(0x40)\n      dup1\n      swap2\n      sub\n      swap1\n      log2\n        /* \"contracts/TokenBridgeETH.sol\":2054:2079  revert(\"Transfer failed\") */\n      mload(0x40)\n      0x08c379a000000000000000000000000000000000000000000000000000000000\n      dup2\n      mstore\n      0x04\n      add\n      tag_106\n      swap1\n      tag_62\n      jump\t// in\n    tag_106:\n      mload(0x40)\n      dup1\n      swap2\n      sub\n      swap1\n      revert\n        /* \"contracts/TokenBridgeETH.sol\":1898:2090  if (!token.transfer(user, amount)) {... */\n    tag_104:\n        /* \"contracts/TokenBridgeETH.sol\":2120:2124  user */\n      dup2\n        /* \"contracts/TokenBridgeETH.sol\":2105:2133  TokensReleased(user, amount) */\n      0xffffffffffffffffffffffffffffffffffffffff\n      and\n      0xc7798891864187665ac6dd119286e44ec13f014527aeeb2b8eb3fd413df93179\n        /* \"contracts/TokenBridgeETH.sol\":2126:2132  amount */\n      dup3\n        /* \"contracts/TokenBridgeETH.sol\":2105:2133  TokensReleased(user, amount) */\n      mload(0x40)\n      tag_107\n      swap2\n      swap1\n      tag_17\n      jump\t// in\n    tag_107:\n      mload(0x40)\n      dup1\n      swap2\n      sub\n      swap1\n      log2\n        /* \"@openzeppelin/contracts/security/ReentrancyGuard.sol\":2303:2323  _nonReentrantAfter() */\n      tag_108\n        /* \"@openzeppelin/contracts/security/ReentrancyGuard.sol\":2303:2321  _nonReentrantAfter */\n      tag_67\n        /* \"@openzeppelin/contracts/security/ReentrancyGuard.sol\":2303:2323  _nonReentrantAfter() */\n      jump\t// in\n    tag_108:\n        /* \"contracts/TokenBridgeETH.sol\":1686:2140  function releaseTokens(address user, uint256 amount) external onlyOwner nonReentrant {... */\n      pop\n      pop\n      jump\t// out\n        /* \"contracts/TokenBridgeETH.sol\":366:385  IERC20 public token */\n    tag_40:\n      0x02\n      0x00\n      swap1\n      sload\n      swap1\n      0x0100\n      exp\n      swap1\n      div\n      0xffffffffffffffffffffffffffffffffffffffff\n      and\n      dup2\n      jump\t// out\n        /* \"@openzeppelin/contracts/security/ReentrancyGuard.sol\":2336:2623  function _nonReentrantBefore() private {... */\n    tag_45:\n        /* \"@openzeppelin/contracts/security/ReentrancyGuard.sol\":1759:1760  2 */\n      0x02\n        /* \"@openzeppelin/contracts/security/ReentrancyGuard.sol\":2468:2475  _status */\n      sload(0x01)\n        /* \"@openzeppelin/contracts/security/ReentrancyGuard.sol\":2468:2487  _status != _ENTERED */\n      sub\n        /* \"@openzeppelin/contracts/security/ReentrancyGuard.sol\":2460:2523  require(_status != _ENTERED, \"ReentrancyGuard: reentrant call\") */\n      tag_110\n      jumpi\n      mload(0x40)\n      0x08c379a000000000000000000000000000000000000000000000000000000000\n      dup2\n      mstore\n      0x04\n      add\n      tag_111\n      swap1\n      tag_112\n      jump\t// in\n    tag_111:\n      mload(0x40)\n      dup1\n      swap2\n      sub\n      swap1\n      revert\n    tag_110:\n        /* \"@openzeppelin/contracts/security/ReentrancyGuard.sol\":1759:1760  2 */\n      0x02\n        /* \"@openzeppelin/contracts/security/ReentrancyGuard.sol\":2598:2605  _status */\n      0x01\n        /* \"@openzeppelin/contracts/security/ReentrancyGuard.sol\":2598:2616  _status = _ENTERED */\n      dup2\n      swap1\n      sstore\n      pop\n        /* \"@openzeppelin/contracts/security/ReentrancyGuard.sol\":2336:2623  function _nonReentrantBefore() private {... */\n      jump\t// out\n        /* \"@openzeppelin/contracts/security/ReentrancyGuard.sol\":2629:2838  function _nonReentrantAfter() private {... */\n    tag_67:\n        /* \"@openzeppelin/contracts/security/ReentrancyGuard.sol\":1716:1717  1 */\n      0x01\n        /* \"@openzeppelin/contracts/security/ReentrancyGuard.sol\":2809:2816  _status */\n      dup1\n        /* \"@openzeppelin/contracts/security/ReentrancyGuard.sol\":2809:2831  _status = _NOT_ENTERED */\n      dup2\n      swap1\n      sstore\n      pop\n        /* \"@openzeppelin/contracts/security/ReentrancyGuard.sol\":2629:2838  function _nonReentrantAfter() private {... */\n      jump\t// out\n        /* \"@openzeppelin/contracts/access/Ownable.sol\":1796:1958  function _checkOwner() internal view virtual {... */\n    tag_70:\n        /* \"@openzeppelin/contracts/access/Ownable.sol\":1866:1878  _msgSender() */\n      tag_115\n        /* \"@openzeppelin/contracts/access/Ownable.sol\":1866:1876  _msgSender */\n      tag_116\n        /* \"@openzeppelin/contracts/access/Ownable.sol\":1866:1878  _msgSender() */\n      jump\t// in\n    tag_115:\n        /* \"@openzeppelin/contracts/access/Ownable.sol\":1855:1878  owner() != _msgSender() */\n      0xffffffffffffffffffffffffffffffffffffffff\n      and\n        /* \"@openzeppelin/contracts/access/Ownable.sol\":1855:1862  owner() */\n      tag_117\n        /* \"@openzeppelin/contracts/access/Ownable.sol\":1855:1860  owner */\n      tag_25\n        /* \"@openzeppelin/contracts/access/Ownable.sol\":1855:1862  owner() */\n      jump\t// in\n    tag_117:\n        /* \"@openzeppelin/contracts/access/Ownable.sol\":1855:1878  owner() != _msgSender() */\n      0xffffffffffffffffffffffffffffffffffffffff\n      and\n      eq\n        /* \"@openzeppelin/contracts/access/Ownable.sol\":1851:1952  if (owner() != _msgSender()) {... */\n      tag_118\n      jumpi\n        /* \"@openzeppelin/contracts/access/Ownable.sol\":1928:1940  _msgSender() */\n      tag_119\n        /* \"@openzeppelin/contracts/access/Ownable.sol\":1928:1938  _msgSender */\n      tag_116\n        /* \"@openzeppelin/contracts/access/Ownable.sol\":1928:1940  _msgSender() */\n      jump\t// in\n    tag_119:\n        /* \"@openzeppelin/contracts/access/Ownable.sol\":1901:1941  OwnableUnauthorizedAccount(_msgSender()) */\n      mload(0x40)\n      0x118cdaa700000000000000000000000000000000000000000000000000000000\n      dup2\n      mstore\n      0x04\n      add\n      tag_120\n      swap2\n      swap1\n      tag_27\n      jump\t// in\n    tag_120:\n      mload(0x40)\n      dup1\n      swap2\n      sub\n      swap1\n      revert\n        /* \"@openzeppelin/contracts/access/Ownable.sol\":1851:1952  if (owner() != _msgSender()) {... */\n    tag_118:\n        /* \"@openzeppelin/contracts/access/Ownable.sol\":1796:1958  function _checkOwner() internal view virtual {... */\n      jump\t// out\n        /* \"@openzeppelin/contracts/access/Ownable.sol\":2912:3099  function _transferOwnership(address newOwner) internal virtual {... */\n    tag_73:\n        /* \"@openzeppelin/contracts/access/Ownable.sol\":2985:3001  address oldOwner */\n      0x00\n        /* \"@openzeppelin/contracts/access/Ownable.sol\":3004:3010  _owner */\n      dup1\n      0x00\n      swap1\n      sload\n      swap1\n      0x0100\n      exp\n      swap1\n      div\n      0xffffffffffffffffffffffffffffffffffffffff\n      and\n        /* \"@openzeppelin/contracts/access/Ownable.sol\":2985:3010  address oldOwner = _owner */\n      swap1\n      pop\n        /* \"@openzeppelin/contracts/access/Ownable.sol\":3029:3037  newOwner */\n      dup2\n        /* \"@openzeppelin/contracts/access/Ownable.sol\":3020:3026  _owner */\n      0x00\n      dup1\n        /* \"@openzeppelin/contracts/access/Ownable.sol\":3020:3037  _owner = newOwner */\n      0x0100\n      exp\n      dup2\n      sload\n      dup2\n      0xffffffffffffffffffffffffffffffffffffffff\n      mul\n      not\n      and\n      swap1\n      dup4\n      0xffffffffffffffffffffffffffffffffffffffff\n      and\n      mul\n      or\n      swap1\n      sstore\n      pop\n        /* \"@openzeppelin/contracts/access/Ownable.sol\":3083:3091  newOwner */\n      dup2\n        /* \"@openzeppelin/contracts/access/Ownable.sol\":3052:3092  OwnershipTransferred(oldOwner, newOwner) */\n      0xffffffffffffffffffffffffffffffffffffffff\n      and\n        /* \"@openzeppelin/contracts/access/Ownable.sol\":3073:3081  oldOwner */\n      dup2\n        /* \"@openzeppelin/contracts/access/Ownable.sol\":3052:3092  OwnershipTransferred(oldOwner, newOwner) */\n      0xffffffffffffffffffffffffffffffffffffffff\n      and\n      0x8be0079c531659141344cd1fd0a4f28419497f9722a3daafe3b4186f6b6457e0\n      mload(0x40)\n      mload(0x40)\n      dup1\n      swap2\n      sub\n      swap1\n      log3\n        /* \"@openzeppelin/contracts/access/Ownable.sol\":2975:3099  {... */\n      pop\n        /* \"@openzeppelin/contracts/access/Ownable.sol\":2912:3099  function _transferOwnership(address newOwner) internal virtual {... */\n      pop\n      jump\t// out\n        /* \"@openzeppelin/contracts/utils/Context.sol\":656:752  function _msgSender() internal view virtual returns (address) {... */\n    tag_116:\n        /* \"@openzeppelin/contracts/utils/Context.sol\":709:716  address */\n      0x00\n        /* \"@openzeppelin/contracts/utils/Context.sol\":735:745  msg.sender */\n      caller\n        /* \"@openzeppelin/contracts/utils/Context.sol\":728:745  return msg.sender */\n      swap1\n      pop\n        /* \"@openzeppelin/contracts/utils/Context.sol\":656:752  function _msgSender() internal view virtual returns (address) {... */\n      swap1\n      jump\t// out\n        /* \"#utility.yul\":88:205   */\n    tag_124:\n        /* \"#utility.yul\":197:198   */\n      0x00\n        /* \"#utility.yul\":194:195   */\n      dup1\n        /* \"#utility.yul\":187:199   */\n      revert\n        /* \"#utility.yul\":334:460   */\n    tag_126:\n        /* \"#utility.yul\":371:378   */\n      0x00\n        /* \"#utility.yul\":411:453   */\n      0xffffffffffffffffffffffffffffffffffffffff\n        /* \"#utility.yul\":404:409   */\n      dup3\n        /* \"#utility.yul\":400:454   */\n      and\n        /* \"#utility.yul\":389:454   */\n      swap1\n      pop\n        /* \"#utility.yul\":334:460   */\n      swap2\n      swap1\n      pop\n      jump\t// out\n        /* \"#utility.yul\":466:562   */\n    tag_127:\n        /* \"#utility.yul\":503:510   */\n      0x00\n        /* \"#utility.yul\":532:556   */\n      tag_171\n        /* \"#utility.yul\":550:555   */\n      dup3\n        /* \"#utility.yul\":532:556   */\n      tag_126\n      jump\t// in\n    tag_171:\n        /* \"#utility.yul\":521:556   */\n      swap1\n      pop\n        /* \"#utility.yul\":466:562   */\n      swap2\n      swap1\n      pop\n      jump\t// out\n        /* \"#utility.yul\":568:690   */\n    tag_128:\n        /* \"#utility.yul\":641:665   */\n      tag_173\n        /* \"#utility.yul\":659:664   */\n      dup2\n        /* \"#utility.yul\":641:665   */\n      tag_127\n      jump\t// in\n    tag_173:\n        /* \"#utility.yul\":634:639   */\n      dup2\n        /* \"#utility.yul\":631:666   */\n      eq\n        /* \"#utility.yul\":621:684   */\n      tag_174\n      jumpi\n        /* \"#utility.yul\":680:681   */\n      0x00\n        /* \"#utility.yul\":677:678   */\n      dup1\n        /* \"#utility.yul\":670:682   */\n      revert\n        /* \"#utility.yul\":621:684   */\n    tag_174:\n        /* \"#utility.yul\":568:690   */\n      pop\n      jump\t// out\n        /* \"#utility.yul\":696:835   */\n    tag_129:\n        /* \"#utility.yul\":742:747   */\n      0x00\n        /* \"#utility.yul\":780:786   */\n      dup2\n        /* \"#utility.yul\":767:787   */\n      calldataload\n        /* \"#utility.yul\":758:787   */\n      swap1\n      pop\n        /* \"#utility.yul\":796:829   */\n      tag_176\n        /* \"#utility.yul\":823:828   */\n      dup2\n        /* \"#utility.yul\":796:829   */\n      tag_128\n      jump\t// in\n    tag_176:\n        /* \"#utility.yul\":696:835   */\n      swap3\n      swap2\n      pop\n      pop\n      jump\t// out\n        /* \"#utility.yul\":841:1170   */\n    tag_14:\n        /* \"#utility.yul\":900:906   */\n      0x00\n        /* \"#utility.yul\":949:951   */\n      0x20\n        /* \"#utility.yul\":937:946   */\n      dup3\n        /* \"#utility.yul\":928:935   */\n      dup5\n        /* \"#utility.yul\":924:947   */\n      sub\n        /* \"#utility.yul\":920:952   */\n      slt\n        /* \"#utility.yul\":917:1036   */\n      iszero\n      tag_178\n      jumpi\n        /* \"#utility.yul\":955:1034   */\n      tag_179\n      tag_124\n      jump\t// in\n    tag_179:\n        /* \"#utility.yul\":917:1036   */\n    tag_178:\n        /* \"#utility.yul\":1075:1076   */\n      0x00\n        /* \"#utility.yul\":1100:1153   */\n      tag_180\n        /* \"#utility.yul\":1145:1152   */\n      dup5\n        /* \"#utility.yul\":1136:1142   */\n      dup3\n        /* \"#utility.yul\":1125:1134   */\n      dup6\n        /* \"#utility.yul\":1121:1143   */\n      add\n        /* \"#utility.yul\":1100:1153   */\n      tag_129\n      jump\t// in\n    tag_180:\n        /* \"#utility.yul\":1090:1153   */\n      swap2\n      pop\n        /* \"#utility.yul\":1046:1163   */\n      pop\n        /* \"#utility.yul\":841:1170   */\n      swap3\n      swap2\n      pop\n      pop\n      jump\t// out\n        /* \"#utility.yul\":1176:1253   */\n    tag_130:\n        /* \"#utility.yul\":1213:1220   */\n      0x00\n        /* \"#utility.yul\":1242:1247   */\n      dup2\n        /* \"#utility.yul\":1231:1247   */\n      swap1\n      pop\n        /* \"#utility.yul\":1176:1253   */\n      swap2\n      swap1\n      pop\n      jump\t// out\n        /* \"#utility.yul\":1259:1377   */\n    tag_131:\n        /* \"#utility.yul\":1346:1370   */\n      tag_183\n        /* \"#utility.yul\":1364:1369   */\n      dup2\n        /* \"#utility.yul\":1346:1370   */\n      tag_130\n      jump\t// in\n    tag_183:\n        /* \"#utility.yul\":1341:1344   */\n      dup3\n        /* \"#utility.yul\":1334:1371   */\n      mstore\n        /* \"#utility.yul\":1259:1377   */\n      pop\n      pop\n      jump\t// out\n        /* \"#utility.yul\":1383:1605   */\n    tag_17:\n        /* \"#utility.yul\":1476:1480   */\n      0x00\n        /* \"#utility.yul\":1514:1516   */\n      0x20\n        /* \"#utility.yul\":1503:1512   */\n      dup3\n        /* \"#utility.yul\":1499:1517   */\n      add\n        /* \"#utility.yul\":1491:1517   */\n      swap1\n      pop\n        /* \"#utility.yul\":1527:1598   */\n      tag_185\n        /* \"#utility.yul\":1595:1596   */\n      0x00\n        /* \"#utility.yul\":1584:1593   */\n      dup4\n        /* \"#utility.yul\":1580:1597   */\n      add\n        /* \"#utility.yul\":1571:1577   */\n      dup5\n        /* \"#utility.yul\":1527:1598   */\n      tag_131\n      jump\t// in\n    tag_185:\n        /* \"#utility.yul\":1383:1605   */\n      swap3\n      swap2\n      pop\n      pop\n      jump\t// out\n        /* \"#utility.yul\":1611:1733   */\n    tag_132:\n        /* \"#utility.yul\":1684:1708   */\n      tag_187\n        /* \"#utility.yul\":1702:1707   */\n      dup2\n        /* \"#utility.yul\":1684:1708   */\n      tag_130\n      jump\t// in\n    tag_187:\n        /* \"#utility.yul\":1677:1682   */\n      dup2\n        /* \"#utility.yul\":1674:1709   */\n      eq\n        /* \"#utility.yul\":1664:1727   */\n      tag_188\n      jumpi\n        /* \"#utility.yul\":1723:1724   */\n      0x00\n        /* \"#utility.yul\":1720:1721   */\n      dup1\n        /* \"#utility.yul\":1713:1725   */\n      revert\n        /* \"#utility.yul\":1664:1727   */\n    tag_188:\n        /* \"#utility.yul\":1611:1733   */\n      pop\n      jump\t// out\n        /* \"#utility.yul\":1739:1878   */\n    tag_133:\n        /* \"#utility.yul\":1785:1790   */\n      0x00\n        /* \"#utility.yul\":1823:1829   */\n      dup2\n        /* \"#utility.yul\":1810:1830   */\n      calldataload\n        /* \"#utility.yul\":1801:1830   */\n      swap1\n      pop\n        /* \"#utility.yul\":1839:1872   */\n      tag_190\n        /* \"#utility.yul\":1866:1871   */\n      dup2\n        /* \"#utility.yul\":1839:1872   */\n      tag_132\n      jump\t// in\n    tag_190:\n        /* \"#utility.yul\":1739:1878   */\n      swap3\n      swap2\n      pop\n      pop\n      jump\t// out\n        /* \"#utility.yul\":1884:2213   */\n    tag_20:\n        /* \"#utility.yul\":1943:1949   */\n      0x00\n        /* \"#utility.yul\":1992:1994   */\n      0x20\n        /* \"#utility.yul\":1980:1989   */\n      dup3\n        /* \"#utility.yul\":1971:1978   */\n      dup5\n        /* \"#utility.yul\":1967:1990   */\n      sub\n        /* \"#utility.yul\":1963:1995   */\n      slt\n        /* \"#utility.yul\":1960:2079   */\n      iszero\n      tag_192\n      jumpi\n        /* \"#utility.yul\":1998:2077   */\n      tag_193\n      tag_124\n      jump\t// in\n    tag_193:\n        /* \"#utility.yul\":1960:2079   */\n    tag_192:\n        /* \"#utility.yul\":2118:2119   */\n      0x00\n        /* \"#utility.yul\":2143:2196   */\n      tag_194\n        /* \"#utility.yul\":2188:2195   */\n      dup5\n        /* \"#utility.yul\":2179:2185   */\n      dup3\n        /* \"#utility.yul\":2168:2177   */\n      dup6\n        /* \"#utility.yul\":2164:2186   */\n      add\n        /* \"#utility.yul\":2143:2196   */\n      tag_133\n      jump\t// in\n    tag_194:\n        /* \"#utility.yul\":2133:2196   */\n      swap2\n      pop\n        /* \"#utility.yul\":2089:2206   */\n      pop\n        /* \"#utility.yul\":1884:2213   */\n      swap3\n      swap2\n      pop\n      pop\n      jump\t// out\n        /* \"#utility.yul\":2219:2337   */\n    tag_134:\n        /* \"#utility.yul\":2306:2330   */\n      tag_196\n        /* \"#utility.yul\":2324:2329   */\n      dup2\n        /* \"#utility.yul\":2306:2330   */\n      tag_127\n      jump\t// in\n    tag_196:\n        /* \"#utility.yul\":2301:2304   */\n      dup3\n        /* \"#utility.yul\":2294:2331   */\n      mstore\n        /* \"#utility.yul\":2219:2337   */\n      pop\n      pop\n      jump\t// out\n        /* \"#utility.yul\":2343:2565   */\n    tag_27:\n        /* \"#utility.yul\":2436:2440   */\n      0x00\n        /* \"#utility.yul\":2474:2476   */\n      0x20\n        /* \"#utility.yul\":2463:2472   */\n      dup3\n        /* \"#utility.yul\":2459:2477   */\n      add\n        /* \"#utility.yul\":2451:2477   */\n      swap1\n      pop\n        /* \"#utility.yul\":2487:2558   */\n      tag_198\n        /* \"#utility.yul\":2555:2556   */\n      0x00\n        /* \"#utility.yul\":2544:2553   */\n      dup4\n        /* \"#utility.yul\":2540:2557   */\n      add\n        /* \"#utility.yul\":2531:2537   */\n      dup5\n        /* \"#utility.yul\":2487:2558   */\n      tag_134\n      jump\t// in\n    tag_198:\n        /* \"#utility.yul\":2343:2565   */\n      swap3\n      swap2\n      pop\n      pop\n      jump\t// out\n        /* \"#utility.yul\":2571:2647   */\n    tag_135:\n        /* \"#utility.yul\":2607:2614   */\n      0x00\n        /* \"#utility.yul\":2636:2641   */\n      dup2\n        /* \"#utility.yul\":2625:2641   */\n      swap1\n      pop\n        /* \"#utility.yul\":2571:2647   */\n      swap2\n      swap1\n      pop\n      jump\t// out\n        /* \"#utility.yul\":2653:2768   */\n    tag_136:\n        /* \"#utility.yul\":2738:2761   */\n      tag_201\n        /* \"#utility.yul\":2755:2760   */\n      dup2\n        /* \"#utility.yul\":2738:2761   */\n      tag_135\n      jump\t// in\n    tag_201:\n        /* \"#utility.yul\":2733:2736   */\n      dup3\n        /* \"#utility.yul\":2726:2762   */\n      mstore\n        /* \"#utility.yul\":2653:2768   */\n      pop\n      pop\n      jump\t// out\n        /* \"#utility.yul\":2774:2992   */\n    tag_31:\n        /* \"#utility.yul\":2865:2869   */\n      0x00\n        /* \"#utility.yul\":2903:2905   */\n      0x20\n        /* \"#utility.yul\":2892:2901   */\n      dup3\n        /* \"#utility.yul\":2888:2906   */\n      add\n        /* \"#utility.yul\":2880:2906   */\n      swap1\n      pop\n        /* \"#utility.yul\":2916:2985   */\n      tag_203\n        /* \"#utility.yul\":2982:2983   */\n      0x00\n        /* \"#utility.yul\":2971:2980   */\n      dup4\n        /* \"#utility.yul\":2967:2984   */\n      add\n        /* \"#utility.yul\":2958:2964   */\n      dup5\n        /* \"#utility.yul\":2916:2985   */\n      tag_136\n      jump\t// in\n    tag_203:\n        /* \"#utility.yul\":2774:2992   */\n      swap3\n      swap2\n      pop\n      pop\n      jump\t// out\n        /* \"#utility.yul\":2998:3472   */\n    tag_37:\n        /* \"#utility.yul\":3066:3072   */\n      0x00\n        /* \"#utility.yul\":3074:3080   */\n      dup1\n        /* \"#utility.yul\":3123:3125   */\n      0x40\n        /* \"#utility.yul\":3111:3120   */\n      dup4\n        /* \"#utility.yul\":3102:3109   */\n      dup6\n        /* \"#utility.yul\":3098:3121   */\n      sub\n        /* \"#utility.yul\":3094:3126   */\n      slt\n        /* \"#utility.yul\":3091:3210   */\n      iszero\n      tag_205\n      jumpi\n        /* \"#utility.yul\":3129:3208   */\n      tag_206\n      tag_124\n      jump\t// in\n    tag_206:\n        /* \"#utility.yul\":3091:3210   */\n    tag_205:\n        /* \"#utility.yul\":3249:3250   */\n      0x00\n        /* \"#utility.yul\":3274:3327   */\n      tag_207\n        /* \"#utility.yul\":3319:3326   */\n      dup6\n        /* \"#utility.yul\":3310:3316   */\n      dup3\n        /* \"#utility.yul\":3299:3308   */\n      dup7\n        /* \"#utility.yul\":3295:3317   */\n      add\n        /* \"#utility.yul\":3274:3327   */\n      tag_129\n      jump\t// in\n    tag_207:\n        /* \"#utility.yul\":3264:3327   */\n      swap3\n      pop\n        /* \"#utility.yul\":3220:3337   */\n      pop\n        /* \"#utility.yul\":3376:3378   */\n      0x20\n        /* \"#utility.yul\":3402:3455   */\n      tag_208\n        /* \"#utility.yul\":3447:3454   */\n      dup6\n        /* \"#utility.yul\":3438:3444   */\n      dup3\n        /* \"#utility.yul\":3427:3436   */\n      dup7\n        /* \"#utility.yul\":3423:3445   */\n      add\n        /* \"#utility.yul\":3402:3455   */\n      tag_133\n      jump\t// in\n    tag_208:\n        /* \"#utility.yul\":3392:3455   */\n      swap2\n      pop\n        /* \"#utility.yul\":3347:3465   */\n      pop\n        /* \"#utility.yul\":2998:3472   */\n      swap3\n      pop\n      swap3\n      swap1\n      pop\n      jump\t// out\n        /* \"#utility.yul\":3478:3538   */\n    tag_137:\n        /* \"#utility.yul\":3506:3509   */\n      0x00\n        /* \"#utility.yul\":3527:3532   */\n      dup2\n        /* \"#utility.yul\":3520:3532   */\n      swap1\n      pop\n        /* \"#utility.yul\":3478:3538   */\n      swap2\n      swap1\n      pop\n      jump\t// out\n        /* \"#utility.yul\":3544:3686   */\n    tag_138:\n        /* \"#utility.yul\":3594:3603   */\n      0x00\n        /* \"#utility.yul\":3627:3680   */\n      tag_211\n        /* \"#utility.yul\":3645:3679   */\n      tag_212\n        /* \"#utility.yul\":3654:3678   */\n      tag_213\n        /* \"#utility.yul\":3672:3677   */\n      dup5\n        /* \"#utility.yul\":3654:3678   */\n      tag_126\n      jump\t// in\n    tag_213:\n        /* \"#utility.yul\":3645:3679   */\n      tag_137\n      jump\t// in\n    tag_212:\n        /* \"#utility.yul\":3627:3680   */\n      tag_126\n      jump\t// in\n    tag_211:\n        /* \"#utility.yul\":3614:3680   */\n      swap1\n      pop\n        /* \"#utility.yul\":3544:3686   */\n      swap2\n      swap1\n      pop\n      jump\t// out\n        /* \"#utility.yul\":3692:3818   */\n    tag_139:\n        /* \"#utility.yul\":3742:3751   */\n      0x00\n        /* \"#utility.yul\":3775:3812   */\n      tag_215\n        /* \"#utility.yul\":3806:3811   */\n      dup3\n        /* \"#utility.yul\":3775:3812   */\n      tag_138\n      jump\t// in\n    tag_215:\n        /* \"#utility.yul\":3762:3812   */\n      swap1\n      pop\n        /* \"#utility.yul\":3692:3818   */\n      swap2\n      swap1\n      pop\n      jump\t// out\n        /* \"#utility.yul\":3824:3964   */\n    tag_140:\n        /* \"#utility.yul\":3888:3897   */\n      0x00\n        /* \"#utility.yul\":3921:3958   */\n      tag_217\n        /* \"#utility.yul\":3952:3957   */\n      dup3\n        /* \"#utility.yul\":3921:3958   */\n      tag_139\n      jump\t// in\n    tag_217:\n        /* \"#utility.yul\":3908:3958   */\n      swap1\n      pop\n        /* \"#utility.yul\":3824:3964   */\n      swap2\n      swap1\n      pop\n      jump\t// out\n        /* \"#utility.yul\":3970:4129   */\n    tag_141:\n        /* \"#utility.yul\":4071:4122   */\n      tag_219\n        /* \"#utility.yul\":4116:4121   */\n      dup2\n        /* \"#utility.yul\":4071:4122   */\n      tag_140\n      jump\t// in\n    tag_219:\n        /* \"#utility.yul\":4066:4069   */\n      dup3\n        /* \"#utility.yul\":4059:4123   */\n      mstore\n        /* \"#utility.yul\":3970:4129   */\n      pop\n      pop\n      jump\t// out\n        /* \"#utility.yul\":4135:4385   */\n    tag_42:\n        /* \"#utility.yul\":4242:4246   */\n      0x00\n        /* \"#utility.yul\":4280:4282   */\n      0x20\n        /* \"#utility.yul\":4269:4278   */\n      dup3\n        /* \"#utility.yul\":4265:4283   */\n      add\n        /* \"#utility.yul\":4257:4283   */\n      swap1\n      pop\n        /* \"#utility.yul\":4293:4378   */\n      tag_221\n        /* \"#utility.yul\":4375:4376   */\n      0x00\n        /* \"#utility.yul\":4364:4373   */\n      dup4\n        /* \"#utility.yul\":4360:4377   */\n      add\n        /* \"#utility.yul\":4351:4357   */\n      dup5\n        /* \"#utility.yul\":4293:4378   */\n      tag_141\n      jump\t// in\n    tag_221:\n        /* \"#utility.yul\":4135:4385   */\n      swap3\n      swap2\n      pop\n      pop\n      jump\t// out\n        /* \"#utility.yul\":4391:4560   */\n    tag_142:\n        /* \"#utility.yul\":4475:4486   */\n      0x00\n        /* \"#utility.yul\":4509:4515   */\n      dup3\n        /* \"#utility.yul\":4504:4507   */\n      dup3\n        /* \"#utility.yul\":4497:4516   */\n      mstore\n        /* \"#utility.yul\":4549:4553   */\n      0x20\n        /* \"#utility.yul\":4544:4547   */\n      dup3\n        /* \"#utility.yul\":4540:4554   */\n      add\n        /* \"#utility.yul\":4525:4554   */\n      swap1\n      pop\n        /* \"#utility.yul\":4391:4560   */\n      swap3\n      swap2\n      pop\n      pop\n      jump\t// out\n        /* \"#utility.yul\":4566:4745   */\n    tag_143:\n        /* \"#utility.yul\":4706:4737   */\n      0x416d6f756e74206d7573742062652067726561746572207468616e2030000000\n        /* \"#utility.yul\":4702:4703   */\n      0x00\n        /* \"#utility.yul\":4694:4700   */\n      dup3\n        /* \"#utility.yul\":4690:4704   */\n      add\n        /* \"#utility.yul\":4683:4738   */\n      mstore\n        /* \"#utility.yul\":4566:4745   */\n      pop\n      jump\t// out\n        /* \"#utility.yul\":4751:5117   */\n    tag_144:\n        /* \"#utility.yul\":4893:4896   */\n      0x00\n        /* \"#utility.yul\":4914:4981   */\n      tag_225\n        /* \"#utility.yul\":4978:4980   */\n      0x1d\n        /* \"#utility.yul\":4973:4976   */\n      dup4\n        /* \"#utility.yul\":4914:4981   */\n      tag_142\n      jump\t// in\n    tag_225:\n        /* \"#utility.yul\":4907:4981   */\n      swap2\n      pop\n        /* \"#utility.yul\":4990:5083   */\n      tag_226\n        /* \"#utility.yul\":5079:5082   */\n      dup3\n        /* \"#utility.yul\":4990:5083   */\n      tag_143\n      jump\t// in\n    tag_226:\n        /* \"#utility.yul\":5108:5110   */\n      0x20\n        /* \"#utility.yul\":5103:5106   */\n      dup3\n        /* \"#utility.yul\":5099:5111   */\n      add\n        /* \"#utility.yul\":5092:5111   */\n      swap1\n      pop\n        /* \"#utility.yul\":4751:5117   */\n      swap2\n      swap1\n      pop\n      jump\t// out\n        /* \"#utility.yul\":5123:5542   */\n    tag_49:\n        /* \"#utility.yul\":5289:5293   */\n      0x00\n        /* \"#utility.yul\":5327:5329   */\n      0x20\n        /* \"#utility.yul\":5316:5325   */\n      dup3\n        /* \"#utility.yul\":5312:5330   */\n      add\n        /* \"#utility.yul\":5304:5330   */\n      swap1\n      pop\n        /* \"#utility.yul\":5376:5385   */\n      dup2\n        /* \"#utility.yul\":5370:5374   */\n      dup2\n        /* \"#utility.yul\":5366:5386   */\n      sub\n        /* \"#utility.yul\":5362:5363   */\n      0x00\n        /* \"#utility.yul\":5351:5360   */\n      dup4\n        /* \"#utility.yul\":5347:5364   */\n      add\n        /* \"#utility.yul\":5340:5387   */\n      mstore\n        /* \"#utility.yul\":5404:5535   */\n      tag_228\n        /* \"#utility.yul\":5530:5534   */\n      dup2\n        /* \"#utility.yul\":5404:5535   */\n      tag_144\n      jump\t// in\n    tag_228:\n        /* \"#utility.yul\":5396:5535   */\n      swap1\n      pop\n        /* \"#utility.yul\":5123:5542   */\n      swap2\n      swap1\n      pop\n      jump\t// out\n        /* \"#utility.yul\":5548:5714   */\n    tag_145:\n        /* \"#utility.yul\":5688:5706   */\n      0x50726963652066656564206572726f7200000000000000000000000000000000\n        /* \"#utility.yul\":5684:5685   */\n      0x00\n        /* \"#utility.yul\":5676:5682   */\n      dup3\n        /* \"#utility.yul\":5672:5686   */\n      add\n        /* \"#utility.yul\":5665:5707   */\n      mstore\n        /* \"#utility.yul\":5548:5714   */\n      pop\n      jump\t// out\n        /* \"#utility.yul\":5720:6086   */\n    tag_146:\n        /* \"#utility.yul\":5862:5865   */\n      0x00\n        /* \"#utility.yul\":5883:5950   */\n      tag_231\n        /* \"#utility.yul\":5947:5949   */\n      0x10\n        /* \"#utility.yul\":5942:5945   */\n      dup4\n        /* \"#utility.yul\":5883:5950   */\n      tag_142\n      jump\t// in\n    tag_231:\n        /* \"#utility.yul\":5876:5950   */\n      swap2\n      pop\n        /* \"#utility.yul\":5959:6052   */\n      tag_232\n        /* \"#utility.yul\":6048:6051   */\n      dup3\n        /* \"#utility.yul\":5959:6052   */\n      tag_145\n      jump\t// in\n    tag_232:\n        /* \"#utility.yul\":6077:6079   */\n      0x20\n        /* \"#utility.yul\":6072:6075   */\n      dup3\n        /* \"#utility.yul\":6068:6080   */\n      add\n        /* \"#utility.yul\":6061:6080   */\n      swap1\n      pop\n        /* \"#utility.yul\":5720:6086   */\n      swap2\n      swap1\n      pop\n      jump\t// out\n        /* \"#utility.yul\":6092:6511   */\n    tag_53:\n        /* \"#utility.yul\":6258:6262   */\n      0x00\n        /* \"#utility.yul\":6296:6298   */\n      0x20\n        /* \"#utility.yul\":6285:6294   */\n      dup3\n        /* \"#utility.yul\":6281:6299   */\n      add\n        /* \"#utility.yul\":6273:6299   */\n      swap1\n      pop\n        /* \"#utility.yul\":6345:6354   */\n      dup2\n        /* \"#utility.yul\":6339:6343   */\n      dup2\n        /* \"#utility.yul\":6335:6355   */\n      sub\n        /* \"#utility.yul\":6331:6332   */\n      0x00\n        /* \"#utility.yul\":6320:6329   */\n      dup4\n        /* \"#utility.yul\":6316:6333   */\n      add\n        /* \"#utility.yul\":6309:6356   */\n      mstore\n        /* \"#utility.yul\":6373:6504   */\n      tag_234\n        /* \"#utility.yul\":6499:6503   */\n      dup2\n        /* \"#utility.yul\":6373:6504   */\n      tag_146\n      jump\t// in\n    tag_234:\n        /* \"#utility.yul\":6365:6504   */\n      swap1\n      pop\n        /* \"#utility.yul\":6092:6511   */\n      swap2\n      swap1\n      pop\n      jump\t// out\n        /* \"#utility.yul\":6517:6959   */\n    tag_55:\n        /* \"#utility.yul\":6666:6670   */\n      0x00\n        /* \"#utility.yul\":6704:6706   */\n      0x60\n        /* \"#utility.yul\":6693:6702   */\n      dup3\n        /* \"#utility.yul\":6689:6707   */\n      add\n        /* \"#utility.yul\":6681:6707   */\n      swap1\n      pop\n        /* \"#utility.yul\":6717:6788   */\n      tag_236\n        /* \"#utility.yul\":6785:6786   */\n      0x00\n        /* \"#utility.yul\":6774:6783   */\n      dup4\n        /* \"#utility.yul\":6770:6787   */\n      add\n        /* \"#utility.yul\":6761:6767   */\n      dup7\n        /* \"#utility.yul\":6717:6788   */\n      tag_134\n      jump\t// in\n    tag_236:\n        /* \"#utility.yul\":6798:6870   */\n      tag_237\n        /* \"#utility.yul\":6866:6868   */\n      0x20\n        /* \"#utility.yul\":6855:6864   */\n      dup4\n        /* \"#utility.yul\":6851:6869   */\n      add\n        /* \"#utility.yul\":6842:6848   */\n      dup6\n        /* \"#utility.yul\":6798:6870   */\n      tag_134\n      jump\t// in\n    tag_237:\n        /* \"#utility.yul\":6880:6952   */\n      tag_238\n        /* \"#utility.yul\":6948:6950   */\n      0x40\n        /* \"#utility.yul\":6937:6946   */\n      dup4\n        /* \"#utility.yul\":6933:6951   */\n      add\n        /* \"#utility.yul\":6924:6930   */\n      dup5\n        /* \"#utility.yul\":6880:6952   */\n      tag_131\n      jump\t// in\n    tag_238:\n        /* \"#utility.yul\":6517:6959   */\n      swap5\n      swap4\n      pop\n      pop\n      pop\n      pop\n      jump\t// out\n        /* \"#utility.yul\":6965:7055   */\n    tag_147:\n        /* \"#utility.yul\":6999:7006   */\n      0x00\n        /* \"#utility.yul\":7042:7047   */\n      dup2\n        /* \"#utility.yul\":7035:7048   */\n      iszero\n        /* \"#utility.yul\":7028:7049   */\n      iszero\n        /* \"#utility.yul\":7017:7049   */\n      swap1\n      pop\n        /* \"#utility.yul\":6965:7055   */\n      swap2\n      swap1\n      pop\n      jump\t// out\n        /* \"#utility.yul\":7061:7177   */\n    tag_148:\n        /* \"#utility.yul\":7131:7152   */\n      tag_241\n        /* \"#utility.yul\":7146:7151   */\n      dup2\n        /* \"#utility.yul\":7131:7152   */\n      tag_147\n      jump\t// in\n    tag_241:\n        /* \"#utility.yul\":7124:7129   */\n      dup2\n        /* \"#utility.yul\":7121:7153   */\n      eq\n        /* \"#utility.yul\":7111:7171   */\n      tag_242\n      jumpi\n        /* \"#utility.yul\":7167:7168   */\n      0x00\n        /* \"#utility.yul\":7164:7165   */\n      dup1\n        /* \"#utility.yul\":7157:7169   */\n      revert\n        /* \"#utility.yul\":7111:7171   */\n    tag_242:\n        /* \"#utility.yul\":7061:7177   */\n      pop\n      jump\t// out\n        /* \"#utility.yul\":7183:7320   */\n    tag_149:\n        /* \"#utility.yul\":7237:7242   */\n      0x00\n        /* \"#utility.yul\":7268:7274   */\n      dup2\n        /* \"#utility.yul\":7262:7275   */\n      mload\n        /* \"#utility.yul\":7253:7275   */\n      swap1\n      pop\n        /* \"#utility.yul\":7284:7314   */\n      tag_244\n        /* \"#utility.yul\":7308:7313   */\n      dup2\n        /* \"#utility.yul\":7284:7314   */\n      tag_148\n      jump\t// in\n    tag_244:\n        /* \"#utility.yul\":7183:7320   */\n      swap3\n      swap2\n      pop\n      pop\n      jump\t// out\n        /* \"#utility.yul\":7326:7671   */\n    tag_59:\n        /* \"#utility.yul\":7393:7399   */\n      0x00\n        /* \"#utility.yul\":7442:7444   */\n      0x20\n        /* \"#utility.yul\":7430:7439   */\n      dup3\n        /* \"#utility.yul\":7421:7428   */\n      dup5\n        /* \"#utility.yul\":7417:7440   */\n      sub\n        /* \"#utility.yul\":7413:7445   */\n      slt\n        /* \"#utility.yul\":7410:7529   */\n      iszero\n      tag_246\n      jumpi\n        /* \"#utility.yul\":7448:7527   */\n      tag_247\n      tag_124\n      jump\t// in\n    tag_247:\n        /* \"#utility.yul\":7410:7529   */\n    tag_246:\n        /* \"#utility.yul\":7568:7569   */\n      0x00\n        /* \"#utility.yul\":7593:7654   */\n      tag_248\n        /* \"#utility.yul\":7646:7653   */\n      dup5\n        /* \"#utility.yul\":7637:7643   */\n      dup3\n        /* \"#utility.yul\":7626:7635   */\n      dup6\n        /* \"#utility.yul\":7622:7644   */\n      add\n        /* \"#utility.yul\":7593:7654   */\n      tag_149\n      jump\t// in\n    tag_248:\n        /* \"#utility.yul\":7583:7654   */\n      swap2\n      pop\n        /* \"#utility.yul\":7539:7664   */\n      pop\n        /* \"#utility.yul\":7326:7671   */\n      swap3\n      swap2\n      pop\n      pop\n      jump\t// out\n        /* \"#utility.yul\":7677:7842   */\n    tag_150:\n        /* \"#utility.yul\":7817:7834   */\n      0x5472616e73666572206661696c65640000000000000000000000000000000000\n        /* \"#utility.yul\":7813:7814   */\n      0x00\n        /* \"#utility.yul\":7805:7811   */\n      dup3\n        /* \"#utility.yul\":7801:7815   */\n      add\n        /* \"#utility.yul\":7794:7835   */\n      mstore\n        /* \"#utility.yul\":7677:7842   */\n      pop\n      jump\t// out\n        /* \"#utility.yul\":7848:8214   */\n    tag_151:\n        /* \"#utility.yul\":7990:7993   */\n      0x00\n        /* \"#utility.yul\":8011:8078   */\n      tag_251\n        /* \"#utility.yul\":8075:8077   */\n      0x0f\n        /* \"#utility.yul\":8070:8073   */\n      dup4\n        /* \"#utility.yul\":8011:8078   */\n      tag_142\n      jump\t// in\n    tag_251:\n        /* \"#utility.yul\":8004:8078   */\n      swap2\n      pop\n        /* \"#utility.yul\":8087:8180   */\n      tag_252\n        /* \"#utility.yul\":8176:8179   */\n      dup3\n        /* \"#utility.yul\":8087:8180   */\n      tag_150\n      jump\t// in\n    tag_252:\n        /* \"#utility.yul\":8205:8207   */\n      0x20\n        /* \"#utility.yul\":8200:8203   */\n      dup3\n        /* \"#utility.yul\":8196:8208   */\n      add\n        /* \"#utility.yul\":8189:8208   */\n      swap1\n      pop\n        /* \"#utility.yul\":7848:8214   */\n      swap2\n      swap1\n      pop\n      jump\t// out\n        /* \"#utility.yul\":8220:8639   */\n    tag_62:\n        /* \"#utility.yul\":8386:8390   */\n      0x00\n        /* \"#utility.yul\":8424:8426   */\n      0x20\n        /* \"#utility.yul\":8413:8422   */\n      dup3\n        /* \"#utility.yul\":8409:8427   */\n      add\n        /* \"#utility.yul\":8401:8427   */\n      swap1\n      pop\n        /* \"#utility.yul\":8473:8482   */\n      dup2\n        /* \"#utility.yul\":8467:8471   */\n      dup2\n        /* \"#utility.yul\":8463:8483   */\n      sub\n        /* \"#utility.yul\":8459:8460   */\n      0x00\n        /* \"#utility.yul\":8448:8457   */\n      dup4\n        /* \"#utility.yul\":8444:8461   */\n      add\n        /* \"#utility.yul\":8437:8484   */\n      mstore\n        /* \"#utility.yul\":8501:8632   */\n      tag_254\n        /* \"#utility.yul\":8627:8631   */\n      dup2\n        /* \"#utility.yul\":8501:8632   */\n      tag_151\n      jump\t// in\n    tag_254:\n        /* \"#utility.yul\":8493:8632   */\n      swap1\n      pop\n        /* \"#utility.yul\":8220:8639   */\n      swap2\n      swap1\n      pop\n      jump\t// out\n        /* \"#utility.yul\":8645:8825   */\n    tag_152:\n        /* \"#utility.yul\":8693:8770   */\n      0x4e487b7100000000000000000000000000000000000000000000000000000000\n        /* \"#utility.yul\":8690:8691   */\n      0x00\n        /* \"#utility.yul\":8683:8771   */\n      mstore\n        /* \"#utility.yul\":8790:8794   */\n      0x11\n        /* \"#utility.yul\":8787:8788   */\n      0x04\n        /* \"#utility.yul\":8780:8795   */\n      mstore\n        /* \"#utility.yul\":8814:8818   */\n      0x24\n        /* \"#utility.yul\":8811:8812   */\n      0x00\n        /* \"#utility.yul\":8804:8819   */\n      revert\n        /* \"#utility.yul\":8831:9022   */\n    tag_64:\n        /* \"#utility.yul\":8871:8874   */\n      0x00\n        /* \"#utility.yul\":8890:8910   */\n      tag_257\n        /* \"#utility.yul\":8908:8909   */\n      dup3\n        /* \"#utility.yul\":8890:8910   */\n      tag_130\n      jump\t// in\n    tag_257:\n        /* \"#utility.yul\":8885:8910   */\n      swap2\n      pop\n        /* \"#utility.yul\":8924:8944   */\n      tag_258\n        /* \"#utility.yul\":8942:8943   */\n      dup4\n        /* \"#utility.yul\":8924:8944   */\n      tag_130\n      jump\t// in\n    tag_258:\n        /* \"#utility.yul\":8919:8944   */\n      swap3\n      pop\n        /* \"#utility.yul\":8967:8968   */\n      dup3\n        /* \"#utility.yul\":8964:8965   */\n      dup3\n        /* \"#utility.yul\":8960:8969   */\n      add\n        /* \"#utility.yul\":8953:8969   */\n      swap1\n      pop\n        /* \"#utility.yul\":8988:8991   */\n      dup1\n        /* \"#utility.yul\":8985:8986   */\n      dup3\n        /* \"#utility.yul\":8982:8992   */\n      gt\n        /* \"#utility.yul\":8979:9015   */\n      iszero\n      tag_259\n      jumpi\n        /* \"#utility.yul\":8995:9013   */\n      tag_260\n      tag_152\n      jump\t// in\n    tag_260:\n        /* \"#utility.yul\":8979:9015   */\n    tag_259:\n        /* \"#utility.yul\":8831:9022   */\n      swap3\n      swap2\n      pop\n      pop\n      jump\t// out\n        /* \"#utility.yul\":9028:9133   */\n    tag_153:\n        /* \"#utility.yul\":9064:9071   */\n      0x00\n        /* \"#utility.yul\":9104:9126   */\n      0xffffffffffffffffffff\n        /* \"#utility.yul\":9097:9102   */\n      dup3\n        /* \"#utility.yul\":9093:9127   */\n      and\n        /* \"#utility.yul\":9082:9127   */\n      swap1\n      pop\n        /* \"#utility.yul\":9028:9133   */\n      swap2\n      swap1\n      pop\n      jump\t// out\n        /* \"#utility.yul\":9139:9259   */\n    tag_154:\n        /* \"#utility.yul\":9211:9234   */\n      tag_263\n        /* \"#utility.yul\":9228:9233   */\n      dup2\n        /* \"#utility.yul\":9211:9234   */\n      tag_153\n      jump\t// in\n    tag_263:\n        /* \"#utility.yul\":9204:9209   */\n      dup2\n        /* \"#utility.yul\":9201:9235   */\n      eq\n        /* \"#utility.yul\":9191:9253   */\n      tag_264\n      jumpi\n        /* \"#utility.yul\":9249:9250   */\n      0x00\n        /* \"#utility.yul\":9246:9247   */\n      dup1\n        /* \"#utility.yul\":9239:9251   */\n      revert\n        /* \"#utility.yul\":9191:9253   */\n    tag_264:\n        /* \"#utility.yul\":9139:9259   */\n      pop\n      jump\t// out\n        /* \"#utility.yul\":9265:9406   */\n    tag_155:\n        /* \"#utility.yul\":9321:9326   */\n      0x00\n        /* \"#utility.yul\":9352:9358   */\n      dup2\n        /* \"#utility.yul\":9346:9359   */\n      mload\n        /* \"#utility.yul\":9337:9359   */\n      swap1\n      pop\n        /* \"#utility.yul\":9368:9400   */\n      tag_266\n        /* \"#utility.yul\":9394:9399   */\n      dup2\n        /* \"#utility.yul\":9368:9400   */\n      tag_154\n      jump\t// in\n    tag_266:\n        /* \"#utility.yul\":9265:9406   */\n      swap3\n      swap2\n      pop\n      pop\n      jump\t// out\n        /* \"#utility.yul\":9412:9532   */\n    tag_156:\n        /* \"#utility.yul\":9484:9507   */\n      tag_268\n        /* \"#utility.yul\":9501:9506   */\n      dup2\n        /* \"#utility.yul\":9484:9507   */\n      tag_135\n      jump\t// in\n    tag_268:\n        /* \"#utility.yul\":9477:9482   */\n      dup2\n        /* \"#utility.yul\":9474:9508   */\n      eq\n        /* \"#utility.yul\":9464:9526   */\n      tag_269\n      jumpi\n        /* \"#utility.yul\":9522:9523   */\n      0x00\n        /* \"#utility.yul\":9519:9520   */\n      dup1\n        /* \"#utility.yul\":9512:9524   */\n      revert\n        /* \"#utility.yul\":9464:9526   */\n    tag_269:\n        /* \"#utility.yul\":9412:9532   */\n      pop\n      jump\t// out\n        /* \"#utility.yul\":9538:9679   */\n    tag_157:\n        /* \"#utility.yul\":9594:9599   */\n      0x00\n        /* \"#utility.yul\":9625:9631   */\n      dup2\n        /* \"#utility.yul\":9619:9632   */\n      mload\n        /* \"#utility.yul\":9610:9632   */\n      swap1\n      pop\n        /* \"#utility.yul\":9641:9673   */\n      tag_271\n        /* \"#utility.yul\":9667:9672   */\n      dup2\n        /* \"#utility.yul\":9641:9673   */\n      tag_156\n      jump\t// in\n    tag_271:\n        /* \"#utility.yul\":9538:9679   */\n      swap3\n      swap2\n      pop\n      pop\n      jump\t// out\n        /* \"#utility.yul\":9685:9828   */\n    tag_158:\n        /* \"#utility.yul\":9742:9747   */\n      0x00\n        /* \"#utility.yul\":9773:9779   */\n      dup2\n        /* \"#utility.yul\":9767:9780   */\n      mload\n        /* \"#utility.yul\":9758:9780   */\n      swap1\n      pop\n        /* \"#utility.yul\":9789:9822   */\n      tag_273\n        /* \"#utility.yul\":9816:9821   */\n      dup2\n        /* \"#utility.yul\":9789:9822   */\n      tag_132\n      jump\t// in\n    tag_273:\n        /* \"#utility.yul\":9685:9828   */\n      swap3\n      swap2\n      pop\n      pop\n      jump\t// out\n        /* \"#utility.yul\":9834:10805   */\n    tag_79:\n        /* \"#utility.yul\":9937:9943   */\n      0x00\n        /* \"#utility.yul\":9945:9951   */\n      dup1\n        /* \"#utility.yul\":9953:9959   */\n      0x00\n        /* \"#utility.yul\":9961:9967   */\n      dup1\n        /* \"#utility.yul\":9969:9975   */\n      0x00\n        /* \"#utility.yul\":10018:10021   */\n      0xa0\n        /* \"#utility.yul\":10006:10015   */\n      dup7\n        /* \"#utility.yul\":9997:10004   */\n      dup9\n        /* \"#utility.yul\":9993:10016   */\n      sub\n        /* \"#utility.yul\":9989:10022   */\n      slt\n        /* \"#utility.yul\":9986:10106   */\n      iszero\n      tag_275\n      jumpi\n        /* \"#utility.yul\":10025:10104   */\n      tag_276\n      tag_124\n      jump\t// in\n    tag_276:\n        /* \"#utility.yul\":9986:10106   */\n    tag_275:\n        /* \"#utility.yul\":10145:10146   */\n      0x00\n        /* \"#utility.yul\":10170:10233   */\n      tag_277\n        /* \"#utility.yul\":10225:10232   */\n      dup9\n        /* \"#utility.yul\":10216:10222   */\n      dup3\n        /* \"#utility.yul\":10205:10214   */\n      dup10\n        /* \"#utility.yul\":10201:10223   */\n      add\n        /* \"#utility.yul\":10170:10233   */\n      tag_155\n      jump\t// in\n    tag_277:\n        /* \"#utility.yul\":10160:10233   */\n      swap6\n      pop\n        /* \"#utility.yul\":10116:10243   */\n      pop\n        /* \"#utility.yul\":10282:10284   */\n      0x20\n        /* \"#utility.yul\":10308:10371   */\n      tag_278\n        /* \"#utility.yul\":10363:10370   */\n      dup9\n        /* \"#utility.yul\":10354:10360   */\n      dup3\n        /* \"#utility.yul\":10343:10352   */\n      dup10\n        /* \"#utility.yul\":10339:10361   */\n      add\n        /* \"#utility.yul\":10308:10371   */\n      tag_157\n      jump\t// in\n    tag_278:\n        /* \"#utility.yul\":10298:10371   */\n      swap5\n      pop\n        /* \"#utility.yul\":10253:10381   */\n      pop\n        /* \"#utility.yul\":10420:10422   */\n      0x40\n        /* \"#utility.yul\":10446:10510   */\n      tag_279\n        /* \"#utility.yul\":10502:10509   */\n      dup9\n        /* \"#utility.yul\":10493:10499   */\n      dup3\n        /* \"#utility.yul\":10482:10491   */\n      dup10\n        /* \"#utility.yul\":10478:10500   */\n      add\n        /* \"#utility.yul\":10446:10510   */\n      tag_158\n      jump\t// in\n    tag_279:\n        /* \"#utility.yul\":10436:10510   */\n      swap4\n      pop\n        /* \"#utility.yul\":10391:10520   */\n      pop\n        /* \"#utility.yul\":10559:10561   */\n      0x60\n        /* \"#utility.yul\":10585:10649   */\n      tag_280\n        /* \"#utility.yul\":10641:10648   */\n      dup9\n        /* \"#utility.yul\":10632:10638   */\n      dup3\n        /* \"#utility.yul\":10621:10630   */\n      dup10\n        /* \"#utility.yul\":10617:10639   */\n      add\n        /* \"#utility.yul\":10585:10649   */\n      tag_158\n      jump\t// in\n    tag_280:\n        /* \"#utility.yul\":10575:10649   */\n      swap3\n      pop\n        /* \"#utility.yul\":10530:10659   */\n      pop\n        /* \"#utility.yul\":10698:10701   */\n      0x80\n        /* \"#utility.yul\":10725:10788   */\n      tag_281\n        /* \"#utility.yul\":10780:10787   */\n      dup9\n        /* \"#utility.yul\":10771:10777   */\n      dup3\n        /* \"#utility.yul\":10760:10769   */\n      dup10\n        /* \"#utility.yul\":10756:10778   */\n      add\n        /* \"#utility.yul\":10725:10788   */\n      tag_155\n      jump\t// in\n    tag_281:\n        /* \"#utility.yul\":10715:10788   */\n      swap2\n      pop\n        /* \"#utility.yul\":10669:10798   */\n      pop\n        /* \"#utility.yul\":9834:10805   */\n      swap3\n      swap6\n      pop\n      swap3\n      swap6\n      swap1\n      swap4\n      pop\n      jump\t// out\n        /* \"#utility.yul\":10811:10991   */\n    tag_159:\n        /* \"#utility.yul\":10951:10983   */\n      0x496e76616c696420707269636520646174612066726f6d206f7261636c650000\n        /* \"#utility.yul\":10947:10948   */\n      0x00\n        /* \"#utility.yul\":10939:10945   */\n      dup3\n        /* \"#utility.yul\":10935:10949   */\n      add\n        /* \"#utility.yul\":10928:10984   */\n      mstore\n        /* \"#utility.yul\":10811:10991   */\n      pop\n      jump\t// out\n        /* \"#utility.yul\":10997:11363   */\n    tag_160:\n        /* \"#utility.yul\":11139:11142   */\n      0x00\n        /* \"#utility.yul\":11160:11227   */\n      tag_284\n        /* \"#utility.yul\":11224:11226   */\n      0x1e\n        /* \"#utility.yul\":11219:11222   */\n      dup4\n        /* \"#utility.yul\":11160:11227   */\n      tag_142\n      jump\t// in\n    tag_284:\n        /* \"#utility.yul\":11153:11227   */\n      swap2\n      pop\n        /* \"#utility.yul\":11236:11329   */\n      tag_285\n        /* \"#utility.yul\":11325:11328   */\n      dup3\n        /* \"#utility.yul\":11236:11329   */\n      tag_159\n      jump\t// in\n    tag_285:\n        /* \"#utility.yul\":11354:11356   */\n      0x20\n        /* \"#utility.yul\":11349:11352   */\n      dup3\n        /* \"#utility.yul\":11345:11357   */\n      add\n        /* \"#utility.yul\":11338:11357   */\n      swap1\n      pop\n        /* \"#utility.yul\":10997:11363   */\n      swap2\n      swap1\n      pop\n      jump\t// out\n        /* \"#utility.yul\":11369:11788   */\n    tag_82:\n        /* \"#utility.yul\":11535:11539   */\n      0x00\n        /* \"#utility.yul\":11573:11575   */\n      0x20\n        /* \"#utility.yul\":11562:11571   */\n      dup3\n        /* \"#utility.yul\":11558:11576   */\n      add\n        /* \"#utility.yul\":11550:11576   */\n      swap1\n      pop\n        /* \"#utility.yul\":11622:11631   */\n      dup2\n        /* \"#utility.yul\":11616:11620   */\n      dup2\n        /* \"#utility.yul\":11612:11632   */\n      sub\n        /* \"#utility.yul\":11608:11609   */\n      0x00\n        /* \"#utility.yul\":11597:11606   */\n      dup4\n        /* \"#utility.yul\":11593:11610   */\n      add\n        /* \"#utility.yul\":11586:11633   */\n      mstore\n        /* \"#utility.yul\":11650:11781   */\n      tag_287\n        /* \"#utility.yul\":11776:11780   */\n      dup2\n        /* \"#utility.yul\":11650:11781   */\n      tag_160\n      jump\t// in\n    tag_287:\n        /* \"#utility.yul\":11642:11781   */\n      swap1\n      pop\n        /* \"#utility.yul\":11369:11788   */\n      swap2\n      swap1\n      pop\n      jump\t// out\n        /* \"#utility.yul\":11794:11970   */\n    tag_161:\n        /* \"#utility.yul\":11934:11962   */\n      0x496e73756666696369656e74206c6f636b656420746f6b656e73000000000000\n        /* \"#utility.yul\":11930:11931   */\n      0x00\n        /* \"#utility.yul\":11922:11928   */\n      dup3\n        /* \"#utility.yul\":11918:11932   */\n      add\n        /* \"#utility.yul\":11911:11963   */\n      mstore\n        /* \"#utility.yul\":11794:11970   */\n      pop\n      jump\t// out\n        /* \"#utility.yul\":11976:12342   */\n    tag_162:\n        /* \"#utility.yul\":12118:12121   */\n      0x00\n        /* \"#utility.yul\":12139:12206   */\n      tag_290\n        /* \"#utility.yul\":12203:12205   */\n      0x1a\n        /* \"#utility.yul\":12198:12201   */\n      dup4\n        /* \"#utility.yul\":12139:12206   */\n      tag_142\n      jump\t// in\n    tag_290:\n        /* \"#utility.yul\":12132:12206   */\n      swap2\n      pop\n        /* \"#utility.yul\":12215:12308   */\n      tag_291\n        /* \"#utility.yul\":12304:12307   */\n      dup3\n        /* \"#utility.yul\":12215:12308   */\n      tag_161\n      jump\t// in\n    tag_291:\n        /* \"#utility.yul\":12333:12335   */\n      0x20\n        /* \"#utility.yul\":12328:12331   */\n      dup3\n        /* \"#utility.yul\":12324:12336   */\n      add\n        /* \"#utility.yul\":12317:12336   */\n      swap1\n      pop\n        /* \"#utility.yul\":11976:12342   */\n      swap2\n      swap1\n      pop\n      jump\t// out\n        /* \"#utility.yul\":12348:12767   */\n    tag_96:\n        /* \"#utility.yul\":12514:12518   */\n      0x00\n        /* \"#utility.yul\":12552:12554   */\n      0x20\n        /* \"#utility.yul\":12541:12550   */\n      dup3\n        /* \"#utility.yul\":12537:12555   */\n      add\n        /* \"#utility.yul\":12529:12555   */\n      swap1\n      pop\n        /* \"#utility.yul\":12601:12610   */\n      dup2\n        /* \"#utility.yul\":12595:12599   */\n      dup2\n        /* \"#utility.yul\":12591:12611   */\n      sub\n        /* \"#utility.yul\":12587:12588   */\n      0x00\n        /* \"#utility.yul\":12576:12585   */\n      dup4\n        /* \"#utility.yul\":12572:12589   */\n      add\n        /* \"#utility.yul\":12565:12612   */\n      mstore\n        /* \"#utility.yul\":12629:12760   */\n      tag_293\n        /* \"#utility.yul\":12755:12759   */\n      dup2\n        /* \"#utility.yul\":12629:12760   */\n      tag_162\n      jump\t// in\n    tag_293:\n        /* \"#utility.yul\":12621:12760   */\n      swap1\n      pop\n        /* \"#utility.yul\":12348:12767   */\n      swap2\n      swap1\n      pop\n      jump\t// out\n        /* \"#utility.yul\":12773:12967   */\n    tag_98:\n        /* \"#utility.yul\":12813:12817   */\n      0x00\n        /* \"#utility.yul\":12833:12853   */\n      tag_295\n        /* \"#utility.yul\":12851:12852   */\n      dup3\n        /* \"#utility.yul\":12833:12853   */\n      tag_130\n      jump\t// in\n    tag_295:\n        /* \"#utility.yul\":12828:12853   */\n      swap2\n      pop\n        /* \"#utility.yul\":12867:12887   */\n      tag_296\n        /* \"#utility.yul\":12885:12886   */\n      dup4\n        /* \"#utility.yul\":12867:12887   */\n      tag_130\n      jump\t// in\n    tag_296:\n        /* \"#utility.yul\":12862:12887   */\n      swap3\n      pop\n        /* \"#utility.yul\":12911:12912   */\n      dup3\n        /* \"#utility.yul\":12908:12909   */\n      dup3\n        /* \"#utility.yul\":12904:12913   */\n      sub\n        /* \"#utility.yul\":12896:12913   */\n      swap1\n      pop\n        /* \"#utility.yul\":12935:12936   */\n      dup2\n        /* \"#utility.yul\":12929:12933   */\n      dup2\n        /* \"#utility.yul\":12926:12937   */\n      gt\n        /* \"#utility.yul\":12923:12960   */\n      iszero\n      tag_297\n      jumpi\n        /* \"#utility.yul\":12940:12958   */\n      tag_298\n      tag_152\n      jump\t// in\n    tag_298:\n        /* \"#utility.yul\":12923:12960   */\n    tag_297:\n        /* \"#utility.yul\":12773:12967   */\n      swap3\n      swap2\n      pop\n      pop\n      jump\t// out\n        /* \"#utility.yul\":12973:13305   */\n    tag_100:\n        /* \"#utility.yul\":13094:13098   */\n      0x00\n        /* \"#utility.yul\":13132:13134   */\n      0x40\n        /* \"#utility.yul\":13121:13130   */\n      dup3\n        /* \"#utility.yul\":13117:13135   */\n      add\n        /* \"#utility.yul\":13109:13135   */\n      swap1\n      pop\n        /* \"#utility.yul\":13145:13216   */\n      tag_300\n        /* \"#utility.yul\":13213:13214   */\n      0x00\n        /* \"#utility.yul\":13202:13211   */\n      dup4\n        /* \"#utility.yul\":13198:13215   */\n      add\n        /* \"#utility.yul\":13189:13195   */\n      dup6\n        /* \"#utility.yul\":13145:13216   */\n      tag_134\n      jump\t// in\n    tag_300:\n        /* \"#utility.yul\":13226:13298   */\n      tag_301\n        /* \"#utility.yul\":13294:13296   */\n      0x20\n        /* \"#utility.yul\":13283:13292   */\n      dup4\n        /* \"#utility.yul\":13279:13297   */\n      add\n        /* \"#utility.yul\":13270:13276   */\n      dup5\n        /* \"#utility.yul\":13226:13298   */\n      tag_131\n      jump\t// in\n    tag_301:\n        /* \"#utility.yul\":12973:13305   */\n      swap4\n      swap3\n      pop\n      pop\n      pop\n      jump\t// out\n        /* \"#utility.yul\":13311:13492   */\n    tag_163:\n        /* \"#utility.yul\":13451:13484   */\n      0x5265656e7472616e637947756172643a207265656e7472616e742063616c6c00\n        /* \"#utility.yul\":13447:13448   */\n      0x00\n        /* \"#utility.yul\":13439:13445   */\n      dup3\n        /* \"#utility.yul\":13435:13449   */\n      add\n        /* \"#utility.yul\":13428:13485   */\n      mstore\n        /* \"#utility.yul\":13311:13492   */\n      pop\n      jump\t// out\n        /* \"#utility.yul\":13498:13864   */\n    tag_164:\n        /* \"#utility.yul\":13640:13643   */\n      0x00\n        /* \"#utility.yul\":13661:13728   */\n      tag_304\n        /* \"#utility.yul\":13725:13727   */\n      0x1f\n        /* \"#utility.yul\":13720:13723   */\n      dup4\n        /* \"#utility.yul\":13661:13728   */\n      tag_142\n      jump\t// in\n    tag_304:\n        /* \"#utility.yul\":13654:13728   */\n      swap2\n      pop\n        /* \"#utility.yul\":13737:13830   */\n      tag_305\n        /* \"#utility.yul\":13826:13829   */\n      dup3\n        /* \"#utility.yul\":13737:13830   */\n      tag_163\n      jump\t// in\n    tag_305:\n        /* \"#utility.yul\":13855:13857   */\n      0x20\n        /* \"#utility.yul\":13850:13853   */\n      dup3\n        /* \"#utility.yul\":13846:13858   */\n      add\n        /* \"#utility.yul\":13839:13858   */\n      swap1\n      pop\n        /* \"#utility.yul\":13498:13864   */\n      swap2\n      swap1\n      pop\n      jump\t// out\n        /* \"#utility.yul\":13870:14289   */\n    tag_112:\n        /* \"#utility.yul\":14036:14040   */\n      0x00\n        /* \"#utility.yul\":14074:14076   */\n      0x20\n        /* \"#utility.yul\":14063:14072   */\n      dup3\n        /* \"#utility.yul\":14059:14077   */\n      add\n        /* \"#utility.yul\":14051:14077   */\n      swap1\n      pop\n        /* \"#utility.yul\":14123:14132   */\n      dup2\n        /* \"#utility.yul\":14117:14121   */\n      dup2\n        /* \"#utility.yul\":14113:14133   */\n      sub\n        /* \"#utility.yul\":14109:14110   */\n      0x00\n        /* \"#utility.yul\":14098:14107   */\n      dup4\n        /* \"#utility.yul\":14094:14111   */\n      add\n        /* \"#utility.yul\":14087:14134   */\n      mstore\n        /* \"#utility.yul\":14151:14282   */\n      tag_307\n        /* \"#utility.yul\":14277:14281   */\n      dup2\n        /* \"#utility.yul\":14151:14282   */\n      tag_164\n      jump\t// in\n    tag_307:\n        /* \"#utility.yul\":14143:14282   */\n      swap1\n      pop\n        /* \"#utility.yul\":13870:14289   */\n      swap2\n      swap1\n      pop\n      jump\t// out\n\n    auxdata: 0xa2646970667358221220aa1855ca2de48828090f096361445f10500b30d9e137c8ff99ba9d1b9a392f2464736f6c634300081a0033\n}\n",
				"bytecode": {
					"linkReferences": {},
					"object": "608060405234801561000f575f80fd5b5060405161135c38038061135c8339818101604052810190610031919061025f565b335f73ffffffffffffffffffffffffffffffffffffffff168173ffffffffffffffffffffffffffffffffffffffff16036100a2575f6040517f1e4fbdf700000000000000000000000000000000000000000000000000000000815260040161009991906102ac565b60405180910390fd5b6100b18161014060201b60201c565b50600180819055508160025f6101000a81548173ffffffffffffffffffffffffffffffffffffffff021916908373ffffffffffffffffffffffffffffffffffffffff1602179055508060035f6101000a81548173ffffffffffffffffffffffffffffffffffffffff021916908373ffffffffffffffffffffffffffffffffffffffff16021790555050506102c5565b5f805f9054906101000a900473ffffffffffffffffffffffffffffffffffffffff169050815f806101000a81548173ffffffffffffffffffffffffffffffffffffffff021916908373ffffffffffffffffffffffffffffffffffffffff1602179055508173ffffffffffffffffffffffffffffffffffffffff168173ffffffffffffffffffffffffffffffffffffffff167f8be0079c531659141344cd1fd0a4f28419497f9722a3daafe3b4186f6b6457e060405160405180910390a35050565b5f80fd5b5f73ffffffffffffffffffffffffffffffffffffffff82169050919050565b5f61022e82610205565b9050919050565b61023e81610224565b8114610248575f80fd5b50565b5f8151905061025981610235565b92915050565b5f806040838503121561027557610274610201565b5b5f6102828582860161024b565b92505060206102938582860161024b565b9150509250929050565b6102a681610224565b82525050565b5f6020820190506102bf5f83018461029d565b92915050565b61108a806102d25f395ff3fe608060405234801561000f575f80fd5b5060043610610086575f3560e01c80638e15f473116100595780638e15f473146100fe578063f2fde38b1461011c578063f40d71f114610138578063fc0c546a1461015457610086565b80635eb7413a1461008a5780636e27d889146100ba578063715018a6146100d65780638da5cb5b146100e0575b5f80fd5b6100a4600480360381019061009f91906109d5565b610172565b6040516100b19190610a18565b60405180910390f35b6100d460048036038101906100cf9190610a5b565b610187565b005b6100de6103a8565b005b6100e86103bb565b6040516100f59190610a95565b60405180910390f35b6101066103e2565b6040516101139190610ac6565b60405180910390f35b610136600480360381019061013191906109d5565b6104c1565b005b610152600480360381019061014d9190610adf565b610545565b005b61015c6107ab565b6040516101699190610b78565b60405180910390f35b6004602052805f5260405f205f915090505481565b61018f6107d0565b5f81116101d1576040517f08c379a00000000000000000000000000000000000000000000000000000000081526004016101c890610beb565b60405180910390fd5b5f6101da6103e2565b90505f811361021e576040517f08c379a000000000000000000000000000000000000000000000000000000000815260040161021590610c53565b60405180910390fd5b60025f9054906101000a900473ffffffffffffffffffffffffffffffffffffffff1673ffffffffffffffffffffffffffffffffffffffff166323b872dd3330856040518463ffffffff1660e01b815260040161027c93929190610c71565b6020604051808303815f875af1158015610298573d5f803e3d5ffd5b505050506040513d601f19601f820116820180604052508101906102bc9190610cdb565b6102fb576040517f08c379a00000000000000000000000000000000000000000000000000000000081526004016102f290610d50565b60405180910390fd5b8160045f3373ffffffffffffffffffffffffffffffffffffffff1673ffffffffffffffffffffffffffffffffffffffff1681526020019081526020015f205f8282546103479190610d9b565b925050819055503373ffffffffffffffffffffffffffffffffffffffff167fac87f20a77d28ee8bbb58ec87ea8fa968b3393efae1a368fd50b767c2847391c836040516103949190610a18565b60405180910390a2506103a561081f565b50565b6103b0610828565b6103b95f6108af565b565b5f805f9054906101000a900473ffffffffffffffffffffffffffffffffffffffff16905090565b5f8060035f9054906101000a900473ffffffffffffffffffffffffffffffffffffffff1673ffffffffffffffffffffffffffffffffffffffff1663feaf968c6040518163ffffffff1660e01b815260040160a060405180830381865afa15801561044e573d5f803e3d5ffd5b505050506040513d601f19601f820116820180604052508101906104729190610e4b565b5050509150505f81136104ba576040517f08c379a00000000000000000000000000000000000000000000000000000000081526004016104b190610f0c565b60405180910390fd5b8091505090565b6104c9610828565b5f73ffffffffffffffffffffffffffffffffffffffff168173ffffffffffffffffffffffffffffffffffffffff1603610539575f6040517f1e4fbdf70000000000000000000000000000000000000000000000000000000081526004016105309190610a95565b60405180910390fd5b610542816108af565b50565b61054d610828565b6105556107d0565b8060045f8473ffffffffffffffffffffffffffffffffffffffff1673ffffffffffffffffffffffffffffffffffffffff1681526020019081526020015f205410156105d5576040517f08c379a00000000000000000000000000000000000000000000000000000000081526004016105cc90610f74565b60405180910390fd5b8060045f8473ffffffffffffffffffffffffffffffffffffffff1673ffffffffffffffffffffffffffffffffffffffff1681526020019081526020015f205f8282546106219190610f92565b9250508190555060025f9054906101000a900473ffffffffffffffffffffffffffffffffffffffff1673ffffffffffffffffffffffffffffffffffffffff1663a9059cbb83836040518363ffffffff1660e01b8152600401610684929190610fc5565b6020604051808303815f875af11580156106a0573d5f803e3d5ffd5b505050506040513d601f19601f820116820180604052508101906106c49190610cdb565b610751578173ffffffffffffffffffffffffffffffffffffffff167f1c43b9761b3fba5321ca8212bfc231945f668ccc0c446f333999eea9ce8fda818260405161070e9190610a18565b60405180910390a26040517f08c379a000000000000000000000000000000000000000000000000000000000815260040161074890610d50565b60405180910390fd5b8173ffffffffffffffffffffffffffffffffffffffff167fc7798891864187665ac6dd119286e44ec13f014527aeeb2b8eb3fd413df93179826040516107979190610a18565b60405180910390a26107a761081f565b5050565b60025f9054906101000a900473ffffffffffffffffffffffffffffffffffffffff1681565b600260015403610815576040517f08c379a000000000000000000000000000000000000000000000000000000000815260040161080c90611036565b60405180910390fd5b6002600181905550565b60018081905550565b610830610970565b73ffffffffffffffffffffffffffffffffffffffff1661084e6103bb565b73ffffffffffffffffffffffffffffffffffffffff16146108ad57610871610970565b6040517f118cdaa70000000000000000000000000000000000000000000000000000000081526004016108a49190610a95565b60405180910390fd5b565b5f805f9054906101000a900473ffffffffffffffffffffffffffffffffffffffff169050815f806101000a81548173ffffffffffffffffffffffffffffffffffffffff021916908373ffffffffffffffffffffffffffffffffffffffff1602179055508173ffffffffffffffffffffffffffffffffffffffff168173ffffffffffffffffffffffffffffffffffffffff167f8be0079c531659141344cd1fd0a4f28419497f9722a3daafe3b4186f6b6457e060405160405180910390a35050565b5f33905090565b5f80fd5b5f73ffffffffffffffffffffffffffffffffffffffff82169050919050565b5f6109a48261097b565b9050919050565b6109b48161099a565b81146109be575f80fd5b50565b5f813590506109cf816109ab565b92915050565b5f602082840312156109ea576109e9610977565b5b5f6109f7848285016109c1565b91505092915050565b5f819050919050565b610a1281610a00565b82525050565b5f602082019050610a2b5f830184610a09565b92915050565b610a3a81610a00565b8114610a44575f80fd5b50565b5f81359050610a5581610a31565b92915050565b5f60208284031215610a7057610a6f610977565b5b5f610a7d84828501610a47565b91505092915050565b610a8f8161099a565b82525050565b5f602082019050610aa85f830184610a86565b92915050565b5f819050919050565b610ac081610aae565b82525050565b5f602082019050610ad95f830184610ab7565b92915050565b5f8060408385031215610af557610af4610977565b5b5f610b02858286016109c1565b9250506020610b1385828601610a47565b9150509250929050565b5f819050919050565b5f610b40610b3b610b368461097b565b610b1d565b61097b565b9050919050565b5f610b5182610b26565b9050919050565b5f610b6282610b47565b9050919050565b610b7281610b58565b82525050565b5f602082019050610b8b5f830184610b69565b92915050565b5f82825260208201905092915050565b7f416d6f756e74206d7573742062652067726561746572207468616e20300000005f82015250565b5f610bd5601d83610b91565b9150610be082610ba1565b602082019050919050565b5f6020820190508181035f830152610c0281610bc9565b9050919050565b7f50726963652066656564206572726f72000000000000000000000000000000005f82015250565b5f610c3d601083610b91565b9150610c4882610c09565b602082019050919050565b5f6020820190508181035f830152610c6a81610c31565b9050919050565b5f606082019050610c845f830186610a86565b610c916020830185610a86565b610c9e6040830184610a09565b949350505050565b5f8115159050919050565b610cba81610ca6565b8114610cc4575f80fd5b50565b5f81519050610cd581610cb1565b92915050565b5f60208284031215610cf057610cef610977565b5b5f610cfd84828501610cc7565b91505092915050565b7f5472616e73666572206661696c656400000000000000000000000000000000005f82015250565b5f610d3a600f83610b91565b9150610d4582610d06565b602082019050919050565b5f6020820190508181035f830152610d6781610d2e565b9050919050565b7f4e487b71000000000000000000000000000000000000000000000000000000005f52601160045260245ffd5b5f610da582610a00565b9150610db083610a00565b9250828201905080821115610dc857610dc7610d6e565b5b92915050565b5f69ffffffffffffffffffff82169050919050565b610dec81610dce565b8114610df6575f80fd5b50565b5f81519050610e0781610de3565b92915050565b610e1681610aae565b8114610e20575f80fd5b50565b5f81519050610e3181610e0d565b92915050565b5f81519050610e4581610a31565b92915050565b5f805f805f60a08688031215610e6457610e63610977565b5b5f610e7188828901610df9565b9550506020610e8288828901610e23565b9450506040610e9388828901610e37565b9350506060610ea488828901610e37565b9250506080610eb588828901610df9565b9150509295509295909350565b7f496e76616c696420707269636520646174612066726f6d206f7261636c6500005f82015250565b5f610ef6601e83610b91565b9150610f0182610ec2565b602082019050919050565b5f6020820190508181035f830152610f2381610eea565b9050919050565b7f496e73756666696369656e74206c6f636b656420746f6b656e730000000000005f82015250565b5f610f5e601a83610b91565b9150610f6982610f2a565b602082019050919050565b5f6020820190508181035f830152610f8b81610f52565b9050919050565b5f610f9c82610a00565b9150610fa783610a00565b9250828203905081811115610fbf57610fbe610d6e565b5b92915050565b5f604082019050610fd85f830185610a86565b610fe56020830184610a09565b9392505050565b7f5265656e7472616e637947756172643a207265656e7472616e742063616c6c005f82015250565b5f611020601f83610b91565b915061102b82610fec565b602082019050919050565b5f6020820190508181035f83015261104d81611014565b905091905056fea2646970667358221220aa1855ca2de48828090f096361445f10500b30d9e137c8ff99ba9d1b9a392f2464736f6c634300081a0033",
					"opcodes": "PUSH1 0x80 PUSH1 0x40 MSTORE CALLVALUE DUP1 ISZERO PUSH2 0xF JUMPI PUSH0 DUP1 REVERT JUMPDEST POP PUSH1 0x40 MLOAD PUSH2 0x135C CODESIZE SUB DUP1 PUSH2 0x135C DUP4 CODECOPY DUP2 DUP2 ADD PUSH1 0x40 MSTORE DUP2 ADD SWAP1 PUSH2 0x31 SWAP2 SWAP1 PUSH2 0x25F JUMP JUMPDEST CALLER PUSH0 PUSH20 0xFFFFFFFFFFFFFFFFFFFFFFFFFFFFFFFFFFFFFFFF AND DUP2 PUSH20 0xFFFFFFFFFFFFFFFFFFFFFFFFFFFFFFFFFFFFFFFF AND SUB PUSH2 0xA2 JUMPI PUSH0 PUSH1 0x40 MLOAD PUSH32 0x1E4FBDF700000000000000000000000000000000000000000000000000000000 DUP2 MSTORE PUSH1 0x4 ADD PUSH2 0x99 SWAP2 SWAP1 PUSH2 0x2AC JUMP JUMPDEST PUSH1 0x40 MLOAD DUP1 SWAP2 SUB SWAP1 REVERT JUMPDEST PUSH2 0xB1 DUP2 PUSH2 0x140 PUSH1 0x20 SHL PUSH1 0x20 SHR JUMP JUMPDEST POP PUSH1 0x1 DUP1 DUP2 SWAP1 SSTORE POP DUP2 PUSH1 0x2 PUSH0 PUSH2 0x100 EXP DUP2 SLOAD DUP2 PUSH20 0xFFFFFFFFFFFFFFFFFFFFFFFFFFFFFFFFFFFFFFFF MUL NOT AND SWAP1 DUP4 PUSH20 0xFFFFFFFFFFFFFFFFFFFFFFFFFFFFFFFFFFFFFFFF AND MUL OR SWAP1 SSTORE POP DUP1 PUSH1 0x3 PUSH0 PUSH2 0x100 EXP DUP2 SLOAD DUP2 PUSH20 0xFFFFFFFFFFFFFFFFFFFFFFFFFFFFFFFFFFFFFFFF MUL NOT AND SWAP1 DUP4 PUSH20 0xFFFFFFFFFFFFFFFFFFFFFFFFFFFFFFFFFFFFFFFF AND MUL OR SWAP1 SSTORE POP POP POP PUSH2 0x2C5 JUMP JUMPDEST PUSH0 DUP1 PUSH0 SWAP1 SLOAD SWAP1 PUSH2 0x100 EXP SWAP1 DIV PUSH20 0xFFFFFFFFFFFFFFFFFFFFFFFFFFFFFFFFFFFFFFFF AND SWAP1 POP DUP2 PUSH0 DUP1 PUSH2 0x100 EXP DUP2 SLOAD DUP2 PUSH20 0xFFFFFFFFFFFFFFFFFFFFFFFFFFFFFFFFFFFFFFFF MUL NOT AND SWAP1 DUP4 PUSH20 0xFFFFFFFFFFFFFFFFFFFFFFFFFFFFFFFFFFFFFFFF AND MUL OR SWAP1 SSTORE POP DUP2 PUSH20 0xFFFFFFFFFFFFFFFFFFFFFFFFFFFFFFFFFFFFFFFF AND DUP2 PUSH20 0xFFFFFFFFFFFFFFFFFFFFFFFFFFFFFFFFFFFFFFFF AND PUSH32 0x8BE0079C531659141344CD1FD0A4F28419497F9722A3DAAFE3B4186F6B6457E0 PUSH1 0x40 MLOAD PUSH1 0x40 MLOAD DUP1 SWAP2 SUB SWAP1 LOG3 POP POP JUMP JUMPDEST PUSH0 DUP1 REVERT JUMPDEST PUSH0 PUSH20 0xFFFFFFFFFFFFFFFFFFFFFFFFFFFFFFFFFFFFFFFF DUP3 AND SWAP1 POP SWAP2 SWAP1 POP JUMP JUMPDEST PUSH0 PUSH2 0x22E DUP3 PUSH2 0x205 JUMP JUMPDEST SWAP1 POP SWAP2 SWAP1 POP JUMP JUMPDEST PUSH2 0x23E DUP2 PUSH2 0x224 JUMP JUMPDEST DUP2 EQ PUSH2 0x248 JUMPI PUSH0 DUP1 REVERT JUMPDEST POP JUMP JUMPDEST PUSH0 DUP2 MLOAD SWAP1 POP PUSH2 0x259 DUP2 PUSH2 0x235 JUMP JUMPDEST SWAP3 SWAP2 POP POP JUMP JUMPDEST PUSH0 DUP1 PUSH1 0x40 DUP4 DUP6 SUB SLT ISZERO PUSH2 0x275 JUMPI PUSH2 0x274 PUSH2 0x201 JUMP JUMPDEST JUMPDEST PUSH0 PUSH2 0x282 DUP6 DUP3 DUP7 ADD PUSH2 0x24B JUMP JUMPDEST SWAP3 POP POP PUSH1 0x20 PUSH2 0x293 DUP6 DUP3 DUP7 ADD PUSH2 0x24B JUMP JUMPDEST SWAP2 POP POP SWAP3 POP SWAP3 SWAP1 POP JUMP JUMPDEST PUSH2 0x2A6 DUP2 PUSH2 0x224 JUMP JUMPDEST DUP3 MSTORE POP POP JUMP JUMPDEST PUSH0 PUSH1 0x20 DUP3 ADD SWAP1 POP PUSH2 0x2BF PUSH0 DUP4 ADD DUP5 PUSH2 0x29D JUMP JUMPDEST SWAP3 SWAP2 POP POP JUMP JUMPDEST PUSH2 0x108A DUP1 PUSH2 0x2D2 PUSH0 CODECOPY PUSH0 RETURN INVALID PUSH1 0x80 PUSH1 0x40 MSTORE CALLVALUE DUP1 ISZERO PUSH2 0xF JUMPI PUSH0 DUP1 REVERT JUMPDEST POP PUSH1 0x4 CALLDATASIZE LT PUSH2 0x86 JUMPI PUSH0 CALLDATALOAD PUSH1 0xE0 SHR DUP1 PUSH4 0x8E15F473 GT PUSH2 0x59 JUMPI DUP1 PUSH4 0x8E15F473 EQ PUSH2 0xFE JUMPI DUP1 PUSH4 0xF2FDE38B EQ PUSH2 0x11C JUMPI DUP1 PUSH4 0xF40D71F1 EQ PUSH2 0x138 JUMPI DUP1 PUSH4 0xFC0C546A EQ PUSH2 0x154 JUMPI PUSH2 0x86 JUMP JUMPDEST DUP1 PUSH4 0x5EB7413A EQ PUSH2 0x8A JUMPI DUP1 PUSH4 0x6E27D889 EQ PUSH2 0xBA JUMPI DUP1 PUSH4 0x715018A6 EQ PUSH2 0xD6 JUMPI DUP1 PUSH4 0x8DA5CB5B EQ PUSH2 0xE0 JUMPI JUMPDEST PUSH0 DUP1 REVERT JUMPDEST PUSH2 0xA4 PUSH1 0x4 DUP1 CALLDATASIZE SUB DUP2 ADD SWAP1 PUSH2 0x9F SWAP2 SWAP1 PUSH2 0x9D5 JUMP JUMPDEST PUSH2 0x172 JUMP JUMPDEST PUSH1 0x40 MLOAD PUSH2 0xB1 SWAP2 SWAP1 PUSH2 0xA18 JUMP JUMPDEST PUSH1 0x40 MLOAD DUP1 SWAP2 SUB SWAP1 RETURN JUMPDEST PUSH2 0xD4 PUSH1 0x4 DUP1 CALLDATASIZE SUB DUP2 ADD SWAP1 PUSH2 0xCF SWAP2 SWAP1 PUSH2 0xA5B JUMP JUMPDEST PUSH2 0x187 JUMP JUMPDEST STOP JUMPDEST PUSH2 0xDE PUSH2 0x3A8 JUMP JUMPDEST STOP JUMPDEST PUSH2 0xE8 PUSH2 0x3BB JUMP JUMPDEST PUSH1 0x40 MLOAD PUSH2 0xF5 SWAP2 SWAP1 PUSH2 0xA95 JUMP JUMPDEST PUSH1 0x40 MLOAD DUP1 SWAP2 SUB SWAP1 RETURN JUMPDEST PUSH2 0x106 PUSH2 0x3E2 JUMP JUMPDEST PUSH1 0x40 MLOAD PUSH2 0x113 SWAP2 SWAP1 PUSH2 0xAC6 JUMP JUMPDEST PUSH1 0x40 MLOAD DUP1 SWAP2 SUB SWAP1 RETURN JUMPDEST PUSH2 0x136 PUSH1 0x4 DUP1 CALLDATASIZE SUB DUP2 ADD SWAP1 PUSH2 0x131 SWAP2 SWAP1 PUSH2 0x9D5 JUMP JUMPDEST PUSH2 0x4C1 JUMP JUMPDEST STOP JUMPDEST PUSH2 0x152 PUSH1 0x4 DUP1 CALLDATASIZE SUB DUP2 ADD SWAP1 PUSH2 0x14D SWAP2 SWAP1 PUSH2 0xADF JUMP JUMPDEST PUSH2 0x545 JUMP JUMPDEST STOP JUMPDEST PUSH2 0x15C PUSH2 0x7AB JUMP JUMPDEST PUSH1 0x40 MLOAD PUSH2 0x169 SWAP2 SWAP1 PUSH2 0xB78 JUMP JUMPDEST PUSH1 0x40 MLOAD DUP1 SWAP2 SUB SWAP1 RETURN JUMPDEST PUSH1 0x4 PUSH1 0x20 MSTORE DUP1 PUSH0 MSTORE PUSH1 0x40 PUSH0 KECCAK256 PUSH0 SWAP2 POP SWAP1 POP SLOAD DUP2 JUMP JUMPDEST PUSH2 0x18F PUSH2 0x7D0 JUMP JUMPDEST PUSH0 DUP2 GT PUSH2 0x1D1 JUMPI PUSH1 0x40 MLOAD PUSH32 0x8C379A000000000000000000000000000000000000000000000000000000000 DUP2 MSTORE PUSH1 0x4 ADD PUSH2 0x1C8 SWAP1 PUSH2 0xBEB JUMP JUMPDEST PUSH1 0x40 MLOAD DUP1 SWAP2 SUB SWAP1 REVERT JUMPDEST PUSH0 PUSH2 0x1DA PUSH2 0x3E2 JUMP JUMPDEST SWAP1 POP PUSH0 DUP2 SGT PUSH2 0x21E JUMPI PUSH1 0x40 MLOAD PUSH32 0x8C379A000000000000000000000000000000000000000000000000000000000 DUP2 MSTORE PUSH1 0x4 ADD PUSH2 0x215 SWAP1 PUSH2 0xC53 JUMP JUMPDEST PUSH1 0x40 MLOAD DUP1 SWAP2 SUB SWAP1 REVERT JUMPDEST PUSH1 0x2 PUSH0 SWAP1 SLOAD SWAP1 PUSH2 0x100 EXP SWAP1 DIV PUSH20 0xFFFFFFFFFFFFFFFFFFFFFFFFFFFFFFFFFFFFFFFF AND PUSH20 0xFFFFFFFFFFFFFFFFFFFFFFFFFFFFFFFFFFFFFFFF AND PUSH4 0x23B872DD CALLER ADDRESS DUP6 PUSH1 0x40 MLOAD DUP5 PUSH4 0xFFFFFFFF AND PUSH1 0xE0 SHL DUP2 MSTORE PUSH1 0x4 ADD PUSH2 0x27C SWAP4 SWAP3 SWAP2 SWAP1 PUSH2 0xC71 JUMP JUMPDEST PUSH1 0x20 PUSH1 0x40 MLOAD DUP1 DUP4 SUB DUP2 PUSH0 DUP8 GAS CALL ISZERO DUP1 ISZERO PUSH2 0x298 JUMPI RETURNDATASIZE PUSH0 DUP1 RETURNDATACOPY RETURNDATASIZE PUSH0 REVERT JUMPDEST POP POP POP POP PUSH1 0x40 MLOAD RETURNDATASIZE PUSH1 0x1F NOT PUSH1 0x1F DUP3 ADD AND DUP3 ADD DUP1 PUSH1 0x40 MSTORE POP DUP2 ADD SWAP1 PUSH2 0x2BC SWAP2 SWAP1 PUSH2 0xCDB JUMP JUMPDEST PUSH2 0x2FB JUMPI PUSH1 0x40 MLOAD PUSH32 0x8C379A000000000000000000000000000000000000000000000000000000000 DUP2 MSTORE PUSH1 0x4 ADD PUSH2 0x2F2 SWAP1 PUSH2 0xD50 JUMP JUMPDEST PUSH1 0x40 MLOAD DUP1 SWAP2 SUB SWAP1 REVERT JUMPDEST DUP2 PUSH1 0x4 PUSH0 CALLER PUSH20 0xFFFFFFFFFFFFFFFFFFFFFFFFFFFFFFFFFFFFFFFF AND PUSH20 0xFFFFFFFFFFFFFFFFFFFFFFFFFFFFFFFFFFFFFFFF AND DUP2 MSTORE PUSH1 0x20 ADD SWAP1 DUP2 MSTORE PUSH1 0x20 ADD PUSH0 KECCAK256 PUSH0 DUP3 DUP3 SLOAD PUSH2 0x347 SWAP2 SWAP1 PUSH2 0xD9B JUMP JUMPDEST SWAP3 POP POP DUP2 SWAP1 SSTORE POP CALLER PUSH20 0xFFFFFFFFFFFFFFFFFFFFFFFFFFFFFFFFFFFFFFFF AND PUSH32 0xAC87F20A77D28EE8BBB58EC87EA8FA968B3393EFAE1A368FD50B767C2847391C DUP4 PUSH1 0x40 MLOAD PUSH2 0x394 SWAP2 SWAP1 PUSH2 0xA18 JUMP JUMPDEST PUSH1 0x40 MLOAD DUP1 SWAP2 SUB SWAP1 LOG2 POP PUSH2 0x3A5 PUSH2 0x81F JUMP JUMPDEST POP JUMP JUMPDEST PUSH2 0x3B0 PUSH2 0x828 JUMP JUMPDEST PUSH2 0x3B9 PUSH0 PUSH2 0x8AF JUMP JUMPDEST JUMP JUMPDEST PUSH0 DUP1 PUSH0 SWAP1 SLOAD SWAP1 PUSH2 0x100 EXP SWAP1 DIV PUSH20 0xFFFFFFFFFFFFFFFFFFFFFFFFFFFFFFFFFFFFFFFF AND SWAP1 POP SWAP1 JUMP JUMPDEST PUSH0 DUP1 PUSH1 0x3 PUSH0 SWAP1 SLOAD SWAP1 PUSH2 0x100 EXP SWAP1 DIV PUSH20 0xFFFFFFFFFFFFFFFFFFFFFFFFFFFFFFFFFFFFFFFF AND PUSH20 0xFFFFFFFFFFFFFFFFFFFFFFFFFFFFFFFFFFFFFFFF AND PUSH4 0xFEAF968C PUSH1 0x40 MLOAD DUP2 PUSH4 0xFFFFFFFF AND PUSH1 0xE0 SHL DUP2 MSTORE PUSH1 0x4 ADD PUSH1 0xA0 PUSH1 0x40 MLOAD DUP1 DUP4 SUB DUP2 DUP7 GAS STATICCALL ISZERO DUP1 ISZERO PUSH2 0x44E JUMPI RETURNDATASIZE PUSH0 DUP1 RETURNDATACOPY RETURNDATASIZE PUSH0 REVERT JUMPDEST POP POP POP POP PUSH1 0x40 MLOAD RETURNDATASIZE PUSH1 0x1F NOT PUSH1 0x1F DUP3 ADD AND DUP3 ADD DUP1 PUSH1 0x40 MSTORE POP DUP2 ADD SWAP1 PUSH2 0x472 SWAP2 SWAP1 PUSH2 0xE4B JUMP JUMPDEST POP POP POP SWAP2 POP POP PUSH0 DUP2 SGT PUSH2 0x4BA JUMPI PUSH1 0x40 MLOAD PUSH32 0x8C379A000000000000000000000000000000000000000000000000000000000 DUP2 MSTORE PUSH1 0x4 ADD PUSH2 0x4B1 SWAP1 PUSH2 0xF0C JUMP JUMPDEST PUSH1 0x40 MLOAD DUP1 SWAP2 SUB SWAP1 REVERT JUMPDEST DUP1 SWAP2 POP POP SWAP1 JUMP JUMPDEST PUSH2 0x4C9 PUSH2 0x828 JUMP JUMPDEST PUSH0 PUSH20 0xFFFFFFFFFFFFFFFFFFFFFFFFFFFFFFFFFFFFFFFF AND DUP2 PUSH20 0xFFFFFFFFFFFFFFFFFFFFFFFFFFFFFFFFFFFFFFFF AND SUB PUSH2 0x539 JUMPI PUSH0 PUSH1 0x40 MLOAD PUSH32 0x1E4FBDF700000000000000000000000000000000000000000000000000000000 DUP2 MSTORE PUSH1 0x4 ADD PUSH2 0x530 SWAP2 SWAP1 PUSH2 0xA95 JUMP JUMPDEST PUSH1 0x40 MLOAD DUP1 SWAP2 SUB SWAP1 REVERT JUMPDEST PUSH2 0x542 DUP2 PUSH2 0x8AF JUMP JUMPDEST POP JUMP JUMPDEST PUSH2 0x54D PUSH2 0x828 JUMP JUMPDEST PUSH2 0x555 PUSH2 0x7D0 JUMP JUMPDEST DUP1 PUSH1 0x4 PUSH0 DUP5 PUSH20 0xFFFFFFFFFFFFFFFFFFFFFFFFFFFFFFFFFFFFFFFF AND PUSH20 0xFFFFFFFFFFFFFFFFFFFFFFFFFFFFFFFFFFFFFFFF AND DUP2 MSTORE PUSH1 0x20 ADD SWAP1 DUP2 MSTORE PUSH1 0x20 ADD PUSH0 KECCAK256 SLOAD LT ISZERO PUSH2 0x5D5 JUMPI PUSH1 0x40 MLOAD PUSH32 0x8C379A000000000000000000000000000000000000000000000000000000000 DUP2 MSTORE PUSH1 0x4 ADD PUSH2 0x5CC SWAP1 PUSH2 0xF74 JUMP JUMPDEST PUSH1 0x40 MLOAD DUP1 SWAP2 SUB SWAP1 REVERT JUMPDEST DUP1 PUSH1 0x4 PUSH0 DUP5 PUSH20 0xFFFFFFFFFFFFFFFFFFFFFFFFFFFFFFFFFFFFFFFF AND PUSH20 0xFFFFFFFFFFFFFFFFFFFFFFFFFFFFFFFFFFFFFFFF AND DUP2 MSTORE PUSH1 0x20 ADD SWAP1 DUP2 MSTORE PUSH1 0x20 ADD PUSH0 KECCAK256 PUSH0 DUP3 DUP3 SLOAD PUSH2 0x621 SWAP2 SWAP1 PUSH2 0xF92 JUMP JUMPDEST SWAP3 POP POP DUP2 SWAP1 SSTORE POP PUSH1 0x2 PUSH0 SWAP1 SLOAD SWAP1 PUSH2 0x100 EXP SWAP1 DIV PUSH20 0xFFFFFFFFFFFFFFFFFFFFFFFFFFFFFFFFFFFFFFFF AND PUSH20 0xFFFFFFFFFFFFFFFFFFFFFFFFFFFFFFFFFFFFFFFF AND PUSH4 0xA9059CBB DUP4 DUP4 PUSH1 0x40 MLOAD DUP4 PUSH4 0xFFFFFFFF AND PUSH1 0xE0 SHL DUP2 MSTORE PUSH1 0x4 ADD PUSH2 0x684 SWAP3 SWAP2 SWAP1 PUSH2 0xFC5 JUMP JUMPDEST PUSH1 0x20 PUSH1 0x40 MLOAD DUP1 DUP4 SUB DUP2 PUSH0 DUP8 GAS CALL ISZERO DUP1 ISZERO PUSH2 0x6A0 JUMPI RETURNDATASIZE PUSH0 DUP1 RETURNDATACOPY RETURNDATASIZE PUSH0 REVERT JUMPDEST POP POP POP POP PUSH1 0x40 MLOAD RETURNDATASIZE PUSH1 0x1F NOT PUSH1 0x1F DUP3 ADD AND DUP3 ADD DUP1 PUSH1 0x40 MSTORE POP DUP2 ADD SWAP1 PUSH2 0x6C4 SWAP2 SWAP1 PUSH2 0xCDB JUMP JUMPDEST PUSH2 0x751 JUMPI DUP2 PUSH20 0xFFFFFFFFFFFFFFFFFFFFFFFFFFFFFFFFFFFFFFFF AND PUSH32 0x1C43B9761B3FBA5321CA8212BFC231945F668CCC0C446F333999EEA9CE8FDA81 DUP3 PUSH1 0x40 MLOAD PUSH2 0x70E SWAP2 SWAP1 PUSH2 0xA18 JUMP JUMPDEST PUSH1 0x40 MLOAD DUP1 SWAP2 SUB SWAP1 LOG2 PUSH1 0x40 MLOAD PUSH32 0x8C379A000000000000000000000000000000000000000000000000000000000 DUP2 MSTORE PUSH1 0x4 ADD PUSH2 0x748 SWAP1 PUSH2 0xD50 JUMP JUMPDEST PUSH1 0x40 MLOAD DUP1 SWAP2 SUB SWAP1 REVERT JUMPDEST DUP2 PUSH20 0xFFFFFFFFFFFFFFFFFFFFFFFFFFFFFFFFFFFFFFFF AND PUSH32 0xC7798891864187665AC6DD119286E44EC13F014527AEEB2B8EB3FD413DF93179 DUP3 PUSH1 0x40 MLOAD PUSH2 0x797 SWAP2 SWAP1 PUSH2 0xA18 JUMP JUMPDEST PUSH1 0x40 MLOAD DUP1 SWAP2 SUB SWAP1 LOG2 PUSH2 0x7A7 PUSH2 0x81F JUMP JUMPDEST POP POP JUMP JUMPDEST PUSH1 0x2 PUSH0 SWAP1 SLOAD SWAP1 PUSH2 0x100 EXP SWAP1 DIV PUSH20 0xFFFFFFFFFFFFFFFFFFFFFFFFFFFFFFFFFFFFFFFF AND DUP2 JUMP JUMPDEST PUSH1 0x2 PUSH1 0x1 SLOAD SUB PUSH2 0x815 JUMPI PUSH1 0x40 MLOAD PUSH32 0x8C379A000000000000000000000000000000000000000000000000000000000 DUP2 MSTORE PUSH1 0x4 ADD PUSH2 0x80C SWAP1 PUSH2 0x1036 JUMP JUMPDEST PUSH1 0x40 MLOAD DUP1 SWAP2 SUB SWAP1 REVERT JUMPDEST PUSH1 0x2 PUSH1 0x1 DUP2 SWAP1 SSTORE POP JUMP JUMPDEST PUSH1 0x1 DUP1 DUP2 SWAP1 SSTORE POP JUMP JUMPDEST PUSH2 0x830 PUSH2 0x970 JUMP JUMPDEST PUSH20 0xFFFFFFFFFFFFFFFFFFFFFFFFFFFFFFFFFFFFFFFF AND PUSH2 0x84E PUSH2 0x3BB JUMP JUMPDEST PUSH20 0xFFFFFFFFFFFFFFFFFFFFFFFFFFFFFFFFFFFFFFFF AND EQ PUSH2 0x8AD JUMPI PUSH2 0x871 PUSH2 0x970 JUMP JUMPDEST PUSH1 0x40 MLOAD PUSH32 0x118CDAA700000000000000000000000000000000000000000000000000000000 DUP2 MSTORE PUSH1 0x4 ADD PUSH2 0x8A4 SWAP2 SWAP1 PUSH2 0xA95 JUMP JUMPDEST PUSH1 0x40 MLOAD DUP1 SWAP2 SUB SWAP1 REVERT JUMPDEST JUMP JUMPDEST PUSH0 DUP1 PUSH0 SWAP1 SLOAD SWAP1 PUSH2 0x100 EXP SWAP1 DIV PUSH20 0xFFFFFFFFFFFFFFFFFFFFFFFFFFFFFFFFFFFFFFFF AND SWAP1 POP DUP2 PUSH0 DUP1 PUSH2 0x100 EXP DUP2 SLOAD DUP2 PUSH20 0xFFFFFFFFFFFFFFFFFFFFFFFFFFFFFFFFFFFFFFFF MUL NOT AND SWAP1 DUP4 PUSH20 0xFFFFFFFFFFFFFFFFFFFFFFFFFFFFFFFFFFFFFFFF AND MUL OR SWAP1 SSTORE POP DUP2 PUSH20 0xFFFFFFFFFFFFFFFFFFFFFFFFFFFFFFFFFFFFFFFF AND DUP2 PUSH20 0xFFFFFFFFFFFFFFFFFFFFFFFFFFFFFFFFFFFFFFFF AND PUSH32 0x8BE0079C531659141344CD1FD0A4F28419497F9722A3DAAFE3B4186F6B6457E0 PUSH1 0x40 MLOAD PUSH1 0x40 MLOAD DUP1 SWAP2 SUB SWAP1 LOG3 POP POP JUMP JUMPDEST PUSH0 CALLER SWAP1 POP SWAP1 JUMP JUMPDEST PUSH0 DUP1 REVERT JUMPDEST PUSH0 PUSH20 0xFFFFFFFFFFFFFFFFFFFFFFFFFFFFFFFFFFFFFFFF DUP3 AND SWAP1 POP SWAP2 SWAP1 POP JUMP JUMPDEST PUSH0 PUSH2 0x9A4 DUP3 PUSH2 0x97B JUMP JUMPDEST SWAP1 POP SWAP2 SWAP1 POP JUMP JUMPDEST PUSH2 0x9B4 DUP2 PUSH2 0x99A JUMP JUMPDEST DUP2 EQ PUSH2 0x9BE JUMPI PUSH0 DUP1 REVERT JUMPDEST POP JUMP JUMPDEST PUSH0 DUP2 CALLDATALOAD SWAP1 POP PUSH2 0x9CF DUP2 PUSH2 0x9AB JUMP JUMPDEST SWAP3 SWAP2 POP POP JUMP JUMPDEST PUSH0 PUSH1 0x20 DUP3 DUP5 SUB SLT ISZERO PUSH2 0x9EA JUMPI PUSH2 0x9E9 PUSH2 0x977 JUMP JUMPDEST JUMPDEST PUSH0 PUSH2 0x9F7 DUP5 DUP3 DUP6 ADD PUSH2 0x9C1 JUMP JUMPDEST SWAP2 POP POP SWAP3 SWAP2 POP POP JUMP JUMPDEST PUSH0 DUP2 SWAP1 POP SWAP2 SWAP1 POP JUMP JUMPDEST PUSH2 0xA12 DUP2 PUSH2 0xA00 JUMP JUMPDEST DUP3 MSTORE POP POP JUMP JUMPDEST PUSH0 PUSH1 0x20 DUP3 ADD SWAP1 POP PUSH2 0xA2B PUSH0 DUP4 ADD DUP5 PUSH2 0xA09 JUMP JUMPDEST SWAP3 SWAP2 POP POP JUMP JUMPDEST PUSH2 0xA3A DUP2 PUSH2 0xA00 JUMP JUMPDEST DUP2 EQ PUSH2 0xA44 JUMPI PUSH0 DUP1 REVERT JUMPDEST POP JUMP JUMPDEST PUSH0 DUP2 CALLDATALOAD SWAP1 POP PUSH2 0xA55 DUP2 PUSH2 0xA31 JUMP JUMPDEST SWAP3 SWAP2 POP POP JUMP JUMPDEST PUSH0 PUSH1 0x20 DUP3 DUP5 SUB SLT ISZERO PUSH2 0xA70 JUMPI PUSH2 0xA6F PUSH2 0x977 JUMP JUMPDEST JUMPDEST PUSH0 PUSH2 0xA7D DUP5 DUP3 DUP6 ADD PUSH2 0xA47 JUMP JUMPDEST SWAP2 POP POP SWAP3 SWAP2 POP POP JUMP JUMPDEST PUSH2 0xA8F DUP2 PUSH2 0x99A JUMP JUMPDEST DUP3 MSTORE POP POP JUMP JUMPDEST PUSH0 PUSH1 0x20 DUP3 ADD SWAP1 POP PUSH2 0xAA8 PUSH0 DUP4 ADD DUP5 PUSH2 0xA86 JUMP JUMPDEST SWAP3 SWAP2 POP POP JUMP JUMPDEST PUSH0 DUP2 SWAP1 POP SWAP2 SWAP1 POP JUMP JUMPDEST PUSH2 0xAC0 DUP2 PUSH2 0xAAE JUMP JUMPDEST DUP3 MSTORE POP POP JUMP JUMPDEST PUSH0 PUSH1 0x20 DUP3 ADD SWAP1 POP PUSH2 0xAD9 PUSH0 DUP4 ADD DUP5 PUSH2 0xAB7 JUMP JUMPDEST SWAP3 SWAP2 POP POP JUMP JUMPDEST PUSH0 DUP1 PUSH1 0x40 DUP4 DUP6 SUB SLT ISZERO PUSH2 0xAF5 JUMPI PUSH2 0xAF4 PUSH2 0x977 JUMP JUMPDEST JUMPDEST PUSH0 PUSH2 0xB02 DUP6 DUP3 DUP7 ADD PUSH2 0x9C1 JUMP JUMPDEST SWAP3 POP POP PUSH1 0x20 PUSH2 0xB13 DUP6 DUP3 DUP7 ADD PUSH2 0xA47 JUMP JUMPDEST SWAP2 POP POP SWAP3 POP SWAP3 SWAP1 POP JUMP JUMPDEST PUSH0 DUP2 SWAP1 POP SWAP2 SWAP1 POP JUMP JUMPDEST PUSH0 PUSH2 0xB40 PUSH2 0xB3B PUSH2 0xB36 DUP5 PUSH2 0x97B JUMP JUMPDEST PUSH2 0xB1D JUMP JUMPDEST PUSH2 0x97B JUMP JUMPDEST SWAP1 POP SWAP2 SWAP1 POP JUMP JUMPDEST PUSH0 PUSH2 0xB51 DUP3 PUSH2 0xB26 JUMP JUMPDEST SWAP1 POP SWAP2 SWAP1 POP JUMP JUMPDEST PUSH0 PUSH2 0xB62 DUP3 PUSH2 0xB47 JUMP JUMPDEST SWAP1 POP SWAP2 SWAP1 POP JUMP JUMPDEST PUSH2 0xB72 DUP2 PUSH2 0xB58 JUMP JUMPDEST DUP3 MSTORE POP POP JUMP JUMPDEST PUSH0 PUSH1 0x20 DUP3 ADD SWAP1 POP PUSH2 0xB8B PUSH0 DUP4 ADD DUP5 PUSH2 0xB69 JUMP JUMPDEST SWAP3 SWAP2 POP POP JUMP JUMPDEST PUSH0 DUP3 DUP3 MSTORE PUSH1 0x20 DUP3 ADD SWAP1 POP SWAP3 SWAP2 POP POP JUMP JUMPDEST PUSH32 0x416D6F756E74206D7573742062652067726561746572207468616E2030000000 PUSH0 DUP3 ADD MSTORE POP JUMP JUMPDEST PUSH0 PUSH2 0xBD5 PUSH1 0x1D DUP4 PUSH2 0xB91 JUMP JUMPDEST SWAP2 POP PUSH2 0xBE0 DUP3 PUSH2 0xBA1 JUMP JUMPDEST PUSH1 0x20 DUP3 ADD SWAP1 POP SWAP2 SWAP1 POP JUMP JUMPDEST PUSH0 PUSH1 0x20 DUP3 ADD SWAP1 POP DUP2 DUP2 SUB PUSH0 DUP4 ADD MSTORE PUSH2 0xC02 DUP2 PUSH2 0xBC9 JUMP JUMPDEST SWAP1 POP SWAP2 SWAP1 POP JUMP JUMPDEST PUSH32 0x50726963652066656564206572726F7200000000000000000000000000000000 PUSH0 DUP3 ADD MSTORE POP JUMP JUMPDEST PUSH0 PUSH2 0xC3D PUSH1 0x10 DUP4 PUSH2 0xB91 JUMP JUMPDEST SWAP2 POP PUSH2 0xC48 DUP3 PUSH2 0xC09 JUMP JUMPDEST PUSH1 0x20 DUP3 ADD SWAP1 POP SWAP2 SWAP1 POP JUMP JUMPDEST PUSH0 PUSH1 0x20 DUP3 ADD SWAP1 POP DUP2 DUP2 SUB PUSH0 DUP4 ADD MSTORE PUSH2 0xC6A DUP2 PUSH2 0xC31 JUMP JUMPDEST SWAP1 POP SWAP2 SWAP1 POP JUMP JUMPDEST PUSH0 PUSH1 0x60 DUP3 ADD SWAP1 POP PUSH2 0xC84 PUSH0 DUP4 ADD DUP7 PUSH2 0xA86 JUMP JUMPDEST PUSH2 0xC91 PUSH1 0x20 DUP4 ADD DUP6 PUSH2 0xA86 JUMP JUMPDEST PUSH2 0xC9E PUSH1 0x40 DUP4 ADD DUP5 PUSH2 0xA09 JUMP JUMPDEST SWAP5 SWAP4 POP POP POP POP JUMP JUMPDEST PUSH0 DUP2 ISZERO ISZERO SWAP1 POP SWAP2 SWAP1 POP JUMP JUMPDEST PUSH2 0xCBA DUP2 PUSH2 0xCA6 JUMP JUMPDEST DUP2 EQ PUSH2 0xCC4 JUMPI PUSH0 DUP1 REVERT JUMPDEST POP JUMP JUMPDEST PUSH0 DUP2 MLOAD SWAP1 POP PUSH2 0xCD5 DUP2 PUSH2 0xCB1 JUMP JUMPDEST SWAP3 SWAP2 POP POP JUMP JUMPDEST PUSH0 PUSH1 0x20 DUP3 DUP5 SUB SLT ISZERO PUSH2 0xCF0 JUMPI PUSH2 0xCEF PUSH2 0x977 JUMP JUMPDEST JUMPDEST PUSH0 PUSH2 0xCFD DUP5 DUP3 DUP6 ADD PUSH2 0xCC7 JUMP JUMPDEST SWAP2 POP POP SWAP3 SWAP2 POP POP JUMP JUMPDEST PUSH32 0x5472616E73666572206661696C65640000000000000000000000000000000000 PUSH0 DUP3 ADD MSTORE POP JUMP JUMPDEST PUSH0 PUSH2 0xD3A PUSH1 0xF DUP4 PUSH2 0xB91 JUMP JUMPDEST SWAP2 POP PUSH2 0xD45 DUP3 PUSH2 0xD06 JUMP JUMPDEST PUSH1 0x20 DUP3 ADD SWAP1 POP SWAP2 SWAP1 POP JUMP JUMPDEST PUSH0 PUSH1 0x20 DUP3 ADD SWAP1 POP DUP2 DUP2 SUB PUSH0 DUP4 ADD MSTORE PUSH2 0xD67 DUP2 PUSH2 0xD2E JUMP JUMPDEST SWAP1 POP SWAP2 SWAP1 POP JUMP JUMPDEST PUSH32 0x4E487B7100000000000000000000000000000000000000000000000000000000 PUSH0 MSTORE PUSH1 0x11 PUSH1 0x4 MSTORE PUSH1 0x24 PUSH0 REVERT JUMPDEST PUSH0 PUSH2 0xDA5 DUP3 PUSH2 0xA00 JUMP JUMPDEST SWAP2 POP PUSH2 0xDB0 DUP4 PUSH2 0xA00 JUMP JUMPDEST SWAP3 POP DUP3 DUP3 ADD SWAP1 POP DUP1 DUP3 GT ISZERO PUSH2 0xDC8 JUMPI PUSH2 0xDC7 PUSH2 0xD6E JUMP JUMPDEST JUMPDEST SWAP3 SWAP2 POP POP JUMP JUMPDEST PUSH0 PUSH10 0xFFFFFFFFFFFFFFFFFFFF DUP3 AND SWAP1 POP SWAP2 SWAP1 POP JUMP JUMPDEST PUSH2 0xDEC DUP2 PUSH2 0xDCE JUMP JUMPDEST DUP2 EQ PUSH2 0xDF6 JUMPI PUSH0 DUP1 REVERT JUMPDEST POP JUMP JUMPDEST PUSH0 DUP2 MLOAD SWAP1 POP PUSH2 0xE07 DUP2 PUSH2 0xDE3 JUMP JUMPDEST SWAP3 SWAP2 POP POP JUMP JUMPDEST PUSH2 0xE16 DUP2 PUSH2 0xAAE JUMP JUMPDEST DUP2 EQ PUSH2 0xE20 JUMPI PUSH0 DUP1 REVERT JUMPDEST POP JUMP JUMPDEST PUSH0 DUP2 MLOAD SWAP1 POP PUSH2 0xE31 DUP2 PUSH2 0xE0D JUMP JUMPDEST SWAP3 SWAP2 POP POP JUMP JUMPDEST PUSH0 DUP2 MLOAD SWAP1 POP PUSH2 0xE45 DUP2 PUSH2 0xA31 JUMP JUMPDEST SWAP3 SWAP2 POP POP JUMP JUMPDEST PUSH0 DUP1 PUSH0 DUP1 PUSH0 PUSH1 0xA0 DUP7 DUP9 SUB SLT ISZERO PUSH2 0xE64 JUMPI PUSH2 0xE63 PUSH2 0x977 JUMP JUMPDEST JUMPDEST PUSH0 PUSH2 0xE71 DUP9 DUP3 DUP10 ADD PUSH2 0xDF9 JUMP JUMPDEST SWAP6 POP POP PUSH1 0x20 PUSH2 0xE82 DUP9 DUP3 DUP10 ADD PUSH2 0xE23 JUMP JUMPDEST SWAP5 POP POP PUSH1 0x40 PUSH2 0xE93 DUP9 DUP3 DUP10 ADD PUSH2 0xE37 JUMP JUMPDEST SWAP4 POP POP PUSH1 0x60 PUSH2 0xEA4 DUP9 DUP3 DUP10 ADD PUSH2 0xE37 JUMP JUMPDEST SWAP3 POP POP PUSH1 0x80 PUSH2 0xEB5 DUP9 DUP3 DUP10 ADD PUSH2 0xDF9 JUMP JUMPDEST SWAP2 POP POP SWAP3 SWAP6 POP SWAP3 SWAP6 SWAP1 SWAP4 POP JUMP JUMPDEST PUSH32 0x496E76616C696420707269636520646174612066726F6D206F7261636C650000 PUSH0 DUP3 ADD MSTORE POP JUMP JUMPDEST PUSH0 PUSH2 0xEF6 PUSH1 0x1E DUP4 PUSH2 0xB91 JUMP JUMPDEST SWAP2 POP PUSH2 0xF01 DUP3 PUSH2 0xEC2 JUMP JUMPDEST PUSH1 0x20 DUP3 ADD SWAP1 POP SWAP2 SWAP1 POP JUMP JUMPDEST PUSH0 PUSH1 0x20 DUP3 ADD SWAP1 POP DUP2 DUP2 SUB PUSH0 DUP4 ADD MSTORE PUSH2 0xF23 DUP2 PUSH2 0xEEA JUMP JUMPDEST SWAP1 POP SWAP2 SWAP1 POP JUMP JUMPDEST PUSH32 0x496E73756666696369656E74206C6F636B656420746F6B656E73000000000000 PUSH0 DUP3 ADD MSTORE POP JUMP JUMPDEST PUSH0 PUSH2 0xF5E PUSH1 0x1A DUP4 PUSH2 0xB91 JUMP JUMPDEST SWAP2 POP PUSH2 0xF69 DUP3 PUSH2 0xF2A JUMP JUMPDEST PUSH1 0x20 DUP3 ADD SWAP1 POP SWAP2 SWAP1 POP JUMP JUMPDEST PUSH0 PUSH1 0x20 DUP3 ADD SWAP1 POP DUP2 DUP2 SUB PUSH0 DUP4 ADD MSTORE PUSH2 0xF8B DUP2 PUSH2 0xF52 JUMP JUMPDEST SWAP1 POP SWAP2 SWAP1 POP JUMP JUMPDEST PUSH0 PUSH2 0xF9C DUP3 PUSH2 0xA00 JUMP JUMPDEST SWAP2 POP PUSH2 0xFA7 DUP4 PUSH2 0xA00 JUMP JUMPDEST SWAP3 POP DUP3 DUP3 SUB SWAP1 POP DUP2 DUP2 GT ISZERO PUSH2 0xFBF JUMPI PUSH2 0xFBE PUSH2 0xD6E JUMP JUMPDEST JUMPDEST SWAP3 SWAP2 POP POP JUMP JUMPDEST PUSH0 PUSH1 0x40 DUP3 ADD SWAP1 POP PUSH2 0xFD8 PUSH0 DUP4 ADD DUP6 PUSH2 0xA86 JUMP JUMPDEST PUSH2 0xFE5 PUSH1 0x20 DUP4 ADD DUP5 PUSH2 0xA09 JUMP JUMPDEST SWAP4 SWAP3 POP POP POP JUMP JUMPDEST PUSH32 0x5265656E7472616E637947756172643A207265656E7472616E742063616C6C00 PUSH0 DUP3 ADD MSTORE POP JUMP JUMPDEST PUSH0 PUSH2 0x1020 PUSH1 0x1F DUP4 PUSH2 0xB91 JUMP JUMPDEST SWAP2 POP PUSH2 0x102B DUP3 PUSH2 0xFEC JUMP JUMPDEST PUSH1 0x20 DUP3 ADD SWAP1 POP SWAP2 SWAP1 POP JUMP JUMPDEST PUSH0 PUSH1 0x20 DUP3 ADD SWAP1 POP DUP2 DUP2 SUB PUSH0 DUP4 ADD MSTORE PUSH2 0x104D DUP2 PUSH2 0x1014 JUMP JUMPDEST SWAP1 POP SWAP2 SWAP1 POP JUMP INVALID LOG2 PUSH5 0x6970667358 0x22 SLT KECCAK256 0xAA XOR SSTORE 0xCA 0x2D 0xE4 DUP9 0x28 MULMOD 0xF MULMOD PUSH4 0x61445F10 POP SIGNEXTEND ADDRESS 0xD9 0xE1 CALLDATACOPY 0xC8 SELFDESTRUCT SWAP10 0xBA SWAP14 SHL SWAP11 CODECOPY 0x2F 0x24 PUSH5 0x736F6C6343 STOP ADDMOD BYTE STOP CALLER "
				},
				"gasEstimates": {
					"creation": {
						"codeDepositCost": "846800",
						"executionCost": "infinite",
						"totalCost": "infinite"
					},
					"external": {
						"getLatestPrice()": "infinite",
						"lockTokens(uint256)": "infinite",
						"lockedTokens(address)": "2803",
						"owner()": "2582",
						"releaseTokens(address,uint256)": "infinite",
						"renounceOwnership()": "infinite",
						"token()": "infinite",
						"transferOwnership(address)": "infinite"
					}
				},
				"methodIdentifiers": {
					"getLatestPrice()": "8e15f473",
					"lockTokens(uint256)": "6e27d889",
					"lockedTokens(address)": "5eb7413a",
					"owner()": "8da5cb5b",
					"releaseTokens(address,uint256)": "f40d71f1",
					"renounceOwnership()": "715018a6",
					"token()": "fc0c546a",
					"transferOwnership(address)": "f2fde38b"
				}
			},
			"storageLayout": {
				"storage": [
					{
						"astId": 54,
						"contract": "contracts/TokenBridgeETH.sol:TokenBridgeETH",
						"label": "_owner",
						"offset": 0,
						"slot": "0",
						"type": "t_address"
					},
					{
						"astId": 204,
						"contract": "contracts/TokenBridgeETH.sol:TokenBridgeETH",
						"label": "_status",
						"offset": 0,
						"slot": "1",
						"type": "t_uint256"
					},
					{
						"astId": 379,
						"contract": "contracts/TokenBridgeETH.sol:TokenBridgeETH",
						"label": "token",
						"offset": 0,
						"slot": "2",
						"type": "t_contract(IERC20)336"
					},
					{
						"astId": 382,
						"contract": "contracts/TokenBridgeETH.sol:TokenBridgeETH",
						"label": "priceFeed",
						"offset": 0,
						"slot": "3",
						"type": "t_contract(AggregatorV3Interface)45"
					},
					{
						"astId": 386,
						"contract": "contracts/TokenBridgeETH.sol:TokenBridgeETH",
						"label": "lockedTokens",
						"offset": 0,
						"slot": "4",
						"type": "t_mapping(t_address,t_uint256)"
					}
				],
				"types": {
					"t_address": {
						"encoding": "inplace",
						"label": "address",
						"numberOfBytes": "20"
					},
					"t_contract(AggregatorV3Interface)45": {
						"encoding": "inplace",
						"label": "contract AggregatorV3Interface",
						"numberOfBytes": "20"
					},
					"t_contract(IERC20)336": {
						"encoding": "inplace",
						"label": "contract IERC20",
						"numberOfBytes": "20"
					},
					"t_mapping(t_address,t_uint256)": {
						"encoding": "mapping",
						"key": "t_address",
						"label": "mapping(address => uint256)",
						"numberOfBytes": "32",
						"value": "t_uint256"
					},
					"t_uint256": {
						"encoding": "inplace",
						"label": "uint256",
						"numberOfBytes": "32"
					}
				}
			},
			"userdoc": {
				"kind": "user",
				"methods": {},
				"version": 1
			}
		}
	}
}