{
	"contracts/bettoken.sol": {
		"Bettoken": {
			"abi": [
				{
					"inputs": [
						{
							"internalType": "address[]",
							"name": "_priceFeeds",
							"type": "address[]"
						}
					],
					"stateMutability": "nonpayable",
					"type": "constructor"
				},
				{
					"inputs": [
						{
							"internalType": "address",
							"name": "spender",
							"type": "address"
						},
						{
							"internalType": "uint256",
							"name": "allowance",
							"type": "uint256"
						},
						{
							"internalType": "uint256",
							"name": "needed",
							"type": "uint256"
						}
					],
					"name": "ERC20InsufficientAllowance",
					"type": "error"
				},
				{
					"inputs": [
						{
							"internalType": "address",
							"name": "sender",
							"type": "address"
						},
						{
							"internalType": "uint256",
							"name": "balance",
							"type": "uint256"
						},
						{
							"internalType": "uint256",
							"name": "needed",
							"type": "uint256"
						}
					],
					"name": "ERC20InsufficientBalance",
					"type": "error"
				},
				{
					"inputs": [
						{
							"internalType": "address",
							"name": "approver",
							"type": "address"
						}
					],
					"name": "ERC20InvalidApprover",
					"type": "error"
				},
				{
					"inputs": [
						{
							"internalType": "address",
							"name": "receiver",
							"type": "address"
						}
					],
					"name": "ERC20InvalidReceiver",
					"type": "error"
				},
				{
					"inputs": [
						{
							"internalType": "address",
							"name": "sender",
							"type": "address"
						}
					],
					"name": "ERC20InvalidSender",
					"type": "error"
				},
				{
					"inputs": [
						{
							"internalType": "address",
							"name": "spender",
							"type": "address"
						}
					],
					"name": "ERC20InvalidSpender",
					"type": "error"
				},
				{
					"inputs": [
						{
							"internalType": "address",
							"name": "owner",
							"type": "address"
						}
					],
					"name": "OwnableInvalidOwner",
					"type": "error"
				},
				{
					"inputs": [
						{
							"internalType": "address",
							"name": "account",
							"type": "address"
						}
					],
					"name": "OwnableUnauthorizedAccount",
					"type": "error"
				},
				{
					"anonymous": false,
					"inputs": [
						{
							"indexed": true,
							"internalType": "address",
							"name": "owner",
							"type": "address"
						},
						{
							"indexed": true,
							"internalType": "address",
							"name": "spender",
							"type": "address"
						},
						{
							"indexed": false,
							"internalType": "uint256",
							"name": "value",
							"type": "uint256"
						}
					],
					"name": "Approval",
					"type": "event"
				},
				{
					"anonymous": false,
					"inputs": [
						{
							"indexed": true,
							"internalType": "address",
							"name": "owner",
							"type": "address"
						},
						{
							"indexed": false,
							"internalType": "uint256",
							"name": "amount",
							"type": "uint256"
						}
					],
					"name": "FundsWithdrawn",
					"type": "event"
				},
				{
					"anonymous": false,
					"inputs": [
						{
							"indexed": true,
							"internalType": "address",
							"name": "previousOwner",
							"type": "address"
						},
						{
							"indexed": true,
							"internalType": "address",
							"name": "newOwner",
							"type": "address"
						}
					],
					"name": "OwnershipTransferred",
					"type": "event"
				},
				{
					"anonymous": false,
					"inputs": [
						{
							"indexed": true,
							"internalType": "address",
							"name": "buyer",
							"type": "address"
						},
						{
							"indexed": false,
							"internalType": "uint256",
							"name": "amount",
							"type": "uint256"
						}
					],
					"name": "PreSale",
					"type": "event"
				},
				{
					"anonymous": false,
					"inputs": [
						{
							"indexed": true,
							"internalType": "address",
							"name": "buyer",
							"type": "address"
						},
						{
							"indexed": false,
							"internalType": "uint256",
							"name": "amount",
							"type": "uint256"
						}
					],
					"name": "PrivateSale",
					"type": "event"
				},
				{
					"anonymous": false,
					"inputs": [
						{
							"indexed": false,
							"internalType": "enum Bettoken.SaleStage",
							"name": "newStage",
							"type": "uint8"
						}
					],
					"name": "StageChanged",
					"type": "event"
				},
				{
					"anonymous": false,
					"inputs": [
						{
							"indexed": true,
							"internalType": "address",
							"name": "staker",
							"type": "address"
						},
						{
							"indexed": false,
							"internalType": "uint256",
							"name": "amount",
							"type": "uint256"
						},
						{
							"indexed": false,
							"internalType": "uint256",
							"name": "releaseTime",
							"type": "uint256"
						}
					],
					"name": "TokensStaked",
					"type": "event"
				},
				{
					"anonymous": false,
					"inputs": [
						{
							"indexed": true,
							"internalType": "address",
							"name": "from",
							"type": "address"
						},
						{
							"indexed": true,
							"internalType": "address",
							"name": "to",
							"type": "address"
						},
						{
							"indexed": false,
							"internalType": "uint256",
							"name": "value",
							"type": "uint256"
						}
					],
					"name": "Transfer",
					"type": "event"
				},
				{
					"anonymous": false,
					"inputs": [
						{
							"indexed": true,
							"internalType": "address",
							"name": "beneficiary",
							"type": "address"
						},
						{
							"indexed": false,
							"internalType": "uint256",
							"name": "amount",
							"type": "uint256"
						}
					],
					"name": "VestedTokensReleased",
					"type": "event"
				},
				{
					"stateMutability": "payable",
					"type": "fallback"
				},
				{
					"inputs": [],
					"name": "TOTAL_SUPPLY",
					"outputs": [
						{
							"internalType": "uint256",
							"name": "",
							"type": "uint256"
						}
					],
					"stateMutability": "view",
					"type": "function"
				},
				{
					"inputs": [
						{
							"internalType": "address",
							"name": "owner",
							"type": "address"
						},
						{
							"internalType": "address",
							"name": "spender",
							"type": "address"
						}
					],
					"name": "allowance",
					"outputs": [
						{
							"internalType": "uint256",
							"name": "",
							"type": "uint256"
						}
					],
					"stateMutability": "view",
					"type": "function"
				},
				{
					"inputs": [
						{
							"internalType": "address",
							"name": "spender",
							"type": "address"
						},
						{
							"internalType": "uint256",
							"name": "value",
							"type": "uint256"
						}
					],
					"name": "approve",
					"outputs": [
						{
							"internalType": "bool",
							"name": "",
							"type": "bool"
						}
					],
					"stateMutability": "nonpayable",
					"type": "function"
				},
				{
					"inputs": [
						{
							"internalType": "address",
							"name": "account",
							"type": "address"
						}
					],
					"name": "balanceOf",
					"outputs": [
						{
							"internalType": "uint256",
							"name": "",
							"type": "uint256"
						}
					],
					"stateMutability": "view",
					"type": "function"
				},
				{
					"inputs": [
						{
							"internalType": "uint256",
							"name": "usdAmount",
							"type": "uint256"
						}
					],
					"name": "buyTokens",
					"outputs": [],
					"stateMutability": "payable",
					"type": "function"
				},
				{
					"inputs": [],
					"name": "decimals",
					"outputs": [
						{
							"internalType": "uint8",
							"name": "",
							"type": "uint8"
						}
					],
					"stateMutability": "view",
					"type": "function"
				},
				{
					"inputs": [
						{
							"internalType": "address",
							"name": "tokenAddress",
							"type": "address"
						},
						{
							"internalType": "uint256",
							"name": "amount",
							"type": "uint256"
						}
					],
					"name": "emergencyWithdraw",
					"outputs": [],
					"stateMutability": "nonpayable",
					"type": "function"
				},
				{
					"inputs": [],
					"name": "getLatestPrice",
					"outputs": [
						{
							"internalType": "uint256",
							"name": "",
							"type": "uint256"
						}
					],
					"stateMutability": "view",
					"type": "function"
				},
				{
					"inputs": [],
					"name": "haltSales",
					"outputs": [],
					"stateMutability": "nonpayable",
					"type": "function"
				},
				{
					"inputs": [],
					"name": "name",
					"outputs": [
						{
							"internalType": "string",
							"name": "",
							"type": "string"
						}
					],
					"stateMutability": "view",
					"type": "function"
				},
				{
					"inputs": [],
					"name": "owner",
					"outputs": [
						{
							"internalType": "address",
							"name": "",
							"type": "address"
						}
					],
					"stateMutability": "view",
					"type": "function"
				},
				{
					"inputs": [],
					"name": "preSaleEndPrice",
					"outputs": [
						{
							"internalType": "uint256",
							"name": "",
							"type": "uint256"
						}
					],
					"stateMutability": "view",
					"type": "function"
				},
				{
					"inputs": [],
					"name": "preSaleSoldTokens",
					"outputs": [
						{
							"internalType": "uint256",
							"name": "",
							"type": "uint256"
						}
					],
					"stateMutability": "view",
					"type": "function"
				},
				{
					"inputs": [],
					"name": "preSaleStartPrice",
					"outputs": [
						{
							"internalType": "uint256",
							"name": "",
							"type": "uint256"
						}
					],
					"stateMutability": "view",
					"type": "function"
				},
				{
					"inputs": [],
					"name": "preSaleTarget",
					"outputs": [
						{
							"internalType": "uint256",
							"name": "",
							"type": "uint256"
						}
					],
					"stateMutability": "view",
					"type": "function"
				},
				{
					"inputs": [],
					"name": "preSaleTokens",
					"outputs": [
						{
							"internalType": "uint256",
							"name": "",
							"type": "uint256"
						}
					],
					"stateMutability": "view",
					"type": "function"
				},
				{
					"inputs": [
						{
							"internalType": "uint256",
							"name": "",
							"type": "uint256"
						}
					],
					"name": "priceFeeds",
					"outputs": [
						{
							"internalType": "contract AggregatorV3Interface",
							"name": "",
							"type": "address"
						}
					],
					"stateMutability": "view",
					"type": "function"
				},
				{
					"inputs": [],
					"name": "privateSaleEndPrice",
					"outputs": [
						{
							"internalType": "uint256",
							"name": "",
							"type": "uint256"
						}
					],
					"stateMutability": "view",
					"type": "function"
				},
				{
					"inputs": [],
					"name": "privateSaleSoldTokens",
					"outputs": [
						{
							"internalType": "uint256",
							"name": "",
							"type": "uint256"
						}
					],
					"stateMutability": "view",
					"type": "function"
				},
				{
					"inputs": [],
					"name": "privateSaleStartPrice",
					"outputs": [
						{
							"internalType": "uint256",
							"name": "",
							"type": "uint256"
						}
					],
					"stateMutability": "view",
					"type": "function"
				},
				{
					"inputs": [],
					"name": "privateSaleTarget",
					"outputs": [
						{
							"internalType": "uint256",
							"name": "",
							"type": "uint256"
						}
					],
					"stateMutability": "view",
					"type": "function"
				},
				{
					"inputs": [],
					"name": "privateSaleTokens",
					"outputs": [
						{
							"internalType": "uint256",
							"name": "",
							"type": "uint256"
						}
					],
					"stateMutability": "view",
					"type": "function"
				},
				{
					"inputs": [],
					"name": "releaseVestedTokens",
					"outputs": [],
					"stateMutability": "nonpayable",
					"type": "function"
				},
				{
					"inputs": [],
					"name": "renounceOwnership",
					"outputs": [],
					"stateMutability": "nonpayable",
					"type": "function"
				},
				{
					"inputs": [],
					"name": "stage",
					"outputs": [
						{
							"internalType": "enum Bettoken.SaleStage",
							"name": "",
							"type": "uint8"
						}
					],
					"stateMutability": "view",
					"type": "function"
				},
				{
					"inputs": [],
					"name": "stakeDuration",
					"outputs": [
						{
							"internalType": "uint256",
							"name": "",
							"type": "uint256"
						}
					],
					"stateMutability": "view",
					"type": "function"
				},
				{
					"inputs": [
						{
							"internalType": "uint256",
							"name": "amount",
							"type": "uint256"
						}
					],
					"name": "stakeTokens",
					"outputs": [],
					"stateMutability": "nonpayable",
					"type": "function"
				},
				{
					"inputs": [],
					"name": "startPreSale",
					"outputs": [],
					"stateMutability": "nonpayable",
					"type": "function"
				},
				{
					"inputs": [],
					"name": "startPrivateSale",
					"outputs": [],
					"stateMutability": "nonpayable",
					"type": "function"
				},
				{
					"inputs": [],
					"name": "symbol",
					"outputs": [
						{
							"internalType": "string",
							"name": "",
							"type": "string"
						}
					],
					"stateMutability": "view",
					"type": "function"
				},
				{
					"inputs": [],
					"name": "totalSupply",
					"outputs": [
						{
							"internalType": "uint256",
							"name": "",
							"type": "uint256"
						}
					],
					"stateMutability": "view",
					"type": "function"
				},
				{
					"inputs": [
						{
							"internalType": "address",
							"name": "to",
							"type": "address"
						},
						{
							"internalType": "uint256",
							"name": "value",
							"type": "uint256"
						}
					],
					"name": "transfer",
					"outputs": [
						{
							"internalType": "bool",
							"name": "",
							"type": "bool"
						}
					],
					"stateMutability": "nonpayable",
					"type": "function"
				},
				{
					"inputs": [
						{
							"internalType": "address",
							"name": "from",
							"type": "address"
						},
						{
							"internalType": "address",
							"name": "to",
							"type": "address"
						},
						{
							"internalType": "uint256",
							"name": "value",
							"type": "uint256"
						}
					],
					"name": "transferFrom",
					"outputs": [
						{
							"internalType": "bool",
							"name": "",
							"type": "bool"
						}
					],
					"stateMutability": "nonpayable",
					"type": "function"
				},
				{
					"inputs": [
						{
							"internalType": "address",
							"name": "newOwner",
							"type": "address"
						}
					],
					"name": "transferOwnership",
					"outputs": [],
					"stateMutability": "nonpayable",
					"type": "function"
				},
				{
					"inputs": [
						{
							"internalType": "address",
							"name": "",
							"type": "address"
						}
					],
					"name": "vestingBalance",
					"outputs": [
						{
							"internalType": "uint256",
							"name": "",
							"type": "uint256"
						}
					],
					"stateMutability": "view",
					"type": "function"
				},
				{
					"inputs": [],
					"name": "vestingDuration",
					"outputs": [
						{
							"internalType": "uint256",
							"name": "",
							"type": "uint256"
						}
					],
					"stateMutability": "view",
					"type": "function"
				},
				{
					"inputs": [
						{
							"internalType": "address",
							"name": "",
							"type": "address"
						}
					],
					"name": "vestingReleaseTime",
					"outputs": [
						{
							"internalType": "uint256",
							"name": "",
							"type": "uint256"
						}
					],
					"stateMutability": "view",
					"type": "function"
				},
				{
					"inputs": [],
					"name": "withdrawFunds",
					"outputs": [],
					"stateMutability": "nonpayable",
					"type": "function"
				},
				{
					"stateMutability": "payable",
					"type": "receive"
				}
			],
			"devdoc": {
				"errors": {
					"ERC20InsufficientAllowance(address,uint256,uint256)": [
						{
							"details": "Indicates a failure with the `spender`’s `allowance`. Used in transfers.",
							"params": {
								"allowance": "Amount of tokens a `spender` is allowed to operate with.",
								"needed": "Minimum amount required to perform a transfer.",
								"spender": "Address that may be allowed to operate on tokens without being their owner."
							}
						}
					],
					"ERC20InsufficientBalance(address,uint256,uint256)": [
						{
							"details": "Indicates an error related to the current `balance` of a `sender`. Used in transfers.",
							"params": {
								"balance": "Current balance for the interacting account.",
								"needed": "Minimum amount required to perform a transfer.",
								"sender": "Address whose tokens are being transferred."
							}
						}
					],
					"ERC20InvalidApprover(address)": [
						{
							"details": "Indicates a failure with the `approver` of a token to be approved. Used in approvals.",
							"params": {
								"approver": "Address initiating an approval operation."
							}
						}
					],
					"ERC20InvalidReceiver(address)": [
						{
							"details": "Indicates a failure with the token `receiver`. Used in transfers.",
							"params": {
								"receiver": "Address to which tokens are being transferred."
							}
						}
					],
					"ERC20InvalidSender(address)": [
						{
							"details": "Indicates a failure with the token `sender`. Used in transfers.",
							"params": {
								"sender": "Address whose tokens are being transferred."
							}
						}
					],
					"ERC20InvalidSpender(address)": [
						{
							"details": "Indicates a failure with the `spender` to be approved. Used in approvals.",
							"params": {
								"spender": "Address that may be allowed to operate on tokens without being their owner."
							}
						}
					],
					"OwnableInvalidOwner(address)": [
						{
							"details": "The owner is not a valid owner account. (eg. `address(0)`)"
						}
					],
					"OwnableUnauthorizedAccount(address)": [
						{
							"details": "The caller account is not authorized to perform an operation."
						}
					]
				},
				"events": {
					"Approval(address,address,uint256)": {
						"details": "Emitted when the allowance of a `spender` for an `owner` is set by a call to {approve}. `value` is the new allowance."
					},
					"Transfer(address,address,uint256)": {
						"details": "Emitted when `value` tokens are moved from one account (`from`) to another (`to`). Note that `value` may be zero."
					}
				},
				"kind": "dev",
				"methods": {
					"allowance(address,address)": {
						"details": "See {IERC20-allowance}."
					},
					"approve(address,uint256)": {
						"details": "See {IERC20-approve}. NOTE: If `value` is the maximum `uint256`, the allowance is not updated on `transferFrom`. This is semantically equivalent to an infinite approval. Requirements: - `spender` cannot be the zero address."
					},
					"balanceOf(address)": {
						"details": "See {IERC20-balanceOf}."
					},
					"decimals()": {
						"details": "Returns the number of decimals used to get its user representation. For example, if `decimals` equals `2`, a balance of `505` tokens should be displayed to a user as `5.05` (`505 / 10 ** 2`). Tokens usually opt for a value of 18, imitating the relationship between Ether and Wei. This is the default value returned by this function, unless it's overridden. NOTE: This information is only used for _display_ purposes: it in no way affects any of the arithmetic of the contract, including {IERC20-balanceOf} and {IERC20-transfer}."
					},
					"name()": {
						"details": "Returns the name of the token."
					},
					"owner()": {
						"details": "Returns the address of the current owner."
					},
					"renounceOwnership()": {
						"details": "Leaves the contract without owner. It will not be possible to call `onlyOwner` functions. Can only be called by the current owner. NOTE: Renouncing ownership will leave the contract without an owner, thereby disabling any functionality that is only available to the owner."
					},
					"symbol()": {
						"details": "Returns the symbol of the token, usually a shorter version of the name."
					},
					"totalSupply()": {
						"details": "See {IERC20-totalSupply}."
					},
					"transfer(address,uint256)": {
						"details": "See {IERC20-transfer}. Requirements: - `to` cannot be the zero address. - the caller must have a balance of at least `value`."
					},
					"transferFrom(address,address,uint256)": {
						"details": "See {IERC20-transferFrom}. Emits an {Approval} event indicating the updated allowance. This is not required by the EIP. See the note at the beginning of {ERC20}. NOTE: Does not update the allowance if the current allowance is the maximum `uint256`. Requirements: - `from` and `to` cannot be the zero address. - `from` must have a balance of at least `value`. - the caller must have allowance for ``from``'s tokens of at least `value`."
					},
					"transferOwnership(address)": {
						"details": "Transfers ownership of the contract to a new account (`newOwner`). Can only be called by the current owner."
					}
				},
				"version": 1
			},
			"evm": {
				"assembly": "    /* \"contracts/bettoken.sol\":367:8658  contract Bettoken is ERC20, Ownable, ReentrancyGuard {... */\n  mstore(0x40, 0x80)\n    /* \"contracts/bettoken.sol\":629:649  1_000_000 * 10 ** 18 */\n  0xd3c21bcecceda1000000\n    /* \"contracts/bettoken.sol\":594:649  uint256 public privateSaleTarget = 1_000_000 * 10 ** 18 */\n  0x07\n  sstore\n    /* \"contracts/bettoken.sol\":714:735  38_835_764 * 10 ** 18 */\n  0x201fcafc2577d298500000\n    /* \"contracts/bettoken.sol\":679:735  uint256 public privateSaleTokens = 38_835_764 * 10 ** 18 */\n  0x08\n  sstore\n    /* \"contracts/bettoken.sol\":799:815  0.001 * 10 ** 18 */\n  0x038d7ea4c68000\n    /* \"contracts/bettoken.sol\":760:815  uint256 public privateSaleStartPrice = 0.001 * 10 ** 18 */\n  0x09\n  sstore\n    /* \"contracts/bettoken.sol\":880:897  0.0505 * 10 ** 18 */\n  0xb3697b81284000\n    /* \"contracts/bettoken.sol\":843:897  uint256 public privateSaleEndPrice = 0.0505 * 10 ** 18 */\n  0x0a\n  sstore\n    /* \"contracts/bettoken.sol\":965:966  0 */\n  0x00\n    /* \"contracts/bettoken.sol\":926:966  uint256 public privateSaleSoldTokens = 0 */\n  0x0b\n  sstore\n    /* \"contracts/bettoken.sol\":1030:1051  19_000_000 * 10 ** 18 */\n  0x0fb768105935a2f3000000\n    /* \"contracts/bettoken.sol\":999:1051  uint256 public preSaleTarget = 19_000_000 * 10 ** 18 */\n  0x0c\n  sstore\n    /* \"contracts/bettoken.sol\":1113:1135  161_164_236 * 10 ** 18 */\n  0x854fdabd6aa1d32fb00000\n    /* \"contracts/bettoken.sol\":1082:1135  uint256 public preSaleTokens = 161_164_236 * 10 ** 18 */\n  0x0d\n  sstore\n    /* \"contracts/bettoken.sol\":1196:1213  0.0505 * 10 ** 18 */\n  0xb3697b81284000\n    /* \"contracts/bettoken.sol\":1161:1213  uint256 public preSaleStartPrice = 0.0505 * 10 ** 18 */\n  0x0e\n  sstore\n    /* \"contracts/bettoken.sol\":1275:1289  0.1 * 10 ** 18 */\n  0x016345785d8a0000\n    /* \"contracts/bettoken.sol\":1242:1289  uint256 public preSaleEndPrice = 0.1 * 10 ** 18 */\n  0x0f\n  sstore\n    /* \"contracts/bettoken.sol\":1350:1351  0 */\n  0x00\n    /* \"contracts/bettoken.sol\":1315:1351  uint256 public preSaleSoldTokens = 0 */\n  0x10\n  sstore\n    /* \"contracts/bettoken.sol\":1448:1462  SaleStage.NONE */\n  0x00\n    /* \"contracts/bettoken.sol\":1423:1462  SaleStage public stage = SaleStage.NONE */\n  0x11\n  exp(0x0100, 0x00)\n  dup2\n  sload\n  dup2\n  0xff\n  mul\n  not\n  and\n  swap1\n  dup4\n  0x02\n  dup2\n  gt\n  iszero\n  tag_1\n  jumpi\n  tag_2\n  tag_3\n  jump\t// in\ntag_2:\ntag_1:\n  mul\n  or\n  swap1\n  sstore\n  pop\n    /* \"contracts/bettoken.sol\":1642:1650  180 days */\n  0xed4e00\n    /* \"contracts/bettoken.sol\":1609:1650  uint256 public vestingDuration = 180 days */\n  0x14\n  sstore\n    /* \"contracts/bettoken.sol\":1695:1703  365 days */\n  0x01e13380\n    /* \"contracts/bettoken.sol\":1664:1703  uint256 public stakeDuration = 365 days */\n  0x15\n  sstore\n    /* \"contracts/bettoken.sol\":2224:2500  constructor(address[] memory _priceFeeds) ERC20(\"Bettoken\", \"BETT\") Ownable(msg.sender) {... */\n  callvalue\n  dup1\n  iszero\n  tag_4\n  jumpi\n  0x00\n  dup1\n  revert\ntag_4:\n  pop\n  mload(0x40)\n  sub(codesize, bytecodeSize)\n  dup1\n  bytecodeSize\n  dup4\n  codecopy\n  dup2\n  dup2\n  add\n  0x40\n  mstore\n  dup2\n  add\n  swap1\n  tag_5\n  swap2\n  swap1\n  tag_6\n  jump\t// in\ntag_5:\n    /* \"contracts/bettoken.sol\":2300:2310  msg.sender */\n  caller\n    /* \"@openzeppelin/contracts/token/ERC20/ERC20.sol\":1896:2009  constructor(string memory name_, string memory symbol_) {... */\n  mload(0x40)\n  dup1\n  0x40\n  add\n  0x40\n  mstore\n  dup1\n  0x08\n  dup2\n  mstore\n  0x20\n  add\n  0x426574746f6b656e000000000000000000000000000000000000000000000000\n  dup2\n  mstore\n  pop\n  mload(0x40)\n  dup1\n  0x40\n  add\n  0x40\n  mstore\n  dup1\n  0x04\n  dup2\n  mstore\n  0x20\n  add\n  0x4245545400000000000000000000000000000000000000000000000000000000\n  dup2\n  mstore\n  pop\n    /* \"@openzeppelin/contracts/token/ERC20/ERC20.sol\":1970:1975  name_ */\n  dup2\n    /* \"@openzeppelin/contracts/token/ERC20/ERC20.sol\":1962:1967  _name */\n  0x03\n    /* \"@openzeppelin/contracts/token/ERC20/ERC20.sol\":1962:1975  _name = name_ */\n  swap1\n  dup2\n  tag_12\n  swap2\n  swap1\n  tag_13\n  jump\t// in\ntag_12:\n  pop\n    /* \"@openzeppelin/contracts/token/ERC20/ERC20.sol\":1995:2002  symbol_ */\n  dup1\n    /* \"@openzeppelin/contracts/token/ERC20/ERC20.sol\":1985:1992  _symbol */\n  0x04\n    /* \"@openzeppelin/contracts/token/ERC20/ERC20.sol\":1985:2002  _symbol = symbol_ */\n  swap1\n  dup2\n  tag_14\n  swap2\n  swap1\n  tag_13\n  jump\t// in\ntag_14:\n  pop\n    /* \"@openzeppelin/contracts/token/ERC20/ERC20.sol\":1896:2009  constructor(string memory name_, string memory symbol_) {... */\n  pop\n  pop\n    /* \"@openzeppelin/contracts/access/Ownable.sol\":1297:1298  0 */\n  0x00\n    /* \"@openzeppelin/contracts/access/Ownable.sol\":1273:1299  initialOwner == address(0) */\n  0xffffffffffffffffffffffffffffffffffffffff\n  and\n    /* \"@openzeppelin/contracts/access/Ownable.sol\":1273:1285  initialOwner */\n  dup2\n    /* \"@openzeppelin/contracts/access/Ownable.sol\":1273:1299  initialOwner == address(0) */\n  0xffffffffffffffffffffffffffffffffffffffff\n  and\n  sub\n    /* \"@openzeppelin/contracts/access/Ownable.sol\":1269:1364  if (initialOwner == address(0)) {... */\n  tag_16\n  jumpi\n    /* \"@openzeppelin/contracts/access/Ownable.sol\":1350:1351  0 */\n  0x00\n    /* \"@openzeppelin/contracts/access/Ownable.sol\":1322:1353  OwnableInvalidOwner(address(0)) */\n  mload(0x40)\n  0x1e4fbdf700000000000000000000000000000000000000000000000000000000\n  dup2\n  mstore\n  0x04\n  add\n  tag_17\n  swap2\n  swap1\n  tag_18\n  jump\t// in\ntag_17:\n  mload(0x40)\n  dup1\n  swap2\n  sub\n  swap1\n  revert\n    /* \"@openzeppelin/contracts/access/Ownable.sol\":1269:1364  if (initialOwner == address(0)) {... */\ntag_16:\n    /* \"@openzeppelin/contracts/access/Ownable.sol\":1373:1405  _transferOwnership(initialOwner) */\n  tag_19\n    /* \"@openzeppelin/contracts/access/Ownable.sol\":1392:1404  initialOwner */\n  dup2\n    /* \"@openzeppelin/contracts/access/Ownable.sol\":1373:1391  _transferOwnership */\n  shl(0x20, tag_20)\n    /* \"@openzeppelin/contracts/access/Ownable.sol\":1373:1405  _transferOwnership(initialOwner) */\n  0x20\n  shr\n  jump\t// in\ntag_19:\n    /* \"@openzeppelin/contracts/access/Ownable.sol\":1225:1412  constructor(address initialOwner) {... */\n  pop\n    /* \"@openzeppelin/contracts/security/ReentrancyGuard.sol\":1716:1717  1 */\n  0x01\n    /* \"@openzeppelin/contracts/security/ReentrancyGuard.sol\":1821:1828  _status */\n  0x06\n    /* \"@openzeppelin/contracts/security/ReentrancyGuard.sol\":1821:1843  _status = _NOT_ENTERED */\n  dup2\n  swap1\n  sstore\n  pop\n    /* \"contracts/bettoken.sol\":2322:2356  _mint(address(this), TOTAL_SUPPLY) */\n  tag_23\n    /* \"contracts/bettoken.sol\":2336:2340  this */\n  address\n    /* \"contracts/bettoken.sol\":498:520  200_000_000 * 10 ** 18 */\n  0xa56fa5b99019a5c8000000\n    /* \"contracts/bettoken.sol\":2322:2327  _mint */\n  shl(0x20, tag_24)\n    /* \"contracts/bettoken.sol\":2322:2356  _mint(address(this), TOTAL_SUPPLY) */\n  0x20\n  shr\n  jump\t// in\ntag_23:\n    /* \"contracts/bettoken.sol\":2371:2380  uint256 i */\n  0x00\n    /* \"contracts/bettoken.sol\":2366:2494  for (uint256 i = 0; i < _priceFeeds.length; i++) {... */\ntag_25:\n    /* \"contracts/bettoken.sol\":2390:2401  _priceFeeds */\n  dup2\n    /* \"contracts/bettoken.sol\":2390:2408  _priceFeeds.length */\n  mload\n    /* \"contracts/bettoken.sol\":2386:2387  i */\n  dup2\n    /* \"contracts/bettoken.sol\":2386:2408  i < _priceFeeds.length */\n  lt\n    /* \"contracts/bettoken.sol\":2366:2494  for (uint256 i = 0; i < _priceFeeds.length; i++) {... */\n  iszero\n  tag_26\n  jumpi\n    /* \"contracts/bettoken.sol\":2429:2439  priceFeeds */\n  0x16\n    /* \"contracts/bettoken.sol\":2467:2478  _priceFeeds */\n  dup3\n    /* \"contracts/bettoken.sol\":2479:2480  i */\n  dup3\n    /* \"contracts/bettoken.sol\":2467:2481  _priceFeeds[i] */\n  dup2\n  mload\n  dup2\n  lt\n  tag_28\n  jumpi\n  tag_29\n  tag_30\n  jump\t// in\ntag_29:\ntag_28:\n  0x20\n  mul\n  0x20\n  add\n  add\n  mload\n    /* \"contracts/bettoken.sol\":2429:2483  priceFeeds.push(AggregatorV3Interface(_priceFeeds[i])) */\n  swap1\n  dup1\n  0x01\n  dup2\n  sload\n  add\n  dup1\n  dup3\n  sstore\n  dup1\n  swap2\n  pop\n  pop\n  0x01\n  swap1\n  sub\n  swap1\n  0x00\n  mstore\n  keccak256(0x00, 0x20)\n  add\n  0x00\n  swap1\n  swap2\n  swap1\n  swap2\n  swap1\n  swap2\n  0x0100\n  exp\n  dup2\n  sload\n  dup2\n  0xffffffffffffffffffffffffffffffffffffffff\n  mul\n  not\n  and\n  swap1\n  dup4\n  0xffffffffffffffffffffffffffffffffffffffff\n  and\n  mul\n  or\n  swap1\n  sstore\n  pop\n    /* \"contracts/bettoken.sol\":2410:2413  i++ */\n  dup1\n  dup1\n  0x01\n  add\n  swap2\n  pop\n  pop\n    /* \"contracts/bettoken.sol\":2366:2494  for (uint256 i = 0; i < _priceFeeds.length; i++) {... */\n  jump(tag_25)\ntag_26:\n  pop\n    /* \"contracts/bettoken.sol\":2224:2500  constructor(address[] memory _priceFeeds) ERC20(\"Bettoken\", \"BETT\") Ownable(msg.sender) {... */\n  pop\n    /* \"contracts/bettoken.sol\":367:8658  contract Bettoken is ERC20, Ownable, ReentrancyGuard {... */\n  jump(tag_32)\n    /* \"@openzeppelin/contracts/access/Ownable.sol\":2912:3099  function _transferOwnership(address newOwner) internal virtual {... */\ntag_20:\n    /* \"@openzeppelin/contracts/access/Ownable.sol\":2985:3001  address oldOwner */\n  0x00\n    /* \"@openzeppelin/contracts/access/Ownable.sol\":3004:3010  _owner */\n  0x05\n  0x00\n  swap1\n  sload\n  swap1\n  0x0100\n  exp\n  swap1\n  div\n  0xffffffffffffffffffffffffffffffffffffffff\n  and\n    /* \"@openzeppelin/contracts/access/Ownable.sol\":2985:3010  address oldOwner = _owner */\n  swap1\n  pop\n    /* \"@openzeppelin/contracts/access/Ownable.sol\":3029:3037  newOwner */\n  dup2\n    /* \"@openzeppelin/contracts/access/Ownable.sol\":3020:3026  _owner */\n  0x05\n  0x00\n    /* \"@openzeppelin/contracts/access/Ownable.sol\":3020:3037  _owner = newOwner */\n  0x0100\n  exp\n  dup2\n  sload\n  dup2\n  0xffffffffffffffffffffffffffffffffffffffff\n  mul\n  not\n  and\n  swap1\n  dup4\n  0xffffffffffffffffffffffffffffffffffffffff\n  and\n  mul\n  or\n  swap1\n  sstore\n  pop\n    /* \"@openzeppelin/contracts/access/Ownable.sol\":3083:3091  newOwner */\n  dup2\n    /* \"@openzeppelin/contracts/access/Ownable.sol\":3052:3092  OwnershipTransferred(oldOwner, newOwner) */\n  0xffffffffffffffffffffffffffffffffffffffff\n  and\n    /* \"@openzeppelin/contracts/access/Ownable.sol\":3073:3081  oldOwner */\n  dup2\n    /* \"@openzeppelin/contracts/access/Ownable.sol\":3052:3092  OwnershipTransferred(oldOwner, newOwner) */\n  0xffffffffffffffffffffffffffffffffffffffff\n  and\n  0x8be0079c531659141344cd1fd0a4f28419497f9722a3daafe3b4186f6b6457e0\n  mload(0x40)\n  mload(0x40)\n  dup1\n  swap2\n  sub\n  swap1\n  log3\n    /* \"@openzeppelin/contracts/access/Ownable.sol\":2975:3099  {... */\n  pop\n    /* \"@openzeppelin/contracts/access/Ownable.sol\":2912:3099  function _transferOwnership(address newOwner) internal virtual {... */\n  pop\n  jump\t// out\n    /* \"@openzeppelin/contracts/token/ERC20/ERC20.sol\":7721:7929  function _mint(address account, uint256 value) internal {... */\ntag_24:\n    /* \"@openzeppelin/contracts/token/ERC20/ERC20.sol\":7810:7811  0 */\n  0x00\n    /* \"@openzeppelin/contracts/token/ERC20/ERC20.sol\":7791:7812  account == address(0) */\n  0xffffffffffffffffffffffffffffffffffffffff\n  and\n    /* \"@openzeppelin/contracts/token/ERC20/ERC20.sol\":7791:7798  account */\n  dup3\n    /* \"@openzeppelin/contracts/token/ERC20/ERC20.sol\":7791:7812  account == address(0) */\n  0xffffffffffffffffffffffffffffffffffffffff\n  and\n  sub\n    /* \"@openzeppelin/contracts/token/ERC20/ERC20.sol\":7787:7878  if (account == address(0)) {... */\n  tag_35\n  jumpi\n    /* \"@openzeppelin/contracts/token/ERC20/ERC20.sol\":7864:7865  0 */\n  0x00\n    /* \"@openzeppelin/contracts/token/ERC20/ERC20.sol\":7835:7867  ERC20InvalidReceiver(address(0)) */\n  mload(0x40)\n  0xec442f0500000000000000000000000000000000000000000000000000000000\n  dup2\n  mstore\n  0x04\n  add\n  tag_36\n  swap2\n  swap1\n  tag_18\n  jump\t// in\ntag_36:\n  mload(0x40)\n  dup1\n  swap2\n  sub\n  swap1\n  revert\n    /* \"@openzeppelin/contracts/token/ERC20/ERC20.sol\":7787:7878  if (account == address(0)) {... */\ntag_35:\n    /* \"@openzeppelin/contracts/token/ERC20/ERC20.sol\":7887:7922  _update(address(0), account, value) */\n  tag_37\n    /* \"@openzeppelin/contracts/token/ERC20/ERC20.sol\":7903:7904  0 */\n  0x00\n    /* \"@openzeppelin/contracts/token/ERC20/ERC20.sol\":7907:7914  account */\n  dup4\n    /* \"@openzeppelin/contracts/token/ERC20/ERC20.sol\":7916:7921  value */\n  dup4\n    /* \"@openzeppelin/contracts/token/ERC20/ERC20.sol\":7887:7894  _update */\n  shl(0x20, tag_38)\n    /* \"@openzeppelin/contracts/token/ERC20/ERC20.sol\":7887:7922  _update(address(0), account, value) */\n  0x20\n  shr\n  jump\t// in\ntag_37:\n    /* \"@openzeppelin/contracts/token/ERC20/ERC20.sol\":7721:7929  function _mint(address account, uint256 value) internal {... */\n  pop\n  pop\n  jump\t// out\n    /* \"@openzeppelin/contracts/token/ERC20/ERC20.sol\":6271:7378  function _update(address from, address to, uint256 value) internal virtual {... */\ntag_38:\n    /* \"@openzeppelin/contracts/token/ERC20/ERC20.sol\":6376:6377  0 */\n  0x00\n    /* \"@openzeppelin/contracts/token/ERC20/ERC20.sol\":6360:6378  from == address(0) */\n  0xffffffffffffffffffffffffffffffffffffffff\n  and\n    /* \"@openzeppelin/contracts/token/ERC20/ERC20.sol\":6360:6364  from */\n  dup4\n    /* \"@openzeppelin/contracts/token/ERC20/ERC20.sol\":6360:6378  from == address(0) */\n  0xffffffffffffffffffffffffffffffffffffffff\n  and\n  sub\n    /* \"@openzeppelin/contracts/token/ERC20/ERC20.sol\":6356:6896  if (from == address(0)) {... */\n  tag_40\n  jumpi\n    /* \"@openzeppelin/contracts/token/ERC20/ERC20.sol\":6512:6517  value */\n  dup1\n    /* \"@openzeppelin/contracts/token/ERC20/ERC20.sol\":6496:6508  _totalSupply */\n  0x02\n  0x00\n    /* \"@openzeppelin/contracts/token/ERC20/ERC20.sol\":6496:6517  _totalSupply += value */\n  dup3\n  dup3\n  sload\n  tag_41\n  swap2\n  swap1\n  tag_42\n  jump\t// in\ntag_41:\n  swap3\n  pop\n  pop\n  dup2\n  swap1\n  sstore\n  pop\n    /* \"@openzeppelin/contracts/token/ERC20/ERC20.sol\":6356:6896  if (from == address(0)) {... */\n  jump(tag_43)\ntag_40:\n    /* \"@openzeppelin/contracts/token/ERC20/ERC20.sol\":6548:6567  uint256 fromBalance */\n  0x00\n    /* \"@openzeppelin/contracts/token/ERC20/ERC20.sol\":6570:6579  _balances */\n  dup1\n    /* \"@openzeppelin/contracts/token/ERC20/ERC20.sol\":6570:6585  _balances[from] */\n  0x00\n    /* \"@openzeppelin/contracts/token/ERC20/ERC20.sol\":6580:6584  from */\n  dup6\n    /* \"@openzeppelin/contracts/token/ERC20/ERC20.sol\":6570:6585  _balances[from] */\n  0xffffffffffffffffffffffffffffffffffffffff\n  and\n  0xffffffffffffffffffffffffffffffffffffffff\n  and\n  dup2\n  mstore\n  0x20\n  add\n  swap1\n  dup2\n  mstore\n  0x20\n  add\n  0x00\n  keccak256\n  sload\n    /* \"@openzeppelin/contracts/token/ERC20/ERC20.sol\":6548:6585  uint256 fromBalance = _balances[from] */\n  swap1\n  pop\n    /* \"@openzeppelin/contracts/token/ERC20/ERC20.sol\":6617:6622  value */\n  dup2\n    /* \"@openzeppelin/contracts/token/ERC20/ERC20.sol\":6603:6614  fromBalance */\n  dup2\n    /* \"@openzeppelin/contracts/token/ERC20/ERC20.sol\":6603:6622  fromBalance < value */\n  lt\n    /* \"@openzeppelin/contracts/token/ERC20/ERC20.sol\":6599:6714  if (fromBalance < value) {... */\n  iszero\n  tag_44\n  jumpi\n    /* \"@openzeppelin/contracts/token/ERC20/ERC20.sol\":6674:6678  from */\n  dup4\n    /* \"@openzeppelin/contracts/token/ERC20/ERC20.sol\":6680:6691  fromBalance */\n  dup2\n    /* \"@openzeppelin/contracts/token/ERC20/ERC20.sol\":6693:6698  value */\n  dup4\n    /* \"@openzeppelin/contracts/token/ERC20/ERC20.sol\":6649:6699  ERC20InsufficientBalance(from, fromBalance, value) */\n  mload(0x40)\n  0xe450d38c00000000000000000000000000000000000000000000000000000000\n  dup2\n  mstore\n  0x04\n  add\n  tag_45\n  swap4\n  swap3\n  swap2\n  swap1\n  tag_46\n  jump\t// in\ntag_45:\n  mload(0x40)\n  dup1\n  swap2\n  sub\n  swap1\n  revert\n    /* \"@openzeppelin/contracts/token/ERC20/ERC20.sol\":6599:6714  if (fromBalance < value) {... */\ntag_44:\n    /* \"@openzeppelin/contracts/token/ERC20/ERC20.sol\":6866:6871  value */\n  dup2\n    /* \"@openzeppelin/contracts/token/ERC20/ERC20.sol\":6852:6863  fromBalance */\n  dup2\n    /* \"@openzeppelin/contracts/token/ERC20/ERC20.sol\":6852:6871  fromBalance - value */\n  sub\n    /* \"@openzeppelin/contracts/token/ERC20/ERC20.sol\":6834:6843  _balances */\n  0x00\n    /* \"@openzeppelin/contracts/token/ERC20/ERC20.sol\":6834:6849  _balances[from] */\n  dup1\n    /* \"@openzeppelin/contracts/token/ERC20/ERC20.sol\":6844:6848  from */\n  dup7\n    /* \"@openzeppelin/contracts/token/ERC20/ERC20.sol\":6834:6849  _balances[from] */\n  0xffffffffffffffffffffffffffffffffffffffff\n  and\n  0xffffffffffffffffffffffffffffffffffffffff\n  and\n  dup2\n  mstore\n  0x20\n  add\n  swap1\n  dup2\n  mstore\n  0x20\n  add\n  0x00\n  keccak256\n    /* \"@openzeppelin/contracts/token/ERC20/ERC20.sol\":6834:6871  _balances[from] = fromBalance - value */\n  dup2\n  swap1\n  sstore\n  pop\n    /* \"@openzeppelin/contracts/token/ERC20/ERC20.sol\":6534:6896  {... */\n  pop\n    /* \"@openzeppelin/contracts/token/ERC20/ERC20.sol\":6356:6896  if (from == address(0)) {... */\ntag_43:\n    /* \"@openzeppelin/contracts/token/ERC20/ERC20.sol\":6924:6925  0 */\n  0x00\n    /* \"@openzeppelin/contracts/token/ERC20/ERC20.sol\":6910:6926  to == address(0) */\n  0xffffffffffffffffffffffffffffffffffffffff\n  and\n    /* \"@openzeppelin/contracts/token/ERC20/ERC20.sol\":6910:6912  to */\n  dup3\n    /* \"@openzeppelin/contracts/token/ERC20/ERC20.sol\":6910:6926  to == address(0) */\n  0xffffffffffffffffffffffffffffffffffffffff\n  and\n  sub\n    /* \"@openzeppelin/contracts/token/ERC20/ERC20.sol\":6906:7331  if (to == address(0)) {... */\n  tag_47\n  jumpi\n    /* \"@openzeppelin/contracts/token/ERC20/ERC20.sol\":7089:7094  value */\n  dup1\n    /* \"@openzeppelin/contracts/token/ERC20/ERC20.sol\":7073:7085  _totalSupply */\n  0x02\n  0x00\n    /* \"@openzeppelin/contracts/token/ERC20/ERC20.sol\":7073:7094  _totalSupply -= value */\n  dup3\n  dup3\n  sload\n  sub\n  swap3\n  pop\n  pop\n  dup2\n  swap1\n  sstore\n  pop\n    /* \"@openzeppelin/contracts/token/ERC20/ERC20.sol\":6906:7331  if (to == address(0)) {... */\n  jump(tag_48)\ntag_47:\n    /* \"@openzeppelin/contracts/token/ERC20/ERC20.sol\":7301:7306  value */\n  dup1\n    /* \"@openzeppelin/contracts/token/ERC20/ERC20.sol\":7284:7293  _balances */\n  0x00\n    /* \"@openzeppelin/contracts/token/ERC20/ERC20.sol\":7284:7297  _balances[to] */\n  dup1\n    /* \"@openzeppelin/contracts/token/ERC20/ERC20.sol\":7294:7296  to */\n  dup5\n    /* \"@openzeppelin/contracts/token/ERC20/ERC20.sol\":7284:7297  _balances[to] */\n  0xffffffffffffffffffffffffffffffffffffffff\n  and\n  0xffffffffffffffffffffffffffffffffffffffff\n  and\n  dup2\n  mstore\n  0x20\n  add\n  swap1\n  dup2\n  mstore\n  0x20\n  add\n  0x00\n  keccak256\n  0x00\n    /* \"@openzeppelin/contracts/token/ERC20/ERC20.sol\":7284:7306  _balances[to] += value */\n  dup3\n  dup3\n  sload\n  add\n  swap3\n  pop\n  pop\n  dup2\n  swap1\n  sstore\n  pop\n    /* \"@openzeppelin/contracts/token/ERC20/ERC20.sol\":6906:7331  if (to == address(0)) {... */\ntag_48:\n    /* \"@openzeppelin/contracts/token/ERC20/ERC20.sol\":7361:7363  to */\n  dup2\n    /* \"@openzeppelin/contracts/token/ERC20/ERC20.sol\":7346:7371  Transfer(from, to, value) */\n  0xffffffffffffffffffffffffffffffffffffffff\n  and\n    /* \"@openzeppelin/contracts/token/ERC20/ERC20.sol\":7355:7359  from */\n  dup4\n    /* \"@openzeppelin/contracts/token/ERC20/ERC20.sol\":7346:7371  Transfer(from, to, value) */\n  0xffffffffffffffffffffffffffffffffffffffff\n  and\n  0xddf252ad1be2c89b69c2b068fc378daa952ba7f163c4a11628f55a4df523b3ef\n    /* \"@openzeppelin/contracts/token/ERC20/ERC20.sol\":7365:7370  value */\n  dup4\n    /* \"@openzeppelin/contracts/token/ERC20/ERC20.sol\":7346:7371  Transfer(from, to, value) */\n  mload(0x40)\n  tag_49\n  swap2\n  swap1\n  tag_50\n  jump\t// in\ntag_49:\n  mload(0x40)\n  dup1\n  swap2\n  sub\n  swap1\n  log3\n    /* \"@openzeppelin/contracts/token/ERC20/ERC20.sol\":6271:7378  function _update(address from, address to, uint256 value) internal virtual {... */\n  pop\n  pop\n  pop\n  jump\t// out\n    /* \"#utility.yul\":7:187   */\ntag_3:\n    /* \"#utility.yul\":55:132   */\n  0x4e487b7100000000000000000000000000000000000000000000000000000000\n    /* \"#utility.yul\":52:53   */\n  0x00\n    /* \"#utility.yul\":45:133   */\n  mstore\n    /* \"#utility.yul\":152:156   */\n  0x21\n    /* \"#utility.yul\":149:150   */\n  0x04\n    /* \"#utility.yul\":142:157   */\n  mstore\n    /* \"#utility.yul\":176:180   */\n  0x24\n    /* \"#utility.yul\":173:174   */\n  0x00\n    /* \"#utility.yul\":166:181   */\n  revert\n    /* \"#utility.yul\":193:268   */\ntag_51:\n    /* \"#utility.yul\":226:232   */\n  0x00\n    /* \"#utility.yul\":259:261   */\n  0x40\n    /* \"#utility.yul\":253:262   */\n  mload\n    /* \"#utility.yul\":243:262   */\n  swap1\n  pop\n    /* \"#utility.yul\":193:268   */\n  swap1\n  jump\t// out\n    /* \"#utility.yul\":274:391   */\ntag_52:\n    /* \"#utility.yul\":383:384   */\n  0x00\n    /* \"#utility.yul\":380:381   */\n  dup1\n    /* \"#utility.yul\":373:385   */\n  revert\n    /* \"#utility.yul\":397:514   */\ntag_53:\n    /* \"#utility.yul\":506:507   */\n  0x00\n    /* \"#utility.yul\":503:504   */\n  dup1\n    /* \"#utility.yul\":496:508   */\n  revert\n    /* \"#utility.yul\":520:637   */\ntag_54:\n    /* \"#utility.yul\":629:630   */\n  0x00\n    /* \"#utility.yul\":626:627   */\n  dup1\n    /* \"#utility.yul\":619:631   */\n  revert\n    /* \"#utility.yul\":643:745   */\ntag_55:\n    /* \"#utility.yul\":684:690   */\n  0x00\n    /* \"#utility.yul\":735:737   */\n  0x1f\n    /* \"#utility.yul\":731:738   */\n  not\n    /* \"#utility.yul\":726:728   */\n  0x1f\n    /* \"#utility.yul\":719:724   */\n  dup4\n    /* \"#utility.yul\":715:729   */\n  add\n    /* \"#utility.yul\":711:739   */\n  and\n    /* \"#utility.yul\":701:739   */\n  swap1\n  pop\n    /* \"#utility.yul\":643:745   */\n  swap2\n  swap1\n  pop\n  jump\t// out\n    /* \"#utility.yul\":751:931   */\ntag_56:\n    /* \"#utility.yul\":799:876   */\n  0x4e487b7100000000000000000000000000000000000000000000000000000000\n    /* \"#utility.yul\":796:797   */\n  0x00\n    /* \"#utility.yul\":789:877   */\n  mstore\n    /* \"#utility.yul\":896:900   */\n  0x41\n    /* \"#utility.yul\":893:894   */\n  0x04\n    /* \"#utility.yul\":886:901   */\n  mstore\n    /* \"#utility.yul\":920:924   */\n  0x24\n    /* \"#utility.yul\":917:918   */\n  0x00\n    /* \"#utility.yul\":910:925   */\n  revert\n    /* \"#utility.yul\":937:1218   */\ntag_57:\n    /* \"#utility.yul\":1020:1047   */\n  tag_98\n    /* \"#utility.yul\":1042:1046   */\n  dup3\n    /* \"#utility.yul\":1020:1047   */\n  tag_55\n  jump\t// in\ntag_98:\n    /* \"#utility.yul\":1012:1018   */\n  dup2\n    /* \"#utility.yul\":1008:1048   */\n  add\n    /* \"#utility.yul\":1150:1156   */\n  dup2\n    /* \"#utility.yul\":1138:1148   */\n  dup2\n    /* \"#utility.yul\":1135:1157   */\n  lt\n    /* \"#utility.yul\":1114:1132   */\n  0xffffffffffffffff\n    /* \"#utility.yul\":1102:1112   */\n  dup3\n    /* \"#utility.yul\":1099:1133   */\n  gt\n    /* \"#utility.yul\":1096:1158   */\n  or\n    /* \"#utility.yul\":1093:1181   */\n  iszero\n  tag_99\n  jumpi\n    /* \"#utility.yul\":1161:1179   */\n  tag_100\n  tag_56\n  jump\t// in\ntag_100:\n    /* \"#utility.yul\":1093:1181   */\ntag_99:\n    /* \"#utility.yul\":1201:1211   */\n  dup1\n    /* \"#utility.yul\":1197:1199   */\n  0x40\n    /* \"#utility.yul\":1190:1212   */\n  mstore\n    /* \"#utility.yul\":980:1218   */\n  pop\n    /* \"#utility.yul\":937:1218   */\n  pop\n  pop\n  jump\t// out\n    /* \"#utility.yul\":1224:1353   */\ntag_58:\n    /* \"#utility.yul\":1258:1264   */\n  0x00\n    /* \"#utility.yul\":1285:1305   */\n  tag_102\n  tag_51\n  jump\t// in\ntag_102:\n    /* \"#utility.yul\":1275:1305   */\n  swap1\n  pop\n    /* \"#utility.yul\":1314:1347   */\n  tag_103\n    /* \"#utility.yul\":1342:1346   */\n  dup3\n    /* \"#utility.yul\":1334:1340   */\n  dup3\n    /* \"#utility.yul\":1314:1347   */\n  tag_57\n  jump\t// in\ntag_103:\n    /* \"#utility.yul\":1224:1353   */\n  swap2\n  swap1\n  pop\n  jump\t// out\n    /* \"#utility.yul\":1359:1670   */\ntag_59:\n    /* \"#utility.yul\":1436:1440   */\n  0x00\n    /* \"#utility.yul\":1526:1544   */\n  0xffffffffffffffff\n    /* \"#utility.yul\":1518:1524   */\n  dup3\n    /* \"#utility.yul\":1515:1545   */\n  gt\n    /* \"#utility.yul\":1512:1568   */\n  iszero\n  tag_105\n  jumpi\n    /* \"#utility.yul\":1548:1566   */\n  tag_106\n  tag_56\n  jump\t// in\ntag_106:\n    /* \"#utility.yul\":1512:1568   */\ntag_105:\n    /* \"#utility.yul\":1598:1602   */\n  0x20\n    /* \"#utility.yul\":1590:1596   */\n  dup3\n    /* \"#utility.yul\":1586:1603   */\n  mul\n    /* \"#utility.yul\":1578:1603   */\n  swap1\n  pop\n    /* \"#utility.yul\":1658:1662   */\n  0x20\n    /* \"#utility.yul\":1652:1656   */\n  dup2\n    /* \"#utility.yul\":1648:1663   */\n  add\n    /* \"#utility.yul\":1640:1663   */\n  swap1\n  pop\n    /* \"#utility.yul\":1359:1670   */\n  swap2\n  swap1\n  pop\n  jump\t// out\n    /* \"#utility.yul\":1676:1793   */\ntag_60:\n    /* \"#utility.yul\":1785:1786   */\n  0x00\n    /* \"#utility.yul\":1782:1783   */\n  dup1\n    /* \"#utility.yul\":1775:1787   */\n  revert\n    /* \"#utility.yul\":1799:1925   */\ntag_61:\n    /* \"#utility.yul\":1836:1843   */\n  0x00\n    /* \"#utility.yul\":1876:1918   */\n  0xffffffffffffffffffffffffffffffffffffffff\n    /* \"#utility.yul\":1869:1874   */\n  dup3\n    /* \"#utility.yul\":1865:1919   */\n  and\n    /* \"#utility.yul\":1854:1919   */\n  swap1\n  pop\n    /* \"#utility.yul\":1799:1925   */\n  swap2\n  swap1\n  pop\n  jump\t// out\n    /* \"#utility.yul\":1931:2027   */\ntag_62:\n    /* \"#utility.yul\":1968:1975   */\n  0x00\n    /* \"#utility.yul\":1997:2021   */\n  tag_110\n    /* \"#utility.yul\":2015:2020   */\n  dup3\n    /* \"#utility.yul\":1997:2021   */\n  tag_61\n  jump\t// in\ntag_110:\n    /* \"#utility.yul\":1986:2021   */\n  swap1\n  pop\n    /* \"#utility.yul\":1931:2027   */\n  swap2\n  swap1\n  pop\n  jump\t// out\n    /* \"#utility.yul\":2033:2155   */\ntag_63:\n    /* \"#utility.yul\":2106:2130   */\n  tag_112\n    /* \"#utility.yul\":2124:2129   */\n  dup2\n    /* \"#utility.yul\":2106:2130   */\n  tag_62\n  jump\t// in\ntag_112:\n    /* \"#utility.yul\":2099:2104   */\n  dup2\n    /* \"#utility.yul\":2096:2131   */\n  eq\n    /* \"#utility.yul\":2086:2149   */\n  tag_113\n  jumpi\n    /* \"#utility.yul\":2145:2146   */\n  0x00\n    /* \"#utility.yul\":2142:2143   */\n  dup1\n    /* \"#utility.yul\":2135:2147   */\n  revert\n    /* \"#utility.yul\":2086:2149   */\ntag_113:\n    /* \"#utility.yul\":2033:2155   */\n  pop\n  jump\t// out\n    /* \"#utility.yul\":2161:2304   */\ntag_64:\n    /* \"#utility.yul\":2218:2223   */\n  0x00\n    /* \"#utility.yul\":2249:2255   */\n  dup2\n    /* \"#utility.yul\":2243:2256   */\n  mload\n    /* \"#utility.yul\":2234:2256   */\n  swap1\n  pop\n    /* \"#utility.yul\":2265:2298   */\n  tag_115\n    /* \"#utility.yul\":2292:2297   */\n  dup2\n    /* \"#utility.yul\":2265:2298   */\n  tag_63\n  jump\t// in\ntag_115:\n    /* \"#utility.yul\":2161:2304   */\n  swap3\n  swap2\n  pop\n  pop\n  jump\t// out\n    /* \"#utility.yul\":2327:3059   */\ntag_65:\n    /* \"#utility.yul\":2434:2439   */\n  0x00\n    /* \"#utility.yul\":2459:2540   */\n  tag_117\n    /* \"#utility.yul\":2475:2539   */\n  tag_118\n    /* \"#utility.yul\":2532:2538   */\n  dup5\n    /* \"#utility.yul\":2475:2539   */\n  tag_59\n  jump\t// in\ntag_118:\n    /* \"#utility.yul\":2459:2540   */\n  tag_58\n  jump\t// in\ntag_117:\n    /* \"#utility.yul\":2450:2540   */\n  swap1\n  pop\n    /* \"#utility.yul\":2560:2565   */\n  dup1\n    /* \"#utility.yul\":2589:2595   */\n  dup4\n    /* \"#utility.yul\":2582:2587   */\n  dup3\n    /* \"#utility.yul\":2575:2596   */\n  mstore\n    /* \"#utility.yul\":2623:2627   */\n  0x20\n    /* \"#utility.yul\":2616:2621   */\n  dup3\n    /* \"#utility.yul\":2612:2628   */\n  add\n    /* \"#utility.yul\":2605:2628   */\n  swap1\n  pop\n    /* \"#utility.yul\":2676:2680   */\n  0x20\n    /* \"#utility.yul\":2668:2674   */\n  dup5\n    /* \"#utility.yul\":2664:2681   */\n  mul\n    /* \"#utility.yul\":2656:2662   */\n  dup4\n    /* \"#utility.yul\":2652:2682   */\n  add\n    /* \"#utility.yul\":2705:2708   */\n  dup6\n    /* \"#utility.yul\":2697:2703   */\n  dup2\n    /* \"#utility.yul\":2694:2709   */\n  gt\n    /* \"#utility.yul\":2691:2813   */\n  iszero\n  tag_119\n  jumpi\n    /* \"#utility.yul\":2724:2803   */\n  tag_120\n  tag_60\n  jump\t// in\ntag_120:\n    /* \"#utility.yul\":2691:2813   */\ntag_119:\n    /* \"#utility.yul\":2839:2845   */\n  dup4\n    /* \"#utility.yul\":2822:3053   */\ntag_121:\n    /* \"#utility.yul\":2856:2862   */\n  dup2\n    /* \"#utility.yul\":2851:2854   */\n  dup2\n    /* \"#utility.yul\":2848:2863   */\n  lt\n    /* \"#utility.yul\":2822:3053   */\n  iszero\n  tag_123\n  jumpi\n    /* \"#utility.yul\":2931:2934   */\n  dup1\n    /* \"#utility.yul\":2960:3008   */\n  tag_124\n    /* \"#utility.yul\":3004:3007   */\n  dup9\n    /* \"#utility.yul\":2992:3002   */\n  dup3\n    /* \"#utility.yul\":2960:3008   */\n  tag_64\n  jump\t// in\ntag_124:\n    /* \"#utility.yul\":2955:2958   */\n  dup5\n    /* \"#utility.yul\":2948:3009   */\n  mstore\n    /* \"#utility.yul\":3038:3042   */\n  0x20\n    /* \"#utility.yul\":3033:3036   */\n  dup5\n    /* \"#utility.yul\":3029:3043   */\n  add\n    /* \"#utility.yul\":3022:3043   */\n  swap4\n  pop\n    /* \"#utility.yul\":2898:3053   */\n  pop\n    /* \"#utility.yul\":2882:2886   */\n  0x20\n    /* \"#utility.yul\":2877:2880   */\n  dup2\n    /* \"#utility.yul\":2873:2887   */\n  add\n    /* \"#utility.yul\":2866:2887   */\n  swap1\n  pop\n    /* \"#utility.yul\":2822:3053   */\n  jump(tag_121)\ntag_123:\n    /* \"#utility.yul\":2826:2847   */\n  pop\n    /* \"#utility.yul\":2440:3059   */\n  pop\n  pop\n    /* \"#utility.yul\":2327:3059   */\n  swap4\n  swap3\n  pop\n  pop\n  pop\n  jump\t// out\n    /* \"#utility.yul\":3082:3467   */\ntag_66:\n    /* \"#utility.yul\":3164:3169   */\n  0x00\n    /* \"#utility.yul\":3213:3216   */\n  dup3\n    /* \"#utility.yul\":3206:3210   */\n  0x1f\n    /* \"#utility.yul\":3198:3204   */\n  dup4\n    /* \"#utility.yul\":3194:3211   */\n  add\n    /* \"#utility.yul\":3190:3217   */\n  slt\n    /* \"#utility.yul\":3180:3302   */\n  tag_126\n  jumpi\n    /* \"#utility.yul\":3221:3300   */\n  tag_127\n  tag_54\n  jump\t// in\ntag_127:\n    /* \"#utility.yul\":3180:3302   */\ntag_126:\n    /* \"#utility.yul\":3331:3337   */\n  dup2\n    /* \"#utility.yul\":3325:3338   */\n  mload\n    /* \"#utility.yul\":3356:3461   */\n  tag_128\n    /* \"#utility.yul\":3457:3460   */\n  dup5\n    /* \"#utility.yul\":3449:3455   */\n  dup3\n    /* \"#utility.yul\":3442:3446   */\n  0x20\n    /* \"#utility.yul\":3434:3440   */\n  dup7\n    /* \"#utility.yul\":3430:3447   */\n  add\n    /* \"#utility.yul\":3356:3461   */\n  tag_65\n  jump\t// in\ntag_128:\n    /* \"#utility.yul\":3347:3461   */\n  swap2\n  pop\n    /* \"#utility.yul\":3170:3467   */\n  pop\n    /* \"#utility.yul\":3082:3467   */\n  swap3\n  swap2\n  pop\n  pop\n  jump\t// out\n    /* \"#utility.yul\":3473:4027   */\ntag_6:\n    /* \"#utility.yul\":3568:3574   */\n  0x00\n    /* \"#utility.yul\":3617:3619   */\n  0x20\n    /* \"#utility.yul\":3605:3614   */\n  dup3\n    /* \"#utility.yul\":3596:3603   */\n  dup5\n    /* \"#utility.yul\":3592:3615   */\n  sub\n    /* \"#utility.yul\":3588:3620   */\n  slt\n    /* \"#utility.yul\":3585:3704   */\n  iszero\n  tag_130\n  jumpi\n    /* \"#utility.yul\":3623:3702   */\n  tag_131\n  tag_52\n  jump\t// in\ntag_131:\n    /* \"#utility.yul\":3585:3704   */\ntag_130:\n    /* \"#utility.yul\":3764:3765   */\n  0x00\n    /* \"#utility.yul\":3753:3762   */\n  dup3\n    /* \"#utility.yul\":3749:3766   */\n  add\n    /* \"#utility.yul\":3743:3767   */\n  mload\n    /* \"#utility.yul\":3794:3812   */\n  0xffffffffffffffff\n    /* \"#utility.yul\":3786:3792   */\n  dup2\n    /* \"#utility.yul\":3783:3813   */\n  gt\n    /* \"#utility.yul\":3780:3897   */\n  iszero\n  tag_132\n  jumpi\n    /* \"#utility.yul\":3816:3895   */\n  tag_133\n  tag_53\n  jump\t// in\ntag_133:\n    /* \"#utility.yul\":3780:3897   */\ntag_132:\n    /* \"#utility.yul\":3921:4010   */\n  tag_134\n    /* \"#utility.yul\":4002:4009   */\n  dup5\n    /* \"#utility.yul\":3993:3999   */\n  dup3\n    /* \"#utility.yul\":3982:3991   */\n  dup6\n    /* \"#utility.yul\":3978:4000   */\n  add\n    /* \"#utility.yul\":3921:4010   */\n  tag_66\n  jump\t// in\ntag_134:\n    /* \"#utility.yul\":3911:4010   */\n  swap2\n  pop\n    /* \"#utility.yul\":3714:4020   */\n  pop\n    /* \"#utility.yul\":3473:4027   */\n  swap3\n  swap2\n  pop\n  pop\n  jump\t// out\n    /* \"#utility.yul\":4033:4132   */\ntag_67:\n    /* \"#utility.yul\":4085:4091   */\n  0x00\n    /* \"#utility.yul\":4119:4124   */\n  dup2\n    /* \"#utility.yul\":4113:4125   */\n  mload\n    /* \"#utility.yul\":4103:4125   */\n  swap1\n  pop\n    /* \"#utility.yul\":4033:4132   */\n  swap2\n  swap1\n  pop\n  jump\t// out\n    /* \"#utility.yul\":4138:4318   */\ntag_68:\n    /* \"#utility.yul\":4186:4263   */\n  0x4e487b7100000000000000000000000000000000000000000000000000000000\n    /* \"#utility.yul\":4183:4184   */\n  0x00\n    /* \"#utility.yul\":4176:4264   */\n  mstore\n    /* \"#utility.yul\":4283:4287   */\n  0x22\n    /* \"#utility.yul\":4280:4281   */\n  0x04\n    /* \"#utility.yul\":4273:4288   */\n  mstore\n    /* \"#utility.yul\":4307:4311   */\n  0x24\n    /* \"#utility.yul\":4304:4305   */\n  0x00\n    /* \"#utility.yul\":4297:4312   */\n  revert\n    /* \"#utility.yul\":4324:4644   */\ntag_69:\n    /* \"#utility.yul\":4368:4374   */\n  0x00\n    /* \"#utility.yul\":4405:4406   */\n  0x02\n    /* \"#utility.yul\":4399:4403   */\n  dup3\n    /* \"#utility.yul\":4395:4407   */\n  div\n    /* \"#utility.yul\":4385:4407   */\n  swap1\n  pop\n    /* \"#utility.yul\":4452:4453   */\n  0x01\n    /* \"#utility.yul\":4446:4450   */\n  dup3\n    /* \"#utility.yul\":4442:4454   */\n  and\n    /* \"#utility.yul\":4473:4491   */\n  dup1\n    /* \"#utility.yul\":4463:4544   */\n  tag_138\n  jumpi\n    /* \"#utility.yul\":4529:4533   */\n  0x7f\n    /* \"#utility.yul\":4521:4527   */\n  dup3\n    /* \"#utility.yul\":4517:4534   */\n  and\n    /* \"#utility.yul\":4507:4534   */\n  swap2\n  pop\n    /* \"#utility.yul\":4463:4544   */\ntag_138:\n    /* \"#utility.yul\":4591:4593   */\n  0x20\n    /* \"#utility.yul\":4583:4589   */\n  dup3\n    /* \"#utility.yul\":4580:4594   */\n  lt\n    /* \"#utility.yul\":4560:4578   */\n  dup2\n    /* \"#utility.yul\":4557:4595   */\n  sub\n    /* \"#utility.yul\":4554:4638   */\n  tag_139\n  jumpi\n    /* \"#utility.yul\":4610:4628   */\n  tag_140\n  tag_68\n  jump\t// in\ntag_140:\n    /* \"#utility.yul\":4554:4638   */\ntag_139:\n    /* \"#utility.yul\":4375:4644   */\n  pop\n    /* \"#utility.yul\":4324:4644   */\n  swap2\n  swap1\n  pop\n  jump\t// out\n    /* \"#utility.yul\":4650:4791   */\ntag_70:\n    /* \"#utility.yul\":4699:4703   */\n  0x00\n    /* \"#utility.yul\":4722:4725   */\n  dup2\n    /* \"#utility.yul\":4714:4725   */\n  swap1\n  pop\n    /* \"#utility.yul\":4745:4748   */\n  dup2\n    /* \"#utility.yul\":4742:4743   */\n  0x00\n    /* \"#utility.yul\":4735:4749   */\n  mstore\n    /* \"#utility.yul\":4779:4783   */\n  0x20\n    /* \"#utility.yul\":4776:4777   */\n  0x00\n    /* \"#utility.yul\":4766:4784   */\n  keccak256\n    /* \"#utility.yul\":4758:4784   */\n  swap1\n  pop\n    /* \"#utility.yul\":4650:4791   */\n  swap2\n  swap1\n  pop\n  jump\t// out\n    /* \"#utility.yul\":4797:4890   */\ntag_71:\n    /* \"#utility.yul\":4834:4840   */\n  0x00\n    /* \"#utility.yul\":4881:4883   */\n  0x20\n    /* \"#utility.yul\":4876:4878   */\n  0x1f\n    /* \"#utility.yul\":4869:4874   */\n  dup4\n    /* \"#utility.yul\":4865:4879   */\n  add\n    /* \"#utility.yul\":4861:4884   */\n  div\n    /* \"#utility.yul\":4851:4884   */\n  swap1\n  pop\n    /* \"#utility.yul\":4797:4890   */\n  swap2\n  swap1\n  pop\n  jump\t// out\n    /* \"#utility.yul\":4896:5003   */\ntag_72:\n    /* \"#utility.yul\":4940:4948   */\n  0x00\n    /* \"#utility.yul\":4990:4995   */\n  dup3\n    /* \"#utility.yul\":4984:4988   */\n  dup3\n    /* \"#utility.yul\":4980:4996   */\n  shl\n    /* \"#utility.yul\":4959:4996   */\n  swap1\n  pop\n    /* \"#utility.yul\":4896:5003   */\n  swap3\n  swap2\n  pop\n  pop\n  jump\t// out\n    /* \"#utility.yul\":5009:5402   */\ntag_73:\n    /* \"#utility.yul\":5078:5084   */\n  0x00\n    /* \"#utility.yul\":5128:5129   */\n  0x08\n    /* \"#utility.yul\":5116:5126   */\n  dup4\n    /* \"#utility.yul\":5112:5130   */\n  mul\n    /* \"#utility.yul\":5151:5248   */\n  tag_145\n    /* \"#utility.yul\":5181:5247   */\n  0xffffffffffffffffffffffffffffffffffffffffffffffffffffffffffffffff\n    /* \"#utility.yul\":5170:5179   */\n  dup3\n    /* \"#utility.yul\":5151:5248   */\n  tag_72\n  jump\t// in\ntag_145:\n    /* \"#utility.yul\":5269:5308   */\n  tag_146\n    /* \"#utility.yul\":5299:5307   */\n  dup7\n    /* \"#utility.yul\":5288:5297   */\n  dup4\n    /* \"#utility.yul\":5269:5308   */\n  tag_72\n  jump\t// in\ntag_146:\n    /* \"#utility.yul\":5257:5308   */\n  swap6\n  pop\n    /* \"#utility.yul\":5341:5345   */\n  dup1\n    /* \"#utility.yul\":5337:5346   */\n  not\n    /* \"#utility.yul\":5330:5335   */\n  dup5\n    /* \"#utility.yul\":5326:5347   */\n  and\n    /* \"#utility.yul\":5317:5347   */\n  swap4\n  pop\n    /* \"#utility.yul\":5390:5394   */\n  dup1\n    /* \"#utility.yul\":5380:5388   */\n  dup7\n    /* \"#utility.yul\":5376:5395   */\n  and\n    /* \"#utility.yul\":5369:5374   */\n  dup5\n    /* \"#utility.yul\":5366:5396   */\n  or\n    /* \"#utility.yul\":5356:5396   */\n  swap3\n  pop\n    /* \"#utility.yul\":5085:5402   */\n  pop\n  pop\n    /* \"#utility.yul\":5009:5402   */\n  swap4\n  swap3\n  pop\n  pop\n  pop\n  jump\t// out\n    /* \"#utility.yul\":5408:5485   */\ntag_74:\n    /* \"#utility.yul\":5445:5452   */\n  0x00\n    /* \"#utility.yul\":5474:5479   */\n  dup2\n    /* \"#utility.yul\":5463:5479   */\n  swap1\n  pop\n    /* \"#utility.yul\":5408:5485   */\n  swap2\n  swap1\n  pop\n  jump\t// out\n    /* \"#utility.yul\":5491:5551   */\ntag_75:\n    /* \"#utility.yul\":5519:5522   */\n  0x00\n    /* \"#utility.yul\":5540:5545   */\n  dup2\n    /* \"#utility.yul\":5533:5545   */\n  swap1\n  pop\n    /* \"#utility.yul\":5491:5551   */\n  swap2\n  swap1\n  pop\n  jump\t// out\n    /* \"#utility.yul\":5557:5699   */\ntag_76:\n    /* \"#utility.yul\":5607:5616   */\n  0x00\n    /* \"#utility.yul\":5640:5693   */\n  tag_150\n    /* \"#utility.yul\":5658:5692   */\n  tag_151\n    /* \"#utility.yul\":5667:5691   */\n  tag_152\n    /* \"#utility.yul\":5685:5690   */\n  dup5\n    /* \"#utility.yul\":5667:5691   */\n  tag_74\n  jump\t// in\ntag_152:\n    /* \"#utility.yul\":5658:5692   */\n  tag_75\n  jump\t// in\ntag_151:\n    /* \"#utility.yul\":5640:5693   */\n  tag_74\n  jump\t// in\ntag_150:\n    /* \"#utility.yul\":5627:5693   */\n  swap1\n  pop\n    /* \"#utility.yul\":5557:5699   */\n  swap2\n  swap1\n  pop\n  jump\t// out\n    /* \"#utility.yul\":5705:5780   */\ntag_77:\n    /* \"#utility.yul\":5748:5751   */\n  0x00\n    /* \"#utility.yul\":5769:5774   */\n  dup2\n    /* \"#utility.yul\":5762:5774   */\n  swap1\n  pop\n    /* \"#utility.yul\":5705:5780   */\n  swap2\n  swap1\n  pop\n  jump\t// out\n    /* \"#utility.yul\":5786:6055   */\ntag_78:\n    /* \"#utility.yul\":5896:5935   */\n  tag_155\n    /* \"#utility.yul\":5927:5934   */\n  dup4\n    /* \"#utility.yul\":5896:5935   */\n  tag_76\n  jump\t// in\ntag_155:\n    /* \"#utility.yul\":5957:6048   */\n  tag_156\n    /* \"#utility.yul\":6006:6047   */\n  tag_157\n    /* \"#utility.yul\":6030:6046   */\n  dup3\n    /* \"#utility.yul\":6006:6047   */\n  tag_77\n  jump\t// in\ntag_157:\n    /* \"#utility.yul\":5998:6004   */\n  dup5\n    /* \"#utility.yul\":5991:5995   */\n  dup5\n    /* \"#utility.yul\":5985:5996   */\n  sload\n    /* \"#utility.yul\":5957:6048   */\n  tag_73\n  jump\t// in\ntag_156:\n    /* \"#utility.yul\":5951:5955   */\n  dup3\n    /* \"#utility.yul\":5944:6049   */\n  sstore\n    /* \"#utility.yul\":5862:6055   */\n  pop\n    /* \"#utility.yul\":5786:6055   */\n  pop\n  pop\n  pop\n  jump\t// out\n    /* \"#utility.yul\":6061:6134   */\ntag_79:\n    /* \"#utility.yul\":6106:6109   */\n  0x00\n    /* \"#utility.yul\":6061:6134   */\n  swap1\n  jump\t// out\n    /* \"#utility.yul\":6140:6329   */\ntag_80:\n    /* \"#utility.yul\":6217:6249   */\n  tag_160\n  tag_79\n  jump\t// in\ntag_160:\n    /* \"#utility.yul\":6258:6323   */\n  tag_161\n    /* \"#utility.yul\":6316:6322   */\n  dup2\n    /* \"#utility.yul\":6308:6314   */\n  dup5\n    /* \"#utility.yul\":6302:6306   */\n  dup5\n    /* \"#utility.yul\":6258:6323   */\n  tag_78\n  jump\t// in\ntag_161:\n    /* \"#utility.yul\":6193:6329   */\n  pop\n    /* \"#utility.yul\":6140:6329   */\n  pop\n  pop\n  jump\t// out\n    /* \"#utility.yul\":6335:6521   */\ntag_81:\n    /* \"#utility.yul\":6395:6515   */\ntag_163:\n    /* \"#utility.yul\":6412:6415   */\n  dup2\n    /* \"#utility.yul\":6405:6410   */\n  dup2\n    /* \"#utility.yul\":6402:6416   */\n  lt\n    /* \"#utility.yul\":6395:6515   */\n  iszero\n  tag_165\n  jumpi\n    /* \"#utility.yul\":6466:6505   */\n  tag_166\n    /* \"#utility.yul\":6503:6504   */\n  0x00\n    /* \"#utility.yul\":6496:6501   */\n  dup3\n    /* \"#utility.yul\":6466:6505   */\n  tag_80\n  jump\t// in\ntag_166:\n    /* \"#utility.yul\":6439:6440   */\n  0x01\n    /* \"#utility.yul\":6432:6437   */\n  dup2\n    /* \"#utility.yul\":6428:6441   */\n  add\n    /* \"#utility.yul\":6419:6441   */\n  swap1\n  pop\n    /* \"#utility.yul\":6395:6515   */\n  jump(tag_163)\ntag_165:\n    /* \"#utility.yul\":6335:6521   */\n  pop\n  pop\n  jump\t// out\n    /* \"#utility.yul\":6527:7070   */\ntag_82:\n    /* \"#utility.yul\":6628:6630   */\n  0x1f\n    /* \"#utility.yul\":6623:6626   */\n  dup3\n    /* \"#utility.yul\":6620:6631   */\n  gt\n    /* \"#utility.yul\":6617:7063   */\n  iszero\n  tag_168\n  jumpi\n    /* \"#utility.yul\":6662:6700   */\n  tag_169\n    /* \"#utility.yul\":6694:6699   */\n  dup2\n    /* \"#utility.yul\":6662:6700   */\n  tag_70\n  jump\t// in\ntag_169:\n    /* \"#utility.yul\":6746:6775   */\n  tag_170\n    /* \"#utility.yul\":6764:6774   */\n  dup5\n    /* \"#utility.yul\":6746:6775   */\n  tag_71\n  jump\t// in\ntag_170:\n    /* \"#utility.yul\":6736:6744   */\n  dup2\n    /* \"#utility.yul\":6732:6776   */\n  add\n    /* \"#utility.yul\":6929:6931   */\n  0x20\n    /* \"#utility.yul\":6917:6927   */\n  dup6\n    /* \"#utility.yul\":6914:6932   */\n  lt\n    /* \"#utility.yul\":6911:6960   */\n  iszero\n  tag_171\n  jumpi\n    /* \"#utility.yul\":6950:6958   */\n  dup2\n    /* \"#utility.yul\":6935:6958   */\n  swap1\n  pop\n    /* \"#utility.yul\":6911:6960   */\ntag_171:\n    /* \"#utility.yul\":6973:7053   */\n  tag_172\n    /* \"#utility.yul\":7029:7051   */\n  tag_173\n    /* \"#utility.yul\":7047:7050   */\n  dup6\n    /* \"#utility.yul\":7029:7051   */\n  tag_71\n  jump\t// in\ntag_173:\n    /* \"#utility.yul\":7019:7027   */\n  dup4\n    /* \"#utility.yul\":7015:7052   */\n  add\n    /* \"#utility.yul\":7002:7013   */\n  dup3\n    /* \"#utility.yul\":6973:7053   */\n  tag_81\n  jump\t// in\ntag_172:\n    /* \"#utility.yul\":6632:7063   */\n  pop\n  pop\n    /* \"#utility.yul\":6617:7063   */\ntag_168:\n    /* \"#utility.yul\":6527:7070   */\n  pop\n  pop\n  pop\n  jump\t// out\n    /* \"#utility.yul\":7076:7193   */\ntag_83:\n    /* \"#utility.yul\":7130:7138   */\n  0x00\n    /* \"#utility.yul\":7180:7185   */\n  dup3\n    /* \"#utility.yul\":7174:7178   */\n  dup3\n    /* \"#utility.yul\":7170:7186   */\n  shr\n    /* \"#utility.yul\":7149:7186   */\n  swap1\n  pop\n    /* \"#utility.yul\":7076:7193   */\n  swap3\n  swap2\n  pop\n  pop\n  jump\t// out\n    /* \"#utility.yul\":7199:7368   */\ntag_84:\n    /* \"#utility.yul\":7243:7249   */\n  0x00\n    /* \"#utility.yul\":7276:7327   */\n  tag_176\n    /* \"#utility.yul\":7324:7325   */\n  0x00\n    /* \"#utility.yul\":7320:7326   */\n  not\n    /* \"#utility.yul\":7312:7317   */\n  dup5\n    /* \"#utility.yul\":7309:7310   */\n  0x08\n    /* \"#utility.yul\":7305:7318   */\n  mul\n    /* \"#utility.yul\":7276:7327   */\n  tag_83\n  jump\t// in\ntag_176:\n    /* \"#utility.yul\":7272:7328   */\n  not\n    /* \"#utility.yul\":7357:7361   */\n  dup1\n    /* \"#utility.yul\":7351:7355   */\n  dup4\n    /* \"#utility.yul\":7347:7362   */\n  and\n    /* \"#utility.yul\":7337:7362   */\n  swap2\n  pop\n    /* \"#utility.yul\":7250:7368   */\n  pop\n    /* \"#utility.yul\":7199:7368   */\n  swap3\n  swap2\n  pop\n  pop\n  jump\t// out\n    /* \"#utility.yul\":7373:7668   */\ntag_85:\n    /* \"#utility.yul\":7449:7453   */\n  0x00\n    /* \"#utility.yul\":7595:7624   */\n  tag_178\n    /* \"#utility.yul\":7620:7623   */\n  dup4\n    /* \"#utility.yul\":7614:7618   */\n  dup4\n    /* \"#utility.yul\":7595:7624   */\n  tag_84\n  jump\t// in\ntag_178:\n    /* \"#utility.yul\":7587:7624   */\n  swap2\n  pop\n    /* \"#utility.yul\":7657:7660   */\n  dup3\n    /* \"#utility.yul\":7654:7655   */\n  0x02\n    /* \"#utility.yul\":7650:7661   */\n  mul\n    /* \"#utility.yul\":7644:7648   */\n  dup3\n    /* \"#utility.yul\":7641:7662   */\n  or\n    /* \"#utility.yul\":7633:7662   */\n  swap1\n  pop\n    /* \"#utility.yul\":7373:7668   */\n  swap3\n  swap2\n  pop\n  pop\n  jump\t// out\n    /* \"#utility.yul\":7673:9068   */\ntag_13:\n    /* \"#utility.yul\":7790:7827   */\n  tag_180\n    /* \"#utility.yul\":7823:7826   */\n  dup3\n    /* \"#utility.yul\":7790:7827   */\n  tag_67\n  jump\t// in\ntag_180:\n    /* \"#utility.yul\":7892:7910   */\n  0xffffffffffffffff\n    /* \"#utility.yul\":7884:7890   */\n  dup2\n    /* \"#utility.yul\":7881:7911   */\n  gt\n    /* \"#utility.yul\":7878:7934   */\n  iszero\n  tag_181\n  jumpi\n    /* \"#utility.yul\":7914:7932   */\n  tag_182\n  tag_56\n  jump\t// in\ntag_182:\n    /* \"#utility.yul\":7878:7934   */\ntag_181:\n    /* \"#utility.yul\":7958:7996   */\n  tag_183\n    /* \"#utility.yul\":7990:7994   */\n  dup3\n    /* \"#utility.yul\":7984:7995   */\n  sload\n    /* \"#utility.yul\":7958:7996   */\n  tag_69\n  jump\t// in\ntag_183:\n    /* \"#utility.yul\":8043:8110   */\n  tag_184\n    /* \"#utility.yul\":8103:8109   */\n  dup3\n    /* \"#utility.yul\":8095:8101   */\n  dup3\n    /* \"#utility.yul\":8089:8093   */\n  dup6\n    /* \"#utility.yul\":8043:8110   */\n  tag_82\n  jump\t// in\ntag_184:\n    /* \"#utility.yul\":8137:8138   */\n  0x00\n    /* \"#utility.yul\":8161:8165   */\n  0x20\n    /* \"#utility.yul\":8148:8165   */\n  swap1\n  pop\n    /* \"#utility.yul\":8193:8195   */\n  0x1f\n    /* \"#utility.yul\":8185:8191   */\n  dup4\n    /* \"#utility.yul\":8182:8196   */\n  gt\n    /* \"#utility.yul\":8210:8211   */\n  0x01\n    /* \"#utility.yul\":8205:8823   */\n  dup2\n  eq\n  tag_186\n  jumpi\n    /* \"#utility.yul\":8867:8868   */\n  0x00\n    /* \"#utility.yul\":8884:8890   */\n  dup5\n    /* \"#utility.yul\":8881:8958   */\n  iszero\n  tag_187\n  jumpi\n    /* \"#utility.yul\":8933:8942   */\n  dup3\n    /* \"#utility.yul\":8928:8931   */\n  dup8\n    /* \"#utility.yul\":8924:8943   */\n  add\n    /* \"#utility.yul\":8918:8944   */\n  mload\n    /* \"#utility.yul\":8909:8944   */\n  swap1\n  pop\n    /* \"#utility.yul\":8881:8958   */\ntag_187:\n    /* \"#utility.yul\":8984:9051   */\n  tag_188\n    /* \"#utility.yul\":9044:9050   */\n  dup6\n    /* \"#utility.yul\":9037:9042   */\n  dup3\n    /* \"#utility.yul\":8984:9051   */\n  tag_85\n  jump\t// in\ntag_188:\n    /* \"#utility.yul\":8978:8982   */\n  dup7\n    /* \"#utility.yul\":8971:9052   */\n  sstore\n    /* \"#utility.yul\":8840:9062   */\n  pop\n    /* \"#utility.yul\":8175:9062   */\n  jump(tag_185)\n    /* \"#utility.yul\":8205:8823   */\ntag_186:\n    /* \"#utility.yul\":8257:8261   */\n  0x1f\n    /* \"#utility.yul\":8253:8262   */\n  not\n    /* \"#utility.yul\":8245:8251   */\n  dup5\n    /* \"#utility.yul\":8241:8263   */\n  and\n    /* \"#utility.yul\":8291:8328   */\n  tag_189\n    /* \"#utility.yul\":8323:8327   */\n  dup7\n    /* \"#utility.yul\":8291:8328   */\n  tag_70\n  jump\t// in\ntag_189:\n    /* \"#utility.yul\":8350:8351   */\n  0x00\n    /* \"#utility.yul\":8364:8572   */\ntag_190:\n    /* \"#utility.yul\":8378:8385   */\n  dup3\n    /* \"#utility.yul\":8375:8376   */\n  dup2\n    /* \"#utility.yul\":8372:8386   */\n  lt\n    /* \"#utility.yul\":8364:8572   */\n  iszero\n  tag_192\n  jumpi\n    /* \"#utility.yul\":8457:8466   */\n  dup5\n    /* \"#utility.yul\":8452:8455   */\n  dup10\n    /* \"#utility.yul\":8448:8467   */\n  add\n    /* \"#utility.yul\":8442:8468   */\n  mload\n    /* \"#utility.yul\":8434:8440   */\n  dup3\n    /* \"#utility.yul\":8427:8469   */\n  sstore\n    /* \"#utility.yul\":8508:8509   */\n  0x01\n    /* \"#utility.yul\":8500:8506   */\n  dup3\n    /* \"#utility.yul\":8496:8510   */\n  add\n    /* \"#utility.yul\":8486:8510   */\n  swap2\n  pop\n    /* \"#utility.yul\":8555:8557   */\n  0x20\n    /* \"#utility.yul\":8544:8553   */\n  dup6\n    /* \"#utility.yul\":8540:8558   */\n  add\n    /* \"#utility.yul\":8527:8558   */\n  swap5\n  pop\n    /* \"#utility.yul\":8401:8405   */\n  0x20\n    /* \"#utility.yul\":8398:8399   */\n  dup2\n    /* \"#utility.yul\":8394:8406   */\n  add\n    /* \"#utility.yul\":8389:8406   */\n  swap1\n  pop\n    /* \"#utility.yul\":8364:8572   */\n  jump(tag_190)\ntag_192:\n    /* \"#utility.yul\":8600:8606   */\n  dup7\n    /* \"#utility.yul\":8591:8598   */\n  dup4\n    /* \"#utility.yul\":8588:8607   */\n  lt\n    /* \"#utility.yul\":8585:8764   */\n  iszero\n  tag_193\n  jumpi\n    /* \"#utility.yul\":8658:8667   */\n  dup5\n    /* \"#utility.yul\":8653:8656   */\n  dup10\n    /* \"#utility.yul\":8649:8668   */\n  add\n    /* \"#utility.yul\":8643:8669   */\n  mload\n    /* \"#utility.yul\":8701:8749   */\n  tag_194\n    /* \"#utility.yul\":8743:8747   */\n  0x1f\n    /* \"#utility.yul\":8735:8741   */\n  dup10\n    /* \"#utility.yul\":8731:8748   */\n  and\n    /* \"#utility.yul\":8720:8729   */\n  dup3\n    /* \"#utility.yul\":8701:8749   */\n  tag_84\n  jump\t// in\ntag_194:\n    /* \"#utility.yul\":8693:8699   */\n  dup4\n    /* \"#utility.yul\":8686:8750   */\n  sstore\n    /* \"#utility.yul\":8608:8764   */\n  pop\n    /* \"#utility.yul\":8585:8764   */\ntag_193:\n    /* \"#utility.yul\":8810:8811   */\n  0x01\n    /* \"#utility.yul\":8806:8807   */\n  0x02\n    /* \"#utility.yul\":8798:8804   */\n  dup9\n    /* \"#utility.yul\":8794:8808   */\n  mul\n    /* \"#utility.yul\":8790:8812   */\n  add\n    /* \"#utility.yul\":8784:8788   */\n  dup9\n    /* \"#utility.yul\":8777:8813   */\n  sstore\n    /* \"#utility.yul\":8212:8823   */\n  pop\n  pop\n  pop\n    /* \"#utility.yul\":8175:9062   */\ntag_185:\n  pop\n    /* \"#utility.yul\":7765:9068   */\n  pop\n  pop\n  pop\n    /* \"#utility.yul\":7673:9068   */\n  pop\n  pop\n  jump\t// out\n    /* \"#utility.yul\":9074:9192   */\ntag_86:\n    /* \"#utility.yul\":9161:9185   */\n  tag_196\n    /* \"#utility.yul\":9179:9184   */\n  dup2\n    /* \"#utility.yul\":9161:9185   */\n  tag_62\n  jump\t// in\ntag_196:\n    /* \"#utility.yul\":9156:9159   */\n  dup3\n    /* \"#utility.yul\":9149:9186   */\n  mstore\n    /* \"#utility.yul\":9074:9192   */\n  pop\n  pop\n  jump\t// out\n    /* \"#utility.yul\":9198:9420   */\ntag_18:\n    /* \"#utility.yul\":9291:9295   */\n  0x00\n    /* \"#utility.yul\":9329:9331   */\n  0x20\n    /* \"#utility.yul\":9318:9327   */\n  dup3\n    /* \"#utility.yul\":9314:9332   */\n  add\n    /* \"#utility.yul\":9306:9332   */\n  swap1\n  pop\n    /* \"#utility.yul\":9342:9413   */\n  tag_198\n    /* \"#utility.yul\":9410:9411   */\n  0x00\n    /* \"#utility.yul\":9399:9408   */\n  dup4\n    /* \"#utility.yul\":9395:9412   */\n  add\n    /* \"#utility.yul\":9386:9392   */\n  dup5\n    /* \"#utility.yul\":9342:9413   */\n  tag_86\n  jump\t// in\ntag_198:\n    /* \"#utility.yul\":9198:9420   */\n  swap3\n  swap2\n  pop\n  pop\n  jump\t// out\n    /* \"#utility.yul\":9426:9606   */\ntag_30:\n    /* \"#utility.yul\":9474:9551   */\n  0x4e487b7100000000000000000000000000000000000000000000000000000000\n    /* \"#utility.yul\":9471:9472   */\n  0x00\n    /* \"#utility.yul\":9464:9552   */\n  mstore\n    /* \"#utility.yul\":9571:9575   */\n  0x32\n    /* \"#utility.yul\":9568:9569   */\n  0x04\n    /* \"#utility.yul\":9561:9576   */\n  mstore\n    /* \"#utility.yul\":9595:9599   */\n  0x24\n    /* \"#utility.yul\":9592:9593   */\n  0x00\n    /* \"#utility.yul\":9585:9600   */\n  revert\n    /* \"#utility.yul\":9612:9792   */\ntag_87:\n    /* \"#utility.yul\":9660:9737   */\n  0x4e487b7100000000000000000000000000000000000000000000000000000000\n    /* \"#utility.yul\":9657:9658   */\n  0x00\n    /* \"#utility.yul\":9650:9738   */\n  mstore\n    /* \"#utility.yul\":9757:9761   */\n  0x11\n    /* \"#utility.yul\":9754:9755   */\n  0x04\n    /* \"#utility.yul\":9747:9762   */\n  mstore\n    /* \"#utility.yul\":9781:9785   */\n  0x24\n    /* \"#utility.yul\":9778:9779   */\n  0x00\n    /* \"#utility.yul\":9771:9786   */\n  revert\n    /* \"#utility.yul\":9798:9989   */\ntag_42:\n    /* \"#utility.yul\":9838:9841   */\n  0x00\n    /* \"#utility.yul\":9857:9877   */\n  tag_202\n    /* \"#utility.yul\":9875:9876   */\n  dup3\n    /* \"#utility.yul\":9857:9877   */\n  tag_74\n  jump\t// in\ntag_202:\n    /* \"#utility.yul\":9852:9877   */\n  swap2\n  pop\n    /* \"#utility.yul\":9891:9911   */\n  tag_203\n    /* \"#utility.yul\":9909:9910   */\n  dup4\n    /* \"#utility.yul\":9891:9911   */\n  tag_74\n  jump\t// in\ntag_203:\n    /* \"#utility.yul\":9886:9911   */\n  swap3\n  pop\n    /* \"#utility.yul\":9934:9935   */\n  dup3\n    /* \"#utility.yul\":9931:9932   */\n  dup3\n    /* \"#utility.yul\":9927:9936   */\n  add\n    /* \"#utility.yul\":9920:9936   */\n  swap1\n  pop\n    /* \"#utility.yul\":9955:9958   */\n  dup1\n    /* \"#utility.yul\":9952:9953   */\n  dup3\n    /* \"#utility.yul\":9949:9959   */\n  gt\n    /* \"#utility.yul\":9946:9982   */\n  iszero\n  tag_204\n  jumpi\n    /* \"#utility.yul\":9962:9980   */\n  tag_205\n  tag_87\n  jump\t// in\ntag_205:\n    /* \"#utility.yul\":9946:9982   */\ntag_204:\n    /* \"#utility.yul\":9798:9989   */\n  swap3\n  swap2\n  pop\n  pop\n  jump\t// out\n    /* \"#utility.yul\":9995:10113   */\ntag_88:\n    /* \"#utility.yul\":10082:10106   */\n  tag_207\n    /* \"#utility.yul\":10100:10105   */\n  dup2\n    /* \"#utility.yul\":10082:10106   */\n  tag_74\n  jump\t// in\ntag_207:\n    /* \"#utility.yul\":10077:10080   */\n  dup3\n    /* \"#utility.yul\":10070:10107   */\n  mstore\n    /* \"#utility.yul\":9995:10113   */\n  pop\n  pop\n  jump\t// out\n    /* \"#utility.yul\":10119:10561   */\ntag_46:\n    /* \"#utility.yul\":10268:10272   */\n  0x00\n    /* \"#utility.yul\":10306:10308   */\n  0x60\n    /* \"#utility.yul\":10295:10304   */\n  dup3\n    /* \"#utility.yul\":10291:10309   */\n  add\n    /* \"#utility.yul\":10283:10309   */\n  swap1\n  pop\n    /* \"#utility.yul\":10319:10390   */\n  tag_209\n    /* \"#utility.yul\":10387:10388   */\n  0x00\n    /* \"#utility.yul\":10376:10385   */\n  dup4\n    /* \"#utility.yul\":10372:10389   */\n  add\n    /* \"#utility.yul\":10363:10369   */\n  dup7\n    /* \"#utility.yul\":10319:10390   */\n  tag_86\n  jump\t// in\ntag_209:\n    /* \"#utility.yul\":10400:10472   */\n  tag_210\n    /* \"#utility.yul\":10468:10470   */\n  0x20\n    /* \"#utility.yul\":10457:10466   */\n  dup4\n    /* \"#utility.yul\":10453:10471   */\n  add\n    /* \"#utility.yul\":10444:10450   */\n  dup6\n    /* \"#utility.yul\":10400:10472   */\n  tag_88\n  jump\t// in\ntag_210:\n    /* \"#utility.yul\":10482:10554   */\n  tag_211\n    /* \"#utility.yul\":10550:10552   */\n  0x40\n    /* \"#utility.yul\":10539:10548   */\n  dup4\n    /* \"#utility.yul\":10535:10553   */\n  add\n    /* \"#utility.yul\":10526:10532   */\n  dup5\n    /* \"#utility.yul\":10482:10554   */\n  tag_88\n  jump\t// in\ntag_211:\n    /* \"#utility.yul\":10119:10561   */\n  swap5\n  swap4\n  pop\n  pop\n  pop\n  pop\n  jump\t// out\n    /* \"#utility.yul\":10567:10789   */\ntag_50:\n    /* \"#utility.yul\":10660:10664   */\n  0x00\n    /* \"#utility.yul\":10698:10700   */\n  0x20\n    /* \"#utility.yul\":10687:10696   */\n  dup3\n    /* \"#utility.yul\":10683:10701   */\n  add\n    /* \"#utility.yul\":10675:10701   */\n  swap1\n  pop\n    /* \"#utility.yul\":10711:10782   */\n  tag_213\n    /* \"#utility.yul\":10779:10780   */\n  0x00\n    /* \"#utility.yul\":10768:10777   */\n  dup4\n    /* \"#utility.yul\":10764:10781   */\n  add\n    /* \"#utility.yul\":10755:10761   */\n  dup5\n    /* \"#utility.yul\":10711:10782   */\n  tag_88\n  jump\t// in\ntag_213:\n    /* \"#utility.yul\":10567:10789   */\n  swap3\n  swap2\n  pop\n  pop\n  jump\t// out\n    /* \"contracts/bettoken.sol\":367:8658  contract Bettoken is ERC20, Ownable, ReentrancyGuard {... */\ntag_32:\n  dataSize(sub_0)\n  dup1\n  dataOffset(sub_0)\n  0x00\n  codecopy\n  0x00\n  return\nstop\n\nsub_0: assembly {\n        /* \"contracts/bettoken.sol\":367:8658  contract Bettoken is ERC20, Ownable, ReentrancyGuard {... */\n      mstore(0x40, 0x80)\n      jumpi(tag_1, lt(calldatasize, 0x04))\n      shr(0xe0, calldataload(0x00))\n      dup1\n      0x715018a6\n      gt\n      tag_41\n      jumpi\n      dup1\n      0xa9059cbb\n      gt\n      tag_42\n      jumpi\n      dup1\n      0xc040e6b8\n      gt\n      tag_43\n      jumpi\n      dup1\n      0xc040e6b8\n      eq\n      tag_36\n      jumpi\n      dup1\n      0xc552e04b\n      eq\n      tag_37\n      jumpi\n      dup1\n      0xdd62ed3e\n      eq\n      tag_38\n      jumpi\n      dup1\n      0xe6bd92b9\n      eq\n      tag_39\n      jumpi\n      dup1\n      0xf2fde38b\n      eq\n      tag_40\n      jumpi\n      jump(tag_2)\n    tag_43:\n      dup1\n      0xa9059cbb\n      eq\n      tag_31\n      jumpi\n      dup1\n      0xb0e68630\n      eq\n      tag_32\n      jumpi\n      dup1\n      0xb68ed11f\n      eq\n      tag_33\n      jumpi\n      dup1\n      0xba20cf4c\n      eq\n      tag_34\n      jumpi\n      dup1\n      0xbda95633\n      eq\n      tag_35\n      jumpi\n      jump(tag_2)\n    tag_42:\n      dup1\n      0x8f7713ff\n      gt\n      tag_44\n      jumpi\n      dup1\n      0x8f7713ff\n      eq\n      tag_26\n      jumpi\n      dup1\n      0x902d55a5\n      eq\n      tag_27\n      jumpi\n      dup1\n      0x920168b3\n      eq\n      tag_28\n      jumpi\n      dup1\n      0x95ccea67\n      eq\n      tag_29\n      jumpi\n      dup1\n      0x95d89b41\n      eq\n      tag_30\n      jumpi\n      jump(tag_2)\n    tag_44:\n      dup1\n      0x715018a6\n      eq\n      tag_22\n      jumpi\n      dup1\n      0x7547c7a3\n      eq\n      tag_23\n      jumpi\n      dup1\n      0x8da5cb5b\n      eq\n      tag_24\n      jumpi\n      dup1\n      0x8e15f473\n      eq\n      tag_25\n      jumpi\n      jump(tag_2)\n    tag_41:\n      dup1\n      0x2b1cbc38\n      gt\n      tag_45\n      jumpi\n      dup1\n      0x40f02ab6\n      gt\n      tag_46\n      jumpi\n      dup1\n      0x40f02ab6\n      eq\n      tag_17\n      jumpi\n      dup1\n      0x54dd1da4\n      eq\n      tag_18\n      jumpi\n      dup1\n      0x55dd574c\n      eq\n      tag_19\n      jumpi\n      dup1\n      0x5fb3b944\n      eq\n      tag_20\n      jumpi\n      dup1\n      0x70a08231\n      eq\n      tag_21\n      jumpi\n      jump(tag_2)\n    tag_46:\n      dup1\n      0x2b1cbc38\n      eq\n      tag_12\n      jumpi\n      dup1\n      0x313ce567\n      eq\n      tag_13\n      jumpi\n      dup1\n      0x32c85ac0\n      eq\n      tag_14\n      jumpi\n      dup1\n      0x338dbf59\n      eq\n      tag_15\n      jumpi\n      dup1\n      0x3610724e\n      eq\n      tag_16\n      jumpi\n      jump(tag_2)\n    tag_45:\n      dup1\n      0x1514617e\n      gt\n      tag_47\n      jumpi\n      dup1\n      0x1514617e\n      eq\n      tag_7\n      jumpi\n      dup1\n      0x18160ddd\n      eq\n      tag_8\n      jumpi\n      dup1\n      0x192399d1\n      eq\n      tag_9\n      jumpi\n      dup1\n      0x23b872dd\n      eq\n      tag_10\n      jumpi\n      dup1\n      0x24600fc3\n      eq\n      tag_11\n      jumpi\n      jump(tag_2)\n    tag_47:\n      dup1\n      0x06fdde03\n      eq\n      tag_3\n      jumpi\n      dup1\n      0x095ea7b3\n      eq\n      tag_4\n      jumpi\n      dup1\n      0x0fe83bb8\n      eq\n      tag_5\n      jumpi\n      dup1\n      0x10c7f0b9\n      eq\n      tag_6\n      jumpi\n      jump(tag_2)\n    tag_1:\n      jumpi(tag_2, calldatasize)\n        /* \"contracts/bettoken.sol\":8606:8649  revert(\"Direct ETH transfers not allowed.\") */\n      mload(0x40)\n      0x08c379a000000000000000000000000000000000000000000000000000000000\n      dup2\n      mstore\n      0x04\n      add\n      tag_50\n      swap1\n      tag_51\n      jump\t// in\n    tag_50:\n      mload(0x40)\n      dup1\n      swap2\n      sub\n      swap1\n      revert\n        /* \"contracts/bettoken.sol\":367:8658  contract Bettoken is ERC20, Ownable, ReentrancyGuard {... */\n    tag_2:\n        /* \"contracts/bettoken.sol\":8513:8556  revert(\"Direct ETH transfers not allowed.\") */\n      mload(0x40)\n      0x08c379a000000000000000000000000000000000000000000000000000000000\n      dup2\n      mstore\n      0x04\n      add\n      tag_54\n      swap1\n      tag_51\n      jump\t// in\n    tag_54:\n      mload(0x40)\n      dup1\n      swap2\n      sub\n      swap1\n      revert\n        /* \"@openzeppelin/contracts/token/ERC20/ERC20.sol\":2074:2163  function name() public view virtual returns (string memory) {... */\n    tag_3:\n      callvalue\n      dup1\n      iszero\n      tag_55\n      jumpi\n      0x00\n      dup1\n      revert\n    tag_55:\n      pop\n      tag_56\n      tag_57\n      jump\t// in\n    tag_56:\n      mload(0x40)\n      tag_58\n      swap2\n      swap1\n      tag_59\n      jump\t// in\n    tag_58:\n      mload(0x40)\n      dup1\n      swap2\n      sub\n      swap1\n      return\n        /* \"@openzeppelin/contracts/token/ERC20/ERC20.sol\":4293:4479  function approve(address spender, uint256 value) public virtual returns (bool) {... */\n    tag_4:\n      callvalue\n      dup1\n      iszero\n      tag_60\n      jumpi\n      0x00\n      dup1\n      revert\n    tag_60:\n      pop\n      tag_61\n      0x04\n      dup1\n      calldatasize\n      sub\n      dup2\n      add\n      swap1\n      tag_62\n      swap2\n      swap1\n      tag_63\n      jump\t// in\n    tag_62:\n      tag_64\n      jump\t// in\n    tag_61:\n      mload(0x40)\n      tag_65\n      swap2\n      swap1\n      tag_66\n      jump\t// in\n    tag_65:\n      mload(0x40)\n      dup1\n      swap2\n      sub\n      swap1\n      return\n        /* \"contracts/bettoken.sol\":1082:1135  uint256 public preSaleTokens = 161_164_236 * 10 ** 18 */\n    tag_5:\n      callvalue\n      dup1\n      iszero\n      tag_67\n      jumpi\n      0x00\n      dup1\n      revert\n    tag_67:\n      pop\n      tag_68\n      tag_69\n      jump\t// in\n    tag_68:\n      mload(0x40)\n      tag_70\n      swap2\n      swap1\n      tag_71\n      jump\t// in\n    tag_70:\n      mload(0x40)\n      dup1\n      swap2\n      sub\n      swap1\n      return\n        /* \"contracts/bettoken.sol\":1720:1761  AggregatorV3Interface[] public priceFeeds */\n    tag_6:\n      callvalue\n      dup1\n      iszero\n      tag_72\n      jumpi\n      0x00\n      dup1\n      revert\n    tag_72:\n      pop\n      tag_73\n      0x04\n      dup1\n      calldatasize\n      sub\n      dup2\n      add\n      swap1\n      tag_74\n      swap2\n      swap1\n      tag_75\n      jump\t// in\n    tag_74:\n      tag_76\n      jump\t// in\n    tag_73:\n      mload(0x40)\n      tag_77\n      swap2\n      swap1\n      tag_78\n      jump\t// in\n    tag_77:\n      mload(0x40)\n      dup1\n      swap2\n      sub\n      swap1\n      return\n        /* \"contracts/bettoken.sol\":1609:1650  uint256 public vestingDuration = 180 days */\n    tag_7:\n      callvalue\n      dup1\n      iszero\n      tag_79\n      jumpi\n      0x00\n      dup1\n      revert\n    tag_79:\n      pop\n      tag_80\n      tag_81\n      jump\t// in\n    tag_80:\n      mload(0x40)\n      tag_82\n      swap2\n      swap1\n      tag_71\n      jump\t// in\n    tag_82:\n      mload(0x40)\n      dup1\n      swap2\n      sub\n      swap1\n      return\n        /* \"@openzeppelin/contracts/token/ERC20/ERC20.sol\":3144:3241  function totalSupply() public view virtual returns (uint256) {... */\n    tag_8:\n      callvalue\n      dup1\n      iszero\n      tag_83\n      jumpi\n      0x00\n      dup1\n      revert\n    tag_83:\n      pop\n      tag_84\n      tag_85\n      jump\t// in\n    tag_84:\n      mload(0x40)\n      tag_86\n      swap2\n      swap1\n      tag_71\n      jump\t// in\n    tag_86:\n      mload(0x40)\n      dup1\n      swap2\n      sub\n      swap1\n      return\n        /* \"contracts/bettoken.sol\":1495:1544  mapping(address => uint256) public vestingBalance */\n    tag_9:\n      callvalue\n      dup1\n      iszero\n      tag_87\n      jumpi\n      0x00\n      dup1\n      revert\n    tag_87:\n      pop\n      tag_88\n      0x04\n      dup1\n      calldatasize\n      sub\n      dup2\n      add\n      swap1\n      tag_89\n      swap2\n      swap1\n      tag_90\n      jump\t// in\n    tag_89:\n      tag_91\n      jump\t// in\n    tag_88:\n      mload(0x40)\n      tag_92\n      swap2\n      swap1\n      tag_71\n      jump\t// in\n    tag_92:\n      mload(0x40)\n      dup1\n      swap2\n      sub\n      swap1\n      return\n        /* \"@openzeppelin/contracts/token/ERC20/ERC20.sol\":5039:5283  function transferFrom(address from, address to, uint256 value) public virtual returns (bool) {... */\n    tag_10:\n      callvalue\n      dup1\n      iszero\n      tag_93\n      jumpi\n      0x00\n      dup1\n      revert\n    tag_93:\n      pop\n      tag_94\n      0x04\n      dup1\n      calldatasize\n      sub\n      dup2\n      add\n      swap1\n      tag_95\n      swap2\n      swap1\n      tag_96\n      jump\t// in\n    tag_95:\n      tag_97\n      jump\t// in\n    tag_94:\n      mload(0x40)\n      tag_98\n      swap2\n      swap1\n      tag_66\n      jump\t// in\n    tag_98:\n      mload(0x40)\n      dup1\n      swap2\n      sub\n      swap1\n      return\n        /* \"contracts/bettoken.sol\":8268:8469  function withdrawFunds() external onlyOwner nonReentrant {... */\n    tag_11:\n      callvalue\n      dup1\n      iszero\n      tag_99\n      jumpi\n      0x00\n      dup1\n      revert\n    tag_99:\n      pop\n      tag_100\n      tag_101\n      jump\t// in\n    tag_100:\n      stop\n        /* \"contracts/bettoken.sol\":1550:1603  mapping(address => uint256) public vestingReleaseTime */\n    tag_12:\n      callvalue\n      dup1\n      iszero\n      tag_102\n      jumpi\n      0x00\n      dup1\n      revert\n    tag_102:\n      pop\n      tag_103\n      0x04\n      dup1\n      calldatasize\n      sub\n      dup2\n      add\n      swap1\n      tag_104\n      swap2\n      swap1\n      tag_90\n      jump\t// in\n    tag_104:\n      tag_105\n      jump\t// in\n    tag_103:\n      mload(0x40)\n      tag_106\n      swap2\n      swap1\n      tag_71\n      jump\t// in\n    tag_106:\n      mload(0x40)\n      dup1\n      swap2\n      sub\n      swap1\n      return\n        /* \"@openzeppelin/contracts/token/ERC20/ERC20.sol\":3002:3084  function decimals() public view virtual returns (uint8) {... */\n    tag_13:\n      callvalue\n      dup1\n      iszero\n      tag_107\n      jumpi\n      0x00\n      dup1\n      revert\n    tag_107:\n      pop\n      tag_108\n      tag_109\n      jump\t// in\n    tag_108:\n      mload(0x40)\n      tag_110\n      swap2\n      swap1\n      tag_111\n      jump\t// in\n    tag_110:\n      mload(0x40)\n      dup1\n      swap2\n      sub\n      swap1\n      return\n        /* \"contracts/bettoken.sol\":7791:8050  function haltSales() external onlyOwner {... */\n    tag_14:\n      callvalue\n      dup1\n      iszero\n      tag_112\n      jumpi\n      0x00\n      dup1\n      revert\n    tag_112:\n      pop\n      tag_113\n      tag_114\n      jump\t// in\n    tag_113:\n      stop\n        /* \"contracts/bettoken.sol\":3083:3490  function startPrivateSale() external onlyOwner {... */\n    tag_15:\n      callvalue\n      dup1\n      iszero\n      tag_115\n      jumpi\n      0x00\n      dup1\n      revert\n    tag_115:\n      pop\n      tag_116\n      tag_117\n      jump\t// in\n    tag_116:\n      stop\n        /* \"contracts/bettoken.sol\":3843:5389  function buyTokens(uint256 usdAmount) external payable nonReentrant {... */\n    tag_16:\n      tag_118\n      0x04\n      dup1\n      calldatasize\n      sub\n      dup2\n      add\n      swap1\n      tag_119\n      swap2\n      swap1\n      tag_75\n      jump\t// in\n    tag_119:\n      tag_120\n      jump\t// in\n    tag_118:\n      stop\n        /* \"contracts/bettoken.sol\":1664:1703  uint256 public stakeDuration = 365 days */\n    tag_17:\n      callvalue\n      dup1\n      iszero\n      tag_121\n      jumpi\n      0x00\n      dup1\n      revert\n    tag_121:\n      pop\n      tag_122\n      tag_123\n      jump\t// in\n    tag_122:\n      mload(0x40)\n      tag_124\n      swap2\n      swap1\n      tag_71\n      jump\t// in\n    tag_124:\n      mload(0x40)\n      dup1\n      swap2\n      sub\n      swap1\n      return\n        /* \"contracts/bettoken.sol\":7311:7785  function releaseVestedTokens() external nonReentrant {... */\n    tag_18:\n      callvalue\n      dup1\n      iszero\n      tag_125\n      jumpi\n      0x00\n      dup1\n      revert\n    tag_125:\n      pop\n      tag_126\n      tag_127\n      jump\t// in\n    tag_126:\n      stop\n        /* \"contracts/bettoken.sol\":3496:3837  function startPreSale() external onlyOwner {... */\n    tag_19:\n      callvalue\n      dup1\n      iszero\n      tag_128\n      jumpi\n      0x00\n      dup1\n      revert\n    tag_128:\n      pop\n      tag_129\n      tag_130\n      jump\t// in\n    tag_129:\n      stop\n        /* \"contracts/bettoken.sol\":926:966  uint256 public privateSaleSoldTokens = 0 */\n    tag_20:\n      callvalue\n      dup1\n      iszero\n      tag_131\n      jumpi\n      0x00\n      dup1\n      revert\n    tag_131:\n      pop\n      tag_132\n      tag_133\n      jump\t// in\n    tag_132:\n      mload(0x40)\n      tag_134\n      swap2\n      swap1\n      tag_71\n      jump\t// in\n    tag_134:\n      mload(0x40)\n      dup1\n      swap2\n      sub\n      swap1\n      return\n        /* \"@openzeppelin/contracts/token/ERC20/ERC20.sol\":3299:3415  function balanceOf(address account) public view virtual returns (uint256) {... */\n    tag_21:\n      callvalue\n      dup1\n      iszero\n      tag_135\n      jumpi\n      0x00\n      dup1\n      revert\n    tag_135:\n      pop\n      tag_136\n      0x04\n      dup1\n      calldatasize\n      sub\n      dup2\n      add\n      swap1\n      tag_137\n      swap2\n      swap1\n      tag_90\n      jump\t// in\n    tag_137:\n      tag_138\n      jump\t// in\n    tag_136:\n      mload(0x40)\n      tag_139\n      swap2\n      swap1\n      tag_71\n      jump\t// in\n    tag_139:\n      mload(0x40)\n      dup1\n      swap2\n      sub\n      swap1\n      return\n        /* \"@openzeppelin/contracts/access/Ownable.sol\":2293:2394  function renounceOwnership() public virtual onlyOwner {... */\n    tag_22:\n      callvalue\n      dup1\n      iszero\n      tag_140\n      jumpi\n      0x00\n      dup1\n      revert\n    tag_140:\n      pop\n      tag_141\n      tag_142\n      jump\t// in\n    tag_141:\n      stop\n        /* \"contracts/bettoken.sol\":6794:7305  function stakeTokens(uint256 amount) external onlyOwner nonReentrant {... */\n    tag_23:\n      callvalue\n      dup1\n      iszero\n      tag_143\n      jumpi\n      0x00\n      dup1\n      revert\n    tag_143:\n      pop\n      tag_144\n      0x04\n      dup1\n      calldatasize\n      sub\n      dup2\n      add\n      swap1\n      tag_145\n      swap2\n      swap1\n      tag_75\n      jump\t// in\n    tag_145:\n      tag_146\n      jump\t// in\n    tag_144:\n      stop\n        /* \"@openzeppelin/contracts/access/Ownable.sol\":1638:1723  function owner() public view virtual returns (address) {... */\n    tag_24:\n      callvalue\n      dup1\n      iszero\n      tag_147\n      jumpi\n      0x00\n      dup1\n      revert\n    tag_147:\n      pop\n      tag_148\n      tag_149\n      jump\t// in\n    tag_148:\n      mload(0x40)\n      tag_150\n      swap2\n      swap1\n      tag_151\n      jump\t// in\n    tag_150:\n      mload(0x40)\n      dup1\n      swap2\n      sub\n      swap1\n      return\n        /* \"contracts/bettoken.sol\":2564:3077  function getLatestPrice() public view returns (uint256) {... */\n    tag_25:\n      callvalue\n      dup1\n      iszero\n      tag_152\n      jumpi\n      0x00\n      dup1\n      revert\n    tag_152:\n      pop\n      tag_153\n      tag_154\n      jump\t// in\n    tag_153:\n      mload(0x40)\n      tag_155\n      swap2\n      swap1\n      tag_71\n      jump\t// in\n    tag_155:\n      mload(0x40)\n      dup1\n      swap2\n      sub\n      swap1\n      return\n        /* \"contracts/bettoken.sol\":1242:1289  uint256 public preSaleEndPrice = 0.1 * 10 ** 18 */\n    tag_26:\n      callvalue\n      dup1\n      iszero\n      tag_156\n      jumpi\n      0x00\n      dup1\n      revert\n    tag_156:\n      pop\n      tag_157\n      tag_158\n      jump\t// in\n    tag_157:\n      mload(0x40)\n      tag_159\n      swap2\n      swap1\n      tag_71\n      jump\t// in\n    tag_159:\n      mload(0x40)\n      dup1\n      swap2\n      sub\n      swap1\n      return\n        /* \"contracts/bettoken.sol\":459:520  uint256 public constant TOTAL_SUPPLY = 200_000_000 * 10 ** 18 */\n    tag_27:\n      callvalue\n      dup1\n      iszero\n      tag_160\n      jumpi\n      0x00\n      dup1\n      revert\n    tag_160:\n      pop\n      tag_161\n      tag_162\n      jump\t// in\n    tag_161:\n      mload(0x40)\n      tag_163\n      swap2\n      swap1\n      tag_71\n      jump\t// in\n    tag_163:\n      mload(0x40)\n      dup1\n      swap2\n      sub\n      swap1\n      return\n        /* \"contracts/bettoken.sol\":1161:1213  uint256 public preSaleStartPrice = 0.0505 * 10 ** 18 */\n    tag_28:\n      callvalue\n      dup1\n      iszero\n      tag_164\n      jumpi\n      0x00\n      dup1\n      revert\n    tag_164:\n      pop\n      tag_165\n      tag_166\n      jump\t// in\n    tag_165:\n      mload(0x40)\n      tag_167\n      swap2\n      swap1\n      tag_71\n      jump\t// in\n    tag_167:\n      mload(0x40)\n      dup1\n      swap2\n      sub\n      swap1\n      return\n        /* \"contracts/bettoken.sol\":8056:8262  function emergencyWithdraw(address tokenAddress, uint256 amount) external onlyOwner nonReentrant {... */\n    tag_29:\n      callvalue\n      dup1\n      iszero\n      tag_168\n      jumpi\n      0x00\n      dup1\n      revert\n    tag_168:\n      pop\n      tag_169\n      0x04\n      dup1\n      calldatasize\n      sub\n      dup2\n      add\n      swap1\n      tag_170\n      swap2\n      swap1\n      tag_63\n      jump\t// in\n    tag_170:\n      tag_171\n      jump\t// in\n    tag_169:\n      stop\n        /* \"@openzeppelin/contracts/token/ERC20/ERC20.sol\":2276:2369  function symbol() public view virtual returns (string memory) {... */\n    tag_30:\n      callvalue\n      dup1\n      iszero\n      tag_172\n      jumpi\n      0x00\n      dup1\n      revert\n    tag_172:\n      pop\n      tag_173\n      tag_174\n      jump\t// in\n    tag_173:\n      mload(0x40)\n      tag_175\n      swap2\n      swap1\n      tag_59\n      jump\t// in\n    tag_175:\n      mload(0x40)\n      dup1\n      swap2\n      sub\n      swap1\n      return\n        /* \"@openzeppelin/contracts/token/ERC20/ERC20.sol\":3610:3788  function transfer(address to, uint256 value) public virtual returns (bool) {... */\n    tag_31:\n      callvalue\n      dup1\n      iszero\n      tag_176\n      jumpi\n      0x00\n      dup1\n      revert\n    tag_176:\n      pop\n      tag_177\n      0x04\n      dup1\n      calldatasize\n      sub\n      dup2\n      add\n      swap1\n      tag_178\n      swap2\n      swap1\n      tag_63\n      jump\t// in\n    tag_178:\n      tag_179\n      jump\t// in\n    tag_177:\n      mload(0x40)\n      tag_180\n      swap2\n      swap1\n      tag_66\n      jump\t// in\n    tag_180:\n      mload(0x40)\n      dup1\n      swap2\n      sub\n      swap1\n      return\n        /* \"contracts/bettoken.sol\":760:815  uint256 public privateSaleStartPrice = 0.001 * 10 ** 18 */\n    tag_32:\n      callvalue\n      dup1\n      iszero\n      tag_181\n      jumpi\n      0x00\n      dup1\n      revert\n    tag_181:\n      pop\n      tag_182\n      tag_183\n      jump\t// in\n    tag_182:\n      mload(0x40)\n      tag_184\n      swap2\n      swap1\n      tag_71\n      jump\t// in\n    tag_184:\n      mload(0x40)\n      dup1\n      swap2\n      sub\n      swap1\n      return\n        /* \"contracts/bettoken.sol\":1315:1351  uint256 public preSaleSoldTokens = 0 */\n    tag_33:\n      callvalue\n      dup1\n      iszero\n      tag_185\n      jumpi\n      0x00\n      dup1\n      revert\n    tag_185:\n      pop\n      tag_186\n      tag_187\n      jump\t// in\n    tag_186:\n      mload(0x40)\n      tag_188\n      swap2\n      swap1\n      tag_71\n      jump\t// in\n    tag_188:\n      mload(0x40)\n      dup1\n      swap2\n      sub\n      swap1\n      return\n        /* \"contracts/bettoken.sol\":594:649  uint256 public privateSaleTarget = 1_000_000 * 10 ** 18 */\n    tag_34:\n      callvalue\n      dup1\n      iszero\n      tag_189\n      jumpi\n      0x00\n      dup1\n      revert\n    tag_189:\n      pop\n      tag_190\n      tag_191\n      jump\t// in\n    tag_190:\n      mload(0x40)\n      tag_192\n      swap2\n      swap1\n      tag_71\n      jump\t// in\n    tag_192:\n      mload(0x40)\n      dup1\n      swap2\n      sub\n      swap1\n      return\n        /* \"contracts/bettoken.sol\":843:897  uint256 public privateSaleEndPrice = 0.0505 * 10 ** 18 */\n    tag_35:\n      callvalue\n      dup1\n      iszero\n      tag_193\n      jumpi\n      0x00\n      dup1\n      revert\n    tag_193:\n      pop\n      tag_194\n      tag_195\n      jump\t// in\n    tag_194:\n      mload(0x40)\n      tag_196\n      swap2\n      swap1\n      tag_71\n      jump\t// in\n    tag_196:\n      mload(0x40)\n      dup1\n      swap2\n      sub\n      swap1\n      return\n        /* \"contracts/bettoken.sol\":1423:1462  SaleStage public stage = SaleStage.NONE */\n    tag_36:\n      callvalue\n      dup1\n      iszero\n      tag_197\n      jumpi\n      0x00\n      dup1\n      revert\n    tag_197:\n      pop\n      tag_198\n      tag_199\n      jump\t// in\n    tag_198:\n      mload(0x40)\n      tag_200\n      swap2\n      swap1\n      tag_201\n      jump\t// in\n    tag_200:\n      mload(0x40)\n      dup1\n      swap2\n      sub\n      swap1\n      return\n        /* \"contracts/bettoken.sol\":679:735  uint256 public privateSaleTokens = 38_835_764 * 10 ** 18 */\n    tag_37:\n      callvalue\n      dup1\n      iszero\n      tag_202\n      jumpi\n      0x00\n      dup1\n      revert\n    tag_202:\n      pop\n      tag_203\n      tag_204\n      jump\t// in\n    tag_203:\n      mload(0x40)\n      tag_205\n      swap2\n      swap1\n      tag_71\n      jump\t// in\n    tag_205:\n      mload(0x40)\n      dup1\n      swap2\n      sub\n      swap1\n      return\n        /* \"@openzeppelin/contracts/token/ERC20/ERC20.sol\":3846:3986  function allowance(address owner, address spender) public view virtual returns (uint256) {... */\n    tag_38:\n      callvalue\n      dup1\n      iszero\n      tag_206\n      jumpi\n      0x00\n      dup1\n      revert\n    tag_206:\n      pop\n      tag_207\n      0x04\n      dup1\n      calldatasize\n      sub\n      dup2\n      add\n      swap1\n      tag_208\n      swap2\n      swap1\n      tag_209\n      jump\t// in\n    tag_208:\n      tag_210\n      jump\t// in\n    tag_207:\n      mload(0x40)\n      tag_211\n      swap2\n      swap1\n      tag_71\n      jump\t// in\n    tag_211:\n      mload(0x40)\n      dup1\n      swap2\n      sub\n      swap1\n      return\n        /* \"contracts/bettoken.sol\":999:1051  uint256 public preSaleTarget = 19_000_000 * 10 ** 18 */\n    tag_39:\n      callvalue\n      dup1\n      iszero\n      tag_212\n      jumpi\n      0x00\n      dup1\n      revert\n    tag_212:\n      pop\n      tag_213\n      tag_214\n      jump\t// in\n    tag_213:\n      mload(0x40)\n      tag_215\n      swap2\n      swap1\n      tag_71\n      jump\t// in\n    tag_215:\n      mload(0x40)\n      dup1\n      swap2\n      sub\n      swap1\n      return\n        /* \"@openzeppelin/contracts/access/Ownable.sol\":2543:2758  function transferOwnership(address newOwner) public virtual onlyOwner {... */\n    tag_40:\n      callvalue\n      dup1\n      iszero\n      tag_216\n      jumpi\n      0x00\n      dup1\n      revert\n    tag_216:\n      pop\n      tag_217\n      0x04\n      dup1\n      calldatasize\n      sub\n      dup2\n      add\n      swap1\n      tag_218\n      swap2\n      swap1\n      tag_90\n      jump\t// in\n    tag_218:\n      tag_219\n      jump\t// in\n    tag_217:\n      stop\n        /* \"@openzeppelin/contracts/token/ERC20/ERC20.sol\":2074:2163  function name() public view virtual returns (string memory) {... */\n    tag_57:\n        /* \"@openzeppelin/contracts/token/ERC20/ERC20.sol\":2119:2132  string memory */\n      0x60\n        /* \"@openzeppelin/contracts/token/ERC20/ERC20.sol\":2151:2156  _name */\n      0x03\n        /* \"@openzeppelin/contracts/token/ERC20/ERC20.sol\":2144:2156  return _name */\n      dup1\n      sload\n      tag_221\n      swap1\n      tag_222\n      jump\t// in\n    tag_221:\n      dup1\n      0x1f\n      add\n      0x20\n      dup1\n      swap2\n      div\n      mul\n      0x20\n      add\n      mload(0x40)\n      swap1\n      dup2\n      add\n      0x40\n      mstore\n      dup1\n      swap3\n      swap2\n      swap1\n      dup2\n      dup2\n      mstore\n      0x20\n      add\n      dup3\n      dup1\n      sload\n      tag_223\n      swap1\n      tag_222\n      jump\t// in\n    tag_223:\n      dup1\n      iszero\n      tag_224\n      jumpi\n      dup1\n      0x1f\n      lt\n      tag_225\n      jumpi\n      0x0100\n      dup1\n      dup4\n      sload\n      div\n      mul\n      dup4\n      mstore\n      swap2\n      0x20\n      add\n      swap2\n      jump(tag_224)\n    tag_225:\n      dup3\n      add\n      swap2\n      swap1\n      0x00\n      mstore\n      keccak256(0x00, 0x20)\n      swap1\n    tag_226:\n      dup2\n      sload\n      dup2\n      mstore\n      swap1\n      0x01\n      add\n      swap1\n      0x20\n      add\n      dup1\n      dup4\n      gt\n      tag_226\n      jumpi\n      dup3\n      swap1\n      sub\n      0x1f\n      and\n      dup3\n      add\n      swap2\n    tag_224:\n      pop\n      pop\n      pop\n      pop\n      pop\n      swap1\n      pop\n        /* \"@openzeppelin/contracts/token/ERC20/ERC20.sol\":2074:2163  function name() public view virtual returns (string memory) {... */\n      swap1\n      jump\t// out\n        /* \"@openzeppelin/contracts/token/ERC20/ERC20.sol\":4293:4479  function approve(address spender, uint256 value) public virtual returns (bool) {... */\n    tag_64:\n        /* \"@openzeppelin/contracts/token/ERC20/ERC20.sol\":4366:4370  bool */\n      0x00\n        /* \"@openzeppelin/contracts/token/ERC20/ERC20.sol\":4382:4395  address owner */\n      dup1\n        /* \"@openzeppelin/contracts/token/ERC20/ERC20.sol\":4398:4410  _msgSender() */\n      tag_228\n        /* \"@openzeppelin/contracts/token/ERC20/ERC20.sol\":4398:4408  _msgSender */\n      tag_229\n        /* \"@openzeppelin/contracts/token/ERC20/ERC20.sol\":4398:4410  _msgSender() */\n      jump\t// in\n    tag_228:\n        /* \"@openzeppelin/contracts/token/ERC20/ERC20.sol\":4382:4410  address owner = _msgSender() */\n      swap1\n      pop\n        /* \"@openzeppelin/contracts/token/ERC20/ERC20.sol\":4420:4451  _approve(owner, spender, value) */\n      tag_230\n        /* \"@openzeppelin/contracts/token/ERC20/ERC20.sol\":4429:4434  owner */\n      dup2\n        /* \"@openzeppelin/contracts/token/ERC20/ERC20.sol\":4436:4443  spender */\n      dup6\n        /* \"@openzeppelin/contracts/token/ERC20/ERC20.sol\":4445:4450  value */\n      dup6\n        /* \"@openzeppelin/contracts/token/ERC20/ERC20.sol\":4420:4428  _approve */\n      tag_231\n        /* \"@openzeppelin/contracts/token/ERC20/ERC20.sol\":4420:4451  _approve(owner, spender, value) */\n      jump\t// in\n    tag_230:\n        /* \"@openzeppelin/contracts/token/ERC20/ERC20.sol\":4468:4472  true */\n      0x01\n        /* \"@openzeppelin/contracts/token/ERC20/ERC20.sol\":4461:4472  return true */\n      swap2\n      pop\n      pop\n        /* \"@openzeppelin/contracts/token/ERC20/ERC20.sol\":4293:4479  function approve(address spender, uint256 value) public virtual returns (bool) {... */\n      swap3\n      swap2\n      pop\n      pop\n      jump\t// out\n        /* \"contracts/bettoken.sol\":1082:1135  uint256 public preSaleTokens = 161_164_236 * 10 ** 18 */\n    tag_69:\n      sload(0x0d)\n      dup2\n      jump\t// out\n        /* \"contracts/bettoken.sol\":1720:1761  AggregatorV3Interface[] public priceFeeds */\n    tag_76:\n      0x16\n      dup2\n      dup2\n      sload\n      dup2\n      lt\n      tag_232\n      jumpi\n      0x00\n      dup1\n      revert\n    tag_232:\n      swap1\n      0x00\n      mstore\n      keccak256(0x00, 0x20)\n      add\n      0x00\n      swap2\n      pop\n      sload\n      swap1\n      0x0100\n      exp\n      swap1\n      div\n      0xffffffffffffffffffffffffffffffffffffffff\n      and\n      dup2\n      jump\t// out\n        /* \"contracts/bettoken.sol\":1609:1650  uint256 public vestingDuration = 180 days */\n    tag_81:\n      sload(0x14)\n      dup2\n      jump\t// out\n        /* \"@openzeppelin/contracts/token/ERC20/ERC20.sol\":3144:3241  function totalSupply() public view virtual returns (uint256) {... */\n    tag_85:\n        /* \"@openzeppelin/contracts/token/ERC20/ERC20.sol\":3196:3203  uint256 */\n      0x00\n        /* \"@openzeppelin/contracts/token/ERC20/ERC20.sol\":3222:3234  _totalSupply */\n      sload(0x02)\n        /* \"@openzeppelin/contracts/token/ERC20/ERC20.sol\":3215:3234  return _totalSupply */\n      swap1\n      pop\n        /* \"@openzeppelin/contracts/token/ERC20/ERC20.sol\":3144:3241  function totalSupply() public view virtual returns (uint256) {... */\n      swap1\n      jump\t// out\n        /* \"contracts/bettoken.sol\":1495:1544  mapping(address => uint256) public vestingBalance */\n    tag_91:\n      mstore(0x20, 0x12)\n      dup1\n      0x00\n      mstore\n      keccak256(0x00, 0x40)\n      0x00\n      swap2\n      pop\n      swap1\n      pop\n      sload\n      dup2\n      jump\t// out\n        /* \"@openzeppelin/contracts/token/ERC20/ERC20.sol\":5039:5283  function transferFrom(address from, address to, uint256 value) public virtual returns (bool) {... */\n    tag_97:\n        /* \"@openzeppelin/contracts/token/ERC20/ERC20.sol\":5126:5130  bool */\n      0x00\n        /* \"@openzeppelin/contracts/token/ERC20/ERC20.sol\":5142:5157  address spender */\n      dup1\n        /* \"@openzeppelin/contracts/token/ERC20/ERC20.sol\":5160:5172  _msgSender() */\n      tag_236\n        /* \"@openzeppelin/contracts/token/ERC20/ERC20.sol\":5160:5170  _msgSender */\n      tag_229\n        /* \"@openzeppelin/contracts/token/ERC20/ERC20.sol\":5160:5172  _msgSender() */\n      jump\t// in\n    tag_236:\n        /* \"@openzeppelin/contracts/token/ERC20/ERC20.sol\":5142:5172  address spender = _msgSender() */\n      swap1\n      pop\n        /* \"@openzeppelin/contracts/token/ERC20/ERC20.sol\":5182:5219  _spendAllowance(from, spender, value) */\n      tag_237\n        /* \"@openzeppelin/contracts/token/ERC20/ERC20.sol\":5198:5202  from */\n      dup6\n        /* \"@openzeppelin/contracts/token/ERC20/ERC20.sol\":5204:5211  spender */\n      dup3\n        /* \"@openzeppelin/contracts/token/ERC20/ERC20.sol\":5213:5218  value */\n      dup6\n        /* \"@openzeppelin/contracts/token/ERC20/ERC20.sol\":5182:5197  _spendAllowance */\n      tag_238\n        /* \"@openzeppelin/contracts/token/ERC20/ERC20.sol\":5182:5219  _spendAllowance(from, spender, value) */\n      jump\t// in\n    tag_237:\n        /* \"@openzeppelin/contracts/token/ERC20/ERC20.sol\":5229:5255  _transfer(from, to, value) */\n      tag_239\n        /* \"@openzeppelin/contracts/token/ERC20/ERC20.sol\":5239:5243  from */\n      dup6\n        /* \"@openzeppelin/contracts/token/ERC20/ERC20.sol\":5245:5247  to */\n      dup6\n        /* \"@openzeppelin/contracts/token/ERC20/ERC20.sol\":5249:5254  value */\n      dup6\n        /* \"@openzeppelin/contracts/token/ERC20/ERC20.sol\":5229:5238  _transfer */\n      tag_240\n        /* \"@openzeppelin/contracts/token/ERC20/ERC20.sol\":5229:5255  _transfer(from, to, value) */\n      jump\t// in\n    tag_239:\n        /* \"@openzeppelin/contracts/token/ERC20/ERC20.sol\":5272:5276  true */\n      0x01\n        /* \"@openzeppelin/contracts/token/ERC20/ERC20.sol\":5265:5276  return true */\n      swap2\n      pop\n      pop\n        /* \"@openzeppelin/contracts/token/ERC20/ERC20.sol\":5039:5283  function transferFrom(address from, address to, uint256 value) public virtual returns (bool) {... */\n      swap4\n      swap3\n      pop\n      pop\n      pop\n      jump\t// out\n        /* \"contracts/bettoken.sol\":8268:8469  function withdrawFunds() external onlyOwner nonReentrant {... */\n    tag_101:\n        /* \"@openzeppelin/contracts/access/Ownable.sol\":1531:1544  _checkOwner() */\n      tag_242\n        /* \"@openzeppelin/contracts/access/Ownable.sol\":1531:1542  _checkOwner */\n      tag_243\n        /* \"@openzeppelin/contracts/access/Ownable.sol\":1531:1544  _checkOwner() */\n      jump\t// in\n    tag_242:\n        /* \"@openzeppelin/contracts/security/ReentrancyGuard.sol\":2261:2282  _nonReentrantBefore() */\n      tag_245\n        /* \"@openzeppelin/contracts/security/ReentrancyGuard.sol\":2261:2280  _nonReentrantBefore */\n      tag_246\n        /* \"@openzeppelin/contracts/security/ReentrancyGuard.sol\":2261:2282  _nonReentrantBefore() */\n      jump\t// in\n    tag_245:\n        /* \"contracts/bettoken.sol\":8335:8349  uint256 amount */\n      0x00\n        /* \"contracts/bettoken.sol\":8352:8373  address(this).balance */\n      selfbalance\n        /* \"contracts/bettoken.sol\":8335:8373  uint256 amount = address(this).balance */\n      swap1\n      pop\n        /* \"contracts/bettoken.sol\":8391:8398  owner() */\n      tag_248\n        /* \"contracts/bettoken.sol\":8391:8396  owner */\n      tag_149\n        /* \"contracts/bettoken.sol\":8391:8398  owner() */\n      jump\t// in\n    tag_248:\n        /* \"contracts/bettoken.sol\":8383:8408  payable(owner()).transfer */\n      0xffffffffffffffffffffffffffffffffffffffff\n      and\n        /* \"contracts/bettoken.sol\":8383:8416  payable(owner()).transfer(amount) */\n      0x08fc\n        /* \"contracts/bettoken.sol\":8409:8415  amount */\n      dup3\n        /* \"contracts/bettoken.sol\":8383:8416  payable(owner()).transfer(amount) */\n      swap1\n      dup2\n      iszero\n      mul\n      swap1\n      mload(0x40)\n      0x00\n      mload(0x40)\n      dup1\n      dup4\n      sub\n      dup2\n      dup6\n      dup9\n      dup9\n      call\n      swap4\n      pop\n      pop\n      pop\n      pop\n      iszero\n      dup1\n      iszero\n      tag_250\n      jumpi\n      returndatasize\n      0x00\n      dup1\n      returndatacopy\n      revert(0x00, returndatasize)\n    tag_250:\n      pop\n        /* \"contracts/bettoken.sol\":8446:8453  owner() */\n      tag_251\n        /* \"contracts/bettoken.sol\":8446:8451  owner */\n      tag_149\n        /* \"contracts/bettoken.sol\":8446:8453  owner() */\n      jump\t// in\n    tag_251:\n        /* \"contracts/bettoken.sol\":8431:8462  FundsWithdrawn(owner(), amount) */\n      0xffffffffffffffffffffffffffffffffffffffff\n      and\n      0xeaff4b37086828766ad3268786972c0cd24259d4c87a80f9d3963a3c3d999b0d\n        /* \"contracts/bettoken.sol\":8455:8461  amount */\n      dup3\n        /* \"contracts/bettoken.sol\":8431:8462  FundsWithdrawn(owner(), amount) */\n      mload(0x40)\n      tag_252\n      swap2\n      swap1\n      tag_71\n      jump\t// in\n    tag_252:\n      mload(0x40)\n      dup1\n      swap2\n      sub\n      swap1\n      log2\n        /* \"contracts/bettoken.sol\":8325:8469  {... */\n      pop\n        /* \"@openzeppelin/contracts/security/ReentrancyGuard.sol\":2303:2323  _nonReentrantAfter() */\n      tag_253\n        /* \"@openzeppelin/contracts/security/ReentrancyGuard.sol\":2303:2321  _nonReentrantAfter */\n      tag_254\n        /* \"@openzeppelin/contracts/security/ReentrancyGuard.sol\":2303:2323  _nonReentrantAfter() */\n      jump\t// in\n    tag_253:\n        /* \"contracts/bettoken.sol\":8268:8469  function withdrawFunds() external onlyOwner nonReentrant {... */\n      jump\t// out\n        /* \"contracts/bettoken.sol\":1550:1603  mapping(address => uint256) public vestingReleaseTime */\n    tag_105:\n      mstore(0x20, 0x13)\n      dup1\n      0x00\n      mstore\n      keccak256(0x00, 0x40)\n      0x00\n      swap2\n      pop\n      swap1\n      pop\n      sload\n      dup2\n      jump\t// out\n        /* \"@openzeppelin/contracts/token/ERC20/ERC20.sol\":3002:3084  function decimals() public view virtual returns (uint8) {... */\n    tag_109:\n        /* \"@openzeppelin/contracts/token/ERC20/ERC20.sol\":3051:3056  uint8 */\n      0x00\n        /* \"@openzeppelin/contracts/token/ERC20/ERC20.sol\":3075:3077  18 */\n      0x12\n        /* \"@openzeppelin/contracts/token/ERC20/ERC20.sol\":3068:3077  return 18 */\n      swap1\n      pop\n        /* \"@openzeppelin/contracts/token/ERC20/ERC20.sol\":3002:3084  function decimals() public view virtual returns (uint8) {... */\n      swap1\n      jump\t// out\n        /* \"contracts/bettoken.sol\":7791:8050  function haltSales() external onlyOwner {... */\n    tag_114:\n        /* \"@openzeppelin/contracts/access/Ownable.sol\":1531:1544  _checkOwner() */\n      tag_257\n        /* \"@openzeppelin/contracts/access/Ownable.sol\":1531:1542  _checkOwner */\n      tag_243\n        /* \"@openzeppelin/contracts/access/Ownable.sol\":1531:1544  _checkOwner() */\n      jump\t// in\n    tag_257:\n        /* \"contracts/bettoken.sol\":7874:7891  privateSaleTokens */\n      sload(0x08)\n        /* \"contracts/bettoken.sol\":7849:7870  privateSaleSoldTokens */\n      sload(0x0b)\n        /* \"contracts/bettoken.sol\":7849:7891  privateSaleSoldTokens == privateSaleTokens */\n      eq\n        /* \"contracts/bettoken.sol\":7849:7929  privateSaleSoldTokens == privateSaleTokens || preSaleSoldTokens == preSaleTokens */\n      dup1\n      tag_259\n      jumpi\n      pop\n        /* \"contracts/bettoken.sol\":7916:7929  preSaleTokens */\n      sload(0x0d)\n        /* \"contracts/bettoken.sol\":7895:7912  preSaleSoldTokens */\n      sload(0x10)\n        /* \"contracts/bettoken.sol\":7895:7929  preSaleSoldTokens == preSaleTokens */\n      eq\n        /* \"contracts/bettoken.sol\":7849:7929  privateSaleSoldTokens == privateSaleTokens || preSaleSoldTokens == preSaleTokens */\n    tag_259:\n        /* \"contracts/bettoken.sol\":7841:7977  require(privateSaleSoldTokens == privateSaleTokens || preSaleSoldTokens == preSaleTokens, ... */\n      tag_260\n      jumpi\n      mload(0x40)\n      0x08c379a000000000000000000000000000000000000000000000000000000000\n      dup2\n      mstore\n      0x04\n      add\n      tag_261\n      swap1\n      tag_262\n      jump\t// in\n    tag_261:\n      mload(0x40)\n      dup1\n      swap2\n      sub\n      swap1\n      revert\n    tag_260:\n        /* \"contracts/bettoken.sol\":7995:8009  SaleStage.NONE */\n      0x00\n        /* \"contracts/bettoken.sol\":7987:7992  stage */\n      0x11\n      0x00\n        /* \"contracts/bettoken.sol\":7987:8009  stage = SaleStage.NONE */\n      0x0100\n      exp\n      dup2\n      sload\n      dup2\n      0xff\n      mul\n      not\n      and\n      swap1\n      dup4\n      0x02\n      dup2\n      gt\n      iszero\n      tag_263\n      jumpi\n      tag_264\n      tag_265\n      jump\t// in\n    tag_264:\n    tag_263:\n      mul\n      or\n      swap1\n      sstore\n      pop\n        /* \"contracts/bettoken.sol\":8024:8043  StageChanged(stage) */\n      0x273467821f33675618854603ef917ebcec8a1a39f95c43d5564ed1aefab870b3\n        /* \"contracts/bettoken.sol\":8037:8042  stage */\n      0x11\n      0x00\n      swap1\n      sload\n      swap1\n      0x0100\n      exp\n      swap1\n      div\n      0xff\n      and\n        /* \"contracts/bettoken.sol\":8024:8043  StageChanged(stage) */\n      mload(0x40)\n      tag_266\n      swap2\n      swap1\n      tag_201\n      jump\t// in\n    tag_266:\n      mload(0x40)\n      dup1\n      swap2\n      sub\n      swap1\n      log1\n        /* \"contracts/bettoken.sol\":7791:8050  function haltSales() external onlyOwner {... */\n      jump\t// out\n        /* \"contracts/bettoken.sol\":3083:3490  function startPrivateSale() external onlyOwner {... */\n    tag_117:\n        /* \"@openzeppelin/contracts/access/Ownable.sol\":1531:1544  _checkOwner() */\n      tag_268\n        /* \"@openzeppelin/contracts/access/Ownable.sol\":1531:1542  _checkOwner */\n      tag_243\n        /* \"@openzeppelin/contracts/access/Ownable.sol\":1531:1544  _checkOwner() */\n      jump\t// in\n    tag_268:\n        /* \"contracts/bettoken.sol\":3157:3171  SaleStage.NONE */\n      0x00\n        /* \"contracts/bettoken.sol\":3148:3171  stage == SaleStage.NONE */\n      0x02\n      dup2\n      gt\n      iszero\n      tag_270\n      jumpi\n      tag_271\n      tag_265\n      jump\t// in\n    tag_271:\n    tag_270:\n        /* \"contracts/bettoken.sol\":3148:3153  stage */\n      0x11\n      0x00\n      swap1\n      sload\n      swap1\n      0x0100\n      exp\n      swap1\n      div\n      0xff\n      and\n        /* \"contracts/bettoken.sol\":3148:3171  stage == SaleStage.NONE */\n      0x02\n      dup2\n      gt\n      iszero\n      tag_272\n      jumpi\n      tag_273\n      tag_265\n      jump\t// in\n    tag_273:\n    tag_272:\n      eq\n        /* \"contracts/bettoken.sol\":3140:3220  require(stage == SaleStage.NONE, \"Private Sale can only start from NONE stage.\") */\n      tag_274\n      jumpi\n      mload(0x40)\n      0x08c379a000000000000000000000000000000000000000000000000000000000\n      dup2\n      mstore\n      0x04\n      add\n      tag_275\n      swap1\n      tag_276\n      jump\t// in\n    tag_275:\n      mload(0x40)\n      dup1\n      swap2\n      sub\n      swap1\n      revert\n    tag_274:\n        /* \"contracts/bettoken.sol\":3263:3264  0 */\n      0x00\n        /* \"contracts/bettoken.sol\":3238:3259  privateSaleSoldTokens */\n      sload(0x0b)\n        /* \"contracts/bettoken.sol\":3238:3264  privateSaleSoldTokens == 0 */\n      eq\n        /* \"contracts/bettoken.sol\":3230:3315  require(privateSaleSoldTokens == 0, \"Private Sale tokens should be unsold at start.\") */\n      tag_277\n      jumpi\n      mload(0x40)\n      0x08c379a000000000000000000000000000000000000000000000000000000000\n      dup2\n      mstore\n      0x04\n      add\n      tag_278\n      swap1\n      tag_279\n      jump\t// in\n    tag_278:\n      mload(0x40)\n      dup1\n      swap2\n      sub\n      swap1\n      revert\n    tag_277:\n        /* \"contracts/bettoken.sol\":3354:3355  0 */\n      0x00\n        /* \"contracts/bettoken.sol\":3333:3350  preSaleSoldTokens */\n      sload(0x10)\n        /* \"contracts/bettoken.sol\":3333:3355  preSaleSoldTokens == 0 */\n      eq\n        /* \"contracts/bettoken.sol\":3325:3413  require(preSaleSoldTokens == 0, \"Pre-Sale should not have started before Private Sale.\") */\n      tag_280\n      jumpi\n      mload(0x40)\n      0x08c379a000000000000000000000000000000000000000000000000000000000\n      dup2\n      mstore\n      0x04\n      add\n      tag_281\n      swap1\n      tag_282\n      jump\t// in\n    tag_281:\n      mload(0x40)\n      dup1\n      swap2\n      sub\n      swap1\n      revert\n    tag_280:\n        /* \"contracts/bettoken.sol\":3432:3449  SaleStage.PRIVATE */\n      0x01\n        /* \"contracts/bettoken.sol\":3424:3429  stage */\n      0x11\n      0x00\n        /* \"contracts/bettoken.sol\":3424:3449  stage = SaleStage.PRIVATE */\n      0x0100\n      exp\n      dup2\n      sload\n      dup2\n      0xff\n      mul\n      not\n      and\n      swap1\n      dup4\n      0x02\n      dup2\n      gt\n      iszero\n      tag_283\n      jumpi\n      tag_284\n      tag_265\n      jump\t// in\n    tag_284:\n    tag_283:\n      mul\n      or\n      swap1\n      sstore\n      pop\n        /* \"contracts/bettoken.sol\":3464:3483  StageChanged(stage) */\n      0x273467821f33675618854603ef917ebcec8a1a39f95c43d5564ed1aefab870b3\n        /* \"contracts/bettoken.sol\":3477:3482  stage */\n      0x11\n      0x00\n      swap1\n      sload\n      swap1\n      0x0100\n      exp\n      swap1\n      div\n      0xff\n      and\n        /* \"contracts/bettoken.sol\":3464:3483  StageChanged(stage) */\n      mload(0x40)\n      tag_285\n      swap2\n      swap1\n      tag_201\n      jump\t// in\n    tag_285:\n      mload(0x40)\n      dup1\n      swap2\n      sub\n      swap1\n      log1\n        /* \"contracts/bettoken.sol\":3083:3490  function startPrivateSale() external onlyOwner {... */\n      jump\t// out\n        /* \"contracts/bettoken.sol\":3843:5389  function buyTokens(uint256 usdAmount) external payable nonReentrant {... */\n    tag_120:\n        /* \"@openzeppelin/contracts/security/ReentrancyGuard.sol\":2261:2282  _nonReentrantBefore() */\n      tag_287\n        /* \"@openzeppelin/contracts/security/ReentrancyGuard.sol\":2261:2280  _nonReentrantBefore */\n      tag_246\n        /* \"@openzeppelin/contracts/security/ReentrancyGuard.sol\":2261:2282  _nonReentrantBefore() */\n      jump\t// in\n    tag_287:\n        /* \"contracts/bettoken.sol\":3938:3952  SaleStage.NONE */\n      0x00\n        /* \"contracts/bettoken.sol\":3929:3952  stage != SaleStage.NONE */\n      0x02\n      dup2\n      gt\n      iszero\n      tag_289\n      jumpi\n      tag_290\n      tag_265\n      jump\t// in\n    tag_290:\n    tag_289:\n        /* \"contracts/bettoken.sol\":3929:3934  stage */\n      0x11\n      0x00\n      swap1\n      sload\n      swap1\n      0x0100\n      exp\n      swap1\n      div\n      0xff\n      and\n        /* \"contracts/bettoken.sol\":3929:3952  stage != SaleStage.NONE */\n      0x02\n      dup2\n      gt\n      iszero\n      tag_291\n      jumpi\n      tag_292\n      tag_265\n      jump\t// in\n    tag_292:\n    tag_291:\n      sub\n        /* \"contracts/bettoken.sol\":3921:3975  require(stage != SaleStage.NONE, \"No sale is active.\") */\n      tag_293\n      jumpi\n      mload(0x40)\n      0x08c379a000000000000000000000000000000000000000000000000000000000\n      dup2\n      mstore\n      0x04\n      add\n      tag_294\n      swap1\n      tag_295\n      jump\t// in\n    tag_294:\n      mload(0x40)\n      dup1\n      swap2\n      sub\n      swap1\n      revert\n    tag_293:\n        /* \"contracts/bettoken.sol\":3986:4005  uint256 latestPrice */\n      0x00\n        /* \"contracts/bettoken.sol\":4008:4024  getLatestPrice() */\n      tag_296\n        /* \"contracts/bettoken.sol\":4008:4022  getLatestPrice */\n      tag_154\n        /* \"contracts/bettoken.sol\":4008:4024  getLatestPrice() */\n      jump\t// in\n    tag_296:\n        /* \"contracts/bettoken.sol\":3986:4024  uint256 latestPrice = getLatestPrice() */\n      swap1\n      pop\n        /* \"contracts/bettoken.sol\":4056:4057  0 */\n      0x00\n        /* \"contracts/bettoken.sol\":4042:4053  latestPrice */\n      dup2\n        /* \"contracts/bettoken.sol\":4042:4057  latestPrice > 0 */\n      gt\n        /* \"contracts/bettoken.sol\":4034:4087  require(latestPrice > 0, \"Invalid price from oracle\") */\n      tag_297\n      jumpi\n      mload(0x40)\n      0x08c379a000000000000000000000000000000000000000000000000000000000\n      dup2\n      mstore\n      0x04\n      add\n      tag_298\n      swap1\n      tag_299\n      jump\t// in\n    tag_298:\n      mload(0x40)\n      dup1\n      swap2\n      sub\n      swap1\n      revert\n    tag_297:\n        /* \"contracts/bettoken.sol\":4098:4117  uint256 tokensToBuy */\n      0x00\n        /* \"contracts/bettoken.sol\":4140:4157  SaleStage.PRIVATE */\n      0x01\n        /* \"contracts/bettoken.sol\":4131:4157  stage == SaleStage.PRIVATE */\n      0x02\n      dup2\n      gt\n      iszero\n      tag_300\n      jumpi\n      tag_301\n      tag_265\n      jump\t// in\n    tag_301:\n    tag_300:\n        /* \"contracts/bettoken.sol\":4131:4136  stage */\n      0x11\n      0x00\n      swap1\n      sload\n      swap1\n      0x0100\n      exp\n      swap1\n      div\n      0xff\n      and\n        /* \"contracts/bettoken.sol\":4131:4157  stage == SaleStage.PRIVATE */\n      0x02\n      dup2\n      gt\n      iszero\n      tag_302\n      jumpi\n      tag_303\n      tag_265\n      jump\t// in\n    tag_303:\n    tag_302:\n      sub\n        /* \"contracts/bettoken.sol\":4127:5383  if (stage == SaleStage.PRIVATE) {... */\n      tag_304\n      jumpi\n        /* \"contracts/bettoken.sol\":4205:4222  privateSaleTokens */\n      sload(0x08)\n        /* \"contracts/bettoken.sol\":4181:4202  privateSaleSoldTokens */\n      sload(0x0b)\n        /* \"contracts/bettoken.sol\":4181:4222  privateSaleSoldTokens < privateSaleTokens */\n      lt\n        /* \"contracts/bettoken.sol\":4173:4249  require(privateSaleSoldTokens < privateSaleTokens, \"Private Sale sold out.\") */\n      tag_305\n      jumpi\n      mload(0x40)\n      0x08c379a000000000000000000000000000000000000000000000000000000000\n      dup2\n      mstore\n      0x04\n      add\n      tag_306\n      swap1\n      tag_307\n      jump\t// in\n    tag_306:\n      mload(0x40)\n      dup1\n      swap2\n      sub\n      swap1\n      revert\n    tag_305:\n        /* \"contracts/bettoken.sol\":4277:4344  calculatePrivateSaleTokens(usdAmount.mul(latestPrice).div(1 ether)) */\n      tag_308\n        /* \"contracts/bettoken.sol\":4304:4343  usdAmount.mul(latestPrice).div(1 ether) */\n      tag_309\n        /* \"contracts/bettoken.sol\":4335:4342  1 ether */\n      0x0de0b6b3a7640000\n        /* \"contracts/bettoken.sol\":4304:4330  usdAmount.mul(latestPrice) */\n      tag_310\n        /* \"contracts/bettoken.sol\":4318:4329  latestPrice */\n      dup6\n        /* \"contracts/bettoken.sol\":4304:4313  usdAmount */\n      dup8\n        /* \"contracts/bettoken.sol\":4304:4317  usdAmount.mul */\n      tag_311\n      swap1\n        /* \"contracts/bettoken.sol\":4304:4330  usdAmount.mul(latestPrice) */\n      swap2\n      swap1\n      0xffffffff\n      and\n      jump\t// in\n    tag_310:\n        /* \"contracts/bettoken.sol\":4304:4334  usdAmount.mul(latestPrice).div */\n      tag_312\n      swap1\n        /* \"contracts/bettoken.sol\":4304:4343  usdAmount.mul(latestPrice).div(1 ether) */\n      swap2\n      swap1\n      0xffffffff\n      and\n      jump\t// in\n    tag_309:\n        /* \"contracts/bettoken.sol\":4277:4303  calculatePrivateSaleTokens */\n      tag_313\n        /* \"contracts/bettoken.sol\":4277:4344  calculatePrivateSaleTokens(usdAmount.mul(latestPrice).div(1 ether)) */\n      jump\t// in\n    tag_308:\n        /* \"contracts/bettoken.sol\":4263:4344  tokensToBuy = calculatePrivateSaleTokens(usdAmount.mul(latestPrice).div(1 ether)) */\n      swap1\n      pop\n        /* \"contracts/bettoken.sol\":4382:4420  privateSaleSoldTokens.add(tokensToBuy) */\n      tag_314\n        /* \"contracts/bettoken.sol\":4408:4419  tokensToBuy */\n      dup2\n        /* \"contracts/bettoken.sol\":4382:4403  privateSaleSoldTokens */\n      sload(0x0b)\n        /* \"contracts/bettoken.sol\":4382:4407  privateSaleSoldTokens.add */\n      tag_315\n      swap1\n        /* \"contracts/bettoken.sol\":4382:4420  privateSaleSoldTokens.add(tokensToBuy) */\n      swap2\n      swap1\n      0xffffffff\n      and\n      jump\t// in\n    tag_314:\n        /* \"contracts/bettoken.sol\":4358:4379  privateSaleSoldTokens */\n      0x0b\n        /* \"contracts/bettoken.sol\":4358:4420  privateSaleSoldTokens = privateSaleSoldTokens.add(tokensToBuy) */\n      dup2\n      swap1\n      sstore\n      pop\n        /* \"contracts/bettoken.sol\":4467:4484  privateSaleTokens */\n      sload(0x08)\n        /* \"contracts/bettoken.sol\":4442:4463  privateSaleSoldTokens */\n      sload(0x0b)\n        /* \"contracts/bettoken.sol\":4442:4484  privateSaleSoldTokens <= privateSaleTokens */\n      gt\n      iszero\n        /* \"contracts/bettoken.sol\":4434:4522  require(privateSaleSoldTokens <= privateSaleTokens, \"Exceeds Private Sale token limit.\") */\n      tag_316\n      jumpi\n      mload(0x40)\n      0x08c379a000000000000000000000000000000000000000000000000000000000\n      dup2\n      mstore\n      0x04\n      add\n      tag_317\n      swap1\n      tag_318\n      jump\t// in\n    tag_317:\n      mload(0x40)\n      dup1\n      swap2\n      sub\n      swap1\n      revert\n    tag_316:\n        /* \"contracts/bettoken.sol\":4565:4608  vestingBalance[msg.sender].add(tokensToBuy) */\n      tag_319\n        /* \"contracts/bettoken.sol\":4596:4607  tokensToBuy */\n      dup2\n        /* \"contracts/bettoken.sol\":4565:4579  vestingBalance */\n      0x12\n        /* \"contracts/bettoken.sol\":4565:4591  vestingBalance[msg.sender] */\n      0x00\n        /* \"contracts/bettoken.sol\":4580:4590  msg.sender */\n      caller\n        /* \"contracts/bettoken.sol\":4565:4591  vestingBalance[msg.sender] */\n      0xffffffffffffffffffffffffffffffffffffffff\n      and\n      0xffffffffffffffffffffffffffffffffffffffff\n      and\n      dup2\n      mstore\n      0x20\n      add\n      swap1\n      dup2\n      mstore\n      0x20\n      add\n      0x00\n      keccak256\n      sload\n        /* \"contracts/bettoken.sol\":4565:4595  vestingBalance[msg.sender].add */\n      tag_315\n      swap1\n        /* \"contracts/bettoken.sol\":4565:4608  vestingBalance[msg.sender].add(tokensToBuy) */\n      swap2\n      swap1\n      0xffffffff\n      and\n      jump\t// in\n    tag_319:\n        /* \"contracts/bettoken.sol\":4536:4550  vestingBalance */\n      0x12\n        /* \"contracts/bettoken.sol\":4536:4562  vestingBalance[msg.sender] */\n      0x00\n        /* \"contracts/bettoken.sol\":4551:4561  msg.sender */\n      caller\n        /* \"contracts/bettoken.sol\":4536:4562  vestingBalance[msg.sender] */\n      0xffffffffffffffffffffffffffffffffffffffff\n      and\n      0xffffffffffffffffffffffffffffffffffffffff\n      and\n      dup2\n      mstore\n      0x20\n      add\n      swap1\n      dup2\n      mstore\n      0x20\n      add\n      0x00\n      keccak256\n        /* \"contracts/bettoken.sol\":4536:4608  vestingBalance[msg.sender] = vestingBalance[msg.sender].add(tokensToBuy) */\n      dup2\n      swap1\n      sstore\n      pop\n        /* \"contracts/bettoken.sol\":4655:4710  block.timestamp.add(stakeDuration).add(vestingDuration) */\n      tag_320\n        /* \"contracts/bettoken.sol\":4694:4709  vestingDuration */\n      sload(0x14)\n        /* \"contracts/bettoken.sol\":4655:4689  block.timestamp.add(stakeDuration) */\n      tag_321\n        /* \"contracts/bettoken.sol\":4675:4688  stakeDuration */\n      sload(0x15)\n        /* \"contracts/bettoken.sol\":4655:4670  block.timestamp */\n      timestamp\n        /* \"contracts/bettoken.sol\":4655:4674  block.timestamp.add */\n      tag_315\n      swap1\n        /* \"contracts/bettoken.sol\":4655:4689  block.timestamp.add(stakeDuration) */\n      swap2\n      swap1\n      0xffffffff\n      and\n      jump\t// in\n    tag_321:\n        /* \"contracts/bettoken.sol\":4655:4693  block.timestamp.add(stakeDuration).add */\n      tag_315\n      swap1\n        /* \"contracts/bettoken.sol\":4655:4710  block.timestamp.add(stakeDuration).add(vestingDuration) */\n      swap2\n      swap1\n      0xffffffff\n      and\n      jump\t// in\n    tag_320:\n        /* \"contracts/bettoken.sol\":4622:4640  vestingReleaseTime */\n      0x13\n        /* \"contracts/bettoken.sol\":4622:4652  vestingReleaseTime[msg.sender] */\n      0x00\n        /* \"contracts/bettoken.sol\":4641:4651  msg.sender */\n      caller\n        /* \"contracts/bettoken.sol\":4622:4652  vestingReleaseTime[msg.sender] */\n      0xffffffffffffffffffffffffffffffffffffffff\n      and\n      0xffffffffffffffffffffffffffffffffffffffff\n      and\n      dup2\n      mstore\n      0x20\n      add\n      swap1\n      dup2\n      mstore\n      0x20\n      add\n      0x00\n      keccak256\n        /* \"contracts/bettoken.sol\":4622:4710  vestingReleaseTime[msg.sender] = block.timestamp.add(stakeDuration).add(vestingDuration) */\n      dup2\n      swap1\n      sstore\n      pop\n        /* \"contracts/bettoken.sol\":4741:4751  msg.sender */\n      caller\n        /* \"contracts/bettoken.sol\":4729:4765  PrivateSale(msg.sender, tokensToBuy) */\n      0xffffffffffffffffffffffffffffffffffffffff\n      and\n      0x8fa81bb0702332ea2a0aee44bb9e4d359cf4a2c5a820dd59d9129369bdbca73f\n        /* \"contracts/bettoken.sol\":4753:4764  tokensToBuy */\n      dup3\n        /* \"contracts/bettoken.sol\":4729:4765  PrivateSale(msg.sender, tokensToBuy) */\n      mload(0x40)\n      tag_322\n      swap2\n      swap1\n      tag_71\n      jump\t// in\n    tag_322:\n      mload(0x40)\n      dup1\n      swap2\n      sub\n      swap1\n      log2\n        /* \"contracts/bettoken.sol\":4127:5383  if (stage == SaleStage.PRIVATE) {... */\n      jump(tag_323)\n    tag_304:\n        /* \"contracts/bettoken.sol\":4795:4812  SaleStage.PRESALE */\n      0x02\n        /* \"contracts/bettoken.sol\":4786:4812  stage == SaleStage.PRESALE */\n      dup1\n      dup2\n      gt\n      iszero\n      tag_324\n      jumpi\n      tag_325\n      tag_265\n      jump\t// in\n    tag_325:\n    tag_324:\n        /* \"contracts/bettoken.sol\":4786:4791  stage */\n      0x11\n      0x00\n      swap1\n      sload\n      swap1\n      0x0100\n      exp\n      swap1\n      div\n      0xff\n      and\n        /* \"contracts/bettoken.sol\":4786:4812  stage == SaleStage.PRESALE */\n      0x02\n      dup2\n      gt\n      iszero\n      tag_326\n      jumpi\n      tag_327\n      tag_265\n      jump\t// in\n    tag_327:\n    tag_326:\n      sub\n        /* \"contracts/bettoken.sol\":4782:5383  if (stage == SaleStage.PRESALE) {... */\n      tag_328\n      jumpi\n        /* \"contracts/bettoken.sol\":4856:4869  preSaleTokens */\n      sload(0x0d)\n        /* \"contracts/bettoken.sol\":4836:4853  preSaleSoldTokens */\n      sload(0x10)\n        /* \"contracts/bettoken.sol\":4836:4869  preSaleSoldTokens < preSaleTokens */\n      lt\n        /* \"contracts/bettoken.sol\":4828:4892  require(preSaleSoldTokens < preSaleTokens, \"Pre-Sale sold out.\") */\n      tag_329\n      jumpi\n      mload(0x40)\n      0x08c379a000000000000000000000000000000000000000000000000000000000\n      dup2\n      mstore\n      0x04\n      add\n      tag_330\n      swap1\n      tag_331\n      jump\t// in\n    tag_330:\n      mload(0x40)\n      dup1\n      swap2\n      sub\n      swap1\n      revert\n    tag_329:\n        /* \"contracts/bettoken.sol\":4927:4941  100 * 10 ** 18 */\n      0x056bc75e2d63100000\n        /* \"contracts/bettoken.sol\":4914:4923  usdAmount */\n      dup4\n        /* \"contracts/bettoken.sol\":4914:4941  usdAmount >= 100 * 10 ** 18 */\n      lt\n      iszero\n        /* \"contracts/bettoken.sol\":4914:4974  usdAmount >= 100 * 10 ** 18 && usdAmount <= 3_000 * 10 ** 18 */\n      dup1\n      iszero\n      tag_332\n      jumpi\n      pop\n        /* \"contracts/bettoken.sol\":4958:4974  3_000 * 10 ** 18 */\n      0xa2a15d09519be00000\n        /* \"contracts/bettoken.sol\":4945:4954  usdAmount */\n      dup4\n        /* \"contracts/bettoken.sol\":4945:4974  usdAmount <= 3_000 * 10 ** 18 */\n      gt\n      iszero\n        /* \"contracts/bettoken.sol\":4914:4974  usdAmount >= 100 * 10 ** 18 && usdAmount <= 3_000 * 10 ** 18 */\n    tag_332:\n        /* \"contracts/bettoken.sol\":4906:5009  require(usdAmount >= 100 * 10 ** 18 && usdAmount <= 3_000 * 10 ** 18, \"Purchase amount out of limits.\") */\n      tag_333\n      jumpi\n      mload(0x40)\n      0x08c379a000000000000000000000000000000000000000000000000000000000\n      dup2\n      mstore\n      0x04\n      add\n      tag_334\n      swap1\n      tag_335\n      jump\t// in\n    tag_334:\n      mload(0x40)\n      dup1\n      swap2\n      sub\n      swap1\n      revert\n    tag_333:\n        /* \"contracts/bettoken.sol\":5037:5100  calculatePreSaleTokens(usdAmount.mul(latestPrice).div(1 ether)) */\n      tag_336\n        /* \"contracts/bettoken.sol\":5060:5099  usdAmount.mul(latestPrice).div(1 ether) */\n      tag_337\n        /* \"contracts/bettoken.sol\":5091:5098  1 ether */\n      0x0de0b6b3a7640000\n        /* \"contracts/bettoken.sol\":5060:5086  usdAmount.mul(latestPrice) */\n      tag_338\n        /* \"contracts/bettoken.sol\":5074:5085  latestPrice */\n      dup6\n        /* \"contracts/bettoken.sol\":5060:5069  usdAmount */\n      dup8\n        /* \"contracts/bettoken.sol\":5060:5073  usdAmount.mul */\n      tag_311\n      swap1\n        /* \"contracts/bettoken.sol\":5060:5086  usdAmount.mul(latestPrice) */\n      swap2\n      swap1\n      0xffffffff\n      and\n      jump\t// in\n    tag_338:\n        /* \"contracts/bettoken.sol\":5060:5090  usdAmount.mul(latestPrice).div */\n      tag_312\n      swap1\n        /* \"contracts/bettoken.sol\":5060:5099  usdAmount.mul(latestPrice).div(1 ether) */\n      swap2\n      swap1\n      0xffffffff\n      and\n      jump\t// in\n    tag_337:\n        /* \"contracts/bettoken.sol\":5037:5059  calculatePreSaleTokens */\n      tag_339\n        /* \"contracts/bettoken.sol\":5037:5100  calculatePreSaleTokens(usdAmount.mul(latestPrice).div(1 ether)) */\n      jump\t// in\n    tag_336:\n        /* \"contracts/bettoken.sol\":5023:5100  tokensToBuy = calculatePreSaleTokens(usdAmount.mul(latestPrice).div(1 ether)) */\n      swap1\n      pop\n        /* \"contracts/bettoken.sol\":5134:5168  preSaleSoldTokens.add(tokensToBuy) */\n      tag_340\n        /* \"contracts/bettoken.sol\":5156:5167  tokensToBuy */\n      dup2\n        /* \"contracts/bettoken.sol\":5134:5151  preSaleSoldTokens */\n      sload(0x10)\n        /* \"contracts/bettoken.sol\":5134:5155  preSaleSoldTokens.add */\n      tag_315\n      swap1\n        /* \"contracts/bettoken.sol\":5134:5168  preSaleSoldTokens.add(tokensToBuy) */\n      swap2\n      swap1\n      0xffffffff\n      and\n      jump\t// in\n    tag_340:\n        /* \"contracts/bettoken.sol\":5114:5131  preSaleSoldTokens */\n      0x10\n        /* \"contracts/bettoken.sol\":5114:5168  preSaleSoldTokens = preSaleSoldTokens.add(tokensToBuy) */\n      dup2\n      swap1\n      sstore\n      pop\n        /* \"contracts/bettoken.sol\":5211:5224  preSaleTokens */\n      sload(0x0d)\n        /* \"contracts/bettoken.sol\":5190:5207  preSaleSoldTokens */\n      sload(0x10)\n        /* \"contracts/bettoken.sol\":5190:5224  preSaleSoldTokens <= preSaleTokens */\n      gt\n      iszero\n        /* \"contracts/bettoken.sol\":5182:5258  require(preSaleSoldTokens <= preSaleTokens, \"Exceeds Pre-Sale token limit.\") */\n      tag_341\n      jumpi\n      mload(0x40)\n      0x08c379a000000000000000000000000000000000000000000000000000000000\n      dup2\n      mstore\n      0x04\n      add\n      tag_342\n      swap1\n      tag_343\n      jump\t// in\n    tag_342:\n      mload(0x40)\n      dup1\n      swap2\n      sub\n      swap1\n      revert\n    tag_341:\n        /* \"contracts/bettoken.sol\":5272:5321  _transfer(address(this), msg.sender, tokensToBuy) */\n      tag_344\n        /* \"contracts/bettoken.sol\":5290:5294  this */\n      address\n        /* \"contracts/bettoken.sol\":5297:5307  msg.sender */\n      caller\n        /* \"contracts/bettoken.sol\":5309:5320  tokensToBuy */\n      dup4\n        /* \"contracts/bettoken.sol\":5272:5281  _transfer */\n      tag_240\n        /* \"contracts/bettoken.sol\":5272:5321  _transfer(address(this), msg.sender, tokensToBuy) */\n      jump\t// in\n    tag_344:\n        /* \"contracts/bettoken.sol\":5348:5358  msg.sender */\n      caller\n        /* \"contracts/bettoken.sol\":5340:5372  PreSale(msg.sender, tokensToBuy) */\n      0xffffffffffffffffffffffffffffffffffffffff\n      and\n      0x550498dc565cc74203b9d14cba907c9f60ceefe26e82b37df98f6cb98529cf19\n        /* \"contracts/bettoken.sol\":5360:5371  tokensToBuy */\n      dup3\n        /* \"contracts/bettoken.sol\":5340:5372  PreSale(msg.sender, tokensToBuy) */\n      mload(0x40)\n      tag_345\n      swap2\n      swap1\n      tag_71\n      jump\t// in\n    tag_345:\n      mload(0x40)\n      dup1\n      swap2\n      sub\n      swap1\n      log2\n        /* \"contracts/bettoken.sol\":4782:5383  if (stage == SaleStage.PRESALE) {... */\n    tag_328:\n        /* \"contracts/bettoken.sol\":4127:5383  if (stage == SaleStage.PRIVATE) {... */\n    tag_323:\n        /* \"contracts/bettoken.sol\":3911:5389  {... */\n      pop\n      pop\n        /* \"@openzeppelin/contracts/security/ReentrancyGuard.sol\":2303:2323  _nonReentrantAfter() */\n      tag_346\n        /* \"@openzeppelin/contracts/security/ReentrancyGuard.sol\":2303:2321  _nonReentrantAfter */\n      tag_254\n        /* \"@openzeppelin/contracts/security/ReentrancyGuard.sol\":2303:2323  _nonReentrantAfter() */\n      jump\t// in\n    tag_346:\n        /* \"contracts/bettoken.sol\":3843:5389  function buyTokens(uint256 usdAmount) external payable nonReentrant {... */\n      pop\n      jump\t// out\n        /* \"contracts/bettoken.sol\":1664:1703  uint256 public stakeDuration = 365 days */\n    tag_123:\n      sload(0x15)\n      dup2\n      jump\t// out\n        /* \"contracts/bettoken.sol\":7311:7785  function releaseVestedTokens() external nonReentrant {... */\n    tag_127:\n        /* \"@openzeppelin/contracts/security/ReentrancyGuard.sol\":2261:2282  _nonReentrantBefore() */\n      tag_348\n        /* \"@openzeppelin/contracts/security/ReentrancyGuard.sol\":2261:2280  _nonReentrantBefore */\n      tag_246\n        /* \"@openzeppelin/contracts/security/ReentrancyGuard.sol\":2261:2282  _nonReentrantBefore() */\n      jump\t// in\n    tag_348:\n        /* \"contracts/bettoken.sol\":7401:7419  vestingReleaseTime */\n      0x13\n        /* \"contracts/bettoken.sol\":7401:7431  vestingReleaseTime[msg.sender] */\n      0x00\n        /* \"contracts/bettoken.sol\":7420:7430  msg.sender */\n      caller\n        /* \"contracts/bettoken.sol\":7401:7431  vestingReleaseTime[msg.sender] */\n      0xffffffffffffffffffffffffffffffffffffffff\n      and\n      0xffffffffffffffffffffffffffffffffffffffff\n      and\n      dup2\n      mstore\n      0x20\n      add\n      swap1\n      dup2\n      mstore\n      0x20\n      add\n      0x00\n      keccak256\n      sload\n        /* \"contracts/bettoken.sol\":7382:7397  block.timestamp */\n      timestamp\n        /* \"contracts/bettoken.sol\":7382:7431  block.timestamp >= vestingReleaseTime[msg.sender] */\n      lt\n      iszero\n        /* \"contracts/bettoken.sol\":7374:7469  require(block.timestamp >= vestingReleaseTime[msg.sender], \"Vesting period not yet completed.\") */\n      tag_350\n      jumpi\n      mload(0x40)\n      0x08c379a000000000000000000000000000000000000000000000000000000000\n      dup2\n      mstore\n      0x04\n      add\n      tag_351\n      swap1\n      tag_352\n      jump\t// in\n    tag_351:\n      mload(0x40)\n      dup1\n      swap2\n      sub\n      swap1\n      revert\n    tag_350:\n        /* \"contracts/bettoken.sol\":7479:7493  uint256 amount */\n      0x00\n        /* \"contracts/bettoken.sol\":7496:7510  vestingBalance */\n      0x12\n        /* \"contracts/bettoken.sol\":7496:7522  vestingBalance[msg.sender] */\n      0x00\n        /* \"contracts/bettoken.sol\":7511:7521  msg.sender */\n      caller\n        /* \"contracts/bettoken.sol\":7496:7522  vestingBalance[msg.sender] */\n      0xffffffffffffffffffffffffffffffffffffffff\n      and\n      0xffffffffffffffffffffffffffffffffffffffff\n      and\n      dup2\n      mstore\n      0x20\n      add\n      swap1\n      dup2\n      mstore\n      0x20\n      add\n      0x00\n      keccak256\n      sload\n        /* \"contracts/bettoken.sol\":7479:7522  uint256 amount = vestingBalance[msg.sender] */\n      swap1\n      pop\n        /* \"contracts/bettoken.sol\":7549:7550  0 */\n      0x00\n        /* \"contracts/bettoken.sol\":7540:7546  amount */\n      dup2\n        /* \"contracts/bettoken.sol\":7540:7550  amount > 0 */\n      gt\n        /* \"contracts/bettoken.sol\":7532:7582  require(amount > 0, \"No vested tokens to release\") */\n      tag_353\n      jumpi\n      mload(0x40)\n      0x08c379a000000000000000000000000000000000000000000000000000000000\n      dup2\n      mstore\n      0x04\n      add\n      tag_354\n      swap1\n      tag_355\n      jump\t// in\n    tag_354:\n      mload(0x40)\n      dup1\n      swap2\n      sub\n      swap1\n      revert\n    tag_353:\n        /* \"contracts/bettoken.sol\":7622:7623  0 */\n      0x00\n        /* \"contracts/bettoken.sol\":7593:7607  vestingBalance */\n      0x12\n        /* \"contracts/bettoken.sol\":7593:7619  vestingBalance[msg.sender] */\n      0x00\n        /* \"contracts/bettoken.sol\":7608:7618  msg.sender */\n      caller\n        /* \"contracts/bettoken.sol\":7593:7619  vestingBalance[msg.sender] */\n      0xffffffffffffffffffffffffffffffffffffffff\n      and\n      0xffffffffffffffffffffffffffffffffffffffff\n      and\n      dup2\n      mstore\n      0x20\n      add\n      swap1\n      dup2\n      mstore\n      0x20\n      add\n      0x00\n      keccak256\n        /* \"contracts/bettoken.sol\":7593:7623  vestingBalance[msg.sender] = 0 */\n      dup2\n      swap1\n      sstore\n      pop\n        /* \"contracts/bettoken.sol\":7666:7667  0 */\n      0x00\n        /* \"contracts/bettoken.sol\":7633:7651  vestingReleaseTime */\n      0x13\n        /* \"contracts/bettoken.sol\":7633:7663  vestingReleaseTime[msg.sender] */\n      0x00\n        /* \"contracts/bettoken.sol\":7652:7662  msg.sender */\n      caller\n        /* \"contracts/bettoken.sol\":7633:7663  vestingReleaseTime[msg.sender] */\n      0xffffffffffffffffffffffffffffffffffffffff\n      and\n      0xffffffffffffffffffffffffffffffffffffffff\n      and\n      dup2\n      mstore\n      0x20\n      add\n      swap1\n      dup2\n      mstore\n      0x20\n      add\n      0x00\n      keccak256\n        /* \"contracts/bettoken.sol\":7633:7667  vestingReleaseTime[msg.sender] = 0 */\n      dup2\n      swap1\n      sstore\n      pop\n        /* \"contracts/bettoken.sol\":7678:7722  _transfer(address(this), msg.sender, amount) */\n      tag_356\n        /* \"contracts/bettoken.sol\":7696:7700  this */\n      address\n        /* \"contracts/bettoken.sol\":7703:7713  msg.sender */\n      caller\n        /* \"contracts/bettoken.sol\":7715:7721  amount */\n      dup4\n        /* \"contracts/bettoken.sol\":7678:7687  _transfer */\n      tag_240\n        /* \"contracts/bettoken.sol\":7678:7722  _transfer(address(this), msg.sender, amount) */\n      jump\t// in\n    tag_356:\n        /* \"contracts/bettoken.sol\":7759:7769  msg.sender */\n      caller\n        /* \"contracts/bettoken.sol\":7738:7778  VestedTokensReleased(msg.sender, amount) */\n      0xffffffffffffffffffffffffffffffffffffffff\n      and\n      0x6bc5063c7239b75c8bf325a2a2238f726fada322163996bb6c93d5594fb119f0\n        /* \"contracts/bettoken.sol\":7771:7777  amount */\n      dup3\n        /* \"contracts/bettoken.sol\":7738:7778  VestedTokensReleased(msg.sender, amount) */\n      mload(0x40)\n      tag_357\n      swap2\n      swap1\n      tag_71\n      jump\t// in\n    tag_357:\n      mload(0x40)\n      dup1\n      swap2\n      sub\n      swap1\n      log2\n        /* \"contracts/bettoken.sol\":7364:7785  {... */\n      pop\n        /* \"@openzeppelin/contracts/security/ReentrancyGuard.sol\":2303:2323  _nonReentrantAfter() */\n      tag_358\n        /* \"@openzeppelin/contracts/security/ReentrancyGuard.sol\":2303:2321  _nonReentrantAfter */\n      tag_254\n        /* \"@openzeppelin/contracts/security/ReentrancyGuard.sol\":2303:2323  _nonReentrantAfter() */\n      jump\t// in\n    tag_358:\n        /* \"contracts/bettoken.sol\":7311:7785  function releaseVestedTokens() external nonReentrant {... */\n      jump\t// out\n        /* \"contracts/bettoken.sol\":3496:3837  function startPreSale() external onlyOwner {... */\n    tag_130:\n        /* \"@openzeppelin/contracts/access/Ownable.sol\":1531:1544  _checkOwner() */\n      tag_360\n        /* \"@openzeppelin/contracts/access/Ownable.sol\":1531:1542  _checkOwner */\n      tag_243\n        /* \"@openzeppelin/contracts/access/Ownable.sol\":1531:1544  _checkOwner() */\n      jump\t// in\n    tag_360:\n        /* \"contracts/bettoken.sol\":3566:3583  SaleStage.PRIVATE */\n      0x01\n        /* \"contracts/bettoken.sol\":3557:3583  stage == SaleStage.PRIVATE */\n      0x02\n      dup2\n      gt\n      iszero\n      tag_362\n      jumpi\n      tag_363\n      tag_265\n      jump\t// in\n    tag_363:\n    tag_362:\n        /* \"contracts/bettoken.sol\":3557:3562  stage */\n      0x11\n      0x00\n      swap1\n      sload\n      swap1\n      0x0100\n      exp\n      swap1\n      div\n      0xff\n      and\n        /* \"contracts/bettoken.sol\":3557:3583  stage == SaleStage.PRIVATE */\n      0x02\n      dup2\n      gt\n      iszero\n      tag_364\n      jumpi\n      tag_365\n      tag_265\n      jump\t// in\n    tag_365:\n    tag_364:\n      eq\n        /* \"contracts/bettoken.sol\":3549:3631  require(stage == SaleStage.PRIVATE, \"Pre-Sale can only start after Private Sale.\") */\n      tag_366\n      jumpi\n      mload(0x40)\n      0x08c379a000000000000000000000000000000000000000000000000000000000\n      dup2\n      mstore\n      0x04\n      add\n      tag_367\n      swap1\n      tag_368\n      jump\t// in\n    tag_367:\n      mload(0x40)\n      dup1\n      swap2\n      sub\n      swap1\n      revert\n    tag_366:\n        /* \"contracts/bettoken.sol\":3674:3691  privateSaleTokens */\n      sload(0x08)\n        /* \"contracts/bettoken.sol\":3649:3670  privateSaleSoldTokens */\n      sload(0x0b)\n        /* \"contracts/bettoken.sol\":3649:3691  privateSaleSoldTokens == privateSaleTokens */\n      eq\n        /* \"contracts/bettoken.sol\":3641:3752  require(privateSaleSoldTokens == privateSaleTokens, \"Private Sale must be completed before starting Pre-Sale.\") */\n      tag_369\n      jumpi\n      mload(0x40)\n      0x08c379a000000000000000000000000000000000000000000000000000000000\n      dup2\n      mstore\n      0x04\n      add\n      tag_370\n      swap1\n      tag_371\n      jump\t// in\n    tag_370:\n      mload(0x40)\n      dup1\n      swap2\n      sub\n      swap1\n      revert\n    tag_369:\n        /* \"contracts/bettoken.sol\":3779:3796  SaleStage.PRESALE */\n      0x02\n        /* \"contracts/bettoken.sol\":3771:3776  stage */\n      0x11\n      0x00\n        /* \"contracts/bettoken.sol\":3771:3796  stage = SaleStage.PRESALE */\n      0x0100\n      exp\n      dup2\n      sload\n      dup2\n      0xff\n      mul\n      not\n      and\n      swap1\n      dup4\n      0x02\n      dup2\n      gt\n      iszero\n      tag_372\n      jumpi\n      tag_373\n      tag_265\n      jump\t// in\n    tag_373:\n    tag_372:\n      mul\n      or\n      swap1\n      sstore\n      pop\n        /* \"contracts/bettoken.sol\":3811:3830  StageChanged(stage) */\n      0x273467821f33675618854603ef917ebcec8a1a39f95c43d5564ed1aefab870b3\n        /* \"contracts/bettoken.sol\":3824:3829  stage */\n      0x11\n      0x00\n      swap1\n      sload\n      swap1\n      0x0100\n      exp\n      swap1\n      div\n      0xff\n      and\n        /* \"contracts/bettoken.sol\":3811:3830  StageChanged(stage) */\n      mload(0x40)\n      tag_374\n      swap2\n      swap1\n      tag_201\n      jump\t// in\n    tag_374:\n      mload(0x40)\n      dup1\n      swap2\n      sub\n      swap1\n      log1\n        /* \"contracts/bettoken.sol\":3496:3837  function startPreSale() external onlyOwner {... */\n      jump\t// out\n        /* \"contracts/bettoken.sol\":926:966  uint256 public privateSaleSoldTokens = 0 */\n    tag_133:\n      sload(0x0b)\n      dup2\n      jump\t// out\n        /* \"@openzeppelin/contracts/token/ERC20/ERC20.sol\":3299:3415  function balanceOf(address account) public view virtual returns (uint256) {... */\n    tag_138:\n        /* \"@openzeppelin/contracts/token/ERC20/ERC20.sol\":3364:3371  uint256 */\n      0x00\n        /* \"@openzeppelin/contracts/token/ERC20/ERC20.sol\":3390:3399  _balances */\n      dup1\n        /* \"@openzeppelin/contracts/token/ERC20/ERC20.sol\":3390:3408  _balances[account] */\n      0x00\n        /* \"@openzeppelin/contracts/token/ERC20/ERC20.sol\":3400:3407  account */\n      dup4\n        /* \"@openzeppelin/contracts/token/ERC20/ERC20.sol\":3390:3408  _balances[account] */\n      0xffffffffffffffffffffffffffffffffffffffff\n      and\n      0xffffffffffffffffffffffffffffffffffffffff\n      and\n      dup2\n      mstore\n      0x20\n      add\n      swap1\n      dup2\n      mstore\n      0x20\n      add\n      0x00\n      keccak256\n      sload\n        /* \"@openzeppelin/contracts/token/ERC20/ERC20.sol\":3383:3408  return _balances[account] */\n      swap1\n      pop\n        /* \"@openzeppelin/contracts/token/ERC20/ERC20.sol\":3299:3415  function balanceOf(address account) public view virtual returns (uint256) {... */\n      swap2\n      swap1\n      pop\n      jump\t// out\n        /* \"@openzeppelin/contracts/access/Ownable.sol\":2293:2394  function renounceOwnership() public virtual onlyOwner {... */\n    tag_142:\n        /* \"@openzeppelin/contracts/access/Ownable.sol\":1531:1544  _checkOwner() */\n      tag_377\n        /* \"@openzeppelin/contracts/access/Ownable.sol\":1531:1542  _checkOwner */\n      tag_243\n        /* \"@openzeppelin/contracts/access/Ownable.sol\":1531:1544  _checkOwner() */\n      jump\t// in\n    tag_377:\n        /* \"@openzeppelin/contracts/access/Ownable.sol\":2357:2387  _transferOwnership(address(0)) */\n      tag_379\n        /* \"@openzeppelin/contracts/access/Ownable.sol\":2384:2385  0 */\n      0x00\n        /* \"@openzeppelin/contracts/access/Ownable.sol\":2357:2375  _transferOwnership */\n      tag_380\n        /* \"@openzeppelin/contracts/access/Ownable.sol\":2357:2387  _transferOwnership(address(0)) */\n      jump\t// in\n    tag_379:\n        /* \"@openzeppelin/contracts/access/Ownable.sol\":2293:2394  function renounceOwnership() public virtual onlyOwner {... */\n      jump\t// out\n        /* \"contracts/bettoken.sol\":6794:7305  function stakeTokens(uint256 amount) external onlyOwner nonReentrant {... */\n    tag_146:\n        /* \"@openzeppelin/contracts/access/Ownable.sol\":1531:1544  _checkOwner() */\n      tag_382\n        /* \"@openzeppelin/contracts/access/Ownable.sol\":1531:1542  _checkOwner */\n      tag_243\n        /* \"@openzeppelin/contracts/access/Ownable.sol\":1531:1544  _checkOwner() */\n      jump\t// in\n    tag_382:\n        /* \"@openzeppelin/contracts/security/ReentrancyGuard.sol\":2261:2282  _nonReentrantBefore() */\n      tag_384\n        /* \"@openzeppelin/contracts/security/ReentrancyGuard.sol\":2261:2280  _nonReentrantBefore */\n      tag_246\n        /* \"@openzeppelin/contracts/security/ReentrancyGuard.sol\":2261:2282  _nonReentrantBefore() */\n      jump\t// in\n    tag_384:\n        /* \"contracts/bettoken.sol\":6890:6891  0 */\n      0x00\n        /* \"contracts/bettoken.sol\":6881:6887  amount */\n      dup2\n        /* \"contracts/bettoken.sol\":6881:6891  amount > 0 */\n      gt\n        /* \"contracts/bettoken.sol\":6873:6925  require(amount > 0, \"Amount must be greater than 0\") */\n      tag_386\n      jumpi\n      mload(0x40)\n      0x08c379a000000000000000000000000000000000000000000000000000000000\n      dup2\n      mstore\n      0x04\n      add\n      tag_387\n      swap1\n      tag_388\n      jump\t// in\n    tag_387:\n      mload(0x40)\n      dup1\n      swap2\n      sub\n      swap1\n      revert\n    tag_386:\n        /* \"contracts/bettoken.sol\":6968:6974  amount */\n      dup1\n        /* \"contracts/bettoken.sol\":6943:6964  balanceOf(msg.sender) */\n      tag_389\n        /* \"contracts/bettoken.sol\":6953:6963  msg.sender */\n      caller\n        /* \"contracts/bettoken.sol\":6943:6952  balanceOf */\n      tag_138\n        /* \"contracts/bettoken.sol\":6943:6964  balanceOf(msg.sender) */\n      jump\t// in\n    tag_389:\n        /* \"contracts/bettoken.sol\":6943:6974  balanceOf(msg.sender) >= amount */\n      lt\n      iszero\n        /* \"contracts/bettoken.sol\":6935:7008  require(balanceOf(msg.sender) >= amount, \"Insufficient balance to stake\") */\n      tag_390\n      jumpi\n      mload(0x40)\n      0x08c379a000000000000000000000000000000000000000000000000000000000\n      dup2\n      mstore\n      0x04\n      add\n      tag_391\n      swap1\n      tag_392\n      jump\t// in\n    tag_391:\n      mload(0x40)\n      dup1\n      swap2\n      sub\n      swap1\n      revert\n    tag_390:\n        /* \"contracts/bettoken.sol\":7019:7063  _transfer(msg.sender, address(this), amount) */\n      tag_393\n        /* \"contracts/bettoken.sol\":7029:7039  msg.sender */\n      caller\n        /* \"contracts/bettoken.sol\":7049:7053  this */\n      address\n        /* \"contracts/bettoken.sol\":7056:7062  amount */\n      dup4\n        /* \"contracts/bettoken.sol\":7019:7028  _transfer */\n      tag_240\n        /* \"contracts/bettoken.sol\":7019:7063  _transfer(msg.sender, address(this), amount) */\n      jump\t// in\n    tag_393:\n        /* \"contracts/bettoken.sol\":7103:7141  vestingBalance[msg.sender].add(amount) */\n      tag_394\n        /* \"contracts/bettoken.sol\":7134:7140  amount */\n      dup2\n        /* \"contracts/bettoken.sol\":7103:7117  vestingBalance */\n      0x12\n        /* \"contracts/bettoken.sol\":7103:7129  vestingBalance[msg.sender] */\n      0x00\n        /* \"contracts/bettoken.sol\":7118:7128  msg.sender */\n      caller\n        /* \"contracts/bettoken.sol\":7103:7129  vestingBalance[msg.sender] */\n      0xffffffffffffffffffffffffffffffffffffffff\n      and\n      0xffffffffffffffffffffffffffffffffffffffff\n      and\n      dup2\n      mstore\n      0x20\n      add\n      swap1\n      dup2\n      mstore\n      0x20\n      add\n      0x00\n      keccak256\n      sload\n        /* \"contracts/bettoken.sol\":7103:7133  vestingBalance[msg.sender].add */\n      tag_315\n      swap1\n        /* \"contracts/bettoken.sol\":7103:7141  vestingBalance[msg.sender].add(amount) */\n      swap2\n      swap1\n      0xffffffff\n      and\n      jump\t// in\n    tag_394:\n        /* \"contracts/bettoken.sol\":7074:7088  vestingBalance */\n      0x12\n        /* \"contracts/bettoken.sol\":7074:7100  vestingBalance[msg.sender] */\n      0x00\n        /* \"contracts/bettoken.sol\":7089:7099  msg.sender */\n      caller\n        /* \"contracts/bettoken.sol\":7074:7100  vestingBalance[msg.sender] */\n      0xffffffffffffffffffffffffffffffffffffffff\n      and\n      0xffffffffffffffffffffffffffffffffffffffff\n      and\n      dup2\n      mstore\n      0x20\n      add\n      swap1\n      dup2\n      mstore\n      0x20\n      add\n      0x00\n      keccak256\n        /* \"contracts/bettoken.sol\":7074:7141  vestingBalance[msg.sender] = vestingBalance[msg.sender].add(amount) */\n      dup2\n      swap1\n      sstore\n      pop\n        /* \"contracts/bettoken.sol\":7184:7218  block.timestamp.add(stakeDuration) */\n      tag_395\n        /* \"contracts/bettoken.sol\":7204:7217  stakeDuration */\n      sload(0x15)\n        /* \"contracts/bettoken.sol\":7184:7199  block.timestamp */\n      timestamp\n        /* \"contracts/bettoken.sol\":7184:7203  block.timestamp.add */\n      tag_315\n      swap1\n        /* \"contracts/bettoken.sol\":7184:7218  block.timestamp.add(stakeDuration) */\n      swap2\n      swap1\n      0xffffffff\n      and\n      jump\t// in\n    tag_395:\n        /* \"contracts/bettoken.sol\":7151:7169  vestingReleaseTime */\n      0x13\n        /* \"contracts/bettoken.sol\":7151:7181  vestingReleaseTime[msg.sender] */\n      0x00\n        /* \"contracts/bettoken.sol\":7170:7180  msg.sender */\n      caller\n        /* \"contracts/bettoken.sol\":7151:7181  vestingReleaseTime[msg.sender] */\n      0xffffffffffffffffffffffffffffffffffffffff\n      and\n      0xffffffffffffffffffffffffffffffffffffffff\n      and\n      dup2\n      mstore\n      0x20\n      add\n      swap1\n      dup2\n      mstore\n      0x20\n      add\n      0x00\n      keccak256\n        /* \"contracts/bettoken.sol\":7151:7218  vestingReleaseTime[msg.sender] = block.timestamp.add(stakeDuration) */\n      dup2\n      swap1\n      sstore\n      pop\n        /* \"contracts/bettoken.sol\":7247:7257  msg.sender */\n      caller\n        /* \"contracts/bettoken.sol\":7234:7298  TokensStaked(msg.sender, amount, vestingReleaseTime[msg.sender]) */\n      0xffffffffffffffffffffffffffffffffffffffff\n      and\n      0xdd2a19c3bdd089cbe77c04f5655f83de0504d6140d12c8667646f55d0557c4dc\n        /* \"contracts/bettoken.sol\":7259:7265  amount */\n      dup3\n        /* \"contracts/bettoken.sol\":7267:7285  vestingReleaseTime */\n      0x13\n        /* \"contracts/bettoken.sol\":7267:7297  vestingReleaseTime[msg.sender] */\n      0x00\n        /* \"contracts/bettoken.sol\":7286:7296  msg.sender */\n      caller\n        /* \"contracts/bettoken.sol\":7267:7297  vestingReleaseTime[msg.sender] */\n      0xffffffffffffffffffffffffffffffffffffffff\n      and\n      0xffffffffffffffffffffffffffffffffffffffff\n      and\n      dup2\n      mstore\n      0x20\n      add\n      swap1\n      dup2\n      mstore\n      0x20\n      add\n      0x00\n      keccak256\n      sload\n        /* \"contracts/bettoken.sol\":7234:7298  TokensStaked(msg.sender, amount, vestingReleaseTime[msg.sender]) */\n      mload(0x40)\n      tag_396\n      swap3\n      swap2\n      swap1\n      tag_397\n      jump\t// in\n    tag_396:\n      mload(0x40)\n      dup1\n      swap2\n      sub\n      swap1\n      log2\n        /* \"@openzeppelin/contracts/security/ReentrancyGuard.sol\":2303:2323  _nonReentrantAfter() */\n      tag_398\n        /* \"@openzeppelin/contracts/security/ReentrancyGuard.sol\":2303:2321  _nonReentrantAfter */\n      tag_254\n        /* \"@openzeppelin/contracts/security/ReentrancyGuard.sol\":2303:2323  _nonReentrantAfter() */\n      jump\t// in\n    tag_398:\n        /* \"contracts/bettoken.sol\":6794:7305  function stakeTokens(uint256 amount) external onlyOwner nonReentrant {... */\n      pop\n      jump\t// out\n        /* \"@openzeppelin/contracts/access/Ownable.sol\":1638:1723  function owner() public view virtual returns (address) {... */\n    tag_149:\n        /* \"@openzeppelin/contracts/access/Ownable.sol\":1684:1691  address */\n      0x00\n        /* \"@openzeppelin/contracts/access/Ownable.sol\":1710:1716  _owner */\n      0x05\n      0x00\n      swap1\n      sload\n      swap1\n      0x0100\n      exp\n      swap1\n      div\n      0xffffffffffffffffffffffffffffffffffffffff\n      and\n        /* \"@openzeppelin/contracts/access/Ownable.sol\":1703:1716  return _owner */\n      swap1\n      pop\n        /* \"@openzeppelin/contracts/access/Ownable.sol\":1638:1723  function owner() public view virtual returns (address) {... */\n      swap1\n      jump\t// out\n        /* \"contracts/bettoken.sol\":2564:3077  function getLatestPrice() public view returns (uint256) {... */\n    tag_154:\n        /* \"contracts/bettoken.sol\":2611:2618  uint256 */\n      0x00\n        /* \"contracts/bettoken.sol\":2630:2648  uint256 totalPrice */\n      dup1\n        /* \"contracts/bettoken.sol\":2651:2652  0 */\n      0x00\n        /* \"contracts/bettoken.sol\":2630:2652  uint256 totalPrice = 0 */\n      swap1\n      pop\n        /* \"contracts/bettoken.sol\":2667:2676  uint256 i */\n      0x00\n        /* \"contracts/bettoken.sol\":2662:2988  for (uint256 i = 0; i < priceFeeds.length; i++) {... */\n    tag_401:\n        /* \"contracts/bettoken.sol\":2686:2696  priceFeeds */\n      0x16\n        /* \"contracts/bettoken.sol\":2686:2703  priceFeeds.length */\n      dup1\n      sload\n      swap1\n      pop\n        /* \"contracts/bettoken.sol\":2682:2683  i */\n      dup2\n        /* \"contracts/bettoken.sol\":2682:2703  i < priceFeeds.length */\n      lt\n        /* \"contracts/bettoken.sol\":2662:2988  for (uint256 i = 0; i < priceFeeds.length; i++) {... */\n      iszero\n      tag_402\n      jumpi\n        /* \"contracts/bettoken.sol\":2760:2769  int price */\n      0x00\n        /* \"contracts/bettoken.sol\":2823:2833  priceFeeds */\n      0x16\n        /* \"contracts/bettoken.sol\":2834:2835  i */\n      dup3\n        /* \"contracts/bettoken.sol\":2823:2836  priceFeeds[i] */\n      dup2\n      sload\n      dup2\n      lt\n      tag_404\n      jumpi\n      tag_405\n      tag_406\n      jump\t// in\n    tag_405:\n    tag_404:\n      swap1\n      0x00\n      mstore\n      keccak256(0x00, 0x20)\n      add\n      0x00\n      swap1\n      sload\n      swap1\n      0x0100\n      exp\n      swap1\n      div\n      0xffffffffffffffffffffffffffffffffffffffff\n      and\n        /* \"contracts/bettoken.sol\":2823:2852  priceFeeds[i].latestRoundData */\n      0xffffffffffffffffffffffffffffffffffffffff\n      and\n      0xfeaf968c\n        /* \"contracts/bettoken.sol\":2823:2854  priceFeeds[i].latestRoundData() */\n      mload(0x40)\n      dup2\n      0xffffffff\n      and\n      0xe0\n      shl\n      dup2\n      mstore\n      0x04\n      add\n      0xa0\n      mload(0x40)\n      dup1\n      dup4\n      sub\n      dup2\n      dup7\n      gas\n      staticcall\n      iszero\n      dup1\n      iszero\n      tag_409\n      jumpi\n      returndatasize\n      0x00\n      dup1\n      returndatacopy\n      revert(0x00, returndatasize)\n    tag_409:\n      pop\n      pop\n      pop\n      pop\n      mload(0x40)\n      returndatasize\n      not(0x1f)\n      0x1f\n      dup3\n      add\n      and\n      dup3\n      add\n      dup1\n      0x40\n      mstore\n      pop\n      dup2\n      add\n      swap1\n      tag_410\n      swap2\n      swap1\n      tag_411\n      jump\t// in\n    tag_410:\n        /* \"contracts/bettoken.sol\":2724:2854  (... */\n      pop\n      pop\n      pop\n      swap2\n      pop\n      pop\n        /* \"contracts/bettoken.sol\":2884:2885  0 */\n      0x00\n        /* \"contracts/bettoken.sol\":2876:2881  price */\n      dup2\n        /* \"contracts/bettoken.sol\":2876:2885  price > 0 */\n      sgt\n        /* \"contracts/bettoken.sol\":2868:2920  require(price > 0, \"Invalid price data from oracle\") */\n      tag_412\n      jumpi\n      mload(0x40)\n      0x08c379a000000000000000000000000000000000000000000000000000000000\n      dup2\n      mstore\n      0x04\n      add\n      tag_413\n      swap1\n      tag_414\n      jump\t// in\n    tag_413:\n      mload(0x40)\n      dup1\n      swap2\n      sub\n      swap1\n      revert\n    tag_412:\n        /* \"contracts/bettoken.sol\":2947:2977  totalPrice.add(uint256(price)) */\n      tag_415\n        /* \"contracts/bettoken.sol\":2970:2975  price */\n      dup2\n        /* \"contracts/bettoken.sol\":2947:2957  totalPrice */\n      dup5\n        /* \"contracts/bettoken.sol\":2947:2961  totalPrice.add */\n      tag_315\n      swap1\n        /* \"contracts/bettoken.sol\":2947:2977  totalPrice.add(uint256(price)) */\n      swap2\n      swap1\n      0xffffffff\n      and\n      jump\t// in\n    tag_415:\n        /* \"contracts/bettoken.sol\":2934:2977  totalPrice = totalPrice.add(uint256(price)) */\n      swap3\n      pop\n        /* \"contracts/bettoken.sol\":2710:2988  {... */\n      pop\n        /* \"contracts/bettoken.sol\":2705:2708  i++ */\n      dup1\n      dup1\n      0x01\n      add\n      swap2\n      pop\n      pop\n        /* \"contracts/bettoken.sol\":2662:2988  for (uint256 i = 0; i < priceFeeds.length; i++) {... */\n      jump(tag_401)\n    tag_402:\n      pop\n        /* \"contracts/bettoken.sol\":3004:3051  totalPrice.div(priceFeeds.length).mul(10 ** 10) */\n      tag_416\n        /* \"contracts/bettoken.sol\":3042:3050  10 ** 10 */\n      0x02540be400\n        /* \"contracts/bettoken.sol\":3004:3037  totalPrice.div(priceFeeds.length) */\n      tag_417\n        /* \"contracts/bettoken.sol\":3019:3029  priceFeeds */\n      0x16\n        /* \"contracts/bettoken.sol\":3019:3036  priceFeeds.length */\n      dup1\n      sload\n      swap1\n      pop\n        /* \"contracts/bettoken.sol\":3004:3014  totalPrice */\n      dup5\n        /* \"contracts/bettoken.sol\":3004:3018  totalPrice.div */\n      tag_312\n      swap1\n        /* \"contracts/bettoken.sol\":3004:3037  totalPrice.div(priceFeeds.length) */\n      swap2\n      swap1\n      0xffffffff\n      and\n      jump\t// in\n    tag_417:\n        /* \"contracts/bettoken.sol\":3004:3041  totalPrice.div(priceFeeds.length).mul */\n      tag_311\n      swap1\n        /* \"contracts/bettoken.sol\":3004:3051  totalPrice.div(priceFeeds.length).mul(10 ** 10) */\n      swap2\n      swap1\n      0xffffffff\n      and\n      jump\t// in\n    tag_416:\n        /* \"contracts/bettoken.sol\":2997:3051  return totalPrice.div(priceFeeds.length).mul(10 ** 10) */\n      swap2\n      pop\n      pop\n        /* \"contracts/bettoken.sol\":2564:3077  function getLatestPrice() public view returns (uint256) {... */\n      swap1\n      jump\t// out\n        /* \"contracts/bettoken.sol\":1242:1289  uint256 public preSaleEndPrice = 0.1 * 10 ** 18 */\n    tag_158:\n      sload(0x0f)\n      dup2\n      jump\t// out\n        /* \"contracts/bettoken.sol\":459:520  uint256 public constant TOTAL_SUPPLY = 200_000_000 * 10 ** 18 */\n    tag_162:\n        /* \"contracts/bettoken.sol\":498:520  200_000_000 * 10 ** 18 */\n      0xa56fa5b99019a5c8000000\n        /* \"contracts/bettoken.sol\":459:520  uint256 public constant TOTAL_SUPPLY = 200_000_000 * 10 ** 18 */\n      dup2\n      jump\t// out\n        /* \"contracts/bettoken.sol\":1161:1213  uint256 public preSaleStartPrice = 0.0505 * 10 ** 18 */\n    tag_166:\n      sload(0x0e)\n      dup2\n      jump\t// out\n        /* \"contracts/bettoken.sol\":8056:8262  function emergencyWithdraw(address tokenAddress, uint256 amount) external onlyOwner nonReentrant {... */\n    tag_171:\n        /* \"@openzeppelin/contracts/access/Ownable.sol\":1531:1544  _checkOwner() */\n      tag_419\n        /* \"@openzeppelin/contracts/access/Ownable.sol\":1531:1542  _checkOwner */\n      tag_243\n        /* \"@openzeppelin/contracts/access/Ownable.sol\":1531:1544  _checkOwner() */\n      jump\t// in\n    tag_419:\n        /* \"@openzeppelin/contracts/security/ReentrancyGuard.sol\":2261:2282  _nonReentrantBefore() */\n      tag_421\n        /* \"@openzeppelin/contracts/security/ReentrancyGuard.sol\":2261:2280  _nonReentrantBefore */\n      tag_246\n        /* \"@openzeppelin/contracts/security/ReentrancyGuard.sol\":2261:2282  _nonReentrantBefore() */\n      jump\t// in\n    tag_421:\n        /* \"contracts/bettoken.sol\":8170:8182  tokenAddress */\n      dup2\n        /* \"contracts/bettoken.sol\":8163:8192  IERC20(tokenAddress).transfer */\n      0xffffffffffffffffffffffffffffffffffffffff\n      and\n      0xa9059cbb\n        /* \"contracts/bettoken.sol\":8193:8200  owner() */\n      tag_423\n        /* \"contracts/bettoken.sol\":8193:8198  owner */\n      tag_149\n        /* \"contracts/bettoken.sol\":8193:8200  owner() */\n      jump\t// in\n    tag_423:\n        /* \"contracts/bettoken.sol\":8202:8208  amount */\n      dup4\n        /* \"contracts/bettoken.sol\":8163:8209  IERC20(tokenAddress).transfer(owner(), amount) */\n      mload(0x40)\n      dup4\n      0xffffffff\n      and\n      0xe0\n      shl\n      dup2\n      mstore\n      0x04\n      add\n      tag_424\n      swap3\n      swap2\n      swap1\n      tag_425\n      jump\t// in\n    tag_424:\n      0x20\n      mload(0x40)\n      dup1\n      dup4\n      sub\n      dup2\n      0x00\n      dup8\n      gas\n      call\n      iszero\n      dup1\n      iszero\n      tag_427\n      jumpi\n      returndatasize\n      0x00\n      dup1\n      returndatacopy\n      revert(0x00, returndatasize)\n    tag_427:\n      pop\n      pop\n      pop\n      pop\n      mload(0x40)\n      returndatasize\n      not(0x1f)\n      0x1f\n      dup3\n      add\n      and\n      dup3\n      add\n      dup1\n      0x40\n      mstore\n      pop\n      dup2\n      add\n      swap1\n      tag_428\n      swap2\n      swap1\n      tag_429\n      jump\t// in\n    tag_428:\n      pop\n        /* \"contracts/bettoken.sol\":8239:8246  owner() */\n      tag_430\n        /* \"contracts/bettoken.sol\":8239:8244  owner */\n      tag_149\n        /* \"contracts/bettoken.sol\":8239:8246  owner() */\n      jump\t// in\n    tag_430:\n        /* \"contracts/bettoken.sol\":8224:8255  FundsWithdrawn(owner(), amount) */\n      0xffffffffffffffffffffffffffffffffffffffff\n      and\n      0xeaff4b37086828766ad3268786972c0cd24259d4c87a80f9d3963a3c3d999b0d\n        /* \"contracts/bettoken.sol\":8248:8254  amount */\n      dup3\n        /* \"contracts/bettoken.sol\":8224:8255  FundsWithdrawn(owner(), amount) */\n      mload(0x40)\n      tag_431\n      swap2\n      swap1\n      tag_71\n      jump\t// in\n    tag_431:\n      mload(0x40)\n      dup1\n      swap2\n      sub\n      swap1\n      log2\n        /* \"@openzeppelin/contracts/security/ReentrancyGuard.sol\":2303:2323  _nonReentrantAfter() */\n      tag_432\n        /* \"@openzeppelin/contracts/security/ReentrancyGuard.sol\":2303:2321  _nonReentrantAfter */\n      tag_254\n        /* \"@openzeppelin/contracts/security/ReentrancyGuard.sol\":2303:2323  _nonReentrantAfter() */\n      jump\t// in\n    tag_432:\n        /* \"contracts/bettoken.sol\":8056:8262  function emergencyWithdraw(address tokenAddress, uint256 amount) external onlyOwner nonReentrant {... */\n      pop\n      pop\n      jump\t// out\n        /* \"@openzeppelin/contracts/token/ERC20/ERC20.sol\":2276:2369  function symbol() public view virtual returns (string memory) {... */\n    tag_174:\n        /* \"@openzeppelin/contracts/token/ERC20/ERC20.sol\":2323:2336  string memory */\n      0x60\n        /* \"@openzeppelin/contracts/token/ERC20/ERC20.sol\":2355:2362  _symbol */\n      0x04\n        /* \"@openzeppelin/contracts/token/ERC20/ERC20.sol\":2348:2362  return _symbol */\n      dup1\n      sload\n      tag_434\n      swap1\n      tag_222\n      jump\t// in\n    tag_434:\n      dup1\n      0x1f\n      add\n      0x20\n      dup1\n      swap2\n      div\n      mul\n      0x20\n      add\n      mload(0x40)\n      swap1\n      dup2\n      add\n      0x40\n      mstore\n      dup1\n      swap3\n      swap2\n      swap1\n      dup2\n      dup2\n      mstore\n      0x20\n      add\n      dup3\n      dup1\n      sload\n      tag_435\n      swap1\n      tag_222\n      jump\t// in\n    tag_435:\n      dup1\n      iszero\n      tag_436\n      jumpi\n      dup1\n      0x1f\n      lt\n      tag_437\n      jumpi\n      0x0100\n      dup1\n      dup4\n      sload\n      div\n      mul\n      dup4\n      mstore\n      swap2\n      0x20\n      add\n      swap2\n      jump(tag_436)\n    tag_437:\n      dup3\n      add\n      swap2\n      swap1\n      0x00\n      mstore\n      keccak256(0x00, 0x20)\n      swap1\n    tag_438:\n      dup2\n      sload\n      dup2\n      mstore\n      swap1\n      0x01\n      add\n      swap1\n      0x20\n      add\n      dup1\n      dup4\n      gt\n      tag_438\n      jumpi\n      dup3\n      swap1\n      sub\n      0x1f\n      and\n      dup3\n      add\n      swap2\n    tag_436:\n      pop\n      pop\n      pop\n      pop\n      pop\n      swap1\n      pop\n        /* \"@openzeppelin/contracts/token/ERC20/ERC20.sol\":2276:2369  function symbol() public view virtual returns (string memory) {... */\n      swap1\n      jump\t// out\n        /* \"@openzeppelin/contracts/token/ERC20/ERC20.sol\":3610:3788  function transfer(address to, uint256 value) public virtual returns (bool) {... */\n    tag_179:\n        /* \"@openzeppelin/contracts/token/ERC20/ERC20.sol\":3679:3683  bool */\n      0x00\n        /* \"@openzeppelin/contracts/token/ERC20/ERC20.sol\":3695:3708  address owner */\n      dup1\n        /* \"@openzeppelin/contracts/token/ERC20/ERC20.sol\":3711:3723  _msgSender() */\n      tag_440\n        /* \"@openzeppelin/contracts/token/ERC20/ERC20.sol\":3711:3721  _msgSender */\n      tag_229\n        /* \"@openzeppelin/contracts/token/ERC20/ERC20.sol\":3711:3723  _msgSender() */\n      jump\t// in\n    tag_440:\n        /* \"@openzeppelin/contracts/token/ERC20/ERC20.sol\":3695:3723  address owner = _msgSender() */\n      swap1\n      pop\n        /* \"@openzeppelin/contracts/token/ERC20/ERC20.sol\":3733:3760  _transfer(owner, to, value) */\n      tag_441\n        /* \"@openzeppelin/contracts/token/ERC20/ERC20.sol\":3743:3748  owner */\n      dup2\n        /* \"@openzeppelin/contracts/token/ERC20/ERC20.sol\":3750:3752  to */\n      dup6\n        /* \"@openzeppelin/contracts/token/ERC20/ERC20.sol\":3754:3759  value */\n      dup6\n        /* \"@openzeppelin/contracts/token/ERC20/ERC20.sol\":3733:3742  _transfer */\n      tag_240\n        /* \"@openzeppelin/contracts/token/ERC20/ERC20.sol\":3733:3760  _transfer(owner, to, value) */\n      jump\t// in\n    tag_441:\n        /* \"@openzeppelin/contracts/token/ERC20/ERC20.sol\":3777:3781  true */\n      0x01\n        /* \"@openzeppelin/contracts/token/ERC20/ERC20.sol\":3770:3781  return true */\n      swap2\n      pop\n      pop\n        /* \"@openzeppelin/contracts/token/ERC20/ERC20.sol\":3610:3788  function transfer(address to, uint256 value) public virtual returns (bool) {... */\n      swap3\n      swap2\n      pop\n      pop\n      jump\t// out\n        /* \"contracts/bettoken.sol\":760:815  uint256 public privateSaleStartPrice = 0.001 * 10 ** 18 */\n    tag_183:\n      sload(0x09)\n      dup2\n      jump\t// out\n        /* \"contracts/bettoken.sol\":1315:1351  uint256 public preSaleSoldTokens = 0 */\n    tag_187:\n      sload(0x10)\n      dup2\n      jump\t// out\n        /* \"contracts/bettoken.sol\":594:649  uint256 public privateSaleTarget = 1_000_000 * 10 ** 18 */\n    tag_191:\n      sload(0x07)\n      dup2\n      jump\t// out\n        /* \"contracts/bettoken.sol\":843:897  uint256 public privateSaleEndPrice = 0.0505 * 10 ** 18 */\n    tag_195:\n      sload(0x0a)\n      dup2\n      jump\t// out\n        /* \"contracts/bettoken.sol\":1423:1462  SaleStage public stage = SaleStage.NONE */\n    tag_199:\n      0x11\n      0x00\n      swap1\n      sload\n      swap1\n      0x0100\n      exp\n      swap1\n      div\n      0xff\n      and\n      dup2\n      jump\t// out\n        /* \"contracts/bettoken.sol\":679:735  uint256 public privateSaleTokens = 38_835_764 * 10 ** 18 */\n    tag_204:\n      sload(0x08)\n      dup2\n      jump\t// out\n        /* \"@openzeppelin/contracts/token/ERC20/ERC20.sol\":3846:3986  function allowance(address owner, address spender) public view virtual returns (uint256) {... */\n    tag_210:\n        /* \"@openzeppelin/contracts/token/ERC20/ERC20.sol\":3926:3933  uint256 */\n      0x00\n        /* \"@openzeppelin/contracts/token/ERC20/ERC20.sol\":3952:3963  _allowances */\n      0x01\n        /* \"@openzeppelin/contracts/token/ERC20/ERC20.sol\":3952:3970  _allowances[owner] */\n      0x00\n        /* \"@openzeppelin/contracts/token/ERC20/ERC20.sol\":3964:3969  owner */\n      dup5\n        /* \"@openzeppelin/contracts/token/ERC20/ERC20.sol\":3952:3970  _allowances[owner] */\n      0xffffffffffffffffffffffffffffffffffffffff\n      and\n      0xffffffffffffffffffffffffffffffffffffffff\n      and\n      dup2\n      mstore\n      0x20\n      add\n      swap1\n      dup2\n      mstore\n      0x20\n      add\n      0x00\n      keccak256\n        /* \"@openzeppelin/contracts/token/ERC20/ERC20.sol\":3952:3979  _allowances[owner][spender] */\n      0x00\n        /* \"@openzeppelin/contracts/token/ERC20/ERC20.sol\":3971:3978  spender */\n      dup4\n        /* \"@openzeppelin/contracts/token/ERC20/ERC20.sol\":3952:3979  _allowances[owner][spender] */\n      0xffffffffffffffffffffffffffffffffffffffff\n      and\n      0xffffffffffffffffffffffffffffffffffffffff\n      and\n      dup2\n      mstore\n      0x20\n      add\n      swap1\n      dup2\n      mstore\n      0x20\n      add\n      0x00\n      keccak256\n      sload\n        /* \"@openzeppelin/contracts/token/ERC20/ERC20.sol\":3945:3979  return _allowances[owner][spender] */\n      swap1\n      pop\n        /* \"@openzeppelin/contracts/token/ERC20/ERC20.sol\":3846:3986  function allowance(address owner, address spender) public view virtual returns (uint256) {... */\n      swap3\n      swap2\n      pop\n      pop\n      jump\t// out\n        /* \"contracts/bettoken.sol\":999:1051  uint256 public preSaleTarget = 19_000_000 * 10 ** 18 */\n    tag_214:\n      sload(0x0c)\n      dup2\n      jump\t// out\n        /* \"@openzeppelin/contracts/access/Ownable.sol\":2543:2758  function transferOwnership(address newOwner) public virtual onlyOwner {... */\n    tag_219:\n        /* \"@openzeppelin/contracts/access/Ownable.sol\":1531:1544  _checkOwner() */\n      tag_444\n        /* \"@openzeppelin/contracts/access/Ownable.sol\":1531:1542  _checkOwner */\n      tag_243\n        /* \"@openzeppelin/contracts/access/Ownable.sol\":1531:1544  _checkOwner() */\n      jump\t// in\n    tag_444:\n        /* \"@openzeppelin/contracts/access/Ownable.sol\":2647:2648  0 */\n      0x00\n        /* \"@openzeppelin/contracts/access/Ownable.sol\":2627:2649  newOwner == address(0) */\n      0xffffffffffffffffffffffffffffffffffffffff\n      and\n        /* \"@openzeppelin/contracts/access/Ownable.sol\":2627:2635  newOwner */\n      dup2\n        /* \"@openzeppelin/contracts/access/Ownable.sol\":2627:2649  newOwner == address(0) */\n      0xffffffffffffffffffffffffffffffffffffffff\n      and\n      sub\n        /* \"@openzeppelin/contracts/access/Ownable.sol\":2623:2714  if (newOwner == address(0)) {... */\n      tag_446\n      jumpi\n        /* \"@openzeppelin/contracts/access/Ownable.sol\":2700:2701  0 */\n      0x00\n        /* \"@openzeppelin/contracts/access/Ownable.sol\":2672:2703  OwnableInvalidOwner(address(0)) */\n      mload(0x40)\n      0x1e4fbdf700000000000000000000000000000000000000000000000000000000\n      dup2\n      mstore\n      0x04\n      add\n      tag_447\n      swap2\n      swap1\n      tag_151\n      jump\t// in\n    tag_447:\n      mload(0x40)\n      dup1\n      swap2\n      sub\n      swap1\n      revert\n        /* \"@openzeppelin/contracts/access/Ownable.sol\":2623:2714  if (newOwner == address(0)) {... */\n    tag_446:\n        /* \"@openzeppelin/contracts/access/Ownable.sol\":2723:2751  _transferOwnership(newOwner) */\n      tag_448\n        /* \"@openzeppelin/contracts/access/Ownable.sol\":2742:2750  newOwner */\n      dup2\n        /* \"@openzeppelin/contracts/access/Ownable.sol\":2723:2741  _transferOwnership */\n      tag_380\n        /* \"@openzeppelin/contracts/access/Ownable.sol\":2723:2751  _transferOwnership(newOwner) */\n      jump\t// in\n    tag_448:\n        /* \"@openzeppelin/contracts/access/Ownable.sol\":2543:2758  function transferOwnership(address newOwner) public virtual onlyOwner {... */\n      pop\n      jump\t// out\n        /* \"@openzeppelin/contracts/utils/Context.sol\":656:752  function _msgSender() internal view virtual returns (address) {... */\n    tag_229:\n        /* \"@openzeppelin/contracts/utils/Context.sol\":709:716  address */\n      0x00\n        /* \"@openzeppelin/contracts/utils/Context.sol\":735:745  msg.sender */\n      caller\n        /* \"@openzeppelin/contracts/utils/Context.sol\":728:745  return msg.sender */\n      swap1\n      pop\n        /* \"@openzeppelin/contracts/utils/Context.sol\":656:752  function _msgSender() internal view virtual returns (address) {... */\n      swap1\n      jump\t// out\n        /* \"@openzeppelin/contracts/token/ERC20/ERC20.sol\":8989:9117  function _approve(address owner, address spender, uint256 value) internal {... */\n    tag_231:\n        /* \"@openzeppelin/contracts/token/ERC20/ERC20.sol\":9073:9110  _approve(owner, spender, value, true) */\n      tag_451\n        /* \"@openzeppelin/contracts/token/ERC20/ERC20.sol\":9082:9087  owner */\n      dup4\n        /* \"@openzeppelin/contracts/token/ERC20/ERC20.sol\":9089:9096  spender */\n      dup4\n        /* \"@openzeppelin/contracts/token/ERC20/ERC20.sol\":9098:9103  value */\n      dup4\n        /* \"@openzeppelin/contracts/token/ERC20/ERC20.sol\":9105:9109  true */\n      0x01\n        /* \"@openzeppelin/contracts/token/ERC20/ERC20.sol\":9073:9081  _approve */\n      tag_452\n        /* \"@openzeppelin/contracts/token/ERC20/ERC20.sol\":9073:9110  _approve(owner, spender, value, true) */\n      jump\t// in\n    tag_451:\n        /* \"@openzeppelin/contracts/token/ERC20/ERC20.sol\":8989:9117  function _approve(address owner, address spender, uint256 value) internal {... */\n      pop\n      pop\n      pop\n      jump\t// out\n        /* \"@openzeppelin/contracts/token/ERC20/ERC20.sol\":10663:11140  function _spendAllowance(address owner, address spender, uint256 value) internal virtual {... */\n    tag_238:\n        /* \"@openzeppelin/contracts/token/ERC20/ERC20.sol\":10762:10786  uint256 currentAllowance */\n      0x00\n        /* \"@openzeppelin/contracts/token/ERC20/ERC20.sol\":10789:10814  allowance(owner, spender) */\n      tag_454\n        /* \"@openzeppelin/contracts/token/ERC20/ERC20.sol\":10799:10804  owner */\n      dup5\n        /* \"@openzeppelin/contracts/token/ERC20/ERC20.sol\":10806:10813  spender */\n      dup5\n        /* \"@openzeppelin/contracts/token/ERC20/ERC20.sol\":10789:10798  allowance */\n      tag_210\n        /* \"@openzeppelin/contracts/token/ERC20/ERC20.sol\":10789:10814  allowance(owner, spender) */\n      jump\t// in\n    tag_454:\n        /* \"@openzeppelin/contracts/token/ERC20/ERC20.sol\":10762:10814  uint256 currentAllowance = allowance(owner, spender) */\n      swap1\n      pop\n        /* \"@openzeppelin/contracts/token/ERC20/ERC20.sol\":10848:10865  type(uint256).max */\n      0xffffffffffffffffffffffffffffffffffffffffffffffffffffffffffffffff\n        /* \"@openzeppelin/contracts/token/ERC20/ERC20.sol\":10828:10844  currentAllowance */\n      dup2\n        /* \"@openzeppelin/contracts/token/ERC20/ERC20.sol\":10828:10865  currentAllowance != type(uint256).max */\n      eq\n        /* \"@openzeppelin/contracts/token/ERC20/ERC20.sol\":10824:11134  if (currentAllowance != type(uint256).max) {... */\n      tag_455\n      jumpi\n        /* \"@openzeppelin/contracts/token/ERC20/ERC20.sol\":10904:10909  value */\n      dup2\n        /* \"@openzeppelin/contracts/token/ERC20/ERC20.sol\":10885:10901  currentAllowance */\n      dup2\n        /* \"@openzeppelin/contracts/token/ERC20/ERC20.sol\":10885:10909  currentAllowance < value */\n      lt\n        /* \"@openzeppelin/contracts/token/ERC20/ERC20.sol\":10881:11011  if (currentAllowance < value) {... */\n      iszero\n      tag_456\n      jumpi\n        /* \"@openzeppelin/contracts/token/ERC20/ERC20.sol\":10963:10970  spender */\n      dup3\n        /* \"@openzeppelin/contracts/token/ERC20/ERC20.sol\":10972:10988  currentAllowance */\n      dup2\n        /* \"@openzeppelin/contracts/token/ERC20/ERC20.sol\":10990:10995  value */\n      dup4\n        /* \"@openzeppelin/contracts/token/ERC20/ERC20.sol\":10936:10996  ERC20InsufficientAllowance(spender, currentAllowance, value) */\n      mload(0x40)\n      0xfb8f41b200000000000000000000000000000000000000000000000000000000\n      dup2\n      mstore\n      0x04\n      add\n      tag_457\n      swap4\n      swap3\n      swap2\n      swap1\n      tag_458\n      jump\t// in\n    tag_457:\n      mload(0x40)\n      dup1\n      swap2\n      sub\n      swap1\n      revert\n        /* \"@openzeppelin/contracts/token/ERC20/ERC20.sol\":10881:11011  if (currentAllowance < value) {... */\n    tag_456:\n        /* \"@openzeppelin/contracts/token/ERC20/ERC20.sol\":11052:11109  _approve(owner, spender, currentAllowance - value, false) */\n      tag_459\n        /* \"@openzeppelin/contracts/token/ERC20/ERC20.sol\":11061:11066  owner */\n      dup5\n        /* \"@openzeppelin/contracts/token/ERC20/ERC20.sol\":11068:11075  spender */\n      dup5\n        /* \"@openzeppelin/contracts/token/ERC20/ERC20.sol\":11096:11101  value */\n      dup5\n        /* \"@openzeppelin/contracts/token/ERC20/ERC20.sol\":11077:11093  currentAllowance */\n      dup5\n        /* \"@openzeppelin/contracts/token/ERC20/ERC20.sol\":11077:11101  currentAllowance - value */\n      sub\n        /* \"@openzeppelin/contracts/token/ERC20/ERC20.sol\":11103:11108  false */\n      0x00\n        /* \"@openzeppelin/contracts/token/ERC20/ERC20.sol\":11052:11060  _approve */\n      tag_452\n        /* \"@openzeppelin/contracts/token/ERC20/ERC20.sol\":11052:11109  _approve(owner, spender, currentAllowance - value, false) */\n      jump\t// in\n    tag_459:\n        /* \"@openzeppelin/contracts/token/ERC20/ERC20.sol\":10824:11134  if (currentAllowance != type(uint256).max) {... */\n    tag_455:\n        /* \"@openzeppelin/contracts/token/ERC20/ERC20.sol\":10752:11140  {... */\n      pop\n        /* \"@openzeppelin/contracts/token/ERC20/ERC20.sol\":10663:11140  function _spendAllowance(address owner, address spender, uint256 value) internal virtual {... */\n      pop\n      pop\n      pop\n      jump\t// out\n        /* \"@openzeppelin/contracts/token/ERC20/ERC20.sol\":5656:5956  function _transfer(address from, address to, uint256 value) internal {... */\n    tag_240:\n        /* \"@openzeppelin/contracts/token/ERC20/ERC20.sol\":5755:5756  0 */\n      0x00\n        /* \"@openzeppelin/contracts/token/ERC20/ERC20.sol\":5739:5757  from == address(0) */\n      0xffffffffffffffffffffffffffffffffffffffff\n      and\n        /* \"@openzeppelin/contracts/token/ERC20/ERC20.sol\":5739:5743  from */\n      dup4\n        /* \"@openzeppelin/contracts/token/ERC20/ERC20.sol\":5739:5757  from == address(0) */\n      0xffffffffffffffffffffffffffffffffffffffff\n      and\n      sub\n        /* \"@openzeppelin/contracts/token/ERC20/ERC20.sol\":5735:5821  if (from == address(0)) {... */\n      tag_461\n      jumpi\n        /* \"@openzeppelin/contracts/token/ERC20/ERC20.sol\":5807:5808  0 */\n      0x00\n        /* \"@openzeppelin/contracts/token/ERC20/ERC20.sol\":5780:5810  ERC20InvalidSender(address(0)) */\n      mload(0x40)\n      0x96c6fd1e00000000000000000000000000000000000000000000000000000000\n      dup2\n      mstore\n      0x04\n      add\n      tag_462\n      swap2\n      swap1\n      tag_151\n      jump\t// in\n    tag_462:\n      mload(0x40)\n      dup1\n      swap2\n      sub\n      swap1\n      revert\n        /* \"@openzeppelin/contracts/token/ERC20/ERC20.sol\":5735:5821  if (from == address(0)) {... */\n    tag_461:\n        /* \"@openzeppelin/contracts/token/ERC20/ERC20.sol\":5848:5849  0 */\n      0x00\n        /* \"@openzeppelin/contracts/token/ERC20/ERC20.sol\":5834:5850  to == address(0) */\n      0xffffffffffffffffffffffffffffffffffffffff\n      and\n        /* \"@openzeppelin/contracts/token/ERC20/ERC20.sol\":5834:5836  to */\n      dup3\n        /* \"@openzeppelin/contracts/token/ERC20/ERC20.sol\":5834:5850  to == address(0) */\n      0xffffffffffffffffffffffffffffffffffffffff\n      and\n      sub\n        /* \"@openzeppelin/contracts/token/ERC20/ERC20.sol\":5830:5916  if (to == address(0)) {... */\n      tag_463\n      jumpi\n        /* \"@openzeppelin/contracts/token/ERC20/ERC20.sol\":5902:5903  0 */\n      0x00\n        /* \"@openzeppelin/contracts/token/ERC20/ERC20.sol\":5873:5905  ERC20InvalidReceiver(address(0)) */\n      mload(0x40)\n      0xec442f0500000000000000000000000000000000000000000000000000000000\n      dup2\n      mstore\n      0x04\n      add\n      tag_464\n      swap2\n      swap1\n      tag_151\n      jump\t// in\n    tag_464:\n      mload(0x40)\n      dup1\n      swap2\n      sub\n      swap1\n      revert\n        /* \"@openzeppelin/contracts/token/ERC20/ERC20.sol\":5830:5916  if (to == address(0)) {... */\n    tag_463:\n        /* \"@openzeppelin/contracts/token/ERC20/ERC20.sol\":5925:5949  _update(from, to, value) */\n      tag_465\n        /* \"@openzeppelin/contracts/token/ERC20/ERC20.sol\":5933:5937  from */\n      dup4\n        /* \"@openzeppelin/contracts/token/ERC20/ERC20.sol\":5939:5941  to */\n      dup4\n        /* \"@openzeppelin/contracts/token/ERC20/ERC20.sol\":5943:5948  value */\n      dup4\n        /* \"@openzeppelin/contracts/token/ERC20/ERC20.sol\":5925:5932  _update */\n      tag_466\n        /* \"@openzeppelin/contracts/token/ERC20/ERC20.sol\":5925:5949  _update(from, to, value) */\n      jump\t// in\n    tag_465:\n        /* \"@openzeppelin/contracts/token/ERC20/ERC20.sol\":5656:5956  function _transfer(address from, address to, uint256 value) internal {... */\n      pop\n      pop\n      pop\n      jump\t// out\n        /* \"@openzeppelin/contracts/access/Ownable.sol\":1796:1958  function _checkOwner() internal view virtual {... */\n    tag_243:\n        /* \"@openzeppelin/contracts/access/Ownable.sol\":1866:1878  _msgSender() */\n      tag_468\n        /* \"@openzeppelin/contracts/access/Ownable.sol\":1866:1876  _msgSender */\n      tag_229\n        /* \"@openzeppelin/contracts/access/Ownable.sol\":1866:1878  _msgSender() */\n      jump\t// in\n    tag_468:\n        /* \"@openzeppelin/contracts/access/Ownable.sol\":1855:1878  owner() != _msgSender() */\n      0xffffffffffffffffffffffffffffffffffffffff\n      and\n        /* \"@openzeppelin/contracts/access/Ownable.sol\":1855:1862  owner() */\n      tag_469\n        /* \"@openzeppelin/contracts/access/Ownable.sol\":1855:1860  owner */\n      tag_149\n        /* \"@openzeppelin/contracts/access/Ownable.sol\":1855:1862  owner() */\n      jump\t// in\n    tag_469:\n        /* \"@openzeppelin/contracts/access/Ownable.sol\":1855:1878  owner() != _msgSender() */\n      0xffffffffffffffffffffffffffffffffffffffff\n      and\n      eq\n        /* \"@openzeppelin/contracts/access/Ownable.sol\":1851:1952  if (owner() != _msgSender()) {... */\n      tag_470\n      jumpi\n        /* \"@openzeppelin/contracts/access/Ownable.sol\":1928:1940  _msgSender() */\n      tag_471\n        /* \"@openzeppelin/contracts/access/Ownable.sol\":1928:1938  _msgSender */\n      tag_229\n        /* \"@openzeppelin/contracts/access/Ownable.sol\":1928:1940  _msgSender() */\n      jump\t// in\n    tag_471:\n        /* \"@openzeppelin/contracts/access/Ownable.sol\":1901:1941  OwnableUnauthorizedAccount(_msgSender()) */\n      mload(0x40)\n      0x118cdaa700000000000000000000000000000000000000000000000000000000\n      dup2\n      mstore\n      0x04\n      add\n      tag_472\n      swap2\n      swap1\n      tag_151\n      jump\t// in\n    tag_472:\n      mload(0x40)\n      dup1\n      swap2\n      sub\n      swap1\n      revert\n        /* \"@openzeppelin/contracts/access/Ownable.sol\":1851:1952  if (owner() != _msgSender()) {... */\n    tag_470:\n        /* \"@openzeppelin/contracts/access/Ownable.sol\":1796:1958  function _checkOwner() internal view virtual {... */\n      jump\t// out\n        /* \"@openzeppelin/contracts/security/ReentrancyGuard.sol\":2336:2623  function _nonReentrantBefore() private {... */\n    tag_246:\n        /* \"@openzeppelin/contracts/security/ReentrancyGuard.sol\":1759:1760  2 */\n      0x02\n        /* \"@openzeppelin/contracts/security/ReentrancyGuard.sol\":2468:2475  _status */\n      sload(0x06)\n        /* \"@openzeppelin/contracts/security/ReentrancyGuard.sol\":2468:2487  _status != _ENTERED */\n      sub\n        /* \"@openzeppelin/contracts/security/ReentrancyGuard.sol\":2460:2523  require(_status != _ENTERED, \"ReentrancyGuard: reentrant call\") */\n      tag_474\n      jumpi\n      mload(0x40)\n      0x08c379a000000000000000000000000000000000000000000000000000000000\n      dup2\n      mstore\n      0x04\n      add\n      tag_475\n      swap1\n      tag_476\n      jump\t// in\n    tag_475:\n      mload(0x40)\n      dup1\n      swap2\n      sub\n      swap1\n      revert\n    tag_474:\n        /* \"@openzeppelin/contracts/security/ReentrancyGuard.sol\":1759:1760  2 */\n      0x02\n        /* \"@openzeppelin/contracts/security/ReentrancyGuard.sol\":2598:2605  _status */\n      0x06\n        /* \"@openzeppelin/contracts/security/ReentrancyGuard.sol\":2598:2616  _status = _ENTERED */\n      dup2\n      swap1\n      sstore\n      pop\n        /* \"@openzeppelin/contracts/security/ReentrancyGuard.sol\":2336:2623  function _nonReentrantBefore() private {... */\n      jump\t// out\n        /* \"@openzeppelin/contracts/security/ReentrancyGuard.sol\":2629:2838  function _nonReentrantAfter() private {... */\n    tag_254:\n        /* \"@openzeppelin/contracts/security/ReentrancyGuard.sol\":1716:1717  1 */\n      0x01\n        /* \"@openzeppelin/contracts/security/ReentrancyGuard.sol\":2809:2816  _status */\n      0x06\n        /* \"@openzeppelin/contracts/security/ReentrancyGuard.sol\":2809:2831  _status = _NOT_ENTERED */\n      dup2\n      swap1\n      sstore\n      pop\n        /* \"@openzeppelin/contracts/security/ReentrancyGuard.sol\":2629:2838  function _nonReentrantAfter() private {... */\n      jump\t// out\n        /* \"@openzeppelin/contracts/utils/math/SafeMath.sol\":3465:3561  function mul(uint256 a, uint256 b) internal pure returns (uint256) {... */\n    tag_311:\n        /* \"@openzeppelin/contracts/utils/math/SafeMath.sol\":3523:3530  uint256 */\n      0x00\n        /* \"@openzeppelin/contracts/utils/math/SafeMath.sol\":3553:3554  b */\n      dup2\n        /* \"@openzeppelin/contracts/utils/math/SafeMath.sol\":3549:3550  a */\n      dup4\n        /* \"@openzeppelin/contracts/utils/math/SafeMath.sol\":3549:3554  a * b */\n      tag_479\n      swap2\n      swap1\n      tag_480\n      jump\t// in\n    tag_479:\n        /* \"@openzeppelin/contracts/utils/math/SafeMath.sol\":3542:3554  return a * b */\n      swap1\n      pop\n        /* \"@openzeppelin/contracts/utils/math/SafeMath.sol\":3465:3561  function mul(uint256 a, uint256 b) internal pure returns (uint256) {... */\n      swap3\n      swap2\n      pop\n      pop\n      jump\t// out\n        /* \"@openzeppelin/contracts/utils/math/SafeMath.sol\":3850:3946  function div(uint256 a, uint256 b) internal pure returns (uint256) {... */\n    tag_312:\n        /* \"@openzeppelin/contracts/utils/math/SafeMath.sol\":3908:3915  uint256 */\n      0x00\n        /* \"@openzeppelin/contracts/utils/math/SafeMath.sol\":3938:3939  b */\n      dup2\n        /* \"@openzeppelin/contracts/utils/math/SafeMath.sol\":3934:3935  a */\n      dup4\n        /* \"@openzeppelin/contracts/utils/math/SafeMath.sol\":3934:3939  a / b */\n      tag_482\n      swap2\n      swap1\n      tag_483\n      jump\t// in\n    tag_482:\n        /* \"@openzeppelin/contracts/utils/math/SafeMath.sol\":3927:3939  return a / b */\n      swap1\n      pop\n        /* \"@openzeppelin/contracts/utils/math/SafeMath.sol\":3850:3946  function div(uint256 a, uint256 b) internal pure returns (uint256) {... */\n      swap3\n      swap2\n      pop\n      pop\n      jump\t// out\n        /* \"contracts/bettoken.sol\":5395:6259  function calculatePrivateSaleTokens(uint256 usdAmount) internal view returns (uint256) {... */\n    tag_313:\n        /* \"contracts/bettoken.sol\":5473:5480  uint256 */\n      0x00\n        /* \"contracts/bettoken.sol\":5512:5513  0 */\n      dup1\n        /* \"contracts/bettoken.sol\":5500:5509  usdAmount */\n      dup3\n        /* \"contracts/bettoken.sol\":5500:5513  usdAmount > 0 */\n      gt\n        /* \"contracts/bettoken.sol\":5492:5551  require(usdAmount > 0, \"USD amount must be greater than 0\") */\n      tag_485\n      jumpi\n      mload(0x40)\n      0x08c379a000000000000000000000000000000000000000000000000000000000\n      dup2\n      mstore\n      0x04\n      add\n      tag_486\n      swap1\n      tag_487\n      jump\t// in\n    tag_486:\n      mload(0x40)\n      dup1\n      swap2\n      sub\n      swap1\n      revert\n    tag_485:\n        /* \"contracts/bettoken.sol\":5589:5590  0 */\n      0x00\n        /* \"contracts/bettoken.sol\":5569:5586  privateSaleTokens */\n      sload(0x08)\n        /* \"contracts/bettoken.sol\":5569:5590  privateSaleTokens > 0 */\n      gt\n        /* \"contracts/bettoken.sol\":5561:5637  require(privateSaleTokens > 0, \"Private Sale tokens must be greater than 0\") */\n      tag_488\n      jumpi\n      mload(0x40)\n      0x08c379a000000000000000000000000000000000000000000000000000000000\n      dup2\n      mstore\n      0x04\n      add\n      tag_489\n      swap1\n      tag_490\n      jump\t// in\n    tag_489:\n      mload(0x40)\n      dup1\n      swap2\n      sub\n      swap1\n      revert\n    tag_488:\n        /* \"contracts/bettoken.sol\":5680:5697  privateSaleTokens */\n      sload(0x08)\n        /* \"contracts/bettoken.sol\":5655:5676  privateSaleSoldTokens */\n      sload(0x0b)\n        /* \"contracts/bettoken.sol\":5655:5697  privateSaleSoldTokens <= privateSaleTokens */\n      gt\n      iszero\n        /* \"contracts/bettoken.sol\":5647:5750  require(privateSaleSoldTokens <= privateSaleTokens, \"Private Sale sold tokens exceed available tokens\") */\n      tag_491\n      jumpi\n      mload(0x40)\n      0x08c379a000000000000000000000000000000000000000000000000000000000\n      dup2\n      mstore\n      0x04\n      add\n      tag_492\n      swap1\n      tag_493\n      jump\t// in\n    tag_492:\n      mload(0x40)\n      dup1\n      swap2\n      sub\n      swap1\n      revert\n    tag_491:\n        /* \"contracts/bettoken.sol\":5761:5779  uint256 tokenRange */\n      0x00\n        /* \"contracts/bettoken.sol\":5782:5828  privateSaleEndPrice.sub(privateSaleStartPrice) */\n      tag_494\n        /* \"contracts/bettoken.sol\":5806:5827  privateSaleStartPrice */\n      sload(0x09)\n        /* \"contracts/bettoken.sol\":5782:5801  privateSaleEndPrice */\n      sload(0x0a)\n        /* \"contracts/bettoken.sol\":5782:5805  privateSaleEndPrice.sub */\n      tag_495\n      swap1\n        /* \"contracts/bettoken.sol\":5782:5828  privateSaleEndPrice.sub(privateSaleStartPrice) */\n      swap2\n      swap1\n      0xffffffff\n      and\n      jump\t// in\n    tag_494:\n        /* \"contracts/bettoken.sol\":5761:5828  uint256 tokenRange = privateSaleEndPrice.sub(privateSaleStartPrice) */\n      swap1\n      pop\n        /* \"contracts/bettoken.sol\":5838:5858  uint256 currentPrice */\n      0x00\n        /* \"contracts/bettoken.sol\":5861:5970  privateSaleStartPrice.add(... */\n      tag_496\n        /* \"contracts/bettoken.sol\":5900:5960  tokenRange.mul(privateSaleSoldTokens).div(privateSaleTokens) */\n      tag_497\n        /* \"contracts/bettoken.sol\":5942:5959  privateSaleTokens */\n      sload(0x08)\n        /* \"contracts/bettoken.sol\":5900:5937  tokenRange.mul(privateSaleSoldTokens) */\n      tag_498\n        /* \"contracts/bettoken.sol\":5915:5936  privateSaleSoldTokens */\n      sload(0x0b)\n        /* \"contracts/bettoken.sol\":5900:5910  tokenRange */\n      dup7\n        /* \"contracts/bettoken.sol\":5900:5914  tokenRange.mul */\n      tag_311\n      swap1\n        /* \"contracts/bettoken.sol\":5900:5937  tokenRange.mul(privateSaleSoldTokens) */\n      swap2\n      swap1\n      0xffffffff\n      and\n      jump\t// in\n    tag_498:\n        /* \"contracts/bettoken.sol\":5900:5941  tokenRange.mul(privateSaleSoldTokens).div */\n      tag_312\n      swap1\n        /* \"contracts/bettoken.sol\":5900:5960  tokenRange.mul(privateSaleSoldTokens).div(privateSaleTokens) */\n      swap2\n      swap1\n      0xffffffff\n      and\n      jump\t// in\n    tag_497:\n        /* \"contracts/bettoken.sol\":5861:5882  privateSaleStartPrice */\n      sload(0x09)\n        /* \"contracts/bettoken.sol\":5861:5886  privateSaleStartPrice.add */\n      tag_315\n      swap1\n        /* \"contracts/bettoken.sol\":5861:5970  privateSaleStartPrice.add(... */\n      swap2\n      swap1\n      0xffffffff\n      and\n      jump\t// in\n    tag_496:\n        /* \"contracts/bettoken.sol\":5838:5970  uint256 currentPrice = privateSaleStartPrice.add(... */\n      swap1\n      pop\n        /* \"contracts/bettoken.sol\":6005:6026  privateSaleStartPrice */\n      sload(0x09)\n        /* \"contracts/bettoken.sol\":5989:6001  currentPrice */\n      dup2\n        /* \"contracts/bettoken.sol\":5989:6026  currentPrice >= privateSaleStartPrice */\n      lt\n      iszero\n        /* \"contracts/bettoken.sol\":5989:6065  currentPrice >= privateSaleStartPrice && currentPrice <= privateSaleEndPrice */\n      dup1\n      iszero\n      tag_499\n      jumpi\n      pop\n        /* \"contracts/bettoken.sol\":6046:6065  privateSaleEndPrice */\n      sload(0x0a)\n        /* \"contracts/bettoken.sol\":6030:6042  currentPrice */\n      dup2\n        /* \"contracts/bettoken.sol\":6030:6065  currentPrice <= privateSaleEndPrice */\n      gt\n      iszero\n        /* \"contracts/bettoken.sol\":5989:6065  currentPrice >= privateSaleStartPrice && currentPrice <= privateSaleEndPrice */\n    tag_499:\n        /* \"contracts/bettoken.sol\":5981:6100  require(currentPrice >= privateSaleStartPrice && currentPrice <= privateSaleEndPrice, \"Invalid token price calculated\") */\n      tag_500\n      jumpi\n      mload(0x40)\n      0x08c379a000000000000000000000000000000000000000000000000000000000\n      dup2\n      mstore\n      0x04\n      add\n      tag_501\n      swap1\n      tag_502\n      jump\t// in\n    tag_501:\n      mload(0x40)\n      dup1\n      swap2\n      sub\n      swap1\n      revert\n    tag_500:\n        /* \"contracts/bettoken.sol\":6111:6125  uint256 tokens */\n      0x00\n        /* \"contracts/bettoken.sol\":6128:6155  usdAmount.div(currentPrice) */\n      tag_503\n        /* \"contracts/bettoken.sol\":6142:6154  currentPrice */\n      dup3\n        /* \"contracts/bettoken.sol\":6128:6137  usdAmount */\n      dup7\n        /* \"contracts/bettoken.sol\":6128:6141  usdAmount.div */\n      tag_312\n      swap1\n        /* \"contracts/bettoken.sol\":6128:6155  usdAmount.div(currentPrice) */\n      swap2\n      swap1\n      0xffffffff\n      and\n      jump\t// in\n    tag_503:\n        /* \"contracts/bettoken.sol\":6111:6155  uint256 tokens = usdAmount.div(currentPrice) */\n      swap1\n      pop\n        /* \"contracts/bettoken.sol\":6182:6183  0 */\n      0x00\n        /* \"contracts/bettoken.sol\":6173:6179  tokens */\n      dup2\n        /* \"contracts/bettoken.sol\":6173:6183  tokens > 0 */\n      gt\n        /* \"contracts/bettoken.sol\":6165:6228  require(tokens > 0, \"Calculated tokens must be greater than 0\") */\n      tag_504\n      jumpi\n      mload(0x40)\n      0x08c379a000000000000000000000000000000000000000000000000000000000\n      dup2\n      mstore\n      0x04\n      add\n      tag_505\n      swap1\n      tag_506\n      jump\t// in\n    tag_505:\n      mload(0x40)\n      dup1\n      swap2\n      sub\n      swap1\n      revert\n    tag_504:\n        /* \"contracts/bettoken.sol\":6246:6252  tokens */\n      dup1\n        /* \"contracts/bettoken.sol\":6239:6252  return tokens */\n      swap4\n      pop\n      pop\n      pop\n      pop\n        /* \"contracts/bettoken.sol\":5395:6259  function calculatePrivateSaleTokens(uint256 usdAmount) internal view returns (uint256) {... */\n      swap2\n      swap1\n      pop\n      jump\t// out\n        /* \"@openzeppelin/contracts/utils/math/SafeMath.sol\":2755:2851  function add(uint256 a, uint256 b) internal pure returns (uint256) {... */\n    tag_315:\n        /* \"@openzeppelin/contracts/utils/math/SafeMath.sol\":2813:2820  uint256 */\n      0x00\n        /* \"@openzeppelin/contracts/utils/math/SafeMath.sol\":2843:2844  b */\n      dup2\n        /* \"@openzeppelin/contracts/utils/math/SafeMath.sol\":2839:2840  a */\n      dup4\n        /* \"@openzeppelin/contracts/utils/math/SafeMath.sol\":2839:2844  a + b */\n      tag_508\n      swap2\n      swap1\n      tag_509\n      jump\t// in\n    tag_508:\n        /* \"@openzeppelin/contracts/utils/math/SafeMath.sol\":2832:2844  return a + b */\n      swap1\n      pop\n        /* \"@openzeppelin/contracts/utils/math/SafeMath.sol\":2755:2851  function add(uint256 a, uint256 b) internal pure returns (uint256) {... */\n      swap3\n      swap2\n      pop\n      pop\n      jump\t// out\n        /* \"contracts/bettoken.sol\":6265:6788  function calculatePreSaleTokens(uint256 usdAmount) internal view returns (uint256) {... */\n    tag_339:\n        /* \"contracts/bettoken.sol\":6339:6346  uint256 */\n      0x00\n        /* \"contracts/bettoken.sol\":6358:6378  uint256 currentPrice */\n      dup1\n        /* \"contracts/bettoken.sol\":6381:6508  preSaleStartPrice.add(... */\n      tag_511\n        /* \"contracts/bettoken.sol\":6416:6498  (preSaleEndPrice.sub(preSaleStartPrice)).mul(preSaleSoldTokens).div(preSaleTokens) */\n      tag_512\n        /* \"contracts/bettoken.sol\":6484:6497  preSaleTokens */\n      sload(0x0d)\n        /* \"contracts/bettoken.sol\":6416:6479  (preSaleEndPrice.sub(preSaleStartPrice)).mul(preSaleSoldTokens) */\n      tag_513\n        /* \"contracts/bettoken.sol\":6461:6478  preSaleSoldTokens */\n      sload(0x10)\n        /* \"contracts/bettoken.sol\":6417:6455  preSaleEndPrice.sub(preSaleStartPrice) */\n      tag_514\n        /* \"contracts/bettoken.sol\":6437:6454  preSaleStartPrice */\n      sload(0x0e)\n        /* \"contracts/bettoken.sol\":6417:6432  preSaleEndPrice */\n      sload(0x0f)\n        /* \"contracts/bettoken.sol\":6417:6436  preSaleEndPrice.sub */\n      tag_495\n      swap1\n        /* \"contracts/bettoken.sol\":6417:6455  preSaleEndPrice.sub(preSaleStartPrice) */\n      swap2\n      swap1\n      0xffffffff\n      and\n      jump\t// in\n    tag_514:\n        /* \"contracts/bettoken.sol\":6416:6460  (preSaleEndPrice.sub(preSaleStartPrice)).mul */\n      tag_311\n      swap1\n        /* \"contracts/bettoken.sol\":6416:6479  (preSaleEndPrice.sub(preSaleStartPrice)).mul(preSaleSoldTokens) */\n      swap2\n      swap1\n      0xffffffff\n      and\n      jump\t// in\n    tag_513:\n        /* \"contracts/bettoken.sol\":6416:6483  (preSaleEndPrice.sub(preSaleStartPrice)).mul(preSaleSoldTokens).div */\n      tag_312\n      swap1\n        /* \"contracts/bettoken.sol\":6416:6498  (preSaleEndPrice.sub(preSaleStartPrice)).mul(preSaleSoldTokens).div(preSaleTokens) */\n      swap2\n      swap1\n      0xffffffff\n      and\n      jump\t// in\n    tag_512:\n        /* \"contracts/bettoken.sol\":6381:6398  preSaleStartPrice */\n      sload(0x0e)\n        /* \"contracts/bettoken.sol\":6381:6402  preSaleStartPrice.add */\n      tag_315\n      swap1\n        /* \"contracts/bettoken.sol\":6381:6508  preSaleStartPrice.add(... */\n      swap2\n      swap1\n      0xffffffff\n      and\n      jump\t// in\n    tag_511:\n        /* \"contracts/bettoken.sol\":6358:6508  uint256 currentPrice = preSaleStartPrice.add(... */\n      swap1\n      pop\n        /* \"contracts/bettoken.sol\":6542:6559  preSaleStartPrice */\n      sload(0x0e)\n        /* \"contracts/bettoken.sol\":6526:6538  currentPrice */\n      dup2\n        /* \"contracts/bettoken.sol\":6526:6559  currentPrice >= preSaleStartPrice */\n      lt\n      iszero\n        /* \"contracts/bettoken.sol\":6526:6594  currentPrice >= preSaleStartPrice && currentPrice <= preSaleEndPrice */\n      dup1\n      iszero\n      tag_515\n      jumpi\n      pop\n        /* \"contracts/bettoken.sol\":6579:6594  preSaleEndPrice */\n      sload(0x0f)\n        /* \"contracts/bettoken.sol\":6563:6575  currentPrice */\n      dup2\n        /* \"contracts/bettoken.sol\":6563:6594  currentPrice <= preSaleEndPrice */\n      gt\n      iszero\n        /* \"contracts/bettoken.sol\":6526:6594  currentPrice >= preSaleStartPrice && currentPrice <= preSaleEndPrice */\n    tag_515:\n        /* \"contracts/bettoken.sol\":6518:6629  require(currentPrice >= preSaleStartPrice && currentPrice <= preSaleEndPrice, \"Invalid token price calculated\") */\n      tag_516\n      jumpi\n      mload(0x40)\n      0x08c379a000000000000000000000000000000000000000000000000000000000\n      dup2\n      mstore\n      0x04\n      add\n      tag_517\n      swap1\n      tag_502\n      jump\t// in\n    tag_517:\n      mload(0x40)\n      dup1\n      swap2\n      sub\n      swap1\n      revert\n    tag_516:\n        /* \"contracts/bettoken.sol\":6640:6654  uint256 tokens */\n      0x00\n        /* \"contracts/bettoken.sol\":6657:6684  usdAmount.div(currentPrice) */\n      tag_518\n        /* \"contracts/bettoken.sol\":6671:6683  currentPrice */\n      dup3\n        /* \"contracts/bettoken.sol\":6657:6666  usdAmount */\n      dup6\n        /* \"contracts/bettoken.sol\":6657:6670  usdAmount.div */\n      tag_312\n      swap1\n        /* \"contracts/bettoken.sol\":6657:6684  usdAmount.div(currentPrice) */\n      swap2\n      swap1\n      0xffffffff\n      and\n      jump\t// in\n    tag_518:\n        /* \"contracts/bettoken.sol\":6640:6684  uint256 tokens = usdAmount.div(currentPrice) */\n      swap1\n      pop\n        /* \"contracts/bettoken.sol\":6711:6712  0 */\n      0x00\n        /* \"contracts/bettoken.sol\":6702:6708  tokens */\n      dup2\n        /* \"contracts/bettoken.sol\":6702:6712  tokens > 0 */\n      gt\n        /* \"contracts/bettoken.sol\":6694:6757  require(tokens > 0, \"Calculated tokens must be greater than 0\") */\n      tag_519\n      jumpi\n      mload(0x40)\n      0x08c379a000000000000000000000000000000000000000000000000000000000\n      dup2\n      mstore\n      0x04\n      add\n      tag_520\n      swap1\n      tag_506\n      jump\t// in\n    tag_520:\n      mload(0x40)\n      dup1\n      swap2\n      sub\n      swap1\n      revert\n    tag_519:\n        /* \"contracts/bettoken.sol\":6775:6781  tokens */\n      dup1\n        /* \"contracts/bettoken.sol\":6768:6781  return tokens */\n      swap3\n      pop\n      pop\n      pop\n        /* \"contracts/bettoken.sol\":6265:6788  function calculatePreSaleTokens(uint256 usdAmount) internal view returns (uint256) {... */\n      swap2\n      swap1\n      pop\n      jump\t// out\n        /* \"@openzeppelin/contracts/access/Ownable.sol\":2912:3099  function _transferOwnership(address newOwner) internal virtual {... */\n    tag_380:\n        /* \"@openzeppelin/contracts/access/Ownable.sol\":2985:3001  address oldOwner */\n      0x00\n        /* \"@openzeppelin/contracts/access/Ownable.sol\":3004:3010  _owner */\n      0x05\n      0x00\n      swap1\n      sload\n      swap1\n      0x0100\n      exp\n      swap1\n      div\n      0xffffffffffffffffffffffffffffffffffffffff\n      and\n        /* \"@openzeppelin/contracts/access/Ownable.sol\":2985:3010  address oldOwner = _owner */\n      swap1\n      pop\n        /* \"@openzeppelin/contracts/access/Ownable.sol\":3029:3037  newOwner */\n      dup2\n        /* \"@openzeppelin/contracts/access/Ownable.sol\":3020:3026  _owner */\n      0x05\n      0x00\n        /* \"@openzeppelin/contracts/access/Ownable.sol\":3020:3037  _owner = newOwner */\n      0x0100\n      exp\n      dup2\n      sload\n      dup2\n      0xffffffffffffffffffffffffffffffffffffffff\n      mul\n      not\n      and\n      swap1\n      dup4\n      0xffffffffffffffffffffffffffffffffffffffff\n      and\n      mul\n      or\n      swap1\n      sstore\n      pop\n        /* \"@openzeppelin/contracts/access/Ownable.sol\":3083:3091  newOwner */\n      dup2\n        /* \"@openzeppelin/contracts/access/Ownable.sol\":3052:3092  OwnershipTransferred(oldOwner, newOwner) */\n      0xffffffffffffffffffffffffffffffffffffffff\n      and\n        /* \"@openzeppelin/contracts/access/Ownable.sol\":3073:3081  oldOwner */\n      dup2\n        /* \"@openzeppelin/contracts/access/Ownable.sol\":3052:3092  OwnershipTransferred(oldOwner, newOwner) */\n      0xffffffffffffffffffffffffffffffffffffffff\n      and\n      0x8be0079c531659141344cd1fd0a4f28419497f9722a3daafe3b4186f6b6457e0\n      mload(0x40)\n      mload(0x40)\n      dup1\n      swap2\n      sub\n      swap1\n      log3\n        /* \"@openzeppelin/contracts/access/Ownable.sol\":2975:3099  {... */\n      pop\n        /* \"@openzeppelin/contracts/access/Ownable.sol\":2912:3099  function _transferOwnership(address newOwner) internal virtual {... */\n      pop\n      jump\t// out\n        /* \"@openzeppelin/contracts/token/ERC20/ERC20.sol\":9949:10381  function _approve(address owner, address spender, uint256 value, bool emitEvent) internal virtual {... */\n    tag_452:\n        /* \"@openzeppelin/contracts/token/ERC20/ERC20.sol\":10078:10079  0 */\n      0x00\n        /* \"@openzeppelin/contracts/token/ERC20/ERC20.sol\":10061:10080  owner == address(0) */\n      0xffffffffffffffffffffffffffffffffffffffff\n      and\n        /* \"@openzeppelin/contracts/token/ERC20/ERC20.sol\":10061:10066  owner */\n      dup5\n        /* \"@openzeppelin/contracts/token/ERC20/ERC20.sol\":10061:10080  owner == address(0) */\n      0xffffffffffffffffffffffffffffffffffffffff\n      and\n      sub\n        /* \"@openzeppelin/contracts/token/ERC20/ERC20.sol\":10057:10146  if (owner == address(0)) {... */\n      tag_523\n      jumpi\n        /* \"@openzeppelin/contracts/token/ERC20/ERC20.sol\":10132:10133  0 */\n      0x00\n        /* \"@openzeppelin/contracts/token/ERC20/ERC20.sol\":10103:10135  ERC20InvalidApprover(address(0)) */\n      mload(0x40)\n      0xe602df0500000000000000000000000000000000000000000000000000000000\n      dup2\n      mstore\n      0x04\n      add\n      tag_524\n      swap2\n      swap1\n      tag_151\n      jump\t// in\n    tag_524:\n      mload(0x40)\n      dup1\n      swap2\n      sub\n      swap1\n      revert\n        /* \"@openzeppelin/contracts/token/ERC20/ERC20.sol\":10057:10146  if (owner == address(0)) {... */\n    tag_523:\n        /* \"@openzeppelin/contracts/token/ERC20/ERC20.sol\":10178:10179  0 */\n      0x00\n        /* \"@openzeppelin/contracts/token/ERC20/ERC20.sol\":10159:10180  spender == address(0) */\n      0xffffffffffffffffffffffffffffffffffffffff\n      and\n        /* \"@openzeppelin/contracts/token/ERC20/ERC20.sol\":10159:10166  spender */\n      dup4\n        /* \"@openzeppelin/contracts/token/ERC20/ERC20.sol\":10159:10180  spender == address(0) */\n      0xffffffffffffffffffffffffffffffffffffffff\n      and\n      sub\n        /* \"@openzeppelin/contracts/token/ERC20/ERC20.sol\":10155:10245  if (spender == address(0)) {... */\n      tag_525\n      jumpi\n        /* \"@openzeppelin/contracts/token/ERC20/ERC20.sol\":10231:10232  0 */\n      0x00\n        /* \"@openzeppelin/contracts/token/ERC20/ERC20.sol\":10203:10234  ERC20InvalidSpender(address(0)) */\n      mload(0x40)\n      0x94280d6200000000000000000000000000000000000000000000000000000000\n      dup2\n      mstore\n      0x04\n      add\n      tag_526\n      swap2\n      swap1\n      tag_151\n      jump\t// in\n    tag_526:\n      mload(0x40)\n      dup1\n      swap2\n      sub\n      swap1\n      revert\n        /* \"@openzeppelin/contracts/token/ERC20/ERC20.sol\":10155:10245  if (spender == address(0)) {... */\n    tag_525:\n        /* \"@openzeppelin/contracts/token/ERC20/ERC20.sol\":10284:10289  value */\n      dup2\n        /* \"@openzeppelin/contracts/token/ERC20/ERC20.sol\":10254:10265  _allowances */\n      0x01\n        /* \"@openzeppelin/contracts/token/ERC20/ERC20.sol\":10254:10272  _allowances[owner] */\n      0x00\n        /* \"@openzeppelin/contracts/token/ERC20/ERC20.sol\":10266:10271  owner */\n      dup7\n        /* \"@openzeppelin/contracts/token/ERC20/ERC20.sol\":10254:10272  _allowances[owner] */\n      0xffffffffffffffffffffffffffffffffffffffff\n      and\n      0xffffffffffffffffffffffffffffffffffffffff\n      and\n      dup2\n      mstore\n      0x20\n      add\n      swap1\n      dup2\n      mstore\n      0x20\n      add\n      0x00\n      keccak256\n        /* \"@openzeppelin/contracts/token/ERC20/ERC20.sol\":10254:10281  _allowances[owner][spender] */\n      0x00\n        /* \"@openzeppelin/contracts/token/ERC20/ERC20.sol\":10273:10280  spender */\n      dup6\n        /* \"@openzeppelin/contracts/token/ERC20/ERC20.sol\":10254:10281  _allowances[owner][spender] */\n      0xffffffffffffffffffffffffffffffffffffffff\n      and\n      0xffffffffffffffffffffffffffffffffffffffff\n      and\n      dup2\n      mstore\n      0x20\n      add\n      swap1\n      dup2\n      mstore\n      0x20\n      add\n      0x00\n      keccak256\n        /* \"@openzeppelin/contracts/token/ERC20/ERC20.sol\":10254:10289  _allowances[owner][spender] = value */\n      dup2\n      swap1\n      sstore\n      pop\n        /* \"@openzeppelin/contracts/token/ERC20/ERC20.sol\":10303:10312  emitEvent */\n      dup1\n        /* \"@openzeppelin/contracts/token/ERC20/ERC20.sol\":10299:10375  if (emitEvent) {... */\n      iszero\n      tag_527\n      jumpi\n        /* \"@openzeppelin/contracts/token/ERC20/ERC20.sol\":10349:10356  spender */\n      dup3\n        /* \"@openzeppelin/contracts/token/ERC20/ERC20.sol\":10333:10364  Approval(owner, spender, value) */\n      0xffffffffffffffffffffffffffffffffffffffff\n      and\n        /* \"@openzeppelin/contracts/token/ERC20/ERC20.sol\":10342:10347  owner */\n      dup5\n        /* \"@openzeppelin/contracts/token/ERC20/ERC20.sol\":10333:10364  Approval(owner, spender, value) */\n      0xffffffffffffffffffffffffffffffffffffffff\n      and\n      0x8c5be1e5ebec7d5bd14f71427d1e84f3dd0314c0f7b2291e5b200ac8c7c3b925\n        /* \"@openzeppelin/contracts/token/ERC20/ERC20.sol\":10358:10363  value */\n      dup5\n        /* \"@openzeppelin/contracts/token/ERC20/ERC20.sol\":10333:10364  Approval(owner, spender, value) */\n      mload(0x40)\n      tag_528\n      swap2\n      swap1\n      tag_71\n      jump\t// in\n    tag_528:\n      mload(0x40)\n      dup1\n      swap2\n      sub\n      swap1\n      log3\n        /* \"@openzeppelin/contracts/token/ERC20/ERC20.sol\":10299:10375  if (emitEvent) {... */\n    tag_527:\n        /* \"@openzeppelin/contracts/token/ERC20/ERC20.sol\":9949:10381  function _approve(address owner, address spender, uint256 value, bool emitEvent) internal virtual {... */\n      pop\n      pop\n      pop\n      pop\n      jump\t// out\n        /* \"@openzeppelin/contracts/token/ERC20/ERC20.sol\":6271:7378  function _update(address from, address to, uint256 value) internal virtual {... */\n    tag_466:\n        /* \"@openzeppelin/contracts/token/ERC20/ERC20.sol\":6376:6377  0 */\n      0x00\n        /* \"@openzeppelin/contracts/token/ERC20/ERC20.sol\":6360:6378  from == address(0) */\n      0xffffffffffffffffffffffffffffffffffffffff\n      and\n        /* \"@openzeppelin/contracts/token/ERC20/ERC20.sol\":6360:6364  from */\n      dup4\n        /* \"@openzeppelin/contracts/token/ERC20/ERC20.sol\":6360:6378  from == address(0) */\n      0xffffffffffffffffffffffffffffffffffffffff\n      and\n      sub\n        /* \"@openzeppelin/contracts/token/ERC20/ERC20.sol\":6356:6896  if (from == address(0)) {... */\n      tag_530\n      jumpi\n        /* \"@openzeppelin/contracts/token/ERC20/ERC20.sol\":6512:6517  value */\n      dup1\n        /* \"@openzeppelin/contracts/token/ERC20/ERC20.sol\":6496:6508  _totalSupply */\n      0x02\n      0x00\n        /* \"@openzeppelin/contracts/token/ERC20/ERC20.sol\":6496:6517  _totalSupply += value */\n      dup3\n      dup3\n      sload\n      tag_531\n      swap2\n      swap1\n      tag_509\n      jump\t// in\n    tag_531:\n      swap3\n      pop\n      pop\n      dup2\n      swap1\n      sstore\n      pop\n        /* \"@openzeppelin/contracts/token/ERC20/ERC20.sol\":6356:6896  if (from == address(0)) {... */\n      jump(tag_532)\n    tag_530:\n        /* \"@openzeppelin/contracts/token/ERC20/ERC20.sol\":6548:6567  uint256 fromBalance */\n      0x00\n        /* \"@openzeppelin/contracts/token/ERC20/ERC20.sol\":6570:6579  _balances */\n      dup1\n        /* \"@openzeppelin/contracts/token/ERC20/ERC20.sol\":6570:6585  _balances[from] */\n      0x00\n        /* \"@openzeppelin/contracts/token/ERC20/ERC20.sol\":6580:6584  from */\n      dup6\n        /* \"@openzeppelin/contracts/token/ERC20/ERC20.sol\":6570:6585  _balances[from] */\n      0xffffffffffffffffffffffffffffffffffffffff\n      and\n      0xffffffffffffffffffffffffffffffffffffffff\n      and\n      dup2\n      mstore\n      0x20\n      add\n      swap1\n      dup2\n      mstore\n      0x20\n      add\n      0x00\n      keccak256\n      sload\n        /* \"@openzeppelin/contracts/token/ERC20/ERC20.sol\":6548:6585  uint256 fromBalance = _balances[from] */\n      swap1\n      pop\n        /* \"@openzeppelin/contracts/token/ERC20/ERC20.sol\":6617:6622  value */\n      dup2\n        /* \"@openzeppelin/contracts/token/ERC20/ERC20.sol\":6603:6614  fromBalance */\n      dup2\n        /* \"@openzeppelin/contracts/token/ERC20/ERC20.sol\":6603:6622  fromBalance < value */\n      lt\n        /* \"@openzeppelin/contracts/token/ERC20/ERC20.sol\":6599:6714  if (fromBalance < value) {... */\n      iszero\n      tag_533\n      jumpi\n        /* \"@openzeppelin/contracts/token/ERC20/ERC20.sol\":6674:6678  from */\n      dup4\n        /* \"@openzeppelin/contracts/token/ERC20/ERC20.sol\":6680:6691  fromBalance */\n      dup2\n        /* \"@openzeppelin/contracts/token/ERC20/ERC20.sol\":6693:6698  value */\n      dup4\n        /* \"@openzeppelin/contracts/token/ERC20/ERC20.sol\":6649:6699  ERC20InsufficientBalance(from, fromBalance, value) */\n      mload(0x40)\n      0xe450d38c00000000000000000000000000000000000000000000000000000000\n      dup2\n      mstore\n      0x04\n      add\n      tag_534\n      swap4\n      swap3\n      swap2\n      swap1\n      tag_458\n      jump\t// in\n    tag_534:\n      mload(0x40)\n      dup1\n      swap2\n      sub\n      swap1\n      revert\n        /* \"@openzeppelin/contracts/token/ERC20/ERC20.sol\":6599:6714  if (fromBalance < value) {... */\n    tag_533:\n        /* \"@openzeppelin/contracts/token/ERC20/ERC20.sol\":6866:6871  value */\n      dup2\n        /* \"@openzeppelin/contracts/token/ERC20/ERC20.sol\":6852:6863  fromBalance */\n      dup2\n        /* \"@openzeppelin/contracts/token/ERC20/ERC20.sol\":6852:6871  fromBalance - value */\n      sub\n        /* \"@openzeppelin/contracts/token/ERC20/ERC20.sol\":6834:6843  _balances */\n      0x00\n        /* \"@openzeppelin/contracts/token/ERC20/ERC20.sol\":6834:6849  _balances[from] */\n      dup1\n        /* \"@openzeppelin/contracts/token/ERC20/ERC20.sol\":6844:6848  from */\n      dup7\n        /* \"@openzeppelin/contracts/token/ERC20/ERC20.sol\":6834:6849  _balances[from] */\n      0xffffffffffffffffffffffffffffffffffffffff\n      and\n      0xffffffffffffffffffffffffffffffffffffffff\n      and\n      dup2\n      mstore\n      0x20\n      add\n      swap1\n      dup2\n      mstore\n      0x20\n      add\n      0x00\n      keccak256\n        /* \"@openzeppelin/contracts/token/ERC20/ERC20.sol\":6834:6871  _balances[from] = fromBalance - value */\n      dup2\n      swap1\n      sstore\n      pop\n        /* \"@openzeppelin/contracts/token/ERC20/ERC20.sol\":6534:6896  {... */\n      pop\n        /* \"@openzeppelin/contracts/token/ERC20/ERC20.sol\":6356:6896  if (from == address(0)) {... */\n    tag_532:\n        /* \"@openzeppelin/contracts/token/ERC20/ERC20.sol\":6924:6925  0 */\n      0x00\n        /* \"@openzeppelin/contracts/token/ERC20/ERC20.sol\":6910:6926  to == address(0) */\n      0xffffffffffffffffffffffffffffffffffffffff\n      and\n        /* \"@openzeppelin/contracts/token/ERC20/ERC20.sol\":6910:6912  to */\n      dup3\n        /* \"@openzeppelin/contracts/token/ERC20/ERC20.sol\":6910:6926  to == address(0) */\n      0xffffffffffffffffffffffffffffffffffffffff\n      and\n      sub\n        /* \"@openzeppelin/contracts/token/ERC20/ERC20.sol\":6906:7331  if (to == address(0)) {... */\n      tag_535\n      jumpi\n        /* \"@openzeppelin/contracts/token/ERC20/ERC20.sol\":7089:7094  value */\n      dup1\n        /* \"@openzeppelin/contracts/token/ERC20/ERC20.sol\":7073:7085  _totalSupply */\n      0x02\n      0x00\n        /* \"@openzeppelin/contracts/token/ERC20/ERC20.sol\":7073:7094  _totalSupply -= value */\n      dup3\n      dup3\n      sload\n      sub\n      swap3\n      pop\n      pop\n      dup2\n      swap1\n      sstore\n      pop\n        /* \"@openzeppelin/contracts/token/ERC20/ERC20.sol\":6906:7331  if (to == address(0)) {... */\n      jump(tag_536)\n    tag_535:\n        /* \"@openzeppelin/contracts/token/ERC20/ERC20.sol\":7301:7306  value */\n      dup1\n        /* \"@openzeppelin/contracts/token/ERC20/ERC20.sol\":7284:7293  _balances */\n      0x00\n        /* \"@openzeppelin/contracts/token/ERC20/ERC20.sol\":7284:7297  _balances[to] */\n      dup1\n        /* \"@openzeppelin/contracts/token/ERC20/ERC20.sol\":7294:7296  to */\n      dup5\n        /* \"@openzeppelin/contracts/token/ERC20/ERC20.sol\":7284:7297  _balances[to] */\n      0xffffffffffffffffffffffffffffffffffffffff\n      and\n      0xffffffffffffffffffffffffffffffffffffffff\n      and\n      dup2\n      mstore\n      0x20\n      add\n      swap1\n      dup2\n      mstore\n      0x20\n      add\n      0x00\n      keccak256\n      0x00\n        /* \"@openzeppelin/contracts/token/ERC20/ERC20.sol\":7284:7306  _balances[to] += value */\n      dup3\n      dup3\n      sload\n      add\n      swap3\n      pop\n      pop\n      dup2\n      swap1\n      sstore\n      pop\n        /* \"@openzeppelin/contracts/token/ERC20/ERC20.sol\":6906:7331  if (to == address(0)) {... */\n    tag_536:\n        /* \"@openzeppelin/contracts/token/ERC20/ERC20.sol\":7361:7363  to */\n      dup2\n        /* \"@openzeppelin/contracts/token/ERC20/ERC20.sol\":7346:7371  Transfer(from, to, value) */\n      0xffffffffffffffffffffffffffffffffffffffff\n      and\n        /* \"@openzeppelin/contracts/token/ERC20/ERC20.sol\":7355:7359  from */\n      dup4\n        /* \"@openzeppelin/contracts/token/ERC20/ERC20.sol\":7346:7371  Transfer(from, to, value) */\n      0xffffffffffffffffffffffffffffffffffffffff\n      and\n      0xddf252ad1be2c89b69c2b068fc378daa952ba7f163c4a11628f55a4df523b3ef\n        /* \"@openzeppelin/contracts/token/ERC20/ERC20.sol\":7365:7370  value */\n      dup4\n        /* \"@openzeppelin/contracts/token/ERC20/ERC20.sol\":7346:7371  Transfer(from, to, value) */\n      mload(0x40)\n      tag_537\n      swap2\n      swap1\n      tag_71\n      jump\t// in\n    tag_537:\n      mload(0x40)\n      dup1\n      swap2\n      sub\n      swap1\n      log3\n        /* \"@openzeppelin/contracts/token/ERC20/ERC20.sol\":6271:7378  function _update(address from, address to, uint256 value) internal virtual {... */\n      pop\n      pop\n      pop\n      jump\t// out\n        /* \"@openzeppelin/contracts/utils/math/SafeMath.sol\":3122:3218  function sub(uint256 a, uint256 b) internal pure returns (uint256) {... */\n    tag_495:\n        /* \"@openzeppelin/contracts/utils/math/SafeMath.sol\":3180:3187  uint256 */\n      0x00\n        /* \"@openzeppelin/contracts/utils/math/SafeMath.sol\":3210:3211  b */\n      dup2\n        /* \"@openzeppelin/contracts/utils/math/SafeMath.sol\":3206:3207  a */\n      dup4\n        /* \"@openzeppelin/contracts/utils/math/SafeMath.sol\":3206:3211  a - b */\n      tag_539\n      swap2\n      swap1\n      tag_540\n      jump\t// in\n    tag_539:\n        /* \"@openzeppelin/contracts/utils/math/SafeMath.sol\":3199:3211  return a - b */\n      swap1\n      pop\n        /* \"@openzeppelin/contracts/utils/math/SafeMath.sol\":3122:3218  function sub(uint256 a, uint256 b) internal pure returns (uint256) {... */\n      swap3\n      swap2\n      pop\n      pop\n      jump\t// out\n        /* \"#utility.yul\":7:176   */\n    tag_541:\n        /* \"#utility.yul\":91:102   */\n      0x00\n        /* \"#utility.yul\":125:131   */\n      dup3\n        /* \"#utility.yul\":120:123   */\n      dup3\n        /* \"#utility.yul\":113:132   */\n      mstore\n        /* \"#utility.yul\":165:169   */\n      0x20\n        /* \"#utility.yul\":160:163   */\n      dup3\n        /* \"#utility.yul\":156:170   */\n      add\n        /* \"#utility.yul\":141:170   */\n      swap1\n      pop\n        /* \"#utility.yul\":7:176   */\n      swap3\n      swap2\n      pop\n      pop\n      jump\t// out\n        /* \"#utility.yul\":182:402   */\n    tag_542:\n        /* \"#utility.yul\":322:356   */\n      0x44697265637420455448207472616e7366657273206e6f7420616c6c6f776564\n        /* \"#utility.yul\":318:319   */\n      0x00\n        /* \"#utility.yul\":310:316   */\n      dup3\n        /* \"#utility.yul\":306:320   */\n      add\n        /* \"#utility.yul\":299:357   */\n      mstore\n        /* \"#utility.yul\":391:394   */\n      0x2e00000000000000000000000000000000000000000000000000000000000000\n        /* \"#utility.yul\":386:388   */\n      0x20\n        /* \"#utility.yul\":378:384   */\n      dup3\n        /* \"#utility.yul\":374:389   */\n      add\n        /* \"#utility.yul\":367:395   */\n      mstore\n        /* \"#utility.yul\":182:402   */\n      pop\n      jump\t// out\n        /* \"#utility.yul\":408:774   */\n    tag_543:\n        /* \"#utility.yul\":550:553   */\n      0x00\n        /* \"#utility.yul\":571:638   */\n      tag_637\n        /* \"#utility.yul\":635:637   */\n      0x21\n        /* \"#utility.yul\":630:633   */\n      dup4\n        /* \"#utility.yul\":571:638   */\n      tag_541\n      jump\t// in\n    tag_637:\n        /* \"#utility.yul\":564:638   */\n      swap2\n      pop\n        /* \"#utility.yul\":647:740   */\n      tag_638\n        /* \"#utility.yul\":736:739   */\n      dup3\n        /* \"#utility.yul\":647:740   */\n      tag_542\n      jump\t// in\n    tag_638:\n        /* \"#utility.yul\":765:767   */\n      0x40\n        /* \"#utility.yul\":760:763   */\n      dup3\n        /* \"#utility.yul\":756:768   */\n      add\n        /* \"#utility.yul\":749:768   */\n      swap1\n      pop\n        /* \"#utility.yul\":408:774   */\n      swap2\n      swap1\n      pop\n      jump\t// out\n        /* \"#utility.yul\":780:1199   */\n    tag_51:\n        /* \"#utility.yul\":946:950   */\n      0x00\n        /* \"#utility.yul\":984:986   */\n      0x20\n        /* \"#utility.yul\":973:982   */\n      dup3\n        /* \"#utility.yul\":969:987   */\n      add\n        /* \"#utility.yul\":961:987   */\n      swap1\n      pop\n        /* \"#utility.yul\":1033:1042   */\n      dup2\n        /* \"#utility.yul\":1027:1031   */\n      dup2\n        /* \"#utility.yul\":1023:1043   */\n      sub\n        /* \"#utility.yul\":1019:1020   */\n      0x00\n        /* \"#utility.yul\":1008:1017   */\n      dup4\n        /* \"#utility.yul\":1004:1021   */\n      add\n        /* \"#utility.yul\":997:1044   */\n      mstore\n        /* \"#utility.yul\":1061:1192   */\n      tag_640\n        /* \"#utility.yul\":1187:1191   */\n      dup2\n        /* \"#utility.yul\":1061:1192   */\n      tag_543\n      jump\t// in\n    tag_640:\n        /* \"#utility.yul\":1053:1192   */\n      swap1\n      pop\n        /* \"#utility.yul\":780:1199   */\n      swap2\n      swap1\n      pop\n      jump\t// out\n        /* \"#utility.yul\":1205:1304   */\n    tag_544:\n        /* \"#utility.yul\":1257:1263   */\n      0x00\n        /* \"#utility.yul\":1291:1296   */\n      dup2\n        /* \"#utility.yul\":1285:1297   */\n      mload\n        /* \"#utility.yul\":1275:1297   */\n      swap1\n      pop\n        /* \"#utility.yul\":1205:1304   */\n      swap2\n      swap1\n      pop\n      jump\t// out\n        /* \"#utility.yul\":1310:1449   */\n    tag_545:\n        /* \"#utility.yul\":1399:1405   */\n      dup3\n        /* \"#utility.yul\":1394:1397   */\n      dup2\n        /* \"#utility.yul\":1389:1392   */\n      dup4\n        /* \"#utility.yul\":1383:1406   */\n      mcopy\n        /* \"#utility.yul\":1440:1441   */\n      0x00\n        /* \"#utility.yul\":1431:1437   */\n      dup4\n        /* \"#utility.yul\":1426:1429   */\n      dup4\n        /* \"#utility.yul\":1422:1438   */\n      add\n        /* \"#utility.yul\":1415:1442   */\n      mstore\n        /* \"#utility.yul\":1310:1449   */\n      pop\n      pop\n      pop\n      jump\t// out\n        /* \"#utility.yul\":1455:1557   */\n    tag_546:\n        /* \"#utility.yul\":1496:1502   */\n      0x00\n        /* \"#utility.yul\":1547:1549   */\n      0x1f\n        /* \"#utility.yul\":1543:1550   */\n      not\n        /* \"#utility.yul\":1538:1540   */\n      0x1f\n        /* \"#utility.yul\":1531:1536   */\n      dup4\n        /* \"#utility.yul\":1527:1541   */\n      add\n        /* \"#utility.yul\":1523:1551   */\n      and\n        /* \"#utility.yul\":1513:1551   */\n      swap1\n      pop\n        /* \"#utility.yul\":1455:1557   */\n      swap2\n      swap1\n      pop\n      jump\t// out\n        /* \"#utility.yul\":1563:1940   */\n    tag_547:\n        /* \"#utility.yul\":1651:1654   */\n      0x00\n        /* \"#utility.yul\":1679:1718   */\n      tag_645\n        /* \"#utility.yul\":1712:1717   */\n      dup3\n        /* \"#utility.yul\":1679:1718   */\n      tag_544\n      jump\t// in\n    tag_645:\n        /* \"#utility.yul\":1734:1805   */\n      tag_646\n        /* \"#utility.yul\":1798:1804   */\n      dup2\n        /* \"#utility.yul\":1793:1796   */\n      dup6\n        /* \"#utility.yul\":1734:1805   */\n      tag_541\n      jump\t// in\n    tag_646:\n        /* \"#utility.yul\":1727:1805   */\n      swap4\n      pop\n        /* \"#utility.yul\":1814:1879   */\n      tag_647\n        /* \"#utility.yul\":1872:1878   */\n      dup2\n        /* \"#utility.yul\":1867:1870   */\n      dup6\n        /* \"#utility.yul\":1860:1864   */\n      0x20\n        /* \"#utility.yul\":1853:1858   */\n      dup7\n        /* \"#utility.yul\":1849:1865   */\n      add\n        /* \"#utility.yul\":1814:1879   */\n      tag_545\n      jump\t// in\n    tag_647:\n        /* \"#utility.yul\":1904:1933   */\n      tag_648\n        /* \"#utility.yul\":1926:1932   */\n      dup2\n        /* \"#utility.yul\":1904:1933   */\n      tag_546\n      jump\t// in\n    tag_648:\n        /* \"#utility.yul\":1899:1902   */\n      dup5\n        /* \"#utility.yul\":1895:1934   */\n      add\n        /* \"#utility.yul\":1888:1934   */\n      swap2\n      pop\n        /* \"#utility.yul\":1655:1940   */\n      pop\n        /* \"#utility.yul\":1563:1940   */\n      swap3\n      swap2\n      pop\n      pop\n      jump\t// out\n        /* \"#utility.yul\":1946:2259   */\n    tag_59:\n        /* \"#utility.yul\":2059:2063   */\n      0x00\n        /* \"#utility.yul\":2097:2099   */\n      0x20\n        /* \"#utility.yul\":2086:2095   */\n      dup3\n        /* \"#utility.yul\":2082:2100   */\n      add\n        /* \"#utility.yul\":2074:2100   */\n      swap1\n      pop\n        /* \"#utility.yul\":2146:2155   */\n      dup2\n        /* \"#utility.yul\":2140:2144   */\n      dup2\n        /* \"#utility.yul\":2136:2156   */\n      sub\n        /* \"#utility.yul\":2132:2133   */\n      0x00\n        /* \"#utility.yul\":2121:2130   */\n      dup4\n        /* \"#utility.yul\":2117:2134   */\n      add\n        /* \"#utility.yul\":2110:2157   */\n      mstore\n        /* \"#utility.yul\":2174:2252   */\n      tag_650\n        /* \"#utility.yul\":2247:2251   */\n      dup2\n        /* \"#utility.yul\":2238:2244   */\n      dup5\n        /* \"#utility.yul\":2174:2252   */\n      tag_547\n      jump\t// in\n    tag_650:\n        /* \"#utility.yul\":2166:2252   */\n      swap1\n      pop\n        /* \"#utility.yul\":1946:2259   */\n      swap3\n      swap2\n      pop\n      pop\n      jump\t// out\n        /* \"#utility.yul\":2346:2463   */\n    tag_549:\n        /* \"#utility.yul\":2455:2456   */\n      0x00\n        /* \"#utility.yul\":2452:2453   */\n      dup1\n        /* \"#utility.yul\":2445:2457   */\n      revert\n        /* \"#utility.yul\":2592:2718   */\n    tag_551:\n        /* \"#utility.yul\":2629:2636   */\n      0x00\n        /* \"#utility.yul\":2669:2711   */\n      0xffffffffffffffffffffffffffffffffffffffff\n        /* \"#utility.yul\":2662:2667   */\n      dup3\n        /* \"#utility.yul\":2658:2712   */\n      and\n        /* \"#utility.yul\":2647:2712   */\n      swap1\n      pop\n        /* \"#utility.yul\":2592:2718   */\n      swap2\n      swap1\n      pop\n      jump\t// out\n        /* \"#utility.yul\":2724:2820   */\n    tag_552:\n        /* \"#utility.yul\":2761:2768   */\n      0x00\n        /* \"#utility.yul\":2790:2814   */\n      tag_656\n        /* \"#utility.yul\":2808:2813   */\n      dup3\n        /* \"#utility.yul\":2790:2814   */\n      tag_551\n      jump\t// in\n    tag_656:\n        /* \"#utility.yul\":2779:2814   */\n      swap1\n      pop\n        /* \"#utility.yul\":2724:2820   */\n      swap2\n      swap1\n      pop\n      jump\t// out\n        /* \"#utility.yul\":2826:2948   */\n    tag_553:\n        /* \"#utility.yul\":2899:2923   */\n      tag_658\n        /* \"#utility.yul\":2917:2922   */\n      dup2\n        /* \"#utility.yul\":2899:2923   */\n      tag_552\n      jump\t// in\n    tag_658:\n        /* \"#utility.yul\":2892:2897   */\n      dup2\n        /* \"#utility.yul\":2889:2924   */\n      eq\n        /* \"#utility.yul\":2879:2942   */\n      tag_659\n      jumpi\n        /* \"#utility.yul\":2938:2939   */\n      0x00\n        /* \"#utility.yul\":2935:2936   */\n      dup1\n        /* \"#utility.yul\":2928:2940   */\n      revert\n        /* \"#utility.yul\":2879:2942   */\n    tag_659:\n        /* \"#utility.yul\":2826:2948   */\n      pop\n      jump\t// out\n        /* \"#utility.yul\":2954:3093   */\n    tag_554:\n        /* \"#utility.yul\":3000:3005   */\n      0x00\n        /* \"#utility.yul\":3038:3044   */\n      dup2\n        /* \"#utility.yul\":3025:3045   */\n      calldataload\n        /* \"#utility.yul\":3016:3045   */\n      swap1\n      pop\n        /* \"#utility.yul\":3054:3087   */\n      tag_661\n        /* \"#utility.yul\":3081:3086   */\n      dup2\n        /* \"#utility.yul\":3054:3087   */\n      tag_553\n      jump\t// in\n    tag_661:\n        /* \"#utility.yul\":2954:3093   */\n      swap3\n      swap2\n      pop\n      pop\n      jump\t// out\n        /* \"#utility.yul\":3099:3176   */\n    tag_555:\n        /* \"#utility.yul\":3136:3143   */\n      0x00\n        /* \"#utility.yul\":3165:3170   */\n      dup2\n        /* \"#utility.yul\":3154:3170   */\n      swap1\n      pop\n        /* \"#utility.yul\":3099:3176   */\n      swap2\n      swap1\n      pop\n      jump\t// out\n        /* \"#utility.yul\":3182:3304   */\n    tag_556:\n        /* \"#utility.yul\":3255:3279   */\n      tag_664\n        /* \"#utility.yul\":3273:3278   */\n      dup2\n        /* \"#utility.yul\":3255:3279   */\n      tag_555\n      jump\t// in\n    tag_664:\n        /* \"#utility.yul\":3248:3253   */\n      dup2\n        /* \"#utility.yul\":3245:3280   */\n      eq\n        /* \"#utility.yul\":3235:3298   */\n      tag_665\n      jumpi\n        /* \"#utility.yul\":3294:3295   */\n      0x00\n        /* \"#utility.yul\":3291:3292   */\n      dup1\n        /* \"#utility.yul\":3284:3296   */\n      revert\n        /* \"#utility.yul\":3235:3298   */\n    tag_665:\n        /* \"#utility.yul\":3182:3304   */\n      pop\n      jump\t// out\n        /* \"#utility.yul\":3310:3449   */\n    tag_557:\n        /* \"#utility.yul\":3356:3361   */\n      0x00\n        /* \"#utility.yul\":3394:3400   */\n      dup2\n        /* \"#utility.yul\":3381:3401   */\n      calldataload\n        /* \"#utility.yul\":3372:3401   */\n      swap1\n      pop\n        /* \"#utility.yul\":3410:3443   */\n      tag_667\n        /* \"#utility.yul\":3437:3442   */\n      dup2\n        /* \"#utility.yul\":3410:3443   */\n      tag_556\n      jump\t// in\n    tag_667:\n        /* \"#utility.yul\":3310:3449   */\n      swap3\n      swap2\n      pop\n      pop\n      jump\t// out\n        /* \"#utility.yul\":3455:3929   */\n    tag_63:\n        /* \"#utility.yul\":3523:3529   */\n      0x00\n        /* \"#utility.yul\":3531:3537   */\n      dup1\n        /* \"#utility.yul\":3580:3582   */\n      0x40\n        /* \"#utility.yul\":3568:3577   */\n      dup4\n        /* \"#utility.yul\":3559:3566   */\n      dup6\n        /* \"#utility.yul\":3555:3578   */\n      sub\n        /* \"#utility.yul\":3551:3583   */\n      slt\n        /* \"#utility.yul\":3548:3667   */\n      iszero\n      tag_669\n      jumpi\n        /* \"#utility.yul\":3586:3665   */\n      tag_670\n      tag_549\n      jump\t// in\n    tag_670:\n        /* \"#utility.yul\":3548:3667   */\n    tag_669:\n        /* \"#utility.yul\":3706:3707   */\n      0x00\n        /* \"#utility.yul\":3731:3784   */\n      tag_671\n        /* \"#utility.yul\":3776:3783   */\n      dup6\n        /* \"#utility.yul\":3767:3773   */\n      dup3\n        /* \"#utility.yul\":3756:3765   */\n      dup7\n        /* \"#utility.yul\":3752:3774   */\n      add\n        /* \"#utility.yul\":3731:3784   */\n      tag_554\n      jump\t// in\n    tag_671:\n        /* \"#utility.yul\":3721:3784   */\n      swap3\n      pop\n        /* \"#utility.yul\":3677:3794   */\n      pop\n        /* \"#utility.yul\":3833:3835   */\n      0x20\n        /* \"#utility.yul\":3859:3912   */\n      tag_672\n        /* \"#utility.yul\":3904:3911   */\n      dup6\n        /* \"#utility.yul\":3895:3901   */\n      dup3\n        /* \"#utility.yul\":3884:3893   */\n      dup7\n        /* \"#utility.yul\":3880:3902   */\n      add\n        /* \"#utility.yul\":3859:3912   */\n      tag_557\n      jump\t// in\n    tag_672:\n        /* \"#utility.yul\":3849:3912   */\n      swap2\n      pop\n        /* \"#utility.yul\":3804:3922   */\n      pop\n        /* \"#utility.yul\":3455:3929   */\n      swap3\n      pop\n      swap3\n      swap1\n      pop\n      jump\t// out\n        /* \"#utility.yul\":3935:4025   */\n    tag_558:\n        /* \"#utility.yul\":3969:3976   */\n      0x00\n        /* \"#utility.yul\":4012:4017   */\n      dup2\n        /* \"#utility.yul\":4005:4018   */\n      iszero\n        /* \"#utility.yul\":3998:4019   */\n      iszero\n        /* \"#utility.yul\":3987:4019   */\n      swap1\n      pop\n        /* \"#utility.yul\":3935:4025   */\n      swap2\n      swap1\n      pop\n      jump\t// out\n        /* \"#utility.yul\":4031:4140   */\n    tag_559:\n        /* \"#utility.yul\":4112:4133   */\n      tag_675\n        /* \"#utility.yul\":4127:4132   */\n      dup2\n        /* \"#utility.yul\":4112:4133   */\n      tag_558\n      jump\t// in\n    tag_675:\n        /* \"#utility.yul\":4107:4110   */\n      dup3\n        /* \"#utility.yul\":4100:4134   */\n      mstore\n        /* \"#utility.yul\":4031:4140   */\n      pop\n      pop\n      jump\t// out\n        /* \"#utility.yul\":4146:4356   */\n    tag_66:\n        /* \"#utility.yul\":4233:4237   */\n      0x00\n        /* \"#utility.yul\":4271:4273   */\n      0x20\n        /* \"#utility.yul\":4260:4269   */\n      dup3\n        /* \"#utility.yul\":4256:4274   */\n      add\n        /* \"#utility.yul\":4248:4274   */\n      swap1\n      pop\n        /* \"#utility.yul\":4284:4349   */\n      tag_677\n        /* \"#utility.yul\":4346:4347   */\n      0x00\n        /* \"#utility.yul\":4335:4344   */\n      dup4\n        /* \"#utility.yul\":4331:4348   */\n      add\n        /* \"#utility.yul\":4322:4328   */\n      dup5\n        /* \"#utility.yul\":4284:4349   */\n      tag_559\n      jump\t// in\n    tag_677:\n        /* \"#utility.yul\":4146:4356   */\n      swap3\n      swap2\n      pop\n      pop\n      jump\t// out\n        /* \"#utility.yul\":4362:4480   */\n    tag_560:\n        /* \"#utility.yul\":4449:4473   */\n      tag_679\n        /* \"#utility.yul\":4467:4472   */\n      dup2\n        /* \"#utility.yul\":4449:4473   */\n      tag_555\n      jump\t// in\n    tag_679:\n        /* \"#utility.yul\":4444:4447   */\n      dup3\n        /* \"#utility.yul\":4437:4474   */\n      mstore\n        /* \"#utility.yul\":4362:4480   */\n      pop\n      pop\n      jump\t// out\n        /* \"#utility.yul\":4486:4708   */\n    tag_71:\n        /* \"#utility.yul\":4579:4583   */\n      0x00\n        /* \"#utility.yul\":4617:4619   */\n      0x20\n        /* \"#utility.yul\":4606:4615   */\n      dup3\n        /* \"#utility.yul\":4602:4620   */\n      add\n        /* \"#utility.yul\":4594:4620   */\n      swap1\n      pop\n        /* \"#utility.yul\":4630:4701   */\n      tag_681\n        /* \"#utility.yul\":4698:4699   */\n      0x00\n        /* \"#utility.yul\":4687:4696   */\n      dup4\n        /* \"#utility.yul\":4683:4700   */\n      add\n        /* \"#utility.yul\":4674:4680   */\n      dup5\n        /* \"#utility.yul\":4630:4701   */\n      tag_560\n      jump\t// in\n    tag_681:\n        /* \"#utility.yul\":4486:4708   */\n      swap3\n      swap2\n      pop\n      pop\n      jump\t// out\n        /* \"#utility.yul\":4714:5043   */\n    tag_75:\n        /* \"#utility.yul\":4773:4779   */\n      0x00\n        /* \"#utility.yul\":4822:4824   */\n      0x20\n        /* \"#utility.yul\":4810:4819   */\n      dup3\n        /* \"#utility.yul\":4801:4808   */\n      dup5\n        /* \"#utility.yul\":4797:4820   */\n      sub\n        /* \"#utility.yul\":4793:4825   */\n      slt\n        /* \"#utility.yul\":4790:4909   */\n      iszero\n      tag_683\n      jumpi\n        /* \"#utility.yul\":4828:4907   */\n      tag_684\n      tag_549\n      jump\t// in\n    tag_684:\n        /* \"#utility.yul\":4790:4909   */\n    tag_683:\n        /* \"#utility.yul\":4948:4949   */\n      0x00\n        /* \"#utility.yul\":4973:5026   */\n      tag_685\n        /* \"#utility.yul\":5018:5025   */\n      dup5\n        /* \"#utility.yul\":5009:5015   */\n      dup3\n        /* \"#utility.yul\":4998:5007   */\n      dup6\n        /* \"#utility.yul\":4994:5016   */\n      add\n        /* \"#utility.yul\":4973:5026   */\n      tag_557\n      jump\t// in\n    tag_685:\n        /* \"#utility.yul\":4963:5026   */\n      swap2\n      pop\n        /* \"#utility.yul\":4919:5036   */\n      pop\n        /* \"#utility.yul\":4714:5043   */\n      swap3\n      swap2\n      pop\n      pop\n      jump\t// out\n        /* \"#utility.yul\":5049:5109   */\n    tag_561:\n        /* \"#utility.yul\":5077:5080   */\n      0x00\n        /* \"#utility.yul\":5098:5103   */\n      dup2\n        /* \"#utility.yul\":5091:5103   */\n      swap1\n      pop\n        /* \"#utility.yul\":5049:5109   */\n      swap2\n      swap1\n      pop\n      jump\t// out\n        /* \"#utility.yul\":5115:5257   */\n    tag_562:\n        /* \"#utility.yul\":5165:5174   */\n      0x00\n        /* \"#utility.yul\":5198:5251   */\n      tag_688\n        /* \"#utility.yul\":5216:5250   */\n      tag_689\n        /* \"#utility.yul\":5225:5249   */\n      tag_690\n        /* \"#utility.yul\":5243:5248   */\n      dup5\n        /* \"#utility.yul\":5225:5249   */\n      tag_551\n      jump\t// in\n    tag_690:\n        /* \"#utility.yul\":5216:5250   */\n      tag_561\n      jump\t// in\n    tag_689:\n        /* \"#utility.yul\":5198:5251   */\n      tag_551\n      jump\t// in\n    tag_688:\n        /* \"#utility.yul\":5185:5251   */\n      swap1\n      pop\n        /* \"#utility.yul\":5115:5257   */\n      swap2\n      swap1\n      pop\n      jump\t// out\n        /* \"#utility.yul\":5263:5389   */\n    tag_563:\n        /* \"#utility.yul\":5313:5322   */\n      0x00\n        /* \"#utility.yul\":5346:5383   */\n      tag_692\n        /* \"#utility.yul\":5377:5382   */\n      dup3\n        /* \"#utility.yul\":5346:5383   */\n      tag_562\n      jump\t// in\n    tag_692:\n        /* \"#utility.yul\":5333:5383   */\n      swap1\n      pop\n        /* \"#utility.yul\":5263:5389   */\n      swap2\n      swap1\n      pop\n      jump\t// out\n        /* \"#utility.yul\":5395:5549   */\n    tag_564:\n        /* \"#utility.yul\":5473:5482   */\n      0x00\n        /* \"#utility.yul\":5506:5543   */\n      tag_694\n        /* \"#utility.yul\":5537:5542   */\n      dup3\n        /* \"#utility.yul\":5506:5543   */\n      tag_563\n      jump\t// in\n    tag_694:\n        /* \"#utility.yul\":5493:5543   */\n      swap1\n      pop\n        /* \"#utility.yul\":5395:5549   */\n      swap2\n      swap1\n      pop\n      jump\t// out\n        /* \"#utility.yul\":5555:5742   */\n    tag_565:\n        /* \"#utility.yul\":5670:5735   */\n      tag_696\n        /* \"#utility.yul\":5729:5734   */\n      dup2\n        /* \"#utility.yul\":5670:5735   */\n      tag_564\n      jump\t// in\n    tag_696:\n        /* \"#utility.yul\":5665:5668   */\n      dup3\n        /* \"#utility.yul\":5658:5736   */\n      mstore\n        /* \"#utility.yul\":5555:5742   */\n      pop\n      pop\n      jump\t// out\n        /* \"#utility.yul\":5748:6026   */\n    tag_78:\n        /* \"#utility.yul\":5869:5873   */\n      0x00\n        /* \"#utility.yul\":5907:5909   */\n      0x20\n        /* \"#utility.yul\":5896:5905   */\n      dup3\n        /* \"#utility.yul\":5892:5910   */\n      add\n        /* \"#utility.yul\":5884:5910   */\n      swap1\n      pop\n        /* \"#utility.yul\":5920:6019   */\n      tag_698\n        /* \"#utility.yul\":6016:6017   */\n      0x00\n        /* \"#utility.yul\":6005:6014   */\n      dup4\n        /* \"#utility.yul\":6001:6018   */\n      add\n        /* \"#utility.yul\":5992:5998   */\n      dup5\n        /* \"#utility.yul\":5920:6019   */\n      tag_565\n      jump\t// in\n    tag_698:\n        /* \"#utility.yul\":5748:6026   */\n      swap3\n      swap2\n      pop\n      pop\n      jump\t// out\n        /* \"#utility.yul\":6032:6361   */\n    tag_90:\n        /* \"#utility.yul\":6091:6097   */\n      0x00\n        /* \"#utility.yul\":6140:6142   */\n      0x20\n        /* \"#utility.yul\":6128:6137   */\n      dup3\n        /* \"#utility.yul\":6119:6126   */\n      dup5\n        /* \"#utility.yul\":6115:6138   */\n      sub\n        /* \"#utility.yul\":6111:6143   */\n      slt\n        /* \"#utility.yul\":6108:6227   */\n      iszero\n      tag_700\n      jumpi\n        /* \"#utility.yul\":6146:6225   */\n      tag_701\n      tag_549\n      jump\t// in\n    tag_701:\n        /* \"#utility.yul\":6108:6227   */\n    tag_700:\n        /* \"#utility.yul\":6266:6267   */\n      0x00\n        /* \"#utility.yul\":6291:6344   */\n      tag_702\n        /* \"#utility.yul\":6336:6343   */\n      dup5\n        /* \"#utility.yul\":6327:6333   */\n      dup3\n        /* \"#utility.yul\":6316:6325   */\n      dup6\n        /* \"#utility.yul\":6312:6334   */\n      add\n        /* \"#utility.yul\":6291:6344   */\n      tag_554\n      jump\t// in\n    tag_702:\n        /* \"#utility.yul\":6281:6344   */\n      swap2\n      pop\n        /* \"#utility.yul\":6237:6354   */\n      pop\n        /* \"#utility.yul\":6032:6361   */\n      swap3\n      swap2\n      pop\n      pop\n      jump\t// out\n        /* \"#utility.yul\":6367:6986   */\n    tag_96:\n        /* \"#utility.yul\":6444:6450   */\n      0x00\n        /* \"#utility.yul\":6452:6458   */\n      dup1\n        /* \"#utility.yul\":6460:6466   */\n      0x00\n        /* \"#utility.yul\":6509:6511   */\n      0x60\n        /* \"#utility.yul\":6497:6506   */\n      dup5\n        /* \"#utility.yul\":6488:6495   */\n      dup7\n        /* \"#utility.yul\":6484:6507   */\n      sub\n        /* \"#utility.yul\":6480:6512   */\n      slt\n        /* \"#utility.yul\":6477:6596   */\n      iszero\n      tag_704\n      jumpi\n        /* \"#utility.yul\":6515:6594   */\n      tag_705\n      tag_549\n      jump\t// in\n    tag_705:\n        /* \"#utility.yul\":6477:6596   */\n    tag_704:\n        /* \"#utility.yul\":6635:6636   */\n      0x00\n        /* \"#utility.yul\":6660:6713   */\n      tag_706\n        /* \"#utility.yul\":6705:6712   */\n      dup7\n        /* \"#utility.yul\":6696:6702   */\n      dup3\n        /* \"#utility.yul\":6685:6694   */\n      dup8\n        /* \"#utility.yul\":6681:6703   */\n      add\n        /* \"#utility.yul\":6660:6713   */\n      tag_554\n      jump\t// in\n    tag_706:\n        /* \"#utility.yul\":6650:6713   */\n      swap4\n      pop\n        /* \"#utility.yul\":6606:6723   */\n      pop\n        /* \"#utility.yul\":6762:6764   */\n      0x20\n        /* \"#utility.yul\":6788:6841   */\n      tag_707\n        /* \"#utility.yul\":6833:6840   */\n      dup7\n        /* \"#utility.yul\":6824:6830   */\n      dup3\n        /* \"#utility.yul\":6813:6822   */\n      dup8\n        /* \"#utility.yul\":6809:6831   */\n      add\n        /* \"#utility.yul\":6788:6841   */\n      tag_554\n      jump\t// in\n    tag_707:\n        /* \"#utility.yul\":6778:6841   */\n      swap3\n      pop\n        /* \"#utility.yul\":6733:6851   */\n      pop\n        /* \"#utility.yul\":6890:6892   */\n      0x40\n        /* \"#utility.yul\":6916:6969   */\n      tag_708\n        /* \"#utility.yul\":6961:6968   */\n      dup7\n        /* \"#utility.yul\":6952:6958   */\n      dup3\n        /* \"#utility.yul\":6941:6950   */\n      dup8\n        /* \"#utility.yul\":6937:6959   */\n      add\n        /* \"#utility.yul\":6916:6969   */\n      tag_557\n      jump\t// in\n    tag_708:\n        /* \"#utility.yul\":6906:6969   */\n      swap2\n      pop\n        /* \"#utility.yul\":6861:6979   */\n      pop\n        /* \"#utility.yul\":6367:6986   */\n      swap3\n      pop\n      swap3\n      pop\n      swap3\n      jump\t// out\n        /* \"#utility.yul\":6992:7078   */\n    tag_566:\n        /* \"#utility.yul\":7027:7034   */\n      0x00\n        /* \"#utility.yul\":7067:7071   */\n      0xff\n        /* \"#utility.yul\":7060:7065   */\n      dup3\n        /* \"#utility.yul\":7056:7072   */\n      and\n        /* \"#utility.yul\":7045:7072   */\n      swap1\n      pop\n        /* \"#utility.yul\":6992:7078   */\n      swap2\n      swap1\n      pop\n      jump\t// out\n        /* \"#utility.yul\":7084:7196   */\n    tag_567:\n        /* \"#utility.yul\":7167:7189   */\n      tag_711\n        /* \"#utility.yul\":7183:7188   */\n      dup2\n        /* \"#utility.yul\":7167:7189   */\n      tag_566\n      jump\t// in\n    tag_711:\n        /* \"#utility.yul\":7162:7165   */\n      dup3\n        /* \"#utility.yul\":7155:7190   */\n      mstore\n        /* \"#utility.yul\":7084:7196   */\n      pop\n      pop\n      jump\t// out\n        /* \"#utility.yul\":7202:7416   */\n    tag_111:\n        /* \"#utility.yul\":7291:7295   */\n      0x00\n        /* \"#utility.yul\":7329:7331   */\n      0x20\n        /* \"#utility.yul\":7318:7327   */\n      dup3\n        /* \"#utility.yul\":7314:7332   */\n      add\n        /* \"#utility.yul\":7306:7332   */\n      swap1\n      pop\n        /* \"#utility.yul\":7342:7409   */\n      tag_713\n        /* \"#utility.yul\":7406:7407   */\n      0x00\n        /* \"#utility.yul\":7395:7404   */\n      dup4\n        /* \"#utility.yul\":7391:7408   */\n      add\n        /* \"#utility.yul\":7382:7388   */\n      dup5\n        /* \"#utility.yul\":7342:7409   */\n      tag_567\n      jump\t// in\n    tag_713:\n        /* \"#utility.yul\":7202:7416   */\n      swap3\n      swap2\n      pop\n      pop\n      jump\t// out\n        /* \"#utility.yul\":7422:7540   */\n    tag_568:\n        /* \"#utility.yul\":7509:7533   */\n      tag_715\n        /* \"#utility.yul\":7527:7532   */\n      dup2\n        /* \"#utility.yul\":7509:7533   */\n      tag_552\n      jump\t// in\n    tag_715:\n        /* \"#utility.yul\":7504:7507   */\n      dup3\n        /* \"#utility.yul\":7497:7534   */\n      mstore\n        /* \"#utility.yul\":7422:7540   */\n      pop\n      pop\n      jump\t// out\n        /* \"#utility.yul\":7546:7768   */\n    tag_151:\n        /* \"#utility.yul\":7639:7643   */\n      0x00\n        /* \"#utility.yul\":7677:7679   */\n      0x20\n        /* \"#utility.yul\":7666:7675   */\n      dup3\n        /* \"#utility.yul\":7662:7680   */\n      add\n        /* \"#utility.yul\":7654:7680   */\n      swap1\n      pop\n        /* \"#utility.yul\":7690:7761   */\n      tag_717\n        /* \"#utility.yul\":7758:7759   */\n      0x00\n        /* \"#utility.yul\":7747:7756   */\n      dup4\n        /* \"#utility.yul\":7743:7760   */\n      add\n        /* \"#utility.yul\":7734:7740   */\n      dup5\n        /* \"#utility.yul\":7690:7761   */\n      tag_568\n      jump\t// in\n    tag_717:\n        /* \"#utility.yul\":7546:7768   */\n      swap3\n      swap2\n      pop\n      pop\n      jump\t// out\n        /* \"#utility.yul\":7774:7954   */\n    tag_265:\n        /* \"#utility.yul\":7822:7899   */\n      0x4e487b7100000000000000000000000000000000000000000000000000000000\n        /* \"#utility.yul\":7819:7820   */\n      0x00\n        /* \"#utility.yul\":7812:7900   */\n      mstore\n        /* \"#utility.yul\":7919:7923   */\n      0x21\n        /* \"#utility.yul\":7916:7917   */\n      0x04\n        /* \"#utility.yul\":7909:7924   */\n      mstore\n        /* \"#utility.yul\":7943:7947   */\n      0x24\n        /* \"#utility.yul\":7940:7941   */\n      0x00\n        /* \"#utility.yul\":7933:7948   */\n      revert\n        /* \"#utility.yul\":7960:8079   */\n    tag_569:\n        /* \"#utility.yul\":8047:8048   */\n      0x03\n        /* \"#utility.yul\":8040:8045   */\n      dup2\n        /* \"#utility.yul\":8037:8049   */\n      lt\n        /* \"#utility.yul\":8027:8073   */\n      tag_720\n      jumpi\n        /* \"#utility.yul\":8053:8071   */\n      tag_721\n      tag_265\n      jump\t// in\n    tag_721:\n        /* \"#utility.yul\":8027:8073   */\n    tag_720:\n        /* \"#utility.yul\":7960:8079   */\n      pop\n      jump\t// out\n        /* \"#utility.yul\":8085:8224   */\n    tag_570:\n        /* \"#utility.yul\":8136:8143   */\n      0x00\n        /* \"#utility.yul\":8165:8170   */\n      dup2\n        /* \"#utility.yul\":8154:8170   */\n      swap1\n      pop\n        /* \"#utility.yul\":8171:8218   */\n      tag_723\n        /* \"#utility.yul\":8212:8217   */\n      dup3\n        /* \"#utility.yul\":8171:8218   */\n      tag_569\n      jump\t// in\n    tag_723:\n        /* \"#utility.yul\":8085:8224   */\n      swap2\n      swap1\n      pop\n      jump\t// out\n        /* \"#utility.yul\":8230:8369   */\n    tag_571:\n        /* \"#utility.yul\":8292:8301   */\n      0x00\n        /* \"#utility.yul\":8325:8363   */\n      tag_725\n        /* \"#utility.yul\":8357:8362   */\n      dup3\n        /* \"#utility.yul\":8325:8363   */\n      tag_570\n      jump\t// in\n    tag_725:\n        /* \"#utility.yul\":8312:8363   */\n      swap1\n      pop\n        /* \"#utility.yul\":8230:8369   */\n      swap2\n      swap1\n      pop\n      jump\t// out\n        /* \"#utility.yul\":8375:8530   */\n    tag_572:\n        /* \"#utility.yul\":8474:8523   */\n      tag_727\n        /* \"#utility.yul\":8517:8522   */\n      dup2\n        /* \"#utility.yul\":8474:8523   */\n      tag_571\n      jump\t// in\n    tag_727:\n        /* \"#utility.yul\":8469:8472   */\n      dup3\n        /* \"#utility.yul\":8462:8524   */\n      mstore\n        /* \"#utility.yul\":8375:8530   */\n      pop\n      pop\n      jump\t// out\n        /* \"#utility.yul\":8536:8782   */\n    tag_201:\n        /* \"#utility.yul\":8641:8645   */\n      0x00\n        /* \"#utility.yul\":8679:8681   */\n      0x20\n        /* \"#utility.yul\":8668:8677   */\n      dup3\n        /* \"#utility.yul\":8664:8682   */\n      add\n        /* \"#utility.yul\":8656:8682   */\n      swap1\n      pop\n        /* \"#utility.yul\":8692:8775   */\n      tag_729\n        /* \"#utility.yul\":8772:8773   */\n      0x00\n        /* \"#utility.yul\":8761:8770   */\n      dup4\n        /* \"#utility.yul\":8757:8774   */\n      add\n        /* \"#utility.yul\":8748:8754   */\n      dup5\n        /* \"#utility.yul\":8692:8775   */\n      tag_572\n      jump\t// in\n    tag_729:\n        /* \"#utility.yul\":8536:8782   */\n      swap3\n      swap2\n      pop\n      pop\n      jump\t// out\n        /* \"#utility.yul\":8788:9262   */\n    tag_209:\n        /* \"#utility.yul\":8856:8862   */\n      0x00\n        /* \"#utility.yul\":8864:8870   */\n      dup1\n        /* \"#utility.yul\":8913:8915   */\n      0x40\n        /* \"#utility.yul\":8901:8910   */\n      dup4\n        /* \"#utility.yul\":8892:8899   */\n      dup6\n        /* \"#utility.yul\":8888:8911   */\n      sub\n        /* \"#utility.yul\":8884:8916   */\n      slt\n        /* \"#utility.yul\":8881:9000   */\n      iszero\n      tag_731\n      jumpi\n        /* \"#utility.yul\":8919:8998   */\n      tag_732\n      tag_549\n      jump\t// in\n    tag_732:\n        /* \"#utility.yul\":8881:9000   */\n    tag_731:\n        /* \"#utility.yul\":9039:9040   */\n      0x00\n        /* \"#utility.yul\":9064:9117   */\n      tag_733\n        /* \"#utility.yul\":9109:9116   */\n      dup6\n        /* \"#utility.yul\":9100:9106   */\n      dup3\n        /* \"#utility.yul\":9089:9098   */\n      dup7\n        /* \"#utility.yul\":9085:9107   */\n      add\n        /* \"#utility.yul\":9064:9117   */\n      tag_554\n      jump\t// in\n    tag_733:\n        /* \"#utility.yul\":9054:9117   */\n      swap3\n      pop\n        /* \"#utility.yul\":9010:9127   */\n      pop\n        /* \"#utility.yul\":9166:9168   */\n      0x20\n        /* \"#utility.yul\":9192:9245   */\n      tag_734\n        /* \"#utility.yul\":9237:9244   */\n      dup6\n        /* \"#utility.yul\":9228:9234   */\n      dup3\n        /* \"#utility.yul\":9217:9226   */\n      dup7\n        /* \"#utility.yul\":9213:9235   */\n      add\n        /* \"#utility.yul\":9192:9245   */\n      tag_554\n      jump\t// in\n    tag_734:\n        /* \"#utility.yul\":9182:9245   */\n      swap2\n      pop\n        /* \"#utility.yul\":9137:9255   */\n      pop\n        /* \"#utility.yul\":8788:9262   */\n      swap3\n      pop\n      swap3\n      swap1\n      pop\n      jump\t// out\n        /* \"#utility.yul\":9268:9448   */\n    tag_573:\n        /* \"#utility.yul\":9316:9393   */\n      0x4e487b7100000000000000000000000000000000000000000000000000000000\n        /* \"#utility.yul\":9313:9314   */\n      0x00\n        /* \"#utility.yul\":9306:9394   */\n      mstore\n        /* \"#utility.yul\":9413:9417   */\n      0x22\n        /* \"#utility.yul\":9410:9411   */\n      0x04\n        /* \"#utility.yul\":9403:9418   */\n      mstore\n        /* \"#utility.yul\":9437:9441   */\n      0x24\n        /* \"#utility.yul\":9434:9435   */\n      0x00\n        /* \"#utility.yul\":9427:9442   */\n      revert\n        /* \"#utility.yul\":9454:9774   */\n    tag_222:\n        /* \"#utility.yul\":9498:9504   */\n      0x00\n        /* \"#utility.yul\":9535:9536   */\n      0x02\n        /* \"#utility.yul\":9529:9533   */\n      dup3\n        /* \"#utility.yul\":9525:9537   */\n      div\n        /* \"#utility.yul\":9515:9537   */\n      swap1\n      pop\n        /* \"#utility.yul\":9582:9583   */\n      0x01\n        /* \"#utility.yul\":9576:9580   */\n      dup3\n        /* \"#utility.yul\":9572:9584   */\n      and\n        /* \"#utility.yul\":9603:9621   */\n      dup1\n        /* \"#utility.yul\":9593:9674   */\n      tag_737\n      jumpi\n        /* \"#utility.yul\":9659:9663   */\n      0x7f\n        /* \"#utility.yul\":9651:9657   */\n      dup3\n        /* \"#utility.yul\":9647:9664   */\n      and\n        /* \"#utility.yul\":9637:9664   */\n      swap2\n      pop\n        /* \"#utility.yul\":9593:9674   */\n    tag_737:\n        /* \"#utility.yul\":9721:9723   */\n      0x20\n        /* \"#utility.yul\":9713:9719   */\n      dup3\n        /* \"#utility.yul\":9710:9724   */\n      lt\n        /* \"#utility.yul\":9690:9708   */\n      dup2\n        /* \"#utility.yul\":9687:9725   */\n      sub\n        /* \"#utility.yul\":9684:9768   */\n      tag_738\n      jumpi\n        /* \"#utility.yul\":9740:9758   */\n      tag_739\n      tag_573\n      jump\t// in\n    tag_739:\n        /* \"#utility.yul\":9684:9768   */\n    tag_738:\n        /* \"#utility.yul\":9505:9774   */\n      pop\n        /* \"#utility.yul\":9454:9774   */\n      swap2\n      swap1\n      pop\n      jump\t// out\n        /* \"#utility.yul\":9780:9956   */\n    tag_574:\n        /* \"#utility.yul\":9920:9948   */\n      0x53616c65732074617267657473206e6f7420796574206d65742e000000000000\n        /* \"#utility.yul\":9916:9917   */\n      0x00\n        /* \"#utility.yul\":9908:9914   */\n      dup3\n        /* \"#utility.yul\":9904:9918   */\n      add\n        /* \"#utility.yul\":9897:9949   */\n      mstore\n        /* \"#utility.yul\":9780:9956   */\n      pop\n      jump\t// out\n        /* \"#utility.yul\":9962:10328   */\n    tag_575:\n        /* \"#utility.yul\":10104:10107   */\n      0x00\n        /* \"#utility.yul\":10125:10192   */\n      tag_742\n        /* \"#utility.yul\":10189:10191   */\n      0x1a\n        /* \"#utility.yul\":10184:10187   */\n      dup4\n        /* \"#utility.yul\":10125:10192   */\n      tag_541\n      jump\t// in\n    tag_742:\n        /* \"#utility.yul\":10118:10192   */\n      swap2\n      pop\n        /* \"#utility.yul\":10201:10294   */\n      tag_743\n        /* \"#utility.yul\":10290:10293   */\n      dup3\n        /* \"#utility.yul\":10201:10294   */\n      tag_574\n      jump\t// in\n    tag_743:\n        /* \"#utility.yul\":10319:10321   */\n      0x20\n        /* \"#utility.yul\":10314:10317   */\n      dup3\n        /* \"#utility.yul\":10310:10322   */\n      add\n        /* \"#utility.yul\":10303:10322   */\n      swap1\n      pop\n        /* \"#utility.yul\":9962:10328   */\n      swap2\n      swap1\n      pop\n      jump\t// out\n        /* \"#utility.yul\":10334:10753   */\n    tag_262:\n        /* \"#utility.yul\":10500:10504   */\n      0x00\n        /* \"#utility.yul\":10538:10540   */\n      0x20\n        /* \"#utility.yul\":10527:10536   */\n      dup3\n        /* \"#utility.yul\":10523:10541   */\n      add\n        /* \"#utility.yul\":10515:10541   */\n      swap1\n      pop\n        /* \"#utility.yul\":10587:10596   */\n      dup2\n        /* \"#utility.yul\":10581:10585   */\n      dup2\n        /* \"#utility.yul\":10577:10597   */\n      sub\n        /* \"#utility.yul\":10573:10574   */\n      0x00\n        /* \"#utility.yul\":10562:10571   */\n      dup4\n        /* \"#utility.yul\":10558:10575   */\n      add\n        /* \"#utility.yul\":10551:10598   */\n      mstore\n        /* \"#utility.yul\":10615:10746   */\n      tag_745\n        /* \"#utility.yul\":10741:10745   */\n      dup2\n        /* \"#utility.yul\":10615:10746   */\n      tag_575\n      jump\t// in\n    tag_745:\n        /* \"#utility.yul\":10607:10746   */\n      swap1\n      pop\n        /* \"#utility.yul\":10334:10753   */\n      swap2\n      swap1\n      pop\n      jump\t// out\n        /* \"#utility.yul\":10759:10990   */\n    tag_576:\n        /* \"#utility.yul\":10899:10933   */\n      0x507269766174652053616c652063616e206f6e6c792073746172742066726f6d\n        /* \"#utility.yul\":10895:10896   */\n      0x00\n        /* \"#utility.yul\":10887:10893   */\n      dup3\n        /* \"#utility.yul\":10883:10897   */\n      add\n        /* \"#utility.yul\":10876:10934   */\n      mstore\n        /* \"#utility.yul\":10968:10982   */\n      0x204e4f4e452073746167652e0000000000000000000000000000000000000000\n        /* \"#utility.yul\":10963:10965   */\n      0x20\n        /* \"#utility.yul\":10955:10961   */\n      dup3\n        /* \"#utility.yul\":10951:10966   */\n      add\n        /* \"#utility.yul\":10944:10983   */\n      mstore\n        /* \"#utility.yul\":10759:10990   */\n      pop\n      jump\t// out\n        /* \"#utility.yul\":10996:11362   */\n    tag_577:\n        /* \"#utility.yul\":11138:11141   */\n      0x00\n        /* \"#utility.yul\":11159:11226   */\n      tag_748\n        /* \"#utility.yul\":11223:11225   */\n      0x2c\n        /* \"#utility.yul\":11218:11221   */\n      dup4\n        /* \"#utility.yul\":11159:11226   */\n      tag_541\n      jump\t// in\n    tag_748:\n        /* \"#utility.yul\":11152:11226   */\n      swap2\n      pop\n        /* \"#utility.yul\":11235:11328   */\n      tag_749\n        /* \"#utility.yul\":11324:11327   */\n      dup3\n        /* \"#utility.yul\":11235:11328   */\n      tag_576\n      jump\t// in\n    tag_749:\n        /* \"#utility.yul\":11353:11355   */\n      0x40\n        /* \"#utility.yul\":11348:11351   */\n      dup3\n        /* \"#utility.yul\":11344:11356   */\n      add\n        /* \"#utility.yul\":11337:11356   */\n      swap1\n      pop\n        /* \"#utility.yul\":10996:11362   */\n      swap2\n      swap1\n      pop\n      jump\t// out\n        /* \"#utility.yul\":11368:11787   */\n    tag_276:\n        /* \"#utility.yul\":11534:11538   */\n      0x00\n        /* \"#utility.yul\":11572:11574   */\n      0x20\n        /* \"#utility.yul\":11561:11570   */\n      dup3\n        /* \"#utility.yul\":11557:11575   */\n      add\n        /* \"#utility.yul\":11549:11575   */\n      swap1\n      pop\n        /* \"#utility.yul\":11621:11630   */\n      dup2\n        /* \"#utility.yul\":11615:11619   */\n      dup2\n        /* \"#utility.yul\":11611:11631   */\n      sub\n        /* \"#utility.yul\":11607:11608   */\n      0x00\n        /* \"#utility.yul\":11596:11605   */\n      dup4\n        /* \"#utility.yul\":11592:11609   */\n      add\n        /* \"#utility.yul\":11585:11632   */\n      mstore\n        /* \"#utility.yul\":11649:11780   */\n      tag_751\n        /* \"#utility.yul\":11775:11779   */\n      dup2\n        /* \"#utility.yul\":11649:11780   */\n      tag_577\n      jump\t// in\n    tag_751:\n        /* \"#utility.yul\":11641:11780   */\n      swap1\n      pop\n        /* \"#utility.yul\":11368:11787   */\n      swap2\n      swap1\n      pop\n      jump\t// out\n        /* \"#utility.yul\":11793:12026   */\n    tag_578:\n        /* \"#utility.yul\":11933:11967   */\n      0x507269766174652053616c6520746f6b656e732073686f756c6420626520756e\n        /* \"#utility.yul\":11929:11930   */\n      0x00\n        /* \"#utility.yul\":11921:11927   */\n      dup3\n        /* \"#utility.yul\":11917:11931   */\n      add\n        /* \"#utility.yul\":11910:11968   */\n      mstore\n        /* \"#utility.yul\":12002:12018   */\n      0x736f6c642061742073746172742e000000000000000000000000000000000000\n        /* \"#utility.yul\":11997:11999   */\n      0x20\n        /* \"#utility.yul\":11989:11995   */\n      dup3\n        /* \"#utility.yul\":11985:12000   */\n      add\n        /* \"#utility.yul\":11978:12019   */\n      mstore\n        /* \"#utility.yul\":11793:12026   */\n      pop\n      jump\t// out\n        /* \"#utility.yul\":12032:12398   */\n    tag_579:\n        /* \"#utility.yul\":12174:12177   */\n      0x00\n        /* \"#utility.yul\":12195:12262   */\n      tag_754\n        /* \"#utility.yul\":12259:12261   */\n      0x2e\n        /* \"#utility.yul\":12254:12257   */\n      dup4\n        /* \"#utility.yul\":12195:12262   */\n      tag_541\n      jump\t// in\n    tag_754:\n        /* \"#utility.yul\":12188:12262   */\n      swap2\n      pop\n        /* \"#utility.yul\":12271:12364   */\n      tag_755\n        /* \"#utility.yul\":12360:12363   */\n      dup3\n        /* \"#utility.yul\":12271:12364   */\n      tag_578\n      jump\t// in\n    tag_755:\n        /* \"#utility.yul\":12389:12391   */\n      0x40\n        /* \"#utility.yul\":12384:12387   */\n      dup3\n        /* \"#utility.yul\":12380:12392   */\n      add\n        /* \"#utility.yul\":12373:12392   */\n      swap1\n      pop\n        /* \"#utility.yul\":12032:12398   */\n      swap2\n      swap1\n      pop\n      jump\t// out\n        /* \"#utility.yul\":12404:12823   */\n    tag_279:\n        /* \"#utility.yul\":12570:12574   */\n      0x00\n        /* \"#utility.yul\":12608:12610   */\n      0x20\n        /* \"#utility.yul\":12597:12606   */\n      dup3\n        /* \"#utility.yul\":12593:12611   */\n      add\n        /* \"#utility.yul\":12585:12611   */\n      swap1\n      pop\n        /* \"#utility.yul\":12657:12666   */\n      dup2\n        /* \"#utility.yul\":12651:12655   */\n      dup2\n        /* \"#utility.yul\":12647:12667   */\n      sub\n        /* \"#utility.yul\":12643:12644   */\n      0x00\n        /* \"#utility.yul\":12632:12641   */\n      dup4\n        /* \"#utility.yul\":12628:12645   */\n      add\n        /* \"#utility.yul\":12621:12668   */\n      mstore\n        /* \"#utility.yul\":12685:12816   */\n      tag_757\n        /* \"#utility.yul\":12811:12815   */\n      dup2\n        /* \"#utility.yul\":12685:12816   */\n      tag_579\n      jump\t// in\n    tag_757:\n        /* \"#utility.yul\":12677:12816   */\n      swap1\n      pop\n        /* \"#utility.yul\":12404:12823   */\n      swap2\n      swap1\n      pop\n      jump\t// out\n        /* \"#utility.yul\":12829:13069   */\n    tag_580:\n        /* \"#utility.yul\":12969:13003   */\n      0x5072652d53616c652073686f756c64206e6f7420686176652073746172746564\n        /* \"#utility.yul\":12965:12966   */\n      0x00\n        /* \"#utility.yul\":12957:12963   */\n      dup3\n        /* \"#utility.yul\":12953:12967   */\n      add\n        /* \"#utility.yul\":12946:13004   */\n      mstore\n        /* \"#utility.yul\":13038:13061   */\n      0x206265666f726520507269766174652053616c652e0000000000000000000000\n        /* \"#utility.yul\":13033:13035   */\n      0x20\n        /* \"#utility.yul\":13025:13031   */\n      dup3\n        /* \"#utility.yul\":13021:13036   */\n      add\n        /* \"#utility.yul\":13014:13062   */\n      mstore\n        /* \"#utility.yul\":12829:13069   */\n      pop\n      jump\t// out\n        /* \"#utility.yul\":13075:13441   */\n    tag_581:\n        /* \"#utility.yul\":13217:13220   */\n      0x00\n        /* \"#utility.yul\":13238:13305   */\n      tag_760\n        /* \"#utility.yul\":13302:13304   */\n      0x35\n        /* \"#utility.yul\":13297:13300   */\n      dup4\n        /* \"#utility.yul\":13238:13305   */\n      tag_541\n      jump\t// in\n    tag_760:\n        /* \"#utility.yul\":13231:13305   */\n      swap2\n      pop\n        /* \"#utility.yul\":13314:13407   */\n      tag_761\n        /* \"#utility.yul\":13403:13406   */\n      dup3\n        /* \"#utility.yul\":13314:13407   */\n      tag_580\n      jump\t// in\n    tag_761:\n        /* \"#utility.yul\":13432:13434   */\n      0x40\n        /* \"#utility.yul\":13427:13430   */\n      dup3\n        /* \"#utility.yul\":13423:13435   */\n      add\n        /* \"#utility.yul\":13416:13435   */\n      swap1\n      pop\n        /* \"#utility.yul\":13075:13441   */\n      swap2\n      swap1\n      pop\n      jump\t// out\n        /* \"#utility.yul\":13447:13866   */\n    tag_282:\n        /* \"#utility.yul\":13613:13617   */\n      0x00\n        /* \"#utility.yul\":13651:13653   */\n      0x20\n        /* \"#utility.yul\":13640:13649   */\n      dup3\n        /* \"#utility.yul\":13636:13654   */\n      add\n        /* \"#utility.yul\":13628:13654   */\n      swap1\n      pop\n        /* \"#utility.yul\":13700:13709   */\n      dup2\n        /* \"#utility.yul\":13694:13698   */\n      dup2\n        /* \"#utility.yul\":13690:13710   */\n      sub\n        /* \"#utility.yul\":13686:13687   */\n      0x00\n        /* \"#utility.yul\":13675:13684   */\n      dup4\n        /* \"#utility.yul\":13671:13688   */\n      add\n        /* \"#utility.yul\":13664:13711   */\n      mstore\n        /* \"#utility.yul\":13728:13859   */\n      tag_763\n        /* \"#utility.yul\":13854:13858   */\n      dup2\n        /* \"#utility.yul\":13728:13859   */\n      tag_581\n      jump\t// in\n    tag_763:\n        /* \"#utility.yul\":13720:13859   */\n      swap1\n      pop\n        /* \"#utility.yul\":13447:13866   */\n      swap2\n      swap1\n      pop\n      jump\t// out\n        /* \"#utility.yul\":13872:14040   */\n    tag_582:\n        /* \"#utility.yul\":14012:14032   */\n      0x4e6f2073616c65206973206163746976652e0000000000000000000000000000\n        /* \"#utility.yul\":14008:14009   */\n      0x00\n        /* \"#utility.yul\":14000:14006   */\n      dup3\n        /* \"#utility.yul\":13996:14010   */\n      add\n        /* \"#utility.yul\":13989:14033   */\n      mstore\n        /* \"#utility.yul\":13872:14040   */\n      pop\n      jump\t// out\n        /* \"#utility.yul\":14046:14412   */\n    tag_583:\n        /* \"#utility.yul\":14188:14191   */\n      0x00\n        /* \"#utility.yul\":14209:14276   */\n      tag_766\n        /* \"#utility.yul\":14273:14275   */\n      0x12\n        /* \"#utility.yul\":14268:14271   */\n      dup4\n        /* \"#utility.yul\":14209:14276   */\n      tag_541\n      jump\t// in\n    tag_766:\n        /* \"#utility.yul\":14202:14276   */\n      swap2\n      pop\n        /* \"#utility.yul\":14285:14378   */\n      tag_767\n        /* \"#utility.yul\":14374:14377   */\n      dup3\n        /* \"#utility.yul\":14285:14378   */\n      tag_582\n      jump\t// in\n    tag_767:\n        /* \"#utility.yul\":14403:14405   */\n      0x20\n        /* \"#utility.yul\":14398:14401   */\n      dup3\n        /* \"#utility.yul\":14394:14406   */\n      add\n        /* \"#utility.yul\":14387:14406   */\n      swap1\n      pop\n        /* \"#utility.yul\":14046:14412   */\n      swap2\n      swap1\n      pop\n      jump\t// out\n        /* \"#utility.yul\":14418:14837   */\n    tag_295:\n        /* \"#utility.yul\":14584:14588   */\n      0x00\n        /* \"#utility.yul\":14622:14624   */\n      0x20\n        /* \"#utility.yul\":14611:14620   */\n      dup3\n        /* \"#utility.yul\":14607:14625   */\n      add\n        /* \"#utility.yul\":14599:14625   */\n      swap1\n      pop\n        /* \"#utility.yul\":14671:14680   */\n      dup2\n        /* \"#utility.yul\":14665:14669   */\n      dup2\n        /* \"#utility.yul\":14661:14681   */\n      sub\n        /* \"#utility.yul\":14657:14658   */\n      0x00\n        /* \"#utility.yul\":14646:14655   */\n      dup4\n        /* \"#utility.yul\":14642:14659   */\n      add\n        /* \"#utility.yul\":14635:14682   */\n      mstore\n        /* \"#utility.yul\":14699:14830   */\n      tag_769\n        /* \"#utility.yul\":14825:14829   */\n      dup2\n        /* \"#utility.yul\":14699:14830   */\n      tag_583\n      jump\t// in\n    tag_769:\n        /* \"#utility.yul\":14691:14830   */\n      swap1\n      pop\n        /* \"#utility.yul\":14418:14837   */\n      swap2\n      swap1\n      pop\n      jump\t// out\n        /* \"#utility.yul\":14843:15018   */\n    tag_584:\n        /* \"#utility.yul\":14983:15010   */\n      0x496e76616c69642070726963652066726f6d206f7261636c6500000000000000\n        /* \"#utility.yul\":14979:14980   */\n      0x00\n        /* \"#utility.yul\":14971:14977   */\n      dup3\n        /* \"#utility.yul\":14967:14981   */\n      add\n        /* \"#utility.yul\":14960:15011   */\n      mstore\n        /* \"#utility.yul\":14843:15018   */\n      pop\n      jump\t// out\n        /* \"#utility.yul\":15024:15390   */\n    tag_585:\n        /* \"#utility.yul\":15166:15169   */\n      0x00\n        /* \"#utility.yul\":15187:15254   */\n      tag_772\n        /* \"#utility.yul\":15251:15253   */\n      0x19\n        /* \"#utility.yul\":15246:15249   */\n      dup4\n        /* \"#utility.yul\":15187:15254   */\n      tag_541\n      jump\t// in\n    tag_772:\n        /* \"#utility.yul\":15180:15254   */\n      swap2\n      pop\n        /* \"#utility.yul\":15263:15356   */\n      tag_773\n        /* \"#utility.yul\":15352:15355   */\n      dup3\n        /* \"#utility.yul\":15263:15356   */\n      tag_584\n      jump\t// in\n    tag_773:\n        /* \"#utility.yul\":15381:15383   */\n      0x20\n        /* \"#utility.yul\":15376:15379   */\n      dup3\n        /* \"#utility.yul\":15372:15384   */\n      add\n        /* \"#utility.yul\":15365:15384   */\n      swap1\n      pop\n        /* \"#utility.yul\":15024:15390   */\n      swap2\n      swap1\n      pop\n      jump\t// out\n        /* \"#utility.yul\":15396:15815   */\n    tag_299:\n        /* \"#utility.yul\":15562:15566   */\n      0x00\n        /* \"#utility.yul\":15600:15602   */\n      0x20\n        /* \"#utility.yul\":15589:15598   */\n      dup3\n        /* \"#utility.yul\":15585:15603   */\n      add\n        /* \"#utility.yul\":15577:15603   */\n      swap1\n      pop\n        /* \"#utility.yul\":15649:15658   */\n      dup2\n        /* \"#utility.yul\":15643:15647   */\n      dup2\n        /* \"#utility.yul\":15639:15659   */\n      sub\n        /* \"#utility.yul\":15635:15636   */\n      0x00\n        /* \"#utility.yul\":15624:15633   */\n      dup4\n        /* \"#utility.yul\":15620:15637   */\n      add\n        /* \"#utility.yul\":15613:15660   */\n      mstore\n        /* \"#utility.yul\":15677:15808   */\n      tag_775\n        /* \"#utility.yul\":15803:15807   */\n      dup2\n        /* \"#utility.yul\":15677:15808   */\n      tag_585\n      jump\t// in\n    tag_775:\n        /* \"#utility.yul\":15669:15808   */\n      swap1\n      pop\n        /* \"#utility.yul\":15396:15815   */\n      swap2\n      swap1\n      pop\n      jump\t// out\n        /* \"#utility.yul\":15821:15993   */\n    tag_586:\n        /* \"#utility.yul\":15961:15985   */\n      0x507269766174652053616c6520736f6c64206f75742e00000000000000000000\n        /* \"#utility.yul\":15957:15958   */\n      0x00\n        /* \"#utility.yul\":15949:15955   */\n      dup3\n        /* \"#utility.yul\":15945:15959   */\n      add\n        /* \"#utility.yul\":15938:15986   */\n      mstore\n        /* \"#utility.yul\":15821:15993   */\n      pop\n      jump\t// out\n        /* \"#utility.yul\":15999:16365   */\n    tag_587:\n        /* \"#utility.yul\":16141:16144   */\n      0x00\n        /* \"#utility.yul\":16162:16229   */\n      tag_778\n        /* \"#utility.yul\":16226:16228   */\n      0x16\n        /* \"#utility.yul\":16221:16224   */\n      dup4\n        /* \"#utility.yul\":16162:16229   */\n      tag_541\n      jump\t// in\n    tag_778:\n        /* \"#utility.yul\":16155:16229   */\n      swap2\n      pop\n        /* \"#utility.yul\":16238:16331   */\n      tag_779\n        /* \"#utility.yul\":16327:16330   */\n      dup3\n        /* \"#utility.yul\":16238:16331   */\n      tag_586\n      jump\t// in\n    tag_779:\n        /* \"#utility.yul\":16356:16358   */\n      0x20\n        /* \"#utility.yul\":16351:16354   */\n      dup3\n        /* \"#utility.yul\":16347:16359   */\n      add\n        /* \"#utility.yul\":16340:16359   */\n      swap1\n      pop\n        /* \"#utility.yul\":15999:16365   */\n      swap2\n      swap1\n      pop\n      jump\t// out\n        /* \"#utility.yul\":16371:16790   */\n    tag_307:\n        /* \"#utility.yul\":16537:16541   */\n      0x00\n        /* \"#utility.yul\":16575:16577   */\n      0x20\n        /* \"#utility.yul\":16564:16573   */\n      dup3\n        /* \"#utility.yul\":16560:16578   */\n      add\n        /* \"#utility.yul\":16552:16578   */\n      swap1\n      pop\n        /* \"#utility.yul\":16624:16633   */\n      dup2\n        /* \"#utility.yul\":16618:16622   */\n      dup2\n        /* \"#utility.yul\":16614:16634   */\n      sub\n        /* \"#utility.yul\":16610:16611   */\n      0x00\n        /* \"#utility.yul\":16599:16608   */\n      dup4\n        /* \"#utility.yul\":16595:16612   */\n      add\n        /* \"#utility.yul\":16588:16635   */\n      mstore\n        /* \"#utility.yul\":16652:16783   */\n      tag_781\n        /* \"#utility.yul\":16778:16782   */\n      dup2\n        /* \"#utility.yul\":16652:16783   */\n      tag_587\n      jump\t// in\n    tag_781:\n        /* \"#utility.yul\":16644:16783   */\n      swap1\n      pop\n        /* \"#utility.yul\":16371:16790   */\n      swap2\n      swap1\n      pop\n      jump\t// out\n        /* \"#utility.yul\":16796:17016   */\n    tag_588:\n        /* \"#utility.yul\":16936:16970   */\n      0x4578636565647320507269766174652053616c6520746f6b656e206c696d6974\n        /* \"#utility.yul\":16932:16933   */\n      0x00\n        /* \"#utility.yul\":16924:16930   */\n      dup3\n        /* \"#utility.yul\":16920:16934   */\n      add\n        /* \"#utility.yul\":16913:16971   */\n      mstore\n        /* \"#utility.yul\":17005:17008   */\n      0x2e00000000000000000000000000000000000000000000000000000000000000\n        /* \"#utility.yul\":17000:17002   */\n      0x20\n        /* \"#utility.yul\":16992:16998   */\n      dup3\n        /* \"#utility.yul\":16988:17003   */\n      add\n        /* \"#utility.yul\":16981:17009   */\n      mstore\n        /* \"#utility.yul\":16796:17016   */\n      pop\n      jump\t// out\n        /* \"#utility.yul\":17022:17388   */\n    tag_589:\n        /* \"#utility.yul\":17164:17167   */\n      0x00\n        /* \"#utility.yul\":17185:17252   */\n      tag_784\n        /* \"#utility.yul\":17249:17251   */\n      0x21\n        /* \"#utility.yul\":17244:17247   */\n      dup4\n        /* \"#utility.yul\":17185:17252   */\n      tag_541\n      jump\t// in\n    tag_784:\n        /* \"#utility.yul\":17178:17252   */\n      swap2\n      pop\n        /* \"#utility.yul\":17261:17354   */\n      tag_785\n        /* \"#utility.yul\":17350:17353   */\n      dup3\n        /* \"#utility.yul\":17261:17354   */\n      tag_588\n      jump\t// in\n    tag_785:\n        /* \"#utility.yul\":17379:17381   */\n      0x40\n        /* \"#utility.yul\":17374:17377   */\n      dup3\n        /* \"#utility.yul\":17370:17382   */\n      add\n        /* \"#utility.yul\":17363:17382   */\n      swap1\n      pop\n        /* \"#utility.yul\":17022:17388   */\n      swap2\n      swap1\n      pop\n      jump\t// out\n        /* \"#utility.yul\":17394:17813   */\n    tag_318:\n        /* \"#utility.yul\":17560:17564   */\n      0x00\n        /* \"#utility.yul\":17598:17600   */\n      0x20\n        /* \"#utility.yul\":17587:17596   */\n      dup3\n        /* \"#utility.yul\":17583:17601   */\n      add\n        /* \"#utility.yul\":17575:17601   */\n      swap1\n      pop\n        /* \"#utility.yul\":17647:17656   */\n      dup2\n        /* \"#utility.yul\":17641:17645   */\n      dup2\n        /* \"#utility.yul\":17637:17657   */\n      sub\n        /* \"#utility.yul\":17633:17634   */\n      0x00\n        /* \"#utility.yul\":17622:17631   */\n      dup4\n        /* \"#utility.yul\":17618:17635   */\n      add\n        /* \"#utility.yul\":17611:17658   */\n      mstore\n        /* \"#utility.yul\":17675:17806   */\n      tag_787\n        /* \"#utility.yul\":17801:17805   */\n      dup2\n        /* \"#utility.yul\":17675:17806   */\n      tag_589\n      jump\t// in\n    tag_787:\n        /* \"#utility.yul\":17667:17806   */\n      swap1\n      pop\n        /* \"#utility.yul\":17394:17813   */\n      swap2\n      swap1\n      pop\n      jump\t// out\n        /* \"#utility.yul\":17819:17987   */\n    tag_590:\n        /* \"#utility.yul\":17959:17979   */\n      0x5072652d53616c6520736f6c64206f75742e0000000000000000000000000000\n        /* \"#utility.yul\":17955:17956   */\n      0x00\n        /* \"#utility.yul\":17947:17953   */\n      dup3\n        /* \"#utility.yul\":17943:17957   */\n      add\n        /* \"#utility.yul\":17936:17980   */\n      mstore\n        /* \"#utility.yul\":17819:17987   */\n      pop\n      jump\t// out\n        /* \"#utility.yul\":17993:18359   */\n    tag_591:\n        /* \"#utility.yul\":18135:18138   */\n      0x00\n        /* \"#utility.yul\":18156:18223   */\n      tag_790\n        /* \"#utility.yul\":18220:18222   */\n      0x12\n        /* \"#utility.yul\":18215:18218   */\n      dup4\n        /* \"#utility.yul\":18156:18223   */\n      tag_541\n      jump\t// in\n    tag_790:\n        /* \"#utility.yul\":18149:18223   */\n      swap2\n      pop\n        /* \"#utility.yul\":18232:18325   */\n      tag_791\n        /* \"#utility.yul\":18321:18324   */\n      dup3\n        /* \"#utility.yul\":18232:18325   */\n      tag_590\n      jump\t// in\n    tag_791:\n        /* \"#utility.yul\":18350:18352   */\n      0x20\n        /* \"#utility.yul\":18345:18348   */\n      dup3\n        /* \"#utility.yul\":18341:18353   */\n      add\n        /* \"#utility.yul\":18334:18353   */\n      swap1\n      pop\n        /* \"#utility.yul\":17993:18359   */\n      swap2\n      swap1\n      pop\n      jump\t// out\n        /* \"#utility.yul\":18365:18784   */\n    tag_331:\n        /* \"#utility.yul\":18531:18535   */\n      0x00\n        /* \"#utility.yul\":18569:18571   */\n      0x20\n        /* \"#utility.yul\":18558:18567   */\n      dup3\n        /* \"#utility.yul\":18554:18572   */\n      add\n        /* \"#utility.yul\":18546:18572   */\n      swap1\n      pop\n        /* \"#utility.yul\":18618:18627   */\n      dup2\n        /* \"#utility.yul\":18612:18616   */\n      dup2\n        /* \"#utility.yul\":18608:18628   */\n      sub\n        /* \"#utility.yul\":18604:18605   */\n      0x00\n        /* \"#utility.yul\":18593:18602   */\n      dup4\n        /* \"#utility.yul\":18589:18606   */\n      add\n        /* \"#utility.yul\":18582:18629   */\n      mstore\n        /* \"#utility.yul\":18646:18777   */\n      tag_793\n        /* \"#utility.yul\":18772:18776   */\n      dup2\n        /* \"#utility.yul\":18646:18777   */\n      tag_591\n      jump\t// in\n    tag_793:\n        /* \"#utility.yul\":18638:18777   */\n      swap1\n      pop\n        /* \"#utility.yul\":18365:18784   */\n      swap2\n      swap1\n      pop\n      jump\t// out\n        /* \"#utility.yul\":18790:18970   */\n    tag_592:\n        /* \"#utility.yul\":18930:18962   */\n      0x507572636861736520616d6f756e74206f7574206f66206c696d6974732e0000\n        /* \"#utility.yul\":18926:18927   */\n      0x00\n        /* \"#utility.yul\":18918:18924   */\n      dup3\n        /* \"#utility.yul\":18914:18928   */\n      add\n        /* \"#utility.yul\":18907:18963   */\n      mstore\n        /* \"#utility.yul\":18790:18970   */\n      pop\n      jump\t// out\n        /* \"#utility.yul\":18976:19342   */\n    tag_593:\n        /* \"#utility.yul\":19118:19121   */\n      0x00\n        /* \"#utility.yul\":19139:19206   */\n      tag_796\n        /* \"#utility.yul\":19203:19205   */\n      0x1e\n        /* \"#utility.yul\":19198:19201   */\n      dup4\n        /* \"#utility.yul\":19139:19206   */\n      tag_541\n      jump\t// in\n    tag_796:\n        /* \"#utility.yul\":19132:19206   */\n      swap2\n      pop\n        /* \"#utility.yul\":19215:19308   */\n      tag_797\n        /* \"#utility.yul\":19304:19307   */\n      dup3\n        /* \"#utility.yul\":19215:19308   */\n      tag_592\n      jump\t// in\n    tag_797:\n        /* \"#utility.yul\":19333:19335   */\n      0x20\n        /* \"#utility.yul\":19328:19331   */\n      dup3\n        /* \"#utility.yul\":19324:19336   */\n      add\n        /* \"#utility.yul\":19317:19336   */\n      swap1\n      pop\n        /* \"#utility.yul\":18976:19342   */\n      swap2\n      swap1\n      pop\n      jump\t// out\n        /* \"#utility.yul\":19348:19767   */\n    tag_335:\n        /* \"#utility.yul\":19514:19518   */\n      0x00\n        /* \"#utility.yul\":19552:19554   */\n      0x20\n        /* \"#utility.yul\":19541:19550   */\n      dup3\n        /* \"#utility.yul\":19537:19555   */\n      add\n        /* \"#utility.yul\":19529:19555   */\n      swap1\n      pop\n        /* \"#utility.yul\":19601:19610   */\n      dup2\n        /* \"#utility.yul\":19595:19599   */\n      dup2\n        /* \"#utility.yul\":19591:19611   */\n      sub\n        /* \"#utility.yul\":19587:19588   */\n      0x00\n        /* \"#utility.yul\":19576:19585   */\n      dup4\n        /* \"#utility.yul\":19572:19589   */\n      add\n        /* \"#utility.yul\":19565:19612   */\n      mstore\n        /* \"#utility.yul\":19629:19760   */\n      tag_799\n        /* \"#utility.yul\":19755:19759   */\n      dup2\n        /* \"#utility.yul\":19629:19760   */\n      tag_593\n      jump\t// in\n    tag_799:\n        /* \"#utility.yul\":19621:19760   */\n      swap1\n      pop\n        /* \"#utility.yul\":19348:19767   */\n      swap2\n      swap1\n      pop\n      jump\t// out\n        /* \"#utility.yul\":19773:19952   */\n    tag_594:\n        /* \"#utility.yul\":19913:19944   */\n      0x45786365656473205072652d53616c6520746f6b656e206c696d69742e000000\n        /* \"#utility.yul\":19909:19910   */\n      0x00\n        /* \"#utility.yul\":19901:19907   */\n      dup3\n        /* \"#utility.yul\":19897:19911   */\n      add\n        /* \"#utility.yul\":19890:19945   */\n      mstore\n        /* \"#utility.yul\":19773:19952   */\n      pop\n      jump\t// out\n        /* \"#utility.yul\":19958:20324   */\n    tag_595:\n        /* \"#utility.yul\":20100:20103   */\n      0x00\n        /* \"#utility.yul\":20121:20188   */\n      tag_802\n        /* \"#utility.yul\":20185:20187   */\n      0x1d\n        /* \"#utility.yul\":20180:20183   */\n      dup4\n        /* \"#utility.yul\":20121:20188   */\n      tag_541\n      jump\t// in\n    tag_802:\n        /* \"#utility.yul\":20114:20188   */\n      swap2\n      pop\n        /* \"#utility.yul\":20197:20290   */\n      tag_803\n        /* \"#utility.yul\":20286:20289   */\n      dup3\n        /* \"#utility.yul\":20197:20290   */\n      tag_594\n      jump\t// in\n    tag_803:\n        /* \"#utility.yul\":20315:20317   */\n      0x20\n        /* \"#utility.yul\":20310:20313   */\n      dup3\n        /* \"#utility.yul\":20306:20318   */\n      add\n        /* \"#utility.yul\":20299:20318   */\n      swap1\n      pop\n        /* \"#utility.yul\":19958:20324   */\n      swap2\n      swap1\n      pop\n      jump\t// out\n        /* \"#utility.yul\":20330:20749   */\n    tag_343:\n        /* \"#utility.yul\":20496:20500   */\n      0x00\n        /* \"#utility.yul\":20534:20536   */\n      0x20\n        /* \"#utility.yul\":20523:20532   */\n      dup3\n        /* \"#utility.yul\":20519:20537   */\n      add\n        /* \"#utility.yul\":20511:20537   */\n      swap1\n      pop\n        /* \"#utility.yul\":20583:20592   */\n      dup2\n        /* \"#utility.yul\":20577:20581   */\n      dup2\n        /* \"#utility.yul\":20573:20593   */\n      sub\n        /* \"#utility.yul\":20569:20570   */\n      0x00\n        /* \"#utility.yul\":20558:20567   */\n      dup4\n        /* \"#utility.yul\":20554:20571   */\n      add\n        /* \"#utility.yul\":20547:20594   */\n      mstore\n        /* \"#utility.yul\":20611:20742   */\n      tag_805\n        /* \"#utility.yul\":20737:20741   */\n      dup2\n        /* \"#utility.yul\":20611:20742   */\n      tag_595\n      jump\t// in\n    tag_805:\n        /* \"#utility.yul\":20603:20742   */\n      swap1\n      pop\n        /* \"#utility.yul\":20330:20749   */\n      swap2\n      swap1\n      pop\n      jump\t// out\n        /* \"#utility.yul\":20755:20975   */\n    tag_596:\n        /* \"#utility.yul\":20895:20929   */\n      0x56657374696e6720706572696f64206e6f742079657420636f6d706c65746564\n        /* \"#utility.yul\":20891:20892   */\n      0x00\n        /* \"#utility.yul\":20883:20889   */\n      dup3\n        /* \"#utility.yul\":20879:20893   */\n      add\n        /* \"#utility.yul\":20872:20930   */\n      mstore\n        /* \"#utility.yul\":20964:20967   */\n      0x2e00000000000000000000000000000000000000000000000000000000000000\n        /* \"#utility.yul\":20959:20961   */\n      0x20\n        /* \"#utility.yul\":20951:20957   */\n      dup3\n        /* \"#utility.yul\":20947:20962   */\n      add\n        /* \"#utility.yul\":20940:20968   */\n      mstore\n        /* \"#utility.yul\":20755:20975   */\n      pop\n      jump\t// out\n        /* \"#utility.yul\":20981:21347   */\n    tag_597:\n        /* \"#utility.yul\":21123:21126   */\n      0x00\n        /* \"#utility.yul\":21144:21211   */\n      tag_808\n        /* \"#utility.yul\":21208:21210   */\n      0x21\n        /* \"#utility.yul\":21203:21206   */\n      dup4\n        /* \"#utility.yul\":21144:21211   */\n      tag_541\n      jump\t// in\n    tag_808:\n        /* \"#utility.yul\":21137:21211   */\n      swap2\n      pop\n        /* \"#utility.yul\":21220:21313   */\n      tag_809\n        /* \"#utility.yul\":21309:21312   */\n      dup3\n        /* \"#utility.yul\":21220:21313   */\n      tag_596\n      jump\t// in\n    tag_809:\n        /* \"#utility.yul\":21338:21340   */\n      0x40\n        /* \"#utility.yul\":21333:21336   */\n      dup3\n        /* \"#utility.yul\":21329:21341   */\n      add\n        /* \"#utility.yul\":21322:21341   */\n      swap1\n      pop\n        /* \"#utility.yul\":20981:21347   */\n      swap2\n      swap1\n      pop\n      jump\t// out\n        /* \"#utility.yul\":21353:21772   */\n    tag_352:\n        /* \"#utility.yul\":21519:21523   */\n      0x00\n        /* \"#utility.yul\":21557:21559   */\n      0x20\n        /* \"#utility.yul\":21546:21555   */\n      dup3\n        /* \"#utility.yul\":21542:21560   */\n      add\n        /* \"#utility.yul\":21534:21560   */\n      swap1\n      pop\n        /* \"#utility.yul\":21606:21615   */\n      dup2\n        /* \"#utility.yul\":21600:21604   */\n      dup2\n        /* \"#utility.yul\":21596:21616   */\n      sub\n        /* \"#utility.yul\":21592:21593   */\n      0x00\n        /* \"#utility.yul\":21581:21590   */\n      dup4\n        /* \"#utility.yul\":21577:21594   */\n      add\n        /* \"#utility.yul\":21570:21617   */\n      mstore\n        /* \"#utility.yul\":21634:21765   */\n      tag_811\n        /* \"#utility.yul\":21760:21764   */\n      dup2\n        /* \"#utility.yul\":21634:21765   */\n      tag_597\n      jump\t// in\n    tag_811:\n        /* \"#utility.yul\":21626:21765   */\n      swap1\n      pop\n        /* \"#utility.yul\":21353:21772   */\n      swap2\n      swap1\n      pop\n      jump\t// out\n        /* \"#utility.yul\":21778:21955   */\n    tag_598:\n        /* \"#utility.yul\":21918:21947   */\n      0x4e6f2076657374656420746f6b656e7320746f2072656c656173650000000000\n        /* \"#utility.yul\":21914:21915   */\n      0x00\n        /* \"#utility.yul\":21906:21912   */\n      dup3\n        /* \"#utility.yul\":21902:21916   */\n      add\n        /* \"#utility.yul\":21895:21948   */\n      mstore\n        /* \"#utility.yul\":21778:21955   */\n      pop\n      jump\t// out\n        /* \"#utility.yul\":21961:22327   */\n    tag_599:\n        /* \"#utility.yul\":22103:22106   */\n      0x00\n        /* \"#utility.yul\":22124:22191   */\n      tag_814\n        /* \"#utility.yul\":22188:22190   */\n      0x1b\n        /* \"#utility.yul\":22183:22186   */\n      dup4\n        /* \"#utility.yul\":22124:22191   */\n      tag_541\n      jump\t// in\n    tag_814:\n        /* \"#utility.yul\":22117:22191   */\n      swap2\n      pop\n        /* \"#utility.yul\":22200:22293   */\n      tag_815\n        /* \"#utility.yul\":22289:22292   */\n      dup3\n        /* \"#utility.yul\":22200:22293   */\n      tag_598\n      jump\t// in\n    tag_815:\n        /* \"#utility.yul\":22318:22320   */\n      0x20\n        /* \"#utility.yul\":22313:22316   */\n      dup3\n        /* \"#utility.yul\":22309:22321   */\n      add\n        /* \"#utility.yul\":22302:22321   */\n      swap1\n      pop\n        /* \"#utility.yul\":21961:22327   */\n      swap2\n      swap1\n      pop\n      jump\t// out\n        /* \"#utility.yul\":22333:22752   */\n    tag_355:\n        /* \"#utility.yul\":22499:22503   */\n      0x00\n        /* \"#utility.yul\":22537:22539   */\n      0x20\n        /* \"#utility.yul\":22526:22535   */\n      dup3\n        /* \"#utility.yul\":22522:22540   */\n      add\n        /* \"#utility.yul\":22514:22540   */\n      swap1\n      pop\n        /* \"#utility.yul\":22586:22595   */\n      dup2\n        /* \"#utility.yul\":22580:22584   */\n      dup2\n        /* \"#utility.yul\":22576:22596   */\n      sub\n        /* \"#utility.yul\":22572:22573   */\n      0x00\n        /* \"#utility.yul\":22561:22570   */\n      dup4\n        /* \"#utility.yul\":22557:22574   */\n      add\n        /* \"#utility.yul\":22550:22597   */\n      mstore\n        /* \"#utility.yul\":22614:22745   */\n      tag_817\n        /* \"#utility.yul\":22740:22744   */\n      dup2\n        /* \"#utility.yul\":22614:22745   */\n      tag_599\n      jump\t// in\n    tag_817:\n        /* \"#utility.yul\":22606:22745   */\n      swap1\n      pop\n        /* \"#utility.yul\":22333:22752   */\n      swap2\n      swap1\n      pop\n      jump\t// out\n        /* \"#utility.yul\":22758:22988   */\n    tag_600:\n        /* \"#utility.yul\":22898:22932   */\n      0x5072652d53616c652063616e206f6e6c79207374617274206166746572205072\n        /* \"#utility.yul\":22894:22895   */\n      0x00\n        /* \"#utility.yul\":22886:22892   */\n      dup3\n        /* \"#utility.yul\":22882:22896   */\n      add\n        /* \"#utility.yul\":22875:22933   */\n      mstore\n        /* \"#utility.yul\":22967:22980   */\n      0x69766174652053616c652e000000000000000000000000000000000000000000\n        /* \"#utility.yul\":22962:22964   */\n      0x20\n        /* \"#utility.yul\":22954:22960   */\n      dup3\n        /* \"#utility.yul\":22950:22965   */\n      add\n        /* \"#utility.yul\":22943:22981   */\n      mstore\n        /* \"#utility.yul\":22758:22988   */\n      pop\n      jump\t// out\n        /* \"#utility.yul\":22994:23360   */\n    tag_601:\n        /* \"#utility.yul\":23136:23139   */\n      0x00\n        /* \"#utility.yul\":23157:23224   */\n      tag_820\n        /* \"#utility.yul\":23221:23223   */\n      0x2b\n        /* \"#utility.yul\":23216:23219   */\n      dup4\n        /* \"#utility.yul\":23157:23224   */\n      tag_541\n      jump\t// in\n    tag_820:\n        /* \"#utility.yul\":23150:23224   */\n      swap2\n      pop\n        /* \"#utility.yul\":23233:23326   */\n      tag_821\n        /* \"#utility.yul\":23322:23325   */\n      dup3\n        /* \"#utility.yul\":23233:23326   */\n      tag_600\n      jump\t// in\n    tag_821:\n        /* \"#utility.yul\":23351:23353   */\n      0x40\n        /* \"#utility.yul\":23346:23349   */\n      dup3\n        /* \"#utility.yul\":23342:23354   */\n      add\n        /* \"#utility.yul\":23335:23354   */\n      swap1\n      pop\n        /* \"#utility.yul\":22994:23360   */\n      swap2\n      swap1\n      pop\n      jump\t// out\n        /* \"#utility.yul\":23366:23785   */\n    tag_368:\n        /* \"#utility.yul\":23532:23536   */\n      0x00\n        /* \"#utility.yul\":23570:23572   */\n      0x20\n        /* \"#utility.yul\":23559:23568   */\n      dup3\n        /* \"#utility.yul\":23555:23573   */\n      add\n        /* \"#utility.yul\":23547:23573   */\n      swap1\n      pop\n        /* \"#utility.yul\":23619:23628   */\n      dup2\n        /* \"#utility.yul\":23613:23617   */\n      dup2\n        /* \"#utility.yul\":23609:23629   */\n      sub\n        /* \"#utility.yul\":23605:23606   */\n      0x00\n        /* \"#utility.yul\":23594:23603   */\n      dup4\n        /* \"#utility.yul\":23590:23607   */\n      add\n        /* \"#utility.yul\":23583:23630   */\n      mstore\n        /* \"#utility.yul\":23647:23778   */\n      tag_823\n        /* \"#utility.yul\":23773:23777   */\n      dup2\n        /* \"#utility.yul\":23647:23778   */\n      tag_601\n      jump\t// in\n    tag_823:\n        /* \"#utility.yul\":23639:23778   */\n      swap1\n      pop\n        /* \"#utility.yul\":23366:23785   */\n      swap2\n      swap1\n      pop\n      jump\t// out\n        /* \"#utility.yul\":23791:24034   */\n    tag_602:\n        /* \"#utility.yul\":23931:23965   */\n      0x507269766174652053616c65206d75737420626520636f6d706c657465642062\n        /* \"#utility.yul\":23927:23928   */\n      0x00\n        /* \"#utility.yul\":23919:23925   */\n      dup3\n        /* \"#utility.yul\":23915:23929   */\n      add\n        /* \"#utility.yul\":23908:23966   */\n      mstore\n        /* \"#utility.yul\":24000:24026   */\n      0x65666f7265207374617274696e67205072652d53616c652e0000000000000000\n        /* \"#utility.yul\":23995:23997   */\n      0x20\n        /* \"#utility.yul\":23987:23993   */\n      dup3\n        /* \"#utility.yul\":23983:23998   */\n      add\n        /* \"#utility.yul\":23976:24027   */\n      mstore\n        /* \"#utility.yul\":23791:24034   */\n      pop\n      jump\t// out\n        /* \"#utility.yul\":24040:24406   */\n    tag_603:\n        /* \"#utility.yul\":24182:24185   */\n      0x00\n        /* \"#utility.yul\":24203:24270   */\n      tag_826\n        /* \"#utility.yul\":24267:24269   */\n      0x38\n        /* \"#utility.yul\":24262:24265   */\n      dup4\n        /* \"#utility.yul\":24203:24270   */\n      tag_541\n      jump\t// in\n    tag_826:\n        /* \"#utility.yul\":24196:24270   */\n      swap2\n      pop\n        /* \"#utility.yul\":24279:24372   */\n      tag_827\n        /* \"#utility.yul\":24368:24371   */\n      dup3\n        /* \"#utility.yul\":24279:24372   */\n      tag_602\n      jump\t// in\n    tag_827:\n        /* \"#utility.yul\":24397:24399   */\n      0x40\n        /* \"#utility.yul\":24392:24395   */\n      dup3\n        /* \"#utility.yul\":24388:24400   */\n      add\n        /* \"#utility.yul\":24381:24400   */\n      swap1\n      pop\n        /* \"#utility.yul\":24040:24406   */\n      swap2\n      swap1\n      pop\n      jump\t// out\n        /* \"#utility.yul\":24412:24831   */\n    tag_371:\n        /* \"#utility.yul\":24578:24582   */\n      0x00\n        /* \"#utility.yul\":24616:24618   */\n      0x20\n        /* \"#utility.yul\":24605:24614   */\n      dup3\n        /* \"#utility.yul\":24601:24619   */\n      add\n        /* \"#utility.yul\":24593:24619   */\n      swap1\n      pop\n        /* \"#utility.yul\":24665:24674   */\n      dup2\n        /* \"#utility.yul\":24659:24663   */\n      dup2\n        /* \"#utility.yul\":24655:24675   */\n      sub\n        /* \"#utility.yul\":24651:24652   */\n      0x00\n        /* \"#utility.yul\":24640:24649   */\n      dup4\n        /* \"#utility.yul\":24636:24653   */\n      add\n        /* \"#utility.yul\":24629:24676   */\n      mstore\n        /* \"#utility.yul\":24693:24824   */\n      tag_829\n        /* \"#utility.yul\":24819:24823   */\n      dup2\n        /* \"#utility.yul\":24693:24824   */\n      tag_603\n      jump\t// in\n    tag_829:\n        /* \"#utility.yul\":24685:24824   */\n      swap1\n      pop\n        /* \"#utility.yul\":24412:24831   */\n      swap2\n      swap1\n      pop\n      jump\t// out\n        /* \"#utility.yul\":24837:25016   */\n    tag_604:\n        /* \"#utility.yul\":24977:25008   */\n      0x416d6f756e74206d7573742062652067726561746572207468616e2030000000\n        /* \"#utility.yul\":24973:24974   */\n      0x00\n        /* \"#utility.yul\":24965:24971   */\n      dup3\n        /* \"#utility.yul\":24961:24975   */\n      add\n        /* \"#utility.yul\":24954:25009   */\n      mstore\n        /* \"#utility.yul\":24837:25016   */\n      pop\n      jump\t// out\n        /* \"#utility.yul\":25022:25388   */\n    tag_605:\n        /* \"#utility.yul\":25164:25167   */\n      0x00\n        /* \"#utility.yul\":25185:25252   */\n      tag_832\n        /* \"#utility.yul\":25249:25251   */\n      0x1d\n        /* \"#utility.yul\":25244:25247   */\n      dup4\n        /* \"#utility.yul\":25185:25252   */\n      tag_541\n      jump\t// in\n    tag_832:\n        /* \"#utility.yul\":25178:25252   */\n      swap2\n      pop\n        /* \"#utility.yul\":25261:25354   */\n      tag_833\n        /* \"#utility.yul\":25350:25353   */\n      dup3\n        /* \"#utility.yul\":25261:25354   */\n      tag_604\n      jump\t// in\n    tag_833:\n        /* \"#utility.yul\":25379:25381   */\n      0x20\n        /* \"#utility.yul\":25374:25377   */\n      dup3\n        /* \"#utility.yul\":25370:25382   */\n      add\n        /* \"#utility.yul\":25363:25382   */\n      swap1\n      pop\n        /* \"#utility.yul\":25022:25388   */\n      swap2\n      swap1\n      pop\n      jump\t// out\n        /* \"#utility.yul\":25394:25813   */\n    tag_388:\n        /* \"#utility.yul\":25560:25564   */\n      0x00\n        /* \"#utility.yul\":25598:25600   */\n      0x20\n        /* \"#utility.yul\":25587:25596   */\n      dup3\n        /* \"#utility.yul\":25583:25601   */\n      add\n        /* \"#utility.yul\":25575:25601   */\n      swap1\n      pop\n        /* \"#utility.yul\":25647:25656   */\n      dup2\n        /* \"#utility.yul\":25641:25645   */\n      dup2\n        /* \"#utility.yul\":25637:25657   */\n      sub\n        /* \"#utility.yul\":25633:25634   */\n      0x00\n        /* \"#utility.yul\":25622:25631   */\n      dup4\n        /* \"#utility.yul\":25618:25635   */\n      add\n        /* \"#utility.yul\":25611:25658   */\n      mstore\n        /* \"#utility.yul\":25675:25806   */\n      tag_835\n        /* \"#utility.yul\":25801:25805   */\n      dup2\n        /* \"#utility.yul\":25675:25806   */\n      tag_605\n      jump\t// in\n    tag_835:\n        /* \"#utility.yul\":25667:25806   */\n      swap1\n      pop\n        /* \"#utility.yul\":25394:25813   */\n      swap2\n      swap1\n      pop\n      jump\t// out\n        /* \"#utility.yul\":25819:25998   */\n    tag_606:\n        /* \"#utility.yul\":25959:25990   */\n      0x496e73756666696369656e742062616c616e636520746f207374616b65000000\n        /* \"#utility.yul\":25955:25956   */\n      0x00\n        /* \"#utility.yul\":25947:25953   */\n      dup3\n        /* \"#utility.yul\":25943:25957   */\n      add\n        /* \"#utility.yul\":25936:25991   */\n      mstore\n        /* \"#utility.yul\":25819:25998   */\n      pop\n      jump\t// out\n        /* \"#utility.yul\":26004:26370   */\n    tag_607:\n        /* \"#utility.yul\":26146:26149   */\n      0x00\n        /* \"#utility.yul\":26167:26234   */\n      tag_838\n        /* \"#utility.yul\":26231:26233   */\n      0x1d\n        /* \"#utility.yul\":26226:26229   */\n      dup4\n        /* \"#utility.yul\":26167:26234   */\n      tag_541\n      jump\t// in\n    tag_838:\n        /* \"#utility.yul\":26160:26234   */\n      swap2\n      pop\n        /* \"#utility.yul\":26243:26336   */\n      tag_839\n        /* \"#utility.yul\":26332:26335   */\n      dup3\n        /* \"#utility.yul\":26243:26336   */\n      tag_606\n      jump\t// in\n    tag_839:\n        /* \"#utility.yul\":26361:26363   */\n      0x20\n        /* \"#utility.yul\":26356:26359   */\n      dup3\n        /* \"#utility.yul\":26352:26364   */\n      add\n        /* \"#utility.yul\":26345:26364   */\n      swap1\n      pop\n        /* \"#utility.yul\":26004:26370   */\n      swap2\n      swap1\n      pop\n      jump\t// out\n        /* \"#utility.yul\":26376:26795   */\n    tag_392:\n        /* \"#utility.yul\":26542:26546   */\n      0x00\n        /* \"#utility.yul\":26580:26582   */\n      0x20\n        /* \"#utility.yul\":26569:26578   */\n      dup3\n        /* \"#utility.yul\":26565:26583   */\n      add\n        /* \"#utility.yul\":26557:26583   */\n      swap1\n      pop\n        /* \"#utility.yul\":26629:26638   */\n      dup2\n        /* \"#utility.yul\":26623:26627   */\n      dup2\n        /* \"#utility.yul\":26619:26639   */\n      sub\n        /* \"#utility.yul\":26615:26616   */\n      0x00\n        /* \"#utility.yul\":26604:26613   */\n      dup4\n        /* \"#utility.yul\":26600:26617   */\n      add\n        /* \"#utility.yul\":26593:26640   */\n      mstore\n        /* \"#utility.yul\":26657:26788   */\n      tag_841\n        /* \"#utility.yul\":26783:26787   */\n      dup2\n        /* \"#utility.yul\":26657:26788   */\n      tag_607\n      jump\t// in\n    tag_841:\n        /* \"#utility.yul\":26649:26788   */\n      swap1\n      pop\n        /* \"#utility.yul\":26376:26795   */\n      swap2\n      swap1\n      pop\n      jump\t// out\n        /* \"#utility.yul\":26801:27133   */\n    tag_397:\n        /* \"#utility.yul\":26922:26926   */\n      0x00\n        /* \"#utility.yul\":26960:26962   */\n      0x40\n        /* \"#utility.yul\":26949:26958   */\n      dup3\n        /* \"#utility.yul\":26945:26963   */\n      add\n        /* \"#utility.yul\":26937:26963   */\n      swap1\n      pop\n        /* \"#utility.yul\":26973:27044   */\n      tag_843\n        /* \"#utility.yul\":27041:27042   */\n      0x00\n        /* \"#utility.yul\":27030:27039   */\n      dup4\n        /* \"#utility.yul\":27026:27043   */\n      add\n        /* \"#utility.yul\":27017:27023   */\n      dup6\n        /* \"#utility.yul\":26973:27044   */\n      tag_560\n      jump\t// in\n    tag_843:\n        /* \"#utility.yul\":27054:27126   */\n      tag_844\n        /* \"#utility.yul\":27122:27124   */\n      0x20\n        /* \"#utility.yul\":27111:27120   */\n      dup4\n        /* \"#utility.yul\":27107:27125   */\n      add\n        /* \"#utility.yul\":27098:27104   */\n      dup5\n        /* \"#utility.yul\":27054:27126   */\n      tag_560\n      jump\t// in\n    tag_844:\n        /* \"#utility.yul\":26801:27133   */\n      swap4\n      swap3\n      pop\n      pop\n      pop\n      jump\t// out\n        /* \"#utility.yul\":27139:27319   */\n    tag_406:\n        /* \"#utility.yul\":27187:27264   */\n      0x4e487b7100000000000000000000000000000000000000000000000000000000\n        /* \"#utility.yul\":27184:27185   */\n      0x00\n        /* \"#utility.yul\":27177:27265   */\n      mstore\n        /* \"#utility.yul\":27284:27288   */\n      0x32\n        /* \"#utility.yul\":27281:27282   */\n      0x04\n        /* \"#utility.yul\":27274:27289   */\n      mstore\n        /* \"#utility.yul\":27308:27312   */\n      0x24\n        /* \"#utility.yul\":27305:27306   */\n      0x00\n        /* \"#utility.yul\":27298:27313   */\n      revert\n        /* \"#utility.yul\":27325:27430   */\n    tag_608:\n        /* \"#utility.yul\":27361:27368   */\n      0x00\n        /* \"#utility.yul\":27401:27423   */\n      0xffffffffffffffffffff\n        /* \"#utility.yul\":27394:27399   */\n      dup3\n        /* \"#utility.yul\":27390:27424   */\n      and\n        /* \"#utility.yul\":27379:27424   */\n      swap1\n      pop\n        /* \"#utility.yul\":27325:27430   */\n      swap2\n      swap1\n      pop\n      jump\t// out\n        /* \"#utility.yul\":27436:27556   */\n    tag_609:\n        /* \"#utility.yul\":27508:27531   */\n      tag_848\n        /* \"#utility.yul\":27525:27530   */\n      dup2\n        /* \"#utility.yul\":27508:27531   */\n      tag_608\n      jump\t// in\n    tag_848:\n        /* \"#utility.yul\":27501:27506   */\n      dup2\n        /* \"#utility.yul\":27498:27532   */\n      eq\n        /* \"#utility.yul\":27488:27550   */\n      tag_849\n      jumpi\n        /* \"#utility.yul\":27546:27547   */\n      0x00\n        /* \"#utility.yul\":27543:27544   */\n      dup1\n        /* \"#utility.yul\":27536:27548   */\n      revert\n        /* \"#utility.yul\":27488:27550   */\n    tag_849:\n        /* \"#utility.yul\":27436:27556   */\n      pop\n      jump\t// out\n        /* \"#utility.yul\":27562:27703   */\n    tag_610:\n        /* \"#utility.yul\":27618:27623   */\n      0x00\n        /* \"#utility.yul\":27649:27655   */\n      dup2\n        /* \"#utility.yul\":27643:27656   */\n      mload\n        /* \"#utility.yul\":27634:27656   */\n      swap1\n      pop\n        /* \"#utility.yul\":27665:27697   */\n      tag_851\n        /* \"#utility.yul\":27691:27696   */\n      dup2\n        /* \"#utility.yul\":27665:27697   */\n      tag_609\n      jump\t// in\n    tag_851:\n        /* \"#utility.yul\":27562:27703   */\n      swap3\n      swap2\n      pop\n      pop\n      jump\t// out\n        /* \"#utility.yul\":27709:27785   */\n    tag_611:\n        /* \"#utility.yul\":27745:27752   */\n      0x00\n        /* \"#utility.yul\":27774:27779   */\n      dup2\n        /* \"#utility.yul\":27763:27779   */\n      swap1\n      pop\n        /* \"#utility.yul\":27709:27785   */\n      swap2\n      swap1\n      pop\n      jump\t// out\n        /* \"#utility.yul\":27791:27911   */\n    tag_612:\n        /* \"#utility.yul\":27863:27886   */\n      tag_854\n        /* \"#utility.yul\":27880:27885   */\n      dup2\n        /* \"#utility.yul\":27863:27886   */\n      tag_611\n      jump\t// in\n    tag_854:\n        /* \"#utility.yul\":27856:27861   */\n      dup2\n        /* \"#utility.yul\":27853:27887   */\n      eq\n        /* \"#utility.yul\":27843:27905   */\n      tag_855\n      jumpi\n        /* \"#utility.yul\":27901:27902   */\n      0x00\n        /* \"#utility.yul\":27898:27899   */\n      dup1\n        /* \"#utility.yul\":27891:27903   */\n      revert\n        /* \"#utility.yul\":27843:27905   */\n    tag_855:\n        /* \"#utility.yul\":27791:27911   */\n      pop\n      jump\t// out\n        /* \"#utility.yul\":27917:28058   */\n    tag_613:\n        /* \"#utility.yul\":27973:27978   */\n      0x00\n        /* \"#utility.yul\":28004:28010   */\n      dup2\n        /* \"#utility.yul\":27998:28011   */\n      mload\n        /* \"#utility.yul\":27989:28011   */\n      swap1\n      pop\n        /* \"#utility.yul\":28020:28052   */\n      tag_857\n        /* \"#utility.yul\":28046:28051   */\n      dup2\n        /* \"#utility.yul\":28020:28052   */\n      tag_612\n      jump\t// in\n    tag_857:\n        /* \"#utility.yul\":27917:28058   */\n      swap3\n      swap2\n      pop\n      pop\n      jump\t// out\n        /* \"#utility.yul\":28064:28207   */\n    tag_614:\n        /* \"#utility.yul\":28121:28126   */\n      0x00\n        /* \"#utility.yul\":28152:28158   */\n      dup2\n        /* \"#utility.yul\":28146:28159   */\n      mload\n        /* \"#utility.yul\":28137:28159   */\n      swap1\n      pop\n        /* \"#utility.yul\":28168:28201   */\n      tag_859\n        /* \"#utility.yul\":28195:28200   */\n      dup2\n        /* \"#utility.yul\":28168:28201   */\n      tag_556\n      jump\t// in\n    tag_859:\n        /* \"#utility.yul\":28064:28207   */\n      swap3\n      swap2\n      pop\n      pop\n      jump\t// out\n        /* \"#utility.yul\":28213:29184   */\n    tag_411:\n        /* \"#utility.yul\":28316:28322   */\n      0x00\n        /* \"#utility.yul\":28324:28330   */\n      dup1\n        /* \"#utility.yul\":28332:28338   */\n      0x00\n        /* \"#utility.yul\":28340:28346   */\n      dup1\n        /* \"#utility.yul\":28348:28354   */\n      0x00\n        /* \"#utility.yul\":28397:28400   */\n      0xa0\n        /* \"#utility.yul\":28385:28394   */\n      dup7\n        /* \"#utility.yul\":28376:28383   */\n      dup9\n        /* \"#utility.yul\":28372:28395   */\n      sub\n        /* \"#utility.yul\":28368:28401   */\n      slt\n        /* \"#utility.yul\":28365:28485   */\n      iszero\n      tag_861\n      jumpi\n        /* \"#utility.yul\":28404:28483   */\n      tag_862\n      tag_549\n      jump\t// in\n    tag_862:\n        /* \"#utility.yul\":28365:28485   */\n    tag_861:\n        /* \"#utility.yul\":28524:28525   */\n      0x00\n        /* \"#utility.yul\":28549:28612   */\n      tag_863\n        /* \"#utility.yul\":28604:28611   */\n      dup9\n        /* \"#utility.yul\":28595:28601   */\n      dup3\n        /* \"#utility.yul\":28584:28593   */\n      dup10\n        /* \"#utility.yul\":28580:28602   */\n      add\n        /* \"#utility.yul\":28549:28612   */\n      tag_610\n      jump\t// in\n    tag_863:\n        /* \"#utility.yul\":28539:28612   */\n      swap6\n      pop\n        /* \"#utility.yul\":28495:28622   */\n      pop\n        /* \"#utility.yul\":28661:28663   */\n      0x20\n        /* \"#utility.yul\":28687:28750   */\n      tag_864\n        /* \"#utility.yul\":28742:28749   */\n      dup9\n        /* \"#utility.yul\":28733:28739   */\n      dup3\n        /* \"#utility.yul\":28722:28731   */\n      dup10\n        /* \"#utility.yul\":28718:28740   */\n      add\n        /* \"#utility.yul\":28687:28750   */\n      tag_613\n      jump\t// in\n    tag_864:\n        /* \"#utility.yul\":28677:28750   */\n      swap5\n      pop\n        /* \"#utility.yul\":28632:28760   */\n      pop\n        /* \"#utility.yul\":28799:28801   */\n      0x40\n        /* \"#utility.yul\":28825:28889   */\n      tag_865\n        /* \"#utility.yul\":28881:28888   */\n      dup9\n        /* \"#utility.yul\":28872:28878   */\n      dup3\n        /* \"#utility.yul\":28861:28870   */\n      dup10\n        /* \"#utility.yul\":28857:28879   */\n      add\n        /* \"#utility.yul\":28825:28889   */\n      tag_614\n      jump\t// in\n    tag_865:\n        /* \"#utility.yul\":28815:28889   */\n      swap4\n      pop\n        /* \"#utility.yul\":28770:28899   */\n      pop\n        /* \"#utility.yul\":28938:28940   */\n      0x60\n        /* \"#utility.yul\":28964:29028   */\n      tag_866\n        /* \"#utility.yul\":29020:29027   */\n      dup9\n        /* \"#utility.yul\":29011:29017   */\n      dup3\n        /* \"#utility.yul\":29000:29009   */\n      dup10\n        /* \"#utility.yul\":28996:29018   */\n      add\n        /* \"#utility.yul\":28964:29028   */\n      tag_614\n      jump\t// in\n    tag_866:\n        /* \"#utility.yul\":28954:29028   */\n      swap3\n      pop\n        /* \"#utility.yul\":28909:29038   */\n      pop\n        /* \"#utility.yul\":29077:29080   */\n      0x80\n        /* \"#utility.yul\":29104:29167   */\n      tag_867\n        /* \"#utility.yul\":29159:29166   */\n      dup9\n        /* \"#utility.yul\":29150:29156   */\n      dup3\n        /* \"#utility.yul\":29139:29148   */\n      dup10\n        /* \"#utility.yul\":29135:29157   */\n      add\n        /* \"#utility.yul\":29104:29167   */\n      tag_610\n      jump\t// in\n    tag_867:\n        /* \"#utility.yul\":29094:29167   */\n      swap2\n      pop\n        /* \"#utility.yul\":29048:29177   */\n      pop\n        /* \"#utility.yul\":28213:29184   */\n      swap3\n      swap6\n      pop\n      swap3\n      swap6\n      swap1\n      swap4\n      pop\n      jump\t// out\n        /* \"#utility.yul\":29190:29370   */\n    tag_615:\n        /* \"#utility.yul\":29330:29362   */\n      0x496e76616c696420707269636520646174612066726f6d206f7261636c650000\n        /* \"#utility.yul\":29326:29327   */\n      0x00\n        /* \"#utility.yul\":29318:29324   */\n      dup3\n        /* \"#utility.yul\":29314:29328   */\n      add\n        /* \"#utility.yul\":29307:29363   */\n      mstore\n        /* \"#utility.yul\":29190:29370   */\n      pop\n      jump\t// out\n        /* \"#utility.yul\":29376:29742   */\n    tag_616:\n        /* \"#utility.yul\":29518:29521   */\n      0x00\n        /* \"#utility.yul\":29539:29606   */\n      tag_870\n        /* \"#utility.yul\":29603:29605   */\n      0x1e\n        /* \"#utility.yul\":29598:29601   */\n      dup4\n        /* \"#utility.yul\":29539:29606   */\n      tag_541\n      jump\t// in\n    tag_870:\n        /* \"#utility.yul\":29532:29606   */\n      swap2\n      pop\n        /* \"#utility.yul\":29615:29708   */\n      tag_871\n        /* \"#utility.yul\":29704:29707   */\n      dup3\n        /* \"#utility.yul\":29615:29708   */\n      tag_615\n      jump\t// in\n    tag_871:\n        /* \"#utility.yul\":29733:29735   */\n      0x20\n        /* \"#utility.yul\":29728:29731   */\n      dup3\n        /* \"#utility.yul\":29724:29736   */\n      add\n        /* \"#utility.yul\":29717:29736   */\n      swap1\n      pop\n        /* \"#utility.yul\":29376:29742   */\n      swap2\n      swap1\n      pop\n      jump\t// out\n        /* \"#utility.yul\":29748:30167   */\n    tag_414:\n        /* \"#utility.yul\":29914:29918   */\n      0x00\n        /* \"#utility.yul\":29952:29954   */\n      0x20\n        /* \"#utility.yul\":29941:29950   */\n      dup3\n        /* \"#utility.yul\":29937:29955   */\n      add\n        /* \"#utility.yul\":29929:29955   */\n      swap1\n      pop\n        /* \"#utility.yul\":30001:30010   */\n      dup2\n        /* \"#utility.yul\":29995:29999   */\n      dup2\n        /* \"#utility.yul\":29991:30011   */\n      sub\n        /* \"#utility.yul\":29987:29988   */\n      0x00\n        /* \"#utility.yul\":29976:29985   */\n      dup4\n        /* \"#utility.yul\":29972:29989   */\n      add\n        /* \"#utility.yul\":29965:30012   */\n      mstore\n        /* \"#utility.yul\":30029:30160   */\n      tag_873\n        /* \"#utility.yul\":30155:30159   */\n      dup2\n        /* \"#utility.yul\":30029:30160   */\n      tag_616\n      jump\t// in\n    tag_873:\n        /* \"#utility.yul\":30021:30160   */\n      swap1\n      pop\n        /* \"#utility.yul\":29748:30167   */\n      swap2\n      swap1\n      pop\n      jump\t// out\n        /* \"#utility.yul\":30173:30505   */\n    tag_425:\n        /* \"#utility.yul\":30294:30298   */\n      0x00\n        /* \"#utility.yul\":30332:30334   */\n      0x40\n        /* \"#utility.yul\":30321:30330   */\n      dup3\n        /* \"#utility.yul\":30317:30335   */\n      add\n        /* \"#utility.yul\":30309:30335   */\n      swap1\n      pop\n        /* \"#utility.yul\":30345:30416   */\n      tag_875\n        /* \"#utility.yul\":30413:30414   */\n      0x00\n        /* \"#utility.yul\":30402:30411   */\n      dup4\n        /* \"#utility.yul\":30398:30415   */\n      add\n        /* \"#utility.yul\":30389:30395   */\n      dup6\n        /* \"#utility.yul\":30345:30416   */\n      tag_568\n      jump\t// in\n    tag_875:\n        /* \"#utility.yul\":30426:30498   */\n      tag_876\n        /* \"#utility.yul\":30494:30496   */\n      0x20\n        /* \"#utility.yul\":30483:30492   */\n      dup4\n        /* \"#utility.yul\":30479:30497   */\n      add\n        /* \"#utility.yul\":30470:30476   */\n      dup5\n        /* \"#utility.yul\":30426:30498   */\n      tag_560\n      jump\t// in\n    tag_876:\n        /* \"#utility.yul\":30173:30505   */\n      swap4\n      swap3\n      pop\n      pop\n      pop\n      jump\t// out\n        /* \"#utility.yul\":30511:30627   */\n    tag_617:\n        /* \"#utility.yul\":30581:30602   */\n      tag_878\n        /* \"#utility.yul\":30596:30601   */\n      dup2\n        /* \"#utility.yul\":30581:30602   */\n      tag_558\n      jump\t// in\n    tag_878:\n        /* \"#utility.yul\":30574:30579   */\n      dup2\n        /* \"#utility.yul\":30571:30603   */\n      eq\n        /* \"#utility.yul\":30561:30621   */\n      tag_879\n      jumpi\n        /* \"#utility.yul\":30617:30618   */\n      0x00\n        /* \"#utility.yul\":30614:30615   */\n      dup1\n        /* \"#utility.yul\":30607:30619   */\n      revert\n        /* \"#utility.yul\":30561:30621   */\n    tag_879:\n        /* \"#utility.yul\":30511:30627   */\n      pop\n      jump\t// out\n        /* \"#utility.yul\":30633:30770   */\n    tag_618:\n        /* \"#utility.yul\":30687:30692   */\n      0x00\n        /* \"#utility.yul\":30718:30724   */\n      dup2\n        /* \"#utility.yul\":30712:30725   */\n      mload\n        /* \"#utility.yul\":30703:30725   */\n      swap1\n      pop\n        /* \"#utility.yul\":30734:30764   */\n      tag_881\n        /* \"#utility.yul\":30758:30763   */\n      dup2\n        /* \"#utility.yul\":30734:30764   */\n      tag_617\n      jump\t// in\n    tag_881:\n        /* \"#utility.yul\":30633:30770   */\n      swap3\n      swap2\n      pop\n      pop\n      jump\t// out\n        /* \"#utility.yul\":30776:31121   */\n    tag_429:\n        /* \"#utility.yul\":30843:30849   */\n      0x00\n        /* \"#utility.yul\":30892:30894   */\n      0x20\n        /* \"#utility.yul\":30880:30889   */\n      dup3\n        /* \"#utility.yul\":30871:30878   */\n      dup5\n        /* \"#utility.yul\":30867:30890   */\n      sub\n        /* \"#utility.yul\":30863:30895   */\n      slt\n        /* \"#utility.yul\":30860:30979   */\n      iszero\n      tag_883\n      jumpi\n        /* \"#utility.yul\":30898:30977   */\n      tag_884\n      tag_549\n      jump\t// in\n    tag_884:\n        /* \"#utility.yul\":30860:30979   */\n    tag_883:\n        /* \"#utility.yul\":31018:31019   */\n      0x00\n        /* \"#utility.yul\":31043:31104   */\n      tag_885\n        /* \"#utility.yul\":31096:31103   */\n      dup5\n        /* \"#utility.yul\":31087:31093   */\n      dup3\n        /* \"#utility.yul\":31076:31085   */\n      dup6\n        /* \"#utility.yul\":31072:31094   */\n      add\n        /* \"#utility.yul\":31043:31104   */\n      tag_618\n      jump\t// in\n    tag_885:\n        /* \"#utility.yul\":31033:31104   */\n      swap2\n      pop\n        /* \"#utility.yul\":30989:31114   */\n      pop\n        /* \"#utility.yul\":30776:31121   */\n      swap3\n      swap2\n      pop\n      pop\n      jump\t// out\n        /* \"#utility.yul\":31127:31569   */\n    tag_458:\n        /* \"#utility.yul\":31276:31280   */\n      0x00\n        /* \"#utility.yul\":31314:31316   */\n      0x60\n        /* \"#utility.yul\":31303:31312   */\n      dup3\n        /* \"#utility.yul\":31299:31317   */\n      add\n        /* \"#utility.yul\":31291:31317   */\n      swap1\n      pop\n        /* \"#utility.yul\":31327:31398   */\n      tag_887\n        /* \"#utility.yul\":31395:31396   */\n      0x00\n        /* \"#utility.yul\":31384:31393   */\n      dup4\n        /* \"#utility.yul\":31380:31397   */\n      add\n        /* \"#utility.yul\":31371:31377   */\n      dup7\n        /* \"#utility.yul\":31327:31398   */\n      tag_568\n      jump\t// in\n    tag_887:\n        /* \"#utility.yul\":31408:31480   */\n      tag_888\n        /* \"#utility.yul\":31476:31478   */\n      0x20\n        /* \"#utility.yul\":31465:31474   */\n      dup4\n        /* \"#utility.yul\":31461:31479   */\n      add\n        /* \"#utility.yul\":31452:31458   */\n      dup6\n        /* \"#utility.yul\":31408:31480   */\n      tag_560\n      jump\t// in\n    tag_888:\n        /* \"#utility.yul\":31490:31562   */\n      tag_889\n        /* \"#utility.yul\":31558:31560   */\n      0x40\n        /* \"#utility.yul\":31547:31556   */\n      dup4\n        /* \"#utility.yul\":31543:31561   */\n      add\n        /* \"#utility.yul\":31534:31540   */\n      dup5\n        /* \"#utility.yul\":31490:31562   */\n      tag_560\n      jump\t// in\n    tag_889:\n        /* \"#utility.yul\":31127:31569   */\n      swap5\n      swap4\n      pop\n      pop\n      pop\n      pop\n      jump\t// out\n        /* \"#utility.yul\":31575:31756   */\n    tag_619:\n        /* \"#utility.yul\":31715:31748   */\n      0x5265656e7472616e637947756172643a207265656e7472616e742063616c6c00\n        /* \"#utility.yul\":31711:31712   */\n      0x00\n        /* \"#utility.yul\":31703:31709   */\n      dup3\n        /* \"#utility.yul\":31699:31713   */\n      add\n        /* \"#utility.yul\":31692:31749   */\n      mstore\n        /* \"#utility.yul\":31575:31756   */\n      pop\n      jump\t// out\n        /* \"#utility.yul\":31762:32128   */\n    tag_620:\n        /* \"#utility.yul\":31904:31907   */\n      0x00\n        /* \"#utility.yul\":31925:31992   */\n      tag_892\n        /* \"#utility.yul\":31989:31991   */\n      0x1f\n        /* \"#utility.yul\":31984:31987   */\n      dup4\n        /* \"#utility.yul\":31925:31992   */\n      tag_541\n      jump\t// in\n    tag_892:\n        /* \"#utility.yul\":31918:31992   */\n      swap2\n      pop\n        /* \"#utility.yul\":32001:32094   */\n      tag_893\n        /* \"#utility.yul\":32090:32093   */\n      dup3\n        /* \"#utility.yul\":32001:32094   */\n      tag_619\n      jump\t// in\n    tag_893:\n        /* \"#utility.yul\":32119:32121   */\n      0x20\n        /* \"#utility.yul\":32114:32117   */\n      dup3\n        /* \"#utility.yul\":32110:32122   */\n      add\n        /* \"#utility.yul\":32103:32122   */\n      swap1\n      pop\n        /* \"#utility.yul\":31762:32128   */\n      swap2\n      swap1\n      pop\n      jump\t// out\n        /* \"#utility.yul\":32134:32553   */\n    tag_476:\n        /* \"#utility.yul\":32300:32304   */\n      0x00\n        /* \"#utility.yul\":32338:32340   */\n      0x20\n        /* \"#utility.yul\":32327:32336   */\n      dup3\n        /* \"#utility.yul\":32323:32341   */\n      add\n        /* \"#utility.yul\":32315:32341   */\n      swap1\n      pop\n        /* \"#utility.yul\":32387:32396   */\n      dup2\n        /* \"#utility.yul\":32381:32385   */\n      dup2\n        /* \"#utility.yul\":32377:32397   */\n      sub\n        /* \"#utility.yul\":32373:32374   */\n      0x00\n        /* \"#utility.yul\":32362:32371   */\n      dup4\n        /* \"#utility.yul\":32358:32375   */\n      add\n        /* \"#utility.yul\":32351:32398   */\n      mstore\n        /* \"#utility.yul\":32415:32546   */\n      tag_895\n        /* \"#utility.yul\":32541:32545   */\n      dup2\n        /* \"#utility.yul\":32415:32546   */\n      tag_620\n      jump\t// in\n    tag_895:\n        /* \"#utility.yul\":32407:32546   */\n      swap1\n      pop\n        /* \"#utility.yul\":32134:32553   */\n      swap2\n      swap1\n      pop\n      jump\t// out\n        /* \"#utility.yul\":32559:32739   */\n    tag_621:\n        /* \"#utility.yul\":32607:32684   */\n      0x4e487b7100000000000000000000000000000000000000000000000000000000\n        /* \"#utility.yul\":32604:32605   */\n      0x00\n        /* \"#utility.yul\":32597:32685   */\n      mstore\n        /* \"#utility.yul\":32704:32708   */\n      0x11\n        /* \"#utility.yul\":32701:32702   */\n      0x04\n        /* \"#utility.yul\":32694:32709   */\n      mstore\n        /* \"#utility.yul\":32728:32732   */\n      0x24\n        /* \"#utility.yul\":32725:32726   */\n      0x00\n        /* \"#utility.yul\":32718:32733   */\n      revert\n        /* \"#utility.yul\":32745:33155   */\n    tag_480:\n        /* \"#utility.yul\":32785:32792   */\n      0x00\n        /* \"#utility.yul\":32808:32828   */\n      tag_898\n        /* \"#utility.yul\":32826:32827   */\n      dup3\n        /* \"#utility.yul\":32808:32828   */\n      tag_555\n      jump\t// in\n    tag_898:\n        /* \"#utility.yul\":32803:32828   */\n      swap2\n      pop\n        /* \"#utility.yul\":32842:32862   */\n      tag_899\n        /* \"#utility.yul\":32860:32861   */\n      dup4\n        /* \"#utility.yul\":32842:32862   */\n      tag_555\n      jump\t// in\n    tag_899:\n        /* \"#utility.yul\":32837:32862   */\n      swap3\n      pop\n        /* \"#utility.yul\":32897:32898   */\n      dup3\n        /* \"#utility.yul\":32894:32895   */\n      dup3\n        /* \"#utility.yul\":32890:32899   */\n      mul\n        /* \"#utility.yul\":32919:32949   */\n      tag_900\n        /* \"#utility.yul\":32937:32948   */\n      dup2\n        /* \"#utility.yul\":32919:32949   */\n      tag_555\n      jump\t// in\n    tag_900:\n        /* \"#utility.yul\":32908:32949   */\n      swap2\n      pop\n        /* \"#utility.yul\":33098:33099   */\n      dup3\n        /* \"#utility.yul\":33089:33096   */\n      dup3\n        /* \"#utility.yul\":33085:33100   */\n      div\n        /* \"#utility.yul\":33082:33083   */\n      dup5\n        /* \"#utility.yul\":33079:33101   */\n      eq\n        /* \"#utility.yul\":33059:33060   */\n      dup4\n        /* \"#utility.yul\":33052:33061   */\n      iszero\n        /* \"#utility.yul\":33032:33115   */\n      or\n        /* \"#utility.yul\":33009:33148   */\n      tag_901\n      jumpi\n        /* \"#utility.yul\":33128:33146   */\n      tag_902\n      tag_621\n      jump\t// in\n    tag_902:\n        /* \"#utility.yul\":33009:33148   */\n    tag_901:\n        /* \"#utility.yul\":32793:33155   */\n      pop\n        /* \"#utility.yul\":32745:33155   */\n      swap3\n      swap2\n      pop\n      pop\n      jump\t// out\n        /* \"#utility.yul\":33161:33341   */\n    tag_622:\n        /* \"#utility.yul\":33209:33286   */\n      0x4e487b7100000000000000000000000000000000000000000000000000000000\n        /* \"#utility.yul\":33206:33207   */\n      0x00\n        /* \"#utility.yul\":33199:33287   */\n      mstore\n        /* \"#utility.yul\":33306:33310   */\n      0x12\n        /* \"#utility.yul\":33303:33304   */\n      0x04\n        /* \"#utility.yul\":33296:33311   */\n      mstore\n        /* \"#utility.yul\":33330:33334   */\n      0x24\n        /* \"#utility.yul\":33327:33328   */\n      0x00\n        /* \"#utility.yul\":33320:33335   */\n      revert\n        /* \"#utility.yul\":33347:33532   */\n    tag_483:\n        /* \"#utility.yul\":33387:33388   */\n      0x00\n        /* \"#utility.yul\":33404:33424   */\n      tag_905\n        /* \"#utility.yul\":33422:33423   */\n      dup3\n        /* \"#utility.yul\":33404:33424   */\n      tag_555\n      jump\t// in\n    tag_905:\n        /* \"#utility.yul\":33399:33424   */\n      swap2\n      pop\n        /* \"#utility.yul\":33438:33458   */\n      tag_906\n        /* \"#utility.yul\":33456:33457   */\n      dup4\n        /* \"#utility.yul\":33438:33458   */\n      tag_555\n      jump\t// in\n    tag_906:\n        /* \"#utility.yul\":33433:33458   */\n      swap3\n      pop\n        /* \"#utility.yul\":33477:33478   */\n      dup3\n        /* \"#utility.yul\":33467:33502   */\n      tag_907\n      jumpi\n        /* \"#utility.yul\":33482:33500   */\n      tag_908\n      tag_622\n      jump\t// in\n    tag_908:\n        /* \"#utility.yul\":33467:33502   */\n    tag_907:\n        /* \"#utility.yul\":33524:33525   */\n      dup3\n        /* \"#utility.yul\":33521:33522   */\n      dup3\n        /* \"#utility.yul\":33517:33526   */\n      div\n        /* \"#utility.yul\":33512:33526   */\n      swap1\n      pop\n        /* \"#utility.yul\":33347:33532   */\n      swap3\n      swap2\n      pop\n      pop\n      jump\t// out\n        /* \"#utility.yul\":33538:33758   */\n    tag_623:\n        /* \"#utility.yul\":33678:33712   */\n      0x55534420616d6f756e74206d7573742062652067726561746572207468616e20\n        /* \"#utility.yul\":33674:33675   */\n      0x00\n        /* \"#utility.yul\":33666:33672   */\n      dup3\n        /* \"#utility.yul\":33662:33676   */\n      add\n        /* \"#utility.yul\":33655:33713   */\n      mstore\n        /* \"#utility.yul\":33747:33750   */\n      0x3000000000000000000000000000000000000000000000000000000000000000\n        /* \"#utility.yul\":33742:33744   */\n      0x20\n        /* \"#utility.yul\":33734:33740   */\n      dup3\n        /* \"#utility.yul\":33730:33745   */\n      add\n        /* \"#utility.yul\":33723:33751   */\n      mstore\n        /* \"#utility.yul\":33538:33758   */\n      pop\n      jump\t// out\n        /* \"#utility.yul\":33764:34130   */\n    tag_624:\n        /* \"#utility.yul\":33906:33909   */\n      0x00\n        /* \"#utility.yul\":33927:33994   */\n      tag_911\n        /* \"#utility.yul\":33991:33993   */\n      0x21\n        /* \"#utility.yul\":33986:33989   */\n      dup4\n        /* \"#utility.yul\":33927:33994   */\n      tag_541\n      jump\t// in\n    tag_911:\n        /* \"#utility.yul\":33920:33994   */\n      swap2\n      pop\n        /* \"#utility.yul\":34003:34096   */\n      tag_912\n        /* \"#utility.yul\":34092:34095   */\n      dup3\n        /* \"#utility.yul\":34003:34096   */\n      tag_623\n      jump\t// in\n    tag_912:\n        /* \"#utility.yul\":34121:34123   */\n      0x40\n        /* \"#utility.yul\":34116:34119   */\n      dup3\n        /* \"#utility.yul\":34112:34124   */\n      add\n        /* \"#utility.yul\":34105:34124   */\n      swap1\n      pop\n        /* \"#utility.yul\":33764:34130   */\n      swap2\n      swap1\n      pop\n      jump\t// out\n        /* \"#utility.yul\":34136:34555   */\n    tag_487:\n        /* \"#utility.yul\":34302:34306   */\n      0x00\n        /* \"#utility.yul\":34340:34342   */\n      0x20\n        /* \"#utility.yul\":34329:34338   */\n      dup3\n        /* \"#utility.yul\":34325:34343   */\n      add\n        /* \"#utility.yul\":34317:34343   */\n      swap1\n      pop\n        /* \"#utility.yul\":34389:34398   */\n      dup2\n        /* \"#utility.yul\":34383:34387   */\n      dup2\n        /* \"#utility.yul\":34379:34399   */\n      sub\n        /* \"#utility.yul\":34375:34376   */\n      0x00\n        /* \"#utility.yul\":34364:34373   */\n      dup4\n        /* \"#utility.yul\":34360:34377   */\n      add\n        /* \"#utility.yul\":34353:34400   */\n      mstore\n        /* \"#utility.yul\":34417:34548   */\n      tag_914\n        /* \"#utility.yul\":34543:34547   */\n      dup2\n        /* \"#utility.yul\":34417:34548   */\n      tag_624\n      jump\t// in\n    tag_914:\n        /* \"#utility.yul\":34409:34548   */\n      swap1\n      pop\n        /* \"#utility.yul\":34136:34555   */\n      swap2\n      swap1\n      pop\n      jump\t// out\n        /* \"#utility.yul\":34561:34790   */\n    tag_625:\n        /* \"#utility.yul\":34701:34735   */\n      0x507269766174652053616c6520746f6b656e73206d7573742062652067726561\n        /* \"#utility.yul\":34697:34698   */\n      0x00\n        /* \"#utility.yul\":34689:34695   */\n      dup3\n        /* \"#utility.yul\":34685:34699   */\n      add\n        /* \"#utility.yul\":34678:34736   */\n      mstore\n        /* \"#utility.yul\":34770:34782   */\n      0x746572207468616e203000000000000000000000000000000000000000000000\n        /* \"#utility.yul\":34765:34767   */\n      0x20\n        /* \"#utility.yul\":34757:34763   */\n      dup3\n        /* \"#utility.yul\":34753:34768   */\n      add\n        /* \"#utility.yul\":34746:34783   */\n      mstore\n        /* \"#utility.yul\":34561:34790   */\n      pop\n      jump\t// out\n        /* \"#utility.yul\":34796:35162   */\n    tag_626:\n        /* \"#utility.yul\":34938:34941   */\n      0x00\n        /* \"#utility.yul\":34959:35026   */\n      tag_917\n        /* \"#utility.yul\":35023:35025   */\n      0x2a\n        /* \"#utility.yul\":35018:35021   */\n      dup4\n        /* \"#utility.yul\":34959:35026   */\n      tag_541\n      jump\t// in\n    tag_917:\n        /* \"#utility.yul\":34952:35026   */\n      swap2\n      pop\n        /* \"#utility.yul\":35035:35128   */\n      tag_918\n        /* \"#utility.yul\":35124:35127   */\n      dup3\n        /* \"#utility.yul\":35035:35128   */\n      tag_625\n      jump\t// in\n    tag_918:\n        /* \"#utility.yul\":35153:35155   */\n      0x40\n        /* \"#utility.yul\":35148:35151   */\n      dup3\n        /* \"#utility.yul\":35144:35156   */\n      add\n        /* \"#utility.yul\":35137:35156   */\n      swap1\n      pop\n        /* \"#utility.yul\":34796:35162   */\n      swap2\n      swap1\n      pop\n      jump\t// out\n        /* \"#utility.yul\":35168:35587   */\n    tag_490:\n        /* \"#utility.yul\":35334:35338   */\n      0x00\n        /* \"#utility.yul\":35372:35374   */\n      0x20\n        /* \"#utility.yul\":35361:35370   */\n      dup3\n        /* \"#utility.yul\":35357:35375   */\n      add\n        /* \"#utility.yul\":35349:35375   */\n      swap1\n      pop\n        /* \"#utility.yul\":35421:35430   */\n      dup2\n        /* \"#utility.yul\":35415:35419   */\n      dup2\n        /* \"#utility.yul\":35411:35431   */\n      sub\n        /* \"#utility.yul\":35407:35408   */\n      0x00\n        /* \"#utility.yul\":35396:35405   */\n      dup4\n        /* \"#utility.yul\":35392:35409   */\n      add\n        /* \"#utility.yul\":35385:35432   */\n      mstore\n        /* \"#utility.yul\":35449:35580   */\n      tag_920\n        /* \"#utility.yul\":35575:35579   */\n      dup2\n        /* \"#utility.yul\":35449:35580   */\n      tag_626\n      jump\t// in\n    tag_920:\n        /* \"#utility.yul\":35441:35580   */\n      swap1\n      pop\n        /* \"#utility.yul\":35168:35587   */\n      swap2\n      swap1\n      pop\n      jump\t// out\n        /* \"#utility.yul\":35593:35828   */\n    tag_627:\n        /* \"#utility.yul\":35733:35767   */\n      0x507269766174652053616c6520736f6c6420746f6b656e732065786365656420\n        /* \"#utility.yul\":35729:35730   */\n      0x00\n        /* \"#utility.yul\":35721:35727   */\n      dup3\n        /* \"#utility.yul\":35717:35731   */\n      add\n        /* \"#utility.yul\":35710:35768   */\n      mstore\n        /* \"#utility.yul\":35802:35820   */\n      0x617661696c61626c6520746f6b656e7300000000000000000000000000000000\n        /* \"#utility.yul\":35797:35799   */\n      0x20\n        /* \"#utility.yul\":35789:35795   */\n      dup3\n        /* \"#utility.yul\":35785:35800   */\n      add\n        /* \"#utility.yul\":35778:35821   */\n      mstore\n        /* \"#utility.yul\":35593:35828   */\n      pop\n      jump\t// out\n        /* \"#utility.yul\":35834:36200   */\n    tag_628:\n        /* \"#utility.yul\":35976:35979   */\n      0x00\n        /* \"#utility.yul\":35997:36064   */\n      tag_923\n        /* \"#utility.yul\":36061:36063   */\n      0x30\n        /* \"#utility.yul\":36056:36059   */\n      dup4\n        /* \"#utility.yul\":35997:36064   */\n      tag_541\n      jump\t// in\n    tag_923:\n        /* \"#utility.yul\":35990:36064   */\n      swap2\n      pop\n        /* \"#utility.yul\":36073:36166   */\n      tag_924\n        /* \"#utility.yul\":36162:36165   */\n      dup3\n        /* \"#utility.yul\":36073:36166   */\n      tag_627\n      jump\t// in\n    tag_924:\n        /* \"#utility.yul\":36191:36193   */\n      0x40\n        /* \"#utility.yul\":36186:36189   */\n      dup3\n        /* \"#utility.yul\":36182:36194   */\n      add\n        /* \"#utility.yul\":36175:36194   */\n      swap1\n      pop\n        /* \"#utility.yul\":35834:36200   */\n      swap2\n      swap1\n      pop\n      jump\t// out\n        /* \"#utility.yul\":36206:36625   */\n    tag_493:\n        /* \"#utility.yul\":36372:36376   */\n      0x00\n        /* \"#utility.yul\":36410:36412   */\n      0x20\n        /* \"#utility.yul\":36399:36408   */\n      dup3\n        /* \"#utility.yul\":36395:36413   */\n      add\n        /* \"#utility.yul\":36387:36413   */\n      swap1\n      pop\n        /* \"#utility.yul\":36459:36468   */\n      dup2\n        /* \"#utility.yul\":36453:36457   */\n      dup2\n        /* \"#utility.yul\":36449:36469   */\n      sub\n        /* \"#utility.yul\":36445:36446   */\n      0x00\n        /* \"#utility.yul\":36434:36443   */\n      dup4\n        /* \"#utility.yul\":36430:36447   */\n      add\n        /* \"#utility.yul\":36423:36470   */\n      mstore\n        /* \"#utility.yul\":36487:36618   */\n      tag_926\n        /* \"#utility.yul\":36613:36617   */\n      dup2\n        /* \"#utility.yul\":36487:36618   */\n      tag_628\n      jump\t// in\n    tag_926:\n        /* \"#utility.yul\":36479:36618   */\n      swap1\n      pop\n        /* \"#utility.yul\":36206:36625   */\n      swap2\n      swap1\n      pop\n      jump\t// out\n        /* \"#utility.yul\":36631:36811   */\n    tag_629:\n        /* \"#utility.yul\":36771:36803   */\n      0x496e76616c696420746f6b656e2070726963652063616c63756c617465640000\n        /* \"#utility.yul\":36767:36768   */\n      0x00\n        /* \"#utility.yul\":36759:36765   */\n      dup3\n        /* \"#utility.yul\":36755:36769   */\n      add\n        /* \"#utility.yul\":36748:36804   */\n      mstore\n        /* \"#utility.yul\":36631:36811   */\n      pop\n      jump\t// out\n        /* \"#utility.yul\":36817:37183   */\n    tag_630:\n        /* \"#utility.yul\":36959:36962   */\n      0x00\n        /* \"#utility.yul\":36980:37047   */\n      tag_929\n        /* \"#utility.yul\":37044:37046   */\n      0x1e\n        /* \"#utility.yul\":37039:37042   */\n      dup4\n        /* \"#utility.yul\":36980:37047   */\n      tag_541\n      jump\t// in\n    tag_929:\n        /* \"#utility.yul\":36973:37047   */\n      swap2\n      pop\n        /* \"#utility.yul\":37056:37149   */\n      tag_930\n        /* \"#utility.yul\":37145:37148   */\n      dup3\n        /* \"#utility.yul\":37056:37149   */\n      tag_629\n      jump\t// in\n    tag_930:\n        /* \"#utility.yul\":37174:37176   */\n      0x20\n        /* \"#utility.yul\":37169:37172   */\n      dup3\n        /* \"#utility.yul\":37165:37177   */\n      add\n        /* \"#utility.yul\":37158:37177   */\n      swap1\n      pop\n        /* \"#utility.yul\":36817:37183   */\n      swap2\n      swap1\n      pop\n      jump\t// out\n        /* \"#utility.yul\":37189:37608   */\n    tag_502:\n        /* \"#utility.yul\":37355:37359   */\n      0x00\n        /* \"#utility.yul\":37393:37395   */\n      0x20\n        /* \"#utility.yul\":37382:37391   */\n      dup3\n        /* \"#utility.yul\":37378:37396   */\n      add\n        /* \"#utility.yul\":37370:37396   */\n      swap1\n      pop\n        /* \"#utility.yul\":37442:37451   */\n      dup2\n        /* \"#utility.yul\":37436:37440   */\n      dup2\n        /* \"#utility.yul\":37432:37452   */\n      sub\n        /* \"#utility.yul\":37428:37429   */\n      0x00\n        /* \"#utility.yul\":37417:37426   */\n      dup4\n        /* \"#utility.yul\":37413:37430   */\n      add\n        /* \"#utility.yul\":37406:37453   */\n      mstore\n        /* \"#utility.yul\":37470:37601   */\n      tag_932\n        /* \"#utility.yul\":37596:37600   */\n      dup2\n        /* \"#utility.yul\":37470:37601   */\n      tag_630\n      jump\t// in\n    tag_932:\n        /* \"#utility.yul\":37462:37601   */\n      swap1\n      pop\n        /* \"#utility.yul\":37189:37608   */\n      swap2\n      swap1\n      pop\n      jump\t// out\n        /* \"#utility.yul\":37614:37841   */\n    tag_631:\n        /* \"#utility.yul\":37754:37788   */\n      0x43616c63756c6174656420746f6b656e73206d75737420626520677265617465\n        /* \"#utility.yul\":37750:37751   */\n      0x00\n        /* \"#utility.yul\":37742:37748   */\n      dup3\n        /* \"#utility.yul\":37738:37752   */\n      add\n        /* \"#utility.yul\":37731:37789   */\n      mstore\n        /* \"#utility.yul\":37823:37833   */\n      0x72207468616e2030000000000000000000000000000000000000000000000000\n        /* \"#utility.yul\":37818:37820   */\n      0x20\n        /* \"#utility.yul\":37810:37816   */\n      dup3\n        /* \"#utility.yul\":37806:37821   */\n      add\n        /* \"#utility.yul\":37799:37834   */\n      mstore\n        /* \"#utility.yul\":37614:37841   */\n      pop\n      jump\t// out\n        /* \"#utility.yul\":37847:38213   */\n    tag_632:\n        /* \"#utility.yul\":37989:37992   */\n      0x00\n        /* \"#utility.yul\":38010:38077   */\n      tag_935\n        /* \"#utility.yul\":38074:38076   */\n      0x28\n        /* \"#utility.yul\":38069:38072   */\n      dup4\n        /* \"#utility.yul\":38010:38077   */\n      tag_541\n      jump\t// in\n    tag_935:\n        /* \"#utility.yul\":38003:38077   */\n      swap2\n      pop\n        /* \"#utility.yul\":38086:38179   */\n      tag_936\n        /* \"#utility.yul\":38175:38178   */\n      dup3\n        /* \"#utility.yul\":38086:38179   */\n      tag_631\n      jump\t// in\n    tag_936:\n        /* \"#utility.yul\":38204:38206   */\n      0x40\n        /* \"#utility.yul\":38199:38202   */\n      dup3\n        /* \"#utility.yul\":38195:38207   */\n      add\n        /* \"#utility.yul\":38188:38207   */\n      swap1\n      pop\n        /* \"#utility.yul\":37847:38213   */\n      swap2\n      swap1\n      pop\n      jump\t// out\n        /* \"#utility.yul\":38219:38638   */\n    tag_506:\n        /* \"#utility.yul\":38385:38389   */\n      0x00\n        /* \"#utility.yul\":38423:38425   */\n      0x20\n        /* \"#utility.yul\":38412:38421   */\n      dup3\n        /* \"#utility.yul\":38408:38426   */\n      add\n        /* \"#utility.yul\":38400:38426   */\n      swap1\n      pop\n        /* \"#utility.yul\":38472:38481   */\n      dup2\n        /* \"#utility.yul\":38466:38470   */\n      dup2\n        /* \"#utility.yul\":38462:38482   */\n      sub\n        /* \"#utility.yul\":38458:38459   */\n      0x00\n        /* \"#utility.yul\":38447:38456   */\n      dup4\n        /* \"#utility.yul\":38443:38460   */\n      add\n        /* \"#utility.yul\":38436:38483   */\n      mstore\n        /* \"#utility.yul\":38500:38631   */\n      tag_938\n        /* \"#utility.yul\":38626:38630   */\n      dup2\n        /* \"#utility.yul\":38500:38631   */\n      tag_632\n      jump\t// in\n    tag_938:\n        /* \"#utility.yul\":38492:38631   */\n      swap1\n      pop\n        /* \"#utility.yul\":38219:38638   */\n      swap2\n      swap1\n      pop\n      jump\t// out\n        /* \"#utility.yul\":38644:38835   */\n    tag_509:\n        /* \"#utility.yul\":38684:38687   */\n      0x00\n        /* \"#utility.yul\":38703:38723   */\n      tag_940\n        /* \"#utility.yul\":38721:38722   */\n      dup3\n        /* \"#utility.yul\":38703:38723   */\n      tag_555\n      jump\t// in\n    tag_940:\n        /* \"#utility.yul\":38698:38723   */\n      swap2\n      pop\n        /* \"#utility.yul\":38737:38757   */\n      tag_941\n        /* \"#utility.yul\":38755:38756   */\n      dup4\n        /* \"#utility.yul\":38737:38757   */\n      tag_555\n      jump\t// in\n    tag_941:\n        /* \"#utility.yul\":38732:38757   */\n      swap3\n      pop\n        /* \"#utility.yul\":38780:38781   */\n      dup3\n        /* \"#utility.yul\":38777:38778   */\n      dup3\n        /* \"#utility.yul\":38773:38782   */\n      add\n        /* \"#utility.yul\":38766:38782   */\n      swap1\n      pop\n        /* \"#utility.yul\":38801:38804   */\n      dup1\n        /* \"#utility.yul\":38798:38799   */\n      dup3\n        /* \"#utility.yul\":38795:38805   */\n      gt\n        /* \"#utility.yul\":38792:38828   */\n      iszero\n      tag_942\n      jumpi\n        /* \"#utility.yul\":38808:38826   */\n      tag_943\n      tag_621\n      jump\t// in\n    tag_943:\n        /* \"#utility.yul\":38792:38828   */\n    tag_942:\n        /* \"#utility.yul\":38644:38835   */\n      swap3\n      swap2\n      pop\n      pop\n      jump\t// out\n        /* \"#utility.yul\":38841:39035   */\n    tag_540:\n        /* \"#utility.yul\":38881:38885   */\n      0x00\n        /* \"#utility.yul\":38901:38921   */\n      tag_945\n        /* \"#utility.yul\":38919:38920   */\n      dup3\n        /* \"#utility.yul\":38901:38921   */\n      tag_555\n      jump\t// in\n    tag_945:\n        /* \"#utility.yul\":38896:38921   */\n      swap2\n      pop\n        /* \"#utility.yul\":38935:38955   */\n      tag_946\n        /* \"#utility.yul\":38953:38954   */\n      dup4\n        /* \"#utility.yul\":38935:38955   */\n      tag_555\n      jump\t// in\n    tag_946:\n        /* \"#utility.yul\":38930:38955   */\n      swap3\n      pop\n        /* \"#utility.yul\":38979:38980   */\n      dup3\n        /* \"#utility.yul\":38976:38977   */\n      dup3\n        /* \"#utility.yul\":38972:38981   */\n      sub\n        /* \"#utility.yul\":38964:38981   */\n      swap1\n      pop\n        /* \"#utility.yul\":39003:39004   */\n      dup2\n        /* \"#utility.yul\":38997:39001   */\n      dup2\n        /* \"#utility.yul\":38994:39005   */\n      gt\n        /* \"#utility.yul\":38991:39028   */\n      iszero\n      tag_947\n      jumpi\n        /* \"#utility.yul\":39008:39026   */\n      tag_948\n      tag_621\n      jump\t// in\n    tag_948:\n        /* \"#utility.yul\":38991:39028   */\n    tag_947:\n        /* \"#utility.yul\":38841:39035   */\n      swap3\n      swap2\n      pop\n      pop\n      jump\t// out\n\n    auxdata: 0xa2646970667358221220f1b8841746faa3d853ab09a092672caf5c2942261c2794fab50af760c2b42bc564736f6c634300081a0033\n}\n",
				"bytecode": {
					"linkReferences": {},
					"object": "608060405269d3c21bcecceda10000006007556a201fcafc2577d29850000060085566038d7ea4c6800060095566b3697b81284000600a555f600b556a0fb768105935a2f3000000600c556a854fdabd6aa1d32fb00000600d5566b3697b81284000600e5567016345785d8a0000600f555f6010555f60115f6101000a81548160ff0219169083600281111561009857610097610605565b5b021790555062ed4e006014556301e133806015553480156100b7575f80fd5b506040516146cf3803806146cf83398181016040528101906100d991906107ed565b336040518060400160405280600881526020017f426574746f6b656e0000000000000000000000000000000000000000000000008152506040518060400160405280600481526020017f424554540000000000000000000000000000000000000000000000000000000081525081600390816101559190610a41565b5080600490816101659190610a41565b5050505f73ffffffffffffffffffffffffffffffffffffffff168173ffffffffffffffffffffffffffffffffffffffff16036101d8575f6040517f1e4fbdf70000000000000000000000000000000000000000000000000000000081526004016101cf9190610b1f565b60405180910390fd5b6101e7816102a460201b60201c565b50600160068190555061020b306aa56fa5b99019a5c800000061036760201b60201c565b5f5b815181101561029d57601682828151811061022b5761022a610b38565b5b6020026020010151908060018154018082558091505060019003905f5260205f20015f9091909190916101000a81548173ffffffffffffffffffffffffffffffffffffffff021916908373ffffffffffffffffffffffffffffffffffffffff160217905550808060010191505061020d565b5050610c22565b5f60055f9054906101000a900473ffffffffffffffffffffffffffffffffffffffff1690508160055f6101000a81548173ffffffffffffffffffffffffffffffffffffffff021916908373ffffffffffffffffffffffffffffffffffffffff1602179055508173ffffffffffffffffffffffffffffffffffffffff168173ffffffffffffffffffffffffffffffffffffffff167f8be0079c531659141344cd1fd0a4f28419497f9722a3daafe3b4186f6b6457e060405160405180910390a35050565b5f73ffffffffffffffffffffffffffffffffffffffff168273ffffffffffffffffffffffffffffffffffffffff16036103d7575f6040517fec442f050000000000000000000000000000000000000000000000000000000081526004016103ce9190610b1f565b60405180910390fd5b6103e85f83836103ec60201b60201c565b5050565b5f73ffffffffffffffffffffffffffffffffffffffff168373ffffffffffffffffffffffffffffffffffffffff160361043c578060025f8282546104309190610b92565b9250508190555061050a565b5f805f8573ffffffffffffffffffffffffffffffffffffffff1673ffffffffffffffffffffffffffffffffffffffff1681526020019081526020015f20549050818110156104c5578381836040517fe450d38c0000000000000000000000000000000000000000000000000000000081526004016104bc93929190610bd4565b60405180910390fd5b8181035f808673ffffffffffffffffffffffffffffffffffffffff1673ffffffffffffffffffffffffffffffffffffffff1681526020019081526020015f2081905550505b5f73ffffffffffffffffffffffffffffffffffffffff168273ffffffffffffffffffffffffffffffffffffffff1603610551578060025f828254039250508190555061059b565b805f808473ffffffffffffffffffffffffffffffffffffffff1673ffffffffffffffffffffffffffffffffffffffff1681526020019081526020015f205f82825401925050819055505b8173ffffffffffffffffffffffffffffffffffffffff168373ffffffffffffffffffffffffffffffffffffffff167fddf252ad1be2c89b69c2b068fc378daa952ba7f163c4a11628f55a4df523b3ef836040516105f89190610c09565b60405180910390a3505050565b7f4e487b71000000000000000000000000000000000000000000000000000000005f52602160045260245ffd5b5f604051905090565b5f80fd5b5f80fd5b5f80fd5b5f601f19601f8301169050919050565b7f4e487b71000000000000000000000000000000000000000000000000000000005f52604160045260245ffd5b61068d82610647565b810181811067ffffffffffffffff821117156106ac576106ab610657565b5b80604052505050565b5f6106be610632565b90506106ca8282610684565b919050565b5f67ffffffffffffffff8211156106e9576106e8610657565b5b602082029050602081019050919050565b5f80fd5b5f73ffffffffffffffffffffffffffffffffffffffff82169050919050565b5f610727826106fe565b9050919050565b6107378161071d565b8114610741575f80fd5b50565b5f815190506107528161072e565b92915050565b5f61076a610765846106cf565b6106b5565b9050808382526020820190506020840283018581111561078d5761078c6106fa565b5b835b818110156107b657806107a28882610744565b84526020840193505060208101905061078f565b5050509392505050565b5f82601f8301126107d4576107d3610643565b5b81516107e4848260208601610758565b91505092915050565b5f602082840312156108025761080161063b565b5b5f82015167ffffffffffffffff81111561081f5761081e61063f565b5b61082b848285016107c0565b91505092915050565b5f81519050919050565b7f4e487b71000000000000000000000000000000000000000000000000000000005f52602260045260245ffd5b5f600282049050600182168061088257607f821691505b6020821081036108955761089461083e565b5b50919050565b5f819050815f5260205f209050919050565b5f6020601f8301049050919050565b5f82821b905092915050565b5f600883026108f77fffffffffffffffffffffffffffffffffffffffffffffffffffffffffffffffff826108bc565b61090186836108bc565b95508019841693508086168417925050509392505050565b5f819050919050565b5f819050919050565b5f61094561094061093b84610919565b610922565b610919565b9050919050565b5f819050919050565b61095e8361092b565b61097261096a8261094c565b8484546108c8565b825550505050565b5f90565b61098661097a565b610991818484610955565b505050565b5b818110156109b4576109a95f8261097e565b600181019050610997565b5050565b601f8211156109f9576109ca8161089b565b6109d3846108ad565b810160208510156109e2578190505b6109f66109ee856108ad565b830182610996565b50505b505050565b5f82821c905092915050565b5f610a195f19846008026109fe565b1980831691505092915050565b5f610a318383610a0a565b9150826002028217905092915050565b610a4a82610834565b67ffffffffffffffff811115610a6357610a62610657565b5b610a6d825461086b565b610a788282856109b8565b5f60209050601f831160018114610aa9575f8415610a97578287015190505b610aa18582610a26565b865550610b08565b601f198416610ab78661089b565b5f5b82811015610ade57848901518255600182019150602085019450602081019050610ab9565b86831015610afb5784890151610af7601f891682610a0a565b8355505b6001600288020188555050505b505050505050565b610b198161071d565b82525050565b5f602082019050610b325f830184610b10565b92915050565b7f4e487b71000000000000000000000000000000000000000000000000000000005f52603260045260245ffd5b7f4e487b71000000000000000000000000000000000000000000000000000000005f52601160045260245ffd5b5f610b9c82610919565b9150610ba783610919565b9250828201905080821115610bbf57610bbe610b65565b5b92915050565b610bce81610919565b82525050565b5f606082019050610be75f830186610b10565b610bf46020830185610bc5565b610c016040830184610bc5565b949350505050565b5f602082019050610c1c5f830184610bc5565b92915050565b613aa080610c2f5f395ff3fe608060405260043610610228575f3560e01c8063715018a611610122578063a9059cbb116100aa578063c040e6b81161006e578063c040e6b814610801578063c552e04b1461082b578063dd62ed3e14610855578063e6bd92b914610891578063f2fde38b146108bb57610268565b8063a9059cbb1461071d578063b0e6863014610759578063b68ed11f14610783578063ba20cf4c146107ad578063bda95633146107d757610268565b80638f7713ff116100f15780638f7713ff1461064d578063902d55a514610677578063920168b3146106a157806395ccea67146106cb57806395d89b41146106f357610268565b8063715018a6146105bb5780637547c7a3146105d15780638da5cb5b146105f95780638e15f4731461062357610268565b80632b1cbc38116101b057806340f02ab61161017457806340f02ab6146104ff57806354dd1da41461052957806355dd574c1461053f5780635fb3b9441461055557806370a082311461057f57610268565b80632b1cbc3814610451578063313ce5671461048d57806332c85ac0146104b7578063338dbf59146104cd5780633610724e146104e357610268565b80631514617e116101f75780631514617e1461036f57806318160ddd14610399578063192399d1146103c357806323b872dd146103ff57806324600fc31461043b57610268565b806306fdde03146102a3578063095ea7b3146102cd5780630fe83bb81461030957806310c7f0b91461033357610268565b36610268576040517f08c379a000000000000000000000000000000000000000000000000000000000815260040161025f90612770565b60405180910390fd5b6040517f08c379a000000000000000000000000000000000000000000000000000000000815260040161029a90612770565b60405180910390fd5b3480156102ae575f80fd5b506102b76108e3565b6040516102c491906127ee565b60405180910390f35b3480156102d8575f80fd5b506102f360048036038101906102ee919061289f565b610973565b60405161030091906128f7565b60405180910390f35b348015610314575f80fd5b5061031d610995565b60405161032a919061291f565b60405180910390f35b34801561033e575f80fd5b5061035960048036038101906103549190612938565b61099b565b60405161036691906129be565b60405180910390f35b34801561037a575f80fd5b506103836109d6565b604051610390919061291f565b60405180910390f35b3480156103a4575f80fd5b506103ad6109dc565b6040516103ba919061291f565b60405180910390f35b3480156103ce575f80fd5b506103e960048036038101906103e491906129d7565b6109e5565b6040516103f6919061291f565b60405180910390f35b34801561040a575f80fd5b5061042560048036038101906104209190612a02565b6109fa565b60405161043291906128f7565b60405180910390f35b348015610446575f80fd5b5061044f610a28565b005b34801561045c575f80fd5b50610477600480360381019061047291906129d7565b610ae7565b604051610484919061291f565b60405180910390f35b348015610498575f80fd5b506104a1610afc565b6040516104ae9190612a6d565b60405180910390f35b3480156104c2575f80fd5b506104cb610b04565b005b3480156104d8575f80fd5b506104e1610bd0565b005b6104fd60048036038101906104f89190612938565b610d45565b005b34801561050a575f80fd5b50610513611257565b604051610520919061291f565b60405180910390f35b348015610534575f80fd5b5061053d61125d565b005b34801561054a575f80fd5b50610553611450565b005b348015610560575f80fd5b50610569611584565b604051610576919061291f565b60405180910390f35b34801561058a575f80fd5b506105a560048036038101906105a091906129d7565b61158a565b6040516105b2919061291f565b60405180910390f35b3480156105c6575f80fd5b506105cf6115cf565b005b3480156105dc575f80fd5b506105f760048036038101906105f29190612938565b6115e2565b005b348015610604575f80fd5b5061060d611809565b60405161061a9190612a95565b60405180910390f35b34801561062e575f80fd5b50610637611831565b604051610644919061291f565b60405180910390f35b348015610658575f80fd5b5061066161198f565b60405161066e919061291f565b60405180910390f35b348015610682575f80fd5b5061068b611995565b604051610698919061291f565b60405180910390f35b3480156106ac575f80fd5b506106b56119a4565b6040516106c2919061291f565b60405180910390f35b3480156106d6575f80fd5b506106f160048036038101906106ec919061289f565b6119aa565b005b3480156106fe575f80fd5b50610707611a9e565b60405161071491906127ee565b60405180910390f35b348015610728575f80fd5b50610743600480360381019061073e919061289f565b611b2e565b60405161075091906128f7565b60405180910390f35b348015610764575f80fd5b5061076d611b50565b60405161077a919061291f565b60405180910390f35b34801561078e575f80fd5b50610797611b56565b6040516107a4919061291f565b60405180910390f35b3480156107b8575f80fd5b506107c1611b5c565b6040516107ce919061291f565b60405180910390f35b3480156107e2575f80fd5b506107eb611b62565b6040516107f8919061291f565b60405180910390f35b34801561080c575f80fd5b50610815611b68565b6040516108229190612b21565b60405180910390f35b348015610836575f80fd5b5061083f611b7a565b60405161084c919061291f565b60405180910390f35b348015610860575f80fd5b5061087b60048036038101906108769190612b3a565b611b80565b604051610888919061291f565b60405180910390f35b34801561089c575f80fd5b506108a5611c02565b6040516108b2919061291f565b60405180910390f35b3480156108c6575f80fd5b506108e160048036038101906108dc91906129d7565b611c08565b005b6060600380546108f290612ba5565b80601f016020809104026020016040519081016040528092919081815260200182805461091e90612ba5565b80156109695780601f1061094057610100808354040283529160200191610969565b820191905f5260205f20905b81548152906001019060200180831161094c57829003601f168201915b5050505050905090565b5f8061097d611c8c565b905061098a818585611c93565b600191505092915050565b600d5481565b601681815481106109aa575f80fd5b905f5260205f20015f915054906101000a900473ffffffffffffffffffffffffffffffffffffffff1681565b60145481565b5f600254905090565b6012602052805f5260405f205f915090505481565b5f80610a04611c8c565b9050610a11858285611ca5565b610a1c858585611d37565b60019150509392505050565b610a30611e27565b610a38611eae565b5f479050610a44611809565b73ffffffffffffffffffffffffffffffffffffffff166108fc8290811502906040515f60405180830381858888f19350505050158015610a86573d5f803e3d5ffd5b50610a8f611809565b73ffffffffffffffffffffffffffffffffffffffff167feaff4b37086828766ad3268786972c0cd24259d4c87a80f9d3963a3c3d999b0d82604051610ad4919061291f565b60405180910390a250610ae5611efd565b565b6013602052805f5260405f205f915090505481565b5f6012905090565b610b0c611e27565b600854600b541480610b215750600d54601054145b610b60576040517f08c379a0000000000000000000000000000000000000000000000000000000008152600401610b5790612c1f565b60405180910390fd5b5f60115f6101000a81548160ff02191690836002811115610b8457610b83612aae565b5b02179055507f273467821f33675618854603ef917ebcec8a1a39f95c43d5564ed1aefab870b360115f9054906101000a900460ff16604051610bc69190612b21565b60405180910390a1565b610bd8611e27565b5f6002811115610beb57610bea612aae565b5b60115f9054906101000a900460ff166002811115610c0c57610c0b612aae565b5b14610c4c576040517f08c379a0000000000000000000000000000000000000000000000000000000008152600401610c4390612cad565b60405180910390fd5b5f600b5414610c90576040517f08c379a0000000000000000000000000000000000000000000000000000000008152600401610c8790612d3b565b60405180910390fd5b5f60105414610cd4576040517f08c379a0000000000000000000000000000000000000000000000000000000008152600401610ccb90612dc9565b60405180910390fd5b600160115f6101000a81548160ff02191690836002811115610cf957610cf8612aae565b5b02179055507f273467821f33675618854603ef917ebcec8a1a39f95c43d5564ed1aefab870b360115f9054906101000a900460ff16604051610d3b9190612b21565b60405180910390a1565b610d4d611eae565b5f6002811115610d6057610d5f612aae565b5b60115f9054906101000a900460ff166002811115610d8157610d80612aae565b5b03610dc1576040517f08c379a0000000000000000000000000000000000000000000000000000000008152600401610db890612e31565b60405180910390fd5b5f610dca611831565b90505f8111610e0e576040517f08c379a0000000000000000000000000000000000000000000000000000000008152600401610e0590612e99565b60405180910390fd5b5f60016002811115610e2357610e22612aae565b5b60115f9054906101000a900460ff166002811115610e4457610e43612aae565b5b0361107657600854600b5410610e8f576040517f08c379a0000000000000000000000000000000000000000000000000000000008152600401610e8690612f01565b60405180910390fd5b610ec4610ebf670de0b6b3a7640000610eb18587611f0790919063ffffffff16565b611f1c90919063ffffffff16565b611f31565b9050610edb81600b5461210f90919063ffffffff16565b600b81905550600854600b541115610f28576040517f08c379a0000000000000000000000000000000000000000000000000000000008152600401610f1f90612f8f565b60405180910390fd5b610f788160125f3373ffffffffffffffffffffffffffffffffffffffff1673ffffffffffffffffffffffffffffffffffffffff1681526020019081526020015f205461210f90919063ffffffff16565b60125f3373ffffffffffffffffffffffffffffffffffffffff1673ffffffffffffffffffffffffffffffffffffffff1681526020019081526020015f2081905550610fe2601454610fd46015544261210f90919063ffffffff16565b61210f90919063ffffffff16565b60135f3373ffffffffffffffffffffffffffffffffffffffff1673ffffffffffffffffffffffffffffffffffffffff1681526020019081526020015f20819055503373ffffffffffffffffffffffffffffffffffffffff167f8fa81bb0702332ea2a0aee44bb9e4d359cf4a2c5a820dd59d9129369bdbca73f82604051611069919061291f565b60405180910390a261124a565b60028081111561108957611088612aae565b5b60115f9054906101000a900460ff1660028111156110aa576110a9612aae565b5b0361124957600d54601054106110f5576040517f08c379a00000000000000000000000000000000000000000000000000000000081526004016110ec90612ff7565b60405180910390fd5b68056bc75e2d631000008310158015611117575068a2a15d09519be000008311155b611156576040517f08c379a000000000000000000000000000000000000000000000000000000000815260040161114d9061305f565b60405180910390fd5b61118b611186670de0b6b3a76400006111788587611f0790919063ffffffff16565b611f1c90919063ffffffff16565b612124565b90506111a28160105461210f90919063ffffffff16565b601081905550600d5460105411156111ef576040517f08c379a00000000000000000000000000000000000000000000000000000000081526004016111e6906130c7565b60405180910390fd5b6111fa303383611d37565b3373ffffffffffffffffffffffffffffffffffffffff167f550498dc565cc74203b9d14cba907c9f60ceefe26e82b37df98f6cb98529cf1982604051611240919061291f565b60405180910390a25b5b5050611254611efd565b50565b60155481565b611265611eae565b60135f3373ffffffffffffffffffffffffffffffffffffffff1673ffffffffffffffffffffffffffffffffffffffff1681526020019081526020015f20544210156112e5576040517f08c379a00000000000000000000000000000000000000000000000000000000081526004016112dc90613155565b60405180910390fd5b5f60125f3373ffffffffffffffffffffffffffffffffffffffff1673ffffffffffffffffffffffffffffffffffffffff1681526020019081526020015f205490505f8111611368576040517f08c379a000000000000000000000000000000000000000000000000000000000815260040161135f906131bd565b60405180910390fd5b5f60125f3373ffffffffffffffffffffffffffffffffffffffff1673ffffffffffffffffffffffffffffffffffffffff1681526020019081526020015f20819055505f60135f3373ffffffffffffffffffffffffffffffffffffffff1673ffffffffffffffffffffffffffffffffffffffff1681526020019081526020015f20819055506113f7303383611d37565b3373ffffffffffffffffffffffffffffffffffffffff167f6bc5063c7239b75c8bf325a2a2238f726fada322163996bb6c93d5594fb119f08260405161143d919061291f565b60405180910390a25061144e611efd565b565b611458611e27565b6001600281111561146c5761146b612aae565b5b60115f9054906101000a900460ff16600281111561148d5761148c612aae565b5b146114cd576040517f08c379a00000000000000000000000000000000000000000000000000000000081526004016114c49061324b565b60405180910390fd5b600854600b5414611513576040517f08c379a000000000000000000000000000000000000000000000000000000000815260040161150a906132d9565b60405180910390fd5b600260115f6101000a81548160ff0219169083600281111561153857611537612aae565b5b02179055507f273467821f33675618854603ef917ebcec8a1a39f95c43d5564ed1aefab870b360115f9054906101000a900460ff1660405161157a9190612b21565b60405180910390a1565b600b5481565b5f805f8373ffffffffffffffffffffffffffffffffffffffff1673ffffffffffffffffffffffffffffffffffffffff1681526020019081526020015f20549050919050565b6115d7611e27565b6115e05f612230565b565b6115ea611e27565b6115f2611eae565b5f8111611634576040517f08c379a000000000000000000000000000000000000000000000000000000000815260040161162b90613341565b60405180910390fd5b8061163e3361158a565b101561167f576040517f08c379a0000000000000000000000000000000000000000000000000000000008152600401611676906133a9565b60405180910390fd5b61168a333083611d37565b6116da8160125f3373ffffffffffffffffffffffffffffffffffffffff1673ffffffffffffffffffffffffffffffffffffffff1681526020019081526020015f205461210f90919063ffffffff16565b60125f3373ffffffffffffffffffffffffffffffffffffffff1673ffffffffffffffffffffffffffffffffffffffff1681526020019081526020015f20819055506117306015544261210f90919063ffffffff16565b60135f3373ffffffffffffffffffffffffffffffffffffffff1673ffffffffffffffffffffffffffffffffffffffff1681526020019081526020015f20819055503373ffffffffffffffffffffffffffffffffffffffff167fdd2a19c3bdd089cbe77c04f5655f83de0504d6140d12c8667646f55d0557c4dc8260135f3373ffffffffffffffffffffffffffffffffffffffff1673ffffffffffffffffffffffffffffffffffffffff1681526020019081526020015f20546040516117f69291906133c7565b60405180910390a2611806611efd565b50565b5f60055f9054906101000a900473ffffffffffffffffffffffffffffffffffffffff16905090565b5f805f90505f5b601680549050811015611959575f6016828154811061185a576118596133ee565b5b905f5260205f20015f9054906101000a900473ffffffffffffffffffffffffffffffffffffffff1673ffffffffffffffffffffffffffffffffffffffff1663feaf968c6040518163ffffffff1660e01b815260040160a060405180830381865afa1580156118ca573d5f803e3d5ffd5b505050506040513d601f19601f820116820180604052508101906118ee91906134a1565b5050509150505f8113611936576040517f08c379a000000000000000000000000000000000000000000000000000000000815260040161192d90613562565b60405180910390fd5b611949818461210f90919063ffffffff16565b9250508080600101915050611838565b506119896402540be40061197b60168054905084611f1c90919063ffffffff16565b611f0790919063ffffffff16565b91505090565b600f5481565b6aa56fa5b99019a5c800000081565b600e5481565b6119b2611e27565b6119ba611eae565b8173ffffffffffffffffffffffffffffffffffffffff1663a9059cbb6119de611809565b836040518363ffffffff1660e01b81526004016119fc929190613580565b6020604051808303815f875af1158015611a18573d5f803e3d5ffd5b505050506040513d601f19601f82011682018060405250810190611a3c91906135d1565b50611a45611809565b73ffffffffffffffffffffffffffffffffffffffff167feaff4b37086828766ad3268786972c0cd24259d4c87a80f9d3963a3c3d999b0d82604051611a8a919061291f565b60405180910390a2611a9a611efd565b5050565b606060048054611aad90612ba5565b80601f0160208091040260200160405190810160405280929190818152602001828054611ad990612ba5565b8015611b245780601f10611afb57610100808354040283529160200191611b24565b820191905f5260205f20905b815481529060010190602001808311611b0757829003601f168201915b5050505050905090565b5f80611b38611c8c565b9050611b45818585611d37565b600191505092915050565b60095481565b60105481565b60075481565b600a5481565b60115f9054906101000a900460ff1681565b60085481565b5f60015f8473ffffffffffffffffffffffffffffffffffffffff1673ffffffffffffffffffffffffffffffffffffffff1681526020019081526020015f205f8373ffffffffffffffffffffffffffffffffffffffff1673ffffffffffffffffffffffffffffffffffffffff1681526020019081526020015f2054905092915050565b600c5481565b611c10611e27565b5f73ffffffffffffffffffffffffffffffffffffffff168173ffffffffffffffffffffffffffffffffffffffff1603611c80575f6040517f1e4fbdf7000000000000000000000000000000000000000000000000000000008152600401611c779190612a95565b60405180910390fd5b611c8981612230565b50565b5f33905090565b611ca083838360016122f3565b505050565b5f611cb08484611b80565b90507fffffffffffffffffffffffffffffffffffffffffffffffffffffffffffffffff8114611d315781811015611d22578281836040517ffb8f41b2000000000000000000000000000000000000000000000000000000008152600401611d19939291906135fc565b60405180910390fd5b611d3084848484035f6122f3565b5b50505050565b5f73ffffffffffffffffffffffffffffffffffffffff168373ffffffffffffffffffffffffffffffffffffffff1603611da7575f6040517f96c6fd1e000000000000000000000000000000000000000000000000000000008152600401611d9e9190612a95565b60405180910390fd5b5f73ffffffffffffffffffffffffffffffffffffffff168273ffffffffffffffffffffffffffffffffffffffff1603611e17575f6040517fec442f05000000000000000000000000000000000000000000000000000000008152600401611e0e9190612a95565b60405180910390fd5b611e228383836124c2565b505050565b611e2f611c8c565b73ffffffffffffffffffffffffffffffffffffffff16611e4d611809565b73ffffffffffffffffffffffffffffffffffffffff1614611eac57611e70611c8c565b6040517f118cdaa7000000000000000000000000000000000000000000000000000000008152600401611ea39190612a95565b60405180910390fd5b565b600260065403611ef3576040517f08c379a0000000000000000000000000000000000000000000000000000000008152600401611eea9061367b565b60405180910390fd5b6002600681905550565b6001600681905550565b5f8183611f1491906136c6565b905092915050565b5f8183611f299190613734565b905092915050565b5f808211611f74576040517f08c379a0000000000000000000000000000000000000000000000000000000008152600401611f6b906137d4565b60405180910390fd5b5f60085411611fb8576040517f08c379a0000000000000000000000000000000000000000000000000000000008152600401611faf90613862565b60405180910390fd5b600854600b541115611fff576040517f08c379a0000000000000000000000000000000000000000000000000000000008152600401611ff6906138f0565b60405180910390fd5b5f612017600954600a546126db90919063ffffffff16565b90505f612057612046600854612038600b5486611f0790919063ffffffff16565b611f1c90919063ffffffff16565b60095461210f90919063ffffffff16565b9050600954811015801561206d5750600a548111155b6120ac576040517f08c379a00000000000000000000000000000000000000000000000000000000081526004016120a390613958565b60405180910390fd5b5f6120c08286611f1c90919063ffffffff16565b90505f8111612104576040517f08c379a00000000000000000000000000000000000000000000000000000000081526004016120fb906139e6565b60405180910390fd5b809350505050919050565b5f818361211c9190613a04565b905092915050565b5f80612179612168600d5461215a60105461214c600e54600f546126db90919063ffffffff16565b611f0790919063ffffffff16565b611f1c90919063ffffffff16565b600e5461210f90919063ffffffff16565b9050600e54811015801561218f5750600f548111155b6121ce576040517f08c379a00000000000000000000000000000000000000000000000000000000081526004016121c590613958565b60405180910390fd5b5f6121e28285611f1c90919063ffffffff16565b90505f8111612226576040517f08c379a000000000000000000000000000000000000000000000000000000000815260040161221d906139e6565b60405180910390fd5b8092505050919050565b5f60055f9054906101000a900473ffffffffffffffffffffffffffffffffffffffff1690508160055f6101000a81548173ffffffffffffffffffffffffffffffffffffffff021916908373ffffffffffffffffffffffffffffffffffffffff1602179055508173ffffffffffffffffffffffffffffffffffffffff168173ffffffffffffffffffffffffffffffffffffffff167f8be0079c531659141344cd1fd0a4f28419497f9722a3daafe3b4186f6b6457e060405160405180910390a35050565b5f73ffffffffffffffffffffffffffffffffffffffff168473ffffffffffffffffffffffffffffffffffffffff1603612363575f6040517fe602df0500000000000000000000000000000000000000000000000000000000815260040161235a9190612a95565b60405180910390fd5b5f73ffffffffffffffffffffffffffffffffffffffff168373ffffffffffffffffffffffffffffffffffffffff16036123d3575f6040517f94280d620000000000000000000000000000000000000000000000000000000081526004016123ca9190612a95565b60405180910390fd5b8160015f8673ffffffffffffffffffffffffffffffffffffffff1673ffffffffffffffffffffffffffffffffffffffff1681526020019081526020015f205f8573ffffffffffffffffffffffffffffffffffffffff1673ffffffffffffffffffffffffffffffffffffffff1681526020019081526020015f208190555080156124bc578273ffffffffffffffffffffffffffffffffffffffff168473ffffffffffffffffffffffffffffffffffffffff167f8c5be1e5ebec7d5bd14f71427d1e84f3dd0314c0f7b2291e5b200ac8c7c3b925846040516124b3919061291f565b60405180910390a35b50505050565b5f73ffffffffffffffffffffffffffffffffffffffff168373ffffffffffffffffffffffffffffffffffffffff1603612512578060025f8282546125069190613a04565b925050819055506125e0565b5f805f8573ffffffffffffffffffffffffffffffffffffffff1673ffffffffffffffffffffffffffffffffffffffff1681526020019081526020015f205490508181101561259b578381836040517fe450d38c000000000000000000000000000000000000000000000000000000008152600401612592939291906135fc565b60405180910390fd5b8181035f808673ffffffffffffffffffffffffffffffffffffffff1673ffffffffffffffffffffffffffffffffffffffff1681526020019081526020015f2081905550505b5f73ffffffffffffffffffffffffffffffffffffffff168273ffffffffffffffffffffffffffffffffffffffff1603612627578060025f8282540392505081905550612671565b805f808473ffffffffffffffffffffffffffffffffffffffff1673ffffffffffffffffffffffffffffffffffffffff1681526020019081526020015f205f82825401925050819055505b8173ffffffffffffffffffffffffffffffffffffffff168373ffffffffffffffffffffffffffffffffffffffff167fddf252ad1be2c89b69c2b068fc378daa952ba7f163c4a11628f55a4df523b3ef836040516126ce919061291f565b60405180910390a3505050565b5f81836126e89190613a37565b905092915050565b5f82825260208201905092915050565b7f44697265637420455448207472616e7366657273206e6f7420616c6c6f7765645f8201527f2e00000000000000000000000000000000000000000000000000000000000000602082015250565b5f61275a6021836126f0565b915061276582612700565b604082019050919050565b5f6020820190508181035f8301526127878161274e565b9050919050565b5f81519050919050565b8281835e5f83830152505050565b5f601f19601f8301169050919050565b5f6127c08261278e565b6127ca81856126f0565b93506127da818560208601612798565b6127e3816127a6565b840191505092915050565b5f6020820190508181035f83015261280681846127b6565b905092915050565b5f80fd5b5f73ffffffffffffffffffffffffffffffffffffffff82169050919050565b5f61283b82612812565b9050919050565b61284b81612831565b8114612855575f80fd5b50565b5f8135905061286681612842565b92915050565b5f819050919050565b61287e8161286c565b8114612888575f80fd5b50565b5f8135905061289981612875565b92915050565b5f80604083850312156128b5576128b461280e565b5b5f6128c285828601612858565b92505060206128d38582860161288b565b9150509250929050565b5f8115159050919050565b6128f1816128dd565b82525050565b5f60208201905061290a5f8301846128e8565b92915050565b6129198161286c565b82525050565b5f6020820190506129325f830184612910565b92915050565b5f6020828403121561294d5761294c61280e565b5b5f61295a8482850161288b565b91505092915050565b5f819050919050565b5f61298661298161297c84612812565b612963565b612812565b9050919050565b5f6129978261296c565b9050919050565b5f6129a88261298d565b9050919050565b6129b88161299e565b82525050565b5f6020820190506129d15f8301846129af565b92915050565b5f602082840312156129ec576129eb61280e565b5b5f6129f984828501612858565b91505092915050565b5f805f60608486031215612a1957612a1861280e565b5b5f612a2686828701612858565b9350506020612a3786828701612858565b9250506040612a488682870161288b565b9150509250925092565b5f60ff82169050919050565b612a6781612a52565b82525050565b5f602082019050612a805f830184612a5e565b92915050565b612a8f81612831565b82525050565b5f602082019050612aa85f830184612a86565b92915050565b7f4e487b71000000000000000000000000000000000000000000000000000000005f52602160045260245ffd5b60038110612aec57612aeb612aae565b5b50565b5f819050612afc82612adb565b919050565b5f612b0b82612aef565b9050919050565b612b1b81612b01565b82525050565b5f602082019050612b345f830184612b12565b92915050565b5f8060408385031215612b5057612b4f61280e565b5b5f612b5d85828601612858565b9250506020612b6e85828601612858565b9150509250929050565b7f4e487b71000000000000000000000000000000000000000000000000000000005f52602260045260245ffd5b5f6002820490506001821680612bbc57607f821691505b602082108103612bcf57612bce612b78565b5b50919050565b7f53616c65732074617267657473206e6f7420796574206d65742e0000000000005f82015250565b5f612c09601a836126f0565b9150612c1482612bd5565b602082019050919050565b5f6020820190508181035f830152612c3681612bfd565b9050919050565b7f507269766174652053616c652063616e206f6e6c792073746172742066726f6d5f8201527f204e4f4e452073746167652e0000000000000000000000000000000000000000602082015250565b5f612c97602c836126f0565b9150612ca282612c3d565b604082019050919050565b5f6020820190508181035f830152612cc481612c8b565b9050919050565b7f507269766174652053616c6520746f6b656e732073686f756c6420626520756e5f8201527f736f6c642061742073746172742e000000000000000000000000000000000000602082015250565b5f612d25602e836126f0565b9150612d3082612ccb565b604082019050919050565b5f6020820190508181035f830152612d5281612d19565b9050919050565b7f5072652d53616c652073686f756c64206e6f74206861766520737461727465645f8201527f206265666f726520507269766174652053616c652e0000000000000000000000602082015250565b5f612db36035836126f0565b9150612dbe82612d59565b604082019050919050565b5f6020820190508181035f830152612de081612da7565b9050919050565b7f4e6f2073616c65206973206163746976652e00000000000000000000000000005f82015250565b5f612e1b6012836126f0565b9150612e2682612de7565b602082019050919050565b5f6020820190508181035f830152612e4881612e0f565b9050919050565b7f496e76616c69642070726963652066726f6d206f7261636c65000000000000005f82015250565b5f612e836019836126f0565b9150612e8e82612e4f565b602082019050919050565b5f6020820190508181035f830152612eb081612e77565b9050919050565b7f507269766174652053616c6520736f6c64206f75742e000000000000000000005f82015250565b5f612eeb6016836126f0565b9150612ef682612eb7565b602082019050919050565b5f6020820190508181035f830152612f1881612edf565b9050919050565b7f4578636565647320507269766174652053616c6520746f6b656e206c696d69745f8201527f2e00000000000000000000000000000000000000000000000000000000000000602082015250565b5f612f796021836126f0565b9150612f8482612f1f565b604082019050919050565b5f6020820190508181035f830152612fa681612f6d565b9050919050565b7f5072652d53616c6520736f6c64206f75742e00000000000000000000000000005f82015250565b5f612fe16012836126f0565b9150612fec82612fad565b602082019050919050565b5f6020820190508181035f83015261300e81612fd5565b9050919050565b7f507572636861736520616d6f756e74206f7574206f66206c696d6974732e00005f82015250565b5f613049601e836126f0565b915061305482613015565b602082019050919050565b5f6020820190508181035f8301526130768161303d565b9050919050565b7f45786365656473205072652d53616c6520746f6b656e206c696d69742e0000005f82015250565b5f6130b1601d836126f0565b91506130bc8261307d565b602082019050919050565b5f6020820190508181035f8301526130de816130a5565b9050919050565b7f56657374696e6720706572696f64206e6f742079657420636f6d706c657465645f8201527f2e00000000000000000000000000000000000000000000000000000000000000602082015250565b5f61313f6021836126f0565b915061314a826130e5565b604082019050919050565b5f6020820190508181035f83015261316c81613133565b9050919050565b7f4e6f2076657374656420746f6b656e7320746f2072656c6561736500000000005f82015250565b5f6131a7601b836126f0565b91506131b282613173565b602082019050919050565b5f6020820190508181035f8301526131d48161319b565b9050919050565b7f5072652d53616c652063616e206f6e6c792073746172742061667465722050725f8201527f69766174652053616c652e000000000000000000000000000000000000000000602082015250565b5f613235602b836126f0565b9150613240826131db565b604082019050919050565b5f6020820190508181035f83015261326281613229565b9050919050565b7f507269766174652053616c65206d75737420626520636f6d706c6574656420625f8201527f65666f7265207374617274696e67205072652d53616c652e0000000000000000602082015250565b5f6132c36038836126f0565b91506132ce82613269565b604082019050919050565b5f6020820190508181035f8301526132f0816132b7565b9050919050565b7f416d6f756e74206d7573742062652067726561746572207468616e20300000005f82015250565b5f61332b601d836126f0565b9150613336826132f7565b602082019050919050565b5f6020820190508181035f8301526133588161331f565b9050919050565b7f496e73756666696369656e742062616c616e636520746f207374616b650000005f82015250565b5f613393601d836126f0565b915061339e8261335f565b602082019050919050565b5f6020820190508181035f8301526133c081613387565b9050919050565b5f6040820190506133da5f830185612910565b6133e76020830184612910565b9392505050565b7f4e487b71000000000000000000000000000000000000000000000000000000005f52603260045260245ffd5b5f69ffffffffffffffffffff82169050919050565b6134398161341b565b8114613443575f80fd5b50565b5f8151905061345481613430565b92915050565b5f819050919050565b61346c8161345a565b8114613476575f80fd5b50565b5f8151905061348781613463565b92915050565b5f8151905061349b81612875565b92915050565b5f805f805f60a086880312156134ba576134b961280e565b5b5f6134c788828901613446565b95505060206134d888828901613479565b94505060406134e98882890161348d565b93505060606134fa8882890161348d565b925050608061350b88828901613446565b9150509295509295909350565b7f496e76616c696420707269636520646174612066726f6d206f7261636c6500005f82015250565b5f61354c601e836126f0565b915061355782613518565b602082019050919050565b5f6020820190508181035f83015261357981613540565b9050919050565b5f6040820190506135935f830185612a86565b6135a06020830184612910565b9392505050565b6135b0816128dd565b81146135ba575f80fd5b50565b5f815190506135cb816135a7565b92915050565b5f602082840312156135e6576135e561280e565b5b5f6135f3848285016135bd565b91505092915050565b5f60608201905061360f5f830186612a86565b61361c6020830185612910565b6136296040830184612910565b949350505050565b7f5265656e7472616e637947756172643a207265656e7472616e742063616c6c005f82015250565b5f613665601f836126f0565b915061367082613631565b602082019050919050565b5f6020820190508181035f83015261369281613659565b9050919050565b7f4e487b71000000000000000000000000000000000000000000000000000000005f52601160045260245ffd5b5f6136d08261286c565b91506136db8361286c565b92508282026136e98161286c565b91508282048414831517613700576136ff613699565b5b5092915050565b7f4e487b71000000000000000000000000000000000000000000000000000000005f52601260045260245ffd5b5f61373e8261286c565b91506137498361286c565b92508261375957613758613707565b5b828204905092915050565b7f55534420616d6f756e74206d7573742062652067726561746572207468616e205f8201527f3000000000000000000000000000000000000000000000000000000000000000602082015250565b5f6137be6021836126f0565b91506137c982613764565b604082019050919050565b5f6020820190508181035f8301526137eb816137b2565b9050919050565b7f507269766174652053616c6520746f6b656e73206d75737420626520677265615f8201527f746572207468616e203000000000000000000000000000000000000000000000602082015250565b5f61384c602a836126f0565b9150613857826137f2565b604082019050919050565b5f6020820190508181035f83015261387981613840565b9050919050565b7f507269766174652053616c6520736f6c6420746f6b656e7320657863656564205f8201527f617661696c61626c6520746f6b656e7300000000000000000000000000000000602082015250565b5f6138da6030836126f0565b91506138e582613880565b604082019050919050565b5f6020820190508181035f830152613907816138ce565b9050919050565b7f496e76616c696420746f6b656e2070726963652063616c63756c6174656400005f82015250565b5f613942601e836126f0565b915061394d8261390e565b602082019050919050565b5f6020820190508181035f83015261396f81613936565b9050919050565b7f43616c63756c6174656420746f6b656e73206d757374206265206772656174655f8201527f72207468616e2030000000000000000000000000000000000000000000000000602082015250565b5f6139d06028836126f0565b91506139db82613976565b604082019050919050565b5f6020820190508181035f8301526139fd816139c4565b9050919050565b5f613a0e8261286c565b9150613a198361286c565b9250828201905080821115613a3157613a30613699565b5b92915050565b5f613a418261286c565b9150613a4c8361286c565b9250828203905081811115613a6457613a63613699565b5b9291505056fea2646970667358221220f1b8841746faa3d853ab09a092672caf5c2942261c2794fab50af760c2b42bc564736f6c634300081a0033",
					"opcodes": "PUSH1 0x80 PUSH1 0x40 MSTORE PUSH10 0xD3C21BCECCEDA1000000 PUSH1 0x7 SSTORE PUSH11 0x201FCAFC2577D298500000 PUSH1 0x8 SSTORE PUSH7 0x38D7EA4C68000 PUSH1 0x9 SSTORE PUSH7 0xB3697B81284000 PUSH1 0xA SSTORE PUSH0 PUSH1 0xB SSTORE PUSH11 0xFB768105935A2F3000000 PUSH1 0xC SSTORE PUSH11 0x854FDABD6AA1D32FB00000 PUSH1 0xD SSTORE PUSH7 0xB3697B81284000 PUSH1 0xE SSTORE PUSH8 0x16345785D8A0000 PUSH1 0xF SSTORE PUSH0 PUSH1 0x10 SSTORE PUSH0 PUSH1 0x11 PUSH0 PUSH2 0x100 EXP DUP2 SLOAD DUP2 PUSH1 0xFF MUL NOT AND SWAP1 DUP4 PUSH1 0x2 DUP2 GT ISZERO PUSH2 0x98 JUMPI PUSH2 0x97 PUSH2 0x605 JUMP JUMPDEST JUMPDEST MUL OR SWAP1 SSTORE POP PUSH3 0xED4E00 PUSH1 0x14 SSTORE PUSH4 0x1E13380 PUSH1 0x15 SSTORE CALLVALUE DUP1 ISZERO PUSH2 0xB7 JUMPI PUSH0 DUP1 REVERT JUMPDEST POP PUSH1 0x40 MLOAD PUSH2 0x46CF CODESIZE SUB DUP1 PUSH2 0x46CF DUP4 CODECOPY DUP2 DUP2 ADD PUSH1 0x40 MSTORE DUP2 ADD SWAP1 PUSH2 0xD9 SWAP2 SWAP1 PUSH2 0x7ED JUMP JUMPDEST CALLER PUSH1 0x40 MLOAD DUP1 PUSH1 0x40 ADD PUSH1 0x40 MSTORE DUP1 PUSH1 0x8 DUP2 MSTORE PUSH1 0x20 ADD PUSH32 0x426574746F6B656E000000000000000000000000000000000000000000000000 DUP2 MSTORE POP PUSH1 0x40 MLOAD DUP1 PUSH1 0x40 ADD PUSH1 0x40 MSTORE DUP1 PUSH1 0x4 DUP2 MSTORE PUSH1 0x20 ADD PUSH32 0x4245545400000000000000000000000000000000000000000000000000000000 DUP2 MSTORE POP DUP2 PUSH1 0x3 SWAP1 DUP2 PUSH2 0x155 SWAP2 SWAP1 PUSH2 0xA41 JUMP JUMPDEST POP DUP1 PUSH1 0x4 SWAP1 DUP2 PUSH2 0x165 SWAP2 SWAP1 PUSH2 0xA41 JUMP JUMPDEST POP POP POP PUSH0 PUSH20 0xFFFFFFFFFFFFFFFFFFFFFFFFFFFFFFFFFFFFFFFF AND DUP2 PUSH20 0xFFFFFFFFFFFFFFFFFFFFFFFFFFFFFFFFFFFFFFFF AND SUB PUSH2 0x1D8 JUMPI PUSH0 PUSH1 0x40 MLOAD PUSH32 0x1E4FBDF700000000000000000000000000000000000000000000000000000000 DUP2 MSTORE PUSH1 0x4 ADD PUSH2 0x1CF SWAP2 SWAP1 PUSH2 0xB1F JUMP JUMPDEST PUSH1 0x40 MLOAD DUP1 SWAP2 SUB SWAP1 REVERT JUMPDEST PUSH2 0x1E7 DUP2 PUSH2 0x2A4 PUSH1 0x20 SHL PUSH1 0x20 SHR JUMP JUMPDEST POP PUSH1 0x1 PUSH1 0x6 DUP2 SWAP1 SSTORE POP PUSH2 0x20B ADDRESS PUSH11 0xA56FA5B99019A5C8000000 PUSH2 0x367 PUSH1 0x20 SHL PUSH1 0x20 SHR JUMP JUMPDEST PUSH0 JUMPDEST DUP2 MLOAD DUP2 LT ISZERO PUSH2 0x29D JUMPI PUSH1 0x16 DUP3 DUP3 DUP2 MLOAD DUP2 LT PUSH2 0x22B JUMPI PUSH2 0x22A PUSH2 0xB38 JUMP JUMPDEST JUMPDEST PUSH1 0x20 MUL PUSH1 0x20 ADD ADD MLOAD SWAP1 DUP1 PUSH1 0x1 DUP2 SLOAD ADD DUP1 DUP3 SSTORE DUP1 SWAP2 POP POP PUSH1 0x1 SWAP1 SUB SWAP1 PUSH0 MSTORE PUSH1 0x20 PUSH0 KECCAK256 ADD PUSH0 SWAP1 SWAP2 SWAP1 SWAP2 SWAP1 SWAP2 PUSH2 0x100 EXP DUP2 SLOAD DUP2 PUSH20 0xFFFFFFFFFFFFFFFFFFFFFFFFFFFFFFFFFFFFFFFF MUL NOT AND SWAP1 DUP4 PUSH20 0xFFFFFFFFFFFFFFFFFFFFFFFFFFFFFFFFFFFFFFFF AND MUL OR SWAP1 SSTORE POP DUP1 DUP1 PUSH1 0x1 ADD SWAP2 POP POP PUSH2 0x20D JUMP JUMPDEST POP POP PUSH2 0xC22 JUMP JUMPDEST PUSH0 PUSH1 0x5 PUSH0 SWAP1 SLOAD SWAP1 PUSH2 0x100 EXP SWAP1 DIV PUSH20 0xFFFFFFFFFFFFFFFFFFFFFFFFFFFFFFFFFFFFFFFF AND SWAP1 POP DUP2 PUSH1 0x5 PUSH0 PUSH2 0x100 EXP DUP2 SLOAD DUP2 PUSH20 0xFFFFFFFFFFFFFFFFFFFFFFFFFFFFFFFFFFFFFFFF MUL NOT AND SWAP1 DUP4 PUSH20 0xFFFFFFFFFFFFFFFFFFFFFFFFFFFFFFFFFFFFFFFF AND MUL OR SWAP1 SSTORE POP DUP2 PUSH20 0xFFFFFFFFFFFFFFFFFFFFFFFFFFFFFFFFFFFFFFFF AND DUP2 PUSH20 0xFFFFFFFFFFFFFFFFFFFFFFFFFFFFFFFFFFFFFFFF AND PUSH32 0x8BE0079C531659141344CD1FD0A4F28419497F9722A3DAAFE3B4186F6B6457E0 PUSH1 0x40 MLOAD PUSH1 0x40 MLOAD DUP1 SWAP2 SUB SWAP1 LOG3 POP POP JUMP JUMPDEST PUSH0 PUSH20 0xFFFFFFFFFFFFFFFFFFFFFFFFFFFFFFFFFFFFFFFF AND DUP3 PUSH20 0xFFFFFFFFFFFFFFFFFFFFFFFFFFFFFFFFFFFFFFFF AND SUB PUSH2 0x3D7 JUMPI PUSH0 PUSH1 0x40 MLOAD PUSH32 0xEC442F0500000000000000000000000000000000000000000000000000000000 DUP2 MSTORE PUSH1 0x4 ADD PUSH2 0x3CE SWAP2 SWAP1 PUSH2 0xB1F JUMP JUMPDEST PUSH1 0x40 MLOAD DUP1 SWAP2 SUB SWAP1 REVERT JUMPDEST PUSH2 0x3E8 PUSH0 DUP4 DUP4 PUSH2 0x3EC PUSH1 0x20 SHL PUSH1 0x20 SHR JUMP JUMPDEST POP POP JUMP JUMPDEST PUSH0 PUSH20 0xFFFFFFFFFFFFFFFFFFFFFFFFFFFFFFFFFFFFFFFF AND DUP4 PUSH20 0xFFFFFFFFFFFFFFFFFFFFFFFFFFFFFFFFFFFFFFFF AND SUB PUSH2 0x43C JUMPI DUP1 PUSH1 0x2 PUSH0 DUP3 DUP3 SLOAD PUSH2 0x430 SWAP2 SWAP1 PUSH2 0xB92 JUMP JUMPDEST SWAP3 POP POP DUP2 SWAP1 SSTORE POP PUSH2 0x50A JUMP JUMPDEST PUSH0 DUP1 PUSH0 DUP6 PUSH20 0xFFFFFFFFFFFFFFFFFFFFFFFFFFFFFFFFFFFFFFFF AND PUSH20 0xFFFFFFFFFFFFFFFFFFFFFFFFFFFFFFFFFFFFFFFF AND DUP2 MSTORE PUSH1 0x20 ADD SWAP1 DUP2 MSTORE PUSH1 0x20 ADD PUSH0 KECCAK256 SLOAD SWAP1 POP DUP2 DUP2 LT ISZERO PUSH2 0x4C5 JUMPI DUP4 DUP2 DUP4 PUSH1 0x40 MLOAD PUSH32 0xE450D38C00000000000000000000000000000000000000000000000000000000 DUP2 MSTORE PUSH1 0x4 ADD PUSH2 0x4BC SWAP4 SWAP3 SWAP2 SWAP1 PUSH2 0xBD4 JUMP JUMPDEST PUSH1 0x40 MLOAD DUP1 SWAP2 SUB SWAP1 REVERT JUMPDEST DUP2 DUP2 SUB PUSH0 DUP1 DUP7 PUSH20 0xFFFFFFFFFFFFFFFFFFFFFFFFFFFFFFFFFFFFFFFF AND PUSH20 0xFFFFFFFFFFFFFFFFFFFFFFFFFFFFFFFFFFFFFFFF AND DUP2 MSTORE PUSH1 0x20 ADD SWAP1 DUP2 MSTORE PUSH1 0x20 ADD PUSH0 KECCAK256 DUP2 SWAP1 SSTORE POP POP JUMPDEST PUSH0 PUSH20 0xFFFFFFFFFFFFFFFFFFFFFFFFFFFFFFFFFFFFFFFF AND DUP3 PUSH20 0xFFFFFFFFFFFFFFFFFFFFFFFFFFFFFFFFFFFFFFFF AND SUB PUSH2 0x551 JUMPI DUP1 PUSH1 0x2 PUSH0 DUP3 DUP3 SLOAD SUB SWAP3 POP POP DUP2 SWAP1 SSTORE POP PUSH2 0x59B JUMP JUMPDEST DUP1 PUSH0 DUP1 DUP5 PUSH20 0xFFFFFFFFFFFFFFFFFFFFFFFFFFFFFFFFFFFFFFFF AND PUSH20 0xFFFFFFFFFFFFFFFFFFFFFFFFFFFFFFFFFFFFFFFF AND DUP2 MSTORE PUSH1 0x20 ADD SWAP1 DUP2 MSTORE PUSH1 0x20 ADD PUSH0 KECCAK256 PUSH0 DUP3 DUP3 SLOAD ADD SWAP3 POP POP DUP2 SWAP1 SSTORE POP JUMPDEST DUP2 PUSH20 0xFFFFFFFFFFFFFFFFFFFFFFFFFFFFFFFFFFFFFFFF AND DUP4 PUSH20 0xFFFFFFFFFFFFFFFFFFFFFFFFFFFFFFFFFFFFFFFF AND PUSH32 0xDDF252AD1BE2C89B69C2B068FC378DAA952BA7F163C4A11628F55A4DF523B3EF DUP4 PUSH1 0x40 MLOAD PUSH2 0x5F8 SWAP2 SWAP1 PUSH2 0xC09 JUMP JUMPDEST PUSH1 0x40 MLOAD DUP1 SWAP2 SUB SWAP1 LOG3 POP POP POP JUMP JUMPDEST PUSH32 0x4E487B7100000000000000000000000000000000000000000000000000000000 PUSH0 MSTORE PUSH1 0x21 PUSH1 0x4 MSTORE PUSH1 0x24 PUSH0 REVERT JUMPDEST PUSH0 PUSH1 0x40 MLOAD SWAP1 POP SWAP1 JUMP JUMPDEST PUSH0 DUP1 REVERT JUMPDEST PUSH0 DUP1 REVERT JUMPDEST PUSH0 DUP1 REVERT JUMPDEST PUSH0 PUSH1 0x1F NOT PUSH1 0x1F DUP4 ADD AND SWAP1 POP SWAP2 SWAP1 POP JUMP JUMPDEST PUSH32 0x4E487B7100000000000000000000000000000000000000000000000000000000 PUSH0 MSTORE PUSH1 0x41 PUSH1 0x4 MSTORE PUSH1 0x24 PUSH0 REVERT JUMPDEST PUSH2 0x68D DUP3 PUSH2 0x647 JUMP JUMPDEST DUP2 ADD DUP2 DUP2 LT PUSH8 0xFFFFFFFFFFFFFFFF DUP3 GT OR ISZERO PUSH2 0x6AC JUMPI PUSH2 0x6AB PUSH2 0x657 JUMP JUMPDEST JUMPDEST DUP1 PUSH1 0x40 MSTORE POP POP POP JUMP JUMPDEST PUSH0 PUSH2 0x6BE PUSH2 0x632 JUMP JUMPDEST SWAP1 POP PUSH2 0x6CA DUP3 DUP3 PUSH2 0x684 JUMP JUMPDEST SWAP2 SWAP1 POP JUMP JUMPDEST PUSH0 PUSH8 0xFFFFFFFFFFFFFFFF DUP3 GT ISZERO PUSH2 0x6E9 JUMPI PUSH2 0x6E8 PUSH2 0x657 JUMP JUMPDEST JUMPDEST PUSH1 0x20 DUP3 MUL SWAP1 POP PUSH1 0x20 DUP2 ADD SWAP1 POP SWAP2 SWAP1 POP JUMP JUMPDEST PUSH0 DUP1 REVERT JUMPDEST PUSH0 PUSH20 0xFFFFFFFFFFFFFFFFFFFFFFFFFFFFFFFFFFFFFFFF DUP3 AND SWAP1 POP SWAP2 SWAP1 POP JUMP JUMPDEST PUSH0 PUSH2 0x727 DUP3 PUSH2 0x6FE JUMP JUMPDEST SWAP1 POP SWAP2 SWAP1 POP JUMP JUMPDEST PUSH2 0x737 DUP2 PUSH2 0x71D JUMP JUMPDEST DUP2 EQ PUSH2 0x741 JUMPI PUSH0 DUP1 REVERT JUMPDEST POP JUMP JUMPDEST PUSH0 DUP2 MLOAD SWAP1 POP PUSH2 0x752 DUP2 PUSH2 0x72E JUMP JUMPDEST SWAP3 SWAP2 POP POP JUMP JUMPDEST PUSH0 PUSH2 0x76A PUSH2 0x765 DUP5 PUSH2 0x6CF JUMP JUMPDEST PUSH2 0x6B5 JUMP JUMPDEST SWAP1 POP DUP1 DUP4 DUP3 MSTORE PUSH1 0x20 DUP3 ADD SWAP1 POP PUSH1 0x20 DUP5 MUL DUP4 ADD DUP6 DUP2 GT ISZERO PUSH2 0x78D JUMPI PUSH2 0x78C PUSH2 0x6FA JUMP JUMPDEST JUMPDEST DUP4 JUMPDEST DUP2 DUP2 LT ISZERO PUSH2 0x7B6 JUMPI DUP1 PUSH2 0x7A2 DUP9 DUP3 PUSH2 0x744 JUMP JUMPDEST DUP5 MSTORE PUSH1 0x20 DUP5 ADD SWAP4 POP POP PUSH1 0x20 DUP2 ADD SWAP1 POP PUSH2 0x78F JUMP JUMPDEST POP POP POP SWAP4 SWAP3 POP POP POP JUMP JUMPDEST PUSH0 DUP3 PUSH1 0x1F DUP4 ADD SLT PUSH2 0x7D4 JUMPI PUSH2 0x7D3 PUSH2 0x643 JUMP JUMPDEST JUMPDEST DUP2 MLOAD PUSH2 0x7E4 DUP5 DUP3 PUSH1 0x20 DUP7 ADD PUSH2 0x758 JUMP JUMPDEST SWAP2 POP POP SWAP3 SWAP2 POP POP JUMP JUMPDEST PUSH0 PUSH1 0x20 DUP3 DUP5 SUB SLT ISZERO PUSH2 0x802 JUMPI PUSH2 0x801 PUSH2 0x63B JUMP JUMPDEST JUMPDEST PUSH0 DUP3 ADD MLOAD PUSH8 0xFFFFFFFFFFFFFFFF DUP2 GT ISZERO PUSH2 0x81F JUMPI PUSH2 0x81E PUSH2 0x63F JUMP JUMPDEST JUMPDEST PUSH2 0x82B DUP5 DUP3 DUP6 ADD PUSH2 0x7C0 JUMP JUMPDEST SWAP2 POP POP SWAP3 SWAP2 POP POP JUMP JUMPDEST PUSH0 DUP2 MLOAD SWAP1 POP SWAP2 SWAP1 POP JUMP JUMPDEST PUSH32 0x4E487B7100000000000000000000000000000000000000000000000000000000 PUSH0 MSTORE PUSH1 0x22 PUSH1 0x4 MSTORE PUSH1 0x24 PUSH0 REVERT JUMPDEST PUSH0 PUSH1 0x2 DUP3 DIV SWAP1 POP PUSH1 0x1 DUP3 AND DUP1 PUSH2 0x882 JUMPI PUSH1 0x7F DUP3 AND SWAP2 POP JUMPDEST PUSH1 0x20 DUP3 LT DUP2 SUB PUSH2 0x895 JUMPI PUSH2 0x894 PUSH2 0x83E JUMP JUMPDEST JUMPDEST POP SWAP2 SWAP1 POP JUMP JUMPDEST PUSH0 DUP2 SWAP1 POP DUP2 PUSH0 MSTORE PUSH1 0x20 PUSH0 KECCAK256 SWAP1 POP SWAP2 SWAP1 POP JUMP JUMPDEST PUSH0 PUSH1 0x20 PUSH1 0x1F DUP4 ADD DIV SWAP1 POP SWAP2 SWAP1 POP JUMP JUMPDEST PUSH0 DUP3 DUP3 SHL SWAP1 POP SWAP3 SWAP2 POP POP JUMP JUMPDEST PUSH0 PUSH1 0x8 DUP4 MUL PUSH2 0x8F7 PUSH32 0xFFFFFFFFFFFFFFFFFFFFFFFFFFFFFFFFFFFFFFFFFFFFFFFFFFFFFFFFFFFFFFFF DUP3 PUSH2 0x8BC JUMP JUMPDEST PUSH2 0x901 DUP7 DUP4 PUSH2 0x8BC JUMP JUMPDEST SWAP6 POP DUP1 NOT DUP5 AND SWAP4 POP DUP1 DUP7 AND DUP5 OR SWAP3 POP POP POP SWAP4 SWAP3 POP POP POP JUMP JUMPDEST PUSH0 DUP2 SWAP1 POP SWAP2 SWAP1 POP JUMP JUMPDEST PUSH0 DUP2 SWAP1 POP SWAP2 SWAP1 POP JUMP JUMPDEST PUSH0 PUSH2 0x945 PUSH2 0x940 PUSH2 0x93B DUP5 PUSH2 0x919 JUMP JUMPDEST PUSH2 0x922 JUMP JUMPDEST PUSH2 0x919 JUMP JUMPDEST SWAP1 POP SWAP2 SWAP1 POP JUMP JUMPDEST PUSH0 DUP2 SWAP1 POP SWAP2 SWAP1 POP JUMP JUMPDEST PUSH2 0x95E DUP4 PUSH2 0x92B JUMP JUMPDEST PUSH2 0x972 PUSH2 0x96A DUP3 PUSH2 0x94C JUMP JUMPDEST DUP5 DUP5 SLOAD PUSH2 0x8C8 JUMP JUMPDEST DUP3 SSTORE POP POP POP POP JUMP JUMPDEST PUSH0 SWAP1 JUMP JUMPDEST PUSH2 0x986 PUSH2 0x97A JUMP JUMPDEST PUSH2 0x991 DUP2 DUP5 DUP5 PUSH2 0x955 JUMP JUMPDEST POP POP POP JUMP JUMPDEST JUMPDEST DUP2 DUP2 LT ISZERO PUSH2 0x9B4 JUMPI PUSH2 0x9A9 PUSH0 DUP3 PUSH2 0x97E JUMP JUMPDEST PUSH1 0x1 DUP2 ADD SWAP1 POP PUSH2 0x997 JUMP JUMPDEST POP POP JUMP JUMPDEST PUSH1 0x1F DUP3 GT ISZERO PUSH2 0x9F9 JUMPI PUSH2 0x9CA DUP2 PUSH2 0x89B JUMP JUMPDEST PUSH2 0x9D3 DUP5 PUSH2 0x8AD JUMP JUMPDEST DUP2 ADD PUSH1 0x20 DUP6 LT ISZERO PUSH2 0x9E2 JUMPI DUP2 SWAP1 POP JUMPDEST PUSH2 0x9F6 PUSH2 0x9EE DUP6 PUSH2 0x8AD JUMP JUMPDEST DUP4 ADD DUP3 PUSH2 0x996 JUMP JUMPDEST POP POP JUMPDEST POP POP POP JUMP JUMPDEST PUSH0 DUP3 DUP3 SHR SWAP1 POP SWAP3 SWAP2 POP POP JUMP JUMPDEST PUSH0 PUSH2 0xA19 PUSH0 NOT DUP5 PUSH1 0x8 MUL PUSH2 0x9FE JUMP JUMPDEST NOT DUP1 DUP4 AND SWAP2 POP POP SWAP3 SWAP2 POP POP JUMP JUMPDEST PUSH0 PUSH2 0xA31 DUP4 DUP4 PUSH2 0xA0A JUMP JUMPDEST SWAP2 POP DUP3 PUSH1 0x2 MUL DUP3 OR SWAP1 POP SWAP3 SWAP2 POP POP JUMP JUMPDEST PUSH2 0xA4A DUP3 PUSH2 0x834 JUMP JUMPDEST PUSH8 0xFFFFFFFFFFFFFFFF DUP2 GT ISZERO PUSH2 0xA63 JUMPI PUSH2 0xA62 PUSH2 0x657 JUMP JUMPDEST JUMPDEST PUSH2 0xA6D DUP3 SLOAD PUSH2 0x86B JUMP JUMPDEST PUSH2 0xA78 DUP3 DUP3 DUP6 PUSH2 0x9B8 JUMP JUMPDEST PUSH0 PUSH1 0x20 SWAP1 POP PUSH1 0x1F DUP4 GT PUSH1 0x1 DUP2 EQ PUSH2 0xAA9 JUMPI PUSH0 DUP5 ISZERO PUSH2 0xA97 JUMPI DUP3 DUP8 ADD MLOAD SWAP1 POP JUMPDEST PUSH2 0xAA1 DUP6 DUP3 PUSH2 0xA26 JUMP JUMPDEST DUP7 SSTORE POP PUSH2 0xB08 JUMP JUMPDEST PUSH1 0x1F NOT DUP5 AND PUSH2 0xAB7 DUP7 PUSH2 0x89B JUMP JUMPDEST PUSH0 JUMPDEST DUP3 DUP2 LT ISZERO PUSH2 0xADE JUMPI DUP5 DUP10 ADD MLOAD DUP3 SSTORE PUSH1 0x1 DUP3 ADD SWAP2 POP PUSH1 0x20 DUP6 ADD SWAP5 POP PUSH1 0x20 DUP2 ADD SWAP1 POP PUSH2 0xAB9 JUMP JUMPDEST DUP7 DUP4 LT ISZERO PUSH2 0xAFB JUMPI DUP5 DUP10 ADD MLOAD PUSH2 0xAF7 PUSH1 0x1F DUP10 AND DUP3 PUSH2 0xA0A JUMP JUMPDEST DUP4 SSTORE POP JUMPDEST PUSH1 0x1 PUSH1 0x2 DUP9 MUL ADD DUP9 SSTORE POP POP POP JUMPDEST POP POP POP POP POP POP JUMP JUMPDEST PUSH2 0xB19 DUP2 PUSH2 0x71D JUMP JUMPDEST DUP3 MSTORE POP POP JUMP JUMPDEST PUSH0 PUSH1 0x20 DUP3 ADD SWAP1 POP PUSH2 0xB32 PUSH0 DUP4 ADD DUP5 PUSH2 0xB10 JUMP JUMPDEST SWAP3 SWAP2 POP POP JUMP JUMPDEST PUSH32 0x4E487B7100000000000000000000000000000000000000000000000000000000 PUSH0 MSTORE PUSH1 0x32 PUSH1 0x4 MSTORE PUSH1 0x24 PUSH0 REVERT JUMPDEST PUSH32 0x4E487B7100000000000000000000000000000000000000000000000000000000 PUSH0 MSTORE PUSH1 0x11 PUSH1 0x4 MSTORE PUSH1 0x24 PUSH0 REVERT JUMPDEST PUSH0 PUSH2 0xB9C DUP3 PUSH2 0x919 JUMP JUMPDEST SWAP2 POP PUSH2 0xBA7 DUP4 PUSH2 0x919 JUMP JUMPDEST SWAP3 POP DUP3 DUP3 ADD SWAP1 POP DUP1 DUP3 GT ISZERO PUSH2 0xBBF JUMPI PUSH2 0xBBE PUSH2 0xB65 JUMP JUMPDEST JUMPDEST SWAP3 SWAP2 POP POP JUMP JUMPDEST PUSH2 0xBCE DUP2 PUSH2 0x919 JUMP JUMPDEST DUP3 MSTORE POP POP JUMP JUMPDEST PUSH0 PUSH1 0x60 DUP3 ADD SWAP1 POP PUSH2 0xBE7 PUSH0 DUP4 ADD DUP7 PUSH2 0xB10 JUMP JUMPDEST PUSH2 0xBF4 PUSH1 0x20 DUP4 ADD DUP6 PUSH2 0xBC5 JUMP JUMPDEST PUSH2 0xC01 PUSH1 0x40 DUP4 ADD DUP5 PUSH2 0xBC5 JUMP JUMPDEST SWAP5 SWAP4 POP POP POP POP JUMP JUMPDEST PUSH0 PUSH1 0x20 DUP3 ADD SWAP1 POP PUSH2 0xC1C PUSH0 DUP4 ADD DUP5 PUSH2 0xBC5 JUMP JUMPDEST SWAP3 SWAP2 POP POP JUMP JUMPDEST PUSH2 0x3AA0 DUP1 PUSH2 0xC2F PUSH0 CODECOPY PUSH0 RETURN INVALID PUSH1 0x80 PUSH1 0x40 MSTORE PUSH1 0x4 CALLDATASIZE LT PUSH2 0x228 JUMPI PUSH0 CALLDATALOAD PUSH1 0xE0 SHR DUP1 PUSH4 0x715018A6 GT PUSH2 0x122 JUMPI DUP1 PUSH4 0xA9059CBB GT PUSH2 0xAA JUMPI DUP1 PUSH4 0xC040E6B8 GT PUSH2 0x6E JUMPI DUP1 PUSH4 0xC040E6B8 EQ PUSH2 0x801 JUMPI DUP1 PUSH4 0xC552E04B EQ PUSH2 0x82B JUMPI DUP1 PUSH4 0xDD62ED3E EQ PUSH2 0x855 JUMPI DUP1 PUSH4 0xE6BD92B9 EQ PUSH2 0x891 JUMPI DUP1 PUSH4 0xF2FDE38B EQ PUSH2 0x8BB JUMPI PUSH2 0x268 JUMP JUMPDEST DUP1 PUSH4 0xA9059CBB EQ PUSH2 0x71D JUMPI DUP1 PUSH4 0xB0E68630 EQ PUSH2 0x759 JUMPI DUP1 PUSH4 0xB68ED11F EQ PUSH2 0x783 JUMPI DUP1 PUSH4 0xBA20CF4C EQ PUSH2 0x7AD JUMPI DUP1 PUSH4 0xBDA95633 EQ PUSH2 0x7D7 JUMPI PUSH2 0x268 JUMP JUMPDEST DUP1 PUSH4 0x8F7713FF GT PUSH2 0xF1 JUMPI DUP1 PUSH4 0x8F7713FF EQ PUSH2 0x64D JUMPI DUP1 PUSH4 0x902D55A5 EQ PUSH2 0x677 JUMPI DUP1 PUSH4 0x920168B3 EQ PUSH2 0x6A1 JUMPI DUP1 PUSH4 0x95CCEA67 EQ PUSH2 0x6CB JUMPI DUP1 PUSH4 0x95D89B41 EQ PUSH2 0x6F3 JUMPI PUSH2 0x268 JUMP JUMPDEST DUP1 PUSH4 0x715018A6 EQ PUSH2 0x5BB JUMPI DUP1 PUSH4 0x7547C7A3 EQ PUSH2 0x5D1 JUMPI DUP1 PUSH4 0x8DA5CB5B EQ PUSH2 0x5F9 JUMPI DUP1 PUSH4 0x8E15F473 EQ PUSH2 0x623 JUMPI PUSH2 0x268 JUMP JUMPDEST DUP1 PUSH4 0x2B1CBC38 GT PUSH2 0x1B0 JUMPI DUP1 PUSH4 0x40F02AB6 GT PUSH2 0x174 JUMPI DUP1 PUSH4 0x40F02AB6 EQ PUSH2 0x4FF JUMPI DUP1 PUSH4 0x54DD1DA4 EQ PUSH2 0x529 JUMPI DUP1 PUSH4 0x55DD574C EQ PUSH2 0x53F JUMPI DUP1 PUSH4 0x5FB3B944 EQ PUSH2 0x555 JUMPI DUP1 PUSH4 0x70A08231 EQ PUSH2 0x57F JUMPI PUSH2 0x268 JUMP JUMPDEST DUP1 PUSH4 0x2B1CBC38 EQ PUSH2 0x451 JUMPI DUP1 PUSH4 0x313CE567 EQ PUSH2 0x48D JUMPI DUP1 PUSH4 0x32C85AC0 EQ PUSH2 0x4B7 JUMPI DUP1 PUSH4 0x338DBF59 EQ PUSH2 0x4CD JUMPI DUP1 PUSH4 0x3610724E EQ PUSH2 0x4E3 JUMPI PUSH2 0x268 JUMP JUMPDEST DUP1 PUSH4 0x1514617E GT PUSH2 0x1F7 JUMPI DUP1 PUSH4 0x1514617E EQ PUSH2 0x36F JUMPI DUP1 PUSH4 0x18160DDD EQ PUSH2 0x399 JUMPI DUP1 PUSH4 0x192399D1 EQ PUSH2 0x3C3 JUMPI DUP1 PUSH4 0x23B872DD EQ PUSH2 0x3FF JUMPI DUP1 PUSH4 0x24600FC3 EQ PUSH2 0x43B JUMPI PUSH2 0x268 JUMP JUMPDEST DUP1 PUSH4 0x6FDDE03 EQ PUSH2 0x2A3 JUMPI DUP1 PUSH4 0x95EA7B3 EQ PUSH2 0x2CD JUMPI DUP1 PUSH4 0xFE83BB8 EQ PUSH2 0x309 JUMPI DUP1 PUSH4 0x10C7F0B9 EQ PUSH2 0x333 JUMPI PUSH2 0x268 JUMP JUMPDEST CALLDATASIZE PUSH2 0x268 JUMPI PUSH1 0x40 MLOAD PUSH32 0x8C379A000000000000000000000000000000000000000000000000000000000 DUP2 MSTORE PUSH1 0x4 ADD PUSH2 0x25F SWAP1 PUSH2 0x2770 JUMP JUMPDEST PUSH1 0x40 MLOAD DUP1 SWAP2 SUB SWAP1 REVERT JUMPDEST PUSH1 0x40 MLOAD PUSH32 0x8C379A000000000000000000000000000000000000000000000000000000000 DUP2 MSTORE PUSH1 0x4 ADD PUSH2 0x29A SWAP1 PUSH2 0x2770 JUMP JUMPDEST PUSH1 0x40 MLOAD DUP1 SWAP2 SUB SWAP1 REVERT JUMPDEST CALLVALUE DUP1 ISZERO PUSH2 0x2AE JUMPI PUSH0 DUP1 REVERT JUMPDEST POP PUSH2 0x2B7 PUSH2 0x8E3 JUMP JUMPDEST PUSH1 0x40 MLOAD PUSH2 0x2C4 SWAP2 SWAP1 PUSH2 0x27EE JUMP JUMPDEST PUSH1 0x40 MLOAD DUP1 SWAP2 SUB SWAP1 RETURN JUMPDEST CALLVALUE DUP1 ISZERO PUSH2 0x2D8 JUMPI PUSH0 DUP1 REVERT JUMPDEST POP PUSH2 0x2F3 PUSH1 0x4 DUP1 CALLDATASIZE SUB DUP2 ADD SWAP1 PUSH2 0x2EE SWAP2 SWAP1 PUSH2 0x289F JUMP JUMPDEST PUSH2 0x973 JUMP JUMPDEST PUSH1 0x40 MLOAD PUSH2 0x300 SWAP2 SWAP1 PUSH2 0x28F7 JUMP JUMPDEST PUSH1 0x40 MLOAD DUP1 SWAP2 SUB SWAP1 RETURN JUMPDEST CALLVALUE DUP1 ISZERO PUSH2 0x314 JUMPI PUSH0 DUP1 REVERT JUMPDEST POP PUSH2 0x31D PUSH2 0x995 JUMP JUMPDEST PUSH1 0x40 MLOAD PUSH2 0x32A SWAP2 SWAP1 PUSH2 0x291F JUMP JUMPDEST PUSH1 0x40 MLOAD DUP1 SWAP2 SUB SWAP1 RETURN JUMPDEST CALLVALUE DUP1 ISZERO PUSH2 0x33E JUMPI PUSH0 DUP1 REVERT JUMPDEST POP PUSH2 0x359 PUSH1 0x4 DUP1 CALLDATASIZE SUB DUP2 ADD SWAP1 PUSH2 0x354 SWAP2 SWAP1 PUSH2 0x2938 JUMP JUMPDEST PUSH2 0x99B JUMP JUMPDEST PUSH1 0x40 MLOAD PUSH2 0x366 SWAP2 SWAP1 PUSH2 0x29BE JUMP JUMPDEST PUSH1 0x40 MLOAD DUP1 SWAP2 SUB SWAP1 RETURN JUMPDEST CALLVALUE DUP1 ISZERO PUSH2 0x37A JUMPI PUSH0 DUP1 REVERT JUMPDEST POP PUSH2 0x383 PUSH2 0x9D6 JUMP JUMPDEST PUSH1 0x40 MLOAD PUSH2 0x390 SWAP2 SWAP1 PUSH2 0x291F JUMP JUMPDEST PUSH1 0x40 MLOAD DUP1 SWAP2 SUB SWAP1 RETURN JUMPDEST CALLVALUE DUP1 ISZERO PUSH2 0x3A4 JUMPI PUSH0 DUP1 REVERT JUMPDEST POP PUSH2 0x3AD PUSH2 0x9DC JUMP JUMPDEST PUSH1 0x40 MLOAD PUSH2 0x3BA SWAP2 SWAP1 PUSH2 0x291F JUMP JUMPDEST PUSH1 0x40 MLOAD DUP1 SWAP2 SUB SWAP1 RETURN JUMPDEST CALLVALUE DUP1 ISZERO PUSH2 0x3CE JUMPI PUSH0 DUP1 REVERT JUMPDEST POP PUSH2 0x3E9 PUSH1 0x4 DUP1 CALLDATASIZE SUB DUP2 ADD SWAP1 PUSH2 0x3E4 SWAP2 SWAP1 PUSH2 0x29D7 JUMP JUMPDEST PUSH2 0x9E5 JUMP JUMPDEST PUSH1 0x40 MLOAD PUSH2 0x3F6 SWAP2 SWAP1 PUSH2 0x291F JUMP JUMPDEST PUSH1 0x40 MLOAD DUP1 SWAP2 SUB SWAP1 RETURN JUMPDEST CALLVALUE DUP1 ISZERO PUSH2 0x40A JUMPI PUSH0 DUP1 REVERT JUMPDEST POP PUSH2 0x425 PUSH1 0x4 DUP1 CALLDATASIZE SUB DUP2 ADD SWAP1 PUSH2 0x420 SWAP2 SWAP1 PUSH2 0x2A02 JUMP JUMPDEST PUSH2 0x9FA JUMP JUMPDEST PUSH1 0x40 MLOAD PUSH2 0x432 SWAP2 SWAP1 PUSH2 0x28F7 JUMP JUMPDEST PUSH1 0x40 MLOAD DUP1 SWAP2 SUB SWAP1 RETURN JUMPDEST CALLVALUE DUP1 ISZERO PUSH2 0x446 JUMPI PUSH0 DUP1 REVERT JUMPDEST POP PUSH2 0x44F PUSH2 0xA28 JUMP JUMPDEST STOP JUMPDEST CALLVALUE DUP1 ISZERO PUSH2 0x45C JUMPI PUSH0 DUP1 REVERT JUMPDEST POP PUSH2 0x477 PUSH1 0x4 DUP1 CALLDATASIZE SUB DUP2 ADD SWAP1 PUSH2 0x472 SWAP2 SWAP1 PUSH2 0x29D7 JUMP JUMPDEST PUSH2 0xAE7 JUMP JUMPDEST PUSH1 0x40 MLOAD PUSH2 0x484 SWAP2 SWAP1 PUSH2 0x291F JUMP JUMPDEST PUSH1 0x40 MLOAD DUP1 SWAP2 SUB SWAP1 RETURN JUMPDEST CALLVALUE DUP1 ISZERO PUSH2 0x498 JUMPI PUSH0 DUP1 REVERT JUMPDEST POP PUSH2 0x4A1 PUSH2 0xAFC JUMP JUMPDEST PUSH1 0x40 MLOAD PUSH2 0x4AE SWAP2 SWAP1 PUSH2 0x2A6D JUMP JUMPDEST PUSH1 0x40 MLOAD DUP1 SWAP2 SUB SWAP1 RETURN JUMPDEST CALLVALUE DUP1 ISZERO PUSH2 0x4C2 JUMPI PUSH0 DUP1 REVERT JUMPDEST POP PUSH2 0x4CB PUSH2 0xB04 JUMP JUMPDEST STOP JUMPDEST CALLVALUE DUP1 ISZERO PUSH2 0x4D8 JUMPI PUSH0 DUP1 REVERT JUMPDEST POP PUSH2 0x4E1 PUSH2 0xBD0 JUMP JUMPDEST STOP JUMPDEST PUSH2 0x4FD PUSH1 0x4 DUP1 CALLDATASIZE SUB DUP2 ADD SWAP1 PUSH2 0x4F8 SWAP2 SWAP1 PUSH2 0x2938 JUMP JUMPDEST PUSH2 0xD45 JUMP JUMPDEST STOP JUMPDEST CALLVALUE DUP1 ISZERO PUSH2 0x50A JUMPI PUSH0 DUP1 REVERT JUMPDEST POP PUSH2 0x513 PUSH2 0x1257 JUMP JUMPDEST PUSH1 0x40 MLOAD PUSH2 0x520 SWAP2 SWAP1 PUSH2 0x291F JUMP JUMPDEST PUSH1 0x40 MLOAD DUP1 SWAP2 SUB SWAP1 RETURN JUMPDEST CALLVALUE DUP1 ISZERO PUSH2 0x534 JUMPI PUSH0 DUP1 REVERT JUMPDEST POP PUSH2 0x53D PUSH2 0x125D JUMP JUMPDEST STOP JUMPDEST CALLVALUE DUP1 ISZERO PUSH2 0x54A JUMPI PUSH0 DUP1 REVERT JUMPDEST POP PUSH2 0x553 PUSH2 0x1450 JUMP JUMPDEST STOP JUMPDEST CALLVALUE DUP1 ISZERO PUSH2 0x560 JUMPI PUSH0 DUP1 REVERT JUMPDEST POP PUSH2 0x569 PUSH2 0x1584 JUMP JUMPDEST PUSH1 0x40 MLOAD PUSH2 0x576 SWAP2 SWAP1 PUSH2 0x291F JUMP JUMPDEST PUSH1 0x40 MLOAD DUP1 SWAP2 SUB SWAP1 RETURN JUMPDEST CALLVALUE DUP1 ISZERO PUSH2 0x58A JUMPI PUSH0 DUP1 REVERT JUMPDEST POP PUSH2 0x5A5 PUSH1 0x4 DUP1 CALLDATASIZE SUB DUP2 ADD SWAP1 PUSH2 0x5A0 SWAP2 SWAP1 PUSH2 0x29D7 JUMP JUMPDEST PUSH2 0x158A JUMP JUMPDEST PUSH1 0x40 MLOAD PUSH2 0x5B2 SWAP2 SWAP1 PUSH2 0x291F JUMP JUMPDEST PUSH1 0x40 MLOAD DUP1 SWAP2 SUB SWAP1 RETURN JUMPDEST CALLVALUE DUP1 ISZERO PUSH2 0x5C6 JUMPI PUSH0 DUP1 REVERT JUMPDEST POP PUSH2 0x5CF PUSH2 0x15CF JUMP JUMPDEST STOP JUMPDEST CALLVALUE DUP1 ISZERO PUSH2 0x5DC JUMPI PUSH0 DUP1 REVERT JUMPDEST POP PUSH2 0x5F7 PUSH1 0x4 DUP1 CALLDATASIZE SUB DUP2 ADD SWAP1 PUSH2 0x5F2 SWAP2 SWAP1 PUSH2 0x2938 JUMP JUMPDEST PUSH2 0x15E2 JUMP JUMPDEST STOP JUMPDEST CALLVALUE DUP1 ISZERO PUSH2 0x604 JUMPI PUSH0 DUP1 REVERT JUMPDEST POP PUSH2 0x60D PUSH2 0x1809 JUMP JUMPDEST PUSH1 0x40 MLOAD PUSH2 0x61A SWAP2 SWAP1 PUSH2 0x2A95 JUMP JUMPDEST PUSH1 0x40 MLOAD DUP1 SWAP2 SUB SWAP1 RETURN JUMPDEST CALLVALUE DUP1 ISZERO PUSH2 0x62E JUMPI PUSH0 DUP1 REVERT JUMPDEST POP PUSH2 0x637 PUSH2 0x1831 JUMP JUMPDEST PUSH1 0x40 MLOAD PUSH2 0x644 SWAP2 SWAP1 PUSH2 0x291F JUMP JUMPDEST PUSH1 0x40 MLOAD DUP1 SWAP2 SUB SWAP1 RETURN JUMPDEST CALLVALUE DUP1 ISZERO PUSH2 0x658 JUMPI PUSH0 DUP1 REVERT JUMPDEST POP PUSH2 0x661 PUSH2 0x198F JUMP JUMPDEST PUSH1 0x40 MLOAD PUSH2 0x66E SWAP2 SWAP1 PUSH2 0x291F JUMP JUMPDEST PUSH1 0x40 MLOAD DUP1 SWAP2 SUB SWAP1 RETURN JUMPDEST CALLVALUE DUP1 ISZERO PUSH2 0x682 JUMPI PUSH0 DUP1 REVERT JUMPDEST POP PUSH2 0x68B PUSH2 0x1995 JUMP JUMPDEST PUSH1 0x40 MLOAD PUSH2 0x698 SWAP2 SWAP1 PUSH2 0x291F JUMP JUMPDEST PUSH1 0x40 MLOAD DUP1 SWAP2 SUB SWAP1 RETURN JUMPDEST CALLVALUE DUP1 ISZERO PUSH2 0x6AC JUMPI PUSH0 DUP1 REVERT JUMPDEST POP PUSH2 0x6B5 PUSH2 0x19A4 JUMP JUMPDEST PUSH1 0x40 MLOAD PUSH2 0x6C2 SWAP2 SWAP1 PUSH2 0x291F JUMP JUMPDEST PUSH1 0x40 MLOAD DUP1 SWAP2 SUB SWAP1 RETURN JUMPDEST CALLVALUE DUP1 ISZERO PUSH2 0x6D6 JUMPI PUSH0 DUP1 REVERT JUMPDEST POP PUSH2 0x6F1 PUSH1 0x4 DUP1 CALLDATASIZE SUB DUP2 ADD SWAP1 PUSH2 0x6EC SWAP2 SWAP1 PUSH2 0x289F JUMP JUMPDEST PUSH2 0x19AA JUMP JUMPDEST STOP JUMPDEST CALLVALUE DUP1 ISZERO PUSH2 0x6FE JUMPI PUSH0 DUP1 REVERT JUMPDEST POP PUSH2 0x707 PUSH2 0x1A9E JUMP JUMPDEST PUSH1 0x40 MLOAD PUSH2 0x714 SWAP2 SWAP1 PUSH2 0x27EE JUMP JUMPDEST PUSH1 0x40 MLOAD DUP1 SWAP2 SUB SWAP1 RETURN JUMPDEST CALLVALUE DUP1 ISZERO PUSH2 0x728 JUMPI PUSH0 DUP1 REVERT JUMPDEST POP PUSH2 0x743 PUSH1 0x4 DUP1 CALLDATASIZE SUB DUP2 ADD SWAP1 PUSH2 0x73E SWAP2 SWAP1 PUSH2 0x289F JUMP JUMPDEST PUSH2 0x1B2E JUMP JUMPDEST PUSH1 0x40 MLOAD PUSH2 0x750 SWAP2 SWAP1 PUSH2 0x28F7 JUMP JUMPDEST PUSH1 0x40 MLOAD DUP1 SWAP2 SUB SWAP1 RETURN JUMPDEST CALLVALUE DUP1 ISZERO PUSH2 0x764 JUMPI PUSH0 DUP1 REVERT JUMPDEST POP PUSH2 0x76D PUSH2 0x1B50 JUMP JUMPDEST PUSH1 0x40 MLOAD PUSH2 0x77A SWAP2 SWAP1 PUSH2 0x291F JUMP JUMPDEST PUSH1 0x40 MLOAD DUP1 SWAP2 SUB SWAP1 RETURN JUMPDEST CALLVALUE DUP1 ISZERO PUSH2 0x78E JUMPI PUSH0 DUP1 REVERT JUMPDEST POP PUSH2 0x797 PUSH2 0x1B56 JUMP JUMPDEST PUSH1 0x40 MLOAD PUSH2 0x7A4 SWAP2 SWAP1 PUSH2 0x291F JUMP JUMPDEST PUSH1 0x40 MLOAD DUP1 SWAP2 SUB SWAP1 RETURN JUMPDEST CALLVALUE DUP1 ISZERO PUSH2 0x7B8 JUMPI PUSH0 DUP1 REVERT JUMPDEST POP PUSH2 0x7C1 PUSH2 0x1B5C JUMP JUMPDEST PUSH1 0x40 MLOAD PUSH2 0x7CE SWAP2 SWAP1 PUSH2 0x291F JUMP JUMPDEST PUSH1 0x40 MLOAD DUP1 SWAP2 SUB SWAP1 RETURN JUMPDEST CALLVALUE DUP1 ISZERO PUSH2 0x7E2 JUMPI PUSH0 DUP1 REVERT JUMPDEST POP PUSH2 0x7EB PUSH2 0x1B62 JUMP JUMPDEST PUSH1 0x40 MLOAD PUSH2 0x7F8 SWAP2 SWAP1 PUSH2 0x291F JUMP JUMPDEST PUSH1 0x40 MLOAD DUP1 SWAP2 SUB SWAP1 RETURN JUMPDEST CALLVALUE DUP1 ISZERO PUSH2 0x80C JUMPI PUSH0 DUP1 REVERT JUMPDEST POP PUSH2 0x815 PUSH2 0x1B68 JUMP JUMPDEST PUSH1 0x40 MLOAD PUSH2 0x822 SWAP2 SWAP1 PUSH2 0x2B21 JUMP JUMPDEST PUSH1 0x40 MLOAD DUP1 SWAP2 SUB SWAP1 RETURN JUMPDEST CALLVALUE DUP1 ISZERO PUSH2 0x836 JUMPI PUSH0 DUP1 REVERT JUMPDEST POP PUSH2 0x83F PUSH2 0x1B7A JUMP JUMPDEST PUSH1 0x40 MLOAD PUSH2 0x84C SWAP2 SWAP1 PUSH2 0x291F JUMP JUMPDEST PUSH1 0x40 MLOAD DUP1 SWAP2 SUB SWAP1 RETURN JUMPDEST CALLVALUE DUP1 ISZERO PUSH2 0x860 JUMPI PUSH0 DUP1 REVERT JUMPDEST POP PUSH2 0x87B PUSH1 0x4 DUP1 CALLDATASIZE SUB DUP2 ADD SWAP1 PUSH2 0x876 SWAP2 SWAP1 PUSH2 0x2B3A JUMP JUMPDEST PUSH2 0x1B80 JUMP JUMPDEST PUSH1 0x40 MLOAD PUSH2 0x888 SWAP2 SWAP1 PUSH2 0x291F JUMP JUMPDEST PUSH1 0x40 MLOAD DUP1 SWAP2 SUB SWAP1 RETURN JUMPDEST CALLVALUE DUP1 ISZERO PUSH2 0x89C JUMPI PUSH0 DUP1 REVERT JUMPDEST POP PUSH2 0x8A5 PUSH2 0x1C02 JUMP JUMPDEST PUSH1 0x40 MLOAD PUSH2 0x8B2 SWAP2 SWAP1 PUSH2 0x291F JUMP JUMPDEST PUSH1 0x40 MLOAD DUP1 SWAP2 SUB SWAP1 RETURN JUMPDEST CALLVALUE DUP1 ISZERO PUSH2 0x8C6 JUMPI PUSH0 DUP1 REVERT JUMPDEST POP PUSH2 0x8E1 PUSH1 0x4 DUP1 CALLDATASIZE SUB DUP2 ADD SWAP1 PUSH2 0x8DC SWAP2 SWAP1 PUSH2 0x29D7 JUMP JUMPDEST PUSH2 0x1C08 JUMP JUMPDEST STOP JUMPDEST PUSH1 0x60 PUSH1 0x3 DUP1 SLOAD PUSH2 0x8F2 SWAP1 PUSH2 0x2BA5 JUMP JUMPDEST DUP1 PUSH1 0x1F ADD PUSH1 0x20 DUP1 SWAP2 DIV MUL PUSH1 0x20 ADD PUSH1 0x40 MLOAD SWAP1 DUP2 ADD PUSH1 0x40 MSTORE DUP1 SWAP3 SWAP2 SWAP1 DUP2 DUP2 MSTORE PUSH1 0x20 ADD DUP3 DUP1 SLOAD PUSH2 0x91E SWAP1 PUSH2 0x2BA5 JUMP JUMPDEST DUP1 ISZERO PUSH2 0x969 JUMPI DUP1 PUSH1 0x1F LT PUSH2 0x940 JUMPI PUSH2 0x100 DUP1 DUP4 SLOAD DIV MUL DUP4 MSTORE SWAP2 PUSH1 0x20 ADD SWAP2 PUSH2 0x969 JUMP JUMPDEST DUP3 ADD SWAP2 SWAP1 PUSH0 MSTORE PUSH1 0x20 PUSH0 KECCAK256 SWAP1 JUMPDEST DUP2 SLOAD DUP2 MSTORE SWAP1 PUSH1 0x1 ADD SWAP1 PUSH1 0x20 ADD DUP1 DUP4 GT PUSH2 0x94C JUMPI DUP3 SWAP1 SUB PUSH1 0x1F AND DUP3 ADD SWAP2 JUMPDEST POP POP POP POP POP SWAP1 POP SWAP1 JUMP JUMPDEST PUSH0 DUP1 PUSH2 0x97D PUSH2 0x1C8C JUMP JUMPDEST SWAP1 POP PUSH2 0x98A DUP2 DUP6 DUP6 PUSH2 0x1C93 JUMP JUMPDEST PUSH1 0x1 SWAP2 POP POP SWAP3 SWAP2 POP POP JUMP JUMPDEST PUSH1 0xD SLOAD DUP2 JUMP JUMPDEST PUSH1 0x16 DUP2 DUP2 SLOAD DUP2 LT PUSH2 0x9AA JUMPI PUSH0 DUP1 REVERT JUMPDEST SWAP1 PUSH0 MSTORE PUSH1 0x20 PUSH0 KECCAK256 ADD PUSH0 SWAP2 POP SLOAD SWAP1 PUSH2 0x100 EXP SWAP1 DIV PUSH20 0xFFFFFFFFFFFFFFFFFFFFFFFFFFFFFFFFFFFFFFFF AND DUP2 JUMP JUMPDEST PUSH1 0x14 SLOAD DUP2 JUMP JUMPDEST PUSH0 PUSH1 0x2 SLOAD SWAP1 POP SWAP1 JUMP JUMPDEST PUSH1 0x12 PUSH1 0x20 MSTORE DUP1 PUSH0 MSTORE PUSH1 0x40 PUSH0 KECCAK256 PUSH0 SWAP2 POP SWAP1 POP SLOAD DUP2 JUMP JUMPDEST PUSH0 DUP1 PUSH2 0xA04 PUSH2 0x1C8C JUMP JUMPDEST SWAP1 POP PUSH2 0xA11 DUP6 DUP3 DUP6 PUSH2 0x1CA5 JUMP JUMPDEST PUSH2 0xA1C DUP6 DUP6 DUP6 PUSH2 0x1D37 JUMP JUMPDEST PUSH1 0x1 SWAP2 POP POP SWAP4 SWAP3 POP POP POP JUMP JUMPDEST PUSH2 0xA30 PUSH2 0x1E27 JUMP JUMPDEST PUSH2 0xA38 PUSH2 0x1EAE JUMP JUMPDEST PUSH0 SELFBALANCE SWAP1 POP PUSH2 0xA44 PUSH2 0x1809 JUMP JUMPDEST PUSH20 0xFFFFFFFFFFFFFFFFFFFFFFFFFFFFFFFFFFFFFFFF AND PUSH2 0x8FC DUP3 SWAP1 DUP2 ISZERO MUL SWAP1 PUSH1 0x40 MLOAD PUSH0 PUSH1 0x40 MLOAD DUP1 DUP4 SUB DUP2 DUP6 DUP9 DUP9 CALL SWAP4 POP POP POP POP ISZERO DUP1 ISZERO PUSH2 0xA86 JUMPI RETURNDATASIZE PUSH0 DUP1 RETURNDATACOPY RETURNDATASIZE PUSH0 REVERT JUMPDEST POP PUSH2 0xA8F PUSH2 0x1809 JUMP JUMPDEST PUSH20 0xFFFFFFFFFFFFFFFFFFFFFFFFFFFFFFFFFFFFFFFF AND PUSH32 0xEAFF4B37086828766AD3268786972C0CD24259D4C87A80F9D3963A3C3D999B0D DUP3 PUSH1 0x40 MLOAD PUSH2 0xAD4 SWAP2 SWAP1 PUSH2 0x291F JUMP JUMPDEST PUSH1 0x40 MLOAD DUP1 SWAP2 SUB SWAP1 LOG2 POP PUSH2 0xAE5 PUSH2 0x1EFD JUMP JUMPDEST JUMP JUMPDEST PUSH1 0x13 PUSH1 0x20 MSTORE DUP1 PUSH0 MSTORE PUSH1 0x40 PUSH0 KECCAK256 PUSH0 SWAP2 POP SWAP1 POP SLOAD DUP2 JUMP JUMPDEST PUSH0 PUSH1 0x12 SWAP1 POP SWAP1 JUMP JUMPDEST PUSH2 0xB0C PUSH2 0x1E27 JUMP JUMPDEST PUSH1 0x8 SLOAD PUSH1 0xB SLOAD EQ DUP1 PUSH2 0xB21 JUMPI POP PUSH1 0xD SLOAD PUSH1 0x10 SLOAD EQ JUMPDEST PUSH2 0xB60 JUMPI PUSH1 0x40 MLOAD PUSH32 0x8C379A000000000000000000000000000000000000000000000000000000000 DUP2 MSTORE PUSH1 0x4 ADD PUSH2 0xB57 SWAP1 PUSH2 0x2C1F JUMP JUMPDEST PUSH1 0x40 MLOAD DUP1 SWAP2 SUB SWAP1 REVERT JUMPDEST PUSH0 PUSH1 0x11 PUSH0 PUSH2 0x100 EXP DUP2 SLOAD DUP2 PUSH1 0xFF MUL NOT AND SWAP1 DUP4 PUSH1 0x2 DUP2 GT ISZERO PUSH2 0xB84 JUMPI PUSH2 0xB83 PUSH2 0x2AAE JUMP JUMPDEST JUMPDEST MUL OR SWAP1 SSTORE POP PUSH32 0x273467821F33675618854603EF917EBCEC8A1A39F95C43D5564ED1AEFAB870B3 PUSH1 0x11 PUSH0 SWAP1 SLOAD SWAP1 PUSH2 0x100 EXP SWAP1 DIV PUSH1 0xFF AND PUSH1 0x40 MLOAD PUSH2 0xBC6 SWAP2 SWAP1 PUSH2 0x2B21 JUMP JUMPDEST PUSH1 0x40 MLOAD DUP1 SWAP2 SUB SWAP1 LOG1 JUMP JUMPDEST PUSH2 0xBD8 PUSH2 0x1E27 JUMP JUMPDEST PUSH0 PUSH1 0x2 DUP2 GT ISZERO PUSH2 0xBEB JUMPI PUSH2 0xBEA PUSH2 0x2AAE JUMP JUMPDEST JUMPDEST PUSH1 0x11 PUSH0 SWAP1 SLOAD SWAP1 PUSH2 0x100 EXP SWAP1 DIV PUSH1 0xFF AND PUSH1 0x2 DUP2 GT ISZERO PUSH2 0xC0C JUMPI PUSH2 0xC0B PUSH2 0x2AAE JUMP JUMPDEST JUMPDEST EQ PUSH2 0xC4C JUMPI PUSH1 0x40 MLOAD PUSH32 0x8C379A000000000000000000000000000000000000000000000000000000000 DUP2 MSTORE PUSH1 0x4 ADD PUSH2 0xC43 SWAP1 PUSH2 0x2CAD JUMP JUMPDEST PUSH1 0x40 MLOAD DUP1 SWAP2 SUB SWAP1 REVERT JUMPDEST PUSH0 PUSH1 0xB SLOAD EQ PUSH2 0xC90 JUMPI PUSH1 0x40 MLOAD PUSH32 0x8C379A000000000000000000000000000000000000000000000000000000000 DUP2 MSTORE PUSH1 0x4 ADD PUSH2 0xC87 SWAP1 PUSH2 0x2D3B JUMP JUMPDEST PUSH1 0x40 MLOAD DUP1 SWAP2 SUB SWAP1 REVERT JUMPDEST PUSH0 PUSH1 0x10 SLOAD EQ PUSH2 0xCD4 JUMPI PUSH1 0x40 MLOAD PUSH32 0x8C379A000000000000000000000000000000000000000000000000000000000 DUP2 MSTORE PUSH1 0x4 ADD PUSH2 0xCCB SWAP1 PUSH2 0x2DC9 JUMP JUMPDEST PUSH1 0x40 MLOAD DUP1 SWAP2 SUB SWAP1 REVERT JUMPDEST PUSH1 0x1 PUSH1 0x11 PUSH0 PUSH2 0x100 EXP DUP2 SLOAD DUP2 PUSH1 0xFF MUL NOT AND SWAP1 DUP4 PUSH1 0x2 DUP2 GT ISZERO PUSH2 0xCF9 JUMPI PUSH2 0xCF8 PUSH2 0x2AAE JUMP JUMPDEST JUMPDEST MUL OR SWAP1 SSTORE POP PUSH32 0x273467821F33675618854603EF917EBCEC8A1A39F95C43D5564ED1AEFAB870B3 PUSH1 0x11 PUSH0 SWAP1 SLOAD SWAP1 PUSH2 0x100 EXP SWAP1 DIV PUSH1 0xFF AND PUSH1 0x40 MLOAD PUSH2 0xD3B SWAP2 SWAP1 PUSH2 0x2B21 JUMP JUMPDEST PUSH1 0x40 MLOAD DUP1 SWAP2 SUB SWAP1 LOG1 JUMP JUMPDEST PUSH2 0xD4D PUSH2 0x1EAE JUMP JUMPDEST PUSH0 PUSH1 0x2 DUP2 GT ISZERO PUSH2 0xD60 JUMPI PUSH2 0xD5F PUSH2 0x2AAE JUMP JUMPDEST JUMPDEST PUSH1 0x11 PUSH0 SWAP1 SLOAD SWAP1 PUSH2 0x100 EXP SWAP1 DIV PUSH1 0xFF AND PUSH1 0x2 DUP2 GT ISZERO PUSH2 0xD81 JUMPI PUSH2 0xD80 PUSH2 0x2AAE JUMP JUMPDEST JUMPDEST SUB PUSH2 0xDC1 JUMPI PUSH1 0x40 MLOAD PUSH32 0x8C379A000000000000000000000000000000000000000000000000000000000 DUP2 MSTORE PUSH1 0x4 ADD PUSH2 0xDB8 SWAP1 PUSH2 0x2E31 JUMP JUMPDEST PUSH1 0x40 MLOAD DUP1 SWAP2 SUB SWAP1 REVERT JUMPDEST PUSH0 PUSH2 0xDCA PUSH2 0x1831 JUMP JUMPDEST SWAP1 POP PUSH0 DUP2 GT PUSH2 0xE0E JUMPI PUSH1 0x40 MLOAD PUSH32 0x8C379A000000000000000000000000000000000000000000000000000000000 DUP2 MSTORE PUSH1 0x4 ADD PUSH2 0xE05 SWAP1 PUSH2 0x2E99 JUMP JUMPDEST PUSH1 0x40 MLOAD DUP1 SWAP2 SUB SWAP1 REVERT JUMPDEST PUSH0 PUSH1 0x1 PUSH1 0x2 DUP2 GT ISZERO PUSH2 0xE23 JUMPI PUSH2 0xE22 PUSH2 0x2AAE JUMP JUMPDEST JUMPDEST PUSH1 0x11 PUSH0 SWAP1 SLOAD SWAP1 PUSH2 0x100 EXP SWAP1 DIV PUSH1 0xFF AND PUSH1 0x2 DUP2 GT ISZERO PUSH2 0xE44 JUMPI PUSH2 0xE43 PUSH2 0x2AAE JUMP JUMPDEST JUMPDEST SUB PUSH2 0x1076 JUMPI PUSH1 0x8 SLOAD PUSH1 0xB SLOAD LT PUSH2 0xE8F JUMPI PUSH1 0x40 MLOAD PUSH32 0x8C379A000000000000000000000000000000000000000000000000000000000 DUP2 MSTORE PUSH1 0x4 ADD PUSH2 0xE86 SWAP1 PUSH2 0x2F01 JUMP JUMPDEST PUSH1 0x40 MLOAD DUP1 SWAP2 SUB SWAP1 REVERT JUMPDEST PUSH2 0xEC4 PUSH2 0xEBF PUSH8 0xDE0B6B3A7640000 PUSH2 0xEB1 DUP6 DUP8 PUSH2 0x1F07 SWAP1 SWAP2 SWAP1 PUSH4 0xFFFFFFFF AND JUMP JUMPDEST PUSH2 0x1F1C SWAP1 SWAP2 SWAP1 PUSH4 0xFFFFFFFF AND JUMP JUMPDEST PUSH2 0x1F31 JUMP JUMPDEST SWAP1 POP PUSH2 0xEDB DUP2 PUSH1 0xB SLOAD PUSH2 0x210F SWAP1 SWAP2 SWAP1 PUSH4 0xFFFFFFFF AND JUMP JUMPDEST PUSH1 0xB DUP2 SWAP1 SSTORE POP PUSH1 0x8 SLOAD PUSH1 0xB SLOAD GT ISZERO PUSH2 0xF28 JUMPI PUSH1 0x40 MLOAD PUSH32 0x8C379A000000000000000000000000000000000000000000000000000000000 DUP2 MSTORE PUSH1 0x4 ADD PUSH2 0xF1F SWAP1 PUSH2 0x2F8F JUMP JUMPDEST PUSH1 0x40 MLOAD DUP1 SWAP2 SUB SWAP1 REVERT JUMPDEST PUSH2 0xF78 DUP2 PUSH1 0x12 PUSH0 CALLER PUSH20 0xFFFFFFFFFFFFFFFFFFFFFFFFFFFFFFFFFFFFFFFF AND PUSH20 0xFFFFFFFFFFFFFFFFFFFFFFFFFFFFFFFFFFFFFFFF AND DUP2 MSTORE PUSH1 0x20 ADD SWAP1 DUP2 MSTORE PUSH1 0x20 ADD PUSH0 KECCAK256 SLOAD PUSH2 0x210F SWAP1 SWAP2 SWAP1 PUSH4 0xFFFFFFFF AND JUMP JUMPDEST PUSH1 0x12 PUSH0 CALLER PUSH20 0xFFFFFFFFFFFFFFFFFFFFFFFFFFFFFFFFFFFFFFFF AND PUSH20 0xFFFFFFFFFFFFFFFFFFFFFFFFFFFFFFFFFFFFFFFF AND DUP2 MSTORE PUSH1 0x20 ADD SWAP1 DUP2 MSTORE PUSH1 0x20 ADD PUSH0 KECCAK256 DUP2 SWAP1 SSTORE POP PUSH2 0xFE2 PUSH1 0x14 SLOAD PUSH2 0xFD4 PUSH1 0x15 SLOAD TIMESTAMP PUSH2 0x210F SWAP1 SWAP2 SWAP1 PUSH4 0xFFFFFFFF AND JUMP JUMPDEST PUSH2 0x210F SWAP1 SWAP2 SWAP1 PUSH4 0xFFFFFFFF AND JUMP JUMPDEST PUSH1 0x13 PUSH0 CALLER PUSH20 0xFFFFFFFFFFFFFFFFFFFFFFFFFFFFFFFFFFFFFFFF AND PUSH20 0xFFFFFFFFFFFFFFFFFFFFFFFFFFFFFFFFFFFFFFFF AND DUP2 MSTORE PUSH1 0x20 ADD SWAP1 DUP2 MSTORE PUSH1 0x20 ADD PUSH0 KECCAK256 DUP2 SWAP1 SSTORE POP CALLER PUSH20 0xFFFFFFFFFFFFFFFFFFFFFFFFFFFFFFFFFFFFFFFF AND PUSH32 0x8FA81BB0702332EA2A0AEE44BB9E4D359CF4A2C5A820DD59D9129369BDBCA73F DUP3 PUSH1 0x40 MLOAD PUSH2 0x1069 SWAP2 SWAP1 PUSH2 0x291F JUMP JUMPDEST PUSH1 0x40 MLOAD DUP1 SWAP2 SUB SWAP1 LOG2 PUSH2 0x124A JUMP JUMPDEST PUSH1 0x2 DUP1 DUP2 GT ISZERO PUSH2 0x1089 JUMPI PUSH2 0x1088 PUSH2 0x2AAE JUMP JUMPDEST JUMPDEST PUSH1 0x11 PUSH0 SWAP1 SLOAD SWAP1 PUSH2 0x100 EXP SWAP1 DIV PUSH1 0xFF AND PUSH1 0x2 DUP2 GT ISZERO PUSH2 0x10AA JUMPI PUSH2 0x10A9 PUSH2 0x2AAE JUMP JUMPDEST JUMPDEST SUB PUSH2 0x1249 JUMPI PUSH1 0xD SLOAD PUSH1 0x10 SLOAD LT PUSH2 0x10F5 JUMPI PUSH1 0x40 MLOAD PUSH32 0x8C379A000000000000000000000000000000000000000000000000000000000 DUP2 MSTORE PUSH1 0x4 ADD PUSH2 0x10EC SWAP1 PUSH2 0x2FF7 JUMP JUMPDEST PUSH1 0x40 MLOAD DUP1 SWAP2 SUB SWAP1 REVERT JUMPDEST PUSH9 0x56BC75E2D63100000 DUP4 LT ISZERO DUP1 ISZERO PUSH2 0x1117 JUMPI POP PUSH9 0xA2A15D09519BE00000 DUP4 GT ISZERO JUMPDEST PUSH2 0x1156 JUMPI PUSH1 0x40 MLOAD PUSH32 0x8C379A000000000000000000000000000000000000000000000000000000000 DUP2 MSTORE PUSH1 0x4 ADD PUSH2 0x114D SWAP1 PUSH2 0x305F JUMP JUMPDEST PUSH1 0x40 MLOAD DUP1 SWAP2 SUB SWAP1 REVERT JUMPDEST PUSH2 0x118B PUSH2 0x1186 PUSH8 0xDE0B6B3A7640000 PUSH2 0x1178 DUP6 DUP8 PUSH2 0x1F07 SWAP1 SWAP2 SWAP1 PUSH4 0xFFFFFFFF AND JUMP JUMPDEST PUSH2 0x1F1C SWAP1 SWAP2 SWAP1 PUSH4 0xFFFFFFFF AND JUMP JUMPDEST PUSH2 0x2124 JUMP JUMPDEST SWAP1 POP PUSH2 0x11A2 DUP2 PUSH1 0x10 SLOAD PUSH2 0x210F SWAP1 SWAP2 SWAP1 PUSH4 0xFFFFFFFF AND JUMP JUMPDEST PUSH1 0x10 DUP2 SWAP1 SSTORE POP PUSH1 0xD SLOAD PUSH1 0x10 SLOAD GT ISZERO PUSH2 0x11EF JUMPI PUSH1 0x40 MLOAD PUSH32 0x8C379A000000000000000000000000000000000000000000000000000000000 DUP2 MSTORE PUSH1 0x4 ADD PUSH2 0x11E6 SWAP1 PUSH2 0x30C7 JUMP JUMPDEST PUSH1 0x40 MLOAD DUP1 SWAP2 SUB SWAP1 REVERT JUMPDEST PUSH2 0x11FA ADDRESS CALLER DUP4 PUSH2 0x1D37 JUMP JUMPDEST CALLER PUSH20 0xFFFFFFFFFFFFFFFFFFFFFFFFFFFFFFFFFFFFFFFF AND PUSH32 0x550498DC565CC74203B9D14CBA907C9F60CEEFE26E82B37DF98F6CB98529CF19 DUP3 PUSH1 0x40 MLOAD PUSH2 0x1240 SWAP2 SWAP1 PUSH2 0x291F JUMP JUMPDEST PUSH1 0x40 MLOAD DUP1 SWAP2 SUB SWAP1 LOG2 JUMPDEST JUMPDEST POP POP PUSH2 0x1254 PUSH2 0x1EFD JUMP JUMPDEST POP JUMP JUMPDEST PUSH1 0x15 SLOAD DUP2 JUMP JUMPDEST PUSH2 0x1265 PUSH2 0x1EAE JUMP JUMPDEST PUSH1 0x13 PUSH0 CALLER PUSH20 0xFFFFFFFFFFFFFFFFFFFFFFFFFFFFFFFFFFFFFFFF AND PUSH20 0xFFFFFFFFFFFFFFFFFFFFFFFFFFFFFFFFFFFFFFFF AND DUP2 MSTORE PUSH1 0x20 ADD SWAP1 DUP2 MSTORE PUSH1 0x20 ADD PUSH0 KECCAK256 SLOAD TIMESTAMP LT ISZERO PUSH2 0x12E5 JUMPI PUSH1 0x40 MLOAD PUSH32 0x8C379A000000000000000000000000000000000000000000000000000000000 DUP2 MSTORE PUSH1 0x4 ADD PUSH2 0x12DC SWAP1 PUSH2 0x3155 JUMP JUMPDEST PUSH1 0x40 MLOAD DUP1 SWAP2 SUB SWAP1 REVERT JUMPDEST PUSH0 PUSH1 0x12 PUSH0 CALLER PUSH20 0xFFFFFFFFFFFFFFFFFFFFFFFFFFFFFFFFFFFFFFFF AND PUSH20 0xFFFFFFFFFFFFFFFFFFFFFFFFFFFFFFFFFFFFFFFF AND DUP2 MSTORE PUSH1 0x20 ADD SWAP1 DUP2 MSTORE PUSH1 0x20 ADD PUSH0 KECCAK256 SLOAD SWAP1 POP PUSH0 DUP2 GT PUSH2 0x1368 JUMPI PUSH1 0x40 MLOAD PUSH32 0x8C379A000000000000000000000000000000000000000000000000000000000 DUP2 MSTORE PUSH1 0x4 ADD PUSH2 0x135F SWAP1 PUSH2 0x31BD JUMP JUMPDEST PUSH1 0x40 MLOAD DUP1 SWAP2 SUB SWAP1 REVERT JUMPDEST PUSH0 PUSH1 0x12 PUSH0 CALLER PUSH20 0xFFFFFFFFFFFFFFFFFFFFFFFFFFFFFFFFFFFFFFFF AND PUSH20 0xFFFFFFFFFFFFFFFFFFFFFFFFFFFFFFFFFFFFFFFF AND DUP2 MSTORE PUSH1 0x20 ADD SWAP1 DUP2 MSTORE PUSH1 0x20 ADD PUSH0 KECCAK256 DUP2 SWAP1 SSTORE POP PUSH0 PUSH1 0x13 PUSH0 CALLER PUSH20 0xFFFFFFFFFFFFFFFFFFFFFFFFFFFFFFFFFFFFFFFF AND PUSH20 0xFFFFFFFFFFFFFFFFFFFFFFFFFFFFFFFFFFFFFFFF AND DUP2 MSTORE PUSH1 0x20 ADD SWAP1 DUP2 MSTORE PUSH1 0x20 ADD PUSH0 KECCAK256 DUP2 SWAP1 SSTORE POP PUSH2 0x13F7 ADDRESS CALLER DUP4 PUSH2 0x1D37 JUMP JUMPDEST CALLER PUSH20 0xFFFFFFFFFFFFFFFFFFFFFFFFFFFFFFFFFFFFFFFF AND PUSH32 0x6BC5063C7239B75C8BF325A2A2238F726FADA322163996BB6C93D5594FB119F0 DUP3 PUSH1 0x40 MLOAD PUSH2 0x143D SWAP2 SWAP1 PUSH2 0x291F JUMP JUMPDEST PUSH1 0x40 MLOAD DUP1 SWAP2 SUB SWAP1 LOG2 POP PUSH2 0x144E PUSH2 0x1EFD JUMP JUMPDEST JUMP JUMPDEST PUSH2 0x1458 PUSH2 0x1E27 JUMP JUMPDEST PUSH1 0x1 PUSH1 0x2 DUP2 GT ISZERO PUSH2 0x146C JUMPI PUSH2 0x146B PUSH2 0x2AAE JUMP JUMPDEST JUMPDEST PUSH1 0x11 PUSH0 SWAP1 SLOAD SWAP1 PUSH2 0x100 EXP SWAP1 DIV PUSH1 0xFF AND PUSH1 0x2 DUP2 GT ISZERO PUSH2 0x148D JUMPI PUSH2 0x148C PUSH2 0x2AAE JUMP JUMPDEST JUMPDEST EQ PUSH2 0x14CD JUMPI PUSH1 0x40 MLOAD PUSH32 0x8C379A000000000000000000000000000000000000000000000000000000000 DUP2 MSTORE PUSH1 0x4 ADD PUSH2 0x14C4 SWAP1 PUSH2 0x324B JUMP JUMPDEST PUSH1 0x40 MLOAD DUP1 SWAP2 SUB SWAP1 REVERT JUMPDEST PUSH1 0x8 SLOAD PUSH1 0xB SLOAD EQ PUSH2 0x1513 JUMPI PUSH1 0x40 MLOAD PUSH32 0x8C379A000000000000000000000000000000000000000000000000000000000 DUP2 MSTORE PUSH1 0x4 ADD PUSH2 0x150A SWAP1 PUSH2 0x32D9 JUMP JUMPDEST PUSH1 0x40 MLOAD DUP1 SWAP2 SUB SWAP1 REVERT JUMPDEST PUSH1 0x2 PUSH1 0x11 PUSH0 PUSH2 0x100 EXP DUP2 SLOAD DUP2 PUSH1 0xFF MUL NOT AND SWAP1 DUP4 PUSH1 0x2 DUP2 GT ISZERO PUSH2 0x1538 JUMPI PUSH2 0x1537 PUSH2 0x2AAE JUMP JUMPDEST JUMPDEST MUL OR SWAP1 SSTORE POP PUSH32 0x273467821F33675618854603EF917EBCEC8A1A39F95C43D5564ED1AEFAB870B3 PUSH1 0x11 PUSH0 SWAP1 SLOAD SWAP1 PUSH2 0x100 EXP SWAP1 DIV PUSH1 0xFF AND PUSH1 0x40 MLOAD PUSH2 0x157A SWAP2 SWAP1 PUSH2 0x2B21 JUMP JUMPDEST PUSH1 0x40 MLOAD DUP1 SWAP2 SUB SWAP1 LOG1 JUMP JUMPDEST PUSH1 0xB SLOAD DUP2 JUMP JUMPDEST PUSH0 DUP1 PUSH0 DUP4 PUSH20 0xFFFFFFFFFFFFFFFFFFFFFFFFFFFFFFFFFFFFFFFF AND PUSH20 0xFFFFFFFFFFFFFFFFFFFFFFFFFFFFFFFFFFFFFFFF AND DUP2 MSTORE PUSH1 0x20 ADD SWAP1 DUP2 MSTORE PUSH1 0x20 ADD PUSH0 KECCAK256 SLOAD SWAP1 POP SWAP2 SWAP1 POP JUMP JUMPDEST PUSH2 0x15D7 PUSH2 0x1E27 JUMP JUMPDEST PUSH2 0x15E0 PUSH0 PUSH2 0x2230 JUMP JUMPDEST JUMP JUMPDEST PUSH2 0x15EA PUSH2 0x1E27 JUMP JUMPDEST PUSH2 0x15F2 PUSH2 0x1EAE JUMP JUMPDEST PUSH0 DUP2 GT PUSH2 0x1634 JUMPI PUSH1 0x40 MLOAD PUSH32 0x8C379A000000000000000000000000000000000000000000000000000000000 DUP2 MSTORE PUSH1 0x4 ADD PUSH2 0x162B SWAP1 PUSH2 0x3341 JUMP JUMPDEST PUSH1 0x40 MLOAD DUP1 SWAP2 SUB SWAP1 REVERT JUMPDEST DUP1 PUSH2 0x163E CALLER PUSH2 0x158A JUMP JUMPDEST LT ISZERO PUSH2 0x167F JUMPI PUSH1 0x40 MLOAD PUSH32 0x8C379A000000000000000000000000000000000000000000000000000000000 DUP2 MSTORE PUSH1 0x4 ADD PUSH2 0x1676 SWAP1 PUSH2 0x33A9 JUMP JUMPDEST PUSH1 0x40 MLOAD DUP1 SWAP2 SUB SWAP1 REVERT JUMPDEST PUSH2 0x168A CALLER ADDRESS DUP4 PUSH2 0x1D37 JUMP JUMPDEST PUSH2 0x16DA DUP2 PUSH1 0x12 PUSH0 CALLER PUSH20 0xFFFFFFFFFFFFFFFFFFFFFFFFFFFFFFFFFFFFFFFF AND PUSH20 0xFFFFFFFFFFFFFFFFFFFFFFFFFFFFFFFFFFFFFFFF AND DUP2 MSTORE PUSH1 0x20 ADD SWAP1 DUP2 MSTORE PUSH1 0x20 ADD PUSH0 KECCAK256 SLOAD PUSH2 0x210F SWAP1 SWAP2 SWAP1 PUSH4 0xFFFFFFFF AND JUMP JUMPDEST PUSH1 0x12 PUSH0 CALLER PUSH20 0xFFFFFFFFFFFFFFFFFFFFFFFFFFFFFFFFFFFFFFFF AND PUSH20 0xFFFFFFFFFFFFFFFFFFFFFFFFFFFFFFFFFFFFFFFF AND DUP2 MSTORE PUSH1 0x20 ADD SWAP1 DUP2 MSTORE PUSH1 0x20 ADD PUSH0 KECCAK256 DUP2 SWAP1 SSTORE POP PUSH2 0x1730 PUSH1 0x15 SLOAD TIMESTAMP PUSH2 0x210F SWAP1 SWAP2 SWAP1 PUSH4 0xFFFFFFFF AND JUMP JUMPDEST PUSH1 0x13 PUSH0 CALLER PUSH20 0xFFFFFFFFFFFFFFFFFFFFFFFFFFFFFFFFFFFFFFFF AND PUSH20 0xFFFFFFFFFFFFFFFFFFFFFFFFFFFFFFFFFFFFFFFF AND DUP2 MSTORE PUSH1 0x20 ADD SWAP1 DUP2 MSTORE PUSH1 0x20 ADD PUSH0 KECCAK256 DUP2 SWAP1 SSTORE POP CALLER PUSH20 0xFFFFFFFFFFFFFFFFFFFFFFFFFFFFFFFFFFFFFFFF AND PUSH32 0xDD2A19C3BDD089CBE77C04F5655F83DE0504D6140D12C8667646F55D0557C4DC DUP3 PUSH1 0x13 PUSH0 CALLER PUSH20 0xFFFFFFFFFFFFFFFFFFFFFFFFFFFFFFFFFFFFFFFF AND PUSH20 0xFFFFFFFFFFFFFFFFFFFFFFFFFFFFFFFFFFFFFFFF AND DUP2 MSTORE PUSH1 0x20 ADD SWAP1 DUP2 MSTORE PUSH1 0x20 ADD PUSH0 KECCAK256 SLOAD PUSH1 0x40 MLOAD PUSH2 0x17F6 SWAP3 SWAP2 SWAP1 PUSH2 0x33C7 JUMP JUMPDEST PUSH1 0x40 MLOAD DUP1 SWAP2 SUB SWAP1 LOG2 PUSH2 0x1806 PUSH2 0x1EFD JUMP JUMPDEST POP JUMP JUMPDEST PUSH0 PUSH1 0x5 PUSH0 SWAP1 SLOAD SWAP1 PUSH2 0x100 EXP SWAP1 DIV PUSH20 0xFFFFFFFFFFFFFFFFFFFFFFFFFFFFFFFFFFFFFFFF AND SWAP1 POP SWAP1 JUMP JUMPDEST PUSH0 DUP1 PUSH0 SWAP1 POP PUSH0 JUMPDEST PUSH1 0x16 DUP1 SLOAD SWAP1 POP DUP2 LT ISZERO PUSH2 0x1959 JUMPI PUSH0 PUSH1 0x16 DUP3 DUP2 SLOAD DUP2 LT PUSH2 0x185A JUMPI PUSH2 0x1859 PUSH2 0x33EE JUMP JUMPDEST JUMPDEST SWAP1 PUSH0 MSTORE PUSH1 0x20 PUSH0 KECCAK256 ADD PUSH0 SWAP1 SLOAD SWAP1 PUSH2 0x100 EXP SWAP1 DIV PUSH20 0xFFFFFFFFFFFFFFFFFFFFFFFFFFFFFFFFFFFFFFFF AND PUSH20 0xFFFFFFFFFFFFFFFFFFFFFFFFFFFFFFFFFFFFFFFF AND PUSH4 0xFEAF968C PUSH1 0x40 MLOAD DUP2 PUSH4 0xFFFFFFFF AND PUSH1 0xE0 SHL DUP2 MSTORE PUSH1 0x4 ADD PUSH1 0xA0 PUSH1 0x40 MLOAD DUP1 DUP4 SUB DUP2 DUP7 GAS STATICCALL ISZERO DUP1 ISZERO PUSH2 0x18CA JUMPI RETURNDATASIZE PUSH0 DUP1 RETURNDATACOPY RETURNDATASIZE PUSH0 REVERT JUMPDEST POP POP POP POP PUSH1 0x40 MLOAD RETURNDATASIZE PUSH1 0x1F NOT PUSH1 0x1F DUP3 ADD AND DUP3 ADD DUP1 PUSH1 0x40 MSTORE POP DUP2 ADD SWAP1 PUSH2 0x18EE SWAP2 SWAP1 PUSH2 0x34A1 JUMP JUMPDEST POP POP POP SWAP2 POP POP PUSH0 DUP2 SGT PUSH2 0x1936 JUMPI PUSH1 0x40 MLOAD PUSH32 0x8C379A000000000000000000000000000000000000000000000000000000000 DUP2 MSTORE PUSH1 0x4 ADD PUSH2 0x192D SWAP1 PUSH2 0x3562 JUMP JUMPDEST PUSH1 0x40 MLOAD DUP1 SWAP2 SUB SWAP1 REVERT JUMPDEST PUSH2 0x1949 DUP2 DUP5 PUSH2 0x210F SWAP1 SWAP2 SWAP1 PUSH4 0xFFFFFFFF AND JUMP JUMPDEST SWAP3 POP POP DUP1 DUP1 PUSH1 0x1 ADD SWAP2 POP POP PUSH2 0x1838 JUMP JUMPDEST POP PUSH2 0x1989 PUSH5 0x2540BE400 PUSH2 0x197B PUSH1 0x16 DUP1 SLOAD SWAP1 POP DUP5 PUSH2 0x1F1C SWAP1 SWAP2 SWAP1 PUSH4 0xFFFFFFFF AND JUMP JUMPDEST PUSH2 0x1F07 SWAP1 SWAP2 SWAP1 PUSH4 0xFFFFFFFF AND JUMP JUMPDEST SWAP2 POP POP SWAP1 JUMP JUMPDEST PUSH1 0xF SLOAD DUP2 JUMP JUMPDEST PUSH11 0xA56FA5B99019A5C8000000 DUP2 JUMP JUMPDEST PUSH1 0xE SLOAD DUP2 JUMP JUMPDEST PUSH2 0x19B2 PUSH2 0x1E27 JUMP JUMPDEST PUSH2 0x19BA PUSH2 0x1EAE JUMP JUMPDEST DUP2 PUSH20 0xFFFFFFFFFFFFFFFFFFFFFFFFFFFFFFFFFFFFFFFF AND PUSH4 0xA9059CBB PUSH2 0x19DE PUSH2 0x1809 JUMP JUMPDEST DUP4 PUSH1 0x40 MLOAD DUP4 PUSH4 0xFFFFFFFF AND PUSH1 0xE0 SHL DUP2 MSTORE PUSH1 0x4 ADD PUSH2 0x19FC SWAP3 SWAP2 SWAP1 PUSH2 0x3580 JUMP JUMPDEST PUSH1 0x20 PUSH1 0x40 MLOAD DUP1 DUP4 SUB DUP2 PUSH0 DUP8 GAS CALL ISZERO DUP1 ISZERO PUSH2 0x1A18 JUMPI RETURNDATASIZE PUSH0 DUP1 RETURNDATACOPY RETURNDATASIZE PUSH0 REVERT JUMPDEST POP POP POP POP PUSH1 0x40 MLOAD RETURNDATASIZE PUSH1 0x1F NOT PUSH1 0x1F DUP3 ADD AND DUP3 ADD DUP1 PUSH1 0x40 MSTORE POP DUP2 ADD SWAP1 PUSH2 0x1A3C SWAP2 SWAP1 PUSH2 0x35D1 JUMP JUMPDEST POP PUSH2 0x1A45 PUSH2 0x1809 JUMP JUMPDEST PUSH20 0xFFFFFFFFFFFFFFFFFFFFFFFFFFFFFFFFFFFFFFFF AND PUSH32 0xEAFF4B37086828766AD3268786972C0CD24259D4C87A80F9D3963A3C3D999B0D DUP3 PUSH1 0x40 MLOAD PUSH2 0x1A8A SWAP2 SWAP1 PUSH2 0x291F JUMP JUMPDEST PUSH1 0x40 MLOAD DUP1 SWAP2 SUB SWAP1 LOG2 PUSH2 0x1A9A PUSH2 0x1EFD JUMP JUMPDEST POP POP JUMP JUMPDEST PUSH1 0x60 PUSH1 0x4 DUP1 SLOAD PUSH2 0x1AAD SWAP1 PUSH2 0x2BA5 JUMP JUMPDEST DUP1 PUSH1 0x1F ADD PUSH1 0x20 DUP1 SWAP2 DIV MUL PUSH1 0x20 ADD PUSH1 0x40 MLOAD SWAP1 DUP2 ADD PUSH1 0x40 MSTORE DUP1 SWAP3 SWAP2 SWAP1 DUP2 DUP2 MSTORE PUSH1 0x20 ADD DUP3 DUP1 SLOAD PUSH2 0x1AD9 SWAP1 PUSH2 0x2BA5 JUMP JUMPDEST DUP1 ISZERO PUSH2 0x1B24 JUMPI DUP1 PUSH1 0x1F LT PUSH2 0x1AFB JUMPI PUSH2 0x100 DUP1 DUP4 SLOAD DIV MUL DUP4 MSTORE SWAP2 PUSH1 0x20 ADD SWAP2 PUSH2 0x1B24 JUMP JUMPDEST DUP3 ADD SWAP2 SWAP1 PUSH0 MSTORE PUSH1 0x20 PUSH0 KECCAK256 SWAP1 JUMPDEST DUP2 SLOAD DUP2 MSTORE SWAP1 PUSH1 0x1 ADD SWAP1 PUSH1 0x20 ADD DUP1 DUP4 GT PUSH2 0x1B07 JUMPI DUP3 SWAP1 SUB PUSH1 0x1F AND DUP3 ADD SWAP2 JUMPDEST POP POP POP POP POP SWAP1 POP SWAP1 JUMP JUMPDEST PUSH0 DUP1 PUSH2 0x1B38 PUSH2 0x1C8C JUMP JUMPDEST SWAP1 POP PUSH2 0x1B45 DUP2 DUP6 DUP6 PUSH2 0x1D37 JUMP JUMPDEST PUSH1 0x1 SWAP2 POP POP SWAP3 SWAP2 POP POP JUMP JUMPDEST PUSH1 0x9 SLOAD DUP2 JUMP JUMPDEST PUSH1 0x10 SLOAD DUP2 JUMP JUMPDEST PUSH1 0x7 SLOAD DUP2 JUMP JUMPDEST PUSH1 0xA SLOAD DUP2 JUMP JUMPDEST PUSH1 0x11 PUSH0 SWAP1 SLOAD SWAP1 PUSH2 0x100 EXP SWAP1 DIV PUSH1 0xFF AND DUP2 JUMP JUMPDEST PUSH1 0x8 SLOAD DUP2 JUMP JUMPDEST PUSH0 PUSH1 0x1 PUSH0 DUP5 PUSH20 0xFFFFFFFFFFFFFFFFFFFFFFFFFFFFFFFFFFFFFFFF AND PUSH20 0xFFFFFFFFFFFFFFFFFFFFFFFFFFFFFFFFFFFFFFFF AND DUP2 MSTORE PUSH1 0x20 ADD SWAP1 DUP2 MSTORE PUSH1 0x20 ADD PUSH0 KECCAK256 PUSH0 DUP4 PUSH20 0xFFFFFFFFFFFFFFFFFFFFFFFFFFFFFFFFFFFFFFFF AND PUSH20 0xFFFFFFFFFFFFFFFFFFFFFFFFFFFFFFFFFFFFFFFF AND DUP2 MSTORE PUSH1 0x20 ADD SWAP1 DUP2 MSTORE PUSH1 0x20 ADD PUSH0 KECCAK256 SLOAD SWAP1 POP SWAP3 SWAP2 POP POP JUMP JUMPDEST PUSH1 0xC SLOAD DUP2 JUMP JUMPDEST PUSH2 0x1C10 PUSH2 0x1E27 JUMP JUMPDEST PUSH0 PUSH20 0xFFFFFFFFFFFFFFFFFFFFFFFFFFFFFFFFFFFFFFFF AND DUP2 PUSH20 0xFFFFFFFFFFFFFFFFFFFFFFFFFFFFFFFFFFFFFFFF AND SUB PUSH2 0x1C80 JUMPI PUSH0 PUSH1 0x40 MLOAD PUSH32 0x1E4FBDF700000000000000000000000000000000000000000000000000000000 DUP2 MSTORE PUSH1 0x4 ADD PUSH2 0x1C77 SWAP2 SWAP1 PUSH2 0x2A95 JUMP JUMPDEST PUSH1 0x40 MLOAD DUP1 SWAP2 SUB SWAP1 REVERT JUMPDEST PUSH2 0x1C89 DUP2 PUSH2 0x2230 JUMP JUMPDEST POP JUMP JUMPDEST PUSH0 CALLER SWAP1 POP SWAP1 JUMP JUMPDEST PUSH2 0x1CA0 DUP4 DUP4 DUP4 PUSH1 0x1 PUSH2 0x22F3 JUMP JUMPDEST POP POP POP JUMP JUMPDEST PUSH0 PUSH2 0x1CB0 DUP5 DUP5 PUSH2 0x1B80 JUMP JUMPDEST SWAP1 POP PUSH32 0xFFFFFFFFFFFFFFFFFFFFFFFFFFFFFFFFFFFFFFFFFFFFFFFFFFFFFFFFFFFFFFFF DUP2 EQ PUSH2 0x1D31 JUMPI DUP2 DUP2 LT ISZERO PUSH2 0x1D22 JUMPI DUP3 DUP2 DUP4 PUSH1 0x40 MLOAD PUSH32 0xFB8F41B200000000000000000000000000000000000000000000000000000000 DUP2 MSTORE PUSH1 0x4 ADD PUSH2 0x1D19 SWAP4 SWAP3 SWAP2 SWAP1 PUSH2 0x35FC JUMP JUMPDEST PUSH1 0x40 MLOAD DUP1 SWAP2 SUB SWAP1 REVERT JUMPDEST PUSH2 0x1D30 DUP5 DUP5 DUP5 DUP5 SUB PUSH0 PUSH2 0x22F3 JUMP JUMPDEST JUMPDEST POP POP POP POP JUMP JUMPDEST PUSH0 PUSH20 0xFFFFFFFFFFFFFFFFFFFFFFFFFFFFFFFFFFFFFFFF AND DUP4 PUSH20 0xFFFFFFFFFFFFFFFFFFFFFFFFFFFFFFFFFFFFFFFF AND SUB PUSH2 0x1DA7 JUMPI PUSH0 PUSH1 0x40 MLOAD PUSH32 0x96C6FD1E00000000000000000000000000000000000000000000000000000000 DUP2 MSTORE PUSH1 0x4 ADD PUSH2 0x1D9E SWAP2 SWAP1 PUSH2 0x2A95 JUMP JUMPDEST PUSH1 0x40 MLOAD DUP1 SWAP2 SUB SWAP1 REVERT JUMPDEST PUSH0 PUSH20 0xFFFFFFFFFFFFFFFFFFFFFFFFFFFFFFFFFFFFFFFF AND DUP3 PUSH20 0xFFFFFFFFFFFFFFFFFFFFFFFFFFFFFFFFFFFFFFFF AND SUB PUSH2 0x1E17 JUMPI PUSH0 PUSH1 0x40 MLOAD PUSH32 0xEC442F0500000000000000000000000000000000000000000000000000000000 DUP2 MSTORE PUSH1 0x4 ADD PUSH2 0x1E0E SWAP2 SWAP1 PUSH2 0x2A95 JUMP JUMPDEST PUSH1 0x40 MLOAD DUP1 SWAP2 SUB SWAP1 REVERT JUMPDEST PUSH2 0x1E22 DUP4 DUP4 DUP4 PUSH2 0x24C2 JUMP JUMPDEST POP POP POP JUMP JUMPDEST PUSH2 0x1E2F PUSH2 0x1C8C JUMP JUMPDEST PUSH20 0xFFFFFFFFFFFFFFFFFFFFFFFFFFFFFFFFFFFFFFFF AND PUSH2 0x1E4D PUSH2 0x1809 JUMP JUMPDEST PUSH20 0xFFFFFFFFFFFFFFFFFFFFFFFFFFFFFFFFFFFFFFFF AND EQ PUSH2 0x1EAC JUMPI PUSH2 0x1E70 PUSH2 0x1C8C JUMP JUMPDEST PUSH1 0x40 MLOAD PUSH32 0x118CDAA700000000000000000000000000000000000000000000000000000000 DUP2 MSTORE PUSH1 0x4 ADD PUSH2 0x1EA3 SWAP2 SWAP1 PUSH2 0x2A95 JUMP JUMPDEST PUSH1 0x40 MLOAD DUP1 SWAP2 SUB SWAP1 REVERT JUMPDEST JUMP JUMPDEST PUSH1 0x2 PUSH1 0x6 SLOAD SUB PUSH2 0x1EF3 JUMPI PUSH1 0x40 MLOAD PUSH32 0x8C379A000000000000000000000000000000000000000000000000000000000 DUP2 MSTORE PUSH1 0x4 ADD PUSH2 0x1EEA SWAP1 PUSH2 0x367B JUMP JUMPDEST PUSH1 0x40 MLOAD DUP1 SWAP2 SUB SWAP1 REVERT JUMPDEST PUSH1 0x2 PUSH1 0x6 DUP2 SWAP1 SSTORE POP JUMP JUMPDEST PUSH1 0x1 PUSH1 0x6 DUP2 SWAP1 SSTORE POP JUMP JUMPDEST PUSH0 DUP2 DUP4 PUSH2 0x1F14 SWAP2 SWAP1 PUSH2 0x36C6 JUMP JUMPDEST SWAP1 POP SWAP3 SWAP2 POP POP JUMP JUMPDEST PUSH0 DUP2 DUP4 PUSH2 0x1F29 SWAP2 SWAP1 PUSH2 0x3734 JUMP JUMPDEST SWAP1 POP SWAP3 SWAP2 POP POP JUMP JUMPDEST PUSH0 DUP1 DUP3 GT PUSH2 0x1F74 JUMPI PUSH1 0x40 MLOAD PUSH32 0x8C379A000000000000000000000000000000000000000000000000000000000 DUP2 MSTORE PUSH1 0x4 ADD PUSH2 0x1F6B SWAP1 PUSH2 0x37D4 JUMP JUMPDEST PUSH1 0x40 MLOAD DUP1 SWAP2 SUB SWAP1 REVERT JUMPDEST PUSH0 PUSH1 0x8 SLOAD GT PUSH2 0x1FB8 JUMPI PUSH1 0x40 MLOAD PUSH32 0x8C379A000000000000000000000000000000000000000000000000000000000 DUP2 MSTORE PUSH1 0x4 ADD PUSH2 0x1FAF SWAP1 PUSH2 0x3862 JUMP JUMPDEST PUSH1 0x40 MLOAD DUP1 SWAP2 SUB SWAP1 REVERT JUMPDEST PUSH1 0x8 SLOAD PUSH1 0xB SLOAD GT ISZERO PUSH2 0x1FFF JUMPI PUSH1 0x40 MLOAD PUSH32 0x8C379A000000000000000000000000000000000000000000000000000000000 DUP2 MSTORE PUSH1 0x4 ADD PUSH2 0x1FF6 SWAP1 PUSH2 0x38F0 JUMP JUMPDEST PUSH1 0x40 MLOAD DUP1 SWAP2 SUB SWAP1 REVERT JUMPDEST PUSH0 PUSH2 0x2017 PUSH1 0x9 SLOAD PUSH1 0xA SLOAD PUSH2 0x26DB SWAP1 SWAP2 SWAP1 PUSH4 0xFFFFFFFF AND JUMP JUMPDEST SWAP1 POP PUSH0 PUSH2 0x2057 PUSH2 0x2046 PUSH1 0x8 SLOAD PUSH2 0x2038 PUSH1 0xB SLOAD DUP7 PUSH2 0x1F07 SWAP1 SWAP2 SWAP1 PUSH4 0xFFFFFFFF AND JUMP JUMPDEST PUSH2 0x1F1C SWAP1 SWAP2 SWAP1 PUSH4 0xFFFFFFFF AND JUMP JUMPDEST PUSH1 0x9 SLOAD PUSH2 0x210F SWAP1 SWAP2 SWAP1 PUSH4 0xFFFFFFFF AND JUMP JUMPDEST SWAP1 POP PUSH1 0x9 SLOAD DUP2 LT ISZERO DUP1 ISZERO PUSH2 0x206D JUMPI POP PUSH1 0xA SLOAD DUP2 GT ISZERO JUMPDEST PUSH2 0x20AC JUMPI PUSH1 0x40 MLOAD PUSH32 0x8C379A000000000000000000000000000000000000000000000000000000000 DUP2 MSTORE PUSH1 0x4 ADD PUSH2 0x20A3 SWAP1 PUSH2 0x3958 JUMP JUMPDEST PUSH1 0x40 MLOAD DUP1 SWAP2 SUB SWAP1 REVERT JUMPDEST PUSH0 PUSH2 0x20C0 DUP3 DUP7 PUSH2 0x1F1C SWAP1 SWAP2 SWAP1 PUSH4 0xFFFFFFFF AND JUMP JUMPDEST SWAP1 POP PUSH0 DUP2 GT PUSH2 0x2104 JUMPI PUSH1 0x40 MLOAD PUSH32 0x8C379A000000000000000000000000000000000000000000000000000000000 DUP2 MSTORE PUSH1 0x4 ADD PUSH2 0x20FB SWAP1 PUSH2 0x39E6 JUMP JUMPDEST PUSH1 0x40 MLOAD DUP1 SWAP2 SUB SWAP1 REVERT JUMPDEST DUP1 SWAP4 POP POP POP POP SWAP2 SWAP1 POP JUMP JUMPDEST PUSH0 DUP2 DUP4 PUSH2 0x211C SWAP2 SWAP1 PUSH2 0x3A04 JUMP JUMPDEST SWAP1 POP SWAP3 SWAP2 POP POP JUMP JUMPDEST PUSH0 DUP1 PUSH2 0x2179 PUSH2 0x2168 PUSH1 0xD SLOAD PUSH2 0x215A PUSH1 0x10 SLOAD PUSH2 0x214C PUSH1 0xE SLOAD PUSH1 0xF SLOAD PUSH2 0x26DB SWAP1 SWAP2 SWAP1 PUSH4 0xFFFFFFFF AND JUMP JUMPDEST PUSH2 0x1F07 SWAP1 SWAP2 SWAP1 PUSH4 0xFFFFFFFF AND JUMP JUMPDEST PUSH2 0x1F1C SWAP1 SWAP2 SWAP1 PUSH4 0xFFFFFFFF AND JUMP JUMPDEST PUSH1 0xE SLOAD PUSH2 0x210F SWAP1 SWAP2 SWAP1 PUSH4 0xFFFFFFFF AND JUMP JUMPDEST SWAP1 POP PUSH1 0xE SLOAD DUP2 LT ISZERO DUP1 ISZERO PUSH2 0x218F JUMPI POP PUSH1 0xF SLOAD DUP2 GT ISZERO JUMPDEST PUSH2 0x21CE JUMPI PUSH1 0x40 MLOAD PUSH32 0x8C379A000000000000000000000000000000000000000000000000000000000 DUP2 MSTORE PUSH1 0x4 ADD PUSH2 0x21C5 SWAP1 PUSH2 0x3958 JUMP JUMPDEST PUSH1 0x40 MLOAD DUP1 SWAP2 SUB SWAP1 REVERT JUMPDEST PUSH0 PUSH2 0x21E2 DUP3 DUP6 PUSH2 0x1F1C SWAP1 SWAP2 SWAP1 PUSH4 0xFFFFFFFF AND JUMP JUMPDEST SWAP1 POP PUSH0 DUP2 GT PUSH2 0x2226 JUMPI PUSH1 0x40 MLOAD PUSH32 0x8C379A000000000000000000000000000000000000000000000000000000000 DUP2 MSTORE PUSH1 0x4 ADD PUSH2 0x221D SWAP1 PUSH2 0x39E6 JUMP JUMPDEST PUSH1 0x40 MLOAD DUP1 SWAP2 SUB SWAP1 REVERT JUMPDEST DUP1 SWAP3 POP POP POP SWAP2 SWAP1 POP JUMP JUMPDEST PUSH0 PUSH1 0x5 PUSH0 SWAP1 SLOAD SWAP1 PUSH2 0x100 EXP SWAP1 DIV PUSH20 0xFFFFFFFFFFFFFFFFFFFFFFFFFFFFFFFFFFFFFFFF AND SWAP1 POP DUP2 PUSH1 0x5 PUSH0 PUSH2 0x100 EXP DUP2 SLOAD DUP2 PUSH20 0xFFFFFFFFFFFFFFFFFFFFFFFFFFFFFFFFFFFFFFFF MUL NOT AND SWAP1 DUP4 PUSH20 0xFFFFFFFFFFFFFFFFFFFFFFFFFFFFFFFFFFFFFFFF AND MUL OR SWAP1 SSTORE POP DUP2 PUSH20 0xFFFFFFFFFFFFFFFFFFFFFFFFFFFFFFFFFFFFFFFF AND DUP2 PUSH20 0xFFFFFFFFFFFFFFFFFFFFFFFFFFFFFFFFFFFFFFFF AND PUSH32 0x8BE0079C531659141344CD1FD0A4F28419497F9722A3DAAFE3B4186F6B6457E0 PUSH1 0x40 MLOAD PUSH1 0x40 MLOAD DUP1 SWAP2 SUB SWAP1 LOG3 POP POP JUMP JUMPDEST PUSH0 PUSH20 0xFFFFFFFFFFFFFFFFFFFFFFFFFFFFFFFFFFFFFFFF AND DUP5 PUSH20 0xFFFFFFFFFFFFFFFFFFFFFFFFFFFFFFFFFFFFFFFF AND SUB PUSH2 0x2363 JUMPI PUSH0 PUSH1 0x40 MLOAD PUSH32 0xE602DF0500000000000000000000000000000000000000000000000000000000 DUP2 MSTORE PUSH1 0x4 ADD PUSH2 0x235A SWAP2 SWAP1 PUSH2 0x2A95 JUMP JUMPDEST PUSH1 0x40 MLOAD DUP1 SWAP2 SUB SWAP1 REVERT JUMPDEST PUSH0 PUSH20 0xFFFFFFFFFFFFFFFFFFFFFFFFFFFFFFFFFFFFFFFF AND DUP4 PUSH20 0xFFFFFFFFFFFFFFFFFFFFFFFFFFFFFFFFFFFFFFFF AND SUB PUSH2 0x23D3 JUMPI PUSH0 PUSH1 0x40 MLOAD PUSH32 0x94280D6200000000000000000000000000000000000000000000000000000000 DUP2 MSTORE PUSH1 0x4 ADD PUSH2 0x23CA SWAP2 SWAP1 PUSH2 0x2A95 JUMP JUMPDEST PUSH1 0x40 MLOAD DUP1 SWAP2 SUB SWAP1 REVERT JUMPDEST DUP2 PUSH1 0x1 PUSH0 DUP7 PUSH20 0xFFFFFFFFFFFFFFFFFFFFFFFFFFFFFFFFFFFFFFFF AND PUSH20 0xFFFFFFFFFFFFFFFFFFFFFFFFFFFFFFFFFFFFFFFF AND DUP2 MSTORE PUSH1 0x20 ADD SWAP1 DUP2 MSTORE PUSH1 0x20 ADD PUSH0 KECCAK256 PUSH0 DUP6 PUSH20 0xFFFFFFFFFFFFFFFFFFFFFFFFFFFFFFFFFFFFFFFF AND PUSH20 0xFFFFFFFFFFFFFFFFFFFFFFFFFFFFFFFFFFFFFFFF AND DUP2 MSTORE PUSH1 0x20 ADD SWAP1 DUP2 MSTORE PUSH1 0x20 ADD PUSH0 KECCAK256 DUP2 SWAP1 SSTORE POP DUP1 ISZERO PUSH2 0x24BC JUMPI DUP3 PUSH20 0xFFFFFFFFFFFFFFFFFFFFFFFFFFFFFFFFFFFFFFFF AND DUP5 PUSH20 0xFFFFFFFFFFFFFFFFFFFFFFFFFFFFFFFFFFFFFFFF AND PUSH32 0x8C5BE1E5EBEC7D5BD14F71427D1E84F3DD0314C0F7B2291E5B200AC8C7C3B925 DUP5 PUSH1 0x40 MLOAD PUSH2 0x24B3 SWAP2 SWAP1 PUSH2 0x291F JUMP JUMPDEST PUSH1 0x40 MLOAD DUP1 SWAP2 SUB SWAP1 LOG3 JUMPDEST POP POP POP POP JUMP JUMPDEST PUSH0 PUSH20 0xFFFFFFFFFFFFFFFFFFFFFFFFFFFFFFFFFFFFFFFF AND DUP4 PUSH20 0xFFFFFFFFFFFFFFFFFFFFFFFFFFFFFFFFFFFFFFFF AND SUB PUSH2 0x2512 JUMPI DUP1 PUSH1 0x2 PUSH0 DUP3 DUP3 SLOAD PUSH2 0x2506 SWAP2 SWAP1 PUSH2 0x3A04 JUMP JUMPDEST SWAP3 POP POP DUP2 SWAP1 SSTORE POP PUSH2 0x25E0 JUMP JUMPDEST PUSH0 DUP1 PUSH0 DUP6 PUSH20 0xFFFFFFFFFFFFFFFFFFFFFFFFFFFFFFFFFFFFFFFF AND PUSH20 0xFFFFFFFFFFFFFFFFFFFFFFFFFFFFFFFFFFFFFFFF AND DUP2 MSTORE PUSH1 0x20 ADD SWAP1 DUP2 MSTORE PUSH1 0x20 ADD PUSH0 KECCAK256 SLOAD SWAP1 POP DUP2 DUP2 LT ISZERO PUSH2 0x259B JUMPI DUP4 DUP2 DUP4 PUSH1 0x40 MLOAD PUSH32 0xE450D38C00000000000000000000000000000000000000000000000000000000 DUP2 MSTORE PUSH1 0x4 ADD PUSH2 0x2592 SWAP4 SWAP3 SWAP2 SWAP1 PUSH2 0x35FC JUMP JUMPDEST PUSH1 0x40 MLOAD DUP1 SWAP2 SUB SWAP1 REVERT JUMPDEST DUP2 DUP2 SUB PUSH0 DUP1 DUP7 PUSH20 0xFFFFFFFFFFFFFFFFFFFFFFFFFFFFFFFFFFFFFFFF AND PUSH20 0xFFFFFFFFFFFFFFFFFFFFFFFFFFFFFFFFFFFFFFFF AND DUP2 MSTORE PUSH1 0x20 ADD SWAP1 DUP2 MSTORE PUSH1 0x20 ADD PUSH0 KECCAK256 DUP2 SWAP1 SSTORE POP POP JUMPDEST PUSH0 PUSH20 0xFFFFFFFFFFFFFFFFFFFFFFFFFFFFFFFFFFFFFFFF AND DUP3 PUSH20 0xFFFFFFFFFFFFFFFFFFFFFFFFFFFFFFFFFFFFFFFF AND SUB PUSH2 0x2627 JUMPI DUP1 PUSH1 0x2 PUSH0 DUP3 DUP3 SLOAD SUB SWAP3 POP POP DUP2 SWAP1 SSTORE POP PUSH2 0x2671 JUMP JUMPDEST DUP1 PUSH0 DUP1 DUP5 PUSH20 0xFFFFFFFFFFFFFFFFFFFFFFFFFFFFFFFFFFFFFFFF AND PUSH20 0xFFFFFFFFFFFFFFFFFFFFFFFFFFFFFFFFFFFFFFFF AND DUP2 MSTORE PUSH1 0x20 ADD SWAP1 DUP2 MSTORE PUSH1 0x20 ADD PUSH0 KECCAK256 PUSH0 DUP3 DUP3 SLOAD ADD SWAP3 POP POP DUP2 SWAP1 SSTORE POP JUMPDEST DUP2 PUSH20 0xFFFFFFFFFFFFFFFFFFFFFFFFFFFFFFFFFFFFFFFF AND DUP4 PUSH20 0xFFFFFFFFFFFFFFFFFFFFFFFFFFFFFFFFFFFFFFFF AND PUSH32 0xDDF252AD1BE2C89B69C2B068FC378DAA952BA7F163C4A11628F55A4DF523B3EF DUP4 PUSH1 0x40 MLOAD PUSH2 0x26CE SWAP2 SWAP1 PUSH2 0x291F JUMP JUMPDEST PUSH1 0x40 MLOAD DUP1 SWAP2 SUB SWAP1 LOG3 POP POP POP JUMP JUMPDEST PUSH0 DUP2 DUP4 PUSH2 0x26E8 SWAP2 SWAP1 PUSH2 0x3A37 JUMP JUMPDEST SWAP1 POP SWAP3 SWAP2 POP POP JUMP JUMPDEST PUSH0 DUP3 DUP3 MSTORE PUSH1 0x20 DUP3 ADD SWAP1 POP SWAP3 SWAP2 POP POP JUMP JUMPDEST PUSH32 0x44697265637420455448207472616E7366657273206E6F7420616C6C6F776564 PUSH0 DUP3 ADD MSTORE PUSH32 0x2E00000000000000000000000000000000000000000000000000000000000000 PUSH1 0x20 DUP3 ADD MSTORE POP JUMP JUMPDEST PUSH0 PUSH2 0x275A PUSH1 0x21 DUP4 PUSH2 0x26F0 JUMP JUMPDEST SWAP2 POP PUSH2 0x2765 DUP3 PUSH2 0x2700 JUMP JUMPDEST PUSH1 0x40 DUP3 ADD SWAP1 POP SWAP2 SWAP1 POP JUMP JUMPDEST PUSH0 PUSH1 0x20 DUP3 ADD SWAP1 POP DUP2 DUP2 SUB PUSH0 DUP4 ADD MSTORE PUSH2 0x2787 DUP2 PUSH2 0x274E JUMP JUMPDEST SWAP1 POP SWAP2 SWAP1 POP JUMP JUMPDEST PUSH0 DUP2 MLOAD SWAP1 POP SWAP2 SWAP1 POP JUMP JUMPDEST DUP3 DUP2 DUP4 MCOPY PUSH0 DUP4 DUP4 ADD MSTORE POP POP POP JUMP JUMPDEST PUSH0 PUSH1 0x1F NOT PUSH1 0x1F DUP4 ADD AND SWAP1 POP SWAP2 SWAP1 POP JUMP JUMPDEST PUSH0 PUSH2 0x27C0 DUP3 PUSH2 0x278E JUMP JUMPDEST PUSH2 0x27CA DUP2 DUP6 PUSH2 0x26F0 JUMP JUMPDEST SWAP4 POP PUSH2 0x27DA DUP2 DUP6 PUSH1 0x20 DUP7 ADD PUSH2 0x2798 JUMP JUMPDEST PUSH2 0x27E3 DUP2 PUSH2 0x27A6 JUMP JUMPDEST DUP5 ADD SWAP2 POP POP SWAP3 SWAP2 POP POP JUMP JUMPDEST PUSH0 PUSH1 0x20 DUP3 ADD SWAP1 POP DUP2 DUP2 SUB PUSH0 DUP4 ADD MSTORE PUSH2 0x2806 DUP2 DUP5 PUSH2 0x27B6 JUMP JUMPDEST SWAP1 POP SWAP3 SWAP2 POP POP JUMP JUMPDEST PUSH0 DUP1 REVERT JUMPDEST PUSH0 PUSH20 0xFFFFFFFFFFFFFFFFFFFFFFFFFFFFFFFFFFFFFFFF DUP3 AND SWAP1 POP SWAP2 SWAP1 POP JUMP JUMPDEST PUSH0 PUSH2 0x283B DUP3 PUSH2 0x2812 JUMP JUMPDEST SWAP1 POP SWAP2 SWAP1 POP JUMP JUMPDEST PUSH2 0x284B DUP2 PUSH2 0x2831 JUMP JUMPDEST DUP2 EQ PUSH2 0x2855 JUMPI PUSH0 DUP1 REVERT JUMPDEST POP JUMP JUMPDEST PUSH0 DUP2 CALLDATALOAD SWAP1 POP PUSH2 0x2866 DUP2 PUSH2 0x2842 JUMP JUMPDEST SWAP3 SWAP2 POP POP JUMP JUMPDEST PUSH0 DUP2 SWAP1 POP SWAP2 SWAP1 POP JUMP JUMPDEST PUSH2 0x287E DUP2 PUSH2 0x286C JUMP JUMPDEST DUP2 EQ PUSH2 0x2888 JUMPI PUSH0 DUP1 REVERT JUMPDEST POP JUMP JUMPDEST PUSH0 DUP2 CALLDATALOAD SWAP1 POP PUSH2 0x2899 DUP2 PUSH2 0x2875 JUMP JUMPDEST SWAP3 SWAP2 POP POP JUMP JUMPDEST PUSH0 DUP1 PUSH1 0x40 DUP4 DUP6 SUB SLT ISZERO PUSH2 0x28B5 JUMPI PUSH2 0x28B4 PUSH2 0x280E JUMP JUMPDEST JUMPDEST PUSH0 PUSH2 0x28C2 DUP6 DUP3 DUP7 ADD PUSH2 0x2858 JUMP JUMPDEST SWAP3 POP POP PUSH1 0x20 PUSH2 0x28D3 DUP6 DUP3 DUP7 ADD PUSH2 0x288B JUMP JUMPDEST SWAP2 POP POP SWAP3 POP SWAP3 SWAP1 POP JUMP JUMPDEST PUSH0 DUP2 ISZERO ISZERO SWAP1 POP SWAP2 SWAP1 POP JUMP JUMPDEST PUSH2 0x28F1 DUP2 PUSH2 0x28DD JUMP JUMPDEST DUP3 MSTORE POP POP JUMP JUMPDEST PUSH0 PUSH1 0x20 DUP3 ADD SWAP1 POP PUSH2 0x290A PUSH0 DUP4 ADD DUP5 PUSH2 0x28E8 JUMP JUMPDEST SWAP3 SWAP2 POP POP JUMP JUMPDEST PUSH2 0x2919 DUP2 PUSH2 0x286C JUMP JUMPDEST DUP3 MSTORE POP POP JUMP JUMPDEST PUSH0 PUSH1 0x20 DUP3 ADD SWAP1 POP PUSH2 0x2932 PUSH0 DUP4 ADD DUP5 PUSH2 0x2910 JUMP JUMPDEST SWAP3 SWAP2 POP POP JUMP JUMPDEST PUSH0 PUSH1 0x20 DUP3 DUP5 SUB SLT ISZERO PUSH2 0x294D JUMPI PUSH2 0x294C PUSH2 0x280E JUMP JUMPDEST JUMPDEST PUSH0 PUSH2 0x295A DUP5 DUP3 DUP6 ADD PUSH2 0x288B JUMP JUMPDEST SWAP2 POP POP SWAP3 SWAP2 POP POP JUMP JUMPDEST PUSH0 DUP2 SWAP1 POP SWAP2 SWAP1 POP JUMP JUMPDEST PUSH0 PUSH2 0x2986 PUSH2 0x2981 PUSH2 0x297C DUP5 PUSH2 0x2812 JUMP JUMPDEST PUSH2 0x2963 JUMP JUMPDEST PUSH2 0x2812 JUMP JUMPDEST SWAP1 POP SWAP2 SWAP1 POP JUMP JUMPDEST PUSH0 PUSH2 0x2997 DUP3 PUSH2 0x296C JUMP JUMPDEST SWAP1 POP SWAP2 SWAP1 POP JUMP JUMPDEST PUSH0 PUSH2 0x29A8 DUP3 PUSH2 0x298D JUMP JUMPDEST SWAP1 POP SWAP2 SWAP1 POP JUMP JUMPDEST PUSH2 0x29B8 DUP2 PUSH2 0x299E JUMP JUMPDEST DUP3 MSTORE POP POP JUMP JUMPDEST PUSH0 PUSH1 0x20 DUP3 ADD SWAP1 POP PUSH2 0x29D1 PUSH0 DUP4 ADD DUP5 PUSH2 0x29AF JUMP JUMPDEST SWAP3 SWAP2 POP POP JUMP JUMPDEST PUSH0 PUSH1 0x20 DUP3 DUP5 SUB SLT ISZERO PUSH2 0x29EC JUMPI PUSH2 0x29EB PUSH2 0x280E JUMP JUMPDEST JUMPDEST PUSH0 PUSH2 0x29F9 DUP5 DUP3 DUP6 ADD PUSH2 0x2858 JUMP JUMPDEST SWAP2 POP POP SWAP3 SWAP2 POP POP JUMP JUMPDEST PUSH0 DUP1 PUSH0 PUSH1 0x60 DUP5 DUP7 SUB SLT ISZERO PUSH2 0x2A19 JUMPI PUSH2 0x2A18 PUSH2 0x280E JUMP JUMPDEST JUMPDEST PUSH0 PUSH2 0x2A26 DUP7 DUP3 DUP8 ADD PUSH2 0x2858 JUMP JUMPDEST SWAP4 POP POP PUSH1 0x20 PUSH2 0x2A37 DUP7 DUP3 DUP8 ADD PUSH2 0x2858 JUMP JUMPDEST SWAP3 POP POP PUSH1 0x40 PUSH2 0x2A48 DUP7 DUP3 DUP8 ADD PUSH2 0x288B JUMP JUMPDEST SWAP2 POP POP SWAP3 POP SWAP3 POP SWAP3 JUMP JUMPDEST PUSH0 PUSH1 0xFF DUP3 AND SWAP1 POP SWAP2 SWAP1 POP JUMP JUMPDEST PUSH2 0x2A67 DUP2 PUSH2 0x2A52 JUMP JUMPDEST DUP3 MSTORE POP POP JUMP JUMPDEST PUSH0 PUSH1 0x20 DUP3 ADD SWAP1 POP PUSH2 0x2A80 PUSH0 DUP4 ADD DUP5 PUSH2 0x2A5E JUMP JUMPDEST SWAP3 SWAP2 POP POP JUMP JUMPDEST PUSH2 0x2A8F DUP2 PUSH2 0x2831 JUMP JUMPDEST DUP3 MSTORE POP POP JUMP JUMPDEST PUSH0 PUSH1 0x20 DUP3 ADD SWAP1 POP PUSH2 0x2AA8 PUSH0 DUP4 ADD DUP5 PUSH2 0x2A86 JUMP JUMPDEST SWAP3 SWAP2 POP POP JUMP JUMPDEST PUSH32 0x4E487B7100000000000000000000000000000000000000000000000000000000 PUSH0 MSTORE PUSH1 0x21 PUSH1 0x4 MSTORE PUSH1 0x24 PUSH0 REVERT JUMPDEST PUSH1 0x3 DUP2 LT PUSH2 0x2AEC JUMPI PUSH2 0x2AEB PUSH2 0x2AAE JUMP JUMPDEST JUMPDEST POP JUMP JUMPDEST PUSH0 DUP2 SWAP1 POP PUSH2 0x2AFC DUP3 PUSH2 0x2ADB JUMP JUMPDEST SWAP2 SWAP1 POP JUMP JUMPDEST PUSH0 PUSH2 0x2B0B DUP3 PUSH2 0x2AEF JUMP JUMPDEST SWAP1 POP SWAP2 SWAP1 POP JUMP JUMPDEST PUSH2 0x2B1B DUP2 PUSH2 0x2B01 JUMP JUMPDEST DUP3 MSTORE POP POP JUMP JUMPDEST PUSH0 PUSH1 0x20 DUP3 ADD SWAP1 POP PUSH2 0x2B34 PUSH0 DUP4 ADD DUP5 PUSH2 0x2B12 JUMP JUMPDEST SWAP3 SWAP2 POP POP JUMP JUMPDEST PUSH0 DUP1 PUSH1 0x40 DUP4 DUP6 SUB SLT ISZERO PUSH2 0x2B50 JUMPI PUSH2 0x2B4F PUSH2 0x280E JUMP JUMPDEST JUMPDEST PUSH0 PUSH2 0x2B5D DUP6 DUP3 DUP7 ADD PUSH2 0x2858 JUMP JUMPDEST SWAP3 POP POP PUSH1 0x20 PUSH2 0x2B6E DUP6 DUP3 DUP7 ADD PUSH2 0x2858 JUMP JUMPDEST SWAP2 POP POP SWAP3 POP SWAP3 SWAP1 POP JUMP JUMPDEST PUSH32 0x4E487B7100000000000000000000000000000000000000000000000000000000 PUSH0 MSTORE PUSH1 0x22 PUSH1 0x4 MSTORE PUSH1 0x24 PUSH0 REVERT JUMPDEST PUSH0 PUSH1 0x2 DUP3 DIV SWAP1 POP PUSH1 0x1 DUP3 AND DUP1 PUSH2 0x2BBC JUMPI PUSH1 0x7F DUP3 AND SWAP2 POP JUMPDEST PUSH1 0x20 DUP3 LT DUP2 SUB PUSH2 0x2BCF JUMPI PUSH2 0x2BCE PUSH2 0x2B78 JUMP JUMPDEST JUMPDEST POP SWAP2 SWAP1 POP JUMP JUMPDEST PUSH32 0x53616C65732074617267657473206E6F7420796574206D65742E000000000000 PUSH0 DUP3 ADD MSTORE POP JUMP JUMPDEST PUSH0 PUSH2 0x2C09 PUSH1 0x1A DUP4 PUSH2 0x26F0 JUMP JUMPDEST SWAP2 POP PUSH2 0x2C14 DUP3 PUSH2 0x2BD5 JUMP JUMPDEST PUSH1 0x20 DUP3 ADD SWAP1 POP SWAP2 SWAP1 POP JUMP JUMPDEST PUSH0 PUSH1 0x20 DUP3 ADD SWAP1 POP DUP2 DUP2 SUB PUSH0 DUP4 ADD MSTORE PUSH2 0x2C36 DUP2 PUSH2 0x2BFD JUMP JUMPDEST SWAP1 POP SWAP2 SWAP1 POP JUMP JUMPDEST PUSH32 0x507269766174652053616C652063616E206F6E6C792073746172742066726F6D PUSH0 DUP3 ADD MSTORE PUSH32 0x204E4F4E452073746167652E0000000000000000000000000000000000000000 PUSH1 0x20 DUP3 ADD MSTORE POP JUMP JUMPDEST PUSH0 PUSH2 0x2C97 PUSH1 0x2C DUP4 PUSH2 0x26F0 JUMP JUMPDEST SWAP2 POP PUSH2 0x2CA2 DUP3 PUSH2 0x2C3D JUMP JUMPDEST PUSH1 0x40 DUP3 ADD SWAP1 POP SWAP2 SWAP1 POP JUMP JUMPDEST PUSH0 PUSH1 0x20 DUP3 ADD SWAP1 POP DUP2 DUP2 SUB PUSH0 DUP4 ADD MSTORE PUSH2 0x2CC4 DUP2 PUSH2 0x2C8B JUMP JUMPDEST SWAP1 POP SWAP2 SWAP1 POP JUMP JUMPDEST PUSH32 0x507269766174652053616C6520746F6B656E732073686F756C6420626520756E PUSH0 DUP3 ADD MSTORE PUSH32 0x736F6C642061742073746172742E000000000000000000000000000000000000 PUSH1 0x20 DUP3 ADD MSTORE POP JUMP JUMPDEST PUSH0 PUSH2 0x2D25 PUSH1 0x2E DUP4 PUSH2 0x26F0 JUMP JUMPDEST SWAP2 POP PUSH2 0x2D30 DUP3 PUSH2 0x2CCB JUMP JUMPDEST PUSH1 0x40 DUP3 ADD SWAP1 POP SWAP2 SWAP1 POP JUMP JUMPDEST PUSH0 PUSH1 0x20 DUP3 ADD SWAP1 POP DUP2 DUP2 SUB PUSH0 DUP4 ADD MSTORE PUSH2 0x2D52 DUP2 PUSH2 0x2D19 JUMP JUMPDEST SWAP1 POP SWAP2 SWAP1 POP JUMP JUMPDEST PUSH32 0x5072652D53616C652073686F756C64206E6F7420686176652073746172746564 PUSH0 DUP3 ADD MSTORE PUSH32 0x206265666F726520507269766174652053616C652E0000000000000000000000 PUSH1 0x20 DUP3 ADD MSTORE POP JUMP JUMPDEST PUSH0 PUSH2 0x2DB3 PUSH1 0x35 DUP4 PUSH2 0x26F0 JUMP JUMPDEST SWAP2 POP PUSH2 0x2DBE DUP3 PUSH2 0x2D59 JUMP JUMPDEST PUSH1 0x40 DUP3 ADD SWAP1 POP SWAP2 SWAP1 POP JUMP JUMPDEST PUSH0 PUSH1 0x20 DUP3 ADD SWAP1 POP DUP2 DUP2 SUB PUSH0 DUP4 ADD MSTORE PUSH2 0x2DE0 DUP2 PUSH2 0x2DA7 JUMP JUMPDEST SWAP1 POP SWAP2 SWAP1 POP JUMP JUMPDEST PUSH32 0x4E6F2073616C65206973206163746976652E0000000000000000000000000000 PUSH0 DUP3 ADD MSTORE POP JUMP JUMPDEST PUSH0 PUSH2 0x2E1B PUSH1 0x12 DUP4 PUSH2 0x26F0 JUMP JUMPDEST SWAP2 POP PUSH2 0x2E26 DUP3 PUSH2 0x2DE7 JUMP JUMPDEST PUSH1 0x20 DUP3 ADD SWAP1 POP SWAP2 SWAP1 POP JUMP JUMPDEST PUSH0 PUSH1 0x20 DUP3 ADD SWAP1 POP DUP2 DUP2 SUB PUSH0 DUP4 ADD MSTORE PUSH2 0x2E48 DUP2 PUSH2 0x2E0F JUMP JUMPDEST SWAP1 POP SWAP2 SWAP1 POP JUMP JUMPDEST PUSH32 0x496E76616C69642070726963652066726F6D206F7261636C6500000000000000 PUSH0 DUP3 ADD MSTORE POP JUMP JUMPDEST PUSH0 PUSH2 0x2E83 PUSH1 0x19 DUP4 PUSH2 0x26F0 JUMP JUMPDEST SWAP2 POP PUSH2 0x2E8E DUP3 PUSH2 0x2E4F JUMP JUMPDEST PUSH1 0x20 DUP3 ADD SWAP1 POP SWAP2 SWAP1 POP JUMP JUMPDEST PUSH0 PUSH1 0x20 DUP3 ADD SWAP1 POP DUP2 DUP2 SUB PUSH0 DUP4 ADD MSTORE PUSH2 0x2EB0 DUP2 PUSH2 0x2E77 JUMP JUMPDEST SWAP1 POP SWAP2 SWAP1 POP JUMP JUMPDEST PUSH32 0x507269766174652053616C6520736F6C64206F75742E00000000000000000000 PUSH0 DUP3 ADD MSTORE POP JUMP JUMPDEST PUSH0 PUSH2 0x2EEB PUSH1 0x16 DUP4 PUSH2 0x26F0 JUMP JUMPDEST SWAP2 POP PUSH2 0x2EF6 DUP3 PUSH2 0x2EB7 JUMP JUMPDEST PUSH1 0x20 DUP3 ADD SWAP1 POP SWAP2 SWAP1 POP JUMP JUMPDEST PUSH0 PUSH1 0x20 DUP3 ADD SWAP1 POP DUP2 DUP2 SUB PUSH0 DUP4 ADD MSTORE PUSH2 0x2F18 DUP2 PUSH2 0x2EDF JUMP JUMPDEST SWAP1 POP SWAP2 SWAP1 POP JUMP JUMPDEST PUSH32 0x4578636565647320507269766174652053616C6520746F6B656E206C696D6974 PUSH0 DUP3 ADD MSTORE PUSH32 0x2E00000000000000000000000000000000000000000000000000000000000000 PUSH1 0x20 DUP3 ADD MSTORE POP JUMP JUMPDEST PUSH0 PUSH2 0x2F79 PUSH1 0x21 DUP4 PUSH2 0x26F0 JUMP JUMPDEST SWAP2 POP PUSH2 0x2F84 DUP3 PUSH2 0x2F1F JUMP JUMPDEST PUSH1 0x40 DUP3 ADD SWAP1 POP SWAP2 SWAP1 POP JUMP JUMPDEST PUSH0 PUSH1 0x20 DUP3 ADD SWAP1 POP DUP2 DUP2 SUB PUSH0 DUP4 ADD MSTORE PUSH2 0x2FA6 DUP2 PUSH2 0x2F6D JUMP JUMPDEST SWAP1 POP SWAP2 SWAP1 POP JUMP JUMPDEST PUSH32 0x5072652D53616C6520736F6C64206F75742E0000000000000000000000000000 PUSH0 DUP3 ADD MSTORE POP JUMP JUMPDEST PUSH0 PUSH2 0x2FE1 PUSH1 0x12 DUP4 PUSH2 0x26F0 JUMP JUMPDEST SWAP2 POP PUSH2 0x2FEC DUP3 PUSH2 0x2FAD JUMP JUMPDEST PUSH1 0x20 DUP3 ADD SWAP1 POP SWAP2 SWAP1 POP JUMP JUMPDEST PUSH0 PUSH1 0x20 DUP3 ADD SWAP1 POP DUP2 DUP2 SUB PUSH0 DUP4 ADD MSTORE PUSH2 0x300E DUP2 PUSH2 0x2FD5 JUMP JUMPDEST SWAP1 POP SWAP2 SWAP1 POP JUMP JUMPDEST PUSH32 0x507572636861736520616D6F756E74206F7574206F66206C696D6974732E0000 PUSH0 DUP3 ADD MSTORE POP JUMP JUMPDEST PUSH0 PUSH2 0x3049 PUSH1 0x1E DUP4 PUSH2 0x26F0 JUMP JUMPDEST SWAP2 POP PUSH2 0x3054 DUP3 PUSH2 0x3015 JUMP JUMPDEST PUSH1 0x20 DUP3 ADD SWAP1 POP SWAP2 SWAP1 POP JUMP JUMPDEST PUSH0 PUSH1 0x20 DUP3 ADD SWAP1 POP DUP2 DUP2 SUB PUSH0 DUP4 ADD MSTORE PUSH2 0x3076 DUP2 PUSH2 0x303D JUMP JUMPDEST SWAP1 POP SWAP2 SWAP1 POP JUMP JUMPDEST PUSH32 0x45786365656473205072652D53616C6520746F6B656E206C696D69742E000000 PUSH0 DUP3 ADD MSTORE POP JUMP JUMPDEST PUSH0 PUSH2 0x30B1 PUSH1 0x1D DUP4 PUSH2 0x26F0 JUMP JUMPDEST SWAP2 POP PUSH2 0x30BC DUP3 PUSH2 0x307D JUMP JUMPDEST PUSH1 0x20 DUP3 ADD SWAP1 POP SWAP2 SWAP1 POP JUMP JUMPDEST PUSH0 PUSH1 0x20 DUP3 ADD SWAP1 POP DUP2 DUP2 SUB PUSH0 DUP4 ADD MSTORE PUSH2 0x30DE DUP2 PUSH2 0x30A5 JUMP JUMPDEST SWAP1 POP SWAP2 SWAP1 POP JUMP JUMPDEST PUSH32 0x56657374696E6720706572696F64206E6F742079657420636F6D706C65746564 PUSH0 DUP3 ADD MSTORE PUSH32 0x2E00000000000000000000000000000000000000000000000000000000000000 PUSH1 0x20 DUP3 ADD MSTORE POP JUMP JUMPDEST PUSH0 PUSH2 0x313F PUSH1 0x21 DUP4 PUSH2 0x26F0 JUMP JUMPDEST SWAP2 POP PUSH2 0x314A DUP3 PUSH2 0x30E5 JUMP JUMPDEST PUSH1 0x40 DUP3 ADD SWAP1 POP SWAP2 SWAP1 POP JUMP JUMPDEST PUSH0 PUSH1 0x20 DUP3 ADD SWAP1 POP DUP2 DUP2 SUB PUSH0 DUP4 ADD MSTORE PUSH2 0x316C DUP2 PUSH2 0x3133 JUMP JUMPDEST SWAP1 POP SWAP2 SWAP1 POP JUMP JUMPDEST PUSH32 0x4E6F2076657374656420746F6B656E7320746F2072656C656173650000000000 PUSH0 DUP3 ADD MSTORE POP JUMP JUMPDEST PUSH0 PUSH2 0x31A7 PUSH1 0x1B DUP4 PUSH2 0x26F0 JUMP JUMPDEST SWAP2 POP PUSH2 0x31B2 DUP3 PUSH2 0x3173 JUMP JUMPDEST PUSH1 0x20 DUP3 ADD SWAP1 POP SWAP2 SWAP1 POP JUMP JUMPDEST PUSH0 PUSH1 0x20 DUP3 ADD SWAP1 POP DUP2 DUP2 SUB PUSH0 DUP4 ADD MSTORE PUSH2 0x31D4 DUP2 PUSH2 0x319B JUMP JUMPDEST SWAP1 POP SWAP2 SWAP1 POP JUMP JUMPDEST PUSH32 0x5072652D53616C652063616E206F6E6C79207374617274206166746572205072 PUSH0 DUP3 ADD MSTORE PUSH32 0x69766174652053616C652E000000000000000000000000000000000000000000 PUSH1 0x20 DUP3 ADD MSTORE POP JUMP JUMPDEST PUSH0 PUSH2 0x3235 PUSH1 0x2B DUP4 PUSH2 0x26F0 JUMP JUMPDEST SWAP2 POP PUSH2 0x3240 DUP3 PUSH2 0x31DB JUMP JUMPDEST PUSH1 0x40 DUP3 ADD SWAP1 POP SWAP2 SWAP1 POP JUMP JUMPDEST PUSH0 PUSH1 0x20 DUP3 ADD SWAP1 POP DUP2 DUP2 SUB PUSH0 DUP4 ADD MSTORE PUSH2 0x3262 DUP2 PUSH2 0x3229 JUMP JUMPDEST SWAP1 POP SWAP2 SWAP1 POP JUMP JUMPDEST PUSH32 0x507269766174652053616C65206D75737420626520636F6D706C657465642062 PUSH0 DUP3 ADD MSTORE PUSH32 0x65666F7265207374617274696E67205072652D53616C652E0000000000000000 PUSH1 0x20 DUP3 ADD MSTORE POP JUMP JUMPDEST PUSH0 PUSH2 0x32C3 PUSH1 0x38 DUP4 PUSH2 0x26F0 JUMP JUMPDEST SWAP2 POP PUSH2 0x32CE DUP3 PUSH2 0x3269 JUMP JUMPDEST PUSH1 0x40 DUP3 ADD SWAP1 POP SWAP2 SWAP1 POP JUMP JUMPDEST PUSH0 PUSH1 0x20 DUP3 ADD SWAP1 POP DUP2 DUP2 SUB PUSH0 DUP4 ADD MSTORE PUSH2 0x32F0 DUP2 PUSH2 0x32B7 JUMP JUMPDEST SWAP1 POP SWAP2 SWAP1 POP JUMP JUMPDEST PUSH32 0x416D6F756E74206D7573742062652067726561746572207468616E2030000000 PUSH0 DUP3 ADD MSTORE POP JUMP JUMPDEST PUSH0 PUSH2 0x332B PUSH1 0x1D DUP4 PUSH2 0x26F0 JUMP JUMPDEST SWAP2 POP PUSH2 0x3336 DUP3 PUSH2 0x32F7 JUMP JUMPDEST PUSH1 0x20 DUP3 ADD SWAP1 POP SWAP2 SWAP1 POP JUMP JUMPDEST PUSH0 PUSH1 0x20 DUP3 ADD SWAP1 POP DUP2 DUP2 SUB PUSH0 DUP4 ADD MSTORE PUSH2 0x3358 DUP2 PUSH2 0x331F JUMP JUMPDEST SWAP1 POP SWAP2 SWAP1 POP JUMP JUMPDEST PUSH32 0x496E73756666696369656E742062616C616E636520746F207374616B65000000 PUSH0 DUP3 ADD MSTORE POP JUMP JUMPDEST PUSH0 PUSH2 0x3393 PUSH1 0x1D DUP4 PUSH2 0x26F0 JUMP JUMPDEST SWAP2 POP PUSH2 0x339E DUP3 PUSH2 0x335F JUMP JUMPDEST PUSH1 0x20 DUP3 ADD SWAP1 POP SWAP2 SWAP1 POP JUMP JUMPDEST PUSH0 PUSH1 0x20 DUP3 ADD SWAP1 POP DUP2 DUP2 SUB PUSH0 DUP4 ADD MSTORE PUSH2 0x33C0 DUP2 PUSH2 0x3387 JUMP JUMPDEST SWAP1 POP SWAP2 SWAP1 POP JUMP JUMPDEST PUSH0 PUSH1 0x40 DUP3 ADD SWAP1 POP PUSH2 0x33DA PUSH0 DUP4 ADD DUP6 PUSH2 0x2910 JUMP JUMPDEST PUSH2 0x33E7 PUSH1 0x20 DUP4 ADD DUP5 PUSH2 0x2910 JUMP JUMPDEST SWAP4 SWAP3 POP POP POP JUMP JUMPDEST PUSH32 0x4E487B7100000000000000000000000000000000000000000000000000000000 PUSH0 MSTORE PUSH1 0x32 PUSH1 0x4 MSTORE PUSH1 0x24 PUSH0 REVERT JUMPDEST PUSH0 PUSH10 0xFFFFFFFFFFFFFFFFFFFF DUP3 AND SWAP1 POP SWAP2 SWAP1 POP JUMP JUMPDEST PUSH2 0x3439 DUP2 PUSH2 0x341B JUMP JUMPDEST DUP2 EQ PUSH2 0x3443 JUMPI PUSH0 DUP1 REVERT JUMPDEST POP JUMP JUMPDEST PUSH0 DUP2 MLOAD SWAP1 POP PUSH2 0x3454 DUP2 PUSH2 0x3430 JUMP JUMPDEST SWAP3 SWAP2 POP POP JUMP JUMPDEST PUSH0 DUP2 SWAP1 POP SWAP2 SWAP1 POP JUMP JUMPDEST PUSH2 0x346C DUP2 PUSH2 0x345A JUMP JUMPDEST DUP2 EQ PUSH2 0x3476 JUMPI PUSH0 DUP1 REVERT JUMPDEST POP JUMP JUMPDEST PUSH0 DUP2 MLOAD SWAP1 POP PUSH2 0x3487 DUP2 PUSH2 0x3463 JUMP JUMPDEST SWAP3 SWAP2 POP POP JUMP JUMPDEST PUSH0 DUP2 MLOAD SWAP1 POP PUSH2 0x349B DUP2 PUSH2 0x2875 JUMP JUMPDEST SWAP3 SWAP2 POP POP JUMP JUMPDEST PUSH0 DUP1 PUSH0 DUP1 PUSH0 PUSH1 0xA0 DUP7 DUP9 SUB SLT ISZERO PUSH2 0x34BA JUMPI PUSH2 0x34B9 PUSH2 0x280E JUMP JUMPDEST JUMPDEST PUSH0 PUSH2 0x34C7 DUP9 DUP3 DUP10 ADD PUSH2 0x3446 JUMP JUMPDEST SWAP6 POP POP PUSH1 0x20 PUSH2 0x34D8 DUP9 DUP3 DUP10 ADD PUSH2 0x3479 JUMP JUMPDEST SWAP5 POP POP PUSH1 0x40 PUSH2 0x34E9 DUP9 DUP3 DUP10 ADD PUSH2 0x348D JUMP JUMPDEST SWAP4 POP POP PUSH1 0x60 PUSH2 0x34FA DUP9 DUP3 DUP10 ADD PUSH2 0x348D JUMP JUMPDEST SWAP3 POP POP PUSH1 0x80 PUSH2 0x350B DUP9 DUP3 DUP10 ADD PUSH2 0x3446 JUMP JUMPDEST SWAP2 POP POP SWAP3 SWAP6 POP SWAP3 SWAP6 SWAP1 SWAP4 POP JUMP JUMPDEST PUSH32 0x496E76616C696420707269636520646174612066726F6D206F7261636C650000 PUSH0 DUP3 ADD MSTORE POP JUMP JUMPDEST PUSH0 PUSH2 0x354C PUSH1 0x1E DUP4 PUSH2 0x26F0 JUMP JUMPDEST SWAP2 POP PUSH2 0x3557 DUP3 PUSH2 0x3518 JUMP JUMPDEST PUSH1 0x20 DUP3 ADD SWAP1 POP SWAP2 SWAP1 POP JUMP JUMPDEST PUSH0 PUSH1 0x20 DUP3 ADD SWAP1 POP DUP2 DUP2 SUB PUSH0 DUP4 ADD MSTORE PUSH2 0x3579 DUP2 PUSH2 0x3540 JUMP JUMPDEST SWAP1 POP SWAP2 SWAP1 POP JUMP JUMPDEST PUSH0 PUSH1 0x40 DUP3 ADD SWAP1 POP PUSH2 0x3593 PUSH0 DUP4 ADD DUP6 PUSH2 0x2A86 JUMP JUMPDEST PUSH2 0x35A0 PUSH1 0x20 DUP4 ADD DUP5 PUSH2 0x2910 JUMP JUMPDEST SWAP4 SWAP3 POP POP POP JUMP JUMPDEST PUSH2 0x35B0 DUP2 PUSH2 0x28DD JUMP JUMPDEST DUP2 EQ PUSH2 0x35BA JUMPI PUSH0 DUP1 REVERT JUMPDEST POP JUMP JUMPDEST PUSH0 DUP2 MLOAD SWAP1 POP PUSH2 0x35CB DUP2 PUSH2 0x35A7 JUMP JUMPDEST SWAP3 SWAP2 POP POP JUMP JUMPDEST PUSH0 PUSH1 0x20 DUP3 DUP5 SUB SLT ISZERO PUSH2 0x35E6 JUMPI PUSH2 0x35E5 PUSH2 0x280E JUMP JUMPDEST JUMPDEST PUSH0 PUSH2 0x35F3 DUP5 DUP3 DUP6 ADD PUSH2 0x35BD JUMP JUMPDEST SWAP2 POP POP SWAP3 SWAP2 POP POP JUMP JUMPDEST PUSH0 PUSH1 0x60 DUP3 ADD SWAP1 POP PUSH2 0x360F PUSH0 DUP4 ADD DUP7 PUSH2 0x2A86 JUMP JUMPDEST PUSH2 0x361C PUSH1 0x20 DUP4 ADD DUP6 PUSH2 0x2910 JUMP JUMPDEST PUSH2 0x3629 PUSH1 0x40 DUP4 ADD DUP5 PUSH2 0x2910 JUMP JUMPDEST SWAP5 SWAP4 POP POP POP POP JUMP JUMPDEST PUSH32 0x5265656E7472616E637947756172643A207265656E7472616E742063616C6C00 PUSH0 DUP3 ADD MSTORE POP JUMP JUMPDEST PUSH0 PUSH2 0x3665 PUSH1 0x1F DUP4 PUSH2 0x26F0 JUMP JUMPDEST SWAP2 POP PUSH2 0x3670 DUP3 PUSH2 0x3631 JUMP JUMPDEST PUSH1 0x20 DUP3 ADD SWAP1 POP SWAP2 SWAP1 POP JUMP JUMPDEST PUSH0 PUSH1 0x20 DUP3 ADD SWAP1 POP DUP2 DUP2 SUB PUSH0 DUP4 ADD MSTORE PUSH2 0x3692 DUP2 PUSH2 0x3659 JUMP JUMPDEST SWAP1 POP SWAP2 SWAP1 POP JUMP JUMPDEST PUSH32 0x4E487B7100000000000000000000000000000000000000000000000000000000 PUSH0 MSTORE PUSH1 0x11 PUSH1 0x4 MSTORE PUSH1 0x24 PUSH0 REVERT JUMPDEST PUSH0 PUSH2 0x36D0 DUP3 PUSH2 0x286C JUMP JUMPDEST SWAP2 POP PUSH2 0x36DB DUP4 PUSH2 0x286C JUMP JUMPDEST SWAP3 POP DUP3 DUP3 MUL PUSH2 0x36E9 DUP2 PUSH2 0x286C JUMP JUMPDEST SWAP2 POP DUP3 DUP3 DIV DUP5 EQ DUP4 ISZERO OR PUSH2 0x3700 JUMPI PUSH2 0x36FF PUSH2 0x3699 JUMP JUMPDEST JUMPDEST POP SWAP3 SWAP2 POP POP JUMP JUMPDEST PUSH32 0x4E487B7100000000000000000000000000000000000000000000000000000000 PUSH0 MSTORE PUSH1 0x12 PUSH1 0x4 MSTORE PUSH1 0x24 PUSH0 REVERT JUMPDEST PUSH0 PUSH2 0x373E DUP3 PUSH2 0x286C JUMP JUMPDEST SWAP2 POP PUSH2 0x3749 DUP4 PUSH2 0x286C JUMP JUMPDEST SWAP3 POP DUP3 PUSH2 0x3759 JUMPI PUSH2 0x3758 PUSH2 0x3707 JUMP JUMPDEST JUMPDEST DUP3 DUP3 DIV SWAP1 POP SWAP3 SWAP2 POP POP JUMP JUMPDEST PUSH32 0x55534420616D6F756E74206D7573742062652067726561746572207468616E20 PUSH0 DUP3 ADD MSTORE PUSH32 0x3000000000000000000000000000000000000000000000000000000000000000 PUSH1 0x20 DUP3 ADD MSTORE POP JUMP JUMPDEST PUSH0 PUSH2 0x37BE PUSH1 0x21 DUP4 PUSH2 0x26F0 JUMP JUMPDEST SWAP2 POP PUSH2 0x37C9 DUP3 PUSH2 0x3764 JUMP JUMPDEST PUSH1 0x40 DUP3 ADD SWAP1 POP SWAP2 SWAP1 POP JUMP JUMPDEST PUSH0 PUSH1 0x20 DUP3 ADD SWAP1 POP DUP2 DUP2 SUB PUSH0 DUP4 ADD MSTORE PUSH2 0x37EB DUP2 PUSH2 0x37B2 JUMP JUMPDEST SWAP1 POP SWAP2 SWAP1 POP JUMP JUMPDEST PUSH32 0x507269766174652053616C6520746F6B656E73206D7573742062652067726561 PUSH0 DUP3 ADD MSTORE PUSH32 0x746572207468616E203000000000000000000000000000000000000000000000 PUSH1 0x20 DUP3 ADD MSTORE POP JUMP JUMPDEST PUSH0 PUSH2 0x384C PUSH1 0x2A DUP4 PUSH2 0x26F0 JUMP JUMPDEST SWAP2 POP PUSH2 0x3857 DUP3 PUSH2 0x37F2 JUMP JUMPDEST PUSH1 0x40 DUP3 ADD SWAP1 POP SWAP2 SWAP1 POP JUMP JUMPDEST PUSH0 PUSH1 0x20 DUP3 ADD SWAP1 POP DUP2 DUP2 SUB PUSH0 DUP4 ADD MSTORE PUSH2 0x3879 DUP2 PUSH2 0x3840 JUMP JUMPDEST SWAP1 POP SWAP2 SWAP1 POP JUMP JUMPDEST PUSH32 0x507269766174652053616C6520736F6C6420746F6B656E732065786365656420 PUSH0 DUP3 ADD MSTORE PUSH32 0x617661696C61626C6520746F6B656E7300000000000000000000000000000000 PUSH1 0x20 DUP3 ADD MSTORE POP JUMP JUMPDEST PUSH0 PUSH2 0x38DA PUSH1 0x30 DUP4 PUSH2 0x26F0 JUMP JUMPDEST SWAP2 POP PUSH2 0x38E5 DUP3 PUSH2 0x3880 JUMP JUMPDEST PUSH1 0x40 DUP3 ADD SWAP1 POP SWAP2 SWAP1 POP JUMP JUMPDEST PUSH0 PUSH1 0x20 DUP3 ADD SWAP1 POP DUP2 DUP2 SUB PUSH0 DUP4 ADD MSTORE PUSH2 0x3907 DUP2 PUSH2 0x38CE JUMP JUMPDEST SWAP1 POP SWAP2 SWAP1 POP JUMP JUMPDEST PUSH32 0x496E76616C696420746F6B656E2070726963652063616C63756C617465640000 PUSH0 DUP3 ADD MSTORE POP JUMP JUMPDEST PUSH0 PUSH2 0x3942 PUSH1 0x1E DUP4 PUSH2 0x26F0 JUMP JUMPDEST SWAP2 POP PUSH2 0x394D DUP3 PUSH2 0x390E JUMP JUMPDEST PUSH1 0x20 DUP3 ADD SWAP1 POP SWAP2 SWAP1 POP JUMP JUMPDEST PUSH0 PUSH1 0x20 DUP3 ADD SWAP1 POP DUP2 DUP2 SUB PUSH0 DUP4 ADD MSTORE PUSH2 0x396F DUP2 PUSH2 0x3936 JUMP JUMPDEST SWAP1 POP SWAP2 SWAP1 POP JUMP JUMPDEST PUSH32 0x43616C63756C6174656420746F6B656E73206D75737420626520677265617465 PUSH0 DUP3 ADD MSTORE PUSH32 0x72207468616E2030000000000000000000000000000000000000000000000000 PUSH1 0x20 DUP3 ADD MSTORE POP JUMP JUMPDEST PUSH0 PUSH2 0x39D0 PUSH1 0x28 DUP4 PUSH2 0x26F0 JUMP JUMPDEST SWAP2 POP PUSH2 0x39DB DUP3 PUSH2 0x3976 JUMP JUMPDEST PUSH1 0x40 DUP3 ADD SWAP1 POP SWAP2 SWAP1 POP JUMP JUMPDEST PUSH0 PUSH1 0x20 DUP3 ADD SWAP1 POP DUP2 DUP2 SUB PUSH0 DUP4 ADD MSTORE PUSH2 0x39FD DUP2 PUSH2 0x39C4 JUMP JUMPDEST SWAP1 POP SWAP2 SWAP1 POP JUMP JUMPDEST PUSH0 PUSH2 0x3A0E DUP3 PUSH2 0x286C JUMP JUMPDEST SWAP2 POP PUSH2 0x3A19 DUP4 PUSH2 0x286C JUMP JUMPDEST SWAP3 POP DUP3 DUP3 ADD SWAP1 POP DUP1 DUP3 GT ISZERO PUSH2 0x3A31 JUMPI PUSH2 0x3A30 PUSH2 0x3699 JUMP JUMPDEST JUMPDEST SWAP3 SWAP2 POP POP JUMP JUMPDEST PUSH0 PUSH2 0x3A41 DUP3 PUSH2 0x286C JUMP JUMPDEST SWAP2 POP PUSH2 0x3A4C DUP4 PUSH2 0x286C JUMP JUMPDEST SWAP3 POP DUP3 DUP3 SUB SWAP1 POP DUP2 DUP2 GT ISZERO PUSH2 0x3A64 JUMPI PUSH2 0x3A63 PUSH2 0x3699 JUMP JUMPDEST JUMPDEST SWAP3 SWAP2 POP POP JUMP INVALID LOG2 PUSH5 0x6970667358 0x22 SLT KECCAK256 CALL 0xB8 DUP5 OR CHAINID STATICCALL LOG3 0xD8 MSTORE8 0xAB MULMOD LOG0 SWAP3 PUSH8 0x2CAF5C2942261C27 SWAP5 STATICCALL 0xB5 EXP 0xF7 PUSH1 0xC2 0xB4 0x2B 0xC5 PUSH5 0x736F6C6343 STOP ADDMOD BYTE STOP CALLER "
				},
				"gasEstimates": {
					"creation": {
						"codeDepositCost": "3001600",
						"executionCost": "infinite",
						"totalCost": "infinite"
					},
					"external": {
						"": "531",
						"TOTAL_SUPPLY()": "392",
						"allowance(address,address)": "infinite",
						"approve(address,uint256)": "infinite",
						"balanceOf(address)": "2962",
						"buyTokens(uint256)": "infinite",
						"decimals()": "406",
						"emergencyWithdraw(address,uint256)": "infinite",
						"getLatestPrice()": "infinite",
						"haltSales()": "infinite",
						"name()": "infinite",
						"owner()": "2605",
						"preSaleEndPrice()": "2470",
						"preSaleSoldTokens()": "2514",
						"preSaleStartPrice()": "2514",
						"preSaleTarget()": "2535",
						"preSaleTokens()": "2516",
						"priceFeeds(uint256)": "infinite",
						"privateSaleEndPrice()": "2558",
						"privateSaleSoldTokens()": "2536",
						"privateSaleStartPrice()": "2492",
						"privateSaleTarget()": "2536",
						"privateSaleTokens()": "2491",
						"releaseVestedTokens()": "infinite",
						"renounceOwnership()": "infinite",
						"stage()": "2598",
						"stakeDuration()": "2470",
						"stakeTokens(uint256)": "infinite",
						"startPreSale()": "infinite",
						"startPrivateSale()": "infinite",
						"symbol()": "infinite",
						"totalSupply()": "2500",
						"transfer(address,uint256)": "infinite",
						"transferFrom(address,address,uint256)": "infinite",
						"transferOwnership(address)": "infinite",
						"vestingBalance(address)": "2892",
						"vestingDuration()": "2471",
						"vestingReleaseTime(address)": "2848",
						"withdrawFunds()": "infinite"
					},
					"internal": {
						"calculatePreSaleTokens(uint256)": "infinite",
						"calculatePrivateSaleTokens(uint256)": "infinite"
					}
				},
				"methodIdentifiers": {
					"TOTAL_SUPPLY()": "902d55a5",
					"allowance(address,address)": "dd62ed3e",
					"approve(address,uint256)": "095ea7b3",
					"balanceOf(address)": "70a08231",
					"buyTokens(uint256)": "3610724e",
					"decimals()": "313ce567",
					"emergencyWithdraw(address,uint256)": "95ccea67",
					"getLatestPrice()": "8e15f473",
					"haltSales()": "32c85ac0",
					"name()": "06fdde03",
					"owner()": "8da5cb5b",
					"preSaleEndPrice()": "8f7713ff",
					"preSaleSoldTokens()": "b68ed11f",
					"preSaleStartPrice()": "920168b3",
					"preSaleTarget()": "e6bd92b9",
					"preSaleTokens()": "0fe83bb8",
					"priceFeeds(uint256)": "10c7f0b9",
					"privateSaleEndPrice()": "bda95633",
					"privateSaleSoldTokens()": "5fb3b944",
					"privateSaleStartPrice()": "b0e68630",
					"privateSaleTarget()": "ba20cf4c",
					"privateSaleTokens()": "c552e04b",
					"releaseVestedTokens()": "54dd1da4",
					"renounceOwnership()": "715018a6",
					"stage()": "c040e6b8",
					"stakeDuration()": "40f02ab6",
					"stakeTokens(uint256)": "7547c7a3",
					"startPreSale()": "55dd574c",
					"startPrivateSale()": "338dbf59",
					"symbol()": "95d89b41",
					"totalSupply()": "18160ddd",
					"transfer(address,uint256)": "a9059cbb",
					"transferFrom(address,address,uint256)": "23b872dd",
					"transferOwnership(address)": "f2fde38b",
					"vestingBalance(address)": "192399d1",
					"vestingDuration()": "1514617e",
					"vestingReleaseTime(address)": "2b1cbc38",
					"withdrawFunds()": "24600fc3"
				}
			},
			"storageLayout": {
				"storage": [
					{
						"astId": 418,
						"contract": "contracts/bettoken.sol:Bettoken",
						"label": "_balances",
						"offset": 0,
						"slot": "0",
						"type": "t_mapping(t_address,t_uint256)"
					},
					{
						"astId": 424,
						"contract": "contracts/bettoken.sol:Bettoken",
						"label": "_allowances",
						"offset": 0,
						"slot": "1",
						"type": "t_mapping(t_address,t_mapping(t_address,t_uint256))"
					},
					{
						"astId": 426,
						"contract": "contracts/bettoken.sol:Bettoken",
						"label": "_totalSupply",
						"offset": 0,
						"slot": "2",
						"type": "t_uint256"
					},
					{
						"astId": 428,
						"contract": "contracts/bettoken.sol:Bettoken",
						"label": "_name",
						"offset": 0,
						"slot": "3",
						"type": "t_string_storage"
					},
					{
						"astId": 430,
						"contract": "contracts/bettoken.sol:Bettoken",
						"label": "_symbol",
						"offset": 0,
						"slot": "4",
						"type": "t_string_storage"
					},
					{
						"astId": 54,
						"contract": "contracts/bettoken.sol:Bettoken",
						"label": "_owner",
						"offset": 0,
						"slot": "5",
						"type": "t_address"
					},
					{
						"astId": 341,
						"contract": "contracts/bettoken.sol:Bettoken",
						"label": "_status",
						"offset": 0,
						"slot": "6",
						"type": "t_uint256"
					},
					{
						"astId": 1386,
						"contract": "contracts/bettoken.sol:Bettoken",
						"label": "privateSaleTarget",
						"offset": 0,
						"slot": "7",
						"type": "t_uint256"
					},
					{
						"astId": 1393,
						"contract": "contracts/bettoken.sol:Bettoken",
						"label": "privateSaleTokens",
						"offset": 0,
						"slot": "8",
						"type": "t_uint256"
					},
					{
						"astId": 1400,
						"contract": "contracts/bettoken.sol:Bettoken",
						"label": "privateSaleStartPrice",
						"offset": 0,
						"slot": "9",
						"type": "t_uint256"
					},
					{
						"astId": 1407,
						"contract": "contracts/bettoken.sol:Bettoken",
						"label": "privateSaleEndPrice",
						"offset": 0,
						"slot": "10",
						"type": "t_uint256"
					},
					{
						"astId": 1410,
						"contract": "contracts/bettoken.sol:Bettoken",
						"label": "privateSaleSoldTokens",
						"offset": 0,
						"slot": "11",
						"type": "t_uint256"
					},
					{
						"astId": 1417,
						"contract": "contracts/bettoken.sol:Bettoken",
						"label": "preSaleTarget",
						"offset": 0,
						"slot": "12",
						"type": "t_uint256"
					},
					{
						"astId": 1424,
						"contract": "contracts/bettoken.sol:Bettoken",
						"label": "preSaleTokens",
						"offset": 0,
						"slot": "13",
						"type": "t_uint256"
					},
					{
						"astId": 1431,
						"contract": "contracts/bettoken.sol:Bettoken",
						"label": "preSaleStartPrice",
						"offset": 0,
						"slot": "14",
						"type": "t_uint256"
					},
					{
						"astId": 1438,
						"contract": "contracts/bettoken.sol:Bettoken",
						"label": "preSaleEndPrice",
						"offset": 0,
						"slot": "15",
						"type": "t_uint256"
					},
					{
						"astId": 1441,
						"contract": "contracts/bettoken.sol:Bettoken",
						"label": "preSaleSoldTokens",
						"offset": 0,
						"slot": "16",
						"type": "t_uint256"
					},
					{
						"astId": 1450,
						"contract": "contracts/bettoken.sol:Bettoken",
						"label": "stage",
						"offset": 0,
						"slot": "17",
						"type": "t_enum(SaleStage)1445"
					},
					{
						"astId": 1454,
						"contract": "contracts/bettoken.sol:Bettoken",
						"label": "vestingBalance",
						"offset": 0,
						"slot": "18",
						"type": "t_mapping(t_address,t_uint256)"
					},
					{
						"astId": 1458,
						"contract": "contracts/bettoken.sol:Bettoken",
						"label": "vestingReleaseTime",
						"offset": 0,
						"slot": "19",
						"type": "t_mapping(t_address,t_uint256)"
					},
					{
						"astId": 1461,
						"contract": "contracts/bettoken.sol:Bettoken",
						"label": "vestingDuration",
						"offset": 0,
						"slot": "20",
						"type": "t_uint256"
					},
					{
						"astId": 1464,
						"contract": "contracts/bettoken.sol:Bettoken",
						"label": "stakeDuration",
						"offset": 0,
						"slot": "21",
						"type": "t_uint256"
					},
					{
						"astId": 1468,
						"contract": "contracts/bettoken.sol:Bettoken",
						"label": "priceFeeds",
						"offset": 0,
						"slot": "22",
						"type": "t_array(t_contract(AggregatorV3Interface)45)dyn_storage"
					}
				],
				"types": {
					"t_address": {
						"encoding": "inplace",
						"label": "address",
						"numberOfBytes": "20"
					},
					"t_array(t_contract(AggregatorV3Interface)45)dyn_storage": {
						"base": "t_contract(AggregatorV3Interface)45",
						"encoding": "dynamic_array",
						"label": "contract AggregatorV3Interface[]",
						"numberOfBytes": "32"
					},
					"t_contract(AggregatorV3Interface)45": {
						"encoding": "inplace",
						"label": "contract AggregatorV3Interface",
						"numberOfBytes": "20"
					},
					"t_enum(SaleStage)1445": {
						"encoding": "inplace",
						"label": "enum Bettoken.SaleStage",
						"numberOfBytes": "1"
					},
					"t_mapping(t_address,t_mapping(t_address,t_uint256))": {
						"encoding": "mapping",
						"key": "t_address",
						"label": "mapping(address => mapping(address => uint256))",
						"numberOfBytes": "32",
						"value": "t_mapping(t_address,t_uint256)"
					},
					"t_mapping(t_address,t_uint256)": {
						"encoding": "mapping",
						"key": "t_address",
						"label": "mapping(address => uint256)",
						"numberOfBytes": "32",
						"value": "t_uint256"
					},
					"t_string_storage": {
						"encoding": "bytes",
						"label": "string",
						"numberOfBytes": "32"
					},
					"t_uint256": {
						"encoding": "inplace",
						"label": "uint256",
						"numberOfBytes": "32"
					}
				}
			},
			"userdoc": {
				"kind": "user",
				"methods": {},
				"version": 1
			}
		}
	}
}