{
	"contracts/bet.sol": {
		"Bettoken": {
			"abi": [
				{
					"inputs": [],
					"stateMutability": "nonpayable",
					"type": "constructor"
				},
				{
					"inputs": [
						{
							"internalType": "address",
							"name": "spender",
							"type": "address"
						},
						{
							"internalType": "uint256",
							"name": "allowance",
							"type": "uint256"
						},
						{
							"internalType": "uint256",
							"name": "needed",
							"type": "uint256"
						}
					],
					"name": "ERC20InsufficientAllowance",
					"type": "error"
				},
				{
					"inputs": [
						{
							"internalType": "address",
							"name": "sender",
							"type": "address"
						},
						{
							"internalType": "uint256",
							"name": "balance",
							"type": "uint256"
						},
						{
							"internalType": "uint256",
							"name": "needed",
							"type": "uint256"
						}
					],
					"name": "ERC20InsufficientBalance",
					"type": "error"
				},
				{
					"inputs": [
						{
							"internalType": "address",
							"name": "approver",
							"type": "address"
						}
					],
					"name": "ERC20InvalidApprover",
					"type": "error"
				},
				{
					"inputs": [
						{
							"internalType": "address",
							"name": "receiver",
							"type": "address"
						}
					],
					"name": "ERC20InvalidReceiver",
					"type": "error"
				},
				{
					"inputs": [
						{
							"internalType": "address",
							"name": "sender",
							"type": "address"
						}
					],
					"name": "ERC20InvalidSender",
					"type": "error"
				},
				{
					"inputs": [
						{
							"internalType": "address",
							"name": "spender",
							"type": "address"
						}
					],
					"name": "ERC20InvalidSpender",
					"type": "error"
				},
				{
					"inputs": [
						{
							"internalType": "address",
							"name": "owner",
							"type": "address"
						}
					],
					"name": "OwnableInvalidOwner",
					"type": "error"
				},
				{
					"inputs": [
						{
							"internalType": "address",
							"name": "account",
							"type": "address"
						}
					],
					"name": "OwnableUnauthorizedAccount",
					"type": "error"
				},
				{
					"anonymous": false,
					"inputs": [
						{
							"indexed": true,
							"internalType": "address",
							"name": "affiliate",
							"type": "address"
						},
						{
							"indexed": false,
							"internalType": "uint256",
							"name": "reward",
							"type": "uint256"
						}
					],
					"name": "AffiliateRewardPaid",
					"type": "event"
				},
				{
					"anonymous": false,
					"inputs": [
						{
							"indexed": true,
							"internalType": "address",
							"name": "owner",
							"type": "address"
						},
						{
							"indexed": true,
							"internalType": "address",
							"name": "spender",
							"type": "address"
						},
						{
							"indexed": false,
							"internalType": "uint256",
							"name": "value",
							"type": "uint256"
						}
					],
					"name": "Approval",
					"type": "event"
				},
				{
					"anonymous": false,
					"inputs": [
						{
							"indexed": false,
							"internalType": "uint256",
							"name": "amount",
							"type": "uint256"
						}
					],
					"name": "ETHWithdrawn",
					"type": "event"
				},
				{
					"anonymous": false,
					"inputs": [
						{
							"indexed": true,
							"internalType": "address",
							"name": "previousOwner",
							"type": "address"
						},
						{
							"indexed": true,
							"internalType": "address",
							"name": "newOwner",
							"type": "address"
						}
					],
					"name": "OwnershipTransferred",
					"type": "event"
				},
				{
					"anonymous": false,
					"inputs": [
						{
							"indexed": false,
							"internalType": "address",
							"name": "account",
							"type": "address"
						}
					],
					"name": "Paused",
					"type": "event"
				},
				{
					"anonymous": false,
					"inputs": [
						{
							"indexed": true,
							"internalType": "address",
							"name": "buyer",
							"type": "address"
						},
						{
							"indexed": false,
							"internalType": "uint256",
							"name": "amount",
							"type": "uint256"
						}
					],
					"name": "PrivateSale",
					"type": "event"
				},
				{
					"anonymous": false,
					"inputs": [],
					"name": "PrivateSaleEnded",
					"type": "event"
				},
				{
					"anonymous": false,
					"inputs": [
						{
							"indexed": false,
							"internalType": "uint256",
							"name": "affiliateRewardPercentage",
							"type": "uint256"
						},
						{
							"indexed": false,
							"internalType": "uint256",
							"name": "startTime",
							"type": "uint256"
						}
					],
					"name": "PrivateSaleStarted",
					"type": "event"
				},
				{
					"anonymous": false,
					"inputs": [
						{
							"indexed": true,
							"internalType": "address",
							"name": "staker",
							"type": "address"
						},
						{
							"indexed": false,
							"internalType": "uint256",
							"name": "amount",
							"type": "uint256"
						},
						{
							"indexed": false,
							"internalType": "uint256",
							"name": "releaseTime",
							"type": "uint256"
						}
					],
					"name": "TokensStaked",
					"type": "event"
				},
				{
					"anonymous": false,
					"inputs": [
						{
							"indexed": false,
							"internalType": "uint256",
							"name": "amount",
							"type": "uint256"
						}
					],
					"name": "TokensWithdrawn",
					"type": "event"
				},
				{
					"anonymous": false,
					"inputs": [
						{
							"indexed": true,
							"internalType": "address",
							"name": "from",
							"type": "address"
						},
						{
							"indexed": true,
							"internalType": "address",
							"name": "to",
							"type": "address"
						},
						{
							"indexed": false,
							"internalType": "uint256",
							"name": "value",
							"type": "uint256"
						}
					],
					"name": "Transfer",
					"type": "event"
				},
				{
					"anonymous": false,
					"inputs": [
						{
							"indexed": false,
							"internalType": "address",
							"name": "account",
							"type": "address"
						}
					],
					"name": "Unpaused",
					"type": "event"
				},
				{
					"anonymous": false,
					"inputs": [
						{
							"indexed": true,
							"internalType": "address",
							"name": "beneficiary",
							"type": "address"
						},
						{
							"indexed": false,
							"internalType": "uint256",
							"name": "amount",
							"type": "uint256"
						}
					],
					"name": "VestedTokensReleased",
					"type": "event"
				},
				{
					"anonymous": false,
					"inputs": [
						{
							"indexed": true,
							"internalType": "address",
							"name": "_address",
							"type": "address"
						}
					],
					"name": "WhitelistedAddressAdded",
					"type": "event"
				},
				{
					"anonymous": false,
					"inputs": [
						{
							"indexed": true,
							"internalType": "address",
							"name": "_address",
							"type": "address"
						}
					],
					"name": "WhitelistedAddressRemoved",
					"type": "event"
				},
				{
					"inputs": [],
					"name": "TOTAL_SUPPLY",
					"outputs": [
						{
							"internalType": "uint256",
							"name": "",
							"type": "uint256"
						}
					],
					"stateMutability": "view",
					"type": "function"
				},
				{
					"inputs": [
						{
							"internalType": "address",
							"name": "user",
							"type": "address"
						},
						{
							"internalType": "string",
							"name": "code",
							"type": "string"
						}
					],
					"name": "addAffiliate",
					"outputs": [],
					"stateMutability": "nonpayable",
					"type": "function"
				},
				{
					"inputs": [
						{
							"internalType": "address",
							"name": "_address",
							"type": "address"
						}
					],
					"name": "addToWhitelist",
					"outputs": [],
					"stateMutability": "nonpayable",
					"type": "function"
				},
				{
					"inputs": [
						{
							"internalType": "string",
							"name": "",
							"type": "string"
						}
					],
					"name": "affiliateCodes",
					"outputs": [
						{
							"internalType": "address",
							"name": "",
							"type": "address"
						}
					],
					"stateMutability": "view",
					"type": "function"
				},
				{
					"inputs": [],
					"name": "affiliateRewardPercentage",
					"outputs": [
						{
							"internalType": "uint256",
							"name": "",
							"type": "uint256"
						}
					],
					"stateMutability": "view",
					"type": "function"
				},
				{
					"inputs": [
						{
							"internalType": "address",
							"name": "owner",
							"type": "address"
						},
						{
							"internalType": "address",
							"name": "spender",
							"type": "address"
						}
					],
					"name": "allowance",
					"outputs": [
						{
							"internalType": "uint256",
							"name": "",
							"type": "uint256"
						}
					],
					"stateMutability": "view",
					"type": "function"
				},
				{
					"inputs": [
						{
							"internalType": "address",
							"name": "spender",
							"type": "address"
						},
						{
							"internalType": "uint256",
							"name": "value",
							"type": "uint256"
						}
					],
					"name": "approve",
					"outputs": [
						{
							"internalType": "bool",
							"name": "",
							"type": "bool"
						}
					],
					"stateMutability": "nonpayable",
					"type": "function"
				},
				{
					"inputs": [
						{
							"internalType": "address",
							"name": "account",
							"type": "address"
						}
					],
					"name": "balanceOf",
					"outputs": [
						{
							"internalType": "uint256",
							"name": "",
							"type": "uint256"
						}
					],
					"stateMutability": "view",
					"type": "function"
				},
				{
					"inputs": [
						{
							"internalType": "uint256",
							"name": "usdAmount",
							"type": "uint256"
						},
						{
							"internalType": "string",
							"name": "affiliateCode",
							"type": "string"
						}
					],
					"name": "buyTokens",
					"outputs": [],
					"stateMutability": "payable",
					"type": "function"
				},
				{
					"inputs": [
						{
							"internalType": "uint256",
							"name": "usdAmount",
							"type": "uint256"
						}
					],
					"name": "calculateTokens",
					"outputs": [
						{
							"internalType": "uint256",
							"name": "",
							"type": "uint256"
						}
					],
					"stateMutability": "view",
					"type": "function"
				},
				{
					"inputs": [],
					"name": "decimals",
					"outputs": [
						{
							"internalType": "uint8",
							"name": "",
							"type": "uint8"
						}
					],
					"stateMutability": "view",
					"type": "function"
				},
				{
					"inputs": [],
					"name": "endPrivateSale",
					"outputs": [],
					"stateMutability": "nonpayable",
					"type": "function"
				},
				{
					"inputs": [],
					"name": "getPrivateSaleStartTime",
					"outputs": [
						{
							"internalType": "uint256",
							"name": "",
							"type": "uint256"
						}
					],
					"stateMutability": "view",
					"type": "function"
				},
				{
					"inputs": [],
					"name": "maxTokensPerTransactionPrivateSale",
					"outputs": [
						{
							"internalType": "uint256",
							"name": "",
							"type": "uint256"
						}
					],
					"stateMutability": "view",
					"type": "function"
				},
				{
					"inputs": [],
					"name": "maxTokensPerUser",
					"outputs": [
						{
							"internalType": "uint256",
							"name": "",
							"type": "uint256"
						}
					],
					"stateMutability": "view",
					"type": "function"
				},
				{
					"inputs": [],
					"name": "minTokensPerUserPrivateSale",
					"outputs": [
						{
							"internalType": "uint256",
							"name": "",
							"type": "uint256"
						}
					],
					"stateMutability": "view",
					"type": "function"
				},
				{
					"inputs": [],
					"name": "minimumUsdAmount",
					"outputs": [
						{
							"internalType": "uint256",
							"name": "",
							"type": "uint256"
						}
					],
					"stateMutability": "view",
					"type": "function"
				},
				{
					"inputs": [],
					"name": "name",
					"outputs": [
						{
							"internalType": "string",
							"name": "",
							"type": "string"
						}
					],
					"stateMutability": "view",
					"type": "function"
				},
				{
					"inputs": [],
					"name": "owner",
					"outputs": [
						{
							"internalType": "address",
							"name": "",
							"type": "address"
						}
					],
					"stateMutability": "view",
					"type": "function"
				},
				{
					"inputs": [],
					"name": "paused",
					"outputs": [
						{
							"internalType": "bool",
							"name": "",
							"type": "bool"
						}
					],
					"stateMutability": "view",
					"type": "function"
				},
				{
					"inputs": [],
					"name": "privateSaleActive",
					"outputs": [
						{
							"internalType": "bool",
							"name": "",
							"type": "bool"
						}
					],
					"stateMutability": "view",
					"type": "function"
				},
				{
					"inputs": [],
					"name": "privateSaleEndPrice",
					"outputs": [
						{
							"internalType": "uint256",
							"name": "",
							"type": "uint256"
						}
					],
					"stateMutability": "view",
					"type": "function"
				},
				{
					"inputs": [],
					"name": "privateSaleSoldTokens",
					"outputs": [
						{
							"internalType": "uint256",
							"name": "",
							"type": "uint256"
						}
					],
					"stateMutability": "view",
					"type": "function"
				},
				{
					"inputs": [],
					"name": "privateSaleStartPrice",
					"outputs": [
						{
							"internalType": "uint256",
							"name": "",
							"type": "uint256"
						}
					],
					"stateMutability": "view",
					"type": "function"
				},
				{
					"inputs": [],
					"name": "privateSaleStartTime",
					"outputs": [
						{
							"internalType": "uint256",
							"name": "",
							"type": "uint256"
						}
					],
					"stateMutability": "view",
					"type": "function"
				},
				{
					"inputs": [],
					"name": "privateSaleTokens",
					"outputs": [
						{
							"internalType": "uint256",
							"name": "",
							"type": "uint256"
						}
					],
					"stateMutability": "view",
					"type": "function"
				},
				{
					"inputs": [],
					"name": "releaseVestedTokens",
					"outputs": [],
					"stateMutability": "nonpayable",
					"type": "function"
				},
				{
					"inputs": [
						{
							"internalType": "address",
							"name": "_address",
							"type": "address"
						}
					],
					"name": "removeFromWhitelist",
					"outputs": [],
					"stateMutability": "nonpayable",
					"type": "function"
				},
				{
					"inputs": [],
					"name": "renounceOwnership",
					"outputs": [],
					"stateMutability": "nonpayable",
					"type": "function"
				},
				{
					"inputs": [
						{
							"internalType": "uint256",
							"name": "_percentage",
							"type": "uint256"
						}
					],
					"name": "setAffiliateRewardPercentage",
					"outputs": [],
					"stateMutability": "nonpayable",
					"type": "function"
				},
				{
					"inputs": [
						{
							"internalType": "uint256",
							"name": "_minTokensPrivateSale",
							"type": "uint256"
						},
						{
							"internalType": "uint256",
							"name": "_maxTokensPrivateSale",
							"type": "uint256"
						}
					],
					"name": "setPrivateSaleTokenLimits",
					"outputs": [],
					"stateMutability": "nonpayable",
					"type": "function"
				},
				{
					"inputs": [],
					"name": "stakeDuration",
					"outputs": [
						{
							"internalType": "uint256",
							"name": "",
							"type": "uint256"
						}
					],
					"stateMutability": "view",
					"type": "function"
				},
				{
					"inputs": [
						{
							"internalType": "uint256",
							"name": "_affiliateRewardPercentage",
							"type": "uint256"
						}
					],
					"name": "startPrivateSale",
					"outputs": [],
					"stateMutability": "nonpayable",
					"type": "function"
				},
				{
					"inputs": [],
					"name": "symbol",
					"outputs": [
						{
							"internalType": "string",
							"name": "",
							"type": "string"
						}
					],
					"stateMutability": "view",
					"type": "function"
				},
				{
					"inputs": [],
					"name": "totalSupply",
					"outputs": [
						{
							"internalType": "uint256",
							"name": "",
							"type": "uint256"
						}
					],
					"stateMutability": "view",
					"type": "function"
				},
				{
					"inputs": [
						{
							"internalType": "address",
							"name": "to",
							"type": "address"
						},
						{
							"internalType": "uint256",
							"name": "value",
							"type": "uint256"
						}
					],
					"name": "transfer",
					"outputs": [
						{
							"internalType": "bool",
							"name": "",
							"type": "bool"
						}
					],
					"stateMutability": "nonpayable",
					"type": "function"
				},
				{
					"inputs": [
						{
							"internalType": "address",
							"name": "from",
							"type": "address"
						},
						{
							"internalType": "address",
							"name": "to",
							"type": "address"
						},
						{
							"internalType": "uint256",
							"name": "value",
							"type": "uint256"
						}
					],
					"name": "transferFrom",
					"outputs": [
						{
							"internalType": "bool",
							"name": "",
							"type": "bool"
						}
					],
					"stateMutability": "nonpayable",
					"type": "function"
				},
				{
					"inputs": [
						{
							"internalType": "address",
							"name": "newOwner",
							"type": "address"
						}
					],
					"name": "transferOwnership",
					"outputs": [],
					"stateMutability": "nonpayable",
					"type": "function"
				},
				{
					"inputs": [
						{
							"internalType": "address",
							"name": "",
							"type": "address"
						}
					],
					"name": "userToAffiliateCode",
					"outputs": [
						{
							"internalType": "string",
							"name": "",
							"type": "string"
						}
					],
					"stateMutability": "view",
					"type": "function"
				},
				{
					"inputs": [],
					"name": "vestingDuration",
					"outputs": [
						{
							"internalType": "uint256",
							"name": "",
							"type": "uint256"
						}
					],
					"stateMutability": "view",
					"type": "function"
				},
				{
					"inputs": [],
					"name": "vestingInterval",
					"outputs": [
						{
							"internalType": "uint256",
							"name": "",
							"type": "uint256"
						}
					],
					"stateMutability": "view",
					"type": "function"
				},
				{
					"inputs": [
						{
							"internalType": "address",
							"name": "",
							"type": "address"
						}
					],
					"name": "vestingSchedules",
					"outputs": [
						{
							"internalType": "uint256",
							"name": "totalAmount",
							"type": "uint256"
						},
						{
							"internalType": "uint256",
							"name": "releasedAmount",
							"type": "uint256"
						},
						{
							"internalType": "uint256",
							"name": "startTime",
							"type": "uint256"
						},
						{
							"internalType": "uint256",
							"name": "duration",
							"type": "uint256"
						},
						{
							"internalType": "uint256",
							"name": "interval",
							"type": "uint256"
						}
					],
					"stateMutability": "view",
					"type": "function"
				},
				{
					"inputs": [
						{
							"internalType": "address",
							"name": "",
							"type": "address"
						}
					],
					"name": "whitelist",
					"outputs": [
						{
							"internalType": "bool",
							"name": "",
							"type": "bool"
						}
					],
					"stateMutability": "view",
					"type": "function"
				},
				{
					"inputs": [],
					"name": "withdrawETH",
					"outputs": [],
					"stateMutability": "nonpayable",
					"type": "function"
				},
				{
					"inputs": [],
					"name": "withdrawTokens",
					"outputs": [],
					"stateMutability": "nonpayable",
					"type": "function"
				}
			],
			"devdoc": {
				"errors": {
					"ERC20InsufficientAllowance(address,uint256,uint256)": [
						{
							"details": "Indicates a failure with the `spender`’s `allowance`. Used in transfers.",
							"params": {
								"allowance": "Amount of tokens a `spender` is allowed to operate with.",
								"needed": "Minimum amount required to perform a transfer.",
								"spender": "Address that may be allowed to operate on tokens without being their owner."
							}
						}
					],
					"ERC20InsufficientBalance(address,uint256,uint256)": [
						{
							"details": "Indicates an error related to the current `balance` of a `sender`. Used in transfers.",
							"params": {
								"balance": "Current balance for the interacting account.",
								"needed": "Minimum amount required to perform a transfer.",
								"sender": "Address whose tokens are being transferred."
							}
						}
					],
					"ERC20InvalidApprover(address)": [
						{
							"details": "Indicates a failure with the `approver` of a token to be approved. Used in approvals.",
							"params": {
								"approver": "Address initiating an approval operation."
							}
						}
					],
					"ERC20InvalidReceiver(address)": [
						{
							"details": "Indicates a failure with the token `receiver`. Used in transfers.",
							"params": {
								"receiver": "Address to which tokens are being transferred."
							}
						}
					],
					"ERC20InvalidSender(address)": [
						{
							"details": "Indicates a failure with the token `sender`. Used in transfers.",
							"params": {
								"sender": "Address whose tokens are being transferred."
							}
						}
					],
					"ERC20InvalidSpender(address)": [
						{
							"details": "Indicates a failure with the `spender` to be approved. Used in approvals.",
							"params": {
								"spender": "Address that may be allowed to operate on tokens without being their owner."
							}
						}
					],
					"OwnableInvalidOwner(address)": [
						{
							"details": "The owner is not a valid owner account. (eg. `address(0)`)"
						}
					],
					"OwnableUnauthorizedAccount(address)": [
						{
							"details": "The caller account is not authorized to perform an operation."
						}
					]
				},
				"events": {
					"Approval(address,address,uint256)": {
						"details": "Emitted when the allowance of a `spender` for an `owner` is set by a call to {approve}. `value` is the new allowance."
					},
					"Paused(address)": {
						"details": "Emitted when the pause is triggered by `account`."
					},
					"Transfer(address,address,uint256)": {
						"details": "Emitted when `value` tokens are moved from one account (`from`) to another (`to`). Note that `value` may be zero."
					},
					"Unpaused(address)": {
						"details": "Emitted when the pause is lifted by `account`."
					}
				},
				"kind": "dev",
				"methods": {
					"addAffiliate(address,string)": {
						"details": "Affiliate kodu atar. Bu fonksiyon sadece kontrat sahibi tarafından çağrılabilir.",
						"params": {
							"code": "Kullanıcıya atanacak affiliate kodu.",
							"user": "Affiliate kodu atanacak kullanıcı."
						}
					},
					"addToWhitelist(address)": {
						"details": "Whitelist'e adres ekler. Bu fonksiyon sadece kontrat sahibi tarafından çağrılabilir.",
						"params": {
							"_address": "Whitelist'e eklenecek adres."
						}
					},
					"allowance(address,address)": {
						"details": "See {IERC20-allowance}."
					},
					"approve(address,uint256)": {
						"details": "See {IERC20-approve}. NOTE: If `value` is the maximum `uint256`, the allowance is not updated on `transferFrom`. This is semantically equivalent to an infinite approval. Requirements: - `spender` cannot be the zero address."
					},
					"balanceOf(address)": {
						"details": "See {IERC20-balanceOf}."
					},
					"buyTokens(uint256,string)": {
						"details": "Token satın alma işlemi yapar. Private Sale sırasında whitelist'e ekli kullanıcılar satın alabilir.",
						"params": {
							"affiliateCode": "Kullanıcı tarafından girilen affiliate kodu (isteğe bağlı).",
							"usdAmount": "Satın alınacak token miktarı (USD cinsinden)."
						}
					},
					"calculateTokens(uint256)": {
						"details": "USD miktarına göre satın alınabilecek token miktarını hesaplar.",
						"params": {
							"usdAmount": "Satın alınacak token miktarının hesaplanacağı USD miktarı."
						},
						"returns": {
							"_0": "Satın alınacak token miktarı."
						}
					},
					"decimals()": {
						"details": "Returns the number of decimals used to get its user representation. For example, if `decimals` equals `2`, a balance of `505` tokens should be displayed to a user as `5.05` (`505 / 10 ** 2`). Tokens usually opt for a value of 18, imitating the relationship between Ether and Wei. This is the default value returned by this function, unless it's overridden. NOTE: This information is only used for _display_ purposes: it in no way affects any of the arithmetic of the contract, including {IERC20-balanceOf} and {IERC20-transfer}."
					},
					"endPrivateSale()": {
						"details": "Private Sale'i sonlandırır. Bu fonksiyon sadece kontrat sahibi tarafından çağrılabilir."
					},
					"getPrivateSaleStartTime()": {
						"details": "Private Sale'in başlangıç zamanını döner.",
						"returns": {
							"_0": "Private Sale başlangıç zamanı (timestamp)."
						}
					},
					"name()": {
						"details": "Returns the name of the token."
					},
					"owner()": {
						"details": "Returns the address of the current owner."
					},
					"paused()": {
						"details": "Returns true if the contract is paused, and false otherwise."
					},
					"releaseVestedTokens()": {
						"details": "Vesting yapılmış tokenları serbest bırakır."
					},
					"removeFromWhitelist(address)": {
						"details": "Whitelist'ten adres çıkarır. Bu fonksiyon sadece kontrat sahibi tarafından çağrılabilir.",
						"params": {
							"_address": "Whitelist'ten çıkarılacak adres."
						}
					},
					"renounceOwnership()": {
						"details": "Leaves the contract without owner. It will not be possible to call `onlyOwner` functions. Can only be called by the current owner. NOTE: Renouncing ownership will leave the contract without an owner, thereby disabling any functionality that is only available to the owner."
					},
					"setAffiliateRewardPercentage(uint256)": {
						"details": "Affiliate ödül yüzdesini değiştirir. Bu fonksiyon sadece kontrat sahibi tarafından çağrılabilir.",
						"params": {
							"_percentage": "Yeni affiliate ödül yüzdesi."
						}
					},
					"setPrivateSaleTokenLimits(uint256,uint256)": {
						"details": "Private Sale için minimum ve maksimum token limitlerini ayarlar. Bu fonksiyon sadece kontrat sahibi tarafından çağrılabilir.",
						"params": {
							"_maxTokensPrivateSale": "Private Sale sırasında bir işlemde alınabilecek en fazla token miktarı.",
							"_minTokensPrivateSale": "Private Sale sırasında alınabilecek en az token miktarı."
						}
					},
					"startPrivateSale(uint256)": {
						"details": "Private Sale'i başlatır ve affiliate ödül yüzdesini belirler.",
						"params": {
							"_affiliateRewardPercentage": "Affiliate ödül yüzdesi."
						}
					},
					"symbol()": {
						"details": "Returns the symbol of the token, usually a shorter version of the name."
					},
					"totalSupply()": {
						"details": "See {IERC20-totalSupply}."
					},
					"transfer(address,uint256)": {
						"details": "See {IERC20-transfer}. Requirements: - `to` cannot be the zero address. - the caller must have a balance of at least `value`."
					},
					"transferFrom(address,address,uint256)": {
						"details": "See {IERC20-transferFrom}. Emits an {Approval} event indicating the updated allowance. This is not required by the EIP. See the note at the beginning of {ERC20}. NOTE: Does not update the allowance if the current allowance is the maximum `uint256`. Requirements: - `from` and `to` cannot be the zero address. - `from` must have a balance of at least `value`. - the caller must have allowance for ``from``'s tokens of at least `value`."
					},
					"transferOwnership(address)": {
						"details": "Transfers ownership of the contract to a new account (`newOwner`). Can only be called by the current owner."
					},
					"withdrawETH()": {
						"details": "Kontratta bulunan ETH'yi çekmeye yarar. Bu fonksiyon sadece kontrat sahibi tarafından çağrılabilir."
					},
					"withdrawTokens()": {
						"details": "Kontratta bulunan tokenları çekmeye yarar. Bu fonksiyon sadece kontrat sahibi tarafından çağrılabilir."
					}
				},
				"version": 1
			},
			"evm": {
				"assembly": "    /* \"contracts/bet.sol\":286:12649  contract Bettoken is ERC20, Ownable, ReentrancyGuard, Pausable {... */\n  mstore(0x40, 0x80)\n    /* \"contracts/bet.sol\":523:544  38_835_764 * 10 ** 18 */\n  0x201fcafc2577d298500000\n    /* \"contracts/bet.sol\":488:544  uint256 public privateSaleTokens = 38_835_764 * 10 ** 18 */\n  0x08\n  sstore\n    /* \"contracts/bet.sol\":589:605  0.001 * 10 ** 18 */\n  0x038d7ea4c68000\n    /* \"contracts/bet.sol\":550:605  uint256 public privateSaleStartPrice = 0.001 * 10 ** 18 */\n  0x09\n  sstore\n    /* \"contracts/bet.sol\":682:699  0.0505 * 10 ** 18 */\n  0xb3697b81284000\n    /* \"contracts/bet.sol\":645:699  uint256 public privateSaleEndPrice = 0.0505 * 10 ** 18 */\n  0x0a\n  sstore\n    /* \"contracts/bet.sol\":773:774  0 */\n  0x00\n    /* \"contracts/bet.sol\":734:774  uint256 public privateSaleSoldTokens = 0 */\n  0x0b\n  sstore\n    /* \"contracts/bet.sol\":928:943  1000 * 10 ** 18 */\n  0x3635c9adc5dea00000\n    /* \"contracts/bet.sol\":894:943  uint256 public maxTokensPerUser = 1000 * 10 ** 18 */\n  0x0d\n  sstore\n    /* \"contracts/bet.sol\":1031:1044  50 * 10 ** 18 */\n  0x02b5e3af16b1880000\n    /* \"contracts/bet.sol\":997:1044  uint256 public minimumUsdAmount = 50 * 10 ** 18 */\n  0x0e\n  sstore\n    /* \"contracts/bet.sol\":1142:1156  100 * 10 ** 18 */\n  0x056bc75e2d63100000\n    /* \"contracts/bet.sol\":1097:1156  uint256 public minTokensPerUserPrivateSale = 100 * 10 ** 18 */\n  0x0f\n  sstore\n    /* \"contracts/bet.sol\":1281:1295  500 * 10 ** 18 */\n  0x1b1ae4d6e2ef500000\n    /* \"contracts/bet.sol\":1229:1295  uint256 public maxTokensPerTransactionPrivateSale = 500 * 10 ** 18 */\n  0x10\n  sstore\n    /* \"contracts/bet.sol\":1449:1457  365 days */\n  0x01e13380\n    /* \"contracts/bet.sol\":1418:1457  uint256 public stakeDuration = 365 days */\n  0x11\n  sstore\n    /* \"contracts/bet.sol\":1524:1532  180 days */\n  0xed4e00\n    /* \"contracts/bet.sol\":1491:1532  uint256 public vestingDuration = 180 days */\n  0x12\n  sstore\n    /* \"contracts/bet.sol\":1599:1606  30 days */\n  0x278d00\n    /* \"contracts/bet.sol\":1566:1606  uint256 public vestingInterval = 30 days */\n  0x13\n  sstore\n    /* \"contracts/bet.sol\":2283:2284  5 */\n  0x05\n    /* \"contracts/bet.sol\":2240:2284  uint256 public affiliateRewardPercentage = 5 */\n  0x18\n  sstore\n    /* \"contracts/bet.sol\":2394:2399  false */\n  0x00\n    /* \"contracts/bet.sol\":2362:2399  bool public privateSaleActive = false */\n  0x19\n  exp(0x0100, 0x00)\n  dup2\n  sload\n  dup2\n  0xff\n  mul\n  not\n  and\n  swap1\n  dup4\n  iszero\n  iszero\n  mul\n  or\n  swap1\n  sstore\n  pop\n    /* \"contracts/bet.sol\":3106:3217  constructor() ERC20(\"Bettoken\", \"BETT\") Ownable(msg.sender) {... */\n  callvalue\n  dup1\n  iszero\n  tag_1\n  jumpi\n  0x00\n  dup1\n  revert\ntag_1:\n  pop\n    /* \"contracts/bet.sol\":3154:3164  msg.sender */\n  caller\n    /* \"@openzeppelin/contracts/token/ERC20/ERC20.sol\":1896:2009  constructor(string memory name_, string memory symbol_) {... */\n  mload(0x40)\n  dup1\n  0x40\n  add\n  0x40\n  mstore\n  dup1\n  0x08\n  dup2\n  mstore\n  0x20\n  add\n  0x426574746f6b656e000000000000000000000000000000000000000000000000\n  dup2\n  mstore\n  pop\n  mload(0x40)\n  dup1\n  0x40\n  add\n  0x40\n  mstore\n  dup1\n  0x04\n  dup2\n  mstore\n  0x20\n  add\n  0x4245545400000000000000000000000000000000000000000000000000000000\n  dup2\n  mstore\n  pop\n    /* \"@openzeppelin/contracts/token/ERC20/ERC20.sol\":1970:1975  name_ */\n  dup2\n    /* \"@openzeppelin/contracts/token/ERC20/ERC20.sol\":1962:1967  _name */\n  0x03\n    /* \"@openzeppelin/contracts/token/ERC20/ERC20.sol\":1962:1975  _name = name_ */\n  swap1\n  dup2\n  tag_8\n  swap2\n  swap1\n  tag_9\n  jump\t// in\ntag_8:\n  pop\n    /* \"@openzeppelin/contracts/token/ERC20/ERC20.sol\":1995:2002  symbol_ */\n  dup1\n    /* \"@openzeppelin/contracts/token/ERC20/ERC20.sol\":1985:1992  _symbol */\n  0x04\n    /* \"@openzeppelin/contracts/token/ERC20/ERC20.sol\":1985:2002  _symbol = symbol_ */\n  swap1\n  dup2\n  tag_10\n  swap2\n  swap1\n  tag_9\n  jump\t// in\ntag_10:\n  pop\n    /* \"@openzeppelin/contracts/token/ERC20/ERC20.sol\":1896:2009  constructor(string memory name_, string memory symbol_) {... */\n  pop\n  pop\n    /* \"@openzeppelin/contracts/access/Ownable.sol\":1297:1298  0 */\n  0x00\n    /* \"@openzeppelin/contracts/access/Ownable.sol\":1273:1299  initialOwner == address(0) */\n  0xffffffffffffffffffffffffffffffffffffffff\n  and\n    /* \"@openzeppelin/contracts/access/Ownable.sol\":1273:1285  initialOwner */\n  dup2\n    /* \"@openzeppelin/contracts/access/Ownable.sol\":1273:1299  initialOwner == address(0) */\n  0xffffffffffffffffffffffffffffffffffffffff\n  and\n  sub\n    /* \"@openzeppelin/contracts/access/Ownable.sol\":1269:1364  if (initialOwner == address(0)) {... */\n  tag_12\n  jumpi\n    /* \"@openzeppelin/contracts/access/Ownable.sol\":1350:1351  0 */\n  0x00\n    /* \"@openzeppelin/contracts/access/Ownable.sol\":1322:1353  OwnableInvalidOwner(address(0)) */\n  mload(0x40)\n  0x1e4fbdf700000000000000000000000000000000000000000000000000000000\n  dup2\n  mstore\n  0x04\n  add\n  tag_13\n  swap2\n  swap1\n  tag_14\n  jump\t// in\ntag_13:\n  mload(0x40)\n  dup1\n  swap2\n  sub\n  swap1\n  revert\n    /* \"@openzeppelin/contracts/access/Ownable.sol\":1269:1364  if (initialOwner == address(0)) {... */\ntag_12:\n    /* \"@openzeppelin/contracts/access/Ownable.sol\":1373:1405  _transferOwnership(initialOwner) */\n  tag_15\n    /* \"@openzeppelin/contracts/access/Ownable.sol\":1392:1404  initialOwner */\n  dup2\n    /* \"@openzeppelin/contracts/access/Ownable.sol\":1373:1391  _transferOwnership */\n  shl(0x20, tag_16)\n    /* \"@openzeppelin/contracts/access/Ownable.sol\":1373:1405  _transferOwnership(initialOwner) */\n  0x20\n  shr\n  jump\t// in\ntag_15:\n    /* \"@openzeppelin/contracts/access/Ownable.sol\":1225:1412  constructor(address initialOwner) {... */\n  pop\n    /* \"@openzeppelin/contracts/security/ReentrancyGuard.sol\":1716:1717  1 */\n  0x01\n    /* \"@openzeppelin/contracts/security/ReentrancyGuard.sol\":1821:1828  _status */\n  0x06\n    /* \"@openzeppelin/contracts/security/ReentrancyGuard.sol\":1821:1843  _status = _NOT_ENTERED */\n  dup2\n  swap1\n  sstore\n  pop\n    /* \"@openzeppelin/contracts/security/Pausable.sol\":1006:1011  false */\n  0x00\n    /* \"@openzeppelin/contracts/security/Pausable.sol\":996:1003  _paused */\n  0x07\n  0x00\n    /* \"@openzeppelin/contracts/security/Pausable.sol\":996:1011  _paused = false */\n  0x0100\n  exp\n  dup2\n  sload\n  dup2\n  0xff\n  mul\n  not\n  and\n  swap1\n  dup4\n  iszero\n  iszero\n  mul\n  or\n  swap1\n  sstore\n  pop\n    /* \"contracts/bet.sol\":3176:3210  _mint(address(this), TOTAL_SUPPLY) */\n  tag_20\n    /* \"contracts/bet.sol\":3190:3194  this */\n  address\n    /* \"contracts/bet.sol\":424:446  200_000_000 * 10 ** 18 */\n  0xa56fa5b99019a5c8000000\n    /* \"contracts/bet.sol\":3176:3181  _mint */\n  shl(0x20, tag_21)\n    /* \"contracts/bet.sol\":3176:3210  _mint(address(this), TOTAL_SUPPLY) */\n  0x20\n  shr\n  jump\t// in\ntag_20:\n    /* \"contracts/bet.sol\":286:12649  contract Bettoken is ERC20, Ownable, ReentrancyGuard, Pausable {... */\n  jump(tag_22)\n    /* \"@openzeppelin/contracts/access/Ownable.sol\":2912:3099  function _transferOwnership(address newOwner) internal virtual {... */\ntag_16:\n    /* \"@openzeppelin/contracts/access/Ownable.sol\":2985:3001  address oldOwner */\n  0x00\n    /* \"@openzeppelin/contracts/access/Ownable.sol\":3004:3010  _owner */\n  0x05\n  0x00\n  swap1\n  sload\n  swap1\n  0x0100\n  exp\n  swap1\n  div\n  0xffffffffffffffffffffffffffffffffffffffff\n  and\n    /* \"@openzeppelin/contracts/access/Ownable.sol\":2985:3010  address oldOwner = _owner */\n  swap1\n  pop\n    /* \"@openzeppelin/contracts/access/Ownable.sol\":3029:3037  newOwner */\n  dup2\n    /* \"@openzeppelin/contracts/access/Ownable.sol\":3020:3026  _owner */\n  0x05\n  0x00\n    /* \"@openzeppelin/contracts/access/Ownable.sol\":3020:3037  _owner = newOwner */\n  0x0100\n  exp\n  dup2\n  sload\n  dup2\n  0xffffffffffffffffffffffffffffffffffffffff\n  mul\n  not\n  and\n  swap1\n  dup4\n  0xffffffffffffffffffffffffffffffffffffffff\n  and\n  mul\n  or\n  swap1\n  sstore\n  pop\n    /* \"@openzeppelin/contracts/access/Ownable.sol\":3083:3091  newOwner */\n  dup2\n    /* \"@openzeppelin/contracts/access/Ownable.sol\":3052:3092  OwnershipTransferred(oldOwner, newOwner) */\n  0xffffffffffffffffffffffffffffffffffffffff\n  and\n    /* \"@openzeppelin/contracts/access/Ownable.sol\":3073:3081  oldOwner */\n  dup2\n    /* \"@openzeppelin/contracts/access/Ownable.sol\":3052:3092  OwnershipTransferred(oldOwner, newOwner) */\n  0xffffffffffffffffffffffffffffffffffffffff\n  and\n  0x8be0079c531659141344cd1fd0a4f28419497f9722a3daafe3b4186f6b6457e0\n  mload(0x40)\n  mload(0x40)\n  dup1\n  swap2\n  sub\n  swap1\n  log3\n    /* \"@openzeppelin/contracts/access/Ownable.sol\":2975:3099  {... */\n  pop\n    /* \"@openzeppelin/contracts/access/Ownable.sol\":2912:3099  function _transferOwnership(address newOwner) internal virtual {... */\n  pop\n  jump\t// out\n    /* \"@openzeppelin/contracts/token/ERC20/ERC20.sol\":7721:7929  function _mint(address account, uint256 value) internal {... */\ntag_21:\n    /* \"@openzeppelin/contracts/token/ERC20/ERC20.sol\":7810:7811  0 */\n  0x00\n    /* \"@openzeppelin/contracts/token/ERC20/ERC20.sol\":7791:7812  account == address(0) */\n  0xffffffffffffffffffffffffffffffffffffffff\n  and\n    /* \"@openzeppelin/contracts/token/ERC20/ERC20.sol\":7791:7798  account */\n  dup3\n    /* \"@openzeppelin/contracts/token/ERC20/ERC20.sol\":7791:7812  account == address(0) */\n  0xffffffffffffffffffffffffffffffffffffffff\n  and\n  sub\n    /* \"@openzeppelin/contracts/token/ERC20/ERC20.sol\":7787:7878  if (account == address(0)) {... */\n  tag_25\n  jumpi\n    /* \"@openzeppelin/contracts/token/ERC20/ERC20.sol\":7864:7865  0 */\n  0x00\n    /* \"@openzeppelin/contracts/token/ERC20/ERC20.sol\":7835:7867  ERC20InvalidReceiver(address(0)) */\n  mload(0x40)\n  0xec442f0500000000000000000000000000000000000000000000000000000000\n  dup2\n  mstore\n  0x04\n  add\n  tag_26\n  swap2\n  swap1\n  tag_14\n  jump\t// in\ntag_26:\n  mload(0x40)\n  dup1\n  swap2\n  sub\n  swap1\n  revert\n    /* \"@openzeppelin/contracts/token/ERC20/ERC20.sol\":7787:7878  if (account == address(0)) {... */\ntag_25:\n    /* \"@openzeppelin/contracts/token/ERC20/ERC20.sol\":7887:7922  _update(address(0), account, value) */\n  tag_27\n    /* \"@openzeppelin/contracts/token/ERC20/ERC20.sol\":7903:7904  0 */\n  0x00\n    /* \"@openzeppelin/contracts/token/ERC20/ERC20.sol\":7907:7914  account */\n  dup4\n    /* \"@openzeppelin/contracts/token/ERC20/ERC20.sol\":7916:7921  value */\n  dup4\n    /* \"@openzeppelin/contracts/token/ERC20/ERC20.sol\":7887:7894  _update */\n  shl(0x20, tag_28)\n    /* \"@openzeppelin/contracts/token/ERC20/ERC20.sol\":7887:7922  _update(address(0), account, value) */\n  0x20\n  shr\n  jump\t// in\ntag_27:\n    /* \"@openzeppelin/contracts/token/ERC20/ERC20.sol\":7721:7929  function _mint(address account, uint256 value) internal {... */\n  pop\n  pop\n  jump\t// out\n    /* \"@openzeppelin/contracts/token/ERC20/ERC20.sol\":6271:7378  function _update(address from, address to, uint256 value) internal virtual {... */\ntag_28:\n    /* \"@openzeppelin/contracts/token/ERC20/ERC20.sol\":6376:6377  0 */\n  0x00\n    /* \"@openzeppelin/contracts/token/ERC20/ERC20.sol\":6360:6378  from == address(0) */\n  0xffffffffffffffffffffffffffffffffffffffff\n  and\n    /* \"@openzeppelin/contracts/token/ERC20/ERC20.sol\":6360:6364  from */\n  dup4\n    /* \"@openzeppelin/contracts/token/ERC20/ERC20.sol\":6360:6378  from == address(0) */\n  0xffffffffffffffffffffffffffffffffffffffff\n  and\n  sub\n    /* \"@openzeppelin/contracts/token/ERC20/ERC20.sol\":6356:6896  if (from == address(0)) {... */\n  tag_30\n  jumpi\n    /* \"@openzeppelin/contracts/token/ERC20/ERC20.sol\":6512:6517  value */\n  dup1\n    /* \"@openzeppelin/contracts/token/ERC20/ERC20.sol\":6496:6508  _totalSupply */\n  0x02\n  0x00\n    /* \"@openzeppelin/contracts/token/ERC20/ERC20.sol\":6496:6517  _totalSupply += value */\n  dup3\n  dup3\n  sload\n  tag_31\n  swap2\n  swap1\n  tag_32\n  jump\t// in\ntag_31:\n  swap3\n  pop\n  pop\n  dup2\n  swap1\n  sstore\n  pop\n    /* \"@openzeppelin/contracts/token/ERC20/ERC20.sol\":6356:6896  if (from == address(0)) {... */\n  jump(tag_33)\ntag_30:\n    /* \"@openzeppelin/contracts/token/ERC20/ERC20.sol\":6548:6567  uint256 fromBalance */\n  0x00\n    /* \"@openzeppelin/contracts/token/ERC20/ERC20.sol\":6570:6579  _balances */\n  dup1\n    /* \"@openzeppelin/contracts/token/ERC20/ERC20.sol\":6570:6585  _balances[from] */\n  0x00\n    /* \"@openzeppelin/contracts/token/ERC20/ERC20.sol\":6580:6584  from */\n  dup6\n    /* \"@openzeppelin/contracts/token/ERC20/ERC20.sol\":6570:6585  _balances[from] */\n  0xffffffffffffffffffffffffffffffffffffffff\n  and\n  0xffffffffffffffffffffffffffffffffffffffff\n  and\n  dup2\n  mstore\n  0x20\n  add\n  swap1\n  dup2\n  mstore\n  0x20\n  add\n  0x00\n  keccak256\n  sload\n    /* \"@openzeppelin/contracts/token/ERC20/ERC20.sol\":6548:6585  uint256 fromBalance = _balances[from] */\n  swap1\n  pop\n    /* \"@openzeppelin/contracts/token/ERC20/ERC20.sol\":6617:6622  value */\n  dup2\n    /* \"@openzeppelin/contracts/token/ERC20/ERC20.sol\":6603:6614  fromBalance */\n  dup2\n    /* \"@openzeppelin/contracts/token/ERC20/ERC20.sol\":6603:6622  fromBalance < value */\n  lt\n    /* \"@openzeppelin/contracts/token/ERC20/ERC20.sol\":6599:6714  if (fromBalance < value) {... */\n  iszero\n  tag_34\n  jumpi\n    /* \"@openzeppelin/contracts/token/ERC20/ERC20.sol\":6674:6678  from */\n  dup4\n    /* \"@openzeppelin/contracts/token/ERC20/ERC20.sol\":6680:6691  fromBalance */\n  dup2\n    /* \"@openzeppelin/contracts/token/ERC20/ERC20.sol\":6693:6698  value */\n  dup4\n    /* \"@openzeppelin/contracts/token/ERC20/ERC20.sol\":6649:6699  ERC20InsufficientBalance(from, fromBalance, value) */\n  mload(0x40)\n  0xe450d38c00000000000000000000000000000000000000000000000000000000\n  dup2\n  mstore\n  0x04\n  add\n  tag_35\n  swap4\n  swap3\n  swap2\n  swap1\n  tag_36\n  jump\t// in\ntag_35:\n  mload(0x40)\n  dup1\n  swap2\n  sub\n  swap1\n  revert\n    /* \"@openzeppelin/contracts/token/ERC20/ERC20.sol\":6599:6714  if (fromBalance < value) {... */\ntag_34:\n    /* \"@openzeppelin/contracts/token/ERC20/ERC20.sol\":6866:6871  value */\n  dup2\n    /* \"@openzeppelin/contracts/token/ERC20/ERC20.sol\":6852:6863  fromBalance */\n  dup2\n    /* \"@openzeppelin/contracts/token/ERC20/ERC20.sol\":6852:6871  fromBalance - value */\n  sub\n    /* \"@openzeppelin/contracts/token/ERC20/ERC20.sol\":6834:6843  _balances */\n  0x00\n    /* \"@openzeppelin/contracts/token/ERC20/ERC20.sol\":6834:6849  _balances[from] */\n  dup1\n    /* \"@openzeppelin/contracts/token/ERC20/ERC20.sol\":6844:6848  from */\n  dup7\n    /* \"@openzeppelin/contracts/token/ERC20/ERC20.sol\":6834:6849  _balances[from] */\n  0xffffffffffffffffffffffffffffffffffffffff\n  and\n  0xffffffffffffffffffffffffffffffffffffffff\n  and\n  dup2\n  mstore\n  0x20\n  add\n  swap1\n  dup2\n  mstore\n  0x20\n  add\n  0x00\n  keccak256\n    /* \"@openzeppelin/contracts/token/ERC20/ERC20.sol\":6834:6871  _balances[from] = fromBalance - value */\n  dup2\n  swap1\n  sstore\n  pop\n    /* \"@openzeppelin/contracts/token/ERC20/ERC20.sol\":6534:6896  {... */\n  pop\n    /* \"@openzeppelin/contracts/token/ERC20/ERC20.sol\":6356:6896  if (from == address(0)) {... */\ntag_33:\n    /* \"@openzeppelin/contracts/token/ERC20/ERC20.sol\":6924:6925  0 */\n  0x00\n    /* \"@openzeppelin/contracts/token/ERC20/ERC20.sol\":6910:6926  to == address(0) */\n  0xffffffffffffffffffffffffffffffffffffffff\n  and\n    /* \"@openzeppelin/contracts/token/ERC20/ERC20.sol\":6910:6912  to */\n  dup3\n    /* \"@openzeppelin/contracts/token/ERC20/ERC20.sol\":6910:6926  to == address(0) */\n  0xffffffffffffffffffffffffffffffffffffffff\n  and\n  sub\n    /* \"@openzeppelin/contracts/token/ERC20/ERC20.sol\":6906:7331  if (to == address(0)) {... */\n  tag_37\n  jumpi\n    /* \"@openzeppelin/contracts/token/ERC20/ERC20.sol\":7089:7094  value */\n  dup1\n    /* \"@openzeppelin/contracts/token/ERC20/ERC20.sol\":7073:7085  _totalSupply */\n  0x02\n  0x00\n    /* \"@openzeppelin/contracts/token/ERC20/ERC20.sol\":7073:7094  _totalSupply -= value */\n  dup3\n  dup3\n  sload\n  sub\n  swap3\n  pop\n  pop\n  dup2\n  swap1\n  sstore\n  pop\n    /* \"@openzeppelin/contracts/token/ERC20/ERC20.sol\":6906:7331  if (to == address(0)) {... */\n  jump(tag_38)\ntag_37:\n    /* \"@openzeppelin/contracts/token/ERC20/ERC20.sol\":7301:7306  value */\n  dup1\n    /* \"@openzeppelin/contracts/token/ERC20/ERC20.sol\":7284:7293  _balances */\n  0x00\n    /* \"@openzeppelin/contracts/token/ERC20/ERC20.sol\":7284:7297  _balances[to] */\n  dup1\n    /* \"@openzeppelin/contracts/token/ERC20/ERC20.sol\":7294:7296  to */\n  dup5\n    /* \"@openzeppelin/contracts/token/ERC20/ERC20.sol\":7284:7297  _balances[to] */\n  0xffffffffffffffffffffffffffffffffffffffff\n  and\n  0xffffffffffffffffffffffffffffffffffffffff\n  and\n  dup2\n  mstore\n  0x20\n  add\n  swap1\n  dup2\n  mstore\n  0x20\n  add\n  0x00\n  keccak256\n  0x00\n    /* \"@openzeppelin/contracts/token/ERC20/ERC20.sol\":7284:7306  _balances[to] += value */\n  dup3\n  dup3\n  sload\n  add\n  swap3\n  pop\n  pop\n  dup2\n  swap1\n  sstore\n  pop\n    /* \"@openzeppelin/contracts/token/ERC20/ERC20.sol\":6906:7331  if (to == address(0)) {... */\ntag_38:\n    /* \"@openzeppelin/contracts/token/ERC20/ERC20.sol\":7361:7363  to */\n  dup2\n    /* \"@openzeppelin/contracts/token/ERC20/ERC20.sol\":7346:7371  Transfer(from, to, value) */\n  0xffffffffffffffffffffffffffffffffffffffff\n  and\n    /* \"@openzeppelin/contracts/token/ERC20/ERC20.sol\":7355:7359  from */\n  dup4\n    /* \"@openzeppelin/contracts/token/ERC20/ERC20.sol\":7346:7371  Transfer(from, to, value) */\n  0xffffffffffffffffffffffffffffffffffffffff\n  and\n  0xddf252ad1be2c89b69c2b068fc378daa952ba7f163c4a11628f55a4df523b3ef\n    /* \"@openzeppelin/contracts/token/ERC20/ERC20.sol\":7365:7370  value */\n  dup4\n    /* \"@openzeppelin/contracts/token/ERC20/ERC20.sol\":7346:7371  Transfer(from, to, value) */\n  mload(0x40)\n  tag_39\n  swap2\n  swap1\n  tag_40\n  jump\t// in\ntag_39:\n  mload(0x40)\n  dup1\n  swap2\n  sub\n  swap1\n  log3\n    /* \"@openzeppelin/contracts/token/ERC20/ERC20.sol\":6271:7378  function _update(address from, address to, uint256 value) internal virtual {... */\n  pop\n  pop\n  pop\n  jump\t// out\n    /* \"#utility.yul\":7:106   */\ntag_41:\n    /* \"#utility.yul\":59:65   */\n  0x00\n    /* \"#utility.yul\":93:98   */\n  dup2\n    /* \"#utility.yul\":87:99   */\n  mload\n    /* \"#utility.yul\":77:99   */\n  swap1\n  pop\n    /* \"#utility.yul\":7:106   */\n  swap2\n  swap1\n  pop\n  jump\t// out\n    /* \"#utility.yul\":112:292   */\ntag_42:\n    /* \"#utility.yul\":160:237   */\n  0x4e487b7100000000000000000000000000000000000000000000000000000000\n    /* \"#utility.yul\":157:158   */\n  0x00\n    /* \"#utility.yul\":150:238   */\n  mstore\n    /* \"#utility.yul\":257:261   */\n  0x41\n    /* \"#utility.yul\":254:255   */\n  0x04\n    /* \"#utility.yul\":247:262   */\n  mstore\n    /* \"#utility.yul\":281:285   */\n  0x24\n    /* \"#utility.yul\":278:279   */\n  0x00\n    /* \"#utility.yul\":271:286   */\n  revert\n    /* \"#utility.yul\":298:478   */\ntag_43:\n    /* \"#utility.yul\":346:423   */\n  0x4e487b7100000000000000000000000000000000000000000000000000000000\n    /* \"#utility.yul\":343:344   */\n  0x00\n    /* \"#utility.yul\":336:424   */\n  mstore\n    /* \"#utility.yul\":443:447   */\n  0x22\n    /* \"#utility.yul\":440:441   */\n  0x04\n    /* \"#utility.yul\":433:448   */\n  mstore\n    /* \"#utility.yul\":467:471   */\n  0x24\n    /* \"#utility.yul\":464:465   */\n  0x00\n    /* \"#utility.yul\":457:472   */\n  revert\n    /* \"#utility.yul\":484:804   */\ntag_44:\n    /* \"#utility.yul\":528:534   */\n  0x00\n    /* \"#utility.yul\":565:566   */\n  0x02\n    /* \"#utility.yul\":559:563   */\n  dup3\n    /* \"#utility.yul\":555:567   */\n  div\n    /* \"#utility.yul\":545:567   */\n  swap1\n  pop\n    /* \"#utility.yul\":612:613   */\n  0x01\n    /* \"#utility.yul\":606:610   */\n  dup3\n    /* \"#utility.yul\":602:614   */\n  and\n    /* \"#utility.yul\":633:651   */\n  dup1\n    /* \"#utility.yul\":623:704   */\n  tag_71\n  jumpi\n    /* \"#utility.yul\":689:693   */\n  0x7f\n    /* \"#utility.yul\":681:687   */\n  dup3\n    /* \"#utility.yul\":677:694   */\n  and\n    /* \"#utility.yul\":667:694   */\n  swap2\n  pop\n    /* \"#utility.yul\":623:704   */\ntag_71:\n    /* \"#utility.yul\":751:753   */\n  0x20\n    /* \"#utility.yul\":743:749   */\n  dup3\n    /* \"#utility.yul\":740:754   */\n  lt\n    /* \"#utility.yul\":720:738   */\n  dup2\n    /* \"#utility.yul\":717:755   */\n  sub\n    /* \"#utility.yul\":714:798   */\n  tag_72\n  jumpi\n    /* \"#utility.yul\":770:788   */\n  tag_73\n  tag_43\n  jump\t// in\ntag_73:\n    /* \"#utility.yul\":714:798   */\ntag_72:\n    /* \"#utility.yul\":535:804   */\n  pop\n    /* \"#utility.yul\":484:804   */\n  swap2\n  swap1\n  pop\n  jump\t// out\n    /* \"#utility.yul\":810:951   */\ntag_45:\n    /* \"#utility.yul\":859:863   */\n  0x00\n    /* \"#utility.yul\":882:885   */\n  dup2\n    /* \"#utility.yul\":874:885   */\n  swap1\n  pop\n    /* \"#utility.yul\":905:908   */\n  dup2\n    /* \"#utility.yul\":902:903   */\n  0x00\n    /* \"#utility.yul\":895:909   */\n  mstore\n    /* \"#utility.yul\":939:943   */\n  0x20\n    /* \"#utility.yul\":936:937   */\n  0x00\n    /* \"#utility.yul\":926:944   */\n  keccak256\n    /* \"#utility.yul\":918:944   */\n  swap1\n  pop\n    /* \"#utility.yul\":810:951   */\n  swap2\n  swap1\n  pop\n  jump\t// out\n    /* \"#utility.yul\":957:1050   */\ntag_46:\n    /* \"#utility.yul\":994:1000   */\n  0x00\n    /* \"#utility.yul\":1041:1043   */\n  0x20\n    /* \"#utility.yul\":1036:1038   */\n  0x1f\n    /* \"#utility.yul\":1029:1034   */\n  dup4\n    /* \"#utility.yul\":1025:1039   */\n  add\n    /* \"#utility.yul\":1021:1044   */\n  div\n    /* \"#utility.yul\":1011:1044   */\n  swap1\n  pop\n    /* \"#utility.yul\":957:1050   */\n  swap2\n  swap1\n  pop\n  jump\t// out\n    /* \"#utility.yul\":1056:1163   */\ntag_47:\n    /* \"#utility.yul\":1100:1108   */\n  0x00\n    /* \"#utility.yul\":1150:1155   */\n  dup3\n    /* \"#utility.yul\":1144:1148   */\n  dup3\n    /* \"#utility.yul\":1140:1156   */\n  shl\n    /* \"#utility.yul\":1119:1156   */\n  swap1\n  pop\n    /* \"#utility.yul\":1056:1163   */\n  swap3\n  swap2\n  pop\n  pop\n  jump\t// out\n    /* \"#utility.yul\":1169:1562   */\ntag_48:\n    /* \"#utility.yul\":1238:1244   */\n  0x00\n    /* \"#utility.yul\":1288:1289   */\n  0x08\n    /* \"#utility.yul\":1276:1286   */\n  dup4\n    /* \"#utility.yul\":1272:1290   */\n  mul\n    /* \"#utility.yul\":1311:1408   */\n  tag_78\n    /* \"#utility.yul\":1341:1407   */\n  0xffffffffffffffffffffffffffffffffffffffffffffffffffffffffffffffff\n    /* \"#utility.yul\":1330:1339   */\n  dup3\n    /* \"#utility.yul\":1311:1408   */\n  tag_47\n  jump\t// in\ntag_78:\n    /* \"#utility.yul\":1429:1468   */\n  tag_79\n    /* \"#utility.yul\":1459:1467   */\n  dup7\n    /* \"#utility.yul\":1448:1457   */\n  dup4\n    /* \"#utility.yul\":1429:1468   */\n  tag_47\n  jump\t// in\ntag_79:\n    /* \"#utility.yul\":1417:1468   */\n  swap6\n  pop\n    /* \"#utility.yul\":1501:1505   */\n  dup1\n    /* \"#utility.yul\":1497:1506   */\n  not\n    /* \"#utility.yul\":1490:1495   */\n  dup5\n    /* \"#utility.yul\":1486:1507   */\n  and\n    /* \"#utility.yul\":1477:1507   */\n  swap4\n  pop\n    /* \"#utility.yul\":1550:1554   */\n  dup1\n    /* \"#utility.yul\":1540:1548   */\n  dup7\n    /* \"#utility.yul\":1536:1555   */\n  and\n    /* \"#utility.yul\":1529:1534   */\n  dup5\n    /* \"#utility.yul\":1526:1556   */\n  or\n    /* \"#utility.yul\":1516:1556   */\n  swap3\n  pop\n    /* \"#utility.yul\":1245:1562   */\n  pop\n  pop\n    /* \"#utility.yul\":1169:1562   */\n  swap4\n  swap3\n  pop\n  pop\n  pop\n  jump\t// out\n    /* \"#utility.yul\":1568:1645   */\ntag_49:\n    /* \"#utility.yul\":1605:1612   */\n  0x00\n    /* \"#utility.yul\":1634:1639   */\n  dup2\n    /* \"#utility.yul\":1623:1639   */\n  swap1\n  pop\n    /* \"#utility.yul\":1568:1645   */\n  swap2\n  swap1\n  pop\n  jump\t// out\n    /* \"#utility.yul\":1651:1711   */\ntag_50:\n    /* \"#utility.yul\":1679:1682   */\n  0x00\n    /* \"#utility.yul\":1700:1705   */\n  dup2\n    /* \"#utility.yul\":1693:1705   */\n  swap1\n  pop\n    /* \"#utility.yul\":1651:1711   */\n  swap2\n  swap1\n  pop\n  jump\t// out\n    /* \"#utility.yul\":1717:1859   */\ntag_51:\n    /* \"#utility.yul\":1767:1776   */\n  0x00\n    /* \"#utility.yul\":1800:1853   */\n  tag_83\n    /* \"#utility.yul\":1818:1852   */\n  tag_84\n    /* \"#utility.yul\":1827:1851   */\n  tag_85\n    /* \"#utility.yul\":1845:1850   */\n  dup5\n    /* \"#utility.yul\":1827:1851   */\n  tag_49\n  jump\t// in\ntag_85:\n    /* \"#utility.yul\":1818:1852   */\n  tag_50\n  jump\t// in\ntag_84:\n    /* \"#utility.yul\":1800:1853   */\n  tag_49\n  jump\t// in\ntag_83:\n    /* \"#utility.yul\":1787:1853   */\n  swap1\n  pop\n    /* \"#utility.yul\":1717:1859   */\n  swap2\n  swap1\n  pop\n  jump\t// out\n    /* \"#utility.yul\":1865:1940   */\ntag_52:\n    /* \"#utility.yul\":1908:1911   */\n  0x00\n    /* \"#utility.yul\":1929:1934   */\n  dup2\n    /* \"#utility.yul\":1922:1934   */\n  swap1\n  pop\n    /* \"#utility.yul\":1865:1940   */\n  swap2\n  swap1\n  pop\n  jump\t// out\n    /* \"#utility.yul\":1946:2215   */\ntag_53:\n    /* \"#utility.yul\":2056:2095   */\n  tag_88\n    /* \"#utility.yul\":2087:2094   */\n  dup4\n    /* \"#utility.yul\":2056:2095   */\n  tag_51\n  jump\t// in\ntag_88:\n    /* \"#utility.yul\":2117:2208   */\n  tag_89\n    /* \"#utility.yul\":2166:2207   */\n  tag_90\n    /* \"#utility.yul\":2190:2206   */\n  dup3\n    /* \"#utility.yul\":2166:2207   */\n  tag_52\n  jump\t// in\ntag_90:\n    /* \"#utility.yul\":2158:2164   */\n  dup5\n    /* \"#utility.yul\":2151:2155   */\n  dup5\n    /* \"#utility.yul\":2145:2156   */\n  sload\n    /* \"#utility.yul\":2117:2208   */\n  tag_48\n  jump\t// in\ntag_89:\n    /* \"#utility.yul\":2111:2115   */\n  dup3\n    /* \"#utility.yul\":2104:2209   */\n  sstore\n    /* \"#utility.yul\":2022:2215   */\n  pop\n    /* \"#utility.yul\":1946:2215   */\n  pop\n  pop\n  pop\n  jump\t// out\n    /* \"#utility.yul\":2221:2294   */\ntag_54:\n    /* \"#utility.yul\":2266:2269   */\n  0x00\n    /* \"#utility.yul\":2221:2294   */\n  swap1\n  jump\t// out\n    /* \"#utility.yul\":2300:2489   */\ntag_55:\n    /* \"#utility.yul\":2377:2409   */\n  tag_93\n  tag_54\n  jump\t// in\ntag_93:\n    /* \"#utility.yul\":2418:2483   */\n  tag_94\n    /* \"#utility.yul\":2476:2482   */\n  dup2\n    /* \"#utility.yul\":2468:2474   */\n  dup5\n    /* \"#utility.yul\":2462:2466   */\n  dup5\n    /* \"#utility.yul\":2418:2483   */\n  tag_53\n  jump\t// in\ntag_94:\n    /* \"#utility.yul\":2353:2489   */\n  pop\n    /* \"#utility.yul\":2300:2489   */\n  pop\n  pop\n  jump\t// out\n    /* \"#utility.yul\":2495:2681   */\ntag_56:\n    /* \"#utility.yul\":2555:2675   */\ntag_96:\n    /* \"#utility.yul\":2572:2575   */\n  dup2\n    /* \"#utility.yul\":2565:2570   */\n  dup2\n    /* \"#utility.yul\":2562:2576   */\n  lt\n    /* \"#utility.yul\":2555:2675   */\n  iszero\n  tag_98\n  jumpi\n    /* \"#utility.yul\":2626:2665   */\n  tag_99\n    /* \"#utility.yul\":2663:2664   */\n  0x00\n    /* \"#utility.yul\":2656:2661   */\n  dup3\n    /* \"#utility.yul\":2626:2665   */\n  tag_55\n  jump\t// in\ntag_99:\n    /* \"#utility.yul\":2599:2600   */\n  0x01\n    /* \"#utility.yul\":2592:2597   */\n  dup2\n    /* \"#utility.yul\":2588:2601   */\n  add\n    /* \"#utility.yul\":2579:2601   */\n  swap1\n  pop\n    /* \"#utility.yul\":2555:2675   */\n  jump(tag_96)\ntag_98:\n    /* \"#utility.yul\":2495:2681   */\n  pop\n  pop\n  jump\t// out\n    /* \"#utility.yul\":2687:3230   */\ntag_57:\n    /* \"#utility.yul\":2788:2790   */\n  0x1f\n    /* \"#utility.yul\":2783:2786   */\n  dup3\n    /* \"#utility.yul\":2780:2791   */\n  gt\n    /* \"#utility.yul\":2777:3223   */\n  iszero\n  tag_101\n  jumpi\n    /* \"#utility.yul\":2822:2860   */\n  tag_102\n    /* \"#utility.yul\":2854:2859   */\n  dup2\n    /* \"#utility.yul\":2822:2860   */\n  tag_45\n  jump\t// in\ntag_102:\n    /* \"#utility.yul\":2906:2935   */\n  tag_103\n    /* \"#utility.yul\":2924:2934   */\n  dup5\n    /* \"#utility.yul\":2906:2935   */\n  tag_46\n  jump\t// in\ntag_103:\n    /* \"#utility.yul\":2896:2904   */\n  dup2\n    /* \"#utility.yul\":2892:2936   */\n  add\n    /* \"#utility.yul\":3089:3091   */\n  0x20\n    /* \"#utility.yul\":3077:3087   */\n  dup6\n    /* \"#utility.yul\":3074:3092   */\n  lt\n    /* \"#utility.yul\":3071:3120   */\n  iszero\n  tag_104\n  jumpi\n    /* \"#utility.yul\":3110:3118   */\n  dup2\n    /* \"#utility.yul\":3095:3118   */\n  swap1\n  pop\n    /* \"#utility.yul\":3071:3120   */\ntag_104:\n    /* \"#utility.yul\":3133:3213   */\n  tag_105\n    /* \"#utility.yul\":3189:3211   */\n  tag_106\n    /* \"#utility.yul\":3207:3210   */\n  dup6\n    /* \"#utility.yul\":3189:3211   */\n  tag_46\n  jump\t// in\ntag_106:\n    /* \"#utility.yul\":3179:3187   */\n  dup4\n    /* \"#utility.yul\":3175:3212   */\n  add\n    /* \"#utility.yul\":3162:3173   */\n  dup3\n    /* \"#utility.yul\":3133:3213   */\n  tag_56\n  jump\t// in\ntag_105:\n    /* \"#utility.yul\":2792:3223   */\n  pop\n  pop\n    /* \"#utility.yul\":2777:3223   */\ntag_101:\n    /* \"#utility.yul\":2687:3230   */\n  pop\n  pop\n  pop\n  jump\t// out\n    /* \"#utility.yul\":3236:3353   */\ntag_58:\n    /* \"#utility.yul\":3290:3298   */\n  0x00\n    /* \"#utility.yul\":3340:3345   */\n  dup3\n    /* \"#utility.yul\":3334:3338   */\n  dup3\n    /* \"#utility.yul\":3330:3346   */\n  shr\n    /* \"#utility.yul\":3309:3346   */\n  swap1\n  pop\n    /* \"#utility.yul\":3236:3353   */\n  swap3\n  swap2\n  pop\n  pop\n  jump\t// out\n    /* \"#utility.yul\":3359:3528   */\ntag_59:\n    /* \"#utility.yul\":3403:3409   */\n  0x00\n    /* \"#utility.yul\":3436:3487   */\n  tag_109\n    /* \"#utility.yul\":3484:3485   */\n  0x00\n    /* \"#utility.yul\":3480:3486   */\n  not\n    /* \"#utility.yul\":3472:3477   */\n  dup5\n    /* \"#utility.yul\":3469:3470   */\n  0x08\n    /* \"#utility.yul\":3465:3478   */\n  mul\n    /* \"#utility.yul\":3436:3487   */\n  tag_58\n  jump\t// in\ntag_109:\n    /* \"#utility.yul\":3432:3488   */\n  not\n    /* \"#utility.yul\":3517:3521   */\n  dup1\n    /* \"#utility.yul\":3511:3515   */\n  dup4\n    /* \"#utility.yul\":3507:3522   */\n  and\n    /* \"#utility.yul\":3497:3522   */\n  swap2\n  pop\n    /* \"#utility.yul\":3410:3528   */\n  pop\n    /* \"#utility.yul\":3359:3528   */\n  swap3\n  swap2\n  pop\n  pop\n  jump\t// out\n    /* \"#utility.yul\":3533:3828   */\ntag_60:\n    /* \"#utility.yul\":3609:3613   */\n  0x00\n    /* \"#utility.yul\":3755:3784   */\n  tag_111\n    /* \"#utility.yul\":3780:3783   */\n  dup4\n    /* \"#utility.yul\":3774:3778   */\n  dup4\n    /* \"#utility.yul\":3755:3784   */\n  tag_59\n  jump\t// in\ntag_111:\n    /* \"#utility.yul\":3747:3784   */\n  swap2\n  pop\n    /* \"#utility.yul\":3817:3820   */\n  dup3\n    /* \"#utility.yul\":3814:3815   */\n  0x02\n    /* \"#utility.yul\":3810:3821   */\n  mul\n    /* \"#utility.yul\":3804:3808   */\n  dup3\n    /* \"#utility.yul\":3801:3822   */\n  or\n    /* \"#utility.yul\":3793:3822   */\n  swap1\n  pop\n    /* \"#utility.yul\":3533:3828   */\n  swap3\n  swap2\n  pop\n  pop\n  jump\t// out\n    /* \"#utility.yul\":3833:5228   */\ntag_9:\n    /* \"#utility.yul\":3950:3987   */\n  tag_113\n    /* \"#utility.yul\":3983:3986   */\n  dup3\n    /* \"#utility.yul\":3950:3987   */\n  tag_41\n  jump\t// in\ntag_113:\n    /* \"#utility.yul\":4052:4070   */\n  0xffffffffffffffff\n    /* \"#utility.yul\":4044:4050   */\n  dup2\n    /* \"#utility.yul\":4041:4071   */\n  gt\n    /* \"#utility.yul\":4038:4094   */\n  iszero\n  tag_114\n  jumpi\n    /* \"#utility.yul\":4074:4092   */\n  tag_115\n  tag_42\n  jump\t// in\ntag_115:\n    /* \"#utility.yul\":4038:4094   */\ntag_114:\n    /* \"#utility.yul\":4118:4156   */\n  tag_116\n    /* \"#utility.yul\":4150:4154   */\n  dup3\n    /* \"#utility.yul\":4144:4155   */\n  sload\n    /* \"#utility.yul\":4118:4156   */\n  tag_44\n  jump\t// in\ntag_116:\n    /* \"#utility.yul\":4203:4270   */\n  tag_117\n    /* \"#utility.yul\":4263:4269   */\n  dup3\n    /* \"#utility.yul\":4255:4261   */\n  dup3\n    /* \"#utility.yul\":4249:4253   */\n  dup6\n    /* \"#utility.yul\":4203:4270   */\n  tag_57\n  jump\t// in\ntag_117:\n    /* \"#utility.yul\":4297:4298   */\n  0x00\n    /* \"#utility.yul\":4321:4325   */\n  0x20\n    /* \"#utility.yul\":4308:4325   */\n  swap1\n  pop\n    /* \"#utility.yul\":4353:4355   */\n  0x1f\n    /* \"#utility.yul\":4345:4351   */\n  dup4\n    /* \"#utility.yul\":4342:4356   */\n  gt\n    /* \"#utility.yul\":4370:4371   */\n  0x01\n    /* \"#utility.yul\":4365:4983   */\n  dup2\n  eq\n  tag_119\n  jumpi\n    /* \"#utility.yul\":5027:5028   */\n  0x00\n    /* \"#utility.yul\":5044:5050   */\n  dup5\n    /* \"#utility.yul\":5041:5118   */\n  iszero\n  tag_120\n  jumpi\n    /* \"#utility.yul\":5093:5102   */\n  dup3\n    /* \"#utility.yul\":5088:5091   */\n  dup8\n    /* \"#utility.yul\":5084:5103   */\n  add\n    /* \"#utility.yul\":5078:5104   */\n  mload\n    /* \"#utility.yul\":5069:5104   */\n  swap1\n  pop\n    /* \"#utility.yul\":5041:5118   */\ntag_120:\n    /* \"#utility.yul\":5144:5211   */\n  tag_121\n    /* \"#utility.yul\":5204:5210   */\n  dup6\n    /* \"#utility.yul\":5197:5202   */\n  dup3\n    /* \"#utility.yul\":5144:5211   */\n  tag_60\n  jump\t// in\ntag_121:\n    /* \"#utility.yul\":5138:5142   */\n  dup7\n    /* \"#utility.yul\":5131:5212   */\n  sstore\n    /* \"#utility.yul\":5000:5222   */\n  pop\n    /* \"#utility.yul\":4335:5222   */\n  jump(tag_118)\n    /* \"#utility.yul\":4365:4983   */\ntag_119:\n    /* \"#utility.yul\":4417:4421   */\n  0x1f\n    /* \"#utility.yul\":4413:4422   */\n  not\n    /* \"#utility.yul\":4405:4411   */\n  dup5\n    /* \"#utility.yul\":4401:4423   */\n  and\n    /* \"#utility.yul\":4451:4488   */\n  tag_122\n    /* \"#utility.yul\":4483:4487   */\n  dup7\n    /* \"#utility.yul\":4451:4488   */\n  tag_45\n  jump\t// in\ntag_122:\n    /* \"#utility.yul\":4510:4511   */\n  0x00\n    /* \"#utility.yul\":4524:4732   */\ntag_123:\n    /* \"#utility.yul\":4538:4545   */\n  dup3\n    /* \"#utility.yul\":4535:4536   */\n  dup2\n    /* \"#utility.yul\":4532:4546   */\n  lt\n    /* \"#utility.yul\":4524:4732   */\n  iszero\n  tag_125\n  jumpi\n    /* \"#utility.yul\":4617:4626   */\n  dup5\n    /* \"#utility.yul\":4612:4615   */\n  dup10\n    /* \"#utility.yul\":4608:4627   */\n  add\n    /* \"#utility.yul\":4602:4628   */\n  mload\n    /* \"#utility.yul\":4594:4600   */\n  dup3\n    /* \"#utility.yul\":4587:4629   */\n  sstore\n    /* \"#utility.yul\":4668:4669   */\n  0x01\n    /* \"#utility.yul\":4660:4666   */\n  dup3\n    /* \"#utility.yul\":4656:4670   */\n  add\n    /* \"#utility.yul\":4646:4670   */\n  swap2\n  pop\n    /* \"#utility.yul\":4715:4717   */\n  0x20\n    /* \"#utility.yul\":4704:4713   */\n  dup6\n    /* \"#utility.yul\":4700:4718   */\n  add\n    /* \"#utility.yul\":4687:4718   */\n  swap5\n  pop\n    /* \"#utility.yul\":4561:4565   */\n  0x20\n    /* \"#utility.yul\":4558:4559   */\n  dup2\n    /* \"#utility.yul\":4554:4566   */\n  add\n    /* \"#utility.yul\":4549:4566   */\n  swap1\n  pop\n    /* \"#utility.yul\":4524:4732   */\n  jump(tag_123)\ntag_125:\n    /* \"#utility.yul\":4760:4766   */\n  dup7\n    /* \"#utility.yul\":4751:4758   */\n  dup4\n    /* \"#utility.yul\":4748:4767   */\n  lt\n    /* \"#utility.yul\":4745:4924   */\n  iszero\n  tag_126\n  jumpi\n    /* \"#utility.yul\":4818:4827   */\n  dup5\n    /* \"#utility.yul\":4813:4816   */\n  dup10\n    /* \"#utility.yul\":4809:4828   */\n  add\n    /* \"#utility.yul\":4803:4829   */\n  mload\n    /* \"#utility.yul\":4861:4909   */\n  tag_127\n    /* \"#utility.yul\":4903:4907   */\n  0x1f\n    /* \"#utility.yul\":4895:4901   */\n  dup10\n    /* \"#utility.yul\":4891:4908   */\n  and\n    /* \"#utility.yul\":4880:4889   */\n  dup3\n    /* \"#utility.yul\":4861:4909   */\n  tag_59\n  jump\t// in\ntag_127:\n    /* \"#utility.yul\":4853:4859   */\n  dup4\n    /* \"#utility.yul\":4846:4910   */\n  sstore\n    /* \"#utility.yul\":4768:4924   */\n  pop\n    /* \"#utility.yul\":4745:4924   */\ntag_126:\n    /* \"#utility.yul\":4970:4971   */\n  0x01\n    /* \"#utility.yul\":4966:4967   */\n  0x02\n    /* \"#utility.yul\":4958:4964   */\n  dup9\n    /* \"#utility.yul\":4954:4968   */\n  mul\n    /* \"#utility.yul\":4950:4972   */\n  add\n    /* \"#utility.yul\":4944:4948   */\n  dup9\n    /* \"#utility.yul\":4937:4973   */\n  sstore\n    /* \"#utility.yul\":4372:4983   */\n  pop\n  pop\n  pop\n    /* \"#utility.yul\":4335:5222   */\ntag_118:\n  pop\n    /* \"#utility.yul\":3925:5228   */\n  pop\n  pop\n  pop\n    /* \"#utility.yul\":3833:5228   */\n  pop\n  pop\n  jump\t// out\n    /* \"#utility.yul\":5234:5360   */\ntag_61:\n    /* \"#utility.yul\":5271:5278   */\n  0x00\n    /* \"#utility.yul\":5311:5353   */\n  0xffffffffffffffffffffffffffffffffffffffff\n    /* \"#utility.yul\":5304:5309   */\n  dup3\n    /* \"#utility.yul\":5300:5354   */\n  and\n    /* \"#utility.yul\":5289:5354   */\n  swap1\n  pop\n    /* \"#utility.yul\":5234:5360   */\n  swap2\n  swap1\n  pop\n  jump\t// out\n    /* \"#utility.yul\":5366:5462   */\ntag_62:\n    /* \"#utility.yul\":5403:5410   */\n  0x00\n    /* \"#utility.yul\":5432:5456   */\n  tag_130\n    /* \"#utility.yul\":5450:5455   */\n  dup3\n    /* \"#utility.yul\":5432:5456   */\n  tag_61\n  jump\t// in\ntag_130:\n    /* \"#utility.yul\":5421:5456   */\n  swap1\n  pop\n    /* \"#utility.yul\":5366:5462   */\n  swap2\n  swap1\n  pop\n  jump\t// out\n    /* \"#utility.yul\":5468:5586   */\ntag_63:\n    /* \"#utility.yul\":5555:5579   */\n  tag_132\n    /* \"#utility.yul\":5573:5578   */\n  dup2\n    /* \"#utility.yul\":5555:5579   */\n  tag_62\n  jump\t// in\ntag_132:\n    /* \"#utility.yul\":5550:5553   */\n  dup3\n    /* \"#utility.yul\":5543:5580   */\n  mstore\n    /* \"#utility.yul\":5468:5586   */\n  pop\n  pop\n  jump\t// out\n    /* \"#utility.yul\":5592:5814   */\ntag_14:\n    /* \"#utility.yul\":5685:5689   */\n  0x00\n    /* \"#utility.yul\":5723:5725   */\n  0x20\n    /* \"#utility.yul\":5712:5721   */\n  dup3\n    /* \"#utility.yul\":5708:5726   */\n  add\n    /* \"#utility.yul\":5700:5726   */\n  swap1\n  pop\n    /* \"#utility.yul\":5736:5807   */\n  tag_134\n    /* \"#utility.yul\":5804:5805   */\n  0x00\n    /* \"#utility.yul\":5793:5802   */\n  dup4\n    /* \"#utility.yul\":5789:5806   */\n  add\n    /* \"#utility.yul\":5780:5786   */\n  dup5\n    /* \"#utility.yul\":5736:5807   */\n  tag_63\n  jump\t// in\ntag_134:\n    /* \"#utility.yul\":5592:5814   */\n  swap3\n  swap2\n  pop\n  pop\n  jump\t// out\n    /* \"#utility.yul\":5820:6000   */\ntag_64:\n    /* \"#utility.yul\":5868:5945   */\n  0x4e487b7100000000000000000000000000000000000000000000000000000000\n    /* \"#utility.yul\":5865:5866   */\n  0x00\n    /* \"#utility.yul\":5858:5946   */\n  mstore\n    /* \"#utility.yul\":5965:5969   */\n  0x11\n    /* \"#utility.yul\":5962:5963   */\n  0x04\n    /* \"#utility.yul\":5955:5970   */\n  mstore\n    /* \"#utility.yul\":5989:5993   */\n  0x24\n    /* \"#utility.yul\":5986:5987   */\n  0x00\n    /* \"#utility.yul\":5979:5994   */\n  revert\n    /* \"#utility.yul\":6006:6197   */\ntag_32:\n    /* \"#utility.yul\":6046:6049   */\n  0x00\n    /* \"#utility.yul\":6065:6085   */\n  tag_137\n    /* \"#utility.yul\":6083:6084   */\n  dup3\n    /* \"#utility.yul\":6065:6085   */\n  tag_49\n  jump\t// in\ntag_137:\n    /* \"#utility.yul\":6060:6085   */\n  swap2\n  pop\n    /* \"#utility.yul\":6099:6119   */\n  tag_138\n    /* \"#utility.yul\":6117:6118   */\n  dup4\n    /* \"#utility.yul\":6099:6119   */\n  tag_49\n  jump\t// in\ntag_138:\n    /* \"#utility.yul\":6094:6119   */\n  swap3\n  pop\n    /* \"#utility.yul\":6142:6143   */\n  dup3\n    /* \"#utility.yul\":6139:6140   */\n  dup3\n    /* \"#utility.yul\":6135:6144   */\n  add\n    /* \"#utility.yul\":6128:6144   */\n  swap1\n  pop\n    /* \"#utility.yul\":6163:6166   */\n  dup1\n    /* \"#utility.yul\":6160:6161   */\n  dup3\n    /* \"#utility.yul\":6157:6167   */\n  gt\n    /* \"#utility.yul\":6154:6190   */\n  iszero\n  tag_139\n  jumpi\n    /* \"#utility.yul\":6170:6188   */\n  tag_140\n  tag_64\n  jump\t// in\ntag_140:\n    /* \"#utility.yul\":6154:6190   */\ntag_139:\n    /* \"#utility.yul\":6006:6197   */\n  swap3\n  swap2\n  pop\n  pop\n  jump\t// out\n    /* \"#utility.yul\":6203:6321   */\ntag_65:\n    /* \"#utility.yul\":6290:6314   */\n  tag_142\n    /* \"#utility.yul\":6308:6313   */\n  dup2\n    /* \"#utility.yul\":6290:6314   */\n  tag_49\n  jump\t// in\ntag_142:\n    /* \"#utility.yul\":6285:6288   */\n  dup3\n    /* \"#utility.yul\":6278:6315   */\n  mstore\n    /* \"#utility.yul\":6203:6321   */\n  pop\n  pop\n  jump\t// out\n    /* \"#utility.yul\":6327:6769   */\ntag_36:\n    /* \"#utility.yul\":6476:6480   */\n  0x00\n    /* \"#utility.yul\":6514:6516   */\n  0x60\n    /* \"#utility.yul\":6503:6512   */\n  dup3\n    /* \"#utility.yul\":6499:6517   */\n  add\n    /* \"#utility.yul\":6491:6517   */\n  swap1\n  pop\n    /* \"#utility.yul\":6527:6598   */\n  tag_144\n    /* \"#utility.yul\":6595:6596   */\n  0x00\n    /* \"#utility.yul\":6584:6593   */\n  dup4\n    /* \"#utility.yul\":6580:6597   */\n  add\n    /* \"#utility.yul\":6571:6577   */\n  dup7\n    /* \"#utility.yul\":6527:6598   */\n  tag_63\n  jump\t// in\ntag_144:\n    /* \"#utility.yul\":6608:6680   */\n  tag_145\n    /* \"#utility.yul\":6676:6678   */\n  0x20\n    /* \"#utility.yul\":6665:6674   */\n  dup4\n    /* \"#utility.yul\":6661:6679   */\n  add\n    /* \"#utility.yul\":6652:6658   */\n  dup6\n    /* \"#utility.yul\":6608:6680   */\n  tag_65\n  jump\t// in\ntag_145:\n    /* \"#utility.yul\":6690:6762   */\n  tag_146\n    /* \"#utility.yul\":6758:6760   */\n  0x40\n    /* \"#utility.yul\":6747:6756   */\n  dup4\n    /* \"#utility.yul\":6743:6761   */\n  add\n    /* \"#utility.yul\":6734:6740   */\n  dup5\n    /* \"#utility.yul\":6690:6762   */\n  tag_65\n  jump\t// in\ntag_146:\n    /* \"#utility.yul\":6327:6769   */\n  swap5\n  swap4\n  pop\n  pop\n  pop\n  pop\n  jump\t// out\n    /* \"#utility.yul\":6775:6997   */\ntag_40:\n    /* \"#utility.yul\":6868:6872   */\n  0x00\n    /* \"#utility.yul\":6906:6908   */\n  0x20\n    /* \"#utility.yul\":6895:6904   */\n  dup3\n    /* \"#utility.yul\":6891:6909   */\n  add\n    /* \"#utility.yul\":6883:6909   */\n  swap1\n  pop\n    /* \"#utility.yul\":6919:6990   */\n  tag_148\n    /* \"#utility.yul\":6987:6988   */\n  0x00\n    /* \"#utility.yul\":6976:6985   */\n  dup4\n    /* \"#utility.yul\":6972:6989   */\n  add\n    /* \"#utility.yul\":6963:6969   */\n  dup5\n    /* \"#utility.yul\":6919:6990   */\n  tag_65\n  jump\t// in\ntag_148:\n    /* \"#utility.yul\":6775:6997   */\n  swap3\n  swap2\n  pop\n  pop\n  jump\t// out\n    /* \"contracts/bet.sol\":286:12649  contract Bettoken is ERC20, Ownable, ReentrancyGuard, Pausable {... */\ntag_22:\n  dataSize(sub_0)\n  dup1\n  dataOffset(sub_0)\n  0x00\n  codecopy\n  0x00\n  return\nstop\n\nsub_0: assembly {\n        /* \"contracts/bet.sol\":286:12649  contract Bettoken is ERC20, Ownable, ReentrancyGuard, Pausable {... */\n      mstore(0x40, 0x80)\n      jumpi(tag_1, lt(calldatasize, 0x04))\n      shr(0xe0, calldataload(0x00))\n      dup1\n      0x8da5cb5b\n      gt\n      tag_47\n      jumpi\n      dup1\n      0xb785a6e7\n      gt\n      tag_48\n      jumpi\n      dup1\n      0xe086e5ec\n      gt\n      tag_49\n      jumpi\n      dup1\n      0xe086e5ec\n      eq\n      tag_41\n      jumpi\n      dup1\n      0xe43252d7\n      eq\n      tag_42\n      jumpi\n      dup1\n      0xe6a23c3d\n      eq\n      tag_43\n      jumpi\n      dup1\n      0xee43d43e\n      eq\n      tag_44\n      jumpi\n      dup1\n      0xf2fde38b\n      eq\n      tag_45\n      jumpi\n      dup1\n      0xfdb20ccb\n      eq\n      tag_46\n      jumpi\n      jump(tag_1)\n    tag_49:\n      dup1\n      0xb785a6e7\n      eq\n      tag_35\n      jumpi\n      dup1\n      0xb8e50cab\n      eq\n      tag_36\n      jumpi\n      dup1\n      0xbda95633\n      eq\n      tag_37\n      jumpi\n      dup1\n      0xc552e04b\n      eq\n      tag_38\n      jumpi\n      dup1\n      0xd50234c4\n      eq\n      tag_39\n      jumpi\n      dup1\n      0xdd62ed3e\n      eq\n      tag_40\n      jumpi\n      jump(tag_1)\n    tag_48:\n      dup1\n      0x95d89b41\n      gt\n      tag_50\n      jumpi\n      dup1\n      0x95d89b41\n      eq\n      tag_29\n      jumpi\n      dup1\n      0x9b19251a\n      eq\n      tag_30\n      jumpi\n      dup1\n      0xa089de2f\n      eq\n      tag_31\n      jumpi\n      dup1\n      0xa9059cbb\n      eq\n      tag_32\n      jumpi\n      dup1\n      0xabfcfcf3\n      eq\n      tag_33\n      jumpi\n      dup1\n      0xb0e68630\n      eq\n      tag_34\n      jumpi\n      jump(tag_1)\n    tag_50:\n      dup1\n      0x8da5cb5b\n      eq\n      tag_24\n      jumpi\n      dup1\n      0x902d55a5\n      eq\n      tag_25\n      jumpi\n      dup1\n      0x91500aff\n      eq\n      tag_26\n      jumpi\n      dup1\n      0x9357c239\n      eq\n      tag_27\n      jumpi\n      dup1\n      0x940de97e\n      eq\n      tag_28\n      jumpi\n      jump(tag_1)\n    tag_47:\n      dup1\n      0x516e3e15\n      gt\n      tag_51\n      jumpi\n      dup1\n      0x70a08231\n      gt\n      tag_52\n      jumpi\n      dup1\n      0x70a08231\n      eq\n      tag_18\n      jumpi\n      dup1\n      0x715018a6\n      eq\n      tag_19\n      jumpi\n      dup1\n      0x71aa60fd\n      eq\n      tag_20\n      jumpi\n      dup1\n      0x77fff102\n      eq\n      tag_21\n      jumpi\n      dup1\n      0x8ab1d681\n      eq\n      tag_22\n      jumpi\n      dup1\n      0x8d8f2adb\n      eq\n      tag_23\n      jumpi\n      jump(tag_1)\n    tag_52:\n      dup1\n      0x516e3e15\n      eq\n      tag_13\n      jumpi\n      dup1\n      0x54dd1da4\n      eq\n      tag_14\n      jumpi\n      dup1\n      0x5c975abb\n      eq\n      tag_15\n      jumpi\n      dup1\n      0x5fb3b944\n      eq\n      tag_16\n      jumpi\n      dup1\n      0x6c6218ae\n      eq\n      tag_17\n      jumpi\n      jump(tag_1)\n    tag_51:\n      dup1\n      0x23b872dd\n      gt\n      tag_53\n      jumpi\n      dup1\n      0x23b872dd\n      eq\n      tag_7\n      jumpi\n      dup1\n      0x2a237bb6\n      eq\n      tag_8\n      jumpi\n      dup1\n      0x313ce567\n      eq\n      tag_9\n      jumpi\n      dup1\n      0x33caa27f\n      eq\n      tag_10\n      jumpi\n      dup1\n      0x40f02ab6\n      eq\n      tag_11\n      jumpi\n      dup1\n      0x503ad00e\n      eq\n      tag_12\n      jumpi\n      jump(tag_1)\n    tag_53:\n      dup1\n      0x034c0cf7\n      eq\n      tag_2\n      jumpi\n      dup1\n      0x06fdde03\n      eq\n      tag_3\n      jumpi\n      dup1\n      0x095ea7b3\n      eq\n      tag_4\n      jumpi\n      dup1\n      0x1514617e\n      eq\n      tag_5\n      jumpi\n      dup1\n      0x18160ddd\n      eq\n      tag_6\n      jumpi\n    tag_1:\n      0x00\n      dup1\n      revert\n        /* \"contracts/bet.sol\":2053:2106  mapping(address => string) public userToAffiliateCode */\n    tag_2:\n      callvalue\n      dup1\n      iszero\n      tag_54\n      jumpi\n      0x00\n      dup1\n      revert\n    tag_54:\n      pop\n      tag_55\n      0x04\n      dup1\n      calldatasize\n      sub\n      dup2\n      add\n      swap1\n      tag_56\n      swap2\n      swap1\n      tag_57\n      jump\t// in\n    tag_56:\n      tag_58\n      jump\t// in\n    tag_55:\n      mload(0x40)\n      tag_59\n      swap2\n      swap1\n      tag_60\n      jump\t// in\n    tag_59:\n      mload(0x40)\n      dup1\n      swap2\n      sub\n      swap1\n      return\n        /* \"@openzeppelin/contracts/token/ERC20/ERC20.sol\":2074:2163  function name() public view virtual returns (string memory) {... */\n    tag_3:\n      callvalue\n      dup1\n      iszero\n      tag_61\n      jumpi\n      0x00\n      dup1\n      revert\n    tag_61:\n      pop\n      tag_62\n      tag_63\n      jump\t// in\n    tag_62:\n      mload(0x40)\n      tag_64\n      swap2\n      swap1\n      tag_60\n      jump\t// in\n    tag_64:\n      mload(0x40)\n      dup1\n      swap2\n      sub\n      swap1\n      return\n        /* \"@openzeppelin/contracts/token/ERC20/ERC20.sol\":4293:4479  function approve(address spender, uint256 value) public virtual returns (bool) {... */\n    tag_4:\n      callvalue\n      dup1\n      iszero\n      tag_65\n      jumpi\n      0x00\n      dup1\n      revert\n    tag_65:\n      pop\n      tag_66\n      0x04\n      dup1\n      calldatasize\n      sub\n      dup2\n      add\n      swap1\n      tag_67\n      swap2\n      swap1\n      tag_68\n      jump\t// in\n    tag_67:\n      tag_69\n      jump\t// in\n    tag_66:\n      mload(0x40)\n      tag_70\n      swap2\n      swap1\n      tag_71\n      jump\t// in\n    tag_70:\n      mload(0x40)\n      dup1\n      swap2\n      sub\n      swap1\n      return\n        /* \"contracts/bet.sol\":1491:1532  uint256 public vestingDuration = 180 days */\n    tag_5:\n      callvalue\n      dup1\n      iszero\n      tag_72\n      jumpi\n      0x00\n      dup1\n      revert\n    tag_72:\n      pop\n      tag_73\n      tag_74\n      jump\t// in\n    tag_73:\n      mload(0x40)\n      tag_75\n      swap2\n      swap1\n      tag_76\n      jump\t// in\n    tag_75:\n      mload(0x40)\n      dup1\n      swap2\n      sub\n      swap1\n      return\n        /* \"@openzeppelin/contracts/token/ERC20/ERC20.sol\":3144:3241  function totalSupply() public view virtual returns (uint256) {... */\n    tag_6:\n      callvalue\n      dup1\n      iszero\n      tag_77\n      jumpi\n      0x00\n      dup1\n      revert\n    tag_77:\n      pop\n      tag_78\n      tag_79\n      jump\t// in\n    tag_78:\n      mload(0x40)\n      tag_80\n      swap2\n      swap1\n      tag_76\n      jump\t// in\n    tag_80:\n      mload(0x40)\n      dup1\n      swap2\n      sub\n      swap1\n      return\n        /* \"@openzeppelin/contracts/token/ERC20/ERC20.sol\":5039:5283  function transferFrom(address from, address to, uint256 value) public virtual returns (bool) {... */\n    tag_7:\n      callvalue\n      dup1\n      iszero\n      tag_81\n      jumpi\n      0x00\n      dup1\n      revert\n    tag_81:\n      pop\n      tag_82\n      0x04\n      dup1\n      calldatasize\n      sub\n      dup2\n      add\n      swap1\n      tag_83\n      swap2\n      swap1\n      tag_84\n      jump\t// in\n    tag_83:\n      tag_85\n      jump\t// in\n    tag_82:\n      mload(0x40)\n      tag_86\n      swap2\n      swap1\n      tag_71\n      jump\t// in\n    tag_86:\n      mload(0x40)\n      dup1\n      swap2\n      sub\n      swap1\n      return\n        /* \"contracts/bet.sol\":2362:2399  bool public privateSaleActive = false */\n    tag_8:\n      callvalue\n      dup1\n      iszero\n      tag_87\n      jumpi\n      0x00\n      dup1\n      revert\n    tag_87:\n      pop\n      tag_88\n      tag_89\n      jump\t// in\n    tag_88:\n      mload(0x40)\n      tag_90\n      swap2\n      swap1\n      tag_71\n      jump\t// in\n    tag_90:\n      mload(0x40)\n      dup1\n      swap2\n      sub\n      swap1\n      return\n        /* \"@openzeppelin/contracts/token/ERC20/ERC20.sol\":3002:3084  function decimals() public view virtual returns (uint8) {... */\n    tag_9:\n      callvalue\n      dup1\n      iszero\n      tag_91\n      jumpi\n      0x00\n      dup1\n      revert\n    tag_91:\n      pop\n      tag_92\n      tag_93\n      jump\t// in\n    tag_92:\n      mload(0x40)\n      tag_94\n      swap2\n      swap1\n      tag_95\n      jump\t// in\n    tag_94:\n      mload(0x40)\n      dup1\n      swap2\n      sub\n      swap1\n      return\n        /* \"contracts/bet.sol\":6129:8097  function buyTokens(uint256 usdAmount, string calldata affiliateCode) external payable nonReentrant whenNotPaused {... */\n    tag_10:\n      tag_96\n      0x04\n      dup1\n      calldatasize\n      sub\n      dup2\n      add\n      swap1\n      tag_97\n      swap2\n      swap1\n      tag_98\n      jump\t// in\n    tag_97:\n      tag_99\n      jump\t// in\n    tag_96:\n      stop\n        /* \"contracts/bet.sol\":1418:1457  uint256 public stakeDuration = 365 days */\n    tag_11:\n      callvalue\n      dup1\n      iszero\n      tag_100\n      jumpi\n      0x00\n      dup1\n      revert\n    tag_100:\n      pop\n      tag_101\n      tag_102\n      jump\t// in\n    tag_101:\n      mload(0x40)\n      tag_103\n      swap2\n      swap1\n      tag_76\n      jump\t// in\n    tag_103:\n      mload(0x40)\n      dup1\n      swap2\n      sub\n      swap1\n      return\n        /* \"contracts/bet.sol\":4226:4709  function addAffiliate(address user, string calldata code) external onlyOwner {... */\n    tag_12:\n      callvalue\n      dup1\n      iszero\n      tag_104\n      jumpi\n      0x00\n      dup1\n      revert\n    tag_104:\n      pop\n      tag_105\n      0x04\n      dup1\n      calldatasize\n      sub\n      dup2\n      add\n      swap1\n      tag_106\n      swap2\n      swap1\n      tag_107\n      jump\t// in\n    tag_106:\n      tag_108\n      jump\t// in\n    tag_105:\n      stop\n        /* \"contracts/bet.sol\":1229:1295  uint256 public maxTokensPerTransactionPrivateSale = 500 * 10 ** 18 */\n    tag_13:\n      callvalue\n      dup1\n      iszero\n      tag_109\n      jumpi\n      0x00\n      dup1\n      revert\n    tag_109:\n      pop\n      tag_110\n      tag_111\n      jump\t// in\n    tag_110:\n      mload(0x40)\n      tag_112\n      swap2\n      swap1\n      tag_76\n      jump\t// in\n    tag_112:\n      mload(0x40)\n      dup1\n      swap2\n      sub\n      swap1\n      return\n        /* \"contracts/bet.sol\":9571:10264  function releaseVestedTokens() external nonReentrant {... */\n    tag_14:\n      callvalue\n      dup1\n      iszero\n      tag_113\n      jumpi\n      0x00\n      dup1\n      revert\n    tag_113:\n      pop\n      tag_114\n      tag_115\n      jump\t// in\n    tag_114:\n      stop\n        /* \"@openzeppelin/contracts/security/Pausable.sol\":1615:1699  function paused() public view virtual returns (bool) {... */\n    tag_15:\n      callvalue\n      dup1\n      iszero\n      tag_116\n      jumpi\n      0x00\n      dup1\n      revert\n    tag_116:\n      pop\n      tag_117\n      tag_118\n      jump\t// in\n    tag_117:\n      mload(0x40)\n      tag_119\n      swap2\n      swap1\n      tag_71\n      jump\t// in\n    tag_119:\n      mload(0x40)\n      dup1\n      swap2\n      sub\n      swap1\n      return\n        /* \"contracts/bet.sol\":734:774  uint256 public privateSaleSoldTokens = 0 */\n    tag_16:\n      callvalue\n      dup1\n      iszero\n      tag_120\n      jumpi\n      0x00\n      dup1\n      revert\n    tag_120:\n      pop\n      tag_121\n      tag_122\n      jump\t// in\n    tag_121:\n      mload(0x40)\n      tag_123\n      swap2\n      swap1\n      tag_76\n      jump\t// in\n    tag_123:\n      mload(0x40)\n      dup1\n      swap2\n      sub\n      swap1\n      return\n        /* \"contracts/bet.sol\":11600:11812  function setAffiliateRewardPercentage(uint256 _percentage) external onlyOwner {... */\n    tag_17:\n      callvalue\n      dup1\n      iszero\n      tag_124\n      jumpi\n      0x00\n      dup1\n      revert\n    tag_124:\n      pop\n      tag_125\n      0x04\n      dup1\n      calldatasize\n      sub\n      dup2\n      add\n      swap1\n      tag_126\n      swap2\n      swap1\n      tag_127\n      jump\t// in\n    tag_126:\n      tag_128\n      jump\t// in\n    tag_125:\n      stop\n        /* \"@openzeppelin/contracts/token/ERC20/ERC20.sol\":3299:3415  function balanceOf(address account) public view virtual returns (uint256) {... */\n    tag_18:\n      callvalue\n      dup1\n      iszero\n      tag_129\n      jumpi\n      0x00\n      dup1\n      revert\n    tag_129:\n      pop\n      tag_130\n      0x04\n      dup1\n      calldatasize\n      sub\n      dup2\n      add\n      swap1\n      tag_131\n      swap2\n      swap1\n      tag_57\n      jump\t// in\n    tag_131:\n      tag_132\n      jump\t// in\n    tag_130:\n      mload(0x40)\n      tag_133\n      swap2\n      swap1\n      tag_76\n      jump\t// in\n    tag_133:\n      mload(0x40)\n      dup1\n      swap2\n      sub\n      swap1\n      return\n        /* \"@openzeppelin/contracts/access/Ownable.sol\":2293:2394  function renounceOwnership() public virtual onlyOwner {... */\n    tag_19:\n      callvalue\n      dup1\n      iszero\n      tag_134\n      jumpi\n      0x00\n      dup1\n      revert\n    tag_134:\n      pop\n      tag_135\n      tag_136\n      jump\t// in\n    tag_135:\n      stop\n        /* \"contracts/bet.sol\":8339:8664  function calculateTokens(uint256 usdAmount) public view returns (uint256) {... */\n    tag_20:\n      callvalue\n      dup1\n      iszero\n      tag_137\n      jumpi\n      0x00\n      dup1\n      revert\n    tag_137:\n      pop\n      tag_138\n      0x04\n      dup1\n      calldatasize\n      sub\n      dup2\n      add\n      swap1\n      tag_139\n      swap2\n      swap1\n      tag_127\n      jump\t// in\n    tag_139:\n      tag_140\n      jump\t// in\n    tag_138:\n      mload(0x40)\n      tag_141\n      swap2\n      swap1\n      tag_76\n      jump\t// in\n    tag_141:\n      mload(0x40)\n      dup1\n      swap2\n      sub\n      swap1\n      return\n        /* \"contracts/bet.sol\":12186:12647  function setPrivateSaleTokenLimits(uint256 _minTokensPrivateSale, uint256 _maxTokensPrivateSale) external onlyOwner {... */\n    tag_21:\n      callvalue\n      dup1\n      iszero\n      tag_142\n      jumpi\n      0x00\n      dup1\n      revert\n    tag_142:\n      pop\n      tag_143\n      0x04\n      dup1\n      calldatasize\n      sub\n      dup2\n      add\n      swap1\n      tag_144\n      swap2\n      swap1\n      tag_145\n      jump\t// in\n    tag_144:\n      tag_146\n      jump\t// in\n    tag_143:\n      stop\n        /* \"contracts/bet.sol\":3750:3993  function removeFromWhitelist(address _address) external onlyOwner {... */\n    tag_22:\n      callvalue\n      dup1\n      iszero\n      tag_147\n      jumpi\n      0x00\n      dup1\n      revert\n    tag_147:\n      pop\n      tag_148\n      0x04\n      dup1\n      calldatasize\n      sub\n      dup2\n      add\n      swap1\n      tag_149\n      swap2\n      swap1\n      tag_57\n      jump\t// in\n    tag_149:\n      tag_150\n      jump\t// in\n    tag_148:\n      stop\n        /* \"contracts/bet.sol\":10721:10971  function withdrawTokens() external onlyOwner {... */\n    tag_23:\n      callvalue\n      dup1\n      iszero\n      tag_151\n      jumpi\n      0x00\n      dup1\n      revert\n    tag_151:\n      pop\n      tag_152\n      tag_153\n      jump\t// in\n    tag_152:\n      stop\n        /* \"@openzeppelin/contracts/access/Ownable.sol\":1638:1723  function owner() public view virtual returns (address) {... */\n    tag_24:\n      callvalue\n      dup1\n      iszero\n      tag_154\n      jumpi\n      0x00\n      dup1\n      revert\n    tag_154:\n      pop\n      tag_155\n      tag_156\n      jump\t// in\n    tag_155:\n      mload(0x40)\n      tag_157\n      swap2\n      swap1\n      tag_158\n      jump\t// in\n    tag_157:\n      mload(0x40)\n      dup1\n      swap2\n      sub\n      swap1\n      return\n        /* \"contracts/bet.sol\":385:446  uint256 public constant TOTAL_SUPPLY = 200_000_000 * 10 ** 18 */\n    tag_25:\n      callvalue\n      dup1\n      iszero\n      tag_159\n      jumpi\n      0x00\n      dup1\n      revert\n    tag_159:\n      pop\n      tag_160\n      tag_161\n      jump\t// in\n    tag_160:\n      mload(0x40)\n      tag_162\n      swap2\n      swap1\n      tag_76\n      jump\t// in\n    tag_162:\n      mload(0x40)\n      dup1\n      swap2\n      sub\n      swap1\n      return\n        /* \"contracts/bet.sol\":997:1044  uint256 public minimumUsdAmount = 50 * 10 ** 18 */\n    tag_26:\n      callvalue\n      dup1\n      iszero\n      tag_163\n      jumpi\n      0x00\n      dup1\n      revert\n    tag_163:\n      pop\n      tag_164\n      tag_165\n      jump\t// in\n    tag_164:\n      mload(0x40)\n      tag_166\n      swap2\n      swap1\n      tag_76\n      jump\t// in\n    tag_166:\n      mload(0x40)\n      dup1\n      swap2\n      sub\n      swap1\n      return\n        /* \"contracts/bet.sol\":5641:5821  function getPrivateSaleStartTime() external view returns (uint256) {... */\n    tag_27:\n      callvalue\n      dup1\n      iszero\n      tag_167\n      jumpi\n      0x00\n      dup1\n      revert\n    tag_167:\n      pop\n      tag_168\n      tag_169\n      jump\t// in\n    tag_168:\n      mload(0x40)\n      tag_170\n      swap2\n      swap1\n      tag_76\n      jump\t// in\n    tag_170:\n      mload(0x40)\n      dup1\n      swap2\n      sub\n      swap1\n      return\n        /* \"contracts/bet.sol\":780:815  uint256 public privateSaleStartTime */\n    tag_28:\n      callvalue\n      dup1\n      iszero\n      tag_171\n      jumpi\n      0x00\n      dup1\n      revert\n    tag_171:\n      pop\n      tag_172\n      tag_173\n      jump\t// in\n    tag_172:\n      mload(0x40)\n      tag_174\n      swap2\n      swap1\n      tag_76\n      jump\t// in\n    tag_174:\n      mload(0x40)\n      dup1\n      swap2\n      sub\n      swap1\n      return\n        /* \"@openzeppelin/contracts/token/ERC20/ERC20.sol\":2276:2369  function symbol() public view virtual returns (string memory) {... */\n    tag_29:\n      callvalue\n      dup1\n      iszero\n      tag_175\n      jumpi\n      0x00\n      dup1\n      revert\n    tag_175:\n      pop\n      tag_176\n      tag_177\n      jump\t// in\n    tag_176:\n      mload(0x40)\n      tag_178\n      swap2\n      swap1\n      tag_60\n      jump\t// in\n    tag_178:\n      mload(0x40)\n      dup1\n      swap2\n      sub\n      swap1\n      return\n        /* \"contracts/bet.sol\":1979:2020  mapping(address => bool) public whitelist */\n    tag_30:\n      callvalue\n      dup1\n      iszero\n      tag_179\n      jumpi\n      0x00\n      dup1\n      revert\n    tag_179:\n      pop\n      tag_180\n      0x04\n      dup1\n      calldatasize\n      sub\n      dup2\n      add\n      swap1\n      tag_181\n      swap2\n      swap1\n      tag_57\n      jump\t// in\n    tag_181:\n      tag_182\n      jump\t// in\n    tag_180:\n      mload(0x40)\n      tag_183\n      swap2\n      swap1\n      tag_71\n      jump\t// in\n    tag_183:\n      mload(0x40)\n      dup1\n      swap2\n      sub\n      swap1\n      return\n        /* \"contracts/bet.sol\":4878:5497  function startPrivateSale(uint256 _affiliateRewardPercentage) external onlyOwner {... */\n    tag_31:\n      callvalue\n      dup1\n      iszero\n      tag_184\n      jumpi\n      0x00\n      dup1\n      revert\n    tag_184:\n      pop\n      tag_185\n      0x04\n      dup1\n      calldatasize\n      sub\n      dup2\n      add\n      swap1\n      tag_186\n      swap2\n      swap1\n      tag_127\n      jump\t// in\n    tag_186:\n      tag_187\n      jump\t// in\n    tag_185:\n      stop\n        /* \"@openzeppelin/contracts/token/ERC20/ERC20.sol\":3610:3788  function transfer(address to, uint256 value) public virtual returns (bool) {... */\n    tag_32:\n      callvalue\n      dup1\n      iszero\n      tag_188\n      jumpi\n      0x00\n      dup1\n      revert\n    tag_188:\n      pop\n      tag_189\n      0x04\n      dup1\n      calldatasize\n      sub\n      dup2\n      add\n      swap1\n      tag_190\n      swap2\n      swap1\n      tag_68\n      jump\t// in\n    tag_190:\n      tag_191\n      jump\t// in\n    tag_189:\n      mload(0x40)\n      tag_192\n      swap2\n      swap1\n      tag_71\n      jump\t// in\n    tag_192:\n      mload(0x40)\n      dup1\n      swap2\n      sub\n      swap1\n      return\n        /* \"contracts/bet.sol\":2146:2194  mapping(string => address) public affiliateCodes */\n    tag_33:\n      callvalue\n      dup1\n      iszero\n      tag_193\n      jumpi\n      0x00\n      dup1\n      revert\n    tag_193:\n      pop\n      tag_194\n      0x04\n      dup1\n      calldatasize\n      sub\n      dup2\n      add\n      swap1\n      tag_195\n      swap2\n      swap1\n      tag_196\n      jump\t// in\n    tag_195:\n      tag_197\n      jump\t// in\n    tag_194:\n      mload(0x40)\n      tag_198\n      swap2\n      swap1\n      tag_158\n      jump\t// in\n    tag_198:\n      mload(0x40)\n      dup1\n      swap2\n      sub\n      swap1\n      return\n        /* \"contracts/bet.sol\":550:605  uint256 public privateSaleStartPrice = 0.001 * 10 ** 18 */\n    tag_34:\n      callvalue\n      dup1\n      iszero\n      tag_199\n      jumpi\n      0x00\n      dup1\n      revert\n    tag_199:\n      pop\n      tag_200\n      tag_201\n      jump\t// in\n    tag_200:\n      mload(0x40)\n      tag_202\n      swap2\n      swap1\n      tag_76\n      jump\t// in\n    tag_202:\n      mload(0x40)\n      dup1\n      swap2\n      sub\n      swap1\n      return\n        /* \"contracts/bet.sol\":1097:1156  uint256 public minTokensPerUserPrivateSale = 100 * 10 ** 18 */\n    tag_35:\n      callvalue\n      dup1\n      iszero\n      tag_203\n      jumpi\n      0x00\n      dup1\n      revert\n    tag_203:\n      pop\n      tag_204\n      tag_205\n      jump\t// in\n    tag_204:\n      mload(0x40)\n      tag_206\n      swap2\n      swap1\n      tag_76\n      jump\t// in\n    tag_206:\n      mload(0x40)\n      dup1\n      swap2\n      sub\n      swap1\n      return\n        /* \"contracts/bet.sol\":1566:1606  uint256 public vestingInterval = 30 days */\n    tag_36:\n      callvalue\n      dup1\n      iszero\n      tag_207\n      jumpi\n      0x00\n      dup1\n      revert\n    tag_207:\n      pop\n      tag_208\n      tag_209\n      jump\t// in\n    tag_208:\n      mload(0x40)\n      tag_210\n      swap2\n      swap1\n      tag_76\n      jump\t// in\n    tag_210:\n      mload(0x40)\n      dup1\n      swap2\n      sub\n      swap1\n      return\n        /* \"contracts/bet.sol\":645:699  uint256 public privateSaleEndPrice = 0.0505 * 10 ** 18 */\n    tag_37:\n      callvalue\n      dup1\n      iszero\n      tag_211\n      jumpi\n      0x00\n      dup1\n      revert\n    tag_211:\n      pop\n      tag_212\n      tag_213\n      jump\t// in\n    tag_212:\n      mload(0x40)\n      tag_214\n      swap2\n      swap1\n      tag_76\n      jump\t// in\n    tag_214:\n      mload(0x40)\n      dup1\n      swap2\n      sub\n      swap1\n      return\n        /* \"contracts/bet.sol\":488:544  uint256 public privateSaleTokens = 38_835_764 * 10 ** 18 */\n    tag_38:\n      callvalue\n      dup1\n      iszero\n      tag_215\n      jumpi\n      0x00\n      dup1\n      revert\n    tag_215:\n      pop\n      tag_216\n      tag_217\n      jump\t// in\n    tag_216:\n      mload(0x40)\n      tag_218\n      swap2\n      swap1\n      tag_76\n      jump\t// in\n    tag_218:\n      mload(0x40)\n      dup1\n      swap2\n      sub\n      swap1\n      return\n        /* \"contracts/bet.sol\":2240:2284  uint256 public affiliateRewardPercentage = 5 */\n    tag_39:\n      callvalue\n      dup1\n      iszero\n      tag_219\n      jumpi\n      0x00\n      dup1\n      revert\n    tag_219:\n      pop\n      tag_220\n      tag_221\n      jump\t// in\n    tag_220:\n      mload(0x40)\n      tag_222\n      swap2\n      swap1\n      tag_76\n      jump\t// in\n    tag_222:\n      mload(0x40)\n      dup1\n      swap2\n      sub\n      swap1\n      return\n        /* \"@openzeppelin/contracts/token/ERC20/ERC20.sol\":3846:3986  function allowance(address owner, address spender) public view virtual returns (uint256) {... */\n    tag_40:\n      callvalue\n      dup1\n      iszero\n      tag_223\n      jumpi\n      0x00\n      dup1\n      revert\n    tag_223:\n      pop\n      tag_224\n      0x04\n      dup1\n      calldatasize\n      sub\n      dup2\n      add\n      swap1\n      tag_225\n      swap2\n      swap1\n      tag_226\n      jump\t// in\n    tag_225:\n      tag_227\n      jump\t// in\n    tag_224:\n      mload(0x40)\n      tag_228\n      swap2\n      swap1\n      tag_76\n      jump\t// in\n    tag_228:\n      mload(0x40)\n      dup1\n      swap2\n      sub\n      swap1\n      return\n        /* \"contracts/bet.sol\":11110:11402  function withdrawETH() external onlyOwner {... */\n    tag_41:\n      callvalue\n      dup1\n      iszero\n      tag_229\n      jumpi\n      0x00\n      dup1\n      revert\n    tag_229:\n      pop\n      tag_230\n      tag_231\n      jump\t// in\n    tag_230:\n      stop\n        /* \"contracts/bet.sol\":3392:3561  function addToWhitelist(address _address) external onlyOwner {... */\n    tag_42:\n      callvalue\n      dup1\n      iszero\n      tag_232\n      jumpi\n      0x00\n      dup1\n      revert\n    tag_232:\n      pop\n      tag_233\n      0x04\n      dup1\n      calldatasize\n      sub\n      dup2\n      add\n      swap1\n      tag_234\n      swap2\n      swap1\n      tag_57\n      jump\t// in\n    tag_234:\n      tag_235\n      jump\t// in\n    tag_233:\n      stop\n        /* \"contracts/bet.sol\":10392:10578  function endPrivateSale() external onlyOwner {... */\n    tag_43:\n      callvalue\n      dup1\n      iszero\n      tag_236\n      jumpi\n      0x00\n      dup1\n      revert\n    tag_236:\n      pop\n      tag_237\n      tag_238\n      jump\t// in\n    tag_237:\n      stop\n        /* \"contracts/bet.sol\":894:943  uint256 public maxTokensPerUser = 1000 * 10 ** 18 */\n    tag_44:\n      callvalue\n      dup1\n      iszero\n      tag_239\n      jumpi\n      0x00\n      dup1\n      revert\n    tag_239:\n      pop\n      tag_240\n      tag_241\n      jump\t// in\n    tag_240:\n      mload(0x40)\n      tag_242\n      swap2\n      swap1\n      tag_76\n      jump\t// in\n    tag_242:\n      mload(0x40)\n      dup1\n      swap2\n      sub\n      swap1\n      return\n        /* \"@openzeppelin/contracts/access/Ownable.sol\":2543:2758  function transferOwnership(address newOwner) public virtual onlyOwner {... */\n    tag_45:\n      callvalue\n      dup1\n      iszero\n      tag_243\n      jumpi\n      0x00\n      dup1\n      revert\n    tag_243:\n      pop\n      tag_244\n      0x04\n      dup1\n      calldatasize\n      sub\n      dup2\n      add\n      swap1\n      tag_245\n      swap2\n      swap1\n      tag_57\n      jump\t// in\n    tag_245:\n      tag_246\n      jump\t// in\n    tag_244:\n      stop\n        /* \"contracts/bet.sol\":1863:1922  mapping(address => VestingSchedule) public vestingSchedules */\n    tag_46:\n      callvalue\n      dup1\n      iszero\n      tag_247\n      jumpi\n      0x00\n      dup1\n      revert\n    tag_247:\n      pop\n      tag_248\n      0x04\n      dup1\n      calldatasize\n      sub\n      dup2\n      add\n      swap1\n      tag_249\n      swap2\n      swap1\n      tag_57\n      jump\t// in\n    tag_249:\n      tag_250\n      jump\t// in\n    tag_248:\n      mload(0x40)\n      tag_251\n      swap6\n      swap5\n      swap4\n      swap3\n      swap2\n      swap1\n      tag_252\n      jump\t// in\n    tag_251:\n      mload(0x40)\n      dup1\n      swap2\n      sub\n      swap1\n      return\n        /* \"contracts/bet.sol\":2053:2106  mapping(address => string) public userToAffiliateCode */\n    tag_58:\n      mstore(0x20, 0x16)\n      dup1\n      0x00\n      mstore\n      keccak256(0x00, 0x40)\n      0x00\n      swap2\n      pop\n      swap1\n      pop\n      dup1\n      sload\n      tag_253\n      swap1\n      tag_254\n      jump\t// in\n    tag_253:\n      dup1\n      0x1f\n      add\n      0x20\n      dup1\n      swap2\n      div\n      mul\n      0x20\n      add\n      mload(0x40)\n      swap1\n      dup2\n      add\n      0x40\n      mstore\n      dup1\n      swap3\n      swap2\n      swap1\n      dup2\n      dup2\n      mstore\n      0x20\n      add\n      dup3\n      dup1\n      sload\n      tag_255\n      swap1\n      tag_254\n      jump\t// in\n    tag_255:\n      dup1\n      iszero\n      tag_256\n      jumpi\n      dup1\n      0x1f\n      lt\n      tag_257\n      jumpi\n      0x0100\n      dup1\n      dup4\n      sload\n      div\n      mul\n      dup4\n      mstore\n      swap2\n      0x20\n      add\n      swap2\n      jump(tag_256)\n    tag_257:\n      dup3\n      add\n      swap2\n      swap1\n      0x00\n      mstore\n      keccak256(0x00, 0x20)\n      swap1\n    tag_258:\n      dup2\n      sload\n      dup2\n      mstore\n      swap1\n      0x01\n      add\n      swap1\n      0x20\n      add\n      dup1\n      dup4\n      gt\n      tag_258\n      jumpi\n      dup3\n      swap1\n      sub\n      0x1f\n      and\n      dup3\n      add\n      swap2\n    tag_256:\n      pop\n      pop\n      pop\n      pop\n      pop\n      dup2\n      jump\t// out\n        /* \"@openzeppelin/contracts/token/ERC20/ERC20.sol\":2074:2163  function name() public view virtual returns (string memory) {... */\n    tag_63:\n        /* \"@openzeppelin/contracts/token/ERC20/ERC20.sol\":2119:2132  string memory */\n      0x60\n        /* \"@openzeppelin/contracts/token/ERC20/ERC20.sol\":2151:2156  _name */\n      0x03\n        /* \"@openzeppelin/contracts/token/ERC20/ERC20.sol\":2144:2156  return _name */\n      dup1\n      sload\n      tag_260\n      swap1\n      tag_254\n      jump\t// in\n    tag_260:\n      dup1\n      0x1f\n      add\n      0x20\n      dup1\n      swap2\n      div\n      mul\n      0x20\n      add\n      mload(0x40)\n      swap1\n      dup2\n      add\n      0x40\n      mstore\n      dup1\n      swap3\n      swap2\n      swap1\n      dup2\n      dup2\n      mstore\n      0x20\n      add\n      dup3\n      dup1\n      sload\n      tag_261\n      swap1\n      tag_254\n      jump\t// in\n    tag_261:\n      dup1\n      iszero\n      tag_262\n      jumpi\n      dup1\n      0x1f\n      lt\n      tag_263\n      jumpi\n      0x0100\n      dup1\n      dup4\n      sload\n      div\n      mul\n      dup4\n      mstore\n      swap2\n      0x20\n      add\n      swap2\n      jump(tag_262)\n    tag_263:\n      dup3\n      add\n      swap2\n      swap1\n      0x00\n      mstore\n      keccak256(0x00, 0x20)\n      swap1\n    tag_264:\n      dup2\n      sload\n      dup2\n      mstore\n      swap1\n      0x01\n      add\n      swap1\n      0x20\n      add\n      dup1\n      dup4\n      gt\n      tag_264\n      jumpi\n      dup3\n      swap1\n      sub\n      0x1f\n      and\n      dup3\n      add\n      swap2\n    tag_262:\n      pop\n      pop\n      pop\n      pop\n      pop\n      swap1\n      pop\n        /* \"@openzeppelin/contracts/token/ERC20/ERC20.sol\":2074:2163  function name() public view virtual returns (string memory) {... */\n      swap1\n      jump\t// out\n        /* \"@openzeppelin/contracts/token/ERC20/ERC20.sol\":4293:4479  function approve(address spender, uint256 value) public virtual returns (bool) {... */\n    tag_69:\n        /* \"@openzeppelin/contracts/token/ERC20/ERC20.sol\":4366:4370  bool */\n      0x00\n        /* \"@openzeppelin/contracts/token/ERC20/ERC20.sol\":4382:4395  address owner */\n      dup1\n        /* \"@openzeppelin/contracts/token/ERC20/ERC20.sol\":4398:4410  _msgSender() */\n      tag_266\n        /* \"@openzeppelin/contracts/token/ERC20/ERC20.sol\":4398:4408  _msgSender */\n      tag_267\n        /* \"@openzeppelin/contracts/token/ERC20/ERC20.sol\":4398:4410  _msgSender() */\n      jump\t// in\n    tag_266:\n        /* \"@openzeppelin/contracts/token/ERC20/ERC20.sol\":4382:4410  address owner = _msgSender() */\n      swap1\n      pop\n        /* \"@openzeppelin/contracts/token/ERC20/ERC20.sol\":4420:4451  _approve(owner, spender, value) */\n      tag_268\n        /* \"@openzeppelin/contracts/token/ERC20/ERC20.sol\":4429:4434  owner */\n      dup2\n        /* \"@openzeppelin/contracts/token/ERC20/ERC20.sol\":4436:4443  spender */\n      dup6\n        /* \"@openzeppelin/contracts/token/ERC20/ERC20.sol\":4445:4450  value */\n      dup6\n        /* \"@openzeppelin/contracts/token/ERC20/ERC20.sol\":4420:4428  _approve */\n      tag_269\n        /* \"@openzeppelin/contracts/token/ERC20/ERC20.sol\":4420:4451  _approve(owner, spender, value) */\n      jump\t// in\n    tag_268:\n        /* \"@openzeppelin/contracts/token/ERC20/ERC20.sol\":4468:4472  true */\n      0x01\n        /* \"@openzeppelin/contracts/token/ERC20/ERC20.sol\":4461:4472  return true */\n      swap2\n      pop\n      pop\n        /* \"@openzeppelin/contracts/token/ERC20/ERC20.sol\":4293:4479  function approve(address spender, uint256 value) public virtual returns (bool) {... */\n      swap3\n      swap2\n      pop\n      pop\n      jump\t// out\n        /* \"contracts/bet.sol\":1491:1532  uint256 public vestingDuration = 180 days */\n    tag_74:\n      sload(0x12)\n      dup2\n      jump\t// out\n        /* \"@openzeppelin/contracts/token/ERC20/ERC20.sol\":3144:3241  function totalSupply() public view virtual returns (uint256) {... */\n    tag_79:\n        /* \"@openzeppelin/contracts/token/ERC20/ERC20.sol\":3196:3203  uint256 */\n      0x00\n        /* \"@openzeppelin/contracts/token/ERC20/ERC20.sol\":3222:3234  _totalSupply */\n      sload(0x02)\n        /* \"@openzeppelin/contracts/token/ERC20/ERC20.sol\":3215:3234  return _totalSupply */\n      swap1\n      pop\n        /* \"@openzeppelin/contracts/token/ERC20/ERC20.sol\":3144:3241  function totalSupply() public view virtual returns (uint256) {... */\n      swap1\n      jump\t// out\n        /* \"@openzeppelin/contracts/token/ERC20/ERC20.sol\":5039:5283  function transferFrom(address from, address to, uint256 value) public virtual returns (bool) {... */\n    tag_85:\n        /* \"@openzeppelin/contracts/token/ERC20/ERC20.sol\":5126:5130  bool */\n      0x00\n        /* \"@openzeppelin/contracts/token/ERC20/ERC20.sol\":5142:5157  address spender */\n      dup1\n        /* \"@openzeppelin/contracts/token/ERC20/ERC20.sol\":5160:5172  _msgSender() */\n      tag_272\n        /* \"@openzeppelin/contracts/token/ERC20/ERC20.sol\":5160:5170  _msgSender */\n      tag_267\n        /* \"@openzeppelin/contracts/token/ERC20/ERC20.sol\":5160:5172  _msgSender() */\n      jump\t// in\n    tag_272:\n        /* \"@openzeppelin/contracts/token/ERC20/ERC20.sol\":5142:5172  address spender = _msgSender() */\n      swap1\n      pop\n        /* \"@openzeppelin/contracts/token/ERC20/ERC20.sol\":5182:5219  _spendAllowance(from, spender, value) */\n      tag_273\n        /* \"@openzeppelin/contracts/token/ERC20/ERC20.sol\":5198:5202  from */\n      dup6\n        /* \"@openzeppelin/contracts/token/ERC20/ERC20.sol\":5204:5211  spender */\n      dup3\n        /* \"@openzeppelin/contracts/token/ERC20/ERC20.sol\":5213:5218  value */\n      dup6\n        /* \"@openzeppelin/contracts/token/ERC20/ERC20.sol\":5182:5197  _spendAllowance */\n      tag_274\n        /* \"@openzeppelin/contracts/token/ERC20/ERC20.sol\":5182:5219  _spendAllowance(from, spender, value) */\n      jump\t// in\n    tag_273:\n        /* \"@openzeppelin/contracts/token/ERC20/ERC20.sol\":5229:5255  _transfer(from, to, value) */\n      tag_275\n        /* \"@openzeppelin/contracts/token/ERC20/ERC20.sol\":5239:5243  from */\n      dup6\n        /* \"@openzeppelin/contracts/token/ERC20/ERC20.sol\":5245:5247  to */\n      dup6\n        /* \"@openzeppelin/contracts/token/ERC20/ERC20.sol\":5249:5254  value */\n      dup6\n        /* \"@openzeppelin/contracts/token/ERC20/ERC20.sol\":5229:5238  _transfer */\n      tag_276\n        /* \"@openzeppelin/contracts/token/ERC20/ERC20.sol\":5229:5255  _transfer(from, to, value) */\n      jump\t// in\n    tag_275:\n        /* \"@openzeppelin/contracts/token/ERC20/ERC20.sol\":5272:5276  true */\n      0x01\n        /* \"@openzeppelin/contracts/token/ERC20/ERC20.sol\":5265:5276  return true */\n      swap2\n      pop\n      pop\n        /* \"@openzeppelin/contracts/token/ERC20/ERC20.sol\":5039:5283  function transferFrom(address from, address to, uint256 value) public virtual returns (bool) {... */\n      swap4\n      swap3\n      pop\n      pop\n      pop\n      jump\t// out\n        /* \"contracts/bet.sol\":2362:2399  bool public privateSaleActive = false */\n    tag_89:\n      0x19\n      0x00\n      swap1\n      sload\n      swap1\n      0x0100\n      exp\n      swap1\n      div\n      0xff\n      and\n      dup2\n      jump\t// out\n        /* \"@openzeppelin/contracts/token/ERC20/ERC20.sol\":3002:3084  function decimals() public view virtual returns (uint8) {... */\n    tag_93:\n        /* \"@openzeppelin/contracts/token/ERC20/ERC20.sol\":3051:3056  uint8 */\n      0x00\n        /* \"@openzeppelin/contracts/token/ERC20/ERC20.sol\":3075:3077  18 */\n      0x12\n        /* \"@openzeppelin/contracts/token/ERC20/ERC20.sol\":3068:3077  return 18 */\n      swap1\n      pop\n        /* \"@openzeppelin/contracts/token/ERC20/ERC20.sol\":3002:3084  function decimals() public view virtual returns (uint8) {... */\n      swap1\n      jump\t// out\n        /* \"contracts/bet.sol\":6129:8097  function buyTokens(uint256 usdAmount, string calldata affiliateCode) external payable nonReentrant whenNotPaused {... */\n    tag_99:\n        /* \"@openzeppelin/contracts/security/ReentrancyGuard.sol\":2261:2282  _nonReentrantBefore() */\n      tag_279\n        /* \"@openzeppelin/contracts/security/ReentrancyGuard.sol\":2261:2280  _nonReentrantBefore */\n      tag_280\n        /* \"@openzeppelin/contracts/security/ReentrancyGuard.sol\":2261:2282  _nonReentrantBefore() */\n      jump\t// in\n    tag_279:\n        /* \"@openzeppelin/contracts/security/Pausable.sol\":1239:1258  _requireNotPaused() */\n      tag_282\n        /* \"@openzeppelin/contracts/security/Pausable.sol\":1239:1256  _requireNotPaused */\n      tag_283\n        /* \"@openzeppelin/contracts/security/Pausable.sol\":1239:1258  _requireNotPaused() */\n      jump\t// in\n    tag_282:\n        /* \"contracts/bet.sol\":6260:6277  privateSaleActive */\n      0x19\n      0x00\n      swap1\n      sload\n      swap1\n      0x0100\n      exp\n      swap1\n      div\n      0xff\n      and\n        /* \"contracts/bet.sol\":6252:6308  require(privateSaleActive, \"Private Sale is not active\") */\n      tag_285\n      jumpi\n      mload(0x40)\n      0x08c379a000000000000000000000000000000000000000000000000000000000\n      dup2\n      mstore\n      0x04\n      add\n      tag_286\n      swap1\n      tag_287\n      jump\t// in\n    tag_286:\n      mload(0x40)\n      dup1\n      swap2\n      sub\n      swap1\n      revert\n    tag_285:\n        /* \"contracts/bet.sol\":6326:6335  whitelist */\n      0x15\n        /* \"contracts/bet.sol\":6326:6347  whitelist[msg.sender] */\n      0x00\n        /* \"contracts/bet.sol\":6336:6346  msg.sender */\n      caller\n        /* \"contracts/bet.sol\":6326:6347  whitelist[msg.sender] */\n      0xffffffffffffffffffffffffffffffffffffffff\n      and\n      0xffffffffffffffffffffffffffffffffffffffff\n      and\n      dup2\n      mstore\n      0x20\n      add\n      swap1\n      dup2\n      mstore\n      0x20\n      add\n      0x00\n      keccak256\n      0x00\n      swap1\n      sload\n      swap1\n      0x0100\n      exp\n      swap1\n      div\n      0xff\n      and\n        /* \"contracts/bet.sol\":6318:6375  require(whitelist[msg.sender], \"You are not whitelisted\") */\n      tag_288\n      jumpi\n      mload(0x40)\n      0x08c379a000000000000000000000000000000000000000000000000000000000\n      dup2\n      mstore\n      0x04\n      add\n      tag_289\n      swap1\n      tag_290\n      jump\t// in\n    tag_289:\n      mload(0x40)\n      dup1\n      swap2\n      sub\n      swap1\n      revert\n    tag_288:\n        /* \"contracts/bet.sol\":6417:6434  privateSaleTokens */\n      sload(0x08)\n        /* \"contracts/bet.sol\":6393:6414  privateSaleSoldTokens */\n      sload(0x0b)\n        /* \"contracts/bet.sol\":6393:6434  privateSaleSoldTokens < privateSaleTokens */\n      lt\n        /* \"contracts/bet.sol\":6385:6461  require(privateSaleSoldTokens < privateSaleTokens, \"Private Sale sold out.\") */\n      tag_291\n      jumpi\n      mload(0x40)\n      0x08c379a000000000000000000000000000000000000000000000000000000000\n      dup2\n      mstore\n      0x04\n      add\n      tag_292\n      swap1\n      tag_293\n      jump\t// in\n    tag_292:\n      mload(0x40)\n      dup1\n      swap2\n      sub\n      swap1\n      revert\n    tag_291:\n        /* \"contracts/bet.sol\":6493:6509  minimumUsdAmount */\n      sload(0x0e)\n        /* \"contracts/bet.sol\":6480:6489  usdAmount */\n      dup4\n        /* \"contracts/bet.sol\":6480:6509  usdAmount >= minimumUsdAmount */\n      lt\n      iszero\n        /* \"contracts/bet.sol\":6472:6552  require(usdAmount >= minimumUsdAmount, \"Amount is below minimum purchase limit\") */\n      tag_294\n      jumpi\n      mload(0x40)\n      0x08c379a000000000000000000000000000000000000000000000000000000000\n      dup2\n      mstore\n      0x04\n      add\n      tag_295\n      swap1\n      tag_296\n      jump\t// in\n    tag_295:\n      mload(0x40)\n      dup1\n      swap2\n      sub\n      swap1\n      revert\n    tag_294:\n        /* \"contracts/bet.sol\":6563:6582  uint256 tokensToBuy */\n      0x00\n        /* \"contracts/bet.sol\":6585:6611  calculateTokens(usdAmount) */\n      tag_297\n        /* \"contracts/bet.sol\":6601:6610  usdAmount */\n      dup5\n        /* \"contracts/bet.sol\":6585:6600  calculateTokens */\n      tag_140\n        /* \"contracts/bet.sol\":6585:6611  calculateTokens(usdAmount) */\n      jump\t// in\n    tag_297:\n        /* \"contracts/bet.sol\":6563:6611  uint256 tokensToBuy = calculateTokens(usdAmount) */\n      swap1\n      pop\n        /* \"contracts/bet.sol\":6724:6751  minTokensPerUserPrivateSale */\n      sload(0x0f)\n        /* \"contracts/bet.sol\":6709:6720  tokensToBuy */\n      dup2\n        /* \"contracts/bet.sol\":6709:6751  tokensToBuy >= minTokensPerUserPrivateSale */\n      lt\n      iszero\n        /* \"contracts/bet.sol\":6701:6812  require(tokensToBuy >= minTokensPerUserPrivateSale, \"Amount is below the minimum token limit for Private Sale\") */\n      tag_298\n      jumpi\n      mload(0x40)\n      0x08c379a000000000000000000000000000000000000000000000000000000000\n      dup2\n      mstore\n      0x04\n      add\n      tag_299\n      swap1\n      tag_300\n      jump\t// in\n    tag_299:\n      mload(0x40)\n      dup1\n      swap2\n      sub\n      swap1\n      revert\n    tag_298:\n        /* \"contracts/bet.sol\":6845:6879  maxTokensPerTransactionPrivateSale */\n      sload(0x10)\n        /* \"contracts/bet.sol\":6830:6841  tokensToBuy */\n      dup2\n        /* \"contracts/bet.sol\":6830:6879  tokensToBuy <= maxTokensPerTransactionPrivateSale */\n      gt\n      iszero\n        /* \"contracts/bet.sol\":6822:6955  require(tokensToBuy <= maxTokensPerTransactionPrivateSale, \"Amount exceeds the maximum token limit per transaction for Private Sale\") */\n      tag_301\n      jumpi\n      mload(0x40)\n      0x08c379a000000000000000000000000000000000000000000000000000000000\n      dup2\n      mstore\n      0x04\n      add\n      tag_302\n      swap1\n      tag_303\n      jump\t// in\n    tag_302:\n      mload(0x40)\n      dup1\n      swap2\n      sub\n      swap1\n      revert\n    tag_301:\n        /* \"contracts/bet.sol\":6989:7005  maxTokensPerUser */\n      sload(0x0d)\n        /* \"contracts/bet.sol\":6974:6985  tokensToBuy */\n      dup2\n        /* \"contracts/bet.sol\":6974:7005  tokensToBuy <= maxTokensPerUser */\n      gt\n      iszero\n        /* \"contracts/bet.sol\":6966:7046  require(tokensToBuy <= maxTokensPerUser, \"Exceeds maximum token purchase limit\") */\n      tag_304\n      jumpi\n      mload(0x40)\n      0x08c379a000000000000000000000000000000000000000000000000000000000\n      dup2\n      mstore\n      0x04\n      add\n      tag_305\n      swap1\n      tag_306\n      jump\t// in\n    tag_305:\n      mload(0x40)\n      dup1\n      swap2\n      sub\n      swap1\n      revert\n    tag_304:\n        /* \"contracts/bet.sol\":7113:7124  tokensToBuy */\n      dup1\n        /* \"contracts/bet.sol\":7089:7110  privateSaleSoldTokens */\n      sload(0x0b)\n        /* \"contracts/bet.sol\":7089:7124  privateSaleSoldTokens + tokensToBuy */\n      tag_307\n      swap2\n      swap1\n      tag_308\n      jump\t// in\n    tag_307:\n        /* \"contracts/bet.sol\":7065:7086  privateSaleSoldTokens */\n      0x0b\n        /* \"contracts/bet.sol\":7065:7124  privateSaleSoldTokens = privateSaleSoldTokens + tokensToBuy */\n      dup2\n      swap1\n      sstore\n      pop\n        /* \"contracts/bet.sol\":7222:7239  privateSaleTokens */\n      sload(0x08)\n        /* \"contracts/bet.sol\":7197:7218  privateSaleSoldTokens */\n      sload(0x0b)\n        /* \"contracts/bet.sol\":7197:7239  privateSaleSoldTokens >= privateSaleTokens */\n      lt\n        /* \"contracts/bet.sol\":7193:7360  if (privateSaleSoldTokens >= privateSaleTokens) {... */\n      tag_309\n      jumpi\n        /* \"contracts/bet.sol\":7275:7280  false */\n      0x00\n        /* \"contracts/bet.sol\":7255:7272  privateSaleActive */\n      0x19\n      0x00\n        /* \"contracts/bet.sol\":7255:7280  privateSaleActive = false */\n      0x0100\n      exp\n      dup2\n      sload\n      dup2\n      0xff\n      mul\n      not\n      and\n      swap1\n      dup4\n      iszero\n      iszero\n      mul\n      or\n      swap1\n      sstore\n      pop\n        /* \"contracts/bet.sol\":7299:7317  PrivateSaleEnded() */\n      0x8d80f5be79e7dd88d69814b57e8f5c7dd249b3d6bac194eb9144b8ca639db036\n      mload(0x40)\n      mload(0x40)\n      dup1\n      swap2\n      sub\n      swap1\n      log1\n        /* \"contracts/bet.sol\":7193:7360  if (privateSaleSoldTokens >= privateSaleTokens) {... */\n    tag_309:\n        /* \"contracts/bet.sol\":7403:7420  privateSaleTokens */\n      sload(0x08)\n        /* \"contracts/bet.sol\":7378:7399  privateSaleSoldTokens */\n      sload(0x0b)\n        /* \"contracts/bet.sol\":7378:7420  privateSaleSoldTokens <= privateSaleTokens */\n      gt\n      iszero\n        /* \"contracts/bet.sol\":7370:7458  require(privateSaleSoldTokens <= privateSaleTokens, \"Exceeds Private Sale token limit.\") */\n      tag_310\n      jumpi\n      mload(0x40)\n      0x08c379a000000000000000000000000000000000000000000000000000000000\n      dup2\n      mstore\n      0x04\n      add\n      tag_311\n      swap1\n      tag_312\n      jump\t// in\n    tag_311:\n      mload(0x40)\n      dup1\n      swap2\n      sub\n      swap1\n      revert\n    tag_310:\n        /* \"contracts/bet.sol\":7503:7504  0 */\n      0x00\n        /* \"contracts/bet.sol\":7479:7492  affiliateCode */\n      dup4\n      dup4\n        /* \"contracts/bet.sol\":7473:7500  bytes(affiliateCode).length */\n      swap1\n      pop\n        /* \"contracts/bet.sol\":7473:7504  bytes(affiliateCode).length > 0 */\n      gt\n        /* \"contracts/bet.sol\":7469:7882  if (bytes(affiliateCode).length > 0) {... */\n      iszero\n      tag_313\n      jumpi\n        /* \"contracts/bet.sol\":7520:7537  address affiliate */\n      0x00\n        /* \"contracts/bet.sol\":7540:7554  affiliateCodes */\n      0x17\n        /* \"contracts/bet.sol\":7555:7568  affiliateCode */\n      dup5\n      dup5\n        /* \"contracts/bet.sol\":7540:7569  affiliateCodes[affiliateCode] */\n      mload(0x40)\n      tag_314\n      swap3\n      swap2\n      swap1\n      tag_315\n      jump\t// in\n    tag_314:\n      swap1\n      dup2\n      mstore\n      0x20\n      add\n      mload(0x40)\n      dup1\n      swap2\n      sub\n      swap1\n      keccak256\n      0x00\n      swap1\n      sload\n      swap1\n      0x0100\n      exp\n      swap1\n      div\n      0xffffffffffffffffffffffffffffffffffffffff\n      and\n        /* \"contracts/bet.sol\":7520:7569  address affiliate = affiliateCodes[affiliateCode] */\n      swap1\n      pop\n        /* \"contracts/bet.sol\":7612:7613  0 */\n      0x00\n        /* \"contracts/bet.sol\":7591:7614  affiliate != address(0) */\n      0xffffffffffffffffffffffffffffffffffffffff\n      and\n        /* \"contracts/bet.sol\":7591:7600  affiliate */\n      dup2\n        /* \"contracts/bet.sol\":7591:7614  affiliate != address(0) */\n      0xffffffffffffffffffffffffffffffffffffffff\n      and\n      sub\n        /* \"contracts/bet.sol\":7583:7641  require(affiliate != address(0), \"Invalid affiliate code\") */\n      tag_316\n      jumpi\n      mload(0x40)\n      0x08c379a000000000000000000000000000000000000000000000000000000000\n      dup2\n      mstore\n      0x04\n      add\n      tag_317\n      swap1\n      tag_318\n      jump\t// in\n    tag_317:\n      mload(0x40)\n      dup1\n      swap2\n      sub\n      swap1\n      revert\n    tag_316:\n        /* \"contracts/bet.sol\":7668:7691  uint256 affiliateReward */\n      0x00\n        /* \"contracts/bet.sol\":7736:7739  100 */\n      0x64\n        /* \"contracts/bet.sol\":7708:7733  affiliateRewardPercentage */\n      sload(0x18)\n        /* \"contracts/bet.sol\":7694:7705  tokensToBuy */\n      dup5\n        /* \"contracts/bet.sol\":7694:7733  tokensToBuy * affiliateRewardPercentage */\n      tag_319\n      swap2\n      swap1\n      tag_320\n      jump\t// in\n    tag_319:\n        /* \"contracts/bet.sol\":7694:7739  tokensToBuy * affiliateRewardPercentage / 100 */\n      tag_321\n      swap2\n      swap1\n      tag_322\n      jump\t// in\n    tag_321:\n        /* \"contracts/bet.sol\":7668:7739  uint256 affiliateReward = tokensToBuy * affiliateRewardPercentage / 100 */\n      swap1\n      pop\n        /* \"contracts/bet.sol\":7753:7805  _transfer(address(this), affiliate, affiliateReward) */\n      tag_323\n        /* \"contracts/bet.sol\":7771:7775  this */\n      address\n        /* \"contracts/bet.sol\":7778:7787  affiliate */\n      dup4\n        /* \"contracts/bet.sol\":7789:7804  affiliateReward */\n      dup4\n        /* \"contracts/bet.sol\":7753:7762  _transfer */\n      tag_276\n        /* \"contracts/bet.sol\":7753:7805  _transfer(address(this), affiliate, affiliateReward) */\n      jump\t// in\n    tag_323:\n        /* \"contracts/bet.sol\":7844:7853  affiliate */\n      dup2\n        /* \"contracts/bet.sol\":7824:7871  AffiliateRewardPaid(affiliate, affiliateReward) */\n      0xffffffffffffffffffffffffffffffffffffffff\n      and\n      0x9b23ec14d4683ac0abe619d3ec67f86c8957e134eb62bdff7044e5072ba02b16\n        /* \"contracts/bet.sol\":7855:7870  affiliateReward */\n      dup3\n        /* \"contracts/bet.sol\":7824:7871  AffiliateRewardPaid(affiliate, affiliateReward) */\n      mload(0x40)\n      tag_324\n      swap2\n      swap1\n      tag_76\n      jump\t// in\n    tag_324:\n      mload(0x40)\n      dup1\n      swap2\n      sub\n      swap1\n      log2\n        /* \"contracts/bet.sol\":7506:7882  {... */\n      pop\n      pop\n        /* \"contracts/bet.sol\":7469:7882  if (bytes(affiliateCode).length > 0) {... */\n    tag_313:\n        /* \"contracts/bet.sol\":7892:8005  createVestingSchedule(msg.sender, tokensToBuy, block.timestamp + stakeDuration, vestingDuration, vestingInterval) */\n      tag_325\n        /* \"contracts/bet.sol\":7914:7924  msg.sender */\n      caller\n        /* \"contracts/bet.sol\":7926:7937  tokensToBuy */\n      dup3\n        /* \"contracts/bet.sol\":7957:7970  stakeDuration */\n      sload(0x11)\n        /* \"contracts/bet.sol\":7939:7954  block.timestamp */\n      timestamp\n        /* \"contracts/bet.sol\":7939:7970  block.timestamp + stakeDuration */\n      tag_326\n      swap2\n      swap1\n      tag_308\n      jump\t// in\n    tag_326:\n        /* \"contracts/bet.sol\":7972:7987  vestingDuration */\n      sload(0x12)\n        /* \"contracts/bet.sol\":7989:8004  vestingInterval */\n      sload(0x13)\n        /* \"contracts/bet.sol\":7892:7913  createVestingSchedule */\n      tag_327\n        /* \"contracts/bet.sol\":7892:8005  createVestingSchedule(msg.sender, tokensToBuy, block.timestamp + stakeDuration, vestingDuration, vestingInterval) */\n      jump\t// in\n    tag_325:\n        /* \"contracts/bet.sol\":8033:8043  msg.sender */\n      caller\n        /* \"contracts/bet.sol\":8020:8090  TokensStaked(msg.sender, tokensToBuy, block.timestamp + stakeDuration) */\n      0xffffffffffffffffffffffffffffffffffffffff\n      and\n      0xdd2a19c3bdd089cbe77c04f5655f83de0504d6140d12c8667646f55d0557c4dc\n        /* \"contracts/bet.sol\":8045:8056  tokensToBuy */\n      dup3\n        /* \"contracts/bet.sol\":8076:8089  stakeDuration */\n      sload(0x11)\n        /* \"contracts/bet.sol\":8058:8073  block.timestamp */\n      timestamp\n        /* \"contracts/bet.sol\":8058:8089  block.timestamp + stakeDuration */\n      tag_328\n      swap2\n      swap1\n      tag_308\n      jump\t// in\n    tag_328:\n        /* \"contracts/bet.sol\":8020:8090  TokensStaked(msg.sender, tokensToBuy, block.timestamp + stakeDuration) */\n      mload(0x40)\n      tag_329\n      swap3\n      swap2\n      swap1\n      tag_330\n      jump\t// in\n    tag_329:\n      mload(0x40)\n      dup1\n      swap2\n      sub\n      swap1\n      log2\n        /* \"contracts/bet.sol\":6242:8097  {... */\n      pop\n        /* \"@openzeppelin/contracts/security/ReentrancyGuard.sol\":2303:2323  _nonReentrantAfter() */\n      tag_331\n        /* \"@openzeppelin/contracts/security/ReentrancyGuard.sol\":2303:2321  _nonReentrantAfter */\n      tag_332\n        /* \"@openzeppelin/contracts/security/ReentrancyGuard.sol\":2303:2323  _nonReentrantAfter() */\n      jump\t// in\n    tag_331:\n        /* \"contracts/bet.sol\":6129:8097  function buyTokens(uint256 usdAmount, string calldata affiliateCode) external payable nonReentrant whenNotPaused {... */\n      pop\n      pop\n      pop\n      jump\t// out\n        /* \"contracts/bet.sol\":1418:1457  uint256 public stakeDuration = 365 days */\n    tag_102:\n      sload(0x11)\n      dup2\n      jump\t// out\n        /* \"contracts/bet.sol\":4226:4709  function addAffiliate(address user, string calldata code) external onlyOwner {... */\n    tag_108:\n        /* \"@openzeppelin/contracts/access/Ownable.sol\":1531:1544  _checkOwner() */\n      tag_334\n        /* \"@openzeppelin/contracts/access/Ownable.sol\":1531:1542  _checkOwner */\n      tag_335\n        /* \"@openzeppelin/contracts/access/Ownable.sol\":1531:1544  _checkOwner() */\n      jump\t// in\n    tag_334:\n        /* \"contracts/bet.sol\":4364:4365  0 */\n      0x00\n        /* \"contracts/bet.sol\":4327:4346  userToAffiliateCode */\n      0x16\n        /* \"contracts/bet.sol\":4327:4352  userToAffiliateCode[user] */\n      0x00\n        /* \"contracts/bet.sol\":4347:4351  user */\n      dup6\n        /* \"contracts/bet.sol\":4327:4352  userToAffiliateCode[user] */\n      0xffffffffffffffffffffffffffffffffffffffff\n      and\n      0xffffffffffffffffffffffffffffffffffffffff\n      and\n      dup2\n      mstore\n      0x20\n      add\n      swap1\n      dup2\n      mstore\n      0x20\n      add\n      0x00\n      keccak256\n        /* \"contracts/bet.sol\":4321:4360  bytes(userToAffiliateCode[user]).length */\n      dup1\n      sload\n      tag_337\n      swap1\n      tag_254\n      jump\t// in\n    tag_337:\n      swap1\n      pop\n        /* \"contracts/bet.sol\":4321:4365  bytes(userToAffiliateCode[user]).length == 0 */\n      eq\n        /* \"contracts/bet.sol\":4313:4413  require(bytes(userToAffiliateCode[user]).length == 0, \"This address already has an affiliate code.\") */\n      tag_338\n      jumpi\n      mload(0x40)\n      0x08c379a000000000000000000000000000000000000000000000000000000000\n      dup2\n      mstore\n      0x04\n      add\n      tag_339\n      swap1\n      tag_340\n      jump\t// in\n    tag_339:\n      mload(0x40)\n      dup1\n      swap2\n      sub\n      swap1\n      revert\n    tag_338:\n        /* \"contracts/bet.sol\":4453:4454  3 */\n      0x03\n        /* \"contracts/bet.sol\":4437:4441  code */\n      dup3\n      dup3\n        /* \"contracts/bet.sol\":4431:4449  bytes(code).length */\n      swap1\n      pop\n        /* \"contracts/bet.sol\":4431:4454  bytes(code).length >= 3 */\n      lt\n      iszero\n        /* \"contracts/bet.sol\":4431:4482  bytes(code).length >= 3 && bytes(code).length <= 20 */\n      dup1\n      iszero\n      tag_341\n      jumpi\n      pop\n        /* \"contracts/bet.sol\":4480:4482  20 */\n      0x14\n        /* \"contracts/bet.sol\":4464:4468  code */\n      dup3\n      dup3\n        /* \"contracts/bet.sol\":4458:4476  bytes(code).length */\n      swap1\n      pop\n        /* \"contracts/bet.sol\":4458:4482  bytes(code).length <= 20 */\n      gt\n      iszero\n        /* \"contracts/bet.sol\":4431:4482  bytes(code).length >= 3 && bytes(code).length <= 20 */\n    tag_341:\n        /* \"contracts/bet.sol\":4423:4538  require(bytes(code).length >= 3 && bytes(code).length <= 20, \"Affiliate code must be between 3 and 20 characters.\") */\n      tag_342\n      jumpi\n      mload(0x40)\n      0x08c379a000000000000000000000000000000000000000000000000000000000\n      dup2\n      mstore\n      0x04\n      add\n      tag_343\n      swap1\n      tag_344\n      jump\t// in\n    tag_343:\n      mload(0x40)\n      dup1\n      swap2\n      sub\n      swap1\n      revert\n    tag_342:\n        /* \"contracts/bet.sol\":4588:4589  0 */\n      0x00\n        /* \"contracts/bet.sol\":4556:4590  affiliateCodes[code] == address(0) */\n      0xffffffffffffffffffffffffffffffffffffffff\n      and\n        /* \"contracts/bet.sol\":4556:4570  affiliateCodes */\n      0x17\n        /* \"contracts/bet.sol\":4571:4575  code */\n      dup4\n      dup4\n        /* \"contracts/bet.sol\":4556:4576  affiliateCodes[code] */\n      mload(0x40)\n      tag_345\n      swap3\n      swap2\n      swap1\n      tag_315\n      jump\t// in\n    tag_345:\n      swap1\n      dup2\n      mstore\n      0x20\n      add\n      mload(0x40)\n      dup1\n      swap2\n      sub\n      swap1\n      keccak256\n      0x00\n      swap1\n      sload\n      swap1\n      0x0100\n      exp\n      swap1\n      div\n      0xffffffffffffffffffffffffffffffffffffffff\n      and\n        /* \"contracts/bet.sol\":4556:4590  affiliateCodes[code] == address(0) */\n      0xffffffffffffffffffffffffffffffffffffffff\n      and\n      eq\n        /* \"contracts/bet.sol\":4548:4623  require(affiliateCodes[code] == address(0), \"Affiliate code already taken\") */\n      tag_346\n      jumpi\n      mload(0x40)\n      0x08c379a000000000000000000000000000000000000000000000000000000000\n      dup2\n      mstore\n      0x04\n      add\n      tag_347\n      swap1\n      tag_348\n      jump\t// in\n    tag_347:\n      mload(0x40)\n      dup1\n      swap2\n      sub\n      swap1\n      revert\n    tag_346:\n        /* \"contracts/bet.sol\":4656:4660  user */\n      dup3\n        /* \"contracts/bet.sol\":4633:4647  affiliateCodes */\n      0x17\n        /* \"contracts/bet.sol\":4648:4652  code */\n      dup4\n      dup4\n        /* \"contracts/bet.sol\":4633:4653  affiliateCodes[code] */\n      mload(0x40)\n      tag_349\n      swap3\n      swap2\n      swap1\n      tag_315\n      jump\t// in\n    tag_349:\n      swap1\n      dup2\n      mstore\n      0x20\n      add\n      mload(0x40)\n      dup1\n      swap2\n      sub\n      swap1\n      keccak256\n      0x00\n        /* \"contracts/bet.sol\":4633:4660  affiliateCodes[code] = user */\n      0x0100\n      exp\n      dup2\n      sload\n      dup2\n      0xffffffffffffffffffffffffffffffffffffffff\n      mul\n      not\n      and\n      swap1\n      dup4\n      0xffffffffffffffffffffffffffffffffffffffff\n      and\n      mul\n      or\n      swap1\n      sstore\n      pop\n        /* \"contracts/bet.sol\":4698:4702  code */\n      dup2\n      dup2\n        /* \"contracts/bet.sol\":4670:4689  userToAffiliateCode */\n      0x16\n        /* \"contracts/bet.sol\":4670:4695  userToAffiliateCode[user] */\n      0x00\n        /* \"contracts/bet.sol\":4690:4694  user */\n      dup7\n        /* \"contracts/bet.sol\":4670:4695  userToAffiliateCode[user] */\n      0xffffffffffffffffffffffffffffffffffffffff\n      and\n      0xffffffffffffffffffffffffffffffffffffffff\n      and\n      dup2\n      mstore\n      0x20\n      add\n      swap1\n      dup2\n      mstore\n      0x20\n      add\n      0x00\n      keccak256\n        /* \"contracts/bet.sol\":4670:4702  userToAffiliateCode[user] = code */\n      swap2\n      dup3\n      tag_350\n      swap3\n      swap2\n      swap1\n      tag_351\n      jump\t// in\n    tag_350:\n      pop\n        /* \"contracts/bet.sol\":4226:4709  function addAffiliate(address user, string calldata code) external onlyOwner {... */\n      pop\n      pop\n      pop\n      jump\t// out\n        /* \"contracts/bet.sol\":1229:1295  uint256 public maxTokensPerTransactionPrivateSale = 500 * 10 ** 18 */\n    tag_111:\n      sload(0x10)\n      dup2\n      jump\t// out\n        /* \"contracts/bet.sol\":9571:10264  function releaseVestedTokens() external nonReentrant {... */\n    tag_115:\n        /* \"@openzeppelin/contracts/security/ReentrancyGuard.sol\":2261:2282  _nonReentrantBefore() */\n      tag_353\n        /* \"@openzeppelin/contracts/security/ReentrancyGuard.sol\":2261:2280  _nonReentrantBefore */\n      tag_280\n        /* \"@openzeppelin/contracts/security/ReentrancyGuard.sol\":2261:2282  _nonReentrantBefore() */\n      jump\t// in\n    tag_353:\n        /* \"contracts/bet.sol\":9634:9666  VestingSchedule storage schedule */\n      0x00\n        /* \"contracts/bet.sol\":9669:9685  vestingSchedules */\n      0x14\n        /* \"contracts/bet.sol\":9669:9697  vestingSchedules[msg.sender] */\n      0x00\n        /* \"contracts/bet.sol\":9686:9696  msg.sender */\n      caller\n        /* \"contracts/bet.sol\":9669:9697  vestingSchedules[msg.sender] */\n      0xffffffffffffffffffffffffffffffffffffffff\n      and\n      0xffffffffffffffffffffffffffffffffffffffff\n      and\n      dup2\n      mstore\n      0x20\n      add\n      swap1\n      dup2\n      mstore\n      0x20\n      add\n      0x00\n      keccak256\n        /* \"contracts/bet.sol\":9634:9697  VestingSchedule storage schedule = vestingSchedules[msg.sender] */\n      swap1\n      pop\n        /* \"contracts/bet.sol\":9734:9742  schedule */\n      dup1\n        /* \"contracts/bet.sol\":9734:9752  schedule.startTime */\n      0x02\n      add\n      sload\n        /* \"contracts/bet.sol\":9715:9730  block.timestamp */\n      timestamp\n        /* \"contracts/bet.sol\":9715:9752  block.timestamp >= schedule.startTime */\n      lt\n      iszero\n        /* \"contracts/bet.sol\":9707:9784  require(block.timestamp >= schedule.startTime, \"Vesting has not started yet\") */\n      tag_355\n      jumpi\n      mload(0x40)\n      0x08c379a000000000000000000000000000000000000000000000000000000000\n      dup2\n      mstore\n      0x04\n      add\n      tag_356\n      swap1\n      tag_357\n      jump\t// in\n    tag_356:\n      mload(0x40)\n      dup1\n      swap2\n      sub\n      swap1\n      revert\n    tag_355:\n        /* \"contracts/bet.sol\":9795:9815  uint256 vestedAmount */\n      0x00\n        /* \"contracts/bet.sol\":9882:9890  schedule */\n      dup2\n        /* \"contracts/bet.sol\":9882:9899  schedule.duration */\n      0x03\n      add\n      sload\n        /* \"contracts/bet.sol\":9860:9868  schedule */\n      dup3\n        /* \"contracts/bet.sol\":9860:9878  schedule.startTime */\n      0x02\n      add\n      sload\n        /* \"contracts/bet.sol\":9842:9857  block.timestamp */\n      timestamp\n        /* \"contracts/bet.sol\":9842:9878  block.timestamp - schedule.startTime */\n      tag_358\n      swap2\n      swap1\n      tag_359\n      jump\t// in\n    tag_358:\n        /* \"contracts/bet.sol\":9818:9826  schedule */\n      dup4\n        /* \"contracts/bet.sol\":9818:9838  schedule.totalAmount */\n      0x00\n      add\n      sload\n        /* \"contracts/bet.sol\":9818:9879  schedule.totalAmount * (block.timestamp - schedule.startTime) */\n      tag_360\n      swap2\n      swap1\n      tag_320\n      jump\t// in\n    tag_360:\n        /* \"contracts/bet.sol\":9818:9899  schedule.totalAmount * (block.timestamp - schedule.startTime) / schedule.duration */\n      tag_361\n      swap2\n      swap1\n      tag_322\n      jump\t// in\n    tag_361:\n        /* \"contracts/bet.sol\":9795:9899  uint256 vestedAmount = schedule.totalAmount * (block.timestamp - schedule.startTime) / schedule.duration */\n      swap1\n      pop\n        /* \"contracts/bet.sol\":9909:9933  uint256 releasableAmount */\n      0x00\n        /* \"contracts/bet.sol\":9951:9959  schedule */\n      dup3\n        /* \"contracts/bet.sol\":9951:9974  schedule.releasedAmount */\n      0x01\n      add\n      sload\n        /* \"contracts/bet.sol\":9936:9948  vestedAmount */\n      dup3\n        /* \"contracts/bet.sol\":9936:9974  vestedAmount - schedule.releasedAmount */\n      tag_362\n      swap2\n      swap1\n      tag_359\n      jump\t// in\n    tag_362:\n        /* \"contracts/bet.sol\":9909:9974  uint256 releasableAmount = vestedAmount - schedule.releasedAmount */\n      swap1\n      pop\n        /* \"contracts/bet.sol\":10012:10013  0 */\n      0x00\n        /* \"contracts/bet.sol\":9993:10009  releasableAmount */\n      dup2\n        /* \"contracts/bet.sol\":9993:10013  releasableAmount > 0 */\n      gt\n        /* \"contracts/bet.sol\":9985:10049  require(releasableAmount > 0, \"No tokens available for release\") */\n      tag_363\n      jumpi\n      mload(0x40)\n      0x08c379a000000000000000000000000000000000000000000000000000000000\n      dup2\n      mstore\n      0x04\n      add\n      tag_364\n      swap1\n      tag_365\n      jump\t// in\n    tag_364:\n      mload(0x40)\n      dup1\n      swap2\n      sub\n      swap1\n      revert\n    tag_363:\n        /* \"contracts/bet.sol\":10112:10128  releasableAmount */\n      dup1\n        /* \"contracts/bet.sol\":10086:10094  schedule */\n      dup4\n        /* \"contracts/bet.sol\":10086:10109  schedule.releasedAmount */\n      0x01\n      add\n      sload\n        /* \"contracts/bet.sol\":10086:10128  schedule.releasedAmount + releasableAmount */\n      tag_366\n      swap2\n      swap1\n      tag_308\n      jump\t// in\n    tag_366:\n        /* \"contracts/bet.sol\":10060:10068  schedule */\n      dup4\n        /* \"contracts/bet.sol\":10060:10083  schedule.releasedAmount */\n      0x01\n      add\n        /* \"contracts/bet.sol\":10060:10128  schedule.releasedAmount = schedule.releasedAmount + releasableAmount */\n      dup2\n      swap1\n      sstore\n      pop\n        /* \"contracts/bet.sol\":10138:10192  _transfer(address(this), msg.sender, releasableAmount) */\n      tag_367\n        /* \"contracts/bet.sol\":10156:10160  this */\n      address\n        /* \"contracts/bet.sol\":10163:10173  msg.sender */\n      caller\n        /* \"contracts/bet.sol\":10175:10191  releasableAmount */\n      dup4\n        /* \"contracts/bet.sol\":10138:10147  _transfer */\n      tag_276\n        /* \"contracts/bet.sol\":10138:10192  _transfer(address(this), msg.sender, releasableAmount) */\n      jump\t// in\n    tag_367:\n        /* \"contracts/bet.sol\":10228:10238  msg.sender */\n      caller\n        /* \"contracts/bet.sol\":10207:10257  VestedTokensReleased(msg.sender, releasableAmount) */\n      0xffffffffffffffffffffffffffffffffffffffff\n      and\n      0x6bc5063c7239b75c8bf325a2a2238f726fada322163996bb6c93d5594fb119f0\n        /* \"contracts/bet.sol\":10240:10256  releasableAmount */\n      dup3\n        /* \"contracts/bet.sol\":10207:10257  VestedTokensReleased(msg.sender, releasableAmount) */\n      mload(0x40)\n      tag_368\n      swap2\n      swap1\n      tag_76\n      jump\t// in\n    tag_368:\n      mload(0x40)\n      dup1\n      swap2\n      sub\n      swap1\n      log2\n        /* \"contracts/bet.sol\":9624:10264  {... */\n      pop\n      pop\n      pop\n        /* \"@openzeppelin/contracts/security/ReentrancyGuard.sol\":2303:2323  _nonReentrantAfter() */\n      tag_369\n        /* \"@openzeppelin/contracts/security/ReentrancyGuard.sol\":2303:2321  _nonReentrantAfter */\n      tag_332\n        /* \"@openzeppelin/contracts/security/ReentrancyGuard.sol\":2303:2323  _nonReentrantAfter() */\n      jump\t// in\n    tag_369:\n        /* \"contracts/bet.sol\":9571:10264  function releaseVestedTokens() external nonReentrant {... */\n      jump\t// out\n        /* \"@openzeppelin/contracts/security/Pausable.sol\":1615:1699  function paused() public view virtual returns (bool) {... */\n    tag_118:\n        /* \"@openzeppelin/contracts/security/Pausable.sol\":1662:1666  bool */\n      0x00\n        /* \"@openzeppelin/contracts/security/Pausable.sol\":1685:1692  _paused */\n      0x07\n      0x00\n      swap1\n      sload\n      swap1\n      0x0100\n      exp\n      swap1\n      div\n      0xff\n      and\n        /* \"@openzeppelin/contracts/security/Pausable.sol\":1678:1692  return _paused */\n      swap1\n      pop\n        /* \"@openzeppelin/contracts/security/Pausable.sol\":1615:1699  function paused() public view virtual returns (bool) {... */\n      swap1\n      jump\t// out\n        /* \"contracts/bet.sol\":734:774  uint256 public privateSaleSoldTokens = 0 */\n    tag_122:\n      sload(0x0b)\n      dup2\n      jump\t// out\n        /* \"contracts/bet.sol\":11600:11812  function setAffiliateRewardPercentage(uint256 _percentage) external onlyOwner {... */\n    tag_128:\n        /* \"@openzeppelin/contracts/access/Ownable.sol\":1531:1544  _checkOwner() */\n      tag_372\n        /* \"@openzeppelin/contracts/access/Ownable.sol\":1531:1542  _checkOwner */\n      tag_335\n        /* \"@openzeppelin/contracts/access/Ownable.sol\":1531:1544  _checkOwner() */\n      jump\t// in\n    tag_372:\n        /* \"contracts/bet.sol\":11710:11711  0 */\n      0x00\n        /* \"contracts/bet.sol\":11696:11707  _percentage */\n      dup2\n        /* \"contracts/bet.sol\":11696:11711  _percentage > 0 */\n      gt\n        /* \"contracts/bet.sol\":11696:11733  _percentage > 0 && _percentage <= 100 */\n      dup1\n      iszero\n      tag_374\n      jumpi\n      pop\n        /* \"contracts/bet.sol\":11730:11733  100 */\n      0x64\n        /* \"contracts/bet.sol\":11715:11726  _percentage */\n      dup2\n        /* \"contracts/bet.sol\":11715:11733  _percentage <= 100 */\n      gt\n      iszero\n        /* \"contracts/bet.sol\":11696:11733  _percentage > 0 && _percentage <= 100 */\n    tag_374:\n        /* \"contracts/bet.sol\":11688:11756  require(_percentage > 0 && _percentage <= 100, \"Invalid percentage\") */\n      tag_375\n      jumpi\n      mload(0x40)\n      0x08c379a000000000000000000000000000000000000000000000000000000000\n      dup2\n      mstore\n      0x04\n      add\n      tag_376\n      swap1\n      tag_377\n      jump\t// in\n    tag_376:\n      mload(0x40)\n      dup1\n      swap2\n      sub\n      swap1\n      revert\n    tag_375:\n        /* \"contracts/bet.sol\":11794:11805  _percentage */\n      dup1\n        /* \"contracts/bet.sol\":11766:11791  affiliateRewardPercentage */\n      0x18\n        /* \"contracts/bet.sol\":11766:11805  affiliateRewardPercentage = _percentage */\n      dup2\n      swap1\n      sstore\n      pop\n        /* \"contracts/bet.sol\":11600:11812  function setAffiliateRewardPercentage(uint256 _percentage) external onlyOwner {... */\n      pop\n      jump\t// out\n        /* \"@openzeppelin/contracts/token/ERC20/ERC20.sol\":3299:3415  function balanceOf(address account) public view virtual returns (uint256) {... */\n    tag_132:\n        /* \"@openzeppelin/contracts/token/ERC20/ERC20.sol\":3364:3371  uint256 */\n      0x00\n        /* \"@openzeppelin/contracts/token/ERC20/ERC20.sol\":3390:3399  _balances */\n      dup1\n        /* \"@openzeppelin/contracts/token/ERC20/ERC20.sol\":3390:3408  _balances[account] */\n      0x00\n        /* \"@openzeppelin/contracts/token/ERC20/ERC20.sol\":3400:3407  account */\n      dup4\n        /* \"@openzeppelin/contracts/token/ERC20/ERC20.sol\":3390:3408  _balances[account] */\n      0xffffffffffffffffffffffffffffffffffffffff\n      and\n      0xffffffffffffffffffffffffffffffffffffffff\n      and\n      dup2\n      mstore\n      0x20\n      add\n      swap1\n      dup2\n      mstore\n      0x20\n      add\n      0x00\n      keccak256\n      sload\n        /* \"@openzeppelin/contracts/token/ERC20/ERC20.sol\":3383:3408  return _balances[account] */\n      swap1\n      pop\n        /* \"@openzeppelin/contracts/token/ERC20/ERC20.sol\":3299:3415  function balanceOf(address account) public view virtual returns (uint256) {... */\n      swap2\n      swap1\n      pop\n      jump\t// out\n        /* \"@openzeppelin/contracts/access/Ownable.sol\":2293:2394  function renounceOwnership() public virtual onlyOwner {... */\n    tag_136:\n        /* \"@openzeppelin/contracts/access/Ownable.sol\":1531:1544  _checkOwner() */\n      tag_380\n        /* \"@openzeppelin/contracts/access/Ownable.sol\":1531:1542  _checkOwner */\n      tag_335\n        /* \"@openzeppelin/contracts/access/Ownable.sol\":1531:1544  _checkOwner() */\n      jump\t// in\n    tag_380:\n        /* \"@openzeppelin/contracts/access/Ownable.sol\":2357:2387  _transferOwnership(address(0)) */\n      tag_382\n        /* \"@openzeppelin/contracts/access/Ownable.sol\":2384:2385  0 */\n      0x00\n        /* \"@openzeppelin/contracts/access/Ownable.sol\":2357:2375  _transferOwnership */\n      tag_383\n        /* \"@openzeppelin/contracts/access/Ownable.sol\":2357:2387  _transferOwnership(address(0)) */\n      jump\t// in\n    tag_382:\n        /* \"@openzeppelin/contracts/access/Ownable.sol\":2293:2394  function renounceOwnership() public virtual onlyOwner {... */\n      jump\t// out\n        /* \"contracts/bet.sol\":8339:8664  function calculateTokens(uint256 usdAmount) public view returns (uint256) {... */\n    tag_140:\n        /* \"contracts/bet.sol\":8404:8411  uint256 */\n      0x00\n        /* \"contracts/bet.sol\":8423:8443  uint256 currentPrice */\n      dup1\n        /* \"contracts/bet.sol\":8556:8573  privateSaleTokens */\n      sload(0x08)\n        /* \"contracts/bet.sol\":8532:8553  privateSaleSoldTokens */\n      sload(0x0b)\n        /* \"contracts/bet.sol\":8507:8528  privateSaleStartPrice */\n      sload(0x09)\n        /* \"contracts/bet.sol\":8485:8504  privateSaleEndPrice */\n      sload(0x0a)\n        /* \"contracts/bet.sol\":8485:8528  privateSaleEndPrice - privateSaleStartPrice */\n      tag_385\n      swap2\n      swap1\n      tag_359\n      jump\t// in\n    tag_385:\n        /* \"contracts/bet.sol\":8484:8553  (privateSaleEndPrice - privateSaleStartPrice) * privateSaleSoldTokens */\n      tag_386\n      swap2\n      swap1\n      tag_320\n      jump\t// in\n    tag_386:\n        /* \"contracts/bet.sol\":8484:8573  (privateSaleEndPrice - privateSaleStartPrice) * privateSaleSoldTokens / privateSaleTokens */\n      tag_387\n      swap2\n      swap1\n      tag_322\n      jump\t// in\n    tag_387:\n        /* \"contracts/bet.sol\":8446:8467  privateSaleStartPrice */\n      sload(0x09)\n        /* \"contracts/bet.sol\":8446:8583  privateSaleStartPrice + (... */\n      tag_388\n      swap2\n      swap1\n      tag_308\n      jump\t// in\n    tag_388:\n        /* \"contracts/bet.sol\":8423:8583  uint256 currentPrice = privateSaleStartPrice + (... */\n      swap1\n      pop\n        /* \"contracts/bet.sol\":8593:8607  uint256 tokens */\n      0x00\n        /* \"contracts/bet.sol\":8622:8634  currentPrice */\n      dup2\n        /* \"contracts/bet.sol\":8610:8619  usdAmount */\n      dup5\n        /* \"contracts/bet.sol\":8610:8634  usdAmount / currentPrice */\n      tag_389\n      swap2\n      swap1\n      tag_322\n      jump\t// in\n    tag_389:\n        /* \"contracts/bet.sol\":8593:8634  uint256 tokens = usdAmount / currentPrice */\n      swap1\n      pop\n        /* \"contracts/bet.sol\":8651:8657  tokens */\n      dup1\n        /* \"contracts/bet.sol\":8644:8657  return tokens */\n      swap3\n      pop\n      pop\n      pop\n        /* \"contracts/bet.sol\":8339:8664  function calculateTokens(uint256 usdAmount) public view returns (uint256) {... */\n      swap2\n      swap1\n      pop\n      jump\t// out\n        /* \"contracts/bet.sol\":12186:12647  function setPrivateSaleTokenLimits(uint256 _minTokensPrivateSale, uint256 _maxTokensPrivateSale) external onlyOwner {... */\n    tag_146:\n        /* \"@openzeppelin/contracts/access/Ownable.sol\":1531:1544  _checkOwner() */\n      tag_391\n        /* \"@openzeppelin/contracts/access/Ownable.sol\":1531:1542  _checkOwner */\n      tag_335\n        /* \"@openzeppelin/contracts/access/Ownable.sol\":1531:1544  _checkOwner() */\n      jump\t// in\n    tag_391:\n        /* \"contracts/bet.sol\":12344:12345  0 */\n      0x00\n        /* \"contracts/bet.sol\":12320:12341  _minTokensPrivateSale */\n      dup3\n        /* \"contracts/bet.sol\":12320:12345  _minTokensPrivateSale > 0 */\n      gt\n        /* \"contracts/bet.sol\":12312:12395  require(_minTokensPrivateSale > 0, \"Minimum token limit must be greater than zero\") */\n      tag_393\n      jumpi\n      mload(0x40)\n      0x08c379a000000000000000000000000000000000000000000000000000000000\n      dup2\n      mstore\n      0x04\n      add\n      tag_394\n      swap1\n      tag_395\n      jump\t// in\n    tag_394:\n      mload(0x40)\n      dup1\n      swap2\n      sub\n      swap1\n      revert\n    tag_393:\n        /* \"contracts/bet.sol\":12437:12458  _minTokensPrivateSale */\n      dup2\n        /* \"contracts/bet.sol\":12413:12434  _maxTokensPrivateSale */\n      dup2\n        /* \"contracts/bet.sol\":12413:12458  _maxTokensPrivateSale > _minTokensPrivateSale */\n      gt\n        /* \"contracts/bet.sol\":12405:12511  require(_maxTokensPrivateSale > _minTokensPrivateSale, \"Maximum token limit must be greater than minimum\") */\n      tag_396\n      jumpi\n      mload(0x40)\n      0x08c379a000000000000000000000000000000000000000000000000000000000\n      dup2\n      mstore\n      0x04\n      add\n      tag_397\n      swap1\n      tag_398\n      jump\t// in\n    tag_397:\n      mload(0x40)\n      dup1\n      swap2\n      sub\n      swap1\n      revert\n    tag_396:\n        /* \"contracts/bet.sol\":12551:12572  _minTokensPrivateSale */\n      dup2\n        /* \"contracts/bet.sol\":12521:12548  minTokensPerUserPrivateSale */\n      0x0f\n        /* \"contracts/bet.sol\":12521:12572  minTokensPerUserPrivateSale = _minTokensPrivateSale */\n      dup2\n      swap1\n      sstore\n      pop\n        /* \"contracts/bet.sol\":12619:12640  _maxTokensPrivateSale */\n      dup1\n        /* \"contracts/bet.sol\":12582:12616  maxTokensPerTransactionPrivateSale */\n      0x10\n        /* \"contracts/bet.sol\":12582:12640  maxTokensPerTransactionPrivateSale = _maxTokensPrivateSale */\n      dup2\n      swap1\n      sstore\n      pop\n        /* \"contracts/bet.sol\":12186:12647  function setPrivateSaleTokenLimits(uint256 _minTokensPrivateSale, uint256 _maxTokensPrivateSale) external onlyOwner {... */\n      pop\n      pop\n      jump\t// out\n        /* \"contracts/bet.sol\":3750:3993  function removeFromWhitelist(address _address) external onlyOwner {... */\n    tag_150:\n        /* \"@openzeppelin/contracts/access/Ownable.sol\":1531:1544  _checkOwner() */\n      tag_400\n        /* \"@openzeppelin/contracts/access/Ownable.sol\":1531:1542  _checkOwner */\n      tag_335\n        /* \"@openzeppelin/contracts/access/Ownable.sol\":1531:1544  _checkOwner() */\n      jump\t// in\n    tag_400:\n        /* \"contracts/bet.sol\":3834:3843  whitelist */\n      0x15\n        /* \"contracts/bet.sol\":3834:3853  whitelist[_address] */\n      0x00\n        /* \"contracts/bet.sol\":3844:3852  _address */\n      dup3\n        /* \"contracts/bet.sol\":3834:3853  whitelist[_address] */\n      0xffffffffffffffffffffffffffffffffffffffff\n      and\n      0xffffffffffffffffffffffffffffffffffffffff\n      and\n      dup2\n      mstore\n      0x20\n      add\n      swap1\n      dup2\n      mstore\n      0x20\n      add\n      0x00\n      keccak256\n      0x00\n      swap1\n      sload\n      swap1\n      0x0100\n      exp\n      swap1\n      div\n      0xff\n      and\n        /* \"contracts/bet.sol\":3826:3882  require(whitelist[_address], \"Address not in whitelist\") */\n      tag_402\n      jumpi\n      mload(0x40)\n      0x08c379a000000000000000000000000000000000000000000000000000000000\n      dup2\n      mstore\n      0x04\n      add\n      tag_403\n      swap1\n      tag_404\n      jump\t// in\n    tag_403:\n      mload(0x40)\n      dup1\n      swap2\n      sub\n      swap1\n      revert\n    tag_402:\n        /* \"contracts/bet.sol\":3914:3919  false */\n      0x00\n        /* \"contracts/bet.sol\":3892:3901  whitelist */\n      0x15\n        /* \"contracts/bet.sol\":3892:3911  whitelist[_address] */\n      0x00\n        /* \"contracts/bet.sol\":3902:3910  _address */\n      dup4\n        /* \"contracts/bet.sol\":3892:3911  whitelist[_address] */\n      0xffffffffffffffffffffffffffffffffffffffff\n      and\n      0xffffffffffffffffffffffffffffffffffffffff\n      and\n      dup2\n      mstore\n      0x20\n      add\n      swap1\n      dup2\n      mstore\n      0x20\n      add\n      0x00\n      keccak256\n      0x00\n        /* \"contracts/bet.sol\":3892:3919  whitelist[_address] = false */\n      0x0100\n      exp\n      dup2\n      sload\n      dup2\n      0xff\n      mul\n      not\n      and\n      swap1\n      dup4\n      iszero\n      iszero\n      mul\n      or\n      swap1\n      sstore\n      pop\n        /* \"contracts/bet.sol\":3960:3968  _address */\n      dup1\n        /* \"contracts/bet.sol\":3934:3969  WhitelistedAddressRemoved(_address) */\n      0xffffffffffffffffffffffffffffffffffffffff\n      and\n      0xf1abf01a1043b7c244d128e8595cf0c1d10743b022b03a02dffd8ca3bf729f5a\n      mload(0x40)\n      mload(0x40)\n      dup1\n      swap2\n      sub\n      swap1\n      log2\n        /* \"contracts/bet.sol\":3750:3993  function removeFromWhitelist(address _address) external onlyOwner {... */\n      pop\n      jump\t// out\n        /* \"contracts/bet.sol\":10721:10971  function withdrawTokens() external onlyOwner {... */\n    tag_153:\n        /* \"@openzeppelin/contracts/access/Ownable.sol\":1531:1544  _checkOwner() */\n      tag_406\n        /* \"@openzeppelin/contracts/access/Ownable.sol\":1531:1542  _checkOwner */\n      tag_335\n        /* \"@openzeppelin/contracts/access/Ownable.sol\":1531:1544  _checkOwner() */\n      jump\t// in\n    tag_406:\n        /* \"contracts/bet.sol\":10776:10791  uint256 balance */\n      0x00\n        /* \"contracts/bet.sol\":10794:10818  balanceOf(address(this)) */\n      tag_408\n        /* \"contracts/bet.sol\":10812:10816  this */\n      address\n        /* \"contracts/bet.sol\":10794:10803  balanceOf */\n      tag_132\n        /* \"contracts/bet.sol\":10794:10818  balanceOf(address(this)) */\n      jump\t// in\n    tag_408:\n        /* \"contracts/bet.sol\":10776:10818  uint256 balance = balanceOf(address(this)) */\n      swap1\n      pop\n        /* \"contracts/bet.sol\":10846:10847  0 */\n      0x00\n        /* \"contracts/bet.sol\":10836:10843  balance */\n      dup2\n        /* \"contracts/bet.sol\":10836:10847  balance > 0 */\n      gt\n        /* \"contracts/bet.sol\":10828:10873  require(balance > 0, \"No tokens to withdraw\") */\n      tag_409\n      jumpi\n      mload(0x40)\n      0x08c379a000000000000000000000000000000000000000000000000000000000\n      dup2\n      mstore\n      0x04\n      add\n      tag_410\n      swap1\n      tag_411\n      jump\t// in\n    tag_410:\n      mload(0x40)\n      dup1\n      swap2\n      sub\n      swap1\n      revert\n    tag_409:\n        /* \"contracts/bet.sol\":10883:10925  _transfer(address(this), owner(), balance) */\n      tag_412\n        /* \"contracts/bet.sol\":10901:10905  this */\n      address\n        /* \"contracts/bet.sol\":10908:10915  owner() */\n      tag_413\n        /* \"contracts/bet.sol\":10908:10913  owner */\n      tag_156\n        /* \"contracts/bet.sol\":10908:10915  owner() */\n      jump\t// in\n    tag_413:\n        /* \"contracts/bet.sol\":10917:10924  balance */\n      dup4\n        /* \"contracts/bet.sol\":10883:10892  _transfer */\n      tag_276\n        /* \"contracts/bet.sol\":10883:10925  _transfer(address(this), owner(), balance) */\n      jump\t// in\n    tag_412:\n        /* \"contracts/bet.sol\":10940:10964  TokensWithdrawn(balance) */\n      0x9c6393f251205f9e03559951cab4c9ae71767b6174f77944a5b0c2fa51fbda9f\n        /* \"contracts/bet.sol\":10956:10963  balance */\n      dup2\n        /* \"contracts/bet.sol\":10940:10964  TokensWithdrawn(balance) */\n      mload(0x40)\n      tag_414\n      swap2\n      swap1\n      tag_76\n      jump\t// in\n    tag_414:\n      mload(0x40)\n      dup1\n      swap2\n      sub\n      swap1\n      log1\n        /* \"contracts/bet.sol\":10766:10971  {... */\n      pop\n        /* \"contracts/bet.sol\":10721:10971  function withdrawTokens() external onlyOwner {... */\n      jump\t// out\n        /* \"@openzeppelin/contracts/access/Ownable.sol\":1638:1723  function owner() public view virtual returns (address) {... */\n    tag_156:\n        /* \"@openzeppelin/contracts/access/Ownable.sol\":1684:1691  address */\n      0x00\n        /* \"@openzeppelin/contracts/access/Ownable.sol\":1710:1716  _owner */\n      0x05\n      0x00\n      swap1\n      sload\n      swap1\n      0x0100\n      exp\n      swap1\n      div\n      0xffffffffffffffffffffffffffffffffffffffff\n      and\n        /* \"@openzeppelin/contracts/access/Ownable.sol\":1703:1716  return _owner */\n      swap1\n      pop\n        /* \"@openzeppelin/contracts/access/Ownable.sol\":1638:1723  function owner() public view virtual returns (address) {... */\n      swap1\n      jump\t// out\n        /* \"contracts/bet.sol\":385:446  uint256 public constant TOTAL_SUPPLY = 200_000_000 * 10 ** 18 */\n    tag_161:\n        /* \"contracts/bet.sol\":424:446  200_000_000 * 10 ** 18 */\n      0xa56fa5b99019a5c8000000\n        /* \"contracts/bet.sol\":385:446  uint256 public constant TOTAL_SUPPLY = 200_000_000 * 10 ** 18 */\n      dup2\n      jump\t// out\n        /* \"contracts/bet.sol\":997:1044  uint256 public minimumUsdAmount = 50 * 10 ** 18 */\n    tag_165:\n      sload(0x0e)\n      dup2\n      jump\t// out\n        /* \"contracts/bet.sol\":5641:5821  function getPrivateSaleStartTime() external view returns (uint256) {... */\n    tag_169:\n        /* \"contracts/bet.sol\":5699:5706  uint256 */\n      0x00\n        /* \"contracts/bet.sol\":5726:5743  privateSaleActive */\n      0x19\n      0x00\n      swap1\n      sload\n      swap1\n      0x0100\n      exp\n      swap1\n      div\n      0xff\n      and\n        /* \"contracts/bet.sol\":5718:5777  require(privateSaleActive, \"Private Sale has not started.\") */\n      tag_417\n      jumpi\n      mload(0x40)\n      0x08c379a000000000000000000000000000000000000000000000000000000000\n      dup2\n      mstore\n      0x04\n      add\n      tag_418\n      swap1\n      tag_419\n      jump\t// in\n    tag_418:\n      mload(0x40)\n      dup1\n      swap2\n      sub\n      swap1\n      revert\n    tag_417:\n        /* \"contracts/bet.sol\":5794:5814  privateSaleStartTime */\n      sload(0x0c)\n        /* \"contracts/bet.sol\":5787:5814  return privateSaleStartTime */\n      swap1\n      pop\n        /* \"contracts/bet.sol\":5641:5821  function getPrivateSaleStartTime() external view returns (uint256) {... */\n      swap1\n      jump\t// out\n        /* \"contracts/bet.sol\":780:815  uint256 public privateSaleStartTime */\n    tag_173:\n      sload(0x0c)\n      dup2\n      jump\t// out\n        /* \"@openzeppelin/contracts/token/ERC20/ERC20.sol\":2276:2369  function symbol() public view virtual returns (string memory) {... */\n    tag_177:\n        /* \"@openzeppelin/contracts/token/ERC20/ERC20.sol\":2323:2336  string memory */\n      0x60\n        /* \"@openzeppelin/contracts/token/ERC20/ERC20.sol\":2355:2362  _symbol */\n      0x04\n        /* \"@openzeppelin/contracts/token/ERC20/ERC20.sol\":2348:2362  return _symbol */\n      dup1\n      sload\n      tag_421\n      swap1\n      tag_254\n      jump\t// in\n    tag_421:\n      dup1\n      0x1f\n      add\n      0x20\n      dup1\n      swap2\n      div\n      mul\n      0x20\n      add\n      mload(0x40)\n      swap1\n      dup2\n      add\n      0x40\n      mstore\n      dup1\n      swap3\n      swap2\n      swap1\n      dup2\n      dup2\n      mstore\n      0x20\n      add\n      dup3\n      dup1\n      sload\n      tag_422\n      swap1\n      tag_254\n      jump\t// in\n    tag_422:\n      dup1\n      iszero\n      tag_423\n      jumpi\n      dup1\n      0x1f\n      lt\n      tag_424\n      jumpi\n      0x0100\n      dup1\n      dup4\n      sload\n      div\n      mul\n      dup4\n      mstore\n      swap2\n      0x20\n      add\n      swap2\n      jump(tag_423)\n    tag_424:\n      dup3\n      add\n      swap2\n      swap1\n      0x00\n      mstore\n      keccak256(0x00, 0x20)\n      swap1\n    tag_425:\n      dup2\n      sload\n      dup2\n      mstore\n      swap1\n      0x01\n      add\n      swap1\n      0x20\n      add\n      dup1\n      dup4\n      gt\n      tag_425\n      jumpi\n      dup3\n      swap1\n      sub\n      0x1f\n      and\n      dup3\n      add\n      swap2\n    tag_423:\n      pop\n      pop\n      pop\n      pop\n      pop\n      swap1\n      pop\n        /* \"@openzeppelin/contracts/token/ERC20/ERC20.sol\":2276:2369  function symbol() public view virtual returns (string memory) {... */\n      swap1\n      jump\t// out\n        /* \"contracts/bet.sol\":1979:2020  mapping(address => bool) public whitelist */\n    tag_182:\n      mstore(0x20, 0x15)\n      dup1\n      0x00\n      mstore\n      keccak256(0x00, 0x40)\n      0x00\n      swap2\n      pop\n      sload\n      swap1\n      0x0100\n      exp\n      swap1\n      div\n      0xff\n      and\n      dup2\n      jump\t// out\n        /* \"contracts/bet.sol\":4878:5497  function startPrivateSale(uint256 _affiliateRewardPercentage) external onlyOwner {... */\n    tag_187:\n        /* \"@openzeppelin/contracts/access/Ownable.sol\":1531:1544  _checkOwner() */\n      tag_427\n        /* \"@openzeppelin/contracts/access/Ownable.sol\":1531:1542  _checkOwner */\n      tag_335\n        /* \"@openzeppelin/contracts/access/Ownable.sol\":1531:1544  _checkOwner() */\n      jump\t// in\n    tag_427:\n        /* \"contracts/bet.sol\":4978:4995  privateSaleActive */\n      0x19\n      0x00\n      swap1\n      sload\n      swap1\n      0x0100\n      exp\n      swap1\n      div\n      0xff\n      and\n        /* \"contracts/bet.sol\":4977:4995  !privateSaleActive */\n      iszero\n        /* \"contracts/bet.sol\":4969:5027  require(!privateSaleActive, \"Private Sale already active\") */\n      tag_429\n      jumpi\n      mload(0x40)\n      0x08c379a000000000000000000000000000000000000000000000000000000000\n      dup2\n      mstore\n      0x04\n      add\n      tag_430\n      swap1\n      tag_431\n      jump\t// in\n    tag_430:\n      mload(0x40)\n      dup1\n      swap2\n      sub\n      swap1\n      revert\n    tag_429:\n        /* \"contracts/bet.sol\":5074:5075  0 */\n      0x00\n        /* \"contracts/bet.sol\":5045:5071  _affiliateRewardPercentage */\n      dup2\n        /* \"contracts/bet.sol\":5045:5075  _affiliateRewardPercentage > 0 */\n      gt\n        /* \"contracts/bet.sol\":5045:5112  _affiliateRewardPercentage > 0 && _affiliateRewardPercentage <= 100 */\n      dup1\n      iszero\n      tag_432\n      jumpi\n      pop\n        /* \"contracts/bet.sol\":5109:5112  100 */\n      0x64\n        /* \"contracts/bet.sol\":5079:5105  _affiliateRewardPercentage */\n      dup2\n        /* \"contracts/bet.sol\":5079:5112  _affiliateRewardPercentage <= 100 */\n      gt\n      iszero\n        /* \"contracts/bet.sol\":5045:5112  _affiliateRewardPercentage > 0 && _affiliateRewardPercentage <= 100 */\n    tag_432:\n        /* \"contracts/bet.sol\":5037:5135  require(_affiliateRewardPercentage > 0 && _affiliateRewardPercentage <= 100, \"Invalid percentage\") */\n      tag_433\n      jumpi\n      mload(0x40)\n      0x08c379a000000000000000000000000000000000000000000000000000000000\n      dup2\n      mstore\n      0x04\n      add\n      tag_434\n      swap1\n      tag_377\n      jump\t// in\n    tag_434:\n      mload(0x40)\n      dup1\n      swap2\n      sub\n      swap1\n      revert\n    tag_433:\n        /* \"contracts/bet.sol\":5174:5200  _affiliateRewardPercentage */\n      dup1\n        /* \"contracts/bet.sol\":5146:5171  affiliateRewardPercentage */\n      0x18\n        /* \"contracts/bet.sol\":5146:5200  affiliateRewardPercentage = _affiliateRewardPercentage */\n      dup2\n      swap1\n      sstore\n      pop\n        /* \"contracts/bet.sol\":5261:5265  true */\n      0x01\n        /* \"contracts/bet.sol\":5241:5258  privateSaleActive */\n      0x19\n      0x00\n        /* \"contracts/bet.sol\":5241:5265  privateSaleActive = true */\n      0x0100\n      exp\n      dup2\n      sload\n      dup2\n      0xff\n      mul\n      not\n      and\n      swap1\n      dup4\n      iszero\n      iszero\n      mul\n      or\n      swap1\n      sstore\n      pop\n        /* \"contracts/bet.sol\":5320:5335  block.timestamp */\n      timestamp\n        /* \"contracts/bet.sol\":5297:5317  privateSaleStartTime */\n      0x0c\n        /* \"contracts/bet.sol\":5297:5335  privateSaleStartTime = block.timestamp */\n      dup2\n      swap1\n      sstore\n      pop\n        /* \"contracts/bet.sol\":5385:5452  PrivateSaleStarted(affiliateRewardPercentage, privateSaleStartTime) */\n      0xcbe7b2993d671ff089495ae9d90ae7a115f123db134c0a6d3c4bc6e0c72cf7e5\n        /* \"contracts/bet.sol\":5404:5429  affiliateRewardPercentage */\n      sload(0x18)\n        /* \"contracts/bet.sol\":5431:5451  privateSaleStartTime */\n      sload(0x0c)\n        /* \"contracts/bet.sol\":5385:5452  PrivateSaleStarted(affiliateRewardPercentage, privateSaleStartTime) */\n      mload(0x40)\n      tag_435\n      swap3\n      swap2\n      swap1\n      tag_330\n      jump\t// in\n    tag_435:\n      mload(0x40)\n      dup1\n      swap2\n      sub\n      swap1\n      log1\n        /* \"contracts/bet.sol\":4878:5497  function startPrivateSale(uint256 _affiliateRewardPercentage) external onlyOwner {... */\n      pop\n      jump\t// out\n        /* \"@openzeppelin/contracts/token/ERC20/ERC20.sol\":3610:3788  function transfer(address to, uint256 value) public virtual returns (bool) {... */\n    tag_191:\n        /* \"@openzeppelin/contracts/token/ERC20/ERC20.sol\":3679:3683  bool */\n      0x00\n        /* \"@openzeppelin/contracts/token/ERC20/ERC20.sol\":3695:3708  address owner */\n      dup1\n        /* \"@openzeppelin/contracts/token/ERC20/ERC20.sol\":3711:3723  _msgSender() */\n      tag_437\n        /* \"@openzeppelin/contracts/token/ERC20/ERC20.sol\":3711:3721  _msgSender */\n      tag_267\n        /* \"@openzeppelin/contracts/token/ERC20/ERC20.sol\":3711:3723  _msgSender() */\n      jump\t// in\n    tag_437:\n        /* \"@openzeppelin/contracts/token/ERC20/ERC20.sol\":3695:3723  address owner = _msgSender() */\n      swap1\n      pop\n        /* \"@openzeppelin/contracts/token/ERC20/ERC20.sol\":3733:3760  _transfer(owner, to, value) */\n      tag_438\n        /* \"@openzeppelin/contracts/token/ERC20/ERC20.sol\":3743:3748  owner */\n      dup2\n        /* \"@openzeppelin/contracts/token/ERC20/ERC20.sol\":3750:3752  to */\n      dup6\n        /* \"@openzeppelin/contracts/token/ERC20/ERC20.sol\":3754:3759  value */\n      dup6\n        /* \"@openzeppelin/contracts/token/ERC20/ERC20.sol\":3733:3742  _transfer */\n      tag_276\n        /* \"@openzeppelin/contracts/token/ERC20/ERC20.sol\":3733:3760  _transfer(owner, to, value) */\n      jump\t// in\n    tag_438:\n        /* \"@openzeppelin/contracts/token/ERC20/ERC20.sol\":3777:3781  true */\n      0x01\n        /* \"@openzeppelin/contracts/token/ERC20/ERC20.sol\":3770:3781  return true */\n      swap2\n      pop\n      pop\n        /* \"@openzeppelin/contracts/token/ERC20/ERC20.sol\":3610:3788  function transfer(address to, uint256 value) public virtual returns (bool) {... */\n      swap3\n      swap2\n      pop\n      pop\n      jump\t// out\n        /* \"contracts/bet.sol\":2146:2194  mapping(string => address) public affiliateCodes */\n    tag_197:\n      0x17\n      dup2\n      dup1\n      mload\n      0x20\n      dup2\n      add\n      dup3\n      add\n      dup1\n      mload\n      dup5\n      dup3\n      mstore\n      0x20\n      dup4\n      add\n      0x20\n      dup6\n      add\n      keccak256\n      dup2\n      dup4\n      mstore\n      dup1\n      swap6\n      pop\n      pop\n      pop\n      pop\n      pop\n      pop\n      0x00\n      swap2\n      pop\n      sload\n      swap1\n      0x0100\n      exp\n      swap1\n      div\n      0xffffffffffffffffffffffffffffffffffffffff\n      and\n      dup2\n      jump\t// out\n        /* \"contracts/bet.sol\":550:605  uint256 public privateSaleStartPrice = 0.001 * 10 ** 18 */\n    tag_201:\n      sload(0x09)\n      dup2\n      jump\t// out\n        /* \"contracts/bet.sol\":1097:1156  uint256 public minTokensPerUserPrivateSale = 100 * 10 ** 18 */\n    tag_205:\n      sload(0x0f)\n      dup2\n      jump\t// out\n        /* \"contracts/bet.sol\":1566:1606  uint256 public vestingInterval = 30 days */\n    tag_209:\n      sload(0x13)\n      dup2\n      jump\t// out\n        /* \"contracts/bet.sol\":645:699  uint256 public privateSaleEndPrice = 0.0505 * 10 ** 18 */\n    tag_213:\n      sload(0x0a)\n      dup2\n      jump\t// out\n        /* \"contracts/bet.sol\":488:544  uint256 public privateSaleTokens = 38_835_764 * 10 ** 18 */\n    tag_217:\n      sload(0x08)\n      dup2\n      jump\t// out\n        /* \"contracts/bet.sol\":2240:2284  uint256 public affiliateRewardPercentage = 5 */\n    tag_221:\n      sload(0x18)\n      dup2\n      jump\t// out\n        /* \"@openzeppelin/contracts/token/ERC20/ERC20.sol\":3846:3986  function allowance(address owner, address spender) public view virtual returns (uint256) {... */\n    tag_227:\n        /* \"@openzeppelin/contracts/token/ERC20/ERC20.sol\":3926:3933  uint256 */\n      0x00\n        /* \"@openzeppelin/contracts/token/ERC20/ERC20.sol\":3952:3963  _allowances */\n      0x01\n        /* \"@openzeppelin/contracts/token/ERC20/ERC20.sol\":3952:3970  _allowances[owner] */\n      0x00\n        /* \"@openzeppelin/contracts/token/ERC20/ERC20.sol\":3964:3969  owner */\n      dup5\n        /* \"@openzeppelin/contracts/token/ERC20/ERC20.sol\":3952:3970  _allowances[owner] */\n      0xffffffffffffffffffffffffffffffffffffffff\n      and\n      0xffffffffffffffffffffffffffffffffffffffff\n      and\n      dup2\n      mstore\n      0x20\n      add\n      swap1\n      dup2\n      mstore\n      0x20\n      add\n      0x00\n      keccak256\n        /* \"@openzeppelin/contracts/token/ERC20/ERC20.sol\":3952:3979  _allowances[owner][spender] */\n      0x00\n        /* \"@openzeppelin/contracts/token/ERC20/ERC20.sol\":3971:3978  spender */\n      dup4\n        /* \"@openzeppelin/contracts/token/ERC20/ERC20.sol\":3952:3979  _allowances[owner][spender] */\n      0xffffffffffffffffffffffffffffffffffffffff\n      and\n      0xffffffffffffffffffffffffffffffffffffffff\n      and\n      dup2\n      mstore\n      0x20\n      add\n      swap1\n      dup2\n      mstore\n      0x20\n      add\n      0x00\n      keccak256\n      sload\n        /* \"@openzeppelin/contracts/token/ERC20/ERC20.sol\":3945:3979  return _allowances[owner][spender] */\n      swap1\n      pop\n        /* \"@openzeppelin/contracts/token/ERC20/ERC20.sol\":3846:3986  function allowance(address owner, address spender) public view virtual returns (uint256) {... */\n      swap3\n      swap2\n      pop\n      pop\n      jump\t// out\n        /* \"contracts/bet.sol\":11110:11402  function withdrawETH() external onlyOwner {... */\n    tag_231:\n        /* \"@openzeppelin/contracts/access/Ownable.sol\":1531:1544  _checkOwner() */\n      tag_441\n        /* \"@openzeppelin/contracts/access/Ownable.sol\":1531:1542  _checkOwner */\n      tag_335\n        /* \"@openzeppelin/contracts/access/Ownable.sol\":1531:1544  _checkOwner() */\n      jump\t// in\n    tag_441:\n        /* \"contracts/bet.sol\":11162:11177  uint256 balance */\n      0x00\n        /* \"contracts/bet.sol\":11180:11201  address(this).balance */\n      selfbalance\n        /* \"contracts/bet.sol\":11162:11201  uint256 balance = address(this).balance */\n      swap1\n      pop\n        /* \"contracts/bet.sol\":11229:11230  0 */\n      0x00\n        /* \"contracts/bet.sol\":11219:11226  balance */\n      dup2\n        /* \"contracts/bet.sol\":11219:11230  balance > 0 */\n      gt\n        /* \"contracts/bet.sol\":11211:11253  require(balance > 0, \"No ETH to withdraw\") */\n      tag_443\n      jumpi\n      mload(0x40)\n      0x08c379a000000000000000000000000000000000000000000000000000000000\n      dup2\n      mstore\n      0x04\n      add\n      tag_444\n      swap1\n      tag_445\n      jump\t// in\n    tag_444:\n      mload(0x40)\n      dup1\n      swap2\n      sub\n      swap1\n      revert\n    tag_443:\n        /* \"contracts/bet.sol\":11264:11276  bool success */\n      0x00\n        /* \"contracts/bet.sol\":11282:11289  owner() */\n      tag_446\n        /* \"contracts/bet.sol\":11282:11287  owner */\n      tag_156\n        /* \"contracts/bet.sol\":11282:11289  owner() */\n      jump\t// in\n    tag_446:\n        /* \"contracts/bet.sol\":11282:11294  owner().call */\n      0xffffffffffffffffffffffffffffffffffffffff\n      and\n        /* \"contracts/bet.sol\":11302:11309  balance */\n      dup3\n        /* \"contracts/bet.sol\":11282:11314  owner().call{value: balance}(\"\") */\n      mload(0x40)\n      tag_447\n      swap1\n      tag_448\n      jump\t// in\n    tag_447:\n      0x00\n      mload(0x40)\n      dup1\n      dup4\n      sub\n      dup2\n      dup6\n      dup8\n      gas\n      call\n      swap3\n      pop\n      pop\n      pop\n      returndatasize\n      dup1\n      0x00\n      dup2\n      eq\n      tag_451\n      jumpi\n      mload(0x40)\n      swap2\n      pop\n      and(add(returndatasize, 0x3f), not(0x1f))\n      dup3\n      add\n      0x40\n      mstore\n      returndatasize\n      dup3\n      mstore\n      returndatasize\n      0x00\n      0x20\n      dup5\n      add\n      returndatacopy\n      jump(tag_450)\n    tag_451:\n      0x60\n      swap2\n      pop\n    tag_450:\n      pop\n        /* \"contracts/bet.sol\":11263:11314  (bool success, ) = owner().call{value: balance}(\"\") */\n      pop\n      swap1\n      pop\n        /* \"contracts/bet.sol\":11332:11339  success */\n      dup1\n        /* \"contracts/bet.sol\":11324:11359  require(success, \"Transfer failed\") */\n      tag_452\n      jumpi\n      mload(0x40)\n      0x08c379a000000000000000000000000000000000000000000000000000000000\n      dup2\n      mstore\n      0x04\n      add\n      tag_453\n      swap1\n      tag_454\n      jump\t// in\n    tag_453:\n      mload(0x40)\n      dup1\n      swap2\n      sub\n      swap1\n      revert\n    tag_452:\n        /* \"contracts/bet.sol\":11374:11395  ETHWithdrawn(balance) */\n      0x043f607a14d3b4f0a11a0b2e192bbfcd894298ba5abf22553be6081406db28aa\n        /* \"contracts/bet.sol\":11387:11394  balance */\n      dup3\n        /* \"contracts/bet.sol\":11374:11395  ETHWithdrawn(balance) */\n      mload(0x40)\n      tag_455\n      swap2\n      swap1\n      tag_76\n      jump\t// in\n    tag_455:\n      mload(0x40)\n      dup1\n      swap2\n      sub\n      swap1\n      log1\n        /* \"contracts/bet.sol\":11152:11402  {... */\n      pop\n      pop\n        /* \"contracts/bet.sol\":11110:11402  function withdrawETH() external onlyOwner {... */\n      jump\t// out\n        /* \"contracts/bet.sol\":3392:3561  function addToWhitelist(address _address) external onlyOwner {... */\n    tag_235:\n        /* \"@openzeppelin/contracts/access/Ownable.sol\":1531:1544  _checkOwner() */\n      tag_457\n        /* \"@openzeppelin/contracts/access/Ownable.sol\":1531:1542  _checkOwner */\n      tag_335\n        /* \"@openzeppelin/contracts/access/Ownable.sol\":1531:1544  _checkOwner() */\n      jump\t// in\n    tag_457:\n        /* \"contracts/bet.sol\":3485:3489  true */\n      0x01\n        /* \"contracts/bet.sol\":3463:3472  whitelist */\n      0x15\n        /* \"contracts/bet.sol\":3463:3482  whitelist[_address] */\n      0x00\n        /* \"contracts/bet.sol\":3473:3481  _address */\n      dup4\n        /* \"contracts/bet.sol\":3463:3482  whitelist[_address] */\n      0xffffffffffffffffffffffffffffffffffffffff\n      and\n      0xffffffffffffffffffffffffffffffffffffffff\n      and\n      dup2\n      mstore\n      0x20\n      add\n      swap1\n      dup2\n      mstore\n      0x20\n      add\n      0x00\n      keccak256\n      0x00\n        /* \"contracts/bet.sol\":3463:3489  whitelist[_address] = true */\n      0x0100\n      exp\n      dup2\n      sload\n      dup2\n      0xff\n      mul\n      not\n      and\n      swap1\n      dup4\n      iszero\n      iszero\n      mul\n      or\n      swap1\n      sstore\n      pop\n        /* \"contracts/bet.sol\":3528:3536  _address */\n      dup1\n        /* \"contracts/bet.sol\":3504:3537  WhitelistedAddressAdded(_address) */\n      0xffffffffffffffffffffffffffffffffffffffff\n      and\n      0xd1bba68c128cc3f427e5831b3c6f99f480b6efa6b9e80c757768f6124158cc3f\n      mload(0x40)\n      mload(0x40)\n      dup1\n      swap2\n      sub\n      swap1\n      log2\n        /* \"contracts/bet.sol\":3392:3561  function addToWhitelist(address _address) external onlyOwner {... */\n      pop\n      jump\t// out\n        /* \"contracts/bet.sol\":10392:10578  function endPrivateSale() external onlyOwner {... */\n    tag_238:\n        /* \"@openzeppelin/contracts/access/Ownable.sol\":1531:1544  _checkOwner() */\n      tag_460\n        /* \"@openzeppelin/contracts/access/Ownable.sol\":1531:1542  _checkOwner */\n      tag_335\n        /* \"@openzeppelin/contracts/access/Ownable.sol\":1531:1544  _checkOwner() */\n      jump\t// in\n    tag_460:\n        /* \"contracts/bet.sol\":10455:10472  privateSaleActive */\n      0x19\n      0x00\n      swap1\n      sload\n      swap1\n      0x0100\n      exp\n      swap1\n      div\n      0xff\n      and\n        /* \"contracts/bet.sol\":10447:10503  require(privateSaleActive, \"Private Sale is not active\") */\n      tag_462\n      jumpi\n      mload(0x40)\n      0x08c379a000000000000000000000000000000000000000000000000000000000\n      dup2\n      mstore\n      0x04\n      add\n      tag_463\n      swap1\n      tag_287\n      jump\t// in\n    tag_463:\n      mload(0x40)\n      dup1\n      swap2\n      sub\n      swap1\n      revert\n    tag_462:\n        /* \"contracts/bet.sol\":10533:10538  false */\n      0x00\n        /* \"contracts/bet.sol\":10513:10530  privateSaleActive */\n      0x19\n      0x00\n        /* \"contracts/bet.sol\":10513:10538  privateSaleActive = false */\n      0x0100\n      exp\n      dup2\n      sload\n      dup2\n      0xff\n      mul\n      not\n      and\n      swap1\n      dup4\n      iszero\n      iszero\n      mul\n      or\n      swap1\n      sstore\n      pop\n        /* \"contracts/bet.sol\":10553:10571  PrivateSaleEnded() */\n      0x8d80f5be79e7dd88d69814b57e8f5c7dd249b3d6bac194eb9144b8ca639db036\n      mload(0x40)\n      mload(0x40)\n      dup1\n      swap2\n      sub\n      swap1\n      log1\n        /* \"contracts/bet.sol\":10392:10578  function endPrivateSale() external onlyOwner {... */\n      jump\t// out\n        /* \"contracts/bet.sol\":894:943  uint256 public maxTokensPerUser = 1000 * 10 ** 18 */\n    tag_241:\n      sload(0x0d)\n      dup2\n      jump\t// out\n        /* \"@openzeppelin/contracts/access/Ownable.sol\":2543:2758  function transferOwnership(address newOwner) public virtual onlyOwner {... */\n    tag_246:\n        /* \"@openzeppelin/contracts/access/Ownable.sol\":1531:1544  _checkOwner() */\n      tag_465\n        /* \"@openzeppelin/contracts/access/Ownable.sol\":1531:1542  _checkOwner */\n      tag_335\n        /* \"@openzeppelin/contracts/access/Ownable.sol\":1531:1544  _checkOwner() */\n      jump\t// in\n    tag_465:\n        /* \"@openzeppelin/contracts/access/Ownable.sol\":2647:2648  0 */\n      0x00\n        /* \"@openzeppelin/contracts/access/Ownable.sol\":2627:2649  newOwner == address(0) */\n      0xffffffffffffffffffffffffffffffffffffffff\n      and\n        /* \"@openzeppelin/contracts/access/Ownable.sol\":2627:2635  newOwner */\n      dup2\n        /* \"@openzeppelin/contracts/access/Ownable.sol\":2627:2649  newOwner == address(0) */\n      0xffffffffffffffffffffffffffffffffffffffff\n      and\n      sub\n        /* \"@openzeppelin/contracts/access/Ownable.sol\":2623:2714  if (newOwner == address(0)) {... */\n      tag_467\n      jumpi\n        /* \"@openzeppelin/contracts/access/Ownable.sol\":2700:2701  0 */\n      0x00\n        /* \"@openzeppelin/contracts/access/Ownable.sol\":2672:2703  OwnableInvalidOwner(address(0)) */\n      mload(0x40)\n      0x1e4fbdf700000000000000000000000000000000000000000000000000000000\n      dup2\n      mstore\n      0x04\n      add\n      tag_468\n      swap2\n      swap1\n      tag_158\n      jump\t// in\n    tag_468:\n      mload(0x40)\n      dup1\n      swap2\n      sub\n      swap1\n      revert\n        /* \"@openzeppelin/contracts/access/Ownable.sol\":2623:2714  if (newOwner == address(0)) {... */\n    tag_467:\n        /* \"@openzeppelin/contracts/access/Ownable.sol\":2723:2751  _transferOwnership(newOwner) */\n      tag_469\n        /* \"@openzeppelin/contracts/access/Ownable.sol\":2742:2750  newOwner */\n      dup2\n        /* \"@openzeppelin/contracts/access/Ownable.sol\":2723:2741  _transferOwnership */\n      tag_383\n        /* \"@openzeppelin/contracts/access/Ownable.sol\":2723:2751  _transferOwnership(newOwner) */\n      jump\t// in\n    tag_469:\n        /* \"@openzeppelin/contracts/access/Ownable.sol\":2543:2758  function transferOwnership(address newOwner) public virtual onlyOwner {... */\n      pop\n      jump\t// out\n        /* \"contracts/bet.sol\":1863:1922  mapping(address => VestingSchedule) public vestingSchedules */\n    tag_250:\n      mstore(0x20, 0x14)\n      dup1\n      0x00\n      mstore\n      keccak256(0x00, 0x40)\n      0x00\n      swap2\n      pop\n      swap1\n      pop\n      dup1\n      0x00\n      add\n      sload\n      swap1\n      dup1\n      0x01\n      add\n      sload\n      swap1\n      dup1\n      0x02\n      add\n      sload\n      swap1\n      dup1\n      0x03\n      add\n      sload\n      swap1\n      dup1\n      0x04\n      add\n      sload\n      swap1\n      pop\n      dup6\n      jump\t// out\n        /* \"@openzeppelin/contracts/utils/Context.sol\":656:752  function _msgSender() internal view virtual returns (address) {... */\n    tag_267:\n        /* \"@openzeppelin/contracts/utils/Context.sol\":709:716  address */\n      0x00\n        /* \"@openzeppelin/contracts/utils/Context.sol\":735:745  msg.sender */\n      caller\n        /* \"@openzeppelin/contracts/utils/Context.sol\":728:745  return msg.sender */\n      swap1\n      pop\n        /* \"@openzeppelin/contracts/utils/Context.sol\":656:752  function _msgSender() internal view virtual returns (address) {... */\n      swap1\n      jump\t// out\n        /* \"@openzeppelin/contracts/token/ERC20/ERC20.sol\":8989:9117  function _approve(address owner, address spender, uint256 value) internal {... */\n    tag_269:\n        /* \"@openzeppelin/contracts/token/ERC20/ERC20.sol\":9073:9110  _approve(owner, spender, value, true) */\n      tag_472\n        /* \"@openzeppelin/contracts/token/ERC20/ERC20.sol\":9082:9087  owner */\n      dup4\n        /* \"@openzeppelin/contracts/token/ERC20/ERC20.sol\":9089:9096  spender */\n      dup4\n        /* \"@openzeppelin/contracts/token/ERC20/ERC20.sol\":9098:9103  value */\n      dup4\n        /* \"@openzeppelin/contracts/token/ERC20/ERC20.sol\":9105:9109  true */\n      0x01\n        /* \"@openzeppelin/contracts/token/ERC20/ERC20.sol\":9073:9081  _approve */\n      tag_473\n        /* \"@openzeppelin/contracts/token/ERC20/ERC20.sol\":9073:9110  _approve(owner, spender, value, true) */\n      jump\t// in\n    tag_472:\n        /* \"@openzeppelin/contracts/token/ERC20/ERC20.sol\":8989:9117  function _approve(address owner, address spender, uint256 value) internal {... */\n      pop\n      pop\n      pop\n      jump\t// out\n        /* \"@openzeppelin/contracts/token/ERC20/ERC20.sol\":10663:11140  function _spendAllowance(address owner, address spender, uint256 value) internal virtual {... */\n    tag_274:\n        /* \"@openzeppelin/contracts/token/ERC20/ERC20.sol\":10762:10786  uint256 currentAllowance */\n      0x00\n        /* \"@openzeppelin/contracts/token/ERC20/ERC20.sol\":10789:10814  allowance(owner, spender) */\n      tag_475\n        /* \"@openzeppelin/contracts/token/ERC20/ERC20.sol\":10799:10804  owner */\n      dup5\n        /* \"@openzeppelin/contracts/token/ERC20/ERC20.sol\":10806:10813  spender */\n      dup5\n        /* \"@openzeppelin/contracts/token/ERC20/ERC20.sol\":10789:10798  allowance */\n      tag_227\n        /* \"@openzeppelin/contracts/token/ERC20/ERC20.sol\":10789:10814  allowance(owner, spender) */\n      jump\t// in\n    tag_475:\n        /* \"@openzeppelin/contracts/token/ERC20/ERC20.sol\":10762:10814  uint256 currentAllowance = allowance(owner, spender) */\n      swap1\n      pop\n        /* \"@openzeppelin/contracts/token/ERC20/ERC20.sol\":10848:10865  type(uint256).max */\n      0xffffffffffffffffffffffffffffffffffffffffffffffffffffffffffffffff\n        /* \"@openzeppelin/contracts/token/ERC20/ERC20.sol\":10828:10844  currentAllowance */\n      dup2\n        /* \"@openzeppelin/contracts/token/ERC20/ERC20.sol\":10828:10865  currentAllowance != type(uint256).max */\n      eq\n        /* \"@openzeppelin/contracts/token/ERC20/ERC20.sol\":10824:11134  if (currentAllowance != type(uint256).max) {... */\n      tag_476\n      jumpi\n        /* \"@openzeppelin/contracts/token/ERC20/ERC20.sol\":10904:10909  value */\n      dup2\n        /* \"@openzeppelin/contracts/token/ERC20/ERC20.sol\":10885:10901  currentAllowance */\n      dup2\n        /* \"@openzeppelin/contracts/token/ERC20/ERC20.sol\":10885:10909  currentAllowance < value */\n      lt\n        /* \"@openzeppelin/contracts/token/ERC20/ERC20.sol\":10881:11011  if (currentAllowance < value) {... */\n      iszero\n      tag_477\n      jumpi\n        /* \"@openzeppelin/contracts/token/ERC20/ERC20.sol\":10963:10970  spender */\n      dup3\n        /* \"@openzeppelin/contracts/token/ERC20/ERC20.sol\":10972:10988  currentAllowance */\n      dup2\n        /* \"@openzeppelin/contracts/token/ERC20/ERC20.sol\":10990:10995  value */\n      dup4\n        /* \"@openzeppelin/contracts/token/ERC20/ERC20.sol\":10936:10996  ERC20InsufficientAllowance(spender, currentAllowance, value) */\n      mload(0x40)\n      0xfb8f41b200000000000000000000000000000000000000000000000000000000\n      dup2\n      mstore\n      0x04\n      add\n      tag_478\n      swap4\n      swap3\n      swap2\n      swap1\n      tag_479\n      jump\t// in\n    tag_478:\n      mload(0x40)\n      dup1\n      swap2\n      sub\n      swap1\n      revert\n        /* \"@openzeppelin/contracts/token/ERC20/ERC20.sol\":10881:11011  if (currentAllowance < value) {... */\n    tag_477:\n        /* \"@openzeppelin/contracts/token/ERC20/ERC20.sol\":11052:11109  _approve(owner, spender, currentAllowance - value, false) */\n      tag_480\n        /* \"@openzeppelin/contracts/token/ERC20/ERC20.sol\":11061:11066  owner */\n      dup5\n        /* \"@openzeppelin/contracts/token/ERC20/ERC20.sol\":11068:11075  spender */\n      dup5\n        /* \"@openzeppelin/contracts/token/ERC20/ERC20.sol\":11096:11101  value */\n      dup5\n        /* \"@openzeppelin/contracts/token/ERC20/ERC20.sol\":11077:11093  currentAllowance */\n      dup5\n        /* \"@openzeppelin/contracts/token/ERC20/ERC20.sol\":11077:11101  currentAllowance - value */\n      sub\n        /* \"@openzeppelin/contracts/token/ERC20/ERC20.sol\":11103:11108  false */\n      0x00\n        /* \"@openzeppelin/contracts/token/ERC20/ERC20.sol\":11052:11060  _approve */\n      tag_473\n        /* \"@openzeppelin/contracts/token/ERC20/ERC20.sol\":11052:11109  _approve(owner, spender, currentAllowance - value, false) */\n      jump\t// in\n    tag_480:\n        /* \"@openzeppelin/contracts/token/ERC20/ERC20.sol\":10824:11134  if (currentAllowance != type(uint256).max) {... */\n    tag_476:\n        /* \"@openzeppelin/contracts/token/ERC20/ERC20.sol\":10752:11140  {... */\n      pop\n        /* \"@openzeppelin/contracts/token/ERC20/ERC20.sol\":10663:11140  function _spendAllowance(address owner, address spender, uint256 value) internal virtual {... */\n      pop\n      pop\n      pop\n      jump\t// out\n        /* \"@openzeppelin/contracts/token/ERC20/ERC20.sol\":5656:5956  function _transfer(address from, address to, uint256 value) internal {... */\n    tag_276:\n        /* \"@openzeppelin/contracts/token/ERC20/ERC20.sol\":5755:5756  0 */\n      0x00\n        /* \"@openzeppelin/contracts/token/ERC20/ERC20.sol\":5739:5757  from == address(0) */\n      0xffffffffffffffffffffffffffffffffffffffff\n      and\n        /* \"@openzeppelin/contracts/token/ERC20/ERC20.sol\":5739:5743  from */\n      dup4\n        /* \"@openzeppelin/contracts/token/ERC20/ERC20.sol\":5739:5757  from == address(0) */\n      0xffffffffffffffffffffffffffffffffffffffff\n      and\n      sub\n        /* \"@openzeppelin/contracts/token/ERC20/ERC20.sol\":5735:5821  if (from == address(0)) {... */\n      tag_482\n      jumpi\n        /* \"@openzeppelin/contracts/token/ERC20/ERC20.sol\":5807:5808  0 */\n      0x00\n        /* \"@openzeppelin/contracts/token/ERC20/ERC20.sol\":5780:5810  ERC20InvalidSender(address(0)) */\n      mload(0x40)\n      0x96c6fd1e00000000000000000000000000000000000000000000000000000000\n      dup2\n      mstore\n      0x04\n      add\n      tag_483\n      swap2\n      swap1\n      tag_158\n      jump\t// in\n    tag_483:\n      mload(0x40)\n      dup1\n      swap2\n      sub\n      swap1\n      revert\n        /* \"@openzeppelin/contracts/token/ERC20/ERC20.sol\":5735:5821  if (from == address(0)) {... */\n    tag_482:\n        /* \"@openzeppelin/contracts/token/ERC20/ERC20.sol\":5848:5849  0 */\n      0x00\n        /* \"@openzeppelin/contracts/token/ERC20/ERC20.sol\":5834:5850  to == address(0) */\n      0xffffffffffffffffffffffffffffffffffffffff\n      and\n        /* \"@openzeppelin/contracts/token/ERC20/ERC20.sol\":5834:5836  to */\n      dup3\n        /* \"@openzeppelin/contracts/token/ERC20/ERC20.sol\":5834:5850  to == address(0) */\n      0xffffffffffffffffffffffffffffffffffffffff\n      and\n      sub\n        /* \"@openzeppelin/contracts/token/ERC20/ERC20.sol\":5830:5916  if (to == address(0)) {... */\n      tag_484\n      jumpi\n        /* \"@openzeppelin/contracts/token/ERC20/ERC20.sol\":5902:5903  0 */\n      0x00\n        /* \"@openzeppelin/contracts/token/ERC20/ERC20.sol\":5873:5905  ERC20InvalidReceiver(address(0)) */\n      mload(0x40)\n      0xec442f0500000000000000000000000000000000000000000000000000000000\n      dup2\n      mstore\n      0x04\n      add\n      tag_485\n      swap2\n      swap1\n      tag_158\n      jump\t// in\n    tag_485:\n      mload(0x40)\n      dup1\n      swap2\n      sub\n      swap1\n      revert\n        /* \"@openzeppelin/contracts/token/ERC20/ERC20.sol\":5830:5916  if (to == address(0)) {... */\n    tag_484:\n        /* \"@openzeppelin/contracts/token/ERC20/ERC20.sol\":5925:5949  _update(from, to, value) */\n      tag_486\n        /* \"@openzeppelin/contracts/token/ERC20/ERC20.sol\":5933:5937  from */\n      dup4\n        /* \"@openzeppelin/contracts/token/ERC20/ERC20.sol\":5939:5941  to */\n      dup4\n        /* \"@openzeppelin/contracts/token/ERC20/ERC20.sol\":5943:5948  value */\n      dup4\n        /* \"@openzeppelin/contracts/token/ERC20/ERC20.sol\":5925:5932  _update */\n      tag_487\n        /* \"@openzeppelin/contracts/token/ERC20/ERC20.sol\":5925:5949  _update(from, to, value) */\n      jump\t// in\n    tag_486:\n        /* \"@openzeppelin/contracts/token/ERC20/ERC20.sol\":5656:5956  function _transfer(address from, address to, uint256 value) internal {... */\n      pop\n      pop\n      pop\n      jump\t// out\n        /* \"@openzeppelin/contracts/security/ReentrancyGuard.sol\":2336:2623  function _nonReentrantBefore() private {... */\n    tag_280:\n        /* \"@openzeppelin/contracts/security/ReentrancyGuard.sol\":1759:1760  2 */\n      0x02\n        /* \"@openzeppelin/contracts/security/ReentrancyGuard.sol\":2468:2475  _status */\n      sload(0x06)\n        /* \"@openzeppelin/contracts/security/ReentrancyGuard.sol\":2468:2487  _status != _ENTERED */\n      sub\n        /* \"@openzeppelin/contracts/security/ReentrancyGuard.sol\":2460:2523  require(_status != _ENTERED, \"ReentrancyGuard: reentrant call\") */\n      tag_489\n      jumpi\n      mload(0x40)\n      0x08c379a000000000000000000000000000000000000000000000000000000000\n      dup2\n      mstore\n      0x04\n      add\n      tag_490\n      swap1\n      tag_491\n      jump\t// in\n    tag_490:\n      mload(0x40)\n      dup1\n      swap2\n      sub\n      swap1\n      revert\n    tag_489:\n        /* \"@openzeppelin/contracts/security/ReentrancyGuard.sol\":1759:1760  2 */\n      0x02\n        /* \"@openzeppelin/contracts/security/ReentrancyGuard.sol\":2598:2605  _status */\n      0x06\n        /* \"@openzeppelin/contracts/security/ReentrancyGuard.sol\":2598:2616  _status = _ENTERED */\n      dup2\n      swap1\n      sstore\n      pop\n        /* \"@openzeppelin/contracts/security/ReentrancyGuard.sol\":2336:2623  function _nonReentrantBefore() private {... */\n      jump\t// out\n        /* \"@openzeppelin/contracts/security/Pausable.sol\":1767:1873  function _requireNotPaused() internal view virtual {... */\n    tag_283:\n        /* \"@openzeppelin/contracts/security/Pausable.sol\":1837:1845  paused() */\n      tag_493\n        /* \"@openzeppelin/contracts/security/Pausable.sol\":1837:1843  paused */\n      tag_118\n        /* \"@openzeppelin/contracts/security/Pausable.sol\":1837:1845  paused() */\n      jump\t// in\n    tag_493:\n        /* \"@openzeppelin/contracts/security/Pausable.sol\":1836:1845  !paused() */\n      iszero\n        /* \"@openzeppelin/contracts/security/Pausable.sol\":1828:1866  require(!paused(), \"Pausable: paused\") */\n      tag_494\n      jumpi\n      mload(0x40)\n      0x08c379a000000000000000000000000000000000000000000000000000000000\n      dup2\n      mstore\n      0x04\n      add\n      tag_495\n      swap1\n      tag_496\n      jump\t// in\n    tag_495:\n      mload(0x40)\n      dup1\n      swap2\n      sub\n      swap1\n      revert\n    tag_494:\n        /* \"@openzeppelin/contracts/security/Pausable.sol\":1767:1873  function _requireNotPaused() internal view virtual {... */\n      jump\t// out\n        /* \"contracts/bet.sol\":9050:9487  function createVestingSchedule(... */\n    tag_327:\n        /* \"contracts/bet.sol\":9238:9270  VestingSchedule storage schedule */\n      0x00\n        /* \"contracts/bet.sol\":9273:9289  vestingSchedules */\n      0x14\n        /* \"contracts/bet.sol\":9273:9302  vestingSchedules[beneficiary] */\n      0x00\n        /* \"contracts/bet.sol\":9290:9301  beneficiary */\n      dup8\n        /* \"contracts/bet.sol\":9273:9302  vestingSchedules[beneficiary] */\n      0xffffffffffffffffffffffffffffffffffffffff\n      and\n      0xffffffffffffffffffffffffffffffffffffffff\n      and\n      dup2\n      mstore\n      0x20\n      add\n      swap1\n      dup2\n      mstore\n      0x20\n      add\n      0x00\n      keccak256\n        /* \"contracts/bet.sol\":9238:9302  VestingSchedule storage schedule = vestingSchedules[beneficiary] */\n      swap1\n      pop\n        /* \"contracts/bet.sol\":9358:9364  amount */\n      dup5\n        /* \"contracts/bet.sol\":9335:9343  schedule */\n      dup2\n        /* \"contracts/bet.sol\":9335:9355  schedule.totalAmount */\n      0x00\n      add\n      sload\n        /* \"contracts/bet.sol\":9335:9364  schedule.totalAmount + amount */\n      tag_498\n      swap2\n      swap1\n      tag_308\n      jump\t// in\n    tag_498:\n        /* \"contracts/bet.sol\":9312:9320  schedule */\n      dup2\n        /* \"contracts/bet.sol\":9312:9332  schedule.totalAmount */\n      0x00\n      add\n        /* \"contracts/bet.sol\":9312:9364  schedule.totalAmount = schedule.totalAmount + amount */\n      dup2\n      swap1\n      sstore\n      pop\n        /* \"contracts/bet.sol\":9395:9404  startTime */\n      dup4\n        /* \"contracts/bet.sol\":9374:9382  schedule */\n      dup2\n        /* \"contracts/bet.sol\":9374:9392  schedule.startTime */\n      0x02\n      add\n        /* \"contracts/bet.sol\":9374:9404  schedule.startTime = startTime */\n      dup2\n      swap1\n      sstore\n      pop\n        /* \"contracts/bet.sol\":9434:9442  duration */\n      dup3\n        /* \"contracts/bet.sol\":9414:9422  schedule */\n      dup2\n        /* \"contracts/bet.sol\":9414:9431  schedule.duration */\n      0x03\n      add\n        /* \"contracts/bet.sol\":9414:9442  schedule.duration = duration */\n      dup2\n      swap1\n      sstore\n      pop\n        /* \"contracts/bet.sol\":9472:9480  interval */\n      dup2\n        /* \"contracts/bet.sol\":9452:9460  schedule */\n      dup2\n        /* \"contracts/bet.sol\":9452:9469  schedule.interval */\n      0x04\n      add\n        /* \"contracts/bet.sol\":9452:9480  schedule.interval = interval */\n      dup2\n      swap1\n      sstore\n      pop\n        /* \"contracts/bet.sol\":9228:9487  {... */\n      pop\n        /* \"contracts/bet.sol\":9050:9487  function createVestingSchedule(... */\n      pop\n      pop\n      pop\n      pop\n      pop\n      jump\t// out\n        /* \"@openzeppelin/contracts/security/ReentrancyGuard.sol\":2629:2838  function _nonReentrantAfter() private {... */\n    tag_332:\n        /* \"@openzeppelin/contracts/security/ReentrancyGuard.sol\":1716:1717  1 */\n      0x01\n        /* \"@openzeppelin/contracts/security/ReentrancyGuard.sol\":2809:2816  _status */\n      0x06\n        /* \"@openzeppelin/contracts/security/ReentrancyGuard.sol\":2809:2831  _status = _NOT_ENTERED */\n      dup2\n      swap1\n      sstore\n      pop\n        /* \"@openzeppelin/contracts/security/ReentrancyGuard.sol\":2629:2838  function _nonReentrantAfter() private {... */\n      jump\t// out\n        /* \"@openzeppelin/contracts/access/Ownable.sol\":1796:1958  function _checkOwner() internal view virtual {... */\n    tag_335:\n        /* \"@openzeppelin/contracts/access/Ownable.sol\":1866:1878  _msgSender() */\n      tag_501\n        /* \"@openzeppelin/contracts/access/Ownable.sol\":1866:1876  _msgSender */\n      tag_267\n        /* \"@openzeppelin/contracts/access/Ownable.sol\":1866:1878  _msgSender() */\n      jump\t// in\n    tag_501:\n        /* \"@openzeppelin/contracts/access/Ownable.sol\":1855:1878  owner() != _msgSender() */\n      0xffffffffffffffffffffffffffffffffffffffff\n      and\n        /* \"@openzeppelin/contracts/access/Ownable.sol\":1855:1862  owner() */\n      tag_502\n        /* \"@openzeppelin/contracts/access/Ownable.sol\":1855:1860  owner */\n      tag_156\n        /* \"@openzeppelin/contracts/access/Ownable.sol\":1855:1862  owner() */\n      jump\t// in\n    tag_502:\n        /* \"@openzeppelin/contracts/access/Ownable.sol\":1855:1878  owner() != _msgSender() */\n      0xffffffffffffffffffffffffffffffffffffffff\n      and\n      eq\n        /* \"@openzeppelin/contracts/access/Ownable.sol\":1851:1952  if (owner() != _msgSender()) {... */\n      tag_503\n      jumpi\n        /* \"@openzeppelin/contracts/access/Ownable.sol\":1928:1940  _msgSender() */\n      tag_504\n        /* \"@openzeppelin/contracts/access/Ownable.sol\":1928:1938  _msgSender */\n      tag_267\n        /* \"@openzeppelin/contracts/access/Ownable.sol\":1928:1940  _msgSender() */\n      jump\t// in\n    tag_504:\n        /* \"@openzeppelin/contracts/access/Ownable.sol\":1901:1941  OwnableUnauthorizedAccount(_msgSender()) */\n      mload(0x40)\n      0x118cdaa700000000000000000000000000000000000000000000000000000000\n      dup2\n      mstore\n      0x04\n      add\n      tag_505\n      swap2\n      swap1\n      tag_158\n      jump\t// in\n    tag_505:\n      mload(0x40)\n      dup1\n      swap2\n      sub\n      swap1\n      revert\n        /* \"@openzeppelin/contracts/access/Ownable.sol\":1851:1952  if (owner() != _msgSender()) {... */\n    tag_503:\n        /* \"@openzeppelin/contracts/access/Ownable.sol\":1796:1958  function _checkOwner() internal view virtual {... */\n      jump\t// out\n        /* \"@openzeppelin/contracts/access/Ownable.sol\":2912:3099  function _transferOwnership(address newOwner) internal virtual {... */\n    tag_383:\n        /* \"@openzeppelin/contracts/access/Ownable.sol\":2985:3001  address oldOwner */\n      0x00\n        /* \"@openzeppelin/contracts/access/Ownable.sol\":3004:3010  _owner */\n      0x05\n      0x00\n      swap1\n      sload\n      swap1\n      0x0100\n      exp\n      swap1\n      div\n      0xffffffffffffffffffffffffffffffffffffffff\n      and\n        /* \"@openzeppelin/contracts/access/Ownable.sol\":2985:3010  address oldOwner = _owner */\n      swap1\n      pop\n        /* \"@openzeppelin/contracts/access/Ownable.sol\":3029:3037  newOwner */\n      dup2\n        /* \"@openzeppelin/contracts/access/Ownable.sol\":3020:3026  _owner */\n      0x05\n      0x00\n        /* \"@openzeppelin/contracts/access/Ownable.sol\":3020:3037  _owner = newOwner */\n      0x0100\n      exp\n      dup2\n      sload\n      dup2\n      0xffffffffffffffffffffffffffffffffffffffff\n      mul\n      not\n      and\n      swap1\n      dup4\n      0xffffffffffffffffffffffffffffffffffffffff\n      and\n      mul\n      or\n      swap1\n      sstore\n      pop\n        /* \"@openzeppelin/contracts/access/Ownable.sol\":3083:3091  newOwner */\n      dup2\n        /* \"@openzeppelin/contracts/access/Ownable.sol\":3052:3092  OwnershipTransferred(oldOwner, newOwner) */\n      0xffffffffffffffffffffffffffffffffffffffff\n      and\n        /* \"@openzeppelin/contracts/access/Ownable.sol\":3073:3081  oldOwner */\n      dup2\n        /* \"@openzeppelin/contracts/access/Ownable.sol\":3052:3092  OwnershipTransferred(oldOwner, newOwner) */\n      0xffffffffffffffffffffffffffffffffffffffff\n      and\n      0x8be0079c531659141344cd1fd0a4f28419497f9722a3daafe3b4186f6b6457e0\n      mload(0x40)\n      mload(0x40)\n      dup1\n      swap2\n      sub\n      swap1\n      log3\n        /* \"@openzeppelin/contracts/access/Ownable.sol\":2975:3099  {... */\n      pop\n        /* \"@openzeppelin/contracts/access/Ownable.sol\":2912:3099  function _transferOwnership(address newOwner) internal virtual {... */\n      pop\n      jump\t// out\n        /* \"@openzeppelin/contracts/token/ERC20/ERC20.sol\":9949:10381  function _approve(address owner, address spender, uint256 value, bool emitEvent) internal virtual {... */\n    tag_473:\n        /* \"@openzeppelin/contracts/token/ERC20/ERC20.sol\":10078:10079  0 */\n      0x00\n        /* \"@openzeppelin/contracts/token/ERC20/ERC20.sol\":10061:10080  owner == address(0) */\n      0xffffffffffffffffffffffffffffffffffffffff\n      and\n        /* \"@openzeppelin/contracts/token/ERC20/ERC20.sol\":10061:10066  owner */\n      dup5\n        /* \"@openzeppelin/contracts/token/ERC20/ERC20.sol\":10061:10080  owner == address(0) */\n      0xffffffffffffffffffffffffffffffffffffffff\n      and\n      sub\n        /* \"@openzeppelin/contracts/token/ERC20/ERC20.sol\":10057:10146  if (owner == address(0)) {... */\n      tag_508\n      jumpi\n        /* \"@openzeppelin/contracts/token/ERC20/ERC20.sol\":10132:10133  0 */\n      0x00\n        /* \"@openzeppelin/contracts/token/ERC20/ERC20.sol\":10103:10135  ERC20InvalidApprover(address(0)) */\n      mload(0x40)\n      0xe602df0500000000000000000000000000000000000000000000000000000000\n      dup2\n      mstore\n      0x04\n      add\n      tag_509\n      swap2\n      swap1\n      tag_158\n      jump\t// in\n    tag_509:\n      mload(0x40)\n      dup1\n      swap2\n      sub\n      swap1\n      revert\n        /* \"@openzeppelin/contracts/token/ERC20/ERC20.sol\":10057:10146  if (owner == address(0)) {... */\n    tag_508:\n        /* \"@openzeppelin/contracts/token/ERC20/ERC20.sol\":10178:10179  0 */\n      0x00\n        /* \"@openzeppelin/contracts/token/ERC20/ERC20.sol\":10159:10180  spender == address(0) */\n      0xffffffffffffffffffffffffffffffffffffffff\n      and\n        /* \"@openzeppelin/contracts/token/ERC20/ERC20.sol\":10159:10166  spender */\n      dup4\n        /* \"@openzeppelin/contracts/token/ERC20/ERC20.sol\":10159:10180  spender == address(0) */\n      0xffffffffffffffffffffffffffffffffffffffff\n      and\n      sub\n        /* \"@openzeppelin/contracts/token/ERC20/ERC20.sol\":10155:10245  if (spender == address(0)) {... */\n      tag_510\n      jumpi\n        /* \"@openzeppelin/contracts/token/ERC20/ERC20.sol\":10231:10232  0 */\n      0x00\n        /* \"@openzeppelin/contracts/token/ERC20/ERC20.sol\":10203:10234  ERC20InvalidSpender(address(0)) */\n      mload(0x40)\n      0x94280d6200000000000000000000000000000000000000000000000000000000\n      dup2\n      mstore\n      0x04\n      add\n      tag_511\n      swap2\n      swap1\n      tag_158\n      jump\t// in\n    tag_511:\n      mload(0x40)\n      dup1\n      swap2\n      sub\n      swap1\n      revert\n        /* \"@openzeppelin/contracts/token/ERC20/ERC20.sol\":10155:10245  if (spender == address(0)) {... */\n    tag_510:\n        /* \"@openzeppelin/contracts/token/ERC20/ERC20.sol\":10284:10289  value */\n      dup2\n        /* \"@openzeppelin/contracts/token/ERC20/ERC20.sol\":10254:10265  _allowances */\n      0x01\n        /* \"@openzeppelin/contracts/token/ERC20/ERC20.sol\":10254:10272  _allowances[owner] */\n      0x00\n        /* \"@openzeppelin/contracts/token/ERC20/ERC20.sol\":10266:10271  owner */\n      dup7\n        /* \"@openzeppelin/contracts/token/ERC20/ERC20.sol\":10254:10272  _allowances[owner] */\n      0xffffffffffffffffffffffffffffffffffffffff\n      and\n      0xffffffffffffffffffffffffffffffffffffffff\n      and\n      dup2\n      mstore\n      0x20\n      add\n      swap1\n      dup2\n      mstore\n      0x20\n      add\n      0x00\n      keccak256\n        /* \"@openzeppelin/contracts/token/ERC20/ERC20.sol\":10254:10281  _allowances[owner][spender] */\n      0x00\n        /* \"@openzeppelin/contracts/token/ERC20/ERC20.sol\":10273:10280  spender */\n      dup6\n        /* \"@openzeppelin/contracts/token/ERC20/ERC20.sol\":10254:10281  _allowances[owner][spender] */\n      0xffffffffffffffffffffffffffffffffffffffff\n      and\n      0xffffffffffffffffffffffffffffffffffffffff\n      and\n      dup2\n      mstore\n      0x20\n      add\n      swap1\n      dup2\n      mstore\n      0x20\n      add\n      0x00\n      keccak256\n        /* \"@openzeppelin/contracts/token/ERC20/ERC20.sol\":10254:10289  _allowances[owner][spender] = value */\n      dup2\n      swap1\n      sstore\n      pop\n        /* \"@openzeppelin/contracts/token/ERC20/ERC20.sol\":10303:10312  emitEvent */\n      dup1\n        /* \"@openzeppelin/contracts/token/ERC20/ERC20.sol\":10299:10375  if (emitEvent) {... */\n      iszero\n      tag_512\n      jumpi\n        /* \"@openzeppelin/contracts/token/ERC20/ERC20.sol\":10349:10356  spender */\n      dup3\n        /* \"@openzeppelin/contracts/token/ERC20/ERC20.sol\":10333:10364  Approval(owner, spender, value) */\n      0xffffffffffffffffffffffffffffffffffffffff\n      and\n        /* \"@openzeppelin/contracts/token/ERC20/ERC20.sol\":10342:10347  owner */\n      dup5\n        /* \"@openzeppelin/contracts/token/ERC20/ERC20.sol\":10333:10364  Approval(owner, spender, value) */\n      0xffffffffffffffffffffffffffffffffffffffff\n      and\n      0x8c5be1e5ebec7d5bd14f71427d1e84f3dd0314c0f7b2291e5b200ac8c7c3b925\n        /* \"@openzeppelin/contracts/token/ERC20/ERC20.sol\":10358:10363  value */\n      dup5\n        /* \"@openzeppelin/contracts/token/ERC20/ERC20.sol\":10333:10364  Approval(owner, spender, value) */\n      mload(0x40)\n      tag_513\n      swap2\n      swap1\n      tag_76\n      jump\t// in\n    tag_513:\n      mload(0x40)\n      dup1\n      swap2\n      sub\n      swap1\n      log3\n        /* \"@openzeppelin/contracts/token/ERC20/ERC20.sol\":10299:10375  if (emitEvent) {... */\n    tag_512:\n        /* \"@openzeppelin/contracts/token/ERC20/ERC20.sol\":9949:10381  function _approve(address owner, address spender, uint256 value, bool emitEvent) internal virtual {... */\n      pop\n      pop\n      pop\n      pop\n      jump\t// out\n        /* \"@openzeppelin/contracts/token/ERC20/ERC20.sol\":6271:7378  function _update(address from, address to, uint256 value) internal virtual {... */\n    tag_487:\n        /* \"@openzeppelin/contracts/token/ERC20/ERC20.sol\":6376:6377  0 */\n      0x00\n        /* \"@openzeppelin/contracts/token/ERC20/ERC20.sol\":6360:6378  from == address(0) */\n      0xffffffffffffffffffffffffffffffffffffffff\n      and\n        /* \"@openzeppelin/contracts/token/ERC20/ERC20.sol\":6360:6364  from */\n      dup4\n        /* \"@openzeppelin/contracts/token/ERC20/ERC20.sol\":6360:6378  from == address(0) */\n      0xffffffffffffffffffffffffffffffffffffffff\n      and\n      sub\n        /* \"@openzeppelin/contracts/token/ERC20/ERC20.sol\":6356:6896  if (from == address(0)) {... */\n      tag_515\n      jumpi\n        /* \"@openzeppelin/contracts/token/ERC20/ERC20.sol\":6512:6517  value */\n      dup1\n        /* \"@openzeppelin/contracts/token/ERC20/ERC20.sol\":6496:6508  _totalSupply */\n      0x02\n      0x00\n        /* \"@openzeppelin/contracts/token/ERC20/ERC20.sol\":6496:6517  _totalSupply += value */\n      dup3\n      dup3\n      sload\n      tag_516\n      swap2\n      swap1\n      tag_308\n      jump\t// in\n    tag_516:\n      swap3\n      pop\n      pop\n      dup2\n      swap1\n      sstore\n      pop\n        /* \"@openzeppelin/contracts/token/ERC20/ERC20.sol\":6356:6896  if (from == address(0)) {... */\n      jump(tag_517)\n    tag_515:\n        /* \"@openzeppelin/contracts/token/ERC20/ERC20.sol\":6548:6567  uint256 fromBalance */\n      0x00\n        /* \"@openzeppelin/contracts/token/ERC20/ERC20.sol\":6570:6579  _balances */\n      dup1\n        /* \"@openzeppelin/contracts/token/ERC20/ERC20.sol\":6570:6585  _balances[from] */\n      0x00\n        /* \"@openzeppelin/contracts/token/ERC20/ERC20.sol\":6580:6584  from */\n      dup6\n        /* \"@openzeppelin/contracts/token/ERC20/ERC20.sol\":6570:6585  _balances[from] */\n      0xffffffffffffffffffffffffffffffffffffffff\n      and\n      0xffffffffffffffffffffffffffffffffffffffff\n      and\n      dup2\n      mstore\n      0x20\n      add\n      swap1\n      dup2\n      mstore\n      0x20\n      add\n      0x00\n      keccak256\n      sload\n        /* \"@openzeppelin/contracts/token/ERC20/ERC20.sol\":6548:6585  uint256 fromBalance = _balances[from] */\n      swap1\n      pop\n        /* \"@openzeppelin/contracts/token/ERC20/ERC20.sol\":6617:6622  value */\n      dup2\n        /* \"@openzeppelin/contracts/token/ERC20/ERC20.sol\":6603:6614  fromBalance */\n      dup2\n        /* \"@openzeppelin/contracts/token/ERC20/ERC20.sol\":6603:6622  fromBalance < value */\n      lt\n        /* \"@openzeppelin/contracts/token/ERC20/ERC20.sol\":6599:6714  if (fromBalance < value) {... */\n      iszero\n      tag_518\n      jumpi\n        /* \"@openzeppelin/contracts/token/ERC20/ERC20.sol\":6674:6678  from */\n      dup4\n        /* \"@openzeppelin/contracts/token/ERC20/ERC20.sol\":6680:6691  fromBalance */\n      dup2\n        /* \"@openzeppelin/contracts/token/ERC20/ERC20.sol\":6693:6698  value */\n      dup4\n        /* \"@openzeppelin/contracts/token/ERC20/ERC20.sol\":6649:6699  ERC20InsufficientBalance(from, fromBalance, value) */\n      mload(0x40)\n      0xe450d38c00000000000000000000000000000000000000000000000000000000\n      dup2\n      mstore\n      0x04\n      add\n      tag_519\n      swap4\n      swap3\n      swap2\n      swap1\n      tag_479\n      jump\t// in\n    tag_519:\n      mload(0x40)\n      dup1\n      swap2\n      sub\n      swap1\n      revert\n        /* \"@openzeppelin/contracts/token/ERC20/ERC20.sol\":6599:6714  if (fromBalance < value) {... */\n    tag_518:\n        /* \"@openzeppelin/contracts/token/ERC20/ERC20.sol\":6866:6871  value */\n      dup2\n        /* \"@openzeppelin/contracts/token/ERC20/ERC20.sol\":6852:6863  fromBalance */\n      dup2\n        /* \"@openzeppelin/contracts/token/ERC20/ERC20.sol\":6852:6871  fromBalance - value */\n      sub\n        /* \"@openzeppelin/contracts/token/ERC20/ERC20.sol\":6834:6843  _balances */\n      0x00\n        /* \"@openzeppelin/contracts/token/ERC20/ERC20.sol\":6834:6849  _balances[from] */\n      dup1\n        /* \"@openzeppelin/contracts/token/ERC20/ERC20.sol\":6844:6848  from */\n      dup7\n        /* \"@openzeppelin/contracts/token/ERC20/ERC20.sol\":6834:6849  _balances[from] */\n      0xffffffffffffffffffffffffffffffffffffffff\n      and\n      0xffffffffffffffffffffffffffffffffffffffff\n      and\n      dup2\n      mstore\n      0x20\n      add\n      swap1\n      dup2\n      mstore\n      0x20\n      add\n      0x00\n      keccak256\n        /* \"@openzeppelin/contracts/token/ERC20/ERC20.sol\":6834:6871  _balances[from] = fromBalance - value */\n      dup2\n      swap1\n      sstore\n      pop\n        /* \"@openzeppelin/contracts/token/ERC20/ERC20.sol\":6534:6896  {... */\n      pop\n        /* \"@openzeppelin/contracts/token/ERC20/ERC20.sol\":6356:6896  if (from == address(0)) {... */\n    tag_517:\n        /* \"@openzeppelin/contracts/token/ERC20/ERC20.sol\":6924:6925  0 */\n      0x00\n        /* \"@openzeppelin/contracts/token/ERC20/ERC20.sol\":6910:6926  to == address(0) */\n      0xffffffffffffffffffffffffffffffffffffffff\n      and\n        /* \"@openzeppelin/contracts/token/ERC20/ERC20.sol\":6910:6912  to */\n      dup3\n        /* \"@openzeppelin/contracts/token/ERC20/ERC20.sol\":6910:6926  to == address(0) */\n      0xffffffffffffffffffffffffffffffffffffffff\n      and\n      sub\n        /* \"@openzeppelin/contracts/token/ERC20/ERC20.sol\":6906:7331  if (to == address(0)) {... */\n      tag_520\n      jumpi\n        /* \"@openzeppelin/contracts/token/ERC20/ERC20.sol\":7089:7094  value */\n      dup1\n        /* \"@openzeppelin/contracts/token/ERC20/ERC20.sol\":7073:7085  _totalSupply */\n      0x02\n      0x00\n        /* \"@openzeppelin/contracts/token/ERC20/ERC20.sol\":7073:7094  _totalSupply -= value */\n      dup3\n      dup3\n      sload\n      sub\n      swap3\n      pop\n      pop\n      dup2\n      swap1\n      sstore\n      pop\n        /* \"@openzeppelin/contracts/token/ERC20/ERC20.sol\":6906:7331  if (to == address(0)) {... */\n      jump(tag_521)\n    tag_520:\n        /* \"@openzeppelin/contracts/token/ERC20/ERC20.sol\":7301:7306  value */\n      dup1\n        /* \"@openzeppelin/contracts/token/ERC20/ERC20.sol\":7284:7293  _balances */\n      0x00\n        /* \"@openzeppelin/contracts/token/ERC20/ERC20.sol\":7284:7297  _balances[to] */\n      dup1\n        /* \"@openzeppelin/contracts/token/ERC20/ERC20.sol\":7294:7296  to */\n      dup5\n        /* \"@openzeppelin/contracts/token/ERC20/ERC20.sol\":7284:7297  _balances[to] */\n      0xffffffffffffffffffffffffffffffffffffffff\n      and\n      0xffffffffffffffffffffffffffffffffffffffff\n      and\n      dup2\n      mstore\n      0x20\n      add\n      swap1\n      dup2\n      mstore\n      0x20\n      add\n      0x00\n      keccak256\n      0x00\n        /* \"@openzeppelin/contracts/token/ERC20/ERC20.sol\":7284:7306  _balances[to] += value */\n      dup3\n      dup3\n      sload\n      add\n      swap3\n      pop\n      pop\n      dup2\n      swap1\n      sstore\n      pop\n        /* \"@openzeppelin/contracts/token/ERC20/ERC20.sol\":6906:7331  if (to == address(0)) {... */\n    tag_521:\n        /* \"@openzeppelin/contracts/token/ERC20/ERC20.sol\":7361:7363  to */\n      dup2\n        /* \"@openzeppelin/contracts/token/ERC20/ERC20.sol\":7346:7371  Transfer(from, to, value) */\n      0xffffffffffffffffffffffffffffffffffffffff\n      and\n        /* \"@openzeppelin/contracts/token/ERC20/ERC20.sol\":7355:7359  from */\n      dup4\n        /* \"@openzeppelin/contracts/token/ERC20/ERC20.sol\":7346:7371  Transfer(from, to, value) */\n      0xffffffffffffffffffffffffffffffffffffffff\n      and\n      0xddf252ad1be2c89b69c2b068fc378daa952ba7f163c4a11628f55a4df523b3ef\n        /* \"@openzeppelin/contracts/token/ERC20/ERC20.sol\":7365:7370  value */\n      dup4\n        /* \"@openzeppelin/contracts/token/ERC20/ERC20.sol\":7346:7371  Transfer(from, to, value) */\n      mload(0x40)\n      tag_522\n      swap2\n      swap1\n      tag_76\n      jump\t// in\n    tag_522:\n      mload(0x40)\n      dup1\n      swap2\n      sub\n      swap1\n      log3\n        /* \"@openzeppelin/contracts/token/ERC20/ERC20.sol\":6271:7378  function _update(address from, address to, uint256 value) internal virtual {... */\n      pop\n      pop\n      pop\n      jump\t// out\n        /* \"#utility.yul\":7:82   */\n    tag_523:\n        /* \"#utility.yul\":40:46   */\n      0x00\n        /* \"#utility.yul\":73:75   */\n      0x40\n        /* \"#utility.yul\":67:76   */\n      mload\n        /* \"#utility.yul\":57:76   */\n      swap1\n      pop\n        /* \"#utility.yul\":7:82   */\n      swap1\n      jump\t// out\n        /* \"#utility.yul\":88:205   */\n    tag_524:\n        /* \"#utility.yul\":197:198   */\n      0x00\n        /* \"#utility.yul\":194:195   */\n      dup1\n        /* \"#utility.yul\":187:199   */\n      revert\n        /* \"#utility.yul\":211:328   */\n    tag_525:\n        /* \"#utility.yul\":320:321   */\n      0x00\n        /* \"#utility.yul\":317:318   */\n      dup1\n        /* \"#utility.yul\":310:322   */\n      revert\n        /* \"#utility.yul\":334:460   */\n    tag_526:\n        /* \"#utility.yul\":371:378   */\n      0x00\n        /* \"#utility.yul\":411:453   */\n      0xffffffffffffffffffffffffffffffffffffffff\n        /* \"#utility.yul\":404:409   */\n      dup3\n        /* \"#utility.yul\":400:454   */\n      and\n        /* \"#utility.yul\":389:454   */\n      swap1\n      pop\n        /* \"#utility.yul\":334:460   */\n      swap2\n      swap1\n      pop\n      jump\t// out\n        /* \"#utility.yul\":466:562   */\n    tag_527:\n        /* \"#utility.yul\":503:510   */\n      0x00\n        /* \"#utility.yul\":532:556   */\n      tag_636\n        /* \"#utility.yul\":550:555   */\n      dup3\n        /* \"#utility.yul\":532:556   */\n      tag_526\n      jump\t// in\n    tag_636:\n        /* \"#utility.yul\":521:556   */\n      swap1\n      pop\n        /* \"#utility.yul\":466:562   */\n      swap2\n      swap1\n      pop\n      jump\t// out\n        /* \"#utility.yul\":568:690   */\n    tag_528:\n        /* \"#utility.yul\":641:665   */\n      tag_638\n        /* \"#utility.yul\":659:664   */\n      dup2\n        /* \"#utility.yul\":641:665   */\n      tag_527\n      jump\t// in\n    tag_638:\n        /* \"#utility.yul\":634:639   */\n      dup2\n        /* \"#utility.yul\":631:666   */\n      eq\n        /* \"#utility.yul\":621:684   */\n      tag_639\n      jumpi\n        /* \"#utility.yul\":680:681   */\n      0x00\n        /* \"#utility.yul\":677:678   */\n      dup1\n        /* \"#utility.yul\":670:682   */\n      revert\n        /* \"#utility.yul\":621:684   */\n    tag_639:\n        /* \"#utility.yul\":568:690   */\n      pop\n      jump\t// out\n        /* \"#utility.yul\":696:835   */\n    tag_529:\n        /* \"#utility.yul\":742:747   */\n      0x00\n        /* \"#utility.yul\":780:786   */\n      dup2\n        /* \"#utility.yul\":767:787   */\n      calldataload\n        /* \"#utility.yul\":758:787   */\n      swap1\n      pop\n        /* \"#utility.yul\":796:829   */\n      tag_641\n        /* \"#utility.yul\":823:828   */\n      dup2\n        /* \"#utility.yul\":796:829   */\n      tag_528\n      jump\t// in\n    tag_641:\n        /* \"#utility.yul\":696:835   */\n      swap3\n      swap2\n      pop\n      pop\n      jump\t// out\n        /* \"#utility.yul\":841:1170   */\n    tag_57:\n        /* \"#utility.yul\":900:906   */\n      0x00\n        /* \"#utility.yul\":949:951   */\n      0x20\n        /* \"#utility.yul\":937:946   */\n      dup3\n        /* \"#utility.yul\":928:935   */\n      dup5\n        /* \"#utility.yul\":924:947   */\n      sub\n        /* \"#utility.yul\":920:952   */\n      slt\n        /* \"#utility.yul\":917:1036   */\n      iszero\n      tag_643\n      jumpi\n        /* \"#utility.yul\":955:1034   */\n      tag_644\n      tag_524\n      jump\t// in\n    tag_644:\n        /* \"#utility.yul\":917:1036   */\n    tag_643:\n        /* \"#utility.yul\":1075:1076   */\n      0x00\n        /* \"#utility.yul\":1100:1153   */\n      tag_645\n        /* \"#utility.yul\":1145:1152   */\n      dup5\n        /* \"#utility.yul\":1136:1142   */\n      dup3\n        /* \"#utility.yul\":1125:1134   */\n      dup6\n        /* \"#utility.yul\":1121:1143   */\n      add\n        /* \"#utility.yul\":1100:1153   */\n      tag_529\n      jump\t// in\n    tag_645:\n        /* \"#utility.yul\":1090:1153   */\n      swap2\n      pop\n        /* \"#utility.yul\":1046:1163   */\n      pop\n        /* \"#utility.yul\":841:1170   */\n      swap3\n      swap2\n      pop\n      pop\n      jump\t// out\n        /* \"#utility.yul\":1176:1275   */\n    tag_530:\n        /* \"#utility.yul\":1228:1234   */\n      0x00\n        /* \"#utility.yul\":1262:1267   */\n      dup2\n        /* \"#utility.yul\":1256:1268   */\n      mload\n        /* \"#utility.yul\":1246:1268   */\n      swap1\n      pop\n        /* \"#utility.yul\":1176:1275   */\n      swap2\n      swap1\n      pop\n      jump\t// out\n        /* \"#utility.yul\":1281:1450   */\n    tag_531:\n        /* \"#utility.yul\":1365:1376   */\n      0x00\n        /* \"#utility.yul\":1399:1405   */\n      dup3\n        /* \"#utility.yul\":1394:1397   */\n      dup3\n        /* \"#utility.yul\":1387:1406   */\n      mstore\n        /* \"#utility.yul\":1439:1443   */\n      0x20\n        /* \"#utility.yul\":1434:1437   */\n      dup3\n        /* \"#utility.yul\":1430:1444   */\n      add\n        /* \"#utility.yul\":1415:1444   */\n      swap1\n      pop\n        /* \"#utility.yul\":1281:1450   */\n      swap3\n      swap2\n      pop\n      pop\n      jump\t// out\n        /* \"#utility.yul\":1456:1704   */\n    tag_532:\n        /* \"#utility.yul\":1538:1539   */\n      0x00\n        /* \"#utility.yul\":1548:1661   */\n    tag_649:\n        /* \"#utility.yul\":1562:1568   */\n      dup4\n        /* \"#utility.yul\":1559:1560   */\n      dup2\n        /* \"#utility.yul\":1556:1569   */\n      lt\n        /* \"#utility.yul\":1548:1661   */\n      iszero\n      tag_651\n      jumpi\n        /* \"#utility.yul\":1647:1648   */\n      dup1\n        /* \"#utility.yul\":1642:1645   */\n      dup3\n        /* \"#utility.yul\":1638:1649   */\n      add\n        /* \"#utility.yul\":1632:1650   */\n      mload\n        /* \"#utility.yul\":1628:1629   */\n      dup2\n        /* \"#utility.yul\":1623:1626   */\n      dup5\n        /* \"#utility.yul\":1619:1630   */\n      add\n        /* \"#utility.yul\":1612:1651   */\n      mstore\n        /* \"#utility.yul\":1584:1586   */\n      0x20\n        /* \"#utility.yul\":1581:1582   */\n      dup2\n        /* \"#utility.yul\":1577:1587   */\n      add\n        /* \"#utility.yul\":1572:1587   */\n      swap1\n      pop\n        /* \"#utility.yul\":1548:1661   */\n      jump(tag_649)\n    tag_651:\n        /* \"#utility.yul\":1695:1696   */\n      0x00\n        /* \"#utility.yul\":1686:1692   */\n      dup5\n        /* \"#utility.yul\":1681:1684   */\n      dup5\n        /* \"#utility.yul\":1677:1693   */\n      add\n        /* \"#utility.yul\":1670:1697   */\n      mstore\n        /* \"#utility.yul\":1518:1704   */\n      pop\n        /* \"#utility.yul\":1456:1704   */\n      pop\n      pop\n      pop\n      jump\t// out\n        /* \"#utility.yul\":1710:1812   */\n    tag_533:\n        /* \"#utility.yul\":1751:1757   */\n      0x00\n        /* \"#utility.yul\":1802:1804   */\n      0x1f\n        /* \"#utility.yul\":1798:1805   */\n      not\n        /* \"#utility.yul\":1793:1795   */\n      0x1f\n        /* \"#utility.yul\":1786:1791   */\n      dup4\n        /* \"#utility.yul\":1782:1796   */\n      add\n        /* \"#utility.yul\":1778:1806   */\n      and\n        /* \"#utility.yul\":1768:1806   */\n      swap1\n      pop\n        /* \"#utility.yul\":1710:1812   */\n      swap2\n      swap1\n      pop\n      jump\t// out\n        /* \"#utility.yul\":1818:2195   */\n    tag_534:\n        /* \"#utility.yul\":1906:1909   */\n      0x00\n        /* \"#utility.yul\":1934:1973   */\n      tag_654\n        /* \"#utility.yul\":1967:1972   */\n      dup3\n        /* \"#utility.yul\":1934:1973   */\n      tag_530\n      jump\t// in\n    tag_654:\n        /* \"#utility.yul\":1989:2060   */\n      tag_655\n        /* \"#utility.yul\":2053:2059   */\n      dup2\n        /* \"#utility.yul\":2048:2051   */\n      dup6\n        /* \"#utility.yul\":1989:2060   */\n      tag_531\n      jump\t// in\n    tag_655:\n        /* \"#utility.yul\":1982:2060   */\n      swap4\n      pop\n        /* \"#utility.yul\":2069:2134   */\n      tag_656\n        /* \"#utility.yul\":2127:2133   */\n      dup2\n        /* \"#utility.yul\":2122:2125   */\n      dup6\n        /* \"#utility.yul\":2115:2119   */\n      0x20\n        /* \"#utility.yul\":2108:2113   */\n      dup7\n        /* \"#utility.yul\":2104:2120   */\n      add\n        /* \"#utility.yul\":2069:2134   */\n      tag_532\n      jump\t// in\n    tag_656:\n        /* \"#utility.yul\":2159:2188   */\n      tag_657\n        /* \"#utility.yul\":2181:2187   */\n      dup2\n        /* \"#utility.yul\":2159:2188   */\n      tag_533\n      jump\t// in\n    tag_657:\n        /* \"#utility.yul\":2154:2157   */\n      dup5\n        /* \"#utility.yul\":2150:2189   */\n      add\n        /* \"#utility.yul\":2143:2189   */\n      swap2\n      pop\n        /* \"#utility.yul\":1910:2195   */\n      pop\n        /* \"#utility.yul\":1818:2195   */\n      swap3\n      swap2\n      pop\n      pop\n      jump\t// out\n        /* \"#utility.yul\":2201:2514   */\n    tag_60:\n        /* \"#utility.yul\":2314:2318   */\n      0x00\n        /* \"#utility.yul\":2352:2354   */\n      0x20\n        /* \"#utility.yul\":2341:2350   */\n      dup3\n        /* \"#utility.yul\":2337:2355   */\n      add\n        /* \"#utility.yul\":2329:2355   */\n      swap1\n      pop\n        /* \"#utility.yul\":2401:2410   */\n      dup2\n        /* \"#utility.yul\":2395:2399   */\n      dup2\n        /* \"#utility.yul\":2391:2411   */\n      sub\n        /* \"#utility.yul\":2387:2388   */\n      0x00\n        /* \"#utility.yul\":2376:2385   */\n      dup4\n        /* \"#utility.yul\":2372:2389   */\n      add\n        /* \"#utility.yul\":2365:2412   */\n      mstore\n        /* \"#utility.yul\":2429:2507   */\n      tag_659\n        /* \"#utility.yul\":2502:2506   */\n      dup2\n        /* \"#utility.yul\":2493:2499   */\n      dup5\n        /* \"#utility.yul\":2429:2507   */\n      tag_534\n      jump\t// in\n    tag_659:\n        /* \"#utility.yul\":2421:2507   */\n      swap1\n      pop\n        /* \"#utility.yul\":2201:2514   */\n      swap3\n      swap2\n      pop\n      pop\n      jump\t// out\n        /* \"#utility.yul\":2520:2597   */\n    tag_535:\n        /* \"#utility.yul\":2557:2564   */\n      0x00\n        /* \"#utility.yul\":2586:2591   */\n      dup2\n        /* \"#utility.yul\":2575:2591   */\n      swap1\n      pop\n        /* \"#utility.yul\":2520:2597   */\n      swap2\n      swap1\n      pop\n      jump\t// out\n        /* \"#utility.yul\":2603:2725   */\n    tag_536:\n        /* \"#utility.yul\":2676:2700   */\n      tag_662\n        /* \"#utility.yul\":2694:2699   */\n      dup2\n        /* \"#utility.yul\":2676:2700   */\n      tag_535\n      jump\t// in\n    tag_662:\n        /* \"#utility.yul\":2669:2674   */\n      dup2\n        /* \"#utility.yul\":2666:2701   */\n      eq\n        /* \"#utility.yul\":2656:2719   */\n      tag_663\n      jumpi\n        /* \"#utility.yul\":2715:2716   */\n      0x00\n        /* \"#utility.yul\":2712:2713   */\n      dup1\n        /* \"#utility.yul\":2705:2717   */\n      revert\n        /* \"#utility.yul\":2656:2719   */\n    tag_663:\n        /* \"#utility.yul\":2603:2725   */\n      pop\n      jump\t// out\n        /* \"#utility.yul\":2731:2870   */\n    tag_537:\n        /* \"#utility.yul\":2777:2782   */\n      0x00\n        /* \"#utility.yul\":2815:2821   */\n      dup2\n        /* \"#utility.yul\":2802:2822   */\n      calldataload\n        /* \"#utility.yul\":2793:2822   */\n      swap1\n      pop\n        /* \"#utility.yul\":2831:2864   */\n      tag_665\n        /* \"#utility.yul\":2858:2863   */\n      dup2\n        /* \"#utility.yul\":2831:2864   */\n      tag_536\n      jump\t// in\n    tag_665:\n        /* \"#utility.yul\":2731:2870   */\n      swap3\n      swap2\n      pop\n      pop\n      jump\t// out\n        /* \"#utility.yul\":2876:3350   */\n    tag_68:\n        /* \"#utility.yul\":2944:2950   */\n      0x00\n        /* \"#utility.yul\":2952:2958   */\n      dup1\n        /* \"#utility.yul\":3001:3003   */\n      0x40\n        /* \"#utility.yul\":2989:2998   */\n      dup4\n        /* \"#utility.yul\":2980:2987   */\n      dup6\n        /* \"#utility.yul\":2976:2999   */\n      sub\n        /* \"#utility.yul\":2972:3004   */\n      slt\n        /* \"#utility.yul\":2969:3088   */\n      iszero\n      tag_667\n      jumpi\n        /* \"#utility.yul\":3007:3086   */\n      tag_668\n      tag_524\n      jump\t// in\n    tag_668:\n        /* \"#utility.yul\":2969:3088   */\n    tag_667:\n        /* \"#utility.yul\":3127:3128   */\n      0x00\n        /* \"#utility.yul\":3152:3205   */\n      tag_669\n        /* \"#utility.yul\":3197:3204   */\n      dup6\n        /* \"#utility.yul\":3188:3194   */\n      dup3\n        /* \"#utility.yul\":3177:3186   */\n      dup7\n        /* \"#utility.yul\":3173:3195   */\n      add\n        /* \"#utility.yul\":3152:3205   */\n      tag_529\n      jump\t// in\n    tag_669:\n        /* \"#utility.yul\":3142:3205   */\n      swap3\n      pop\n        /* \"#utility.yul\":3098:3215   */\n      pop\n        /* \"#utility.yul\":3254:3256   */\n      0x20\n        /* \"#utility.yul\":3280:3333   */\n      tag_670\n        /* \"#utility.yul\":3325:3332   */\n      dup6\n        /* \"#utility.yul\":3316:3322   */\n      dup3\n        /* \"#utility.yul\":3305:3314   */\n      dup7\n        /* \"#utility.yul\":3301:3323   */\n      add\n        /* \"#utility.yul\":3280:3333   */\n      tag_537\n      jump\t// in\n    tag_670:\n        /* \"#utility.yul\":3270:3333   */\n      swap2\n      pop\n        /* \"#utility.yul\":3225:3343   */\n      pop\n        /* \"#utility.yul\":2876:3350   */\n      swap3\n      pop\n      swap3\n      swap1\n      pop\n      jump\t// out\n        /* \"#utility.yul\":3356:3446   */\n    tag_538:\n        /* \"#utility.yul\":3390:3397   */\n      0x00\n        /* \"#utility.yul\":3433:3438   */\n      dup2\n        /* \"#utility.yul\":3426:3439   */\n      iszero\n        /* \"#utility.yul\":3419:3440   */\n      iszero\n        /* \"#utility.yul\":3408:3440   */\n      swap1\n      pop\n        /* \"#utility.yul\":3356:3446   */\n      swap2\n      swap1\n      pop\n      jump\t// out\n        /* \"#utility.yul\":3452:3561   */\n    tag_539:\n        /* \"#utility.yul\":3533:3554   */\n      tag_673\n        /* \"#utility.yul\":3548:3553   */\n      dup2\n        /* \"#utility.yul\":3533:3554   */\n      tag_538\n      jump\t// in\n    tag_673:\n        /* \"#utility.yul\":3528:3531   */\n      dup3\n        /* \"#utility.yul\":3521:3555   */\n      mstore\n        /* \"#utility.yul\":3452:3561   */\n      pop\n      pop\n      jump\t// out\n        /* \"#utility.yul\":3567:3777   */\n    tag_71:\n        /* \"#utility.yul\":3654:3658   */\n      0x00\n        /* \"#utility.yul\":3692:3694   */\n      0x20\n        /* \"#utility.yul\":3681:3690   */\n      dup3\n        /* \"#utility.yul\":3677:3695   */\n      add\n        /* \"#utility.yul\":3669:3695   */\n      swap1\n      pop\n        /* \"#utility.yul\":3705:3770   */\n      tag_675\n        /* \"#utility.yul\":3767:3768   */\n      0x00\n        /* \"#utility.yul\":3756:3765   */\n      dup4\n        /* \"#utility.yul\":3752:3769   */\n      add\n        /* \"#utility.yul\":3743:3749   */\n      dup5\n        /* \"#utility.yul\":3705:3770   */\n      tag_539\n      jump\t// in\n    tag_675:\n        /* \"#utility.yul\":3567:3777   */\n      swap3\n      swap2\n      pop\n      pop\n      jump\t// out\n        /* \"#utility.yul\":3783:3901   */\n    tag_540:\n        /* \"#utility.yul\":3870:3894   */\n      tag_677\n        /* \"#utility.yul\":3888:3893   */\n      dup2\n        /* \"#utility.yul\":3870:3894   */\n      tag_535\n      jump\t// in\n    tag_677:\n        /* \"#utility.yul\":3865:3868   */\n      dup3\n        /* \"#utility.yul\":3858:3895   */\n      mstore\n        /* \"#utility.yul\":3783:3901   */\n      pop\n      pop\n      jump\t// out\n        /* \"#utility.yul\":3907:4129   */\n    tag_76:\n        /* \"#utility.yul\":4000:4004   */\n      0x00\n        /* \"#utility.yul\":4038:4040   */\n      0x20\n        /* \"#utility.yul\":4027:4036   */\n      dup3\n        /* \"#utility.yul\":4023:4041   */\n      add\n        /* \"#utility.yul\":4015:4041   */\n      swap1\n      pop\n        /* \"#utility.yul\":4051:4122   */\n      tag_679\n        /* \"#utility.yul\":4119:4120   */\n      0x00\n        /* \"#utility.yul\":4108:4117   */\n      dup4\n        /* \"#utility.yul\":4104:4121   */\n      add\n        /* \"#utility.yul\":4095:4101   */\n      dup5\n        /* \"#utility.yul\":4051:4122   */\n      tag_540\n      jump\t// in\n    tag_679:\n        /* \"#utility.yul\":3907:4129   */\n      swap3\n      swap2\n      pop\n      pop\n      jump\t// out\n        /* \"#utility.yul\":4135:4754   */\n    tag_84:\n        /* \"#utility.yul\":4212:4218   */\n      0x00\n        /* \"#utility.yul\":4220:4226   */\n      dup1\n        /* \"#utility.yul\":4228:4234   */\n      0x00\n        /* \"#utility.yul\":4277:4279   */\n      0x60\n        /* \"#utility.yul\":4265:4274   */\n      dup5\n        /* \"#utility.yul\":4256:4263   */\n      dup7\n        /* \"#utility.yul\":4252:4275   */\n      sub\n        /* \"#utility.yul\":4248:4280   */\n      slt\n        /* \"#utility.yul\":4245:4364   */\n      iszero\n      tag_681\n      jumpi\n        /* \"#utility.yul\":4283:4362   */\n      tag_682\n      tag_524\n      jump\t// in\n    tag_682:\n        /* \"#utility.yul\":4245:4364   */\n    tag_681:\n        /* \"#utility.yul\":4403:4404   */\n      0x00\n        /* \"#utility.yul\":4428:4481   */\n      tag_683\n        /* \"#utility.yul\":4473:4480   */\n      dup7\n        /* \"#utility.yul\":4464:4470   */\n      dup3\n        /* \"#utility.yul\":4453:4462   */\n      dup8\n        /* \"#utility.yul\":4449:4471   */\n      add\n        /* \"#utility.yul\":4428:4481   */\n      tag_529\n      jump\t// in\n    tag_683:\n        /* \"#utility.yul\":4418:4481   */\n      swap4\n      pop\n        /* \"#utility.yul\":4374:4491   */\n      pop\n        /* \"#utility.yul\":4530:4532   */\n      0x20\n        /* \"#utility.yul\":4556:4609   */\n      tag_684\n        /* \"#utility.yul\":4601:4608   */\n      dup7\n        /* \"#utility.yul\":4592:4598   */\n      dup3\n        /* \"#utility.yul\":4581:4590   */\n      dup8\n        /* \"#utility.yul\":4577:4599   */\n      add\n        /* \"#utility.yul\":4556:4609   */\n      tag_529\n      jump\t// in\n    tag_684:\n        /* \"#utility.yul\":4546:4609   */\n      swap3\n      pop\n        /* \"#utility.yul\":4501:4619   */\n      pop\n        /* \"#utility.yul\":4658:4660   */\n      0x40\n        /* \"#utility.yul\":4684:4737   */\n      tag_685\n        /* \"#utility.yul\":4729:4736   */\n      dup7\n        /* \"#utility.yul\":4720:4726   */\n      dup3\n        /* \"#utility.yul\":4709:4718   */\n      dup8\n        /* \"#utility.yul\":4705:4727   */\n      add\n        /* \"#utility.yul\":4684:4737   */\n      tag_537\n      jump\t// in\n    tag_685:\n        /* \"#utility.yul\":4674:4737   */\n      swap2\n      pop\n        /* \"#utility.yul\":4629:4747   */\n      pop\n        /* \"#utility.yul\":4135:4754   */\n      swap3\n      pop\n      swap3\n      pop\n      swap3\n      jump\t// out\n        /* \"#utility.yul\":4760:4846   */\n    tag_541:\n        /* \"#utility.yul\":4795:4802   */\n      0x00\n        /* \"#utility.yul\":4835:4839   */\n      0xff\n        /* \"#utility.yul\":4828:4833   */\n      dup3\n        /* \"#utility.yul\":4824:4840   */\n      and\n        /* \"#utility.yul\":4813:4840   */\n      swap1\n      pop\n        /* \"#utility.yul\":4760:4846   */\n      swap2\n      swap1\n      pop\n      jump\t// out\n        /* \"#utility.yul\":4852:4964   */\n    tag_542:\n        /* \"#utility.yul\":4935:4957   */\n      tag_688\n        /* \"#utility.yul\":4951:4956   */\n      dup2\n        /* \"#utility.yul\":4935:4957   */\n      tag_541\n      jump\t// in\n    tag_688:\n        /* \"#utility.yul\":4930:4933   */\n      dup3\n        /* \"#utility.yul\":4923:4958   */\n      mstore\n        /* \"#utility.yul\":4852:4964   */\n      pop\n      pop\n      jump\t// out\n        /* \"#utility.yul\":4970:5184   */\n    tag_95:\n        /* \"#utility.yul\":5059:5063   */\n      0x00\n        /* \"#utility.yul\":5097:5099   */\n      0x20\n        /* \"#utility.yul\":5086:5095   */\n      dup3\n        /* \"#utility.yul\":5082:5100   */\n      add\n        /* \"#utility.yul\":5074:5100   */\n      swap1\n      pop\n        /* \"#utility.yul\":5110:5177   */\n      tag_690\n        /* \"#utility.yul\":5174:5175   */\n      0x00\n        /* \"#utility.yul\":5163:5172   */\n      dup4\n        /* \"#utility.yul\":5159:5176   */\n      add\n        /* \"#utility.yul\":5150:5156   */\n      dup5\n        /* \"#utility.yul\":5110:5177   */\n      tag_542\n      jump\t// in\n    tag_690:\n        /* \"#utility.yul\":4970:5184   */\n      swap3\n      swap2\n      pop\n      pop\n      jump\t// out\n        /* \"#utility.yul\":5190:5307   */\n    tag_543:\n        /* \"#utility.yul\":5299:5300   */\n      0x00\n        /* \"#utility.yul\":5296:5297   */\n      dup1\n        /* \"#utility.yul\":5289:5301   */\n      revert\n        /* \"#utility.yul\":5313:5430   */\n    tag_544:\n        /* \"#utility.yul\":5422:5423   */\n      0x00\n        /* \"#utility.yul\":5419:5420   */\n      dup1\n        /* \"#utility.yul\":5412:5424   */\n      revert\n        /* \"#utility.yul\":5436:5553   */\n    tag_545:\n        /* \"#utility.yul\":5545:5546   */\n      0x00\n        /* \"#utility.yul\":5542:5543   */\n      dup1\n        /* \"#utility.yul\":5535:5547   */\n      revert\n        /* \"#utility.yul\":5573:6126   */\n    tag_546:\n        /* \"#utility.yul\":5631:5639   */\n      0x00\n        /* \"#utility.yul\":5641:5647   */\n      dup1\n        /* \"#utility.yul\":5691:5694   */\n      dup4\n        /* \"#utility.yul\":5684:5688   */\n      0x1f\n        /* \"#utility.yul\":5676:5682   */\n      dup5\n        /* \"#utility.yul\":5672:5689   */\n      add\n        /* \"#utility.yul\":5668:5695   */\n      slt\n        /* \"#utility.yul\":5658:5780   */\n      tag_695\n      jumpi\n        /* \"#utility.yul\":5699:5778   */\n      tag_696\n      tag_543\n      jump\t// in\n    tag_696:\n        /* \"#utility.yul\":5658:5780   */\n    tag_695:\n        /* \"#utility.yul\":5812:5818   */\n      dup3\n        /* \"#utility.yul\":5799:5819   */\n      calldataload\n        /* \"#utility.yul\":5789:5819   */\n      swap1\n      pop\n        /* \"#utility.yul\":5842:5860   */\n      0xffffffffffffffff\n        /* \"#utility.yul\":5834:5840   */\n      dup2\n        /* \"#utility.yul\":5831:5861   */\n      gt\n        /* \"#utility.yul\":5828:5945   */\n      iszero\n      tag_697\n      jumpi\n        /* \"#utility.yul\":5864:5943   */\n      tag_698\n      tag_544\n      jump\t// in\n    tag_698:\n        /* \"#utility.yul\":5828:5945   */\n    tag_697:\n        /* \"#utility.yul\":5978:5982   */\n      0x20\n        /* \"#utility.yul\":5970:5976   */\n      dup4\n        /* \"#utility.yul\":5966:5983   */\n      add\n        /* \"#utility.yul\":5954:5983   */\n      swap2\n      pop\n        /* \"#utility.yul\":6032:6035   */\n      dup4\n        /* \"#utility.yul\":6024:6028   */\n      0x01\n        /* \"#utility.yul\":6016:6022   */\n      dup3\n        /* \"#utility.yul\":6012:6029   */\n      mul\n        /* \"#utility.yul\":6002:6010   */\n      dup4\n        /* \"#utility.yul\":5998:6030   */\n      add\n        /* \"#utility.yul\":5995:6036   */\n      gt\n        /* \"#utility.yul\":5992:6120   */\n      iszero\n      tag_699\n      jumpi\n        /* \"#utility.yul\":6039:6118   */\n      tag_700\n      tag_545\n      jump\t// in\n    tag_700:\n        /* \"#utility.yul\":5992:6120   */\n    tag_699:\n        /* \"#utility.yul\":5573:6126   */\n      swap3\n      pop\n      swap3\n      swap1\n      pop\n      jump\t// out\n        /* \"#utility.yul\":6132:6806   */\n    tag_98:\n        /* \"#utility.yul\":6212:6218   */\n      0x00\n        /* \"#utility.yul\":6220:6226   */\n      dup1\n        /* \"#utility.yul\":6228:6234   */\n      0x00\n        /* \"#utility.yul\":6277:6279   */\n      0x40\n        /* \"#utility.yul\":6265:6274   */\n      dup5\n        /* \"#utility.yul\":6256:6263   */\n      dup7\n        /* \"#utility.yul\":6252:6275   */\n      sub\n        /* \"#utility.yul\":6248:6280   */\n      slt\n        /* \"#utility.yul\":6245:6364   */\n      iszero\n      tag_702\n      jumpi\n        /* \"#utility.yul\":6283:6362   */\n      tag_703\n      tag_524\n      jump\t// in\n    tag_703:\n        /* \"#utility.yul\":6245:6364   */\n    tag_702:\n        /* \"#utility.yul\":6403:6404   */\n      0x00\n        /* \"#utility.yul\":6428:6481   */\n      tag_704\n        /* \"#utility.yul\":6473:6480   */\n      dup7\n        /* \"#utility.yul\":6464:6470   */\n      dup3\n        /* \"#utility.yul\":6453:6462   */\n      dup8\n        /* \"#utility.yul\":6449:6471   */\n      add\n        /* \"#utility.yul\":6428:6481   */\n      tag_537\n      jump\t// in\n    tag_704:\n        /* \"#utility.yul\":6418:6481   */\n      swap4\n      pop\n        /* \"#utility.yul\":6374:6491   */\n      pop\n        /* \"#utility.yul\":6558:6560   */\n      0x20\n        /* \"#utility.yul\":6547:6556   */\n      dup5\n        /* \"#utility.yul\":6543:6561   */\n      add\n        /* \"#utility.yul\":6530:6562   */\n      calldataload\n        /* \"#utility.yul\":6589:6607   */\n      0xffffffffffffffff\n        /* \"#utility.yul\":6581:6587   */\n      dup2\n        /* \"#utility.yul\":6578:6608   */\n      gt\n        /* \"#utility.yul\":6575:6692   */\n      iszero\n      tag_705\n      jumpi\n        /* \"#utility.yul\":6611:6690   */\n      tag_706\n      tag_525\n      jump\t// in\n    tag_706:\n        /* \"#utility.yul\":6575:6692   */\n    tag_705:\n        /* \"#utility.yul\":6724:6789   */\n      tag_707\n        /* \"#utility.yul\":6781:6788   */\n      dup7\n        /* \"#utility.yul\":6772:6778   */\n      dup3\n        /* \"#utility.yul\":6761:6770   */\n      dup8\n        /* \"#utility.yul\":6757:6779   */\n      add\n        /* \"#utility.yul\":6724:6789   */\n      tag_546\n      jump\t// in\n    tag_707:\n        /* \"#utility.yul\":6706:6789   */\n      swap3\n      pop\n      swap3\n      pop\n        /* \"#utility.yul\":6501:6799   */\n      pop\n        /* \"#utility.yul\":6132:6806   */\n      swap3\n      pop\n      swap3\n      pop\n      swap3\n      jump\t// out\n        /* \"#utility.yul\":6812:7486   */\n    tag_107:\n        /* \"#utility.yul\":6892:6898   */\n      0x00\n        /* \"#utility.yul\":6900:6906   */\n      dup1\n        /* \"#utility.yul\":6908:6914   */\n      0x00\n        /* \"#utility.yul\":6957:6959   */\n      0x40\n        /* \"#utility.yul\":6945:6954   */\n      dup5\n        /* \"#utility.yul\":6936:6943   */\n      dup7\n        /* \"#utility.yul\":6932:6955   */\n      sub\n        /* \"#utility.yul\":6928:6960   */\n      slt\n        /* \"#utility.yul\":6925:7044   */\n      iszero\n      tag_709\n      jumpi\n        /* \"#utility.yul\":6963:7042   */\n      tag_710\n      tag_524\n      jump\t// in\n    tag_710:\n        /* \"#utility.yul\":6925:7044   */\n    tag_709:\n        /* \"#utility.yul\":7083:7084   */\n      0x00\n        /* \"#utility.yul\":7108:7161   */\n      tag_711\n        /* \"#utility.yul\":7153:7160   */\n      dup7\n        /* \"#utility.yul\":7144:7150   */\n      dup3\n        /* \"#utility.yul\":7133:7142   */\n      dup8\n        /* \"#utility.yul\":7129:7151   */\n      add\n        /* \"#utility.yul\":7108:7161   */\n      tag_529\n      jump\t// in\n    tag_711:\n        /* \"#utility.yul\":7098:7161   */\n      swap4\n      pop\n        /* \"#utility.yul\":7054:7171   */\n      pop\n        /* \"#utility.yul\":7238:7240   */\n      0x20\n        /* \"#utility.yul\":7227:7236   */\n      dup5\n        /* \"#utility.yul\":7223:7241   */\n      add\n        /* \"#utility.yul\":7210:7242   */\n      calldataload\n        /* \"#utility.yul\":7269:7287   */\n      0xffffffffffffffff\n        /* \"#utility.yul\":7261:7267   */\n      dup2\n        /* \"#utility.yul\":7258:7288   */\n      gt\n        /* \"#utility.yul\":7255:7372   */\n      iszero\n      tag_712\n      jumpi\n        /* \"#utility.yul\":7291:7370   */\n      tag_713\n      tag_525\n      jump\t// in\n    tag_713:\n        /* \"#utility.yul\":7255:7372   */\n    tag_712:\n        /* \"#utility.yul\":7404:7469   */\n      tag_714\n        /* \"#utility.yul\":7461:7468   */\n      dup7\n        /* \"#utility.yul\":7452:7458   */\n      dup3\n        /* \"#utility.yul\":7441:7450   */\n      dup8\n        /* \"#utility.yul\":7437:7459   */\n      add\n        /* \"#utility.yul\":7404:7469   */\n      tag_546\n      jump\t// in\n    tag_714:\n        /* \"#utility.yul\":7386:7469   */\n      swap3\n      pop\n      swap3\n      pop\n        /* \"#utility.yul\":7181:7479   */\n      pop\n        /* \"#utility.yul\":6812:7486   */\n      swap3\n      pop\n      swap3\n      pop\n      swap3\n      jump\t// out\n        /* \"#utility.yul\":7492:7821   */\n    tag_127:\n        /* \"#utility.yul\":7551:7557   */\n      0x00\n        /* \"#utility.yul\":7600:7602   */\n      0x20\n        /* \"#utility.yul\":7588:7597   */\n      dup3\n        /* \"#utility.yul\":7579:7586   */\n      dup5\n        /* \"#utility.yul\":7575:7598   */\n      sub\n        /* \"#utility.yul\":7571:7603   */\n      slt\n        /* \"#utility.yul\":7568:7687   */\n      iszero\n      tag_716\n      jumpi\n        /* \"#utility.yul\":7606:7685   */\n      tag_717\n      tag_524\n      jump\t// in\n    tag_717:\n        /* \"#utility.yul\":7568:7687   */\n    tag_716:\n        /* \"#utility.yul\":7726:7727   */\n      0x00\n        /* \"#utility.yul\":7751:7804   */\n      tag_718\n        /* \"#utility.yul\":7796:7803   */\n      dup5\n        /* \"#utility.yul\":7787:7793   */\n      dup3\n        /* \"#utility.yul\":7776:7785   */\n      dup6\n        /* \"#utility.yul\":7772:7794   */\n      add\n        /* \"#utility.yul\":7751:7804   */\n      tag_537\n      jump\t// in\n    tag_718:\n        /* \"#utility.yul\":7741:7804   */\n      swap2\n      pop\n        /* \"#utility.yul\":7697:7814   */\n      pop\n        /* \"#utility.yul\":7492:7821   */\n      swap3\n      swap2\n      pop\n      pop\n      jump\t// out\n        /* \"#utility.yul\":7827:8301   */\n    tag_145:\n        /* \"#utility.yul\":7895:7901   */\n      0x00\n        /* \"#utility.yul\":7903:7909   */\n      dup1\n        /* \"#utility.yul\":7952:7954   */\n      0x40\n        /* \"#utility.yul\":7940:7949   */\n      dup4\n        /* \"#utility.yul\":7931:7938   */\n      dup6\n        /* \"#utility.yul\":7927:7950   */\n      sub\n        /* \"#utility.yul\":7923:7955   */\n      slt\n        /* \"#utility.yul\":7920:8039   */\n      iszero\n      tag_720\n      jumpi\n        /* \"#utility.yul\":7958:8037   */\n      tag_721\n      tag_524\n      jump\t// in\n    tag_721:\n        /* \"#utility.yul\":7920:8039   */\n    tag_720:\n        /* \"#utility.yul\":8078:8079   */\n      0x00\n        /* \"#utility.yul\":8103:8156   */\n      tag_722\n        /* \"#utility.yul\":8148:8155   */\n      dup6\n        /* \"#utility.yul\":8139:8145   */\n      dup3\n        /* \"#utility.yul\":8128:8137   */\n      dup7\n        /* \"#utility.yul\":8124:8146   */\n      add\n        /* \"#utility.yul\":8103:8156   */\n      tag_537\n      jump\t// in\n    tag_722:\n        /* \"#utility.yul\":8093:8156   */\n      swap3\n      pop\n        /* \"#utility.yul\":8049:8166   */\n      pop\n        /* \"#utility.yul\":8205:8207   */\n      0x20\n        /* \"#utility.yul\":8231:8284   */\n      tag_723\n        /* \"#utility.yul\":8276:8283   */\n      dup6\n        /* \"#utility.yul\":8267:8273   */\n      dup3\n        /* \"#utility.yul\":8256:8265   */\n      dup7\n        /* \"#utility.yul\":8252:8274   */\n      add\n        /* \"#utility.yul\":8231:8284   */\n      tag_537\n      jump\t// in\n    tag_723:\n        /* \"#utility.yul\":8221:8284   */\n      swap2\n      pop\n        /* \"#utility.yul\":8176:8294   */\n      pop\n        /* \"#utility.yul\":7827:8301   */\n      swap3\n      pop\n      swap3\n      swap1\n      pop\n      jump\t// out\n        /* \"#utility.yul\":8307:8425   */\n    tag_547:\n        /* \"#utility.yul\":8394:8418   */\n      tag_725\n        /* \"#utility.yul\":8412:8417   */\n      dup2\n        /* \"#utility.yul\":8394:8418   */\n      tag_527\n      jump\t// in\n    tag_725:\n        /* \"#utility.yul\":8389:8392   */\n      dup3\n        /* \"#utility.yul\":8382:8419   */\n      mstore\n        /* \"#utility.yul\":8307:8425   */\n      pop\n      pop\n      jump\t// out\n        /* \"#utility.yul\":8431:8653   */\n    tag_158:\n        /* \"#utility.yul\":8524:8528   */\n      0x00\n        /* \"#utility.yul\":8562:8564   */\n      0x20\n        /* \"#utility.yul\":8551:8560   */\n      dup3\n        /* \"#utility.yul\":8547:8565   */\n      add\n        /* \"#utility.yul\":8539:8565   */\n      swap1\n      pop\n        /* \"#utility.yul\":8575:8646   */\n      tag_727\n        /* \"#utility.yul\":8643:8644   */\n      0x00\n        /* \"#utility.yul\":8632:8641   */\n      dup4\n        /* \"#utility.yul\":8628:8645   */\n      add\n        /* \"#utility.yul\":8619:8625   */\n      dup5\n        /* \"#utility.yul\":8575:8646   */\n      tag_547\n      jump\t// in\n    tag_727:\n        /* \"#utility.yul\":8431:8653   */\n      swap3\n      swap2\n      pop\n      pop\n      jump\t// out\n        /* \"#utility.yul\":8659:8776   */\n    tag_548:\n        /* \"#utility.yul\":8768:8769   */\n      0x00\n        /* \"#utility.yul\":8765:8766   */\n      dup1\n        /* \"#utility.yul\":8758:8770   */\n      revert\n        /* \"#utility.yul\":8782:8962   */\n    tag_549:\n        /* \"#utility.yul\":8830:8907   */\n      0x4e487b7100000000000000000000000000000000000000000000000000000000\n        /* \"#utility.yul\":8827:8828   */\n      0x00\n        /* \"#utility.yul\":8820:8908   */\n      mstore\n        /* \"#utility.yul\":8927:8931   */\n      0x41\n        /* \"#utility.yul\":8924:8925   */\n      0x04\n        /* \"#utility.yul\":8917:8932   */\n      mstore\n        /* \"#utility.yul\":8951:8955   */\n      0x24\n        /* \"#utility.yul\":8948:8949   */\n      0x00\n        /* \"#utility.yul\":8941:8956   */\n      revert\n        /* \"#utility.yul\":8968:9249   */\n    tag_550:\n        /* \"#utility.yul\":9051:9078   */\n      tag_731\n        /* \"#utility.yul\":9073:9077   */\n      dup3\n        /* \"#utility.yul\":9051:9078   */\n      tag_533\n      jump\t// in\n    tag_731:\n        /* \"#utility.yul\":9043:9049   */\n      dup2\n        /* \"#utility.yul\":9039:9079   */\n      add\n        /* \"#utility.yul\":9181:9187   */\n      dup2\n        /* \"#utility.yul\":9169:9179   */\n      dup2\n        /* \"#utility.yul\":9166:9188   */\n      lt\n        /* \"#utility.yul\":9145:9163   */\n      0xffffffffffffffff\n        /* \"#utility.yul\":9133:9143   */\n      dup3\n        /* \"#utility.yul\":9130:9164   */\n      gt\n        /* \"#utility.yul\":9127:9189   */\n      or\n        /* \"#utility.yul\":9124:9212   */\n      iszero\n      tag_732\n      jumpi\n        /* \"#utility.yul\":9192:9210   */\n      tag_733\n      tag_549\n      jump\t// in\n    tag_733:\n        /* \"#utility.yul\":9124:9212   */\n    tag_732:\n        /* \"#utility.yul\":9232:9242   */\n      dup1\n        /* \"#utility.yul\":9228:9230   */\n      0x40\n        /* \"#utility.yul\":9221:9243   */\n      mstore\n        /* \"#utility.yul\":9011:9249   */\n      pop\n        /* \"#utility.yul\":8968:9249   */\n      pop\n      pop\n      jump\t// out\n        /* \"#utility.yul\":9255:9384   */\n    tag_551:\n        /* \"#utility.yul\":9289:9295   */\n      0x00\n        /* \"#utility.yul\":9316:9336   */\n      tag_735\n      tag_523\n      jump\t// in\n    tag_735:\n        /* \"#utility.yul\":9306:9336   */\n      swap1\n      pop\n        /* \"#utility.yul\":9345:9378   */\n      tag_736\n        /* \"#utility.yul\":9373:9377   */\n      dup3\n        /* \"#utility.yul\":9365:9371   */\n      dup3\n        /* \"#utility.yul\":9345:9378   */\n      tag_550\n      jump\t// in\n    tag_736:\n        /* \"#utility.yul\":9255:9384   */\n      swap2\n      swap1\n      pop\n      jump\t// out\n        /* \"#utility.yul\":9390:9698   */\n    tag_552:\n        /* \"#utility.yul\":9452:9456   */\n      0x00\n        /* \"#utility.yul\":9542:9560   */\n      0xffffffffffffffff\n        /* \"#utility.yul\":9534:9540   */\n      dup3\n        /* \"#utility.yul\":9531:9561   */\n      gt\n        /* \"#utility.yul\":9528:9584   */\n      iszero\n      tag_738\n      jumpi\n        /* \"#utility.yul\":9564:9582   */\n      tag_739\n      tag_549\n      jump\t// in\n    tag_739:\n        /* \"#utility.yul\":9528:9584   */\n    tag_738:\n        /* \"#utility.yul\":9602:9631   */\n      tag_740\n        /* \"#utility.yul\":9624:9630   */\n      dup3\n        /* \"#utility.yul\":9602:9631   */\n      tag_533\n      jump\t// in\n    tag_740:\n        /* \"#utility.yul\":9594:9631   */\n      swap1\n      pop\n        /* \"#utility.yul\":9686:9690   */\n      0x20\n        /* \"#utility.yul\":9680:9684   */\n      dup2\n        /* \"#utility.yul\":9676:9691   */\n      add\n        /* \"#utility.yul\":9668:9691   */\n      swap1\n      pop\n        /* \"#utility.yul\":9390:9698   */\n      swap2\n      swap1\n      pop\n      jump\t// out\n        /* \"#utility.yul\":9704:9852   */\n    tag_553:\n        /* \"#utility.yul\":9802:9808   */\n      dup3\n        /* \"#utility.yul\":9797:9800   */\n      dup2\n        /* \"#utility.yul\":9792:9795   */\n      dup4\n        /* \"#utility.yul\":9779:9809   */\n      calldatacopy\n        /* \"#utility.yul\":9843:9844   */\n      0x00\n        /* \"#utility.yul\":9834:9840   */\n      dup4\n        /* \"#utility.yul\":9829:9832   */\n      dup4\n        /* \"#utility.yul\":9825:9841   */\n      add\n        /* \"#utility.yul\":9818:9845   */\n      mstore\n        /* \"#utility.yul\":9704:9852   */\n      pop\n      pop\n      pop\n      jump\t// out\n        /* \"#utility.yul\":9858:10283   */\n    tag_554:\n        /* \"#utility.yul\":9936:9941   */\n      0x00\n        /* \"#utility.yul\":9961:10027   */\n      tag_743\n        /* \"#utility.yul\":9977:10026   */\n      tag_744\n        /* \"#utility.yul\":10019:10025   */\n      dup5\n        /* \"#utility.yul\":9977:10026   */\n      tag_552\n      jump\t// in\n    tag_744:\n        /* \"#utility.yul\":9961:10027   */\n      tag_551\n      jump\t// in\n    tag_743:\n        /* \"#utility.yul\":9952:10027   */\n      swap1\n      pop\n        /* \"#utility.yul\":10050:10056   */\n      dup3\n        /* \"#utility.yul\":10043:10048   */\n      dup2\n        /* \"#utility.yul\":10036:10057   */\n      mstore\n        /* \"#utility.yul\":10088:10092   */\n      0x20\n        /* \"#utility.yul\":10081:10086   */\n      dup2\n        /* \"#utility.yul\":10077:10093   */\n      add\n        /* \"#utility.yul\":10126:10129   */\n      dup5\n        /* \"#utility.yul\":10117:10123   */\n      dup5\n        /* \"#utility.yul\":10112:10115   */\n      dup5\n        /* \"#utility.yul\":10108:10124   */\n      add\n        /* \"#utility.yul\":10105:10130   */\n      gt\n        /* \"#utility.yul\":10102:10214   */\n      iszero\n      tag_745\n      jumpi\n        /* \"#utility.yul\":10133:10212   */\n      tag_746\n      tag_548\n      jump\t// in\n    tag_746:\n        /* \"#utility.yul\":10102:10214   */\n    tag_745:\n        /* \"#utility.yul\":10223:10277   */\n      tag_747\n        /* \"#utility.yul\":10270:10276   */\n      dup5\n        /* \"#utility.yul\":10265:10268   */\n      dup3\n        /* \"#utility.yul\":10260:10263   */\n      dup6\n        /* \"#utility.yul\":10223:10277   */\n      tag_553\n      jump\t// in\n    tag_747:\n        /* \"#utility.yul\":9942:10283   */\n      pop\n        /* \"#utility.yul\":9858:10283   */\n      swap4\n      swap3\n      pop\n      pop\n      pop\n      jump\t// out\n        /* \"#utility.yul\":10303:10643   */\n    tag_555:\n        /* \"#utility.yul\":10359:10364   */\n      0x00\n        /* \"#utility.yul\":10408:10411   */\n      dup3\n        /* \"#utility.yul\":10401:10405   */\n      0x1f\n        /* \"#utility.yul\":10393:10399   */\n      dup4\n        /* \"#utility.yul\":10389:10406   */\n      add\n        /* \"#utility.yul\":10385:10412   */\n      slt\n        /* \"#utility.yul\":10375:10497   */\n      tag_749\n      jumpi\n        /* \"#utility.yul\":10416:10495   */\n      tag_750\n      tag_543\n      jump\t// in\n    tag_750:\n        /* \"#utility.yul\":10375:10497   */\n    tag_749:\n        /* \"#utility.yul\":10533:10539   */\n      dup2\n        /* \"#utility.yul\":10520:10540   */\n      calldataload\n        /* \"#utility.yul\":10558:10637   */\n      tag_751\n        /* \"#utility.yul\":10633:10636   */\n      dup5\n        /* \"#utility.yul\":10625:10631   */\n      dup3\n        /* \"#utility.yul\":10618:10622   */\n      0x20\n        /* \"#utility.yul\":10610:10616   */\n      dup7\n        /* \"#utility.yul\":10606:10623   */\n      add\n        /* \"#utility.yul\":10558:10637   */\n      tag_554\n      jump\t// in\n    tag_751:\n        /* \"#utility.yul\":10549:10637   */\n      swap2\n      pop\n        /* \"#utility.yul\":10365:10643   */\n      pop\n        /* \"#utility.yul\":10303:10643   */\n      swap3\n      swap2\n      pop\n      pop\n      jump\t// out\n        /* \"#utility.yul\":10649:11158   */\n    tag_196:\n        /* \"#utility.yul\":10718:10724   */\n      0x00\n        /* \"#utility.yul\":10767:10769   */\n      0x20\n        /* \"#utility.yul\":10755:10764   */\n      dup3\n        /* \"#utility.yul\":10746:10753   */\n      dup5\n        /* \"#utility.yul\":10742:10765   */\n      sub\n        /* \"#utility.yul\":10738:10770   */\n      slt\n        /* \"#utility.yul\":10735:10854   */\n      iszero\n      tag_753\n      jumpi\n        /* \"#utility.yul\":10773:10852   */\n      tag_754\n      tag_524\n      jump\t// in\n    tag_754:\n        /* \"#utility.yul\":10735:10854   */\n    tag_753:\n        /* \"#utility.yul\":10921:10922   */\n      0x00\n        /* \"#utility.yul\":10910:10919   */\n      dup3\n        /* \"#utility.yul\":10906:10923   */\n      add\n        /* \"#utility.yul\":10893:10924   */\n      calldataload\n        /* \"#utility.yul\":10951:10969   */\n      0xffffffffffffffff\n        /* \"#utility.yul\":10943:10949   */\n      dup2\n        /* \"#utility.yul\":10940:10970   */\n      gt\n        /* \"#utility.yul\":10937:11054   */\n      iszero\n      tag_755\n      jumpi\n        /* \"#utility.yul\":10973:11052   */\n      tag_756\n      tag_525\n      jump\t// in\n    tag_756:\n        /* \"#utility.yul\":10937:11054   */\n    tag_755:\n        /* \"#utility.yul\":11078:11141   */\n      tag_757\n        /* \"#utility.yul\":11133:11140   */\n      dup5\n        /* \"#utility.yul\":11124:11130   */\n      dup3\n        /* \"#utility.yul\":11113:11122   */\n      dup6\n        /* \"#utility.yul\":11109:11131   */\n      add\n        /* \"#utility.yul\":11078:11141   */\n      tag_555\n      jump\t// in\n    tag_757:\n        /* \"#utility.yul\":11068:11141   */\n      swap2\n      pop\n        /* \"#utility.yul\":10864:11151   */\n      pop\n        /* \"#utility.yul\":10649:11158   */\n      swap3\n      swap2\n      pop\n      pop\n      jump\t// out\n        /* \"#utility.yul\":11164:11638   */\n    tag_226:\n        /* \"#utility.yul\":11232:11238   */\n      0x00\n        /* \"#utility.yul\":11240:11246   */\n      dup1\n        /* \"#utility.yul\":11289:11291   */\n      0x40\n        /* \"#utility.yul\":11277:11286   */\n      dup4\n        /* \"#utility.yul\":11268:11275   */\n      dup6\n        /* \"#utility.yul\":11264:11287   */\n      sub\n        /* \"#utility.yul\":11260:11292   */\n      slt\n        /* \"#utility.yul\":11257:11376   */\n      iszero\n      tag_759\n      jumpi\n        /* \"#utility.yul\":11295:11374   */\n      tag_760\n      tag_524\n      jump\t// in\n    tag_760:\n        /* \"#utility.yul\":11257:11376   */\n    tag_759:\n        /* \"#utility.yul\":11415:11416   */\n      0x00\n        /* \"#utility.yul\":11440:11493   */\n      tag_761\n        /* \"#utility.yul\":11485:11492   */\n      dup6\n        /* \"#utility.yul\":11476:11482   */\n      dup3\n        /* \"#utility.yul\":11465:11474   */\n      dup7\n        /* \"#utility.yul\":11461:11483   */\n      add\n        /* \"#utility.yul\":11440:11493   */\n      tag_529\n      jump\t// in\n    tag_761:\n        /* \"#utility.yul\":11430:11493   */\n      swap3\n      pop\n        /* \"#utility.yul\":11386:11503   */\n      pop\n        /* \"#utility.yul\":11542:11544   */\n      0x20\n        /* \"#utility.yul\":11568:11621   */\n      tag_762\n        /* \"#utility.yul\":11613:11620   */\n      dup6\n        /* \"#utility.yul\":11604:11610   */\n      dup3\n        /* \"#utility.yul\":11593:11602   */\n      dup7\n        /* \"#utility.yul\":11589:11611   */\n      add\n        /* \"#utility.yul\":11568:11621   */\n      tag_529\n      jump\t// in\n    tag_762:\n        /* \"#utility.yul\":11558:11621   */\n      swap2\n      pop\n        /* \"#utility.yul\":11513:11631   */\n      pop\n        /* \"#utility.yul\":11164:11638   */\n      swap3\n      pop\n      swap3\n      swap1\n      pop\n      jump\t// out\n        /* \"#utility.yul\":11644:12308   */\n    tag_252:\n        /* \"#utility.yul\":11849:11853   */\n      0x00\n        /* \"#utility.yul\":11887:11890   */\n      0xa0\n        /* \"#utility.yul\":11876:11885   */\n      dup3\n        /* \"#utility.yul\":11872:11891   */\n      add\n        /* \"#utility.yul\":11864:11891   */\n      swap1\n      pop\n        /* \"#utility.yul\":11901:11972   */\n      tag_764\n        /* \"#utility.yul\":11969:11970   */\n      0x00\n        /* \"#utility.yul\":11958:11967   */\n      dup4\n        /* \"#utility.yul\":11954:11971   */\n      add\n        /* \"#utility.yul\":11945:11951   */\n      dup9\n        /* \"#utility.yul\":11901:11972   */\n      tag_540\n      jump\t// in\n    tag_764:\n        /* \"#utility.yul\":11982:12054   */\n      tag_765\n        /* \"#utility.yul\":12050:12052   */\n      0x20\n        /* \"#utility.yul\":12039:12048   */\n      dup4\n        /* \"#utility.yul\":12035:12053   */\n      add\n        /* \"#utility.yul\":12026:12032   */\n      dup8\n        /* \"#utility.yul\":11982:12054   */\n      tag_540\n      jump\t// in\n    tag_765:\n        /* \"#utility.yul\":12064:12136   */\n      tag_766\n        /* \"#utility.yul\":12132:12134   */\n      0x40\n        /* \"#utility.yul\":12121:12130   */\n      dup4\n        /* \"#utility.yul\":12117:12135   */\n      add\n        /* \"#utility.yul\":12108:12114   */\n      dup7\n        /* \"#utility.yul\":12064:12136   */\n      tag_540\n      jump\t// in\n    tag_766:\n        /* \"#utility.yul\":12146:12218   */\n      tag_767\n        /* \"#utility.yul\":12214:12216   */\n      0x60\n        /* \"#utility.yul\":12203:12212   */\n      dup4\n        /* \"#utility.yul\":12199:12217   */\n      add\n        /* \"#utility.yul\":12190:12196   */\n      dup6\n        /* \"#utility.yul\":12146:12218   */\n      tag_540\n      jump\t// in\n    tag_767:\n        /* \"#utility.yul\":12228:12301   */\n      tag_768\n        /* \"#utility.yul\":12296:12299   */\n      0x80\n        /* \"#utility.yul\":12285:12294   */\n      dup4\n        /* \"#utility.yul\":12281:12300   */\n      add\n        /* \"#utility.yul\":12272:12278   */\n      dup5\n        /* \"#utility.yul\":12228:12301   */\n      tag_540\n      jump\t// in\n    tag_768:\n        /* \"#utility.yul\":11644:12308   */\n      swap7\n      swap6\n      pop\n      pop\n      pop\n      pop\n      pop\n      pop\n      jump\t// out\n        /* \"#utility.yul\":12314:12494   */\n    tag_556:\n        /* \"#utility.yul\":12362:12439   */\n      0x4e487b7100000000000000000000000000000000000000000000000000000000\n        /* \"#utility.yul\":12359:12360   */\n      0x00\n        /* \"#utility.yul\":12352:12440   */\n      mstore\n        /* \"#utility.yul\":12459:12463   */\n      0x22\n        /* \"#utility.yul\":12456:12457   */\n      0x04\n        /* \"#utility.yul\":12449:12464   */\n      mstore\n        /* \"#utility.yul\":12483:12487   */\n      0x24\n        /* \"#utility.yul\":12480:12481   */\n      0x00\n        /* \"#utility.yul\":12473:12488   */\n      revert\n        /* \"#utility.yul\":12500:12820   */\n    tag_254:\n        /* \"#utility.yul\":12544:12550   */\n      0x00\n        /* \"#utility.yul\":12581:12582   */\n      0x02\n        /* \"#utility.yul\":12575:12579   */\n      dup3\n        /* \"#utility.yul\":12571:12583   */\n      div\n        /* \"#utility.yul\":12561:12583   */\n      swap1\n      pop\n        /* \"#utility.yul\":12628:12629   */\n      0x01\n        /* \"#utility.yul\":12622:12626   */\n      dup3\n        /* \"#utility.yul\":12618:12630   */\n      and\n        /* \"#utility.yul\":12649:12667   */\n      dup1\n        /* \"#utility.yul\":12639:12720   */\n      tag_771\n      jumpi\n        /* \"#utility.yul\":12705:12709   */\n      0x7f\n        /* \"#utility.yul\":12697:12703   */\n      dup3\n        /* \"#utility.yul\":12693:12710   */\n      and\n        /* \"#utility.yul\":12683:12710   */\n      swap2\n      pop\n        /* \"#utility.yul\":12639:12720   */\n    tag_771:\n        /* \"#utility.yul\":12767:12769   */\n      0x20\n        /* \"#utility.yul\":12759:12765   */\n      dup3\n        /* \"#utility.yul\":12756:12770   */\n      lt\n        /* \"#utility.yul\":12736:12754   */\n      dup2\n        /* \"#utility.yul\":12733:12771   */\n      sub\n        /* \"#utility.yul\":12730:12814   */\n      tag_772\n      jumpi\n        /* \"#utility.yul\":12786:12804   */\n      tag_773\n      tag_556\n      jump\t// in\n    tag_773:\n        /* \"#utility.yul\":12730:12814   */\n    tag_772:\n        /* \"#utility.yul\":12551:12820   */\n      pop\n        /* \"#utility.yul\":12500:12820   */\n      swap2\n      swap1\n      pop\n      jump\t// out\n        /* \"#utility.yul\":12826:13002   */\n    tag_557:\n        /* \"#utility.yul\":12966:12994   */\n      0x507269766174652053616c65206973206e6f7420616374697665000000000000\n        /* \"#utility.yul\":12962:12963   */\n      0x00\n        /* \"#utility.yul\":12954:12960   */\n      dup3\n        /* \"#utility.yul\":12950:12964   */\n      add\n        /* \"#utility.yul\":12943:12995   */\n      mstore\n        /* \"#utility.yul\":12826:13002   */\n      pop\n      jump\t// out\n        /* \"#utility.yul\":13008:13374   */\n    tag_558:\n        /* \"#utility.yul\":13150:13153   */\n      0x00\n        /* \"#utility.yul\":13171:13238   */\n      tag_776\n        /* \"#utility.yul\":13235:13237   */\n      0x1a\n        /* \"#utility.yul\":13230:13233   */\n      dup4\n        /* \"#utility.yul\":13171:13238   */\n      tag_531\n      jump\t// in\n    tag_776:\n        /* \"#utility.yul\":13164:13238   */\n      swap2\n      pop\n        /* \"#utility.yul\":13247:13340   */\n      tag_777\n        /* \"#utility.yul\":13336:13339   */\n      dup3\n        /* \"#utility.yul\":13247:13340   */\n      tag_557\n      jump\t// in\n    tag_777:\n        /* \"#utility.yul\":13365:13367   */\n      0x20\n        /* \"#utility.yul\":13360:13363   */\n      dup3\n        /* \"#utility.yul\":13356:13368   */\n      add\n        /* \"#utility.yul\":13349:13368   */\n      swap1\n      pop\n        /* \"#utility.yul\":13008:13374   */\n      swap2\n      swap1\n      pop\n      jump\t// out\n        /* \"#utility.yul\":13380:13799   */\n    tag_287:\n        /* \"#utility.yul\":13546:13550   */\n      0x00\n        /* \"#utility.yul\":13584:13586   */\n      0x20\n        /* \"#utility.yul\":13573:13582   */\n      dup3\n        /* \"#utility.yul\":13569:13587   */\n      add\n        /* \"#utility.yul\":13561:13587   */\n      swap1\n      pop\n        /* \"#utility.yul\":13633:13642   */\n      dup2\n        /* \"#utility.yul\":13627:13631   */\n      dup2\n        /* \"#utility.yul\":13623:13643   */\n      sub\n        /* \"#utility.yul\":13619:13620   */\n      0x00\n        /* \"#utility.yul\":13608:13617   */\n      dup4\n        /* \"#utility.yul\":13604:13621   */\n      add\n        /* \"#utility.yul\":13597:13644   */\n      mstore\n        /* \"#utility.yul\":13661:13792   */\n      tag_779\n        /* \"#utility.yul\":13787:13791   */\n      dup2\n        /* \"#utility.yul\":13661:13792   */\n      tag_558\n      jump\t// in\n    tag_779:\n        /* \"#utility.yul\":13653:13792   */\n      swap1\n      pop\n        /* \"#utility.yul\":13380:13799   */\n      swap2\n      swap1\n      pop\n      jump\t// out\n        /* \"#utility.yul\":13805:13978   */\n    tag_559:\n        /* \"#utility.yul\":13945:13970   */\n      0x596f7520617265206e6f742077686974656c6973746564000000000000000000\n        /* \"#utility.yul\":13941:13942   */\n      0x00\n        /* \"#utility.yul\":13933:13939   */\n      dup3\n        /* \"#utility.yul\":13929:13943   */\n      add\n        /* \"#utility.yul\":13922:13971   */\n      mstore\n        /* \"#utility.yul\":13805:13978   */\n      pop\n      jump\t// out\n        /* \"#utility.yul\":13984:14350   */\n    tag_560:\n        /* \"#utility.yul\":14126:14129   */\n      0x00\n        /* \"#utility.yul\":14147:14214   */\n      tag_782\n        /* \"#utility.yul\":14211:14213   */\n      0x17\n        /* \"#utility.yul\":14206:14209   */\n      dup4\n        /* \"#utility.yul\":14147:14214   */\n      tag_531\n      jump\t// in\n    tag_782:\n        /* \"#utility.yul\":14140:14214   */\n      swap2\n      pop\n        /* \"#utility.yul\":14223:14316   */\n      tag_783\n        /* \"#utility.yul\":14312:14315   */\n      dup3\n        /* \"#utility.yul\":14223:14316   */\n      tag_559\n      jump\t// in\n    tag_783:\n        /* \"#utility.yul\":14341:14343   */\n      0x20\n        /* \"#utility.yul\":14336:14339   */\n      dup3\n        /* \"#utility.yul\":14332:14344   */\n      add\n        /* \"#utility.yul\":14325:14344   */\n      swap1\n      pop\n        /* \"#utility.yul\":13984:14350   */\n      swap2\n      swap1\n      pop\n      jump\t// out\n        /* \"#utility.yul\":14356:14775   */\n    tag_290:\n        /* \"#utility.yul\":14522:14526   */\n      0x00\n        /* \"#utility.yul\":14560:14562   */\n      0x20\n        /* \"#utility.yul\":14549:14558   */\n      dup3\n        /* \"#utility.yul\":14545:14563   */\n      add\n        /* \"#utility.yul\":14537:14563   */\n      swap1\n      pop\n        /* \"#utility.yul\":14609:14618   */\n      dup2\n        /* \"#utility.yul\":14603:14607   */\n      dup2\n        /* \"#utility.yul\":14599:14619   */\n      sub\n        /* \"#utility.yul\":14595:14596   */\n      0x00\n        /* \"#utility.yul\":14584:14593   */\n      dup4\n        /* \"#utility.yul\":14580:14597   */\n      add\n        /* \"#utility.yul\":14573:14620   */\n      mstore\n        /* \"#utility.yul\":14637:14768   */\n      tag_785\n        /* \"#utility.yul\":14763:14767   */\n      dup2\n        /* \"#utility.yul\":14637:14768   */\n      tag_560\n      jump\t// in\n    tag_785:\n        /* \"#utility.yul\":14629:14768   */\n      swap1\n      pop\n        /* \"#utility.yul\":14356:14775   */\n      swap2\n      swap1\n      pop\n      jump\t// out\n        /* \"#utility.yul\":14781:14953   */\n    tag_561:\n        /* \"#utility.yul\":14921:14945   */\n      0x507269766174652053616c6520736f6c64206f75742e00000000000000000000\n        /* \"#utility.yul\":14917:14918   */\n      0x00\n        /* \"#utility.yul\":14909:14915   */\n      dup3\n        /* \"#utility.yul\":14905:14919   */\n      add\n        /* \"#utility.yul\":14898:14946   */\n      mstore\n        /* \"#utility.yul\":14781:14953   */\n      pop\n      jump\t// out\n        /* \"#utility.yul\":14959:15325   */\n    tag_562:\n        /* \"#utility.yul\":15101:15104   */\n      0x00\n        /* \"#utility.yul\":15122:15189   */\n      tag_788\n        /* \"#utility.yul\":15186:15188   */\n      0x16\n        /* \"#utility.yul\":15181:15184   */\n      dup4\n        /* \"#utility.yul\":15122:15189   */\n      tag_531\n      jump\t// in\n    tag_788:\n        /* \"#utility.yul\":15115:15189   */\n      swap2\n      pop\n        /* \"#utility.yul\":15198:15291   */\n      tag_789\n        /* \"#utility.yul\":15287:15290   */\n      dup3\n        /* \"#utility.yul\":15198:15291   */\n      tag_561\n      jump\t// in\n    tag_789:\n        /* \"#utility.yul\":15316:15318   */\n      0x20\n        /* \"#utility.yul\":15311:15314   */\n      dup3\n        /* \"#utility.yul\":15307:15319   */\n      add\n        /* \"#utility.yul\":15300:15319   */\n      swap1\n      pop\n        /* \"#utility.yul\":14959:15325   */\n      swap2\n      swap1\n      pop\n      jump\t// out\n        /* \"#utility.yul\":15331:15750   */\n    tag_293:\n        /* \"#utility.yul\":15497:15501   */\n      0x00\n        /* \"#utility.yul\":15535:15537   */\n      0x20\n        /* \"#utility.yul\":15524:15533   */\n      dup3\n        /* \"#utility.yul\":15520:15538   */\n      add\n        /* \"#utility.yul\":15512:15538   */\n      swap1\n      pop\n        /* \"#utility.yul\":15584:15593   */\n      dup2\n        /* \"#utility.yul\":15578:15582   */\n      dup2\n        /* \"#utility.yul\":15574:15594   */\n      sub\n        /* \"#utility.yul\":15570:15571   */\n      0x00\n        /* \"#utility.yul\":15559:15568   */\n      dup4\n        /* \"#utility.yul\":15555:15572   */\n      add\n        /* \"#utility.yul\":15548:15595   */\n      mstore\n        /* \"#utility.yul\":15612:15743   */\n      tag_791\n        /* \"#utility.yul\":15738:15742   */\n      dup2\n        /* \"#utility.yul\":15612:15743   */\n      tag_562\n      jump\t// in\n    tag_791:\n        /* \"#utility.yul\":15604:15743   */\n      swap1\n      pop\n        /* \"#utility.yul\":15331:15750   */\n      swap2\n      swap1\n      pop\n      jump\t// out\n        /* \"#utility.yul\":15756:15981   */\n    tag_563:\n        /* \"#utility.yul\":15896:15930   */\n      0x416d6f756e742069732062656c6f77206d696e696d756d207075726368617365\n        /* \"#utility.yul\":15892:15893   */\n      0x00\n        /* \"#utility.yul\":15884:15890   */\n      dup3\n        /* \"#utility.yul\":15880:15894   */\n      add\n        /* \"#utility.yul\":15873:15931   */\n      mstore\n        /* \"#utility.yul\":15965:15973   */\n      0x206c696d69740000000000000000000000000000000000000000000000000000\n        /* \"#utility.yul\":15960:15962   */\n      0x20\n        /* \"#utility.yul\":15952:15958   */\n      dup3\n        /* \"#utility.yul\":15948:15963   */\n      add\n        /* \"#utility.yul\":15941:15974   */\n      mstore\n        /* \"#utility.yul\":15756:15981   */\n      pop\n      jump\t// out\n        /* \"#utility.yul\":15987:16353   */\n    tag_564:\n        /* \"#utility.yul\":16129:16132   */\n      0x00\n        /* \"#utility.yul\":16150:16217   */\n      tag_794\n        /* \"#utility.yul\":16214:16216   */\n      0x26\n        /* \"#utility.yul\":16209:16212   */\n      dup4\n        /* \"#utility.yul\":16150:16217   */\n      tag_531\n      jump\t// in\n    tag_794:\n        /* \"#utility.yul\":16143:16217   */\n      swap2\n      pop\n        /* \"#utility.yul\":16226:16319   */\n      tag_795\n        /* \"#utility.yul\":16315:16318   */\n      dup3\n        /* \"#utility.yul\":16226:16319   */\n      tag_563\n      jump\t// in\n    tag_795:\n        /* \"#utility.yul\":16344:16346   */\n      0x40\n        /* \"#utility.yul\":16339:16342   */\n      dup3\n        /* \"#utility.yul\":16335:16347   */\n      add\n        /* \"#utility.yul\":16328:16347   */\n      swap1\n      pop\n        /* \"#utility.yul\":15987:16353   */\n      swap2\n      swap1\n      pop\n      jump\t// out\n        /* \"#utility.yul\":16359:16778   */\n    tag_296:\n        /* \"#utility.yul\":16525:16529   */\n      0x00\n        /* \"#utility.yul\":16563:16565   */\n      0x20\n        /* \"#utility.yul\":16552:16561   */\n      dup3\n        /* \"#utility.yul\":16548:16566   */\n      add\n        /* \"#utility.yul\":16540:16566   */\n      swap1\n      pop\n        /* \"#utility.yul\":16612:16621   */\n      dup2\n        /* \"#utility.yul\":16606:16610   */\n      dup2\n        /* \"#utility.yul\":16602:16622   */\n      sub\n        /* \"#utility.yul\":16598:16599   */\n      0x00\n        /* \"#utility.yul\":16587:16596   */\n      dup4\n        /* \"#utility.yul\":16583:16600   */\n      add\n        /* \"#utility.yul\":16576:16623   */\n      mstore\n        /* \"#utility.yul\":16640:16771   */\n      tag_797\n        /* \"#utility.yul\":16766:16770   */\n      dup2\n        /* \"#utility.yul\":16640:16771   */\n      tag_564\n      jump\t// in\n    tag_797:\n        /* \"#utility.yul\":16632:16771   */\n      swap1\n      pop\n        /* \"#utility.yul\":16359:16778   */\n      swap2\n      swap1\n      pop\n      jump\t// out\n        /* \"#utility.yul\":16784:17027   */\n    tag_565:\n        /* \"#utility.yul\":16924:16958   */\n      0x416d6f756e742069732062656c6f7720746865206d696e696d756d20746f6b65\n        /* \"#utility.yul\":16920:16921   */\n      0x00\n        /* \"#utility.yul\":16912:16918   */\n      dup3\n        /* \"#utility.yul\":16908:16922   */\n      add\n        /* \"#utility.yul\":16901:16959   */\n      mstore\n        /* \"#utility.yul\":16993:17019   */\n      0x6e206c696d697420666f7220507269766174652053616c650000000000000000\n        /* \"#utility.yul\":16988:16990   */\n      0x20\n        /* \"#utility.yul\":16980:16986   */\n      dup3\n        /* \"#utility.yul\":16976:16991   */\n      add\n        /* \"#utility.yul\":16969:17020   */\n      mstore\n        /* \"#utility.yul\":16784:17027   */\n      pop\n      jump\t// out\n        /* \"#utility.yul\":17033:17399   */\n    tag_566:\n        /* \"#utility.yul\":17175:17178   */\n      0x00\n        /* \"#utility.yul\":17196:17263   */\n      tag_800\n        /* \"#utility.yul\":17260:17262   */\n      0x38\n        /* \"#utility.yul\":17255:17258   */\n      dup4\n        /* \"#utility.yul\":17196:17263   */\n      tag_531\n      jump\t// in\n    tag_800:\n        /* \"#utility.yul\":17189:17263   */\n      swap2\n      pop\n        /* \"#utility.yul\":17272:17365   */\n      tag_801\n        /* \"#utility.yul\":17361:17364   */\n      dup3\n        /* \"#utility.yul\":17272:17365   */\n      tag_565\n      jump\t// in\n    tag_801:\n        /* \"#utility.yul\":17390:17392   */\n      0x40\n        /* \"#utility.yul\":17385:17388   */\n      dup3\n        /* \"#utility.yul\":17381:17393   */\n      add\n        /* \"#utility.yul\":17374:17393   */\n      swap1\n      pop\n        /* \"#utility.yul\":17033:17399   */\n      swap2\n      swap1\n      pop\n      jump\t// out\n        /* \"#utility.yul\":17405:17824   */\n    tag_300:\n        /* \"#utility.yul\":17571:17575   */\n      0x00\n        /* \"#utility.yul\":17609:17611   */\n      0x20\n        /* \"#utility.yul\":17598:17607   */\n      dup3\n        /* \"#utility.yul\":17594:17612   */\n      add\n        /* \"#utility.yul\":17586:17612   */\n      swap1\n      pop\n        /* \"#utility.yul\":17658:17667   */\n      dup2\n        /* \"#utility.yul\":17652:17656   */\n      dup2\n        /* \"#utility.yul\":17648:17668   */\n      sub\n        /* \"#utility.yul\":17644:17645   */\n      0x00\n        /* \"#utility.yul\":17633:17642   */\n      dup4\n        /* \"#utility.yul\":17629:17646   */\n      add\n        /* \"#utility.yul\":17622:17669   */\n      mstore\n        /* \"#utility.yul\":17686:17817   */\n      tag_803\n        /* \"#utility.yul\":17812:17816   */\n      dup2\n        /* \"#utility.yul\":17686:17817   */\n      tag_566\n      jump\t// in\n    tag_803:\n        /* \"#utility.yul\":17678:17817   */\n      swap1\n      pop\n        /* \"#utility.yul\":17405:17824   */\n      swap2\n      swap1\n      pop\n      jump\t// out\n        /* \"#utility.yul\":17830:18125   */\n    tag_567:\n        /* \"#utility.yul\":17970:18004   */\n      0x416d6f756e74206578636565647320746865206d6178696d756d20746f6b656e\n        /* \"#utility.yul\":17966:17967   */\n      0x00\n        /* \"#utility.yul\":17958:17964   */\n      dup3\n        /* \"#utility.yul\":17954:17968   */\n      add\n        /* \"#utility.yul\":17947:18005   */\n      mstore\n        /* \"#utility.yul\":18039:18073   */\n      0x206c696d697420706572207472616e73616374696f6e20666f72205072697661\n        /* \"#utility.yul\":18034:18036   */\n      0x20\n        /* \"#utility.yul\":18026:18032   */\n      dup3\n        /* \"#utility.yul\":18022:18037   */\n      add\n        /* \"#utility.yul\":18015:18074   */\n      mstore\n        /* \"#utility.yul\":18108:18117   */\n      0x74652053616c6500000000000000000000000000000000000000000000000000\n        /* \"#utility.yul\":18103:18105   */\n      0x40\n        /* \"#utility.yul\":18095:18101   */\n      dup3\n        /* \"#utility.yul\":18091:18106   */\n      add\n        /* \"#utility.yul\":18084:18118   */\n      mstore\n        /* \"#utility.yul\":17830:18125   */\n      pop\n      jump\t// out\n        /* \"#utility.yul\":18131:18497   */\n    tag_568:\n        /* \"#utility.yul\":18273:18276   */\n      0x00\n        /* \"#utility.yul\":18294:18361   */\n      tag_806\n        /* \"#utility.yul\":18358:18360   */\n      0x47\n        /* \"#utility.yul\":18353:18356   */\n      dup4\n        /* \"#utility.yul\":18294:18361   */\n      tag_531\n      jump\t// in\n    tag_806:\n        /* \"#utility.yul\":18287:18361   */\n      swap2\n      pop\n        /* \"#utility.yul\":18370:18463   */\n      tag_807\n        /* \"#utility.yul\":18459:18462   */\n      dup3\n        /* \"#utility.yul\":18370:18463   */\n      tag_567\n      jump\t// in\n    tag_807:\n        /* \"#utility.yul\":18488:18490   */\n      0x60\n        /* \"#utility.yul\":18483:18486   */\n      dup3\n        /* \"#utility.yul\":18479:18491   */\n      add\n        /* \"#utility.yul\":18472:18491   */\n      swap1\n      pop\n        /* \"#utility.yul\":18131:18497   */\n      swap2\n      swap1\n      pop\n      jump\t// out\n        /* \"#utility.yul\":18503:18922   */\n    tag_303:\n        /* \"#utility.yul\":18669:18673   */\n      0x00\n        /* \"#utility.yul\":18707:18709   */\n      0x20\n        /* \"#utility.yul\":18696:18705   */\n      dup3\n        /* \"#utility.yul\":18692:18710   */\n      add\n        /* \"#utility.yul\":18684:18710   */\n      swap1\n      pop\n        /* \"#utility.yul\":18756:18765   */\n      dup2\n        /* \"#utility.yul\":18750:18754   */\n      dup2\n        /* \"#utility.yul\":18746:18766   */\n      sub\n        /* \"#utility.yul\":18742:18743   */\n      0x00\n        /* \"#utility.yul\":18731:18740   */\n      dup4\n        /* \"#utility.yul\":18727:18744   */\n      add\n        /* \"#utility.yul\":18720:18767   */\n      mstore\n        /* \"#utility.yul\":18784:18915   */\n      tag_809\n        /* \"#utility.yul\":18910:18914   */\n      dup2\n        /* \"#utility.yul\":18784:18915   */\n      tag_568\n      jump\t// in\n    tag_809:\n        /* \"#utility.yul\":18776:18915   */\n      swap1\n      pop\n        /* \"#utility.yul\":18503:18922   */\n      swap2\n      swap1\n      pop\n      jump\t// out\n        /* \"#utility.yul\":18928:19151   */\n    tag_569:\n        /* \"#utility.yul\":19068:19102   */\n      0x45786365656473206d6178696d756d20746f6b656e207075726368617365206c\n        /* \"#utility.yul\":19064:19065   */\n      0x00\n        /* \"#utility.yul\":19056:19062   */\n      dup3\n        /* \"#utility.yul\":19052:19066   */\n      add\n        /* \"#utility.yul\":19045:19103   */\n      mstore\n        /* \"#utility.yul\":19137:19143   */\n      0x696d697400000000000000000000000000000000000000000000000000000000\n        /* \"#utility.yul\":19132:19134   */\n      0x20\n        /* \"#utility.yul\":19124:19130   */\n      dup3\n        /* \"#utility.yul\":19120:19135   */\n      add\n        /* \"#utility.yul\":19113:19144   */\n      mstore\n        /* \"#utility.yul\":18928:19151   */\n      pop\n      jump\t// out\n        /* \"#utility.yul\":19157:19523   */\n    tag_570:\n        /* \"#utility.yul\":19299:19302   */\n      0x00\n        /* \"#utility.yul\":19320:19387   */\n      tag_812\n        /* \"#utility.yul\":19384:19386   */\n      0x24\n        /* \"#utility.yul\":19379:19382   */\n      dup4\n        /* \"#utility.yul\":19320:19387   */\n      tag_531\n      jump\t// in\n    tag_812:\n        /* \"#utility.yul\":19313:19387   */\n      swap2\n      pop\n        /* \"#utility.yul\":19396:19489   */\n      tag_813\n        /* \"#utility.yul\":19485:19488   */\n      dup3\n        /* \"#utility.yul\":19396:19489   */\n      tag_569\n      jump\t// in\n    tag_813:\n        /* \"#utility.yul\":19514:19516   */\n      0x40\n        /* \"#utility.yul\":19509:19512   */\n      dup3\n        /* \"#utility.yul\":19505:19517   */\n      add\n        /* \"#utility.yul\":19498:19517   */\n      swap1\n      pop\n        /* \"#utility.yul\":19157:19523   */\n      swap2\n      swap1\n      pop\n      jump\t// out\n        /* \"#utility.yul\":19529:19948   */\n    tag_306:\n        /* \"#utility.yul\":19695:19699   */\n      0x00\n        /* \"#utility.yul\":19733:19735   */\n      0x20\n        /* \"#utility.yul\":19722:19731   */\n      dup3\n        /* \"#utility.yul\":19718:19736   */\n      add\n        /* \"#utility.yul\":19710:19736   */\n      swap1\n      pop\n        /* \"#utility.yul\":19782:19791   */\n      dup2\n        /* \"#utility.yul\":19776:19780   */\n      dup2\n        /* \"#utility.yul\":19772:19792   */\n      sub\n        /* \"#utility.yul\":19768:19769   */\n      0x00\n        /* \"#utility.yul\":19757:19766   */\n      dup4\n        /* \"#utility.yul\":19753:19770   */\n      add\n        /* \"#utility.yul\":19746:19793   */\n      mstore\n        /* \"#utility.yul\":19810:19941   */\n      tag_815\n        /* \"#utility.yul\":19936:19940   */\n      dup2\n        /* \"#utility.yul\":19810:19941   */\n      tag_570\n      jump\t// in\n    tag_815:\n        /* \"#utility.yul\":19802:19941   */\n      swap1\n      pop\n        /* \"#utility.yul\":19529:19948   */\n      swap2\n      swap1\n      pop\n      jump\t// out\n        /* \"#utility.yul\":19954:20134   */\n    tag_571:\n        /* \"#utility.yul\":20002:20079   */\n      0x4e487b7100000000000000000000000000000000000000000000000000000000\n        /* \"#utility.yul\":19999:20000   */\n      0x00\n        /* \"#utility.yul\":19992:20080   */\n      mstore\n        /* \"#utility.yul\":20099:20103   */\n      0x11\n        /* \"#utility.yul\":20096:20097   */\n      0x04\n        /* \"#utility.yul\":20089:20104   */\n      mstore\n        /* \"#utility.yul\":20123:20127   */\n      0x24\n        /* \"#utility.yul\":20120:20121   */\n      0x00\n        /* \"#utility.yul\":20113:20128   */\n      revert\n        /* \"#utility.yul\":20140:20331   */\n    tag_308:\n        /* \"#utility.yul\":20180:20183   */\n      0x00\n        /* \"#utility.yul\":20199:20219   */\n      tag_818\n        /* \"#utility.yul\":20217:20218   */\n      dup3\n        /* \"#utility.yul\":20199:20219   */\n      tag_535\n      jump\t// in\n    tag_818:\n        /* \"#utility.yul\":20194:20219   */\n      swap2\n      pop\n        /* \"#utility.yul\":20233:20253   */\n      tag_819\n        /* \"#utility.yul\":20251:20252   */\n      dup4\n        /* \"#utility.yul\":20233:20253   */\n      tag_535\n      jump\t// in\n    tag_819:\n        /* \"#utility.yul\":20228:20253   */\n      swap3\n      pop\n        /* \"#utility.yul\":20276:20277   */\n      dup3\n        /* \"#utility.yul\":20273:20274   */\n      dup3\n        /* \"#utility.yul\":20269:20278   */\n      add\n        /* \"#utility.yul\":20262:20278   */\n      swap1\n      pop\n        /* \"#utility.yul\":20297:20300   */\n      dup1\n        /* \"#utility.yul\":20294:20295   */\n      dup3\n        /* \"#utility.yul\":20291:20301   */\n      gt\n        /* \"#utility.yul\":20288:20324   */\n      iszero\n      tag_820\n      jumpi\n        /* \"#utility.yul\":20304:20322   */\n      tag_821\n      tag_571\n      jump\t// in\n    tag_821:\n        /* \"#utility.yul\":20288:20324   */\n    tag_820:\n        /* \"#utility.yul\":20140:20331   */\n      swap3\n      swap2\n      pop\n      pop\n      jump\t// out\n        /* \"#utility.yul\":20337:20557   */\n    tag_572:\n        /* \"#utility.yul\":20477:20511   */\n      0x4578636565647320507269766174652053616c6520746f6b656e206c696d6974\n        /* \"#utility.yul\":20473:20474   */\n      0x00\n        /* \"#utility.yul\":20465:20471   */\n      dup3\n        /* \"#utility.yul\":20461:20475   */\n      add\n        /* \"#utility.yul\":20454:20512   */\n      mstore\n        /* \"#utility.yul\":20546:20549   */\n      0x2e00000000000000000000000000000000000000000000000000000000000000\n        /* \"#utility.yul\":20541:20543   */\n      0x20\n        /* \"#utility.yul\":20533:20539   */\n      dup3\n        /* \"#utility.yul\":20529:20544   */\n      add\n        /* \"#utility.yul\":20522:20550   */\n      mstore\n        /* \"#utility.yul\":20337:20557   */\n      pop\n      jump\t// out\n        /* \"#utility.yul\":20563:20929   */\n    tag_573:\n        /* \"#utility.yul\":20705:20708   */\n      0x00\n        /* \"#utility.yul\":20726:20793   */\n      tag_824\n        /* \"#utility.yul\":20790:20792   */\n      0x21\n        /* \"#utility.yul\":20785:20788   */\n      dup4\n        /* \"#utility.yul\":20726:20793   */\n      tag_531\n      jump\t// in\n    tag_824:\n        /* \"#utility.yul\":20719:20793   */\n      swap2\n      pop\n        /* \"#utility.yul\":20802:20895   */\n      tag_825\n        /* \"#utility.yul\":20891:20894   */\n      dup3\n        /* \"#utility.yul\":20802:20895   */\n      tag_572\n      jump\t// in\n    tag_825:\n        /* \"#utility.yul\":20920:20922   */\n      0x40\n        /* \"#utility.yul\":20915:20918   */\n      dup3\n        /* \"#utility.yul\":20911:20923   */\n      add\n        /* \"#utility.yul\":20904:20923   */\n      swap1\n      pop\n        /* \"#utility.yul\":20563:20929   */\n      swap2\n      swap1\n      pop\n      jump\t// out\n        /* \"#utility.yul\":20935:21354   */\n    tag_312:\n        /* \"#utility.yul\":21101:21105   */\n      0x00\n        /* \"#utility.yul\":21139:21141   */\n      0x20\n        /* \"#utility.yul\":21128:21137   */\n      dup3\n        /* \"#utility.yul\":21124:21142   */\n      add\n        /* \"#utility.yul\":21116:21142   */\n      swap1\n      pop\n        /* \"#utility.yul\":21188:21197   */\n      dup2\n        /* \"#utility.yul\":21182:21186   */\n      dup2\n        /* \"#utility.yul\":21178:21198   */\n      sub\n        /* \"#utility.yul\":21174:21175   */\n      0x00\n        /* \"#utility.yul\":21163:21172   */\n      dup4\n        /* \"#utility.yul\":21159:21176   */\n      add\n        /* \"#utility.yul\":21152:21199   */\n      mstore\n        /* \"#utility.yul\":21216:21347   */\n      tag_827\n        /* \"#utility.yul\":21342:21346   */\n      dup2\n        /* \"#utility.yul\":21216:21347   */\n      tag_573\n      jump\t// in\n    tag_827:\n        /* \"#utility.yul\":21208:21347   */\n      swap1\n      pop\n        /* \"#utility.yul\":20935:21354   */\n      swap2\n      swap1\n      pop\n      jump\t// out\n        /* \"#utility.yul\":21360:21508   */\n    tag_574:\n        /* \"#utility.yul\":21462:21473   */\n      0x00\n        /* \"#utility.yul\":21499:21502   */\n      dup2\n        /* \"#utility.yul\":21484:21502   */\n      swap1\n      pop\n        /* \"#utility.yul\":21360:21508   */\n      swap3\n      swap2\n      pop\n      pop\n      jump\t// out\n        /* \"#utility.yul\":21538:21868   */\n    tag_575:\n        /* \"#utility.yul\":21654:21657   */\n      0x00\n        /* \"#utility.yul\":21675:21764   */\n      tag_830\n        /* \"#utility.yul\":21757:21763   */\n      dup4\n        /* \"#utility.yul\":21752:21755   */\n      dup6\n        /* \"#utility.yul\":21675:21764   */\n      tag_574\n      jump\t// in\n    tag_830:\n        /* \"#utility.yul\":21668:21764   */\n      swap4\n      pop\n        /* \"#utility.yul\":21774:21830   */\n      tag_831\n        /* \"#utility.yul\":21823:21829   */\n      dup4\n        /* \"#utility.yul\":21818:21821   */\n      dup6\n        /* \"#utility.yul\":21811:21816   */\n      dup5\n        /* \"#utility.yul\":21774:21830   */\n      tag_553\n      jump\t// in\n    tag_831:\n        /* \"#utility.yul\":21855:21861   */\n      dup3\n        /* \"#utility.yul\":21850:21853   */\n      dup5\n        /* \"#utility.yul\":21846:21862   */\n      add\n        /* \"#utility.yul\":21839:21862   */\n      swap1\n      pop\n        /* \"#utility.yul\":21538:21868   */\n      swap4\n      swap3\n      pop\n      pop\n      pop\n      jump\t// out\n        /* \"#utility.yul\":21874:22169   */\n    tag_315:\n        /* \"#utility.yul\":22016:22019   */\n      0x00\n        /* \"#utility.yul\":22038:22143   */\n      tag_833\n        /* \"#utility.yul\":22139:22142   */\n      dup3\n        /* \"#utility.yul\":22130:22136   */\n      dup5\n        /* \"#utility.yul\":22122:22128   */\n      dup7\n        /* \"#utility.yul\":22038:22143   */\n      tag_575\n      jump\t// in\n    tag_833:\n        /* \"#utility.yul\":22031:22143   */\n      swap2\n      pop\n        /* \"#utility.yul\":22160:22163   */\n      dup2\n        /* \"#utility.yul\":22153:22163   */\n      swap1\n      pop\n        /* \"#utility.yul\":21874:22169   */\n      swap4\n      swap3\n      pop\n      pop\n      pop\n      jump\t// out\n        /* \"#utility.yul\":22175:22347   */\n    tag_576:\n        /* \"#utility.yul\":22315:22339   */\n      0x496e76616c696420616666696c6961746520636f646500000000000000000000\n        /* \"#utility.yul\":22311:22312   */\n      0x00\n        /* \"#utility.yul\":22303:22309   */\n      dup3\n        /* \"#utility.yul\":22299:22313   */\n      add\n        /* \"#utility.yul\":22292:22340   */\n      mstore\n        /* \"#utility.yul\":22175:22347   */\n      pop\n      jump\t// out\n        /* \"#utility.yul\":22353:22719   */\n    tag_577:\n        /* \"#utility.yul\":22495:22498   */\n      0x00\n        /* \"#utility.yul\":22516:22583   */\n      tag_836\n        /* \"#utility.yul\":22580:22582   */\n      0x16\n        /* \"#utility.yul\":22575:22578   */\n      dup4\n        /* \"#utility.yul\":22516:22583   */\n      tag_531\n      jump\t// in\n    tag_836:\n        /* \"#utility.yul\":22509:22583   */\n      swap2\n      pop\n        /* \"#utility.yul\":22592:22685   */\n      tag_837\n        /* \"#utility.yul\":22681:22684   */\n      dup3\n        /* \"#utility.yul\":22592:22685   */\n      tag_576\n      jump\t// in\n    tag_837:\n        /* \"#utility.yul\":22710:22712   */\n      0x20\n        /* \"#utility.yul\":22705:22708   */\n      dup3\n        /* \"#utility.yul\":22701:22713   */\n      add\n        /* \"#utility.yul\":22694:22713   */\n      swap1\n      pop\n        /* \"#utility.yul\":22353:22719   */\n      swap2\n      swap1\n      pop\n      jump\t// out\n        /* \"#utility.yul\":22725:23144   */\n    tag_318:\n        /* \"#utility.yul\":22891:22895   */\n      0x00\n        /* \"#utility.yul\":22929:22931   */\n      0x20\n        /* \"#utility.yul\":22918:22927   */\n      dup3\n        /* \"#utility.yul\":22914:22932   */\n      add\n        /* \"#utility.yul\":22906:22932   */\n      swap1\n      pop\n        /* \"#utility.yul\":22978:22987   */\n      dup2\n        /* \"#utility.yul\":22972:22976   */\n      dup2\n        /* \"#utility.yul\":22968:22988   */\n      sub\n        /* \"#utility.yul\":22964:22965   */\n      0x00\n        /* \"#utility.yul\":22953:22962   */\n      dup4\n        /* \"#utility.yul\":22949:22966   */\n      add\n        /* \"#utility.yul\":22942:22989   */\n      mstore\n        /* \"#utility.yul\":23006:23137   */\n      tag_839\n        /* \"#utility.yul\":23132:23136   */\n      dup2\n        /* \"#utility.yul\":23006:23137   */\n      tag_577\n      jump\t// in\n    tag_839:\n        /* \"#utility.yul\":22998:23137   */\n      swap1\n      pop\n        /* \"#utility.yul\":22725:23144   */\n      swap2\n      swap1\n      pop\n      jump\t// out\n        /* \"#utility.yul\":23150:23560   */\n    tag_320:\n        /* \"#utility.yul\":23190:23197   */\n      0x00\n        /* \"#utility.yul\":23213:23233   */\n      tag_841\n        /* \"#utility.yul\":23231:23232   */\n      dup3\n        /* \"#utility.yul\":23213:23233   */\n      tag_535\n      jump\t// in\n    tag_841:\n        /* \"#utility.yul\":23208:23233   */\n      swap2\n      pop\n        /* \"#utility.yul\":23247:23267   */\n      tag_842\n        /* \"#utility.yul\":23265:23266   */\n      dup4\n        /* \"#utility.yul\":23247:23267   */\n      tag_535\n      jump\t// in\n    tag_842:\n        /* \"#utility.yul\":23242:23267   */\n      swap3\n      pop\n        /* \"#utility.yul\":23302:23303   */\n      dup3\n        /* \"#utility.yul\":23299:23300   */\n      dup3\n        /* \"#utility.yul\":23295:23304   */\n      mul\n        /* \"#utility.yul\":23324:23354   */\n      tag_843\n        /* \"#utility.yul\":23342:23353   */\n      dup2\n        /* \"#utility.yul\":23324:23354   */\n      tag_535\n      jump\t// in\n    tag_843:\n        /* \"#utility.yul\":23313:23354   */\n      swap2\n      pop\n        /* \"#utility.yul\":23503:23504   */\n      dup3\n        /* \"#utility.yul\":23494:23501   */\n      dup3\n        /* \"#utility.yul\":23490:23505   */\n      div\n        /* \"#utility.yul\":23487:23488   */\n      dup5\n        /* \"#utility.yul\":23484:23506   */\n      eq\n        /* \"#utility.yul\":23464:23465   */\n      dup4\n        /* \"#utility.yul\":23457:23466   */\n      iszero\n        /* \"#utility.yul\":23437:23520   */\n      or\n        /* \"#utility.yul\":23414:23553   */\n      tag_844\n      jumpi\n        /* \"#utility.yul\":23533:23551   */\n      tag_845\n      tag_571\n      jump\t// in\n    tag_845:\n        /* \"#utility.yul\":23414:23553   */\n    tag_844:\n        /* \"#utility.yul\":23198:23560   */\n      pop\n        /* \"#utility.yul\":23150:23560   */\n      swap3\n      swap2\n      pop\n      pop\n      jump\t// out\n        /* \"#utility.yul\":23566:23746   */\n    tag_578:\n        /* \"#utility.yul\":23614:23691   */\n      0x4e487b7100000000000000000000000000000000000000000000000000000000\n        /* \"#utility.yul\":23611:23612   */\n      0x00\n        /* \"#utility.yul\":23604:23692   */\n      mstore\n        /* \"#utility.yul\":23711:23715   */\n      0x12\n        /* \"#utility.yul\":23708:23709   */\n      0x04\n        /* \"#utility.yul\":23701:23716   */\n      mstore\n        /* \"#utility.yul\":23735:23739   */\n      0x24\n        /* \"#utility.yul\":23732:23733   */\n      0x00\n        /* \"#utility.yul\":23725:23740   */\n      revert\n        /* \"#utility.yul\":23752:23937   */\n    tag_322:\n        /* \"#utility.yul\":23792:23793   */\n      0x00\n        /* \"#utility.yul\":23809:23829   */\n      tag_848\n        /* \"#utility.yul\":23827:23828   */\n      dup3\n        /* \"#utility.yul\":23809:23829   */\n      tag_535\n      jump\t// in\n    tag_848:\n        /* \"#utility.yul\":23804:23829   */\n      swap2\n      pop\n        /* \"#utility.yul\":23843:23863   */\n      tag_849\n        /* \"#utility.yul\":23861:23862   */\n      dup4\n        /* \"#utility.yul\":23843:23863   */\n      tag_535\n      jump\t// in\n    tag_849:\n        /* \"#utility.yul\":23838:23863   */\n      swap3\n      pop\n        /* \"#utility.yul\":23882:23883   */\n      dup3\n        /* \"#utility.yul\":23872:23907   */\n      tag_850\n      jumpi\n        /* \"#utility.yul\":23887:23905   */\n      tag_851\n      tag_578\n      jump\t// in\n    tag_851:\n        /* \"#utility.yul\":23872:23907   */\n    tag_850:\n        /* \"#utility.yul\":23929:23930   */\n      dup3\n        /* \"#utility.yul\":23926:23927   */\n      dup3\n        /* \"#utility.yul\":23922:23931   */\n      div\n        /* \"#utility.yul\":23917:23931   */\n      swap1\n      pop\n        /* \"#utility.yul\":23752:23937   */\n      swap3\n      swap2\n      pop\n      pop\n      jump\t// out\n        /* \"#utility.yul\":23943:24275   */\n    tag_330:\n        /* \"#utility.yul\":24064:24068   */\n      0x00\n        /* \"#utility.yul\":24102:24104   */\n      0x40\n        /* \"#utility.yul\":24091:24100   */\n      dup3\n        /* \"#utility.yul\":24087:24105   */\n      add\n        /* \"#utility.yul\":24079:24105   */\n      swap1\n      pop\n        /* \"#utility.yul\":24115:24186   */\n      tag_853\n        /* \"#utility.yul\":24183:24184   */\n      0x00\n        /* \"#utility.yul\":24172:24181   */\n      dup4\n        /* \"#utility.yul\":24168:24185   */\n      add\n        /* \"#utility.yul\":24159:24165   */\n      dup6\n        /* \"#utility.yul\":24115:24186   */\n      tag_540\n      jump\t// in\n    tag_853:\n        /* \"#utility.yul\":24196:24268   */\n      tag_854\n        /* \"#utility.yul\":24264:24266   */\n      0x20\n        /* \"#utility.yul\":24253:24262   */\n      dup4\n        /* \"#utility.yul\":24249:24267   */\n      add\n        /* \"#utility.yul\":24240:24246   */\n      dup5\n        /* \"#utility.yul\":24196:24268   */\n      tag_540\n      jump\t// in\n    tag_854:\n        /* \"#utility.yul\":23943:24275   */\n      swap4\n      swap3\n      pop\n      pop\n      pop\n      jump\t// out\n        /* \"#utility.yul\":24281:24511   */\n    tag_579:\n        /* \"#utility.yul\":24421:24455   */\n      0x54686973206164647265737320616c72656164792068617320616e2061666669\n        /* \"#utility.yul\":24417:24418   */\n      0x00\n        /* \"#utility.yul\":24409:24415   */\n      dup3\n        /* \"#utility.yul\":24405:24419   */\n      add\n        /* \"#utility.yul\":24398:24456   */\n      mstore\n        /* \"#utility.yul\":24490:24503   */\n      0x6c6961746520636f64652e000000000000000000000000000000000000000000\n        /* \"#utility.yul\":24485:24487   */\n      0x20\n        /* \"#utility.yul\":24477:24483   */\n      dup3\n        /* \"#utility.yul\":24473:24488   */\n      add\n        /* \"#utility.yul\":24466:24504   */\n      mstore\n        /* \"#utility.yul\":24281:24511   */\n      pop\n      jump\t// out\n        /* \"#utility.yul\":24517:24883   */\n    tag_580:\n        /* \"#utility.yul\":24659:24662   */\n      0x00\n        /* \"#utility.yul\":24680:24747   */\n      tag_857\n        /* \"#utility.yul\":24744:24746   */\n      0x2b\n        /* \"#utility.yul\":24739:24742   */\n      dup4\n        /* \"#utility.yul\":24680:24747   */\n      tag_531\n      jump\t// in\n    tag_857:\n        /* \"#utility.yul\":24673:24747   */\n      swap2\n      pop\n        /* \"#utility.yul\":24756:24849   */\n      tag_858\n        /* \"#utility.yul\":24845:24848   */\n      dup3\n        /* \"#utility.yul\":24756:24849   */\n      tag_579\n      jump\t// in\n    tag_858:\n        /* \"#utility.yul\":24874:24876   */\n      0x40\n        /* \"#utility.yul\":24869:24872   */\n      dup3\n        /* \"#utility.yul\":24865:24877   */\n      add\n        /* \"#utility.yul\":24858:24877   */\n      swap1\n      pop\n        /* \"#utility.yul\":24517:24883   */\n      swap2\n      swap1\n      pop\n      jump\t// out\n        /* \"#utility.yul\":24889:25308   */\n    tag_340:\n        /* \"#utility.yul\":25055:25059   */\n      0x00\n        /* \"#utility.yul\":25093:25095   */\n      0x20\n        /* \"#utility.yul\":25082:25091   */\n      dup3\n        /* \"#utility.yul\":25078:25096   */\n      add\n        /* \"#utility.yul\":25070:25096   */\n      swap1\n      pop\n        /* \"#utility.yul\":25142:25151   */\n      dup2\n        /* \"#utility.yul\":25136:25140   */\n      dup2\n        /* \"#utility.yul\":25132:25152   */\n      sub\n        /* \"#utility.yul\":25128:25129   */\n      0x00\n        /* \"#utility.yul\":25117:25126   */\n      dup4\n        /* \"#utility.yul\":25113:25130   */\n      add\n        /* \"#utility.yul\":25106:25153   */\n      mstore\n        /* \"#utility.yul\":25170:25301   */\n      tag_860\n        /* \"#utility.yul\":25296:25300   */\n      dup2\n        /* \"#utility.yul\":25170:25301   */\n      tag_580\n      jump\t// in\n    tag_860:\n        /* \"#utility.yul\":25162:25301   */\n      swap1\n      pop\n        /* \"#utility.yul\":24889:25308   */\n      swap2\n      swap1\n      pop\n      jump\t// out\n        /* \"#utility.yul\":25314:25552   */\n    tag_581:\n        /* \"#utility.yul\":25454:25488   */\n      0x416666696c6961746520636f6465206d757374206265206265747765656e2033\n        /* \"#utility.yul\":25450:25451   */\n      0x00\n        /* \"#utility.yul\":25442:25448   */\n      dup3\n        /* \"#utility.yul\":25438:25452   */\n      add\n        /* \"#utility.yul\":25431:25489   */\n      mstore\n        /* \"#utility.yul\":25523:25544   */\n      0x20616e6420323020636861726163746572732e00000000000000000000000000\n        /* \"#utility.yul\":25518:25520   */\n      0x20\n        /* \"#utility.yul\":25510:25516   */\n      dup3\n        /* \"#utility.yul\":25506:25521   */\n      add\n        /* \"#utility.yul\":25499:25545   */\n      mstore\n        /* \"#utility.yul\":25314:25552   */\n      pop\n      jump\t// out\n        /* \"#utility.yul\":25558:25924   */\n    tag_582:\n        /* \"#utility.yul\":25700:25703   */\n      0x00\n        /* \"#utility.yul\":25721:25788   */\n      tag_863\n        /* \"#utility.yul\":25785:25787   */\n      0x33\n        /* \"#utility.yul\":25780:25783   */\n      dup4\n        /* \"#utility.yul\":25721:25788   */\n      tag_531\n      jump\t// in\n    tag_863:\n        /* \"#utility.yul\":25714:25788   */\n      swap2\n      pop\n        /* \"#utility.yul\":25797:25890   */\n      tag_864\n        /* \"#utility.yul\":25886:25889   */\n      dup3\n        /* \"#utility.yul\":25797:25890   */\n      tag_581\n      jump\t// in\n    tag_864:\n        /* \"#utility.yul\":25915:25917   */\n      0x40\n        /* \"#utility.yul\":25910:25913   */\n      dup3\n        /* \"#utility.yul\":25906:25918   */\n      add\n        /* \"#utility.yul\":25899:25918   */\n      swap1\n      pop\n        /* \"#utility.yul\":25558:25924   */\n      swap2\n      swap1\n      pop\n      jump\t// out\n        /* \"#utility.yul\":25930:26349   */\n    tag_344:\n        /* \"#utility.yul\":26096:26100   */\n      0x00\n        /* \"#utility.yul\":26134:26136   */\n      0x20\n        /* \"#utility.yul\":26123:26132   */\n      dup3\n        /* \"#utility.yul\":26119:26137   */\n      add\n        /* \"#utility.yul\":26111:26137   */\n      swap1\n      pop\n        /* \"#utility.yul\":26183:26192   */\n      dup2\n        /* \"#utility.yul\":26177:26181   */\n      dup2\n        /* \"#utility.yul\":26173:26193   */\n      sub\n        /* \"#utility.yul\":26169:26170   */\n      0x00\n        /* \"#utility.yul\":26158:26167   */\n      dup4\n        /* \"#utility.yul\":26154:26171   */\n      add\n        /* \"#utility.yul\":26147:26194   */\n      mstore\n        /* \"#utility.yul\":26211:26342   */\n      tag_866\n        /* \"#utility.yul\":26337:26341   */\n      dup2\n        /* \"#utility.yul\":26211:26342   */\n      tag_582\n      jump\t// in\n    tag_866:\n        /* \"#utility.yul\":26203:26342   */\n      swap1\n      pop\n        /* \"#utility.yul\":25930:26349   */\n      swap2\n      swap1\n      pop\n      jump\t// out\n        /* \"#utility.yul\":26355:26533   */\n    tag_583:\n        /* \"#utility.yul\":26495:26525   */\n      0x416666696c6961746520636f646520616c72656164792074616b656e00000000\n        /* \"#utility.yul\":26491:26492   */\n      0x00\n        /* \"#utility.yul\":26483:26489   */\n      dup3\n        /* \"#utility.yul\":26479:26493   */\n      add\n        /* \"#utility.yul\":26472:26526   */\n      mstore\n        /* \"#utility.yul\":26355:26533   */\n      pop\n      jump\t// out\n        /* \"#utility.yul\":26539:26905   */\n    tag_584:\n        /* \"#utility.yul\":26681:26684   */\n      0x00\n        /* \"#utility.yul\":26702:26769   */\n      tag_869\n        /* \"#utility.yul\":26766:26768   */\n      0x1c\n        /* \"#utility.yul\":26761:26764   */\n      dup4\n        /* \"#utility.yul\":26702:26769   */\n      tag_531\n      jump\t// in\n    tag_869:\n        /* \"#utility.yul\":26695:26769   */\n      swap2\n      pop\n        /* \"#utility.yul\":26778:26871   */\n      tag_870\n        /* \"#utility.yul\":26867:26870   */\n      dup3\n        /* \"#utility.yul\":26778:26871   */\n      tag_583\n      jump\t// in\n    tag_870:\n        /* \"#utility.yul\":26896:26898   */\n      0x20\n        /* \"#utility.yul\":26891:26894   */\n      dup3\n        /* \"#utility.yul\":26887:26899   */\n      add\n        /* \"#utility.yul\":26880:26899   */\n      swap1\n      pop\n        /* \"#utility.yul\":26539:26905   */\n      swap2\n      swap1\n      pop\n      jump\t// out\n        /* \"#utility.yul\":26911:27330   */\n    tag_348:\n        /* \"#utility.yul\":27077:27081   */\n      0x00\n        /* \"#utility.yul\":27115:27117   */\n      0x20\n        /* \"#utility.yul\":27104:27113   */\n      dup3\n        /* \"#utility.yul\":27100:27118   */\n      add\n        /* \"#utility.yul\":27092:27118   */\n      swap1\n      pop\n        /* \"#utility.yul\":27164:27173   */\n      dup2\n        /* \"#utility.yul\":27158:27162   */\n      dup2\n        /* \"#utility.yul\":27154:27174   */\n      sub\n        /* \"#utility.yul\":27150:27151   */\n      0x00\n        /* \"#utility.yul\":27139:27148   */\n      dup4\n        /* \"#utility.yul\":27135:27152   */\n      add\n        /* \"#utility.yul\":27128:27175   */\n      mstore\n        /* \"#utility.yul\":27192:27323   */\n      tag_872\n        /* \"#utility.yul\":27318:27322   */\n      dup2\n        /* \"#utility.yul\":27192:27323   */\n      tag_584\n      jump\t// in\n    tag_872:\n        /* \"#utility.yul\":27184:27323   */\n      swap1\n      pop\n        /* \"#utility.yul\":26911:27330   */\n      swap2\n      swap1\n      pop\n      jump\t// out\n        /* \"#utility.yul\":27336:27433   */\n    tag_585:\n        /* \"#utility.yul\":27395:27401   */\n      0x00\n        /* \"#utility.yul\":27423:27426   */\n      dup3\n        /* \"#utility.yul\":27413:27426   */\n      swap1\n      pop\n        /* \"#utility.yul\":27336:27433   */\n      swap3\n      swap2\n      pop\n      pop\n      jump\t// out\n        /* \"#utility.yul\":27439:27580   */\n    tag_586:\n        /* \"#utility.yul\":27488:27492   */\n      0x00\n        /* \"#utility.yul\":27511:27514   */\n      dup2\n        /* \"#utility.yul\":27503:27514   */\n      swap1\n      pop\n        /* \"#utility.yul\":27534:27537   */\n      dup2\n        /* \"#utility.yul\":27531:27532   */\n      0x00\n        /* \"#utility.yul\":27524:27538   */\n      mstore\n        /* \"#utility.yul\":27568:27572   */\n      0x20\n        /* \"#utility.yul\":27565:27566   */\n      0x00\n        /* \"#utility.yul\":27555:27573   */\n      keccak256\n        /* \"#utility.yul\":27547:27573   */\n      swap1\n      pop\n        /* \"#utility.yul\":27439:27580   */\n      swap2\n      swap1\n      pop\n      jump\t// out\n        /* \"#utility.yul\":27586:27679   */\n    tag_587:\n        /* \"#utility.yul\":27623:27629   */\n      0x00\n        /* \"#utility.yul\":27670:27672   */\n      0x20\n        /* \"#utility.yul\":27665:27667   */\n      0x1f\n        /* \"#utility.yul\":27658:27663   */\n      dup4\n        /* \"#utility.yul\":27654:27668   */\n      add\n        /* \"#utility.yul\":27650:27673   */\n      div\n        /* \"#utility.yul\":27640:27673   */\n      swap1\n      pop\n        /* \"#utility.yul\":27586:27679   */\n      swap2\n      swap1\n      pop\n      jump\t// out\n        /* \"#utility.yul\":27685:27792   */\n    tag_588:\n        /* \"#utility.yul\":27729:27737   */\n      0x00\n        /* \"#utility.yul\":27779:27784   */\n      dup3\n        /* \"#utility.yul\":27773:27777   */\n      dup3\n        /* \"#utility.yul\":27769:27785   */\n      shl\n        /* \"#utility.yul\":27748:27785   */\n      swap1\n      pop\n        /* \"#utility.yul\":27685:27792   */\n      swap3\n      swap2\n      pop\n      pop\n      jump\t// out\n        /* \"#utility.yul\":27798:28191   */\n    tag_589:\n        /* \"#utility.yul\":27867:27873   */\n      0x00\n        /* \"#utility.yul\":27917:27918   */\n      0x08\n        /* \"#utility.yul\":27905:27915   */\n      dup4\n        /* \"#utility.yul\":27901:27919   */\n      mul\n        /* \"#utility.yul\":27940:28037   */\n      tag_878\n        /* \"#utility.yul\":27970:28036   */\n      0xffffffffffffffffffffffffffffffffffffffffffffffffffffffffffffffff\n        /* \"#utility.yul\":27959:27968   */\n      dup3\n        /* \"#utility.yul\":27940:28037   */\n      tag_588\n      jump\t// in\n    tag_878:\n        /* \"#utility.yul\":28058:28097   */\n      tag_879\n        /* \"#utility.yul\":28088:28096   */\n      dup7\n        /* \"#utility.yul\":28077:28086   */\n      dup4\n        /* \"#utility.yul\":28058:28097   */\n      tag_588\n      jump\t// in\n    tag_879:\n        /* \"#utility.yul\":28046:28097   */\n      swap6\n      pop\n        /* \"#utility.yul\":28130:28134   */\n      dup1\n        /* \"#utility.yul\":28126:28135   */\n      not\n        /* \"#utility.yul\":28119:28124   */\n      dup5\n        /* \"#utility.yul\":28115:28136   */\n      and\n        /* \"#utility.yul\":28106:28136   */\n      swap4\n      pop\n        /* \"#utility.yul\":28179:28183   */\n      dup1\n        /* \"#utility.yul\":28169:28177   */\n      dup7\n        /* \"#utility.yul\":28165:28184   */\n      and\n        /* \"#utility.yul\":28158:28163   */\n      dup5\n        /* \"#utility.yul\":28155:28185   */\n      or\n        /* \"#utility.yul\":28145:28185   */\n      swap3\n      pop\n        /* \"#utility.yul\":27874:28191   */\n      pop\n      pop\n        /* \"#utility.yul\":27798:28191   */\n      swap4\n      swap3\n      pop\n      pop\n      pop\n      jump\t// out\n        /* \"#utility.yul\":28197:28257   */\n    tag_590:\n        /* \"#utility.yul\":28225:28228   */\n      0x00\n        /* \"#utility.yul\":28246:28251   */\n      dup2\n        /* \"#utility.yul\":28239:28251   */\n      swap1\n      pop\n        /* \"#utility.yul\":28197:28257   */\n      swap2\n      swap1\n      pop\n      jump\t// out\n        /* \"#utility.yul\":28263:28405   */\n    tag_591:\n        /* \"#utility.yul\":28313:28322   */\n      0x00\n        /* \"#utility.yul\":28346:28399   */\n      tag_882\n        /* \"#utility.yul\":28364:28398   */\n      tag_883\n        /* \"#utility.yul\":28373:28397   */\n      tag_884\n        /* \"#utility.yul\":28391:28396   */\n      dup5\n        /* \"#utility.yul\":28373:28397   */\n      tag_535\n      jump\t// in\n    tag_884:\n        /* \"#utility.yul\":28364:28398   */\n      tag_590\n      jump\t// in\n    tag_883:\n        /* \"#utility.yul\":28346:28399   */\n      tag_535\n      jump\t// in\n    tag_882:\n        /* \"#utility.yul\":28333:28399   */\n      swap1\n      pop\n        /* \"#utility.yul\":28263:28405   */\n      swap2\n      swap1\n      pop\n      jump\t// out\n        /* \"#utility.yul\":28411:28486   */\n    tag_592:\n        /* \"#utility.yul\":28454:28457   */\n      0x00\n        /* \"#utility.yul\":28475:28480   */\n      dup2\n        /* \"#utility.yul\":28468:28480   */\n      swap1\n      pop\n        /* \"#utility.yul\":28411:28486   */\n      swap2\n      swap1\n      pop\n      jump\t// out\n        /* \"#utility.yul\":28492:28761   */\n    tag_593:\n        /* \"#utility.yul\":28602:28641   */\n      tag_887\n        /* \"#utility.yul\":28633:28640   */\n      dup4\n        /* \"#utility.yul\":28602:28641   */\n      tag_591\n      jump\t// in\n    tag_887:\n        /* \"#utility.yul\":28663:28754   */\n      tag_888\n        /* \"#utility.yul\":28712:28753   */\n      tag_889\n        /* \"#utility.yul\":28736:28752   */\n      dup3\n        /* \"#utility.yul\":28712:28753   */\n      tag_592\n      jump\t// in\n    tag_889:\n        /* \"#utility.yul\":28704:28710   */\n      dup5\n        /* \"#utility.yul\":28697:28701   */\n      dup5\n        /* \"#utility.yul\":28691:28702   */\n      sload\n        /* \"#utility.yul\":28663:28754   */\n      tag_589\n      jump\t// in\n    tag_888:\n        /* \"#utility.yul\":28657:28661   */\n      dup3\n        /* \"#utility.yul\":28650:28755   */\n      sstore\n        /* \"#utility.yul\":28568:28761   */\n      pop\n        /* \"#utility.yul\":28492:28761   */\n      pop\n      pop\n      pop\n      jump\t// out\n        /* \"#utility.yul\":28767:28840   */\n    tag_594:\n        /* \"#utility.yul\":28812:28815   */\n      0x00\n        /* \"#utility.yul\":28767:28840   */\n      swap1\n      jump\t// out\n        /* \"#utility.yul\":28846:29035   */\n    tag_595:\n        /* \"#utility.yul\":28923:28955   */\n      tag_892\n      tag_594\n      jump\t// in\n    tag_892:\n        /* \"#utility.yul\":28964:29029   */\n      tag_893\n        /* \"#utility.yul\":29022:29028   */\n      dup2\n        /* \"#utility.yul\":29014:29020   */\n      dup5\n        /* \"#utility.yul\":29008:29012   */\n      dup5\n        /* \"#utility.yul\":28964:29029   */\n      tag_593\n      jump\t// in\n    tag_893:\n        /* \"#utility.yul\":28899:29035   */\n      pop\n        /* \"#utility.yul\":28846:29035   */\n      pop\n      pop\n      jump\t// out\n        /* \"#utility.yul\":29041:29227   */\n    tag_596:\n        /* \"#utility.yul\":29101:29221   */\n    tag_895:\n        /* \"#utility.yul\":29118:29121   */\n      dup2\n        /* \"#utility.yul\":29111:29116   */\n      dup2\n        /* \"#utility.yul\":29108:29122   */\n      lt\n        /* \"#utility.yul\":29101:29221   */\n      iszero\n      tag_897\n      jumpi\n        /* \"#utility.yul\":29172:29211   */\n      tag_898\n        /* \"#utility.yul\":29209:29210   */\n      0x00\n        /* \"#utility.yul\":29202:29207   */\n      dup3\n        /* \"#utility.yul\":29172:29211   */\n      tag_595\n      jump\t// in\n    tag_898:\n        /* \"#utility.yul\":29145:29146   */\n      0x01\n        /* \"#utility.yul\":29138:29143   */\n      dup2\n        /* \"#utility.yul\":29134:29147   */\n      add\n        /* \"#utility.yul\":29125:29147   */\n      swap1\n      pop\n        /* \"#utility.yul\":29101:29221   */\n      jump(tag_895)\n    tag_897:\n        /* \"#utility.yul\":29041:29227   */\n      pop\n      pop\n      jump\t// out\n        /* \"#utility.yul\":29233:29776   */\n    tag_597:\n        /* \"#utility.yul\":29334:29336   */\n      0x1f\n        /* \"#utility.yul\":29329:29332   */\n      dup3\n        /* \"#utility.yul\":29326:29337   */\n      gt\n        /* \"#utility.yul\":29323:29769   */\n      iszero\n      tag_900\n      jumpi\n        /* \"#utility.yul\":29368:29406   */\n      tag_901\n        /* \"#utility.yul\":29400:29405   */\n      dup2\n        /* \"#utility.yul\":29368:29406   */\n      tag_586\n      jump\t// in\n    tag_901:\n        /* \"#utility.yul\":29452:29481   */\n      tag_902\n        /* \"#utility.yul\":29470:29480   */\n      dup5\n        /* \"#utility.yul\":29452:29481   */\n      tag_587\n      jump\t// in\n    tag_902:\n        /* \"#utility.yul\":29442:29450   */\n      dup2\n        /* \"#utility.yul\":29438:29482   */\n      add\n        /* \"#utility.yul\":29635:29637   */\n      0x20\n        /* \"#utility.yul\":29623:29633   */\n      dup6\n        /* \"#utility.yul\":29620:29638   */\n      lt\n        /* \"#utility.yul\":29617:29666   */\n      iszero\n      tag_903\n      jumpi\n        /* \"#utility.yul\":29656:29664   */\n      dup2\n        /* \"#utility.yul\":29641:29664   */\n      swap1\n      pop\n        /* \"#utility.yul\":29617:29666   */\n    tag_903:\n        /* \"#utility.yul\":29679:29759   */\n      tag_904\n        /* \"#utility.yul\":29735:29757   */\n      tag_905\n        /* \"#utility.yul\":29753:29756   */\n      dup6\n        /* \"#utility.yul\":29735:29757   */\n      tag_587\n      jump\t// in\n    tag_905:\n        /* \"#utility.yul\":29725:29733   */\n      dup4\n        /* \"#utility.yul\":29721:29758   */\n      add\n        /* \"#utility.yul\":29708:29719   */\n      dup3\n        /* \"#utility.yul\":29679:29759   */\n      tag_596\n      jump\t// in\n    tag_904:\n        /* \"#utility.yul\":29338:29769   */\n      pop\n      pop\n        /* \"#utility.yul\":29323:29769   */\n    tag_900:\n        /* \"#utility.yul\":29233:29776   */\n      pop\n      pop\n      pop\n      jump\t// out\n        /* \"#utility.yul\":29782:29899   */\n    tag_598:\n        /* \"#utility.yul\":29836:29844   */\n      0x00\n        /* \"#utility.yul\":29886:29891   */\n      dup3\n        /* \"#utility.yul\":29880:29884   */\n      dup3\n        /* \"#utility.yul\":29876:29892   */\n      shr\n        /* \"#utility.yul\":29855:29892   */\n      swap1\n      pop\n        /* \"#utility.yul\":29782:29899   */\n      swap3\n      swap2\n      pop\n      pop\n      jump\t// out\n        /* \"#utility.yul\":29905:30074   */\n    tag_599:\n        /* \"#utility.yul\":29949:29955   */\n      0x00\n        /* \"#utility.yul\":29982:30033   */\n      tag_908\n        /* \"#utility.yul\":30030:30031   */\n      0x00\n        /* \"#utility.yul\":30026:30032   */\n      not\n        /* \"#utility.yul\":30018:30023   */\n      dup5\n        /* \"#utility.yul\":30015:30016   */\n      0x08\n        /* \"#utility.yul\":30011:30024   */\n      mul\n        /* \"#utility.yul\":29982:30033   */\n      tag_598\n      jump\t// in\n    tag_908:\n        /* \"#utility.yul\":29978:30034   */\n      not\n        /* \"#utility.yul\":30063:30067   */\n      dup1\n        /* \"#utility.yul\":30057:30061   */\n      dup4\n        /* \"#utility.yul\":30053:30068   */\n      and\n        /* \"#utility.yul\":30043:30068   */\n      swap2\n      pop\n        /* \"#utility.yul\":29956:30074   */\n      pop\n        /* \"#utility.yul\":29905:30074   */\n      swap3\n      swap2\n      pop\n      pop\n      jump\t// out\n        /* \"#utility.yul\":30079:30374   */\n    tag_600:\n        /* \"#utility.yul\":30155:30159   */\n      0x00\n        /* \"#utility.yul\":30301:30330   */\n      tag_910\n        /* \"#utility.yul\":30326:30329   */\n      dup4\n        /* \"#utility.yul\":30320:30324   */\n      dup4\n        /* \"#utility.yul\":30301:30330   */\n      tag_599\n      jump\t// in\n    tag_910:\n        /* \"#utility.yul\":30293:30330   */\n      swap2\n      pop\n        /* \"#utility.yul\":30363:30366   */\n      dup3\n        /* \"#utility.yul\":30360:30361   */\n      0x02\n        /* \"#utility.yul\":30356:30367   */\n      mul\n        /* \"#utility.yul\":30350:30354   */\n      dup3\n        /* \"#utility.yul\":30347:30368   */\n      or\n        /* \"#utility.yul\":30339:30368   */\n      swap1\n      pop\n        /* \"#utility.yul\":30079:30374   */\n      swap3\n      swap2\n      pop\n      pop\n      jump\t// out\n        /* \"#utility.yul\":30379:31782   */\n    tag_351:\n        /* \"#utility.yul\":30503:30547   */\n      tag_912\n        /* \"#utility.yul\":30543:30546   */\n      dup4\n        /* \"#utility.yul\":30538:30541   */\n      dup4\n        /* \"#utility.yul\":30503:30547   */\n      tag_585\n      jump\t// in\n    tag_912:\n        /* \"#utility.yul\":30612:30630   */\n      0xffffffffffffffff\n        /* \"#utility.yul\":30604:30610   */\n      dup2\n        /* \"#utility.yul\":30601:30631   */\n      gt\n        /* \"#utility.yul\":30598:30654   */\n      iszero\n      tag_913\n      jumpi\n        /* \"#utility.yul\":30634:30652   */\n      tag_914\n      tag_549\n      jump\t// in\n    tag_914:\n        /* \"#utility.yul\":30598:30654   */\n    tag_913:\n        /* \"#utility.yul\":30678:30716   */\n      tag_915\n        /* \"#utility.yul\":30710:30714   */\n      dup3\n        /* \"#utility.yul\":30704:30715   */\n      sload\n        /* \"#utility.yul\":30678:30716   */\n      tag_254\n      jump\t// in\n    tag_915:\n        /* \"#utility.yul\":30763:30830   */\n      tag_916\n        /* \"#utility.yul\":30823:30829   */\n      dup3\n        /* \"#utility.yul\":30815:30821   */\n      dup3\n        /* \"#utility.yul\":30809:30813   */\n      dup6\n        /* \"#utility.yul\":30763:30830   */\n      tag_597\n      jump\t// in\n    tag_916:\n        /* \"#utility.yul\":30857:30858   */\n      0x00\n        /* \"#utility.yul\":30886:30888   */\n      0x1f\n        /* \"#utility.yul\":30878:30884   */\n      dup4\n        /* \"#utility.yul\":30875:30889   */\n      gt\n        /* \"#utility.yul\":30903:30904   */\n      0x01\n        /* \"#utility.yul\":30898:31530   */\n      dup2\n      eq\n      tag_918\n      jumpi\n        /* \"#utility.yul\":31574:31575   */\n      0x00\n        /* \"#utility.yul\":31591:31597   */\n      dup5\n        /* \"#utility.yul\":31588:31672   */\n      iszero\n      tag_919\n      jumpi\n        /* \"#utility.yul\":31647:31656   */\n      dup3\n        /* \"#utility.yul\":31642:31645   */\n      dup8\n        /* \"#utility.yul\":31638:31657   */\n      add\n        /* \"#utility.yul\":31625:31658   */\n      calldataload\n        /* \"#utility.yul\":31616:31658   */\n      swap1\n      pop\n        /* \"#utility.yul\":31588:31672   */\n    tag_919:\n        /* \"#utility.yul\":31698:31765   */\n      tag_920\n        /* \"#utility.yul\":31758:31764   */\n      dup6\n        /* \"#utility.yul\":31751:31756   */\n      dup3\n        /* \"#utility.yul\":31698:31765   */\n      tag_600\n      jump\t// in\n    tag_920:\n        /* \"#utility.yul\":31692:31696   */\n      dup7\n        /* \"#utility.yul\":31685:31766   */\n      sstore\n        /* \"#utility.yul\":31547:31776   */\n      pop\n        /* \"#utility.yul\":30868:31776   */\n      jump(tag_917)\n        /* \"#utility.yul\":30898:31530   */\n    tag_918:\n        /* \"#utility.yul\":30950:30954   */\n      0x1f\n        /* \"#utility.yul\":30946:30955   */\n      not\n        /* \"#utility.yul\":30938:30944   */\n      dup5\n        /* \"#utility.yul\":30934:30956   */\n      and\n        /* \"#utility.yul\":30984:31021   */\n      tag_921\n        /* \"#utility.yul\":31016:31020   */\n      dup7\n        /* \"#utility.yul\":30984:31021   */\n      tag_586\n      jump\t// in\n    tag_921:\n        /* \"#utility.yul\":31043:31044   */\n      0x00\n        /* \"#utility.yul\":31057:31272   */\n    tag_922:\n        /* \"#utility.yul\":31071:31078   */\n      dup3\n        /* \"#utility.yul\":31068:31069   */\n      dup2\n        /* \"#utility.yul\":31065:31079   */\n      lt\n        /* \"#utility.yul\":31057:31272   */\n      iszero\n      tag_924\n      jumpi\n        /* \"#utility.yul\":31157:31166   */\n      dup5\n        /* \"#utility.yul\":31152:31155   */\n      dup10\n        /* \"#utility.yul\":31148:31167   */\n      add\n        /* \"#utility.yul\":31135:31168   */\n      calldataload\n        /* \"#utility.yul\":31127:31133   */\n      dup3\n        /* \"#utility.yul\":31120:31169   */\n      sstore\n        /* \"#utility.yul\":31208:31209   */\n      0x01\n        /* \"#utility.yul\":31200:31206   */\n      dup3\n        /* \"#utility.yul\":31196:31210   */\n      add\n        /* \"#utility.yul\":31186:31210   */\n      swap2\n      pop\n        /* \"#utility.yul\":31255:31257   */\n      0x20\n        /* \"#utility.yul\":31244:31253   */\n      dup6\n        /* \"#utility.yul\":31240:31258   */\n      add\n        /* \"#utility.yul\":31227:31258   */\n      swap5\n      pop\n        /* \"#utility.yul\":31094:31098   */\n      0x20\n        /* \"#utility.yul\":31091:31092   */\n      dup2\n        /* \"#utility.yul\":31087:31099   */\n      add\n        /* \"#utility.yul\":31082:31099   */\n      swap1\n      pop\n        /* \"#utility.yul\":31057:31272   */\n      jump(tag_922)\n    tag_924:\n        /* \"#utility.yul\":31300:31306   */\n      dup7\n        /* \"#utility.yul\":31291:31298   */\n      dup4\n        /* \"#utility.yul\":31288:31307   */\n      lt\n        /* \"#utility.yul\":31285:31471   */\n      iszero\n      tag_925\n      jumpi\n        /* \"#utility.yul\":31365:31374   */\n      dup5\n        /* \"#utility.yul\":31360:31363   */\n      dup10\n        /* \"#utility.yul\":31356:31375   */\n      add\n        /* \"#utility.yul\":31343:31376   */\n      calldataload\n        /* \"#utility.yul\":31408:31456   */\n      tag_926\n        /* \"#utility.yul\":31450:31454   */\n      0x1f\n        /* \"#utility.yul\":31442:31448   */\n      dup10\n        /* \"#utility.yul\":31438:31455   */\n      and\n        /* \"#utility.yul\":31427:31436   */\n      dup3\n        /* \"#utility.yul\":31408:31456   */\n      tag_599\n      jump\t// in\n    tag_926:\n        /* \"#utility.yul\":31400:31406   */\n      dup4\n        /* \"#utility.yul\":31393:31457   */\n      sstore\n        /* \"#utility.yul\":31308:31471   */\n      pop\n        /* \"#utility.yul\":31285:31471   */\n    tag_925:\n        /* \"#utility.yul\":31517:31518   */\n      0x01\n        /* \"#utility.yul\":31513:31514   */\n      0x02\n        /* \"#utility.yul\":31505:31511   */\n      dup9\n        /* \"#utility.yul\":31501:31515   */\n      mul\n        /* \"#utility.yul\":31497:31519   */\n      add\n        /* \"#utility.yul\":31491:31495   */\n      dup9\n        /* \"#utility.yul\":31484:31520   */\n      sstore\n        /* \"#utility.yul\":30905:31530   */\n      pop\n      pop\n      pop\n        /* \"#utility.yul\":30868:31776   */\n    tag_917:\n      pop\n        /* \"#utility.yul\":30478:31782   */\n      pop\n      pop\n      pop\n        /* \"#utility.yul\":30379:31782   */\n      pop\n      pop\n      pop\n      jump\t// out\n        /* \"#utility.yul\":31788:31965   */\n    tag_601:\n        /* \"#utility.yul\":31928:31957   */\n      0x56657374696e6720686173206e6f742073746172746564207965740000000000\n        /* \"#utility.yul\":31924:31925   */\n      0x00\n        /* \"#utility.yul\":31916:31922   */\n      dup3\n        /* \"#utility.yul\":31912:31926   */\n      add\n        /* \"#utility.yul\":31905:31958   */\n      mstore\n        /* \"#utility.yul\":31788:31965   */\n      pop\n      jump\t// out\n        /* \"#utility.yul\":31971:32337   */\n    tag_602:\n        /* \"#utility.yul\":32113:32116   */\n      0x00\n        /* \"#utility.yul\":32134:32201   */\n      tag_929\n        /* \"#utility.yul\":32198:32200   */\n      0x1b\n        /* \"#utility.yul\":32193:32196   */\n      dup4\n        /* \"#utility.yul\":32134:32201   */\n      tag_531\n      jump\t// in\n    tag_929:\n        /* \"#utility.yul\":32127:32201   */\n      swap2\n      pop\n        /* \"#utility.yul\":32210:32303   */\n      tag_930\n        /* \"#utility.yul\":32299:32302   */\n      dup3\n        /* \"#utility.yul\":32210:32303   */\n      tag_601\n      jump\t// in\n    tag_930:\n        /* \"#utility.yul\":32328:32330   */\n      0x20\n        /* \"#utility.yul\":32323:32326   */\n      dup3\n        /* \"#utility.yul\":32319:32331   */\n      add\n        /* \"#utility.yul\":32312:32331   */\n      swap1\n      pop\n        /* \"#utility.yul\":31971:32337   */\n      swap2\n      swap1\n      pop\n      jump\t// out\n        /* \"#utility.yul\":32343:32762   */\n    tag_357:\n        /* \"#utility.yul\":32509:32513   */\n      0x00\n        /* \"#utility.yul\":32547:32549   */\n      0x20\n        /* \"#utility.yul\":32536:32545   */\n      dup3\n        /* \"#utility.yul\":32532:32550   */\n      add\n        /* \"#utility.yul\":32524:32550   */\n      swap1\n      pop\n        /* \"#utility.yul\":32596:32605   */\n      dup2\n        /* \"#utility.yul\":32590:32594   */\n      dup2\n        /* \"#utility.yul\":32586:32606   */\n      sub\n        /* \"#utility.yul\":32582:32583   */\n      0x00\n        /* \"#utility.yul\":32571:32580   */\n      dup4\n        /* \"#utility.yul\":32567:32584   */\n      add\n        /* \"#utility.yul\":32560:32607   */\n      mstore\n        /* \"#utility.yul\":32624:32755   */\n      tag_932\n        /* \"#utility.yul\":32750:32754   */\n      dup2\n        /* \"#utility.yul\":32624:32755   */\n      tag_602\n      jump\t// in\n    tag_932:\n        /* \"#utility.yul\":32616:32755   */\n      swap1\n      pop\n        /* \"#utility.yul\":32343:32762   */\n      swap2\n      swap1\n      pop\n      jump\t// out\n        /* \"#utility.yul\":32768:32962   */\n    tag_359:\n        /* \"#utility.yul\":32808:32812   */\n      0x00\n        /* \"#utility.yul\":32828:32848   */\n      tag_934\n        /* \"#utility.yul\":32846:32847   */\n      dup3\n        /* \"#utility.yul\":32828:32848   */\n      tag_535\n      jump\t// in\n    tag_934:\n        /* \"#utility.yul\":32823:32848   */\n      swap2\n      pop\n        /* \"#utility.yul\":32862:32882   */\n      tag_935\n        /* \"#utility.yul\":32880:32881   */\n      dup4\n        /* \"#utility.yul\":32862:32882   */\n      tag_535\n      jump\t// in\n    tag_935:\n        /* \"#utility.yul\":32857:32882   */\n      swap3\n      pop\n        /* \"#utility.yul\":32906:32907   */\n      dup3\n        /* \"#utility.yul\":32903:32904   */\n      dup3\n        /* \"#utility.yul\":32899:32908   */\n      sub\n        /* \"#utility.yul\":32891:32908   */\n      swap1\n      pop\n        /* \"#utility.yul\":32930:32931   */\n      dup2\n        /* \"#utility.yul\":32924:32928   */\n      dup2\n        /* \"#utility.yul\":32921:32932   */\n      gt\n        /* \"#utility.yul\":32918:32955   */\n      iszero\n      tag_936\n      jumpi\n        /* \"#utility.yul\":32935:32953   */\n      tag_937\n      tag_571\n      jump\t// in\n    tag_937:\n        /* \"#utility.yul\":32918:32955   */\n    tag_936:\n        /* \"#utility.yul\":32768:32962   */\n      swap3\n      swap2\n      pop\n      pop\n      jump\t// out\n        /* \"#utility.yul\":32968:33149   */\n    tag_603:\n        /* \"#utility.yul\":33108:33141   */\n      0x4e6f20746f6b656e7320617661696c61626c6520666f722072656c6561736500\n        /* \"#utility.yul\":33104:33105   */\n      0x00\n        /* \"#utility.yul\":33096:33102   */\n      dup3\n        /* \"#utility.yul\":33092:33106   */\n      add\n        /* \"#utility.yul\":33085:33142   */\n      mstore\n        /* \"#utility.yul\":32968:33149   */\n      pop\n      jump\t// out\n        /* \"#utility.yul\":33155:33521   */\n    tag_604:\n        /* \"#utility.yul\":33297:33300   */\n      0x00\n        /* \"#utility.yul\":33318:33385   */\n      tag_940\n        /* \"#utility.yul\":33382:33384   */\n      0x1f\n        /* \"#utility.yul\":33377:33380   */\n      dup4\n        /* \"#utility.yul\":33318:33385   */\n      tag_531\n      jump\t// in\n    tag_940:\n        /* \"#utility.yul\":33311:33385   */\n      swap2\n      pop\n        /* \"#utility.yul\":33394:33487   */\n      tag_941\n        /* \"#utility.yul\":33483:33486   */\n      dup3\n        /* \"#utility.yul\":33394:33487   */\n      tag_603\n      jump\t// in\n    tag_941:\n        /* \"#utility.yul\":33512:33514   */\n      0x20\n        /* \"#utility.yul\":33507:33510   */\n      dup3\n        /* \"#utility.yul\":33503:33515   */\n      add\n        /* \"#utility.yul\":33496:33515   */\n      swap1\n      pop\n        /* \"#utility.yul\":33155:33521   */\n      swap2\n      swap1\n      pop\n      jump\t// out\n        /* \"#utility.yul\":33527:33946   */\n    tag_365:\n        /* \"#utility.yul\":33693:33697   */\n      0x00\n        /* \"#utility.yul\":33731:33733   */\n      0x20\n        /* \"#utility.yul\":33720:33729   */\n      dup3\n        /* \"#utility.yul\":33716:33734   */\n      add\n        /* \"#utility.yul\":33708:33734   */\n      swap1\n      pop\n        /* \"#utility.yul\":33780:33789   */\n      dup2\n        /* \"#utility.yul\":33774:33778   */\n      dup2\n        /* \"#utility.yul\":33770:33790   */\n      sub\n        /* \"#utility.yul\":33766:33767   */\n      0x00\n        /* \"#utility.yul\":33755:33764   */\n      dup4\n        /* \"#utility.yul\":33751:33768   */\n      add\n        /* \"#utility.yul\":33744:33791   */\n      mstore\n        /* \"#utility.yul\":33808:33939   */\n      tag_943\n        /* \"#utility.yul\":33934:33938   */\n      dup2\n        /* \"#utility.yul\":33808:33939   */\n      tag_604\n      jump\t// in\n    tag_943:\n        /* \"#utility.yul\":33800:33939   */\n      swap1\n      pop\n        /* \"#utility.yul\":33527:33946   */\n      swap2\n      swap1\n      pop\n      jump\t// out\n        /* \"#utility.yul\":33952:34120   */\n    tag_605:\n        /* \"#utility.yul\":34092:34112   */\n      0x496e76616c69642070657263656e746167650000000000000000000000000000\n        /* \"#utility.yul\":34088:34089   */\n      0x00\n        /* \"#utility.yul\":34080:34086   */\n      dup3\n        /* \"#utility.yul\":34076:34090   */\n      add\n        /* \"#utility.yul\":34069:34113   */\n      mstore\n        /* \"#utility.yul\":33952:34120   */\n      pop\n      jump\t// out\n        /* \"#utility.yul\":34126:34492   */\n    tag_606:\n        /* \"#utility.yul\":34268:34271   */\n      0x00\n        /* \"#utility.yul\":34289:34356   */\n      tag_946\n        /* \"#utility.yul\":34353:34355   */\n      0x12\n        /* \"#utility.yul\":34348:34351   */\n      dup4\n        /* \"#utility.yul\":34289:34356   */\n      tag_531\n      jump\t// in\n    tag_946:\n        /* \"#utility.yul\":34282:34356   */\n      swap2\n      pop\n        /* \"#utility.yul\":34365:34458   */\n      tag_947\n        /* \"#utility.yul\":34454:34457   */\n      dup3\n        /* \"#utility.yul\":34365:34458   */\n      tag_605\n      jump\t// in\n    tag_947:\n        /* \"#utility.yul\":34483:34485   */\n      0x20\n        /* \"#utility.yul\":34478:34481   */\n      dup3\n        /* \"#utility.yul\":34474:34486   */\n      add\n        /* \"#utility.yul\":34467:34486   */\n      swap1\n      pop\n        /* \"#utility.yul\":34126:34492   */\n      swap2\n      swap1\n      pop\n      jump\t// out\n        /* \"#utility.yul\":34498:34917   */\n    tag_377:\n        /* \"#utility.yul\":34664:34668   */\n      0x00\n        /* \"#utility.yul\":34702:34704   */\n      0x20\n        /* \"#utility.yul\":34691:34700   */\n      dup3\n        /* \"#utility.yul\":34687:34705   */\n      add\n        /* \"#utility.yul\":34679:34705   */\n      swap1\n      pop\n        /* \"#utility.yul\":34751:34760   */\n      dup2\n        /* \"#utility.yul\":34745:34749   */\n      dup2\n        /* \"#utility.yul\":34741:34761   */\n      sub\n        /* \"#utility.yul\":34737:34738   */\n      0x00\n        /* \"#utility.yul\":34726:34735   */\n      dup4\n        /* \"#utility.yul\":34722:34739   */\n      add\n        /* \"#utility.yul\":34715:34762   */\n      mstore\n        /* \"#utility.yul\":34779:34910   */\n      tag_949\n        /* \"#utility.yul\":34905:34909   */\n      dup2\n        /* \"#utility.yul\":34779:34910   */\n      tag_606\n      jump\t// in\n    tag_949:\n        /* \"#utility.yul\":34771:34910   */\n      swap1\n      pop\n        /* \"#utility.yul\":34498:34917   */\n      swap2\n      swap1\n      pop\n      jump\t// out\n        /* \"#utility.yul\":34923:35155   */\n    tag_607:\n        /* \"#utility.yul\":35063:35097   */\n      0x4d696e696d756d20746f6b656e206c696d6974206d7573742062652067726561\n        /* \"#utility.yul\":35059:35060   */\n      0x00\n        /* \"#utility.yul\":35051:35057   */\n      dup3\n        /* \"#utility.yul\":35047:35061   */\n      add\n        /* \"#utility.yul\":35040:35098   */\n      mstore\n        /* \"#utility.yul\":35132:35147   */\n      0x746572207468616e207a65726f00000000000000000000000000000000000000\n        /* \"#utility.yul\":35127:35129   */\n      0x20\n        /* \"#utility.yul\":35119:35125   */\n      dup3\n        /* \"#utility.yul\":35115:35130   */\n      add\n        /* \"#utility.yul\":35108:35148   */\n      mstore\n        /* \"#utility.yul\":34923:35155   */\n      pop\n      jump\t// out\n        /* \"#utility.yul\":35161:35527   */\n    tag_608:\n        /* \"#utility.yul\":35303:35306   */\n      0x00\n        /* \"#utility.yul\":35324:35391   */\n      tag_952\n        /* \"#utility.yul\":35388:35390   */\n      0x2d\n        /* \"#utility.yul\":35383:35386   */\n      dup4\n        /* \"#utility.yul\":35324:35391   */\n      tag_531\n      jump\t// in\n    tag_952:\n        /* \"#utility.yul\":35317:35391   */\n      swap2\n      pop\n        /* \"#utility.yul\":35400:35493   */\n      tag_953\n        /* \"#utility.yul\":35489:35492   */\n      dup3\n        /* \"#utility.yul\":35400:35493   */\n      tag_607\n      jump\t// in\n    tag_953:\n        /* \"#utility.yul\":35518:35520   */\n      0x40\n        /* \"#utility.yul\":35513:35516   */\n      dup3\n        /* \"#utility.yul\":35509:35521   */\n      add\n        /* \"#utility.yul\":35502:35521   */\n      swap1\n      pop\n        /* \"#utility.yul\":35161:35527   */\n      swap2\n      swap1\n      pop\n      jump\t// out\n        /* \"#utility.yul\":35533:35952   */\n    tag_395:\n        /* \"#utility.yul\":35699:35703   */\n      0x00\n        /* \"#utility.yul\":35737:35739   */\n      0x20\n        /* \"#utility.yul\":35726:35735   */\n      dup3\n        /* \"#utility.yul\":35722:35740   */\n      add\n        /* \"#utility.yul\":35714:35740   */\n      swap1\n      pop\n        /* \"#utility.yul\":35786:35795   */\n      dup2\n        /* \"#utility.yul\":35780:35784   */\n      dup2\n        /* \"#utility.yul\":35776:35796   */\n      sub\n        /* \"#utility.yul\":35772:35773   */\n      0x00\n        /* \"#utility.yul\":35761:35770   */\n      dup4\n        /* \"#utility.yul\":35757:35774   */\n      add\n        /* \"#utility.yul\":35750:35797   */\n      mstore\n        /* \"#utility.yul\":35814:35945   */\n      tag_955\n        /* \"#utility.yul\":35940:35944   */\n      dup2\n        /* \"#utility.yul\":35814:35945   */\n      tag_608\n      jump\t// in\n    tag_955:\n        /* \"#utility.yul\":35806:35945   */\n      swap1\n      pop\n        /* \"#utility.yul\":35533:35952   */\n      swap2\n      swap1\n      pop\n      jump\t// out\n        /* \"#utility.yul\":35958:36193   */\n    tag_609:\n        /* \"#utility.yul\":36098:36132   */\n      0x4d6178696d756d20746f6b656e206c696d6974206d7573742062652067726561\n        /* \"#utility.yul\":36094:36095   */\n      0x00\n        /* \"#utility.yul\":36086:36092   */\n      dup3\n        /* \"#utility.yul\":36082:36096   */\n      add\n        /* \"#utility.yul\":36075:36133   */\n      mstore\n        /* \"#utility.yul\":36167:36185   */\n      0x746572207468616e206d696e696d756d00000000000000000000000000000000\n        /* \"#utility.yul\":36162:36164   */\n      0x20\n        /* \"#utility.yul\":36154:36160   */\n      dup3\n        /* \"#utility.yul\":36150:36165   */\n      add\n        /* \"#utility.yul\":36143:36186   */\n      mstore\n        /* \"#utility.yul\":35958:36193   */\n      pop\n      jump\t// out\n        /* \"#utility.yul\":36199:36565   */\n    tag_610:\n        /* \"#utility.yul\":36341:36344   */\n      0x00\n        /* \"#utility.yul\":36362:36429   */\n      tag_958\n        /* \"#utility.yul\":36426:36428   */\n      0x30\n        /* \"#utility.yul\":36421:36424   */\n      dup4\n        /* \"#utility.yul\":36362:36429   */\n      tag_531\n      jump\t// in\n    tag_958:\n        /* \"#utility.yul\":36355:36429   */\n      swap2\n      pop\n        /* \"#utility.yul\":36438:36531   */\n      tag_959\n        /* \"#utility.yul\":36527:36530   */\n      dup3\n        /* \"#utility.yul\":36438:36531   */\n      tag_609\n      jump\t// in\n    tag_959:\n        /* \"#utility.yul\":36556:36558   */\n      0x40\n        /* \"#utility.yul\":36551:36554   */\n      dup3\n        /* \"#utility.yul\":36547:36559   */\n      add\n        /* \"#utility.yul\":36540:36559   */\n      swap1\n      pop\n        /* \"#utility.yul\":36199:36565   */\n      swap2\n      swap1\n      pop\n      jump\t// out\n        /* \"#utility.yul\":36571:36990   */\n    tag_398:\n        /* \"#utility.yul\":36737:36741   */\n      0x00\n        /* \"#utility.yul\":36775:36777   */\n      0x20\n        /* \"#utility.yul\":36764:36773   */\n      dup3\n        /* \"#utility.yul\":36760:36778   */\n      add\n        /* \"#utility.yul\":36752:36778   */\n      swap1\n      pop\n        /* \"#utility.yul\":36824:36833   */\n      dup2\n        /* \"#utility.yul\":36818:36822   */\n      dup2\n        /* \"#utility.yul\":36814:36834   */\n      sub\n        /* \"#utility.yul\":36810:36811   */\n      0x00\n        /* \"#utility.yul\":36799:36808   */\n      dup4\n        /* \"#utility.yul\":36795:36812   */\n      add\n        /* \"#utility.yul\":36788:36835   */\n      mstore\n        /* \"#utility.yul\":36852:36983   */\n      tag_961\n        /* \"#utility.yul\":36978:36982   */\n      dup2\n        /* \"#utility.yul\":36852:36983   */\n      tag_610\n      jump\t// in\n    tag_961:\n        /* \"#utility.yul\":36844:36983   */\n      swap1\n      pop\n        /* \"#utility.yul\":36571:36990   */\n      swap2\n      swap1\n      pop\n      jump\t// out\n        /* \"#utility.yul\":36996:37170   */\n    tag_611:\n        /* \"#utility.yul\":37136:37162   */\n      0x41646472657373206e6f7420696e2077686974656c6973740000000000000000\n        /* \"#utility.yul\":37132:37133   */\n      0x00\n        /* \"#utility.yul\":37124:37130   */\n      dup3\n        /* \"#utility.yul\":37120:37134   */\n      add\n        /* \"#utility.yul\":37113:37163   */\n      mstore\n        /* \"#utility.yul\":36996:37170   */\n      pop\n      jump\t// out\n        /* \"#utility.yul\":37176:37542   */\n    tag_612:\n        /* \"#utility.yul\":37318:37321   */\n      0x00\n        /* \"#utility.yul\":37339:37406   */\n      tag_964\n        /* \"#utility.yul\":37403:37405   */\n      0x18\n        /* \"#utility.yul\":37398:37401   */\n      dup4\n        /* \"#utility.yul\":37339:37406   */\n      tag_531\n      jump\t// in\n    tag_964:\n        /* \"#utility.yul\":37332:37406   */\n      swap2\n      pop\n        /* \"#utility.yul\":37415:37508   */\n      tag_965\n        /* \"#utility.yul\":37504:37507   */\n      dup3\n        /* \"#utility.yul\":37415:37508   */\n      tag_611\n      jump\t// in\n    tag_965:\n        /* \"#utility.yul\":37533:37535   */\n      0x20\n        /* \"#utility.yul\":37528:37531   */\n      dup3\n        /* \"#utility.yul\":37524:37536   */\n      add\n        /* \"#utility.yul\":37517:37536   */\n      swap1\n      pop\n        /* \"#utility.yul\":37176:37542   */\n      swap2\n      swap1\n      pop\n      jump\t// out\n        /* \"#utility.yul\":37548:37967   */\n    tag_404:\n        /* \"#utility.yul\":37714:37718   */\n      0x00\n        /* \"#utility.yul\":37752:37754   */\n      0x20\n        /* \"#utility.yul\":37741:37750   */\n      dup3\n        /* \"#utility.yul\":37737:37755   */\n      add\n        /* \"#utility.yul\":37729:37755   */\n      swap1\n      pop\n        /* \"#utility.yul\":37801:37810   */\n      dup2\n        /* \"#utility.yul\":37795:37799   */\n      dup2\n        /* \"#utility.yul\":37791:37811   */\n      sub\n        /* \"#utility.yul\":37787:37788   */\n      0x00\n        /* \"#utility.yul\":37776:37785   */\n      dup4\n        /* \"#utility.yul\":37772:37789   */\n      add\n        /* \"#utility.yul\":37765:37812   */\n      mstore\n        /* \"#utility.yul\":37829:37960   */\n      tag_967\n        /* \"#utility.yul\":37955:37959   */\n      dup2\n        /* \"#utility.yul\":37829:37960   */\n      tag_612\n      jump\t// in\n    tag_967:\n        /* \"#utility.yul\":37821:37960   */\n      swap1\n      pop\n        /* \"#utility.yul\":37548:37967   */\n      swap2\n      swap1\n      pop\n      jump\t// out\n        /* \"#utility.yul\":37973:38144   */\n    tag_613:\n        /* \"#utility.yul\":38113:38136   */\n      0x4e6f20746f6b656e7320746f2077697468647261770000000000000000000000\n        /* \"#utility.yul\":38109:38110   */\n      0x00\n        /* \"#utility.yul\":38101:38107   */\n      dup3\n        /* \"#utility.yul\":38097:38111   */\n      add\n        /* \"#utility.yul\":38090:38137   */\n      mstore\n        /* \"#utility.yul\":37973:38144   */\n      pop\n      jump\t// out\n        /* \"#utility.yul\":38150:38516   */\n    tag_614:\n        /* \"#utility.yul\":38292:38295   */\n      0x00\n        /* \"#utility.yul\":38313:38380   */\n      tag_970\n        /* \"#utility.yul\":38377:38379   */\n      0x15\n        /* \"#utility.yul\":38372:38375   */\n      dup4\n        /* \"#utility.yul\":38313:38380   */\n      tag_531\n      jump\t// in\n    tag_970:\n        /* \"#utility.yul\":38306:38380   */\n      swap2\n      pop\n        /* \"#utility.yul\":38389:38482   */\n      tag_971\n        /* \"#utility.yul\":38478:38481   */\n      dup3\n        /* \"#utility.yul\":38389:38482   */\n      tag_613\n      jump\t// in\n    tag_971:\n        /* \"#utility.yul\":38507:38509   */\n      0x20\n        /* \"#utility.yul\":38502:38505   */\n      dup3\n        /* \"#utility.yul\":38498:38510   */\n      add\n        /* \"#utility.yul\":38491:38510   */\n      swap1\n      pop\n        /* \"#utility.yul\":38150:38516   */\n      swap2\n      swap1\n      pop\n      jump\t// out\n        /* \"#utility.yul\":38522:38941   */\n    tag_411:\n        /* \"#utility.yul\":38688:38692   */\n      0x00\n        /* \"#utility.yul\":38726:38728   */\n      0x20\n        /* \"#utility.yul\":38715:38724   */\n      dup3\n        /* \"#utility.yul\":38711:38729   */\n      add\n        /* \"#utility.yul\":38703:38729   */\n      swap1\n      pop\n        /* \"#utility.yul\":38775:38784   */\n      dup2\n        /* \"#utility.yul\":38769:38773   */\n      dup2\n        /* \"#utility.yul\":38765:38785   */\n      sub\n        /* \"#utility.yul\":38761:38762   */\n      0x00\n        /* \"#utility.yul\":38750:38759   */\n      dup4\n        /* \"#utility.yul\":38746:38763   */\n      add\n        /* \"#utility.yul\":38739:38786   */\n      mstore\n        /* \"#utility.yul\":38803:38934   */\n      tag_973\n        /* \"#utility.yul\":38929:38933   */\n      dup2\n        /* \"#utility.yul\":38803:38934   */\n      tag_614\n      jump\t// in\n    tag_973:\n        /* \"#utility.yul\":38795:38934   */\n      swap1\n      pop\n        /* \"#utility.yul\":38522:38941   */\n      swap2\n      swap1\n      pop\n      jump\t// out\n        /* \"#utility.yul\":38947:39126   */\n    tag_615:\n        /* \"#utility.yul\":39087:39118   */\n      0x507269766174652053616c6520686173206e6f7420737461727465642e000000\n        /* \"#utility.yul\":39083:39084   */\n      0x00\n        /* \"#utility.yul\":39075:39081   */\n      dup3\n        /* \"#utility.yul\":39071:39085   */\n      add\n        /* \"#utility.yul\":39064:39119   */\n      mstore\n        /* \"#utility.yul\":38947:39126   */\n      pop\n      jump\t// out\n        /* \"#utility.yul\":39132:39498   */\n    tag_616:\n        /* \"#utility.yul\":39274:39277   */\n      0x00\n        /* \"#utility.yul\":39295:39362   */\n      tag_976\n        /* \"#utility.yul\":39359:39361   */\n      0x1d\n        /* \"#utility.yul\":39354:39357   */\n      dup4\n        /* \"#utility.yul\":39295:39362   */\n      tag_531\n      jump\t// in\n    tag_976:\n        /* \"#utility.yul\":39288:39362   */\n      swap2\n      pop\n        /* \"#utility.yul\":39371:39464   */\n      tag_977\n        /* \"#utility.yul\":39460:39463   */\n      dup3\n        /* \"#utility.yul\":39371:39464   */\n      tag_615\n      jump\t// in\n    tag_977:\n        /* \"#utility.yul\":39489:39491   */\n      0x20\n        /* \"#utility.yul\":39484:39487   */\n      dup3\n        /* \"#utility.yul\":39480:39492   */\n      add\n        /* \"#utility.yul\":39473:39492   */\n      swap1\n      pop\n        /* \"#utility.yul\":39132:39498   */\n      swap2\n      swap1\n      pop\n      jump\t// out\n        /* \"#utility.yul\":39504:39923   */\n    tag_419:\n        /* \"#utility.yul\":39670:39674   */\n      0x00\n        /* \"#utility.yul\":39708:39710   */\n      0x20\n        /* \"#utility.yul\":39697:39706   */\n      dup3\n        /* \"#utility.yul\":39693:39711   */\n      add\n        /* \"#utility.yul\":39685:39711   */\n      swap1\n      pop\n        /* \"#utility.yul\":39757:39766   */\n      dup2\n        /* \"#utility.yul\":39751:39755   */\n      dup2\n        /* \"#utility.yul\":39747:39767   */\n      sub\n        /* \"#utility.yul\":39743:39744   */\n      0x00\n        /* \"#utility.yul\":39732:39741   */\n      dup4\n        /* \"#utility.yul\":39728:39745   */\n      add\n        /* \"#utility.yul\":39721:39768   */\n      mstore\n        /* \"#utility.yul\":39785:39916   */\n      tag_979\n        /* \"#utility.yul\":39911:39915   */\n      dup2\n        /* \"#utility.yul\":39785:39916   */\n      tag_616\n      jump\t// in\n    tag_979:\n        /* \"#utility.yul\":39777:39916   */\n      swap1\n      pop\n        /* \"#utility.yul\":39504:39923   */\n      swap2\n      swap1\n      pop\n      jump\t// out\n        /* \"#utility.yul\":39929:40106   */\n    tag_617:\n        /* \"#utility.yul\":40069:40098   */\n      0x507269766174652053616c6520616c7265616479206163746976650000000000\n        /* \"#utility.yul\":40065:40066   */\n      0x00\n        /* \"#utility.yul\":40057:40063   */\n      dup3\n        /* \"#utility.yul\":40053:40067   */\n      add\n        /* \"#utility.yul\":40046:40099   */\n      mstore\n        /* \"#utility.yul\":39929:40106   */\n      pop\n      jump\t// out\n        /* \"#utility.yul\":40112:40478   */\n    tag_618:\n        /* \"#utility.yul\":40254:40257   */\n      0x00\n        /* \"#utility.yul\":40275:40342   */\n      tag_982\n        /* \"#utility.yul\":40339:40341   */\n      0x1b\n        /* \"#utility.yul\":40334:40337   */\n      dup4\n        /* \"#utility.yul\":40275:40342   */\n      tag_531\n      jump\t// in\n    tag_982:\n        /* \"#utility.yul\":40268:40342   */\n      swap2\n      pop\n        /* \"#utility.yul\":40351:40444   */\n      tag_983\n        /* \"#utility.yul\":40440:40443   */\n      dup3\n        /* \"#utility.yul\":40351:40444   */\n      tag_617\n      jump\t// in\n    tag_983:\n        /* \"#utility.yul\":40469:40471   */\n      0x20\n        /* \"#utility.yul\":40464:40467   */\n      dup3\n        /* \"#utility.yul\":40460:40472   */\n      add\n        /* \"#utility.yul\":40453:40472   */\n      swap1\n      pop\n        /* \"#utility.yul\":40112:40478   */\n      swap2\n      swap1\n      pop\n      jump\t// out\n        /* \"#utility.yul\":40484:40903   */\n    tag_431:\n        /* \"#utility.yul\":40650:40654   */\n      0x00\n        /* \"#utility.yul\":40688:40690   */\n      0x20\n        /* \"#utility.yul\":40677:40686   */\n      dup3\n        /* \"#utility.yul\":40673:40691   */\n      add\n        /* \"#utility.yul\":40665:40691   */\n      swap1\n      pop\n        /* \"#utility.yul\":40737:40746   */\n      dup2\n        /* \"#utility.yul\":40731:40735   */\n      dup2\n        /* \"#utility.yul\":40727:40747   */\n      sub\n        /* \"#utility.yul\":40723:40724   */\n      0x00\n        /* \"#utility.yul\":40712:40721   */\n      dup4\n        /* \"#utility.yul\":40708:40725   */\n      add\n        /* \"#utility.yul\":40701:40748   */\n      mstore\n        /* \"#utility.yul\":40765:40896   */\n      tag_985\n        /* \"#utility.yul\":40891:40895   */\n      dup2\n        /* \"#utility.yul\":40765:40896   */\n      tag_618\n      jump\t// in\n    tag_985:\n        /* \"#utility.yul\":40757:40896   */\n      swap1\n      pop\n        /* \"#utility.yul\":40484:40903   */\n      swap2\n      swap1\n      pop\n      jump\t// out\n        /* \"#utility.yul\":40909:41077   */\n    tag_619:\n        /* \"#utility.yul\":41049:41069   */\n      0x4e6f2045544820746f2077697468647261770000000000000000000000000000\n        /* \"#utility.yul\":41045:41046   */\n      0x00\n        /* \"#utility.yul\":41037:41043   */\n      dup3\n        /* \"#utility.yul\":41033:41047   */\n      add\n        /* \"#utility.yul\":41026:41070   */\n      mstore\n        /* \"#utility.yul\":40909:41077   */\n      pop\n      jump\t// out\n        /* \"#utility.yul\":41083:41449   */\n    tag_620:\n        /* \"#utility.yul\":41225:41228   */\n      0x00\n        /* \"#utility.yul\":41246:41313   */\n      tag_988\n        /* \"#utility.yul\":41310:41312   */\n      0x12\n        /* \"#utility.yul\":41305:41308   */\n      dup4\n        /* \"#utility.yul\":41246:41313   */\n      tag_531\n      jump\t// in\n    tag_988:\n        /* \"#utility.yul\":41239:41313   */\n      swap2\n      pop\n        /* \"#utility.yul\":41322:41415   */\n      tag_989\n        /* \"#utility.yul\":41411:41414   */\n      dup3\n        /* \"#utility.yul\":41322:41415   */\n      tag_619\n      jump\t// in\n    tag_989:\n        /* \"#utility.yul\":41440:41442   */\n      0x20\n        /* \"#utility.yul\":41435:41438   */\n      dup3\n        /* \"#utility.yul\":41431:41443   */\n      add\n        /* \"#utility.yul\":41424:41443   */\n      swap1\n      pop\n        /* \"#utility.yul\":41083:41449   */\n      swap2\n      swap1\n      pop\n      jump\t// out\n        /* \"#utility.yul\":41455:41874   */\n    tag_445:\n        /* \"#utility.yul\":41621:41625   */\n      0x00\n        /* \"#utility.yul\":41659:41661   */\n      0x20\n        /* \"#utility.yul\":41648:41657   */\n      dup3\n        /* \"#utility.yul\":41644:41662   */\n      add\n        /* \"#utility.yul\":41636:41662   */\n      swap1\n      pop\n        /* \"#utility.yul\":41708:41717   */\n      dup2\n        /* \"#utility.yul\":41702:41706   */\n      dup2\n        /* \"#utility.yul\":41698:41718   */\n      sub\n        /* \"#utility.yul\":41694:41695   */\n      0x00\n        /* \"#utility.yul\":41683:41692   */\n      dup4\n        /* \"#utility.yul\":41679:41696   */\n      add\n        /* \"#utility.yul\":41672:41719   */\n      mstore\n        /* \"#utility.yul\":41736:41867   */\n      tag_991\n        /* \"#utility.yul\":41862:41866   */\n      dup2\n        /* \"#utility.yul\":41736:41867   */\n      tag_620\n      jump\t// in\n    tag_991:\n        /* \"#utility.yul\":41728:41867   */\n      swap1\n      pop\n        /* \"#utility.yul\":41455:41874   */\n      swap2\n      swap1\n      pop\n      jump\t// out\n        /* \"#utility.yul\":41880:42027   */\n    tag_621:\n        /* \"#utility.yul\":41981:41992   */\n      0x00\n        /* \"#utility.yul\":42018:42021   */\n      dup2\n        /* \"#utility.yul\":42003:42021   */\n      swap1\n      pop\n        /* \"#utility.yul\":41880:42027   */\n      swap3\n      swap2\n      pop\n      pop\n      jump\t// out\n        /* \"#utility.yul\":42033:42147   */\n    tag_622:\n      pop\n      jump\t// out\n        /* \"#utility.yul\":42153:42551   */\n    tag_623:\n        /* \"#utility.yul\":42312:42315   */\n      0x00\n        /* \"#utility.yul\":42333:42416   */\n      tag_995\n        /* \"#utility.yul\":42414:42415   */\n      0x00\n        /* \"#utility.yul\":42409:42412   */\n      dup4\n        /* \"#utility.yul\":42333:42416   */\n      tag_621\n      jump\t// in\n    tag_995:\n        /* \"#utility.yul\":42326:42416   */\n      swap2\n      pop\n        /* \"#utility.yul\":42425:42518   */\n      tag_996\n        /* \"#utility.yul\":42514:42517   */\n      dup3\n        /* \"#utility.yul\":42425:42518   */\n      tag_622\n      jump\t// in\n    tag_996:\n        /* \"#utility.yul\":42543:42544   */\n      0x00\n        /* \"#utility.yul\":42538:42541   */\n      dup3\n        /* \"#utility.yul\":42534:42545   */\n      add\n        /* \"#utility.yul\":42527:42545   */\n      swap1\n      pop\n        /* \"#utility.yul\":42153:42551   */\n      swap2\n      swap1\n      pop\n      jump\t// out\n        /* \"#utility.yul\":42557:42936   */\n    tag_448:\n        /* \"#utility.yul\":42741:42744   */\n      0x00\n        /* \"#utility.yul\":42763:42910   */\n      tag_998\n        /* \"#utility.yul\":42906:42909   */\n      dup3\n        /* \"#utility.yul\":42763:42910   */\n      tag_623\n      jump\t// in\n    tag_998:\n        /* \"#utility.yul\":42756:42910   */\n      swap2\n      pop\n        /* \"#utility.yul\":42927:42930   */\n      dup2\n        /* \"#utility.yul\":42920:42930   */\n      swap1\n      pop\n        /* \"#utility.yul\":42557:42936   */\n      swap2\n      swap1\n      pop\n      jump\t// out\n        /* \"#utility.yul\":42942:43107   */\n    tag_624:\n        /* \"#utility.yul\":43082:43099   */\n      0x5472616e73666572206661696c65640000000000000000000000000000000000\n        /* \"#utility.yul\":43078:43079   */\n      0x00\n        /* \"#utility.yul\":43070:43076   */\n      dup3\n        /* \"#utility.yul\":43066:43080   */\n      add\n        /* \"#utility.yul\":43059:43100   */\n      mstore\n        /* \"#utility.yul\":42942:43107   */\n      pop\n      jump\t// out\n        /* \"#utility.yul\":43113:43479   */\n    tag_625:\n        /* \"#utility.yul\":43255:43258   */\n      0x00\n        /* \"#utility.yul\":43276:43343   */\n      tag_1001\n        /* \"#utility.yul\":43340:43342   */\n      0x0f\n        /* \"#utility.yul\":43335:43338   */\n      dup4\n        /* \"#utility.yul\":43276:43343   */\n      tag_531\n      jump\t// in\n    tag_1001:\n        /* \"#utility.yul\":43269:43343   */\n      swap2\n      pop\n        /* \"#utility.yul\":43352:43445   */\n      tag_1002\n        /* \"#utility.yul\":43441:43444   */\n      dup3\n        /* \"#utility.yul\":43352:43445   */\n      tag_624\n      jump\t// in\n    tag_1002:\n        /* \"#utility.yul\":43470:43472   */\n      0x20\n        /* \"#utility.yul\":43465:43468   */\n      dup3\n        /* \"#utility.yul\":43461:43473   */\n      add\n        /* \"#utility.yul\":43454:43473   */\n      swap1\n      pop\n        /* \"#utility.yul\":43113:43479   */\n      swap2\n      swap1\n      pop\n      jump\t// out\n        /* \"#utility.yul\":43485:43904   */\n    tag_454:\n        /* \"#utility.yul\":43651:43655   */\n      0x00\n        /* \"#utility.yul\":43689:43691   */\n      0x20\n        /* \"#utility.yul\":43678:43687   */\n      dup3\n        /* \"#utility.yul\":43674:43692   */\n      add\n        /* \"#utility.yul\":43666:43692   */\n      swap1\n      pop\n        /* \"#utility.yul\":43738:43747   */\n      dup2\n        /* \"#utility.yul\":43732:43736   */\n      dup2\n        /* \"#utility.yul\":43728:43748   */\n      sub\n        /* \"#utility.yul\":43724:43725   */\n      0x00\n        /* \"#utility.yul\":43713:43722   */\n      dup4\n        /* \"#utility.yul\":43709:43726   */\n      add\n        /* \"#utility.yul\":43702:43749   */\n      mstore\n        /* \"#utility.yul\":43766:43897   */\n      tag_1004\n        /* \"#utility.yul\":43892:43896   */\n      dup2\n        /* \"#utility.yul\":43766:43897   */\n      tag_625\n      jump\t// in\n    tag_1004:\n        /* \"#utility.yul\":43758:43897   */\n      swap1\n      pop\n        /* \"#utility.yul\":43485:43904   */\n      swap2\n      swap1\n      pop\n      jump\t// out\n        /* \"#utility.yul\":43910:44352   */\n    tag_479:\n        /* \"#utility.yul\":44059:44063   */\n      0x00\n        /* \"#utility.yul\":44097:44099   */\n      0x60\n        /* \"#utility.yul\":44086:44095   */\n      dup3\n        /* \"#utility.yul\":44082:44100   */\n      add\n        /* \"#utility.yul\":44074:44100   */\n      swap1\n      pop\n        /* \"#utility.yul\":44110:44181   */\n      tag_1006\n        /* \"#utility.yul\":44178:44179   */\n      0x00\n        /* \"#utility.yul\":44167:44176   */\n      dup4\n        /* \"#utility.yul\":44163:44180   */\n      add\n        /* \"#utility.yul\":44154:44160   */\n      dup7\n        /* \"#utility.yul\":44110:44181   */\n      tag_547\n      jump\t// in\n    tag_1006:\n        /* \"#utility.yul\":44191:44263   */\n      tag_1007\n        /* \"#utility.yul\":44259:44261   */\n      0x20\n        /* \"#utility.yul\":44248:44257   */\n      dup4\n        /* \"#utility.yul\":44244:44262   */\n      add\n        /* \"#utility.yul\":44235:44241   */\n      dup6\n        /* \"#utility.yul\":44191:44263   */\n      tag_540\n      jump\t// in\n    tag_1007:\n        /* \"#utility.yul\":44273:44345   */\n      tag_1008\n        /* \"#utility.yul\":44341:44343   */\n      0x40\n        /* \"#utility.yul\":44330:44339   */\n      dup4\n        /* \"#utility.yul\":44326:44344   */\n      add\n        /* \"#utility.yul\":44317:44323   */\n      dup5\n        /* \"#utility.yul\":44273:44345   */\n      tag_540\n      jump\t// in\n    tag_1008:\n        /* \"#utility.yul\":43910:44352   */\n      swap5\n      swap4\n      pop\n      pop\n      pop\n      pop\n      jump\t// out\n        /* \"#utility.yul\":44358:44539   */\n    tag_626:\n        /* \"#utility.yul\":44498:44531   */\n      0x5265656e7472616e637947756172643a207265656e7472616e742063616c6c00\n        /* \"#utility.yul\":44494:44495   */\n      0x00\n        /* \"#utility.yul\":44486:44492   */\n      dup3\n        /* \"#utility.yul\":44482:44496   */\n      add\n        /* \"#utility.yul\":44475:44532   */\n      mstore\n        /* \"#utility.yul\":44358:44539   */\n      pop\n      jump\t// out\n        /* \"#utility.yul\":44545:44911   */\n    tag_627:\n        /* \"#utility.yul\":44687:44690   */\n      0x00\n        /* \"#utility.yul\":44708:44775   */\n      tag_1011\n        /* \"#utility.yul\":44772:44774   */\n      0x1f\n        /* \"#utility.yul\":44767:44770   */\n      dup4\n        /* \"#utility.yul\":44708:44775   */\n      tag_531\n      jump\t// in\n    tag_1011:\n        /* \"#utility.yul\":44701:44775   */\n      swap2\n      pop\n        /* \"#utility.yul\":44784:44877   */\n      tag_1012\n        /* \"#utility.yul\":44873:44876   */\n      dup3\n        /* \"#utility.yul\":44784:44877   */\n      tag_626\n      jump\t// in\n    tag_1012:\n        /* \"#utility.yul\":44902:44904   */\n      0x20\n        /* \"#utility.yul\":44897:44900   */\n      dup3\n        /* \"#utility.yul\":44893:44905   */\n      add\n        /* \"#utility.yul\":44886:44905   */\n      swap1\n      pop\n        /* \"#utility.yul\":44545:44911   */\n      swap2\n      swap1\n      pop\n      jump\t// out\n        /* \"#utility.yul\":44917:45336   */\n    tag_491:\n        /* \"#utility.yul\":45083:45087   */\n      0x00\n        /* \"#utility.yul\":45121:45123   */\n      0x20\n        /* \"#utility.yul\":45110:45119   */\n      dup3\n        /* \"#utility.yul\":45106:45124   */\n      add\n        /* \"#utility.yul\":45098:45124   */\n      swap1\n      pop\n        /* \"#utility.yul\":45170:45179   */\n      dup2\n        /* \"#utility.yul\":45164:45168   */\n      dup2\n        /* \"#utility.yul\":45160:45180   */\n      sub\n        /* \"#utility.yul\":45156:45157   */\n      0x00\n        /* \"#utility.yul\":45145:45154   */\n      dup4\n        /* \"#utility.yul\":45141:45158   */\n      add\n        /* \"#utility.yul\":45134:45181   */\n      mstore\n        /* \"#utility.yul\":45198:45329   */\n      tag_1014\n        /* \"#utility.yul\":45324:45328   */\n      dup2\n        /* \"#utility.yul\":45198:45329   */\n      tag_627\n      jump\t// in\n    tag_1014:\n        /* \"#utility.yul\":45190:45329   */\n      swap1\n      pop\n        /* \"#utility.yul\":44917:45336   */\n      swap2\n      swap1\n      pop\n      jump\t// out\n        /* \"#utility.yul\":45342:45508   */\n    tag_628:\n        /* \"#utility.yul\":45482:45500   */\n      0x5061757361626c653a2070617573656400000000000000000000000000000000\n        /* \"#utility.yul\":45478:45479   */\n      0x00\n        /* \"#utility.yul\":45470:45476   */\n      dup3\n        /* \"#utility.yul\":45466:45480   */\n      add\n        /* \"#utility.yul\":45459:45501   */\n      mstore\n        /* \"#utility.yul\":45342:45508   */\n      pop\n      jump\t// out\n        /* \"#utility.yul\":45514:45880   */\n    tag_629:\n        /* \"#utility.yul\":45656:45659   */\n      0x00\n        /* \"#utility.yul\":45677:45744   */\n      tag_1017\n        /* \"#utility.yul\":45741:45743   */\n      0x10\n        /* \"#utility.yul\":45736:45739   */\n      dup4\n        /* \"#utility.yul\":45677:45744   */\n      tag_531\n      jump\t// in\n    tag_1017:\n        /* \"#utility.yul\":45670:45744   */\n      swap2\n      pop\n        /* \"#utility.yul\":45753:45846   */\n      tag_1018\n        /* \"#utility.yul\":45842:45845   */\n      dup3\n        /* \"#utility.yul\":45753:45846   */\n      tag_628\n      jump\t// in\n    tag_1018:\n        /* \"#utility.yul\":45871:45873   */\n      0x20\n        /* \"#utility.yul\":45866:45869   */\n      dup3\n        /* \"#utility.yul\":45862:45874   */\n      add\n        /* \"#utility.yul\":45855:45874   */\n      swap1\n      pop\n        /* \"#utility.yul\":45514:45880   */\n      swap2\n      swap1\n      pop\n      jump\t// out\n        /* \"#utility.yul\":45886:46305   */\n    tag_496:\n        /* \"#utility.yul\":46052:46056   */\n      0x00\n        /* \"#utility.yul\":46090:46092   */\n      0x20\n        /* \"#utility.yul\":46079:46088   */\n      dup3\n        /* \"#utility.yul\":46075:46093   */\n      add\n        /* \"#utility.yul\":46067:46093   */\n      swap1\n      pop\n        /* \"#utility.yul\":46139:46148   */\n      dup2\n        /* \"#utility.yul\":46133:46137   */\n      dup2\n        /* \"#utility.yul\":46129:46149   */\n      sub\n        /* \"#utility.yul\":46125:46126   */\n      0x00\n        /* \"#utility.yul\":46114:46123   */\n      dup4\n        /* \"#utility.yul\":46110:46127   */\n      add\n        /* \"#utility.yul\":46103:46150   */\n      mstore\n        /* \"#utility.yul\":46167:46298   */\n      tag_1020\n        /* \"#utility.yul\":46293:46297   */\n      dup2\n        /* \"#utility.yul\":46167:46298   */\n      tag_629\n      jump\t// in\n    tag_1020:\n        /* \"#utility.yul\":46159:46298   */\n      swap1\n      pop\n        /* \"#utility.yul\":45886:46305   */\n      swap2\n      swap1\n      pop\n      jump\t// out\n\n    auxdata: 0xa2646970667358221220e580850f4b8cf4080512c8f075d970d5b437418bf21c43b836c5d4cda377a58964736f6c634300081a0033\n}\n",
				"bytecode": {
					"linkReferences": {},
					"object": "60806040526a201fcafc2577d29850000060085566038d7ea4c6800060095566b3697b81284000600a556000600b55683635c9adc5dea00000600d556802b5e3af16b1880000600e5568056bc75e2d63100000600f55681b1ae4d6e2ef5000006010556301e1338060115562ed4e0060125562278d0060135560056018556000601960006101000a81548160ff0219169083151502179055503480156100a457600080fd5b50336040518060400160405280600881526020017f426574746f6b656e0000000000000000000000000000000000000000000000008152506040518060400160405280600481526020017f4245545400000000000000000000000000000000000000000000000000000000815250816003908161012191906107bc565b50806004908161013191906107bc565b505050600073ffffffffffffffffffffffffffffffffffffffff168173ffffffffffffffffffffffffffffffffffffffff16036101a65760006040517f1e4fbdf700000000000000000000000000000000000000000000000000000000815260040161019d91906108cf565b60405180910390fd5b6101b5816101f960201b60201c565b5060016006819055506000600760006101000a81548160ff0219169083151502179055506101f4306aa56fa5b99019a5c80000006102bf60201b60201c565b6109ae565b6000600560009054906101000a900473ffffffffffffffffffffffffffffffffffffffff16905081600560006101000a81548173ffffffffffffffffffffffffffffffffffffffff021916908373ffffffffffffffffffffffffffffffffffffffff1602179055508173ffffffffffffffffffffffffffffffffffffffff168173ffffffffffffffffffffffffffffffffffffffff167f8be0079c531659141344cd1fd0a4f28419497f9722a3daafe3b4186f6b6457e060405160405180910390a35050565b600073ffffffffffffffffffffffffffffffffffffffff168273ffffffffffffffffffffffffffffffffffffffff16036103315760006040517fec442f0500000000000000000000000000000000000000000000000000000000815260040161032891906108cf565b60405180910390fd5b6103436000838361034760201b60201c565b5050565b600073ffffffffffffffffffffffffffffffffffffffff168373ffffffffffffffffffffffffffffffffffffffff160361039957806002600082825461038d9190610919565b9250508190555061046c565b60008060008573ffffffffffffffffffffffffffffffffffffffff1673ffffffffffffffffffffffffffffffffffffffff16815260200190815260200160002054905081811015610425578381836040517fe450d38c00000000000000000000000000000000000000000000000000000000815260040161041c9392919061095c565b60405180910390fd5b8181036000808673ffffffffffffffffffffffffffffffffffffffff1673ffffffffffffffffffffffffffffffffffffffff16815260200190815260200160002081905550505b600073ffffffffffffffffffffffffffffffffffffffff168273ffffffffffffffffffffffffffffffffffffffff16036104b55780600260008282540392505081905550610502565b806000808473ffffffffffffffffffffffffffffffffffffffff1673ffffffffffffffffffffffffffffffffffffffff168152602001908152602001600020600082825401925050819055505b8173ffffffffffffffffffffffffffffffffffffffff168373ffffffffffffffffffffffffffffffffffffffff167fddf252ad1be2c89b69c2b068fc378daa952ba7f163c4a11628f55a4df523b3ef8360405161055f9190610993565b60405180910390a3505050565b600081519050919050565b7f4e487b7100000000000000000000000000000000000000000000000000000000600052604160045260246000fd5b7f4e487b7100000000000000000000000000000000000000000000000000000000600052602260045260246000fd5b600060028204905060018216806105ed57607f821691505b602082108103610600576105ff6105a6565b5b50919050565b60008190508160005260206000209050919050565b60006020601f8301049050919050565b600082821b905092915050565b6000600883026106687fffffffffffffffffffffffffffffffffffffffffffffffffffffffffffffffff8261062b565b610672868361062b565b95508019841693508086168417925050509392505050565b6000819050919050565b6000819050919050565b60006106b96106b46106af8461068a565b610694565b61068a565b9050919050565b6000819050919050565b6106d38361069e565b6106e76106df826106c0565b848454610638565b825550505050565b600090565b6106fc6106ef565b6107078184846106ca565b505050565b5b8181101561072b576107206000826106f4565b60018101905061070d565b5050565b601f8211156107705761074181610606565b61074a8461061b565b81016020851015610759578190505b61076d6107658561061b565b83018261070c565b50505b505050565b600082821c905092915050565b600061079360001984600802610775565b1980831691505092915050565b60006107ac8383610782565b9150826002028217905092915050565b6107c58261056c565b67ffffffffffffffff8111156107de576107dd610577565b5b6107e882546105d5565b6107f382828561072f565b600060209050601f8311600181146108265760008415610814578287015190505b61081e85826107a0565b865550610886565b601f19841661083486610606565b60005b8281101561085c57848901518255600182019150602085019450602081019050610837565b868310156108795784890151610875601f891682610782565b8355505b6001600288020188555050505b505050505050565b600073ffffffffffffffffffffffffffffffffffffffff82169050919050565b60006108b98261088e565b9050919050565b6108c9816108ae565b82525050565b60006020820190506108e460008301846108c0565b92915050565b7f4e487b7100000000000000000000000000000000000000000000000000000000600052601160045260246000fd5b60006109248261068a565b915061092f8361068a565b9250828201905080821115610947576109466108ea565b5b92915050565b6109568161068a565b82525050565b600060608201905061097160008301866108c0565b61097e602083018561094d565b61098b604083018461094d565b949350505050565b60006020820190506109a8600083018461094d565b92915050565b613eda806109bd6000396000f3fe6080604052600436106102725760003560e01c80638da5cb5b1161014f578063b785a6e7116100c1578063e086e5ec1161007a578063e086e5ec14610951578063e43252d714610968578063e6a23c3d14610991578063ee43d43e146109a8578063f2fde38b146109d3578063fdb20ccb146109fc57610272565b8063b785a6e71461083d578063b8e50cab14610868578063bda9563314610893578063c552e04b146108be578063d50234c4146108e9578063dd62ed3e1461091457610272565b806395d89b411161011357806395d89b41146107075780639b19251a14610732578063a089de2f1461076f578063a9059cbb14610798578063abfcfcf3146107d5578063b0e686301461081257610272565b80638da5cb5b14610630578063902d55a51461065b57806391500aff146106865780639357c239146106b1578063940de97e146106dc57610272565b8063516e3e15116101e857806370a08231116101ac57806370a0823114610536578063715018a61461057357806371aa60fd1461058a57806377fff102146105c75780638ab1d681146105f05780638d8f2adb1461061957610272565b8063516e3e151461047557806354dd1da4146104a05780635c975abb146104b75780635fb3b944146104e25780636c6218ae1461050d57610272565b806323b872dd1161023a57806323b872dd146103725780632a237bb6146103af578063313ce567146103da57806333caa27f1461040557806340f02ab614610421578063503ad00e1461044c57610272565b8063034c0cf71461027757806306fdde03146102b4578063095ea7b3146102df5780631514617e1461031c57806318160ddd14610347575b600080fd5b34801561028357600080fd5b5061029e60048036038101906102999190612786565b610a3d565b6040516102ab9190612843565b60405180910390f35b3480156102c057600080fd5b506102c9610add565b6040516102d69190612843565b60405180910390f35b3480156102eb57600080fd5b506103066004803603810190610301919061289b565b610b6f565b60405161031391906128f6565b60405180910390f35b34801561032857600080fd5b50610331610b92565b60405161033e9190612920565b60405180910390f35b34801561035357600080fd5b5061035c610b98565b6040516103699190612920565b60405180910390f35b34801561037e57600080fd5b506103996004803603810190610394919061293b565b610ba2565b6040516103a691906128f6565b60405180910390f35b3480156103bb57600080fd5b506103c4610bd1565b6040516103d191906128f6565b60405180910390f35b3480156103e657600080fd5b506103ef610be4565b6040516103fc91906129aa565b60405180910390f35b61041f600480360381019061041a9190612a2a565b610bed565b005b34801561042d57600080fd5b506104366110b0565b6040516104439190612920565b60405180910390f35b34801561045857600080fd5b50610473600480360381019061046e9190612a8a565b6110b6565b005b34801561048157600080fd5b5061048a611305565b6040516104979190612920565b60405180910390f35b3480156104ac57600080fd5b506104b561130b565b005b3480156104c357600080fd5b506104cc6114a4565b6040516104d991906128f6565b60405180910390f35b3480156104ee57600080fd5b506104f76114bb565b6040516105049190612920565b60405180910390f35b34801561051957600080fd5b50610534600480360381019061052f9190612aea565b6114c1565b005b34801561054257600080fd5b5061055d60048036038101906105589190612786565b611523565b60405161056a9190612920565b60405180910390f35b34801561057f57600080fd5b5061058861156b565b005b34801561059657600080fd5b506105b160048036038101906105ac9190612aea565b61157f565b6040516105be9190612920565b60405180910390f35b3480156105d357600080fd5b506105ee60048036038101906105e99190612b17565b6115d5565b005b3480156105fc57600080fd5b5061061760048036038101906106129190612786565b611674565b005b34801561062557600080fd5b5061062e6117a6565b005b34801561063c57600080fd5b5061064561184a565b6040516106529190612b66565b60405180910390f35b34801561066757600080fd5b50610670611874565b60405161067d9190612920565b60405180910390f35b34801561069257600080fd5b5061069b611883565b6040516106a89190612920565b60405180910390f35b3480156106bd57600080fd5b506106c6611889565b6040516106d39190612920565b60405180910390f35b3480156106e857600080fd5b506106f16118e2565b6040516106fe9190612920565b60405180910390f35b34801561071357600080fd5b5061071c6118e8565b6040516107299190612843565b60405180910390f35b34801561073e57600080fd5b5061075960048036038101906107549190612786565b61197a565b60405161076691906128f6565b60405180910390f35b34801561077b57600080fd5b5061079660048036038101906107919190612aea565b61199a565b005b3480156107a457600080fd5b506107bf60048036038101906107ba919061289b565b611aab565b6040516107cc91906128f6565b60405180910390f35b3480156107e157600080fd5b506107fc60048036038101906107f79190612cb1565b611ace565b6040516108099190612b66565b60405180910390f35b34801561081e57600080fd5b50610827611b17565b6040516108349190612920565b60405180910390f35b34801561084957600080fd5b50610852611b1d565b60405161085f9190612920565b60405180910390f35b34801561087457600080fd5b5061087d611b23565b60405161088a9190612920565b60405180910390f35b34801561089f57600080fd5b506108a8611b29565b6040516108b59190612920565b60405180910390f35b3480156108ca57600080fd5b506108d3611b2f565b6040516108e09190612920565b60405180910390f35b3480156108f557600080fd5b506108fe611b35565b60405161090b9190612920565b60405180910390f35b34801561092057600080fd5b5061093b60048036038101906109369190612cfa565b611b3b565b6040516109489190612920565b60405180910390f35b34801561095d57600080fd5b50610966611bc2565b005b34801561097457600080fd5b5061098f600480360381019061098a9190612786565b611d00565b005b34801561099d57600080fd5b506109a6611da6565b005b3480156109b457600080fd5b506109bd611e46565b6040516109ca9190612920565b60405180910390f35b3480156109df57600080fd5b506109fa60048036038101906109f59190612786565b611e4c565b005b348015610a0857600080fd5b50610a236004803603810190610a1e9190612786565b611ed2565b604051610a34959493929190612d3a565b60405180910390f35b60166020528060005260406000206000915090508054610a5c90612dbc565b80601f0160208091040260200160405190810160405280929190818152602001828054610a8890612dbc565b8015610ad55780601f10610aaa57610100808354040283529160200191610ad5565b820191906000526020600020905b815481529060010190602001808311610ab857829003601f168201915b505050505081565b606060038054610aec90612dbc565b80601f0160208091040260200160405190810160405280929190818152602001828054610b1890612dbc565b8015610b655780601f10610b3a57610100808354040283529160200191610b65565b820191906000526020600020905b815481529060010190602001808311610b4857829003601f168201915b5050505050905090565b600080610b7a611f08565b9050610b87818585611f10565b600191505092915050565b60125481565b6000600254905090565b600080610bad611f08565b9050610bba858285611f22565b610bc5858585611fb6565b60019150509392505050565b601960009054906101000a900460ff1681565b60006012905090565b610bf56120aa565b610bfd6120f9565b601960009054906101000a900460ff16610c4c576040517f08c379a0000000000000000000000000000000000000000000000000000000008152600401610c4390612e39565b60405180910390fd5b601560003373ffffffffffffffffffffffffffffffffffffffff1673ffffffffffffffffffffffffffffffffffffffff16815260200190815260200160002060009054906101000a900460ff16610cd8576040517f08c379a0000000000000000000000000000000000000000000000000000000008152600401610ccf90612ea5565b60405180910390fd5b600854600b5410610d1e576040517f08c379a0000000000000000000000000000000000000000000000000000000008152600401610d1590612f11565b60405180910390fd5b600e54831015610d63576040517f08c379a0000000000000000000000000000000000000000000000000000000008152600401610d5a90612fa3565b60405180910390fd5b6000610d6e8461157f565b9050600f54811015610db5576040517f08c379a0000000000000000000000000000000000000000000000000000000008152600401610dac90613035565b60405180910390fd5b601054811115610dfa576040517f08c379a0000000000000000000000000000000000000000000000000000000008152600401610df1906130ed565b60405180910390fd5b600d54811115610e3f576040517f08c379a0000000000000000000000000000000000000000000000000000000008152600401610e369061317f565b60405180910390fd5b80600b54610e4d91906131ce565b600b81905550600854600b5410610ea6576000601960006101000a81548160ff0219169083151502179055507f8d80f5be79e7dd88d69814b57e8f5c7dd249b3d6bac194eb9144b8ca639db03660405160405180910390a15b600854600b541115610eed576040517f08c379a0000000000000000000000000000000000000000000000000000000008152600401610ee490613274565b60405180910390fd5b600083839050111561102757600060178484604051610f0d9291906132c4565b908152602001604051809103902060009054906101000a900473ffffffffffffffffffffffffffffffffffffffff169050600073ffffffffffffffffffffffffffffffffffffffff168173ffffffffffffffffffffffffffffffffffffffff1603610fad576040517f08c379a0000000000000000000000000000000000000000000000000000000008152600401610fa490613329565b60405180910390fd5b6000606460185484610fbf9190613349565b610fc991906133ba565b9050610fd6308383611fb6565b8173ffffffffffffffffffffffffffffffffffffffff167f9b23ec14d4683ac0abe619d3ec67f86c8957e134eb62bdff7044e5072ba02b168260405161101c9190612920565b60405180910390a250505b61104533826011544261103a91906131ce565b601254601354612143565b3373ffffffffffffffffffffffffffffffffffffffff167fdd2a19c3bdd089cbe77c04f5655f83de0504d6140d12c8667646f55d0557c4dc826011544261108c91906131ce565b60405161109a9291906133eb565b60405180910390a2506110ab6121c1565b505050565b60115481565b6110be6121cb565b6000601660008573ffffffffffffffffffffffffffffffffffffffff1673ffffffffffffffffffffffffffffffffffffffff168152602001908152602001600020805461110a90612dbc565b90501461114c576040517f08c379a000000000000000000000000000000000000000000000000000000000815260040161114390613486565b60405180910390fd5b60038282905010158015611164575060148282905011155b6111a3576040517f08c379a000000000000000000000000000000000000000000000000000000000815260040161119a90613518565b60405180910390fd5b600073ffffffffffffffffffffffffffffffffffffffff16601783836040516111cd9291906132c4565b908152602001604051809103902060009054906101000a900473ffffffffffffffffffffffffffffffffffffffff1673ffffffffffffffffffffffffffffffffffffffff1614611252576040517f08c379a000000000000000000000000000000000000000000000000000000000815260040161124990613584565b60405180910390fd5b82601783836040516112659291906132c4565b908152602001604051809103902060006101000a81548173ffffffffffffffffffffffffffffffffffffffff021916908373ffffffffffffffffffffffffffffffffffffffff1602179055508181601660008673ffffffffffffffffffffffffffffffffffffffff1673ffffffffffffffffffffffffffffffffffffffff16815260200190815260200160002091826112ff92919061375b565b50505050565b60105481565b6113136120aa565b6000601460003373ffffffffffffffffffffffffffffffffffffffff1673ffffffffffffffffffffffffffffffffffffffff1681526020019081526020016000209050806002015442101561139d576040517f08c379a000000000000000000000000000000000000000000000000000000000815260040161139490613877565b60405180910390fd5b600081600301548260020154426113b49190613897565b83600001546113c39190613349565b6113cd91906133ba565b905060008260010154826113e19190613897565b905060008111611426576040517f08c379a000000000000000000000000000000000000000000000000000000000815260040161141d90613917565b60405180910390fd5b80836001015461143691906131ce565b8360010181905550611449303383611fb6565b3373ffffffffffffffffffffffffffffffffffffffff167f6bc5063c7239b75c8bf325a2a2238f726fada322163996bb6c93d5594fb119f08260405161148f9190612920565b60405180910390a25050506114a26121c1565b565b6000600760009054906101000a900460ff16905090565b600b5481565b6114c96121cb565b6000811180156114da575060648111155b611519576040517f08c379a000000000000000000000000000000000000000000000000000000000815260040161151090613983565b60405180910390fd5b8060188190555050565b60008060008373ffffffffffffffffffffffffffffffffffffffff1673ffffffffffffffffffffffffffffffffffffffff168152602001908152602001600020549050919050565b6115736121cb565b61157d6000612252565b565b600080600854600b54600954600a546115989190613897565b6115a29190613349565b6115ac91906133ba565b6009546115b991906131ce565b9050600081846115c991906133ba565b90508092505050919050565b6115dd6121cb565b60008211611620576040517f08c379a000000000000000000000000000000000000000000000000000000000815260040161161790613a15565b60405180910390fd5b818111611662576040517f08c379a000000000000000000000000000000000000000000000000000000000815260040161165990613aa7565b60405180910390fd5b81600f81905550806010819055505050565b61167c6121cb565b601560008273ffffffffffffffffffffffffffffffffffffffff1673ffffffffffffffffffffffffffffffffffffffff16815260200190815260200160002060009054906101000a900460ff16611708576040517f08c379a00000000000000000000000000000000000000000000000000000000081526004016116ff90613b13565b60405180910390fd5b6000601560008373ffffffffffffffffffffffffffffffffffffffff1673ffffffffffffffffffffffffffffffffffffffff16815260200190815260200160002060006101000a81548160ff0219169083151502179055508073ffffffffffffffffffffffffffffffffffffffff167ff1abf01a1043b7c244d128e8595cf0c1d10743b022b03a02dffd8ca3bf729f5a60405160405180910390a250565b6117ae6121cb565b60006117b930611523565b9050600081116117fe576040517f08c379a00000000000000000000000000000000000000000000000000000000081526004016117f590613b7f565b60405180910390fd5b6118103061180a61184a565b83611fb6565b7f9c6393f251205f9e03559951cab4c9ae71767b6174f77944a5b0c2fa51fbda9f8160405161183f9190612920565b60405180910390a150565b6000600560009054906101000a900473ffffffffffffffffffffffffffffffffffffffff16905090565b6aa56fa5b99019a5c800000081565b600e5481565b6000601960009054906101000a900460ff166118da576040517f08c379a00000000000000000000000000000000000000000000000000000000081526004016118d190613beb565b60405180910390fd5b600c54905090565b600c5481565b6060600480546118f790612dbc565b80601f016020809104026020016040519081016040528092919081815260200182805461192390612dbc565b80156119705780601f1061194557610100808354040283529160200191611970565b820191906000526020600020905b81548152906001019060200180831161195357829003601f168201915b5050505050905090565b60156020528060005260406000206000915054906101000a900460ff1681565b6119a26121cb565b601960009054906101000a900460ff16156119f2576040517f08c379a00000000000000000000000000000000000000000000000000000000081526004016119e990613c57565b60405180910390fd5b600081118015611a03575060648111155b611a42576040517f08c379a0000000000000000000000000000000000000000000000000000000008152600401611a3990613983565b60405180910390fd5b806018819055506001601960006101000a81548160ff02191690831515021790555042600c819055507fcbe7b2993d671ff089495ae9d90ae7a115f123db134c0a6d3c4bc6e0c72cf7e5601854600c54604051611aa09291906133eb565b60405180910390a150565b600080611ab6611f08565b9050611ac3818585611fb6565b600191505092915050565b6017818051602081018201805184825260208301602085012081835280955050505050506000915054906101000a900473ffffffffffffffffffffffffffffffffffffffff1681565b60095481565b600f5481565b60135481565b600a5481565b60085481565b60185481565b6000600160008473ffffffffffffffffffffffffffffffffffffffff1673ffffffffffffffffffffffffffffffffffffffff16815260200190815260200160002060008373ffffffffffffffffffffffffffffffffffffffff1673ffffffffffffffffffffffffffffffffffffffff16815260200190815260200160002054905092915050565b611bca6121cb565b600047905060008111611c12576040517f08c379a0000000000000000000000000000000000000000000000000000000008152600401611c0990613cc3565b60405180910390fd5b6000611c1c61184a565b73ffffffffffffffffffffffffffffffffffffffff1682604051611c3f90613d14565b60006040518083038185875af1925050503d8060008114611c7c576040519150601f19603f3d011682016040523d82523d6000602084013e611c81565b606091505b5050905080611cc5576040517f08c379a0000000000000000000000000000000000000000000000000000000008152600401611cbc90613d75565b60405180910390fd5b7f043f607a14d3b4f0a11a0b2e192bbfcd894298ba5abf22553be6081406db28aa82604051611cf49190612920565b60405180910390a15050565b611d086121cb565b6001601560008373ffffffffffffffffffffffffffffffffffffffff1673ffffffffffffffffffffffffffffffffffffffff16815260200190815260200160002060006101000a81548160ff0219169083151502179055508073ffffffffffffffffffffffffffffffffffffffff167fd1bba68c128cc3f427e5831b3c6f99f480b6efa6b9e80c757768f6124158cc3f60405160405180910390a250565b611dae6121cb565b601960009054906101000a900460ff16611dfd576040517f08c379a0000000000000000000000000000000000000000000000000000000008152600401611df490612e39565b60405180910390fd5b6000601960006101000a81548160ff0219169083151502179055507f8d80f5be79e7dd88d69814b57e8f5c7dd249b3d6bac194eb9144b8ca639db03660405160405180910390a1565b600d5481565b611e546121cb565b600073ffffffffffffffffffffffffffffffffffffffff168173ffffffffffffffffffffffffffffffffffffffff1603611ec65760006040517f1e4fbdf7000000000000000000000000000000000000000000000000000000008152600401611ebd9190612b66565b60405180910390fd5b611ecf81612252565b50565b60146020528060005260406000206000915090508060000154908060010154908060020154908060030154908060040154905085565b600033905090565b611f1d8383836001612318565b505050565b6000611f2e8484611b3b565b90507fffffffffffffffffffffffffffffffffffffffffffffffffffffffffffffffff8114611fb05781811015611fa0578281836040517ffb8f41b2000000000000000000000000000000000000000000000000000000008152600401611f9793929190613d95565b60405180910390fd5b611faf84848484036000612318565b5b50505050565b600073ffffffffffffffffffffffffffffffffffffffff168373ffffffffffffffffffffffffffffffffffffffff16036120285760006040517f96c6fd1e00000000000000000000000000000000000000000000000000000000815260040161201f9190612b66565b60405180910390fd5b600073ffffffffffffffffffffffffffffffffffffffff168273ffffffffffffffffffffffffffffffffffffffff160361209a5760006040517fec442f050000000000000000000000000000000000000000000000000000000081526004016120919190612b66565b60405180910390fd5b6120a58383836124ef565b505050565b6002600654036120ef576040517f08c379a00000000000000000000000000000000000000000000000000000000081526004016120e690613e18565b60405180910390fd5b6002600681905550565b6121016114a4565b15612141576040517f08c379a000000000000000000000000000000000000000000000000000000000815260040161213890613e84565b60405180910390fd5b565b6000601460008773ffffffffffffffffffffffffffffffffffffffff1673ffffffffffffffffffffffffffffffffffffffff168152602001908152602001600020905084816000015461219691906131ce565b8160000181905550838160020181905550828160030181905550818160040181905550505050505050565b6001600681905550565b6121d3611f08565b73ffffffffffffffffffffffffffffffffffffffff166121f161184a565b73ffffffffffffffffffffffffffffffffffffffff161461225057612214611f08565b6040517f118cdaa70000000000000000000000000000000000000000000000000000000081526004016122479190612b66565b60405180910390fd5b565b6000600560009054906101000a900473ffffffffffffffffffffffffffffffffffffffff16905081600560006101000a81548173ffffffffffffffffffffffffffffffffffffffff021916908373ffffffffffffffffffffffffffffffffffffffff1602179055508173ffffffffffffffffffffffffffffffffffffffff168173ffffffffffffffffffffffffffffffffffffffff167f8be0079c531659141344cd1fd0a4f28419497f9722a3daafe3b4186f6b6457e060405160405180910390a35050565b600073ffffffffffffffffffffffffffffffffffffffff168473ffffffffffffffffffffffffffffffffffffffff160361238a5760006040517fe602df050000000000000000000000000000000000000000000000000000000081526004016123819190612b66565b60405180910390fd5b600073ffffffffffffffffffffffffffffffffffffffff168373ffffffffffffffffffffffffffffffffffffffff16036123fc5760006040517f94280d620000000000000000000000000000000000000000000000000000000081526004016123f39190612b66565b60405180910390fd5b81600160008673ffffffffffffffffffffffffffffffffffffffff1673ffffffffffffffffffffffffffffffffffffffff16815260200190815260200160002060008573ffffffffffffffffffffffffffffffffffffffff1673ffffffffffffffffffffffffffffffffffffffff1681526020019081526020016000208190555080156124e9578273ffffffffffffffffffffffffffffffffffffffff168473ffffffffffffffffffffffffffffffffffffffff167f8c5be1e5ebec7d5bd14f71427d1e84f3dd0314c0f7b2291e5b200ac8c7c3b925846040516124e09190612920565b60405180910390a35b50505050565b600073ffffffffffffffffffffffffffffffffffffffff168373ffffffffffffffffffffffffffffffffffffffff160361254157806002600082825461253591906131ce565b92505081905550612614565b60008060008573ffffffffffffffffffffffffffffffffffffffff1673ffffffffffffffffffffffffffffffffffffffff168152602001908152602001600020549050818110156125cd578381836040517fe450d38c0000000000000000000000000000000000000000000000000000000081526004016125c493929190613d95565b60405180910390fd5b8181036000808673ffffffffffffffffffffffffffffffffffffffff1673ffffffffffffffffffffffffffffffffffffffff16815260200190815260200160002081905550505b600073ffffffffffffffffffffffffffffffffffffffff168273ffffffffffffffffffffffffffffffffffffffff160361265d57806002600082825403925050819055506126aa565b806000808473ffffffffffffffffffffffffffffffffffffffff1673ffffffffffffffffffffffffffffffffffffffff168152602001908152602001600020600082825401925050819055505b8173ffffffffffffffffffffffffffffffffffffffff168373ffffffffffffffffffffffffffffffffffffffff167fddf252ad1be2c89b69c2b068fc378daa952ba7f163c4a11628f55a4df523b3ef836040516127079190612920565b60405180910390a3505050565b6000604051905090565b600080fd5b600080fd5b600073ffffffffffffffffffffffffffffffffffffffff82169050919050565b600061275382612728565b9050919050565b61276381612748565b811461276e57600080fd5b50565b6000813590506127808161275a565b92915050565b60006020828403121561279c5761279b61271e565b5b60006127aa84828501612771565b91505092915050565b600081519050919050565b600082825260208201905092915050565b60005b838110156127ed5780820151818401526020810190506127d2565b60008484015250505050565b6000601f19601f8301169050919050565b6000612815826127b3565b61281f81856127be565b935061282f8185602086016127cf565b612838816127f9565b840191505092915050565b6000602082019050818103600083015261285d818461280a565b905092915050565b6000819050919050565b61287881612865565b811461288357600080fd5b50565b6000813590506128958161286f565b92915050565b600080604083850312156128b2576128b161271e565b5b60006128c085828601612771565b92505060206128d185828601612886565b9150509250929050565b60008115159050919050565b6128f0816128db565b82525050565b600060208201905061290b60008301846128e7565b92915050565b61291a81612865565b82525050565b60006020820190506129356000830184612911565b92915050565b6000806000606084860312156129545761295361271e565b5b600061296286828701612771565b935050602061297386828701612771565b925050604061298486828701612886565b9150509250925092565b600060ff82169050919050565b6129a48161298e565b82525050565b60006020820190506129bf600083018461299b565b92915050565b600080fd5b600080fd5b600080fd5b60008083601f8401126129ea576129e96129c5565b5b8235905067ffffffffffffffff811115612a0757612a066129ca565b5b602083019150836001820283011115612a2357612a226129cf565b5b9250929050565b600080600060408486031215612a4357612a4261271e565b5b6000612a5186828701612886565b935050602084013567ffffffffffffffff811115612a7257612a71612723565b5b612a7e868287016129d4565b92509250509250925092565b600080600060408486031215612aa357612aa261271e565b5b6000612ab186828701612771565b935050602084013567ffffffffffffffff811115612ad257612ad1612723565b5b612ade868287016129d4565b92509250509250925092565b600060208284031215612b0057612aff61271e565b5b6000612b0e84828501612886565b91505092915050565b60008060408385031215612b2e57612b2d61271e565b5b6000612b3c85828601612886565b9250506020612b4d85828601612886565b9150509250929050565b612b6081612748565b82525050565b6000602082019050612b7b6000830184612b57565b92915050565b600080fd5b7f4e487b7100000000000000000000000000000000000000000000000000000000600052604160045260246000fd5b612bbe826127f9565b810181811067ffffffffffffffff82111715612bdd57612bdc612b86565b5b80604052505050565b6000612bf0612714565b9050612bfc8282612bb5565b919050565b600067ffffffffffffffff821115612c1c57612c1b612b86565b5b612c25826127f9565b9050602081019050919050565b82818337600083830152505050565b6000612c54612c4f84612c01565b612be6565b905082815260208101848484011115612c7057612c6f612b81565b5b612c7b848285612c32565b509392505050565b600082601f830112612c9857612c976129c5565b5b8135612ca8848260208601612c41565b91505092915050565b600060208284031215612cc757612cc661271e565b5b600082013567ffffffffffffffff811115612ce557612ce4612723565b5b612cf184828501612c83565b91505092915050565b60008060408385031215612d1157612d1061271e565b5b6000612d1f85828601612771565b9250506020612d3085828601612771565b9150509250929050565b600060a082019050612d4f6000830188612911565b612d5c6020830187612911565b612d696040830186612911565b612d766060830185612911565b612d836080830184612911565b9695505050505050565b7f4e487b7100000000000000000000000000000000000000000000000000000000600052602260045260246000fd5b60006002820490506001821680612dd457607f821691505b602082108103612de757612de6612d8d565b5b50919050565b7f507269766174652053616c65206973206e6f7420616374697665000000000000600082015250565b6000612e23601a836127be565b9150612e2e82612ded565b602082019050919050565b60006020820190508181036000830152612e5281612e16565b9050919050565b7f596f7520617265206e6f742077686974656c6973746564000000000000000000600082015250565b6000612e8f6017836127be565b9150612e9a82612e59565b602082019050919050565b60006020820190508181036000830152612ebe81612e82565b9050919050565b7f507269766174652053616c6520736f6c64206f75742e00000000000000000000600082015250565b6000612efb6016836127be565b9150612f0682612ec5565b602082019050919050565b60006020820190508181036000830152612f2a81612eee565b9050919050565b7f416d6f756e742069732062656c6f77206d696e696d756d20707572636861736560008201527f206c696d69740000000000000000000000000000000000000000000000000000602082015250565b6000612f8d6026836127be565b9150612f9882612f31565b604082019050919050565b60006020820190508181036000830152612fbc81612f80565b9050919050565b7f416d6f756e742069732062656c6f7720746865206d696e696d756d20746f6b6560008201527f6e206c696d697420666f7220507269766174652053616c650000000000000000602082015250565b600061301f6038836127be565b915061302a82612fc3565b604082019050919050565b6000602082019050818103600083015261304e81613012565b9050919050565b7f416d6f756e74206578636565647320746865206d6178696d756d20746f6b656e60008201527f206c696d697420706572207472616e73616374696f6e20666f7220507269766160208201527f74652053616c6500000000000000000000000000000000000000000000000000604082015250565b60006130d76047836127be565b91506130e282613055565b606082019050919050565b60006020820190508181036000830152613106816130ca565b9050919050565b7f45786365656473206d6178696d756d20746f6b656e207075726368617365206c60008201527f696d697400000000000000000000000000000000000000000000000000000000602082015250565b60006131696024836127be565b91506131748261310d565b604082019050919050565b600060208201905081810360008301526131988161315c565b9050919050565b7f4e487b7100000000000000000000000000000000000000000000000000000000600052601160045260246000fd5b60006131d982612865565b91506131e483612865565b92508282019050808211156131fc576131fb61319f565b5b92915050565b7f4578636565647320507269766174652053616c6520746f6b656e206c696d697460008201527f2e00000000000000000000000000000000000000000000000000000000000000602082015250565b600061325e6021836127be565b915061326982613202565b604082019050919050565b6000602082019050818103600083015261328d81613251565b9050919050565b600081905092915050565b60006132ab8385613294565b93506132b8838584612c32565b82840190509392505050565b60006132d182848661329f565b91508190509392505050565b7f496e76616c696420616666696c6961746520636f646500000000000000000000600082015250565b60006133136016836127be565b915061331e826132dd565b602082019050919050565b6000602082019050818103600083015261334281613306565b9050919050565b600061335482612865565b915061335f83612865565b925082820261336d81612865565b915082820484148315176133845761338361319f565b5b5092915050565b7f4e487b7100000000000000000000000000000000000000000000000000000000600052601260045260246000fd5b60006133c582612865565b91506133d083612865565b9250826133e0576133df61338b565b5b828204905092915050565b60006040820190506134006000830185612911565b61340d6020830184612911565b9392505050565b7f54686973206164647265737320616c72656164792068617320616e206166666960008201527f6c6961746520636f64652e000000000000000000000000000000000000000000602082015250565b6000613470602b836127be565b915061347b82613414565b604082019050919050565b6000602082019050818103600083015261349f81613463565b9050919050565b7f416666696c6961746520636f6465206d757374206265206265747765656e203360008201527f20616e6420323020636861726163746572732e00000000000000000000000000602082015250565b60006135026033836127be565b915061350d826134a6565b604082019050919050565b60006020820190508181036000830152613531816134f5565b9050919050565b7f416666696c6961746520636f646520616c72656164792074616b656e00000000600082015250565b600061356e601c836127be565b915061357982613538565b602082019050919050565b6000602082019050818103600083015261359d81613561565b9050919050565b600082905092915050565b60008190508160005260206000209050919050565b60006020601f8301049050919050565b600082821b905092915050565b6000600883026136117fffffffffffffffffffffffffffffffffffffffffffffffffffffffffffffffff826135d4565b61361b86836135d4565b95508019841693508086168417925050509392505050565b6000819050919050565b600061365861365361364e84612865565b613633565b612865565b9050919050565b6000819050919050565b6136728361363d565b61368661367e8261365f565b8484546135e1565b825550505050565b600090565b61369b61368e565b6136a6818484613669565b505050565b5b818110156136ca576136bf600082613693565b6001810190506136ac565b5050565b601f82111561370f576136e0816135af565b6136e9846135c4565b810160208510156136f8578190505b61370c613704856135c4565b8301826136ab565b50505b505050565b600082821c905092915050565b600061373260001984600802613714565b1980831691505092915050565b600061374b8383613721565b9150826002028217905092915050565b61376583836135a4565b67ffffffffffffffff81111561377e5761377d612b86565b5b6137888254612dbc565b6137938282856136ce565b6000601f8311600181146137c257600084156137b0578287013590505b6137ba858261373f565b865550613822565b601f1984166137d0866135af565b60005b828110156137f8578489013582556001820191506020850194506020810190506137d3565b868310156138155784890135613811601f891682613721565b8355505b6001600288020188555050505b50505050505050565b7f56657374696e6720686173206e6f742073746172746564207965740000000000600082015250565b6000613861601b836127be565b915061386c8261382b565b602082019050919050565b6000602082019050818103600083015261389081613854565b9050919050565b60006138a282612865565b91506138ad83612865565b92508282039050818111156138c5576138c461319f565b5b92915050565b7f4e6f20746f6b656e7320617661696c61626c6520666f722072656c6561736500600082015250565b6000613901601f836127be565b915061390c826138cb565b602082019050919050565b60006020820190508181036000830152613930816138f4565b9050919050565b7f496e76616c69642070657263656e746167650000000000000000000000000000600082015250565b600061396d6012836127be565b915061397882613937565b602082019050919050565b6000602082019050818103600083015261399c81613960565b9050919050565b7f4d696e696d756d20746f6b656e206c696d6974206d757374206265206772656160008201527f746572207468616e207a65726f00000000000000000000000000000000000000602082015250565b60006139ff602d836127be565b9150613a0a826139a3565b604082019050919050565b60006020820190508181036000830152613a2e816139f2565b9050919050565b7f4d6178696d756d20746f6b656e206c696d6974206d757374206265206772656160008201527f746572207468616e206d696e696d756d00000000000000000000000000000000602082015250565b6000613a916030836127be565b9150613a9c82613a35565b604082019050919050565b60006020820190508181036000830152613ac081613a84565b9050919050565b7f41646472657373206e6f7420696e2077686974656c6973740000000000000000600082015250565b6000613afd6018836127be565b9150613b0882613ac7565b602082019050919050565b60006020820190508181036000830152613b2c81613af0565b9050919050565b7f4e6f20746f6b656e7320746f2077697468647261770000000000000000000000600082015250565b6000613b696015836127be565b9150613b7482613b33565b602082019050919050565b60006020820190508181036000830152613b9881613b5c565b9050919050565b7f507269766174652053616c6520686173206e6f7420737461727465642e000000600082015250565b6000613bd5601d836127be565b9150613be082613b9f565b602082019050919050565b60006020820190508181036000830152613c0481613bc8565b9050919050565b7f507269766174652053616c6520616c7265616479206163746976650000000000600082015250565b6000613c41601b836127be565b9150613c4c82613c0b565b602082019050919050565b60006020820190508181036000830152613c7081613c34565b9050919050565b7f4e6f2045544820746f2077697468647261770000000000000000000000000000600082015250565b6000613cad6012836127be565b9150613cb882613c77565b602082019050919050565b60006020820190508181036000830152613cdc81613ca0565b9050919050565b600081905092915050565b50565b6000613cfe600083613ce3565b9150613d0982613cee565b600082019050919050565b6000613d1f82613cf1565b9150819050919050565b7f5472616e73666572206661696c65640000000000000000000000000000000000600082015250565b6000613d5f600f836127be565b9150613d6a82613d29565b602082019050919050565b60006020820190508181036000830152613d8e81613d52565b9050919050565b6000606082019050613daa6000830186612b57565b613db76020830185612911565b613dc46040830184612911565b949350505050565b7f5265656e7472616e637947756172643a207265656e7472616e742063616c6c00600082015250565b6000613e02601f836127be565b9150613e0d82613dcc565b602082019050919050565b60006020820190508181036000830152613e3181613df5565b9050919050565b7f5061757361626c653a2070617573656400000000000000000000000000000000600082015250565b6000613e6e6010836127be565b9150613e7982613e38565b602082019050919050565b60006020820190508181036000830152613e9d81613e61565b905091905056fea2646970667358221220e580850f4b8cf4080512c8f075d970d5b437418bf21c43b836c5d4cda377a58964736f6c634300081a0033",
					"opcodes": "PUSH1 0x80 PUSH1 0x40 MSTORE PUSH11 0x201FCAFC2577D298500000 PUSH1 0x8 SSTORE PUSH7 0x38D7EA4C68000 PUSH1 0x9 SSTORE PUSH7 0xB3697B81284000 PUSH1 0xA SSTORE PUSH1 0x0 PUSH1 0xB SSTORE PUSH9 0x3635C9ADC5DEA00000 PUSH1 0xD SSTORE PUSH9 0x2B5E3AF16B1880000 PUSH1 0xE SSTORE PUSH9 0x56BC75E2D63100000 PUSH1 0xF SSTORE PUSH9 0x1B1AE4D6E2EF500000 PUSH1 0x10 SSTORE PUSH4 0x1E13380 PUSH1 0x11 SSTORE PUSH3 0xED4E00 PUSH1 0x12 SSTORE PUSH3 0x278D00 PUSH1 0x13 SSTORE PUSH1 0x5 PUSH1 0x18 SSTORE PUSH1 0x0 PUSH1 0x19 PUSH1 0x0 PUSH2 0x100 EXP DUP2 SLOAD DUP2 PUSH1 0xFF MUL NOT AND SWAP1 DUP4 ISZERO ISZERO MUL OR SWAP1 SSTORE POP CALLVALUE DUP1 ISZERO PUSH2 0xA4 JUMPI PUSH1 0x0 DUP1 REVERT JUMPDEST POP CALLER PUSH1 0x40 MLOAD DUP1 PUSH1 0x40 ADD PUSH1 0x40 MSTORE DUP1 PUSH1 0x8 DUP2 MSTORE PUSH1 0x20 ADD PUSH32 0x426574746F6B656E000000000000000000000000000000000000000000000000 DUP2 MSTORE POP PUSH1 0x40 MLOAD DUP1 PUSH1 0x40 ADD PUSH1 0x40 MSTORE DUP1 PUSH1 0x4 DUP2 MSTORE PUSH1 0x20 ADD PUSH32 0x4245545400000000000000000000000000000000000000000000000000000000 DUP2 MSTORE POP DUP2 PUSH1 0x3 SWAP1 DUP2 PUSH2 0x121 SWAP2 SWAP1 PUSH2 0x7BC JUMP JUMPDEST POP DUP1 PUSH1 0x4 SWAP1 DUP2 PUSH2 0x131 SWAP2 SWAP1 PUSH2 0x7BC JUMP JUMPDEST POP POP POP PUSH1 0x0 PUSH20 0xFFFFFFFFFFFFFFFFFFFFFFFFFFFFFFFFFFFFFFFF AND DUP2 PUSH20 0xFFFFFFFFFFFFFFFFFFFFFFFFFFFFFFFFFFFFFFFF AND SUB PUSH2 0x1A6 JUMPI PUSH1 0x0 PUSH1 0x40 MLOAD PUSH32 0x1E4FBDF700000000000000000000000000000000000000000000000000000000 DUP2 MSTORE PUSH1 0x4 ADD PUSH2 0x19D SWAP2 SWAP1 PUSH2 0x8CF JUMP JUMPDEST PUSH1 0x40 MLOAD DUP1 SWAP2 SUB SWAP1 REVERT JUMPDEST PUSH2 0x1B5 DUP2 PUSH2 0x1F9 PUSH1 0x20 SHL PUSH1 0x20 SHR JUMP JUMPDEST POP PUSH1 0x1 PUSH1 0x6 DUP2 SWAP1 SSTORE POP PUSH1 0x0 PUSH1 0x7 PUSH1 0x0 PUSH2 0x100 EXP DUP2 SLOAD DUP2 PUSH1 0xFF MUL NOT AND SWAP1 DUP4 ISZERO ISZERO MUL OR SWAP1 SSTORE POP PUSH2 0x1F4 ADDRESS PUSH11 0xA56FA5B99019A5C8000000 PUSH2 0x2BF PUSH1 0x20 SHL PUSH1 0x20 SHR JUMP JUMPDEST PUSH2 0x9AE JUMP JUMPDEST PUSH1 0x0 PUSH1 0x5 PUSH1 0x0 SWAP1 SLOAD SWAP1 PUSH2 0x100 EXP SWAP1 DIV PUSH20 0xFFFFFFFFFFFFFFFFFFFFFFFFFFFFFFFFFFFFFFFF AND SWAP1 POP DUP2 PUSH1 0x5 PUSH1 0x0 PUSH2 0x100 EXP DUP2 SLOAD DUP2 PUSH20 0xFFFFFFFFFFFFFFFFFFFFFFFFFFFFFFFFFFFFFFFF MUL NOT AND SWAP1 DUP4 PUSH20 0xFFFFFFFFFFFFFFFFFFFFFFFFFFFFFFFFFFFFFFFF AND MUL OR SWAP1 SSTORE POP DUP2 PUSH20 0xFFFFFFFFFFFFFFFFFFFFFFFFFFFFFFFFFFFFFFFF AND DUP2 PUSH20 0xFFFFFFFFFFFFFFFFFFFFFFFFFFFFFFFFFFFFFFFF AND PUSH32 0x8BE0079C531659141344CD1FD0A4F28419497F9722A3DAAFE3B4186F6B6457E0 PUSH1 0x40 MLOAD PUSH1 0x40 MLOAD DUP1 SWAP2 SUB SWAP1 LOG3 POP POP JUMP JUMPDEST PUSH1 0x0 PUSH20 0xFFFFFFFFFFFFFFFFFFFFFFFFFFFFFFFFFFFFFFFF AND DUP3 PUSH20 0xFFFFFFFFFFFFFFFFFFFFFFFFFFFFFFFFFFFFFFFF AND SUB PUSH2 0x331 JUMPI PUSH1 0x0 PUSH1 0x40 MLOAD PUSH32 0xEC442F0500000000000000000000000000000000000000000000000000000000 DUP2 MSTORE PUSH1 0x4 ADD PUSH2 0x328 SWAP2 SWAP1 PUSH2 0x8CF JUMP JUMPDEST PUSH1 0x40 MLOAD DUP1 SWAP2 SUB SWAP1 REVERT JUMPDEST PUSH2 0x343 PUSH1 0x0 DUP4 DUP4 PUSH2 0x347 PUSH1 0x20 SHL PUSH1 0x20 SHR JUMP JUMPDEST POP POP JUMP JUMPDEST PUSH1 0x0 PUSH20 0xFFFFFFFFFFFFFFFFFFFFFFFFFFFFFFFFFFFFFFFF AND DUP4 PUSH20 0xFFFFFFFFFFFFFFFFFFFFFFFFFFFFFFFFFFFFFFFF AND SUB PUSH2 0x399 JUMPI DUP1 PUSH1 0x2 PUSH1 0x0 DUP3 DUP3 SLOAD PUSH2 0x38D SWAP2 SWAP1 PUSH2 0x919 JUMP JUMPDEST SWAP3 POP POP DUP2 SWAP1 SSTORE POP PUSH2 0x46C JUMP JUMPDEST PUSH1 0x0 DUP1 PUSH1 0x0 DUP6 PUSH20 0xFFFFFFFFFFFFFFFFFFFFFFFFFFFFFFFFFFFFFFFF AND PUSH20 0xFFFFFFFFFFFFFFFFFFFFFFFFFFFFFFFFFFFFFFFF AND DUP2 MSTORE PUSH1 0x20 ADD SWAP1 DUP2 MSTORE PUSH1 0x20 ADD PUSH1 0x0 KECCAK256 SLOAD SWAP1 POP DUP2 DUP2 LT ISZERO PUSH2 0x425 JUMPI DUP4 DUP2 DUP4 PUSH1 0x40 MLOAD PUSH32 0xE450D38C00000000000000000000000000000000000000000000000000000000 DUP2 MSTORE PUSH1 0x4 ADD PUSH2 0x41C SWAP4 SWAP3 SWAP2 SWAP1 PUSH2 0x95C JUMP JUMPDEST PUSH1 0x40 MLOAD DUP1 SWAP2 SUB SWAP1 REVERT JUMPDEST DUP2 DUP2 SUB PUSH1 0x0 DUP1 DUP7 PUSH20 0xFFFFFFFFFFFFFFFFFFFFFFFFFFFFFFFFFFFFFFFF AND PUSH20 0xFFFFFFFFFFFFFFFFFFFFFFFFFFFFFFFFFFFFFFFF AND DUP2 MSTORE PUSH1 0x20 ADD SWAP1 DUP2 MSTORE PUSH1 0x20 ADD PUSH1 0x0 KECCAK256 DUP2 SWAP1 SSTORE POP POP JUMPDEST PUSH1 0x0 PUSH20 0xFFFFFFFFFFFFFFFFFFFFFFFFFFFFFFFFFFFFFFFF AND DUP3 PUSH20 0xFFFFFFFFFFFFFFFFFFFFFFFFFFFFFFFFFFFFFFFF AND SUB PUSH2 0x4B5 JUMPI DUP1 PUSH1 0x2 PUSH1 0x0 DUP3 DUP3 SLOAD SUB SWAP3 POP POP DUP2 SWAP1 SSTORE POP PUSH2 0x502 JUMP JUMPDEST DUP1 PUSH1 0x0 DUP1 DUP5 PUSH20 0xFFFFFFFFFFFFFFFFFFFFFFFFFFFFFFFFFFFFFFFF AND PUSH20 0xFFFFFFFFFFFFFFFFFFFFFFFFFFFFFFFFFFFFFFFF AND DUP2 MSTORE PUSH1 0x20 ADD SWAP1 DUP2 MSTORE PUSH1 0x20 ADD PUSH1 0x0 KECCAK256 PUSH1 0x0 DUP3 DUP3 SLOAD ADD SWAP3 POP POP DUP2 SWAP1 SSTORE POP JUMPDEST DUP2 PUSH20 0xFFFFFFFFFFFFFFFFFFFFFFFFFFFFFFFFFFFFFFFF AND DUP4 PUSH20 0xFFFFFFFFFFFFFFFFFFFFFFFFFFFFFFFFFFFFFFFF AND PUSH32 0xDDF252AD1BE2C89B69C2B068FC378DAA952BA7F163C4A11628F55A4DF523B3EF DUP4 PUSH1 0x40 MLOAD PUSH2 0x55F SWAP2 SWAP1 PUSH2 0x993 JUMP JUMPDEST PUSH1 0x40 MLOAD DUP1 SWAP2 SUB SWAP1 LOG3 POP POP POP JUMP JUMPDEST PUSH1 0x0 DUP2 MLOAD SWAP1 POP SWAP2 SWAP1 POP JUMP JUMPDEST PUSH32 0x4E487B7100000000000000000000000000000000000000000000000000000000 PUSH1 0x0 MSTORE PUSH1 0x41 PUSH1 0x4 MSTORE PUSH1 0x24 PUSH1 0x0 REVERT JUMPDEST PUSH32 0x4E487B7100000000000000000000000000000000000000000000000000000000 PUSH1 0x0 MSTORE PUSH1 0x22 PUSH1 0x4 MSTORE PUSH1 0x24 PUSH1 0x0 REVERT JUMPDEST PUSH1 0x0 PUSH1 0x2 DUP3 DIV SWAP1 POP PUSH1 0x1 DUP3 AND DUP1 PUSH2 0x5ED JUMPI PUSH1 0x7F DUP3 AND SWAP2 POP JUMPDEST PUSH1 0x20 DUP3 LT DUP2 SUB PUSH2 0x600 JUMPI PUSH2 0x5FF PUSH2 0x5A6 JUMP JUMPDEST JUMPDEST POP SWAP2 SWAP1 POP JUMP JUMPDEST PUSH1 0x0 DUP2 SWAP1 POP DUP2 PUSH1 0x0 MSTORE PUSH1 0x20 PUSH1 0x0 KECCAK256 SWAP1 POP SWAP2 SWAP1 POP JUMP JUMPDEST PUSH1 0x0 PUSH1 0x20 PUSH1 0x1F DUP4 ADD DIV SWAP1 POP SWAP2 SWAP1 POP JUMP JUMPDEST PUSH1 0x0 DUP3 DUP3 SHL SWAP1 POP SWAP3 SWAP2 POP POP JUMP JUMPDEST PUSH1 0x0 PUSH1 0x8 DUP4 MUL PUSH2 0x668 PUSH32 0xFFFFFFFFFFFFFFFFFFFFFFFFFFFFFFFFFFFFFFFFFFFFFFFFFFFFFFFFFFFFFFFF DUP3 PUSH2 0x62B JUMP JUMPDEST PUSH2 0x672 DUP7 DUP4 PUSH2 0x62B JUMP JUMPDEST SWAP6 POP DUP1 NOT DUP5 AND SWAP4 POP DUP1 DUP7 AND DUP5 OR SWAP3 POP POP POP SWAP4 SWAP3 POP POP POP JUMP JUMPDEST PUSH1 0x0 DUP2 SWAP1 POP SWAP2 SWAP1 POP JUMP JUMPDEST PUSH1 0x0 DUP2 SWAP1 POP SWAP2 SWAP1 POP JUMP JUMPDEST PUSH1 0x0 PUSH2 0x6B9 PUSH2 0x6B4 PUSH2 0x6AF DUP5 PUSH2 0x68A JUMP JUMPDEST PUSH2 0x694 JUMP JUMPDEST PUSH2 0x68A JUMP JUMPDEST SWAP1 POP SWAP2 SWAP1 POP JUMP JUMPDEST PUSH1 0x0 DUP2 SWAP1 POP SWAP2 SWAP1 POP JUMP JUMPDEST PUSH2 0x6D3 DUP4 PUSH2 0x69E JUMP JUMPDEST PUSH2 0x6E7 PUSH2 0x6DF DUP3 PUSH2 0x6C0 JUMP JUMPDEST DUP5 DUP5 SLOAD PUSH2 0x638 JUMP JUMPDEST DUP3 SSTORE POP POP POP POP JUMP JUMPDEST PUSH1 0x0 SWAP1 JUMP JUMPDEST PUSH2 0x6FC PUSH2 0x6EF JUMP JUMPDEST PUSH2 0x707 DUP2 DUP5 DUP5 PUSH2 0x6CA JUMP JUMPDEST POP POP POP JUMP JUMPDEST JUMPDEST DUP2 DUP2 LT ISZERO PUSH2 0x72B JUMPI PUSH2 0x720 PUSH1 0x0 DUP3 PUSH2 0x6F4 JUMP JUMPDEST PUSH1 0x1 DUP2 ADD SWAP1 POP PUSH2 0x70D JUMP JUMPDEST POP POP JUMP JUMPDEST PUSH1 0x1F DUP3 GT ISZERO PUSH2 0x770 JUMPI PUSH2 0x741 DUP2 PUSH2 0x606 JUMP JUMPDEST PUSH2 0x74A DUP5 PUSH2 0x61B JUMP JUMPDEST DUP2 ADD PUSH1 0x20 DUP6 LT ISZERO PUSH2 0x759 JUMPI DUP2 SWAP1 POP JUMPDEST PUSH2 0x76D PUSH2 0x765 DUP6 PUSH2 0x61B JUMP JUMPDEST DUP4 ADD DUP3 PUSH2 0x70C JUMP JUMPDEST POP POP JUMPDEST POP POP POP JUMP JUMPDEST PUSH1 0x0 DUP3 DUP3 SHR SWAP1 POP SWAP3 SWAP2 POP POP JUMP JUMPDEST PUSH1 0x0 PUSH2 0x793 PUSH1 0x0 NOT DUP5 PUSH1 0x8 MUL PUSH2 0x775 JUMP JUMPDEST NOT DUP1 DUP4 AND SWAP2 POP POP SWAP3 SWAP2 POP POP JUMP JUMPDEST PUSH1 0x0 PUSH2 0x7AC DUP4 DUP4 PUSH2 0x782 JUMP JUMPDEST SWAP2 POP DUP3 PUSH1 0x2 MUL DUP3 OR SWAP1 POP SWAP3 SWAP2 POP POP JUMP JUMPDEST PUSH2 0x7C5 DUP3 PUSH2 0x56C JUMP JUMPDEST PUSH8 0xFFFFFFFFFFFFFFFF DUP2 GT ISZERO PUSH2 0x7DE JUMPI PUSH2 0x7DD PUSH2 0x577 JUMP JUMPDEST JUMPDEST PUSH2 0x7E8 DUP3 SLOAD PUSH2 0x5D5 JUMP JUMPDEST PUSH2 0x7F3 DUP3 DUP3 DUP6 PUSH2 0x72F JUMP JUMPDEST PUSH1 0x0 PUSH1 0x20 SWAP1 POP PUSH1 0x1F DUP4 GT PUSH1 0x1 DUP2 EQ PUSH2 0x826 JUMPI PUSH1 0x0 DUP5 ISZERO PUSH2 0x814 JUMPI DUP3 DUP8 ADD MLOAD SWAP1 POP JUMPDEST PUSH2 0x81E DUP6 DUP3 PUSH2 0x7A0 JUMP JUMPDEST DUP7 SSTORE POP PUSH2 0x886 JUMP JUMPDEST PUSH1 0x1F NOT DUP5 AND PUSH2 0x834 DUP7 PUSH2 0x606 JUMP JUMPDEST PUSH1 0x0 JUMPDEST DUP3 DUP2 LT ISZERO PUSH2 0x85C JUMPI DUP5 DUP10 ADD MLOAD DUP3 SSTORE PUSH1 0x1 DUP3 ADD SWAP2 POP PUSH1 0x20 DUP6 ADD SWAP5 POP PUSH1 0x20 DUP2 ADD SWAP1 POP PUSH2 0x837 JUMP JUMPDEST DUP7 DUP4 LT ISZERO PUSH2 0x879 JUMPI DUP5 DUP10 ADD MLOAD PUSH2 0x875 PUSH1 0x1F DUP10 AND DUP3 PUSH2 0x782 JUMP JUMPDEST DUP4 SSTORE POP JUMPDEST PUSH1 0x1 PUSH1 0x2 DUP9 MUL ADD DUP9 SSTORE POP POP POP JUMPDEST POP POP POP POP POP POP JUMP JUMPDEST PUSH1 0x0 PUSH20 0xFFFFFFFFFFFFFFFFFFFFFFFFFFFFFFFFFFFFFFFF DUP3 AND SWAP1 POP SWAP2 SWAP1 POP JUMP JUMPDEST PUSH1 0x0 PUSH2 0x8B9 DUP3 PUSH2 0x88E JUMP JUMPDEST SWAP1 POP SWAP2 SWAP1 POP JUMP JUMPDEST PUSH2 0x8C9 DUP2 PUSH2 0x8AE JUMP JUMPDEST DUP3 MSTORE POP POP JUMP JUMPDEST PUSH1 0x0 PUSH1 0x20 DUP3 ADD SWAP1 POP PUSH2 0x8E4 PUSH1 0x0 DUP4 ADD DUP5 PUSH2 0x8C0 JUMP JUMPDEST SWAP3 SWAP2 POP POP JUMP JUMPDEST PUSH32 0x4E487B7100000000000000000000000000000000000000000000000000000000 PUSH1 0x0 MSTORE PUSH1 0x11 PUSH1 0x4 MSTORE PUSH1 0x24 PUSH1 0x0 REVERT JUMPDEST PUSH1 0x0 PUSH2 0x924 DUP3 PUSH2 0x68A JUMP JUMPDEST SWAP2 POP PUSH2 0x92F DUP4 PUSH2 0x68A JUMP JUMPDEST SWAP3 POP DUP3 DUP3 ADD SWAP1 POP DUP1 DUP3 GT ISZERO PUSH2 0x947 JUMPI PUSH2 0x946 PUSH2 0x8EA JUMP JUMPDEST JUMPDEST SWAP3 SWAP2 POP POP JUMP JUMPDEST PUSH2 0x956 DUP2 PUSH2 0x68A JUMP JUMPDEST DUP3 MSTORE POP POP JUMP JUMPDEST PUSH1 0x0 PUSH1 0x60 DUP3 ADD SWAP1 POP PUSH2 0x971 PUSH1 0x0 DUP4 ADD DUP7 PUSH2 0x8C0 JUMP JUMPDEST PUSH2 0x97E PUSH1 0x20 DUP4 ADD DUP6 PUSH2 0x94D JUMP JUMPDEST PUSH2 0x98B PUSH1 0x40 DUP4 ADD DUP5 PUSH2 0x94D JUMP JUMPDEST SWAP5 SWAP4 POP POP POP POP JUMP JUMPDEST PUSH1 0x0 PUSH1 0x20 DUP3 ADD SWAP1 POP PUSH2 0x9A8 PUSH1 0x0 DUP4 ADD DUP5 PUSH2 0x94D JUMP JUMPDEST SWAP3 SWAP2 POP POP JUMP JUMPDEST PUSH2 0x3EDA DUP1 PUSH2 0x9BD PUSH1 0x0 CODECOPY PUSH1 0x0 RETURN INVALID PUSH1 0x80 PUSH1 0x40 MSTORE PUSH1 0x4 CALLDATASIZE LT PUSH2 0x272 JUMPI PUSH1 0x0 CALLDATALOAD PUSH1 0xE0 SHR DUP1 PUSH4 0x8DA5CB5B GT PUSH2 0x14F JUMPI DUP1 PUSH4 0xB785A6E7 GT PUSH2 0xC1 JUMPI DUP1 PUSH4 0xE086E5EC GT PUSH2 0x7A JUMPI DUP1 PUSH4 0xE086E5EC EQ PUSH2 0x951 JUMPI DUP1 PUSH4 0xE43252D7 EQ PUSH2 0x968 JUMPI DUP1 PUSH4 0xE6A23C3D EQ PUSH2 0x991 JUMPI DUP1 PUSH4 0xEE43D43E EQ PUSH2 0x9A8 JUMPI DUP1 PUSH4 0xF2FDE38B EQ PUSH2 0x9D3 JUMPI DUP1 PUSH4 0xFDB20CCB EQ PUSH2 0x9FC JUMPI PUSH2 0x272 JUMP JUMPDEST DUP1 PUSH4 0xB785A6E7 EQ PUSH2 0x83D JUMPI DUP1 PUSH4 0xB8E50CAB EQ PUSH2 0x868 JUMPI DUP1 PUSH4 0xBDA95633 EQ PUSH2 0x893 JUMPI DUP1 PUSH4 0xC552E04B EQ PUSH2 0x8BE JUMPI DUP1 PUSH4 0xD50234C4 EQ PUSH2 0x8E9 JUMPI DUP1 PUSH4 0xDD62ED3E EQ PUSH2 0x914 JUMPI PUSH2 0x272 JUMP JUMPDEST DUP1 PUSH4 0x95D89B41 GT PUSH2 0x113 JUMPI DUP1 PUSH4 0x95D89B41 EQ PUSH2 0x707 JUMPI DUP1 PUSH4 0x9B19251A EQ PUSH2 0x732 JUMPI DUP1 PUSH4 0xA089DE2F EQ PUSH2 0x76F JUMPI DUP1 PUSH4 0xA9059CBB EQ PUSH2 0x798 JUMPI DUP1 PUSH4 0xABFCFCF3 EQ PUSH2 0x7D5 JUMPI DUP1 PUSH4 0xB0E68630 EQ PUSH2 0x812 JUMPI PUSH2 0x272 JUMP JUMPDEST DUP1 PUSH4 0x8DA5CB5B EQ PUSH2 0x630 JUMPI DUP1 PUSH4 0x902D55A5 EQ PUSH2 0x65B JUMPI DUP1 PUSH4 0x91500AFF EQ PUSH2 0x686 JUMPI DUP1 PUSH4 0x9357C239 EQ PUSH2 0x6B1 JUMPI DUP1 PUSH4 0x940DE97E EQ PUSH2 0x6DC JUMPI PUSH2 0x272 JUMP JUMPDEST DUP1 PUSH4 0x516E3E15 GT PUSH2 0x1E8 JUMPI DUP1 PUSH4 0x70A08231 GT PUSH2 0x1AC JUMPI DUP1 PUSH4 0x70A08231 EQ PUSH2 0x536 JUMPI DUP1 PUSH4 0x715018A6 EQ PUSH2 0x573 JUMPI DUP1 PUSH4 0x71AA60FD EQ PUSH2 0x58A JUMPI DUP1 PUSH4 0x77FFF102 EQ PUSH2 0x5C7 JUMPI DUP1 PUSH4 0x8AB1D681 EQ PUSH2 0x5F0 JUMPI DUP1 PUSH4 0x8D8F2ADB EQ PUSH2 0x619 JUMPI PUSH2 0x272 JUMP JUMPDEST DUP1 PUSH4 0x516E3E15 EQ PUSH2 0x475 JUMPI DUP1 PUSH4 0x54DD1DA4 EQ PUSH2 0x4A0 JUMPI DUP1 PUSH4 0x5C975ABB EQ PUSH2 0x4B7 JUMPI DUP1 PUSH4 0x5FB3B944 EQ PUSH2 0x4E2 JUMPI DUP1 PUSH4 0x6C6218AE EQ PUSH2 0x50D JUMPI PUSH2 0x272 JUMP JUMPDEST DUP1 PUSH4 0x23B872DD GT PUSH2 0x23A JUMPI DUP1 PUSH4 0x23B872DD EQ PUSH2 0x372 JUMPI DUP1 PUSH4 0x2A237BB6 EQ PUSH2 0x3AF JUMPI DUP1 PUSH4 0x313CE567 EQ PUSH2 0x3DA JUMPI DUP1 PUSH4 0x33CAA27F EQ PUSH2 0x405 JUMPI DUP1 PUSH4 0x40F02AB6 EQ PUSH2 0x421 JUMPI DUP1 PUSH4 0x503AD00E EQ PUSH2 0x44C JUMPI PUSH2 0x272 JUMP JUMPDEST DUP1 PUSH4 0x34C0CF7 EQ PUSH2 0x277 JUMPI DUP1 PUSH4 0x6FDDE03 EQ PUSH2 0x2B4 JUMPI DUP1 PUSH4 0x95EA7B3 EQ PUSH2 0x2DF JUMPI DUP1 PUSH4 0x1514617E EQ PUSH2 0x31C JUMPI DUP1 PUSH4 0x18160DDD EQ PUSH2 0x347 JUMPI JUMPDEST PUSH1 0x0 DUP1 REVERT JUMPDEST CALLVALUE DUP1 ISZERO PUSH2 0x283 JUMPI PUSH1 0x0 DUP1 REVERT JUMPDEST POP PUSH2 0x29E PUSH1 0x4 DUP1 CALLDATASIZE SUB DUP2 ADD SWAP1 PUSH2 0x299 SWAP2 SWAP1 PUSH2 0x2786 JUMP JUMPDEST PUSH2 0xA3D JUMP JUMPDEST PUSH1 0x40 MLOAD PUSH2 0x2AB SWAP2 SWAP1 PUSH2 0x2843 JUMP JUMPDEST PUSH1 0x40 MLOAD DUP1 SWAP2 SUB SWAP1 RETURN JUMPDEST CALLVALUE DUP1 ISZERO PUSH2 0x2C0 JUMPI PUSH1 0x0 DUP1 REVERT JUMPDEST POP PUSH2 0x2C9 PUSH2 0xADD JUMP JUMPDEST PUSH1 0x40 MLOAD PUSH2 0x2D6 SWAP2 SWAP1 PUSH2 0x2843 JUMP JUMPDEST PUSH1 0x40 MLOAD DUP1 SWAP2 SUB SWAP1 RETURN JUMPDEST CALLVALUE DUP1 ISZERO PUSH2 0x2EB JUMPI PUSH1 0x0 DUP1 REVERT JUMPDEST POP PUSH2 0x306 PUSH1 0x4 DUP1 CALLDATASIZE SUB DUP2 ADD SWAP1 PUSH2 0x301 SWAP2 SWAP1 PUSH2 0x289B JUMP JUMPDEST PUSH2 0xB6F JUMP JUMPDEST PUSH1 0x40 MLOAD PUSH2 0x313 SWAP2 SWAP1 PUSH2 0x28F6 JUMP JUMPDEST PUSH1 0x40 MLOAD DUP1 SWAP2 SUB SWAP1 RETURN JUMPDEST CALLVALUE DUP1 ISZERO PUSH2 0x328 JUMPI PUSH1 0x0 DUP1 REVERT JUMPDEST POP PUSH2 0x331 PUSH2 0xB92 JUMP JUMPDEST PUSH1 0x40 MLOAD PUSH2 0x33E SWAP2 SWAP1 PUSH2 0x2920 JUMP JUMPDEST PUSH1 0x40 MLOAD DUP1 SWAP2 SUB SWAP1 RETURN JUMPDEST CALLVALUE DUP1 ISZERO PUSH2 0x353 JUMPI PUSH1 0x0 DUP1 REVERT JUMPDEST POP PUSH2 0x35C PUSH2 0xB98 JUMP JUMPDEST PUSH1 0x40 MLOAD PUSH2 0x369 SWAP2 SWAP1 PUSH2 0x2920 JUMP JUMPDEST PUSH1 0x40 MLOAD DUP1 SWAP2 SUB SWAP1 RETURN JUMPDEST CALLVALUE DUP1 ISZERO PUSH2 0x37E JUMPI PUSH1 0x0 DUP1 REVERT JUMPDEST POP PUSH2 0x399 PUSH1 0x4 DUP1 CALLDATASIZE SUB DUP2 ADD SWAP1 PUSH2 0x394 SWAP2 SWAP1 PUSH2 0x293B JUMP JUMPDEST PUSH2 0xBA2 JUMP JUMPDEST PUSH1 0x40 MLOAD PUSH2 0x3A6 SWAP2 SWAP1 PUSH2 0x28F6 JUMP JUMPDEST PUSH1 0x40 MLOAD DUP1 SWAP2 SUB SWAP1 RETURN JUMPDEST CALLVALUE DUP1 ISZERO PUSH2 0x3BB JUMPI PUSH1 0x0 DUP1 REVERT JUMPDEST POP PUSH2 0x3C4 PUSH2 0xBD1 JUMP JUMPDEST PUSH1 0x40 MLOAD PUSH2 0x3D1 SWAP2 SWAP1 PUSH2 0x28F6 JUMP JUMPDEST PUSH1 0x40 MLOAD DUP1 SWAP2 SUB SWAP1 RETURN JUMPDEST CALLVALUE DUP1 ISZERO PUSH2 0x3E6 JUMPI PUSH1 0x0 DUP1 REVERT JUMPDEST POP PUSH2 0x3EF PUSH2 0xBE4 JUMP JUMPDEST PUSH1 0x40 MLOAD PUSH2 0x3FC SWAP2 SWAP1 PUSH2 0x29AA JUMP JUMPDEST PUSH1 0x40 MLOAD DUP1 SWAP2 SUB SWAP1 RETURN JUMPDEST PUSH2 0x41F PUSH1 0x4 DUP1 CALLDATASIZE SUB DUP2 ADD SWAP1 PUSH2 0x41A SWAP2 SWAP1 PUSH2 0x2A2A JUMP JUMPDEST PUSH2 0xBED JUMP JUMPDEST STOP JUMPDEST CALLVALUE DUP1 ISZERO PUSH2 0x42D JUMPI PUSH1 0x0 DUP1 REVERT JUMPDEST POP PUSH2 0x436 PUSH2 0x10B0 JUMP JUMPDEST PUSH1 0x40 MLOAD PUSH2 0x443 SWAP2 SWAP1 PUSH2 0x2920 JUMP JUMPDEST PUSH1 0x40 MLOAD DUP1 SWAP2 SUB SWAP1 RETURN JUMPDEST CALLVALUE DUP1 ISZERO PUSH2 0x458 JUMPI PUSH1 0x0 DUP1 REVERT JUMPDEST POP PUSH2 0x473 PUSH1 0x4 DUP1 CALLDATASIZE SUB DUP2 ADD SWAP1 PUSH2 0x46E SWAP2 SWAP1 PUSH2 0x2A8A JUMP JUMPDEST PUSH2 0x10B6 JUMP JUMPDEST STOP JUMPDEST CALLVALUE DUP1 ISZERO PUSH2 0x481 JUMPI PUSH1 0x0 DUP1 REVERT JUMPDEST POP PUSH2 0x48A PUSH2 0x1305 JUMP JUMPDEST PUSH1 0x40 MLOAD PUSH2 0x497 SWAP2 SWAP1 PUSH2 0x2920 JUMP JUMPDEST PUSH1 0x40 MLOAD DUP1 SWAP2 SUB SWAP1 RETURN JUMPDEST CALLVALUE DUP1 ISZERO PUSH2 0x4AC JUMPI PUSH1 0x0 DUP1 REVERT JUMPDEST POP PUSH2 0x4B5 PUSH2 0x130B JUMP JUMPDEST STOP JUMPDEST CALLVALUE DUP1 ISZERO PUSH2 0x4C3 JUMPI PUSH1 0x0 DUP1 REVERT JUMPDEST POP PUSH2 0x4CC PUSH2 0x14A4 JUMP JUMPDEST PUSH1 0x40 MLOAD PUSH2 0x4D9 SWAP2 SWAP1 PUSH2 0x28F6 JUMP JUMPDEST PUSH1 0x40 MLOAD DUP1 SWAP2 SUB SWAP1 RETURN JUMPDEST CALLVALUE DUP1 ISZERO PUSH2 0x4EE JUMPI PUSH1 0x0 DUP1 REVERT JUMPDEST POP PUSH2 0x4F7 PUSH2 0x14BB JUMP JUMPDEST PUSH1 0x40 MLOAD PUSH2 0x504 SWAP2 SWAP1 PUSH2 0x2920 JUMP JUMPDEST PUSH1 0x40 MLOAD DUP1 SWAP2 SUB SWAP1 RETURN JUMPDEST CALLVALUE DUP1 ISZERO PUSH2 0x519 JUMPI PUSH1 0x0 DUP1 REVERT JUMPDEST POP PUSH2 0x534 PUSH1 0x4 DUP1 CALLDATASIZE SUB DUP2 ADD SWAP1 PUSH2 0x52F SWAP2 SWAP1 PUSH2 0x2AEA JUMP JUMPDEST PUSH2 0x14C1 JUMP JUMPDEST STOP JUMPDEST CALLVALUE DUP1 ISZERO PUSH2 0x542 JUMPI PUSH1 0x0 DUP1 REVERT JUMPDEST POP PUSH2 0x55D PUSH1 0x4 DUP1 CALLDATASIZE SUB DUP2 ADD SWAP1 PUSH2 0x558 SWAP2 SWAP1 PUSH2 0x2786 JUMP JUMPDEST PUSH2 0x1523 JUMP JUMPDEST PUSH1 0x40 MLOAD PUSH2 0x56A SWAP2 SWAP1 PUSH2 0x2920 JUMP JUMPDEST PUSH1 0x40 MLOAD DUP1 SWAP2 SUB SWAP1 RETURN JUMPDEST CALLVALUE DUP1 ISZERO PUSH2 0x57F JUMPI PUSH1 0x0 DUP1 REVERT JUMPDEST POP PUSH2 0x588 PUSH2 0x156B JUMP JUMPDEST STOP JUMPDEST CALLVALUE DUP1 ISZERO PUSH2 0x596 JUMPI PUSH1 0x0 DUP1 REVERT JUMPDEST POP PUSH2 0x5B1 PUSH1 0x4 DUP1 CALLDATASIZE SUB DUP2 ADD SWAP1 PUSH2 0x5AC SWAP2 SWAP1 PUSH2 0x2AEA JUMP JUMPDEST PUSH2 0x157F JUMP JUMPDEST PUSH1 0x40 MLOAD PUSH2 0x5BE SWAP2 SWAP1 PUSH2 0x2920 JUMP JUMPDEST PUSH1 0x40 MLOAD DUP1 SWAP2 SUB SWAP1 RETURN JUMPDEST CALLVALUE DUP1 ISZERO PUSH2 0x5D3 JUMPI PUSH1 0x0 DUP1 REVERT JUMPDEST POP PUSH2 0x5EE PUSH1 0x4 DUP1 CALLDATASIZE SUB DUP2 ADD SWAP1 PUSH2 0x5E9 SWAP2 SWAP1 PUSH2 0x2B17 JUMP JUMPDEST PUSH2 0x15D5 JUMP JUMPDEST STOP JUMPDEST CALLVALUE DUP1 ISZERO PUSH2 0x5FC JUMPI PUSH1 0x0 DUP1 REVERT JUMPDEST POP PUSH2 0x617 PUSH1 0x4 DUP1 CALLDATASIZE SUB DUP2 ADD SWAP1 PUSH2 0x612 SWAP2 SWAP1 PUSH2 0x2786 JUMP JUMPDEST PUSH2 0x1674 JUMP JUMPDEST STOP JUMPDEST CALLVALUE DUP1 ISZERO PUSH2 0x625 JUMPI PUSH1 0x0 DUP1 REVERT JUMPDEST POP PUSH2 0x62E PUSH2 0x17A6 JUMP JUMPDEST STOP JUMPDEST CALLVALUE DUP1 ISZERO PUSH2 0x63C JUMPI PUSH1 0x0 DUP1 REVERT JUMPDEST POP PUSH2 0x645 PUSH2 0x184A JUMP JUMPDEST PUSH1 0x40 MLOAD PUSH2 0x652 SWAP2 SWAP1 PUSH2 0x2B66 JUMP JUMPDEST PUSH1 0x40 MLOAD DUP1 SWAP2 SUB SWAP1 RETURN JUMPDEST CALLVALUE DUP1 ISZERO PUSH2 0x667 JUMPI PUSH1 0x0 DUP1 REVERT JUMPDEST POP PUSH2 0x670 PUSH2 0x1874 JUMP JUMPDEST PUSH1 0x40 MLOAD PUSH2 0x67D SWAP2 SWAP1 PUSH2 0x2920 JUMP JUMPDEST PUSH1 0x40 MLOAD DUP1 SWAP2 SUB SWAP1 RETURN JUMPDEST CALLVALUE DUP1 ISZERO PUSH2 0x692 JUMPI PUSH1 0x0 DUP1 REVERT JUMPDEST POP PUSH2 0x69B PUSH2 0x1883 JUMP JUMPDEST PUSH1 0x40 MLOAD PUSH2 0x6A8 SWAP2 SWAP1 PUSH2 0x2920 JUMP JUMPDEST PUSH1 0x40 MLOAD DUP1 SWAP2 SUB SWAP1 RETURN JUMPDEST CALLVALUE DUP1 ISZERO PUSH2 0x6BD JUMPI PUSH1 0x0 DUP1 REVERT JUMPDEST POP PUSH2 0x6C6 PUSH2 0x1889 JUMP JUMPDEST PUSH1 0x40 MLOAD PUSH2 0x6D3 SWAP2 SWAP1 PUSH2 0x2920 JUMP JUMPDEST PUSH1 0x40 MLOAD DUP1 SWAP2 SUB SWAP1 RETURN JUMPDEST CALLVALUE DUP1 ISZERO PUSH2 0x6E8 JUMPI PUSH1 0x0 DUP1 REVERT JUMPDEST POP PUSH2 0x6F1 PUSH2 0x18E2 JUMP JUMPDEST PUSH1 0x40 MLOAD PUSH2 0x6FE SWAP2 SWAP1 PUSH2 0x2920 JUMP JUMPDEST PUSH1 0x40 MLOAD DUP1 SWAP2 SUB SWAP1 RETURN JUMPDEST CALLVALUE DUP1 ISZERO PUSH2 0x713 JUMPI PUSH1 0x0 DUP1 REVERT JUMPDEST POP PUSH2 0x71C PUSH2 0x18E8 JUMP JUMPDEST PUSH1 0x40 MLOAD PUSH2 0x729 SWAP2 SWAP1 PUSH2 0x2843 JUMP JUMPDEST PUSH1 0x40 MLOAD DUP1 SWAP2 SUB SWAP1 RETURN JUMPDEST CALLVALUE DUP1 ISZERO PUSH2 0x73E JUMPI PUSH1 0x0 DUP1 REVERT JUMPDEST POP PUSH2 0x759 PUSH1 0x4 DUP1 CALLDATASIZE SUB DUP2 ADD SWAP1 PUSH2 0x754 SWAP2 SWAP1 PUSH2 0x2786 JUMP JUMPDEST PUSH2 0x197A JUMP JUMPDEST PUSH1 0x40 MLOAD PUSH2 0x766 SWAP2 SWAP1 PUSH2 0x28F6 JUMP JUMPDEST PUSH1 0x40 MLOAD DUP1 SWAP2 SUB SWAP1 RETURN JUMPDEST CALLVALUE DUP1 ISZERO PUSH2 0x77B JUMPI PUSH1 0x0 DUP1 REVERT JUMPDEST POP PUSH2 0x796 PUSH1 0x4 DUP1 CALLDATASIZE SUB DUP2 ADD SWAP1 PUSH2 0x791 SWAP2 SWAP1 PUSH2 0x2AEA JUMP JUMPDEST PUSH2 0x199A JUMP JUMPDEST STOP JUMPDEST CALLVALUE DUP1 ISZERO PUSH2 0x7A4 JUMPI PUSH1 0x0 DUP1 REVERT JUMPDEST POP PUSH2 0x7BF PUSH1 0x4 DUP1 CALLDATASIZE SUB DUP2 ADD SWAP1 PUSH2 0x7BA SWAP2 SWAP1 PUSH2 0x289B JUMP JUMPDEST PUSH2 0x1AAB JUMP JUMPDEST PUSH1 0x40 MLOAD PUSH2 0x7CC SWAP2 SWAP1 PUSH2 0x28F6 JUMP JUMPDEST PUSH1 0x40 MLOAD DUP1 SWAP2 SUB SWAP1 RETURN JUMPDEST CALLVALUE DUP1 ISZERO PUSH2 0x7E1 JUMPI PUSH1 0x0 DUP1 REVERT JUMPDEST POP PUSH2 0x7FC PUSH1 0x4 DUP1 CALLDATASIZE SUB DUP2 ADD SWAP1 PUSH2 0x7F7 SWAP2 SWAP1 PUSH2 0x2CB1 JUMP JUMPDEST PUSH2 0x1ACE JUMP JUMPDEST PUSH1 0x40 MLOAD PUSH2 0x809 SWAP2 SWAP1 PUSH2 0x2B66 JUMP JUMPDEST PUSH1 0x40 MLOAD DUP1 SWAP2 SUB SWAP1 RETURN JUMPDEST CALLVALUE DUP1 ISZERO PUSH2 0x81E JUMPI PUSH1 0x0 DUP1 REVERT JUMPDEST POP PUSH2 0x827 PUSH2 0x1B17 JUMP JUMPDEST PUSH1 0x40 MLOAD PUSH2 0x834 SWAP2 SWAP1 PUSH2 0x2920 JUMP JUMPDEST PUSH1 0x40 MLOAD DUP1 SWAP2 SUB SWAP1 RETURN JUMPDEST CALLVALUE DUP1 ISZERO PUSH2 0x849 JUMPI PUSH1 0x0 DUP1 REVERT JUMPDEST POP PUSH2 0x852 PUSH2 0x1B1D JUMP JUMPDEST PUSH1 0x40 MLOAD PUSH2 0x85F SWAP2 SWAP1 PUSH2 0x2920 JUMP JUMPDEST PUSH1 0x40 MLOAD DUP1 SWAP2 SUB SWAP1 RETURN JUMPDEST CALLVALUE DUP1 ISZERO PUSH2 0x874 JUMPI PUSH1 0x0 DUP1 REVERT JUMPDEST POP PUSH2 0x87D PUSH2 0x1B23 JUMP JUMPDEST PUSH1 0x40 MLOAD PUSH2 0x88A SWAP2 SWAP1 PUSH2 0x2920 JUMP JUMPDEST PUSH1 0x40 MLOAD DUP1 SWAP2 SUB SWAP1 RETURN JUMPDEST CALLVALUE DUP1 ISZERO PUSH2 0x89F JUMPI PUSH1 0x0 DUP1 REVERT JUMPDEST POP PUSH2 0x8A8 PUSH2 0x1B29 JUMP JUMPDEST PUSH1 0x40 MLOAD PUSH2 0x8B5 SWAP2 SWAP1 PUSH2 0x2920 JUMP JUMPDEST PUSH1 0x40 MLOAD DUP1 SWAP2 SUB SWAP1 RETURN JUMPDEST CALLVALUE DUP1 ISZERO PUSH2 0x8CA JUMPI PUSH1 0x0 DUP1 REVERT JUMPDEST POP PUSH2 0x8D3 PUSH2 0x1B2F JUMP JUMPDEST PUSH1 0x40 MLOAD PUSH2 0x8E0 SWAP2 SWAP1 PUSH2 0x2920 JUMP JUMPDEST PUSH1 0x40 MLOAD DUP1 SWAP2 SUB SWAP1 RETURN JUMPDEST CALLVALUE DUP1 ISZERO PUSH2 0x8F5 JUMPI PUSH1 0x0 DUP1 REVERT JUMPDEST POP PUSH2 0x8FE PUSH2 0x1B35 JUMP JUMPDEST PUSH1 0x40 MLOAD PUSH2 0x90B SWAP2 SWAP1 PUSH2 0x2920 JUMP JUMPDEST PUSH1 0x40 MLOAD DUP1 SWAP2 SUB SWAP1 RETURN JUMPDEST CALLVALUE DUP1 ISZERO PUSH2 0x920 JUMPI PUSH1 0x0 DUP1 REVERT JUMPDEST POP PUSH2 0x93B PUSH1 0x4 DUP1 CALLDATASIZE SUB DUP2 ADD SWAP1 PUSH2 0x936 SWAP2 SWAP1 PUSH2 0x2CFA JUMP JUMPDEST PUSH2 0x1B3B JUMP JUMPDEST PUSH1 0x40 MLOAD PUSH2 0x948 SWAP2 SWAP1 PUSH2 0x2920 JUMP JUMPDEST PUSH1 0x40 MLOAD DUP1 SWAP2 SUB SWAP1 RETURN JUMPDEST CALLVALUE DUP1 ISZERO PUSH2 0x95D JUMPI PUSH1 0x0 DUP1 REVERT JUMPDEST POP PUSH2 0x966 PUSH2 0x1BC2 JUMP JUMPDEST STOP JUMPDEST CALLVALUE DUP1 ISZERO PUSH2 0x974 JUMPI PUSH1 0x0 DUP1 REVERT JUMPDEST POP PUSH2 0x98F PUSH1 0x4 DUP1 CALLDATASIZE SUB DUP2 ADD SWAP1 PUSH2 0x98A SWAP2 SWAP1 PUSH2 0x2786 JUMP JUMPDEST PUSH2 0x1D00 JUMP JUMPDEST STOP JUMPDEST CALLVALUE DUP1 ISZERO PUSH2 0x99D JUMPI PUSH1 0x0 DUP1 REVERT JUMPDEST POP PUSH2 0x9A6 PUSH2 0x1DA6 JUMP JUMPDEST STOP JUMPDEST CALLVALUE DUP1 ISZERO PUSH2 0x9B4 JUMPI PUSH1 0x0 DUP1 REVERT JUMPDEST POP PUSH2 0x9BD PUSH2 0x1E46 JUMP JUMPDEST PUSH1 0x40 MLOAD PUSH2 0x9CA SWAP2 SWAP1 PUSH2 0x2920 JUMP JUMPDEST PUSH1 0x40 MLOAD DUP1 SWAP2 SUB SWAP1 RETURN JUMPDEST CALLVALUE DUP1 ISZERO PUSH2 0x9DF JUMPI PUSH1 0x0 DUP1 REVERT JUMPDEST POP PUSH2 0x9FA PUSH1 0x4 DUP1 CALLDATASIZE SUB DUP2 ADD SWAP1 PUSH2 0x9F5 SWAP2 SWAP1 PUSH2 0x2786 JUMP JUMPDEST PUSH2 0x1E4C JUMP JUMPDEST STOP JUMPDEST CALLVALUE DUP1 ISZERO PUSH2 0xA08 JUMPI PUSH1 0x0 DUP1 REVERT JUMPDEST POP PUSH2 0xA23 PUSH1 0x4 DUP1 CALLDATASIZE SUB DUP2 ADD SWAP1 PUSH2 0xA1E SWAP2 SWAP1 PUSH2 0x2786 JUMP JUMPDEST PUSH2 0x1ED2 JUMP JUMPDEST PUSH1 0x40 MLOAD PUSH2 0xA34 SWAP6 SWAP5 SWAP4 SWAP3 SWAP2 SWAP1 PUSH2 0x2D3A JUMP JUMPDEST PUSH1 0x40 MLOAD DUP1 SWAP2 SUB SWAP1 RETURN JUMPDEST PUSH1 0x16 PUSH1 0x20 MSTORE DUP1 PUSH1 0x0 MSTORE PUSH1 0x40 PUSH1 0x0 KECCAK256 PUSH1 0x0 SWAP2 POP SWAP1 POP DUP1 SLOAD PUSH2 0xA5C SWAP1 PUSH2 0x2DBC JUMP JUMPDEST DUP1 PUSH1 0x1F ADD PUSH1 0x20 DUP1 SWAP2 DIV MUL PUSH1 0x20 ADD PUSH1 0x40 MLOAD SWAP1 DUP2 ADD PUSH1 0x40 MSTORE DUP1 SWAP3 SWAP2 SWAP1 DUP2 DUP2 MSTORE PUSH1 0x20 ADD DUP3 DUP1 SLOAD PUSH2 0xA88 SWAP1 PUSH2 0x2DBC JUMP JUMPDEST DUP1 ISZERO PUSH2 0xAD5 JUMPI DUP1 PUSH1 0x1F LT PUSH2 0xAAA JUMPI PUSH2 0x100 DUP1 DUP4 SLOAD DIV MUL DUP4 MSTORE SWAP2 PUSH1 0x20 ADD SWAP2 PUSH2 0xAD5 JUMP JUMPDEST DUP3 ADD SWAP2 SWAP1 PUSH1 0x0 MSTORE PUSH1 0x20 PUSH1 0x0 KECCAK256 SWAP1 JUMPDEST DUP2 SLOAD DUP2 MSTORE SWAP1 PUSH1 0x1 ADD SWAP1 PUSH1 0x20 ADD DUP1 DUP4 GT PUSH2 0xAB8 JUMPI DUP3 SWAP1 SUB PUSH1 0x1F AND DUP3 ADD SWAP2 JUMPDEST POP POP POP POP POP DUP2 JUMP JUMPDEST PUSH1 0x60 PUSH1 0x3 DUP1 SLOAD PUSH2 0xAEC SWAP1 PUSH2 0x2DBC JUMP JUMPDEST DUP1 PUSH1 0x1F ADD PUSH1 0x20 DUP1 SWAP2 DIV MUL PUSH1 0x20 ADD PUSH1 0x40 MLOAD SWAP1 DUP2 ADD PUSH1 0x40 MSTORE DUP1 SWAP3 SWAP2 SWAP1 DUP2 DUP2 MSTORE PUSH1 0x20 ADD DUP3 DUP1 SLOAD PUSH2 0xB18 SWAP1 PUSH2 0x2DBC JUMP JUMPDEST DUP1 ISZERO PUSH2 0xB65 JUMPI DUP1 PUSH1 0x1F LT PUSH2 0xB3A JUMPI PUSH2 0x100 DUP1 DUP4 SLOAD DIV MUL DUP4 MSTORE SWAP2 PUSH1 0x20 ADD SWAP2 PUSH2 0xB65 JUMP JUMPDEST DUP3 ADD SWAP2 SWAP1 PUSH1 0x0 MSTORE PUSH1 0x20 PUSH1 0x0 KECCAK256 SWAP1 JUMPDEST DUP2 SLOAD DUP2 MSTORE SWAP1 PUSH1 0x1 ADD SWAP1 PUSH1 0x20 ADD DUP1 DUP4 GT PUSH2 0xB48 JUMPI DUP3 SWAP1 SUB PUSH1 0x1F AND DUP3 ADD SWAP2 JUMPDEST POP POP POP POP POP SWAP1 POP SWAP1 JUMP JUMPDEST PUSH1 0x0 DUP1 PUSH2 0xB7A PUSH2 0x1F08 JUMP JUMPDEST SWAP1 POP PUSH2 0xB87 DUP2 DUP6 DUP6 PUSH2 0x1F10 JUMP JUMPDEST PUSH1 0x1 SWAP2 POP POP SWAP3 SWAP2 POP POP JUMP JUMPDEST PUSH1 0x12 SLOAD DUP2 JUMP JUMPDEST PUSH1 0x0 PUSH1 0x2 SLOAD SWAP1 POP SWAP1 JUMP JUMPDEST PUSH1 0x0 DUP1 PUSH2 0xBAD PUSH2 0x1F08 JUMP JUMPDEST SWAP1 POP PUSH2 0xBBA DUP6 DUP3 DUP6 PUSH2 0x1F22 JUMP JUMPDEST PUSH2 0xBC5 DUP6 DUP6 DUP6 PUSH2 0x1FB6 JUMP JUMPDEST PUSH1 0x1 SWAP2 POP POP SWAP4 SWAP3 POP POP POP JUMP JUMPDEST PUSH1 0x19 PUSH1 0x0 SWAP1 SLOAD SWAP1 PUSH2 0x100 EXP SWAP1 DIV PUSH1 0xFF AND DUP2 JUMP JUMPDEST PUSH1 0x0 PUSH1 0x12 SWAP1 POP SWAP1 JUMP JUMPDEST PUSH2 0xBF5 PUSH2 0x20AA JUMP JUMPDEST PUSH2 0xBFD PUSH2 0x20F9 JUMP JUMPDEST PUSH1 0x19 PUSH1 0x0 SWAP1 SLOAD SWAP1 PUSH2 0x100 EXP SWAP1 DIV PUSH1 0xFF AND PUSH2 0xC4C JUMPI PUSH1 0x40 MLOAD PUSH32 0x8C379A000000000000000000000000000000000000000000000000000000000 DUP2 MSTORE PUSH1 0x4 ADD PUSH2 0xC43 SWAP1 PUSH2 0x2E39 JUMP JUMPDEST PUSH1 0x40 MLOAD DUP1 SWAP2 SUB SWAP1 REVERT JUMPDEST PUSH1 0x15 PUSH1 0x0 CALLER PUSH20 0xFFFFFFFFFFFFFFFFFFFFFFFFFFFFFFFFFFFFFFFF AND PUSH20 0xFFFFFFFFFFFFFFFFFFFFFFFFFFFFFFFFFFFFFFFF AND DUP2 MSTORE PUSH1 0x20 ADD SWAP1 DUP2 MSTORE PUSH1 0x20 ADD PUSH1 0x0 KECCAK256 PUSH1 0x0 SWAP1 SLOAD SWAP1 PUSH2 0x100 EXP SWAP1 DIV PUSH1 0xFF AND PUSH2 0xCD8 JUMPI PUSH1 0x40 MLOAD PUSH32 0x8C379A000000000000000000000000000000000000000000000000000000000 DUP2 MSTORE PUSH1 0x4 ADD PUSH2 0xCCF SWAP1 PUSH2 0x2EA5 JUMP JUMPDEST PUSH1 0x40 MLOAD DUP1 SWAP2 SUB SWAP1 REVERT JUMPDEST PUSH1 0x8 SLOAD PUSH1 0xB SLOAD LT PUSH2 0xD1E JUMPI PUSH1 0x40 MLOAD PUSH32 0x8C379A000000000000000000000000000000000000000000000000000000000 DUP2 MSTORE PUSH1 0x4 ADD PUSH2 0xD15 SWAP1 PUSH2 0x2F11 JUMP JUMPDEST PUSH1 0x40 MLOAD DUP1 SWAP2 SUB SWAP1 REVERT JUMPDEST PUSH1 0xE SLOAD DUP4 LT ISZERO PUSH2 0xD63 JUMPI PUSH1 0x40 MLOAD PUSH32 0x8C379A000000000000000000000000000000000000000000000000000000000 DUP2 MSTORE PUSH1 0x4 ADD PUSH2 0xD5A SWAP1 PUSH2 0x2FA3 JUMP JUMPDEST PUSH1 0x40 MLOAD DUP1 SWAP2 SUB SWAP1 REVERT JUMPDEST PUSH1 0x0 PUSH2 0xD6E DUP5 PUSH2 0x157F JUMP JUMPDEST SWAP1 POP PUSH1 0xF SLOAD DUP2 LT ISZERO PUSH2 0xDB5 JUMPI PUSH1 0x40 MLOAD PUSH32 0x8C379A000000000000000000000000000000000000000000000000000000000 DUP2 MSTORE PUSH1 0x4 ADD PUSH2 0xDAC SWAP1 PUSH2 0x3035 JUMP JUMPDEST PUSH1 0x40 MLOAD DUP1 SWAP2 SUB SWAP1 REVERT JUMPDEST PUSH1 0x10 SLOAD DUP2 GT ISZERO PUSH2 0xDFA JUMPI PUSH1 0x40 MLOAD PUSH32 0x8C379A000000000000000000000000000000000000000000000000000000000 DUP2 MSTORE PUSH1 0x4 ADD PUSH2 0xDF1 SWAP1 PUSH2 0x30ED JUMP JUMPDEST PUSH1 0x40 MLOAD DUP1 SWAP2 SUB SWAP1 REVERT JUMPDEST PUSH1 0xD SLOAD DUP2 GT ISZERO PUSH2 0xE3F JUMPI PUSH1 0x40 MLOAD PUSH32 0x8C379A000000000000000000000000000000000000000000000000000000000 DUP2 MSTORE PUSH1 0x4 ADD PUSH2 0xE36 SWAP1 PUSH2 0x317F JUMP JUMPDEST PUSH1 0x40 MLOAD DUP1 SWAP2 SUB SWAP1 REVERT JUMPDEST DUP1 PUSH1 0xB SLOAD PUSH2 0xE4D SWAP2 SWAP1 PUSH2 0x31CE JUMP JUMPDEST PUSH1 0xB DUP2 SWAP1 SSTORE POP PUSH1 0x8 SLOAD PUSH1 0xB SLOAD LT PUSH2 0xEA6 JUMPI PUSH1 0x0 PUSH1 0x19 PUSH1 0x0 PUSH2 0x100 EXP DUP2 SLOAD DUP2 PUSH1 0xFF MUL NOT AND SWAP1 DUP4 ISZERO ISZERO MUL OR SWAP1 SSTORE POP PUSH32 0x8D80F5BE79E7DD88D69814B57E8F5C7DD249B3D6BAC194EB9144B8CA639DB036 PUSH1 0x40 MLOAD PUSH1 0x40 MLOAD DUP1 SWAP2 SUB SWAP1 LOG1 JUMPDEST PUSH1 0x8 SLOAD PUSH1 0xB SLOAD GT ISZERO PUSH2 0xEED JUMPI PUSH1 0x40 MLOAD PUSH32 0x8C379A000000000000000000000000000000000000000000000000000000000 DUP2 MSTORE PUSH1 0x4 ADD PUSH2 0xEE4 SWAP1 PUSH2 0x3274 JUMP JUMPDEST PUSH1 0x40 MLOAD DUP1 SWAP2 SUB SWAP1 REVERT JUMPDEST PUSH1 0x0 DUP4 DUP4 SWAP1 POP GT ISZERO PUSH2 0x1027 JUMPI PUSH1 0x0 PUSH1 0x17 DUP5 DUP5 PUSH1 0x40 MLOAD PUSH2 0xF0D SWAP3 SWAP2 SWAP1 PUSH2 0x32C4 JUMP JUMPDEST SWAP1 DUP2 MSTORE PUSH1 0x20 ADD PUSH1 0x40 MLOAD DUP1 SWAP2 SUB SWAP1 KECCAK256 PUSH1 0x0 SWAP1 SLOAD SWAP1 PUSH2 0x100 EXP SWAP1 DIV PUSH20 0xFFFFFFFFFFFFFFFFFFFFFFFFFFFFFFFFFFFFFFFF AND SWAP1 POP PUSH1 0x0 PUSH20 0xFFFFFFFFFFFFFFFFFFFFFFFFFFFFFFFFFFFFFFFF AND DUP2 PUSH20 0xFFFFFFFFFFFFFFFFFFFFFFFFFFFFFFFFFFFFFFFF AND SUB PUSH2 0xFAD JUMPI PUSH1 0x40 MLOAD PUSH32 0x8C379A000000000000000000000000000000000000000000000000000000000 DUP2 MSTORE PUSH1 0x4 ADD PUSH2 0xFA4 SWAP1 PUSH2 0x3329 JUMP JUMPDEST PUSH1 0x40 MLOAD DUP1 SWAP2 SUB SWAP1 REVERT JUMPDEST PUSH1 0x0 PUSH1 0x64 PUSH1 0x18 SLOAD DUP5 PUSH2 0xFBF SWAP2 SWAP1 PUSH2 0x3349 JUMP JUMPDEST PUSH2 0xFC9 SWAP2 SWAP1 PUSH2 0x33BA JUMP JUMPDEST SWAP1 POP PUSH2 0xFD6 ADDRESS DUP4 DUP4 PUSH2 0x1FB6 JUMP JUMPDEST DUP2 PUSH20 0xFFFFFFFFFFFFFFFFFFFFFFFFFFFFFFFFFFFFFFFF AND PUSH32 0x9B23EC14D4683AC0ABE619D3EC67F86C8957E134EB62BDFF7044E5072BA02B16 DUP3 PUSH1 0x40 MLOAD PUSH2 0x101C SWAP2 SWAP1 PUSH2 0x2920 JUMP JUMPDEST PUSH1 0x40 MLOAD DUP1 SWAP2 SUB SWAP1 LOG2 POP POP JUMPDEST PUSH2 0x1045 CALLER DUP3 PUSH1 0x11 SLOAD TIMESTAMP PUSH2 0x103A SWAP2 SWAP1 PUSH2 0x31CE JUMP JUMPDEST PUSH1 0x12 SLOAD PUSH1 0x13 SLOAD PUSH2 0x2143 JUMP JUMPDEST CALLER PUSH20 0xFFFFFFFFFFFFFFFFFFFFFFFFFFFFFFFFFFFFFFFF AND PUSH32 0xDD2A19C3BDD089CBE77C04F5655F83DE0504D6140D12C8667646F55D0557C4DC DUP3 PUSH1 0x11 SLOAD TIMESTAMP PUSH2 0x108C SWAP2 SWAP1 PUSH2 0x31CE JUMP JUMPDEST PUSH1 0x40 MLOAD PUSH2 0x109A SWAP3 SWAP2 SWAP1 PUSH2 0x33EB JUMP JUMPDEST PUSH1 0x40 MLOAD DUP1 SWAP2 SUB SWAP1 LOG2 POP PUSH2 0x10AB PUSH2 0x21C1 JUMP JUMPDEST POP POP POP JUMP JUMPDEST PUSH1 0x11 SLOAD DUP2 JUMP JUMPDEST PUSH2 0x10BE PUSH2 0x21CB JUMP JUMPDEST PUSH1 0x0 PUSH1 0x16 PUSH1 0x0 DUP6 PUSH20 0xFFFFFFFFFFFFFFFFFFFFFFFFFFFFFFFFFFFFFFFF AND PUSH20 0xFFFFFFFFFFFFFFFFFFFFFFFFFFFFFFFFFFFFFFFF AND DUP2 MSTORE PUSH1 0x20 ADD SWAP1 DUP2 MSTORE PUSH1 0x20 ADD PUSH1 0x0 KECCAK256 DUP1 SLOAD PUSH2 0x110A SWAP1 PUSH2 0x2DBC JUMP JUMPDEST SWAP1 POP EQ PUSH2 0x114C JUMPI PUSH1 0x40 MLOAD PUSH32 0x8C379A000000000000000000000000000000000000000000000000000000000 DUP2 MSTORE PUSH1 0x4 ADD PUSH2 0x1143 SWAP1 PUSH2 0x3486 JUMP JUMPDEST PUSH1 0x40 MLOAD DUP1 SWAP2 SUB SWAP1 REVERT JUMPDEST PUSH1 0x3 DUP3 DUP3 SWAP1 POP LT ISZERO DUP1 ISZERO PUSH2 0x1164 JUMPI POP PUSH1 0x14 DUP3 DUP3 SWAP1 POP GT ISZERO JUMPDEST PUSH2 0x11A3 JUMPI PUSH1 0x40 MLOAD PUSH32 0x8C379A000000000000000000000000000000000000000000000000000000000 DUP2 MSTORE PUSH1 0x4 ADD PUSH2 0x119A SWAP1 PUSH2 0x3518 JUMP JUMPDEST PUSH1 0x40 MLOAD DUP1 SWAP2 SUB SWAP1 REVERT JUMPDEST PUSH1 0x0 PUSH20 0xFFFFFFFFFFFFFFFFFFFFFFFFFFFFFFFFFFFFFFFF AND PUSH1 0x17 DUP4 DUP4 PUSH1 0x40 MLOAD PUSH2 0x11CD SWAP3 SWAP2 SWAP1 PUSH2 0x32C4 JUMP JUMPDEST SWAP1 DUP2 MSTORE PUSH1 0x20 ADD PUSH1 0x40 MLOAD DUP1 SWAP2 SUB SWAP1 KECCAK256 PUSH1 0x0 SWAP1 SLOAD SWAP1 PUSH2 0x100 EXP SWAP1 DIV PUSH20 0xFFFFFFFFFFFFFFFFFFFFFFFFFFFFFFFFFFFFFFFF AND PUSH20 0xFFFFFFFFFFFFFFFFFFFFFFFFFFFFFFFFFFFFFFFF AND EQ PUSH2 0x1252 JUMPI PUSH1 0x40 MLOAD PUSH32 0x8C379A000000000000000000000000000000000000000000000000000000000 DUP2 MSTORE PUSH1 0x4 ADD PUSH2 0x1249 SWAP1 PUSH2 0x3584 JUMP JUMPDEST PUSH1 0x40 MLOAD DUP1 SWAP2 SUB SWAP1 REVERT JUMPDEST DUP3 PUSH1 0x17 DUP4 DUP4 PUSH1 0x40 MLOAD PUSH2 0x1265 SWAP3 SWAP2 SWAP1 PUSH2 0x32C4 JUMP JUMPDEST SWAP1 DUP2 MSTORE PUSH1 0x20 ADD PUSH1 0x40 MLOAD DUP1 SWAP2 SUB SWAP1 KECCAK256 PUSH1 0x0 PUSH2 0x100 EXP DUP2 SLOAD DUP2 PUSH20 0xFFFFFFFFFFFFFFFFFFFFFFFFFFFFFFFFFFFFFFFF MUL NOT AND SWAP1 DUP4 PUSH20 0xFFFFFFFFFFFFFFFFFFFFFFFFFFFFFFFFFFFFFFFF AND MUL OR SWAP1 SSTORE POP DUP2 DUP2 PUSH1 0x16 PUSH1 0x0 DUP7 PUSH20 0xFFFFFFFFFFFFFFFFFFFFFFFFFFFFFFFFFFFFFFFF AND PUSH20 0xFFFFFFFFFFFFFFFFFFFFFFFFFFFFFFFFFFFFFFFF AND DUP2 MSTORE PUSH1 0x20 ADD SWAP1 DUP2 MSTORE PUSH1 0x20 ADD PUSH1 0x0 KECCAK256 SWAP2 DUP3 PUSH2 0x12FF SWAP3 SWAP2 SWAP1 PUSH2 0x375B JUMP JUMPDEST POP POP POP POP JUMP JUMPDEST PUSH1 0x10 SLOAD DUP2 JUMP JUMPDEST PUSH2 0x1313 PUSH2 0x20AA JUMP JUMPDEST PUSH1 0x0 PUSH1 0x14 PUSH1 0x0 CALLER PUSH20 0xFFFFFFFFFFFFFFFFFFFFFFFFFFFFFFFFFFFFFFFF AND PUSH20 0xFFFFFFFFFFFFFFFFFFFFFFFFFFFFFFFFFFFFFFFF AND DUP2 MSTORE PUSH1 0x20 ADD SWAP1 DUP2 MSTORE PUSH1 0x20 ADD PUSH1 0x0 KECCAK256 SWAP1 POP DUP1 PUSH1 0x2 ADD SLOAD TIMESTAMP LT ISZERO PUSH2 0x139D JUMPI PUSH1 0x40 MLOAD PUSH32 0x8C379A000000000000000000000000000000000000000000000000000000000 DUP2 MSTORE PUSH1 0x4 ADD PUSH2 0x1394 SWAP1 PUSH2 0x3877 JUMP JUMPDEST PUSH1 0x40 MLOAD DUP1 SWAP2 SUB SWAP1 REVERT JUMPDEST PUSH1 0x0 DUP2 PUSH1 0x3 ADD SLOAD DUP3 PUSH1 0x2 ADD SLOAD TIMESTAMP PUSH2 0x13B4 SWAP2 SWAP1 PUSH2 0x3897 JUMP JUMPDEST DUP4 PUSH1 0x0 ADD SLOAD PUSH2 0x13C3 SWAP2 SWAP1 PUSH2 0x3349 JUMP JUMPDEST PUSH2 0x13CD SWAP2 SWAP1 PUSH2 0x33BA JUMP JUMPDEST SWAP1 POP PUSH1 0x0 DUP3 PUSH1 0x1 ADD SLOAD DUP3 PUSH2 0x13E1 SWAP2 SWAP1 PUSH2 0x3897 JUMP JUMPDEST SWAP1 POP PUSH1 0x0 DUP2 GT PUSH2 0x1426 JUMPI PUSH1 0x40 MLOAD PUSH32 0x8C379A000000000000000000000000000000000000000000000000000000000 DUP2 MSTORE PUSH1 0x4 ADD PUSH2 0x141D SWAP1 PUSH2 0x3917 JUMP JUMPDEST PUSH1 0x40 MLOAD DUP1 SWAP2 SUB SWAP1 REVERT JUMPDEST DUP1 DUP4 PUSH1 0x1 ADD SLOAD PUSH2 0x1436 SWAP2 SWAP1 PUSH2 0x31CE JUMP JUMPDEST DUP4 PUSH1 0x1 ADD DUP2 SWAP1 SSTORE POP PUSH2 0x1449 ADDRESS CALLER DUP4 PUSH2 0x1FB6 JUMP JUMPDEST CALLER PUSH20 0xFFFFFFFFFFFFFFFFFFFFFFFFFFFFFFFFFFFFFFFF AND PUSH32 0x6BC5063C7239B75C8BF325A2A2238F726FADA322163996BB6C93D5594FB119F0 DUP3 PUSH1 0x40 MLOAD PUSH2 0x148F SWAP2 SWAP1 PUSH2 0x2920 JUMP JUMPDEST PUSH1 0x40 MLOAD DUP1 SWAP2 SUB SWAP1 LOG2 POP POP POP PUSH2 0x14A2 PUSH2 0x21C1 JUMP JUMPDEST JUMP JUMPDEST PUSH1 0x0 PUSH1 0x7 PUSH1 0x0 SWAP1 SLOAD SWAP1 PUSH2 0x100 EXP SWAP1 DIV PUSH1 0xFF AND SWAP1 POP SWAP1 JUMP JUMPDEST PUSH1 0xB SLOAD DUP2 JUMP JUMPDEST PUSH2 0x14C9 PUSH2 0x21CB JUMP JUMPDEST PUSH1 0x0 DUP2 GT DUP1 ISZERO PUSH2 0x14DA JUMPI POP PUSH1 0x64 DUP2 GT ISZERO JUMPDEST PUSH2 0x1519 JUMPI PUSH1 0x40 MLOAD PUSH32 0x8C379A000000000000000000000000000000000000000000000000000000000 DUP2 MSTORE PUSH1 0x4 ADD PUSH2 0x1510 SWAP1 PUSH2 0x3983 JUMP JUMPDEST PUSH1 0x40 MLOAD DUP1 SWAP2 SUB SWAP1 REVERT JUMPDEST DUP1 PUSH1 0x18 DUP2 SWAP1 SSTORE POP POP JUMP JUMPDEST PUSH1 0x0 DUP1 PUSH1 0x0 DUP4 PUSH20 0xFFFFFFFFFFFFFFFFFFFFFFFFFFFFFFFFFFFFFFFF AND PUSH20 0xFFFFFFFFFFFFFFFFFFFFFFFFFFFFFFFFFFFFFFFF AND DUP2 MSTORE PUSH1 0x20 ADD SWAP1 DUP2 MSTORE PUSH1 0x20 ADD PUSH1 0x0 KECCAK256 SLOAD SWAP1 POP SWAP2 SWAP1 POP JUMP JUMPDEST PUSH2 0x1573 PUSH2 0x21CB JUMP JUMPDEST PUSH2 0x157D PUSH1 0x0 PUSH2 0x2252 JUMP JUMPDEST JUMP JUMPDEST PUSH1 0x0 DUP1 PUSH1 0x8 SLOAD PUSH1 0xB SLOAD PUSH1 0x9 SLOAD PUSH1 0xA SLOAD PUSH2 0x1598 SWAP2 SWAP1 PUSH2 0x3897 JUMP JUMPDEST PUSH2 0x15A2 SWAP2 SWAP1 PUSH2 0x3349 JUMP JUMPDEST PUSH2 0x15AC SWAP2 SWAP1 PUSH2 0x33BA JUMP JUMPDEST PUSH1 0x9 SLOAD PUSH2 0x15B9 SWAP2 SWAP1 PUSH2 0x31CE JUMP JUMPDEST SWAP1 POP PUSH1 0x0 DUP2 DUP5 PUSH2 0x15C9 SWAP2 SWAP1 PUSH2 0x33BA JUMP JUMPDEST SWAP1 POP DUP1 SWAP3 POP POP POP SWAP2 SWAP1 POP JUMP JUMPDEST PUSH2 0x15DD PUSH2 0x21CB JUMP JUMPDEST PUSH1 0x0 DUP3 GT PUSH2 0x1620 JUMPI PUSH1 0x40 MLOAD PUSH32 0x8C379A000000000000000000000000000000000000000000000000000000000 DUP2 MSTORE PUSH1 0x4 ADD PUSH2 0x1617 SWAP1 PUSH2 0x3A15 JUMP JUMPDEST PUSH1 0x40 MLOAD DUP1 SWAP2 SUB SWAP1 REVERT JUMPDEST DUP2 DUP2 GT PUSH2 0x1662 JUMPI PUSH1 0x40 MLOAD PUSH32 0x8C379A000000000000000000000000000000000000000000000000000000000 DUP2 MSTORE PUSH1 0x4 ADD PUSH2 0x1659 SWAP1 PUSH2 0x3AA7 JUMP JUMPDEST PUSH1 0x40 MLOAD DUP1 SWAP2 SUB SWAP1 REVERT JUMPDEST DUP2 PUSH1 0xF DUP2 SWAP1 SSTORE POP DUP1 PUSH1 0x10 DUP2 SWAP1 SSTORE POP POP POP JUMP JUMPDEST PUSH2 0x167C PUSH2 0x21CB JUMP JUMPDEST PUSH1 0x15 PUSH1 0x0 DUP3 PUSH20 0xFFFFFFFFFFFFFFFFFFFFFFFFFFFFFFFFFFFFFFFF AND PUSH20 0xFFFFFFFFFFFFFFFFFFFFFFFFFFFFFFFFFFFFFFFF AND DUP2 MSTORE PUSH1 0x20 ADD SWAP1 DUP2 MSTORE PUSH1 0x20 ADD PUSH1 0x0 KECCAK256 PUSH1 0x0 SWAP1 SLOAD SWAP1 PUSH2 0x100 EXP SWAP1 DIV PUSH1 0xFF AND PUSH2 0x1708 JUMPI PUSH1 0x40 MLOAD PUSH32 0x8C379A000000000000000000000000000000000000000000000000000000000 DUP2 MSTORE PUSH1 0x4 ADD PUSH2 0x16FF SWAP1 PUSH2 0x3B13 JUMP JUMPDEST PUSH1 0x40 MLOAD DUP1 SWAP2 SUB SWAP1 REVERT JUMPDEST PUSH1 0x0 PUSH1 0x15 PUSH1 0x0 DUP4 PUSH20 0xFFFFFFFFFFFFFFFFFFFFFFFFFFFFFFFFFFFFFFFF AND PUSH20 0xFFFFFFFFFFFFFFFFFFFFFFFFFFFFFFFFFFFFFFFF AND DUP2 MSTORE PUSH1 0x20 ADD SWAP1 DUP2 MSTORE PUSH1 0x20 ADD PUSH1 0x0 KECCAK256 PUSH1 0x0 PUSH2 0x100 EXP DUP2 SLOAD DUP2 PUSH1 0xFF MUL NOT AND SWAP1 DUP4 ISZERO ISZERO MUL OR SWAP1 SSTORE POP DUP1 PUSH20 0xFFFFFFFFFFFFFFFFFFFFFFFFFFFFFFFFFFFFFFFF AND PUSH32 0xF1ABF01A1043B7C244D128E8595CF0C1D10743B022B03A02DFFD8CA3BF729F5A PUSH1 0x40 MLOAD PUSH1 0x40 MLOAD DUP1 SWAP2 SUB SWAP1 LOG2 POP JUMP JUMPDEST PUSH2 0x17AE PUSH2 0x21CB JUMP JUMPDEST PUSH1 0x0 PUSH2 0x17B9 ADDRESS PUSH2 0x1523 JUMP JUMPDEST SWAP1 POP PUSH1 0x0 DUP2 GT PUSH2 0x17FE JUMPI PUSH1 0x40 MLOAD PUSH32 0x8C379A000000000000000000000000000000000000000000000000000000000 DUP2 MSTORE PUSH1 0x4 ADD PUSH2 0x17F5 SWAP1 PUSH2 0x3B7F JUMP JUMPDEST PUSH1 0x40 MLOAD DUP1 SWAP2 SUB SWAP1 REVERT JUMPDEST PUSH2 0x1810 ADDRESS PUSH2 0x180A PUSH2 0x184A JUMP JUMPDEST DUP4 PUSH2 0x1FB6 JUMP JUMPDEST PUSH32 0x9C6393F251205F9E03559951CAB4C9AE71767B6174F77944A5B0C2FA51FBDA9F DUP2 PUSH1 0x40 MLOAD PUSH2 0x183F SWAP2 SWAP1 PUSH2 0x2920 JUMP JUMPDEST PUSH1 0x40 MLOAD DUP1 SWAP2 SUB SWAP1 LOG1 POP JUMP JUMPDEST PUSH1 0x0 PUSH1 0x5 PUSH1 0x0 SWAP1 SLOAD SWAP1 PUSH2 0x100 EXP SWAP1 DIV PUSH20 0xFFFFFFFFFFFFFFFFFFFFFFFFFFFFFFFFFFFFFFFF AND SWAP1 POP SWAP1 JUMP JUMPDEST PUSH11 0xA56FA5B99019A5C8000000 DUP2 JUMP JUMPDEST PUSH1 0xE SLOAD DUP2 JUMP JUMPDEST PUSH1 0x0 PUSH1 0x19 PUSH1 0x0 SWAP1 SLOAD SWAP1 PUSH2 0x100 EXP SWAP1 DIV PUSH1 0xFF AND PUSH2 0x18DA JUMPI PUSH1 0x40 MLOAD PUSH32 0x8C379A000000000000000000000000000000000000000000000000000000000 DUP2 MSTORE PUSH1 0x4 ADD PUSH2 0x18D1 SWAP1 PUSH2 0x3BEB JUMP JUMPDEST PUSH1 0x40 MLOAD DUP1 SWAP2 SUB SWAP1 REVERT JUMPDEST PUSH1 0xC SLOAD SWAP1 POP SWAP1 JUMP JUMPDEST PUSH1 0xC SLOAD DUP2 JUMP JUMPDEST PUSH1 0x60 PUSH1 0x4 DUP1 SLOAD PUSH2 0x18F7 SWAP1 PUSH2 0x2DBC JUMP JUMPDEST DUP1 PUSH1 0x1F ADD PUSH1 0x20 DUP1 SWAP2 DIV MUL PUSH1 0x20 ADD PUSH1 0x40 MLOAD SWAP1 DUP2 ADD PUSH1 0x40 MSTORE DUP1 SWAP3 SWAP2 SWAP1 DUP2 DUP2 MSTORE PUSH1 0x20 ADD DUP3 DUP1 SLOAD PUSH2 0x1923 SWAP1 PUSH2 0x2DBC JUMP JUMPDEST DUP1 ISZERO PUSH2 0x1970 JUMPI DUP1 PUSH1 0x1F LT PUSH2 0x1945 JUMPI PUSH2 0x100 DUP1 DUP4 SLOAD DIV MUL DUP4 MSTORE SWAP2 PUSH1 0x20 ADD SWAP2 PUSH2 0x1970 JUMP JUMPDEST DUP3 ADD SWAP2 SWAP1 PUSH1 0x0 MSTORE PUSH1 0x20 PUSH1 0x0 KECCAK256 SWAP1 JUMPDEST DUP2 SLOAD DUP2 MSTORE SWAP1 PUSH1 0x1 ADD SWAP1 PUSH1 0x20 ADD DUP1 DUP4 GT PUSH2 0x1953 JUMPI DUP3 SWAP1 SUB PUSH1 0x1F AND DUP3 ADD SWAP2 JUMPDEST POP POP POP POP POP SWAP1 POP SWAP1 JUMP JUMPDEST PUSH1 0x15 PUSH1 0x20 MSTORE DUP1 PUSH1 0x0 MSTORE PUSH1 0x40 PUSH1 0x0 KECCAK256 PUSH1 0x0 SWAP2 POP SLOAD SWAP1 PUSH2 0x100 EXP SWAP1 DIV PUSH1 0xFF AND DUP2 JUMP JUMPDEST PUSH2 0x19A2 PUSH2 0x21CB JUMP JUMPDEST PUSH1 0x19 PUSH1 0x0 SWAP1 SLOAD SWAP1 PUSH2 0x100 EXP SWAP1 DIV PUSH1 0xFF AND ISZERO PUSH2 0x19F2 JUMPI PUSH1 0x40 MLOAD PUSH32 0x8C379A000000000000000000000000000000000000000000000000000000000 DUP2 MSTORE PUSH1 0x4 ADD PUSH2 0x19E9 SWAP1 PUSH2 0x3C57 JUMP JUMPDEST PUSH1 0x40 MLOAD DUP1 SWAP2 SUB SWAP1 REVERT JUMPDEST PUSH1 0x0 DUP2 GT DUP1 ISZERO PUSH2 0x1A03 JUMPI POP PUSH1 0x64 DUP2 GT ISZERO JUMPDEST PUSH2 0x1A42 JUMPI PUSH1 0x40 MLOAD PUSH32 0x8C379A000000000000000000000000000000000000000000000000000000000 DUP2 MSTORE PUSH1 0x4 ADD PUSH2 0x1A39 SWAP1 PUSH2 0x3983 JUMP JUMPDEST PUSH1 0x40 MLOAD DUP1 SWAP2 SUB SWAP1 REVERT JUMPDEST DUP1 PUSH1 0x18 DUP2 SWAP1 SSTORE POP PUSH1 0x1 PUSH1 0x19 PUSH1 0x0 PUSH2 0x100 EXP DUP2 SLOAD DUP2 PUSH1 0xFF MUL NOT AND SWAP1 DUP4 ISZERO ISZERO MUL OR SWAP1 SSTORE POP TIMESTAMP PUSH1 0xC DUP2 SWAP1 SSTORE POP PUSH32 0xCBE7B2993D671FF089495AE9D90AE7A115F123DB134C0A6D3C4BC6E0C72CF7E5 PUSH1 0x18 SLOAD PUSH1 0xC SLOAD PUSH1 0x40 MLOAD PUSH2 0x1AA0 SWAP3 SWAP2 SWAP1 PUSH2 0x33EB JUMP JUMPDEST PUSH1 0x40 MLOAD DUP1 SWAP2 SUB SWAP1 LOG1 POP JUMP JUMPDEST PUSH1 0x0 DUP1 PUSH2 0x1AB6 PUSH2 0x1F08 JUMP JUMPDEST SWAP1 POP PUSH2 0x1AC3 DUP2 DUP6 DUP6 PUSH2 0x1FB6 JUMP JUMPDEST PUSH1 0x1 SWAP2 POP POP SWAP3 SWAP2 POP POP JUMP JUMPDEST PUSH1 0x17 DUP2 DUP1 MLOAD PUSH1 0x20 DUP2 ADD DUP3 ADD DUP1 MLOAD DUP5 DUP3 MSTORE PUSH1 0x20 DUP4 ADD PUSH1 0x20 DUP6 ADD KECCAK256 DUP2 DUP4 MSTORE DUP1 SWAP6 POP POP POP POP POP POP PUSH1 0x0 SWAP2 POP SLOAD SWAP1 PUSH2 0x100 EXP SWAP1 DIV PUSH20 0xFFFFFFFFFFFFFFFFFFFFFFFFFFFFFFFFFFFFFFFF AND DUP2 JUMP JUMPDEST PUSH1 0x9 SLOAD DUP2 JUMP JUMPDEST PUSH1 0xF SLOAD DUP2 JUMP JUMPDEST PUSH1 0x13 SLOAD DUP2 JUMP JUMPDEST PUSH1 0xA SLOAD DUP2 JUMP JUMPDEST PUSH1 0x8 SLOAD DUP2 JUMP JUMPDEST PUSH1 0x18 SLOAD DUP2 JUMP JUMPDEST PUSH1 0x0 PUSH1 0x1 PUSH1 0x0 DUP5 PUSH20 0xFFFFFFFFFFFFFFFFFFFFFFFFFFFFFFFFFFFFFFFF AND PUSH20 0xFFFFFFFFFFFFFFFFFFFFFFFFFFFFFFFFFFFFFFFF AND DUP2 MSTORE PUSH1 0x20 ADD SWAP1 DUP2 MSTORE PUSH1 0x20 ADD PUSH1 0x0 KECCAK256 PUSH1 0x0 DUP4 PUSH20 0xFFFFFFFFFFFFFFFFFFFFFFFFFFFFFFFFFFFFFFFF AND PUSH20 0xFFFFFFFFFFFFFFFFFFFFFFFFFFFFFFFFFFFFFFFF AND DUP2 MSTORE PUSH1 0x20 ADD SWAP1 DUP2 MSTORE PUSH1 0x20 ADD PUSH1 0x0 KECCAK256 SLOAD SWAP1 POP SWAP3 SWAP2 POP POP JUMP JUMPDEST PUSH2 0x1BCA PUSH2 0x21CB JUMP JUMPDEST PUSH1 0x0 SELFBALANCE SWAP1 POP PUSH1 0x0 DUP2 GT PUSH2 0x1C12 JUMPI PUSH1 0x40 MLOAD PUSH32 0x8C379A000000000000000000000000000000000000000000000000000000000 DUP2 MSTORE PUSH1 0x4 ADD PUSH2 0x1C09 SWAP1 PUSH2 0x3CC3 JUMP JUMPDEST PUSH1 0x40 MLOAD DUP1 SWAP2 SUB SWAP1 REVERT JUMPDEST PUSH1 0x0 PUSH2 0x1C1C PUSH2 0x184A JUMP JUMPDEST PUSH20 0xFFFFFFFFFFFFFFFFFFFFFFFFFFFFFFFFFFFFFFFF AND DUP3 PUSH1 0x40 MLOAD PUSH2 0x1C3F SWAP1 PUSH2 0x3D14 JUMP JUMPDEST PUSH1 0x0 PUSH1 0x40 MLOAD DUP1 DUP4 SUB DUP2 DUP6 DUP8 GAS CALL SWAP3 POP POP POP RETURNDATASIZE DUP1 PUSH1 0x0 DUP2 EQ PUSH2 0x1C7C JUMPI PUSH1 0x40 MLOAD SWAP2 POP PUSH1 0x1F NOT PUSH1 0x3F RETURNDATASIZE ADD AND DUP3 ADD PUSH1 0x40 MSTORE RETURNDATASIZE DUP3 MSTORE RETURNDATASIZE PUSH1 0x0 PUSH1 0x20 DUP5 ADD RETURNDATACOPY PUSH2 0x1C81 JUMP JUMPDEST PUSH1 0x60 SWAP2 POP JUMPDEST POP POP SWAP1 POP DUP1 PUSH2 0x1CC5 JUMPI PUSH1 0x40 MLOAD PUSH32 0x8C379A000000000000000000000000000000000000000000000000000000000 DUP2 MSTORE PUSH1 0x4 ADD PUSH2 0x1CBC SWAP1 PUSH2 0x3D75 JUMP JUMPDEST PUSH1 0x40 MLOAD DUP1 SWAP2 SUB SWAP1 REVERT JUMPDEST PUSH32 0x43F607A14D3B4F0A11A0B2E192BBFCD894298BA5ABF22553BE6081406DB28AA DUP3 PUSH1 0x40 MLOAD PUSH2 0x1CF4 SWAP2 SWAP1 PUSH2 0x2920 JUMP JUMPDEST PUSH1 0x40 MLOAD DUP1 SWAP2 SUB SWAP1 LOG1 POP POP JUMP JUMPDEST PUSH2 0x1D08 PUSH2 0x21CB JUMP JUMPDEST PUSH1 0x1 PUSH1 0x15 PUSH1 0x0 DUP4 PUSH20 0xFFFFFFFFFFFFFFFFFFFFFFFFFFFFFFFFFFFFFFFF AND PUSH20 0xFFFFFFFFFFFFFFFFFFFFFFFFFFFFFFFFFFFFFFFF AND DUP2 MSTORE PUSH1 0x20 ADD SWAP1 DUP2 MSTORE PUSH1 0x20 ADD PUSH1 0x0 KECCAK256 PUSH1 0x0 PUSH2 0x100 EXP DUP2 SLOAD DUP2 PUSH1 0xFF MUL NOT AND SWAP1 DUP4 ISZERO ISZERO MUL OR SWAP1 SSTORE POP DUP1 PUSH20 0xFFFFFFFFFFFFFFFFFFFFFFFFFFFFFFFFFFFFFFFF AND PUSH32 0xD1BBA68C128CC3F427E5831B3C6F99F480B6EFA6B9E80C757768F6124158CC3F PUSH1 0x40 MLOAD PUSH1 0x40 MLOAD DUP1 SWAP2 SUB SWAP1 LOG2 POP JUMP JUMPDEST PUSH2 0x1DAE PUSH2 0x21CB JUMP JUMPDEST PUSH1 0x19 PUSH1 0x0 SWAP1 SLOAD SWAP1 PUSH2 0x100 EXP SWAP1 DIV PUSH1 0xFF AND PUSH2 0x1DFD JUMPI PUSH1 0x40 MLOAD PUSH32 0x8C379A000000000000000000000000000000000000000000000000000000000 DUP2 MSTORE PUSH1 0x4 ADD PUSH2 0x1DF4 SWAP1 PUSH2 0x2E39 JUMP JUMPDEST PUSH1 0x40 MLOAD DUP1 SWAP2 SUB SWAP1 REVERT JUMPDEST PUSH1 0x0 PUSH1 0x19 PUSH1 0x0 PUSH2 0x100 EXP DUP2 SLOAD DUP2 PUSH1 0xFF MUL NOT AND SWAP1 DUP4 ISZERO ISZERO MUL OR SWAP1 SSTORE POP PUSH32 0x8D80F5BE79E7DD88D69814B57E8F5C7DD249B3D6BAC194EB9144B8CA639DB036 PUSH1 0x40 MLOAD PUSH1 0x40 MLOAD DUP1 SWAP2 SUB SWAP1 LOG1 JUMP JUMPDEST PUSH1 0xD SLOAD DUP2 JUMP JUMPDEST PUSH2 0x1E54 PUSH2 0x21CB JUMP JUMPDEST PUSH1 0x0 PUSH20 0xFFFFFFFFFFFFFFFFFFFFFFFFFFFFFFFFFFFFFFFF AND DUP2 PUSH20 0xFFFFFFFFFFFFFFFFFFFFFFFFFFFFFFFFFFFFFFFF AND SUB PUSH2 0x1EC6 JUMPI PUSH1 0x0 PUSH1 0x40 MLOAD PUSH32 0x1E4FBDF700000000000000000000000000000000000000000000000000000000 DUP2 MSTORE PUSH1 0x4 ADD PUSH2 0x1EBD SWAP2 SWAP1 PUSH2 0x2B66 JUMP JUMPDEST PUSH1 0x40 MLOAD DUP1 SWAP2 SUB SWAP1 REVERT JUMPDEST PUSH2 0x1ECF DUP2 PUSH2 0x2252 JUMP JUMPDEST POP JUMP JUMPDEST PUSH1 0x14 PUSH1 0x20 MSTORE DUP1 PUSH1 0x0 MSTORE PUSH1 0x40 PUSH1 0x0 KECCAK256 PUSH1 0x0 SWAP2 POP SWAP1 POP DUP1 PUSH1 0x0 ADD SLOAD SWAP1 DUP1 PUSH1 0x1 ADD SLOAD SWAP1 DUP1 PUSH1 0x2 ADD SLOAD SWAP1 DUP1 PUSH1 0x3 ADD SLOAD SWAP1 DUP1 PUSH1 0x4 ADD SLOAD SWAP1 POP DUP6 JUMP JUMPDEST PUSH1 0x0 CALLER SWAP1 POP SWAP1 JUMP JUMPDEST PUSH2 0x1F1D DUP4 DUP4 DUP4 PUSH1 0x1 PUSH2 0x2318 JUMP JUMPDEST POP POP POP JUMP JUMPDEST PUSH1 0x0 PUSH2 0x1F2E DUP5 DUP5 PUSH2 0x1B3B JUMP JUMPDEST SWAP1 POP PUSH32 0xFFFFFFFFFFFFFFFFFFFFFFFFFFFFFFFFFFFFFFFFFFFFFFFFFFFFFFFFFFFFFFFF DUP2 EQ PUSH2 0x1FB0 JUMPI DUP2 DUP2 LT ISZERO PUSH2 0x1FA0 JUMPI DUP3 DUP2 DUP4 PUSH1 0x40 MLOAD PUSH32 0xFB8F41B200000000000000000000000000000000000000000000000000000000 DUP2 MSTORE PUSH1 0x4 ADD PUSH2 0x1F97 SWAP4 SWAP3 SWAP2 SWAP1 PUSH2 0x3D95 JUMP JUMPDEST PUSH1 0x40 MLOAD DUP1 SWAP2 SUB SWAP1 REVERT JUMPDEST PUSH2 0x1FAF DUP5 DUP5 DUP5 DUP5 SUB PUSH1 0x0 PUSH2 0x2318 JUMP JUMPDEST JUMPDEST POP POP POP POP JUMP JUMPDEST PUSH1 0x0 PUSH20 0xFFFFFFFFFFFFFFFFFFFFFFFFFFFFFFFFFFFFFFFF AND DUP4 PUSH20 0xFFFFFFFFFFFFFFFFFFFFFFFFFFFFFFFFFFFFFFFF AND SUB PUSH2 0x2028 JUMPI PUSH1 0x0 PUSH1 0x40 MLOAD PUSH32 0x96C6FD1E00000000000000000000000000000000000000000000000000000000 DUP2 MSTORE PUSH1 0x4 ADD PUSH2 0x201F SWAP2 SWAP1 PUSH2 0x2B66 JUMP JUMPDEST PUSH1 0x40 MLOAD DUP1 SWAP2 SUB SWAP1 REVERT JUMPDEST PUSH1 0x0 PUSH20 0xFFFFFFFFFFFFFFFFFFFFFFFFFFFFFFFFFFFFFFFF AND DUP3 PUSH20 0xFFFFFFFFFFFFFFFFFFFFFFFFFFFFFFFFFFFFFFFF AND SUB PUSH2 0x209A JUMPI PUSH1 0x0 PUSH1 0x40 MLOAD PUSH32 0xEC442F0500000000000000000000000000000000000000000000000000000000 DUP2 MSTORE PUSH1 0x4 ADD PUSH2 0x2091 SWAP2 SWAP1 PUSH2 0x2B66 JUMP JUMPDEST PUSH1 0x40 MLOAD DUP1 SWAP2 SUB SWAP1 REVERT JUMPDEST PUSH2 0x20A5 DUP4 DUP4 DUP4 PUSH2 0x24EF JUMP JUMPDEST POP POP POP JUMP JUMPDEST PUSH1 0x2 PUSH1 0x6 SLOAD SUB PUSH2 0x20EF JUMPI PUSH1 0x40 MLOAD PUSH32 0x8C379A000000000000000000000000000000000000000000000000000000000 DUP2 MSTORE PUSH1 0x4 ADD PUSH2 0x20E6 SWAP1 PUSH2 0x3E18 JUMP JUMPDEST PUSH1 0x40 MLOAD DUP1 SWAP2 SUB SWAP1 REVERT JUMPDEST PUSH1 0x2 PUSH1 0x6 DUP2 SWAP1 SSTORE POP JUMP JUMPDEST PUSH2 0x2101 PUSH2 0x14A4 JUMP JUMPDEST ISZERO PUSH2 0x2141 JUMPI PUSH1 0x40 MLOAD PUSH32 0x8C379A000000000000000000000000000000000000000000000000000000000 DUP2 MSTORE PUSH1 0x4 ADD PUSH2 0x2138 SWAP1 PUSH2 0x3E84 JUMP JUMPDEST PUSH1 0x40 MLOAD DUP1 SWAP2 SUB SWAP1 REVERT JUMPDEST JUMP JUMPDEST PUSH1 0x0 PUSH1 0x14 PUSH1 0x0 DUP8 PUSH20 0xFFFFFFFFFFFFFFFFFFFFFFFFFFFFFFFFFFFFFFFF AND PUSH20 0xFFFFFFFFFFFFFFFFFFFFFFFFFFFFFFFFFFFFFFFF AND DUP2 MSTORE PUSH1 0x20 ADD SWAP1 DUP2 MSTORE PUSH1 0x20 ADD PUSH1 0x0 KECCAK256 SWAP1 POP DUP5 DUP2 PUSH1 0x0 ADD SLOAD PUSH2 0x2196 SWAP2 SWAP1 PUSH2 0x31CE JUMP JUMPDEST DUP2 PUSH1 0x0 ADD DUP2 SWAP1 SSTORE POP DUP4 DUP2 PUSH1 0x2 ADD DUP2 SWAP1 SSTORE POP DUP3 DUP2 PUSH1 0x3 ADD DUP2 SWAP1 SSTORE POP DUP2 DUP2 PUSH1 0x4 ADD DUP2 SWAP1 SSTORE POP POP POP POP POP POP POP JUMP JUMPDEST PUSH1 0x1 PUSH1 0x6 DUP2 SWAP1 SSTORE POP JUMP JUMPDEST PUSH2 0x21D3 PUSH2 0x1F08 JUMP JUMPDEST PUSH20 0xFFFFFFFFFFFFFFFFFFFFFFFFFFFFFFFFFFFFFFFF AND PUSH2 0x21F1 PUSH2 0x184A JUMP JUMPDEST PUSH20 0xFFFFFFFFFFFFFFFFFFFFFFFFFFFFFFFFFFFFFFFF AND EQ PUSH2 0x2250 JUMPI PUSH2 0x2214 PUSH2 0x1F08 JUMP JUMPDEST PUSH1 0x40 MLOAD PUSH32 0x118CDAA700000000000000000000000000000000000000000000000000000000 DUP2 MSTORE PUSH1 0x4 ADD PUSH2 0x2247 SWAP2 SWAP1 PUSH2 0x2B66 JUMP JUMPDEST PUSH1 0x40 MLOAD DUP1 SWAP2 SUB SWAP1 REVERT JUMPDEST JUMP JUMPDEST PUSH1 0x0 PUSH1 0x5 PUSH1 0x0 SWAP1 SLOAD SWAP1 PUSH2 0x100 EXP SWAP1 DIV PUSH20 0xFFFFFFFFFFFFFFFFFFFFFFFFFFFFFFFFFFFFFFFF AND SWAP1 POP DUP2 PUSH1 0x5 PUSH1 0x0 PUSH2 0x100 EXP DUP2 SLOAD DUP2 PUSH20 0xFFFFFFFFFFFFFFFFFFFFFFFFFFFFFFFFFFFFFFFF MUL NOT AND SWAP1 DUP4 PUSH20 0xFFFFFFFFFFFFFFFFFFFFFFFFFFFFFFFFFFFFFFFF AND MUL OR SWAP1 SSTORE POP DUP2 PUSH20 0xFFFFFFFFFFFFFFFFFFFFFFFFFFFFFFFFFFFFFFFF AND DUP2 PUSH20 0xFFFFFFFFFFFFFFFFFFFFFFFFFFFFFFFFFFFFFFFF AND PUSH32 0x8BE0079C531659141344CD1FD0A4F28419497F9722A3DAAFE3B4186F6B6457E0 PUSH1 0x40 MLOAD PUSH1 0x40 MLOAD DUP1 SWAP2 SUB SWAP1 LOG3 POP POP JUMP JUMPDEST PUSH1 0x0 PUSH20 0xFFFFFFFFFFFFFFFFFFFFFFFFFFFFFFFFFFFFFFFF AND DUP5 PUSH20 0xFFFFFFFFFFFFFFFFFFFFFFFFFFFFFFFFFFFFFFFF AND SUB PUSH2 0x238A JUMPI PUSH1 0x0 PUSH1 0x40 MLOAD PUSH32 0xE602DF0500000000000000000000000000000000000000000000000000000000 DUP2 MSTORE PUSH1 0x4 ADD PUSH2 0x2381 SWAP2 SWAP1 PUSH2 0x2B66 JUMP JUMPDEST PUSH1 0x40 MLOAD DUP1 SWAP2 SUB SWAP1 REVERT JUMPDEST PUSH1 0x0 PUSH20 0xFFFFFFFFFFFFFFFFFFFFFFFFFFFFFFFFFFFFFFFF AND DUP4 PUSH20 0xFFFFFFFFFFFFFFFFFFFFFFFFFFFFFFFFFFFFFFFF AND SUB PUSH2 0x23FC JUMPI PUSH1 0x0 PUSH1 0x40 MLOAD PUSH32 0x94280D6200000000000000000000000000000000000000000000000000000000 DUP2 MSTORE PUSH1 0x4 ADD PUSH2 0x23F3 SWAP2 SWAP1 PUSH2 0x2B66 JUMP JUMPDEST PUSH1 0x40 MLOAD DUP1 SWAP2 SUB SWAP1 REVERT JUMPDEST DUP2 PUSH1 0x1 PUSH1 0x0 DUP7 PUSH20 0xFFFFFFFFFFFFFFFFFFFFFFFFFFFFFFFFFFFFFFFF AND PUSH20 0xFFFFFFFFFFFFFFFFFFFFFFFFFFFFFFFFFFFFFFFF AND DUP2 MSTORE PUSH1 0x20 ADD SWAP1 DUP2 MSTORE PUSH1 0x20 ADD PUSH1 0x0 KECCAK256 PUSH1 0x0 DUP6 PUSH20 0xFFFFFFFFFFFFFFFFFFFFFFFFFFFFFFFFFFFFFFFF AND PUSH20 0xFFFFFFFFFFFFFFFFFFFFFFFFFFFFFFFFFFFFFFFF AND DUP2 MSTORE PUSH1 0x20 ADD SWAP1 DUP2 MSTORE PUSH1 0x20 ADD PUSH1 0x0 KECCAK256 DUP2 SWAP1 SSTORE POP DUP1 ISZERO PUSH2 0x24E9 JUMPI DUP3 PUSH20 0xFFFFFFFFFFFFFFFFFFFFFFFFFFFFFFFFFFFFFFFF AND DUP5 PUSH20 0xFFFFFFFFFFFFFFFFFFFFFFFFFFFFFFFFFFFFFFFF AND PUSH32 0x8C5BE1E5EBEC7D5BD14F71427D1E84F3DD0314C0F7B2291E5B200AC8C7C3B925 DUP5 PUSH1 0x40 MLOAD PUSH2 0x24E0 SWAP2 SWAP1 PUSH2 0x2920 JUMP JUMPDEST PUSH1 0x40 MLOAD DUP1 SWAP2 SUB SWAP1 LOG3 JUMPDEST POP POP POP POP JUMP JUMPDEST PUSH1 0x0 PUSH20 0xFFFFFFFFFFFFFFFFFFFFFFFFFFFFFFFFFFFFFFFF AND DUP4 PUSH20 0xFFFFFFFFFFFFFFFFFFFFFFFFFFFFFFFFFFFFFFFF AND SUB PUSH2 0x2541 JUMPI DUP1 PUSH1 0x2 PUSH1 0x0 DUP3 DUP3 SLOAD PUSH2 0x2535 SWAP2 SWAP1 PUSH2 0x31CE JUMP JUMPDEST SWAP3 POP POP DUP2 SWAP1 SSTORE POP PUSH2 0x2614 JUMP JUMPDEST PUSH1 0x0 DUP1 PUSH1 0x0 DUP6 PUSH20 0xFFFFFFFFFFFFFFFFFFFFFFFFFFFFFFFFFFFFFFFF AND PUSH20 0xFFFFFFFFFFFFFFFFFFFFFFFFFFFFFFFFFFFFFFFF AND DUP2 MSTORE PUSH1 0x20 ADD SWAP1 DUP2 MSTORE PUSH1 0x20 ADD PUSH1 0x0 KECCAK256 SLOAD SWAP1 POP DUP2 DUP2 LT ISZERO PUSH2 0x25CD JUMPI DUP4 DUP2 DUP4 PUSH1 0x40 MLOAD PUSH32 0xE450D38C00000000000000000000000000000000000000000000000000000000 DUP2 MSTORE PUSH1 0x4 ADD PUSH2 0x25C4 SWAP4 SWAP3 SWAP2 SWAP1 PUSH2 0x3D95 JUMP JUMPDEST PUSH1 0x40 MLOAD DUP1 SWAP2 SUB SWAP1 REVERT JUMPDEST DUP2 DUP2 SUB PUSH1 0x0 DUP1 DUP7 PUSH20 0xFFFFFFFFFFFFFFFFFFFFFFFFFFFFFFFFFFFFFFFF AND PUSH20 0xFFFFFFFFFFFFFFFFFFFFFFFFFFFFFFFFFFFFFFFF AND DUP2 MSTORE PUSH1 0x20 ADD SWAP1 DUP2 MSTORE PUSH1 0x20 ADD PUSH1 0x0 KECCAK256 DUP2 SWAP1 SSTORE POP POP JUMPDEST PUSH1 0x0 PUSH20 0xFFFFFFFFFFFFFFFFFFFFFFFFFFFFFFFFFFFFFFFF AND DUP3 PUSH20 0xFFFFFFFFFFFFFFFFFFFFFFFFFFFFFFFFFFFFFFFF AND SUB PUSH2 0x265D JUMPI DUP1 PUSH1 0x2 PUSH1 0x0 DUP3 DUP3 SLOAD SUB SWAP3 POP POP DUP2 SWAP1 SSTORE POP PUSH2 0x26AA JUMP JUMPDEST DUP1 PUSH1 0x0 DUP1 DUP5 PUSH20 0xFFFFFFFFFFFFFFFFFFFFFFFFFFFFFFFFFFFFFFFF AND PUSH20 0xFFFFFFFFFFFFFFFFFFFFFFFFFFFFFFFFFFFFFFFF AND DUP2 MSTORE PUSH1 0x20 ADD SWAP1 DUP2 MSTORE PUSH1 0x20 ADD PUSH1 0x0 KECCAK256 PUSH1 0x0 DUP3 DUP3 SLOAD ADD SWAP3 POP POP DUP2 SWAP1 SSTORE POP JUMPDEST DUP2 PUSH20 0xFFFFFFFFFFFFFFFFFFFFFFFFFFFFFFFFFFFFFFFF AND DUP4 PUSH20 0xFFFFFFFFFFFFFFFFFFFFFFFFFFFFFFFFFFFFFFFF AND PUSH32 0xDDF252AD1BE2C89B69C2B068FC378DAA952BA7F163C4A11628F55A4DF523B3EF DUP4 PUSH1 0x40 MLOAD PUSH2 0x2707 SWAP2 SWAP1 PUSH2 0x2920 JUMP JUMPDEST PUSH1 0x40 MLOAD DUP1 SWAP2 SUB SWAP1 LOG3 POP POP POP JUMP JUMPDEST PUSH1 0x0 PUSH1 0x40 MLOAD SWAP1 POP SWAP1 JUMP JUMPDEST PUSH1 0x0 DUP1 REVERT JUMPDEST PUSH1 0x0 DUP1 REVERT JUMPDEST PUSH1 0x0 PUSH20 0xFFFFFFFFFFFFFFFFFFFFFFFFFFFFFFFFFFFFFFFF DUP3 AND SWAP1 POP SWAP2 SWAP1 POP JUMP JUMPDEST PUSH1 0x0 PUSH2 0x2753 DUP3 PUSH2 0x2728 JUMP JUMPDEST SWAP1 POP SWAP2 SWAP1 POP JUMP JUMPDEST PUSH2 0x2763 DUP2 PUSH2 0x2748 JUMP JUMPDEST DUP2 EQ PUSH2 0x276E JUMPI PUSH1 0x0 DUP1 REVERT JUMPDEST POP JUMP JUMPDEST PUSH1 0x0 DUP2 CALLDATALOAD SWAP1 POP PUSH2 0x2780 DUP2 PUSH2 0x275A JUMP JUMPDEST SWAP3 SWAP2 POP POP JUMP JUMPDEST PUSH1 0x0 PUSH1 0x20 DUP3 DUP5 SUB SLT ISZERO PUSH2 0x279C JUMPI PUSH2 0x279B PUSH2 0x271E JUMP JUMPDEST JUMPDEST PUSH1 0x0 PUSH2 0x27AA DUP5 DUP3 DUP6 ADD PUSH2 0x2771 JUMP JUMPDEST SWAP2 POP POP SWAP3 SWAP2 POP POP JUMP JUMPDEST PUSH1 0x0 DUP2 MLOAD SWAP1 POP SWAP2 SWAP1 POP JUMP JUMPDEST PUSH1 0x0 DUP3 DUP3 MSTORE PUSH1 0x20 DUP3 ADD SWAP1 POP SWAP3 SWAP2 POP POP JUMP JUMPDEST PUSH1 0x0 JUMPDEST DUP4 DUP2 LT ISZERO PUSH2 0x27ED JUMPI DUP1 DUP3 ADD MLOAD DUP2 DUP5 ADD MSTORE PUSH1 0x20 DUP2 ADD SWAP1 POP PUSH2 0x27D2 JUMP JUMPDEST PUSH1 0x0 DUP5 DUP5 ADD MSTORE POP POP POP POP JUMP JUMPDEST PUSH1 0x0 PUSH1 0x1F NOT PUSH1 0x1F DUP4 ADD AND SWAP1 POP SWAP2 SWAP1 POP JUMP JUMPDEST PUSH1 0x0 PUSH2 0x2815 DUP3 PUSH2 0x27B3 JUMP JUMPDEST PUSH2 0x281F DUP2 DUP6 PUSH2 0x27BE JUMP JUMPDEST SWAP4 POP PUSH2 0x282F DUP2 DUP6 PUSH1 0x20 DUP7 ADD PUSH2 0x27CF JUMP JUMPDEST PUSH2 0x2838 DUP2 PUSH2 0x27F9 JUMP JUMPDEST DUP5 ADD SWAP2 POP POP SWAP3 SWAP2 POP POP JUMP JUMPDEST PUSH1 0x0 PUSH1 0x20 DUP3 ADD SWAP1 POP DUP2 DUP2 SUB PUSH1 0x0 DUP4 ADD MSTORE PUSH2 0x285D DUP2 DUP5 PUSH2 0x280A JUMP JUMPDEST SWAP1 POP SWAP3 SWAP2 POP POP JUMP JUMPDEST PUSH1 0x0 DUP2 SWAP1 POP SWAP2 SWAP1 POP JUMP JUMPDEST PUSH2 0x2878 DUP2 PUSH2 0x2865 JUMP JUMPDEST DUP2 EQ PUSH2 0x2883 JUMPI PUSH1 0x0 DUP1 REVERT JUMPDEST POP JUMP JUMPDEST PUSH1 0x0 DUP2 CALLDATALOAD SWAP1 POP PUSH2 0x2895 DUP2 PUSH2 0x286F JUMP JUMPDEST SWAP3 SWAP2 POP POP JUMP JUMPDEST PUSH1 0x0 DUP1 PUSH1 0x40 DUP4 DUP6 SUB SLT ISZERO PUSH2 0x28B2 JUMPI PUSH2 0x28B1 PUSH2 0x271E JUMP JUMPDEST JUMPDEST PUSH1 0x0 PUSH2 0x28C0 DUP6 DUP3 DUP7 ADD PUSH2 0x2771 JUMP JUMPDEST SWAP3 POP POP PUSH1 0x20 PUSH2 0x28D1 DUP6 DUP3 DUP7 ADD PUSH2 0x2886 JUMP JUMPDEST SWAP2 POP POP SWAP3 POP SWAP3 SWAP1 POP JUMP JUMPDEST PUSH1 0x0 DUP2 ISZERO ISZERO SWAP1 POP SWAP2 SWAP1 POP JUMP JUMPDEST PUSH2 0x28F0 DUP2 PUSH2 0x28DB JUMP JUMPDEST DUP3 MSTORE POP POP JUMP JUMPDEST PUSH1 0x0 PUSH1 0x20 DUP3 ADD SWAP1 POP PUSH2 0x290B PUSH1 0x0 DUP4 ADD DUP5 PUSH2 0x28E7 JUMP JUMPDEST SWAP3 SWAP2 POP POP JUMP JUMPDEST PUSH2 0x291A DUP2 PUSH2 0x2865 JUMP JUMPDEST DUP3 MSTORE POP POP JUMP JUMPDEST PUSH1 0x0 PUSH1 0x20 DUP3 ADD SWAP1 POP PUSH2 0x2935 PUSH1 0x0 DUP4 ADD DUP5 PUSH2 0x2911 JUMP JUMPDEST SWAP3 SWAP2 POP POP JUMP JUMPDEST PUSH1 0x0 DUP1 PUSH1 0x0 PUSH1 0x60 DUP5 DUP7 SUB SLT ISZERO PUSH2 0x2954 JUMPI PUSH2 0x2953 PUSH2 0x271E JUMP JUMPDEST JUMPDEST PUSH1 0x0 PUSH2 0x2962 DUP7 DUP3 DUP8 ADD PUSH2 0x2771 JUMP JUMPDEST SWAP4 POP POP PUSH1 0x20 PUSH2 0x2973 DUP7 DUP3 DUP8 ADD PUSH2 0x2771 JUMP JUMPDEST SWAP3 POP POP PUSH1 0x40 PUSH2 0x2984 DUP7 DUP3 DUP8 ADD PUSH2 0x2886 JUMP JUMPDEST SWAP2 POP POP SWAP3 POP SWAP3 POP SWAP3 JUMP JUMPDEST PUSH1 0x0 PUSH1 0xFF DUP3 AND SWAP1 POP SWAP2 SWAP1 POP JUMP JUMPDEST PUSH2 0x29A4 DUP2 PUSH2 0x298E JUMP JUMPDEST DUP3 MSTORE POP POP JUMP JUMPDEST PUSH1 0x0 PUSH1 0x20 DUP3 ADD SWAP1 POP PUSH2 0x29BF PUSH1 0x0 DUP4 ADD DUP5 PUSH2 0x299B JUMP JUMPDEST SWAP3 SWAP2 POP POP JUMP JUMPDEST PUSH1 0x0 DUP1 REVERT JUMPDEST PUSH1 0x0 DUP1 REVERT JUMPDEST PUSH1 0x0 DUP1 REVERT JUMPDEST PUSH1 0x0 DUP1 DUP4 PUSH1 0x1F DUP5 ADD SLT PUSH2 0x29EA JUMPI PUSH2 0x29E9 PUSH2 0x29C5 JUMP JUMPDEST JUMPDEST DUP3 CALLDATALOAD SWAP1 POP PUSH8 0xFFFFFFFFFFFFFFFF DUP2 GT ISZERO PUSH2 0x2A07 JUMPI PUSH2 0x2A06 PUSH2 0x29CA JUMP JUMPDEST JUMPDEST PUSH1 0x20 DUP4 ADD SWAP2 POP DUP4 PUSH1 0x1 DUP3 MUL DUP4 ADD GT ISZERO PUSH2 0x2A23 JUMPI PUSH2 0x2A22 PUSH2 0x29CF JUMP JUMPDEST JUMPDEST SWAP3 POP SWAP3 SWAP1 POP JUMP JUMPDEST PUSH1 0x0 DUP1 PUSH1 0x0 PUSH1 0x40 DUP5 DUP7 SUB SLT ISZERO PUSH2 0x2A43 JUMPI PUSH2 0x2A42 PUSH2 0x271E JUMP JUMPDEST JUMPDEST PUSH1 0x0 PUSH2 0x2A51 DUP7 DUP3 DUP8 ADD PUSH2 0x2886 JUMP JUMPDEST SWAP4 POP POP PUSH1 0x20 DUP5 ADD CALLDATALOAD PUSH8 0xFFFFFFFFFFFFFFFF DUP2 GT ISZERO PUSH2 0x2A72 JUMPI PUSH2 0x2A71 PUSH2 0x2723 JUMP JUMPDEST JUMPDEST PUSH2 0x2A7E DUP7 DUP3 DUP8 ADD PUSH2 0x29D4 JUMP JUMPDEST SWAP3 POP SWAP3 POP POP SWAP3 POP SWAP3 POP SWAP3 JUMP JUMPDEST PUSH1 0x0 DUP1 PUSH1 0x0 PUSH1 0x40 DUP5 DUP7 SUB SLT ISZERO PUSH2 0x2AA3 JUMPI PUSH2 0x2AA2 PUSH2 0x271E JUMP JUMPDEST JUMPDEST PUSH1 0x0 PUSH2 0x2AB1 DUP7 DUP3 DUP8 ADD PUSH2 0x2771 JUMP JUMPDEST SWAP4 POP POP PUSH1 0x20 DUP5 ADD CALLDATALOAD PUSH8 0xFFFFFFFFFFFFFFFF DUP2 GT ISZERO PUSH2 0x2AD2 JUMPI PUSH2 0x2AD1 PUSH2 0x2723 JUMP JUMPDEST JUMPDEST PUSH2 0x2ADE DUP7 DUP3 DUP8 ADD PUSH2 0x29D4 JUMP JUMPDEST SWAP3 POP SWAP3 POP POP SWAP3 POP SWAP3 POP SWAP3 JUMP JUMPDEST PUSH1 0x0 PUSH1 0x20 DUP3 DUP5 SUB SLT ISZERO PUSH2 0x2B00 JUMPI PUSH2 0x2AFF PUSH2 0x271E JUMP JUMPDEST JUMPDEST PUSH1 0x0 PUSH2 0x2B0E DUP5 DUP3 DUP6 ADD PUSH2 0x2886 JUMP JUMPDEST SWAP2 POP POP SWAP3 SWAP2 POP POP JUMP JUMPDEST PUSH1 0x0 DUP1 PUSH1 0x40 DUP4 DUP6 SUB SLT ISZERO PUSH2 0x2B2E JUMPI PUSH2 0x2B2D PUSH2 0x271E JUMP JUMPDEST JUMPDEST PUSH1 0x0 PUSH2 0x2B3C DUP6 DUP3 DUP7 ADD PUSH2 0x2886 JUMP JUMPDEST SWAP3 POP POP PUSH1 0x20 PUSH2 0x2B4D DUP6 DUP3 DUP7 ADD PUSH2 0x2886 JUMP JUMPDEST SWAP2 POP POP SWAP3 POP SWAP3 SWAP1 POP JUMP JUMPDEST PUSH2 0x2B60 DUP2 PUSH2 0x2748 JUMP JUMPDEST DUP3 MSTORE POP POP JUMP JUMPDEST PUSH1 0x0 PUSH1 0x20 DUP3 ADD SWAP1 POP PUSH2 0x2B7B PUSH1 0x0 DUP4 ADD DUP5 PUSH2 0x2B57 JUMP JUMPDEST SWAP3 SWAP2 POP POP JUMP JUMPDEST PUSH1 0x0 DUP1 REVERT JUMPDEST PUSH32 0x4E487B7100000000000000000000000000000000000000000000000000000000 PUSH1 0x0 MSTORE PUSH1 0x41 PUSH1 0x4 MSTORE PUSH1 0x24 PUSH1 0x0 REVERT JUMPDEST PUSH2 0x2BBE DUP3 PUSH2 0x27F9 JUMP JUMPDEST DUP2 ADD DUP2 DUP2 LT PUSH8 0xFFFFFFFFFFFFFFFF DUP3 GT OR ISZERO PUSH2 0x2BDD JUMPI PUSH2 0x2BDC PUSH2 0x2B86 JUMP JUMPDEST JUMPDEST DUP1 PUSH1 0x40 MSTORE POP POP POP JUMP JUMPDEST PUSH1 0x0 PUSH2 0x2BF0 PUSH2 0x2714 JUMP JUMPDEST SWAP1 POP PUSH2 0x2BFC DUP3 DUP3 PUSH2 0x2BB5 JUMP JUMPDEST SWAP2 SWAP1 POP JUMP JUMPDEST PUSH1 0x0 PUSH8 0xFFFFFFFFFFFFFFFF DUP3 GT ISZERO PUSH2 0x2C1C JUMPI PUSH2 0x2C1B PUSH2 0x2B86 JUMP JUMPDEST JUMPDEST PUSH2 0x2C25 DUP3 PUSH2 0x27F9 JUMP JUMPDEST SWAP1 POP PUSH1 0x20 DUP2 ADD SWAP1 POP SWAP2 SWAP1 POP JUMP JUMPDEST DUP3 DUP2 DUP4 CALLDATACOPY PUSH1 0x0 DUP4 DUP4 ADD MSTORE POP POP POP JUMP JUMPDEST PUSH1 0x0 PUSH2 0x2C54 PUSH2 0x2C4F DUP5 PUSH2 0x2C01 JUMP JUMPDEST PUSH2 0x2BE6 JUMP JUMPDEST SWAP1 POP DUP3 DUP2 MSTORE PUSH1 0x20 DUP2 ADD DUP5 DUP5 DUP5 ADD GT ISZERO PUSH2 0x2C70 JUMPI PUSH2 0x2C6F PUSH2 0x2B81 JUMP JUMPDEST JUMPDEST PUSH2 0x2C7B DUP5 DUP3 DUP6 PUSH2 0x2C32 JUMP JUMPDEST POP SWAP4 SWAP3 POP POP POP JUMP JUMPDEST PUSH1 0x0 DUP3 PUSH1 0x1F DUP4 ADD SLT PUSH2 0x2C98 JUMPI PUSH2 0x2C97 PUSH2 0x29C5 JUMP JUMPDEST JUMPDEST DUP2 CALLDATALOAD PUSH2 0x2CA8 DUP5 DUP3 PUSH1 0x20 DUP7 ADD PUSH2 0x2C41 JUMP JUMPDEST SWAP2 POP POP SWAP3 SWAP2 POP POP JUMP JUMPDEST PUSH1 0x0 PUSH1 0x20 DUP3 DUP5 SUB SLT ISZERO PUSH2 0x2CC7 JUMPI PUSH2 0x2CC6 PUSH2 0x271E JUMP JUMPDEST JUMPDEST PUSH1 0x0 DUP3 ADD CALLDATALOAD PUSH8 0xFFFFFFFFFFFFFFFF DUP2 GT ISZERO PUSH2 0x2CE5 JUMPI PUSH2 0x2CE4 PUSH2 0x2723 JUMP JUMPDEST JUMPDEST PUSH2 0x2CF1 DUP5 DUP3 DUP6 ADD PUSH2 0x2C83 JUMP JUMPDEST SWAP2 POP POP SWAP3 SWAP2 POP POP JUMP JUMPDEST PUSH1 0x0 DUP1 PUSH1 0x40 DUP4 DUP6 SUB SLT ISZERO PUSH2 0x2D11 JUMPI PUSH2 0x2D10 PUSH2 0x271E JUMP JUMPDEST JUMPDEST PUSH1 0x0 PUSH2 0x2D1F DUP6 DUP3 DUP7 ADD PUSH2 0x2771 JUMP JUMPDEST SWAP3 POP POP PUSH1 0x20 PUSH2 0x2D30 DUP6 DUP3 DUP7 ADD PUSH2 0x2771 JUMP JUMPDEST SWAP2 POP POP SWAP3 POP SWAP3 SWAP1 POP JUMP JUMPDEST PUSH1 0x0 PUSH1 0xA0 DUP3 ADD SWAP1 POP PUSH2 0x2D4F PUSH1 0x0 DUP4 ADD DUP9 PUSH2 0x2911 JUMP JUMPDEST PUSH2 0x2D5C PUSH1 0x20 DUP4 ADD DUP8 PUSH2 0x2911 JUMP JUMPDEST PUSH2 0x2D69 PUSH1 0x40 DUP4 ADD DUP7 PUSH2 0x2911 JUMP JUMPDEST PUSH2 0x2D76 PUSH1 0x60 DUP4 ADD DUP6 PUSH2 0x2911 JUMP JUMPDEST PUSH2 0x2D83 PUSH1 0x80 DUP4 ADD DUP5 PUSH2 0x2911 JUMP JUMPDEST SWAP7 SWAP6 POP POP POP POP POP POP JUMP JUMPDEST PUSH32 0x4E487B7100000000000000000000000000000000000000000000000000000000 PUSH1 0x0 MSTORE PUSH1 0x22 PUSH1 0x4 MSTORE PUSH1 0x24 PUSH1 0x0 REVERT JUMPDEST PUSH1 0x0 PUSH1 0x2 DUP3 DIV SWAP1 POP PUSH1 0x1 DUP3 AND DUP1 PUSH2 0x2DD4 JUMPI PUSH1 0x7F DUP3 AND SWAP2 POP JUMPDEST PUSH1 0x20 DUP3 LT DUP2 SUB PUSH2 0x2DE7 JUMPI PUSH2 0x2DE6 PUSH2 0x2D8D JUMP JUMPDEST JUMPDEST POP SWAP2 SWAP1 POP JUMP JUMPDEST PUSH32 0x507269766174652053616C65206973206E6F7420616374697665000000000000 PUSH1 0x0 DUP3 ADD MSTORE POP JUMP JUMPDEST PUSH1 0x0 PUSH2 0x2E23 PUSH1 0x1A DUP4 PUSH2 0x27BE JUMP JUMPDEST SWAP2 POP PUSH2 0x2E2E DUP3 PUSH2 0x2DED JUMP JUMPDEST PUSH1 0x20 DUP3 ADD SWAP1 POP SWAP2 SWAP1 POP JUMP JUMPDEST PUSH1 0x0 PUSH1 0x20 DUP3 ADD SWAP1 POP DUP2 DUP2 SUB PUSH1 0x0 DUP4 ADD MSTORE PUSH2 0x2E52 DUP2 PUSH2 0x2E16 JUMP JUMPDEST SWAP1 POP SWAP2 SWAP1 POP JUMP JUMPDEST PUSH32 0x596F7520617265206E6F742077686974656C6973746564000000000000000000 PUSH1 0x0 DUP3 ADD MSTORE POP JUMP JUMPDEST PUSH1 0x0 PUSH2 0x2E8F PUSH1 0x17 DUP4 PUSH2 0x27BE JUMP JUMPDEST SWAP2 POP PUSH2 0x2E9A DUP3 PUSH2 0x2E59 JUMP JUMPDEST PUSH1 0x20 DUP3 ADD SWAP1 POP SWAP2 SWAP1 POP JUMP JUMPDEST PUSH1 0x0 PUSH1 0x20 DUP3 ADD SWAP1 POP DUP2 DUP2 SUB PUSH1 0x0 DUP4 ADD MSTORE PUSH2 0x2EBE DUP2 PUSH2 0x2E82 JUMP JUMPDEST SWAP1 POP SWAP2 SWAP1 POP JUMP JUMPDEST PUSH32 0x507269766174652053616C6520736F6C64206F75742E00000000000000000000 PUSH1 0x0 DUP3 ADD MSTORE POP JUMP JUMPDEST PUSH1 0x0 PUSH2 0x2EFB PUSH1 0x16 DUP4 PUSH2 0x27BE JUMP JUMPDEST SWAP2 POP PUSH2 0x2F06 DUP3 PUSH2 0x2EC5 JUMP JUMPDEST PUSH1 0x20 DUP3 ADD SWAP1 POP SWAP2 SWAP1 POP JUMP JUMPDEST PUSH1 0x0 PUSH1 0x20 DUP3 ADD SWAP1 POP DUP2 DUP2 SUB PUSH1 0x0 DUP4 ADD MSTORE PUSH2 0x2F2A DUP2 PUSH2 0x2EEE JUMP JUMPDEST SWAP1 POP SWAP2 SWAP1 POP JUMP JUMPDEST PUSH32 0x416D6F756E742069732062656C6F77206D696E696D756D207075726368617365 PUSH1 0x0 DUP3 ADD MSTORE PUSH32 0x206C696D69740000000000000000000000000000000000000000000000000000 PUSH1 0x20 DUP3 ADD MSTORE POP JUMP JUMPDEST PUSH1 0x0 PUSH2 0x2F8D PUSH1 0x26 DUP4 PUSH2 0x27BE JUMP JUMPDEST SWAP2 POP PUSH2 0x2F98 DUP3 PUSH2 0x2F31 JUMP JUMPDEST PUSH1 0x40 DUP3 ADD SWAP1 POP SWAP2 SWAP1 POP JUMP JUMPDEST PUSH1 0x0 PUSH1 0x20 DUP3 ADD SWAP1 POP DUP2 DUP2 SUB PUSH1 0x0 DUP4 ADD MSTORE PUSH2 0x2FBC DUP2 PUSH2 0x2F80 JUMP JUMPDEST SWAP1 POP SWAP2 SWAP1 POP JUMP JUMPDEST PUSH32 0x416D6F756E742069732062656C6F7720746865206D696E696D756D20746F6B65 PUSH1 0x0 DUP3 ADD MSTORE PUSH32 0x6E206C696D697420666F7220507269766174652053616C650000000000000000 PUSH1 0x20 DUP3 ADD MSTORE POP JUMP JUMPDEST PUSH1 0x0 PUSH2 0x301F PUSH1 0x38 DUP4 PUSH2 0x27BE JUMP JUMPDEST SWAP2 POP PUSH2 0x302A DUP3 PUSH2 0x2FC3 JUMP JUMPDEST PUSH1 0x40 DUP3 ADD SWAP1 POP SWAP2 SWAP1 POP JUMP JUMPDEST PUSH1 0x0 PUSH1 0x20 DUP3 ADD SWAP1 POP DUP2 DUP2 SUB PUSH1 0x0 DUP4 ADD MSTORE PUSH2 0x304E DUP2 PUSH2 0x3012 JUMP JUMPDEST SWAP1 POP SWAP2 SWAP1 POP JUMP JUMPDEST PUSH32 0x416D6F756E74206578636565647320746865206D6178696D756D20746F6B656E PUSH1 0x0 DUP3 ADD MSTORE PUSH32 0x206C696D697420706572207472616E73616374696F6E20666F72205072697661 PUSH1 0x20 DUP3 ADD MSTORE PUSH32 0x74652053616C6500000000000000000000000000000000000000000000000000 PUSH1 0x40 DUP3 ADD MSTORE POP JUMP JUMPDEST PUSH1 0x0 PUSH2 0x30D7 PUSH1 0x47 DUP4 PUSH2 0x27BE JUMP JUMPDEST SWAP2 POP PUSH2 0x30E2 DUP3 PUSH2 0x3055 JUMP JUMPDEST PUSH1 0x60 DUP3 ADD SWAP1 POP SWAP2 SWAP1 POP JUMP JUMPDEST PUSH1 0x0 PUSH1 0x20 DUP3 ADD SWAP1 POP DUP2 DUP2 SUB PUSH1 0x0 DUP4 ADD MSTORE PUSH2 0x3106 DUP2 PUSH2 0x30CA JUMP JUMPDEST SWAP1 POP SWAP2 SWAP1 POP JUMP JUMPDEST PUSH32 0x45786365656473206D6178696D756D20746F6B656E207075726368617365206C PUSH1 0x0 DUP3 ADD MSTORE PUSH32 0x696D697400000000000000000000000000000000000000000000000000000000 PUSH1 0x20 DUP3 ADD MSTORE POP JUMP JUMPDEST PUSH1 0x0 PUSH2 0x3169 PUSH1 0x24 DUP4 PUSH2 0x27BE JUMP JUMPDEST SWAP2 POP PUSH2 0x3174 DUP3 PUSH2 0x310D JUMP JUMPDEST PUSH1 0x40 DUP3 ADD SWAP1 POP SWAP2 SWAP1 POP JUMP JUMPDEST PUSH1 0x0 PUSH1 0x20 DUP3 ADD SWAP1 POP DUP2 DUP2 SUB PUSH1 0x0 DUP4 ADD MSTORE PUSH2 0x3198 DUP2 PUSH2 0x315C JUMP JUMPDEST SWAP1 POP SWAP2 SWAP1 POP JUMP JUMPDEST PUSH32 0x4E487B7100000000000000000000000000000000000000000000000000000000 PUSH1 0x0 MSTORE PUSH1 0x11 PUSH1 0x4 MSTORE PUSH1 0x24 PUSH1 0x0 REVERT JUMPDEST PUSH1 0x0 PUSH2 0x31D9 DUP3 PUSH2 0x2865 JUMP JUMPDEST SWAP2 POP PUSH2 0x31E4 DUP4 PUSH2 0x2865 JUMP JUMPDEST SWAP3 POP DUP3 DUP3 ADD SWAP1 POP DUP1 DUP3 GT ISZERO PUSH2 0x31FC JUMPI PUSH2 0x31FB PUSH2 0x319F JUMP JUMPDEST JUMPDEST SWAP3 SWAP2 POP POP JUMP JUMPDEST PUSH32 0x4578636565647320507269766174652053616C6520746F6B656E206C696D6974 PUSH1 0x0 DUP3 ADD MSTORE PUSH32 0x2E00000000000000000000000000000000000000000000000000000000000000 PUSH1 0x20 DUP3 ADD MSTORE POP JUMP JUMPDEST PUSH1 0x0 PUSH2 0x325E PUSH1 0x21 DUP4 PUSH2 0x27BE JUMP JUMPDEST SWAP2 POP PUSH2 0x3269 DUP3 PUSH2 0x3202 JUMP JUMPDEST PUSH1 0x40 DUP3 ADD SWAP1 POP SWAP2 SWAP1 POP JUMP JUMPDEST PUSH1 0x0 PUSH1 0x20 DUP3 ADD SWAP1 POP DUP2 DUP2 SUB PUSH1 0x0 DUP4 ADD MSTORE PUSH2 0x328D DUP2 PUSH2 0x3251 JUMP JUMPDEST SWAP1 POP SWAP2 SWAP1 POP JUMP JUMPDEST PUSH1 0x0 DUP2 SWAP1 POP SWAP3 SWAP2 POP POP JUMP JUMPDEST PUSH1 0x0 PUSH2 0x32AB DUP4 DUP6 PUSH2 0x3294 JUMP JUMPDEST SWAP4 POP PUSH2 0x32B8 DUP4 DUP6 DUP5 PUSH2 0x2C32 JUMP JUMPDEST DUP3 DUP5 ADD SWAP1 POP SWAP4 SWAP3 POP POP POP JUMP JUMPDEST PUSH1 0x0 PUSH2 0x32D1 DUP3 DUP5 DUP7 PUSH2 0x329F JUMP JUMPDEST SWAP2 POP DUP2 SWAP1 POP SWAP4 SWAP3 POP POP POP JUMP JUMPDEST PUSH32 0x496E76616C696420616666696C6961746520636F646500000000000000000000 PUSH1 0x0 DUP3 ADD MSTORE POP JUMP JUMPDEST PUSH1 0x0 PUSH2 0x3313 PUSH1 0x16 DUP4 PUSH2 0x27BE JUMP JUMPDEST SWAP2 POP PUSH2 0x331E DUP3 PUSH2 0x32DD JUMP JUMPDEST PUSH1 0x20 DUP3 ADD SWAP1 POP SWAP2 SWAP1 POP JUMP JUMPDEST PUSH1 0x0 PUSH1 0x20 DUP3 ADD SWAP1 POP DUP2 DUP2 SUB PUSH1 0x0 DUP4 ADD MSTORE PUSH2 0x3342 DUP2 PUSH2 0x3306 JUMP JUMPDEST SWAP1 POP SWAP2 SWAP1 POP JUMP JUMPDEST PUSH1 0x0 PUSH2 0x3354 DUP3 PUSH2 0x2865 JUMP JUMPDEST SWAP2 POP PUSH2 0x335F DUP4 PUSH2 0x2865 JUMP JUMPDEST SWAP3 POP DUP3 DUP3 MUL PUSH2 0x336D DUP2 PUSH2 0x2865 JUMP JUMPDEST SWAP2 POP DUP3 DUP3 DIV DUP5 EQ DUP4 ISZERO OR PUSH2 0x3384 JUMPI PUSH2 0x3383 PUSH2 0x319F JUMP JUMPDEST JUMPDEST POP SWAP3 SWAP2 POP POP JUMP JUMPDEST PUSH32 0x4E487B7100000000000000000000000000000000000000000000000000000000 PUSH1 0x0 MSTORE PUSH1 0x12 PUSH1 0x4 MSTORE PUSH1 0x24 PUSH1 0x0 REVERT JUMPDEST PUSH1 0x0 PUSH2 0x33C5 DUP3 PUSH2 0x2865 JUMP JUMPDEST SWAP2 POP PUSH2 0x33D0 DUP4 PUSH2 0x2865 JUMP JUMPDEST SWAP3 POP DUP3 PUSH2 0x33E0 JUMPI PUSH2 0x33DF PUSH2 0x338B JUMP JUMPDEST JUMPDEST DUP3 DUP3 DIV SWAP1 POP SWAP3 SWAP2 POP POP JUMP JUMPDEST PUSH1 0x0 PUSH1 0x40 DUP3 ADD SWAP1 POP PUSH2 0x3400 PUSH1 0x0 DUP4 ADD DUP6 PUSH2 0x2911 JUMP JUMPDEST PUSH2 0x340D PUSH1 0x20 DUP4 ADD DUP5 PUSH2 0x2911 JUMP JUMPDEST SWAP4 SWAP3 POP POP POP JUMP JUMPDEST PUSH32 0x54686973206164647265737320616C72656164792068617320616E2061666669 PUSH1 0x0 DUP3 ADD MSTORE PUSH32 0x6C6961746520636F64652E000000000000000000000000000000000000000000 PUSH1 0x20 DUP3 ADD MSTORE POP JUMP JUMPDEST PUSH1 0x0 PUSH2 0x3470 PUSH1 0x2B DUP4 PUSH2 0x27BE JUMP JUMPDEST SWAP2 POP PUSH2 0x347B DUP3 PUSH2 0x3414 JUMP JUMPDEST PUSH1 0x40 DUP3 ADD SWAP1 POP SWAP2 SWAP1 POP JUMP JUMPDEST PUSH1 0x0 PUSH1 0x20 DUP3 ADD SWAP1 POP DUP2 DUP2 SUB PUSH1 0x0 DUP4 ADD MSTORE PUSH2 0x349F DUP2 PUSH2 0x3463 JUMP JUMPDEST SWAP1 POP SWAP2 SWAP1 POP JUMP JUMPDEST PUSH32 0x416666696C6961746520636F6465206D757374206265206265747765656E2033 PUSH1 0x0 DUP3 ADD MSTORE PUSH32 0x20616E6420323020636861726163746572732E00000000000000000000000000 PUSH1 0x20 DUP3 ADD MSTORE POP JUMP JUMPDEST PUSH1 0x0 PUSH2 0x3502 PUSH1 0x33 DUP4 PUSH2 0x27BE JUMP JUMPDEST SWAP2 POP PUSH2 0x350D DUP3 PUSH2 0x34A6 JUMP JUMPDEST PUSH1 0x40 DUP3 ADD SWAP1 POP SWAP2 SWAP1 POP JUMP JUMPDEST PUSH1 0x0 PUSH1 0x20 DUP3 ADD SWAP1 POP DUP2 DUP2 SUB PUSH1 0x0 DUP4 ADD MSTORE PUSH2 0x3531 DUP2 PUSH2 0x34F5 JUMP JUMPDEST SWAP1 POP SWAP2 SWAP1 POP JUMP JUMPDEST PUSH32 0x416666696C6961746520636F646520616C72656164792074616B656E00000000 PUSH1 0x0 DUP3 ADD MSTORE POP JUMP JUMPDEST PUSH1 0x0 PUSH2 0x356E PUSH1 0x1C DUP4 PUSH2 0x27BE JUMP JUMPDEST SWAP2 POP PUSH2 0x3579 DUP3 PUSH2 0x3538 JUMP JUMPDEST PUSH1 0x20 DUP3 ADD SWAP1 POP SWAP2 SWAP1 POP JUMP JUMPDEST PUSH1 0x0 PUSH1 0x20 DUP3 ADD SWAP1 POP DUP2 DUP2 SUB PUSH1 0x0 DUP4 ADD MSTORE PUSH2 0x359D DUP2 PUSH2 0x3561 JUMP JUMPDEST SWAP1 POP SWAP2 SWAP1 POP JUMP JUMPDEST PUSH1 0x0 DUP3 SWAP1 POP SWAP3 SWAP2 POP POP JUMP JUMPDEST PUSH1 0x0 DUP2 SWAP1 POP DUP2 PUSH1 0x0 MSTORE PUSH1 0x20 PUSH1 0x0 KECCAK256 SWAP1 POP SWAP2 SWAP1 POP JUMP JUMPDEST PUSH1 0x0 PUSH1 0x20 PUSH1 0x1F DUP4 ADD DIV SWAP1 POP SWAP2 SWAP1 POP JUMP JUMPDEST PUSH1 0x0 DUP3 DUP3 SHL SWAP1 POP SWAP3 SWAP2 POP POP JUMP JUMPDEST PUSH1 0x0 PUSH1 0x8 DUP4 MUL PUSH2 0x3611 PUSH32 0xFFFFFFFFFFFFFFFFFFFFFFFFFFFFFFFFFFFFFFFFFFFFFFFFFFFFFFFFFFFFFFFF DUP3 PUSH2 0x35D4 JUMP JUMPDEST PUSH2 0x361B DUP7 DUP4 PUSH2 0x35D4 JUMP JUMPDEST SWAP6 POP DUP1 NOT DUP5 AND SWAP4 POP DUP1 DUP7 AND DUP5 OR SWAP3 POP POP POP SWAP4 SWAP3 POP POP POP JUMP JUMPDEST PUSH1 0x0 DUP2 SWAP1 POP SWAP2 SWAP1 POP JUMP JUMPDEST PUSH1 0x0 PUSH2 0x3658 PUSH2 0x3653 PUSH2 0x364E DUP5 PUSH2 0x2865 JUMP JUMPDEST PUSH2 0x3633 JUMP JUMPDEST PUSH2 0x2865 JUMP JUMPDEST SWAP1 POP SWAP2 SWAP1 POP JUMP JUMPDEST PUSH1 0x0 DUP2 SWAP1 POP SWAP2 SWAP1 POP JUMP JUMPDEST PUSH2 0x3672 DUP4 PUSH2 0x363D JUMP JUMPDEST PUSH2 0x3686 PUSH2 0x367E DUP3 PUSH2 0x365F JUMP JUMPDEST DUP5 DUP5 SLOAD PUSH2 0x35E1 JUMP JUMPDEST DUP3 SSTORE POP POP POP POP JUMP JUMPDEST PUSH1 0x0 SWAP1 JUMP JUMPDEST PUSH2 0x369B PUSH2 0x368E JUMP JUMPDEST PUSH2 0x36A6 DUP2 DUP5 DUP5 PUSH2 0x3669 JUMP JUMPDEST POP POP POP JUMP JUMPDEST JUMPDEST DUP2 DUP2 LT ISZERO PUSH2 0x36CA JUMPI PUSH2 0x36BF PUSH1 0x0 DUP3 PUSH2 0x3693 JUMP JUMPDEST PUSH1 0x1 DUP2 ADD SWAP1 POP PUSH2 0x36AC JUMP JUMPDEST POP POP JUMP JUMPDEST PUSH1 0x1F DUP3 GT ISZERO PUSH2 0x370F JUMPI PUSH2 0x36E0 DUP2 PUSH2 0x35AF JUMP JUMPDEST PUSH2 0x36E9 DUP5 PUSH2 0x35C4 JUMP JUMPDEST DUP2 ADD PUSH1 0x20 DUP6 LT ISZERO PUSH2 0x36F8 JUMPI DUP2 SWAP1 POP JUMPDEST PUSH2 0x370C PUSH2 0x3704 DUP6 PUSH2 0x35C4 JUMP JUMPDEST DUP4 ADD DUP3 PUSH2 0x36AB JUMP JUMPDEST POP POP JUMPDEST POP POP POP JUMP JUMPDEST PUSH1 0x0 DUP3 DUP3 SHR SWAP1 POP SWAP3 SWAP2 POP POP JUMP JUMPDEST PUSH1 0x0 PUSH2 0x3732 PUSH1 0x0 NOT DUP5 PUSH1 0x8 MUL PUSH2 0x3714 JUMP JUMPDEST NOT DUP1 DUP4 AND SWAP2 POP POP SWAP3 SWAP2 POP POP JUMP JUMPDEST PUSH1 0x0 PUSH2 0x374B DUP4 DUP4 PUSH2 0x3721 JUMP JUMPDEST SWAP2 POP DUP3 PUSH1 0x2 MUL DUP3 OR SWAP1 POP SWAP3 SWAP2 POP POP JUMP JUMPDEST PUSH2 0x3765 DUP4 DUP4 PUSH2 0x35A4 JUMP JUMPDEST PUSH8 0xFFFFFFFFFFFFFFFF DUP2 GT ISZERO PUSH2 0x377E JUMPI PUSH2 0x377D PUSH2 0x2B86 JUMP JUMPDEST JUMPDEST PUSH2 0x3788 DUP3 SLOAD PUSH2 0x2DBC JUMP JUMPDEST PUSH2 0x3793 DUP3 DUP3 DUP6 PUSH2 0x36CE JUMP JUMPDEST PUSH1 0x0 PUSH1 0x1F DUP4 GT PUSH1 0x1 DUP2 EQ PUSH2 0x37C2 JUMPI PUSH1 0x0 DUP5 ISZERO PUSH2 0x37B0 JUMPI DUP3 DUP8 ADD CALLDATALOAD SWAP1 POP JUMPDEST PUSH2 0x37BA DUP6 DUP3 PUSH2 0x373F JUMP JUMPDEST DUP7 SSTORE POP PUSH2 0x3822 JUMP JUMPDEST PUSH1 0x1F NOT DUP5 AND PUSH2 0x37D0 DUP7 PUSH2 0x35AF JUMP JUMPDEST PUSH1 0x0 JUMPDEST DUP3 DUP2 LT ISZERO PUSH2 0x37F8 JUMPI DUP5 DUP10 ADD CALLDATALOAD DUP3 SSTORE PUSH1 0x1 DUP3 ADD SWAP2 POP PUSH1 0x20 DUP6 ADD SWAP5 POP PUSH1 0x20 DUP2 ADD SWAP1 POP PUSH2 0x37D3 JUMP JUMPDEST DUP7 DUP4 LT ISZERO PUSH2 0x3815 JUMPI DUP5 DUP10 ADD CALLDATALOAD PUSH2 0x3811 PUSH1 0x1F DUP10 AND DUP3 PUSH2 0x3721 JUMP JUMPDEST DUP4 SSTORE POP JUMPDEST PUSH1 0x1 PUSH1 0x2 DUP9 MUL ADD DUP9 SSTORE POP POP POP JUMPDEST POP POP POP POP POP POP POP JUMP JUMPDEST PUSH32 0x56657374696E6720686173206E6F742073746172746564207965740000000000 PUSH1 0x0 DUP3 ADD MSTORE POP JUMP JUMPDEST PUSH1 0x0 PUSH2 0x3861 PUSH1 0x1B DUP4 PUSH2 0x27BE JUMP JUMPDEST SWAP2 POP PUSH2 0x386C DUP3 PUSH2 0x382B JUMP JUMPDEST PUSH1 0x20 DUP3 ADD SWAP1 POP SWAP2 SWAP1 POP JUMP JUMPDEST PUSH1 0x0 PUSH1 0x20 DUP3 ADD SWAP1 POP DUP2 DUP2 SUB PUSH1 0x0 DUP4 ADD MSTORE PUSH2 0x3890 DUP2 PUSH2 0x3854 JUMP JUMPDEST SWAP1 POP SWAP2 SWAP1 POP JUMP JUMPDEST PUSH1 0x0 PUSH2 0x38A2 DUP3 PUSH2 0x2865 JUMP JUMPDEST SWAP2 POP PUSH2 0x38AD DUP4 PUSH2 0x2865 JUMP JUMPDEST SWAP3 POP DUP3 DUP3 SUB SWAP1 POP DUP2 DUP2 GT ISZERO PUSH2 0x38C5 JUMPI PUSH2 0x38C4 PUSH2 0x319F JUMP JUMPDEST JUMPDEST SWAP3 SWAP2 POP POP JUMP JUMPDEST PUSH32 0x4E6F20746F6B656E7320617661696C61626C6520666F722072656C6561736500 PUSH1 0x0 DUP3 ADD MSTORE POP JUMP JUMPDEST PUSH1 0x0 PUSH2 0x3901 PUSH1 0x1F DUP4 PUSH2 0x27BE JUMP JUMPDEST SWAP2 POP PUSH2 0x390C DUP3 PUSH2 0x38CB JUMP JUMPDEST PUSH1 0x20 DUP3 ADD SWAP1 POP SWAP2 SWAP1 POP JUMP JUMPDEST PUSH1 0x0 PUSH1 0x20 DUP3 ADD SWAP1 POP DUP2 DUP2 SUB PUSH1 0x0 DUP4 ADD MSTORE PUSH2 0x3930 DUP2 PUSH2 0x38F4 JUMP JUMPDEST SWAP1 POP SWAP2 SWAP1 POP JUMP JUMPDEST PUSH32 0x496E76616C69642070657263656E746167650000000000000000000000000000 PUSH1 0x0 DUP3 ADD MSTORE POP JUMP JUMPDEST PUSH1 0x0 PUSH2 0x396D PUSH1 0x12 DUP4 PUSH2 0x27BE JUMP JUMPDEST SWAP2 POP PUSH2 0x3978 DUP3 PUSH2 0x3937 JUMP JUMPDEST PUSH1 0x20 DUP3 ADD SWAP1 POP SWAP2 SWAP1 POP JUMP JUMPDEST PUSH1 0x0 PUSH1 0x20 DUP3 ADD SWAP1 POP DUP2 DUP2 SUB PUSH1 0x0 DUP4 ADD MSTORE PUSH2 0x399C DUP2 PUSH2 0x3960 JUMP JUMPDEST SWAP1 POP SWAP2 SWAP1 POP JUMP JUMPDEST PUSH32 0x4D696E696D756D20746F6B656E206C696D6974206D7573742062652067726561 PUSH1 0x0 DUP3 ADD MSTORE PUSH32 0x746572207468616E207A65726F00000000000000000000000000000000000000 PUSH1 0x20 DUP3 ADD MSTORE POP JUMP JUMPDEST PUSH1 0x0 PUSH2 0x39FF PUSH1 0x2D DUP4 PUSH2 0x27BE JUMP JUMPDEST SWAP2 POP PUSH2 0x3A0A DUP3 PUSH2 0x39A3 JUMP JUMPDEST PUSH1 0x40 DUP3 ADD SWAP1 POP SWAP2 SWAP1 POP JUMP JUMPDEST PUSH1 0x0 PUSH1 0x20 DUP3 ADD SWAP1 POP DUP2 DUP2 SUB PUSH1 0x0 DUP4 ADD MSTORE PUSH2 0x3A2E DUP2 PUSH2 0x39F2 JUMP JUMPDEST SWAP1 POP SWAP2 SWAP1 POP JUMP JUMPDEST PUSH32 0x4D6178696D756D20746F6B656E206C696D6974206D7573742062652067726561 PUSH1 0x0 DUP3 ADD MSTORE PUSH32 0x746572207468616E206D696E696D756D00000000000000000000000000000000 PUSH1 0x20 DUP3 ADD MSTORE POP JUMP JUMPDEST PUSH1 0x0 PUSH2 0x3A91 PUSH1 0x30 DUP4 PUSH2 0x27BE JUMP JUMPDEST SWAP2 POP PUSH2 0x3A9C DUP3 PUSH2 0x3A35 JUMP JUMPDEST PUSH1 0x40 DUP3 ADD SWAP1 POP SWAP2 SWAP1 POP JUMP JUMPDEST PUSH1 0x0 PUSH1 0x20 DUP3 ADD SWAP1 POP DUP2 DUP2 SUB PUSH1 0x0 DUP4 ADD MSTORE PUSH2 0x3AC0 DUP2 PUSH2 0x3A84 JUMP JUMPDEST SWAP1 POP SWAP2 SWAP1 POP JUMP JUMPDEST PUSH32 0x41646472657373206E6F7420696E2077686974656C6973740000000000000000 PUSH1 0x0 DUP3 ADD MSTORE POP JUMP JUMPDEST PUSH1 0x0 PUSH2 0x3AFD PUSH1 0x18 DUP4 PUSH2 0x27BE JUMP JUMPDEST SWAP2 POP PUSH2 0x3B08 DUP3 PUSH2 0x3AC7 JUMP JUMPDEST PUSH1 0x20 DUP3 ADD SWAP1 POP SWAP2 SWAP1 POP JUMP JUMPDEST PUSH1 0x0 PUSH1 0x20 DUP3 ADD SWAP1 POP DUP2 DUP2 SUB PUSH1 0x0 DUP4 ADD MSTORE PUSH2 0x3B2C DUP2 PUSH2 0x3AF0 JUMP JUMPDEST SWAP1 POP SWAP2 SWAP1 POP JUMP JUMPDEST PUSH32 0x4E6F20746F6B656E7320746F2077697468647261770000000000000000000000 PUSH1 0x0 DUP3 ADD MSTORE POP JUMP JUMPDEST PUSH1 0x0 PUSH2 0x3B69 PUSH1 0x15 DUP4 PUSH2 0x27BE JUMP JUMPDEST SWAP2 POP PUSH2 0x3B74 DUP3 PUSH2 0x3B33 JUMP JUMPDEST PUSH1 0x20 DUP3 ADD SWAP1 POP SWAP2 SWAP1 POP JUMP JUMPDEST PUSH1 0x0 PUSH1 0x20 DUP3 ADD SWAP1 POP DUP2 DUP2 SUB PUSH1 0x0 DUP4 ADD MSTORE PUSH2 0x3B98 DUP2 PUSH2 0x3B5C JUMP JUMPDEST SWAP1 POP SWAP2 SWAP1 POP JUMP JUMPDEST PUSH32 0x507269766174652053616C6520686173206E6F7420737461727465642E000000 PUSH1 0x0 DUP3 ADD MSTORE POP JUMP JUMPDEST PUSH1 0x0 PUSH2 0x3BD5 PUSH1 0x1D DUP4 PUSH2 0x27BE JUMP JUMPDEST SWAP2 POP PUSH2 0x3BE0 DUP3 PUSH2 0x3B9F JUMP JUMPDEST PUSH1 0x20 DUP3 ADD SWAP1 POP SWAP2 SWAP1 POP JUMP JUMPDEST PUSH1 0x0 PUSH1 0x20 DUP3 ADD SWAP1 POP DUP2 DUP2 SUB PUSH1 0x0 DUP4 ADD MSTORE PUSH2 0x3C04 DUP2 PUSH2 0x3BC8 JUMP JUMPDEST SWAP1 POP SWAP2 SWAP1 POP JUMP JUMPDEST PUSH32 0x507269766174652053616C6520616C7265616479206163746976650000000000 PUSH1 0x0 DUP3 ADD MSTORE POP JUMP JUMPDEST PUSH1 0x0 PUSH2 0x3C41 PUSH1 0x1B DUP4 PUSH2 0x27BE JUMP JUMPDEST SWAP2 POP PUSH2 0x3C4C DUP3 PUSH2 0x3C0B JUMP JUMPDEST PUSH1 0x20 DUP3 ADD SWAP1 POP SWAP2 SWAP1 POP JUMP JUMPDEST PUSH1 0x0 PUSH1 0x20 DUP3 ADD SWAP1 POP DUP2 DUP2 SUB PUSH1 0x0 DUP4 ADD MSTORE PUSH2 0x3C70 DUP2 PUSH2 0x3C34 JUMP JUMPDEST SWAP1 POP SWAP2 SWAP1 POP JUMP JUMPDEST PUSH32 0x4E6F2045544820746F2077697468647261770000000000000000000000000000 PUSH1 0x0 DUP3 ADD MSTORE POP JUMP JUMPDEST PUSH1 0x0 PUSH2 0x3CAD PUSH1 0x12 DUP4 PUSH2 0x27BE JUMP JUMPDEST SWAP2 POP PUSH2 0x3CB8 DUP3 PUSH2 0x3C77 JUMP JUMPDEST PUSH1 0x20 DUP3 ADD SWAP1 POP SWAP2 SWAP1 POP JUMP JUMPDEST PUSH1 0x0 PUSH1 0x20 DUP3 ADD SWAP1 POP DUP2 DUP2 SUB PUSH1 0x0 DUP4 ADD MSTORE PUSH2 0x3CDC DUP2 PUSH2 0x3CA0 JUMP JUMPDEST SWAP1 POP SWAP2 SWAP1 POP JUMP JUMPDEST PUSH1 0x0 DUP2 SWAP1 POP SWAP3 SWAP2 POP POP JUMP JUMPDEST POP JUMP JUMPDEST PUSH1 0x0 PUSH2 0x3CFE PUSH1 0x0 DUP4 PUSH2 0x3CE3 JUMP JUMPDEST SWAP2 POP PUSH2 0x3D09 DUP3 PUSH2 0x3CEE JUMP JUMPDEST PUSH1 0x0 DUP3 ADD SWAP1 POP SWAP2 SWAP1 POP JUMP JUMPDEST PUSH1 0x0 PUSH2 0x3D1F DUP3 PUSH2 0x3CF1 JUMP JUMPDEST SWAP2 POP DUP2 SWAP1 POP SWAP2 SWAP1 POP JUMP JUMPDEST PUSH32 0x5472616E73666572206661696C65640000000000000000000000000000000000 PUSH1 0x0 DUP3 ADD MSTORE POP JUMP JUMPDEST PUSH1 0x0 PUSH2 0x3D5F PUSH1 0xF DUP4 PUSH2 0x27BE JUMP JUMPDEST SWAP2 POP PUSH2 0x3D6A DUP3 PUSH2 0x3D29 JUMP JUMPDEST PUSH1 0x20 DUP3 ADD SWAP1 POP SWAP2 SWAP1 POP JUMP JUMPDEST PUSH1 0x0 PUSH1 0x20 DUP3 ADD SWAP1 POP DUP2 DUP2 SUB PUSH1 0x0 DUP4 ADD MSTORE PUSH2 0x3D8E DUP2 PUSH2 0x3D52 JUMP JUMPDEST SWAP1 POP SWAP2 SWAP1 POP JUMP JUMPDEST PUSH1 0x0 PUSH1 0x60 DUP3 ADD SWAP1 POP PUSH2 0x3DAA PUSH1 0x0 DUP4 ADD DUP7 PUSH2 0x2B57 JUMP JUMPDEST PUSH2 0x3DB7 PUSH1 0x20 DUP4 ADD DUP6 PUSH2 0x2911 JUMP JUMPDEST PUSH2 0x3DC4 PUSH1 0x40 DUP4 ADD DUP5 PUSH2 0x2911 JUMP JUMPDEST SWAP5 SWAP4 POP POP POP POP JUMP JUMPDEST PUSH32 0x5265656E7472616E637947756172643A207265656E7472616E742063616C6C00 PUSH1 0x0 DUP3 ADD MSTORE POP JUMP JUMPDEST PUSH1 0x0 PUSH2 0x3E02 PUSH1 0x1F DUP4 PUSH2 0x27BE JUMP JUMPDEST SWAP2 POP PUSH2 0x3E0D DUP3 PUSH2 0x3DCC JUMP JUMPDEST PUSH1 0x20 DUP3 ADD SWAP1 POP SWAP2 SWAP1 POP JUMP JUMPDEST PUSH1 0x0 PUSH1 0x20 DUP3 ADD SWAP1 POP DUP2 DUP2 SUB PUSH1 0x0 DUP4 ADD MSTORE PUSH2 0x3E31 DUP2 PUSH2 0x3DF5 JUMP JUMPDEST SWAP1 POP SWAP2 SWAP1 POP JUMP JUMPDEST PUSH32 0x5061757361626C653A2070617573656400000000000000000000000000000000 PUSH1 0x0 DUP3 ADD MSTORE POP JUMP JUMPDEST PUSH1 0x0 PUSH2 0x3E6E PUSH1 0x10 DUP4 PUSH2 0x27BE JUMP JUMPDEST SWAP2 POP PUSH2 0x3E79 DUP3 PUSH2 0x3E38 JUMP JUMPDEST PUSH1 0x20 DUP3 ADD SWAP1 POP SWAP2 SWAP1 POP JUMP JUMPDEST PUSH1 0x0 PUSH1 0x20 DUP3 ADD SWAP1 POP DUP2 DUP2 SUB PUSH1 0x0 DUP4 ADD MSTORE PUSH2 0x3E9D DUP2 PUSH2 0x3E61 JUMP JUMPDEST SWAP1 POP SWAP2 SWAP1 POP JUMP INVALID LOG2 PUSH5 0x6970667358 0x22 SLT KECCAK256 0xE5 DUP1 DUP6 0xF 0x4B DUP13 DELEGATECALL ADDMOD SDIV SLT 0xC8 CREATE PUSH22 0xD970D5B437418BF21C43B836C5D4CDA377A58964736F PUSH13 0x634300081A0033000000000000 "
				},
				"gasEstimates": {
					"creation": {
						"codeDepositCost": "3218000",
						"executionCost": "infinite",
						"totalCost": "infinite"
					},
					"external": {
						"TOTAL_SUPPLY()": "397",
						"addAffiliate(address,string)": "infinite",
						"addToWhitelist(address)": "infinite",
						"affiliateCodes(string)": "infinite",
						"affiliateRewardPercentage()": "1262",
						"allowance(address,address)": "infinite",
						"approve(address,uint256)": "infinite",
						"balanceOf(address)": "1586",
						"buyTokens(uint256,string)": "infinite",
						"calculateTokens(uint256)": "infinite",
						"decimals()": "433",
						"endPrivateSale()": "infinite",
						"getPrivateSaleStartTime()": "2102",
						"maxTokensPerTransactionPrivateSale()": "1175",
						"maxTokensPerUser()": "1239",
						"minTokensPerUserPrivateSale()": "1174",
						"minimumUsdAmount()": "1219",
						"name()": "infinite",
						"owner()": "1268",
						"paused()": "1269",
						"privateSaleActive()": "1239",
						"privateSaleEndPrice()": "1218",
						"privateSaleSoldTokens()": "1241",
						"privateSaleStartPrice()": "1284",
						"privateSaleStartTime()": "1263",
						"privateSaleTokens()": "1240",
						"releaseVestedTokens()": "infinite",
						"removeFromWhitelist(address)": "infinite",
						"renounceOwnership()": "infinite",
						"setAffiliateRewardPercentage(uint256)": "infinite",
						"setPrivateSaleTokenLimits(uint256,uint256)": "infinite",
						"stakeDuration()": "1263",
						"startPrivateSale(uint256)": "infinite",
						"symbol()": "infinite",
						"totalSupply()": "1272",
						"transfer(address,uint256)": "infinite",
						"transferFrom(address,address,uint256)": "infinite",
						"transferOwnership(address)": "infinite",
						"userToAffiliateCode(address)": "infinite",
						"vestingDuration()": "1242",
						"vestingInterval()": "1196",
						"vestingSchedules(address)": "infinite",
						"whitelist(address)": "1612",
						"withdrawETH()": "infinite",
						"withdrawTokens()": "infinite"
					},
					"internal": {
						"createVestingSchedule(address,uint256,uint256,uint256,uint256)": "infinite"
					}
				},
				"methodIdentifiers": {
					"TOTAL_SUPPLY()": "902d55a5",
					"addAffiliate(address,string)": "503ad00e",
					"addToWhitelist(address)": "e43252d7",
					"affiliateCodes(string)": "abfcfcf3",
					"affiliateRewardPercentage()": "d50234c4",
					"allowance(address,address)": "dd62ed3e",
					"approve(address,uint256)": "095ea7b3",
					"balanceOf(address)": "70a08231",
					"buyTokens(uint256,string)": "33caa27f",
					"calculateTokens(uint256)": "71aa60fd",
					"decimals()": "313ce567",
					"endPrivateSale()": "e6a23c3d",
					"getPrivateSaleStartTime()": "9357c239",
					"maxTokensPerTransactionPrivateSale()": "516e3e15",
					"maxTokensPerUser()": "ee43d43e",
					"minTokensPerUserPrivateSale()": "b785a6e7",
					"minimumUsdAmount()": "91500aff",
					"name()": "06fdde03",
					"owner()": "8da5cb5b",
					"paused()": "5c975abb",
					"privateSaleActive()": "2a237bb6",
					"privateSaleEndPrice()": "bda95633",
					"privateSaleSoldTokens()": "5fb3b944",
					"privateSaleStartPrice()": "b0e68630",
					"privateSaleStartTime()": "940de97e",
					"privateSaleTokens()": "c552e04b",
					"releaseVestedTokens()": "54dd1da4",
					"removeFromWhitelist(address)": "8ab1d681",
					"renounceOwnership()": "715018a6",
					"setAffiliateRewardPercentage(uint256)": "6c6218ae",
					"setPrivateSaleTokenLimits(uint256,uint256)": "77fff102",
					"stakeDuration()": "40f02ab6",
					"startPrivateSale(uint256)": "a089de2f",
					"symbol()": "95d89b41",
					"totalSupply()": "18160ddd",
					"transfer(address,uint256)": "a9059cbb",
					"transferFrom(address,address,uint256)": "23b872dd",
					"transferOwnership(address)": "f2fde38b",
					"userToAffiliateCode(address)": "034c0cf7",
					"vestingDuration()": "1514617e",
					"vestingInterval()": "b8e50cab",
					"vestingSchedules(address)": "fdb20ccb",
					"whitelist(address)": "9b19251a",
					"withdrawETH()": "e086e5ec",
					"withdrawTokens()": "8d8f2adb"
				}
			},
			"storageLayout": {
				"storage": [
					{
						"astId": 480,
						"contract": "contracts/bet.sol:Bettoken",
						"label": "_balances",
						"offset": 0,
						"slot": "0",
						"type": "t_mapping(t_address,t_uint256)"
					},
					{
						"astId": 486,
						"contract": "contracts/bet.sol:Bettoken",
						"label": "_allowances",
						"offset": 0,
						"slot": "1",
						"type": "t_mapping(t_address,t_mapping(t_address,t_uint256))"
					},
					{
						"astId": 488,
						"contract": "contracts/bet.sol:Bettoken",
						"label": "_totalSupply",
						"offset": 0,
						"slot": "2",
						"type": "t_uint256"
					},
					{
						"astId": 490,
						"contract": "contracts/bet.sol:Bettoken",
						"label": "_name",
						"offset": 0,
						"slot": "3",
						"type": "t_string_storage"
					},
					{
						"astId": 492,
						"contract": "contracts/bet.sol:Bettoken",
						"label": "_symbol",
						"offset": 0,
						"slot": "4",
						"type": "t_string_storage"
					},
					{
						"astId": 8,
						"contract": "contracts/bet.sol:Bettoken",
						"label": "_owner",
						"offset": 0,
						"slot": "5",
						"type": "t_address"
					},
					{
						"astId": 403,
						"contract": "contracts/bet.sol:Bettoken",
						"label": "_status",
						"offset": 0,
						"slot": "6",
						"type": "t_uint256"
					},
					{
						"astId": 302,
						"contract": "contracts/bet.sol:Bettoken",
						"label": "_paused",
						"offset": 0,
						"slot": "7",
						"type": "t_bool"
					},
					{
						"astId": 1134,
						"contract": "contracts/bet.sol:Bettoken",
						"label": "privateSaleTokens",
						"offset": 0,
						"slot": "8",
						"type": "t_uint256"
					},
					{
						"astId": 1141,
						"contract": "contracts/bet.sol:Bettoken",
						"label": "privateSaleStartPrice",
						"offset": 0,
						"slot": "9",
						"type": "t_uint256"
					},
					{
						"astId": 1148,
						"contract": "contracts/bet.sol:Bettoken",
						"label": "privateSaleEndPrice",
						"offset": 0,
						"slot": "10",
						"type": "t_uint256"
					},
					{
						"astId": 1151,
						"contract": "contracts/bet.sol:Bettoken",
						"label": "privateSaleSoldTokens",
						"offset": 0,
						"slot": "11",
						"type": "t_uint256"
					},
					{
						"astId": 1153,
						"contract": "contracts/bet.sol:Bettoken",
						"label": "privateSaleStartTime",
						"offset": 0,
						"slot": "12",
						"type": "t_uint256"
					},
					{
						"astId": 1160,
						"contract": "contracts/bet.sol:Bettoken",
						"label": "maxTokensPerUser",
						"offset": 0,
						"slot": "13",
						"type": "t_uint256"
					},
					{
						"astId": 1167,
						"contract": "contracts/bet.sol:Bettoken",
						"label": "minimumUsdAmount",
						"offset": 0,
						"slot": "14",
						"type": "t_uint256"
					},
					{
						"astId": 1174,
						"contract": "contracts/bet.sol:Bettoken",
						"label": "minTokensPerUserPrivateSale",
						"offset": 0,
						"slot": "15",
						"type": "t_uint256"
					},
					{
						"astId": 1181,
						"contract": "contracts/bet.sol:Bettoken",
						"label": "maxTokensPerTransactionPrivateSale",
						"offset": 0,
						"slot": "16",
						"type": "t_uint256"
					},
					{
						"astId": 1184,
						"contract": "contracts/bet.sol:Bettoken",
						"label": "stakeDuration",
						"offset": 0,
						"slot": "17",
						"type": "t_uint256"
					},
					{
						"astId": 1187,
						"contract": "contracts/bet.sol:Bettoken",
						"label": "vestingDuration",
						"offset": 0,
						"slot": "18",
						"type": "t_uint256"
					},
					{
						"astId": 1190,
						"contract": "contracts/bet.sol:Bettoken",
						"label": "vestingInterval",
						"offset": 0,
						"slot": "19",
						"type": "t_uint256"
					},
					{
						"astId": 1206,
						"contract": "contracts/bet.sol:Bettoken",
						"label": "vestingSchedules",
						"offset": 0,
						"slot": "20",
						"type": "t_mapping(t_address,t_struct(VestingSchedule)1201_storage)"
					},
					{
						"astId": 1210,
						"contract": "contracts/bet.sol:Bettoken",
						"label": "whitelist",
						"offset": 0,
						"slot": "21",
						"type": "t_mapping(t_address,t_bool)"
					},
					{
						"astId": 1214,
						"contract": "contracts/bet.sol:Bettoken",
						"label": "userToAffiliateCode",
						"offset": 0,
						"slot": "22",
						"type": "t_mapping(t_address,t_string_storage)"
					},
					{
						"astId": 1218,
						"contract": "contracts/bet.sol:Bettoken",
						"label": "affiliateCodes",
						"offset": 0,
						"slot": "23",
						"type": "t_mapping(t_string_memory_ptr,t_address)"
					},
					{
						"astId": 1221,
						"contract": "contracts/bet.sol:Bettoken",
						"label": "affiliateRewardPercentage",
						"offset": 0,
						"slot": "24",
						"type": "t_uint256"
					},
					{
						"astId": 1224,
						"contract": "contracts/bet.sol:Bettoken",
						"label": "privateSaleActive",
						"offset": 0,
						"slot": "25",
						"type": "t_bool"
					}
				],
				"types": {
					"t_address": {
						"encoding": "inplace",
						"label": "address",
						"numberOfBytes": "20"
					},
					"t_bool": {
						"encoding": "inplace",
						"label": "bool",
						"numberOfBytes": "1"
					},
					"t_mapping(t_address,t_bool)": {
						"encoding": "mapping",
						"key": "t_address",
						"label": "mapping(address => bool)",
						"numberOfBytes": "32",
						"value": "t_bool"
					},
					"t_mapping(t_address,t_mapping(t_address,t_uint256))": {
						"encoding": "mapping",
						"key": "t_address",
						"label": "mapping(address => mapping(address => uint256))",
						"numberOfBytes": "32",
						"value": "t_mapping(t_address,t_uint256)"
					},
					"t_mapping(t_address,t_string_storage)": {
						"encoding": "mapping",
						"key": "t_address",
						"label": "mapping(address => string)",
						"numberOfBytes": "32",
						"value": "t_string_storage"
					},
					"t_mapping(t_address,t_struct(VestingSchedule)1201_storage)": {
						"encoding": "mapping",
						"key": "t_address",
						"label": "mapping(address => struct Bettoken.VestingSchedule)",
						"numberOfBytes": "32",
						"value": "t_struct(VestingSchedule)1201_storage"
					},
					"t_mapping(t_address,t_uint256)": {
						"encoding": "mapping",
						"key": "t_address",
						"label": "mapping(address => uint256)",
						"numberOfBytes": "32",
						"value": "t_uint256"
					},
					"t_mapping(t_string_memory_ptr,t_address)": {
						"encoding": "mapping",
						"key": "t_string_memory_ptr",
						"label": "mapping(string => address)",
						"numberOfBytes": "32",
						"value": "t_address"
					},
					"t_string_memory_ptr": {
						"encoding": "bytes",
						"label": "string",
						"numberOfBytes": "32"
					},
					"t_string_storage": {
						"encoding": "bytes",
						"label": "string",
						"numberOfBytes": "32"
					},
					"t_struct(VestingSchedule)1201_storage": {
						"encoding": "inplace",
						"label": "struct Bettoken.VestingSchedule",
						"members": [
							{
								"astId": 1192,
								"contract": "contracts/bet.sol:Bettoken",
								"label": "totalAmount",
								"offset": 0,
								"slot": "0",
								"type": "t_uint256"
							},
							{
								"astId": 1194,
								"contract": "contracts/bet.sol:Bettoken",
								"label": "releasedAmount",
								"offset": 0,
								"slot": "1",
								"type": "t_uint256"
							},
							{
								"astId": 1196,
								"contract": "contracts/bet.sol:Bettoken",
								"label": "startTime",
								"offset": 0,
								"slot": "2",
								"type": "t_uint256"
							},
							{
								"astId": 1198,
								"contract": "contracts/bet.sol:Bettoken",
								"label": "duration",
								"offset": 0,
								"slot": "3",
								"type": "t_uint256"
							},
							{
								"astId": 1200,
								"contract": "contracts/bet.sol:Bettoken",
								"label": "interval",
								"offset": 0,
								"slot": "4",
								"type": "t_uint256"
							}
						],
						"numberOfBytes": "160"
					},
					"t_uint256": {
						"encoding": "inplace",
						"label": "uint256",
						"numberOfBytes": "32"
					}
				}
			},
			"userdoc": {
				"kind": "user",
				"methods": {},
				"version": 1
			}
		}
	}
}