{
	"contracts/bettoken.sol": {
		"Bettoken": {
			"abi": [
				{
					"inputs": [
						{
							"internalType": "address",
							"name": "_priceOracle",
							"type": "address"
						}
					],
					"stateMutability": "nonpayable",
					"type": "constructor"
				},
				{
					"inputs": [
						{
							"internalType": "address",
							"name": "spender",
							"type": "address"
						},
						{
							"internalType": "uint256",
							"name": "allowance",
							"type": "uint256"
						},
						{
							"internalType": "uint256",
							"name": "needed",
							"type": "uint256"
						}
					],
					"name": "ERC20InsufficientAllowance",
					"type": "error"
				},
				{
					"inputs": [
						{
							"internalType": "address",
							"name": "sender",
							"type": "address"
						},
						{
							"internalType": "uint256",
							"name": "balance",
							"type": "uint256"
						},
						{
							"internalType": "uint256",
							"name": "needed",
							"type": "uint256"
						}
					],
					"name": "ERC20InsufficientBalance",
					"type": "error"
				},
				{
					"inputs": [
						{
							"internalType": "address",
							"name": "approver",
							"type": "address"
						}
					],
					"name": "ERC20InvalidApprover",
					"type": "error"
				},
				{
					"inputs": [
						{
							"internalType": "address",
							"name": "receiver",
							"type": "address"
						}
					],
					"name": "ERC20InvalidReceiver",
					"type": "error"
				},
				{
					"inputs": [
						{
							"internalType": "address",
							"name": "sender",
							"type": "address"
						}
					],
					"name": "ERC20InvalidSender",
					"type": "error"
				},
				{
					"inputs": [
						{
							"internalType": "address",
							"name": "spender",
							"type": "address"
						}
					],
					"name": "ERC20InvalidSpender",
					"type": "error"
				},
				{
					"inputs": [
						{
							"internalType": "address",
							"name": "owner",
							"type": "address"
						}
					],
					"name": "OwnableInvalidOwner",
					"type": "error"
				},
				{
					"inputs": [
						{
							"internalType": "address",
							"name": "account",
							"type": "address"
						}
					],
					"name": "OwnableUnauthorizedAccount",
					"type": "error"
				},
				{
					"anonymous": false,
					"inputs": [
						{
							"indexed": true,
							"internalType": "address",
							"name": "owner",
							"type": "address"
						},
						{
							"indexed": true,
							"internalType": "address",
							"name": "spender",
							"type": "address"
						},
						{
							"indexed": false,
							"internalType": "uint256",
							"name": "value",
							"type": "uint256"
						}
					],
					"name": "Approval",
					"type": "event"
				},
				{
					"anonymous": false,
					"inputs": [
						{
							"indexed": true,
							"internalType": "address",
							"name": "previousOwner",
							"type": "address"
						},
						{
							"indexed": true,
							"internalType": "address",
							"name": "newOwner",
							"type": "address"
						}
					],
					"name": "OwnershipTransferred",
					"type": "event"
				},
				{
					"anonymous": false,
					"inputs": [
						{
							"indexed": true,
							"internalType": "address",
							"name": "buyer",
							"type": "address"
						},
						{
							"indexed": false,
							"internalType": "uint256",
							"name": "amount",
							"type": "uint256"
						}
					],
					"name": "PreSale",
					"type": "event"
				},
				{
					"anonymous": false,
					"inputs": [
						{
							"indexed": true,
							"internalType": "address",
							"name": "buyer",
							"type": "address"
						},
						{
							"indexed": false,
							"internalType": "uint256",
							"name": "amount",
							"type": "uint256"
						}
					],
					"name": "PrivateSale",
					"type": "event"
				},
				{
					"anonymous": false,
					"inputs": [
						{
							"indexed": true,
							"internalType": "address",
							"name": "staker",
							"type": "address"
						},
						{
							"indexed": false,
							"internalType": "uint256",
							"name": "amount",
							"type": "uint256"
						},
						{
							"indexed": false,
							"internalType": "uint256",
							"name": "releaseTime",
							"type": "uint256"
						}
					],
					"name": "TokensStaked",
					"type": "event"
				},
				{
					"anonymous": false,
					"inputs": [
						{
							"indexed": true,
							"internalType": "address",
							"name": "from",
							"type": "address"
						},
						{
							"indexed": true,
							"internalType": "address",
							"name": "to",
							"type": "address"
						},
						{
							"indexed": false,
							"internalType": "uint256",
							"name": "value",
							"type": "uint256"
						}
					],
					"name": "Transfer",
					"type": "event"
				},
				{
					"anonymous": false,
					"inputs": [
						{
							"indexed": true,
							"internalType": "address",
							"name": "beneficiary",
							"type": "address"
						},
						{
							"indexed": false,
							"internalType": "uint256",
							"name": "amount",
							"type": "uint256"
						}
					],
					"name": "VestedTokensReleased",
					"type": "event"
				},
				{
					"stateMutability": "payable",
					"type": "fallback"
				},
				{
					"inputs": [],
					"name": "TOTAL_SUPPLY",
					"outputs": [
						{
							"internalType": "uint256",
							"name": "",
							"type": "uint256"
						}
					],
					"stateMutability": "view",
					"type": "function"
				},
				{
					"inputs": [
						{
							"internalType": "address",
							"name": "owner",
							"type": "address"
						},
						{
							"internalType": "address",
							"name": "spender",
							"type": "address"
						}
					],
					"name": "allowance",
					"outputs": [
						{
							"internalType": "uint256",
							"name": "",
							"type": "uint256"
						}
					],
					"stateMutability": "view",
					"type": "function"
				},
				{
					"inputs": [
						{
							"internalType": "address",
							"name": "spender",
							"type": "address"
						},
						{
							"internalType": "uint256",
							"name": "value",
							"type": "uint256"
						}
					],
					"name": "approve",
					"outputs": [
						{
							"internalType": "bool",
							"name": "",
							"type": "bool"
						}
					],
					"stateMutability": "nonpayable",
					"type": "function"
				},
				{
					"inputs": [
						{
							"internalType": "address",
							"name": "account",
							"type": "address"
						}
					],
					"name": "balanceOf",
					"outputs": [
						{
							"internalType": "uint256",
							"name": "",
							"type": "uint256"
						}
					],
					"stateMutability": "view",
					"type": "function"
				},
				{
					"inputs": [
						{
							"internalType": "uint256",
							"name": "usdAmount",
							"type": "uint256"
						}
					],
					"name": "buyTokens",
					"outputs": [],
					"stateMutability": "payable",
					"type": "function"
				},
				{
					"inputs": [],
					"name": "decimals",
					"outputs": [
						{
							"internalType": "uint8",
							"name": "",
							"type": "uint8"
						}
					],
					"stateMutability": "view",
					"type": "function"
				},
				{
					"inputs": [],
					"name": "haltSales",
					"outputs": [],
					"stateMutability": "nonpayable",
					"type": "function"
				},
				{
					"inputs": [],
					"name": "name",
					"outputs": [
						{
							"internalType": "string",
							"name": "",
							"type": "string"
						}
					],
					"stateMutability": "view",
					"type": "function"
				},
				{
					"inputs": [],
					"name": "owner",
					"outputs": [
						{
							"internalType": "address",
							"name": "",
							"type": "address"
						}
					],
					"stateMutability": "view",
					"type": "function"
				},
				{
					"inputs": [],
					"name": "preSaleEndPrice",
					"outputs": [
						{
							"internalType": "uint256",
							"name": "",
							"type": "uint256"
						}
					],
					"stateMutability": "view",
					"type": "function"
				},
				{
					"inputs": [],
					"name": "preSaleSoldTokens",
					"outputs": [
						{
							"internalType": "uint256",
							"name": "",
							"type": "uint256"
						}
					],
					"stateMutability": "view",
					"type": "function"
				},
				{
					"inputs": [],
					"name": "preSaleStartPrice",
					"outputs": [
						{
							"internalType": "uint256",
							"name": "",
							"type": "uint256"
						}
					],
					"stateMutability": "view",
					"type": "function"
				},
				{
					"inputs": [],
					"name": "preSaleTarget",
					"outputs": [
						{
							"internalType": "uint256",
							"name": "",
							"type": "uint256"
						}
					],
					"stateMutability": "view",
					"type": "function"
				},
				{
					"inputs": [],
					"name": "preSaleTokens",
					"outputs": [
						{
							"internalType": "uint256",
							"name": "",
							"type": "uint256"
						}
					],
					"stateMutability": "view",
					"type": "function"
				},
				{
					"inputs": [],
					"name": "priceOracle",
					"outputs": [
						{
							"internalType": "contract IPriceOracle",
							"name": "",
							"type": "address"
						}
					],
					"stateMutability": "view",
					"type": "function"
				},
				{
					"inputs": [],
					"name": "privateSaleEndPrice",
					"outputs": [
						{
							"internalType": "uint256",
							"name": "",
							"type": "uint256"
						}
					],
					"stateMutability": "view",
					"type": "function"
				},
				{
					"inputs": [],
					"name": "privateSaleSoldTokens",
					"outputs": [
						{
							"internalType": "uint256",
							"name": "",
							"type": "uint256"
						}
					],
					"stateMutability": "view",
					"type": "function"
				},
				{
					"inputs": [],
					"name": "privateSaleStartPrice",
					"outputs": [
						{
							"internalType": "uint256",
							"name": "",
							"type": "uint256"
						}
					],
					"stateMutability": "view",
					"type": "function"
				},
				{
					"inputs": [],
					"name": "privateSaleTarget",
					"outputs": [
						{
							"internalType": "uint256",
							"name": "",
							"type": "uint256"
						}
					],
					"stateMutability": "view",
					"type": "function"
				},
				{
					"inputs": [],
					"name": "privateSaleTokens",
					"outputs": [
						{
							"internalType": "uint256",
							"name": "",
							"type": "uint256"
						}
					],
					"stateMutability": "view",
					"type": "function"
				},
				{
					"inputs": [],
					"name": "releaseVestedTokens",
					"outputs": [],
					"stateMutability": "nonpayable",
					"type": "function"
				},
				{
					"inputs": [],
					"name": "renounceOwnership",
					"outputs": [],
					"stateMutability": "nonpayable",
					"type": "function"
				},
				{
					"inputs": [],
					"name": "stage",
					"outputs": [
						{
							"internalType": "enum Bettoken.SaleStage",
							"name": "",
							"type": "uint8"
						}
					],
					"stateMutability": "view",
					"type": "function"
				},
				{
					"inputs": [],
					"name": "stakeDuration",
					"outputs": [
						{
							"internalType": "uint256",
							"name": "",
							"type": "uint256"
						}
					],
					"stateMutability": "view",
					"type": "function"
				},
				{
					"inputs": [
						{
							"internalType": "uint256",
							"name": "amount",
							"type": "uint256"
						}
					],
					"name": "stakeTokens",
					"outputs": [],
					"stateMutability": "nonpayable",
					"type": "function"
				},
				{
					"inputs": [],
					"name": "startPreSale",
					"outputs": [],
					"stateMutability": "nonpayable",
					"type": "function"
				},
				{
					"inputs": [],
					"name": "startPrivateSale",
					"outputs": [],
					"stateMutability": "nonpayable",
					"type": "function"
				},
				{
					"inputs": [],
					"name": "symbol",
					"outputs": [
						{
							"internalType": "string",
							"name": "",
							"type": "string"
						}
					],
					"stateMutability": "view",
					"type": "function"
				},
				{
					"inputs": [],
					"name": "totalSupply",
					"outputs": [
						{
							"internalType": "uint256",
							"name": "",
							"type": "uint256"
						}
					],
					"stateMutability": "view",
					"type": "function"
				},
				{
					"inputs": [
						{
							"internalType": "address",
							"name": "to",
							"type": "address"
						},
						{
							"internalType": "uint256",
							"name": "value",
							"type": "uint256"
						}
					],
					"name": "transfer",
					"outputs": [
						{
							"internalType": "bool",
							"name": "",
							"type": "bool"
						}
					],
					"stateMutability": "nonpayable",
					"type": "function"
				},
				{
					"inputs": [
						{
							"internalType": "address",
							"name": "from",
							"type": "address"
						},
						{
							"internalType": "address",
							"name": "to",
							"type": "address"
						},
						{
							"internalType": "uint256",
							"name": "value",
							"type": "uint256"
						}
					],
					"name": "transferFrom",
					"outputs": [
						{
							"internalType": "bool",
							"name": "",
							"type": "bool"
						}
					],
					"stateMutability": "nonpayable",
					"type": "function"
				},
				{
					"inputs": [
						{
							"internalType": "address",
							"name": "newOwner",
							"type": "address"
						}
					],
					"name": "transferOwnership",
					"outputs": [],
					"stateMutability": "nonpayable",
					"type": "function"
				},
				{
					"inputs": [
						{
							"internalType": "address",
							"name": "",
							"type": "address"
						}
					],
					"name": "vestingBalance",
					"outputs": [
						{
							"internalType": "uint256",
							"name": "",
							"type": "uint256"
						}
					],
					"stateMutability": "view",
					"type": "function"
				},
				{
					"inputs": [],
					"name": "vestingDuration",
					"outputs": [
						{
							"internalType": "uint256",
							"name": "",
							"type": "uint256"
						}
					],
					"stateMutability": "view",
					"type": "function"
				},
				{
					"inputs": [
						{
							"internalType": "address",
							"name": "",
							"type": "address"
						}
					],
					"name": "vestingReleaseTime",
					"outputs": [
						{
							"internalType": "uint256",
							"name": "",
							"type": "uint256"
						}
					],
					"stateMutability": "view",
					"type": "function"
				},
				{
					"inputs": [],
					"name": "withdrawFunds",
					"outputs": [],
					"stateMutability": "nonpayable",
					"type": "function"
				},
				{
					"stateMutability": "payable",
					"type": "receive"
				}
			],
			"devdoc": {
				"errors": {
					"ERC20InsufficientAllowance(address,uint256,uint256)": [
						{
							"details": "Indicates a failure with the `spender`’s `allowance`. Used in transfers.",
							"params": {
								"allowance": "Amount of tokens a `spender` is allowed to operate with.",
								"needed": "Minimum amount required to perform a transfer.",
								"spender": "Address that may be allowed to operate on tokens without being their owner."
							}
						}
					],
					"ERC20InsufficientBalance(address,uint256,uint256)": [
						{
							"details": "Indicates an error related to the current `balance` of a `sender`. Used in transfers.",
							"params": {
								"balance": "Current balance for the interacting account.",
								"needed": "Minimum amount required to perform a transfer.",
								"sender": "Address whose tokens are being transferred."
							}
						}
					],
					"ERC20InvalidApprover(address)": [
						{
							"details": "Indicates a failure with the `approver` of a token to be approved. Used in approvals.",
							"params": {
								"approver": "Address initiating an approval operation."
							}
						}
					],
					"ERC20InvalidReceiver(address)": [
						{
							"details": "Indicates a failure with the token `receiver`. Used in transfers.",
							"params": {
								"receiver": "Address to which tokens are being transferred."
							}
						}
					],
					"ERC20InvalidSender(address)": [
						{
							"details": "Indicates a failure with the token `sender`. Used in transfers.",
							"params": {
								"sender": "Address whose tokens are being transferred."
							}
						}
					],
					"ERC20InvalidSpender(address)": [
						{
							"details": "Indicates a failure with the `spender` to be approved. Used in approvals.",
							"params": {
								"spender": "Address that may be allowed to operate on tokens without being their owner."
							}
						}
					],
					"OwnableInvalidOwner(address)": [
						{
							"details": "The owner is not a valid owner account. (eg. `address(0)`)"
						}
					],
					"OwnableUnauthorizedAccount(address)": [
						{
							"details": "The caller account is not authorized to perform an operation."
						}
					]
				},
				"events": {
					"Approval(address,address,uint256)": {
						"details": "Emitted when the allowance of a `spender` for an `owner` is set by a call to {approve}. `value` is the new allowance."
					},
					"Transfer(address,address,uint256)": {
						"details": "Emitted when `value` tokens are moved from one account (`from`) to another (`to`). Note that `value` may be zero."
					}
				},
				"kind": "dev",
				"methods": {
					"allowance(address,address)": {
						"details": "See {IERC20-allowance}."
					},
					"approve(address,uint256)": {
						"details": "See {IERC20-approve}. NOTE: If `value` is the maximum `uint256`, the allowance is not updated on `transferFrom`. This is semantically equivalent to an infinite approval. Requirements: - `spender` cannot be the zero address."
					},
					"balanceOf(address)": {
						"details": "See {IERC20-balanceOf}."
					},
					"decimals()": {
						"details": "Returns the number of decimals used to get its user representation. For example, if `decimals` equals `2`, a balance of `505` tokens should be displayed to a user as `5.05` (`505 / 10 ** 2`). Tokens usually opt for a value of 18, imitating the relationship between Ether and Wei. This is the default value returned by this function, unless it's overridden. NOTE: This information is only used for _display_ purposes: it in no way affects any of the arithmetic of the contract, including {IERC20-balanceOf} and {IERC20-transfer}."
					},
					"name()": {
						"details": "Returns the name of the token."
					},
					"owner()": {
						"details": "Returns the address of the current owner."
					},
					"renounceOwnership()": {
						"details": "Leaves the contract without owner. It will not be possible to call `onlyOwner` functions. Can only be called by the current owner. NOTE: Renouncing ownership will leave the contract without an owner, thereby disabling any functionality that is only available to the owner."
					},
					"symbol()": {
						"details": "Returns the symbol of the token, usually a shorter version of the name."
					},
					"totalSupply()": {
						"details": "See {IERC20-totalSupply}."
					},
					"transfer(address,uint256)": {
						"details": "See {IERC20-transfer}. Requirements: - `to` cannot be the zero address. - the caller must have a balance of at least `value`."
					},
					"transferFrom(address,address,uint256)": {
						"details": "See {IERC20-transferFrom}. Emits an {Approval} event indicating the updated allowance. This is not required by the EIP. See the note at the beginning of {ERC20}. NOTE: Does not update the allowance if the current allowance is the maximum `uint256`. Requirements: - `from` and `to` cannot be the zero address. - `from` must have a balance of at least `value`. - the caller must have allowance for ``from``'s tokens of at least `value`."
					},
					"transferOwnership(address)": {
						"details": "Transfers ownership of the contract to a new account (`newOwner`). Can only be called by the current owner."
					}
				},
				"version": 1
			},
			"evm": {
				"assembly": "    /* \"contracts/bettoken.sol\":379:7429  contract Bettoken is ERC20, Ownable, ReentrancyGuard {... */\n  mstore(0x40, 0x80)\n    /* \"contracts/bettoken.sol\":642:662  1_000_000 * 10 ** 18 */\n  0xd3c21bcecceda1000000\n    /* \"contracts/bettoken.sol\":607:662  uint256 public privateSaleTarget = 1_000_000 * 10 ** 18 */\n  0x07\n  sstore\n    /* \"contracts/bettoken.sol\":727:748  38_835_764 * 10 ** 18 */\n  0x201fcafc2577d298500000\n    /* \"contracts/bettoken.sol\":692:748  uint256 public privateSaleTokens = 38_835_764 * 10 ** 18 */\n  0x08\n  sstore\n    /* \"contracts/bettoken.sol\":812:828  0.001 * 10 ** 18 */\n  0x038d7ea4c68000\n    /* \"contracts/bettoken.sol\":773:828  uint256 public privateSaleStartPrice = 0.001 * 10 ** 18 */\n  0x09\n  sstore\n    /* \"contracts/bettoken.sol\":893:910  0.0505 * 10 ** 18 */\n  0xb3697b81284000\n    /* \"contracts/bettoken.sol\":856:910  uint256 public privateSaleEndPrice = 0.0505 * 10 ** 18 */\n  0x0a\n  sstore\n    /* \"contracts/bettoken.sol\":978:979  0 */\n  0x00\n    /* \"contracts/bettoken.sol\":939:979  uint256 public privateSaleSoldTokens = 0 */\n  0x0b\n  sstore\n    /* \"contracts/bettoken.sol\":1043:1064  19_000_000 * 10 ** 18 */\n  0x0fb768105935a2f3000000\n    /* \"contracts/bettoken.sol\":1012:1064  uint256 public preSaleTarget = 19_000_000 * 10 ** 18 */\n  0x0c\n  sstore\n    /* \"contracts/bettoken.sol\":1126:1148  161_164_236 * 10 ** 18 */\n  0x854fdabd6aa1d32fb00000\n    /* \"contracts/bettoken.sol\":1095:1148  uint256 public preSaleTokens = 161_164_236 * 10 ** 18 */\n  0x0d\n  sstore\n    /* \"contracts/bettoken.sol\":1209:1226  0.0505 * 10 ** 18 */\n  0xb3697b81284000\n    /* \"contracts/bettoken.sol\":1174:1226  uint256 public preSaleStartPrice = 0.0505 * 10 ** 18 */\n  0x0e\n  sstore\n    /* \"contracts/bettoken.sol\":1288:1302  0.1 * 10 ** 18 */\n  0x016345785d8a0000\n    /* \"contracts/bettoken.sol\":1255:1302  uint256 public preSaleEndPrice = 0.1 * 10 ** 18 */\n  0x0f\n  sstore\n    /* \"contracts/bettoken.sol\":1363:1364  0 */\n  0x00\n    /* \"contracts/bettoken.sol\":1328:1364  uint256 public preSaleSoldTokens = 0 */\n  0x10\n  sstore\n    /* \"contracts/bettoken.sol\":1461:1475  SaleStage.NONE */\n  0x00\n    /* \"contracts/bettoken.sol\":1436:1475  SaleStage public stage = SaleStage.NONE */\n  0x11\n  exp(0x0100, 0x00)\n  dup2\n  sload\n  dup2\n  0xff\n  mul\n  not\n  and\n  swap1\n  dup4\n  0x02\n  dup2\n  gt\n  iszero\n  tag_1\n  jumpi\n  tag_2\n  tag_3\n  jump\t// in\ntag_2:\ntag_1:\n  mul\n  or\n  swap1\n  sstore\n  pop\n    /* \"contracts/bettoken.sol\":1655:1663  180 days */\n  0xed4e00\n    /* \"contracts/bettoken.sol\":1622:1663  uint256 public vestingDuration = 180 days */\n  0x14\n  sstore\n    /* \"contracts/bettoken.sol\":1708:1716  365 days */\n  0x01e13380\n    /* \"contracts/bettoken.sol\":1677:1716  uint256 public stakeDuration = 365 days */\n  0x15\n  sstore\n    /* \"contracts/bettoken.sol\":2101:2323  constructor(address _priceOracle) ERC20(\"Bettoken\", \"BETT\") Ownable(msg.sender) {... */\n  callvalue\n  dup1\n  iszero\n  tag_4\n  jumpi\n  0x00\n  dup1\n  revert\ntag_4:\n  pop\n  mload(0x40)\n  sub(codesize, bytecodeSize)\n  dup1\n  bytecodeSize\n  dup4\n  codecopy\n  dup2\n  dup2\n  add\n  0x40\n  mstore\n  dup2\n  add\n  swap1\n  tag_5\n  swap2\n  swap1\n  tag_6\n  jump\t// in\ntag_5:\n    /* \"contracts/bettoken.sol\":2169:2179  msg.sender */\n  caller\n    /* \"@openzeppelin/contracts/token/ERC20/ERC20.sol\":1896:2009  constructor(string memory name_, string memory symbol_) {... */\n  mload(0x40)\n  dup1\n  0x40\n  add\n  0x40\n  mstore\n  dup1\n  0x08\n  dup2\n  mstore\n  0x20\n  add\n  0x426574746f6b656e000000000000000000000000000000000000000000000000\n  dup2\n  mstore\n  pop\n  mload(0x40)\n  dup1\n  0x40\n  add\n  0x40\n  mstore\n  dup1\n  0x04\n  dup2\n  mstore\n  0x20\n  add\n  0x4245545400000000000000000000000000000000000000000000000000000000\n  dup2\n  mstore\n  pop\n    /* \"@openzeppelin/contracts/token/ERC20/ERC20.sol\":1970:1975  name_ */\n  dup2\n    /* \"@openzeppelin/contracts/token/ERC20/ERC20.sol\":1962:1967  _name */\n  0x03\n    /* \"@openzeppelin/contracts/token/ERC20/ERC20.sol\":1962:1975  _name = name_ */\n  swap1\n  dup2\n  tag_12\n  swap2\n  swap1\n  tag_13\n  jump\t// in\ntag_12:\n  pop\n    /* \"@openzeppelin/contracts/token/ERC20/ERC20.sol\":1995:2002  symbol_ */\n  dup1\n    /* \"@openzeppelin/contracts/token/ERC20/ERC20.sol\":1985:1992  _symbol */\n  0x04\n    /* \"@openzeppelin/contracts/token/ERC20/ERC20.sol\":1985:2002  _symbol = symbol_ */\n  swap1\n  dup2\n  tag_14\n  swap2\n  swap1\n  tag_13\n  jump\t// in\ntag_14:\n  pop\n    /* \"@openzeppelin/contracts/token/ERC20/ERC20.sol\":1896:2009  constructor(string memory name_, string memory symbol_) {... */\n  pop\n  pop\n    /* \"@openzeppelin/contracts/access/Ownable.sol\":1297:1298  0 */\n  0x00\n    /* \"@openzeppelin/contracts/access/Ownable.sol\":1273:1299  initialOwner == address(0) */\n  0xffffffffffffffffffffffffffffffffffffffff\n  and\n    /* \"@openzeppelin/contracts/access/Ownable.sol\":1273:1285  initialOwner */\n  dup2\n    /* \"@openzeppelin/contracts/access/Ownable.sol\":1273:1299  initialOwner == address(0) */\n  0xffffffffffffffffffffffffffffffffffffffff\n  and\n  sub\n    /* \"@openzeppelin/contracts/access/Ownable.sol\":1269:1364  if (initialOwner == address(0)) {... */\n  tag_16\n  jumpi\n    /* \"@openzeppelin/contracts/access/Ownable.sol\":1350:1351  0 */\n  0x00\n    /* \"@openzeppelin/contracts/access/Ownable.sol\":1322:1353  OwnableInvalidOwner(address(0)) */\n  mload(0x40)\n  0x1e4fbdf700000000000000000000000000000000000000000000000000000000\n  dup2\n  mstore\n  0x04\n  add\n  tag_17\n  swap2\n  swap1\n  tag_18\n  jump\t// in\ntag_17:\n  mload(0x40)\n  dup1\n  swap2\n  sub\n  swap1\n  revert\n    /* \"@openzeppelin/contracts/access/Ownable.sol\":1269:1364  if (initialOwner == address(0)) {... */\ntag_16:\n    /* \"@openzeppelin/contracts/access/Ownable.sol\":1373:1405  _transferOwnership(initialOwner) */\n  tag_19\n    /* \"@openzeppelin/contracts/access/Ownable.sol\":1392:1404  initialOwner */\n  dup2\n    /* \"@openzeppelin/contracts/access/Ownable.sol\":1373:1391  _transferOwnership */\n  shl(0x20, tag_20)\n    /* \"@openzeppelin/contracts/access/Ownable.sol\":1373:1405  _transferOwnership(initialOwner) */\n  0x20\n  shr\n  jump\t// in\ntag_19:\n    /* \"@openzeppelin/contracts/access/Ownable.sol\":1225:1412  constructor(address initialOwner) {... */\n  pop\n    /* \"@openzeppelin/contracts/security/ReentrancyGuard.sol\":1716:1717  1 */\n  0x01\n    /* \"@openzeppelin/contracts/security/ReentrancyGuard.sol\":1821:1828  _status */\n  0x06\n    /* \"@openzeppelin/contracts/security/ReentrancyGuard.sol\":1821:1843  _status = _NOT_ENTERED */\n  dup2\n  swap1\n  sstore\n  pop\n    /* \"contracts/bettoken.sol\":2191:2225  _mint(address(this), TOTAL_SUPPLY) */\n  tag_23\n    /* \"contracts/bettoken.sol\":2205:2209  this */\n  address\n    /* \"contracts/bettoken.sol\":511:533  200_000_000 * 10 ** 18 */\n  0xa56fa5b99019a5c8000000\n    /* \"contracts/bettoken.sol\":2191:2196  _mint */\n  shl(0x20, tag_24)\n    /* \"contracts/bettoken.sol\":2191:2225  _mint(address(this), TOTAL_SUPPLY) */\n  0x20\n  shr\n  jump\t// in\ntag_23:\n    /* \"contracts/bettoken.sol\":2262:2274  _priceOracle */\n  dup1\n    /* \"contracts/bettoken.sol\":2235:2246  priceOracle */\n  0x16\n  0x00\n    /* \"contracts/bettoken.sol\":2235:2275  priceOracle = IPriceOracle(_priceOracle) */\n  0x0100\n  exp\n  dup2\n  sload\n  dup2\n  0xffffffffffffffffffffffffffffffffffffffff\n  mul\n  not\n  and\n  swap1\n  dup4\n  0xffffffffffffffffffffffffffffffffffffffff\n  and\n  mul\n  or\n  swap1\n  sstore\n  pop\n    /* \"contracts/bettoken.sol\":2101:2323  constructor(address _priceOracle) ERC20(\"Bettoken\", \"BETT\") Ownable(msg.sender) {... */\n  pop\n    /* \"contracts/bettoken.sol\":379:7429  contract Bettoken is ERC20, Ownable, ReentrancyGuard {... */\n  jump(tag_25)\n    /* \"@openzeppelin/contracts/access/Ownable.sol\":2912:3099  function _transferOwnership(address newOwner) internal virtual {... */\ntag_20:\n    /* \"@openzeppelin/contracts/access/Ownable.sol\":2985:3001  address oldOwner */\n  0x00\n    /* \"@openzeppelin/contracts/access/Ownable.sol\":3004:3010  _owner */\n  0x05\n  0x00\n  swap1\n  sload\n  swap1\n  0x0100\n  exp\n  swap1\n  div\n  0xffffffffffffffffffffffffffffffffffffffff\n  and\n    /* \"@openzeppelin/contracts/access/Ownable.sol\":2985:3010  address oldOwner = _owner */\n  swap1\n  pop\n    /* \"@openzeppelin/contracts/access/Ownable.sol\":3029:3037  newOwner */\n  dup2\n    /* \"@openzeppelin/contracts/access/Ownable.sol\":3020:3026  _owner */\n  0x05\n  0x00\n    /* \"@openzeppelin/contracts/access/Ownable.sol\":3020:3037  _owner = newOwner */\n  0x0100\n  exp\n  dup2\n  sload\n  dup2\n  0xffffffffffffffffffffffffffffffffffffffff\n  mul\n  not\n  and\n  swap1\n  dup4\n  0xffffffffffffffffffffffffffffffffffffffff\n  and\n  mul\n  or\n  swap1\n  sstore\n  pop\n    /* \"@openzeppelin/contracts/access/Ownable.sol\":3083:3091  newOwner */\n  dup2\n    /* \"@openzeppelin/contracts/access/Ownable.sol\":3052:3092  OwnershipTransferred(oldOwner, newOwner) */\n  0xffffffffffffffffffffffffffffffffffffffff\n  and\n    /* \"@openzeppelin/contracts/access/Ownable.sol\":3073:3081  oldOwner */\n  dup2\n    /* \"@openzeppelin/contracts/access/Ownable.sol\":3052:3092  OwnershipTransferred(oldOwner, newOwner) */\n  0xffffffffffffffffffffffffffffffffffffffff\n  and\n  0x8be0079c531659141344cd1fd0a4f28419497f9722a3daafe3b4186f6b6457e0\n  mload(0x40)\n  mload(0x40)\n  dup1\n  swap2\n  sub\n  swap1\n  log3\n    /* \"@openzeppelin/contracts/access/Ownable.sol\":2975:3099  {... */\n  pop\n    /* \"@openzeppelin/contracts/access/Ownable.sol\":2912:3099  function _transferOwnership(address newOwner) internal virtual {... */\n  pop\n  jump\t// out\n    /* \"@openzeppelin/contracts/token/ERC20/ERC20.sol\":7721:7929  function _mint(address account, uint256 value) internal {... */\ntag_24:\n    /* \"@openzeppelin/contracts/token/ERC20/ERC20.sol\":7810:7811  0 */\n  0x00\n    /* \"@openzeppelin/contracts/token/ERC20/ERC20.sol\":7791:7812  account == address(0) */\n  0xffffffffffffffffffffffffffffffffffffffff\n  and\n    /* \"@openzeppelin/contracts/token/ERC20/ERC20.sol\":7791:7798  account */\n  dup3\n    /* \"@openzeppelin/contracts/token/ERC20/ERC20.sol\":7791:7812  account == address(0) */\n  0xffffffffffffffffffffffffffffffffffffffff\n  and\n  sub\n    /* \"@openzeppelin/contracts/token/ERC20/ERC20.sol\":7787:7878  if (account == address(0)) {... */\n  tag_28\n  jumpi\n    /* \"@openzeppelin/contracts/token/ERC20/ERC20.sol\":7864:7865  0 */\n  0x00\n    /* \"@openzeppelin/contracts/token/ERC20/ERC20.sol\":7835:7867  ERC20InvalidReceiver(address(0)) */\n  mload(0x40)\n  0xec442f0500000000000000000000000000000000000000000000000000000000\n  dup2\n  mstore\n  0x04\n  add\n  tag_29\n  swap2\n  swap1\n  tag_18\n  jump\t// in\ntag_29:\n  mload(0x40)\n  dup1\n  swap2\n  sub\n  swap1\n  revert\n    /* \"@openzeppelin/contracts/token/ERC20/ERC20.sol\":7787:7878  if (account == address(0)) {... */\ntag_28:\n    /* \"@openzeppelin/contracts/token/ERC20/ERC20.sol\":7887:7922  _update(address(0), account, value) */\n  tag_30\n    /* \"@openzeppelin/contracts/token/ERC20/ERC20.sol\":7903:7904  0 */\n  0x00\n    /* \"@openzeppelin/contracts/token/ERC20/ERC20.sol\":7907:7914  account */\n  dup4\n    /* \"@openzeppelin/contracts/token/ERC20/ERC20.sol\":7916:7921  value */\n  dup4\n    /* \"@openzeppelin/contracts/token/ERC20/ERC20.sol\":7887:7894  _update */\n  shl(0x20, tag_31)\n    /* \"@openzeppelin/contracts/token/ERC20/ERC20.sol\":7887:7922  _update(address(0), account, value) */\n  0x20\n  shr\n  jump\t// in\ntag_30:\n    /* \"@openzeppelin/contracts/token/ERC20/ERC20.sol\":7721:7929  function _mint(address account, uint256 value) internal {... */\n  pop\n  pop\n  jump\t// out\n    /* \"@openzeppelin/contracts/token/ERC20/ERC20.sol\":6271:7378  function _update(address from, address to, uint256 value) internal virtual {... */\ntag_31:\n    /* \"@openzeppelin/contracts/token/ERC20/ERC20.sol\":6376:6377  0 */\n  0x00\n    /* \"@openzeppelin/contracts/token/ERC20/ERC20.sol\":6360:6378  from == address(0) */\n  0xffffffffffffffffffffffffffffffffffffffff\n  and\n    /* \"@openzeppelin/contracts/token/ERC20/ERC20.sol\":6360:6364  from */\n  dup4\n    /* \"@openzeppelin/contracts/token/ERC20/ERC20.sol\":6360:6378  from == address(0) */\n  0xffffffffffffffffffffffffffffffffffffffff\n  and\n  sub\n    /* \"@openzeppelin/contracts/token/ERC20/ERC20.sol\":6356:6896  if (from == address(0)) {... */\n  tag_33\n  jumpi\n    /* \"@openzeppelin/contracts/token/ERC20/ERC20.sol\":6512:6517  value */\n  dup1\n    /* \"@openzeppelin/contracts/token/ERC20/ERC20.sol\":6496:6508  _totalSupply */\n  0x02\n  0x00\n    /* \"@openzeppelin/contracts/token/ERC20/ERC20.sol\":6496:6517  _totalSupply += value */\n  dup3\n  dup3\n  sload\n  tag_34\n  swap2\n  swap1\n  tag_35\n  jump\t// in\ntag_34:\n  swap3\n  pop\n  pop\n  dup2\n  swap1\n  sstore\n  pop\n    /* \"@openzeppelin/contracts/token/ERC20/ERC20.sol\":6356:6896  if (from == address(0)) {... */\n  jump(tag_36)\ntag_33:\n    /* \"@openzeppelin/contracts/token/ERC20/ERC20.sol\":6548:6567  uint256 fromBalance */\n  0x00\n    /* \"@openzeppelin/contracts/token/ERC20/ERC20.sol\":6570:6579  _balances */\n  dup1\n    /* \"@openzeppelin/contracts/token/ERC20/ERC20.sol\":6570:6585  _balances[from] */\n  0x00\n    /* \"@openzeppelin/contracts/token/ERC20/ERC20.sol\":6580:6584  from */\n  dup6\n    /* \"@openzeppelin/contracts/token/ERC20/ERC20.sol\":6570:6585  _balances[from] */\n  0xffffffffffffffffffffffffffffffffffffffff\n  and\n  0xffffffffffffffffffffffffffffffffffffffff\n  and\n  dup2\n  mstore\n  0x20\n  add\n  swap1\n  dup2\n  mstore\n  0x20\n  add\n  0x00\n  keccak256\n  sload\n    /* \"@openzeppelin/contracts/token/ERC20/ERC20.sol\":6548:6585  uint256 fromBalance = _balances[from] */\n  swap1\n  pop\n    /* \"@openzeppelin/contracts/token/ERC20/ERC20.sol\":6617:6622  value */\n  dup2\n    /* \"@openzeppelin/contracts/token/ERC20/ERC20.sol\":6603:6614  fromBalance */\n  dup2\n    /* \"@openzeppelin/contracts/token/ERC20/ERC20.sol\":6603:6622  fromBalance < value */\n  lt\n    /* \"@openzeppelin/contracts/token/ERC20/ERC20.sol\":6599:6714  if (fromBalance < value) {... */\n  iszero\n  tag_37\n  jumpi\n    /* \"@openzeppelin/contracts/token/ERC20/ERC20.sol\":6674:6678  from */\n  dup4\n    /* \"@openzeppelin/contracts/token/ERC20/ERC20.sol\":6680:6691  fromBalance */\n  dup2\n    /* \"@openzeppelin/contracts/token/ERC20/ERC20.sol\":6693:6698  value */\n  dup4\n    /* \"@openzeppelin/contracts/token/ERC20/ERC20.sol\":6649:6699  ERC20InsufficientBalance(from, fromBalance, value) */\n  mload(0x40)\n  0xe450d38c00000000000000000000000000000000000000000000000000000000\n  dup2\n  mstore\n  0x04\n  add\n  tag_38\n  swap4\n  swap3\n  swap2\n  swap1\n  tag_39\n  jump\t// in\ntag_38:\n  mload(0x40)\n  dup1\n  swap2\n  sub\n  swap1\n  revert\n    /* \"@openzeppelin/contracts/token/ERC20/ERC20.sol\":6599:6714  if (fromBalance < value) {... */\ntag_37:\n    /* \"@openzeppelin/contracts/token/ERC20/ERC20.sol\":6866:6871  value */\n  dup2\n    /* \"@openzeppelin/contracts/token/ERC20/ERC20.sol\":6852:6863  fromBalance */\n  dup2\n    /* \"@openzeppelin/contracts/token/ERC20/ERC20.sol\":6852:6871  fromBalance - value */\n  sub\n    /* \"@openzeppelin/contracts/token/ERC20/ERC20.sol\":6834:6843  _balances */\n  0x00\n    /* \"@openzeppelin/contracts/token/ERC20/ERC20.sol\":6834:6849  _balances[from] */\n  dup1\n    /* \"@openzeppelin/contracts/token/ERC20/ERC20.sol\":6844:6848  from */\n  dup7\n    /* \"@openzeppelin/contracts/token/ERC20/ERC20.sol\":6834:6849  _balances[from] */\n  0xffffffffffffffffffffffffffffffffffffffff\n  and\n  0xffffffffffffffffffffffffffffffffffffffff\n  and\n  dup2\n  mstore\n  0x20\n  add\n  swap1\n  dup2\n  mstore\n  0x20\n  add\n  0x00\n  keccak256\n    /* \"@openzeppelin/contracts/token/ERC20/ERC20.sol\":6834:6871  _balances[from] = fromBalance - value */\n  dup2\n  swap1\n  sstore\n  pop\n    /* \"@openzeppelin/contracts/token/ERC20/ERC20.sol\":6534:6896  {... */\n  pop\n    /* \"@openzeppelin/contracts/token/ERC20/ERC20.sol\":6356:6896  if (from == address(0)) {... */\ntag_36:\n    /* \"@openzeppelin/contracts/token/ERC20/ERC20.sol\":6924:6925  0 */\n  0x00\n    /* \"@openzeppelin/contracts/token/ERC20/ERC20.sol\":6910:6926  to == address(0) */\n  0xffffffffffffffffffffffffffffffffffffffff\n  and\n    /* \"@openzeppelin/contracts/token/ERC20/ERC20.sol\":6910:6912  to */\n  dup3\n    /* \"@openzeppelin/contracts/token/ERC20/ERC20.sol\":6910:6926  to == address(0) */\n  0xffffffffffffffffffffffffffffffffffffffff\n  and\n  sub\n    /* \"@openzeppelin/contracts/token/ERC20/ERC20.sol\":6906:7331  if (to == address(0)) {... */\n  tag_40\n  jumpi\n    /* \"@openzeppelin/contracts/token/ERC20/ERC20.sol\":7089:7094  value */\n  dup1\n    /* \"@openzeppelin/contracts/token/ERC20/ERC20.sol\":7073:7085  _totalSupply */\n  0x02\n  0x00\n    /* \"@openzeppelin/contracts/token/ERC20/ERC20.sol\":7073:7094  _totalSupply -= value */\n  dup3\n  dup3\n  sload\n  sub\n  swap3\n  pop\n  pop\n  dup2\n  swap1\n  sstore\n  pop\n    /* \"@openzeppelin/contracts/token/ERC20/ERC20.sol\":6906:7331  if (to == address(0)) {... */\n  jump(tag_41)\ntag_40:\n    /* \"@openzeppelin/contracts/token/ERC20/ERC20.sol\":7301:7306  value */\n  dup1\n    /* \"@openzeppelin/contracts/token/ERC20/ERC20.sol\":7284:7293  _balances */\n  0x00\n    /* \"@openzeppelin/contracts/token/ERC20/ERC20.sol\":7284:7297  _balances[to] */\n  dup1\n    /* \"@openzeppelin/contracts/token/ERC20/ERC20.sol\":7294:7296  to */\n  dup5\n    /* \"@openzeppelin/contracts/token/ERC20/ERC20.sol\":7284:7297  _balances[to] */\n  0xffffffffffffffffffffffffffffffffffffffff\n  and\n  0xffffffffffffffffffffffffffffffffffffffff\n  and\n  dup2\n  mstore\n  0x20\n  add\n  swap1\n  dup2\n  mstore\n  0x20\n  add\n  0x00\n  keccak256\n  0x00\n    /* \"@openzeppelin/contracts/token/ERC20/ERC20.sol\":7284:7306  _balances[to] += value */\n  dup3\n  dup3\n  sload\n  add\n  swap3\n  pop\n  pop\n  dup2\n  swap1\n  sstore\n  pop\n    /* \"@openzeppelin/contracts/token/ERC20/ERC20.sol\":6906:7331  if (to == address(0)) {... */\ntag_41:\n    /* \"@openzeppelin/contracts/token/ERC20/ERC20.sol\":7361:7363  to */\n  dup2\n    /* \"@openzeppelin/contracts/token/ERC20/ERC20.sol\":7346:7371  Transfer(from, to, value) */\n  0xffffffffffffffffffffffffffffffffffffffff\n  and\n    /* \"@openzeppelin/contracts/token/ERC20/ERC20.sol\":7355:7359  from */\n  dup4\n    /* \"@openzeppelin/contracts/token/ERC20/ERC20.sol\":7346:7371  Transfer(from, to, value) */\n  0xffffffffffffffffffffffffffffffffffffffff\n  and\n  0xddf252ad1be2c89b69c2b068fc378daa952ba7f163c4a11628f55a4df523b3ef\n    /* \"@openzeppelin/contracts/token/ERC20/ERC20.sol\":7365:7370  value */\n  dup4\n    /* \"@openzeppelin/contracts/token/ERC20/ERC20.sol\":7346:7371  Transfer(from, to, value) */\n  mload(0x40)\n  tag_42\n  swap2\n  swap1\n  tag_43\n  jump\t// in\ntag_42:\n  mload(0x40)\n  dup1\n  swap2\n  sub\n  swap1\n  log3\n    /* \"@openzeppelin/contracts/token/ERC20/ERC20.sol\":6271:7378  function _update(address from, address to, uint256 value) internal virtual {... */\n  pop\n  pop\n  pop\n  jump\t// out\n    /* \"#utility.yul\":7:187   */\ntag_3:\n    /* \"#utility.yul\":55:132   */\n  0x4e487b7100000000000000000000000000000000000000000000000000000000\n    /* \"#utility.yul\":52:53   */\n  0x00\n    /* \"#utility.yul\":45:133   */\n  mstore\n    /* \"#utility.yul\":152:156   */\n  0x21\n    /* \"#utility.yul\":149:150   */\n  0x04\n    /* \"#utility.yul\":142:157   */\n  mstore\n    /* \"#utility.yul\":176:180   */\n  0x24\n    /* \"#utility.yul\":173:174   */\n  0x00\n    /* \"#utility.yul\":166:181   */\n  revert\n    /* \"#utility.yul\":274:391   */\ntag_45:\n    /* \"#utility.yul\":383:384   */\n  0x00\n    /* \"#utility.yul\":380:381   */\n  dup1\n    /* \"#utility.yul\":373:385   */\n  revert\n    /* \"#utility.yul\":520:646   */\ntag_47:\n    /* \"#utility.yul\":557:564   */\n  0x00\n    /* \"#utility.yul\":597:639   */\n  0xffffffffffffffffffffffffffffffffffffffff\n    /* \"#utility.yul\":590:595   */\n  dup3\n    /* \"#utility.yul\":586:640   */\n  and\n    /* \"#utility.yul\":575:640   */\n  swap1\n  pop\n    /* \"#utility.yul\":520:646   */\n  swap2\n  swap1\n  pop\n  jump\t// out\n    /* \"#utility.yul\":652:748   */\ntag_48:\n    /* \"#utility.yul\":689:696   */\n  0x00\n    /* \"#utility.yul\":718:742   */\n  tag_81\n    /* \"#utility.yul\":736:741   */\n  dup3\n    /* \"#utility.yul\":718:742   */\n  tag_47\n  jump\t// in\ntag_81:\n    /* \"#utility.yul\":707:742   */\n  swap1\n  pop\n    /* \"#utility.yul\":652:748   */\n  swap2\n  swap1\n  pop\n  jump\t// out\n    /* \"#utility.yul\":754:876   */\ntag_49:\n    /* \"#utility.yul\":827:851   */\n  tag_83\n    /* \"#utility.yul\":845:850   */\n  dup2\n    /* \"#utility.yul\":827:851   */\n  tag_48\n  jump\t// in\ntag_83:\n    /* \"#utility.yul\":820:825   */\n  dup2\n    /* \"#utility.yul\":817:852   */\n  eq\n    /* \"#utility.yul\":807:870   */\n  tag_84\n  jumpi\n    /* \"#utility.yul\":866:867   */\n  0x00\n    /* \"#utility.yul\":863:864   */\n  dup1\n    /* \"#utility.yul\":856:868   */\n  revert\n    /* \"#utility.yul\":807:870   */\ntag_84:\n    /* \"#utility.yul\":754:876   */\n  pop\n  jump\t// out\n    /* \"#utility.yul\":882:1025   */\ntag_50:\n    /* \"#utility.yul\":939:944   */\n  0x00\n    /* \"#utility.yul\":970:976   */\n  dup2\n    /* \"#utility.yul\":964:977   */\n  mload\n    /* \"#utility.yul\":955:977   */\n  swap1\n  pop\n    /* \"#utility.yul\":986:1019   */\n  tag_86\n    /* \"#utility.yul\":1013:1018   */\n  dup2\n    /* \"#utility.yul\":986:1019   */\n  tag_49\n  jump\t// in\ntag_86:\n    /* \"#utility.yul\":882:1025   */\n  swap3\n  swap2\n  pop\n  pop\n  jump\t// out\n    /* \"#utility.yul\":1031:1382   */\ntag_6:\n    /* \"#utility.yul\":1101:1107   */\n  0x00\n    /* \"#utility.yul\":1150:1152   */\n  0x20\n    /* \"#utility.yul\":1138:1147   */\n  dup3\n    /* \"#utility.yul\":1129:1136   */\n  dup5\n    /* \"#utility.yul\":1125:1148   */\n  sub\n    /* \"#utility.yul\":1121:1153   */\n  slt\n    /* \"#utility.yul\":1118:1237   */\n  iszero\n  tag_88\n  jumpi\n    /* \"#utility.yul\":1156:1235   */\n  tag_89\n  tag_45\n  jump\t// in\ntag_89:\n    /* \"#utility.yul\":1118:1237   */\ntag_88:\n    /* \"#utility.yul\":1276:1277   */\n  0x00\n    /* \"#utility.yul\":1301:1365   */\n  tag_90\n    /* \"#utility.yul\":1357:1364   */\n  dup5\n    /* \"#utility.yul\":1348:1354   */\n  dup3\n    /* \"#utility.yul\":1337:1346   */\n  dup6\n    /* \"#utility.yul\":1333:1355   */\n  add\n    /* \"#utility.yul\":1301:1365   */\n  tag_50\n  jump\t// in\ntag_90:\n    /* \"#utility.yul\":1291:1365   */\n  swap2\n  pop\n    /* \"#utility.yul\":1247:1375   */\n  pop\n    /* \"#utility.yul\":1031:1382   */\n  swap3\n  swap2\n  pop\n  pop\n  jump\t// out\n    /* \"#utility.yul\":1388:1487   */\ntag_51:\n    /* \"#utility.yul\":1440:1446   */\n  0x00\n    /* \"#utility.yul\":1474:1479   */\n  dup2\n    /* \"#utility.yul\":1468:1480   */\n  mload\n    /* \"#utility.yul\":1458:1480   */\n  swap1\n  pop\n    /* \"#utility.yul\":1388:1487   */\n  swap2\n  swap1\n  pop\n  jump\t// out\n    /* \"#utility.yul\":1493:1673   */\ntag_52:\n    /* \"#utility.yul\":1541:1618   */\n  0x4e487b7100000000000000000000000000000000000000000000000000000000\n    /* \"#utility.yul\":1538:1539   */\n  0x00\n    /* \"#utility.yul\":1531:1619   */\n  mstore\n    /* \"#utility.yul\":1638:1642   */\n  0x41\n    /* \"#utility.yul\":1635:1636   */\n  0x04\n    /* \"#utility.yul\":1628:1643   */\n  mstore\n    /* \"#utility.yul\":1662:1666   */\n  0x24\n    /* \"#utility.yul\":1659:1660   */\n  0x00\n    /* \"#utility.yul\":1652:1667   */\n  revert\n    /* \"#utility.yul\":1679:1859   */\ntag_53:\n    /* \"#utility.yul\":1727:1804   */\n  0x4e487b7100000000000000000000000000000000000000000000000000000000\n    /* \"#utility.yul\":1724:1725   */\n  0x00\n    /* \"#utility.yul\":1717:1805   */\n  mstore\n    /* \"#utility.yul\":1824:1828   */\n  0x22\n    /* \"#utility.yul\":1821:1822   */\n  0x04\n    /* \"#utility.yul\":1814:1829   */\n  mstore\n    /* \"#utility.yul\":1848:1852   */\n  0x24\n    /* \"#utility.yul\":1845:1846   */\n  0x00\n    /* \"#utility.yul\":1838:1853   */\n  revert\n    /* \"#utility.yul\":1865:2185   */\ntag_54:\n    /* \"#utility.yul\":1909:1915   */\n  0x00\n    /* \"#utility.yul\":1946:1947   */\n  0x02\n    /* \"#utility.yul\":1940:1944   */\n  dup3\n    /* \"#utility.yul\":1936:1948   */\n  div\n    /* \"#utility.yul\":1926:1948   */\n  swap1\n  pop\n    /* \"#utility.yul\":1993:1994   */\n  0x01\n    /* \"#utility.yul\":1987:1991   */\n  dup3\n    /* \"#utility.yul\":1983:1995   */\n  and\n    /* \"#utility.yul\":2014:2032   */\n  dup1\n    /* \"#utility.yul\":2004:2085   */\n  tag_95\n  jumpi\n    /* \"#utility.yul\":2070:2074   */\n  0x7f\n    /* \"#utility.yul\":2062:2068   */\n  dup3\n    /* \"#utility.yul\":2058:2075   */\n  and\n    /* \"#utility.yul\":2048:2075   */\n  swap2\n  pop\n    /* \"#utility.yul\":2004:2085   */\ntag_95:\n    /* \"#utility.yul\":2132:2134   */\n  0x20\n    /* \"#utility.yul\":2124:2130   */\n  dup3\n    /* \"#utility.yul\":2121:2135   */\n  lt\n    /* \"#utility.yul\":2101:2119   */\n  dup2\n    /* \"#utility.yul\":2098:2136   */\n  sub\n    /* \"#utility.yul\":2095:2179   */\n  tag_96\n  jumpi\n    /* \"#utility.yul\":2151:2169   */\n  tag_97\n  tag_53\n  jump\t// in\ntag_97:\n    /* \"#utility.yul\":2095:2179   */\ntag_96:\n    /* \"#utility.yul\":1916:2185   */\n  pop\n    /* \"#utility.yul\":1865:2185   */\n  swap2\n  swap1\n  pop\n  jump\t// out\n    /* \"#utility.yul\":2191:2332   */\ntag_55:\n    /* \"#utility.yul\":2240:2244   */\n  0x00\n    /* \"#utility.yul\":2263:2266   */\n  dup2\n    /* \"#utility.yul\":2255:2266   */\n  swap1\n  pop\n    /* \"#utility.yul\":2286:2289   */\n  dup2\n    /* \"#utility.yul\":2283:2284   */\n  0x00\n    /* \"#utility.yul\":2276:2290   */\n  mstore\n    /* \"#utility.yul\":2320:2324   */\n  0x20\n    /* \"#utility.yul\":2317:2318   */\n  0x00\n    /* \"#utility.yul\":2307:2325   */\n  keccak256\n    /* \"#utility.yul\":2299:2325   */\n  swap1\n  pop\n    /* \"#utility.yul\":2191:2332   */\n  swap2\n  swap1\n  pop\n  jump\t// out\n    /* \"#utility.yul\":2338:2431   */\ntag_56:\n    /* \"#utility.yul\":2375:2381   */\n  0x00\n    /* \"#utility.yul\":2422:2424   */\n  0x20\n    /* \"#utility.yul\":2417:2419   */\n  0x1f\n    /* \"#utility.yul\":2410:2415   */\n  dup4\n    /* \"#utility.yul\":2406:2420   */\n  add\n    /* \"#utility.yul\":2402:2425   */\n  div\n    /* \"#utility.yul\":2392:2425   */\n  swap1\n  pop\n    /* \"#utility.yul\":2338:2431   */\n  swap2\n  swap1\n  pop\n  jump\t// out\n    /* \"#utility.yul\":2437:2544   */\ntag_57:\n    /* \"#utility.yul\":2481:2489   */\n  0x00\n    /* \"#utility.yul\":2531:2536   */\n  dup3\n    /* \"#utility.yul\":2525:2529   */\n  dup3\n    /* \"#utility.yul\":2521:2537   */\n  shl\n    /* \"#utility.yul\":2500:2537   */\n  swap1\n  pop\n    /* \"#utility.yul\":2437:2544   */\n  swap3\n  swap2\n  pop\n  pop\n  jump\t// out\n    /* \"#utility.yul\":2550:2943   */\ntag_58:\n    /* \"#utility.yul\":2619:2625   */\n  0x00\n    /* \"#utility.yul\":2669:2670   */\n  0x08\n    /* \"#utility.yul\":2657:2667   */\n  dup4\n    /* \"#utility.yul\":2653:2671   */\n  mul\n    /* \"#utility.yul\":2692:2789   */\n  tag_102\n    /* \"#utility.yul\":2722:2788   */\n  0xffffffffffffffffffffffffffffffffffffffffffffffffffffffffffffffff\n    /* \"#utility.yul\":2711:2720   */\n  dup3\n    /* \"#utility.yul\":2692:2789   */\n  tag_57\n  jump\t// in\ntag_102:\n    /* \"#utility.yul\":2810:2849   */\n  tag_103\n    /* \"#utility.yul\":2840:2848   */\n  dup7\n    /* \"#utility.yul\":2829:2838   */\n  dup4\n    /* \"#utility.yul\":2810:2849   */\n  tag_57\n  jump\t// in\ntag_103:\n    /* \"#utility.yul\":2798:2849   */\n  swap6\n  pop\n    /* \"#utility.yul\":2882:2886   */\n  dup1\n    /* \"#utility.yul\":2878:2887   */\n  not\n    /* \"#utility.yul\":2871:2876   */\n  dup5\n    /* \"#utility.yul\":2867:2888   */\n  and\n    /* \"#utility.yul\":2858:2888   */\n  swap4\n  pop\n    /* \"#utility.yul\":2931:2935   */\n  dup1\n    /* \"#utility.yul\":2921:2929   */\n  dup7\n    /* \"#utility.yul\":2917:2936   */\n  and\n    /* \"#utility.yul\":2910:2915   */\n  dup5\n    /* \"#utility.yul\":2907:2937   */\n  or\n    /* \"#utility.yul\":2897:2937   */\n  swap3\n  pop\n    /* \"#utility.yul\":2626:2943   */\n  pop\n  pop\n    /* \"#utility.yul\":2550:2943   */\n  swap4\n  swap3\n  pop\n  pop\n  pop\n  jump\t// out\n    /* \"#utility.yul\":2949:3026   */\ntag_59:\n    /* \"#utility.yul\":2986:2993   */\n  0x00\n    /* \"#utility.yul\":3015:3020   */\n  dup2\n    /* \"#utility.yul\":3004:3020   */\n  swap1\n  pop\n    /* \"#utility.yul\":2949:3026   */\n  swap2\n  swap1\n  pop\n  jump\t// out\n    /* \"#utility.yul\":3032:3092   */\ntag_60:\n    /* \"#utility.yul\":3060:3063   */\n  0x00\n    /* \"#utility.yul\":3081:3086   */\n  dup2\n    /* \"#utility.yul\":3074:3086   */\n  swap1\n  pop\n    /* \"#utility.yul\":3032:3092   */\n  swap2\n  swap1\n  pop\n  jump\t// out\n    /* \"#utility.yul\":3098:3240   */\ntag_61:\n    /* \"#utility.yul\":3148:3157   */\n  0x00\n    /* \"#utility.yul\":3181:3234   */\n  tag_107\n    /* \"#utility.yul\":3199:3233   */\n  tag_108\n    /* \"#utility.yul\":3208:3232   */\n  tag_109\n    /* \"#utility.yul\":3226:3231   */\n  dup5\n    /* \"#utility.yul\":3208:3232   */\n  tag_59\n  jump\t// in\ntag_109:\n    /* \"#utility.yul\":3199:3233   */\n  tag_60\n  jump\t// in\ntag_108:\n    /* \"#utility.yul\":3181:3234   */\n  tag_59\n  jump\t// in\ntag_107:\n    /* \"#utility.yul\":3168:3234   */\n  swap1\n  pop\n    /* \"#utility.yul\":3098:3240   */\n  swap2\n  swap1\n  pop\n  jump\t// out\n    /* \"#utility.yul\":3246:3321   */\ntag_62:\n    /* \"#utility.yul\":3289:3292   */\n  0x00\n    /* \"#utility.yul\":3310:3315   */\n  dup2\n    /* \"#utility.yul\":3303:3315   */\n  swap1\n  pop\n    /* \"#utility.yul\":3246:3321   */\n  swap2\n  swap1\n  pop\n  jump\t// out\n    /* \"#utility.yul\":3327:3596   */\ntag_63:\n    /* \"#utility.yul\":3437:3476   */\n  tag_112\n    /* \"#utility.yul\":3468:3475   */\n  dup4\n    /* \"#utility.yul\":3437:3476   */\n  tag_61\n  jump\t// in\ntag_112:\n    /* \"#utility.yul\":3498:3589   */\n  tag_113\n    /* \"#utility.yul\":3547:3588   */\n  tag_114\n    /* \"#utility.yul\":3571:3587   */\n  dup3\n    /* \"#utility.yul\":3547:3588   */\n  tag_62\n  jump\t// in\ntag_114:\n    /* \"#utility.yul\":3539:3545   */\n  dup5\n    /* \"#utility.yul\":3532:3536   */\n  dup5\n    /* \"#utility.yul\":3526:3537   */\n  sload\n    /* \"#utility.yul\":3498:3589   */\n  tag_58\n  jump\t// in\ntag_113:\n    /* \"#utility.yul\":3492:3496   */\n  dup3\n    /* \"#utility.yul\":3485:3590   */\n  sstore\n    /* \"#utility.yul\":3403:3596   */\n  pop\n    /* \"#utility.yul\":3327:3596   */\n  pop\n  pop\n  pop\n  jump\t// out\n    /* \"#utility.yul\":3602:3675   */\ntag_64:\n    /* \"#utility.yul\":3647:3650   */\n  0x00\n    /* \"#utility.yul\":3602:3675   */\n  swap1\n  jump\t// out\n    /* \"#utility.yul\":3681:3870   */\ntag_65:\n    /* \"#utility.yul\":3758:3790   */\n  tag_117\n  tag_64\n  jump\t// in\ntag_117:\n    /* \"#utility.yul\":3799:3864   */\n  tag_118\n    /* \"#utility.yul\":3857:3863   */\n  dup2\n    /* \"#utility.yul\":3849:3855   */\n  dup5\n    /* \"#utility.yul\":3843:3847   */\n  dup5\n    /* \"#utility.yul\":3799:3864   */\n  tag_63\n  jump\t// in\ntag_118:\n    /* \"#utility.yul\":3734:3870   */\n  pop\n    /* \"#utility.yul\":3681:3870   */\n  pop\n  pop\n  jump\t// out\n    /* \"#utility.yul\":3876:4062   */\ntag_66:\n    /* \"#utility.yul\":3936:4056   */\ntag_120:\n    /* \"#utility.yul\":3953:3956   */\n  dup2\n    /* \"#utility.yul\":3946:3951   */\n  dup2\n    /* \"#utility.yul\":3943:3957   */\n  lt\n    /* \"#utility.yul\":3936:4056   */\n  iszero\n  tag_122\n  jumpi\n    /* \"#utility.yul\":4007:4046   */\n  tag_123\n    /* \"#utility.yul\":4044:4045   */\n  0x00\n    /* \"#utility.yul\":4037:4042   */\n  dup3\n    /* \"#utility.yul\":4007:4046   */\n  tag_65\n  jump\t// in\ntag_123:\n    /* \"#utility.yul\":3980:3981   */\n  0x01\n    /* \"#utility.yul\":3973:3978   */\n  dup2\n    /* \"#utility.yul\":3969:3982   */\n  add\n    /* \"#utility.yul\":3960:3982   */\n  swap1\n  pop\n    /* \"#utility.yul\":3936:4056   */\n  jump(tag_120)\ntag_122:\n    /* \"#utility.yul\":3876:4062   */\n  pop\n  pop\n  jump\t// out\n    /* \"#utility.yul\":4068:4611   */\ntag_67:\n    /* \"#utility.yul\":4169:4171   */\n  0x1f\n    /* \"#utility.yul\":4164:4167   */\n  dup3\n    /* \"#utility.yul\":4161:4172   */\n  gt\n    /* \"#utility.yul\":4158:4604   */\n  iszero\n  tag_125\n  jumpi\n    /* \"#utility.yul\":4203:4241   */\n  tag_126\n    /* \"#utility.yul\":4235:4240   */\n  dup2\n    /* \"#utility.yul\":4203:4241   */\n  tag_55\n  jump\t// in\ntag_126:\n    /* \"#utility.yul\":4287:4316   */\n  tag_127\n    /* \"#utility.yul\":4305:4315   */\n  dup5\n    /* \"#utility.yul\":4287:4316   */\n  tag_56\n  jump\t// in\ntag_127:\n    /* \"#utility.yul\":4277:4285   */\n  dup2\n    /* \"#utility.yul\":4273:4317   */\n  add\n    /* \"#utility.yul\":4470:4472   */\n  0x20\n    /* \"#utility.yul\":4458:4468   */\n  dup6\n    /* \"#utility.yul\":4455:4473   */\n  lt\n    /* \"#utility.yul\":4452:4501   */\n  iszero\n  tag_128\n  jumpi\n    /* \"#utility.yul\":4491:4499   */\n  dup2\n    /* \"#utility.yul\":4476:4499   */\n  swap1\n  pop\n    /* \"#utility.yul\":4452:4501   */\ntag_128:\n    /* \"#utility.yul\":4514:4594   */\n  tag_129\n    /* \"#utility.yul\":4570:4592   */\n  tag_130\n    /* \"#utility.yul\":4588:4591   */\n  dup6\n    /* \"#utility.yul\":4570:4592   */\n  tag_56\n  jump\t// in\ntag_130:\n    /* \"#utility.yul\":4560:4568   */\n  dup4\n    /* \"#utility.yul\":4556:4593   */\n  add\n    /* \"#utility.yul\":4543:4554   */\n  dup3\n    /* \"#utility.yul\":4514:4594   */\n  tag_66\n  jump\t// in\ntag_129:\n    /* \"#utility.yul\":4173:4604   */\n  pop\n  pop\n    /* \"#utility.yul\":4158:4604   */\ntag_125:\n    /* \"#utility.yul\":4068:4611   */\n  pop\n  pop\n  pop\n  jump\t// out\n    /* \"#utility.yul\":4617:4734   */\ntag_68:\n    /* \"#utility.yul\":4671:4679   */\n  0x00\n    /* \"#utility.yul\":4721:4726   */\n  dup3\n    /* \"#utility.yul\":4715:4719   */\n  dup3\n    /* \"#utility.yul\":4711:4727   */\n  shr\n    /* \"#utility.yul\":4690:4727   */\n  swap1\n  pop\n    /* \"#utility.yul\":4617:4734   */\n  swap3\n  swap2\n  pop\n  pop\n  jump\t// out\n    /* \"#utility.yul\":4740:4909   */\ntag_69:\n    /* \"#utility.yul\":4784:4790   */\n  0x00\n    /* \"#utility.yul\":4817:4868   */\n  tag_133\n    /* \"#utility.yul\":4865:4866   */\n  0x00\n    /* \"#utility.yul\":4861:4867   */\n  not\n    /* \"#utility.yul\":4853:4858   */\n  dup5\n    /* \"#utility.yul\":4850:4851   */\n  0x08\n    /* \"#utility.yul\":4846:4859   */\n  mul\n    /* \"#utility.yul\":4817:4868   */\n  tag_68\n  jump\t// in\ntag_133:\n    /* \"#utility.yul\":4813:4869   */\n  not\n    /* \"#utility.yul\":4898:4902   */\n  dup1\n    /* \"#utility.yul\":4892:4896   */\n  dup4\n    /* \"#utility.yul\":4888:4903   */\n  and\n    /* \"#utility.yul\":4878:4903   */\n  swap2\n  pop\n    /* \"#utility.yul\":4791:4909   */\n  pop\n    /* \"#utility.yul\":4740:4909   */\n  swap3\n  swap2\n  pop\n  pop\n  jump\t// out\n    /* \"#utility.yul\":4914:5209   */\ntag_70:\n    /* \"#utility.yul\":4990:4994   */\n  0x00\n    /* \"#utility.yul\":5136:5165   */\n  tag_135\n    /* \"#utility.yul\":5161:5164   */\n  dup4\n    /* \"#utility.yul\":5155:5159   */\n  dup4\n    /* \"#utility.yul\":5136:5165   */\n  tag_69\n  jump\t// in\ntag_135:\n    /* \"#utility.yul\":5128:5165   */\n  swap2\n  pop\n    /* \"#utility.yul\":5198:5201   */\n  dup3\n    /* \"#utility.yul\":5195:5196   */\n  0x02\n    /* \"#utility.yul\":5191:5202   */\n  mul\n    /* \"#utility.yul\":5185:5189   */\n  dup3\n    /* \"#utility.yul\":5182:5203   */\n  or\n    /* \"#utility.yul\":5174:5203   */\n  swap1\n  pop\n    /* \"#utility.yul\":4914:5209   */\n  swap3\n  swap2\n  pop\n  pop\n  jump\t// out\n    /* \"#utility.yul\":5214:6609   */\ntag_13:\n    /* \"#utility.yul\":5331:5368   */\n  tag_137\n    /* \"#utility.yul\":5364:5367   */\n  dup3\n    /* \"#utility.yul\":5331:5368   */\n  tag_51\n  jump\t// in\ntag_137:\n    /* \"#utility.yul\":5433:5451   */\n  0xffffffffffffffff\n    /* \"#utility.yul\":5425:5431   */\n  dup2\n    /* \"#utility.yul\":5422:5452   */\n  gt\n    /* \"#utility.yul\":5419:5475   */\n  iszero\n  tag_138\n  jumpi\n    /* \"#utility.yul\":5455:5473   */\n  tag_139\n  tag_52\n  jump\t// in\ntag_139:\n    /* \"#utility.yul\":5419:5475   */\ntag_138:\n    /* \"#utility.yul\":5499:5537   */\n  tag_140\n    /* \"#utility.yul\":5531:5535   */\n  dup3\n    /* \"#utility.yul\":5525:5536   */\n  sload\n    /* \"#utility.yul\":5499:5537   */\n  tag_54\n  jump\t// in\ntag_140:\n    /* \"#utility.yul\":5584:5651   */\n  tag_141\n    /* \"#utility.yul\":5644:5650   */\n  dup3\n    /* \"#utility.yul\":5636:5642   */\n  dup3\n    /* \"#utility.yul\":5630:5634   */\n  dup6\n    /* \"#utility.yul\":5584:5651   */\n  tag_67\n  jump\t// in\ntag_141:\n    /* \"#utility.yul\":5678:5679   */\n  0x00\n    /* \"#utility.yul\":5702:5706   */\n  0x20\n    /* \"#utility.yul\":5689:5706   */\n  swap1\n  pop\n    /* \"#utility.yul\":5734:5736   */\n  0x1f\n    /* \"#utility.yul\":5726:5732   */\n  dup4\n    /* \"#utility.yul\":5723:5737   */\n  gt\n    /* \"#utility.yul\":5751:5752   */\n  0x01\n    /* \"#utility.yul\":5746:6364   */\n  dup2\n  eq\n  tag_143\n  jumpi\n    /* \"#utility.yul\":6408:6409   */\n  0x00\n    /* \"#utility.yul\":6425:6431   */\n  dup5\n    /* \"#utility.yul\":6422:6499   */\n  iszero\n  tag_144\n  jumpi\n    /* \"#utility.yul\":6474:6483   */\n  dup3\n    /* \"#utility.yul\":6469:6472   */\n  dup8\n    /* \"#utility.yul\":6465:6484   */\n  add\n    /* \"#utility.yul\":6459:6485   */\n  mload\n    /* \"#utility.yul\":6450:6485   */\n  swap1\n  pop\n    /* \"#utility.yul\":6422:6499   */\ntag_144:\n    /* \"#utility.yul\":6525:6592   */\n  tag_145\n    /* \"#utility.yul\":6585:6591   */\n  dup6\n    /* \"#utility.yul\":6578:6583   */\n  dup3\n    /* \"#utility.yul\":6525:6592   */\n  tag_70\n  jump\t// in\ntag_145:\n    /* \"#utility.yul\":6519:6523   */\n  dup7\n    /* \"#utility.yul\":6512:6593   */\n  sstore\n    /* \"#utility.yul\":6381:6603   */\n  pop\n    /* \"#utility.yul\":5716:6603   */\n  jump(tag_142)\n    /* \"#utility.yul\":5746:6364   */\ntag_143:\n    /* \"#utility.yul\":5798:5802   */\n  0x1f\n    /* \"#utility.yul\":5794:5803   */\n  not\n    /* \"#utility.yul\":5786:5792   */\n  dup5\n    /* \"#utility.yul\":5782:5804   */\n  and\n    /* \"#utility.yul\":5832:5869   */\n  tag_146\n    /* \"#utility.yul\":5864:5868   */\n  dup7\n    /* \"#utility.yul\":5832:5869   */\n  tag_55\n  jump\t// in\ntag_146:\n    /* \"#utility.yul\":5891:5892   */\n  0x00\n    /* \"#utility.yul\":5905:6113   */\ntag_147:\n    /* \"#utility.yul\":5919:5926   */\n  dup3\n    /* \"#utility.yul\":5916:5917   */\n  dup2\n    /* \"#utility.yul\":5913:5927   */\n  lt\n    /* \"#utility.yul\":5905:6113   */\n  iszero\n  tag_149\n  jumpi\n    /* \"#utility.yul\":5998:6007   */\n  dup5\n    /* \"#utility.yul\":5993:5996   */\n  dup10\n    /* \"#utility.yul\":5989:6008   */\n  add\n    /* \"#utility.yul\":5983:6009   */\n  mload\n    /* \"#utility.yul\":5975:5981   */\n  dup3\n    /* \"#utility.yul\":5968:6010   */\n  sstore\n    /* \"#utility.yul\":6049:6050   */\n  0x01\n    /* \"#utility.yul\":6041:6047   */\n  dup3\n    /* \"#utility.yul\":6037:6051   */\n  add\n    /* \"#utility.yul\":6027:6051   */\n  swap2\n  pop\n    /* \"#utility.yul\":6096:6098   */\n  0x20\n    /* \"#utility.yul\":6085:6094   */\n  dup6\n    /* \"#utility.yul\":6081:6099   */\n  add\n    /* \"#utility.yul\":6068:6099   */\n  swap5\n  pop\n    /* \"#utility.yul\":5942:5946   */\n  0x20\n    /* \"#utility.yul\":5939:5940   */\n  dup2\n    /* \"#utility.yul\":5935:5947   */\n  add\n    /* \"#utility.yul\":5930:5947   */\n  swap1\n  pop\n    /* \"#utility.yul\":5905:6113   */\n  jump(tag_147)\ntag_149:\n    /* \"#utility.yul\":6141:6147   */\n  dup7\n    /* \"#utility.yul\":6132:6139   */\n  dup4\n    /* \"#utility.yul\":6129:6148   */\n  lt\n    /* \"#utility.yul\":6126:6305   */\n  iszero\n  tag_150\n  jumpi\n    /* \"#utility.yul\":6199:6208   */\n  dup5\n    /* \"#utility.yul\":6194:6197   */\n  dup10\n    /* \"#utility.yul\":6190:6209   */\n  add\n    /* \"#utility.yul\":6184:6210   */\n  mload\n    /* \"#utility.yul\":6242:6290   */\n  tag_151\n    /* \"#utility.yul\":6284:6288   */\n  0x1f\n    /* \"#utility.yul\":6276:6282   */\n  dup10\n    /* \"#utility.yul\":6272:6289   */\n  and\n    /* \"#utility.yul\":6261:6270   */\n  dup3\n    /* \"#utility.yul\":6242:6290   */\n  tag_69\n  jump\t// in\ntag_151:\n    /* \"#utility.yul\":6234:6240   */\n  dup4\n    /* \"#utility.yul\":6227:6291   */\n  sstore\n    /* \"#utility.yul\":6149:6305   */\n  pop\n    /* \"#utility.yul\":6126:6305   */\ntag_150:\n    /* \"#utility.yul\":6351:6352   */\n  0x01\n    /* \"#utility.yul\":6347:6348   */\n  0x02\n    /* \"#utility.yul\":6339:6345   */\n  dup9\n    /* \"#utility.yul\":6335:6349   */\n  mul\n    /* \"#utility.yul\":6331:6353   */\n  add\n    /* \"#utility.yul\":6325:6329   */\n  dup9\n    /* \"#utility.yul\":6318:6354   */\n  sstore\n    /* \"#utility.yul\":5753:6364   */\n  pop\n  pop\n  pop\n    /* \"#utility.yul\":5716:6603   */\ntag_142:\n  pop\n    /* \"#utility.yul\":5306:6609   */\n  pop\n  pop\n  pop\n    /* \"#utility.yul\":5214:6609   */\n  pop\n  pop\n  jump\t// out\n    /* \"#utility.yul\":6615:6733   */\ntag_71:\n    /* \"#utility.yul\":6702:6726   */\n  tag_153\n    /* \"#utility.yul\":6720:6725   */\n  dup2\n    /* \"#utility.yul\":6702:6726   */\n  tag_48\n  jump\t// in\ntag_153:\n    /* \"#utility.yul\":6697:6700   */\n  dup3\n    /* \"#utility.yul\":6690:6727   */\n  mstore\n    /* \"#utility.yul\":6615:6733   */\n  pop\n  pop\n  jump\t// out\n    /* \"#utility.yul\":6739:6961   */\ntag_18:\n    /* \"#utility.yul\":6832:6836   */\n  0x00\n    /* \"#utility.yul\":6870:6872   */\n  0x20\n    /* \"#utility.yul\":6859:6868   */\n  dup3\n    /* \"#utility.yul\":6855:6873   */\n  add\n    /* \"#utility.yul\":6847:6873   */\n  swap1\n  pop\n    /* \"#utility.yul\":6883:6954   */\n  tag_155\n    /* \"#utility.yul\":6951:6952   */\n  0x00\n    /* \"#utility.yul\":6940:6949   */\n  dup4\n    /* \"#utility.yul\":6936:6953   */\n  add\n    /* \"#utility.yul\":6927:6933   */\n  dup5\n    /* \"#utility.yul\":6883:6954   */\n  tag_71\n  jump\t// in\ntag_155:\n    /* \"#utility.yul\":6739:6961   */\n  swap3\n  swap2\n  pop\n  pop\n  jump\t// out\n    /* \"#utility.yul\":6967:7147   */\ntag_72:\n    /* \"#utility.yul\":7015:7092   */\n  0x4e487b7100000000000000000000000000000000000000000000000000000000\n    /* \"#utility.yul\":7012:7013   */\n  0x00\n    /* \"#utility.yul\":7005:7093   */\n  mstore\n    /* \"#utility.yul\":7112:7116   */\n  0x11\n    /* \"#utility.yul\":7109:7110   */\n  0x04\n    /* \"#utility.yul\":7102:7117   */\n  mstore\n    /* \"#utility.yul\":7136:7140   */\n  0x24\n    /* \"#utility.yul\":7133:7134   */\n  0x00\n    /* \"#utility.yul\":7126:7141   */\n  revert\n    /* \"#utility.yul\":7153:7344   */\ntag_35:\n    /* \"#utility.yul\":7193:7196   */\n  0x00\n    /* \"#utility.yul\":7212:7232   */\n  tag_158\n    /* \"#utility.yul\":7230:7231   */\n  dup3\n    /* \"#utility.yul\":7212:7232   */\n  tag_59\n  jump\t// in\ntag_158:\n    /* \"#utility.yul\":7207:7232   */\n  swap2\n  pop\n    /* \"#utility.yul\":7246:7266   */\n  tag_159\n    /* \"#utility.yul\":7264:7265   */\n  dup4\n    /* \"#utility.yul\":7246:7266   */\n  tag_59\n  jump\t// in\ntag_159:\n    /* \"#utility.yul\":7241:7266   */\n  swap3\n  pop\n    /* \"#utility.yul\":7289:7290   */\n  dup3\n    /* \"#utility.yul\":7286:7287   */\n  dup3\n    /* \"#utility.yul\":7282:7291   */\n  add\n    /* \"#utility.yul\":7275:7291   */\n  swap1\n  pop\n    /* \"#utility.yul\":7310:7313   */\n  dup1\n    /* \"#utility.yul\":7307:7308   */\n  dup3\n    /* \"#utility.yul\":7304:7314   */\n  gt\n    /* \"#utility.yul\":7301:7337   */\n  iszero\n  tag_160\n  jumpi\n    /* \"#utility.yul\":7317:7335   */\n  tag_161\n  tag_72\n  jump\t// in\ntag_161:\n    /* \"#utility.yul\":7301:7337   */\ntag_160:\n    /* \"#utility.yul\":7153:7344   */\n  swap3\n  swap2\n  pop\n  pop\n  jump\t// out\n    /* \"#utility.yul\":7350:7468   */\ntag_73:\n    /* \"#utility.yul\":7437:7461   */\n  tag_163\n    /* \"#utility.yul\":7455:7460   */\n  dup2\n    /* \"#utility.yul\":7437:7461   */\n  tag_59\n  jump\t// in\ntag_163:\n    /* \"#utility.yul\":7432:7435   */\n  dup3\n    /* \"#utility.yul\":7425:7462   */\n  mstore\n    /* \"#utility.yul\":7350:7468   */\n  pop\n  pop\n  jump\t// out\n    /* \"#utility.yul\":7474:7916   */\ntag_39:\n    /* \"#utility.yul\":7623:7627   */\n  0x00\n    /* \"#utility.yul\":7661:7663   */\n  0x60\n    /* \"#utility.yul\":7650:7659   */\n  dup3\n    /* \"#utility.yul\":7646:7664   */\n  add\n    /* \"#utility.yul\":7638:7664   */\n  swap1\n  pop\n    /* \"#utility.yul\":7674:7745   */\n  tag_165\n    /* \"#utility.yul\":7742:7743   */\n  0x00\n    /* \"#utility.yul\":7731:7740   */\n  dup4\n    /* \"#utility.yul\":7727:7744   */\n  add\n    /* \"#utility.yul\":7718:7724   */\n  dup7\n    /* \"#utility.yul\":7674:7745   */\n  tag_71\n  jump\t// in\ntag_165:\n    /* \"#utility.yul\":7755:7827   */\n  tag_166\n    /* \"#utility.yul\":7823:7825   */\n  0x20\n    /* \"#utility.yul\":7812:7821   */\n  dup4\n    /* \"#utility.yul\":7808:7826   */\n  add\n    /* \"#utility.yul\":7799:7805   */\n  dup6\n    /* \"#utility.yul\":7755:7827   */\n  tag_73\n  jump\t// in\ntag_166:\n    /* \"#utility.yul\":7837:7909   */\n  tag_167\n    /* \"#utility.yul\":7905:7907   */\n  0x40\n    /* \"#utility.yul\":7894:7903   */\n  dup4\n    /* \"#utility.yul\":7890:7908   */\n  add\n    /* \"#utility.yul\":7881:7887   */\n  dup5\n    /* \"#utility.yul\":7837:7909   */\n  tag_73\n  jump\t// in\ntag_167:\n    /* \"#utility.yul\":7474:7916   */\n  swap5\n  swap4\n  pop\n  pop\n  pop\n  pop\n  jump\t// out\n    /* \"#utility.yul\":7922:8144   */\ntag_43:\n    /* \"#utility.yul\":8015:8019   */\n  0x00\n    /* \"#utility.yul\":8053:8055   */\n  0x20\n    /* \"#utility.yul\":8042:8051   */\n  dup3\n    /* \"#utility.yul\":8038:8056   */\n  add\n    /* \"#utility.yul\":8030:8056   */\n  swap1\n  pop\n    /* \"#utility.yul\":8066:8137   */\n  tag_169\n    /* \"#utility.yul\":8134:8135   */\n  0x00\n    /* \"#utility.yul\":8123:8132   */\n  dup4\n    /* \"#utility.yul\":8119:8136   */\n  add\n    /* \"#utility.yul\":8110:8116   */\n  dup5\n    /* \"#utility.yul\":8066:8137   */\n  tag_73\n  jump\t// in\ntag_169:\n    /* \"#utility.yul\":7922:8144   */\n  swap3\n  swap2\n  pop\n  pop\n  jump\t// out\n    /* \"contracts/bettoken.sol\":379:7429  contract Bettoken is ERC20, Ownable, ReentrancyGuard {... */\ntag_25:\n  dataSize(sub_0)\n  dup1\n  dataOffset(sub_0)\n  0x00\n  codecopy\n  0x00\n  return\nstop\n\nsub_0: assembly {\n        /* \"contracts/bettoken.sol\":379:7429  contract Bettoken is ERC20, Ownable, ReentrancyGuard {... */\n      mstore(0x40, 0x80)\n      jumpi(tag_1, lt(calldatasize, 0x04))\n      shr(0xe0, calldataload(0x00))\n      dup1\n      0x70a08231\n      gt\n      tag_39\n      jumpi\n      dup1\n      0xb0e68630\n      gt\n      tag_40\n      jumpi\n      dup1\n      0xc040e6b8\n      gt\n      tag_41\n      jumpi\n      dup1\n      0xc040e6b8\n      eq\n      tag_34\n      jumpi\n      dup1\n      0xc552e04b\n      eq\n      tag_35\n      jumpi\n      dup1\n      0xdd62ed3e\n      eq\n      tag_36\n      jumpi\n      dup1\n      0xe6bd92b9\n      eq\n      tag_37\n      jumpi\n      dup1\n      0xf2fde38b\n      eq\n      tag_38\n      jumpi\n      jump(tag_2)\n    tag_41:\n      dup1\n      0xb0e68630\n      eq\n      tag_30\n      jumpi\n      dup1\n      0xb68ed11f\n      eq\n      tag_31\n      jumpi\n      dup1\n      0xba20cf4c\n      eq\n      tag_32\n      jumpi\n      dup1\n      0xbda95633\n      eq\n      tag_33\n      jumpi\n      jump(tag_2)\n    tag_40:\n      dup1\n      0x8f7713ff\n      gt\n      tag_42\n      jumpi\n      dup1\n      0x8f7713ff\n      eq\n      tag_25\n      jumpi\n      dup1\n      0x902d55a5\n      eq\n      tag_26\n      jumpi\n      dup1\n      0x920168b3\n      eq\n      tag_27\n      jumpi\n      dup1\n      0x95d89b41\n      eq\n      tag_28\n      jumpi\n      dup1\n      0xa9059cbb\n      eq\n      tag_29\n      jumpi\n      jump(tag_2)\n    tag_42:\n      dup1\n      0x70a08231\n      eq\n      tag_21\n      jumpi\n      dup1\n      0x715018a6\n      eq\n      tag_22\n      jumpi\n      dup1\n      0x7547c7a3\n      eq\n      tag_23\n      jumpi\n      dup1\n      0x8da5cb5b\n      eq\n      tag_24\n      jumpi\n      jump(tag_2)\n    tag_39:\n      dup1\n      0x2b1cbc38\n      gt\n      tag_43\n      jumpi\n      dup1\n      0x3610724e\n      gt\n      tag_44\n      jumpi\n      dup1\n      0x3610724e\n      eq\n      tag_16\n      jumpi\n      dup1\n      0x40f02ab6\n      eq\n      tag_17\n      jumpi\n      dup1\n      0x54dd1da4\n      eq\n      tag_18\n      jumpi\n      dup1\n      0x55dd574c\n      eq\n      tag_19\n      jumpi\n      dup1\n      0x5fb3b944\n      eq\n      tag_20\n      jumpi\n      jump(tag_2)\n    tag_44:\n      dup1\n      0x2b1cbc38\n      eq\n      tag_12\n      jumpi\n      dup1\n      0x313ce567\n      eq\n      tag_13\n      jumpi\n      dup1\n      0x32c85ac0\n      eq\n      tag_14\n      jumpi\n      dup1\n      0x338dbf59\n      eq\n      tag_15\n      jumpi\n      jump(tag_2)\n    tag_43:\n      dup1\n      0x18160ddd\n      gt\n      tag_45\n      jumpi\n      dup1\n      0x18160ddd\n      eq\n      tag_7\n      jumpi\n      dup1\n      0x192399d1\n      eq\n      tag_8\n      jumpi\n      dup1\n      0x23b872dd\n      eq\n      tag_9\n      jumpi\n      dup1\n      0x24600fc3\n      eq\n      tag_10\n      jumpi\n      dup1\n      0x2630c12f\n      eq\n      tag_11\n      jumpi\n      jump(tag_2)\n    tag_45:\n      dup1\n      0x06fdde03\n      eq\n      tag_3\n      jumpi\n      dup1\n      0x095ea7b3\n      eq\n      tag_4\n      jumpi\n      dup1\n      0x0fe83bb8\n      eq\n      tag_5\n      jumpi\n      dup1\n      0x1514617e\n      eq\n      tag_6\n      jumpi\n      jump(tag_2)\n    tag_1:\n      jumpi(tag_2, calldatasize)\n        /* \"contracts/bettoken.sol\":7377:7420  revert(\"Direct ETH transfers not allowed.\") */\n      mload(0x40)\n      0x08c379a000000000000000000000000000000000000000000000000000000000\n      dup2\n      mstore\n      0x04\n      add\n      tag_48\n      swap1\n      tag_49\n      jump\t// in\n    tag_48:\n      mload(0x40)\n      dup1\n      swap2\n      sub\n      swap1\n      revert\n        /* \"contracts/bettoken.sol\":379:7429  contract Bettoken is ERC20, Ownable, ReentrancyGuard {... */\n    tag_2:\n        /* \"contracts/bettoken.sol\":7284:7327  revert(\"Direct ETH transfers not allowed.\") */\n      mload(0x40)\n      0x08c379a000000000000000000000000000000000000000000000000000000000\n      dup2\n      mstore\n      0x04\n      add\n      tag_52\n      swap1\n      tag_49\n      jump\t// in\n    tag_52:\n      mload(0x40)\n      dup1\n      swap2\n      sub\n      swap1\n      revert\n        /* \"@openzeppelin/contracts/token/ERC20/ERC20.sol\":2074:2163  function name() public view virtual returns (string memory) {... */\n    tag_3:\n      callvalue\n      dup1\n      iszero\n      tag_53\n      jumpi\n      0x00\n      dup1\n      revert\n    tag_53:\n      pop\n      tag_54\n      tag_55\n      jump\t// in\n    tag_54:\n      mload(0x40)\n      tag_56\n      swap2\n      swap1\n      tag_57\n      jump\t// in\n    tag_56:\n      mload(0x40)\n      dup1\n      swap2\n      sub\n      swap1\n      return\n        /* \"@openzeppelin/contracts/token/ERC20/ERC20.sol\":4293:4479  function approve(address spender, uint256 value) public virtual returns (bool) {... */\n    tag_4:\n      callvalue\n      dup1\n      iszero\n      tag_58\n      jumpi\n      0x00\n      dup1\n      revert\n    tag_58:\n      pop\n      tag_59\n      0x04\n      dup1\n      calldatasize\n      sub\n      dup2\n      add\n      swap1\n      tag_60\n      swap2\n      swap1\n      tag_61\n      jump\t// in\n    tag_60:\n      tag_62\n      jump\t// in\n    tag_59:\n      mload(0x40)\n      tag_63\n      swap2\n      swap1\n      tag_64\n      jump\t// in\n    tag_63:\n      mload(0x40)\n      dup1\n      swap2\n      sub\n      swap1\n      return\n        /* \"contracts/bettoken.sol\":1095:1148  uint256 public preSaleTokens = 161_164_236 * 10 ** 18 */\n    tag_5:\n      callvalue\n      dup1\n      iszero\n      tag_65\n      jumpi\n      0x00\n      dup1\n      revert\n    tag_65:\n      pop\n      tag_66\n      tag_67\n      jump\t// in\n    tag_66:\n      mload(0x40)\n      tag_68\n      swap2\n      swap1\n      tag_69\n      jump\t// in\n    tag_68:\n      mload(0x40)\n      dup1\n      swap2\n      sub\n      swap1\n      return\n        /* \"contracts/bettoken.sol\":1622:1663  uint256 public vestingDuration = 180 days */\n    tag_6:\n      callvalue\n      dup1\n      iszero\n      tag_70\n      jumpi\n      0x00\n      dup1\n      revert\n    tag_70:\n      pop\n      tag_71\n      tag_72\n      jump\t// in\n    tag_71:\n      mload(0x40)\n      tag_73\n      swap2\n      swap1\n      tag_69\n      jump\t// in\n    tag_73:\n      mload(0x40)\n      dup1\n      swap2\n      sub\n      swap1\n      return\n        /* \"@openzeppelin/contracts/token/ERC20/ERC20.sol\":3144:3241  function totalSupply() public view virtual returns (uint256) {... */\n    tag_7:\n      callvalue\n      dup1\n      iszero\n      tag_74\n      jumpi\n      0x00\n      dup1\n      revert\n    tag_74:\n      pop\n      tag_75\n      tag_76\n      jump\t// in\n    tag_75:\n      mload(0x40)\n      tag_77\n      swap2\n      swap1\n      tag_69\n      jump\t// in\n    tag_77:\n      mload(0x40)\n      dup1\n      swap2\n      sub\n      swap1\n      return\n        /* \"contracts/bettoken.sol\":1508:1557  mapping(address => uint256) public vestingBalance */\n    tag_8:\n      callvalue\n      dup1\n      iszero\n      tag_78\n      jumpi\n      0x00\n      dup1\n      revert\n    tag_78:\n      pop\n      tag_79\n      0x04\n      dup1\n      calldatasize\n      sub\n      dup2\n      add\n      swap1\n      tag_80\n      swap2\n      swap1\n      tag_81\n      jump\t// in\n    tag_80:\n      tag_82\n      jump\t// in\n    tag_79:\n      mload(0x40)\n      tag_83\n      swap2\n      swap1\n      tag_69\n      jump\t// in\n    tag_83:\n      mload(0x40)\n      dup1\n      swap2\n      sub\n      swap1\n      return\n        /* \"@openzeppelin/contracts/token/ERC20/ERC20.sol\":5039:5283  function transferFrom(address from, address to, uint256 value) public virtual returns (bool) {... */\n    tag_9:\n      callvalue\n      dup1\n      iszero\n      tag_84\n      jumpi\n      0x00\n      dup1\n      revert\n    tag_84:\n      pop\n      tag_85\n      0x04\n      dup1\n      calldatasize\n      sub\n      dup2\n      add\n      swap1\n      tag_86\n      swap2\n      swap1\n      tag_87\n      jump\t// in\n    tag_86:\n      tag_88\n      jump\t// in\n    tag_85:\n      mload(0x40)\n      tag_89\n      swap2\n      swap1\n      tag_64\n      jump\t// in\n    tag_89:\n      mload(0x40)\n      dup1\n      swap2\n      sub\n      swap1\n      return\n        /* \"contracts/bettoken.sol\":7118:7240  function withdrawFunds() external onlyOwner nonReentrant {... */\n    tag_10:\n      callvalue\n      dup1\n      iszero\n      tag_90\n      jumpi\n      0x00\n      dup1\n      revert\n    tag_90:\n      pop\n      tag_91\n      tag_92\n      jump\t// in\n    tag_91:\n      stop\n        /* \"contracts/bettoken.sol\":1733:1764  IPriceOracle public priceOracle */\n    tag_11:\n      callvalue\n      dup1\n      iszero\n      tag_93\n      jumpi\n      0x00\n      dup1\n      revert\n    tag_93:\n      pop\n      tag_94\n      tag_95\n      jump\t// in\n    tag_94:\n      mload(0x40)\n      tag_96\n      swap2\n      swap1\n      tag_97\n      jump\t// in\n    tag_96:\n      mload(0x40)\n      dup1\n      swap2\n      sub\n      swap1\n      return\n        /* \"contracts/bettoken.sol\":1563:1616  mapping(address => uint256) public vestingReleaseTime */\n    tag_12:\n      callvalue\n      dup1\n      iszero\n      tag_98\n      jumpi\n      0x00\n      dup1\n      revert\n    tag_98:\n      pop\n      tag_99\n      0x04\n      dup1\n      calldatasize\n      sub\n      dup2\n      add\n      swap1\n      tag_100\n      swap2\n      swap1\n      tag_81\n      jump\t// in\n    tag_100:\n      tag_101\n      jump\t// in\n    tag_99:\n      mload(0x40)\n      tag_102\n      swap2\n      swap1\n      tag_69\n      jump\t// in\n    tag_102:\n      mload(0x40)\n      dup1\n      swap2\n      sub\n      swap1\n      return\n        /* \"@openzeppelin/contracts/token/ERC20/ERC20.sol\":3002:3084  function decimals() public view virtual returns (uint8) {... */\n    tag_13:\n      callvalue\n      dup1\n      iszero\n      tag_103\n      jumpi\n      0x00\n      dup1\n      revert\n    tag_103:\n      pop\n      tag_104\n      tag_105\n      jump\t// in\n    tag_104:\n      mload(0x40)\n      tag_106\n      swap2\n      swap1\n      tag_107\n      jump\t// in\n    tag_106:\n      mload(0x40)\n      dup1\n      swap2\n      sub\n      swap1\n      return\n        /* \"contracts/bettoken.sol\":6887:7112  function haltSales() external onlyOwner {... */\n    tag_14:\n      callvalue\n      dup1\n      iszero\n      tag_108\n      jumpi\n      0x00\n      dup1\n      revert\n    tag_108:\n      pop\n      tag_109\n      tag_110\n      jump\t// in\n    tag_109:\n      stop\n        /* \"contracts/bettoken.sol\":2329:2510  function startPrivateSale() external onlyOwner {... */\n    tag_15:\n      callvalue\n      dup1\n      iszero\n      tag_111\n      jumpi\n      0x00\n      dup1\n      revert\n    tag_111:\n      pop\n      tag_112\n      tag_113\n      jump\t// in\n    tag_112:\n      stop\n        /* \"contracts/bettoken.sol\":2792:4386  function buyTokens(uint256 usdAmount) external payable nonReentrant {... */\n    tag_16:\n      tag_114\n      0x04\n      dup1\n      calldatasize\n      sub\n      dup2\n      add\n      swap1\n      tag_115\n      swap2\n      swap1\n      tag_116\n      jump\t// in\n    tag_115:\n      tag_117\n      jump\t// in\n    tag_114:\n      stop\n        /* \"contracts/bettoken.sol\":1677:1716  uint256 public stakeDuration = 365 days */\n    tag_17:\n      callvalue\n      dup1\n      iszero\n      tag_118\n      jumpi\n      0x00\n      dup1\n      revert\n    tag_118:\n      pop\n      tag_119\n      tag_120\n      jump\t// in\n    tag_119:\n      mload(0x40)\n      tag_121\n      swap2\n      swap1\n      tag_69\n      jump\t// in\n    tag_121:\n      mload(0x40)\n      dup1\n      swap2\n      sub\n      swap1\n      return\n        /* \"contracts/bettoken.sol\":6298:6881  function releaseVestedTokens() external nonReentrant {... */\n    tag_18:\n      callvalue\n      dup1\n      iszero\n      tag_122\n      jumpi\n      0x00\n      dup1\n      revert\n    tag_122:\n      pop\n      tag_123\n      tag_124\n      jump\t// in\n    tag_123:\n      stop\n        /* \"contracts/bettoken.sol\":2516:2786  function startPreSale() external onlyOwner {... */\n    tag_19:\n      callvalue\n      dup1\n      iszero\n      tag_125\n      jumpi\n      0x00\n      dup1\n      revert\n    tag_125:\n      pop\n      tag_126\n      tag_127\n      jump\t// in\n    tag_126:\n      stop\n        /* \"contracts/bettoken.sol\":939:979  uint256 public privateSaleSoldTokens = 0 */\n    tag_20:\n      callvalue\n      dup1\n      iszero\n      tag_128\n      jumpi\n      0x00\n      dup1\n      revert\n    tag_128:\n      pop\n      tag_129\n      tag_130\n      jump\t// in\n    tag_129:\n      mload(0x40)\n      tag_131\n      swap2\n      swap1\n      tag_69\n      jump\t// in\n    tag_131:\n      mload(0x40)\n      dup1\n      swap2\n      sub\n      swap1\n      return\n        /* \"@openzeppelin/contracts/token/ERC20/ERC20.sol\":3299:3415  function balanceOf(address account) public view virtual returns (uint256) {... */\n    tag_21:\n      callvalue\n      dup1\n      iszero\n      tag_132\n      jumpi\n      0x00\n      dup1\n      revert\n    tag_132:\n      pop\n      tag_133\n      0x04\n      dup1\n      calldatasize\n      sub\n      dup2\n      add\n      swap1\n      tag_134\n      swap2\n      swap1\n      tag_81\n      jump\t// in\n    tag_134:\n      tag_135\n      jump\t// in\n    tag_133:\n      mload(0x40)\n      tag_136\n      swap2\n      swap1\n      tag_69\n      jump\t// in\n    tag_136:\n      mload(0x40)\n      dup1\n      swap2\n      sub\n      swap1\n      return\n        /* \"@openzeppelin/contracts/access/Ownable.sol\":2293:2394  function renounceOwnership() public virtual onlyOwner {... */\n    tag_22:\n      callvalue\n      dup1\n      iszero\n      tag_137\n      jumpi\n      0x00\n      dup1\n      revert\n    tag_137:\n      pop\n      tag_138\n      tag_139\n      jump\t// in\n    tag_138:\n      stop\n        /* \"contracts/bettoken.sol\":5791:6292  function stakeTokens(uint256 amount) external nonReentrant {... */\n    tag_23:\n      callvalue\n      dup1\n      iszero\n      tag_140\n      jumpi\n      0x00\n      dup1\n      revert\n    tag_140:\n      pop\n      tag_141\n      0x04\n      dup1\n      calldatasize\n      sub\n      dup2\n      add\n      swap1\n      tag_142\n      swap2\n      swap1\n      tag_116\n      jump\t// in\n    tag_142:\n      tag_143\n      jump\t// in\n    tag_141:\n      stop\n        /* \"@openzeppelin/contracts/access/Ownable.sol\":1638:1723  function owner() public view virtual returns (address) {... */\n    tag_24:\n      callvalue\n      dup1\n      iszero\n      tag_144\n      jumpi\n      0x00\n      dup1\n      revert\n    tag_144:\n      pop\n      tag_145\n      tag_146\n      jump\t// in\n    tag_145:\n      mload(0x40)\n      tag_147\n      swap2\n      swap1\n      tag_148\n      jump\t// in\n    tag_147:\n      mload(0x40)\n      dup1\n      swap2\n      sub\n      swap1\n      return\n        /* \"contracts/bettoken.sol\":1255:1302  uint256 public preSaleEndPrice = 0.1 * 10 ** 18 */\n    tag_25:\n      callvalue\n      dup1\n      iszero\n      tag_149\n      jumpi\n      0x00\n      dup1\n      revert\n    tag_149:\n      pop\n      tag_150\n      tag_151\n      jump\t// in\n    tag_150:\n      mload(0x40)\n      tag_152\n      swap2\n      swap1\n      tag_69\n      jump\t// in\n    tag_152:\n      mload(0x40)\n      dup1\n      swap2\n      sub\n      swap1\n      return\n        /* \"contracts/bettoken.sol\":472:533  uint256 public constant TOTAL_SUPPLY = 200_000_000 * 10 ** 18 */\n    tag_26:\n      callvalue\n      dup1\n      iszero\n      tag_153\n      jumpi\n      0x00\n      dup1\n      revert\n    tag_153:\n      pop\n      tag_154\n      tag_155\n      jump\t// in\n    tag_154:\n      mload(0x40)\n      tag_156\n      swap2\n      swap1\n      tag_69\n      jump\t// in\n    tag_156:\n      mload(0x40)\n      dup1\n      swap2\n      sub\n      swap1\n      return\n        /* \"contracts/bettoken.sol\":1174:1226  uint256 public preSaleStartPrice = 0.0505 * 10 ** 18 */\n    tag_27:\n      callvalue\n      dup1\n      iszero\n      tag_157\n      jumpi\n      0x00\n      dup1\n      revert\n    tag_157:\n      pop\n      tag_158\n      tag_159\n      jump\t// in\n    tag_158:\n      mload(0x40)\n      tag_160\n      swap2\n      swap1\n      tag_69\n      jump\t// in\n    tag_160:\n      mload(0x40)\n      dup1\n      swap2\n      sub\n      swap1\n      return\n        /* \"@openzeppelin/contracts/token/ERC20/ERC20.sol\":2276:2369  function symbol() public view virtual returns (string memory) {... */\n    tag_28:\n      callvalue\n      dup1\n      iszero\n      tag_161\n      jumpi\n      0x00\n      dup1\n      revert\n    tag_161:\n      pop\n      tag_162\n      tag_163\n      jump\t// in\n    tag_162:\n      mload(0x40)\n      tag_164\n      swap2\n      swap1\n      tag_57\n      jump\t// in\n    tag_164:\n      mload(0x40)\n      dup1\n      swap2\n      sub\n      swap1\n      return\n        /* \"@openzeppelin/contracts/token/ERC20/ERC20.sol\":3610:3788  function transfer(address to, uint256 value) public virtual returns (bool) {... */\n    tag_29:\n      callvalue\n      dup1\n      iszero\n      tag_165\n      jumpi\n      0x00\n      dup1\n      revert\n    tag_165:\n      pop\n      tag_166\n      0x04\n      dup1\n      calldatasize\n      sub\n      dup2\n      add\n      swap1\n      tag_167\n      swap2\n      swap1\n      tag_61\n      jump\t// in\n    tag_167:\n      tag_168\n      jump\t// in\n    tag_166:\n      mload(0x40)\n      tag_169\n      swap2\n      swap1\n      tag_64\n      jump\t// in\n    tag_169:\n      mload(0x40)\n      dup1\n      swap2\n      sub\n      swap1\n      return\n        /* \"contracts/bettoken.sol\":773:828  uint256 public privateSaleStartPrice = 0.001 * 10 ** 18 */\n    tag_30:\n      callvalue\n      dup1\n      iszero\n      tag_170\n      jumpi\n      0x00\n      dup1\n      revert\n    tag_170:\n      pop\n      tag_171\n      tag_172\n      jump\t// in\n    tag_171:\n      mload(0x40)\n      tag_173\n      swap2\n      swap1\n      tag_69\n      jump\t// in\n    tag_173:\n      mload(0x40)\n      dup1\n      swap2\n      sub\n      swap1\n      return\n        /* \"contracts/bettoken.sol\":1328:1364  uint256 public preSaleSoldTokens = 0 */\n    tag_31:\n      callvalue\n      dup1\n      iszero\n      tag_174\n      jumpi\n      0x00\n      dup1\n      revert\n    tag_174:\n      pop\n      tag_175\n      tag_176\n      jump\t// in\n    tag_175:\n      mload(0x40)\n      tag_177\n      swap2\n      swap1\n      tag_69\n      jump\t// in\n    tag_177:\n      mload(0x40)\n      dup1\n      swap2\n      sub\n      swap1\n      return\n        /* \"contracts/bettoken.sol\":607:662  uint256 public privateSaleTarget = 1_000_000 * 10 ** 18 */\n    tag_32:\n      callvalue\n      dup1\n      iszero\n      tag_178\n      jumpi\n      0x00\n      dup1\n      revert\n    tag_178:\n      pop\n      tag_179\n      tag_180\n      jump\t// in\n    tag_179:\n      mload(0x40)\n      tag_181\n      swap2\n      swap1\n      tag_69\n      jump\t// in\n    tag_181:\n      mload(0x40)\n      dup1\n      swap2\n      sub\n      swap1\n      return\n        /* \"contracts/bettoken.sol\":856:910  uint256 public privateSaleEndPrice = 0.0505 * 10 ** 18 */\n    tag_33:\n      callvalue\n      dup1\n      iszero\n      tag_182\n      jumpi\n      0x00\n      dup1\n      revert\n    tag_182:\n      pop\n      tag_183\n      tag_184\n      jump\t// in\n    tag_183:\n      mload(0x40)\n      tag_185\n      swap2\n      swap1\n      tag_69\n      jump\t// in\n    tag_185:\n      mload(0x40)\n      dup1\n      swap2\n      sub\n      swap1\n      return\n        /* \"contracts/bettoken.sol\":1436:1475  SaleStage public stage = SaleStage.NONE */\n    tag_34:\n      callvalue\n      dup1\n      iszero\n      tag_186\n      jumpi\n      0x00\n      dup1\n      revert\n    tag_186:\n      pop\n      tag_187\n      tag_188\n      jump\t// in\n    tag_187:\n      mload(0x40)\n      tag_189\n      swap2\n      swap1\n      tag_190\n      jump\t// in\n    tag_189:\n      mload(0x40)\n      dup1\n      swap2\n      sub\n      swap1\n      return\n        /* \"contracts/bettoken.sol\":692:748  uint256 public privateSaleTokens = 38_835_764 * 10 ** 18 */\n    tag_35:\n      callvalue\n      dup1\n      iszero\n      tag_191\n      jumpi\n      0x00\n      dup1\n      revert\n    tag_191:\n      pop\n      tag_192\n      tag_193\n      jump\t// in\n    tag_192:\n      mload(0x40)\n      tag_194\n      swap2\n      swap1\n      tag_69\n      jump\t// in\n    tag_194:\n      mload(0x40)\n      dup1\n      swap2\n      sub\n      swap1\n      return\n        /* \"@openzeppelin/contracts/token/ERC20/ERC20.sol\":3846:3986  function allowance(address owner, address spender) public view virtual returns (uint256) {... */\n    tag_36:\n      callvalue\n      dup1\n      iszero\n      tag_195\n      jumpi\n      0x00\n      dup1\n      revert\n    tag_195:\n      pop\n      tag_196\n      0x04\n      dup1\n      calldatasize\n      sub\n      dup2\n      add\n      swap1\n      tag_197\n      swap2\n      swap1\n      tag_198\n      jump\t// in\n    tag_197:\n      tag_199\n      jump\t// in\n    tag_196:\n      mload(0x40)\n      tag_200\n      swap2\n      swap1\n      tag_69\n      jump\t// in\n    tag_200:\n      mload(0x40)\n      dup1\n      swap2\n      sub\n      swap1\n      return\n        /* \"contracts/bettoken.sol\":1012:1064  uint256 public preSaleTarget = 19_000_000 * 10 ** 18 */\n    tag_37:\n      callvalue\n      dup1\n      iszero\n      tag_201\n      jumpi\n      0x00\n      dup1\n      revert\n    tag_201:\n      pop\n      tag_202\n      tag_203\n      jump\t// in\n    tag_202:\n      mload(0x40)\n      tag_204\n      swap2\n      swap1\n      tag_69\n      jump\t// in\n    tag_204:\n      mload(0x40)\n      dup1\n      swap2\n      sub\n      swap1\n      return\n        /* \"@openzeppelin/contracts/access/Ownable.sol\":2543:2758  function transferOwnership(address newOwner) public virtual onlyOwner {... */\n    tag_38:\n      callvalue\n      dup1\n      iszero\n      tag_205\n      jumpi\n      0x00\n      dup1\n      revert\n    tag_205:\n      pop\n      tag_206\n      0x04\n      dup1\n      calldatasize\n      sub\n      dup2\n      add\n      swap1\n      tag_207\n      swap2\n      swap1\n      tag_81\n      jump\t// in\n    tag_207:\n      tag_208\n      jump\t// in\n    tag_206:\n      stop\n        /* \"@openzeppelin/contracts/token/ERC20/ERC20.sol\":2074:2163  function name() public view virtual returns (string memory) {... */\n    tag_55:\n        /* \"@openzeppelin/contracts/token/ERC20/ERC20.sol\":2119:2132  string memory */\n      0x60\n        /* \"@openzeppelin/contracts/token/ERC20/ERC20.sol\":2151:2156  _name */\n      0x03\n        /* \"@openzeppelin/contracts/token/ERC20/ERC20.sol\":2144:2156  return _name */\n      dup1\n      sload\n      tag_210\n      swap1\n      tag_211\n      jump\t// in\n    tag_210:\n      dup1\n      0x1f\n      add\n      0x20\n      dup1\n      swap2\n      div\n      mul\n      0x20\n      add\n      mload(0x40)\n      swap1\n      dup2\n      add\n      0x40\n      mstore\n      dup1\n      swap3\n      swap2\n      swap1\n      dup2\n      dup2\n      mstore\n      0x20\n      add\n      dup3\n      dup1\n      sload\n      tag_212\n      swap1\n      tag_211\n      jump\t// in\n    tag_212:\n      dup1\n      iszero\n      tag_213\n      jumpi\n      dup1\n      0x1f\n      lt\n      tag_214\n      jumpi\n      0x0100\n      dup1\n      dup4\n      sload\n      div\n      mul\n      dup4\n      mstore\n      swap2\n      0x20\n      add\n      swap2\n      jump(tag_213)\n    tag_214:\n      dup3\n      add\n      swap2\n      swap1\n      0x00\n      mstore\n      keccak256(0x00, 0x20)\n      swap1\n    tag_215:\n      dup2\n      sload\n      dup2\n      mstore\n      swap1\n      0x01\n      add\n      swap1\n      0x20\n      add\n      dup1\n      dup4\n      gt\n      tag_215\n      jumpi\n      dup3\n      swap1\n      sub\n      0x1f\n      and\n      dup3\n      add\n      swap2\n    tag_213:\n      pop\n      pop\n      pop\n      pop\n      pop\n      swap1\n      pop\n        /* \"@openzeppelin/contracts/token/ERC20/ERC20.sol\":2074:2163  function name() public view virtual returns (string memory) {... */\n      swap1\n      jump\t// out\n        /* \"@openzeppelin/contracts/token/ERC20/ERC20.sol\":4293:4479  function approve(address spender, uint256 value) public virtual returns (bool) {... */\n    tag_62:\n        /* \"@openzeppelin/contracts/token/ERC20/ERC20.sol\":4366:4370  bool */\n      0x00\n        /* \"@openzeppelin/contracts/token/ERC20/ERC20.sol\":4382:4395  address owner */\n      dup1\n        /* \"@openzeppelin/contracts/token/ERC20/ERC20.sol\":4398:4410  _msgSender() */\n      tag_217\n        /* \"@openzeppelin/contracts/token/ERC20/ERC20.sol\":4398:4408  _msgSender */\n      tag_218\n        /* \"@openzeppelin/contracts/token/ERC20/ERC20.sol\":4398:4410  _msgSender() */\n      jump\t// in\n    tag_217:\n        /* \"@openzeppelin/contracts/token/ERC20/ERC20.sol\":4382:4410  address owner = _msgSender() */\n      swap1\n      pop\n        /* \"@openzeppelin/contracts/token/ERC20/ERC20.sol\":4420:4451  _approve(owner, spender, value) */\n      tag_219\n        /* \"@openzeppelin/contracts/token/ERC20/ERC20.sol\":4429:4434  owner */\n      dup2\n        /* \"@openzeppelin/contracts/token/ERC20/ERC20.sol\":4436:4443  spender */\n      dup6\n        /* \"@openzeppelin/contracts/token/ERC20/ERC20.sol\":4445:4450  value */\n      dup6\n        /* \"@openzeppelin/contracts/token/ERC20/ERC20.sol\":4420:4428  _approve */\n      tag_220\n        /* \"@openzeppelin/contracts/token/ERC20/ERC20.sol\":4420:4451  _approve(owner, spender, value) */\n      jump\t// in\n    tag_219:\n        /* \"@openzeppelin/contracts/token/ERC20/ERC20.sol\":4468:4472  true */\n      0x01\n        /* \"@openzeppelin/contracts/token/ERC20/ERC20.sol\":4461:4472  return true */\n      swap2\n      pop\n      pop\n        /* \"@openzeppelin/contracts/token/ERC20/ERC20.sol\":4293:4479  function approve(address spender, uint256 value) public virtual returns (bool) {... */\n      swap3\n      swap2\n      pop\n      pop\n      jump\t// out\n        /* \"contracts/bettoken.sol\":1095:1148  uint256 public preSaleTokens = 161_164_236 * 10 ** 18 */\n    tag_67:\n      sload(0x0d)\n      dup2\n      jump\t// out\n        /* \"contracts/bettoken.sol\":1622:1663  uint256 public vestingDuration = 180 days */\n    tag_72:\n      sload(0x14)\n      dup2\n      jump\t// out\n        /* \"@openzeppelin/contracts/token/ERC20/ERC20.sol\":3144:3241  function totalSupply() public view virtual returns (uint256) {... */\n    tag_76:\n        /* \"@openzeppelin/contracts/token/ERC20/ERC20.sol\":3196:3203  uint256 */\n      0x00\n        /* \"@openzeppelin/contracts/token/ERC20/ERC20.sol\":3222:3234  _totalSupply */\n      sload(0x02)\n        /* \"@openzeppelin/contracts/token/ERC20/ERC20.sol\":3215:3234  return _totalSupply */\n      swap1\n      pop\n        /* \"@openzeppelin/contracts/token/ERC20/ERC20.sol\":3144:3241  function totalSupply() public view virtual returns (uint256) {... */\n      swap1\n      jump\t// out\n        /* \"contracts/bettoken.sol\":1508:1557  mapping(address => uint256) public vestingBalance */\n    tag_82:\n      mstore(0x20, 0x12)\n      dup1\n      0x00\n      mstore\n      keccak256(0x00, 0x40)\n      0x00\n      swap2\n      pop\n      swap1\n      pop\n      sload\n      dup2\n      jump\t// out\n        /* \"@openzeppelin/contracts/token/ERC20/ERC20.sol\":5039:5283  function transferFrom(address from, address to, uint256 value) public virtual returns (bool) {... */\n    tag_88:\n        /* \"@openzeppelin/contracts/token/ERC20/ERC20.sol\":5126:5130  bool */\n      0x00\n        /* \"@openzeppelin/contracts/token/ERC20/ERC20.sol\":5142:5157  address spender */\n      dup1\n        /* \"@openzeppelin/contracts/token/ERC20/ERC20.sol\":5160:5172  _msgSender() */\n      tag_223\n        /* \"@openzeppelin/contracts/token/ERC20/ERC20.sol\":5160:5170  _msgSender */\n      tag_218\n        /* \"@openzeppelin/contracts/token/ERC20/ERC20.sol\":5160:5172  _msgSender() */\n      jump\t// in\n    tag_223:\n        /* \"@openzeppelin/contracts/token/ERC20/ERC20.sol\":5142:5172  address spender = _msgSender() */\n      swap1\n      pop\n        /* \"@openzeppelin/contracts/token/ERC20/ERC20.sol\":5182:5219  _spendAllowance(from, spender, value) */\n      tag_224\n        /* \"@openzeppelin/contracts/token/ERC20/ERC20.sol\":5198:5202  from */\n      dup6\n        /* \"@openzeppelin/contracts/token/ERC20/ERC20.sol\":5204:5211  spender */\n      dup3\n        /* \"@openzeppelin/contracts/token/ERC20/ERC20.sol\":5213:5218  value */\n      dup6\n        /* \"@openzeppelin/contracts/token/ERC20/ERC20.sol\":5182:5197  _spendAllowance */\n      tag_225\n        /* \"@openzeppelin/contracts/token/ERC20/ERC20.sol\":5182:5219  _spendAllowance(from, spender, value) */\n      jump\t// in\n    tag_224:\n        /* \"@openzeppelin/contracts/token/ERC20/ERC20.sol\":5229:5255  _transfer(from, to, value) */\n      tag_226\n        /* \"@openzeppelin/contracts/token/ERC20/ERC20.sol\":5239:5243  from */\n      dup6\n        /* \"@openzeppelin/contracts/token/ERC20/ERC20.sol\":5245:5247  to */\n      dup6\n        /* \"@openzeppelin/contracts/token/ERC20/ERC20.sol\":5249:5254  value */\n      dup6\n        /* \"@openzeppelin/contracts/token/ERC20/ERC20.sol\":5229:5238  _transfer */\n      tag_227\n        /* \"@openzeppelin/contracts/token/ERC20/ERC20.sol\":5229:5255  _transfer(from, to, value) */\n      jump\t// in\n    tag_226:\n        /* \"@openzeppelin/contracts/token/ERC20/ERC20.sol\":5272:5276  true */\n      0x01\n        /* \"@openzeppelin/contracts/token/ERC20/ERC20.sol\":5265:5276  return true */\n      swap2\n      pop\n      pop\n        /* \"@openzeppelin/contracts/token/ERC20/ERC20.sol\":5039:5283  function transferFrom(address from, address to, uint256 value) public virtual returns (bool) {... */\n      swap4\n      swap3\n      pop\n      pop\n      pop\n      jump\t// out\n        /* \"contracts/bettoken.sol\":7118:7240  function withdrawFunds() external onlyOwner nonReentrant {... */\n    tag_92:\n        /* \"@openzeppelin/contracts/access/Ownable.sol\":1531:1544  _checkOwner() */\n      tag_229\n        /* \"@openzeppelin/contracts/access/Ownable.sol\":1531:1542  _checkOwner */\n      tag_230\n        /* \"@openzeppelin/contracts/access/Ownable.sol\":1531:1544  _checkOwner() */\n      jump\t// in\n    tag_229:\n        /* \"@openzeppelin/contracts/security/ReentrancyGuard.sol\":2261:2282  _nonReentrantBefore() */\n      tag_232\n        /* \"@openzeppelin/contracts/security/ReentrancyGuard.sol\":2261:2280  _nonReentrantBefore */\n      tag_233\n        /* \"@openzeppelin/contracts/security/ReentrancyGuard.sol\":2261:2282  _nonReentrantBefore() */\n      jump\t// in\n    tag_232:\n        /* \"contracts/bettoken.sol\":7193:7200  owner() */\n      tag_235\n        /* \"contracts/bettoken.sol\":7193:7198  owner */\n      tag_146\n        /* \"contracts/bettoken.sol\":7193:7200  owner() */\n      jump\t// in\n    tag_235:\n        /* \"contracts/bettoken.sol\":7185:7210  payable(owner()).transfer */\n      0xffffffffffffffffffffffffffffffffffffffff\n      and\n        /* \"contracts/bettoken.sol\":7185:7233  payable(owner()).transfer(address(this).balance) */\n      0x08fc\n        /* \"contracts/bettoken.sol\":7211:7232  address(this).balance */\n      selfbalance\n        /* \"contracts/bettoken.sol\":7185:7233  payable(owner()).transfer(address(this).balance) */\n      swap1\n      dup2\n      iszero\n      mul\n      swap1\n      mload(0x40)\n      0x00\n      mload(0x40)\n      dup1\n      dup4\n      sub\n      dup2\n      dup6\n      dup9\n      dup9\n      call\n      swap4\n      pop\n      pop\n      pop\n      pop\n      iszero\n      dup1\n      iszero\n      tag_237\n      jumpi\n      returndatasize\n      0x00\n      dup1\n      returndatacopy\n      revert(0x00, returndatasize)\n    tag_237:\n      pop\n        /* \"@openzeppelin/contracts/security/ReentrancyGuard.sol\":2303:2323  _nonReentrantAfter() */\n      tag_238\n        /* \"@openzeppelin/contracts/security/ReentrancyGuard.sol\":2303:2321  _nonReentrantAfter */\n      tag_239\n        /* \"@openzeppelin/contracts/security/ReentrancyGuard.sol\":2303:2323  _nonReentrantAfter() */\n      jump\t// in\n    tag_238:\n        /* \"contracts/bettoken.sol\":7118:7240  function withdrawFunds() external onlyOwner nonReentrant {... */\n      jump\t// out\n        /* \"contracts/bettoken.sol\":1733:1764  IPriceOracle public priceOracle */\n    tag_95:\n      0x16\n      0x00\n      swap1\n      sload\n      swap1\n      0x0100\n      exp\n      swap1\n      div\n      0xffffffffffffffffffffffffffffffffffffffff\n      and\n      dup2\n      jump\t// out\n        /* \"contracts/bettoken.sol\":1563:1616  mapping(address => uint256) public vestingReleaseTime */\n    tag_101:\n      mstore(0x20, 0x13)\n      dup1\n      0x00\n      mstore\n      keccak256(0x00, 0x40)\n      0x00\n      swap2\n      pop\n      swap1\n      pop\n      sload\n      dup2\n      jump\t// out\n        /* \"@openzeppelin/contracts/token/ERC20/ERC20.sol\":3002:3084  function decimals() public view virtual returns (uint8) {... */\n    tag_105:\n        /* \"@openzeppelin/contracts/token/ERC20/ERC20.sol\":3051:3056  uint8 */\n      0x00\n        /* \"@openzeppelin/contracts/token/ERC20/ERC20.sol\":3075:3077  18 */\n      0x12\n        /* \"@openzeppelin/contracts/token/ERC20/ERC20.sol\":3068:3077  return 18 */\n      swap1\n      pop\n        /* \"@openzeppelin/contracts/token/ERC20/ERC20.sol\":3002:3084  function decimals() public view virtual returns (uint8) {... */\n      swap1\n      jump\t// out\n        /* \"contracts/bettoken.sol\":6887:7112  function haltSales() external onlyOwner {... */\n    tag_110:\n        /* \"@openzeppelin/contracts/access/Ownable.sol\":1531:1544  _checkOwner() */\n      tag_242\n        /* \"@openzeppelin/contracts/access/Ownable.sol\":1531:1542  _checkOwner */\n      tag_230\n        /* \"@openzeppelin/contracts/access/Ownable.sol\":1531:1544  _checkOwner() */\n      jump\t// in\n    tag_242:\n        /* \"contracts/bettoken.sol\":6970:6987  privateSaleTokens */\n      sload(0x08)\n        /* \"contracts/bettoken.sol\":6945:6966  privateSaleSoldTokens */\n      sload(0x0b)\n        /* \"contracts/bettoken.sol\":6945:6987  privateSaleSoldTokens == privateSaleTokens */\n      eq\n        /* \"contracts/bettoken.sol\":6945:7025  privateSaleSoldTokens == privateSaleTokens || preSaleSoldTokens == preSaleTokens */\n      dup1\n      tag_244\n      jumpi\n      pop\n        /* \"contracts/bettoken.sol\":7012:7025  preSaleTokens */\n      sload(0x0d)\n        /* \"contracts/bettoken.sol\":6991:7008  preSaleSoldTokens */\n      sload(0x10)\n        /* \"contracts/bettoken.sol\":6991:7025  preSaleSoldTokens == preSaleTokens */\n      eq\n        /* \"contracts/bettoken.sol\":6945:7025  privateSaleSoldTokens == privateSaleTokens || preSaleSoldTokens == preSaleTokens */\n    tag_244:\n        /* \"contracts/bettoken.sol\":6937:7073  require(privateSaleSoldTokens == privateSaleTokens || preSaleSoldTokens == preSaleTokens, ... */\n      tag_245\n      jumpi\n      mload(0x40)\n      0x08c379a000000000000000000000000000000000000000000000000000000000\n      dup2\n      mstore\n      0x04\n      add\n      tag_246\n      swap1\n      tag_247\n      jump\t// in\n    tag_246:\n      mload(0x40)\n      dup1\n      swap2\n      sub\n      swap1\n      revert\n    tag_245:\n        /* \"contracts/bettoken.sol\":7091:7105  SaleStage.NONE */\n      0x00\n        /* \"contracts/bettoken.sol\":7083:7088  stage */\n      0x11\n      0x00\n        /* \"contracts/bettoken.sol\":7083:7105  stage = SaleStage.NONE */\n      0x0100\n      exp\n      dup2\n      sload\n      dup2\n      0xff\n      mul\n      not\n      and\n      swap1\n      dup4\n      0x02\n      dup2\n      gt\n      iszero\n      tag_248\n      jumpi\n      tag_249\n      tag_250\n      jump\t// in\n    tag_249:\n    tag_248:\n      mul\n      or\n      swap1\n      sstore\n      pop\n        /* \"contracts/bettoken.sol\":6887:7112  function haltSales() external onlyOwner {... */\n      jump\t// out\n        /* \"contracts/bettoken.sol\":2329:2510  function startPrivateSale() external onlyOwner {... */\n    tag_113:\n        /* \"@openzeppelin/contracts/access/Ownable.sol\":1531:1544  _checkOwner() */\n      tag_252\n        /* \"@openzeppelin/contracts/access/Ownable.sol\":1531:1542  _checkOwner */\n      tag_230\n        /* \"@openzeppelin/contracts/access/Ownable.sol\":1531:1544  _checkOwner() */\n      jump\t// in\n    tag_252:\n        /* \"contracts/bettoken.sol\":2403:2417  SaleStage.NONE */\n      0x00\n        /* \"contracts/bettoken.sol\":2394:2417  stage == SaleStage.NONE */\n      0x02\n      dup2\n      gt\n      iszero\n      tag_254\n      jumpi\n      tag_255\n      tag_250\n      jump\t// in\n    tag_255:\n    tag_254:\n        /* \"contracts/bettoken.sol\":2394:2399  stage */\n      0x11\n      0x00\n      swap1\n      sload\n      swap1\n      0x0100\n      exp\n      swap1\n      div\n      0xff\n      and\n        /* \"contracts/bettoken.sol\":2394:2417  stage == SaleStage.NONE */\n      0x02\n      dup2\n      gt\n      iszero\n      tag_256\n      jumpi\n      tag_257\n      tag_250\n      jump\t// in\n    tag_257:\n    tag_256:\n      eq\n        /* \"contracts/bettoken.sol\":2386:2468  require(stage == SaleStage.NONE, \"Private Sale has already started or concluded.\") */\n      tag_258\n      jumpi\n      mload(0x40)\n      0x08c379a000000000000000000000000000000000000000000000000000000000\n      dup2\n      mstore\n      0x04\n      add\n      tag_259\n      swap1\n      tag_260\n      jump\t// in\n    tag_259:\n      mload(0x40)\n      dup1\n      swap2\n      sub\n      swap1\n      revert\n    tag_258:\n        /* \"contracts/bettoken.sol\":2486:2503  SaleStage.PRIVATE */\n      0x01\n        /* \"contracts/bettoken.sol\":2478:2483  stage */\n      0x11\n      0x00\n        /* \"contracts/bettoken.sol\":2478:2503  stage = SaleStage.PRIVATE */\n      0x0100\n      exp\n      dup2\n      sload\n      dup2\n      0xff\n      mul\n      not\n      and\n      swap1\n      dup4\n      0x02\n      dup2\n      gt\n      iszero\n      tag_261\n      jumpi\n      tag_262\n      tag_250\n      jump\t// in\n    tag_262:\n    tag_261:\n      mul\n      or\n      swap1\n      sstore\n      pop\n        /* \"contracts/bettoken.sol\":2329:2510  function startPrivateSale() external onlyOwner {... */\n      jump\t// out\n        /* \"contracts/bettoken.sol\":2792:4386  function buyTokens(uint256 usdAmount) external payable nonReentrant {... */\n    tag_117:\n        /* \"@openzeppelin/contracts/security/ReentrancyGuard.sol\":2261:2282  _nonReentrantBefore() */\n      tag_264\n        /* \"@openzeppelin/contracts/security/ReentrancyGuard.sol\":2261:2280  _nonReentrantBefore */\n      tag_233\n        /* \"@openzeppelin/contracts/security/ReentrancyGuard.sol\":2261:2282  _nonReentrantBefore() */\n      jump\t// in\n    tag_264:\n        /* \"contracts/bettoken.sol\":2887:2901  SaleStage.NONE */\n      0x00\n        /* \"contracts/bettoken.sol\":2878:2901  stage != SaleStage.NONE */\n      0x02\n      dup2\n      gt\n      iszero\n      tag_266\n      jumpi\n      tag_267\n      tag_250\n      jump\t// in\n    tag_267:\n    tag_266:\n        /* \"contracts/bettoken.sol\":2878:2883  stage */\n      0x11\n      0x00\n      swap1\n      sload\n      swap1\n      0x0100\n      exp\n      swap1\n      div\n      0xff\n      and\n        /* \"contracts/bettoken.sol\":2878:2901  stage != SaleStage.NONE */\n      0x02\n      dup2\n      gt\n      iszero\n      tag_268\n      jumpi\n      tag_269\n      tag_250\n      jump\t// in\n    tag_269:\n    tag_268:\n      sub\n        /* \"contracts/bettoken.sol\":2870:2924  require(stage != SaleStage.NONE, \"No sale is active.\") */\n      tag_270\n      jumpi\n      mload(0x40)\n      0x08c379a000000000000000000000000000000000000000000000000000000000\n      dup2\n      mstore\n      0x04\n      add\n      tag_271\n      swap1\n      tag_272\n      jump\t// in\n    tag_271:\n      mload(0x40)\n      dup1\n      swap2\n      sub\n      swap1\n      revert\n    tag_270:\n        /* \"contracts/bettoken.sol\":2935:2954  uint256 latestPrice */\n      0x00\n        /* \"contracts/bettoken.sol\":2957:2968  priceOracle */\n      0x16\n      0x00\n      swap1\n      sload\n      swap1\n      0x0100\n      exp\n      swap1\n      div\n      0xffffffffffffffffffffffffffffffffffffffff\n      and\n        /* \"contracts/bettoken.sol\":2957:2983  priceOracle.getLatestPrice */\n      0xffffffffffffffffffffffffffffffffffffffff\n      and\n      0x8e15f473\n        /* \"contracts/bettoken.sol\":2957:2985  priceOracle.getLatestPrice() */\n      mload(0x40)\n      dup2\n      0xffffffff\n      and\n      0xe0\n      shl\n      dup2\n      mstore\n      0x04\n      add\n      0x20\n      mload(0x40)\n      dup1\n      dup4\n      sub\n      dup2\n      dup7\n      gas\n      staticcall\n      iszero\n      dup1\n      iszero\n      tag_274\n      jumpi\n      returndatasize\n      0x00\n      dup1\n      returndatacopy\n      revert(0x00, returndatasize)\n    tag_274:\n      pop\n      pop\n      pop\n      pop\n      mload(0x40)\n      returndatasize\n      not(0x1f)\n      0x1f\n      dup3\n      add\n      and\n      dup3\n      add\n      dup1\n      0x40\n      mstore\n      pop\n      dup2\n      add\n      swap1\n      tag_275\n      swap2\n      swap1\n      tag_276\n      jump\t// in\n    tag_275:\n        /* \"contracts/bettoken.sol\":2935:2985  uint256 latestPrice = priceOracle.getLatestPrice() */\n      swap1\n      pop\n        /* \"contracts/bettoken.sol\":3053:3054  0 */\n      0x00\n        /* \"contracts/bettoken.sol\":3039:3050  latestPrice */\n      dup2\n        /* \"contracts/bettoken.sol\":3039:3054  latestPrice > 0 */\n      gt\n        /* \"contracts/bettoken.sol\":3031:3084  require(latestPrice > 0, \"Invalid price from oracle\") */\n      tag_277\n      jumpi\n      mload(0x40)\n      0x08c379a000000000000000000000000000000000000000000000000000000000\n      dup2\n      mstore\n      0x04\n      add\n      tag_278\n      swap1\n      tag_279\n      jump\t// in\n    tag_278:\n      mload(0x40)\n      dup1\n      swap2\n      sub\n      swap1\n      revert\n    tag_277:\n        /* \"contracts/bettoken.sol\":3095:3114  uint256 tokensToBuy */\n      0x00\n        /* \"contracts/bettoken.sol\":3137:3154  SaleStage.PRIVATE */\n      0x01\n        /* \"contracts/bettoken.sol\":3128:3154  stage == SaleStage.PRIVATE */\n      0x02\n      dup2\n      gt\n      iszero\n      tag_280\n      jumpi\n      tag_281\n      tag_250\n      jump\t// in\n    tag_281:\n    tag_280:\n        /* \"contracts/bettoken.sol\":3128:3133  stage */\n      0x11\n      0x00\n      swap1\n      sload\n      swap1\n      0x0100\n      exp\n      swap1\n      div\n      0xff\n      and\n        /* \"contracts/bettoken.sol\":3128:3154  stage == SaleStage.PRIVATE */\n      0x02\n      dup2\n      gt\n      iszero\n      tag_282\n      jumpi\n      tag_283\n      tag_250\n      jump\t// in\n    tag_283:\n    tag_282:\n      sub\n        /* \"contracts/bettoken.sol\":3124:4380  if (stage == SaleStage.PRIVATE) {... */\n      tag_284\n      jumpi\n        /* \"contracts/bettoken.sol\":3202:3219  privateSaleTokens */\n      sload(0x08)\n        /* \"contracts/bettoken.sol\":3178:3199  privateSaleSoldTokens */\n      sload(0x0b)\n        /* \"contracts/bettoken.sol\":3178:3219  privateSaleSoldTokens < privateSaleTokens */\n      lt\n        /* \"contracts/bettoken.sol\":3170:3246  require(privateSaleSoldTokens < privateSaleTokens, \"Private Sale sold out.\") */\n      tag_285\n      jumpi\n      mload(0x40)\n      0x08c379a000000000000000000000000000000000000000000000000000000000\n      dup2\n      mstore\n      0x04\n      add\n      tag_286\n      swap1\n      tag_287\n      jump\t// in\n    tag_286:\n      mload(0x40)\n      dup1\n      swap2\n      sub\n      swap1\n      revert\n    tag_285:\n        /* \"contracts/bettoken.sol\":3274:3341  calculatePrivateSaleTokens(usdAmount.mul(latestPrice).div(1 ether)) */\n      tag_288\n        /* \"contracts/bettoken.sol\":3301:3340  usdAmount.mul(latestPrice).div(1 ether) */\n      tag_289\n        /* \"contracts/bettoken.sol\":3332:3339  1 ether */\n      0x0de0b6b3a7640000\n        /* \"contracts/bettoken.sol\":3301:3327  usdAmount.mul(latestPrice) */\n      tag_290\n        /* \"contracts/bettoken.sol\":3315:3326  latestPrice */\n      dup6\n        /* \"contracts/bettoken.sol\":3301:3310  usdAmount */\n      dup8\n        /* \"contracts/bettoken.sol\":3301:3314  usdAmount.mul */\n      tag_291\n      swap1\n        /* \"contracts/bettoken.sol\":3301:3327  usdAmount.mul(latestPrice) */\n      swap2\n      swap1\n      0xffffffff\n      and\n      jump\t// in\n    tag_290:\n        /* \"contracts/bettoken.sol\":3301:3331  usdAmount.mul(latestPrice).div */\n      tag_292\n      swap1\n        /* \"contracts/bettoken.sol\":3301:3340  usdAmount.mul(latestPrice).div(1 ether) */\n      swap2\n      swap1\n      0xffffffff\n      and\n      jump\t// in\n    tag_289:\n        /* \"contracts/bettoken.sol\":3274:3300  calculatePrivateSaleTokens */\n      tag_293\n        /* \"contracts/bettoken.sol\":3274:3341  calculatePrivateSaleTokens(usdAmount.mul(latestPrice).div(1 ether)) */\n      jump\t// in\n    tag_288:\n        /* \"contracts/bettoken.sol\":3260:3341  tokensToBuy = calculatePrivateSaleTokens(usdAmount.mul(latestPrice).div(1 ether)) */\n      swap1\n      pop\n        /* \"contracts/bettoken.sol\":3379:3417  privateSaleSoldTokens.add(tokensToBuy) */\n      tag_294\n        /* \"contracts/bettoken.sol\":3405:3416  tokensToBuy */\n      dup2\n        /* \"contracts/bettoken.sol\":3379:3400  privateSaleSoldTokens */\n      sload(0x0b)\n        /* \"contracts/bettoken.sol\":3379:3404  privateSaleSoldTokens.add */\n      tag_295\n      swap1\n        /* \"contracts/bettoken.sol\":3379:3417  privateSaleSoldTokens.add(tokensToBuy) */\n      swap2\n      swap1\n      0xffffffff\n      and\n      jump\t// in\n    tag_294:\n        /* \"contracts/bettoken.sol\":3355:3376  privateSaleSoldTokens */\n      0x0b\n        /* \"contracts/bettoken.sol\":3355:3417  privateSaleSoldTokens = privateSaleSoldTokens.add(tokensToBuy) */\n      dup2\n      swap1\n      sstore\n      pop\n        /* \"contracts/bettoken.sol\":3464:3481  privateSaleTokens */\n      sload(0x08)\n        /* \"contracts/bettoken.sol\":3439:3460  privateSaleSoldTokens */\n      sload(0x0b)\n        /* \"contracts/bettoken.sol\":3439:3481  privateSaleSoldTokens <= privateSaleTokens */\n      gt\n      iszero\n        /* \"contracts/bettoken.sol\":3431:3519  require(privateSaleSoldTokens <= privateSaleTokens, \"Exceeds Private Sale token limit.\") */\n      tag_296\n      jumpi\n      mload(0x40)\n      0x08c379a000000000000000000000000000000000000000000000000000000000\n      dup2\n      mstore\n      0x04\n      add\n      tag_297\n      swap1\n      tag_298\n      jump\t// in\n    tag_297:\n      mload(0x40)\n      dup1\n      swap2\n      sub\n      swap1\n      revert\n    tag_296:\n        /* \"contracts/bettoken.sol\":3562:3605  vestingBalance[msg.sender].add(tokensToBuy) */\n      tag_299\n        /* \"contracts/bettoken.sol\":3593:3604  tokensToBuy */\n      dup2\n        /* \"contracts/bettoken.sol\":3562:3576  vestingBalance */\n      0x12\n        /* \"contracts/bettoken.sol\":3562:3588  vestingBalance[msg.sender] */\n      0x00\n        /* \"contracts/bettoken.sol\":3577:3587  msg.sender */\n      caller\n        /* \"contracts/bettoken.sol\":3562:3588  vestingBalance[msg.sender] */\n      0xffffffffffffffffffffffffffffffffffffffff\n      and\n      0xffffffffffffffffffffffffffffffffffffffff\n      and\n      dup2\n      mstore\n      0x20\n      add\n      swap1\n      dup2\n      mstore\n      0x20\n      add\n      0x00\n      keccak256\n      sload\n        /* \"contracts/bettoken.sol\":3562:3592  vestingBalance[msg.sender].add */\n      tag_295\n      swap1\n        /* \"contracts/bettoken.sol\":3562:3605  vestingBalance[msg.sender].add(tokensToBuy) */\n      swap2\n      swap1\n      0xffffffff\n      and\n      jump\t// in\n    tag_299:\n        /* \"contracts/bettoken.sol\":3533:3547  vestingBalance */\n      0x12\n        /* \"contracts/bettoken.sol\":3533:3559  vestingBalance[msg.sender] */\n      0x00\n        /* \"contracts/bettoken.sol\":3548:3558  msg.sender */\n      caller\n        /* \"contracts/bettoken.sol\":3533:3559  vestingBalance[msg.sender] */\n      0xffffffffffffffffffffffffffffffffffffffff\n      and\n      0xffffffffffffffffffffffffffffffffffffffff\n      and\n      dup2\n      mstore\n      0x20\n      add\n      swap1\n      dup2\n      mstore\n      0x20\n      add\n      0x00\n      keccak256\n        /* \"contracts/bettoken.sol\":3533:3605  vestingBalance[msg.sender] = vestingBalance[msg.sender].add(tokensToBuy) */\n      dup2\n      swap1\n      sstore\n      pop\n        /* \"contracts/bettoken.sol\":3652:3707  block.timestamp.add(stakeDuration).add(vestingDuration) */\n      tag_300\n        /* \"contracts/bettoken.sol\":3691:3706  vestingDuration */\n      sload(0x14)\n        /* \"contracts/bettoken.sol\":3652:3686  block.timestamp.add(stakeDuration) */\n      tag_301\n        /* \"contracts/bettoken.sol\":3672:3685  stakeDuration */\n      sload(0x15)\n        /* \"contracts/bettoken.sol\":3652:3667  block.timestamp */\n      timestamp\n        /* \"contracts/bettoken.sol\":3652:3671  block.timestamp.add */\n      tag_295\n      swap1\n        /* \"contracts/bettoken.sol\":3652:3686  block.timestamp.add(stakeDuration) */\n      swap2\n      swap1\n      0xffffffff\n      and\n      jump\t// in\n    tag_301:\n        /* \"contracts/bettoken.sol\":3652:3690  block.timestamp.add(stakeDuration).add */\n      tag_295\n      swap1\n        /* \"contracts/bettoken.sol\":3652:3707  block.timestamp.add(stakeDuration).add(vestingDuration) */\n      swap2\n      swap1\n      0xffffffff\n      and\n      jump\t// in\n    tag_300:\n        /* \"contracts/bettoken.sol\":3619:3637  vestingReleaseTime */\n      0x13\n        /* \"contracts/bettoken.sol\":3619:3649  vestingReleaseTime[msg.sender] */\n      0x00\n        /* \"contracts/bettoken.sol\":3638:3648  msg.sender */\n      caller\n        /* \"contracts/bettoken.sol\":3619:3649  vestingReleaseTime[msg.sender] */\n      0xffffffffffffffffffffffffffffffffffffffff\n      and\n      0xffffffffffffffffffffffffffffffffffffffff\n      and\n      dup2\n      mstore\n      0x20\n      add\n      swap1\n      dup2\n      mstore\n      0x20\n      add\n      0x00\n      keccak256\n        /* \"contracts/bettoken.sol\":3619:3707  vestingReleaseTime[msg.sender] = block.timestamp.add(stakeDuration).add(vestingDuration) */\n      dup2\n      swap1\n      sstore\n      pop\n        /* \"contracts/bettoken.sol\":3738:3748  msg.sender */\n      caller\n        /* \"contracts/bettoken.sol\":3726:3762  PrivateSale(msg.sender, tokensToBuy) */\n      0xffffffffffffffffffffffffffffffffffffffff\n      and\n      0x8fa81bb0702332ea2a0aee44bb9e4d359cf4a2c5a820dd59d9129369bdbca73f\n        /* \"contracts/bettoken.sol\":3750:3761  tokensToBuy */\n      dup3\n        /* \"contracts/bettoken.sol\":3726:3762  PrivateSale(msg.sender, tokensToBuy) */\n      mload(0x40)\n      tag_302\n      swap2\n      swap1\n      tag_69\n      jump\t// in\n    tag_302:\n      mload(0x40)\n      dup1\n      swap2\n      sub\n      swap1\n      log2\n        /* \"contracts/bettoken.sol\":3124:4380  if (stage == SaleStage.PRIVATE) {... */\n      jump(tag_303)\n    tag_284:\n        /* \"contracts/bettoken.sol\":3792:3809  SaleStage.PRESALE */\n      0x02\n        /* \"contracts/bettoken.sol\":3783:3809  stage == SaleStage.PRESALE */\n      dup1\n      dup2\n      gt\n      iszero\n      tag_304\n      jumpi\n      tag_305\n      tag_250\n      jump\t// in\n    tag_305:\n    tag_304:\n        /* \"contracts/bettoken.sol\":3783:3788  stage */\n      0x11\n      0x00\n      swap1\n      sload\n      swap1\n      0x0100\n      exp\n      swap1\n      div\n      0xff\n      and\n        /* \"contracts/bettoken.sol\":3783:3809  stage == SaleStage.PRESALE */\n      0x02\n      dup2\n      gt\n      iszero\n      tag_306\n      jumpi\n      tag_307\n      tag_250\n      jump\t// in\n    tag_307:\n    tag_306:\n      sub\n        /* \"contracts/bettoken.sol\":3779:4380  if (stage == SaleStage.PRESALE) {... */\n      tag_308\n      jumpi\n        /* \"contracts/bettoken.sol\":3853:3866  preSaleTokens */\n      sload(0x0d)\n        /* \"contracts/bettoken.sol\":3833:3850  preSaleSoldTokens */\n      sload(0x10)\n        /* \"contracts/bettoken.sol\":3833:3866  preSaleSoldTokens < preSaleTokens */\n      lt\n        /* \"contracts/bettoken.sol\":3825:3889  require(preSaleSoldTokens < preSaleTokens, \"Pre-Sale sold out.\") */\n      tag_309\n      jumpi\n      mload(0x40)\n      0x08c379a000000000000000000000000000000000000000000000000000000000\n      dup2\n      mstore\n      0x04\n      add\n      tag_310\n      swap1\n      tag_311\n      jump\t// in\n    tag_310:\n      mload(0x40)\n      dup1\n      swap2\n      sub\n      swap1\n      revert\n    tag_309:\n        /* \"contracts/bettoken.sol\":3924:3938  100 * 10 ** 18 */\n      0x056bc75e2d63100000\n        /* \"contracts/bettoken.sol\":3911:3920  usdAmount */\n      dup4\n        /* \"contracts/bettoken.sol\":3911:3938  usdAmount >= 100 * 10 ** 18 */\n      lt\n      iszero\n        /* \"contracts/bettoken.sol\":3911:3971  usdAmount >= 100 * 10 ** 18 && usdAmount <= 3_000 * 10 ** 18 */\n      dup1\n      iszero\n      tag_312\n      jumpi\n      pop\n        /* \"contracts/bettoken.sol\":3955:3971  3_000 * 10 ** 18 */\n      0xa2a15d09519be00000\n        /* \"contracts/bettoken.sol\":3942:3951  usdAmount */\n      dup4\n        /* \"contracts/bettoken.sol\":3942:3971  usdAmount <= 3_000 * 10 ** 18 */\n      gt\n      iszero\n        /* \"contracts/bettoken.sol\":3911:3971  usdAmount >= 100 * 10 ** 18 && usdAmount <= 3_000 * 10 ** 18 */\n    tag_312:\n        /* \"contracts/bettoken.sol\":3903:4006  require(usdAmount >= 100 * 10 ** 18 && usdAmount <= 3_000 * 10 ** 18, \"Purchase amount out of limits.\") */\n      tag_313\n      jumpi\n      mload(0x40)\n      0x08c379a000000000000000000000000000000000000000000000000000000000\n      dup2\n      mstore\n      0x04\n      add\n      tag_314\n      swap1\n      tag_315\n      jump\t// in\n    tag_314:\n      mload(0x40)\n      dup1\n      swap2\n      sub\n      swap1\n      revert\n    tag_313:\n        /* \"contracts/bettoken.sol\":4034:4097  calculatePreSaleTokens(usdAmount.mul(latestPrice).div(1 ether)) */\n      tag_316\n        /* \"contracts/bettoken.sol\":4057:4096  usdAmount.mul(latestPrice).div(1 ether) */\n      tag_317\n        /* \"contracts/bettoken.sol\":4088:4095  1 ether */\n      0x0de0b6b3a7640000\n        /* \"contracts/bettoken.sol\":4057:4083  usdAmount.mul(latestPrice) */\n      tag_318\n        /* \"contracts/bettoken.sol\":4071:4082  latestPrice */\n      dup6\n        /* \"contracts/bettoken.sol\":4057:4066  usdAmount */\n      dup8\n        /* \"contracts/bettoken.sol\":4057:4070  usdAmount.mul */\n      tag_291\n      swap1\n        /* \"contracts/bettoken.sol\":4057:4083  usdAmount.mul(latestPrice) */\n      swap2\n      swap1\n      0xffffffff\n      and\n      jump\t// in\n    tag_318:\n        /* \"contracts/bettoken.sol\":4057:4087  usdAmount.mul(latestPrice).div */\n      tag_292\n      swap1\n        /* \"contracts/bettoken.sol\":4057:4096  usdAmount.mul(latestPrice).div(1 ether) */\n      swap2\n      swap1\n      0xffffffff\n      and\n      jump\t// in\n    tag_317:\n        /* \"contracts/bettoken.sol\":4034:4056  calculatePreSaleTokens */\n      tag_319\n        /* \"contracts/bettoken.sol\":4034:4097  calculatePreSaleTokens(usdAmount.mul(latestPrice).div(1 ether)) */\n      jump\t// in\n    tag_316:\n        /* \"contracts/bettoken.sol\":4020:4097  tokensToBuy = calculatePreSaleTokens(usdAmount.mul(latestPrice).div(1 ether)) */\n      swap1\n      pop\n        /* \"contracts/bettoken.sol\":4131:4165  preSaleSoldTokens.add(tokensToBuy) */\n      tag_320\n        /* \"contracts/bettoken.sol\":4153:4164  tokensToBuy */\n      dup2\n        /* \"contracts/bettoken.sol\":4131:4148  preSaleSoldTokens */\n      sload(0x10)\n        /* \"contracts/bettoken.sol\":4131:4152  preSaleSoldTokens.add */\n      tag_295\n      swap1\n        /* \"contracts/bettoken.sol\":4131:4165  preSaleSoldTokens.add(tokensToBuy) */\n      swap2\n      swap1\n      0xffffffff\n      and\n      jump\t// in\n    tag_320:\n        /* \"contracts/bettoken.sol\":4111:4128  preSaleSoldTokens */\n      0x10\n        /* \"contracts/bettoken.sol\":4111:4165  preSaleSoldTokens = preSaleSoldTokens.add(tokensToBuy) */\n      dup2\n      swap1\n      sstore\n      pop\n        /* \"contracts/bettoken.sol\":4208:4221  preSaleTokens */\n      sload(0x0d)\n        /* \"contracts/bettoken.sol\":4187:4204  preSaleSoldTokens */\n      sload(0x10)\n        /* \"contracts/bettoken.sol\":4187:4221  preSaleSoldTokens <= preSaleTokens */\n      gt\n      iszero\n        /* \"contracts/bettoken.sol\":4179:4255  require(preSaleSoldTokens <= preSaleTokens, \"Exceeds Pre-Sale token limit.\") */\n      tag_321\n      jumpi\n      mload(0x40)\n      0x08c379a000000000000000000000000000000000000000000000000000000000\n      dup2\n      mstore\n      0x04\n      add\n      tag_322\n      swap1\n      tag_323\n      jump\t// in\n    tag_322:\n      mload(0x40)\n      dup1\n      swap2\n      sub\n      swap1\n      revert\n    tag_321:\n        /* \"contracts/bettoken.sol\":4269:4318  _transfer(address(this), msg.sender, tokensToBuy) */\n      tag_324\n        /* \"contracts/bettoken.sol\":4287:4291  this */\n      address\n        /* \"contracts/bettoken.sol\":4294:4304  msg.sender */\n      caller\n        /* \"contracts/bettoken.sol\":4306:4317  tokensToBuy */\n      dup4\n        /* \"contracts/bettoken.sol\":4269:4278  _transfer */\n      tag_227\n        /* \"contracts/bettoken.sol\":4269:4318  _transfer(address(this), msg.sender, tokensToBuy) */\n      jump\t// in\n    tag_324:\n        /* \"contracts/bettoken.sol\":4345:4355  msg.sender */\n      caller\n        /* \"contracts/bettoken.sol\":4337:4369  PreSale(msg.sender, tokensToBuy) */\n      0xffffffffffffffffffffffffffffffffffffffff\n      and\n      0x550498dc565cc74203b9d14cba907c9f60ceefe26e82b37df98f6cb98529cf19\n        /* \"contracts/bettoken.sol\":4357:4368  tokensToBuy */\n      dup3\n        /* \"contracts/bettoken.sol\":4337:4369  PreSale(msg.sender, tokensToBuy) */\n      mload(0x40)\n      tag_325\n      swap2\n      swap1\n      tag_69\n      jump\t// in\n    tag_325:\n      mload(0x40)\n      dup1\n      swap2\n      sub\n      swap1\n      log2\n        /* \"contracts/bettoken.sol\":3779:4380  if (stage == SaleStage.PRESALE) {... */\n    tag_308:\n        /* \"contracts/bettoken.sol\":3124:4380  if (stage == SaleStage.PRIVATE) {... */\n    tag_303:\n        /* \"contracts/bettoken.sol\":2860:4386  {... */\n      pop\n      pop\n        /* \"@openzeppelin/contracts/security/ReentrancyGuard.sol\":2303:2323  _nonReentrantAfter() */\n      tag_326\n        /* \"@openzeppelin/contracts/security/ReentrancyGuard.sol\":2303:2321  _nonReentrantAfter */\n      tag_239\n        /* \"@openzeppelin/contracts/security/ReentrancyGuard.sol\":2303:2323  _nonReentrantAfter() */\n      jump\t// in\n    tag_326:\n        /* \"contracts/bettoken.sol\":2792:4386  function buyTokens(uint256 usdAmount) external payable nonReentrant {... */\n      pop\n      jump\t// out\n        /* \"contracts/bettoken.sol\":1677:1716  uint256 public stakeDuration = 365 days */\n    tag_120:\n      sload(0x15)\n      dup2\n      jump\t// out\n        /* \"contracts/bettoken.sol\":6298:6881  function releaseVestedTokens() external nonReentrant {... */\n    tag_124:\n        /* \"@openzeppelin/contracts/security/ReentrancyGuard.sol\":2261:2282  _nonReentrantBefore() */\n      tag_328\n        /* \"@openzeppelin/contracts/security/ReentrancyGuard.sol\":2261:2280  _nonReentrantBefore */\n      tag_233\n        /* \"@openzeppelin/contracts/security/ReentrancyGuard.sol\":2261:2282  _nonReentrantBefore() */\n      jump\t// in\n    tag_328:\n        /* \"contracts/bettoken.sol\":6388:6406  vestingReleaseTime */\n      0x13\n        /* \"contracts/bettoken.sol\":6388:6418  vestingReleaseTime[msg.sender] */\n      0x00\n        /* \"contracts/bettoken.sol\":6407:6417  msg.sender */\n      caller\n        /* \"contracts/bettoken.sol\":6388:6418  vestingReleaseTime[msg.sender] */\n      0xffffffffffffffffffffffffffffffffffffffff\n      and\n      0xffffffffffffffffffffffffffffffffffffffff\n      and\n      dup2\n      mstore\n      0x20\n      add\n      swap1\n      dup2\n      mstore\n      0x20\n      add\n      0x00\n      keccak256\n      sload\n        /* \"contracts/bettoken.sol\":6369:6384  block.timestamp */\n      timestamp\n        /* \"contracts/bettoken.sol\":6369:6418  block.timestamp >= vestingReleaseTime[msg.sender] */\n      lt\n      iszero\n        /* \"contracts/bettoken.sol\":6361:6456  require(block.timestamp >= vestingReleaseTime[msg.sender], \"Vesting period not yet completed.\") */\n      tag_330\n      jumpi\n      mload(0x40)\n      0x08c379a000000000000000000000000000000000000000000000000000000000\n      dup2\n      mstore\n      0x04\n      add\n      tag_331\n      swap1\n      tag_332\n      jump\t// in\n    tag_331:\n      mload(0x40)\n      dup1\n      swap2\n      sub\n      swap1\n      revert\n    tag_330:\n        /* \"contracts/bettoken.sol\":6466:6480  uint256 amount */\n      0x00\n        /* \"contracts/bettoken.sol\":6483:6497  vestingBalance */\n      0x12\n        /* \"contracts/bettoken.sol\":6483:6509  vestingBalance[msg.sender] */\n      0x00\n        /* \"contracts/bettoken.sol\":6498:6508  msg.sender */\n      caller\n        /* \"contracts/bettoken.sol\":6483:6509  vestingBalance[msg.sender] */\n      0xffffffffffffffffffffffffffffffffffffffff\n      and\n      0xffffffffffffffffffffffffffffffffffffffff\n      and\n      dup2\n      mstore\n      0x20\n      add\n      swap1\n      dup2\n      mstore\n      0x20\n      add\n      0x00\n      keccak256\n      sload\n        /* \"contracts/bettoken.sol\":6466:6509  uint256 amount = vestingBalance[msg.sender] */\n      swap1\n      pop\n        /* \"contracts/bettoken.sol\":6536:6537  0 */\n      0x00\n        /* \"contracts/bettoken.sol\":6527:6533  amount */\n      dup2\n        /* \"contracts/bettoken.sol\":6527:6537  amount > 0 */\n      gt\n        /* \"contracts/bettoken.sol\":6519:6569  require(amount > 0, \"No vested tokens to release\") */\n      tag_333\n      jumpi\n      mload(0x40)\n      0x08c379a000000000000000000000000000000000000000000000000000000000\n      dup2\n      mstore\n      0x04\n      add\n      tag_334\n      swap1\n      tag_335\n      jump\t// in\n    tag_334:\n      mload(0x40)\n      dup1\n      swap2\n      sub\n      swap1\n      revert\n    tag_333:\n        /* \"contracts/bettoken.sol\":6718:6719  0 */\n      0x00\n        /* \"contracts/bettoken.sol\":6689:6703  vestingBalance */\n      0x12\n        /* \"contracts/bettoken.sol\":6689:6715  vestingBalance[msg.sender] */\n      0x00\n        /* \"contracts/bettoken.sol\":6704:6714  msg.sender */\n      caller\n        /* \"contracts/bettoken.sol\":6689:6715  vestingBalance[msg.sender] */\n      0xffffffffffffffffffffffffffffffffffffffff\n      and\n      0xffffffffffffffffffffffffffffffffffffffff\n      and\n      dup2\n      mstore\n      0x20\n      add\n      swap1\n      dup2\n      mstore\n      0x20\n      add\n      0x00\n      keccak256\n        /* \"contracts/bettoken.sol\":6689:6719  vestingBalance[msg.sender] = 0 */\n      dup2\n      swap1\n      sstore\n      pop\n        /* \"contracts/bettoken.sol\":6762:6763  0 */\n      0x00\n        /* \"contracts/bettoken.sol\":6729:6747  vestingReleaseTime */\n      0x13\n        /* \"contracts/bettoken.sol\":6729:6759  vestingReleaseTime[msg.sender] */\n      0x00\n        /* \"contracts/bettoken.sol\":6748:6758  msg.sender */\n      caller\n        /* \"contracts/bettoken.sol\":6729:6759  vestingReleaseTime[msg.sender] */\n      0xffffffffffffffffffffffffffffffffffffffff\n      and\n      0xffffffffffffffffffffffffffffffffffffffff\n      and\n      dup2\n      mstore\n      0x20\n      add\n      swap1\n      dup2\n      mstore\n      0x20\n      add\n      0x00\n      keccak256\n        /* \"contracts/bettoken.sol\":6729:6763  vestingReleaseTime[msg.sender] = 0 */\n      dup2\n      swap1\n      sstore\n      pop\n        /* \"contracts/bettoken.sol\":6774:6818  _transfer(address(this), msg.sender, amount) */\n      tag_336\n        /* \"contracts/bettoken.sol\":6792:6796  this */\n      address\n        /* \"contracts/bettoken.sol\":6799:6809  msg.sender */\n      caller\n        /* \"contracts/bettoken.sol\":6811:6817  amount */\n      dup4\n        /* \"contracts/bettoken.sol\":6774:6783  _transfer */\n      tag_227\n        /* \"contracts/bettoken.sol\":6774:6818  _transfer(address(this), msg.sender, amount) */\n      jump\t// in\n    tag_336:\n        /* \"contracts/bettoken.sol\":6855:6865  msg.sender */\n      caller\n        /* \"contracts/bettoken.sol\":6834:6874  VestedTokensReleased(msg.sender, amount) */\n      0xffffffffffffffffffffffffffffffffffffffff\n      and\n      0x6bc5063c7239b75c8bf325a2a2238f726fada322163996bb6c93d5594fb119f0\n        /* \"contracts/bettoken.sol\":6867:6873  amount */\n      dup3\n        /* \"contracts/bettoken.sol\":6834:6874  VestedTokensReleased(msg.sender, amount) */\n      mload(0x40)\n      tag_337\n      swap2\n      swap1\n      tag_69\n      jump\t// in\n    tag_337:\n      mload(0x40)\n      dup1\n      swap2\n      sub\n      swap1\n      log2\n        /* \"contracts/bettoken.sol\":6351:6881  {... */\n      pop\n        /* \"@openzeppelin/contracts/security/ReentrancyGuard.sol\":2303:2323  _nonReentrantAfter() */\n      tag_338\n        /* \"@openzeppelin/contracts/security/ReentrancyGuard.sol\":2303:2321  _nonReentrantAfter */\n      tag_239\n        /* \"@openzeppelin/contracts/security/ReentrancyGuard.sol\":2303:2323  _nonReentrantAfter() */\n      jump\t// in\n    tag_338:\n        /* \"contracts/bettoken.sol\":6298:6881  function releaseVestedTokens() external nonReentrant {... */\n      jump\t// out\n        /* \"contracts/bettoken.sol\":2516:2786  function startPreSale() external onlyOwner {... */\n    tag_127:\n        /* \"@openzeppelin/contracts/access/Ownable.sol\":1531:1544  _checkOwner() */\n      tag_340\n        /* \"@openzeppelin/contracts/access/Ownable.sol\":1531:1542  _checkOwner */\n      tag_230\n        /* \"@openzeppelin/contracts/access/Ownable.sol\":1531:1544  _checkOwner() */\n      jump\t// in\n    tag_340:\n        /* \"contracts/bettoken.sol\":2586:2603  SaleStage.PRIVATE */\n      0x01\n        /* \"contracts/bettoken.sol\":2577:2603  stage == SaleStage.PRIVATE */\n      0x02\n      dup2\n      gt\n      iszero\n      tag_342\n      jumpi\n      tag_343\n      tag_250\n      jump\t// in\n    tag_343:\n    tag_342:\n        /* \"contracts/bettoken.sol\":2577:2582  stage */\n      0x11\n      0x00\n      swap1\n      sload\n      swap1\n      0x0100\n      exp\n      swap1\n      div\n      0xff\n      and\n        /* \"contracts/bettoken.sol\":2577:2603  stage == SaleStage.PRIVATE */\n      0x02\n      dup2\n      gt\n      iszero\n      tag_344\n      jumpi\n      tag_345\n      tag_250\n      jump\t// in\n    tag_345:\n    tag_344:\n      eq\n        /* \"contracts/bettoken.sol\":2569:2647  require(stage == SaleStage.PRIVATE, \"Private Sale should be concluded first.\") */\n      tag_346\n      jumpi\n      mload(0x40)\n      0x08c379a000000000000000000000000000000000000000000000000000000000\n      dup2\n      mstore\n      0x04\n      add\n      tag_347\n      swap1\n      tag_348\n      jump\t// in\n    tag_347:\n      mload(0x40)\n      dup1\n      swap2\n      sub\n      swap1\n      revert\n    tag_346:\n        /* \"contracts/bettoken.sol\":2690:2707  privateSaleTokens */\n      sload(0x08)\n        /* \"contracts/bettoken.sol\":2665:2686  privateSaleSoldTokens */\n      sload(0x0b)\n        /* \"contracts/bettoken.sol\":2665:2707  privateSaleSoldTokens == privateSaleTokens */\n      eq\n        /* \"contracts/bettoken.sol\":2657:2744  require(privateSaleSoldTokens == privateSaleTokens, \"Private Sale target not reached.\") */\n      tag_349\n      jumpi\n      mload(0x40)\n      0x08c379a000000000000000000000000000000000000000000000000000000000\n      dup2\n      mstore\n      0x04\n      add\n      tag_350\n      swap1\n      tag_351\n      jump\t// in\n    tag_350:\n      mload(0x40)\n      dup1\n      swap2\n      sub\n      swap1\n      revert\n    tag_349:\n        /* \"contracts/bettoken.sol\":2762:2779  SaleStage.PRESALE */\n      0x02\n        /* \"contracts/bettoken.sol\":2754:2759  stage */\n      0x11\n      0x00\n        /* \"contracts/bettoken.sol\":2754:2779  stage = SaleStage.PRESALE */\n      0x0100\n      exp\n      dup2\n      sload\n      dup2\n      0xff\n      mul\n      not\n      and\n      swap1\n      dup4\n      0x02\n      dup2\n      gt\n      iszero\n      tag_352\n      jumpi\n      tag_353\n      tag_250\n      jump\t// in\n    tag_353:\n    tag_352:\n      mul\n      or\n      swap1\n      sstore\n      pop\n        /* \"contracts/bettoken.sol\":2516:2786  function startPreSale() external onlyOwner {... */\n      jump\t// out\n        /* \"contracts/bettoken.sol\":939:979  uint256 public privateSaleSoldTokens = 0 */\n    tag_130:\n      sload(0x0b)\n      dup2\n      jump\t// out\n        /* \"@openzeppelin/contracts/token/ERC20/ERC20.sol\":3299:3415  function balanceOf(address account) public view virtual returns (uint256) {... */\n    tag_135:\n        /* \"@openzeppelin/contracts/token/ERC20/ERC20.sol\":3364:3371  uint256 */\n      0x00\n        /* \"@openzeppelin/contracts/token/ERC20/ERC20.sol\":3390:3399  _balances */\n      dup1\n        /* \"@openzeppelin/contracts/token/ERC20/ERC20.sol\":3390:3408  _balances[account] */\n      0x00\n        /* \"@openzeppelin/contracts/token/ERC20/ERC20.sol\":3400:3407  account */\n      dup4\n        /* \"@openzeppelin/contracts/token/ERC20/ERC20.sol\":3390:3408  _balances[account] */\n      0xffffffffffffffffffffffffffffffffffffffff\n      and\n      0xffffffffffffffffffffffffffffffffffffffff\n      and\n      dup2\n      mstore\n      0x20\n      add\n      swap1\n      dup2\n      mstore\n      0x20\n      add\n      0x00\n      keccak256\n      sload\n        /* \"@openzeppelin/contracts/token/ERC20/ERC20.sol\":3383:3408  return _balances[account] */\n      swap1\n      pop\n        /* \"@openzeppelin/contracts/token/ERC20/ERC20.sol\":3299:3415  function balanceOf(address account) public view virtual returns (uint256) {... */\n      swap2\n      swap1\n      pop\n      jump\t// out\n        /* \"@openzeppelin/contracts/access/Ownable.sol\":2293:2394  function renounceOwnership() public virtual onlyOwner {... */\n    tag_139:\n        /* \"@openzeppelin/contracts/access/Ownable.sol\":1531:1544  _checkOwner() */\n      tag_356\n        /* \"@openzeppelin/contracts/access/Ownable.sol\":1531:1542  _checkOwner */\n      tag_230\n        /* \"@openzeppelin/contracts/access/Ownable.sol\":1531:1544  _checkOwner() */\n      jump\t// in\n    tag_356:\n        /* \"@openzeppelin/contracts/access/Ownable.sol\":2357:2387  _transferOwnership(address(0)) */\n      tag_358\n        /* \"@openzeppelin/contracts/access/Ownable.sol\":2384:2385  0 */\n      0x00\n        /* \"@openzeppelin/contracts/access/Ownable.sol\":2357:2375  _transferOwnership */\n      tag_359\n        /* \"@openzeppelin/contracts/access/Ownable.sol\":2357:2387  _transferOwnership(address(0)) */\n      jump\t// in\n    tag_358:\n        /* \"@openzeppelin/contracts/access/Ownable.sol\":2293:2394  function renounceOwnership() public virtual onlyOwner {... */\n      jump\t// out\n        /* \"contracts/bettoken.sol\":5791:6292  function stakeTokens(uint256 amount) external nonReentrant {... */\n    tag_143:\n        /* \"@openzeppelin/contracts/security/ReentrancyGuard.sol\":2261:2282  _nonReentrantBefore() */\n      tag_361\n        /* \"@openzeppelin/contracts/security/ReentrancyGuard.sol\":2261:2280  _nonReentrantBefore */\n      tag_233\n        /* \"@openzeppelin/contracts/security/ReentrancyGuard.sol\":2261:2282  _nonReentrantBefore() */\n      jump\t// in\n    tag_361:\n        /* \"contracts/bettoken.sol\":5877:5878  0 */\n      0x00\n        /* \"contracts/bettoken.sol\":5868:5874  amount */\n      dup2\n        /* \"contracts/bettoken.sol\":5868:5878  amount > 0 */\n      gt\n        /* \"contracts/bettoken.sol\":5860:5912  require(amount > 0, \"Amount must be greater than 0\") */\n      tag_363\n      jumpi\n      mload(0x40)\n      0x08c379a000000000000000000000000000000000000000000000000000000000\n      dup2\n      mstore\n      0x04\n      add\n      tag_364\n      swap1\n      tag_365\n      jump\t// in\n    tag_364:\n      mload(0x40)\n      dup1\n      swap2\n      sub\n      swap1\n      revert\n    tag_363:\n        /* \"contracts/bettoken.sol\":5955:5961  amount */\n      dup1\n        /* \"contracts/bettoken.sol\":5930:5951  balanceOf(msg.sender) */\n      tag_366\n        /* \"contracts/bettoken.sol\":5940:5950  msg.sender */\n      caller\n        /* \"contracts/bettoken.sol\":5930:5939  balanceOf */\n      tag_135\n        /* \"contracts/bettoken.sol\":5930:5951  balanceOf(msg.sender) */\n      jump\t// in\n    tag_366:\n        /* \"contracts/bettoken.sol\":5930:5961  balanceOf(msg.sender) >= amount */\n      lt\n      iszero\n        /* \"contracts/bettoken.sol\":5922:5995  require(balanceOf(msg.sender) >= amount, \"Insufficient balance to stake\") */\n      tag_367\n      jumpi\n      mload(0x40)\n      0x08c379a000000000000000000000000000000000000000000000000000000000\n      dup2\n      mstore\n      0x04\n      add\n      tag_368\n      swap1\n      tag_369\n      jump\t// in\n    tag_368:\n      mload(0x40)\n      dup1\n      swap2\n      sub\n      swap1\n      revert\n    tag_367:\n        /* \"contracts/bettoken.sol\":6006:6050  _transfer(msg.sender, address(this), amount) */\n      tag_370\n        /* \"contracts/bettoken.sol\":6016:6026  msg.sender */\n      caller\n        /* \"contracts/bettoken.sol\":6036:6040  this */\n      address\n        /* \"contracts/bettoken.sol\":6043:6049  amount */\n      dup4\n        /* \"contracts/bettoken.sol\":6006:6015  _transfer */\n      tag_227\n        /* \"contracts/bettoken.sol\":6006:6050  _transfer(msg.sender, address(this), amount) */\n      jump\t// in\n    tag_370:\n        /* \"contracts/bettoken.sol\":6090:6128  vestingBalance[msg.sender].add(amount) */\n      tag_371\n        /* \"contracts/bettoken.sol\":6121:6127  amount */\n      dup2\n        /* \"contracts/bettoken.sol\":6090:6104  vestingBalance */\n      0x12\n        /* \"contracts/bettoken.sol\":6090:6116  vestingBalance[msg.sender] */\n      0x00\n        /* \"contracts/bettoken.sol\":6105:6115  msg.sender */\n      caller\n        /* \"contracts/bettoken.sol\":6090:6116  vestingBalance[msg.sender] */\n      0xffffffffffffffffffffffffffffffffffffffff\n      and\n      0xffffffffffffffffffffffffffffffffffffffff\n      and\n      dup2\n      mstore\n      0x20\n      add\n      swap1\n      dup2\n      mstore\n      0x20\n      add\n      0x00\n      keccak256\n      sload\n        /* \"contracts/bettoken.sol\":6090:6120  vestingBalance[msg.sender].add */\n      tag_295\n      swap1\n        /* \"contracts/bettoken.sol\":6090:6128  vestingBalance[msg.sender].add(amount) */\n      swap2\n      swap1\n      0xffffffff\n      and\n      jump\t// in\n    tag_371:\n        /* \"contracts/bettoken.sol\":6061:6075  vestingBalance */\n      0x12\n        /* \"contracts/bettoken.sol\":6061:6087  vestingBalance[msg.sender] */\n      0x00\n        /* \"contracts/bettoken.sol\":6076:6086  msg.sender */\n      caller\n        /* \"contracts/bettoken.sol\":6061:6087  vestingBalance[msg.sender] */\n      0xffffffffffffffffffffffffffffffffffffffff\n      and\n      0xffffffffffffffffffffffffffffffffffffffff\n      and\n      dup2\n      mstore\n      0x20\n      add\n      swap1\n      dup2\n      mstore\n      0x20\n      add\n      0x00\n      keccak256\n        /* \"contracts/bettoken.sol\":6061:6128  vestingBalance[msg.sender] = vestingBalance[msg.sender].add(amount) */\n      dup2\n      swap1\n      sstore\n      pop\n        /* \"contracts/bettoken.sol\":6171:6205  block.timestamp.add(stakeDuration) */\n      tag_372\n        /* \"contracts/bettoken.sol\":6191:6204  stakeDuration */\n      sload(0x15)\n        /* \"contracts/bettoken.sol\":6171:6186  block.timestamp */\n      timestamp\n        /* \"contracts/bettoken.sol\":6171:6190  block.timestamp.add */\n      tag_295\n      swap1\n        /* \"contracts/bettoken.sol\":6171:6205  block.timestamp.add(stakeDuration) */\n      swap2\n      swap1\n      0xffffffff\n      and\n      jump\t// in\n    tag_372:\n        /* \"contracts/bettoken.sol\":6138:6156  vestingReleaseTime */\n      0x13\n        /* \"contracts/bettoken.sol\":6138:6168  vestingReleaseTime[msg.sender] */\n      0x00\n        /* \"contracts/bettoken.sol\":6157:6167  msg.sender */\n      caller\n        /* \"contracts/bettoken.sol\":6138:6168  vestingReleaseTime[msg.sender] */\n      0xffffffffffffffffffffffffffffffffffffffff\n      and\n      0xffffffffffffffffffffffffffffffffffffffff\n      and\n      dup2\n      mstore\n      0x20\n      add\n      swap1\n      dup2\n      mstore\n      0x20\n      add\n      0x00\n      keccak256\n        /* \"contracts/bettoken.sol\":6138:6205  vestingReleaseTime[msg.sender] = block.timestamp.add(stakeDuration) */\n      dup2\n      swap1\n      sstore\n      pop\n        /* \"contracts/bettoken.sol\":6234:6244  msg.sender */\n      caller\n        /* \"contracts/bettoken.sol\":6221:6285  TokensStaked(msg.sender, amount, vestingReleaseTime[msg.sender]) */\n      0xffffffffffffffffffffffffffffffffffffffff\n      and\n      0xdd2a19c3bdd089cbe77c04f5655f83de0504d6140d12c8667646f55d0557c4dc\n        /* \"contracts/bettoken.sol\":6246:6252  amount */\n      dup3\n        /* \"contracts/bettoken.sol\":6254:6272  vestingReleaseTime */\n      0x13\n        /* \"contracts/bettoken.sol\":6254:6284  vestingReleaseTime[msg.sender] */\n      0x00\n        /* \"contracts/bettoken.sol\":6273:6283  msg.sender */\n      caller\n        /* \"contracts/bettoken.sol\":6254:6284  vestingReleaseTime[msg.sender] */\n      0xffffffffffffffffffffffffffffffffffffffff\n      and\n      0xffffffffffffffffffffffffffffffffffffffff\n      and\n      dup2\n      mstore\n      0x20\n      add\n      swap1\n      dup2\n      mstore\n      0x20\n      add\n      0x00\n      keccak256\n      sload\n        /* \"contracts/bettoken.sol\":6221:6285  TokensStaked(msg.sender, amount, vestingReleaseTime[msg.sender]) */\n      mload(0x40)\n      tag_373\n      swap3\n      swap2\n      swap1\n      tag_374\n      jump\t// in\n    tag_373:\n      mload(0x40)\n      dup1\n      swap2\n      sub\n      swap1\n      log2\n        /* \"@openzeppelin/contracts/security/ReentrancyGuard.sol\":2303:2323  _nonReentrantAfter() */\n      tag_375\n        /* \"@openzeppelin/contracts/security/ReentrancyGuard.sol\":2303:2321  _nonReentrantAfter */\n      tag_239\n        /* \"@openzeppelin/contracts/security/ReentrancyGuard.sol\":2303:2323  _nonReentrantAfter() */\n      jump\t// in\n    tag_375:\n        /* \"contracts/bettoken.sol\":5791:6292  function stakeTokens(uint256 amount) external nonReentrant {... */\n      pop\n      jump\t// out\n        /* \"@openzeppelin/contracts/access/Ownable.sol\":1638:1723  function owner() public view virtual returns (address) {... */\n    tag_146:\n        /* \"@openzeppelin/contracts/access/Ownable.sol\":1684:1691  address */\n      0x00\n        /* \"@openzeppelin/contracts/access/Ownable.sol\":1710:1716  _owner */\n      0x05\n      0x00\n      swap1\n      sload\n      swap1\n      0x0100\n      exp\n      swap1\n      div\n      0xffffffffffffffffffffffffffffffffffffffff\n      and\n        /* \"@openzeppelin/contracts/access/Ownable.sol\":1703:1716  return _owner */\n      swap1\n      pop\n        /* \"@openzeppelin/contracts/access/Ownable.sol\":1638:1723  function owner() public view virtual returns (address) {... */\n      swap1\n      jump\t// out\n        /* \"contracts/bettoken.sol\":1255:1302  uint256 public preSaleEndPrice = 0.1 * 10 ** 18 */\n    tag_151:\n      sload(0x0f)\n      dup2\n      jump\t// out\n        /* \"contracts/bettoken.sol\":472:533  uint256 public constant TOTAL_SUPPLY = 200_000_000 * 10 ** 18 */\n    tag_155:\n        /* \"contracts/bettoken.sol\":511:533  200_000_000 * 10 ** 18 */\n      0xa56fa5b99019a5c8000000\n        /* \"contracts/bettoken.sol\":472:533  uint256 public constant TOTAL_SUPPLY = 200_000_000 * 10 ** 18 */\n      dup2\n      jump\t// out\n        /* \"contracts/bettoken.sol\":1174:1226  uint256 public preSaleStartPrice = 0.0505 * 10 ** 18 */\n    tag_159:\n      sload(0x0e)\n      dup2\n      jump\t// out\n        /* \"@openzeppelin/contracts/token/ERC20/ERC20.sol\":2276:2369  function symbol() public view virtual returns (string memory) {... */\n    tag_163:\n        /* \"@openzeppelin/contracts/token/ERC20/ERC20.sol\":2323:2336  string memory */\n      0x60\n        /* \"@openzeppelin/contracts/token/ERC20/ERC20.sol\":2355:2362  _symbol */\n      0x04\n        /* \"@openzeppelin/contracts/token/ERC20/ERC20.sol\":2348:2362  return _symbol */\n      dup1\n      sload\n      tag_378\n      swap1\n      tag_211\n      jump\t// in\n    tag_378:\n      dup1\n      0x1f\n      add\n      0x20\n      dup1\n      swap2\n      div\n      mul\n      0x20\n      add\n      mload(0x40)\n      swap1\n      dup2\n      add\n      0x40\n      mstore\n      dup1\n      swap3\n      swap2\n      swap1\n      dup2\n      dup2\n      mstore\n      0x20\n      add\n      dup3\n      dup1\n      sload\n      tag_379\n      swap1\n      tag_211\n      jump\t// in\n    tag_379:\n      dup1\n      iszero\n      tag_380\n      jumpi\n      dup1\n      0x1f\n      lt\n      tag_381\n      jumpi\n      0x0100\n      dup1\n      dup4\n      sload\n      div\n      mul\n      dup4\n      mstore\n      swap2\n      0x20\n      add\n      swap2\n      jump(tag_380)\n    tag_381:\n      dup3\n      add\n      swap2\n      swap1\n      0x00\n      mstore\n      keccak256(0x00, 0x20)\n      swap1\n    tag_382:\n      dup2\n      sload\n      dup2\n      mstore\n      swap1\n      0x01\n      add\n      swap1\n      0x20\n      add\n      dup1\n      dup4\n      gt\n      tag_382\n      jumpi\n      dup3\n      swap1\n      sub\n      0x1f\n      and\n      dup3\n      add\n      swap2\n    tag_380:\n      pop\n      pop\n      pop\n      pop\n      pop\n      swap1\n      pop\n        /* \"@openzeppelin/contracts/token/ERC20/ERC20.sol\":2276:2369  function symbol() public view virtual returns (string memory) {... */\n      swap1\n      jump\t// out\n        /* \"@openzeppelin/contracts/token/ERC20/ERC20.sol\":3610:3788  function transfer(address to, uint256 value) public virtual returns (bool) {... */\n    tag_168:\n        /* \"@openzeppelin/contracts/token/ERC20/ERC20.sol\":3679:3683  bool */\n      0x00\n        /* \"@openzeppelin/contracts/token/ERC20/ERC20.sol\":3695:3708  address owner */\n      dup1\n        /* \"@openzeppelin/contracts/token/ERC20/ERC20.sol\":3711:3723  _msgSender() */\n      tag_384\n        /* \"@openzeppelin/contracts/token/ERC20/ERC20.sol\":3711:3721  _msgSender */\n      tag_218\n        /* \"@openzeppelin/contracts/token/ERC20/ERC20.sol\":3711:3723  _msgSender() */\n      jump\t// in\n    tag_384:\n        /* \"@openzeppelin/contracts/token/ERC20/ERC20.sol\":3695:3723  address owner = _msgSender() */\n      swap1\n      pop\n        /* \"@openzeppelin/contracts/token/ERC20/ERC20.sol\":3733:3760  _transfer(owner, to, value) */\n      tag_385\n        /* \"@openzeppelin/contracts/token/ERC20/ERC20.sol\":3743:3748  owner */\n      dup2\n        /* \"@openzeppelin/contracts/token/ERC20/ERC20.sol\":3750:3752  to */\n      dup6\n        /* \"@openzeppelin/contracts/token/ERC20/ERC20.sol\":3754:3759  value */\n      dup6\n        /* \"@openzeppelin/contracts/token/ERC20/ERC20.sol\":3733:3742  _transfer */\n      tag_227\n        /* \"@openzeppelin/contracts/token/ERC20/ERC20.sol\":3733:3760  _transfer(owner, to, value) */\n      jump\t// in\n    tag_385:\n        /* \"@openzeppelin/contracts/token/ERC20/ERC20.sol\":3777:3781  true */\n      0x01\n        /* \"@openzeppelin/contracts/token/ERC20/ERC20.sol\":3770:3781  return true */\n      swap2\n      pop\n      pop\n        /* \"@openzeppelin/contracts/token/ERC20/ERC20.sol\":3610:3788  function transfer(address to, uint256 value) public virtual returns (bool) {... */\n      swap3\n      swap2\n      pop\n      pop\n      jump\t// out\n        /* \"contracts/bettoken.sol\":773:828  uint256 public privateSaleStartPrice = 0.001 * 10 ** 18 */\n    tag_172:\n      sload(0x09)\n      dup2\n      jump\t// out\n        /* \"contracts/bettoken.sol\":1328:1364  uint256 public preSaleSoldTokens = 0 */\n    tag_176:\n      sload(0x10)\n      dup2\n      jump\t// out\n        /* \"contracts/bettoken.sol\":607:662  uint256 public privateSaleTarget = 1_000_000 * 10 ** 18 */\n    tag_180:\n      sload(0x07)\n      dup2\n      jump\t// out\n        /* \"contracts/bettoken.sol\":856:910  uint256 public privateSaleEndPrice = 0.0505 * 10 ** 18 */\n    tag_184:\n      sload(0x0a)\n      dup2\n      jump\t// out\n        /* \"contracts/bettoken.sol\":1436:1475  SaleStage public stage = SaleStage.NONE */\n    tag_188:\n      0x11\n      0x00\n      swap1\n      sload\n      swap1\n      0x0100\n      exp\n      swap1\n      div\n      0xff\n      and\n      dup2\n      jump\t// out\n        /* \"contracts/bettoken.sol\":692:748  uint256 public privateSaleTokens = 38_835_764 * 10 ** 18 */\n    tag_193:\n      sload(0x08)\n      dup2\n      jump\t// out\n        /* \"@openzeppelin/contracts/token/ERC20/ERC20.sol\":3846:3986  function allowance(address owner, address spender) public view virtual returns (uint256) {... */\n    tag_199:\n        /* \"@openzeppelin/contracts/token/ERC20/ERC20.sol\":3926:3933  uint256 */\n      0x00\n        /* \"@openzeppelin/contracts/token/ERC20/ERC20.sol\":3952:3963  _allowances */\n      0x01\n        /* \"@openzeppelin/contracts/token/ERC20/ERC20.sol\":3952:3970  _allowances[owner] */\n      0x00\n        /* \"@openzeppelin/contracts/token/ERC20/ERC20.sol\":3964:3969  owner */\n      dup5\n        /* \"@openzeppelin/contracts/token/ERC20/ERC20.sol\":3952:3970  _allowances[owner] */\n      0xffffffffffffffffffffffffffffffffffffffff\n      and\n      0xffffffffffffffffffffffffffffffffffffffff\n      and\n      dup2\n      mstore\n      0x20\n      add\n      swap1\n      dup2\n      mstore\n      0x20\n      add\n      0x00\n      keccak256\n        /* \"@openzeppelin/contracts/token/ERC20/ERC20.sol\":3952:3979  _allowances[owner][spender] */\n      0x00\n        /* \"@openzeppelin/contracts/token/ERC20/ERC20.sol\":3971:3978  spender */\n      dup4\n        /* \"@openzeppelin/contracts/token/ERC20/ERC20.sol\":3952:3979  _allowances[owner][spender] */\n      0xffffffffffffffffffffffffffffffffffffffff\n      and\n      0xffffffffffffffffffffffffffffffffffffffff\n      and\n      dup2\n      mstore\n      0x20\n      add\n      swap1\n      dup2\n      mstore\n      0x20\n      add\n      0x00\n      keccak256\n      sload\n        /* \"@openzeppelin/contracts/token/ERC20/ERC20.sol\":3945:3979  return _allowances[owner][spender] */\n      swap1\n      pop\n        /* \"@openzeppelin/contracts/token/ERC20/ERC20.sol\":3846:3986  function allowance(address owner, address spender) public view virtual returns (uint256) {... */\n      swap3\n      swap2\n      pop\n      pop\n      jump\t// out\n        /* \"contracts/bettoken.sol\":1012:1064  uint256 public preSaleTarget = 19_000_000 * 10 ** 18 */\n    tag_203:\n      sload(0x0c)\n      dup2\n      jump\t// out\n        /* \"@openzeppelin/contracts/access/Ownable.sol\":2543:2758  function transferOwnership(address newOwner) public virtual onlyOwner {... */\n    tag_208:\n        /* \"@openzeppelin/contracts/access/Ownable.sol\":1531:1544  _checkOwner() */\n      tag_388\n        /* \"@openzeppelin/contracts/access/Ownable.sol\":1531:1542  _checkOwner */\n      tag_230\n        /* \"@openzeppelin/contracts/access/Ownable.sol\":1531:1544  _checkOwner() */\n      jump\t// in\n    tag_388:\n        /* \"@openzeppelin/contracts/access/Ownable.sol\":2647:2648  0 */\n      0x00\n        /* \"@openzeppelin/contracts/access/Ownable.sol\":2627:2649  newOwner == address(0) */\n      0xffffffffffffffffffffffffffffffffffffffff\n      and\n        /* \"@openzeppelin/contracts/access/Ownable.sol\":2627:2635  newOwner */\n      dup2\n        /* \"@openzeppelin/contracts/access/Ownable.sol\":2627:2649  newOwner == address(0) */\n      0xffffffffffffffffffffffffffffffffffffffff\n      and\n      sub\n        /* \"@openzeppelin/contracts/access/Ownable.sol\":2623:2714  if (newOwner == address(0)) {... */\n      tag_390\n      jumpi\n        /* \"@openzeppelin/contracts/access/Ownable.sol\":2700:2701  0 */\n      0x00\n        /* \"@openzeppelin/contracts/access/Ownable.sol\":2672:2703  OwnableInvalidOwner(address(0)) */\n      mload(0x40)\n      0x1e4fbdf700000000000000000000000000000000000000000000000000000000\n      dup2\n      mstore\n      0x04\n      add\n      tag_391\n      swap2\n      swap1\n      tag_148\n      jump\t// in\n    tag_391:\n      mload(0x40)\n      dup1\n      swap2\n      sub\n      swap1\n      revert\n        /* \"@openzeppelin/contracts/access/Ownable.sol\":2623:2714  if (newOwner == address(0)) {... */\n    tag_390:\n        /* \"@openzeppelin/contracts/access/Ownable.sol\":2723:2751  _transferOwnership(newOwner) */\n      tag_392\n        /* \"@openzeppelin/contracts/access/Ownable.sol\":2742:2750  newOwner */\n      dup2\n        /* \"@openzeppelin/contracts/access/Ownable.sol\":2723:2741  _transferOwnership */\n      tag_359\n        /* \"@openzeppelin/contracts/access/Ownable.sol\":2723:2751  _transferOwnership(newOwner) */\n      jump\t// in\n    tag_392:\n        /* \"@openzeppelin/contracts/access/Ownable.sol\":2543:2758  function transferOwnership(address newOwner) public virtual onlyOwner {... */\n      pop\n      jump\t// out\n        /* \"@openzeppelin/contracts/utils/Context.sol\":656:752  function _msgSender() internal view virtual returns (address) {... */\n    tag_218:\n        /* \"@openzeppelin/contracts/utils/Context.sol\":709:716  address */\n      0x00\n        /* \"@openzeppelin/contracts/utils/Context.sol\":735:745  msg.sender */\n      caller\n        /* \"@openzeppelin/contracts/utils/Context.sol\":728:745  return msg.sender */\n      swap1\n      pop\n        /* \"@openzeppelin/contracts/utils/Context.sol\":656:752  function _msgSender() internal view virtual returns (address) {... */\n      swap1\n      jump\t// out\n        /* \"@openzeppelin/contracts/token/ERC20/ERC20.sol\":8989:9117  function _approve(address owner, address spender, uint256 value) internal {... */\n    tag_220:\n        /* \"@openzeppelin/contracts/token/ERC20/ERC20.sol\":9073:9110  _approve(owner, spender, value, true) */\n      tag_395\n        /* \"@openzeppelin/contracts/token/ERC20/ERC20.sol\":9082:9087  owner */\n      dup4\n        /* \"@openzeppelin/contracts/token/ERC20/ERC20.sol\":9089:9096  spender */\n      dup4\n        /* \"@openzeppelin/contracts/token/ERC20/ERC20.sol\":9098:9103  value */\n      dup4\n        /* \"@openzeppelin/contracts/token/ERC20/ERC20.sol\":9105:9109  true */\n      0x01\n        /* \"@openzeppelin/contracts/token/ERC20/ERC20.sol\":9073:9081  _approve */\n      tag_396\n        /* \"@openzeppelin/contracts/token/ERC20/ERC20.sol\":9073:9110  _approve(owner, spender, value, true) */\n      jump\t// in\n    tag_395:\n        /* \"@openzeppelin/contracts/token/ERC20/ERC20.sol\":8989:9117  function _approve(address owner, address spender, uint256 value) internal {... */\n      pop\n      pop\n      pop\n      jump\t// out\n        /* \"@openzeppelin/contracts/token/ERC20/ERC20.sol\":10663:11140  function _spendAllowance(address owner, address spender, uint256 value) internal virtual {... */\n    tag_225:\n        /* \"@openzeppelin/contracts/token/ERC20/ERC20.sol\":10762:10786  uint256 currentAllowance */\n      0x00\n        /* \"@openzeppelin/contracts/token/ERC20/ERC20.sol\":10789:10814  allowance(owner, spender) */\n      tag_398\n        /* \"@openzeppelin/contracts/token/ERC20/ERC20.sol\":10799:10804  owner */\n      dup5\n        /* \"@openzeppelin/contracts/token/ERC20/ERC20.sol\":10806:10813  spender */\n      dup5\n        /* \"@openzeppelin/contracts/token/ERC20/ERC20.sol\":10789:10798  allowance */\n      tag_199\n        /* \"@openzeppelin/contracts/token/ERC20/ERC20.sol\":10789:10814  allowance(owner, spender) */\n      jump\t// in\n    tag_398:\n        /* \"@openzeppelin/contracts/token/ERC20/ERC20.sol\":10762:10814  uint256 currentAllowance = allowance(owner, spender) */\n      swap1\n      pop\n        /* \"@openzeppelin/contracts/token/ERC20/ERC20.sol\":10848:10865  type(uint256).max */\n      0xffffffffffffffffffffffffffffffffffffffffffffffffffffffffffffffff\n        /* \"@openzeppelin/contracts/token/ERC20/ERC20.sol\":10828:10844  currentAllowance */\n      dup2\n        /* \"@openzeppelin/contracts/token/ERC20/ERC20.sol\":10828:10865  currentAllowance != type(uint256).max */\n      eq\n        /* \"@openzeppelin/contracts/token/ERC20/ERC20.sol\":10824:11134  if (currentAllowance != type(uint256).max) {... */\n      tag_399\n      jumpi\n        /* \"@openzeppelin/contracts/token/ERC20/ERC20.sol\":10904:10909  value */\n      dup2\n        /* \"@openzeppelin/contracts/token/ERC20/ERC20.sol\":10885:10901  currentAllowance */\n      dup2\n        /* \"@openzeppelin/contracts/token/ERC20/ERC20.sol\":10885:10909  currentAllowance < value */\n      lt\n        /* \"@openzeppelin/contracts/token/ERC20/ERC20.sol\":10881:11011  if (currentAllowance < value) {... */\n      iszero\n      tag_400\n      jumpi\n        /* \"@openzeppelin/contracts/token/ERC20/ERC20.sol\":10963:10970  spender */\n      dup3\n        /* \"@openzeppelin/contracts/token/ERC20/ERC20.sol\":10972:10988  currentAllowance */\n      dup2\n        /* \"@openzeppelin/contracts/token/ERC20/ERC20.sol\":10990:10995  value */\n      dup4\n        /* \"@openzeppelin/contracts/token/ERC20/ERC20.sol\":10936:10996  ERC20InsufficientAllowance(spender, currentAllowance, value) */\n      mload(0x40)\n      0xfb8f41b200000000000000000000000000000000000000000000000000000000\n      dup2\n      mstore\n      0x04\n      add\n      tag_401\n      swap4\n      swap3\n      swap2\n      swap1\n      tag_402\n      jump\t// in\n    tag_401:\n      mload(0x40)\n      dup1\n      swap2\n      sub\n      swap1\n      revert\n        /* \"@openzeppelin/contracts/token/ERC20/ERC20.sol\":10881:11011  if (currentAllowance < value) {... */\n    tag_400:\n        /* \"@openzeppelin/contracts/token/ERC20/ERC20.sol\":11052:11109  _approve(owner, spender, currentAllowance - value, false) */\n      tag_403\n        /* \"@openzeppelin/contracts/token/ERC20/ERC20.sol\":11061:11066  owner */\n      dup5\n        /* \"@openzeppelin/contracts/token/ERC20/ERC20.sol\":11068:11075  spender */\n      dup5\n        /* \"@openzeppelin/contracts/token/ERC20/ERC20.sol\":11096:11101  value */\n      dup5\n        /* \"@openzeppelin/contracts/token/ERC20/ERC20.sol\":11077:11093  currentAllowance */\n      dup5\n        /* \"@openzeppelin/contracts/token/ERC20/ERC20.sol\":11077:11101  currentAllowance - value */\n      sub\n        /* \"@openzeppelin/contracts/token/ERC20/ERC20.sol\":11103:11108  false */\n      0x00\n        /* \"@openzeppelin/contracts/token/ERC20/ERC20.sol\":11052:11060  _approve */\n      tag_396\n        /* \"@openzeppelin/contracts/token/ERC20/ERC20.sol\":11052:11109  _approve(owner, spender, currentAllowance - value, false) */\n      jump\t// in\n    tag_403:\n        /* \"@openzeppelin/contracts/token/ERC20/ERC20.sol\":10824:11134  if (currentAllowance != type(uint256).max) {... */\n    tag_399:\n        /* \"@openzeppelin/contracts/token/ERC20/ERC20.sol\":10752:11140  {... */\n      pop\n        /* \"@openzeppelin/contracts/token/ERC20/ERC20.sol\":10663:11140  function _spendAllowance(address owner, address spender, uint256 value) internal virtual {... */\n      pop\n      pop\n      pop\n      jump\t// out\n        /* \"@openzeppelin/contracts/token/ERC20/ERC20.sol\":5656:5956  function _transfer(address from, address to, uint256 value) internal {... */\n    tag_227:\n        /* \"@openzeppelin/contracts/token/ERC20/ERC20.sol\":5755:5756  0 */\n      0x00\n        /* \"@openzeppelin/contracts/token/ERC20/ERC20.sol\":5739:5757  from == address(0) */\n      0xffffffffffffffffffffffffffffffffffffffff\n      and\n        /* \"@openzeppelin/contracts/token/ERC20/ERC20.sol\":5739:5743  from */\n      dup4\n        /* \"@openzeppelin/contracts/token/ERC20/ERC20.sol\":5739:5757  from == address(0) */\n      0xffffffffffffffffffffffffffffffffffffffff\n      and\n      sub\n        /* \"@openzeppelin/contracts/token/ERC20/ERC20.sol\":5735:5821  if (from == address(0)) {... */\n      tag_405\n      jumpi\n        /* \"@openzeppelin/contracts/token/ERC20/ERC20.sol\":5807:5808  0 */\n      0x00\n        /* \"@openzeppelin/contracts/token/ERC20/ERC20.sol\":5780:5810  ERC20InvalidSender(address(0)) */\n      mload(0x40)\n      0x96c6fd1e00000000000000000000000000000000000000000000000000000000\n      dup2\n      mstore\n      0x04\n      add\n      tag_406\n      swap2\n      swap1\n      tag_148\n      jump\t// in\n    tag_406:\n      mload(0x40)\n      dup1\n      swap2\n      sub\n      swap1\n      revert\n        /* \"@openzeppelin/contracts/token/ERC20/ERC20.sol\":5735:5821  if (from == address(0)) {... */\n    tag_405:\n        /* \"@openzeppelin/contracts/token/ERC20/ERC20.sol\":5848:5849  0 */\n      0x00\n        /* \"@openzeppelin/contracts/token/ERC20/ERC20.sol\":5834:5850  to == address(0) */\n      0xffffffffffffffffffffffffffffffffffffffff\n      and\n        /* \"@openzeppelin/contracts/token/ERC20/ERC20.sol\":5834:5836  to */\n      dup3\n        /* \"@openzeppelin/contracts/token/ERC20/ERC20.sol\":5834:5850  to == address(0) */\n      0xffffffffffffffffffffffffffffffffffffffff\n      and\n      sub\n        /* \"@openzeppelin/contracts/token/ERC20/ERC20.sol\":5830:5916  if (to == address(0)) {... */\n      tag_407\n      jumpi\n        /* \"@openzeppelin/contracts/token/ERC20/ERC20.sol\":5902:5903  0 */\n      0x00\n        /* \"@openzeppelin/contracts/token/ERC20/ERC20.sol\":5873:5905  ERC20InvalidReceiver(address(0)) */\n      mload(0x40)\n      0xec442f0500000000000000000000000000000000000000000000000000000000\n      dup2\n      mstore\n      0x04\n      add\n      tag_408\n      swap2\n      swap1\n      tag_148\n      jump\t// in\n    tag_408:\n      mload(0x40)\n      dup1\n      swap2\n      sub\n      swap1\n      revert\n        /* \"@openzeppelin/contracts/token/ERC20/ERC20.sol\":5830:5916  if (to == address(0)) {... */\n    tag_407:\n        /* \"@openzeppelin/contracts/token/ERC20/ERC20.sol\":5925:5949  _update(from, to, value) */\n      tag_409\n        /* \"@openzeppelin/contracts/token/ERC20/ERC20.sol\":5933:5937  from */\n      dup4\n        /* \"@openzeppelin/contracts/token/ERC20/ERC20.sol\":5939:5941  to */\n      dup4\n        /* \"@openzeppelin/contracts/token/ERC20/ERC20.sol\":5943:5948  value */\n      dup4\n        /* \"@openzeppelin/contracts/token/ERC20/ERC20.sol\":5925:5932  _update */\n      tag_410\n        /* \"@openzeppelin/contracts/token/ERC20/ERC20.sol\":5925:5949  _update(from, to, value) */\n      jump\t// in\n    tag_409:\n        /* \"@openzeppelin/contracts/token/ERC20/ERC20.sol\":5656:5956  function _transfer(address from, address to, uint256 value) internal {... */\n      pop\n      pop\n      pop\n      jump\t// out\n        /* \"@openzeppelin/contracts/access/Ownable.sol\":1796:1958  function _checkOwner() internal view virtual {... */\n    tag_230:\n        /* \"@openzeppelin/contracts/access/Ownable.sol\":1866:1878  _msgSender() */\n      tag_412\n        /* \"@openzeppelin/contracts/access/Ownable.sol\":1866:1876  _msgSender */\n      tag_218\n        /* \"@openzeppelin/contracts/access/Ownable.sol\":1866:1878  _msgSender() */\n      jump\t// in\n    tag_412:\n        /* \"@openzeppelin/contracts/access/Ownable.sol\":1855:1878  owner() != _msgSender() */\n      0xffffffffffffffffffffffffffffffffffffffff\n      and\n        /* \"@openzeppelin/contracts/access/Ownable.sol\":1855:1862  owner() */\n      tag_413\n        /* \"@openzeppelin/contracts/access/Ownable.sol\":1855:1860  owner */\n      tag_146\n        /* \"@openzeppelin/contracts/access/Ownable.sol\":1855:1862  owner() */\n      jump\t// in\n    tag_413:\n        /* \"@openzeppelin/contracts/access/Ownable.sol\":1855:1878  owner() != _msgSender() */\n      0xffffffffffffffffffffffffffffffffffffffff\n      and\n      eq\n        /* \"@openzeppelin/contracts/access/Ownable.sol\":1851:1952  if (owner() != _msgSender()) {... */\n      tag_414\n      jumpi\n        /* \"@openzeppelin/contracts/access/Ownable.sol\":1928:1940  _msgSender() */\n      tag_415\n        /* \"@openzeppelin/contracts/access/Ownable.sol\":1928:1938  _msgSender */\n      tag_218\n        /* \"@openzeppelin/contracts/access/Ownable.sol\":1928:1940  _msgSender() */\n      jump\t// in\n    tag_415:\n        /* \"@openzeppelin/contracts/access/Ownable.sol\":1901:1941  OwnableUnauthorizedAccount(_msgSender()) */\n      mload(0x40)\n      0x118cdaa700000000000000000000000000000000000000000000000000000000\n      dup2\n      mstore\n      0x04\n      add\n      tag_416\n      swap2\n      swap1\n      tag_148\n      jump\t// in\n    tag_416:\n      mload(0x40)\n      dup1\n      swap2\n      sub\n      swap1\n      revert\n        /* \"@openzeppelin/contracts/access/Ownable.sol\":1851:1952  if (owner() != _msgSender()) {... */\n    tag_414:\n        /* \"@openzeppelin/contracts/access/Ownable.sol\":1796:1958  function _checkOwner() internal view virtual {... */\n      jump\t// out\n        /* \"@openzeppelin/contracts/security/ReentrancyGuard.sol\":2336:2623  function _nonReentrantBefore() private {... */\n    tag_233:\n        /* \"@openzeppelin/contracts/security/ReentrancyGuard.sol\":1759:1760  2 */\n      0x02\n        /* \"@openzeppelin/contracts/security/ReentrancyGuard.sol\":2468:2475  _status */\n      sload(0x06)\n        /* \"@openzeppelin/contracts/security/ReentrancyGuard.sol\":2468:2487  _status != _ENTERED */\n      sub\n        /* \"@openzeppelin/contracts/security/ReentrancyGuard.sol\":2460:2523  require(_status != _ENTERED, \"ReentrancyGuard: reentrant call\") */\n      tag_418\n      jumpi\n      mload(0x40)\n      0x08c379a000000000000000000000000000000000000000000000000000000000\n      dup2\n      mstore\n      0x04\n      add\n      tag_419\n      swap1\n      tag_420\n      jump\t// in\n    tag_419:\n      mload(0x40)\n      dup1\n      swap2\n      sub\n      swap1\n      revert\n    tag_418:\n        /* \"@openzeppelin/contracts/security/ReentrancyGuard.sol\":1759:1760  2 */\n      0x02\n        /* \"@openzeppelin/contracts/security/ReentrancyGuard.sol\":2598:2605  _status */\n      0x06\n        /* \"@openzeppelin/contracts/security/ReentrancyGuard.sol\":2598:2616  _status = _ENTERED */\n      dup2\n      swap1\n      sstore\n      pop\n        /* \"@openzeppelin/contracts/security/ReentrancyGuard.sol\":2336:2623  function _nonReentrantBefore() private {... */\n      jump\t// out\n        /* \"@openzeppelin/contracts/security/ReentrancyGuard.sol\":2629:2838  function _nonReentrantAfter() private {... */\n    tag_239:\n        /* \"@openzeppelin/contracts/security/ReentrancyGuard.sol\":1716:1717  1 */\n      0x01\n        /* \"@openzeppelin/contracts/security/ReentrancyGuard.sol\":2809:2816  _status */\n      0x06\n        /* \"@openzeppelin/contracts/security/ReentrancyGuard.sol\":2809:2831  _status = _NOT_ENTERED */\n      dup2\n      swap1\n      sstore\n      pop\n        /* \"@openzeppelin/contracts/security/ReentrancyGuard.sol\":2629:2838  function _nonReentrantAfter() private {... */\n      jump\t// out\n        /* \"@openzeppelin/contracts/utils/math/SafeMath.sol\":3465:3561  function mul(uint256 a, uint256 b) internal pure returns (uint256) {... */\n    tag_291:\n        /* \"@openzeppelin/contracts/utils/math/SafeMath.sol\":3523:3530  uint256 */\n      0x00\n        /* \"@openzeppelin/contracts/utils/math/SafeMath.sol\":3553:3554  b */\n      dup2\n        /* \"@openzeppelin/contracts/utils/math/SafeMath.sol\":3549:3550  a */\n      dup4\n        /* \"@openzeppelin/contracts/utils/math/SafeMath.sol\":3549:3554  a * b */\n      tag_423\n      swap2\n      swap1\n      tag_424\n      jump\t// in\n    tag_423:\n        /* \"@openzeppelin/contracts/utils/math/SafeMath.sol\":3542:3554  return a * b */\n      swap1\n      pop\n        /* \"@openzeppelin/contracts/utils/math/SafeMath.sol\":3465:3561  function mul(uint256 a, uint256 b) internal pure returns (uint256) {... */\n      swap3\n      swap2\n      pop\n      pop\n      jump\t// out\n        /* \"@openzeppelin/contracts/utils/math/SafeMath.sol\":3850:3946  function div(uint256 a, uint256 b) internal pure returns (uint256) {... */\n    tag_292:\n        /* \"@openzeppelin/contracts/utils/math/SafeMath.sol\":3908:3915  uint256 */\n      0x00\n        /* \"@openzeppelin/contracts/utils/math/SafeMath.sol\":3938:3939  b */\n      dup2\n        /* \"@openzeppelin/contracts/utils/math/SafeMath.sol\":3934:3935  a */\n      dup4\n        /* \"@openzeppelin/contracts/utils/math/SafeMath.sol\":3934:3939  a / b */\n      tag_426\n      swap2\n      swap1\n      tag_427\n      jump\t// in\n    tag_426:\n        /* \"@openzeppelin/contracts/utils/math/SafeMath.sol\":3927:3939  return a / b */\n      swap1\n      pop\n        /* \"@openzeppelin/contracts/utils/math/SafeMath.sol\":3850:3946  function div(uint256 a, uint256 b) internal pure returns (uint256) {... */\n      swap3\n      swap2\n      pop\n      pop\n      jump\t// out\n        /* \"contracts/bettoken.sol\":4392:5256  function calculatePrivateSaleTokens(uint256 usdAmount) internal view returns (uint256) {... */\n    tag_293:\n        /* \"contracts/bettoken.sol\":4470:4477  uint256 */\n      0x00\n        /* \"contracts/bettoken.sol\":4509:4510  0 */\n      dup1\n        /* \"contracts/bettoken.sol\":4497:4506  usdAmount */\n      dup3\n        /* \"contracts/bettoken.sol\":4497:4510  usdAmount > 0 */\n      gt\n        /* \"contracts/bettoken.sol\":4489:4548  require(usdAmount > 0, \"USD amount must be greater than 0\") */\n      tag_429\n      jumpi\n      mload(0x40)\n      0x08c379a000000000000000000000000000000000000000000000000000000000\n      dup2\n      mstore\n      0x04\n      add\n      tag_430\n      swap1\n      tag_431\n      jump\t// in\n    tag_430:\n      mload(0x40)\n      dup1\n      swap2\n      sub\n      swap1\n      revert\n    tag_429:\n        /* \"contracts/bettoken.sol\":4586:4587  0 */\n      0x00\n        /* \"contracts/bettoken.sol\":4566:4583  privateSaleTokens */\n      sload(0x08)\n        /* \"contracts/bettoken.sol\":4566:4587  privateSaleTokens > 0 */\n      gt\n        /* \"contracts/bettoken.sol\":4558:4634  require(privateSaleTokens > 0, \"Private Sale tokens must be greater than 0\") */\n      tag_432\n      jumpi\n      mload(0x40)\n      0x08c379a000000000000000000000000000000000000000000000000000000000\n      dup2\n      mstore\n      0x04\n      add\n      tag_433\n      swap1\n      tag_434\n      jump\t// in\n    tag_433:\n      mload(0x40)\n      dup1\n      swap2\n      sub\n      swap1\n      revert\n    tag_432:\n        /* \"contracts/bettoken.sol\":4677:4694  privateSaleTokens */\n      sload(0x08)\n        /* \"contracts/bettoken.sol\":4652:4673  privateSaleSoldTokens */\n      sload(0x0b)\n        /* \"contracts/bettoken.sol\":4652:4694  privateSaleSoldTokens <= privateSaleTokens */\n      gt\n      iszero\n        /* \"contracts/bettoken.sol\":4644:4747  require(privateSaleSoldTokens <= privateSaleTokens, \"Private Sale sold tokens exceed available tokens\") */\n      tag_435\n      jumpi\n      mload(0x40)\n      0x08c379a000000000000000000000000000000000000000000000000000000000\n      dup2\n      mstore\n      0x04\n      add\n      tag_436\n      swap1\n      tag_437\n      jump\t// in\n    tag_436:\n      mload(0x40)\n      dup1\n      swap2\n      sub\n      swap1\n      revert\n    tag_435:\n        /* \"contracts/bettoken.sol\":4758:4776  uint256 tokenRange */\n      0x00\n        /* \"contracts/bettoken.sol\":4779:4825  privateSaleEndPrice.sub(privateSaleStartPrice) */\n      tag_438\n        /* \"contracts/bettoken.sol\":4803:4824  privateSaleStartPrice */\n      sload(0x09)\n        /* \"contracts/bettoken.sol\":4779:4798  privateSaleEndPrice */\n      sload(0x0a)\n        /* \"contracts/bettoken.sol\":4779:4802  privateSaleEndPrice.sub */\n      tag_439\n      swap1\n        /* \"contracts/bettoken.sol\":4779:4825  privateSaleEndPrice.sub(privateSaleStartPrice) */\n      swap2\n      swap1\n      0xffffffff\n      and\n      jump\t// in\n    tag_438:\n        /* \"contracts/bettoken.sol\":4758:4825  uint256 tokenRange = privateSaleEndPrice.sub(privateSaleStartPrice) */\n      swap1\n      pop\n        /* \"contracts/bettoken.sol\":4835:4855  uint256 currentPrice */\n      0x00\n        /* \"contracts/bettoken.sol\":4858:4967  privateSaleStartPrice.add(... */\n      tag_440\n        /* \"contracts/bettoken.sol\":4897:4957  tokenRange.mul(privateSaleSoldTokens).div(privateSaleTokens) */\n      tag_441\n        /* \"contracts/bettoken.sol\":4939:4956  privateSaleTokens */\n      sload(0x08)\n        /* \"contracts/bettoken.sol\":4897:4934  tokenRange.mul(privateSaleSoldTokens) */\n      tag_442\n        /* \"contracts/bettoken.sol\":4912:4933  privateSaleSoldTokens */\n      sload(0x0b)\n        /* \"contracts/bettoken.sol\":4897:4907  tokenRange */\n      dup7\n        /* \"contracts/bettoken.sol\":4897:4911  tokenRange.mul */\n      tag_291\n      swap1\n        /* \"contracts/bettoken.sol\":4897:4934  tokenRange.mul(privateSaleSoldTokens) */\n      swap2\n      swap1\n      0xffffffff\n      and\n      jump\t// in\n    tag_442:\n        /* \"contracts/bettoken.sol\":4897:4938  tokenRange.mul(privateSaleSoldTokens).div */\n      tag_292\n      swap1\n        /* \"contracts/bettoken.sol\":4897:4957  tokenRange.mul(privateSaleSoldTokens).div(privateSaleTokens) */\n      swap2\n      swap1\n      0xffffffff\n      and\n      jump\t// in\n    tag_441:\n        /* \"contracts/bettoken.sol\":4858:4879  privateSaleStartPrice */\n      sload(0x09)\n        /* \"contracts/bettoken.sol\":4858:4883  privateSaleStartPrice.add */\n      tag_295\n      swap1\n        /* \"contracts/bettoken.sol\":4858:4967  privateSaleStartPrice.add(... */\n      swap2\n      swap1\n      0xffffffff\n      and\n      jump\t// in\n    tag_440:\n        /* \"contracts/bettoken.sol\":4835:4967  uint256 currentPrice = privateSaleStartPrice.add(... */\n      swap1\n      pop\n        /* \"contracts/bettoken.sol\":5002:5023  privateSaleStartPrice */\n      sload(0x09)\n        /* \"contracts/bettoken.sol\":4986:4998  currentPrice */\n      dup2\n        /* \"contracts/bettoken.sol\":4986:5023  currentPrice >= privateSaleStartPrice */\n      lt\n      iszero\n        /* \"contracts/bettoken.sol\":4986:5062  currentPrice >= privateSaleStartPrice && currentPrice <= privateSaleEndPrice */\n      dup1\n      iszero\n      tag_443\n      jumpi\n      pop\n        /* \"contracts/bettoken.sol\":5043:5062  privateSaleEndPrice */\n      sload(0x0a)\n        /* \"contracts/bettoken.sol\":5027:5039  currentPrice */\n      dup2\n        /* \"contracts/bettoken.sol\":5027:5062  currentPrice <= privateSaleEndPrice */\n      gt\n      iszero\n        /* \"contracts/bettoken.sol\":4986:5062  currentPrice >= privateSaleStartPrice && currentPrice <= privateSaleEndPrice */\n    tag_443:\n        /* \"contracts/bettoken.sol\":4978:5097  require(currentPrice >= privateSaleStartPrice && currentPrice <= privateSaleEndPrice, \"Invalid token price calculated\") */\n      tag_444\n      jumpi\n      mload(0x40)\n      0x08c379a000000000000000000000000000000000000000000000000000000000\n      dup2\n      mstore\n      0x04\n      add\n      tag_445\n      swap1\n      tag_446\n      jump\t// in\n    tag_445:\n      mload(0x40)\n      dup1\n      swap2\n      sub\n      swap1\n      revert\n    tag_444:\n        /* \"contracts/bettoken.sol\":5108:5122  uint256 tokens */\n      0x00\n        /* \"contracts/bettoken.sol\":5125:5152  usdAmount.div(currentPrice) */\n      tag_447\n        /* \"contracts/bettoken.sol\":5139:5151  currentPrice */\n      dup3\n        /* \"contracts/bettoken.sol\":5125:5134  usdAmount */\n      dup7\n        /* \"contracts/bettoken.sol\":5125:5138  usdAmount.div */\n      tag_292\n      swap1\n        /* \"contracts/bettoken.sol\":5125:5152  usdAmount.div(currentPrice) */\n      swap2\n      swap1\n      0xffffffff\n      and\n      jump\t// in\n    tag_447:\n        /* \"contracts/bettoken.sol\":5108:5152  uint256 tokens = usdAmount.div(currentPrice) */\n      swap1\n      pop\n        /* \"contracts/bettoken.sol\":5179:5180  0 */\n      0x00\n        /* \"contracts/bettoken.sol\":5170:5176  tokens */\n      dup2\n        /* \"contracts/bettoken.sol\":5170:5180  tokens > 0 */\n      gt\n        /* \"contracts/bettoken.sol\":5162:5225  require(tokens > 0, \"Calculated tokens must be greater than 0\") */\n      tag_448\n      jumpi\n      mload(0x40)\n      0x08c379a000000000000000000000000000000000000000000000000000000000\n      dup2\n      mstore\n      0x04\n      add\n      tag_449\n      swap1\n      tag_450\n      jump\t// in\n    tag_449:\n      mload(0x40)\n      dup1\n      swap2\n      sub\n      swap1\n      revert\n    tag_448:\n        /* \"contracts/bettoken.sol\":5243:5249  tokens */\n      dup1\n        /* \"contracts/bettoken.sol\":5236:5249  return tokens */\n      swap4\n      pop\n      pop\n      pop\n      pop\n        /* \"contracts/bettoken.sol\":4392:5256  function calculatePrivateSaleTokens(uint256 usdAmount) internal view returns (uint256) {... */\n      swap2\n      swap1\n      pop\n      jump\t// out\n        /* \"@openzeppelin/contracts/utils/math/SafeMath.sol\":2755:2851  function add(uint256 a, uint256 b) internal pure returns (uint256) {... */\n    tag_295:\n        /* \"@openzeppelin/contracts/utils/math/SafeMath.sol\":2813:2820  uint256 */\n      0x00\n        /* \"@openzeppelin/contracts/utils/math/SafeMath.sol\":2843:2844  b */\n      dup2\n        /* \"@openzeppelin/contracts/utils/math/SafeMath.sol\":2839:2840  a */\n      dup4\n        /* \"@openzeppelin/contracts/utils/math/SafeMath.sol\":2839:2844  a + b */\n      tag_452\n      swap2\n      swap1\n      tag_453\n      jump\t// in\n    tag_452:\n        /* \"@openzeppelin/contracts/utils/math/SafeMath.sol\":2832:2844  return a + b */\n      swap1\n      pop\n        /* \"@openzeppelin/contracts/utils/math/SafeMath.sol\":2755:2851  function add(uint256 a, uint256 b) internal pure returns (uint256) {... */\n      swap3\n      swap2\n      pop\n      pop\n      jump\t// out\n        /* \"contracts/bettoken.sol\":5262:5785  function calculatePreSaleTokens(uint256 usdAmount) internal view returns (uint256) {... */\n    tag_319:\n        /* \"contracts/bettoken.sol\":5336:5343  uint256 */\n      0x00\n        /* \"contracts/bettoken.sol\":5355:5375  uint256 currentPrice */\n      dup1\n        /* \"contracts/bettoken.sol\":5378:5505  preSaleStartPrice.add(... */\n      tag_455\n        /* \"contracts/bettoken.sol\":5413:5495  (preSaleEndPrice.sub(preSaleStartPrice)).mul(preSaleSoldTokens).div(preSaleTokens) */\n      tag_456\n        /* \"contracts/bettoken.sol\":5481:5494  preSaleTokens */\n      sload(0x0d)\n        /* \"contracts/bettoken.sol\":5413:5476  (preSaleEndPrice.sub(preSaleStartPrice)).mul(preSaleSoldTokens) */\n      tag_457\n        /* \"contracts/bettoken.sol\":5458:5475  preSaleSoldTokens */\n      sload(0x10)\n        /* \"contracts/bettoken.sol\":5414:5452  preSaleEndPrice.sub(preSaleStartPrice) */\n      tag_458\n        /* \"contracts/bettoken.sol\":5434:5451  preSaleStartPrice */\n      sload(0x0e)\n        /* \"contracts/bettoken.sol\":5414:5429  preSaleEndPrice */\n      sload(0x0f)\n        /* \"contracts/bettoken.sol\":5414:5433  preSaleEndPrice.sub */\n      tag_439\n      swap1\n        /* \"contracts/bettoken.sol\":5414:5452  preSaleEndPrice.sub(preSaleStartPrice) */\n      swap2\n      swap1\n      0xffffffff\n      and\n      jump\t// in\n    tag_458:\n        /* \"contracts/bettoken.sol\":5413:5457  (preSaleEndPrice.sub(preSaleStartPrice)).mul */\n      tag_291\n      swap1\n        /* \"contracts/bettoken.sol\":5413:5476  (preSaleEndPrice.sub(preSaleStartPrice)).mul(preSaleSoldTokens) */\n      swap2\n      swap1\n      0xffffffff\n      and\n      jump\t// in\n    tag_457:\n        /* \"contracts/bettoken.sol\":5413:5480  (preSaleEndPrice.sub(preSaleStartPrice)).mul(preSaleSoldTokens).div */\n      tag_292\n      swap1\n        /* \"contracts/bettoken.sol\":5413:5495  (preSaleEndPrice.sub(preSaleStartPrice)).mul(preSaleSoldTokens).div(preSaleTokens) */\n      swap2\n      swap1\n      0xffffffff\n      and\n      jump\t// in\n    tag_456:\n        /* \"contracts/bettoken.sol\":5378:5395  preSaleStartPrice */\n      sload(0x0e)\n        /* \"contracts/bettoken.sol\":5378:5399  preSaleStartPrice.add */\n      tag_295\n      swap1\n        /* \"contracts/bettoken.sol\":5378:5505  preSaleStartPrice.add(... */\n      swap2\n      swap1\n      0xffffffff\n      and\n      jump\t// in\n    tag_455:\n        /* \"contracts/bettoken.sol\":5355:5505  uint256 currentPrice = preSaleStartPrice.add(... */\n      swap1\n      pop\n        /* \"contracts/bettoken.sol\":5539:5556  preSaleStartPrice */\n      sload(0x0e)\n        /* \"contracts/bettoken.sol\":5523:5535  currentPrice */\n      dup2\n        /* \"contracts/bettoken.sol\":5523:5556  currentPrice >= preSaleStartPrice */\n      lt\n      iszero\n        /* \"contracts/bettoken.sol\":5523:5591  currentPrice >= preSaleStartPrice && currentPrice <= preSaleEndPrice */\n      dup1\n      iszero\n      tag_459\n      jumpi\n      pop\n        /* \"contracts/bettoken.sol\":5576:5591  preSaleEndPrice */\n      sload(0x0f)\n        /* \"contracts/bettoken.sol\":5560:5572  currentPrice */\n      dup2\n        /* \"contracts/bettoken.sol\":5560:5591  currentPrice <= preSaleEndPrice */\n      gt\n      iszero\n        /* \"contracts/bettoken.sol\":5523:5591  currentPrice >= preSaleStartPrice && currentPrice <= preSaleEndPrice */\n    tag_459:\n        /* \"contracts/bettoken.sol\":5515:5626  require(currentPrice >= preSaleStartPrice && currentPrice <= preSaleEndPrice, \"Invalid token price calculated\") */\n      tag_460\n      jumpi\n      mload(0x40)\n      0x08c379a000000000000000000000000000000000000000000000000000000000\n      dup2\n      mstore\n      0x04\n      add\n      tag_461\n      swap1\n      tag_446\n      jump\t// in\n    tag_461:\n      mload(0x40)\n      dup1\n      swap2\n      sub\n      swap1\n      revert\n    tag_460:\n        /* \"contracts/bettoken.sol\":5637:5651  uint256 tokens */\n      0x00\n        /* \"contracts/bettoken.sol\":5654:5681  usdAmount.div(currentPrice) */\n      tag_462\n        /* \"contracts/bettoken.sol\":5668:5680  currentPrice */\n      dup3\n        /* \"contracts/bettoken.sol\":5654:5663  usdAmount */\n      dup6\n        /* \"contracts/bettoken.sol\":5654:5667  usdAmount.div */\n      tag_292\n      swap1\n        /* \"contracts/bettoken.sol\":5654:5681  usdAmount.div(currentPrice) */\n      swap2\n      swap1\n      0xffffffff\n      and\n      jump\t// in\n    tag_462:\n        /* \"contracts/bettoken.sol\":5637:5681  uint256 tokens = usdAmount.div(currentPrice) */\n      swap1\n      pop\n        /* \"contracts/bettoken.sol\":5708:5709  0 */\n      0x00\n        /* \"contracts/bettoken.sol\":5699:5705  tokens */\n      dup2\n        /* \"contracts/bettoken.sol\":5699:5709  tokens > 0 */\n      gt\n        /* \"contracts/bettoken.sol\":5691:5754  require(tokens > 0, \"Calculated tokens must be greater than 0\") */\n      tag_463\n      jumpi\n      mload(0x40)\n      0x08c379a000000000000000000000000000000000000000000000000000000000\n      dup2\n      mstore\n      0x04\n      add\n      tag_464\n      swap1\n      tag_450\n      jump\t// in\n    tag_464:\n      mload(0x40)\n      dup1\n      swap2\n      sub\n      swap1\n      revert\n    tag_463:\n        /* \"contracts/bettoken.sol\":5772:5778  tokens */\n      dup1\n        /* \"contracts/bettoken.sol\":5765:5778  return tokens */\n      swap3\n      pop\n      pop\n      pop\n        /* \"contracts/bettoken.sol\":5262:5785  function calculatePreSaleTokens(uint256 usdAmount) internal view returns (uint256) {... */\n      swap2\n      swap1\n      pop\n      jump\t// out\n        /* \"@openzeppelin/contracts/access/Ownable.sol\":2912:3099  function _transferOwnership(address newOwner) internal virtual {... */\n    tag_359:\n        /* \"@openzeppelin/contracts/access/Ownable.sol\":2985:3001  address oldOwner */\n      0x00\n        /* \"@openzeppelin/contracts/access/Ownable.sol\":3004:3010  _owner */\n      0x05\n      0x00\n      swap1\n      sload\n      swap1\n      0x0100\n      exp\n      swap1\n      div\n      0xffffffffffffffffffffffffffffffffffffffff\n      and\n        /* \"@openzeppelin/contracts/access/Ownable.sol\":2985:3010  address oldOwner = _owner */\n      swap1\n      pop\n        /* \"@openzeppelin/contracts/access/Ownable.sol\":3029:3037  newOwner */\n      dup2\n        /* \"@openzeppelin/contracts/access/Ownable.sol\":3020:3026  _owner */\n      0x05\n      0x00\n        /* \"@openzeppelin/contracts/access/Ownable.sol\":3020:3037  _owner = newOwner */\n      0x0100\n      exp\n      dup2\n      sload\n      dup2\n      0xffffffffffffffffffffffffffffffffffffffff\n      mul\n      not\n      and\n      swap1\n      dup4\n      0xffffffffffffffffffffffffffffffffffffffff\n      and\n      mul\n      or\n      swap1\n      sstore\n      pop\n        /* \"@openzeppelin/contracts/access/Ownable.sol\":3083:3091  newOwner */\n      dup2\n        /* \"@openzeppelin/contracts/access/Ownable.sol\":3052:3092  OwnershipTransferred(oldOwner, newOwner) */\n      0xffffffffffffffffffffffffffffffffffffffff\n      and\n        /* \"@openzeppelin/contracts/access/Ownable.sol\":3073:3081  oldOwner */\n      dup2\n        /* \"@openzeppelin/contracts/access/Ownable.sol\":3052:3092  OwnershipTransferred(oldOwner, newOwner) */\n      0xffffffffffffffffffffffffffffffffffffffff\n      and\n      0x8be0079c531659141344cd1fd0a4f28419497f9722a3daafe3b4186f6b6457e0\n      mload(0x40)\n      mload(0x40)\n      dup1\n      swap2\n      sub\n      swap1\n      log3\n        /* \"@openzeppelin/contracts/access/Ownable.sol\":2975:3099  {... */\n      pop\n        /* \"@openzeppelin/contracts/access/Ownable.sol\":2912:3099  function _transferOwnership(address newOwner) internal virtual {... */\n      pop\n      jump\t// out\n        /* \"@openzeppelin/contracts/token/ERC20/ERC20.sol\":9949:10381  function _approve(address owner, address spender, uint256 value, bool emitEvent) internal virtual {... */\n    tag_396:\n        /* \"@openzeppelin/contracts/token/ERC20/ERC20.sol\":10078:10079  0 */\n      0x00\n        /* \"@openzeppelin/contracts/token/ERC20/ERC20.sol\":10061:10080  owner == address(0) */\n      0xffffffffffffffffffffffffffffffffffffffff\n      and\n        /* \"@openzeppelin/contracts/token/ERC20/ERC20.sol\":10061:10066  owner */\n      dup5\n        /* \"@openzeppelin/contracts/token/ERC20/ERC20.sol\":10061:10080  owner == address(0) */\n      0xffffffffffffffffffffffffffffffffffffffff\n      and\n      sub\n        /* \"@openzeppelin/contracts/token/ERC20/ERC20.sol\":10057:10146  if (owner == address(0)) {... */\n      tag_467\n      jumpi\n        /* \"@openzeppelin/contracts/token/ERC20/ERC20.sol\":10132:10133  0 */\n      0x00\n        /* \"@openzeppelin/contracts/token/ERC20/ERC20.sol\":10103:10135  ERC20InvalidApprover(address(0)) */\n      mload(0x40)\n      0xe602df0500000000000000000000000000000000000000000000000000000000\n      dup2\n      mstore\n      0x04\n      add\n      tag_468\n      swap2\n      swap1\n      tag_148\n      jump\t// in\n    tag_468:\n      mload(0x40)\n      dup1\n      swap2\n      sub\n      swap1\n      revert\n        /* \"@openzeppelin/contracts/token/ERC20/ERC20.sol\":10057:10146  if (owner == address(0)) {... */\n    tag_467:\n        /* \"@openzeppelin/contracts/token/ERC20/ERC20.sol\":10178:10179  0 */\n      0x00\n        /* \"@openzeppelin/contracts/token/ERC20/ERC20.sol\":10159:10180  spender == address(0) */\n      0xffffffffffffffffffffffffffffffffffffffff\n      and\n        /* \"@openzeppelin/contracts/token/ERC20/ERC20.sol\":10159:10166  spender */\n      dup4\n        /* \"@openzeppelin/contracts/token/ERC20/ERC20.sol\":10159:10180  spender == address(0) */\n      0xffffffffffffffffffffffffffffffffffffffff\n      and\n      sub\n        /* \"@openzeppelin/contracts/token/ERC20/ERC20.sol\":10155:10245  if (spender == address(0)) {... */\n      tag_469\n      jumpi\n        /* \"@openzeppelin/contracts/token/ERC20/ERC20.sol\":10231:10232  0 */\n      0x00\n        /* \"@openzeppelin/contracts/token/ERC20/ERC20.sol\":10203:10234  ERC20InvalidSpender(address(0)) */\n      mload(0x40)\n      0x94280d6200000000000000000000000000000000000000000000000000000000\n      dup2\n      mstore\n      0x04\n      add\n      tag_470\n      swap2\n      swap1\n      tag_148\n      jump\t// in\n    tag_470:\n      mload(0x40)\n      dup1\n      swap2\n      sub\n      swap1\n      revert\n        /* \"@openzeppelin/contracts/token/ERC20/ERC20.sol\":10155:10245  if (spender == address(0)) {... */\n    tag_469:\n        /* \"@openzeppelin/contracts/token/ERC20/ERC20.sol\":10284:10289  value */\n      dup2\n        /* \"@openzeppelin/contracts/token/ERC20/ERC20.sol\":10254:10265  _allowances */\n      0x01\n        /* \"@openzeppelin/contracts/token/ERC20/ERC20.sol\":10254:10272  _allowances[owner] */\n      0x00\n        /* \"@openzeppelin/contracts/token/ERC20/ERC20.sol\":10266:10271  owner */\n      dup7\n        /* \"@openzeppelin/contracts/token/ERC20/ERC20.sol\":10254:10272  _allowances[owner] */\n      0xffffffffffffffffffffffffffffffffffffffff\n      and\n      0xffffffffffffffffffffffffffffffffffffffff\n      and\n      dup2\n      mstore\n      0x20\n      add\n      swap1\n      dup2\n      mstore\n      0x20\n      add\n      0x00\n      keccak256\n        /* \"@openzeppelin/contracts/token/ERC20/ERC20.sol\":10254:10281  _allowances[owner][spender] */\n      0x00\n        /* \"@openzeppelin/contracts/token/ERC20/ERC20.sol\":10273:10280  spender */\n      dup6\n        /* \"@openzeppelin/contracts/token/ERC20/ERC20.sol\":10254:10281  _allowances[owner][spender] */\n      0xffffffffffffffffffffffffffffffffffffffff\n      and\n      0xffffffffffffffffffffffffffffffffffffffff\n      and\n      dup2\n      mstore\n      0x20\n      add\n      swap1\n      dup2\n      mstore\n      0x20\n      add\n      0x00\n      keccak256\n        /* \"@openzeppelin/contracts/token/ERC20/ERC20.sol\":10254:10289  _allowances[owner][spender] = value */\n      dup2\n      swap1\n      sstore\n      pop\n        /* \"@openzeppelin/contracts/token/ERC20/ERC20.sol\":10303:10312  emitEvent */\n      dup1\n        /* \"@openzeppelin/contracts/token/ERC20/ERC20.sol\":10299:10375  if (emitEvent) {... */\n      iszero\n      tag_471\n      jumpi\n        /* \"@openzeppelin/contracts/token/ERC20/ERC20.sol\":10349:10356  spender */\n      dup3\n        /* \"@openzeppelin/contracts/token/ERC20/ERC20.sol\":10333:10364  Approval(owner, spender, value) */\n      0xffffffffffffffffffffffffffffffffffffffff\n      and\n        /* \"@openzeppelin/contracts/token/ERC20/ERC20.sol\":10342:10347  owner */\n      dup5\n        /* \"@openzeppelin/contracts/token/ERC20/ERC20.sol\":10333:10364  Approval(owner, spender, value) */\n      0xffffffffffffffffffffffffffffffffffffffff\n      and\n      0x8c5be1e5ebec7d5bd14f71427d1e84f3dd0314c0f7b2291e5b200ac8c7c3b925\n        /* \"@openzeppelin/contracts/token/ERC20/ERC20.sol\":10358:10363  value */\n      dup5\n        /* \"@openzeppelin/contracts/token/ERC20/ERC20.sol\":10333:10364  Approval(owner, spender, value) */\n      mload(0x40)\n      tag_472\n      swap2\n      swap1\n      tag_69\n      jump\t// in\n    tag_472:\n      mload(0x40)\n      dup1\n      swap2\n      sub\n      swap1\n      log3\n        /* \"@openzeppelin/contracts/token/ERC20/ERC20.sol\":10299:10375  if (emitEvent) {... */\n    tag_471:\n        /* \"@openzeppelin/contracts/token/ERC20/ERC20.sol\":9949:10381  function _approve(address owner, address spender, uint256 value, bool emitEvent) internal virtual {... */\n      pop\n      pop\n      pop\n      pop\n      jump\t// out\n        /* \"@openzeppelin/contracts/token/ERC20/ERC20.sol\":6271:7378  function _update(address from, address to, uint256 value) internal virtual {... */\n    tag_410:\n        /* \"@openzeppelin/contracts/token/ERC20/ERC20.sol\":6376:6377  0 */\n      0x00\n        /* \"@openzeppelin/contracts/token/ERC20/ERC20.sol\":6360:6378  from == address(0) */\n      0xffffffffffffffffffffffffffffffffffffffff\n      and\n        /* \"@openzeppelin/contracts/token/ERC20/ERC20.sol\":6360:6364  from */\n      dup4\n        /* \"@openzeppelin/contracts/token/ERC20/ERC20.sol\":6360:6378  from == address(0) */\n      0xffffffffffffffffffffffffffffffffffffffff\n      and\n      sub\n        /* \"@openzeppelin/contracts/token/ERC20/ERC20.sol\":6356:6896  if (from == address(0)) {... */\n      tag_474\n      jumpi\n        /* \"@openzeppelin/contracts/token/ERC20/ERC20.sol\":6512:6517  value */\n      dup1\n        /* \"@openzeppelin/contracts/token/ERC20/ERC20.sol\":6496:6508  _totalSupply */\n      0x02\n      0x00\n        /* \"@openzeppelin/contracts/token/ERC20/ERC20.sol\":6496:6517  _totalSupply += value */\n      dup3\n      dup3\n      sload\n      tag_475\n      swap2\n      swap1\n      tag_453\n      jump\t// in\n    tag_475:\n      swap3\n      pop\n      pop\n      dup2\n      swap1\n      sstore\n      pop\n        /* \"@openzeppelin/contracts/token/ERC20/ERC20.sol\":6356:6896  if (from == address(0)) {... */\n      jump(tag_476)\n    tag_474:\n        /* \"@openzeppelin/contracts/token/ERC20/ERC20.sol\":6548:6567  uint256 fromBalance */\n      0x00\n        /* \"@openzeppelin/contracts/token/ERC20/ERC20.sol\":6570:6579  _balances */\n      dup1\n        /* \"@openzeppelin/contracts/token/ERC20/ERC20.sol\":6570:6585  _balances[from] */\n      0x00\n        /* \"@openzeppelin/contracts/token/ERC20/ERC20.sol\":6580:6584  from */\n      dup6\n        /* \"@openzeppelin/contracts/token/ERC20/ERC20.sol\":6570:6585  _balances[from] */\n      0xffffffffffffffffffffffffffffffffffffffff\n      and\n      0xffffffffffffffffffffffffffffffffffffffff\n      and\n      dup2\n      mstore\n      0x20\n      add\n      swap1\n      dup2\n      mstore\n      0x20\n      add\n      0x00\n      keccak256\n      sload\n        /* \"@openzeppelin/contracts/token/ERC20/ERC20.sol\":6548:6585  uint256 fromBalance = _balances[from] */\n      swap1\n      pop\n        /* \"@openzeppelin/contracts/token/ERC20/ERC20.sol\":6617:6622  value */\n      dup2\n        /* \"@openzeppelin/contracts/token/ERC20/ERC20.sol\":6603:6614  fromBalance */\n      dup2\n        /* \"@openzeppelin/contracts/token/ERC20/ERC20.sol\":6603:6622  fromBalance < value */\n      lt\n        /* \"@openzeppelin/contracts/token/ERC20/ERC20.sol\":6599:6714  if (fromBalance < value) {... */\n      iszero\n      tag_477\n      jumpi\n        /* \"@openzeppelin/contracts/token/ERC20/ERC20.sol\":6674:6678  from */\n      dup4\n        /* \"@openzeppelin/contracts/token/ERC20/ERC20.sol\":6680:6691  fromBalance */\n      dup2\n        /* \"@openzeppelin/contracts/token/ERC20/ERC20.sol\":6693:6698  value */\n      dup4\n        /* \"@openzeppelin/contracts/token/ERC20/ERC20.sol\":6649:6699  ERC20InsufficientBalance(from, fromBalance, value) */\n      mload(0x40)\n      0xe450d38c00000000000000000000000000000000000000000000000000000000\n      dup2\n      mstore\n      0x04\n      add\n      tag_478\n      swap4\n      swap3\n      swap2\n      swap1\n      tag_402\n      jump\t// in\n    tag_478:\n      mload(0x40)\n      dup1\n      swap2\n      sub\n      swap1\n      revert\n        /* \"@openzeppelin/contracts/token/ERC20/ERC20.sol\":6599:6714  if (fromBalance < value) {... */\n    tag_477:\n        /* \"@openzeppelin/contracts/token/ERC20/ERC20.sol\":6866:6871  value */\n      dup2\n        /* \"@openzeppelin/contracts/token/ERC20/ERC20.sol\":6852:6863  fromBalance */\n      dup2\n        /* \"@openzeppelin/contracts/token/ERC20/ERC20.sol\":6852:6871  fromBalance - value */\n      sub\n        /* \"@openzeppelin/contracts/token/ERC20/ERC20.sol\":6834:6843  _balances */\n      0x00\n        /* \"@openzeppelin/contracts/token/ERC20/ERC20.sol\":6834:6849  _balances[from] */\n      dup1\n        /* \"@openzeppelin/contracts/token/ERC20/ERC20.sol\":6844:6848  from */\n      dup7\n        /* \"@openzeppelin/contracts/token/ERC20/ERC20.sol\":6834:6849  _balances[from] */\n      0xffffffffffffffffffffffffffffffffffffffff\n      and\n      0xffffffffffffffffffffffffffffffffffffffff\n      and\n      dup2\n      mstore\n      0x20\n      add\n      swap1\n      dup2\n      mstore\n      0x20\n      add\n      0x00\n      keccak256\n        /* \"@openzeppelin/contracts/token/ERC20/ERC20.sol\":6834:6871  _balances[from] = fromBalance - value */\n      dup2\n      swap1\n      sstore\n      pop\n        /* \"@openzeppelin/contracts/token/ERC20/ERC20.sol\":6534:6896  {... */\n      pop\n        /* \"@openzeppelin/contracts/token/ERC20/ERC20.sol\":6356:6896  if (from == address(0)) {... */\n    tag_476:\n        /* \"@openzeppelin/contracts/token/ERC20/ERC20.sol\":6924:6925  0 */\n      0x00\n        /* \"@openzeppelin/contracts/token/ERC20/ERC20.sol\":6910:6926  to == address(0) */\n      0xffffffffffffffffffffffffffffffffffffffff\n      and\n        /* \"@openzeppelin/contracts/token/ERC20/ERC20.sol\":6910:6912  to */\n      dup3\n        /* \"@openzeppelin/contracts/token/ERC20/ERC20.sol\":6910:6926  to == address(0) */\n      0xffffffffffffffffffffffffffffffffffffffff\n      and\n      sub\n        /* \"@openzeppelin/contracts/token/ERC20/ERC20.sol\":6906:7331  if (to == address(0)) {... */\n      tag_479\n      jumpi\n        /* \"@openzeppelin/contracts/token/ERC20/ERC20.sol\":7089:7094  value */\n      dup1\n        /* \"@openzeppelin/contracts/token/ERC20/ERC20.sol\":7073:7085  _totalSupply */\n      0x02\n      0x00\n        /* \"@openzeppelin/contracts/token/ERC20/ERC20.sol\":7073:7094  _totalSupply -= value */\n      dup3\n      dup3\n      sload\n      sub\n      swap3\n      pop\n      pop\n      dup2\n      swap1\n      sstore\n      pop\n        /* \"@openzeppelin/contracts/token/ERC20/ERC20.sol\":6906:7331  if (to == address(0)) {... */\n      jump(tag_480)\n    tag_479:\n        /* \"@openzeppelin/contracts/token/ERC20/ERC20.sol\":7301:7306  value */\n      dup1\n        /* \"@openzeppelin/contracts/token/ERC20/ERC20.sol\":7284:7293  _balances */\n      0x00\n        /* \"@openzeppelin/contracts/token/ERC20/ERC20.sol\":7284:7297  _balances[to] */\n      dup1\n        /* \"@openzeppelin/contracts/token/ERC20/ERC20.sol\":7294:7296  to */\n      dup5\n        /* \"@openzeppelin/contracts/token/ERC20/ERC20.sol\":7284:7297  _balances[to] */\n      0xffffffffffffffffffffffffffffffffffffffff\n      and\n      0xffffffffffffffffffffffffffffffffffffffff\n      and\n      dup2\n      mstore\n      0x20\n      add\n      swap1\n      dup2\n      mstore\n      0x20\n      add\n      0x00\n      keccak256\n      0x00\n        /* \"@openzeppelin/contracts/token/ERC20/ERC20.sol\":7284:7306  _balances[to] += value */\n      dup3\n      dup3\n      sload\n      add\n      swap3\n      pop\n      pop\n      dup2\n      swap1\n      sstore\n      pop\n        /* \"@openzeppelin/contracts/token/ERC20/ERC20.sol\":6906:7331  if (to == address(0)) {... */\n    tag_480:\n        /* \"@openzeppelin/contracts/token/ERC20/ERC20.sol\":7361:7363  to */\n      dup2\n        /* \"@openzeppelin/contracts/token/ERC20/ERC20.sol\":7346:7371  Transfer(from, to, value) */\n      0xffffffffffffffffffffffffffffffffffffffff\n      and\n        /* \"@openzeppelin/contracts/token/ERC20/ERC20.sol\":7355:7359  from */\n      dup4\n        /* \"@openzeppelin/contracts/token/ERC20/ERC20.sol\":7346:7371  Transfer(from, to, value) */\n      0xffffffffffffffffffffffffffffffffffffffff\n      and\n      0xddf252ad1be2c89b69c2b068fc378daa952ba7f163c4a11628f55a4df523b3ef\n        /* \"@openzeppelin/contracts/token/ERC20/ERC20.sol\":7365:7370  value */\n      dup4\n        /* \"@openzeppelin/contracts/token/ERC20/ERC20.sol\":7346:7371  Transfer(from, to, value) */\n      mload(0x40)\n      tag_481\n      swap2\n      swap1\n      tag_69\n      jump\t// in\n    tag_481:\n      mload(0x40)\n      dup1\n      swap2\n      sub\n      swap1\n      log3\n        /* \"@openzeppelin/contracts/token/ERC20/ERC20.sol\":6271:7378  function _update(address from, address to, uint256 value) internal virtual {... */\n      pop\n      pop\n      pop\n      jump\t// out\n        /* \"@openzeppelin/contracts/utils/math/SafeMath.sol\":3122:3218  function sub(uint256 a, uint256 b) internal pure returns (uint256) {... */\n    tag_439:\n        /* \"@openzeppelin/contracts/utils/math/SafeMath.sol\":3180:3187  uint256 */\n      0x00\n        /* \"@openzeppelin/contracts/utils/math/SafeMath.sol\":3210:3211  b */\n      dup2\n        /* \"@openzeppelin/contracts/utils/math/SafeMath.sol\":3206:3207  a */\n      dup4\n        /* \"@openzeppelin/contracts/utils/math/SafeMath.sol\":3206:3211  a - b */\n      tag_483\n      swap2\n      swap1\n      tag_484\n      jump\t// in\n    tag_483:\n        /* \"@openzeppelin/contracts/utils/math/SafeMath.sol\":3199:3211  return a - b */\n      swap1\n      pop\n        /* \"@openzeppelin/contracts/utils/math/SafeMath.sol\":3122:3218  function sub(uint256 a, uint256 b) internal pure returns (uint256) {... */\n      swap3\n      swap2\n      pop\n      pop\n      jump\t// out\n        /* \"#utility.yul\":7:176   */\n    tag_485:\n        /* \"#utility.yul\":91:102   */\n      0x00\n        /* \"#utility.yul\":125:131   */\n      dup3\n        /* \"#utility.yul\":120:123   */\n      dup3\n        /* \"#utility.yul\":113:132   */\n      mstore\n        /* \"#utility.yul\":165:169   */\n      0x20\n        /* \"#utility.yul\":160:163   */\n      dup3\n        /* \"#utility.yul\":156:170   */\n      add\n        /* \"#utility.yul\":141:170   */\n      swap1\n      pop\n        /* \"#utility.yul\":7:176   */\n      swap3\n      swap2\n      pop\n      pop\n      jump\t// out\n        /* \"#utility.yul\":182:402   */\n    tag_486:\n        /* \"#utility.yul\":322:356   */\n      0x44697265637420455448207472616e7366657273206e6f7420616c6c6f776564\n        /* \"#utility.yul\":318:319   */\n      0x00\n        /* \"#utility.yul\":310:316   */\n      dup3\n        /* \"#utility.yul\":306:320   */\n      add\n        /* \"#utility.yul\":299:357   */\n      mstore\n        /* \"#utility.yul\":391:394   */\n      0x2e00000000000000000000000000000000000000000000000000000000000000\n        /* \"#utility.yul\":386:388   */\n      0x20\n        /* \"#utility.yul\":378:384   */\n      dup3\n        /* \"#utility.yul\":374:389   */\n      add\n        /* \"#utility.yul\":367:395   */\n      mstore\n        /* \"#utility.yul\":182:402   */\n      pop\n      jump\t// out\n        /* \"#utility.yul\":408:774   */\n    tag_487:\n        /* \"#utility.yul\":550:553   */\n      0x00\n        /* \"#utility.yul\":571:638   */\n      tag_567\n        /* \"#utility.yul\":635:637   */\n      0x21\n        /* \"#utility.yul\":630:633   */\n      dup4\n        /* \"#utility.yul\":571:638   */\n      tag_485\n      jump\t// in\n    tag_567:\n        /* \"#utility.yul\":564:638   */\n      swap2\n      pop\n        /* \"#utility.yul\":647:740   */\n      tag_568\n        /* \"#utility.yul\":736:739   */\n      dup3\n        /* \"#utility.yul\":647:740   */\n      tag_486\n      jump\t// in\n    tag_568:\n        /* \"#utility.yul\":765:767   */\n      0x40\n        /* \"#utility.yul\":760:763   */\n      dup3\n        /* \"#utility.yul\":756:768   */\n      add\n        /* \"#utility.yul\":749:768   */\n      swap1\n      pop\n        /* \"#utility.yul\":408:774   */\n      swap2\n      swap1\n      pop\n      jump\t// out\n        /* \"#utility.yul\":780:1199   */\n    tag_49:\n        /* \"#utility.yul\":946:950   */\n      0x00\n        /* \"#utility.yul\":984:986   */\n      0x20\n        /* \"#utility.yul\":973:982   */\n      dup3\n        /* \"#utility.yul\":969:987   */\n      add\n        /* \"#utility.yul\":961:987   */\n      swap1\n      pop\n        /* \"#utility.yul\":1033:1042   */\n      dup2\n        /* \"#utility.yul\":1027:1031   */\n      dup2\n        /* \"#utility.yul\":1023:1043   */\n      sub\n        /* \"#utility.yul\":1019:1020   */\n      0x00\n        /* \"#utility.yul\":1008:1017   */\n      dup4\n        /* \"#utility.yul\":1004:1021   */\n      add\n        /* \"#utility.yul\":997:1044   */\n      mstore\n        /* \"#utility.yul\":1061:1192   */\n      tag_570\n        /* \"#utility.yul\":1187:1191   */\n      dup2\n        /* \"#utility.yul\":1061:1192   */\n      tag_487\n      jump\t// in\n    tag_570:\n        /* \"#utility.yul\":1053:1192   */\n      swap1\n      pop\n        /* \"#utility.yul\":780:1199   */\n      swap2\n      swap1\n      pop\n      jump\t// out\n        /* \"#utility.yul\":1205:1304   */\n    tag_488:\n        /* \"#utility.yul\":1257:1263   */\n      0x00\n        /* \"#utility.yul\":1291:1296   */\n      dup2\n        /* \"#utility.yul\":1285:1297   */\n      mload\n        /* \"#utility.yul\":1275:1297   */\n      swap1\n      pop\n        /* \"#utility.yul\":1205:1304   */\n      swap2\n      swap1\n      pop\n      jump\t// out\n        /* \"#utility.yul\":1310:1449   */\n    tag_489:\n        /* \"#utility.yul\":1399:1405   */\n      dup3\n        /* \"#utility.yul\":1394:1397   */\n      dup2\n        /* \"#utility.yul\":1389:1392   */\n      dup4\n        /* \"#utility.yul\":1383:1406   */\n      mcopy\n        /* \"#utility.yul\":1440:1441   */\n      0x00\n        /* \"#utility.yul\":1431:1437   */\n      dup4\n        /* \"#utility.yul\":1426:1429   */\n      dup4\n        /* \"#utility.yul\":1422:1438   */\n      add\n        /* \"#utility.yul\":1415:1442   */\n      mstore\n        /* \"#utility.yul\":1310:1449   */\n      pop\n      pop\n      pop\n      jump\t// out\n        /* \"#utility.yul\":1455:1557   */\n    tag_490:\n        /* \"#utility.yul\":1496:1502   */\n      0x00\n        /* \"#utility.yul\":1547:1549   */\n      0x1f\n        /* \"#utility.yul\":1543:1550   */\n      not\n        /* \"#utility.yul\":1538:1540   */\n      0x1f\n        /* \"#utility.yul\":1531:1536   */\n      dup4\n        /* \"#utility.yul\":1527:1541   */\n      add\n        /* \"#utility.yul\":1523:1551   */\n      and\n        /* \"#utility.yul\":1513:1551   */\n      swap1\n      pop\n        /* \"#utility.yul\":1455:1557   */\n      swap2\n      swap1\n      pop\n      jump\t// out\n        /* \"#utility.yul\":1563:1940   */\n    tag_491:\n        /* \"#utility.yul\":1651:1654   */\n      0x00\n        /* \"#utility.yul\":1679:1718   */\n      tag_575\n        /* \"#utility.yul\":1712:1717   */\n      dup3\n        /* \"#utility.yul\":1679:1718   */\n      tag_488\n      jump\t// in\n    tag_575:\n        /* \"#utility.yul\":1734:1805   */\n      tag_576\n        /* \"#utility.yul\":1798:1804   */\n      dup2\n        /* \"#utility.yul\":1793:1796   */\n      dup6\n        /* \"#utility.yul\":1734:1805   */\n      tag_485\n      jump\t// in\n    tag_576:\n        /* \"#utility.yul\":1727:1805   */\n      swap4\n      pop\n        /* \"#utility.yul\":1814:1879   */\n      tag_577\n        /* \"#utility.yul\":1872:1878   */\n      dup2\n        /* \"#utility.yul\":1867:1870   */\n      dup6\n        /* \"#utility.yul\":1860:1864   */\n      0x20\n        /* \"#utility.yul\":1853:1858   */\n      dup7\n        /* \"#utility.yul\":1849:1865   */\n      add\n        /* \"#utility.yul\":1814:1879   */\n      tag_489\n      jump\t// in\n    tag_577:\n        /* \"#utility.yul\":1904:1933   */\n      tag_578\n        /* \"#utility.yul\":1926:1932   */\n      dup2\n        /* \"#utility.yul\":1904:1933   */\n      tag_490\n      jump\t// in\n    tag_578:\n        /* \"#utility.yul\":1899:1902   */\n      dup5\n        /* \"#utility.yul\":1895:1934   */\n      add\n        /* \"#utility.yul\":1888:1934   */\n      swap2\n      pop\n        /* \"#utility.yul\":1655:1940   */\n      pop\n        /* \"#utility.yul\":1563:1940   */\n      swap3\n      swap2\n      pop\n      pop\n      jump\t// out\n        /* \"#utility.yul\":1946:2259   */\n    tag_57:\n        /* \"#utility.yul\":2059:2063   */\n      0x00\n        /* \"#utility.yul\":2097:2099   */\n      0x20\n        /* \"#utility.yul\":2086:2095   */\n      dup3\n        /* \"#utility.yul\":2082:2100   */\n      add\n        /* \"#utility.yul\":2074:2100   */\n      swap1\n      pop\n        /* \"#utility.yul\":2146:2155   */\n      dup2\n        /* \"#utility.yul\":2140:2144   */\n      dup2\n        /* \"#utility.yul\":2136:2156   */\n      sub\n        /* \"#utility.yul\":2132:2133   */\n      0x00\n        /* \"#utility.yul\":2121:2130   */\n      dup4\n        /* \"#utility.yul\":2117:2134   */\n      add\n        /* \"#utility.yul\":2110:2157   */\n      mstore\n        /* \"#utility.yul\":2174:2252   */\n      tag_580\n        /* \"#utility.yul\":2247:2251   */\n      dup2\n        /* \"#utility.yul\":2238:2244   */\n      dup5\n        /* \"#utility.yul\":2174:2252   */\n      tag_491\n      jump\t// in\n    tag_580:\n        /* \"#utility.yul\":2166:2252   */\n      swap1\n      pop\n        /* \"#utility.yul\":1946:2259   */\n      swap3\n      swap2\n      pop\n      pop\n      jump\t// out\n        /* \"#utility.yul\":2346:2463   */\n    tag_493:\n        /* \"#utility.yul\":2455:2456   */\n      0x00\n        /* \"#utility.yul\":2452:2453   */\n      dup1\n        /* \"#utility.yul\":2445:2457   */\n      revert\n        /* \"#utility.yul\":2592:2718   */\n    tag_495:\n        /* \"#utility.yul\":2629:2636   */\n      0x00\n        /* \"#utility.yul\":2669:2711   */\n      0xffffffffffffffffffffffffffffffffffffffff\n        /* \"#utility.yul\":2662:2667   */\n      dup3\n        /* \"#utility.yul\":2658:2712   */\n      and\n        /* \"#utility.yul\":2647:2712   */\n      swap1\n      pop\n        /* \"#utility.yul\":2592:2718   */\n      swap2\n      swap1\n      pop\n      jump\t// out\n        /* \"#utility.yul\":2724:2820   */\n    tag_496:\n        /* \"#utility.yul\":2761:2768   */\n      0x00\n        /* \"#utility.yul\":2790:2814   */\n      tag_586\n        /* \"#utility.yul\":2808:2813   */\n      dup3\n        /* \"#utility.yul\":2790:2814   */\n      tag_495\n      jump\t// in\n    tag_586:\n        /* \"#utility.yul\":2779:2814   */\n      swap1\n      pop\n        /* \"#utility.yul\":2724:2820   */\n      swap2\n      swap1\n      pop\n      jump\t// out\n        /* \"#utility.yul\":2826:2948   */\n    tag_497:\n        /* \"#utility.yul\":2899:2923   */\n      tag_588\n        /* \"#utility.yul\":2917:2922   */\n      dup2\n        /* \"#utility.yul\":2899:2923   */\n      tag_496\n      jump\t// in\n    tag_588:\n        /* \"#utility.yul\":2892:2897   */\n      dup2\n        /* \"#utility.yul\":2889:2924   */\n      eq\n        /* \"#utility.yul\":2879:2942   */\n      tag_589\n      jumpi\n        /* \"#utility.yul\":2938:2939   */\n      0x00\n        /* \"#utility.yul\":2935:2936   */\n      dup1\n        /* \"#utility.yul\":2928:2940   */\n      revert\n        /* \"#utility.yul\":2879:2942   */\n    tag_589:\n        /* \"#utility.yul\":2826:2948   */\n      pop\n      jump\t// out\n        /* \"#utility.yul\":2954:3093   */\n    tag_498:\n        /* \"#utility.yul\":3000:3005   */\n      0x00\n        /* \"#utility.yul\":3038:3044   */\n      dup2\n        /* \"#utility.yul\":3025:3045   */\n      calldataload\n        /* \"#utility.yul\":3016:3045   */\n      swap1\n      pop\n        /* \"#utility.yul\":3054:3087   */\n      tag_591\n        /* \"#utility.yul\":3081:3086   */\n      dup2\n        /* \"#utility.yul\":3054:3087   */\n      tag_497\n      jump\t// in\n    tag_591:\n        /* \"#utility.yul\":2954:3093   */\n      swap3\n      swap2\n      pop\n      pop\n      jump\t// out\n        /* \"#utility.yul\":3099:3176   */\n    tag_499:\n        /* \"#utility.yul\":3136:3143   */\n      0x00\n        /* \"#utility.yul\":3165:3170   */\n      dup2\n        /* \"#utility.yul\":3154:3170   */\n      swap1\n      pop\n        /* \"#utility.yul\":3099:3176   */\n      swap2\n      swap1\n      pop\n      jump\t// out\n        /* \"#utility.yul\":3182:3304   */\n    tag_500:\n        /* \"#utility.yul\":3255:3279   */\n      tag_594\n        /* \"#utility.yul\":3273:3278   */\n      dup2\n        /* \"#utility.yul\":3255:3279   */\n      tag_499\n      jump\t// in\n    tag_594:\n        /* \"#utility.yul\":3248:3253   */\n      dup2\n        /* \"#utility.yul\":3245:3280   */\n      eq\n        /* \"#utility.yul\":3235:3298   */\n      tag_595\n      jumpi\n        /* \"#utility.yul\":3294:3295   */\n      0x00\n        /* \"#utility.yul\":3291:3292   */\n      dup1\n        /* \"#utility.yul\":3284:3296   */\n      revert\n        /* \"#utility.yul\":3235:3298   */\n    tag_595:\n        /* \"#utility.yul\":3182:3304   */\n      pop\n      jump\t// out\n        /* \"#utility.yul\":3310:3449   */\n    tag_501:\n        /* \"#utility.yul\":3356:3361   */\n      0x00\n        /* \"#utility.yul\":3394:3400   */\n      dup2\n        /* \"#utility.yul\":3381:3401   */\n      calldataload\n        /* \"#utility.yul\":3372:3401   */\n      swap1\n      pop\n        /* \"#utility.yul\":3410:3443   */\n      tag_597\n        /* \"#utility.yul\":3437:3442   */\n      dup2\n        /* \"#utility.yul\":3410:3443   */\n      tag_500\n      jump\t// in\n    tag_597:\n        /* \"#utility.yul\":3310:3449   */\n      swap3\n      swap2\n      pop\n      pop\n      jump\t// out\n        /* \"#utility.yul\":3455:3929   */\n    tag_61:\n        /* \"#utility.yul\":3523:3529   */\n      0x00\n        /* \"#utility.yul\":3531:3537   */\n      dup1\n        /* \"#utility.yul\":3580:3582   */\n      0x40\n        /* \"#utility.yul\":3568:3577   */\n      dup4\n        /* \"#utility.yul\":3559:3566   */\n      dup6\n        /* \"#utility.yul\":3555:3578   */\n      sub\n        /* \"#utility.yul\":3551:3583   */\n      slt\n        /* \"#utility.yul\":3548:3667   */\n      iszero\n      tag_599\n      jumpi\n        /* \"#utility.yul\":3586:3665   */\n      tag_600\n      tag_493\n      jump\t// in\n    tag_600:\n        /* \"#utility.yul\":3548:3667   */\n    tag_599:\n        /* \"#utility.yul\":3706:3707   */\n      0x00\n        /* \"#utility.yul\":3731:3784   */\n      tag_601\n        /* \"#utility.yul\":3776:3783   */\n      dup6\n        /* \"#utility.yul\":3767:3773   */\n      dup3\n        /* \"#utility.yul\":3756:3765   */\n      dup7\n        /* \"#utility.yul\":3752:3774   */\n      add\n        /* \"#utility.yul\":3731:3784   */\n      tag_498\n      jump\t// in\n    tag_601:\n        /* \"#utility.yul\":3721:3784   */\n      swap3\n      pop\n        /* \"#utility.yul\":3677:3794   */\n      pop\n        /* \"#utility.yul\":3833:3835   */\n      0x20\n        /* \"#utility.yul\":3859:3912   */\n      tag_602\n        /* \"#utility.yul\":3904:3911   */\n      dup6\n        /* \"#utility.yul\":3895:3901   */\n      dup3\n        /* \"#utility.yul\":3884:3893   */\n      dup7\n        /* \"#utility.yul\":3880:3902   */\n      add\n        /* \"#utility.yul\":3859:3912   */\n      tag_501\n      jump\t// in\n    tag_602:\n        /* \"#utility.yul\":3849:3912   */\n      swap2\n      pop\n        /* \"#utility.yul\":3804:3922   */\n      pop\n        /* \"#utility.yul\":3455:3929   */\n      swap3\n      pop\n      swap3\n      swap1\n      pop\n      jump\t// out\n        /* \"#utility.yul\":3935:4025   */\n    tag_502:\n        /* \"#utility.yul\":3969:3976   */\n      0x00\n        /* \"#utility.yul\":4012:4017   */\n      dup2\n        /* \"#utility.yul\":4005:4018   */\n      iszero\n        /* \"#utility.yul\":3998:4019   */\n      iszero\n        /* \"#utility.yul\":3987:4019   */\n      swap1\n      pop\n        /* \"#utility.yul\":3935:4025   */\n      swap2\n      swap1\n      pop\n      jump\t// out\n        /* \"#utility.yul\":4031:4140   */\n    tag_503:\n        /* \"#utility.yul\":4112:4133   */\n      tag_605\n        /* \"#utility.yul\":4127:4132   */\n      dup2\n        /* \"#utility.yul\":4112:4133   */\n      tag_502\n      jump\t// in\n    tag_605:\n        /* \"#utility.yul\":4107:4110   */\n      dup3\n        /* \"#utility.yul\":4100:4134   */\n      mstore\n        /* \"#utility.yul\":4031:4140   */\n      pop\n      pop\n      jump\t// out\n        /* \"#utility.yul\":4146:4356   */\n    tag_64:\n        /* \"#utility.yul\":4233:4237   */\n      0x00\n        /* \"#utility.yul\":4271:4273   */\n      0x20\n        /* \"#utility.yul\":4260:4269   */\n      dup3\n        /* \"#utility.yul\":4256:4274   */\n      add\n        /* \"#utility.yul\":4248:4274   */\n      swap1\n      pop\n        /* \"#utility.yul\":4284:4349   */\n      tag_607\n        /* \"#utility.yul\":4346:4347   */\n      0x00\n        /* \"#utility.yul\":4335:4344   */\n      dup4\n        /* \"#utility.yul\":4331:4348   */\n      add\n        /* \"#utility.yul\":4322:4328   */\n      dup5\n        /* \"#utility.yul\":4284:4349   */\n      tag_503\n      jump\t// in\n    tag_607:\n        /* \"#utility.yul\":4146:4356   */\n      swap3\n      swap2\n      pop\n      pop\n      jump\t// out\n        /* \"#utility.yul\":4362:4480   */\n    tag_504:\n        /* \"#utility.yul\":4449:4473   */\n      tag_609\n        /* \"#utility.yul\":4467:4472   */\n      dup2\n        /* \"#utility.yul\":4449:4473   */\n      tag_499\n      jump\t// in\n    tag_609:\n        /* \"#utility.yul\":4444:4447   */\n      dup3\n        /* \"#utility.yul\":4437:4474   */\n      mstore\n        /* \"#utility.yul\":4362:4480   */\n      pop\n      pop\n      jump\t// out\n        /* \"#utility.yul\":4486:4708   */\n    tag_69:\n        /* \"#utility.yul\":4579:4583   */\n      0x00\n        /* \"#utility.yul\":4617:4619   */\n      0x20\n        /* \"#utility.yul\":4606:4615   */\n      dup3\n        /* \"#utility.yul\":4602:4620   */\n      add\n        /* \"#utility.yul\":4594:4620   */\n      swap1\n      pop\n        /* \"#utility.yul\":4630:4701   */\n      tag_611\n        /* \"#utility.yul\":4698:4699   */\n      0x00\n        /* \"#utility.yul\":4687:4696   */\n      dup4\n        /* \"#utility.yul\":4683:4700   */\n      add\n        /* \"#utility.yul\":4674:4680   */\n      dup5\n        /* \"#utility.yul\":4630:4701   */\n      tag_504\n      jump\t// in\n    tag_611:\n        /* \"#utility.yul\":4486:4708   */\n      swap3\n      swap2\n      pop\n      pop\n      jump\t// out\n        /* \"#utility.yul\":4714:5043   */\n    tag_81:\n        /* \"#utility.yul\":4773:4779   */\n      0x00\n        /* \"#utility.yul\":4822:4824   */\n      0x20\n        /* \"#utility.yul\":4810:4819   */\n      dup3\n        /* \"#utility.yul\":4801:4808   */\n      dup5\n        /* \"#utility.yul\":4797:4820   */\n      sub\n        /* \"#utility.yul\":4793:4825   */\n      slt\n        /* \"#utility.yul\":4790:4909   */\n      iszero\n      tag_613\n      jumpi\n        /* \"#utility.yul\":4828:4907   */\n      tag_614\n      tag_493\n      jump\t// in\n    tag_614:\n        /* \"#utility.yul\":4790:4909   */\n    tag_613:\n        /* \"#utility.yul\":4948:4949   */\n      0x00\n        /* \"#utility.yul\":4973:5026   */\n      tag_615\n        /* \"#utility.yul\":5018:5025   */\n      dup5\n        /* \"#utility.yul\":5009:5015   */\n      dup3\n        /* \"#utility.yul\":4998:5007   */\n      dup6\n        /* \"#utility.yul\":4994:5016   */\n      add\n        /* \"#utility.yul\":4973:5026   */\n      tag_498\n      jump\t// in\n    tag_615:\n        /* \"#utility.yul\":4963:5026   */\n      swap2\n      pop\n        /* \"#utility.yul\":4919:5036   */\n      pop\n        /* \"#utility.yul\":4714:5043   */\n      swap3\n      swap2\n      pop\n      pop\n      jump\t// out\n        /* \"#utility.yul\":5049:5668   */\n    tag_87:\n        /* \"#utility.yul\":5126:5132   */\n      0x00\n        /* \"#utility.yul\":5134:5140   */\n      dup1\n        /* \"#utility.yul\":5142:5148   */\n      0x00\n        /* \"#utility.yul\":5191:5193   */\n      0x60\n        /* \"#utility.yul\":5179:5188   */\n      dup5\n        /* \"#utility.yul\":5170:5177   */\n      dup7\n        /* \"#utility.yul\":5166:5189   */\n      sub\n        /* \"#utility.yul\":5162:5194   */\n      slt\n        /* \"#utility.yul\":5159:5278   */\n      iszero\n      tag_617\n      jumpi\n        /* \"#utility.yul\":5197:5276   */\n      tag_618\n      tag_493\n      jump\t// in\n    tag_618:\n        /* \"#utility.yul\":5159:5278   */\n    tag_617:\n        /* \"#utility.yul\":5317:5318   */\n      0x00\n        /* \"#utility.yul\":5342:5395   */\n      tag_619\n        /* \"#utility.yul\":5387:5394   */\n      dup7\n        /* \"#utility.yul\":5378:5384   */\n      dup3\n        /* \"#utility.yul\":5367:5376   */\n      dup8\n        /* \"#utility.yul\":5363:5385   */\n      add\n        /* \"#utility.yul\":5342:5395   */\n      tag_498\n      jump\t// in\n    tag_619:\n        /* \"#utility.yul\":5332:5395   */\n      swap4\n      pop\n        /* \"#utility.yul\":5288:5405   */\n      pop\n        /* \"#utility.yul\":5444:5446   */\n      0x20\n        /* \"#utility.yul\":5470:5523   */\n      tag_620\n        /* \"#utility.yul\":5515:5522   */\n      dup7\n        /* \"#utility.yul\":5506:5512   */\n      dup3\n        /* \"#utility.yul\":5495:5504   */\n      dup8\n        /* \"#utility.yul\":5491:5513   */\n      add\n        /* \"#utility.yul\":5470:5523   */\n      tag_498\n      jump\t// in\n    tag_620:\n        /* \"#utility.yul\":5460:5523   */\n      swap3\n      pop\n        /* \"#utility.yul\":5415:5533   */\n      pop\n        /* \"#utility.yul\":5572:5574   */\n      0x40\n        /* \"#utility.yul\":5598:5651   */\n      tag_621\n        /* \"#utility.yul\":5643:5650   */\n      dup7\n        /* \"#utility.yul\":5634:5640   */\n      dup3\n        /* \"#utility.yul\":5623:5632   */\n      dup8\n        /* \"#utility.yul\":5619:5641   */\n      add\n        /* \"#utility.yul\":5598:5651   */\n      tag_501\n      jump\t// in\n    tag_621:\n        /* \"#utility.yul\":5588:5651   */\n      swap2\n      pop\n        /* \"#utility.yul\":5543:5661   */\n      pop\n        /* \"#utility.yul\":5049:5668   */\n      swap3\n      pop\n      swap3\n      pop\n      swap3\n      jump\t// out\n        /* \"#utility.yul\":5674:5734   */\n    tag_505:\n        /* \"#utility.yul\":5702:5705   */\n      0x00\n        /* \"#utility.yul\":5723:5728   */\n      dup2\n        /* \"#utility.yul\":5716:5728   */\n      swap1\n      pop\n        /* \"#utility.yul\":5674:5734   */\n      swap2\n      swap1\n      pop\n      jump\t// out\n        /* \"#utility.yul\":5740:5882   */\n    tag_506:\n        /* \"#utility.yul\":5790:5799   */\n      0x00\n        /* \"#utility.yul\":5823:5876   */\n      tag_624\n        /* \"#utility.yul\":5841:5875   */\n      tag_625\n        /* \"#utility.yul\":5850:5874   */\n      tag_626\n        /* \"#utility.yul\":5868:5873   */\n      dup5\n        /* \"#utility.yul\":5850:5874   */\n      tag_495\n      jump\t// in\n    tag_626:\n        /* \"#utility.yul\":5841:5875   */\n      tag_505\n      jump\t// in\n    tag_625:\n        /* \"#utility.yul\":5823:5876   */\n      tag_495\n      jump\t// in\n    tag_624:\n        /* \"#utility.yul\":5810:5876   */\n      swap1\n      pop\n        /* \"#utility.yul\":5740:5882   */\n      swap2\n      swap1\n      pop\n      jump\t// out\n        /* \"#utility.yul\":5888:6014   */\n    tag_507:\n        /* \"#utility.yul\":5938:5947   */\n      0x00\n        /* \"#utility.yul\":5971:6008   */\n      tag_628\n        /* \"#utility.yul\":6002:6007   */\n      dup3\n        /* \"#utility.yul\":5971:6008   */\n      tag_506\n      jump\t// in\n    tag_628:\n        /* \"#utility.yul\":5958:6008   */\n      swap1\n      pop\n        /* \"#utility.yul\":5888:6014   */\n      swap2\n      swap1\n      pop\n      jump\t// out\n        /* \"#utility.yul\":6020:6167   */\n    tag_508:\n        /* \"#utility.yul\":6091:6100   */\n      0x00\n        /* \"#utility.yul\":6124:6161   */\n      tag_630\n        /* \"#utility.yul\":6155:6160   */\n      dup3\n        /* \"#utility.yul\":6124:6161   */\n      tag_507\n      jump\t// in\n    tag_630:\n        /* \"#utility.yul\":6111:6161   */\n      swap1\n      pop\n        /* \"#utility.yul\":6020:6167   */\n      swap2\n      swap1\n      pop\n      jump\t// out\n        /* \"#utility.yul\":6173:6346   */\n    tag_509:\n        /* \"#utility.yul\":6281:6339   */\n      tag_632\n        /* \"#utility.yul\":6333:6338   */\n      dup2\n        /* \"#utility.yul\":6281:6339   */\n      tag_508\n      jump\t// in\n    tag_632:\n        /* \"#utility.yul\":6276:6279   */\n      dup3\n        /* \"#utility.yul\":6269:6340   */\n      mstore\n        /* \"#utility.yul\":6173:6346   */\n      pop\n      pop\n      jump\t// out\n        /* \"#utility.yul\":6352:6616   */\n    tag_97:\n        /* \"#utility.yul\":6466:6470   */\n      0x00\n        /* \"#utility.yul\":6504:6506   */\n      0x20\n        /* \"#utility.yul\":6493:6502   */\n      dup3\n        /* \"#utility.yul\":6489:6507   */\n      add\n        /* \"#utility.yul\":6481:6507   */\n      swap1\n      pop\n        /* \"#utility.yul\":6517:6609   */\n      tag_634\n        /* \"#utility.yul\":6606:6607   */\n      0x00\n        /* \"#utility.yul\":6595:6604   */\n      dup4\n        /* \"#utility.yul\":6591:6608   */\n      add\n        /* \"#utility.yul\":6582:6588   */\n      dup5\n        /* \"#utility.yul\":6517:6609   */\n      tag_509\n      jump\t// in\n    tag_634:\n        /* \"#utility.yul\":6352:6616   */\n      swap3\n      swap2\n      pop\n      pop\n      jump\t// out\n        /* \"#utility.yul\":6622:6708   */\n    tag_510:\n        /* \"#utility.yul\":6657:6664   */\n      0x00\n        /* \"#utility.yul\":6697:6701   */\n      0xff\n        /* \"#utility.yul\":6690:6695   */\n      dup3\n        /* \"#utility.yul\":6686:6702   */\n      and\n        /* \"#utility.yul\":6675:6702   */\n      swap1\n      pop\n        /* \"#utility.yul\":6622:6708   */\n      swap2\n      swap1\n      pop\n      jump\t// out\n        /* \"#utility.yul\":6714:6826   */\n    tag_511:\n        /* \"#utility.yul\":6797:6819   */\n      tag_637\n        /* \"#utility.yul\":6813:6818   */\n      dup2\n        /* \"#utility.yul\":6797:6819   */\n      tag_510\n      jump\t// in\n    tag_637:\n        /* \"#utility.yul\":6792:6795   */\n      dup3\n        /* \"#utility.yul\":6785:6820   */\n      mstore\n        /* \"#utility.yul\":6714:6826   */\n      pop\n      pop\n      jump\t// out\n        /* \"#utility.yul\":6832:7046   */\n    tag_107:\n        /* \"#utility.yul\":6921:6925   */\n      0x00\n        /* \"#utility.yul\":6959:6961   */\n      0x20\n        /* \"#utility.yul\":6948:6957   */\n      dup3\n        /* \"#utility.yul\":6944:6962   */\n      add\n        /* \"#utility.yul\":6936:6962   */\n      swap1\n      pop\n        /* \"#utility.yul\":6972:7039   */\n      tag_639\n        /* \"#utility.yul\":7036:7037   */\n      0x00\n        /* \"#utility.yul\":7025:7034   */\n      dup4\n        /* \"#utility.yul\":7021:7038   */\n      add\n        /* \"#utility.yul\":7012:7018   */\n      dup5\n        /* \"#utility.yul\":6972:7039   */\n      tag_511\n      jump\t// in\n    tag_639:\n        /* \"#utility.yul\":6832:7046   */\n      swap3\n      swap2\n      pop\n      pop\n      jump\t// out\n        /* \"#utility.yul\":7052:7381   */\n    tag_116:\n        /* \"#utility.yul\":7111:7117   */\n      0x00\n        /* \"#utility.yul\":7160:7162   */\n      0x20\n        /* \"#utility.yul\":7148:7157   */\n      dup3\n        /* \"#utility.yul\":7139:7146   */\n      dup5\n        /* \"#utility.yul\":7135:7158   */\n      sub\n        /* \"#utility.yul\":7131:7163   */\n      slt\n        /* \"#utility.yul\":7128:7247   */\n      iszero\n      tag_641\n      jumpi\n        /* \"#utility.yul\":7166:7245   */\n      tag_642\n      tag_493\n      jump\t// in\n    tag_642:\n        /* \"#utility.yul\":7128:7247   */\n    tag_641:\n        /* \"#utility.yul\":7286:7287   */\n      0x00\n        /* \"#utility.yul\":7311:7364   */\n      tag_643\n        /* \"#utility.yul\":7356:7363   */\n      dup5\n        /* \"#utility.yul\":7347:7353   */\n      dup3\n        /* \"#utility.yul\":7336:7345   */\n      dup6\n        /* \"#utility.yul\":7332:7354   */\n      add\n        /* \"#utility.yul\":7311:7364   */\n      tag_501\n      jump\t// in\n    tag_643:\n        /* \"#utility.yul\":7301:7364   */\n      swap2\n      pop\n        /* \"#utility.yul\":7257:7374   */\n      pop\n        /* \"#utility.yul\":7052:7381   */\n      swap3\n      swap2\n      pop\n      pop\n      jump\t// out\n        /* \"#utility.yul\":7387:7505   */\n    tag_512:\n        /* \"#utility.yul\":7474:7498   */\n      tag_645\n        /* \"#utility.yul\":7492:7497   */\n      dup2\n        /* \"#utility.yul\":7474:7498   */\n      tag_496\n      jump\t// in\n    tag_645:\n        /* \"#utility.yul\":7469:7472   */\n      dup3\n        /* \"#utility.yul\":7462:7499   */\n      mstore\n        /* \"#utility.yul\":7387:7505   */\n      pop\n      pop\n      jump\t// out\n        /* \"#utility.yul\":7511:7733   */\n    tag_148:\n        /* \"#utility.yul\":7604:7608   */\n      0x00\n        /* \"#utility.yul\":7642:7644   */\n      0x20\n        /* \"#utility.yul\":7631:7640   */\n      dup3\n        /* \"#utility.yul\":7627:7645   */\n      add\n        /* \"#utility.yul\":7619:7645   */\n      swap1\n      pop\n        /* \"#utility.yul\":7655:7726   */\n      tag_647\n        /* \"#utility.yul\":7723:7724   */\n      0x00\n        /* \"#utility.yul\":7712:7721   */\n      dup4\n        /* \"#utility.yul\":7708:7725   */\n      add\n        /* \"#utility.yul\":7699:7705   */\n      dup5\n        /* \"#utility.yul\":7655:7726   */\n      tag_512\n      jump\t// in\n    tag_647:\n        /* \"#utility.yul\":7511:7733   */\n      swap3\n      swap2\n      pop\n      pop\n      jump\t// out\n        /* \"#utility.yul\":7739:7919   */\n    tag_250:\n        /* \"#utility.yul\":7787:7864   */\n      0x4e487b7100000000000000000000000000000000000000000000000000000000\n        /* \"#utility.yul\":7784:7785   */\n      0x00\n        /* \"#utility.yul\":7777:7865   */\n      mstore\n        /* \"#utility.yul\":7884:7888   */\n      0x21\n        /* \"#utility.yul\":7881:7882   */\n      0x04\n        /* \"#utility.yul\":7874:7889   */\n      mstore\n        /* \"#utility.yul\":7908:7912   */\n      0x24\n        /* \"#utility.yul\":7905:7906   */\n      0x00\n        /* \"#utility.yul\":7898:7913   */\n      revert\n        /* \"#utility.yul\":7925:8044   */\n    tag_513:\n        /* \"#utility.yul\":8012:8013   */\n      0x03\n        /* \"#utility.yul\":8005:8010   */\n      dup2\n        /* \"#utility.yul\":8002:8014   */\n      lt\n        /* \"#utility.yul\":7992:8038   */\n      tag_650\n      jumpi\n        /* \"#utility.yul\":8018:8036   */\n      tag_651\n      tag_250\n      jump\t// in\n    tag_651:\n        /* \"#utility.yul\":7992:8038   */\n    tag_650:\n        /* \"#utility.yul\":7925:8044   */\n      pop\n      jump\t// out\n        /* \"#utility.yul\":8050:8189   */\n    tag_514:\n        /* \"#utility.yul\":8101:8108   */\n      0x00\n        /* \"#utility.yul\":8130:8135   */\n      dup2\n        /* \"#utility.yul\":8119:8135   */\n      swap1\n      pop\n        /* \"#utility.yul\":8136:8183   */\n      tag_653\n        /* \"#utility.yul\":8177:8182   */\n      dup3\n        /* \"#utility.yul\":8136:8183   */\n      tag_513\n      jump\t// in\n    tag_653:\n        /* \"#utility.yul\":8050:8189   */\n      swap2\n      swap1\n      pop\n      jump\t// out\n        /* \"#utility.yul\":8195:8334   */\n    tag_515:\n        /* \"#utility.yul\":8257:8266   */\n      0x00\n        /* \"#utility.yul\":8290:8328   */\n      tag_655\n        /* \"#utility.yul\":8322:8327   */\n      dup3\n        /* \"#utility.yul\":8290:8328   */\n      tag_514\n      jump\t// in\n    tag_655:\n        /* \"#utility.yul\":8277:8328   */\n      swap1\n      pop\n        /* \"#utility.yul\":8195:8334   */\n      swap2\n      swap1\n      pop\n      jump\t// out\n        /* \"#utility.yul\":8340:8495   */\n    tag_516:\n        /* \"#utility.yul\":8439:8488   */\n      tag_657\n        /* \"#utility.yul\":8482:8487   */\n      dup2\n        /* \"#utility.yul\":8439:8488   */\n      tag_515\n      jump\t// in\n    tag_657:\n        /* \"#utility.yul\":8434:8437   */\n      dup3\n        /* \"#utility.yul\":8427:8489   */\n      mstore\n        /* \"#utility.yul\":8340:8495   */\n      pop\n      pop\n      jump\t// out\n        /* \"#utility.yul\":8501:8747   */\n    tag_190:\n        /* \"#utility.yul\":8606:8610   */\n      0x00\n        /* \"#utility.yul\":8644:8646   */\n      0x20\n        /* \"#utility.yul\":8633:8642   */\n      dup3\n        /* \"#utility.yul\":8629:8647   */\n      add\n        /* \"#utility.yul\":8621:8647   */\n      swap1\n      pop\n        /* \"#utility.yul\":8657:8740   */\n      tag_659\n        /* \"#utility.yul\":8737:8738   */\n      0x00\n        /* \"#utility.yul\":8726:8735   */\n      dup4\n        /* \"#utility.yul\":8722:8739   */\n      add\n        /* \"#utility.yul\":8713:8719   */\n      dup5\n        /* \"#utility.yul\":8657:8740   */\n      tag_516\n      jump\t// in\n    tag_659:\n        /* \"#utility.yul\":8501:8747   */\n      swap3\n      swap2\n      pop\n      pop\n      jump\t// out\n        /* \"#utility.yul\":8753:9227   */\n    tag_198:\n        /* \"#utility.yul\":8821:8827   */\n      0x00\n        /* \"#utility.yul\":8829:8835   */\n      dup1\n        /* \"#utility.yul\":8878:8880   */\n      0x40\n        /* \"#utility.yul\":8866:8875   */\n      dup4\n        /* \"#utility.yul\":8857:8864   */\n      dup6\n        /* \"#utility.yul\":8853:8876   */\n      sub\n        /* \"#utility.yul\":8849:8881   */\n      slt\n        /* \"#utility.yul\":8846:8965   */\n      iszero\n      tag_661\n      jumpi\n        /* \"#utility.yul\":8884:8963   */\n      tag_662\n      tag_493\n      jump\t// in\n    tag_662:\n        /* \"#utility.yul\":8846:8965   */\n    tag_661:\n        /* \"#utility.yul\":9004:9005   */\n      0x00\n        /* \"#utility.yul\":9029:9082   */\n      tag_663\n        /* \"#utility.yul\":9074:9081   */\n      dup6\n        /* \"#utility.yul\":9065:9071   */\n      dup3\n        /* \"#utility.yul\":9054:9063   */\n      dup7\n        /* \"#utility.yul\":9050:9072   */\n      add\n        /* \"#utility.yul\":9029:9082   */\n      tag_498\n      jump\t// in\n    tag_663:\n        /* \"#utility.yul\":9019:9082   */\n      swap3\n      pop\n        /* \"#utility.yul\":8975:9092   */\n      pop\n        /* \"#utility.yul\":9131:9133   */\n      0x20\n        /* \"#utility.yul\":9157:9210   */\n      tag_664\n        /* \"#utility.yul\":9202:9209   */\n      dup6\n        /* \"#utility.yul\":9193:9199   */\n      dup3\n        /* \"#utility.yul\":9182:9191   */\n      dup7\n        /* \"#utility.yul\":9178:9200   */\n      add\n        /* \"#utility.yul\":9157:9210   */\n      tag_498\n      jump\t// in\n    tag_664:\n        /* \"#utility.yul\":9147:9210   */\n      swap2\n      pop\n        /* \"#utility.yul\":9102:9220   */\n      pop\n        /* \"#utility.yul\":8753:9227   */\n      swap3\n      pop\n      swap3\n      swap1\n      pop\n      jump\t// out\n        /* \"#utility.yul\":9233:9413   */\n    tag_517:\n        /* \"#utility.yul\":9281:9358   */\n      0x4e487b7100000000000000000000000000000000000000000000000000000000\n        /* \"#utility.yul\":9278:9279   */\n      0x00\n        /* \"#utility.yul\":9271:9359   */\n      mstore\n        /* \"#utility.yul\":9378:9382   */\n      0x22\n        /* \"#utility.yul\":9375:9376   */\n      0x04\n        /* \"#utility.yul\":9368:9383   */\n      mstore\n        /* \"#utility.yul\":9402:9406   */\n      0x24\n        /* \"#utility.yul\":9399:9400   */\n      0x00\n        /* \"#utility.yul\":9392:9407   */\n      revert\n        /* \"#utility.yul\":9419:9739   */\n    tag_211:\n        /* \"#utility.yul\":9463:9469   */\n      0x00\n        /* \"#utility.yul\":9500:9501   */\n      0x02\n        /* \"#utility.yul\":9494:9498   */\n      dup3\n        /* \"#utility.yul\":9490:9502   */\n      div\n        /* \"#utility.yul\":9480:9502   */\n      swap1\n      pop\n        /* \"#utility.yul\":9547:9548   */\n      0x01\n        /* \"#utility.yul\":9541:9545   */\n      dup3\n        /* \"#utility.yul\":9537:9549   */\n      and\n        /* \"#utility.yul\":9568:9586   */\n      dup1\n        /* \"#utility.yul\":9558:9639   */\n      tag_667\n      jumpi\n        /* \"#utility.yul\":9624:9628   */\n      0x7f\n        /* \"#utility.yul\":9616:9622   */\n      dup3\n        /* \"#utility.yul\":9612:9629   */\n      and\n        /* \"#utility.yul\":9602:9629   */\n      swap2\n      pop\n        /* \"#utility.yul\":9558:9639   */\n    tag_667:\n        /* \"#utility.yul\":9686:9688   */\n      0x20\n        /* \"#utility.yul\":9678:9684   */\n      dup3\n        /* \"#utility.yul\":9675:9689   */\n      lt\n        /* \"#utility.yul\":9655:9673   */\n      dup2\n        /* \"#utility.yul\":9652:9690   */\n      sub\n        /* \"#utility.yul\":9649:9733   */\n      tag_668\n      jumpi\n        /* \"#utility.yul\":9705:9723   */\n      tag_669\n      tag_517\n      jump\t// in\n    tag_669:\n        /* \"#utility.yul\":9649:9733   */\n    tag_668:\n        /* \"#utility.yul\":9470:9739   */\n      pop\n        /* \"#utility.yul\":9419:9739   */\n      swap2\n      swap1\n      pop\n      jump\t// out\n        /* \"#utility.yul\":9745:9921   */\n    tag_518:\n        /* \"#utility.yul\":9885:9913   */\n      0x53616c65732074617267657473206e6f7420796574206d65742e000000000000\n        /* \"#utility.yul\":9881:9882   */\n      0x00\n        /* \"#utility.yul\":9873:9879   */\n      dup3\n        /* \"#utility.yul\":9869:9883   */\n      add\n        /* \"#utility.yul\":9862:9914   */\n      mstore\n        /* \"#utility.yul\":9745:9921   */\n      pop\n      jump\t// out\n        /* \"#utility.yul\":9927:10293   */\n    tag_519:\n        /* \"#utility.yul\":10069:10072   */\n      0x00\n        /* \"#utility.yul\":10090:10157   */\n      tag_672\n        /* \"#utility.yul\":10154:10156   */\n      0x1a\n        /* \"#utility.yul\":10149:10152   */\n      dup4\n        /* \"#utility.yul\":10090:10157   */\n      tag_485\n      jump\t// in\n    tag_672:\n        /* \"#utility.yul\":10083:10157   */\n      swap2\n      pop\n        /* \"#utility.yul\":10166:10259   */\n      tag_673\n        /* \"#utility.yul\":10255:10258   */\n      dup3\n        /* \"#utility.yul\":10166:10259   */\n      tag_518\n      jump\t// in\n    tag_673:\n        /* \"#utility.yul\":10284:10286   */\n      0x20\n        /* \"#utility.yul\":10279:10282   */\n      dup3\n        /* \"#utility.yul\":10275:10287   */\n      add\n        /* \"#utility.yul\":10268:10287   */\n      swap1\n      pop\n        /* \"#utility.yul\":9927:10293   */\n      swap2\n      swap1\n      pop\n      jump\t// out\n        /* \"#utility.yul\":10299:10718   */\n    tag_247:\n        /* \"#utility.yul\":10465:10469   */\n      0x00\n        /* \"#utility.yul\":10503:10505   */\n      0x20\n        /* \"#utility.yul\":10492:10501   */\n      dup3\n        /* \"#utility.yul\":10488:10506   */\n      add\n        /* \"#utility.yul\":10480:10506   */\n      swap1\n      pop\n        /* \"#utility.yul\":10552:10561   */\n      dup2\n        /* \"#utility.yul\":10546:10550   */\n      dup2\n        /* \"#utility.yul\":10542:10562   */\n      sub\n        /* \"#utility.yul\":10538:10539   */\n      0x00\n        /* \"#utility.yul\":10527:10536   */\n      dup4\n        /* \"#utility.yul\":10523:10540   */\n      add\n        /* \"#utility.yul\":10516:10563   */\n      mstore\n        /* \"#utility.yul\":10580:10711   */\n      tag_675\n        /* \"#utility.yul\":10706:10710   */\n      dup2\n        /* \"#utility.yul\":10580:10711   */\n      tag_519\n      jump\t// in\n    tag_675:\n        /* \"#utility.yul\":10572:10711   */\n      swap1\n      pop\n        /* \"#utility.yul\":10299:10718   */\n      swap2\n      swap1\n      pop\n      jump\t// out\n        /* \"#utility.yul\":10724:10957   */\n    tag_520:\n        /* \"#utility.yul\":10864:10898   */\n      0x507269766174652053616c652068617320616c72656164792073746172746564\n        /* \"#utility.yul\":10860:10861   */\n      0x00\n        /* \"#utility.yul\":10852:10858   */\n      dup3\n        /* \"#utility.yul\":10848:10862   */\n      add\n        /* \"#utility.yul\":10841:10899   */\n      mstore\n        /* \"#utility.yul\":10933:10949   */\n      0x206f7220636f6e636c756465642e000000000000000000000000000000000000\n        /* \"#utility.yul\":10928:10930   */\n      0x20\n        /* \"#utility.yul\":10920:10926   */\n      dup3\n        /* \"#utility.yul\":10916:10931   */\n      add\n        /* \"#utility.yul\":10909:10950   */\n      mstore\n        /* \"#utility.yul\":10724:10957   */\n      pop\n      jump\t// out\n        /* \"#utility.yul\":10963:11329   */\n    tag_521:\n        /* \"#utility.yul\":11105:11108   */\n      0x00\n        /* \"#utility.yul\":11126:11193   */\n      tag_678\n        /* \"#utility.yul\":11190:11192   */\n      0x2e\n        /* \"#utility.yul\":11185:11188   */\n      dup4\n        /* \"#utility.yul\":11126:11193   */\n      tag_485\n      jump\t// in\n    tag_678:\n        /* \"#utility.yul\":11119:11193   */\n      swap2\n      pop\n        /* \"#utility.yul\":11202:11295   */\n      tag_679\n        /* \"#utility.yul\":11291:11294   */\n      dup3\n        /* \"#utility.yul\":11202:11295   */\n      tag_520\n      jump\t// in\n    tag_679:\n        /* \"#utility.yul\":11320:11322   */\n      0x40\n        /* \"#utility.yul\":11315:11318   */\n      dup3\n        /* \"#utility.yul\":11311:11323   */\n      add\n        /* \"#utility.yul\":11304:11323   */\n      swap1\n      pop\n        /* \"#utility.yul\":10963:11329   */\n      swap2\n      swap1\n      pop\n      jump\t// out\n        /* \"#utility.yul\":11335:11754   */\n    tag_260:\n        /* \"#utility.yul\":11501:11505   */\n      0x00\n        /* \"#utility.yul\":11539:11541   */\n      0x20\n        /* \"#utility.yul\":11528:11537   */\n      dup3\n        /* \"#utility.yul\":11524:11542   */\n      add\n        /* \"#utility.yul\":11516:11542   */\n      swap1\n      pop\n        /* \"#utility.yul\":11588:11597   */\n      dup2\n        /* \"#utility.yul\":11582:11586   */\n      dup2\n        /* \"#utility.yul\":11578:11598   */\n      sub\n        /* \"#utility.yul\":11574:11575   */\n      0x00\n        /* \"#utility.yul\":11563:11572   */\n      dup4\n        /* \"#utility.yul\":11559:11576   */\n      add\n        /* \"#utility.yul\":11552:11599   */\n      mstore\n        /* \"#utility.yul\":11616:11747   */\n      tag_681\n        /* \"#utility.yul\":11742:11746   */\n      dup2\n        /* \"#utility.yul\":11616:11747   */\n      tag_521\n      jump\t// in\n    tag_681:\n        /* \"#utility.yul\":11608:11747   */\n      swap1\n      pop\n        /* \"#utility.yul\":11335:11754   */\n      swap2\n      swap1\n      pop\n      jump\t// out\n        /* \"#utility.yul\":11760:11928   */\n    tag_522:\n        /* \"#utility.yul\":11900:11920   */\n      0x4e6f2073616c65206973206163746976652e0000000000000000000000000000\n        /* \"#utility.yul\":11896:11897   */\n      0x00\n        /* \"#utility.yul\":11888:11894   */\n      dup3\n        /* \"#utility.yul\":11884:11898   */\n      add\n        /* \"#utility.yul\":11877:11921   */\n      mstore\n        /* \"#utility.yul\":11760:11928   */\n      pop\n      jump\t// out\n        /* \"#utility.yul\":11934:12300   */\n    tag_523:\n        /* \"#utility.yul\":12076:12079   */\n      0x00\n        /* \"#utility.yul\":12097:12164   */\n      tag_684\n        /* \"#utility.yul\":12161:12163   */\n      0x12\n        /* \"#utility.yul\":12156:12159   */\n      dup4\n        /* \"#utility.yul\":12097:12164   */\n      tag_485\n      jump\t// in\n    tag_684:\n        /* \"#utility.yul\":12090:12164   */\n      swap2\n      pop\n        /* \"#utility.yul\":12173:12266   */\n      tag_685\n        /* \"#utility.yul\":12262:12265   */\n      dup3\n        /* \"#utility.yul\":12173:12266   */\n      tag_522\n      jump\t// in\n    tag_685:\n        /* \"#utility.yul\":12291:12293   */\n      0x20\n        /* \"#utility.yul\":12286:12289   */\n      dup3\n        /* \"#utility.yul\":12282:12294   */\n      add\n        /* \"#utility.yul\":12275:12294   */\n      swap1\n      pop\n        /* \"#utility.yul\":11934:12300   */\n      swap2\n      swap1\n      pop\n      jump\t// out\n        /* \"#utility.yul\":12306:12725   */\n    tag_272:\n        /* \"#utility.yul\":12472:12476   */\n      0x00\n        /* \"#utility.yul\":12510:12512   */\n      0x20\n        /* \"#utility.yul\":12499:12508   */\n      dup3\n        /* \"#utility.yul\":12495:12513   */\n      add\n        /* \"#utility.yul\":12487:12513   */\n      swap1\n      pop\n        /* \"#utility.yul\":12559:12568   */\n      dup2\n        /* \"#utility.yul\":12553:12557   */\n      dup2\n        /* \"#utility.yul\":12549:12569   */\n      sub\n        /* \"#utility.yul\":12545:12546   */\n      0x00\n        /* \"#utility.yul\":12534:12543   */\n      dup4\n        /* \"#utility.yul\":12530:12547   */\n      add\n        /* \"#utility.yul\":12523:12570   */\n      mstore\n        /* \"#utility.yul\":12587:12718   */\n      tag_687\n        /* \"#utility.yul\":12713:12717   */\n      dup2\n        /* \"#utility.yul\":12587:12718   */\n      tag_523\n      jump\t// in\n    tag_687:\n        /* \"#utility.yul\":12579:12718   */\n      swap1\n      pop\n        /* \"#utility.yul\":12306:12725   */\n      swap2\n      swap1\n      pop\n      jump\t// out\n        /* \"#utility.yul\":12731:12874   */\n    tag_524:\n        /* \"#utility.yul\":12788:12793   */\n      0x00\n        /* \"#utility.yul\":12819:12825   */\n      dup2\n        /* \"#utility.yul\":12813:12826   */\n      mload\n        /* \"#utility.yul\":12804:12826   */\n      swap1\n      pop\n        /* \"#utility.yul\":12835:12868   */\n      tag_689\n        /* \"#utility.yul\":12862:12867   */\n      dup2\n        /* \"#utility.yul\":12835:12868   */\n      tag_500\n      jump\t// in\n    tag_689:\n        /* \"#utility.yul\":12731:12874   */\n      swap3\n      swap2\n      pop\n      pop\n      jump\t// out\n        /* \"#utility.yul\":12880:13231   */\n    tag_276:\n        /* \"#utility.yul\":12950:12956   */\n      0x00\n        /* \"#utility.yul\":12999:13001   */\n      0x20\n        /* \"#utility.yul\":12987:12996   */\n      dup3\n        /* \"#utility.yul\":12978:12985   */\n      dup5\n        /* \"#utility.yul\":12974:12997   */\n      sub\n        /* \"#utility.yul\":12970:13002   */\n      slt\n        /* \"#utility.yul\":12967:13086   */\n      iszero\n      tag_691\n      jumpi\n        /* \"#utility.yul\":13005:13084   */\n      tag_692\n      tag_493\n      jump\t// in\n    tag_692:\n        /* \"#utility.yul\":12967:13086   */\n    tag_691:\n        /* \"#utility.yul\":13125:13126   */\n      0x00\n        /* \"#utility.yul\":13150:13214   */\n      tag_693\n        /* \"#utility.yul\":13206:13213   */\n      dup5\n        /* \"#utility.yul\":13197:13203   */\n      dup3\n        /* \"#utility.yul\":13186:13195   */\n      dup6\n        /* \"#utility.yul\":13182:13204   */\n      add\n        /* \"#utility.yul\":13150:13214   */\n      tag_524\n      jump\t// in\n    tag_693:\n        /* \"#utility.yul\":13140:13214   */\n      swap2\n      pop\n        /* \"#utility.yul\":13096:13224   */\n      pop\n        /* \"#utility.yul\":12880:13231   */\n      swap3\n      swap2\n      pop\n      pop\n      jump\t// out\n        /* \"#utility.yul\":13237:13412   */\n    tag_525:\n        /* \"#utility.yul\":13377:13404   */\n      0x496e76616c69642070726963652066726f6d206f7261636c6500000000000000\n        /* \"#utility.yul\":13373:13374   */\n      0x00\n        /* \"#utility.yul\":13365:13371   */\n      dup3\n        /* \"#utility.yul\":13361:13375   */\n      add\n        /* \"#utility.yul\":13354:13405   */\n      mstore\n        /* \"#utility.yul\":13237:13412   */\n      pop\n      jump\t// out\n        /* \"#utility.yul\":13418:13784   */\n    tag_526:\n        /* \"#utility.yul\":13560:13563   */\n      0x00\n        /* \"#utility.yul\":13581:13648   */\n      tag_696\n        /* \"#utility.yul\":13645:13647   */\n      0x19\n        /* \"#utility.yul\":13640:13643   */\n      dup4\n        /* \"#utility.yul\":13581:13648   */\n      tag_485\n      jump\t// in\n    tag_696:\n        /* \"#utility.yul\":13574:13648   */\n      swap2\n      pop\n        /* \"#utility.yul\":13657:13750   */\n      tag_697\n        /* \"#utility.yul\":13746:13749   */\n      dup3\n        /* \"#utility.yul\":13657:13750   */\n      tag_525\n      jump\t// in\n    tag_697:\n        /* \"#utility.yul\":13775:13777   */\n      0x20\n        /* \"#utility.yul\":13770:13773   */\n      dup3\n        /* \"#utility.yul\":13766:13778   */\n      add\n        /* \"#utility.yul\":13759:13778   */\n      swap1\n      pop\n        /* \"#utility.yul\":13418:13784   */\n      swap2\n      swap1\n      pop\n      jump\t// out\n        /* \"#utility.yul\":13790:14209   */\n    tag_279:\n        /* \"#utility.yul\":13956:13960   */\n      0x00\n        /* \"#utility.yul\":13994:13996   */\n      0x20\n        /* \"#utility.yul\":13983:13992   */\n      dup3\n        /* \"#utility.yul\":13979:13997   */\n      add\n        /* \"#utility.yul\":13971:13997   */\n      swap1\n      pop\n        /* \"#utility.yul\":14043:14052   */\n      dup2\n        /* \"#utility.yul\":14037:14041   */\n      dup2\n        /* \"#utility.yul\":14033:14053   */\n      sub\n        /* \"#utility.yul\":14029:14030   */\n      0x00\n        /* \"#utility.yul\":14018:14027   */\n      dup4\n        /* \"#utility.yul\":14014:14031   */\n      add\n        /* \"#utility.yul\":14007:14054   */\n      mstore\n        /* \"#utility.yul\":14071:14202   */\n      tag_699\n        /* \"#utility.yul\":14197:14201   */\n      dup2\n        /* \"#utility.yul\":14071:14202   */\n      tag_526\n      jump\t// in\n    tag_699:\n        /* \"#utility.yul\":14063:14202   */\n      swap1\n      pop\n        /* \"#utility.yul\":13790:14209   */\n      swap2\n      swap1\n      pop\n      jump\t// out\n        /* \"#utility.yul\":14215:14387   */\n    tag_527:\n        /* \"#utility.yul\":14355:14379   */\n      0x507269766174652053616c6520736f6c64206f75742e00000000000000000000\n        /* \"#utility.yul\":14351:14352   */\n      0x00\n        /* \"#utility.yul\":14343:14349   */\n      dup3\n        /* \"#utility.yul\":14339:14353   */\n      add\n        /* \"#utility.yul\":14332:14380   */\n      mstore\n        /* \"#utility.yul\":14215:14387   */\n      pop\n      jump\t// out\n        /* \"#utility.yul\":14393:14759   */\n    tag_528:\n        /* \"#utility.yul\":14535:14538   */\n      0x00\n        /* \"#utility.yul\":14556:14623   */\n      tag_702\n        /* \"#utility.yul\":14620:14622   */\n      0x16\n        /* \"#utility.yul\":14615:14618   */\n      dup4\n        /* \"#utility.yul\":14556:14623   */\n      tag_485\n      jump\t// in\n    tag_702:\n        /* \"#utility.yul\":14549:14623   */\n      swap2\n      pop\n        /* \"#utility.yul\":14632:14725   */\n      tag_703\n        /* \"#utility.yul\":14721:14724   */\n      dup3\n        /* \"#utility.yul\":14632:14725   */\n      tag_527\n      jump\t// in\n    tag_703:\n        /* \"#utility.yul\":14750:14752   */\n      0x20\n        /* \"#utility.yul\":14745:14748   */\n      dup3\n        /* \"#utility.yul\":14741:14753   */\n      add\n        /* \"#utility.yul\":14734:14753   */\n      swap1\n      pop\n        /* \"#utility.yul\":14393:14759   */\n      swap2\n      swap1\n      pop\n      jump\t// out\n        /* \"#utility.yul\":14765:15184   */\n    tag_287:\n        /* \"#utility.yul\":14931:14935   */\n      0x00\n        /* \"#utility.yul\":14969:14971   */\n      0x20\n        /* \"#utility.yul\":14958:14967   */\n      dup3\n        /* \"#utility.yul\":14954:14972   */\n      add\n        /* \"#utility.yul\":14946:14972   */\n      swap1\n      pop\n        /* \"#utility.yul\":15018:15027   */\n      dup2\n        /* \"#utility.yul\":15012:15016   */\n      dup2\n        /* \"#utility.yul\":15008:15028   */\n      sub\n        /* \"#utility.yul\":15004:15005   */\n      0x00\n        /* \"#utility.yul\":14993:15002   */\n      dup4\n        /* \"#utility.yul\":14989:15006   */\n      add\n        /* \"#utility.yul\":14982:15029   */\n      mstore\n        /* \"#utility.yul\":15046:15177   */\n      tag_705\n        /* \"#utility.yul\":15172:15176   */\n      dup2\n        /* \"#utility.yul\":15046:15177   */\n      tag_528\n      jump\t// in\n    tag_705:\n        /* \"#utility.yul\":15038:15177   */\n      swap1\n      pop\n        /* \"#utility.yul\":14765:15184   */\n      swap2\n      swap1\n      pop\n      jump\t// out\n        /* \"#utility.yul\":15190:15410   */\n    tag_529:\n        /* \"#utility.yul\":15330:15364   */\n      0x4578636565647320507269766174652053616c6520746f6b656e206c696d6974\n        /* \"#utility.yul\":15326:15327   */\n      0x00\n        /* \"#utility.yul\":15318:15324   */\n      dup3\n        /* \"#utility.yul\":15314:15328   */\n      add\n        /* \"#utility.yul\":15307:15365   */\n      mstore\n        /* \"#utility.yul\":15399:15402   */\n      0x2e00000000000000000000000000000000000000000000000000000000000000\n        /* \"#utility.yul\":15394:15396   */\n      0x20\n        /* \"#utility.yul\":15386:15392   */\n      dup3\n        /* \"#utility.yul\":15382:15397   */\n      add\n        /* \"#utility.yul\":15375:15403   */\n      mstore\n        /* \"#utility.yul\":15190:15410   */\n      pop\n      jump\t// out\n        /* \"#utility.yul\":15416:15782   */\n    tag_530:\n        /* \"#utility.yul\":15558:15561   */\n      0x00\n        /* \"#utility.yul\":15579:15646   */\n      tag_708\n        /* \"#utility.yul\":15643:15645   */\n      0x21\n        /* \"#utility.yul\":15638:15641   */\n      dup4\n        /* \"#utility.yul\":15579:15646   */\n      tag_485\n      jump\t// in\n    tag_708:\n        /* \"#utility.yul\":15572:15646   */\n      swap2\n      pop\n        /* \"#utility.yul\":15655:15748   */\n      tag_709\n        /* \"#utility.yul\":15744:15747   */\n      dup3\n        /* \"#utility.yul\":15655:15748   */\n      tag_529\n      jump\t// in\n    tag_709:\n        /* \"#utility.yul\":15773:15775   */\n      0x40\n        /* \"#utility.yul\":15768:15771   */\n      dup3\n        /* \"#utility.yul\":15764:15776   */\n      add\n        /* \"#utility.yul\":15757:15776   */\n      swap1\n      pop\n        /* \"#utility.yul\":15416:15782   */\n      swap2\n      swap1\n      pop\n      jump\t// out\n        /* \"#utility.yul\":15788:16207   */\n    tag_298:\n        /* \"#utility.yul\":15954:15958   */\n      0x00\n        /* \"#utility.yul\":15992:15994   */\n      0x20\n        /* \"#utility.yul\":15981:15990   */\n      dup3\n        /* \"#utility.yul\":15977:15995   */\n      add\n        /* \"#utility.yul\":15969:15995   */\n      swap1\n      pop\n        /* \"#utility.yul\":16041:16050   */\n      dup2\n        /* \"#utility.yul\":16035:16039   */\n      dup2\n        /* \"#utility.yul\":16031:16051   */\n      sub\n        /* \"#utility.yul\":16027:16028   */\n      0x00\n        /* \"#utility.yul\":16016:16025   */\n      dup4\n        /* \"#utility.yul\":16012:16029   */\n      add\n        /* \"#utility.yul\":16005:16052   */\n      mstore\n        /* \"#utility.yul\":16069:16200   */\n      tag_711\n        /* \"#utility.yul\":16195:16199   */\n      dup2\n        /* \"#utility.yul\":16069:16200   */\n      tag_530\n      jump\t// in\n    tag_711:\n        /* \"#utility.yul\":16061:16200   */\n      swap1\n      pop\n        /* \"#utility.yul\":15788:16207   */\n      swap2\n      swap1\n      pop\n      jump\t// out\n        /* \"#utility.yul\":16213:16381   */\n    tag_531:\n        /* \"#utility.yul\":16353:16373   */\n      0x5072652d53616c6520736f6c64206f75742e0000000000000000000000000000\n        /* \"#utility.yul\":16349:16350   */\n      0x00\n        /* \"#utility.yul\":16341:16347   */\n      dup3\n        /* \"#utility.yul\":16337:16351   */\n      add\n        /* \"#utility.yul\":16330:16374   */\n      mstore\n        /* \"#utility.yul\":16213:16381   */\n      pop\n      jump\t// out\n        /* \"#utility.yul\":16387:16753   */\n    tag_532:\n        /* \"#utility.yul\":16529:16532   */\n      0x00\n        /* \"#utility.yul\":16550:16617   */\n      tag_714\n        /* \"#utility.yul\":16614:16616   */\n      0x12\n        /* \"#utility.yul\":16609:16612   */\n      dup4\n        /* \"#utility.yul\":16550:16617   */\n      tag_485\n      jump\t// in\n    tag_714:\n        /* \"#utility.yul\":16543:16617   */\n      swap2\n      pop\n        /* \"#utility.yul\":16626:16719   */\n      tag_715\n        /* \"#utility.yul\":16715:16718   */\n      dup3\n        /* \"#utility.yul\":16626:16719   */\n      tag_531\n      jump\t// in\n    tag_715:\n        /* \"#utility.yul\":16744:16746   */\n      0x20\n        /* \"#utility.yul\":16739:16742   */\n      dup3\n        /* \"#utility.yul\":16735:16747   */\n      add\n        /* \"#utility.yul\":16728:16747   */\n      swap1\n      pop\n        /* \"#utility.yul\":16387:16753   */\n      swap2\n      swap1\n      pop\n      jump\t// out\n        /* \"#utility.yul\":16759:17178   */\n    tag_311:\n        /* \"#utility.yul\":16925:16929   */\n      0x00\n        /* \"#utility.yul\":16963:16965   */\n      0x20\n        /* \"#utility.yul\":16952:16961   */\n      dup3\n        /* \"#utility.yul\":16948:16966   */\n      add\n        /* \"#utility.yul\":16940:16966   */\n      swap1\n      pop\n        /* \"#utility.yul\":17012:17021   */\n      dup2\n        /* \"#utility.yul\":17006:17010   */\n      dup2\n        /* \"#utility.yul\":17002:17022   */\n      sub\n        /* \"#utility.yul\":16998:16999   */\n      0x00\n        /* \"#utility.yul\":16987:16996   */\n      dup4\n        /* \"#utility.yul\":16983:17000   */\n      add\n        /* \"#utility.yul\":16976:17023   */\n      mstore\n        /* \"#utility.yul\":17040:17171   */\n      tag_717\n        /* \"#utility.yul\":17166:17170   */\n      dup2\n        /* \"#utility.yul\":17040:17171   */\n      tag_532\n      jump\t// in\n    tag_717:\n        /* \"#utility.yul\":17032:17171   */\n      swap1\n      pop\n        /* \"#utility.yul\":16759:17178   */\n      swap2\n      swap1\n      pop\n      jump\t// out\n        /* \"#utility.yul\":17184:17364   */\n    tag_533:\n        /* \"#utility.yul\":17324:17356   */\n      0x507572636861736520616d6f756e74206f7574206f66206c696d6974732e0000\n        /* \"#utility.yul\":17320:17321   */\n      0x00\n        /* \"#utility.yul\":17312:17318   */\n      dup3\n        /* \"#utility.yul\":17308:17322   */\n      add\n        /* \"#utility.yul\":17301:17357   */\n      mstore\n        /* \"#utility.yul\":17184:17364   */\n      pop\n      jump\t// out\n        /* \"#utility.yul\":17370:17736   */\n    tag_534:\n        /* \"#utility.yul\":17512:17515   */\n      0x00\n        /* \"#utility.yul\":17533:17600   */\n      tag_720\n        /* \"#utility.yul\":17597:17599   */\n      0x1e\n        /* \"#utility.yul\":17592:17595   */\n      dup4\n        /* \"#utility.yul\":17533:17600   */\n      tag_485\n      jump\t// in\n    tag_720:\n        /* \"#utility.yul\":17526:17600   */\n      swap2\n      pop\n        /* \"#utility.yul\":17609:17702   */\n      tag_721\n        /* \"#utility.yul\":17698:17701   */\n      dup3\n        /* \"#utility.yul\":17609:17702   */\n      tag_533\n      jump\t// in\n    tag_721:\n        /* \"#utility.yul\":17727:17729   */\n      0x20\n        /* \"#utility.yul\":17722:17725   */\n      dup3\n        /* \"#utility.yul\":17718:17730   */\n      add\n        /* \"#utility.yul\":17711:17730   */\n      swap1\n      pop\n        /* \"#utility.yul\":17370:17736   */\n      swap2\n      swap1\n      pop\n      jump\t// out\n        /* \"#utility.yul\":17742:18161   */\n    tag_315:\n        /* \"#utility.yul\":17908:17912   */\n      0x00\n        /* \"#utility.yul\":17946:17948   */\n      0x20\n        /* \"#utility.yul\":17935:17944   */\n      dup3\n        /* \"#utility.yul\":17931:17949   */\n      add\n        /* \"#utility.yul\":17923:17949   */\n      swap1\n      pop\n        /* \"#utility.yul\":17995:18004   */\n      dup2\n        /* \"#utility.yul\":17989:17993   */\n      dup2\n        /* \"#utility.yul\":17985:18005   */\n      sub\n        /* \"#utility.yul\":17981:17982   */\n      0x00\n        /* \"#utility.yul\":17970:17979   */\n      dup4\n        /* \"#utility.yul\":17966:17983   */\n      add\n        /* \"#utility.yul\":17959:18006   */\n      mstore\n        /* \"#utility.yul\":18023:18154   */\n      tag_723\n        /* \"#utility.yul\":18149:18153   */\n      dup2\n        /* \"#utility.yul\":18023:18154   */\n      tag_534\n      jump\t// in\n    tag_723:\n        /* \"#utility.yul\":18015:18154   */\n      swap1\n      pop\n        /* \"#utility.yul\":17742:18161   */\n      swap2\n      swap1\n      pop\n      jump\t// out\n        /* \"#utility.yul\":18167:18346   */\n    tag_535:\n        /* \"#utility.yul\":18307:18338   */\n      0x45786365656473205072652d53616c6520746f6b656e206c696d69742e000000\n        /* \"#utility.yul\":18303:18304   */\n      0x00\n        /* \"#utility.yul\":18295:18301   */\n      dup3\n        /* \"#utility.yul\":18291:18305   */\n      add\n        /* \"#utility.yul\":18284:18339   */\n      mstore\n        /* \"#utility.yul\":18167:18346   */\n      pop\n      jump\t// out\n        /* \"#utility.yul\":18352:18718   */\n    tag_536:\n        /* \"#utility.yul\":18494:18497   */\n      0x00\n        /* \"#utility.yul\":18515:18582   */\n      tag_726\n        /* \"#utility.yul\":18579:18581   */\n      0x1d\n        /* \"#utility.yul\":18574:18577   */\n      dup4\n        /* \"#utility.yul\":18515:18582   */\n      tag_485\n      jump\t// in\n    tag_726:\n        /* \"#utility.yul\":18508:18582   */\n      swap2\n      pop\n        /* \"#utility.yul\":18591:18684   */\n      tag_727\n        /* \"#utility.yul\":18680:18683   */\n      dup3\n        /* \"#utility.yul\":18591:18684   */\n      tag_535\n      jump\t// in\n    tag_727:\n        /* \"#utility.yul\":18709:18711   */\n      0x20\n        /* \"#utility.yul\":18704:18707   */\n      dup3\n        /* \"#utility.yul\":18700:18712   */\n      add\n        /* \"#utility.yul\":18693:18712   */\n      swap1\n      pop\n        /* \"#utility.yul\":18352:18718   */\n      swap2\n      swap1\n      pop\n      jump\t// out\n        /* \"#utility.yul\":18724:19143   */\n    tag_323:\n        /* \"#utility.yul\":18890:18894   */\n      0x00\n        /* \"#utility.yul\":18928:18930   */\n      0x20\n        /* \"#utility.yul\":18917:18926   */\n      dup3\n        /* \"#utility.yul\":18913:18931   */\n      add\n        /* \"#utility.yul\":18905:18931   */\n      swap1\n      pop\n        /* \"#utility.yul\":18977:18986   */\n      dup2\n        /* \"#utility.yul\":18971:18975   */\n      dup2\n        /* \"#utility.yul\":18967:18987   */\n      sub\n        /* \"#utility.yul\":18963:18964   */\n      0x00\n        /* \"#utility.yul\":18952:18961   */\n      dup4\n        /* \"#utility.yul\":18948:18965   */\n      add\n        /* \"#utility.yul\":18941:18988   */\n      mstore\n        /* \"#utility.yul\":19005:19136   */\n      tag_729\n        /* \"#utility.yul\":19131:19135   */\n      dup2\n        /* \"#utility.yul\":19005:19136   */\n      tag_536\n      jump\t// in\n    tag_729:\n        /* \"#utility.yul\":18997:19136   */\n      swap1\n      pop\n        /* \"#utility.yul\":18724:19143   */\n      swap2\n      swap1\n      pop\n      jump\t// out\n        /* \"#utility.yul\":19149:19369   */\n    tag_537:\n        /* \"#utility.yul\":19289:19323   */\n      0x56657374696e6720706572696f64206e6f742079657420636f6d706c65746564\n        /* \"#utility.yul\":19285:19286   */\n      0x00\n        /* \"#utility.yul\":19277:19283   */\n      dup3\n        /* \"#utility.yul\":19273:19287   */\n      add\n        /* \"#utility.yul\":19266:19324   */\n      mstore\n        /* \"#utility.yul\":19358:19361   */\n      0x2e00000000000000000000000000000000000000000000000000000000000000\n        /* \"#utility.yul\":19353:19355   */\n      0x20\n        /* \"#utility.yul\":19345:19351   */\n      dup3\n        /* \"#utility.yul\":19341:19356   */\n      add\n        /* \"#utility.yul\":19334:19362   */\n      mstore\n        /* \"#utility.yul\":19149:19369   */\n      pop\n      jump\t// out\n        /* \"#utility.yul\":19375:19741   */\n    tag_538:\n        /* \"#utility.yul\":19517:19520   */\n      0x00\n        /* \"#utility.yul\":19538:19605   */\n      tag_732\n        /* \"#utility.yul\":19602:19604   */\n      0x21\n        /* \"#utility.yul\":19597:19600   */\n      dup4\n        /* \"#utility.yul\":19538:19605   */\n      tag_485\n      jump\t// in\n    tag_732:\n        /* \"#utility.yul\":19531:19605   */\n      swap2\n      pop\n        /* \"#utility.yul\":19614:19707   */\n      tag_733\n        /* \"#utility.yul\":19703:19706   */\n      dup3\n        /* \"#utility.yul\":19614:19707   */\n      tag_537\n      jump\t// in\n    tag_733:\n        /* \"#utility.yul\":19732:19734   */\n      0x40\n        /* \"#utility.yul\":19727:19730   */\n      dup3\n        /* \"#utility.yul\":19723:19735   */\n      add\n        /* \"#utility.yul\":19716:19735   */\n      swap1\n      pop\n        /* \"#utility.yul\":19375:19741   */\n      swap2\n      swap1\n      pop\n      jump\t// out\n        /* \"#utility.yul\":19747:20166   */\n    tag_332:\n        /* \"#utility.yul\":19913:19917   */\n      0x00\n        /* \"#utility.yul\":19951:19953   */\n      0x20\n        /* \"#utility.yul\":19940:19949   */\n      dup3\n        /* \"#utility.yul\":19936:19954   */\n      add\n        /* \"#utility.yul\":19928:19954   */\n      swap1\n      pop\n        /* \"#utility.yul\":20000:20009   */\n      dup2\n        /* \"#utility.yul\":19994:19998   */\n      dup2\n        /* \"#utility.yul\":19990:20010   */\n      sub\n        /* \"#utility.yul\":19986:19987   */\n      0x00\n        /* \"#utility.yul\":19975:19984   */\n      dup4\n        /* \"#utility.yul\":19971:19988   */\n      add\n        /* \"#utility.yul\":19964:20011   */\n      mstore\n        /* \"#utility.yul\":20028:20159   */\n      tag_735\n        /* \"#utility.yul\":20154:20158   */\n      dup2\n        /* \"#utility.yul\":20028:20159   */\n      tag_538\n      jump\t// in\n    tag_735:\n        /* \"#utility.yul\":20020:20159   */\n      swap1\n      pop\n        /* \"#utility.yul\":19747:20166   */\n      swap2\n      swap1\n      pop\n      jump\t// out\n        /* \"#utility.yul\":20172:20349   */\n    tag_539:\n        /* \"#utility.yul\":20312:20341   */\n      0x4e6f2076657374656420746f6b656e7320746f2072656c656173650000000000\n        /* \"#utility.yul\":20308:20309   */\n      0x00\n        /* \"#utility.yul\":20300:20306   */\n      dup3\n        /* \"#utility.yul\":20296:20310   */\n      add\n        /* \"#utility.yul\":20289:20342   */\n      mstore\n        /* \"#utility.yul\":20172:20349   */\n      pop\n      jump\t// out\n        /* \"#utility.yul\":20355:20721   */\n    tag_540:\n        /* \"#utility.yul\":20497:20500   */\n      0x00\n        /* \"#utility.yul\":20518:20585   */\n      tag_738\n        /* \"#utility.yul\":20582:20584   */\n      0x1b\n        /* \"#utility.yul\":20577:20580   */\n      dup4\n        /* \"#utility.yul\":20518:20585   */\n      tag_485\n      jump\t// in\n    tag_738:\n        /* \"#utility.yul\":20511:20585   */\n      swap2\n      pop\n        /* \"#utility.yul\":20594:20687   */\n      tag_739\n        /* \"#utility.yul\":20683:20686   */\n      dup3\n        /* \"#utility.yul\":20594:20687   */\n      tag_539\n      jump\t// in\n    tag_739:\n        /* \"#utility.yul\":20712:20714   */\n      0x20\n        /* \"#utility.yul\":20707:20710   */\n      dup3\n        /* \"#utility.yul\":20703:20715   */\n      add\n        /* \"#utility.yul\":20696:20715   */\n      swap1\n      pop\n        /* \"#utility.yul\":20355:20721   */\n      swap2\n      swap1\n      pop\n      jump\t// out\n        /* \"#utility.yul\":20727:21146   */\n    tag_335:\n        /* \"#utility.yul\":20893:20897   */\n      0x00\n        /* \"#utility.yul\":20931:20933   */\n      0x20\n        /* \"#utility.yul\":20920:20929   */\n      dup3\n        /* \"#utility.yul\":20916:20934   */\n      add\n        /* \"#utility.yul\":20908:20934   */\n      swap1\n      pop\n        /* \"#utility.yul\":20980:20989   */\n      dup2\n        /* \"#utility.yul\":20974:20978   */\n      dup2\n        /* \"#utility.yul\":20970:20990   */\n      sub\n        /* \"#utility.yul\":20966:20967   */\n      0x00\n        /* \"#utility.yul\":20955:20964   */\n      dup4\n        /* \"#utility.yul\":20951:20968   */\n      add\n        /* \"#utility.yul\":20944:20991   */\n      mstore\n        /* \"#utility.yul\":21008:21139   */\n      tag_741\n        /* \"#utility.yul\":21134:21138   */\n      dup2\n        /* \"#utility.yul\":21008:21139   */\n      tag_540\n      jump\t// in\n    tag_741:\n        /* \"#utility.yul\":21000:21139   */\n      swap1\n      pop\n        /* \"#utility.yul\":20727:21146   */\n      swap2\n      swap1\n      pop\n      jump\t// out\n        /* \"#utility.yul\":21152:21378   */\n    tag_541:\n        /* \"#utility.yul\":21292:21326   */\n      0x507269766174652053616c652073686f756c6420626520636f6e636c75646564\n        /* \"#utility.yul\":21288:21289   */\n      0x00\n        /* \"#utility.yul\":21280:21286   */\n      dup3\n        /* \"#utility.yul\":21276:21290   */\n      add\n        /* \"#utility.yul\":21269:21327   */\n      mstore\n        /* \"#utility.yul\":21361:21370   */\n      0x2066697273742e00000000000000000000000000000000000000000000000000\n        /* \"#utility.yul\":21356:21358   */\n      0x20\n        /* \"#utility.yul\":21348:21354   */\n      dup3\n        /* \"#utility.yul\":21344:21359   */\n      add\n        /* \"#utility.yul\":21337:21371   */\n      mstore\n        /* \"#utility.yul\":21152:21378   */\n      pop\n      jump\t// out\n        /* \"#utility.yul\":21384:21750   */\n    tag_542:\n        /* \"#utility.yul\":21526:21529   */\n      0x00\n        /* \"#utility.yul\":21547:21614   */\n      tag_744\n        /* \"#utility.yul\":21611:21613   */\n      0x27\n        /* \"#utility.yul\":21606:21609   */\n      dup4\n        /* \"#utility.yul\":21547:21614   */\n      tag_485\n      jump\t// in\n    tag_744:\n        /* \"#utility.yul\":21540:21614   */\n      swap2\n      pop\n        /* \"#utility.yul\":21623:21716   */\n      tag_745\n        /* \"#utility.yul\":21712:21715   */\n      dup3\n        /* \"#utility.yul\":21623:21716   */\n      tag_541\n      jump\t// in\n    tag_745:\n        /* \"#utility.yul\":21741:21743   */\n      0x40\n        /* \"#utility.yul\":21736:21739   */\n      dup3\n        /* \"#utility.yul\":21732:21744   */\n      add\n        /* \"#utility.yul\":21725:21744   */\n      swap1\n      pop\n        /* \"#utility.yul\":21384:21750   */\n      swap2\n      swap1\n      pop\n      jump\t// out\n        /* \"#utility.yul\":21756:22175   */\n    tag_348:\n        /* \"#utility.yul\":21922:21926   */\n      0x00\n        /* \"#utility.yul\":21960:21962   */\n      0x20\n        /* \"#utility.yul\":21949:21958   */\n      dup3\n        /* \"#utility.yul\":21945:21963   */\n      add\n        /* \"#utility.yul\":21937:21963   */\n      swap1\n      pop\n        /* \"#utility.yul\":22009:22018   */\n      dup2\n        /* \"#utility.yul\":22003:22007   */\n      dup2\n        /* \"#utility.yul\":21999:22019   */\n      sub\n        /* \"#utility.yul\":21995:21996   */\n      0x00\n        /* \"#utility.yul\":21984:21993   */\n      dup4\n        /* \"#utility.yul\":21980:21997   */\n      add\n        /* \"#utility.yul\":21973:22020   */\n      mstore\n        /* \"#utility.yul\":22037:22168   */\n      tag_747\n        /* \"#utility.yul\":22163:22167   */\n      dup2\n        /* \"#utility.yul\":22037:22168   */\n      tag_542\n      jump\t// in\n    tag_747:\n        /* \"#utility.yul\":22029:22168   */\n      swap1\n      pop\n        /* \"#utility.yul\":21756:22175   */\n      swap2\n      swap1\n      pop\n      jump\t// out\n        /* \"#utility.yul\":22181:22363   */\n    tag_543:\n        /* \"#utility.yul\":22321:22355   */\n      0x507269766174652053616c6520746172676574206e6f7420726561636865642e\n        /* \"#utility.yul\":22317:22318   */\n      0x00\n        /* \"#utility.yul\":22309:22315   */\n      dup3\n        /* \"#utility.yul\":22305:22319   */\n      add\n        /* \"#utility.yul\":22298:22356   */\n      mstore\n        /* \"#utility.yul\":22181:22363   */\n      pop\n      jump\t// out\n        /* \"#utility.yul\":22369:22735   */\n    tag_544:\n        /* \"#utility.yul\":22511:22514   */\n      0x00\n        /* \"#utility.yul\":22532:22599   */\n      tag_750\n        /* \"#utility.yul\":22596:22598   */\n      0x20\n        /* \"#utility.yul\":22591:22594   */\n      dup4\n        /* \"#utility.yul\":22532:22599   */\n      tag_485\n      jump\t// in\n    tag_750:\n        /* \"#utility.yul\":22525:22599   */\n      swap2\n      pop\n        /* \"#utility.yul\":22608:22701   */\n      tag_751\n        /* \"#utility.yul\":22697:22700   */\n      dup3\n        /* \"#utility.yul\":22608:22701   */\n      tag_543\n      jump\t// in\n    tag_751:\n        /* \"#utility.yul\":22726:22728   */\n      0x20\n        /* \"#utility.yul\":22721:22724   */\n      dup3\n        /* \"#utility.yul\":22717:22729   */\n      add\n        /* \"#utility.yul\":22710:22729   */\n      swap1\n      pop\n        /* \"#utility.yul\":22369:22735   */\n      swap2\n      swap1\n      pop\n      jump\t// out\n        /* \"#utility.yul\":22741:23160   */\n    tag_351:\n        /* \"#utility.yul\":22907:22911   */\n      0x00\n        /* \"#utility.yul\":22945:22947   */\n      0x20\n        /* \"#utility.yul\":22934:22943   */\n      dup3\n        /* \"#utility.yul\":22930:22948   */\n      add\n        /* \"#utility.yul\":22922:22948   */\n      swap1\n      pop\n        /* \"#utility.yul\":22994:23003   */\n      dup2\n        /* \"#utility.yul\":22988:22992   */\n      dup2\n        /* \"#utility.yul\":22984:23004   */\n      sub\n        /* \"#utility.yul\":22980:22981   */\n      0x00\n        /* \"#utility.yul\":22969:22978   */\n      dup4\n        /* \"#utility.yul\":22965:22982   */\n      add\n        /* \"#utility.yul\":22958:23005   */\n      mstore\n        /* \"#utility.yul\":23022:23153   */\n      tag_753\n        /* \"#utility.yul\":23148:23152   */\n      dup2\n        /* \"#utility.yul\":23022:23153   */\n      tag_544\n      jump\t// in\n    tag_753:\n        /* \"#utility.yul\":23014:23153   */\n      swap1\n      pop\n        /* \"#utility.yul\":22741:23160   */\n      swap2\n      swap1\n      pop\n      jump\t// out\n        /* \"#utility.yul\":23166:23345   */\n    tag_545:\n        /* \"#utility.yul\":23306:23337   */\n      0x416d6f756e74206d7573742062652067726561746572207468616e2030000000\n        /* \"#utility.yul\":23302:23303   */\n      0x00\n        /* \"#utility.yul\":23294:23300   */\n      dup3\n        /* \"#utility.yul\":23290:23304   */\n      add\n        /* \"#utility.yul\":23283:23338   */\n      mstore\n        /* \"#utility.yul\":23166:23345   */\n      pop\n      jump\t// out\n        /* \"#utility.yul\":23351:23717   */\n    tag_546:\n        /* \"#utility.yul\":23493:23496   */\n      0x00\n        /* \"#utility.yul\":23514:23581   */\n      tag_756\n        /* \"#utility.yul\":23578:23580   */\n      0x1d\n        /* \"#utility.yul\":23573:23576   */\n      dup4\n        /* \"#utility.yul\":23514:23581   */\n      tag_485\n      jump\t// in\n    tag_756:\n        /* \"#utility.yul\":23507:23581   */\n      swap2\n      pop\n        /* \"#utility.yul\":23590:23683   */\n      tag_757\n        /* \"#utility.yul\":23679:23682   */\n      dup3\n        /* \"#utility.yul\":23590:23683   */\n      tag_545\n      jump\t// in\n    tag_757:\n        /* \"#utility.yul\":23708:23710   */\n      0x20\n        /* \"#utility.yul\":23703:23706   */\n      dup3\n        /* \"#utility.yul\":23699:23711   */\n      add\n        /* \"#utility.yul\":23692:23711   */\n      swap1\n      pop\n        /* \"#utility.yul\":23351:23717   */\n      swap2\n      swap1\n      pop\n      jump\t// out\n        /* \"#utility.yul\":23723:24142   */\n    tag_365:\n        /* \"#utility.yul\":23889:23893   */\n      0x00\n        /* \"#utility.yul\":23927:23929   */\n      0x20\n        /* \"#utility.yul\":23916:23925   */\n      dup3\n        /* \"#utility.yul\":23912:23930   */\n      add\n        /* \"#utility.yul\":23904:23930   */\n      swap1\n      pop\n        /* \"#utility.yul\":23976:23985   */\n      dup2\n        /* \"#utility.yul\":23970:23974   */\n      dup2\n        /* \"#utility.yul\":23966:23986   */\n      sub\n        /* \"#utility.yul\":23962:23963   */\n      0x00\n        /* \"#utility.yul\":23951:23960   */\n      dup4\n        /* \"#utility.yul\":23947:23964   */\n      add\n        /* \"#utility.yul\":23940:23987   */\n      mstore\n        /* \"#utility.yul\":24004:24135   */\n      tag_759\n        /* \"#utility.yul\":24130:24134   */\n      dup2\n        /* \"#utility.yul\":24004:24135   */\n      tag_546\n      jump\t// in\n    tag_759:\n        /* \"#utility.yul\":23996:24135   */\n      swap1\n      pop\n        /* \"#utility.yul\":23723:24142   */\n      swap2\n      swap1\n      pop\n      jump\t// out\n        /* \"#utility.yul\":24148:24327   */\n    tag_547:\n        /* \"#utility.yul\":24288:24319   */\n      0x496e73756666696369656e742062616c616e636520746f207374616b65000000\n        /* \"#utility.yul\":24284:24285   */\n      0x00\n        /* \"#utility.yul\":24276:24282   */\n      dup3\n        /* \"#utility.yul\":24272:24286   */\n      add\n        /* \"#utility.yul\":24265:24320   */\n      mstore\n        /* \"#utility.yul\":24148:24327   */\n      pop\n      jump\t// out\n        /* \"#utility.yul\":24333:24699   */\n    tag_548:\n        /* \"#utility.yul\":24475:24478   */\n      0x00\n        /* \"#utility.yul\":24496:24563   */\n      tag_762\n        /* \"#utility.yul\":24560:24562   */\n      0x1d\n        /* \"#utility.yul\":24555:24558   */\n      dup4\n        /* \"#utility.yul\":24496:24563   */\n      tag_485\n      jump\t// in\n    tag_762:\n        /* \"#utility.yul\":24489:24563   */\n      swap2\n      pop\n        /* \"#utility.yul\":24572:24665   */\n      tag_763\n        /* \"#utility.yul\":24661:24664   */\n      dup3\n        /* \"#utility.yul\":24572:24665   */\n      tag_547\n      jump\t// in\n    tag_763:\n        /* \"#utility.yul\":24690:24692   */\n      0x20\n        /* \"#utility.yul\":24685:24688   */\n      dup3\n        /* \"#utility.yul\":24681:24693   */\n      add\n        /* \"#utility.yul\":24674:24693   */\n      swap1\n      pop\n        /* \"#utility.yul\":24333:24699   */\n      swap2\n      swap1\n      pop\n      jump\t// out\n        /* \"#utility.yul\":24705:25124   */\n    tag_369:\n        /* \"#utility.yul\":24871:24875   */\n      0x00\n        /* \"#utility.yul\":24909:24911   */\n      0x20\n        /* \"#utility.yul\":24898:24907   */\n      dup3\n        /* \"#utility.yul\":24894:24912   */\n      add\n        /* \"#utility.yul\":24886:24912   */\n      swap1\n      pop\n        /* \"#utility.yul\":24958:24967   */\n      dup2\n        /* \"#utility.yul\":24952:24956   */\n      dup2\n        /* \"#utility.yul\":24948:24968   */\n      sub\n        /* \"#utility.yul\":24944:24945   */\n      0x00\n        /* \"#utility.yul\":24933:24942   */\n      dup4\n        /* \"#utility.yul\":24929:24946   */\n      add\n        /* \"#utility.yul\":24922:24969   */\n      mstore\n        /* \"#utility.yul\":24986:25117   */\n      tag_765\n        /* \"#utility.yul\":25112:25116   */\n      dup2\n        /* \"#utility.yul\":24986:25117   */\n      tag_548\n      jump\t// in\n    tag_765:\n        /* \"#utility.yul\":24978:25117   */\n      swap1\n      pop\n        /* \"#utility.yul\":24705:25124   */\n      swap2\n      swap1\n      pop\n      jump\t// out\n        /* \"#utility.yul\":25130:25462   */\n    tag_374:\n        /* \"#utility.yul\":25251:25255   */\n      0x00\n        /* \"#utility.yul\":25289:25291   */\n      0x40\n        /* \"#utility.yul\":25278:25287   */\n      dup3\n        /* \"#utility.yul\":25274:25292   */\n      add\n        /* \"#utility.yul\":25266:25292   */\n      swap1\n      pop\n        /* \"#utility.yul\":25302:25373   */\n      tag_767\n        /* \"#utility.yul\":25370:25371   */\n      0x00\n        /* \"#utility.yul\":25359:25368   */\n      dup4\n        /* \"#utility.yul\":25355:25372   */\n      add\n        /* \"#utility.yul\":25346:25352   */\n      dup6\n        /* \"#utility.yul\":25302:25373   */\n      tag_504\n      jump\t// in\n    tag_767:\n        /* \"#utility.yul\":25383:25455   */\n      tag_768\n        /* \"#utility.yul\":25451:25453   */\n      0x20\n        /* \"#utility.yul\":25440:25449   */\n      dup4\n        /* \"#utility.yul\":25436:25454   */\n      add\n        /* \"#utility.yul\":25427:25433   */\n      dup5\n        /* \"#utility.yul\":25383:25455   */\n      tag_504\n      jump\t// in\n    tag_768:\n        /* \"#utility.yul\":25130:25462   */\n      swap4\n      swap3\n      pop\n      pop\n      pop\n      jump\t// out\n        /* \"#utility.yul\":25468:25910   */\n    tag_402:\n        /* \"#utility.yul\":25617:25621   */\n      0x00\n        /* \"#utility.yul\":25655:25657   */\n      0x60\n        /* \"#utility.yul\":25644:25653   */\n      dup3\n        /* \"#utility.yul\":25640:25658   */\n      add\n        /* \"#utility.yul\":25632:25658   */\n      swap1\n      pop\n        /* \"#utility.yul\":25668:25739   */\n      tag_770\n        /* \"#utility.yul\":25736:25737   */\n      0x00\n        /* \"#utility.yul\":25725:25734   */\n      dup4\n        /* \"#utility.yul\":25721:25738   */\n      add\n        /* \"#utility.yul\":25712:25718   */\n      dup7\n        /* \"#utility.yul\":25668:25739   */\n      tag_512\n      jump\t// in\n    tag_770:\n        /* \"#utility.yul\":25749:25821   */\n      tag_771\n        /* \"#utility.yul\":25817:25819   */\n      0x20\n        /* \"#utility.yul\":25806:25815   */\n      dup4\n        /* \"#utility.yul\":25802:25820   */\n      add\n        /* \"#utility.yul\":25793:25799   */\n      dup6\n        /* \"#utility.yul\":25749:25821   */\n      tag_504\n      jump\t// in\n    tag_771:\n        /* \"#utility.yul\":25831:25903   */\n      tag_772\n        /* \"#utility.yul\":25899:25901   */\n      0x40\n        /* \"#utility.yul\":25888:25897   */\n      dup4\n        /* \"#utility.yul\":25884:25902   */\n      add\n        /* \"#utility.yul\":25875:25881   */\n      dup5\n        /* \"#utility.yul\":25831:25903   */\n      tag_504\n      jump\t// in\n    tag_772:\n        /* \"#utility.yul\":25468:25910   */\n      swap5\n      swap4\n      pop\n      pop\n      pop\n      pop\n      jump\t// out\n        /* \"#utility.yul\":25916:26097   */\n    tag_549:\n        /* \"#utility.yul\":26056:26089   */\n      0x5265656e7472616e637947756172643a207265656e7472616e742063616c6c00\n        /* \"#utility.yul\":26052:26053   */\n      0x00\n        /* \"#utility.yul\":26044:26050   */\n      dup3\n        /* \"#utility.yul\":26040:26054   */\n      add\n        /* \"#utility.yul\":26033:26090   */\n      mstore\n        /* \"#utility.yul\":25916:26097   */\n      pop\n      jump\t// out\n        /* \"#utility.yul\":26103:26469   */\n    tag_550:\n        /* \"#utility.yul\":26245:26248   */\n      0x00\n        /* \"#utility.yul\":26266:26333   */\n      tag_775\n        /* \"#utility.yul\":26330:26332   */\n      0x1f\n        /* \"#utility.yul\":26325:26328   */\n      dup4\n        /* \"#utility.yul\":26266:26333   */\n      tag_485\n      jump\t// in\n    tag_775:\n        /* \"#utility.yul\":26259:26333   */\n      swap2\n      pop\n        /* \"#utility.yul\":26342:26435   */\n      tag_776\n        /* \"#utility.yul\":26431:26434   */\n      dup3\n        /* \"#utility.yul\":26342:26435   */\n      tag_549\n      jump\t// in\n    tag_776:\n        /* \"#utility.yul\":26460:26462   */\n      0x20\n        /* \"#utility.yul\":26455:26458   */\n      dup3\n        /* \"#utility.yul\":26451:26463   */\n      add\n        /* \"#utility.yul\":26444:26463   */\n      swap1\n      pop\n        /* \"#utility.yul\":26103:26469   */\n      swap2\n      swap1\n      pop\n      jump\t// out\n        /* \"#utility.yul\":26475:26894   */\n    tag_420:\n        /* \"#utility.yul\":26641:26645   */\n      0x00\n        /* \"#utility.yul\":26679:26681   */\n      0x20\n        /* \"#utility.yul\":26668:26677   */\n      dup3\n        /* \"#utility.yul\":26664:26682   */\n      add\n        /* \"#utility.yul\":26656:26682   */\n      swap1\n      pop\n        /* \"#utility.yul\":26728:26737   */\n      dup2\n        /* \"#utility.yul\":26722:26726   */\n      dup2\n        /* \"#utility.yul\":26718:26738   */\n      sub\n        /* \"#utility.yul\":26714:26715   */\n      0x00\n        /* \"#utility.yul\":26703:26712   */\n      dup4\n        /* \"#utility.yul\":26699:26716   */\n      add\n        /* \"#utility.yul\":26692:26739   */\n      mstore\n        /* \"#utility.yul\":26756:26887   */\n      tag_778\n        /* \"#utility.yul\":26882:26886   */\n      dup2\n        /* \"#utility.yul\":26756:26887   */\n      tag_550\n      jump\t// in\n    tag_778:\n        /* \"#utility.yul\":26748:26887   */\n      swap1\n      pop\n        /* \"#utility.yul\":26475:26894   */\n      swap2\n      swap1\n      pop\n      jump\t// out\n        /* \"#utility.yul\":26900:27080   */\n    tag_551:\n        /* \"#utility.yul\":26948:27025   */\n      0x4e487b7100000000000000000000000000000000000000000000000000000000\n        /* \"#utility.yul\":26945:26946   */\n      0x00\n        /* \"#utility.yul\":26938:27026   */\n      mstore\n        /* \"#utility.yul\":27045:27049   */\n      0x11\n        /* \"#utility.yul\":27042:27043   */\n      0x04\n        /* \"#utility.yul\":27035:27050   */\n      mstore\n        /* \"#utility.yul\":27069:27073   */\n      0x24\n        /* \"#utility.yul\":27066:27067   */\n      0x00\n        /* \"#utility.yul\":27059:27074   */\n      revert\n        /* \"#utility.yul\":27086:27496   */\n    tag_424:\n        /* \"#utility.yul\":27126:27133   */\n      0x00\n        /* \"#utility.yul\":27149:27169   */\n      tag_781\n        /* \"#utility.yul\":27167:27168   */\n      dup3\n        /* \"#utility.yul\":27149:27169   */\n      tag_499\n      jump\t// in\n    tag_781:\n        /* \"#utility.yul\":27144:27169   */\n      swap2\n      pop\n        /* \"#utility.yul\":27183:27203   */\n      tag_782\n        /* \"#utility.yul\":27201:27202   */\n      dup4\n        /* \"#utility.yul\":27183:27203   */\n      tag_499\n      jump\t// in\n    tag_782:\n        /* \"#utility.yul\":27178:27203   */\n      swap3\n      pop\n        /* \"#utility.yul\":27238:27239   */\n      dup3\n        /* \"#utility.yul\":27235:27236   */\n      dup3\n        /* \"#utility.yul\":27231:27240   */\n      mul\n        /* \"#utility.yul\":27260:27290   */\n      tag_783\n        /* \"#utility.yul\":27278:27289   */\n      dup2\n        /* \"#utility.yul\":27260:27290   */\n      tag_499\n      jump\t// in\n    tag_783:\n        /* \"#utility.yul\":27249:27290   */\n      swap2\n      pop\n        /* \"#utility.yul\":27439:27440   */\n      dup3\n        /* \"#utility.yul\":27430:27437   */\n      dup3\n        /* \"#utility.yul\":27426:27441   */\n      div\n        /* \"#utility.yul\":27423:27424   */\n      dup5\n        /* \"#utility.yul\":27420:27442   */\n      eq\n        /* \"#utility.yul\":27400:27401   */\n      dup4\n        /* \"#utility.yul\":27393:27402   */\n      iszero\n        /* \"#utility.yul\":27373:27456   */\n      or\n        /* \"#utility.yul\":27350:27489   */\n      tag_784\n      jumpi\n        /* \"#utility.yul\":27469:27487   */\n      tag_785\n      tag_551\n      jump\t// in\n    tag_785:\n        /* \"#utility.yul\":27350:27489   */\n    tag_784:\n        /* \"#utility.yul\":27134:27496   */\n      pop\n        /* \"#utility.yul\":27086:27496   */\n      swap3\n      swap2\n      pop\n      pop\n      jump\t// out\n        /* \"#utility.yul\":27502:27682   */\n    tag_552:\n        /* \"#utility.yul\":27550:27627   */\n      0x4e487b7100000000000000000000000000000000000000000000000000000000\n        /* \"#utility.yul\":27547:27548   */\n      0x00\n        /* \"#utility.yul\":27540:27628   */\n      mstore\n        /* \"#utility.yul\":27647:27651   */\n      0x12\n        /* \"#utility.yul\":27644:27645   */\n      0x04\n        /* \"#utility.yul\":27637:27652   */\n      mstore\n        /* \"#utility.yul\":27671:27675   */\n      0x24\n        /* \"#utility.yul\":27668:27669   */\n      0x00\n        /* \"#utility.yul\":27661:27676   */\n      revert\n        /* \"#utility.yul\":27688:27873   */\n    tag_427:\n        /* \"#utility.yul\":27728:27729   */\n      0x00\n        /* \"#utility.yul\":27745:27765   */\n      tag_788\n        /* \"#utility.yul\":27763:27764   */\n      dup3\n        /* \"#utility.yul\":27745:27765   */\n      tag_499\n      jump\t// in\n    tag_788:\n        /* \"#utility.yul\":27740:27765   */\n      swap2\n      pop\n        /* \"#utility.yul\":27779:27799   */\n      tag_789\n        /* \"#utility.yul\":27797:27798   */\n      dup4\n        /* \"#utility.yul\":27779:27799   */\n      tag_499\n      jump\t// in\n    tag_789:\n        /* \"#utility.yul\":27774:27799   */\n      swap3\n      pop\n        /* \"#utility.yul\":27818:27819   */\n      dup3\n        /* \"#utility.yul\":27808:27843   */\n      tag_790\n      jumpi\n        /* \"#utility.yul\":27823:27841   */\n      tag_791\n      tag_552\n      jump\t// in\n    tag_791:\n        /* \"#utility.yul\":27808:27843   */\n    tag_790:\n        /* \"#utility.yul\":27865:27866   */\n      dup3\n        /* \"#utility.yul\":27862:27863   */\n      dup3\n        /* \"#utility.yul\":27858:27867   */\n      div\n        /* \"#utility.yul\":27853:27867   */\n      swap1\n      pop\n        /* \"#utility.yul\":27688:27873   */\n      swap3\n      swap2\n      pop\n      pop\n      jump\t// out\n        /* \"#utility.yul\":27879:28099   */\n    tag_553:\n        /* \"#utility.yul\":28019:28053   */\n      0x55534420616d6f756e74206d7573742062652067726561746572207468616e20\n        /* \"#utility.yul\":28015:28016   */\n      0x00\n        /* \"#utility.yul\":28007:28013   */\n      dup3\n        /* \"#utility.yul\":28003:28017   */\n      add\n        /* \"#utility.yul\":27996:28054   */\n      mstore\n        /* \"#utility.yul\":28088:28091   */\n      0x3000000000000000000000000000000000000000000000000000000000000000\n        /* \"#utility.yul\":28083:28085   */\n      0x20\n        /* \"#utility.yul\":28075:28081   */\n      dup3\n        /* \"#utility.yul\":28071:28086   */\n      add\n        /* \"#utility.yul\":28064:28092   */\n      mstore\n        /* \"#utility.yul\":27879:28099   */\n      pop\n      jump\t// out\n        /* \"#utility.yul\":28105:28471   */\n    tag_554:\n        /* \"#utility.yul\":28247:28250   */\n      0x00\n        /* \"#utility.yul\":28268:28335   */\n      tag_794\n        /* \"#utility.yul\":28332:28334   */\n      0x21\n        /* \"#utility.yul\":28327:28330   */\n      dup4\n        /* \"#utility.yul\":28268:28335   */\n      tag_485\n      jump\t// in\n    tag_794:\n        /* \"#utility.yul\":28261:28335   */\n      swap2\n      pop\n        /* \"#utility.yul\":28344:28437   */\n      tag_795\n        /* \"#utility.yul\":28433:28436   */\n      dup3\n        /* \"#utility.yul\":28344:28437   */\n      tag_553\n      jump\t// in\n    tag_795:\n        /* \"#utility.yul\":28462:28464   */\n      0x40\n        /* \"#utility.yul\":28457:28460   */\n      dup3\n        /* \"#utility.yul\":28453:28465   */\n      add\n        /* \"#utility.yul\":28446:28465   */\n      swap1\n      pop\n        /* \"#utility.yul\":28105:28471   */\n      swap2\n      swap1\n      pop\n      jump\t// out\n        /* \"#utility.yul\":28477:28896   */\n    tag_431:\n        /* \"#utility.yul\":28643:28647   */\n      0x00\n        /* \"#utility.yul\":28681:28683   */\n      0x20\n        /* \"#utility.yul\":28670:28679   */\n      dup3\n        /* \"#utility.yul\":28666:28684   */\n      add\n        /* \"#utility.yul\":28658:28684   */\n      swap1\n      pop\n        /* \"#utility.yul\":28730:28739   */\n      dup2\n        /* \"#utility.yul\":28724:28728   */\n      dup2\n        /* \"#utility.yul\":28720:28740   */\n      sub\n        /* \"#utility.yul\":28716:28717   */\n      0x00\n        /* \"#utility.yul\":28705:28714   */\n      dup4\n        /* \"#utility.yul\":28701:28718   */\n      add\n        /* \"#utility.yul\":28694:28741   */\n      mstore\n        /* \"#utility.yul\":28758:28889   */\n      tag_797\n        /* \"#utility.yul\":28884:28888   */\n      dup2\n        /* \"#utility.yul\":28758:28889   */\n      tag_554\n      jump\t// in\n    tag_797:\n        /* \"#utility.yul\":28750:28889   */\n      swap1\n      pop\n        /* \"#utility.yul\":28477:28896   */\n      swap2\n      swap1\n      pop\n      jump\t// out\n        /* \"#utility.yul\":28902:29131   */\n    tag_555:\n        /* \"#utility.yul\":29042:29076   */\n      0x507269766174652053616c6520746f6b656e73206d7573742062652067726561\n        /* \"#utility.yul\":29038:29039   */\n      0x00\n        /* \"#utility.yul\":29030:29036   */\n      dup3\n        /* \"#utility.yul\":29026:29040   */\n      add\n        /* \"#utility.yul\":29019:29077   */\n      mstore\n        /* \"#utility.yul\":29111:29123   */\n      0x746572207468616e203000000000000000000000000000000000000000000000\n        /* \"#utility.yul\":29106:29108   */\n      0x20\n        /* \"#utility.yul\":29098:29104   */\n      dup3\n        /* \"#utility.yul\":29094:29109   */\n      add\n        /* \"#utility.yul\":29087:29124   */\n      mstore\n        /* \"#utility.yul\":28902:29131   */\n      pop\n      jump\t// out\n        /* \"#utility.yul\":29137:29503   */\n    tag_556:\n        /* \"#utility.yul\":29279:29282   */\n      0x00\n        /* \"#utility.yul\":29300:29367   */\n      tag_800\n        /* \"#utility.yul\":29364:29366   */\n      0x2a\n        /* \"#utility.yul\":29359:29362   */\n      dup4\n        /* \"#utility.yul\":29300:29367   */\n      tag_485\n      jump\t// in\n    tag_800:\n        /* \"#utility.yul\":29293:29367   */\n      swap2\n      pop\n        /* \"#utility.yul\":29376:29469   */\n      tag_801\n        /* \"#utility.yul\":29465:29468   */\n      dup3\n        /* \"#utility.yul\":29376:29469   */\n      tag_555\n      jump\t// in\n    tag_801:\n        /* \"#utility.yul\":29494:29496   */\n      0x40\n        /* \"#utility.yul\":29489:29492   */\n      dup3\n        /* \"#utility.yul\":29485:29497   */\n      add\n        /* \"#utility.yul\":29478:29497   */\n      swap1\n      pop\n        /* \"#utility.yul\":29137:29503   */\n      swap2\n      swap1\n      pop\n      jump\t// out\n        /* \"#utility.yul\":29509:29928   */\n    tag_434:\n        /* \"#utility.yul\":29675:29679   */\n      0x00\n        /* \"#utility.yul\":29713:29715   */\n      0x20\n        /* \"#utility.yul\":29702:29711   */\n      dup3\n        /* \"#utility.yul\":29698:29716   */\n      add\n        /* \"#utility.yul\":29690:29716   */\n      swap1\n      pop\n        /* \"#utility.yul\":29762:29771   */\n      dup2\n        /* \"#utility.yul\":29756:29760   */\n      dup2\n        /* \"#utility.yul\":29752:29772   */\n      sub\n        /* \"#utility.yul\":29748:29749   */\n      0x00\n        /* \"#utility.yul\":29737:29746   */\n      dup4\n        /* \"#utility.yul\":29733:29750   */\n      add\n        /* \"#utility.yul\":29726:29773   */\n      mstore\n        /* \"#utility.yul\":29790:29921   */\n      tag_803\n        /* \"#utility.yul\":29916:29920   */\n      dup2\n        /* \"#utility.yul\":29790:29921   */\n      tag_556\n      jump\t// in\n    tag_803:\n        /* \"#utility.yul\":29782:29921   */\n      swap1\n      pop\n        /* \"#utility.yul\":29509:29928   */\n      swap2\n      swap1\n      pop\n      jump\t// out\n        /* \"#utility.yul\":29934:30169   */\n    tag_557:\n        /* \"#utility.yul\":30074:30108   */\n      0x507269766174652053616c6520736f6c6420746f6b656e732065786365656420\n        /* \"#utility.yul\":30070:30071   */\n      0x00\n        /* \"#utility.yul\":30062:30068   */\n      dup3\n        /* \"#utility.yul\":30058:30072   */\n      add\n        /* \"#utility.yul\":30051:30109   */\n      mstore\n        /* \"#utility.yul\":30143:30161   */\n      0x617661696c61626c6520746f6b656e7300000000000000000000000000000000\n        /* \"#utility.yul\":30138:30140   */\n      0x20\n        /* \"#utility.yul\":30130:30136   */\n      dup3\n        /* \"#utility.yul\":30126:30141   */\n      add\n        /* \"#utility.yul\":30119:30162   */\n      mstore\n        /* \"#utility.yul\":29934:30169   */\n      pop\n      jump\t// out\n        /* \"#utility.yul\":30175:30541   */\n    tag_558:\n        /* \"#utility.yul\":30317:30320   */\n      0x00\n        /* \"#utility.yul\":30338:30405   */\n      tag_806\n        /* \"#utility.yul\":30402:30404   */\n      0x30\n        /* \"#utility.yul\":30397:30400   */\n      dup4\n        /* \"#utility.yul\":30338:30405   */\n      tag_485\n      jump\t// in\n    tag_806:\n        /* \"#utility.yul\":30331:30405   */\n      swap2\n      pop\n        /* \"#utility.yul\":30414:30507   */\n      tag_807\n        /* \"#utility.yul\":30503:30506   */\n      dup3\n        /* \"#utility.yul\":30414:30507   */\n      tag_557\n      jump\t// in\n    tag_807:\n        /* \"#utility.yul\":30532:30534   */\n      0x40\n        /* \"#utility.yul\":30527:30530   */\n      dup3\n        /* \"#utility.yul\":30523:30535   */\n      add\n        /* \"#utility.yul\":30516:30535   */\n      swap1\n      pop\n        /* \"#utility.yul\":30175:30541   */\n      swap2\n      swap1\n      pop\n      jump\t// out\n        /* \"#utility.yul\":30547:30966   */\n    tag_437:\n        /* \"#utility.yul\":30713:30717   */\n      0x00\n        /* \"#utility.yul\":30751:30753   */\n      0x20\n        /* \"#utility.yul\":30740:30749   */\n      dup3\n        /* \"#utility.yul\":30736:30754   */\n      add\n        /* \"#utility.yul\":30728:30754   */\n      swap1\n      pop\n        /* \"#utility.yul\":30800:30809   */\n      dup2\n        /* \"#utility.yul\":30794:30798   */\n      dup2\n        /* \"#utility.yul\":30790:30810   */\n      sub\n        /* \"#utility.yul\":30786:30787   */\n      0x00\n        /* \"#utility.yul\":30775:30784   */\n      dup4\n        /* \"#utility.yul\":30771:30788   */\n      add\n        /* \"#utility.yul\":30764:30811   */\n      mstore\n        /* \"#utility.yul\":30828:30959   */\n      tag_809\n        /* \"#utility.yul\":30954:30958   */\n      dup2\n        /* \"#utility.yul\":30828:30959   */\n      tag_558\n      jump\t// in\n    tag_809:\n        /* \"#utility.yul\":30820:30959   */\n      swap1\n      pop\n        /* \"#utility.yul\":30547:30966   */\n      swap2\n      swap1\n      pop\n      jump\t// out\n        /* \"#utility.yul\":30972:31152   */\n    tag_559:\n        /* \"#utility.yul\":31112:31144   */\n      0x496e76616c696420746f6b656e2070726963652063616c63756c617465640000\n        /* \"#utility.yul\":31108:31109   */\n      0x00\n        /* \"#utility.yul\":31100:31106   */\n      dup3\n        /* \"#utility.yul\":31096:31110   */\n      add\n        /* \"#utility.yul\":31089:31145   */\n      mstore\n        /* \"#utility.yul\":30972:31152   */\n      pop\n      jump\t// out\n        /* \"#utility.yul\":31158:31524   */\n    tag_560:\n        /* \"#utility.yul\":31300:31303   */\n      0x00\n        /* \"#utility.yul\":31321:31388   */\n      tag_812\n        /* \"#utility.yul\":31385:31387   */\n      0x1e\n        /* \"#utility.yul\":31380:31383   */\n      dup4\n        /* \"#utility.yul\":31321:31388   */\n      tag_485\n      jump\t// in\n    tag_812:\n        /* \"#utility.yul\":31314:31388   */\n      swap2\n      pop\n        /* \"#utility.yul\":31397:31490   */\n      tag_813\n        /* \"#utility.yul\":31486:31489   */\n      dup3\n        /* \"#utility.yul\":31397:31490   */\n      tag_559\n      jump\t// in\n    tag_813:\n        /* \"#utility.yul\":31515:31517   */\n      0x20\n        /* \"#utility.yul\":31510:31513   */\n      dup3\n        /* \"#utility.yul\":31506:31518   */\n      add\n        /* \"#utility.yul\":31499:31518   */\n      swap1\n      pop\n        /* \"#utility.yul\":31158:31524   */\n      swap2\n      swap1\n      pop\n      jump\t// out\n        /* \"#utility.yul\":31530:31949   */\n    tag_446:\n        /* \"#utility.yul\":31696:31700   */\n      0x00\n        /* \"#utility.yul\":31734:31736   */\n      0x20\n        /* \"#utility.yul\":31723:31732   */\n      dup3\n        /* \"#utility.yul\":31719:31737   */\n      add\n        /* \"#utility.yul\":31711:31737   */\n      swap1\n      pop\n        /* \"#utility.yul\":31783:31792   */\n      dup2\n        /* \"#utility.yul\":31777:31781   */\n      dup2\n        /* \"#utility.yul\":31773:31793   */\n      sub\n        /* \"#utility.yul\":31769:31770   */\n      0x00\n        /* \"#utility.yul\":31758:31767   */\n      dup4\n        /* \"#utility.yul\":31754:31771   */\n      add\n        /* \"#utility.yul\":31747:31794   */\n      mstore\n        /* \"#utility.yul\":31811:31942   */\n      tag_815\n        /* \"#utility.yul\":31937:31941   */\n      dup2\n        /* \"#utility.yul\":31811:31942   */\n      tag_560\n      jump\t// in\n    tag_815:\n        /* \"#utility.yul\":31803:31942   */\n      swap1\n      pop\n        /* \"#utility.yul\":31530:31949   */\n      swap2\n      swap1\n      pop\n      jump\t// out\n        /* \"#utility.yul\":31955:32182   */\n    tag_561:\n        /* \"#utility.yul\":32095:32129   */\n      0x43616c63756c6174656420746f6b656e73206d75737420626520677265617465\n        /* \"#utility.yul\":32091:32092   */\n      0x00\n        /* \"#utility.yul\":32083:32089   */\n      dup3\n        /* \"#utility.yul\":32079:32093   */\n      add\n        /* \"#utility.yul\":32072:32130   */\n      mstore\n        /* \"#utility.yul\":32164:32174   */\n      0x72207468616e2030000000000000000000000000000000000000000000000000\n        /* \"#utility.yul\":32159:32161   */\n      0x20\n        /* \"#utility.yul\":32151:32157   */\n      dup3\n        /* \"#utility.yul\":32147:32162   */\n      add\n        /* \"#utility.yul\":32140:32175   */\n      mstore\n        /* \"#utility.yul\":31955:32182   */\n      pop\n      jump\t// out\n        /* \"#utility.yul\":32188:32554   */\n    tag_562:\n        /* \"#utility.yul\":32330:32333   */\n      0x00\n        /* \"#utility.yul\":32351:32418   */\n      tag_818\n        /* \"#utility.yul\":32415:32417   */\n      0x28\n        /* \"#utility.yul\":32410:32413   */\n      dup4\n        /* \"#utility.yul\":32351:32418   */\n      tag_485\n      jump\t// in\n    tag_818:\n        /* \"#utility.yul\":32344:32418   */\n      swap2\n      pop\n        /* \"#utility.yul\":32427:32520   */\n      tag_819\n        /* \"#utility.yul\":32516:32519   */\n      dup3\n        /* \"#utility.yul\":32427:32520   */\n      tag_561\n      jump\t// in\n    tag_819:\n        /* \"#utility.yul\":32545:32547   */\n      0x40\n        /* \"#utility.yul\":32540:32543   */\n      dup3\n        /* \"#utility.yul\":32536:32548   */\n      add\n        /* \"#utility.yul\":32529:32548   */\n      swap1\n      pop\n        /* \"#utility.yul\":32188:32554   */\n      swap2\n      swap1\n      pop\n      jump\t// out\n        /* \"#utility.yul\":32560:32979   */\n    tag_450:\n        /* \"#utility.yul\":32726:32730   */\n      0x00\n        /* \"#utility.yul\":32764:32766   */\n      0x20\n        /* \"#utility.yul\":32753:32762   */\n      dup3\n        /* \"#utility.yul\":32749:32767   */\n      add\n        /* \"#utility.yul\":32741:32767   */\n      swap1\n      pop\n        /* \"#utility.yul\":32813:32822   */\n      dup2\n        /* \"#utility.yul\":32807:32811   */\n      dup2\n        /* \"#utility.yul\":32803:32823   */\n      sub\n        /* \"#utility.yul\":32799:32800   */\n      0x00\n        /* \"#utility.yul\":32788:32797   */\n      dup4\n        /* \"#utility.yul\":32784:32801   */\n      add\n        /* \"#utility.yul\":32777:32824   */\n      mstore\n        /* \"#utility.yul\":32841:32972   */\n      tag_821\n        /* \"#utility.yul\":32967:32971   */\n      dup2\n        /* \"#utility.yul\":32841:32972   */\n      tag_562\n      jump\t// in\n    tag_821:\n        /* \"#utility.yul\":32833:32972   */\n      swap1\n      pop\n        /* \"#utility.yul\":32560:32979   */\n      swap2\n      swap1\n      pop\n      jump\t// out\n        /* \"#utility.yul\":32985:33176   */\n    tag_453:\n        /* \"#utility.yul\":33025:33028   */\n      0x00\n        /* \"#utility.yul\":33044:33064   */\n      tag_823\n        /* \"#utility.yul\":33062:33063   */\n      dup3\n        /* \"#utility.yul\":33044:33064   */\n      tag_499\n      jump\t// in\n    tag_823:\n        /* \"#utility.yul\":33039:33064   */\n      swap2\n      pop\n        /* \"#utility.yul\":33078:33098   */\n      tag_824\n        /* \"#utility.yul\":33096:33097   */\n      dup4\n        /* \"#utility.yul\":33078:33098   */\n      tag_499\n      jump\t// in\n    tag_824:\n        /* \"#utility.yul\":33073:33098   */\n      swap3\n      pop\n        /* \"#utility.yul\":33121:33122   */\n      dup3\n        /* \"#utility.yul\":33118:33119   */\n      dup3\n        /* \"#utility.yul\":33114:33123   */\n      add\n        /* \"#utility.yul\":33107:33123   */\n      swap1\n      pop\n        /* \"#utility.yul\":33142:33145   */\n      dup1\n        /* \"#utility.yul\":33139:33140   */\n      dup3\n        /* \"#utility.yul\":33136:33146   */\n      gt\n        /* \"#utility.yul\":33133:33169   */\n      iszero\n      tag_825\n      jumpi\n        /* \"#utility.yul\":33149:33167   */\n      tag_826\n      tag_551\n      jump\t// in\n    tag_826:\n        /* \"#utility.yul\":33133:33169   */\n    tag_825:\n        /* \"#utility.yul\":32985:33176   */\n      swap3\n      swap2\n      pop\n      pop\n      jump\t// out\n        /* \"#utility.yul\":33182:33376   */\n    tag_484:\n        /* \"#utility.yul\":33222:33226   */\n      0x00\n        /* \"#utility.yul\":33242:33262   */\n      tag_828\n        /* \"#utility.yul\":33260:33261   */\n      dup3\n        /* \"#utility.yul\":33242:33262   */\n      tag_499\n      jump\t// in\n    tag_828:\n        /* \"#utility.yul\":33237:33262   */\n      swap2\n      pop\n        /* \"#utility.yul\":33276:33296   */\n      tag_829\n        /* \"#utility.yul\":33294:33295   */\n      dup4\n        /* \"#utility.yul\":33276:33296   */\n      tag_499\n      jump\t// in\n    tag_829:\n        /* \"#utility.yul\":33271:33296   */\n      swap3\n      pop\n        /* \"#utility.yul\":33320:33321   */\n      dup3\n        /* \"#utility.yul\":33317:33318   */\n      dup3\n        /* \"#utility.yul\":33313:33322   */\n      sub\n        /* \"#utility.yul\":33305:33322   */\n      swap1\n      pop\n        /* \"#utility.yul\":33344:33345   */\n      dup2\n        /* \"#utility.yul\":33338:33342   */\n      dup2\n        /* \"#utility.yul\":33335:33346   */\n      gt\n        /* \"#utility.yul\":33332:33369   */\n      iszero\n      tag_830\n      jumpi\n        /* \"#utility.yul\":33349:33367   */\n      tag_831\n      tag_551\n      jump\t// in\n    tag_831:\n        /* \"#utility.yul\":33332:33369   */\n    tag_830:\n        /* \"#utility.yul\":33182:33376   */\n      swap3\n      swap2\n      pop\n      pop\n      jump\t// out\n\n    auxdata: 0xa26469706673582212207e52ffddca16469ac02c372fcb7231cec9398546de86c6ce0bc957967aa9008164736f6c634300081a0033\n}\n",
				"bytecode": {
					"linkReferences": {},
					"object": "608060405269d3c21bcecceda10000006007556a201fcafc2577d29850000060085566038d7ea4c6800060095566b3697b81284000600a555f600b556a0fb768105935a2f3000000600c556a854fdabd6aa1d32fb00000600d5566b3697b81284000600e5567016345785d8a0000600f555f6010555f60115f6101000a81548160ff02191690836002811115610098576100976105b2565b5b021790555062ed4e006014556301e133806015553480156100b7575f80fd5b50604051613ddd380380613ddd83398181016040528101906100d9919061063d565b336040518060400160405280600881526020017f426574746f6b656e0000000000000000000000000000000000000000000000008152506040518060400160405280600481526020017f4245545400000000000000000000000000000000000000000000000000000000815250816003908161015591906108a2565b50806004908161016591906108a2565b5050505f73ffffffffffffffffffffffffffffffffffffffff168173ffffffffffffffffffffffffffffffffffffffff16036101d8575f6040517f1e4fbdf70000000000000000000000000000000000000000000000000000000081526004016101cf9190610980565b60405180910390fd5b6101e78161025160201b60201c565b50600160068190555061020b306aa56fa5b99019a5c800000061031460201b60201c565b8060165f6101000a81548173ffffffffffffffffffffffffffffffffffffffff021916908373ffffffffffffffffffffffffffffffffffffffff16021790555050610a56565b5f60055f9054906101000a900473ffffffffffffffffffffffffffffffffffffffff1690508160055f6101000a81548173ffffffffffffffffffffffffffffffffffffffff021916908373ffffffffffffffffffffffffffffffffffffffff1602179055508173ffffffffffffffffffffffffffffffffffffffff168173ffffffffffffffffffffffffffffffffffffffff167f8be0079c531659141344cd1fd0a4f28419497f9722a3daafe3b4186f6b6457e060405160405180910390a35050565b5f73ffffffffffffffffffffffffffffffffffffffff168273ffffffffffffffffffffffffffffffffffffffff1603610384575f6040517fec442f0500000000000000000000000000000000000000000000000000000000815260040161037b9190610980565b60405180910390fd5b6103955f838361039960201b60201c565b5050565b5f73ffffffffffffffffffffffffffffffffffffffff168373ffffffffffffffffffffffffffffffffffffffff16036103e9578060025f8282546103dd91906109c6565b925050819055506104b7565b5f805f8573ffffffffffffffffffffffffffffffffffffffff1673ffffffffffffffffffffffffffffffffffffffff1681526020019081526020015f2054905081811015610472578381836040517fe450d38c00000000000000000000000000000000000000000000000000000000815260040161046993929190610a08565b60405180910390fd5b8181035f808673ffffffffffffffffffffffffffffffffffffffff1673ffffffffffffffffffffffffffffffffffffffff1681526020019081526020015f2081905550505b5f73ffffffffffffffffffffffffffffffffffffffff168273ffffffffffffffffffffffffffffffffffffffff16036104fe578060025f8282540392505081905550610548565b805f808473ffffffffffffffffffffffffffffffffffffffff1673ffffffffffffffffffffffffffffffffffffffff1681526020019081526020015f205f82825401925050819055505b8173ffffffffffffffffffffffffffffffffffffffff168373ffffffffffffffffffffffffffffffffffffffff167fddf252ad1be2c89b69c2b068fc378daa952ba7f163c4a11628f55a4df523b3ef836040516105a59190610a3d565b60405180910390a3505050565b7f4e487b71000000000000000000000000000000000000000000000000000000005f52602160045260245ffd5b5f80fd5b5f73ffffffffffffffffffffffffffffffffffffffff82169050919050565b5f61060c826105e3565b9050919050565b61061c81610602565b8114610626575f80fd5b50565b5f8151905061063781610613565b92915050565b5f60208284031215610652576106516105df565b5b5f61065f84828501610629565b91505092915050565b5f81519050919050565b7f4e487b71000000000000000000000000000000000000000000000000000000005f52604160045260245ffd5b7f4e487b71000000000000000000000000000000000000000000000000000000005f52602260045260245ffd5b5f60028204905060018216806106e357607f821691505b6020821081036106f6576106f561069f565b5b50919050565b5f819050815f5260205f209050919050565b5f6020601f8301049050919050565b5f82821b905092915050565b5f600883026107587fffffffffffffffffffffffffffffffffffffffffffffffffffffffffffffffff8261071d565b610762868361071d565b95508019841693508086168417925050509392505050565b5f819050919050565b5f819050919050565b5f6107a66107a161079c8461077a565b610783565b61077a565b9050919050565b5f819050919050565b6107bf8361078c565b6107d36107cb826107ad565b848454610729565b825550505050565b5f90565b6107e76107db565b6107f28184846107b6565b505050565b5b818110156108155761080a5f826107df565b6001810190506107f8565b5050565b601f82111561085a5761082b816106fc565b6108348461070e565b81016020851015610843578190505b61085761084f8561070e565b8301826107f7565b50505b505050565b5f82821c905092915050565b5f61087a5f198460080261085f565b1980831691505092915050565b5f610892838361086b565b9150826002028217905092915050565b6108ab82610668565b67ffffffffffffffff8111156108c4576108c3610672565b5b6108ce82546106cc565b6108d9828285610819565b5f60209050601f83116001811461090a575f84156108f8578287015190505b6109028582610887565b865550610969565b601f198416610918866106fc565b5f5b8281101561093f5784890151825560018201915060208501945060208101905061091a565b8683101561095c5784890151610958601f89168261086b565b8355505b6001600288020188555050505b505050505050565b61097a81610602565b82525050565b5f6020820190506109935f830184610971565b92915050565b7f4e487b71000000000000000000000000000000000000000000000000000000005f52601160045260245ffd5b5f6109d08261077a565b91506109db8361077a565b92508282019050808211156109f3576109f2610999565b5b92915050565b610a028161077a565b82525050565b5f606082019050610a1b5f830186610971565b610a2860208301856109f9565b610a3560408301846109f9565b949350505050565b5f602082019050610a505f8301846109f9565b92915050565b61337a80610a635f395ff3fe608060405260043610610212575f3560e01c806370a0823111610117578063b0e686301161009f578063c040e6b81161006e578063c040e6b814610787578063c552e04b146107b1578063dd62ed3e146107db578063e6bd92b914610817578063f2fde38b1461084157610252565b8063b0e68630146106df578063b68ed11f14610709578063ba20cf4c14610733578063bda956331461075d57610252565b80638f7713ff116100e65780638f7713ff146105fb578063902d55a514610625578063920168b31461064f57806395d89b4114610679578063a9059cbb146106a357610252565b806370a0823114610557578063715018a6146105935780637547c7a3146105a95780638da5cb5b146105d157610252565b80632b1cbc381161019a5780633610724e116101695780633610724e146104bb57806340f02ab6146104d757806354dd1da41461050157806355dd574c146105175780635fb3b9441461052d57610252565b80632b1cbc3814610429578063313ce5671461046557806332c85ac01461048f578063338dbf59146104a557610252565b806318160ddd116101e157806318160ddd14610347578063192399d11461037157806323b872dd146103ad57806324600fc3146103e95780632630c12f146103ff57610252565b806306fdde031461028d578063095ea7b3146102b75780630fe83bb8146102f35780631514617e1461031d57610252565b36610252576040517f08c379a00000000000000000000000000000000000000000000000000000000081526004016102499061235b565b60405180910390fd5b6040517f08c379a00000000000000000000000000000000000000000000000000000000081526004016102849061235b565b60405180910390fd5b348015610298575f80fd5b506102a1610869565b6040516102ae91906123d9565b60405180910390f35b3480156102c2575f80fd5b506102dd60048036038101906102d8919061248a565b6108f9565b6040516102ea91906124e2565b60405180910390f35b3480156102fe575f80fd5b5061030761091b565b604051610314919061250a565b60405180910390f35b348015610328575f80fd5b50610331610921565b60405161033e919061250a565b60405180910390f35b348015610352575f80fd5b5061035b610927565b604051610368919061250a565b60405180910390f35b34801561037c575f80fd5b5061039760048036038101906103929190612523565b610930565b6040516103a4919061250a565b60405180910390f35b3480156103b8575f80fd5b506103d360048036038101906103ce919061254e565b610945565b6040516103e091906124e2565b60405180910390f35b3480156103f4575f80fd5b506103fd610973565b005b34801561040a575f80fd5b506104136109d8565b60405161042091906125f9565b60405180910390f35b348015610434575f80fd5b5061044f600480360381019061044a9190612523565b6109fd565b60405161045c919061250a565b60405180910390f35b348015610470575f80fd5b50610479610a12565b604051610486919061262d565b60405180910390f35b34801561049a575f80fd5b506104a3610a1a565b005b3480156104b0575f80fd5b506104b9610aa1565b005b6104d560048036038101906104d09190612646565b610b49565b005b3480156104e2575f80fd5b506104eb6110e1565b6040516104f8919061250a565b60405180910390f35b34801561050c575f80fd5b506105156110e7565b005b348015610522575f80fd5b5061052b6112da565b005b348015610538575f80fd5b506105416113c9565b60405161054e919061250a565b60405180910390f35b348015610562575f80fd5b5061057d60048036038101906105789190612523565b6113cf565b60405161058a919061250a565b60405180910390f35b34801561059e575f80fd5b506105a7611414565b005b3480156105b4575f80fd5b506105cf60048036038101906105ca9190612646565b611427565b005b3480156105dc575f80fd5b506105e5611646565b6040516105f29190612680565b60405180910390f35b348015610606575f80fd5b5061060f61166e565b60405161061c919061250a565b60405180910390f35b348015610630575f80fd5b50610639611674565b604051610646919061250a565b60405180910390f35b34801561065a575f80fd5b50610663611683565b604051610670919061250a565b60405180910390f35b348015610684575f80fd5b5061068d611689565b60405161069a91906123d9565b60405180910390f35b3480156106ae575f80fd5b506106c960048036038101906106c4919061248a565b611719565b6040516106d691906124e2565b60405180910390f35b3480156106ea575f80fd5b506106f361173b565b604051610700919061250a565b60405180910390f35b348015610714575f80fd5b5061071d611741565b60405161072a919061250a565b60405180910390f35b34801561073e575f80fd5b50610747611747565b604051610754919061250a565b60405180910390f35b348015610768575f80fd5b5061077161174d565b60405161077e919061250a565b60405180910390f35b348015610792575f80fd5b5061079b611753565b6040516107a8919061270c565b60405180910390f35b3480156107bc575f80fd5b506107c5611765565b6040516107d2919061250a565b60405180910390f35b3480156107e6575f80fd5b5061080160048036038101906107fc9190612725565b61176b565b60405161080e919061250a565b60405180910390f35b348015610822575f80fd5b5061082b6117ed565b604051610838919061250a565b60405180910390f35b34801561084c575f80fd5b5061086760048036038101906108629190612523565b6117f3565b005b60606003805461087890612790565b80601f01602080910402602001604051908101604052809291908181526020018280546108a490612790565b80156108ef5780601f106108c6576101008083540402835291602001916108ef565b820191905f5260205f20905b8154815290600101906020018083116108d257829003601f168201915b5050505050905090565b5f80610903611877565b905061091081858561187e565b600191505092915050565b600d5481565b60145481565b5f600254905090565b6012602052805f5260405f205f915090505481565b5f8061094f611877565b905061095c858285611890565b610967858585611922565b60019150509392505050565b61097b611a12565b610983611a99565b61098b611646565b73ffffffffffffffffffffffffffffffffffffffff166108fc4790811502906040515f60405180830381858888f193505050501580156109cd573d5f803e3d5ffd5b506109d6611ae8565b565b60165f9054906101000a900473ffffffffffffffffffffffffffffffffffffffff1681565b6013602052805f5260405f205f915090505481565b5f6012905090565b610a22611a12565b600854600b541480610a375750600d54601054145b610a76576040517f08c379a0000000000000000000000000000000000000000000000000000000008152600401610a6d9061280a565b60405180910390fd5b5f60115f6101000a81548160ff02191690836002811115610a9a57610a99612699565b5b0217905550565b610aa9611a12565b5f6002811115610abc57610abb612699565b5b60115f9054906101000a900460ff166002811115610add57610adc612699565b5b14610b1d576040517f08c379a0000000000000000000000000000000000000000000000000000000008152600401610b1490612898565b60405180910390fd5b600160115f6101000a81548160ff02191690836002811115610b4257610b41612699565b5b0217905550565b610b51611a99565b5f6002811115610b6457610b63612699565b5b60115f9054906101000a900460ff166002811115610b8557610b84612699565b5b03610bc5576040517f08c379a0000000000000000000000000000000000000000000000000000000008152600401610bbc90612900565b60405180910390fd5b5f60165f9054906101000a900473ffffffffffffffffffffffffffffffffffffffff1673ffffffffffffffffffffffffffffffffffffffff16638e15f4736040518163ffffffff1660e01b8152600401602060405180830381865afa158015610c30573d5f803e3d5ffd5b505050506040513d601f19601f82011682018060405250810190610c549190612932565b90505f8111610c98576040517f08c379a0000000000000000000000000000000000000000000000000000000008152600401610c8f906129a7565b60405180910390fd5b5f60016002811115610cad57610cac612699565b5b60115f9054906101000a900460ff166002811115610cce57610ccd612699565b5b03610f0057600854600b5410610d19576040517f08c379a0000000000000000000000000000000000000000000000000000000008152600401610d1090612a0f565b60405180910390fd5b610d4e610d49670de0b6b3a7640000610d3b8587611af290919063ffffffff16565b611b0790919063ffffffff16565b611b1c565b9050610d6581600b54611cfa90919063ffffffff16565b600b81905550600854600b541115610db2576040517f08c379a0000000000000000000000000000000000000000000000000000000008152600401610da990612a9d565b60405180910390fd5b610e028160125f3373ffffffffffffffffffffffffffffffffffffffff1673ffffffffffffffffffffffffffffffffffffffff1681526020019081526020015f2054611cfa90919063ffffffff16565b60125f3373ffffffffffffffffffffffffffffffffffffffff1673ffffffffffffffffffffffffffffffffffffffff1681526020019081526020015f2081905550610e6c601454610e5e60155442611cfa90919063ffffffff16565b611cfa90919063ffffffff16565b60135f3373ffffffffffffffffffffffffffffffffffffffff1673ffffffffffffffffffffffffffffffffffffffff1681526020019081526020015f20819055503373ffffffffffffffffffffffffffffffffffffffff167f8fa81bb0702332ea2a0aee44bb9e4d359cf4a2c5a820dd59d9129369bdbca73f82604051610ef3919061250a565b60405180910390a26110d4565b600280811115610f1357610f12612699565b5b60115f9054906101000a900460ff166002811115610f3457610f33612699565b5b036110d357600d5460105410610f7f576040517f08c379a0000000000000000000000000000000000000000000000000000000008152600401610f7690612b05565b60405180910390fd5b68056bc75e2d631000008310158015610fa1575068a2a15d09519be000008311155b610fe0576040517f08c379a0000000000000000000000000000000000000000000000000000000008152600401610fd790612b6d565b60405180910390fd5b611015611010670de0b6b3a76400006110028587611af290919063ffffffff16565b611b0790919063ffffffff16565b611d0f565b905061102c81601054611cfa90919063ffffffff16565b601081905550600d546010541115611079576040517f08c379a000000000000000000000000000000000000000000000000000000000815260040161107090612bd5565b60405180910390fd5b611084303383611922565b3373ffffffffffffffffffffffffffffffffffffffff167f550498dc565cc74203b9d14cba907c9f60ceefe26e82b37df98f6cb98529cf19826040516110ca919061250a565b60405180910390a25b5b50506110de611ae8565b50565b60155481565b6110ef611a99565b60135f3373ffffffffffffffffffffffffffffffffffffffff1673ffffffffffffffffffffffffffffffffffffffff1681526020019081526020015f205442101561116f576040517f08c379a000000000000000000000000000000000000000000000000000000000815260040161116690612c63565b60405180910390fd5b5f60125f3373ffffffffffffffffffffffffffffffffffffffff1673ffffffffffffffffffffffffffffffffffffffff1681526020019081526020015f205490505f81116111f2576040517f08c379a00000000000000000000000000000000000000000000000000000000081526004016111e990612ccb565b60405180910390fd5b5f60125f3373ffffffffffffffffffffffffffffffffffffffff1673ffffffffffffffffffffffffffffffffffffffff1681526020019081526020015f20819055505f60135f3373ffffffffffffffffffffffffffffffffffffffff1673ffffffffffffffffffffffffffffffffffffffff1681526020019081526020015f2081905550611281303383611922565b3373ffffffffffffffffffffffffffffffffffffffff167f6bc5063c7239b75c8bf325a2a2238f726fada322163996bb6c93d5594fb119f0826040516112c7919061250a565b60405180910390a2506112d8611ae8565b565b6112e2611a12565b600160028111156112f6576112f5612699565b5b60115f9054906101000a900460ff16600281111561131757611316612699565b5b14611357576040517f08c379a000000000000000000000000000000000000000000000000000000000815260040161134e90612d59565b60405180910390fd5b600854600b541461139d576040517f08c379a000000000000000000000000000000000000000000000000000000000815260040161139490612dc1565b60405180910390fd5b600260115f6101000a81548160ff021916908360028111156113c2576113c1612699565b5b0217905550565b600b5481565b5f805f8373ffffffffffffffffffffffffffffffffffffffff1673ffffffffffffffffffffffffffffffffffffffff1681526020019081526020015f20549050919050565b61141c611a12565b6114255f611e1b565b565b61142f611a99565b5f8111611471576040517f08c379a000000000000000000000000000000000000000000000000000000000815260040161146890612e29565b60405180910390fd5b8061147b336113cf565b10156114bc576040517f08c379a00000000000000000000000000000000000000000000000000000000081526004016114b390612e91565b60405180910390fd5b6114c7333083611922565b6115178160125f3373ffffffffffffffffffffffffffffffffffffffff1673ffffffffffffffffffffffffffffffffffffffff1681526020019081526020015f2054611cfa90919063ffffffff16565b60125f3373ffffffffffffffffffffffffffffffffffffffff1673ffffffffffffffffffffffffffffffffffffffff1681526020019081526020015f208190555061156d60155442611cfa90919063ffffffff16565b60135f3373ffffffffffffffffffffffffffffffffffffffff1673ffffffffffffffffffffffffffffffffffffffff1681526020019081526020015f20819055503373ffffffffffffffffffffffffffffffffffffffff167fdd2a19c3bdd089cbe77c04f5655f83de0504d6140d12c8667646f55d0557c4dc8260135f3373ffffffffffffffffffffffffffffffffffffffff1673ffffffffffffffffffffffffffffffffffffffff1681526020019081526020015f2054604051611633929190612eaf565b60405180910390a2611643611ae8565b50565b5f60055f9054906101000a900473ffffffffffffffffffffffffffffffffffffffff16905090565b600f5481565b6aa56fa5b99019a5c800000081565b600e5481565b60606004805461169890612790565b80601f01602080910402602001604051908101604052809291908181526020018280546116c490612790565b801561170f5780601f106116e65761010080835404028352916020019161170f565b820191905f5260205f20905b8154815290600101906020018083116116f257829003601f168201915b5050505050905090565b5f80611723611877565b9050611730818585611922565b600191505092915050565b60095481565b60105481565b60075481565b600a5481565b60115f9054906101000a900460ff1681565b60085481565b5f60015f8473ffffffffffffffffffffffffffffffffffffffff1673ffffffffffffffffffffffffffffffffffffffff1681526020019081526020015f205f8373ffffffffffffffffffffffffffffffffffffffff1673ffffffffffffffffffffffffffffffffffffffff1681526020019081526020015f2054905092915050565b600c5481565b6117fb611a12565b5f73ffffffffffffffffffffffffffffffffffffffff168173ffffffffffffffffffffffffffffffffffffffff160361186b575f6040517f1e4fbdf70000000000000000000000000000000000000000000000000000000081526004016118629190612680565b60405180910390fd5b61187481611e1b565b50565b5f33905090565b61188b8383836001611ede565b505050565b5f61189b848461176b565b90507fffffffffffffffffffffffffffffffffffffffffffffffffffffffffffffffff811461191c578181101561190d578281836040517ffb8f41b200000000000000000000000000000000000000000000000000000000815260040161190493929190612ed6565b60405180910390fd5b61191b84848484035f611ede565b5b50505050565b5f73ffffffffffffffffffffffffffffffffffffffff168373ffffffffffffffffffffffffffffffffffffffff1603611992575f6040517f96c6fd1e0000000000000000000000000000000000000000000000000000000081526004016119899190612680565b60405180910390fd5b5f73ffffffffffffffffffffffffffffffffffffffff168273ffffffffffffffffffffffffffffffffffffffff1603611a02575f6040517fec442f050000000000000000000000000000000000000000000000000000000081526004016119f99190612680565b60405180910390fd5b611a0d8383836120ad565b505050565b611a1a611877565b73ffffffffffffffffffffffffffffffffffffffff16611a38611646565b73ffffffffffffffffffffffffffffffffffffffff1614611a9757611a5b611877565b6040517f118cdaa7000000000000000000000000000000000000000000000000000000008152600401611a8e9190612680565b60405180910390fd5b565b600260065403611ade576040517f08c379a0000000000000000000000000000000000000000000000000000000008152600401611ad590612f55565b60405180910390fd5b6002600681905550565b6001600681905550565b5f8183611aff9190612fa0565b905092915050565b5f8183611b14919061300e565b905092915050565b5f808211611b5f576040517f08c379a0000000000000000000000000000000000000000000000000000000008152600401611b56906130ae565b60405180910390fd5b5f60085411611ba3576040517f08c379a0000000000000000000000000000000000000000000000000000000008152600401611b9a9061313c565b60405180910390fd5b600854600b541115611bea576040517f08c379a0000000000000000000000000000000000000000000000000000000008152600401611be1906131ca565b60405180910390fd5b5f611c02600954600a546122c690919063ffffffff16565b90505f611c42611c31600854611c23600b5486611af290919063ffffffff16565b611b0790919063ffffffff16565b600954611cfa90919063ffffffff16565b90506009548110158015611c585750600a548111155b611c97576040517f08c379a0000000000000000000000000000000000000000000000000000000008152600401611c8e90613232565b60405180910390fd5b5f611cab8286611b0790919063ffffffff16565b90505f8111611cef576040517f08c379a0000000000000000000000000000000000000000000000000000000008152600401611ce6906132c0565b60405180910390fd5b809350505050919050565b5f8183611d0791906132de565b905092915050565b5f80611d64611d53600d54611d45601054611d37600e54600f546122c690919063ffffffff16565b611af290919063ffffffff16565b611b0790919063ffffffff16565b600e54611cfa90919063ffffffff16565b9050600e548110158015611d7a5750600f548111155b611db9576040517f08c379a0000000000000000000000000000000000000000000000000000000008152600401611db090613232565b60405180910390fd5b5f611dcd8285611b0790919063ffffffff16565b90505f8111611e11576040517f08c379a0000000000000000000000000000000000000000000000000000000008152600401611e08906132c0565b60405180910390fd5b8092505050919050565b5f60055f9054906101000a900473ffffffffffffffffffffffffffffffffffffffff1690508160055f6101000a81548173ffffffffffffffffffffffffffffffffffffffff021916908373ffffffffffffffffffffffffffffffffffffffff1602179055508173ffffffffffffffffffffffffffffffffffffffff168173ffffffffffffffffffffffffffffffffffffffff167f8be0079c531659141344cd1fd0a4f28419497f9722a3daafe3b4186f6b6457e060405160405180910390a35050565b5f73ffffffffffffffffffffffffffffffffffffffff168473ffffffffffffffffffffffffffffffffffffffff1603611f4e575f6040517fe602df05000000000000000000000000000000000000000000000000000000008152600401611f459190612680565b60405180910390fd5b5f73ffffffffffffffffffffffffffffffffffffffff168373ffffffffffffffffffffffffffffffffffffffff1603611fbe575f6040517f94280d62000000000000000000000000000000000000000000000000000000008152600401611fb59190612680565b60405180910390fd5b8160015f8673ffffffffffffffffffffffffffffffffffffffff1673ffffffffffffffffffffffffffffffffffffffff1681526020019081526020015f205f8573ffffffffffffffffffffffffffffffffffffffff1673ffffffffffffffffffffffffffffffffffffffff1681526020019081526020015f208190555080156120a7578273ffffffffffffffffffffffffffffffffffffffff168473ffffffffffffffffffffffffffffffffffffffff167f8c5be1e5ebec7d5bd14f71427d1e84f3dd0314c0f7b2291e5b200ac8c7c3b9258460405161209e919061250a565b60405180910390a35b50505050565b5f73ffffffffffffffffffffffffffffffffffffffff168373ffffffffffffffffffffffffffffffffffffffff16036120fd578060025f8282546120f191906132de565b925050819055506121cb565b5f805f8573ffffffffffffffffffffffffffffffffffffffff1673ffffffffffffffffffffffffffffffffffffffff1681526020019081526020015f2054905081811015612186578381836040517fe450d38c00000000000000000000000000000000000000000000000000000000815260040161217d93929190612ed6565b60405180910390fd5b8181035f808673ffffffffffffffffffffffffffffffffffffffff1673ffffffffffffffffffffffffffffffffffffffff1681526020019081526020015f2081905550505b5f73ffffffffffffffffffffffffffffffffffffffff168273ffffffffffffffffffffffffffffffffffffffff1603612212578060025f828254039250508190555061225c565b805f808473ffffffffffffffffffffffffffffffffffffffff1673ffffffffffffffffffffffffffffffffffffffff1681526020019081526020015f205f82825401925050819055505b8173ffffffffffffffffffffffffffffffffffffffff168373ffffffffffffffffffffffffffffffffffffffff167fddf252ad1be2c89b69c2b068fc378daa952ba7f163c4a11628f55a4df523b3ef836040516122b9919061250a565b60405180910390a3505050565b5f81836122d39190613311565b905092915050565b5f82825260208201905092915050565b7f44697265637420455448207472616e7366657273206e6f7420616c6c6f7765645f8201527f2e00000000000000000000000000000000000000000000000000000000000000602082015250565b5f6123456021836122db565b9150612350826122eb565b604082019050919050565b5f6020820190508181035f83015261237281612339565b9050919050565b5f81519050919050565b8281835e5f83830152505050565b5f601f19601f8301169050919050565b5f6123ab82612379565b6123b581856122db565b93506123c5818560208601612383565b6123ce81612391565b840191505092915050565b5f6020820190508181035f8301526123f181846123a1565b905092915050565b5f80fd5b5f73ffffffffffffffffffffffffffffffffffffffff82169050919050565b5f612426826123fd565b9050919050565b6124368161241c565b8114612440575f80fd5b50565b5f813590506124518161242d565b92915050565b5f819050919050565b61246981612457565b8114612473575f80fd5b50565b5f8135905061248481612460565b92915050565b5f80604083850312156124a05761249f6123f9565b5b5f6124ad85828601612443565b92505060206124be85828601612476565b9150509250929050565b5f8115159050919050565b6124dc816124c8565b82525050565b5f6020820190506124f55f8301846124d3565b92915050565b61250481612457565b82525050565b5f60208201905061251d5f8301846124fb565b92915050565b5f60208284031215612538576125376123f9565b5b5f61254584828501612443565b91505092915050565b5f805f60608486031215612565576125646123f9565b5b5f61257286828701612443565b935050602061258386828701612443565b925050604061259486828701612476565b9150509250925092565b5f819050919050565b5f6125c16125bc6125b7846123fd565b61259e565b6123fd565b9050919050565b5f6125d2826125a7565b9050919050565b5f6125e3826125c8565b9050919050565b6125f3816125d9565b82525050565b5f60208201905061260c5f8301846125ea565b92915050565b5f60ff82169050919050565b61262781612612565b82525050565b5f6020820190506126405f83018461261e565b92915050565b5f6020828403121561265b5761265a6123f9565b5b5f61266884828501612476565b91505092915050565b61267a8161241c565b82525050565b5f6020820190506126935f830184612671565b92915050565b7f4e487b71000000000000000000000000000000000000000000000000000000005f52602160045260245ffd5b600381106126d7576126d6612699565b5b50565b5f8190506126e7826126c6565b919050565b5f6126f6826126da565b9050919050565b612706816126ec565b82525050565b5f60208201905061271f5f8301846126fd565b92915050565b5f806040838503121561273b5761273a6123f9565b5b5f61274885828601612443565b925050602061275985828601612443565b9150509250929050565b7f4e487b71000000000000000000000000000000000000000000000000000000005f52602260045260245ffd5b5f60028204905060018216806127a757607f821691505b6020821081036127ba576127b9612763565b5b50919050565b7f53616c65732074617267657473206e6f7420796574206d65742e0000000000005f82015250565b5f6127f4601a836122db565b91506127ff826127c0565b602082019050919050565b5f6020820190508181035f830152612821816127e8565b9050919050565b7f507269766174652053616c652068617320616c726561647920737461727465645f8201527f206f7220636f6e636c756465642e000000000000000000000000000000000000602082015250565b5f612882602e836122db565b915061288d82612828565b604082019050919050565b5f6020820190508181035f8301526128af81612876565b9050919050565b7f4e6f2073616c65206973206163746976652e00000000000000000000000000005f82015250565b5f6128ea6012836122db565b91506128f5826128b6565b602082019050919050565b5f6020820190508181035f830152612917816128de565b9050919050565b5f8151905061292c81612460565b92915050565b5f60208284031215612947576129466123f9565b5b5f6129548482850161291e565b91505092915050565b7f496e76616c69642070726963652066726f6d206f7261636c65000000000000005f82015250565b5f6129916019836122db565b915061299c8261295d565b602082019050919050565b5f6020820190508181035f8301526129be81612985565b9050919050565b7f507269766174652053616c6520736f6c64206f75742e000000000000000000005f82015250565b5f6129f96016836122db565b9150612a04826129c5565b602082019050919050565b5f6020820190508181035f830152612a26816129ed565b9050919050565b7f4578636565647320507269766174652053616c6520746f6b656e206c696d69745f8201527f2e00000000000000000000000000000000000000000000000000000000000000602082015250565b5f612a876021836122db565b9150612a9282612a2d565b604082019050919050565b5f6020820190508181035f830152612ab481612a7b565b9050919050565b7f5072652d53616c6520736f6c64206f75742e00000000000000000000000000005f82015250565b5f612aef6012836122db565b9150612afa82612abb565b602082019050919050565b5f6020820190508181035f830152612b1c81612ae3565b9050919050565b7f507572636861736520616d6f756e74206f7574206f66206c696d6974732e00005f82015250565b5f612b57601e836122db565b9150612b6282612b23565b602082019050919050565b5f6020820190508181035f830152612b8481612b4b565b9050919050565b7f45786365656473205072652d53616c6520746f6b656e206c696d69742e0000005f82015250565b5f612bbf601d836122db565b9150612bca82612b8b565b602082019050919050565b5f6020820190508181035f830152612bec81612bb3565b9050919050565b7f56657374696e6720706572696f64206e6f742079657420636f6d706c657465645f8201527f2e00000000000000000000000000000000000000000000000000000000000000602082015250565b5f612c4d6021836122db565b9150612c5882612bf3565b604082019050919050565b5f6020820190508181035f830152612c7a81612c41565b9050919050565b7f4e6f2076657374656420746f6b656e7320746f2072656c6561736500000000005f82015250565b5f612cb5601b836122db565b9150612cc082612c81565b602082019050919050565b5f6020820190508181035f830152612ce281612ca9565b9050919050565b7f507269766174652053616c652073686f756c6420626520636f6e636c756465645f8201527f2066697273742e00000000000000000000000000000000000000000000000000602082015250565b5f612d436027836122db565b9150612d4e82612ce9565b604082019050919050565b5f6020820190508181035f830152612d7081612d37565b9050919050565b7f507269766174652053616c6520746172676574206e6f7420726561636865642e5f82015250565b5f612dab6020836122db565b9150612db682612d77565b602082019050919050565b5f6020820190508181035f830152612dd881612d9f565b9050919050565b7f416d6f756e74206d7573742062652067726561746572207468616e20300000005f82015250565b5f612e13601d836122db565b9150612e1e82612ddf565b602082019050919050565b5f6020820190508181035f830152612e4081612e07565b9050919050565b7f496e73756666696369656e742062616c616e636520746f207374616b650000005f82015250565b5f612e7b601d836122db565b9150612e8682612e47565b602082019050919050565b5f6020820190508181035f830152612ea881612e6f565b9050919050565b5f604082019050612ec25f8301856124fb565b612ecf60208301846124fb565b9392505050565b5f606082019050612ee95f830186612671565b612ef660208301856124fb565b612f0360408301846124fb565b949350505050565b7f5265656e7472616e637947756172643a207265656e7472616e742063616c6c005f82015250565b5f612f3f601f836122db565b9150612f4a82612f0b565b602082019050919050565b5f6020820190508181035f830152612f6c81612f33565b9050919050565b7f4e487b71000000000000000000000000000000000000000000000000000000005f52601160045260245ffd5b5f612faa82612457565b9150612fb583612457565b9250828202612fc381612457565b91508282048414831517612fda57612fd9612f73565b5b5092915050565b7f4e487b71000000000000000000000000000000000000000000000000000000005f52601260045260245ffd5b5f61301882612457565b915061302383612457565b92508261303357613032612fe1565b5b828204905092915050565b7f55534420616d6f756e74206d7573742062652067726561746572207468616e205f8201527f3000000000000000000000000000000000000000000000000000000000000000602082015250565b5f6130986021836122db565b91506130a38261303e565b604082019050919050565b5f6020820190508181035f8301526130c58161308c565b9050919050565b7f507269766174652053616c6520746f6b656e73206d75737420626520677265615f8201527f746572207468616e203000000000000000000000000000000000000000000000602082015250565b5f613126602a836122db565b9150613131826130cc565b604082019050919050565b5f6020820190508181035f8301526131538161311a565b9050919050565b7f507269766174652053616c6520736f6c6420746f6b656e7320657863656564205f8201527f617661696c61626c6520746f6b656e7300000000000000000000000000000000602082015250565b5f6131b46030836122db565b91506131bf8261315a565b604082019050919050565b5f6020820190508181035f8301526131e1816131a8565b9050919050565b7f496e76616c696420746f6b656e2070726963652063616c63756c6174656400005f82015250565b5f61321c601e836122db565b9150613227826131e8565b602082019050919050565b5f6020820190508181035f83015261324981613210565b9050919050565b7f43616c63756c6174656420746f6b656e73206d757374206265206772656174655f8201527f72207468616e2030000000000000000000000000000000000000000000000000602082015250565b5f6132aa6028836122db565b91506132b582613250565b604082019050919050565b5f6020820190508181035f8301526132d78161329e565b9050919050565b5f6132e882612457565b91506132f383612457565b925082820190508082111561330b5761330a612f73565b5b92915050565b5f61331b82612457565b915061332683612457565b925082820390508181111561333e5761333d612f73565b5b9291505056fea26469706673582212207e52ffddca16469ac02c372fcb7231cec9398546de86c6ce0bc957967aa9008164736f6c634300081a0033",
					"opcodes": "PUSH1 0x80 PUSH1 0x40 MSTORE PUSH10 0xD3C21BCECCEDA1000000 PUSH1 0x7 SSTORE PUSH11 0x201FCAFC2577D298500000 PUSH1 0x8 SSTORE PUSH7 0x38D7EA4C68000 PUSH1 0x9 SSTORE PUSH7 0xB3697B81284000 PUSH1 0xA SSTORE PUSH0 PUSH1 0xB SSTORE PUSH11 0xFB768105935A2F3000000 PUSH1 0xC SSTORE PUSH11 0x854FDABD6AA1D32FB00000 PUSH1 0xD SSTORE PUSH7 0xB3697B81284000 PUSH1 0xE SSTORE PUSH8 0x16345785D8A0000 PUSH1 0xF SSTORE PUSH0 PUSH1 0x10 SSTORE PUSH0 PUSH1 0x11 PUSH0 PUSH2 0x100 EXP DUP2 SLOAD DUP2 PUSH1 0xFF MUL NOT AND SWAP1 DUP4 PUSH1 0x2 DUP2 GT ISZERO PUSH2 0x98 JUMPI PUSH2 0x97 PUSH2 0x5B2 JUMP JUMPDEST JUMPDEST MUL OR SWAP1 SSTORE POP PUSH3 0xED4E00 PUSH1 0x14 SSTORE PUSH4 0x1E13380 PUSH1 0x15 SSTORE CALLVALUE DUP1 ISZERO PUSH2 0xB7 JUMPI PUSH0 DUP1 REVERT JUMPDEST POP PUSH1 0x40 MLOAD PUSH2 0x3DDD CODESIZE SUB DUP1 PUSH2 0x3DDD DUP4 CODECOPY DUP2 DUP2 ADD PUSH1 0x40 MSTORE DUP2 ADD SWAP1 PUSH2 0xD9 SWAP2 SWAP1 PUSH2 0x63D JUMP JUMPDEST CALLER PUSH1 0x40 MLOAD DUP1 PUSH1 0x40 ADD PUSH1 0x40 MSTORE DUP1 PUSH1 0x8 DUP2 MSTORE PUSH1 0x20 ADD PUSH32 0x426574746F6B656E000000000000000000000000000000000000000000000000 DUP2 MSTORE POP PUSH1 0x40 MLOAD DUP1 PUSH1 0x40 ADD PUSH1 0x40 MSTORE DUP1 PUSH1 0x4 DUP2 MSTORE PUSH1 0x20 ADD PUSH32 0x4245545400000000000000000000000000000000000000000000000000000000 DUP2 MSTORE POP DUP2 PUSH1 0x3 SWAP1 DUP2 PUSH2 0x155 SWAP2 SWAP1 PUSH2 0x8A2 JUMP JUMPDEST POP DUP1 PUSH1 0x4 SWAP1 DUP2 PUSH2 0x165 SWAP2 SWAP1 PUSH2 0x8A2 JUMP JUMPDEST POP POP POP PUSH0 PUSH20 0xFFFFFFFFFFFFFFFFFFFFFFFFFFFFFFFFFFFFFFFF AND DUP2 PUSH20 0xFFFFFFFFFFFFFFFFFFFFFFFFFFFFFFFFFFFFFFFF AND SUB PUSH2 0x1D8 JUMPI PUSH0 PUSH1 0x40 MLOAD PUSH32 0x1E4FBDF700000000000000000000000000000000000000000000000000000000 DUP2 MSTORE PUSH1 0x4 ADD PUSH2 0x1CF SWAP2 SWAP1 PUSH2 0x980 JUMP JUMPDEST PUSH1 0x40 MLOAD DUP1 SWAP2 SUB SWAP1 REVERT JUMPDEST PUSH2 0x1E7 DUP2 PUSH2 0x251 PUSH1 0x20 SHL PUSH1 0x20 SHR JUMP JUMPDEST POP PUSH1 0x1 PUSH1 0x6 DUP2 SWAP1 SSTORE POP PUSH2 0x20B ADDRESS PUSH11 0xA56FA5B99019A5C8000000 PUSH2 0x314 PUSH1 0x20 SHL PUSH1 0x20 SHR JUMP JUMPDEST DUP1 PUSH1 0x16 PUSH0 PUSH2 0x100 EXP DUP2 SLOAD DUP2 PUSH20 0xFFFFFFFFFFFFFFFFFFFFFFFFFFFFFFFFFFFFFFFF MUL NOT AND SWAP1 DUP4 PUSH20 0xFFFFFFFFFFFFFFFFFFFFFFFFFFFFFFFFFFFFFFFF AND MUL OR SWAP1 SSTORE POP POP PUSH2 0xA56 JUMP JUMPDEST PUSH0 PUSH1 0x5 PUSH0 SWAP1 SLOAD SWAP1 PUSH2 0x100 EXP SWAP1 DIV PUSH20 0xFFFFFFFFFFFFFFFFFFFFFFFFFFFFFFFFFFFFFFFF AND SWAP1 POP DUP2 PUSH1 0x5 PUSH0 PUSH2 0x100 EXP DUP2 SLOAD DUP2 PUSH20 0xFFFFFFFFFFFFFFFFFFFFFFFFFFFFFFFFFFFFFFFF MUL NOT AND SWAP1 DUP4 PUSH20 0xFFFFFFFFFFFFFFFFFFFFFFFFFFFFFFFFFFFFFFFF AND MUL OR SWAP1 SSTORE POP DUP2 PUSH20 0xFFFFFFFFFFFFFFFFFFFFFFFFFFFFFFFFFFFFFFFF AND DUP2 PUSH20 0xFFFFFFFFFFFFFFFFFFFFFFFFFFFFFFFFFFFFFFFF AND PUSH32 0x8BE0079C531659141344CD1FD0A4F28419497F9722A3DAAFE3B4186F6B6457E0 PUSH1 0x40 MLOAD PUSH1 0x40 MLOAD DUP1 SWAP2 SUB SWAP1 LOG3 POP POP JUMP JUMPDEST PUSH0 PUSH20 0xFFFFFFFFFFFFFFFFFFFFFFFFFFFFFFFFFFFFFFFF AND DUP3 PUSH20 0xFFFFFFFFFFFFFFFFFFFFFFFFFFFFFFFFFFFFFFFF AND SUB PUSH2 0x384 JUMPI PUSH0 PUSH1 0x40 MLOAD PUSH32 0xEC442F0500000000000000000000000000000000000000000000000000000000 DUP2 MSTORE PUSH1 0x4 ADD PUSH2 0x37B SWAP2 SWAP1 PUSH2 0x980 JUMP JUMPDEST PUSH1 0x40 MLOAD DUP1 SWAP2 SUB SWAP1 REVERT JUMPDEST PUSH2 0x395 PUSH0 DUP4 DUP4 PUSH2 0x399 PUSH1 0x20 SHL PUSH1 0x20 SHR JUMP JUMPDEST POP POP JUMP JUMPDEST PUSH0 PUSH20 0xFFFFFFFFFFFFFFFFFFFFFFFFFFFFFFFFFFFFFFFF AND DUP4 PUSH20 0xFFFFFFFFFFFFFFFFFFFFFFFFFFFFFFFFFFFFFFFF AND SUB PUSH2 0x3E9 JUMPI DUP1 PUSH1 0x2 PUSH0 DUP3 DUP3 SLOAD PUSH2 0x3DD SWAP2 SWAP1 PUSH2 0x9C6 JUMP JUMPDEST SWAP3 POP POP DUP2 SWAP1 SSTORE POP PUSH2 0x4B7 JUMP JUMPDEST PUSH0 DUP1 PUSH0 DUP6 PUSH20 0xFFFFFFFFFFFFFFFFFFFFFFFFFFFFFFFFFFFFFFFF AND PUSH20 0xFFFFFFFFFFFFFFFFFFFFFFFFFFFFFFFFFFFFFFFF AND DUP2 MSTORE PUSH1 0x20 ADD SWAP1 DUP2 MSTORE PUSH1 0x20 ADD PUSH0 KECCAK256 SLOAD SWAP1 POP DUP2 DUP2 LT ISZERO PUSH2 0x472 JUMPI DUP4 DUP2 DUP4 PUSH1 0x40 MLOAD PUSH32 0xE450D38C00000000000000000000000000000000000000000000000000000000 DUP2 MSTORE PUSH1 0x4 ADD PUSH2 0x469 SWAP4 SWAP3 SWAP2 SWAP1 PUSH2 0xA08 JUMP JUMPDEST PUSH1 0x40 MLOAD DUP1 SWAP2 SUB SWAP1 REVERT JUMPDEST DUP2 DUP2 SUB PUSH0 DUP1 DUP7 PUSH20 0xFFFFFFFFFFFFFFFFFFFFFFFFFFFFFFFFFFFFFFFF AND PUSH20 0xFFFFFFFFFFFFFFFFFFFFFFFFFFFFFFFFFFFFFFFF AND DUP2 MSTORE PUSH1 0x20 ADD SWAP1 DUP2 MSTORE PUSH1 0x20 ADD PUSH0 KECCAK256 DUP2 SWAP1 SSTORE POP POP JUMPDEST PUSH0 PUSH20 0xFFFFFFFFFFFFFFFFFFFFFFFFFFFFFFFFFFFFFFFF AND DUP3 PUSH20 0xFFFFFFFFFFFFFFFFFFFFFFFFFFFFFFFFFFFFFFFF AND SUB PUSH2 0x4FE JUMPI DUP1 PUSH1 0x2 PUSH0 DUP3 DUP3 SLOAD SUB SWAP3 POP POP DUP2 SWAP1 SSTORE POP PUSH2 0x548 JUMP JUMPDEST DUP1 PUSH0 DUP1 DUP5 PUSH20 0xFFFFFFFFFFFFFFFFFFFFFFFFFFFFFFFFFFFFFFFF AND PUSH20 0xFFFFFFFFFFFFFFFFFFFFFFFFFFFFFFFFFFFFFFFF AND DUP2 MSTORE PUSH1 0x20 ADD SWAP1 DUP2 MSTORE PUSH1 0x20 ADD PUSH0 KECCAK256 PUSH0 DUP3 DUP3 SLOAD ADD SWAP3 POP POP DUP2 SWAP1 SSTORE POP JUMPDEST DUP2 PUSH20 0xFFFFFFFFFFFFFFFFFFFFFFFFFFFFFFFFFFFFFFFF AND DUP4 PUSH20 0xFFFFFFFFFFFFFFFFFFFFFFFFFFFFFFFFFFFFFFFF AND PUSH32 0xDDF252AD1BE2C89B69C2B068FC378DAA952BA7F163C4A11628F55A4DF523B3EF DUP4 PUSH1 0x40 MLOAD PUSH2 0x5A5 SWAP2 SWAP1 PUSH2 0xA3D JUMP JUMPDEST PUSH1 0x40 MLOAD DUP1 SWAP2 SUB SWAP1 LOG3 POP POP POP JUMP JUMPDEST PUSH32 0x4E487B7100000000000000000000000000000000000000000000000000000000 PUSH0 MSTORE PUSH1 0x21 PUSH1 0x4 MSTORE PUSH1 0x24 PUSH0 REVERT JUMPDEST PUSH0 DUP1 REVERT JUMPDEST PUSH0 PUSH20 0xFFFFFFFFFFFFFFFFFFFFFFFFFFFFFFFFFFFFFFFF DUP3 AND SWAP1 POP SWAP2 SWAP1 POP JUMP JUMPDEST PUSH0 PUSH2 0x60C DUP3 PUSH2 0x5E3 JUMP JUMPDEST SWAP1 POP SWAP2 SWAP1 POP JUMP JUMPDEST PUSH2 0x61C DUP2 PUSH2 0x602 JUMP JUMPDEST DUP2 EQ PUSH2 0x626 JUMPI PUSH0 DUP1 REVERT JUMPDEST POP JUMP JUMPDEST PUSH0 DUP2 MLOAD SWAP1 POP PUSH2 0x637 DUP2 PUSH2 0x613 JUMP JUMPDEST SWAP3 SWAP2 POP POP JUMP JUMPDEST PUSH0 PUSH1 0x20 DUP3 DUP5 SUB SLT ISZERO PUSH2 0x652 JUMPI PUSH2 0x651 PUSH2 0x5DF JUMP JUMPDEST JUMPDEST PUSH0 PUSH2 0x65F DUP5 DUP3 DUP6 ADD PUSH2 0x629 JUMP JUMPDEST SWAP2 POP POP SWAP3 SWAP2 POP POP JUMP JUMPDEST PUSH0 DUP2 MLOAD SWAP1 POP SWAP2 SWAP1 POP JUMP JUMPDEST PUSH32 0x4E487B7100000000000000000000000000000000000000000000000000000000 PUSH0 MSTORE PUSH1 0x41 PUSH1 0x4 MSTORE PUSH1 0x24 PUSH0 REVERT JUMPDEST PUSH32 0x4E487B7100000000000000000000000000000000000000000000000000000000 PUSH0 MSTORE PUSH1 0x22 PUSH1 0x4 MSTORE PUSH1 0x24 PUSH0 REVERT JUMPDEST PUSH0 PUSH1 0x2 DUP3 DIV SWAP1 POP PUSH1 0x1 DUP3 AND DUP1 PUSH2 0x6E3 JUMPI PUSH1 0x7F DUP3 AND SWAP2 POP JUMPDEST PUSH1 0x20 DUP3 LT DUP2 SUB PUSH2 0x6F6 JUMPI PUSH2 0x6F5 PUSH2 0x69F JUMP JUMPDEST JUMPDEST POP SWAP2 SWAP1 POP JUMP JUMPDEST PUSH0 DUP2 SWAP1 POP DUP2 PUSH0 MSTORE PUSH1 0x20 PUSH0 KECCAK256 SWAP1 POP SWAP2 SWAP1 POP JUMP JUMPDEST PUSH0 PUSH1 0x20 PUSH1 0x1F DUP4 ADD DIV SWAP1 POP SWAP2 SWAP1 POP JUMP JUMPDEST PUSH0 DUP3 DUP3 SHL SWAP1 POP SWAP3 SWAP2 POP POP JUMP JUMPDEST PUSH0 PUSH1 0x8 DUP4 MUL PUSH2 0x758 PUSH32 0xFFFFFFFFFFFFFFFFFFFFFFFFFFFFFFFFFFFFFFFFFFFFFFFFFFFFFFFFFFFFFFFF DUP3 PUSH2 0x71D JUMP JUMPDEST PUSH2 0x762 DUP7 DUP4 PUSH2 0x71D JUMP JUMPDEST SWAP6 POP DUP1 NOT DUP5 AND SWAP4 POP DUP1 DUP7 AND DUP5 OR SWAP3 POP POP POP SWAP4 SWAP3 POP POP POP JUMP JUMPDEST PUSH0 DUP2 SWAP1 POP SWAP2 SWAP1 POP JUMP JUMPDEST PUSH0 DUP2 SWAP1 POP SWAP2 SWAP1 POP JUMP JUMPDEST PUSH0 PUSH2 0x7A6 PUSH2 0x7A1 PUSH2 0x79C DUP5 PUSH2 0x77A JUMP JUMPDEST PUSH2 0x783 JUMP JUMPDEST PUSH2 0x77A JUMP JUMPDEST SWAP1 POP SWAP2 SWAP1 POP JUMP JUMPDEST PUSH0 DUP2 SWAP1 POP SWAP2 SWAP1 POP JUMP JUMPDEST PUSH2 0x7BF DUP4 PUSH2 0x78C JUMP JUMPDEST PUSH2 0x7D3 PUSH2 0x7CB DUP3 PUSH2 0x7AD JUMP JUMPDEST DUP5 DUP5 SLOAD PUSH2 0x729 JUMP JUMPDEST DUP3 SSTORE POP POP POP POP JUMP JUMPDEST PUSH0 SWAP1 JUMP JUMPDEST PUSH2 0x7E7 PUSH2 0x7DB JUMP JUMPDEST PUSH2 0x7F2 DUP2 DUP5 DUP5 PUSH2 0x7B6 JUMP JUMPDEST POP POP POP JUMP JUMPDEST JUMPDEST DUP2 DUP2 LT ISZERO PUSH2 0x815 JUMPI PUSH2 0x80A PUSH0 DUP3 PUSH2 0x7DF JUMP JUMPDEST PUSH1 0x1 DUP2 ADD SWAP1 POP PUSH2 0x7F8 JUMP JUMPDEST POP POP JUMP JUMPDEST PUSH1 0x1F DUP3 GT ISZERO PUSH2 0x85A JUMPI PUSH2 0x82B DUP2 PUSH2 0x6FC JUMP JUMPDEST PUSH2 0x834 DUP5 PUSH2 0x70E JUMP JUMPDEST DUP2 ADD PUSH1 0x20 DUP6 LT ISZERO PUSH2 0x843 JUMPI DUP2 SWAP1 POP JUMPDEST PUSH2 0x857 PUSH2 0x84F DUP6 PUSH2 0x70E JUMP JUMPDEST DUP4 ADD DUP3 PUSH2 0x7F7 JUMP JUMPDEST POP POP JUMPDEST POP POP POP JUMP JUMPDEST PUSH0 DUP3 DUP3 SHR SWAP1 POP SWAP3 SWAP2 POP POP JUMP JUMPDEST PUSH0 PUSH2 0x87A PUSH0 NOT DUP5 PUSH1 0x8 MUL PUSH2 0x85F JUMP JUMPDEST NOT DUP1 DUP4 AND SWAP2 POP POP SWAP3 SWAP2 POP POP JUMP JUMPDEST PUSH0 PUSH2 0x892 DUP4 DUP4 PUSH2 0x86B JUMP JUMPDEST SWAP2 POP DUP3 PUSH1 0x2 MUL DUP3 OR SWAP1 POP SWAP3 SWAP2 POP POP JUMP JUMPDEST PUSH2 0x8AB DUP3 PUSH2 0x668 JUMP JUMPDEST PUSH8 0xFFFFFFFFFFFFFFFF DUP2 GT ISZERO PUSH2 0x8C4 JUMPI PUSH2 0x8C3 PUSH2 0x672 JUMP JUMPDEST JUMPDEST PUSH2 0x8CE DUP3 SLOAD PUSH2 0x6CC JUMP JUMPDEST PUSH2 0x8D9 DUP3 DUP3 DUP6 PUSH2 0x819 JUMP JUMPDEST PUSH0 PUSH1 0x20 SWAP1 POP PUSH1 0x1F DUP4 GT PUSH1 0x1 DUP2 EQ PUSH2 0x90A JUMPI PUSH0 DUP5 ISZERO PUSH2 0x8F8 JUMPI DUP3 DUP8 ADD MLOAD SWAP1 POP JUMPDEST PUSH2 0x902 DUP6 DUP3 PUSH2 0x887 JUMP JUMPDEST DUP7 SSTORE POP PUSH2 0x969 JUMP JUMPDEST PUSH1 0x1F NOT DUP5 AND PUSH2 0x918 DUP7 PUSH2 0x6FC JUMP JUMPDEST PUSH0 JUMPDEST DUP3 DUP2 LT ISZERO PUSH2 0x93F JUMPI DUP5 DUP10 ADD MLOAD DUP3 SSTORE PUSH1 0x1 DUP3 ADD SWAP2 POP PUSH1 0x20 DUP6 ADD SWAP5 POP PUSH1 0x20 DUP2 ADD SWAP1 POP PUSH2 0x91A JUMP JUMPDEST DUP7 DUP4 LT ISZERO PUSH2 0x95C JUMPI DUP5 DUP10 ADD MLOAD PUSH2 0x958 PUSH1 0x1F DUP10 AND DUP3 PUSH2 0x86B JUMP JUMPDEST DUP4 SSTORE POP JUMPDEST PUSH1 0x1 PUSH1 0x2 DUP9 MUL ADD DUP9 SSTORE POP POP POP JUMPDEST POP POP POP POP POP POP JUMP JUMPDEST PUSH2 0x97A DUP2 PUSH2 0x602 JUMP JUMPDEST DUP3 MSTORE POP POP JUMP JUMPDEST PUSH0 PUSH1 0x20 DUP3 ADD SWAP1 POP PUSH2 0x993 PUSH0 DUP4 ADD DUP5 PUSH2 0x971 JUMP JUMPDEST SWAP3 SWAP2 POP POP JUMP JUMPDEST PUSH32 0x4E487B7100000000000000000000000000000000000000000000000000000000 PUSH0 MSTORE PUSH1 0x11 PUSH1 0x4 MSTORE PUSH1 0x24 PUSH0 REVERT JUMPDEST PUSH0 PUSH2 0x9D0 DUP3 PUSH2 0x77A JUMP JUMPDEST SWAP2 POP PUSH2 0x9DB DUP4 PUSH2 0x77A JUMP JUMPDEST SWAP3 POP DUP3 DUP3 ADD SWAP1 POP DUP1 DUP3 GT ISZERO PUSH2 0x9F3 JUMPI PUSH2 0x9F2 PUSH2 0x999 JUMP JUMPDEST JUMPDEST SWAP3 SWAP2 POP POP JUMP JUMPDEST PUSH2 0xA02 DUP2 PUSH2 0x77A JUMP JUMPDEST DUP3 MSTORE POP POP JUMP JUMPDEST PUSH0 PUSH1 0x60 DUP3 ADD SWAP1 POP PUSH2 0xA1B PUSH0 DUP4 ADD DUP7 PUSH2 0x971 JUMP JUMPDEST PUSH2 0xA28 PUSH1 0x20 DUP4 ADD DUP6 PUSH2 0x9F9 JUMP JUMPDEST PUSH2 0xA35 PUSH1 0x40 DUP4 ADD DUP5 PUSH2 0x9F9 JUMP JUMPDEST SWAP5 SWAP4 POP POP POP POP JUMP JUMPDEST PUSH0 PUSH1 0x20 DUP3 ADD SWAP1 POP PUSH2 0xA50 PUSH0 DUP4 ADD DUP5 PUSH2 0x9F9 JUMP JUMPDEST SWAP3 SWAP2 POP POP JUMP JUMPDEST PUSH2 0x337A DUP1 PUSH2 0xA63 PUSH0 CODECOPY PUSH0 RETURN INVALID PUSH1 0x80 PUSH1 0x40 MSTORE PUSH1 0x4 CALLDATASIZE LT PUSH2 0x212 JUMPI PUSH0 CALLDATALOAD PUSH1 0xE0 SHR DUP1 PUSH4 0x70A08231 GT PUSH2 0x117 JUMPI DUP1 PUSH4 0xB0E68630 GT PUSH2 0x9F JUMPI DUP1 PUSH4 0xC040E6B8 GT PUSH2 0x6E JUMPI DUP1 PUSH4 0xC040E6B8 EQ PUSH2 0x787 JUMPI DUP1 PUSH4 0xC552E04B EQ PUSH2 0x7B1 JUMPI DUP1 PUSH4 0xDD62ED3E EQ PUSH2 0x7DB JUMPI DUP1 PUSH4 0xE6BD92B9 EQ PUSH2 0x817 JUMPI DUP1 PUSH4 0xF2FDE38B EQ PUSH2 0x841 JUMPI PUSH2 0x252 JUMP JUMPDEST DUP1 PUSH4 0xB0E68630 EQ PUSH2 0x6DF JUMPI DUP1 PUSH4 0xB68ED11F EQ PUSH2 0x709 JUMPI DUP1 PUSH4 0xBA20CF4C EQ PUSH2 0x733 JUMPI DUP1 PUSH4 0xBDA95633 EQ PUSH2 0x75D JUMPI PUSH2 0x252 JUMP JUMPDEST DUP1 PUSH4 0x8F7713FF GT PUSH2 0xE6 JUMPI DUP1 PUSH4 0x8F7713FF EQ PUSH2 0x5FB JUMPI DUP1 PUSH4 0x902D55A5 EQ PUSH2 0x625 JUMPI DUP1 PUSH4 0x920168B3 EQ PUSH2 0x64F JUMPI DUP1 PUSH4 0x95D89B41 EQ PUSH2 0x679 JUMPI DUP1 PUSH4 0xA9059CBB EQ PUSH2 0x6A3 JUMPI PUSH2 0x252 JUMP JUMPDEST DUP1 PUSH4 0x70A08231 EQ PUSH2 0x557 JUMPI DUP1 PUSH4 0x715018A6 EQ PUSH2 0x593 JUMPI DUP1 PUSH4 0x7547C7A3 EQ PUSH2 0x5A9 JUMPI DUP1 PUSH4 0x8DA5CB5B EQ PUSH2 0x5D1 JUMPI PUSH2 0x252 JUMP JUMPDEST DUP1 PUSH4 0x2B1CBC38 GT PUSH2 0x19A JUMPI DUP1 PUSH4 0x3610724E GT PUSH2 0x169 JUMPI DUP1 PUSH4 0x3610724E EQ PUSH2 0x4BB JUMPI DUP1 PUSH4 0x40F02AB6 EQ PUSH2 0x4D7 JUMPI DUP1 PUSH4 0x54DD1DA4 EQ PUSH2 0x501 JUMPI DUP1 PUSH4 0x55DD574C EQ PUSH2 0x517 JUMPI DUP1 PUSH4 0x5FB3B944 EQ PUSH2 0x52D JUMPI PUSH2 0x252 JUMP JUMPDEST DUP1 PUSH4 0x2B1CBC38 EQ PUSH2 0x429 JUMPI DUP1 PUSH4 0x313CE567 EQ PUSH2 0x465 JUMPI DUP1 PUSH4 0x32C85AC0 EQ PUSH2 0x48F JUMPI DUP1 PUSH4 0x338DBF59 EQ PUSH2 0x4A5 JUMPI PUSH2 0x252 JUMP JUMPDEST DUP1 PUSH4 0x18160DDD GT PUSH2 0x1E1 JUMPI DUP1 PUSH4 0x18160DDD EQ PUSH2 0x347 JUMPI DUP1 PUSH4 0x192399D1 EQ PUSH2 0x371 JUMPI DUP1 PUSH4 0x23B872DD EQ PUSH2 0x3AD JUMPI DUP1 PUSH4 0x24600FC3 EQ PUSH2 0x3E9 JUMPI DUP1 PUSH4 0x2630C12F EQ PUSH2 0x3FF JUMPI PUSH2 0x252 JUMP JUMPDEST DUP1 PUSH4 0x6FDDE03 EQ PUSH2 0x28D JUMPI DUP1 PUSH4 0x95EA7B3 EQ PUSH2 0x2B7 JUMPI DUP1 PUSH4 0xFE83BB8 EQ PUSH2 0x2F3 JUMPI DUP1 PUSH4 0x1514617E EQ PUSH2 0x31D JUMPI PUSH2 0x252 JUMP JUMPDEST CALLDATASIZE PUSH2 0x252 JUMPI PUSH1 0x40 MLOAD PUSH32 0x8C379A000000000000000000000000000000000000000000000000000000000 DUP2 MSTORE PUSH1 0x4 ADD PUSH2 0x249 SWAP1 PUSH2 0x235B JUMP JUMPDEST PUSH1 0x40 MLOAD DUP1 SWAP2 SUB SWAP1 REVERT JUMPDEST PUSH1 0x40 MLOAD PUSH32 0x8C379A000000000000000000000000000000000000000000000000000000000 DUP2 MSTORE PUSH1 0x4 ADD PUSH2 0x284 SWAP1 PUSH2 0x235B JUMP JUMPDEST PUSH1 0x40 MLOAD DUP1 SWAP2 SUB SWAP1 REVERT JUMPDEST CALLVALUE DUP1 ISZERO PUSH2 0x298 JUMPI PUSH0 DUP1 REVERT JUMPDEST POP PUSH2 0x2A1 PUSH2 0x869 JUMP JUMPDEST PUSH1 0x40 MLOAD PUSH2 0x2AE SWAP2 SWAP1 PUSH2 0x23D9 JUMP JUMPDEST PUSH1 0x40 MLOAD DUP1 SWAP2 SUB SWAP1 RETURN JUMPDEST CALLVALUE DUP1 ISZERO PUSH2 0x2C2 JUMPI PUSH0 DUP1 REVERT JUMPDEST POP PUSH2 0x2DD PUSH1 0x4 DUP1 CALLDATASIZE SUB DUP2 ADD SWAP1 PUSH2 0x2D8 SWAP2 SWAP1 PUSH2 0x248A JUMP JUMPDEST PUSH2 0x8F9 JUMP JUMPDEST PUSH1 0x40 MLOAD PUSH2 0x2EA SWAP2 SWAP1 PUSH2 0x24E2 JUMP JUMPDEST PUSH1 0x40 MLOAD DUP1 SWAP2 SUB SWAP1 RETURN JUMPDEST CALLVALUE DUP1 ISZERO PUSH2 0x2FE JUMPI PUSH0 DUP1 REVERT JUMPDEST POP PUSH2 0x307 PUSH2 0x91B JUMP JUMPDEST PUSH1 0x40 MLOAD PUSH2 0x314 SWAP2 SWAP1 PUSH2 0x250A JUMP JUMPDEST PUSH1 0x40 MLOAD DUP1 SWAP2 SUB SWAP1 RETURN JUMPDEST CALLVALUE DUP1 ISZERO PUSH2 0x328 JUMPI PUSH0 DUP1 REVERT JUMPDEST POP PUSH2 0x331 PUSH2 0x921 JUMP JUMPDEST PUSH1 0x40 MLOAD PUSH2 0x33E SWAP2 SWAP1 PUSH2 0x250A JUMP JUMPDEST PUSH1 0x40 MLOAD DUP1 SWAP2 SUB SWAP1 RETURN JUMPDEST CALLVALUE DUP1 ISZERO PUSH2 0x352 JUMPI PUSH0 DUP1 REVERT JUMPDEST POP PUSH2 0x35B PUSH2 0x927 JUMP JUMPDEST PUSH1 0x40 MLOAD PUSH2 0x368 SWAP2 SWAP1 PUSH2 0x250A JUMP JUMPDEST PUSH1 0x40 MLOAD DUP1 SWAP2 SUB SWAP1 RETURN JUMPDEST CALLVALUE DUP1 ISZERO PUSH2 0x37C JUMPI PUSH0 DUP1 REVERT JUMPDEST POP PUSH2 0x397 PUSH1 0x4 DUP1 CALLDATASIZE SUB DUP2 ADD SWAP1 PUSH2 0x392 SWAP2 SWAP1 PUSH2 0x2523 JUMP JUMPDEST PUSH2 0x930 JUMP JUMPDEST PUSH1 0x40 MLOAD PUSH2 0x3A4 SWAP2 SWAP1 PUSH2 0x250A JUMP JUMPDEST PUSH1 0x40 MLOAD DUP1 SWAP2 SUB SWAP1 RETURN JUMPDEST CALLVALUE DUP1 ISZERO PUSH2 0x3B8 JUMPI PUSH0 DUP1 REVERT JUMPDEST POP PUSH2 0x3D3 PUSH1 0x4 DUP1 CALLDATASIZE SUB DUP2 ADD SWAP1 PUSH2 0x3CE SWAP2 SWAP1 PUSH2 0x254E JUMP JUMPDEST PUSH2 0x945 JUMP JUMPDEST PUSH1 0x40 MLOAD PUSH2 0x3E0 SWAP2 SWAP1 PUSH2 0x24E2 JUMP JUMPDEST PUSH1 0x40 MLOAD DUP1 SWAP2 SUB SWAP1 RETURN JUMPDEST CALLVALUE DUP1 ISZERO PUSH2 0x3F4 JUMPI PUSH0 DUP1 REVERT JUMPDEST POP PUSH2 0x3FD PUSH2 0x973 JUMP JUMPDEST STOP JUMPDEST CALLVALUE DUP1 ISZERO PUSH2 0x40A JUMPI PUSH0 DUP1 REVERT JUMPDEST POP PUSH2 0x413 PUSH2 0x9D8 JUMP JUMPDEST PUSH1 0x40 MLOAD PUSH2 0x420 SWAP2 SWAP1 PUSH2 0x25F9 JUMP JUMPDEST PUSH1 0x40 MLOAD DUP1 SWAP2 SUB SWAP1 RETURN JUMPDEST CALLVALUE DUP1 ISZERO PUSH2 0x434 JUMPI PUSH0 DUP1 REVERT JUMPDEST POP PUSH2 0x44F PUSH1 0x4 DUP1 CALLDATASIZE SUB DUP2 ADD SWAP1 PUSH2 0x44A SWAP2 SWAP1 PUSH2 0x2523 JUMP JUMPDEST PUSH2 0x9FD JUMP JUMPDEST PUSH1 0x40 MLOAD PUSH2 0x45C SWAP2 SWAP1 PUSH2 0x250A JUMP JUMPDEST PUSH1 0x40 MLOAD DUP1 SWAP2 SUB SWAP1 RETURN JUMPDEST CALLVALUE DUP1 ISZERO PUSH2 0x470 JUMPI PUSH0 DUP1 REVERT JUMPDEST POP PUSH2 0x479 PUSH2 0xA12 JUMP JUMPDEST PUSH1 0x40 MLOAD PUSH2 0x486 SWAP2 SWAP1 PUSH2 0x262D JUMP JUMPDEST PUSH1 0x40 MLOAD DUP1 SWAP2 SUB SWAP1 RETURN JUMPDEST CALLVALUE DUP1 ISZERO PUSH2 0x49A JUMPI PUSH0 DUP1 REVERT JUMPDEST POP PUSH2 0x4A3 PUSH2 0xA1A JUMP JUMPDEST STOP JUMPDEST CALLVALUE DUP1 ISZERO PUSH2 0x4B0 JUMPI PUSH0 DUP1 REVERT JUMPDEST POP PUSH2 0x4B9 PUSH2 0xAA1 JUMP JUMPDEST STOP JUMPDEST PUSH2 0x4D5 PUSH1 0x4 DUP1 CALLDATASIZE SUB DUP2 ADD SWAP1 PUSH2 0x4D0 SWAP2 SWAP1 PUSH2 0x2646 JUMP JUMPDEST PUSH2 0xB49 JUMP JUMPDEST STOP JUMPDEST CALLVALUE DUP1 ISZERO PUSH2 0x4E2 JUMPI PUSH0 DUP1 REVERT JUMPDEST POP PUSH2 0x4EB PUSH2 0x10E1 JUMP JUMPDEST PUSH1 0x40 MLOAD PUSH2 0x4F8 SWAP2 SWAP1 PUSH2 0x250A JUMP JUMPDEST PUSH1 0x40 MLOAD DUP1 SWAP2 SUB SWAP1 RETURN JUMPDEST CALLVALUE DUP1 ISZERO PUSH2 0x50C JUMPI PUSH0 DUP1 REVERT JUMPDEST POP PUSH2 0x515 PUSH2 0x10E7 JUMP JUMPDEST STOP JUMPDEST CALLVALUE DUP1 ISZERO PUSH2 0x522 JUMPI PUSH0 DUP1 REVERT JUMPDEST POP PUSH2 0x52B PUSH2 0x12DA JUMP JUMPDEST STOP JUMPDEST CALLVALUE DUP1 ISZERO PUSH2 0x538 JUMPI PUSH0 DUP1 REVERT JUMPDEST POP PUSH2 0x541 PUSH2 0x13C9 JUMP JUMPDEST PUSH1 0x40 MLOAD PUSH2 0x54E SWAP2 SWAP1 PUSH2 0x250A JUMP JUMPDEST PUSH1 0x40 MLOAD DUP1 SWAP2 SUB SWAP1 RETURN JUMPDEST CALLVALUE DUP1 ISZERO PUSH2 0x562 JUMPI PUSH0 DUP1 REVERT JUMPDEST POP PUSH2 0x57D PUSH1 0x4 DUP1 CALLDATASIZE SUB DUP2 ADD SWAP1 PUSH2 0x578 SWAP2 SWAP1 PUSH2 0x2523 JUMP JUMPDEST PUSH2 0x13CF JUMP JUMPDEST PUSH1 0x40 MLOAD PUSH2 0x58A SWAP2 SWAP1 PUSH2 0x250A JUMP JUMPDEST PUSH1 0x40 MLOAD DUP1 SWAP2 SUB SWAP1 RETURN JUMPDEST CALLVALUE DUP1 ISZERO PUSH2 0x59E JUMPI PUSH0 DUP1 REVERT JUMPDEST POP PUSH2 0x5A7 PUSH2 0x1414 JUMP JUMPDEST STOP JUMPDEST CALLVALUE DUP1 ISZERO PUSH2 0x5B4 JUMPI PUSH0 DUP1 REVERT JUMPDEST POP PUSH2 0x5CF PUSH1 0x4 DUP1 CALLDATASIZE SUB DUP2 ADD SWAP1 PUSH2 0x5CA SWAP2 SWAP1 PUSH2 0x2646 JUMP JUMPDEST PUSH2 0x1427 JUMP JUMPDEST STOP JUMPDEST CALLVALUE DUP1 ISZERO PUSH2 0x5DC JUMPI PUSH0 DUP1 REVERT JUMPDEST POP PUSH2 0x5E5 PUSH2 0x1646 JUMP JUMPDEST PUSH1 0x40 MLOAD PUSH2 0x5F2 SWAP2 SWAP1 PUSH2 0x2680 JUMP JUMPDEST PUSH1 0x40 MLOAD DUP1 SWAP2 SUB SWAP1 RETURN JUMPDEST CALLVALUE DUP1 ISZERO PUSH2 0x606 JUMPI PUSH0 DUP1 REVERT JUMPDEST POP PUSH2 0x60F PUSH2 0x166E JUMP JUMPDEST PUSH1 0x40 MLOAD PUSH2 0x61C SWAP2 SWAP1 PUSH2 0x250A JUMP JUMPDEST PUSH1 0x40 MLOAD DUP1 SWAP2 SUB SWAP1 RETURN JUMPDEST CALLVALUE DUP1 ISZERO PUSH2 0x630 JUMPI PUSH0 DUP1 REVERT JUMPDEST POP PUSH2 0x639 PUSH2 0x1674 JUMP JUMPDEST PUSH1 0x40 MLOAD PUSH2 0x646 SWAP2 SWAP1 PUSH2 0x250A JUMP JUMPDEST PUSH1 0x40 MLOAD DUP1 SWAP2 SUB SWAP1 RETURN JUMPDEST CALLVALUE DUP1 ISZERO PUSH2 0x65A JUMPI PUSH0 DUP1 REVERT JUMPDEST POP PUSH2 0x663 PUSH2 0x1683 JUMP JUMPDEST PUSH1 0x40 MLOAD PUSH2 0x670 SWAP2 SWAP1 PUSH2 0x250A JUMP JUMPDEST PUSH1 0x40 MLOAD DUP1 SWAP2 SUB SWAP1 RETURN JUMPDEST CALLVALUE DUP1 ISZERO PUSH2 0x684 JUMPI PUSH0 DUP1 REVERT JUMPDEST POP PUSH2 0x68D PUSH2 0x1689 JUMP JUMPDEST PUSH1 0x40 MLOAD PUSH2 0x69A SWAP2 SWAP1 PUSH2 0x23D9 JUMP JUMPDEST PUSH1 0x40 MLOAD DUP1 SWAP2 SUB SWAP1 RETURN JUMPDEST CALLVALUE DUP1 ISZERO PUSH2 0x6AE JUMPI PUSH0 DUP1 REVERT JUMPDEST POP PUSH2 0x6C9 PUSH1 0x4 DUP1 CALLDATASIZE SUB DUP2 ADD SWAP1 PUSH2 0x6C4 SWAP2 SWAP1 PUSH2 0x248A JUMP JUMPDEST PUSH2 0x1719 JUMP JUMPDEST PUSH1 0x40 MLOAD PUSH2 0x6D6 SWAP2 SWAP1 PUSH2 0x24E2 JUMP JUMPDEST PUSH1 0x40 MLOAD DUP1 SWAP2 SUB SWAP1 RETURN JUMPDEST CALLVALUE DUP1 ISZERO PUSH2 0x6EA JUMPI PUSH0 DUP1 REVERT JUMPDEST POP PUSH2 0x6F3 PUSH2 0x173B JUMP JUMPDEST PUSH1 0x40 MLOAD PUSH2 0x700 SWAP2 SWAP1 PUSH2 0x250A JUMP JUMPDEST PUSH1 0x40 MLOAD DUP1 SWAP2 SUB SWAP1 RETURN JUMPDEST CALLVALUE DUP1 ISZERO PUSH2 0x714 JUMPI PUSH0 DUP1 REVERT JUMPDEST POP PUSH2 0x71D PUSH2 0x1741 JUMP JUMPDEST PUSH1 0x40 MLOAD PUSH2 0x72A SWAP2 SWAP1 PUSH2 0x250A JUMP JUMPDEST PUSH1 0x40 MLOAD DUP1 SWAP2 SUB SWAP1 RETURN JUMPDEST CALLVALUE DUP1 ISZERO PUSH2 0x73E JUMPI PUSH0 DUP1 REVERT JUMPDEST POP PUSH2 0x747 PUSH2 0x1747 JUMP JUMPDEST PUSH1 0x40 MLOAD PUSH2 0x754 SWAP2 SWAP1 PUSH2 0x250A JUMP JUMPDEST PUSH1 0x40 MLOAD DUP1 SWAP2 SUB SWAP1 RETURN JUMPDEST CALLVALUE DUP1 ISZERO PUSH2 0x768 JUMPI PUSH0 DUP1 REVERT JUMPDEST POP PUSH2 0x771 PUSH2 0x174D JUMP JUMPDEST PUSH1 0x40 MLOAD PUSH2 0x77E SWAP2 SWAP1 PUSH2 0x250A JUMP JUMPDEST PUSH1 0x40 MLOAD DUP1 SWAP2 SUB SWAP1 RETURN JUMPDEST CALLVALUE DUP1 ISZERO PUSH2 0x792 JUMPI PUSH0 DUP1 REVERT JUMPDEST POP PUSH2 0x79B PUSH2 0x1753 JUMP JUMPDEST PUSH1 0x40 MLOAD PUSH2 0x7A8 SWAP2 SWAP1 PUSH2 0x270C JUMP JUMPDEST PUSH1 0x40 MLOAD DUP1 SWAP2 SUB SWAP1 RETURN JUMPDEST CALLVALUE DUP1 ISZERO PUSH2 0x7BC JUMPI PUSH0 DUP1 REVERT JUMPDEST POP PUSH2 0x7C5 PUSH2 0x1765 JUMP JUMPDEST PUSH1 0x40 MLOAD PUSH2 0x7D2 SWAP2 SWAP1 PUSH2 0x250A JUMP JUMPDEST PUSH1 0x40 MLOAD DUP1 SWAP2 SUB SWAP1 RETURN JUMPDEST CALLVALUE DUP1 ISZERO PUSH2 0x7E6 JUMPI PUSH0 DUP1 REVERT JUMPDEST POP PUSH2 0x801 PUSH1 0x4 DUP1 CALLDATASIZE SUB DUP2 ADD SWAP1 PUSH2 0x7FC SWAP2 SWAP1 PUSH2 0x2725 JUMP JUMPDEST PUSH2 0x176B JUMP JUMPDEST PUSH1 0x40 MLOAD PUSH2 0x80E SWAP2 SWAP1 PUSH2 0x250A JUMP JUMPDEST PUSH1 0x40 MLOAD DUP1 SWAP2 SUB SWAP1 RETURN JUMPDEST CALLVALUE DUP1 ISZERO PUSH2 0x822 JUMPI PUSH0 DUP1 REVERT JUMPDEST POP PUSH2 0x82B PUSH2 0x17ED JUMP JUMPDEST PUSH1 0x40 MLOAD PUSH2 0x838 SWAP2 SWAP1 PUSH2 0x250A JUMP JUMPDEST PUSH1 0x40 MLOAD DUP1 SWAP2 SUB SWAP1 RETURN JUMPDEST CALLVALUE DUP1 ISZERO PUSH2 0x84C JUMPI PUSH0 DUP1 REVERT JUMPDEST POP PUSH2 0x867 PUSH1 0x4 DUP1 CALLDATASIZE SUB DUP2 ADD SWAP1 PUSH2 0x862 SWAP2 SWAP1 PUSH2 0x2523 JUMP JUMPDEST PUSH2 0x17F3 JUMP JUMPDEST STOP JUMPDEST PUSH1 0x60 PUSH1 0x3 DUP1 SLOAD PUSH2 0x878 SWAP1 PUSH2 0x2790 JUMP JUMPDEST DUP1 PUSH1 0x1F ADD PUSH1 0x20 DUP1 SWAP2 DIV MUL PUSH1 0x20 ADD PUSH1 0x40 MLOAD SWAP1 DUP2 ADD PUSH1 0x40 MSTORE DUP1 SWAP3 SWAP2 SWAP1 DUP2 DUP2 MSTORE PUSH1 0x20 ADD DUP3 DUP1 SLOAD PUSH2 0x8A4 SWAP1 PUSH2 0x2790 JUMP JUMPDEST DUP1 ISZERO PUSH2 0x8EF JUMPI DUP1 PUSH1 0x1F LT PUSH2 0x8C6 JUMPI PUSH2 0x100 DUP1 DUP4 SLOAD DIV MUL DUP4 MSTORE SWAP2 PUSH1 0x20 ADD SWAP2 PUSH2 0x8EF JUMP JUMPDEST DUP3 ADD SWAP2 SWAP1 PUSH0 MSTORE PUSH1 0x20 PUSH0 KECCAK256 SWAP1 JUMPDEST DUP2 SLOAD DUP2 MSTORE SWAP1 PUSH1 0x1 ADD SWAP1 PUSH1 0x20 ADD DUP1 DUP4 GT PUSH2 0x8D2 JUMPI DUP3 SWAP1 SUB PUSH1 0x1F AND DUP3 ADD SWAP2 JUMPDEST POP POP POP POP POP SWAP1 POP SWAP1 JUMP JUMPDEST PUSH0 DUP1 PUSH2 0x903 PUSH2 0x1877 JUMP JUMPDEST SWAP1 POP PUSH2 0x910 DUP2 DUP6 DUP6 PUSH2 0x187E JUMP JUMPDEST PUSH1 0x1 SWAP2 POP POP SWAP3 SWAP2 POP POP JUMP JUMPDEST PUSH1 0xD SLOAD DUP2 JUMP JUMPDEST PUSH1 0x14 SLOAD DUP2 JUMP JUMPDEST PUSH0 PUSH1 0x2 SLOAD SWAP1 POP SWAP1 JUMP JUMPDEST PUSH1 0x12 PUSH1 0x20 MSTORE DUP1 PUSH0 MSTORE PUSH1 0x40 PUSH0 KECCAK256 PUSH0 SWAP2 POP SWAP1 POP SLOAD DUP2 JUMP JUMPDEST PUSH0 DUP1 PUSH2 0x94F PUSH2 0x1877 JUMP JUMPDEST SWAP1 POP PUSH2 0x95C DUP6 DUP3 DUP6 PUSH2 0x1890 JUMP JUMPDEST PUSH2 0x967 DUP6 DUP6 DUP6 PUSH2 0x1922 JUMP JUMPDEST PUSH1 0x1 SWAP2 POP POP SWAP4 SWAP3 POP POP POP JUMP JUMPDEST PUSH2 0x97B PUSH2 0x1A12 JUMP JUMPDEST PUSH2 0x983 PUSH2 0x1A99 JUMP JUMPDEST PUSH2 0x98B PUSH2 0x1646 JUMP JUMPDEST PUSH20 0xFFFFFFFFFFFFFFFFFFFFFFFFFFFFFFFFFFFFFFFF AND PUSH2 0x8FC SELFBALANCE SWAP1 DUP2 ISZERO MUL SWAP1 PUSH1 0x40 MLOAD PUSH0 PUSH1 0x40 MLOAD DUP1 DUP4 SUB DUP2 DUP6 DUP9 DUP9 CALL SWAP4 POP POP POP POP ISZERO DUP1 ISZERO PUSH2 0x9CD JUMPI RETURNDATASIZE PUSH0 DUP1 RETURNDATACOPY RETURNDATASIZE PUSH0 REVERT JUMPDEST POP PUSH2 0x9D6 PUSH2 0x1AE8 JUMP JUMPDEST JUMP JUMPDEST PUSH1 0x16 PUSH0 SWAP1 SLOAD SWAP1 PUSH2 0x100 EXP SWAP1 DIV PUSH20 0xFFFFFFFFFFFFFFFFFFFFFFFFFFFFFFFFFFFFFFFF AND DUP2 JUMP JUMPDEST PUSH1 0x13 PUSH1 0x20 MSTORE DUP1 PUSH0 MSTORE PUSH1 0x40 PUSH0 KECCAK256 PUSH0 SWAP2 POP SWAP1 POP SLOAD DUP2 JUMP JUMPDEST PUSH0 PUSH1 0x12 SWAP1 POP SWAP1 JUMP JUMPDEST PUSH2 0xA22 PUSH2 0x1A12 JUMP JUMPDEST PUSH1 0x8 SLOAD PUSH1 0xB SLOAD EQ DUP1 PUSH2 0xA37 JUMPI POP PUSH1 0xD SLOAD PUSH1 0x10 SLOAD EQ JUMPDEST PUSH2 0xA76 JUMPI PUSH1 0x40 MLOAD PUSH32 0x8C379A000000000000000000000000000000000000000000000000000000000 DUP2 MSTORE PUSH1 0x4 ADD PUSH2 0xA6D SWAP1 PUSH2 0x280A JUMP JUMPDEST PUSH1 0x40 MLOAD DUP1 SWAP2 SUB SWAP1 REVERT JUMPDEST PUSH0 PUSH1 0x11 PUSH0 PUSH2 0x100 EXP DUP2 SLOAD DUP2 PUSH1 0xFF MUL NOT AND SWAP1 DUP4 PUSH1 0x2 DUP2 GT ISZERO PUSH2 0xA9A JUMPI PUSH2 0xA99 PUSH2 0x2699 JUMP JUMPDEST JUMPDEST MUL OR SWAP1 SSTORE POP JUMP JUMPDEST PUSH2 0xAA9 PUSH2 0x1A12 JUMP JUMPDEST PUSH0 PUSH1 0x2 DUP2 GT ISZERO PUSH2 0xABC JUMPI PUSH2 0xABB PUSH2 0x2699 JUMP JUMPDEST JUMPDEST PUSH1 0x11 PUSH0 SWAP1 SLOAD SWAP1 PUSH2 0x100 EXP SWAP1 DIV PUSH1 0xFF AND PUSH1 0x2 DUP2 GT ISZERO PUSH2 0xADD JUMPI PUSH2 0xADC PUSH2 0x2699 JUMP JUMPDEST JUMPDEST EQ PUSH2 0xB1D JUMPI PUSH1 0x40 MLOAD PUSH32 0x8C379A000000000000000000000000000000000000000000000000000000000 DUP2 MSTORE PUSH1 0x4 ADD PUSH2 0xB14 SWAP1 PUSH2 0x2898 JUMP JUMPDEST PUSH1 0x40 MLOAD DUP1 SWAP2 SUB SWAP1 REVERT JUMPDEST PUSH1 0x1 PUSH1 0x11 PUSH0 PUSH2 0x100 EXP DUP2 SLOAD DUP2 PUSH1 0xFF MUL NOT AND SWAP1 DUP4 PUSH1 0x2 DUP2 GT ISZERO PUSH2 0xB42 JUMPI PUSH2 0xB41 PUSH2 0x2699 JUMP JUMPDEST JUMPDEST MUL OR SWAP1 SSTORE POP JUMP JUMPDEST PUSH2 0xB51 PUSH2 0x1A99 JUMP JUMPDEST PUSH0 PUSH1 0x2 DUP2 GT ISZERO PUSH2 0xB64 JUMPI PUSH2 0xB63 PUSH2 0x2699 JUMP JUMPDEST JUMPDEST PUSH1 0x11 PUSH0 SWAP1 SLOAD SWAP1 PUSH2 0x100 EXP SWAP1 DIV PUSH1 0xFF AND PUSH1 0x2 DUP2 GT ISZERO PUSH2 0xB85 JUMPI PUSH2 0xB84 PUSH2 0x2699 JUMP JUMPDEST JUMPDEST SUB PUSH2 0xBC5 JUMPI PUSH1 0x40 MLOAD PUSH32 0x8C379A000000000000000000000000000000000000000000000000000000000 DUP2 MSTORE PUSH1 0x4 ADD PUSH2 0xBBC SWAP1 PUSH2 0x2900 JUMP JUMPDEST PUSH1 0x40 MLOAD DUP1 SWAP2 SUB SWAP1 REVERT JUMPDEST PUSH0 PUSH1 0x16 PUSH0 SWAP1 SLOAD SWAP1 PUSH2 0x100 EXP SWAP1 DIV PUSH20 0xFFFFFFFFFFFFFFFFFFFFFFFFFFFFFFFFFFFFFFFF AND PUSH20 0xFFFFFFFFFFFFFFFFFFFFFFFFFFFFFFFFFFFFFFFF AND PUSH4 0x8E15F473 PUSH1 0x40 MLOAD DUP2 PUSH4 0xFFFFFFFF AND PUSH1 0xE0 SHL DUP2 MSTORE PUSH1 0x4 ADD PUSH1 0x20 PUSH1 0x40 MLOAD DUP1 DUP4 SUB DUP2 DUP7 GAS STATICCALL ISZERO DUP1 ISZERO PUSH2 0xC30 JUMPI RETURNDATASIZE PUSH0 DUP1 RETURNDATACOPY RETURNDATASIZE PUSH0 REVERT JUMPDEST POP POP POP POP PUSH1 0x40 MLOAD RETURNDATASIZE PUSH1 0x1F NOT PUSH1 0x1F DUP3 ADD AND DUP3 ADD DUP1 PUSH1 0x40 MSTORE POP DUP2 ADD SWAP1 PUSH2 0xC54 SWAP2 SWAP1 PUSH2 0x2932 JUMP JUMPDEST SWAP1 POP PUSH0 DUP2 GT PUSH2 0xC98 JUMPI PUSH1 0x40 MLOAD PUSH32 0x8C379A000000000000000000000000000000000000000000000000000000000 DUP2 MSTORE PUSH1 0x4 ADD PUSH2 0xC8F SWAP1 PUSH2 0x29A7 JUMP JUMPDEST PUSH1 0x40 MLOAD DUP1 SWAP2 SUB SWAP1 REVERT JUMPDEST PUSH0 PUSH1 0x1 PUSH1 0x2 DUP2 GT ISZERO PUSH2 0xCAD JUMPI PUSH2 0xCAC PUSH2 0x2699 JUMP JUMPDEST JUMPDEST PUSH1 0x11 PUSH0 SWAP1 SLOAD SWAP1 PUSH2 0x100 EXP SWAP1 DIV PUSH1 0xFF AND PUSH1 0x2 DUP2 GT ISZERO PUSH2 0xCCE JUMPI PUSH2 0xCCD PUSH2 0x2699 JUMP JUMPDEST JUMPDEST SUB PUSH2 0xF00 JUMPI PUSH1 0x8 SLOAD PUSH1 0xB SLOAD LT PUSH2 0xD19 JUMPI PUSH1 0x40 MLOAD PUSH32 0x8C379A000000000000000000000000000000000000000000000000000000000 DUP2 MSTORE PUSH1 0x4 ADD PUSH2 0xD10 SWAP1 PUSH2 0x2A0F JUMP JUMPDEST PUSH1 0x40 MLOAD DUP1 SWAP2 SUB SWAP1 REVERT JUMPDEST PUSH2 0xD4E PUSH2 0xD49 PUSH8 0xDE0B6B3A7640000 PUSH2 0xD3B DUP6 DUP8 PUSH2 0x1AF2 SWAP1 SWAP2 SWAP1 PUSH4 0xFFFFFFFF AND JUMP JUMPDEST PUSH2 0x1B07 SWAP1 SWAP2 SWAP1 PUSH4 0xFFFFFFFF AND JUMP JUMPDEST PUSH2 0x1B1C JUMP JUMPDEST SWAP1 POP PUSH2 0xD65 DUP2 PUSH1 0xB SLOAD PUSH2 0x1CFA SWAP1 SWAP2 SWAP1 PUSH4 0xFFFFFFFF AND JUMP JUMPDEST PUSH1 0xB DUP2 SWAP1 SSTORE POP PUSH1 0x8 SLOAD PUSH1 0xB SLOAD GT ISZERO PUSH2 0xDB2 JUMPI PUSH1 0x40 MLOAD PUSH32 0x8C379A000000000000000000000000000000000000000000000000000000000 DUP2 MSTORE PUSH1 0x4 ADD PUSH2 0xDA9 SWAP1 PUSH2 0x2A9D JUMP JUMPDEST PUSH1 0x40 MLOAD DUP1 SWAP2 SUB SWAP1 REVERT JUMPDEST PUSH2 0xE02 DUP2 PUSH1 0x12 PUSH0 CALLER PUSH20 0xFFFFFFFFFFFFFFFFFFFFFFFFFFFFFFFFFFFFFFFF AND PUSH20 0xFFFFFFFFFFFFFFFFFFFFFFFFFFFFFFFFFFFFFFFF AND DUP2 MSTORE PUSH1 0x20 ADD SWAP1 DUP2 MSTORE PUSH1 0x20 ADD PUSH0 KECCAK256 SLOAD PUSH2 0x1CFA SWAP1 SWAP2 SWAP1 PUSH4 0xFFFFFFFF AND JUMP JUMPDEST PUSH1 0x12 PUSH0 CALLER PUSH20 0xFFFFFFFFFFFFFFFFFFFFFFFFFFFFFFFFFFFFFFFF AND PUSH20 0xFFFFFFFFFFFFFFFFFFFFFFFFFFFFFFFFFFFFFFFF AND DUP2 MSTORE PUSH1 0x20 ADD SWAP1 DUP2 MSTORE PUSH1 0x20 ADD PUSH0 KECCAK256 DUP2 SWAP1 SSTORE POP PUSH2 0xE6C PUSH1 0x14 SLOAD PUSH2 0xE5E PUSH1 0x15 SLOAD TIMESTAMP PUSH2 0x1CFA SWAP1 SWAP2 SWAP1 PUSH4 0xFFFFFFFF AND JUMP JUMPDEST PUSH2 0x1CFA SWAP1 SWAP2 SWAP1 PUSH4 0xFFFFFFFF AND JUMP JUMPDEST PUSH1 0x13 PUSH0 CALLER PUSH20 0xFFFFFFFFFFFFFFFFFFFFFFFFFFFFFFFFFFFFFFFF AND PUSH20 0xFFFFFFFFFFFFFFFFFFFFFFFFFFFFFFFFFFFFFFFF AND DUP2 MSTORE PUSH1 0x20 ADD SWAP1 DUP2 MSTORE PUSH1 0x20 ADD PUSH0 KECCAK256 DUP2 SWAP1 SSTORE POP CALLER PUSH20 0xFFFFFFFFFFFFFFFFFFFFFFFFFFFFFFFFFFFFFFFF AND PUSH32 0x8FA81BB0702332EA2A0AEE44BB9E4D359CF4A2C5A820DD59D9129369BDBCA73F DUP3 PUSH1 0x40 MLOAD PUSH2 0xEF3 SWAP2 SWAP1 PUSH2 0x250A JUMP JUMPDEST PUSH1 0x40 MLOAD DUP1 SWAP2 SUB SWAP1 LOG2 PUSH2 0x10D4 JUMP JUMPDEST PUSH1 0x2 DUP1 DUP2 GT ISZERO PUSH2 0xF13 JUMPI PUSH2 0xF12 PUSH2 0x2699 JUMP JUMPDEST JUMPDEST PUSH1 0x11 PUSH0 SWAP1 SLOAD SWAP1 PUSH2 0x100 EXP SWAP1 DIV PUSH1 0xFF AND PUSH1 0x2 DUP2 GT ISZERO PUSH2 0xF34 JUMPI PUSH2 0xF33 PUSH2 0x2699 JUMP JUMPDEST JUMPDEST SUB PUSH2 0x10D3 JUMPI PUSH1 0xD SLOAD PUSH1 0x10 SLOAD LT PUSH2 0xF7F JUMPI PUSH1 0x40 MLOAD PUSH32 0x8C379A000000000000000000000000000000000000000000000000000000000 DUP2 MSTORE PUSH1 0x4 ADD PUSH2 0xF76 SWAP1 PUSH2 0x2B05 JUMP JUMPDEST PUSH1 0x40 MLOAD DUP1 SWAP2 SUB SWAP1 REVERT JUMPDEST PUSH9 0x56BC75E2D63100000 DUP4 LT ISZERO DUP1 ISZERO PUSH2 0xFA1 JUMPI POP PUSH9 0xA2A15D09519BE00000 DUP4 GT ISZERO JUMPDEST PUSH2 0xFE0 JUMPI PUSH1 0x40 MLOAD PUSH32 0x8C379A000000000000000000000000000000000000000000000000000000000 DUP2 MSTORE PUSH1 0x4 ADD PUSH2 0xFD7 SWAP1 PUSH2 0x2B6D JUMP JUMPDEST PUSH1 0x40 MLOAD DUP1 SWAP2 SUB SWAP1 REVERT JUMPDEST PUSH2 0x1015 PUSH2 0x1010 PUSH8 0xDE0B6B3A7640000 PUSH2 0x1002 DUP6 DUP8 PUSH2 0x1AF2 SWAP1 SWAP2 SWAP1 PUSH4 0xFFFFFFFF AND JUMP JUMPDEST PUSH2 0x1B07 SWAP1 SWAP2 SWAP1 PUSH4 0xFFFFFFFF AND JUMP JUMPDEST PUSH2 0x1D0F JUMP JUMPDEST SWAP1 POP PUSH2 0x102C DUP2 PUSH1 0x10 SLOAD PUSH2 0x1CFA SWAP1 SWAP2 SWAP1 PUSH4 0xFFFFFFFF AND JUMP JUMPDEST PUSH1 0x10 DUP2 SWAP1 SSTORE POP PUSH1 0xD SLOAD PUSH1 0x10 SLOAD GT ISZERO PUSH2 0x1079 JUMPI PUSH1 0x40 MLOAD PUSH32 0x8C379A000000000000000000000000000000000000000000000000000000000 DUP2 MSTORE PUSH1 0x4 ADD PUSH2 0x1070 SWAP1 PUSH2 0x2BD5 JUMP JUMPDEST PUSH1 0x40 MLOAD DUP1 SWAP2 SUB SWAP1 REVERT JUMPDEST PUSH2 0x1084 ADDRESS CALLER DUP4 PUSH2 0x1922 JUMP JUMPDEST CALLER PUSH20 0xFFFFFFFFFFFFFFFFFFFFFFFFFFFFFFFFFFFFFFFF AND PUSH32 0x550498DC565CC74203B9D14CBA907C9F60CEEFE26E82B37DF98F6CB98529CF19 DUP3 PUSH1 0x40 MLOAD PUSH2 0x10CA SWAP2 SWAP1 PUSH2 0x250A JUMP JUMPDEST PUSH1 0x40 MLOAD DUP1 SWAP2 SUB SWAP1 LOG2 JUMPDEST JUMPDEST POP POP PUSH2 0x10DE PUSH2 0x1AE8 JUMP JUMPDEST POP JUMP JUMPDEST PUSH1 0x15 SLOAD DUP2 JUMP JUMPDEST PUSH2 0x10EF PUSH2 0x1A99 JUMP JUMPDEST PUSH1 0x13 PUSH0 CALLER PUSH20 0xFFFFFFFFFFFFFFFFFFFFFFFFFFFFFFFFFFFFFFFF AND PUSH20 0xFFFFFFFFFFFFFFFFFFFFFFFFFFFFFFFFFFFFFFFF AND DUP2 MSTORE PUSH1 0x20 ADD SWAP1 DUP2 MSTORE PUSH1 0x20 ADD PUSH0 KECCAK256 SLOAD TIMESTAMP LT ISZERO PUSH2 0x116F JUMPI PUSH1 0x40 MLOAD PUSH32 0x8C379A000000000000000000000000000000000000000000000000000000000 DUP2 MSTORE PUSH1 0x4 ADD PUSH2 0x1166 SWAP1 PUSH2 0x2C63 JUMP JUMPDEST PUSH1 0x40 MLOAD DUP1 SWAP2 SUB SWAP1 REVERT JUMPDEST PUSH0 PUSH1 0x12 PUSH0 CALLER PUSH20 0xFFFFFFFFFFFFFFFFFFFFFFFFFFFFFFFFFFFFFFFF AND PUSH20 0xFFFFFFFFFFFFFFFFFFFFFFFFFFFFFFFFFFFFFFFF AND DUP2 MSTORE PUSH1 0x20 ADD SWAP1 DUP2 MSTORE PUSH1 0x20 ADD PUSH0 KECCAK256 SLOAD SWAP1 POP PUSH0 DUP2 GT PUSH2 0x11F2 JUMPI PUSH1 0x40 MLOAD PUSH32 0x8C379A000000000000000000000000000000000000000000000000000000000 DUP2 MSTORE PUSH1 0x4 ADD PUSH2 0x11E9 SWAP1 PUSH2 0x2CCB JUMP JUMPDEST PUSH1 0x40 MLOAD DUP1 SWAP2 SUB SWAP1 REVERT JUMPDEST PUSH0 PUSH1 0x12 PUSH0 CALLER PUSH20 0xFFFFFFFFFFFFFFFFFFFFFFFFFFFFFFFFFFFFFFFF AND PUSH20 0xFFFFFFFFFFFFFFFFFFFFFFFFFFFFFFFFFFFFFFFF AND DUP2 MSTORE PUSH1 0x20 ADD SWAP1 DUP2 MSTORE PUSH1 0x20 ADD PUSH0 KECCAK256 DUP2 SWAP1 SSTORE POP PUSH0 PUSH1 0x13 PUSH0 CALLER PUSH20 0xFFFFFFFFFFFFFFFFFFFFFFFFFFFFFFFFFFFFFFFF AND PUSH20 0xFFFFFFFFFFFFFFFFFFFFFFFFFFFFFFFFFFFFFFFF AND DUP2 MSTORE PUSH1 0x20 ADD SWAP1 DUP2 MSTORE PUSH1 0x20 ADD PUSH0 KECCAK256 DUP2 SWAP1 SSTORE POP PUSH2 0x1281 ADDRESS CALLER DUP4 PUSH2 0x1922 JUMP JUMPDEST CALLER PUSH20 0xFFFFFFFFFFFFFFFFFFFFFFFFFFFFFFFFFFFFFFFF AND PUSH32 0x6BC5063C7239B75C8BF325A2A2238F726FADA322163996BB6C93D5594FB119F0 DUP3 PUSH1 0x40 MLOAD PUSH2 0x12C7 SWAP2 SWAP1 PUSH2 0x250A JUMP JUMPDEST PUSH1 0x40 MLOAD DUP1 SWAP2 SUB SWAP1 LOG2 POP PUSH2 0x12D8 PUSH2 0x1AE8 JUMP JUMPDEST JUMP JUMPDEST PUSH2 0x12E2 PUSH2 0x1A12 JUMP JUMPDEST PUSH1 0x1 PUSH1 0x2 DUP2 GT ISZERO PUSH2 0x12F6 JUMPI PUSH2 0x12F5 PUSH2 0x2699 JUMP JUMPDEST JUMPDEST PUSH1 0x11 PUSH0 SWAP1 SLOAD SWAP1 PUSH2 0x100 EXP SWAP1 DIV PUSH1 0xFF AND PUSH1 0x2 DUP2 GT ISZERO PUSH2 0x1317 JUMPI PUSH2 0x1316 PUSH2 0x2699 JUMP JUMPDEST JUMPDEST EQ PUSH2 0x1357 JUMPI PUSH1 0x40 MLOAD PUSH32 0x8C379A000000000000000000000000000000000000000000000000000000000 DUP2 MSTORE PUSH1 0x4 ADD PUSH2 0x134E SWAP1 PUSH2 0x2D59 JUMP JUMPDEST PUSH1 0x40 MLOAD DUP1 SWAP2 SUB SWAP1 REVERT JUMPDEST PUSH1 0x8 SLOAD PUSH1 0xB SLOAD EQ PUSH2 0x139D JUMPI PUSH1 0x40 MLOAD PUSH32 0x8C379A000000000000000000000000000000000000000000000000000000000 DUP2 MSTORE PUSH1 0x4 ADD PUSH2 0x1394 SWAP1 PUSH2 0x2DC1 JUMP JUMPDEST PUSH1 0x40 MLOAD DUP1 SWAP2 SUB SWAP1 REVERT JUMPDEST PUSH1 0x2 PUSH1 0x11 PUSH0 PUSH2 0x100 EXP DUP2 SLOAD DUP2 PUSH1 0xFF MUL NOT AND SWAP1 DUP4 PUSH1 0x2 DUP2 GT ISZERO PUSH2 0x13C2 JUMPI PUSH2 0x13C1 PUSH2 0x2699 JUMP JUMPDEST JUMPDEST MUL OR SWAP1 SSTORE POP JUMP JUMPDEST PUSH1 0xB SLOAD DUP2 JUMP JUMPDEST PUSH0 DUP1 PUSH0 DUP4 PUSH20 0xFFFFFFFFFFFFFFFFFFFFFFFFFFFFFFFFFFFFFFFF AND PUSH20 0xFFFFFFFFFFFFFFFFFFFFFFFFFFFFFFFFFFFFFFFF AND DUP2 MSTORE PUSH1 0x20 ADD SWAP1 DUP2 MSTORE PUSH1 0x20 ADD PUSH0 KECCAK256 SLOAD SWAP1 POP SWAP2 SWAP1 POP JUMP JUMPDEST PUSH2 0x141C PUSH2 0x1A12 JUMP JUMPDEST PUSH2 0x1425 PUSH0 PUSH2 0x1E1B JUMP JUMPDEST JUMP JUMPDEST PUSH2 0x142F PUSH2 0x1A99 JUMP JUMPDEST PUSH0 DUP2 GT PUSH2 0x1471 JUMPI PUSH1 0x40 MLOAD PUSH32 0x8C379A000000000000000000000000000000000000000000000000000000000 DUP2 MSTORE PUSH1 0x4 ADD PUSH2 0x1468 SWAP1 PUSH2 0x2E29 JUMP JUMPDEST PUSH1 0x40 MLOAD DUP1 SWAP2 SUB SWAP1 REVERT JUMPDEST DUP1 PUSH2 0x147B CALLER PUSH2 0x13CF JUMP JUMPDEST LT ISZERO PUSH2 0x14BC JUMPI PUSH1 0x40 MLOAD PUSH32 0x8C379A000000000000000000000000000000000000000000000000000000000 DUP2 MSTORE PUSH1 0x4 ADD PUSH2 0x14B3 SWAP1 PUSH2 0x2E91 JUMP JUMPDEST PUSH1 0x40 MLOAD DUP1 SWAP2 SUB SWAP1 REVERT JUMPDEST PUSH2 0x14C7 CALLER ADDRESS DUP4 PUSH2 0x1922 JUMP JUMPDEST PUSH2 0x1517 DUP2 PUSH1 0x12 PUSH0 CALLER PUSH20 0xFFFFFFFFFFFFFFFFFFFFFFFFFFFFFFFFFFFFFFFF AND PUSH20 0xFFFFFFFFFFFFFFFFFFFFFFFFFFFFFFFFFFFFFFFF AND DUP2 MSTORE PUSH1 0x20 ADD SWAP1 DUP2 MSTORE PUSH1 0x20 ADD PUSH0 KECCAK256 SLOAD PUSH2 0x1CFA SWAP1 SWAP2 SWAP1 PUSH4 0xFFFFFFFF AND JUMP JUMPDEST PUSH1 0x12 PUSH0 CALLER PUSH20 0xFFFFFFFFFFFFFFFFFFFFFFFFFFFFFFFFFFFFFFFF AND PUSH20 0xFFFFFFFFFFFFFFFFFFFFFFFFFFFFFFFFFFFFFFFF AND DUP2 MSTORE PUSH1 0x20 ADD SWAP1 DUP2 MSTORE PUSH1 0x20 ADD PUSH0 KECCAK256 DUP2 SWAP1 SSTORE POP PUSH2 0x156D PUSH1 0x15 SLOAD TIMESTAMP PUSH2 0x1CFA SWAP1 SWAP2 SWAP1 PUSH4 0xFFFFFFFF AND JUMP JUMPDEST PUSH1 0x13 PUSH0 CALLER PUSH20 0xFFFFFFFFFFFFFFFFFFFFFFFFFFFFFFFFFFFFFFFF AND PUSH20 0xFFFFFFFFFFFFFFFFFFFFFFFFFFFFFFFFFFFFFFFF AND DUP2 MSTORE PUSH1 0x20 ADD SWAP1 DUP2 MSTORE PUSH1 0x20 ADD PUSH0 KECCAK256 DUP2 SWAP1 SSTORE POP CALLER PUSH20 0xFFFFFFFFFFFFFFFFFFFFFFFFFFFFFFFFFFFFFFFF AND PUSH32 0xDD2A19C3BDD089CBE77C04F5655F83DE0504D6140D12C8667646F55D0557C4DC DUP3 PUSH1 0x13 PUSH0 CALLER PUSH20 0xFFFFFFFFFFFFFFFFFFFFFFFFFFFFFFFFFFFFFFFF AND PUSH20 0xFFFFFFFFFFFFFFFFFFFFFFFFFFFFFFFFFFFFFFFF AND DUP2 MSTORE PUSH1 0x20 ADD SWAP1 DUP2 MSTORE PUSH1 0x20 ADD PUSH0 KECCAK256 SLOAD PUSH1 0x40 MLOAD PUSH2 0x1633 SWAP3 SWAP2 SWAP1 PUSH2 0x2EAF JUMP JUMPDEST PUSH1 0x40 MLOAD DUP1 SWAP2 SUB SWAP1 LOG2 PUSH2 0x1643 PUSH2 0x1AE8 JUMP JUMPDEST POP JUMP JUMPDEST PUSH0 PUSH1 0x5 PUSH0 SWAP1 SLOAD SWAP1 PUSH2 0x100 EXP SWAP1 DIV PUSH20 0xFFFFFFFFFFFFFFFFFFFFFFFFFFFFFFFFFFFFFFFF AND SWAP1 POP SWAP1 JUMP JUMPDEST PUSH1 0xF SLOAD DUP2 JUMP JUMPDEST PUSH11 0xA56FA5B99019A5C8000000 DUP2 JUMP JUMPDEST PUSH1 0xE SLOAD DUP2 JUMP JUMPDEST PUSH1 0x60 PUSH1 0x4 DUP1 SLOAD PUSH2 0x1698 SWAP1 PUSH2 0x2790 JUMP JUMPDEST DUP1 PUSH1 0x1F ADD PUSH1 0x20 DUP1 SWAP2 DIV MUL PUSH1 0x20 ADD PUSH1 0x40 MLOAD SWAP1 DUP2 ADD PUSH1 0x40 MSTORE DUP1 SWAP3 SWAP2 SWAP1 DUP2 DUP2 MSTORE PUSH1 0x20 ADD DUP3 DUP1 SLOAD PUSH2 0x16C4 SWAP1 PUSH2 0x2790 JUMP JUMPDEST DUP1 ISZERO PUSH2 0x170F JUMPI DUP1 PUSH1 0x1F LT PUSH2 0x16E6 JUMPI PUSH2 0x100 DUP1 DUP4 SLOAD DIV MUL DUP4 MSTORE SWAP2 PUSH1 0x20 ADD SWAP2 PUSH2 0x170F JUMP JUMPDEST DUP3 ADD SWAP2 SWAP1 PUSH0 MSTORE PUSH1 0x20 PUSH0 KECCAK256 SWAP1 JUMPDEST DUP2 SLOAD DUP2 MSTORE SWAP1 PUSH1 0x1 ADD SWAP1 PUSH1 0x20 ADD DUP1 DUP4 GT PUSH2 0x16F2 JUMPI DUP3 SWAP1 SUB PUSH1 0x1F AND DUP3 ADD SWAP2 JUMPDEST POP POP POP POP POP SWAP1 POP SWAP1 JUMP JUMPDEST PUSH0 DUP1 PUSH2 0x1723 PUSH2 0x1877 JUMP JUMPDEST SWAP1 POP PUSH2 0x1730 DUP2 DUP6 DUP6 PUSH2 0x1922 JUMP JUMPDEST PUSH1 0x1 SWAP2 POP POP SWAP3 SWAP2 POP POP JUMP JUMPDEST PUSH1 0x9 SLOAD DUP2 JUMP JUMPDEST PUSH1 0x10 SLOAD DUP2 JUMP JUMPDEST PUSH1 0x7 SLOAD DUP2 JUMP JUMPDEST PUSH1 0xA SLOAD DUP2 JUMP JUMPDEST PUSH1 0x11 PUSH0 SWAP1 SLOAD SWAP1 PUSH2 0x100 EXP SWAP1 DIV PUSH1 0xFF AND DUP2 JUMP JUMPDEST PUSH1 0x8 SLOAD DUP2 JUMP JUMPDEST PUSH0 PUSH1 0x1 PUSH0 DUP5 PUSH20 0xFFFFFFFFFFFFFFFFFFFFFFFFFFFFFFFFFFFFFFFF AND PUSH20 0xFFFFFFFFFFFFFFFFFFFFFFFFFFFFFFFFFFFFFFFF AND DUP2 MSTORE PUSH1 0x20 ADD SWAP1 DUP2 MSTORE PUSH1 0x20 ADD PUSH0 KECCAK256 PUSH0 DUP4 PUSH20 0xFFFFFFFFFFFFFFFFFFFFFFFFFFFFFFFFFFFFFFFF AND PUSH20 0xFFFFFFFFFFFFFFFFFFFFFFFFFFFFFFFFFFFFFFFF AND DUP2 MSTORE PUSH1 0x20 ADD SWAP1 DUP2 MSTORE PUSH1 0x20 ADD PUSH0 KECCAK256 SLOAD SWAP1 POP SWAP3 SWAP2 POP POP JUMP JUMPDEST PUSH1 0xC SLOAD DUP2 JUMP JUMPDEST PUSH2 0x17FB PUSH2 0x1A12 JUMP JUMPDEST PUSH0 PUSH20 0xFFFFFFFFFFFFFFFFFFFFFFFFFFFFFFFFFFFFFFFF AND DUP2 PUSH20 0xFFFFFFFFFFFFFFFFFFFFFFFFFFFFFFFFFFFFFFFF AND SUB PUSH2 0x186B JUMPI PUSH0 PUSH1 0x40 MLOAD PUSH32 0x1E4FBDF700000000000000000000000000000000000000000000000000000000 DUP2 MSTORE PUSH1 0x4 ADD PUSH2 0x1862 SWAP2 SWAP1 PUSH2 0x2680 JUMP JUMPDEST PUSH1 0x40 MLOAD DUP1 SWAP2 SUB SWAP1 REVERT JUMPDEST PUSH2 0x1874 DUP2 PUSH2 0x1E1B JUMP JUMPDEST POP JUMP JUMPDEST PUSH0 CALLER SWAP1 POP SWAP1 JUMP JUMPDEST PUSH2 0x188B DUP4 DUP4 DUP4 PUSH1 0x1 PUSH2 0x1EDE JUMP JUMPDEST POP POP POP JUMP JUMPDEST PUSH0 PUSH2 0x189B DUP5 DUP5 PUSH2 0x176B JUMP JUMPDEST SWAP1 POP PUSH32 0xFFFFFFFFFFFFFFFFFFFFFFFFFFFFFFFFFFFFFFFFFFFFFFFFFFFFFFFFFFFFFFFF DUP2 EQ PUSH2 0x191C JUMPI DUP2 DUP2 LT ISZERO PUSH2 0x190D JUMPI DUP3 DUP2 DUP4 PUSH1 0x40 MLOAD PUSH32 0xFB8F41B200000000000000000000000000000000000000000000000000000000 DUP2 MSTORE PUSH1 0x4 ADD PUSH2 0x1904 SWAP4 SWAP3 SWAP2 SWAP1 PUSH2 0x2ED6 JUMP JUMPDEST PUSH1 0x40 MLOAD DUP1 SWAP2 SUB SWAP1 REVERT JUMPDEST PUSH2 0x191B DUP5 DUP5 DUP5 DUP5 SUB PUSH0 PUSH2 0x1EDE JUMP JUMPDEST JUMPDEST POP POP POP POP JUMP JUMPDEST PUSH0 PUSH20 0xFFFFFFFFFFFFFFFFFFFFFFFFFFFFFFFFFFFFFFFF AND DUP4 PUSH20 0xFFFFFFFFFFFFFFFFFFFFFFFFFFFFFFFFFFFFFFFF AND SUB PUSH2 0x1992 JUMPI PUSH0 PUSH1 0x40 MLOAD PUSH32 0x96C6FD1E00000000000000000000000000000000000000000000000000000000 DUP2 MSTORE PUSH1 0x4 ADD PUSH2 0x1989 SWAP2 SWAP1 PUSH2 0x2680 JUMP JUMPDEST PUSH1 0x40 MLOAD DUP1 SWAP2 SUB SWAP1 REVERT JUMPDEST PUSH0 PUSH20 0xFFFFFFFFFFFFFFFFFFFFFFFFFFFFFFFFFFFFFFFF AND DUP3 PUSH20 0xFFFFFFFFFFFFFFFFFFFFFFFFFFFFFFFFFFFFFFFF AND SUB PUSH2 0x1A02 JUMPI PUSH0 PUSH1 0x40 MLOAD PUSH32 0xEC442F0500000000000000000000000000000000000000000000000000000000 DUP2 MSTORE PUSH1 0x4 ADD PUSH2 0x19F9 SWAP2 SWAP1 PUSH2 0x2680 JUMP JUMPDEST PUSH1 0x40 MLOAD DUP1 SWAP2 SUB SWAP1 REVERT JUMPDEST PUSH2 0x1A0D DUP4 DUP4 DUP4 PUSH2 0x20AD JUMP JUMPDEST POP POP POP JUMP JUMPDEST PUSH2 0x1A1A PUSH2 0x1877 JUMP JUMPDEST PUSH20 0xFFFFFFFFFFFFFFFFFFFFFFFFFFFFFFFFFFFFFFFF AND PUSH2 0x1A38 PUSH2 0x1646 JUMP JUMPDEST PUSH20 0xFFFFFFFFFFFFFFFFFFFFFFFFFFFFFFFFFFFFFFFF AND EQ PUSH2 0x1A97 JUMPI PUSH2 0x1A5B PUSH2 0x1877 JUMP JUMPDEST PUSH1 0x40 MLOAD PUSH32 0x118CDAA700000000000000000000000000000000000000000000000000000000 DUP2 MSTORE PUSH1 0x4 ADD PUSH2 0x1A8E SWAP2 SWAP1 PUSH2 0x2680 JUMP JUMPDEST PUSH1 0x40 MLOAD DUP1 SWAP2 SUB SWAP1 REVERT JUMPDEST JUMP JUMPDEST PUSH1 0x2 PUSH1 0x6 SLOAD SUB PUSH2 0x1ADE JUMPI PUSH1 0x40 MLOAD PUSH32 0x8C379A000000000000000000000000000000000000000000000000000000000 DUP2 MSTORE PUSH1 0x4 ADD PUSH2 0x1AD5 SWAP1 PUSH2 0x2F55 JUMP JUMPDEST PUSH1 0x40 MLOAD DUP1 SWAP2 SUB SWAP1 REVERT JUMPDEST PUSH1 0x2 PUSH1 0x6 DUP2 SWAP1 SSTORE POP JUMP JUMPDEST PUSH1 0x1 PUSH1 0x6 DUP2 SWAP1 SSTORE POP JUMP JUMPDEST PUSH0 DUP2 DUP4 PUSH2 0x1AFF SWAP2 SWAP1 PUSH2 0x2FA0 JUMP JUMPDEST SWAP1 POP SWAP3 SWAP2 POP POP JUMP JUMPDEST PUSH0 DUP2 DUP4 PUSH2 0x1B14 SWAP2 SWAP1 PUSH2 0x300E JUMP JUMPDEST SWAP1 POP SWAP3 SWAP2 POP POP JUMP JUMPDEST PUSH0 DUP1 DUP3 GT PUSH2 0x1B5F JUMPI PUSH1 0x40 MLOAD PUSH32 0x8C379A000000000000000000000000000000000000000000000000000000000 DUP2 MSTORE PUSH1 0x4 ADD PUSH2 0x1B56 SWAP1 PUSH2 0x30AE JUMP JUMPDEST PUSH1 0x40 MLOAD DUP1 SWAP2 SUB SWAP1 REVERT JUMPDEST PUSH0 PUSH1 0x8 SLOAD GT PUSH2 0x1BA3 JUMPI PUSH1 0x40 MLOAD PUSH32 0x8C379A000000000000000000000000000000000000000000000000000000000 DUP2 MSTORE PUSH1 0x4 ADD PUSH2 0x1B9A SWAP1 PUSH2 0x313C JUMP JUMPDEST PUSH1 0x40 MLOAD DUP1 SWAP2 SUB SWAP1 REVERT JUMPDEST PUSH1 0x8 SLOAD PUSH1 0xB SLOAD GT ISZERO PUSH2 0x1BEA JUMPI PUSH1 0x40 MLOAD PUSH32 0x8C379A000000000000000000000000000000000000000000000000000000000 DUP2 MSTORE PUSH1 0x4 ADD PUSH2 0x1BE1 SWAP1 PUSH2 0x31CA JUMP JUMPDEST PUSH1 0x40 MLOAD DUP1 SWAP2 SUB SWAP1 REVERT JUMPDEST PUSH0 PUSH2 0x1C02 PUSH1 0x9 SLOAD PUSH1 0xA SLOAD PUSH2 0x22C6 SWAP1 SWAP2 SWAP1 PUSH4 0xFFFFFFFF AND JUMP JUMPDEST SWAP1 POP PUSH0 PUSH2 0x1C42 PUSH2 0x1C31 PUSH1 0x8 SLOAD PUSH2 0x1C23 PUSH1 0xB SLOAD DUP7 PUSH2 0x1AF2 SWAP1 SWAP2 SWAP1 PUSH4 0xFFFFFFFF AND JUMP JUMPDEST PUSH2 0x1B07 SWAP1 SWAP2 SWAP1 PUSH4 0xFFFFFFFF AND JUMP JUMPDEST PUSH1 0x9 SLOAD PUSH2 0x1CFA SWAP1 SWAP2 SWAP1 PUSH4 0xFFFFFFFF AND JUMP JUMPDEST SWAP1 POP PUSH1 0x9 SLOAD DUP2 LT ISZERO DUP1 ISZERO PUSH2 0x1C58 JUMPI POP PUSH1 0xA SLOAD DUP2 GT ISZERO JUMPDEST PUSH2 0x1C97 JUMPI PUSH1 0x40 MLOAD PUSH32 0x8C379A000000000000000000000000000000000000000000000000000000000 DUP2 MSTORE PUSH1 0x4 ADD PUSH2 0x1C8E SWAP1 PUSH2 0x3232 JUMP JUMPDEST PUSH1 0x40 MLOAD DUP1 SWAP2 SUB SWAP1 REVERT JUMPDEST PUSH0 PUSH2 0x1CAB DUP3 DUP7 PUSH2 0x1B07 SWAP1 SWAP2 SWAP1 PUSH4 0xFFFFFFFF AND JUMP JUMPDEST SWAP1 POP PUSH0 DUP2 GT PUSH2 0x1CEF JUMPI PUSH1 0x40 MLOAD PUSH32 0x8C379A000000000000000000000000000000000000000000000000000000000 DUP2 MSTORE PUSH1 0x4 ADD PUSH2 0x1CE6 SWAP1 PUSH2 0x32C0 JUMP JUMPDEST PUSH1 0x40 MLOAD DUP1 SWAP2 SUB SWAP1 REVERT JUMPDEST DUP1 SWAP4 POP POP POP POP SWAP2 SWAP1 POP JUMP JUMPDEST PUSH0 DUP2 DUP4 PUSH2 0x1D07 SWAP2 SWAP1 PUSH2 0x32DE JUMP JUMPDEST SWAP1 POP SWAP3 SWAP2 POP POP JUMP JUMPDEST PUSH0 DUP1 PUSH2 0x1D64 PUSH2 0x1D53 PUSH1 0xD SLOAD PUSH2 0x1D45 PUSH1 0x10 SLOAD PUSH2 0x1D37 PUSH1 0xE SLOAD PUSH1 0xF SLOAD PUSH2 0x22C6 SWAP1 SWAP2 SWAP1 PUSH4 0xFFFFFFFF AND JUMP JUMPDEST PUSH2 0x1AF2 SWAP1 SWAP2 SWAP1 PUSH4 0xFFFFFFFF AND JUMP JUMPDEST PUSH2 0x1B07 SWAP1 SWAP2 SWAP1 PUSH4 0xFFFFFFFF AND JUMP JUMPDEST PUSH1 0xE SLOAD PUSH2 0x1CFA SWAP1 SWAP2 SWAP1 PUSH4 0xFFFFFFFF AND JUMP JUMPDEST SWAP1 POP PUSH1 0xE SLOAD DUP2 LT ISZERO DUP1 ISZERO PUSH2 0x1D7A JUMPI POP PUSH1 0xF SLOAD DUP2 GT ISZERO JUMPDEST PUSH2 0x1DB9 JUMPI PUSH1 0x40 MLOAD PUSH32 0x8C379A000000000000000000000000000000000000000000000000000000000 DUP2 MSTORE PUSH1 0x4 ADD PUSH2 0x1DB0 SWAP1 PUSH2 0x3232 JUMP JUMPDEST PUSH1 0x40 MLOAD DUP1 SWAP2 SUB SWAP1 REVERT JUMPDEST PUSH0 PUSH2 0x1DCD DUP3 DUP6 PUSH2 0x1B07 SWAP1 SWAP2 SWAP1 PUSH4 0xFFFFFFFF AND JUMP JUMPDEST SWAP1 POP PUSH0 DUP2 GT PUSH2 0x1E11 JUMPI PUSH1 0x40 MLOAD PUSH32 0x8C379A000000000000000000000000000000000000000000000000000000000 DUP2 MSTORE PUSH1 0x4 ADD PUSH2 0x1E08 SWAP1 PUSH2 0x32C0 JUMP JUMPDEST PUSH1 0x40 MLOAD DUP1 SWAP2 SUB SWAP1 REVERT JUMPDEST DUP1 SWAP3 POP POP POP SWAP2 SWAP1 POP JUMP JUMPDEST PUSH0 PUSH1 0x5 PUSH0 SWAP1 SLOAD SWAP1 PUSH2 0x100 EXP SWAP1 DIV PUSH20 0xFFFFFFFFFFFFFFFFFFFFFFFFFFFFFFFFFFFFFFFF AND SWAP1 POP DUP2 PUSH1 0x5 PUSH0 PUSH2 0x100 EXP DUP2 SLOAD DUP2 PUSH20 0xFFFFFFFFFFFFFFFFFFFFFFFFFFFFFFFFFFFFFFFF MUL NOT AND SWAP1 DUP4 PUSH20 0xFFFFFFFFFFFFFFFFFFFFFFFFFFFFFFFFFFFFFFFF AND MUL OR SWAP1 SSTORE POP DUP2 PUSH20 0xFFFFFFFFFFFFFFFFFFFFFFFFFFFFFFFFFFFFFFFF AND DUP2 PUSH20 0xFFFFFFFFFFFFFFFFFFFFFFFFFFFFFFFFFFFFFFFF AND PUSH32 0x8BE0079C531659141344CD1FD0A4F28419497F9722A3DAAFE3B4186F6B6457E0 PUSH1 0x40 MLOAD PUSH1 0x40 MLOAD DUP1 SWAP2 SUB SWAP1 LOG3 POP POP JUMP JUMPDEST PUSH0 PUSH20 0xFFFFFFFFFFFFFFFFFFFFFFFFFFFFFFFFFFFFFFFF AND DUP5 PUSH20 0xFFFFFFFFFFFFFFFFFFFFFFFFFFFFFFFFFFFFFFFF AND SUB PUSH2 0x1F4E JUMPI PUSH0 PUSH1 0x40 MLOAD PUSH32 0xE602DF0500000000000000000000000000000000000000000000000000000000 DUP2 MSTORE PUSH1 0x4 ADD PUSH2 0x1F45 SWAP2 SWAP1 PUSH2 0x2680 JUMP JUMPDEST PUSH1 0x40 MLOAD DUP1 SWAP2 SUB SWAP1 REVERT JUMPDEST PUSH0 PUSH20 0xFFFFFFFFFFFFFFFFFFFFFFFFFFFFFFFFFFFFFFFF AND DUP4 PUSH20 0xFFFFFFFFFFFFFFFFFFFFFFFFFFFFFFFFFFFFFFFF AND SUB PUSH2 0x1FBE JUMPI PUSH0 PUSH1 0x40 MLOAD PUSH32 0x94280D6200000000000000000000000000000000000000000000000000000000 DUP2 MSTORE PUSH1 0x4 ADD PUSH2 0x1FB5 SWAP2 SWAP1 PUSH2 0x2680 JUMP JUMPDEST PUSH1 0x40 MLOAD DUP1 SWAP2 SUB SWAP1 REVERT JUMPDEST DUP2 PUSH1 0x1 PUSH0 DUP7 PUSH20 0xFFFFFFFFFFFFFFFFFFFFFFFFFFFFFFFFFFFFFFFF AND PUSH20 0xFFFFFFFFFFFFFFFFFFFFFFFFFFFFFFFFFFFFFFFF AND DUP2 MSTORE PUSH1 0x20 ADD SWAP1 DUP2 MSTORE PUSH1 0x20 ADD PUSH0 KECCAK256 PUSH0 DUP6 PUSH20 0xFFFFFFFFFFFFFFFFFFFFFFFFFFFFFFFFFFFFFFFF AND PUSH20 0xFFFFFFFFFFFFFFFFFFFFFFFFFFFFFFFFFFFFFFFF AND DUP2 MSTORE PUSH1 0x20 ADD SWAP1 DUP2 MSTORE PUSH1 0x20 ADD PUSH0 KECCAK256 DUP2 SWAP1 SSTORE POP DUP1 ISZERO PUSH2 0x20A7 JUMPI DUP3 PUSH20 0xFFFFFFFFFFFFFFFFFFFFFFFFFFFFFFFFFFFFFFFF AND DUP5 PUSH20 0xFFFFFFFFFFFFFFFFFFFFFFFFFFFFFFFFFFFFFFFF AND PUSH32 0x8C5BE1E5EBEC7D5BD14F71427D1E84F3DD0314C0F7B2291E5B200AC8C7C3B925 DUP5 PUSH1 0x40 MLOAD PUSH2 0x209E SWAP2 SWAP1 PUSH2 0x250A JUMP JUMPDEST PUSH1 0x40 MLOAD DUP1 SWAP2 SUB SWAP1 LOG3 JUMPDEST POP POP POP POP JUMP JUMPDEST PUSH0 PUSH20 0xFFFFFFFFFFFFFFFFFFFFFFFFFFFFFFFFFFFFFFFF AND DUP4 PUSH20 0xFFFFFFFFFFFFFFFFFFFFFFFFFFFFFFFFFFFFFFFF AND SUB PUSH2 0x20FD JUMPI DUP1 PUSH1 0x2 PUSH0 DUP3 DUP3 SLOAD PUSH2 0x20F1 SWAP2 SWAP1 PUSH2 0x32DE JUMP JUMPDEST SWAP3 POP POP DUP2 SWAP1 SSTORE POP PUSH2 0x21CB JUMP JUMPDEST PUSH0 DUP1 PUSH0 DUP6 PUSH20 0xFFFFFFFFFFFFFFFFFFFFFFFFFFFFFFFFFFFFFFFF AND PUSH20 0xFFFFFFFFFFFFFFFFFFFFFFFFFFFFFFFFFFFFFFFF AND DUP2 MSTORE PUSH1 0x20 ADD SWAP1 DUP2 MSTORE PUSH1 0x20 ADD PUSH0 KECCAK256 SLOAD SWAP1 POP DUP2 DUP2 LT ISZERO PUSH2 0x2186 JUMPI DUP4 DUP2 DUP4 PUSH1 0x40 MLOAD PUSH32 0xE450D38C00000000000000000000000000000000000000000000000000000000 DUP2 MSTORE PUSH1 0x4 ADD PUSH2 0x217D SWAP4 SWAP3 SWAP2 SWAP1 PUSH2 0x2ED6 JUMP JUMPDEST PUSH1 0x40 MLOAD DUP1 SWAP2 SUB SWAP1 REVERT JUMPDEST DUP2 DUP2 SUB PUSH0 DUP1 DUP7 PUSH20 0xFFFFFFFFFFFFFFFFFFFFFFFFFFFFFFFFFFFFFFFF AND PUSH20 0xFFFFFFFFFFFFFFFFFFFFFFFFFFFFFFFFFFFFFFFF AND DUP2 MSTORE PUSH1 0x20 ADD SWAP1 DUP2 MSTORE PUSH1 0x20 ADD PUSH0 KECCAK256 DUP2 SWAP1 SSTORE POP POP JUMPDEST PUSH0 PUSH20 0xFFFFFFFFFFFFFFFFFFFFFFFFFFFFFFFFFFFFFFFF AND DUP3 PUSH20 0xFFFFFFFFFFFFFFFFFFFFFFFFFFFFFFFFFFFFFFFF AND SUB PUSH2 0x2212 JUMPI DUP1 PUSH1 0x2 PUSH0 DUP3 DUP3 SLOAD SUB SWAP3 POP POP DUP2 SWAP1 SSTORE POP PUSH2 0x225C JUMP JUMPDEST DUP1 PUSH0 DUP1 DUP5 PUSH20 0xFFFFFFFFFFFFFFFFFFFFFFFFFFFFFFFFFFFFFFFF AND PUSH20 0xFFFFFFFFFFFFFFFFFFFFFFFFFFFFFFFFFFFFFFFF AND DUP2 MSTORE PUSH1 0x20 ADD SWAP1 DUP2 MSTORE PUSH1 0x20 ADD PUSH0 KECCAK256 PUSH0 DUP3 DUP3 SLOAD ADD SWAP3 POP POP DUP2 SWAP1 SSTORE POP JUMPDEST DUP2 PUSH20 0xFFFFFFFFFFFFFFFFFFFFFFFFFFFFFFFFFFFFFFFF AND DUP4 PUSH20 0xFFFFFFFFFFFFFFFFFFFFFFFFFFFFFFFFFFFFFFFF AND PUSH32 0xDDF252AD1BE2C89B69C2B068FC378DAA952BA7F163C4A11628F55A4DF523B3EF DUP4 PUSH1 0x40 MLOAD PUSH2 0x22B9 SWAP2 SWAP1 PUSH2 0x250A JUMP JUMPDEST PUSH1 0x40 MLOAD DUP1 SWAP2 SUB SWAP1 LOG3 POP POP POP JUMP JUMPDEST PUSH0 DUP2 DUP4 PUSH2 0x22D3 SWAP2 SWAP1 PUSH2 0x3311 JUMP JUMPDEST SWAP1 POP SWAP3 SWAP2 POP POP JUMP JUMPDEST PUSH0 DUP3 DUP3 MSTORE PUSH1 0x20 DUP3 ADD SWAP1 POP SWAP3 SWAP2 POP POP JUMP JUMPDEST PUSH32 0x44697265637420455448207472616E7366657273206E6F7420616C6C6F776564 PUSH0 DUP3 ADD MSTORE PUSH32 0x2E00000000000000000000000000000000000000000000000000000000000000 PUSH1 0x20 DUP3 ADD MSTORE POP JUMP JUMPDEST PUSH0 PUSH2 0x2345 PUSH1 0x21 DUP4 PUSH2 0x22DB JUMP JUMPDEST SWAP2 POP PUSH2 0x2350 DUP3 PUSH2 0x22EB JUMP JUMPDEST PUSH1 0x40 DUP3 ADD SWAP1 POP SWAP2 SWAP1 POP JUMP JUMPDEST PUSH0 PUSH1 0x20 DUP3 ADD SWAP1 POP DUP2 DUP2 SUB PUSH0 DUP4 ADD MSTORE PUSH2 0x2372 DUP2 PUSH2 0x2339 JUMP JUMPDEST SWAP1 POP SWAP2 SWAP1 POP JUMP JUMPDEST PUSH0 DUP2 MLOAD SWAP1 POP SWAP2 SWAP1 POP JUMP JUMPDEST DUP3 DUP2 DUP4 MCOPY PUSH0 DUP4 DUP4 ADD MSTORE POP POP POP JUMP JUMPDEST PUSH0 PUSH1 0x1F NOT PUSH1 0x1F DUP4 ADD AND SWAP1 POP SWAP2 SWAP1 POP JUMP JUMPDEST PUSH0 PUSH2 0x23AB DUP3 PUSH2 0x2379 JUMP JUMPDEST PUSH2 0x23B5 DUP2 DUP6 PUSH2 0x22DB JUMP JUMPDEST SWAP4 POP PUSH2 0x23C5 DUP2 DUP6 PUSH1 0x20 DUP7 ADD PUSH2 0x2383 JUMP JUMPDEST PUSH2 0x23CE DUP2 PUSH2 0x2391 JUMP JUMPDEST DUP5 ADD SWAP2 POP POP SWAP3 SWAP2 POP POP JUMP JUMPDEST PUSH0 PUSH1 0x20 DUP3 ADD SWAP1 POP DUP2 DUP2 SUB PUSH0 DUP4 ADD MSTORE PUSH2 0x23F1 DUP2 DUP5 PUSH2 0x23A1 JUMP JUMPDEST SWAP1 POP SWAP3 SWAP2 POP POP JUMP JUMPDEST PUSH0 DUP1 REVERT JUMPDEST PUSH0 PUSH20 0xFFFFFFFFFFFFFFFFFFFFFFFFFFFFFFFFFFFFFFFF DUP3 AND SWAP1 POP SWAP2 SWAP1 POP JUMP JUMPDEST PUSH0 PUSH2 0x2426 DUP3 PUSH2 0x23FD JUMP JUMPDEST SWAP1 POP SWAP2 SWAP1 POP JUMP JUMPDEST PUSH2 0x2436 DUP2 PUSH2 0x241C JUMP JUMPDEST DUP2 EQ PUSH2 0x2440 JUMPI PUSH0 DUP1 REVERT JUMPDEST POP JUMP JUMPDEST PUSH0 DUP2 CALLDATALOAD SWAP1 POP PUSH2 0x2451 DUP2 PUSH2 0x242D JUMP JUMPDEST SWAP3 SWAP2 POP POP JUMP JUMPDEST PUSH0 DUP2 SWAP1 POP SWAP2 SWAP1 POP JUMP JUMPDEST PUSH2 0x2469 DUP2 PUSH2 0x2457 JUMP JUMPDEST DUP2 EQ PUSH2 0x2473 JUMPI PUSH0 DUP1 REVERT JUMPDEST POP JUMP JUMPDEST PUSH0 DUP2 CALLDATALOAD SWAP1 POP PUSH2 0x2484 DUP2 PUSH2 0x2460 JUMP JUMPDEST SWAP3 SWAP2 POP POP JUMP JUMPDEST PUSH0 DUP1 PUSH1 0x40 DUP4 DUP6 SUB SLT ISZERO PUSH2 0x24A0 JUMPI PUSH2 0x249F PUSH2 0x23F9 JUMP JUMPDEST JUMPDEST PUSH0 PUSH2 0x24AD DUP6 DUP3 DUP7 ADD PUSH2 0x2443 JUMP JUMPDEST SWAP3 POP POP PUSH1 0x20 PUSH2 0x24BE DUP6 DUP3 DUP7 ADD PUSH2 0x2476 JUMP JUMPDEST SWAP2 POP POP SWAP3 POP SWAP3 SWAP1 POP JUMP JUMPDEST PUSH0 DUP2 ISZERO ISZERO SWAP1 POP SWAP2 SWAP1 POP JUMP JUMPDEST PUSH2 0x24DC DUP2 PUSH2 0x24C8 JUMP JUMPDEST DUP3 MSTORE POP POP JUMP JUMPDEST PUSH0 PUSH1 0x20 DUP3 ADD SWAP1 POP PUSH2 0x24F5 PUSH0 DUP4 ADD DUP5 PUSH2 0x24D3 JUMP JUMPDEST SWAP3 SWAP2 POP POP JUMP JUMPDEST PUSH2 0x2504 DUP2 PUSH2 0x2457 JUMP JUMPDEST DUP3 MSTORE POP POP JUMP JUMPDEST PUSH0 PUSH1 0x20 DUP3 ADD SWAP1 POP PUSH2 0x251D PUSH0 DUP4 ADD DUP5 PUSH2 0x24FB JUMP JUMPDEST SWAP3 SWAP2 POP POP JUMP JUMPDEST PUSH0 PUSH1 0x20 DUP3 DUP5 SUB SLT ISZERO PUSH2 0x2538 JUMPI PUSH2 0x2537 PUSH2 0x23F9 JUMP JUMPDEST JUMPDEST PUSH0 PUSH2 0x2545 DUP5 DUP3 DUP6 ADD PUSH2 0x2443 JUMP JUMPDEST SWAP2 POP POP SWAP3 SWAP2 POP POP JUMP JUMPDEST PUSH0 DUP1 PUSH0 PUSH1 0x60 DUP5 DUP7 SUB SLT ISZERO PUSH2 0x2565 JUMPI PUSH2 0x2564 PUSH2 0x23F9 JUMP JUMPDEST JUMPDEST PUSH0 PUSH2 0x2572 DUP7 DUP3 DUP8 ADD PUSH2 0x2443 JUMP JUMPDEST SWAP4 POP POP PUSH1 0x20 PUSH2 0x2583 DUP7 DUP3 DUP8 ADD PUSH2 0x2443 JUMP JUMPDEST SWAP3 POP POP PUSH1 0x40 PUSH2 0x2594 DUP7 DUP3 DUP8 ADD PUSH2 0x2476 JUMP JUMPDEST SWAP2 POP POP SWAP3 POP SWAP3 POP SWAP3 JUMP JUMPDEST PUSH0 DUP2 SWAP1 POP SWAP2 SWAP1 POP JUMP JUMPDEST PUSH0 PUSH2 0x25C1 PUSH2 0x25BC PUSH2 0x25B7 DUP5 PUSH2 0x23FD JUMP JUMPDEST PUSH2 0x259E JUMP JUMPDEST PUSH2 0x23FD JUMP JUMPDEST SWAP1 POP SWAP2 SWAP1 POP JUMP JUMPDEST PUSH0 PUSH2 0x25D2 DUP3 PUSH2 0x25A7 JUMP JUMPDEST SWAP1 POP SWAP2 SWAP1 POP JUMP JUMPDEST PUSH0 PUSH2 0x25E3 DUP3 PUSH2 0x25C8 JUMP JUMPDEST SWAP1 POP SWAP2 SWAP1 POP JUMP JUMPDEST PUSH2 0x25F3 DUP2 PUSH2 0x25D9 JUMP JUMPDEST DUP3 MSTORE POP POP JUMP JUMPDEST PUSH0 PUSH1 0x20 DUP3 ADD SWAP1 POP PUSH2 0x260C PUSH0 DUP4 ADD DUP5 PUSH2 0x25EA JUMP JUMPDEST SWAP3 SWAP2 POP POP JUMP JUMPDEST PUSH0 PUSH1 0xFF DUP3 AND SWAP1 POP SWAP2 SWAP1 POP JUMP JUMPDEST PUSH2 0x2627 DUP2 PUSH2 0x2612 JUMP JUMPDEST DUP3 MSTORE POP POP JUMP JUMPDEST PUSH0 PUSH1 0x20 DUP3 ADD SWAP1 POP PUSH2 0x2640 PUSH0 DUP4 ADD DUP5 PUSH2 0x261E JUMP JUMPDEST SWAP3 SWAP2 POP POP JUMP JUMPDEST PUSH0 PUSH1 0x20 DUP3 DUP5 SUB SLT ISZERO PUSH2 0x265B JUMPI PUSH2 0x265A PUSH2 0x23F9 JUMP JUMPDEST JUMPDEST PUSH0 PUSH2 0x2668 DUP5 DUP3 DUP6 ADD PUSH2 0x2476 JUMP JUMPDEST SWAP2 POP POP SWAP3 SWAP2 POP POP JUMP JUMPDEST PUSH2 0x267A DUP2 PUSH2 0x241C JUMP JUMPDEST DUP3 MSTORE POP POP JUMP JUMPDEST PUSH0 PUSH1 0x20 DUP3 ADD SWAP1 POP PUSH2 0x2693 PUSH0 DUP4 ADD DUP5 PUSH2 0x2671 JUMP JUMPDEST SWAP3 SWAP2 POP POP JUMP JUMPDEST PUSH32 0x4E487B7100000000000000000000000000000000000000000000000000000000 PUSH0 MSTORE PUSH1 0x21 PUSH1 0x4 MSTORE PUSH1 0x24 PUSH0 REVERT JUMPDEST PUSH1 0x3 DUP2 LT PUSH2 0x26D7 JUMPI PUSH2 0x26D6 PUSH2 0x2699 JUMP JUMPDEST JUMPDEST POP JUMP JUMPDEST PUSH0 DUP2 SWAP1 POP PUSH2 0x26E7 DUP3 PUSH2 0x26C6 JUMP JUMPDEST SWAP2 SWAP1 POP JUMP JUMPDEST PUSH0 PUSH2 0x26F6 DUP3 PUSH2 0x26DA JUMP JUMPDEST SWAP1 POP SWAP2 SWAP1 POP JUMP JUMPDEST PUSH2 0x2706 DUP2 PUSH2 0x26EC JUMP JUMPDEST DUP3 MSTORE POP POP JUMP JUMPDEST PUSH0 PUSH1 0x20 DUP3 ADD SWAP1 POP PUSH2 0x271F PUSH0 DUP4 ADD DUP5 PUSH2 0x26FD JUMP JUMPDEST SWAP3 SWAP2 POP POP JUMP JUMPDEST PUSH0 DUP1 PUSH1 0x40 DUP4 DUP6 SUB SLT ISZERO PUSH2 0x273B JUMPI PUSH2 0x273A PUSH2 0x23F9 JUMP JUMPDEST JUMPDEST PUSH0 PUSH2 0x2748 DUP6 DUP3 DUP7 ADD PUSH2 0x2443 JUMP JUMPDEST SWAP3 POP POP PUSH1 0x20 PUSH2 0x2759 DUP6 DUP3 DUP7 ADD PUSH2 0x2443 JUMP JUMPDEST SWAP2 POP POP SWAP3 POP SWAP3 SWAP1 POP JUMP JUMPDEST PUSH32 0x4E487B7100000000000000000000000000000000000000000000000000000000 PUSH0 MSTORE PUSH1 0x22 PUSH1 0x4 MSTORE PUSH1 0x24 PUSH0 REVERT JUMPDEST PUSH0 PUSH1 0x2 DUP3 DIV SWAP1 POP PUSH1 0x1 DUP3 AND DUP1 PUSH2 0x27A7 JUMPI PUSH1 0x7F DUP3 AND SWAP2 POP JUMPDEST PUSH1 0x20 DUP3 LT DUP2 SUB PUSH2 0x27BA JUMPI PUSH2 0x27B9 PUSH2 0x2763 JUMP JUMPDEST JUMPDEST POP SWAP2 SWAP1 POP JUMP JUMPDEST PUSH32 0x53616C65732074617267657473206E6F7420796574206D65742E000000000000 PUSH0 DUP3 ADD MSTORE POP JUMP JUMPDEST PUSH0 PUSH2 0x27F4 PUSH1 0x1A DUP4 PUSH2 0x22DB JUMP JUMPDEST SWAP2 POP PUSH2 0x27FF DUP3 PUSH2 0x27C0 JUMP JUMPDEST PUSH1 0x20 DUP3 ADD SWAP1 POP SWAP2 SWAP1 POP JUMP JUMPDEST PUSH0 PUSH1 0x20 DUP3 ADD SWAP1 POP DUP2 DUP2 SUB PUSH0 DUP4 ADD MSTORE PUSH2 0x2821 DUP2 PUSH2 0x27E8 JUMP JUMPDEST SWAP1 POP SWAP2 SWAP1 POP JUMP JUMPDEST PUSH32 0x507269766174652053616C652068617320616C72656164792073746172746564 PUSH0 DUP3 ADD MSTORE PUSH32 0x206F7220636F6E636C756465642E000000000000000000000000000000000000 PUSH1 0x20 DUP3 ADD MSTORE POP JUMP JUMPDEST PUSH0 PUSH2 0x2882 PUSH1 0x2E DUP4 PUSH2 0x22DB JUMP JUMPDEST SWAP2 POP PUSH2 0x288D DUP3 PUSH2 0x2828 JUMP JUMPDEST PUSH1 0x40 DUP3 ADD SWAP1 POP SWAP2 SWAP1 POP JUMP JUMPDEST PUSH0 PUSH1 0x20 DUP3 ADD SWAP1 POP DUP2 DUP2 SUB PUSH0 DUP4 ADD MSTORE PUSH2 0x28AF DUP2 PUSH2 0x2876 JUMP JUMPDEST SWAP1 POP SWAP2 SWAP1 POP JUMP JUMPDEST PUSH32 0x4E6F2073616C65206973206163746976652E0000000000000000000000000000 PUSH0 DUP3 ADD MSTORE POP JUMP JUMPDEST PUSH0 PUSH2 0x28EA PUSH1 0x12 DUP4 PUSH2 0x22DB JUMP JUMPDEST SWAP2 POP PUSH2 0x28F5 DUP3 PUSH2 0x28B6 JUMP JUMPDEST PUSH1 0x20 DUP3 ADD SWAP1 POP SWAP2 SWAP1 POP JUMP JUMPDEST PUSH0 PUSH1 0x20 DUP3 ADD SWAP1 POP DUP2 DUP2 SUB PUSH0 DUP4 ADD MSTORE PUSH2 0x2917 DUP2 PUSH2 0x28DE JUMP JUMPDEST SWAP1 POP SWAP2 SWAP1 POP JUMP JUMPDEST PUSH0 DUP2 MLOAD SWAP1 POP PUSH2 0x292C DUP2 PUSH2 0x2460 JUMP JUMPDEST SWAP3 SWAP2 POP POP JUMP JUMPDEST PUSH0 PUSH1 0x20 DUP3 DUP5 SUB SLT ISZERO PUSH2 0x2947 JUMPI PUSH2 0x2946 PUSH2 0x23F9 JUMP JUMPDEST JUMPDEST PUSH0 PUSH2 0x2954 DUP5 DUP3 DUP6 ADD PUSH2 0x291E JUMP JUMPDEST SWAP2 POP POP SWAP3 SWAP2 POP POP JUMP JUMPDEST PUSH32 0x496E76616C69642070726963652066726F6D206F7261636C6500000000000000 PUSH0 DUP3 ADD MSTORE POP JUMP JUMPDEST PUSH0 PUSH2 0x2991 PUSH1 0x19 DUP4 PUSH2 0x22DB JUMP JUMPDEST SWAP2 POP PUSH2 0x299C DUP3 PUSH2 0x295D JUMP JUMPDEST PUSH1 0x20 DUP3 ADD SWAP1 POP SWAP2 SWAP1 POP JUMP JUMPDEST PUSH0 PUSH1 0x20 DUP3 ADD SWAP1 POP DUP2 DUP2 SUB PUSH0 DUP4 ADD MSTORE PUSH2 0x29BE DUP2 PUSH2 0x2985 JUMP JUMPDEST SWAP1 POP SWAP2 SWAP1 POP JUMP JUMPDEST PUSH32 0x507269766174652053616C6520736F6C64206F75742E00000000000000000000 PUSH0 DUP3 ADD MSTORE POP JUMP JUMPDEST PUSH0 PUSH2 0x29F9 PUSH1 0x16 DUP4 PUSH2 0x22DB JUMP JUMPDEST SWAP2 POP PUSH2 0x2A04 DUP3 PUSH2 0x29C5 JUMP JUMPDEST PUSH1 0x20 DUP3 ADD SWAP1 POP SWAP2 SWAP1 POP JUMP JUMPDEST PUSH0 PUSH1 0x20 DUP3 ADD SWAP1 POP DUP2 DUP2 SUB PUSH0 DUP4 ADD MSTORE PUSH2 0x2A26 DUP2 PUSH2 0x29ED JUMP JUMPDEST SWAP1 POP SWAP2 SWAP1 POP JUMP JUMPDEST PUSH32 0x4578636565647320507269766174652053616C6520746F6B656E206C696D6974 PUSH0 DUP3 ADD MSTORE PUSH32 0x2E00000000000000000000000000000000000000000000000000000000000000 PUSH1 0x20 DUP3 ADD MSTORE POP JUMP JUMPDEST PUSH0 PUSH2 0x2A87 PUSH1 0x21 DUP4 PUSH2 0x22DB JUMP JUMPDEST SWAP2 POP PUSH2 0x2A92 DUP3 PUSH2 0x2A2D JUMP JUMPDEST PUSH1 0x40 DUP3 ADD SWAP1 POP SWAP2 SWAP1 POP JUMP JUMPDEST PUSH0 PUSH1 0x20 DUP3 ADD SWAP1 POP DUP2 DUP2 SUB PUSH0 DUP4 ADD MSTORE PUSH2 0x2AB4 DUP2 PUSH2 0x2A7B JUMP JUMPDEST SWAP1 POP SWAP2 SWAP1 POP JUMP JUMPDEST PUSH32 0x5072652D53616C6520736F6C64206F75742E0000000000000000000000000000 PUSH0 DUP3 ADD MSTORE POP JUMP JUMPDEST PUSH0 PUSH2 0x2AEF PUSH1 0x12 DUP4 PUSH2 0x22DB JUMP JUMPDEST SWAP2 POP PUSH2 0x2AFA DUP3 PUSH2 0x2ABB JUMP JUMPDEST PUSH1 0x20 DUP3 ADD SWAP1 POP SWAP2 SWAP1 POP JUMP JUMPDEST PUSH0 PUSH1 0x20 DUP3 ADD SWAP1 POP DUP2 DUP2 SUB PUSH0 DUP4 ADD MSTORE PUSH2 0x2B1C DUP2 PUSH2 0x2AE3 JUMP JUMPDEST SWAP1 POP SWAP2 SWAP1 POP JUMP JUMPDEST PUSH32 0x507572636861736520616D6F756E74206F7574206F66206C696D6974732E0000 PUSH0 DUP3 ADD MSTORE POP JUMP JUMPDEST PUSH0 PUSH2 0x2B57 PUSH1 0x1E DUP4 PUSH2 0x22DB JUMP JUMPDEST SWAP2 POP PUSH2 0x2B62 DUP3 PUSH2 0x2B23 JUMP JUMPDEST PUSH1 0x20 DUP3 ADD SWAP1 POP SWAP2 SWAP1 POP JUMP JUMPDEST PUSH0 PUSH1 0x20 DUP3 ADD SWAP1 POP DUP2 DUP2 SUB PUSH0 DUP4 ADD MSTORE PUSH2 0x2B84 DUP2 PUSH2 0x2B4B JUMP JUMPDEST SWAP1 POP SWAP2 SWAP1 POP JUMP JUMPDEST PUSH32 0x45786365656473205072652D53616C6520746F6B656E206C696D69742E000000 PUSH0 DUP3 ADD MSTORE POP JUMP JUMPDEST PUSH0 PUSH2 0x2BBF PUSH1 0x1D DUP4 PUSH2 0x22DB JUMP JUMPDEST SWAP2 POP PUSH2 0x2BCA DUP3 PUSH2 0x2B8B JUMP JUMPDEST PUSH1 0x20 DUP3 ADD SWAP1 POP SWAP2 SWAP1 POP JUMP JUMPDEST PUSH0 PUSH1 0x20 DUP3 ADD SWAP1 POP DUP2 DUP2 SUB PUSH0 DUP4 ADD MSTORE PUSH2 0x2BEC DUP2 PUSH2 0x2BB3 JUMP JUMPDEST SWAP1 POP SWAP2 SWAP1 POP JUMP JUMPDEST PUSH32 0x56657374696E6720706572696F64206E6F742079657420636F6D706C65746564 PUSH0 DUP3 ADD MSTORE PUSH32 0x2E00000000000000000000000000000000000000000000000000000000000000 PUSH1 0x20 DUP3 ADD MSTORE POP JUMP JUMPDEST PUSH0 PUSH2 0x2C4D PUSH1 0x21 DUP4 PUSH2 0x22DB JUMP JUMPDEST SWAP2 POP PUSH2 0x2C58 DUP3 PUSH2 0x2BF3 JUMP JUMPDEST PUSH1 0x40 DUP3 ADD SWAP1 POP SWAP2 SWAP1 POP JUMP JUMPDEST PUSH0 PUSH1 0x20 DUP3 ADD SWAP1 POP DUP2 DUP2 SUB PUSH0 DUP4 ADD MSTORE PUSH2 0x2C7A DUP2 PUSH2 0x2C41 JUMP JUMPDEST SWAP1 POP SWAP2 SWAP1 POP JUMP JUMPDEST PUSH32 0x4E6F2076657374656420746F6B656E7320746F2072656C656173650000000000 PUSH0 DUP3 ADD MSTORE POP JUMP JUMPDEST PUSH0 PUSH2 0x2CB5 PUSH1 0x1B DUP4 PUSH2 0x22DB JUMP JUMPDEST SWAP2 POP PUSH2 0x2CC0 DUP3 PUSH2 0x2C81 JUMP JUMPDEST PUSH1 0x20 DUP3 ADD SWAP1 POP SWAP2 SWAP1 POP JUMP JUMPDEST PUSH0 PUSH1 0x20 DUP3 ADD SWAP1 POP DUP2 DUP2 SUB PUSH0 DUP4 ADD MSTORE PUSH2 0x2CE2 DUP2 PUSH2 0x2CA9 JUMP JUMPDEST SWAP1 POP SWAP2 SWAP1 POP JUMP JUMPDEST PUSH32 0x507269766174652053616C652073686F756C6420626520636F6E636C75646564 PUSH0 DUP3 ADD MSTORE PUSH32 0x2066697273742E00000000000000000000000000000000000000000000000000 PUSH1 0x20 DUP3 ADD MSTORE POP JUMP JUMPDEST PUSH0 PUSH2 0x2D43 PUSH1 0x27 DUP4 PUSH2 0x22DB JUMP JUMPDEST SWAP2 POP PUSH2 0x2D4E DUP3 PUSH2 0x2CE9 JUMP JUMPDEST PUSH1 0x40 DUP3 ADD SWAP1 POP SWAP2 SWAP1 POP JUMP JUMPDEST PUSH0 PUSH1 0x20 DUP3 ADD SWAP1 POP DUP2 DUP2 SUB PUSH0 DUP4 ADD MSTORE PUSH2 0x2D70 DUP2 PUSH2 0x2D37 JUMP JUMPDEST SWAP1 POP SWAP2 SWAP1 POP JUMP JUMPDEST PUSH32 0x507269766174652053616C6520746172676574206E6F7420726561636865642E PUSH0 DUP3 ADD MSTORE POP JUMP JUMPDEST PUSH0 PUSH2 0x2DAB PUSH1 0x20 DUP4 PUSH2 0x22DB JUMP JUMPDEST SWAP2 POP PUSH2 0x2DB6 DUP3 PUSH2 0x2D77 JUMP JUMPDEST PUSH1 0x20 DUP3 ADD SWAP1 POP SWAP2 SWAP1 POP JUMP JUMPDEST PUSH0 PUSH1 0x20 DUP3 ADD SWAP1 POP DUP2 DUP2 SUB PUSH0 DUP4 ADD MSTORE PUSH2 0x2DD8 DUP2 PUSH2 0x2D9F JUMP JUMPDEST SWAP1 POP SWAP2 SWAP1 POP JUMP JUMPDEST PUSH32 0x416D6F756E74206D7573742062652067726561746572207468616E2030000000 PUSH0 DUP3 ADD MSTORE POP JUMP JUMPDEST PUSH0 PUSH2 0x2E13 PUSH1 0x1D DUP4 PUSH2 0x22DB JUMP JUMPDEST SWAP2 POP PUSH2 0x2E1E DUP3 PUSH2 0x2DDF JUMP JUMPDEST PUSH1 0x20 DUP3 ADD SWAP1 POP SWAP2 SWAP1 POP JUMP JUMPDEST PUSH0 PUSH1 0x20 DUP3 ADD SWAP1 POP DUP2 DUP2 SUB PUSH0 DUP4 ADD MSTORE PUSH2 0x2E40 DUP2 PUSH2 0x2E07 JUMP JUMPDEST SWAP1 POP SWAP2 SWAP1 POP JUMP JUMPDEST PUSH32 0x496E73756666696369656E742062616C616E636520746F207374616B65000000 PUSH0 DUP3 ADD MSTORE POP JUMP JUMPDEST PUSH0 PUSH2 0x2E7B PUSH1 0x1D DUP4 PUSH2 0x22DB JUMP JUMPDEST SWAP2 POP PUSH2 0x2E86 DUP3 PUSH2 0x2E47 JUMP JUMPDEST PUSH1 0x20 DUP3 ADD SWAP1 POP SWAP2 SWAP1 POP JUMP JUMPDEST PUSH0 PUSH1 0x20 DUP3 ADD SWAP1 POP DUP2 DUP2 SUB PUSH0 DUP4 ADD MSTORE PUSH2 0x2EA8 DUP2 PUSH2 0x2E6F JUMP JUMPDEST SWAP1 POP SWAP2 SWAP1 POP JUMP JUMPDEST PUSH0 PUSH1 0x40 DUP3 ADD SWAP1 POP PUSH2 0x2EC2 PUSH0 DUP4 ADD DUP6 PUSH2 0x24FB JUMP JUMPDEST PUSH2 0x2ECF PUSH1 0x20 DUP4 ADD DUP5 PUSH2 0x24FB JUMP JUMPDEST SWAP4 SWAP3 POP POP POP JUMP JUMPDEST PUSH0 PUSH1 0x60 DUP3 ADD SWAP1 POP PUSH2 0x2EE9 PUSH0 DUP4 ADD DUP7 PUSH2 0x2671 JUMP JUMPDEST PUSH2 0x2EF6 PUSH1 0x20 DUP4 ADD DUP6 PUSH2 0x24FB JUMP JUMPDEST PUSH2 0x2F03 PUSH1 0x40 DUP4 ADD DUP5 PUSH2 0x24FB JUMP JUMPDEST SWAP5 SWAP4 POP POP POP POP JUMP JUMPDEST PUSH32 0x5265656E7472616E637947756172643A207265656E7472616E742063616C6C00 PUSH0 DUP3 ADD MSTORE POP JUMP JUMPDEST PUSH0 PUSH2 0x2F3F PUSH1 0x1F DUP4 PUSH2 0x22DB JUMP JUMPDEST SWAP2 POP PUSH2 0x2F4A DUP3 PUSH2 0x2F0B JUMP JUMPDEST PUSH1 0x20 DUP3 ADD SWAP1 POP SWAP2 SWAP1 POP JUMP JUMPDEST PUSH0 PUSH1 0x20 DUP3 ADD SWAP1 POP DUP2 DUP2 SUB PUSH0 DUP4 ADD MSTORE PUSH2 0x2F6C DUP2 PUSH2 0x2F33 JUMP JUMPDEST SWAP1 POP SWAP2 SWAP1 POP JUMP JUMPDEST PUSH32 0x4E487B7100000000000000000000000000000000000000000000000000000000 PUSH0 MSTORE PUSH1 0x11 PUSH1 0x4 MSTORE PUSH1 0x24 PUSH0 REVERT JUMPDEST PUSH0 PUSH2 0x2FAA DUP3 PUSH2 0x2457 JUMP JUMPDEST SWAP2 POP PUSH2 0x2FB5 DUP4 PUSH2 0x2457 JUMP JUMPDEST SWAP3 POP DUP3 DUP3 MUL PUSH2 0x2FC3 DUP2 PUSH2 0x2457 JUMP JUMPDEST SWAP2 POP DUP3 DUP3 DIV DUP5 EQ DUP4 ISZERO OR PUSH2 0x2FDA JUMPI PUSH2 0x2FD9 PUSH2 0x2F73 JUMP JUMPDEST JUMPDEST POP SWAP3 SWAP2 POP POP JUMP JUMPDEST PUSH32 0x4E487B7100000000000000000000000000000000000000000000000000000000 PUSH0 MSTORE PUSH1 0x12 PUSH1 0x4 MSTORE PUSH1 0x24 PUSH0 REVERT JUMPDEST PUSH0 PUSH2 0x3018 DUP3 PUSH2 0x2457 JUMP JUMPDEST SWAP2 POP PUSH2 0x3023 DUP4 PUSH2 0x2457 JUMP JUMPDEST SWAP3 POP DUP3 PUSH2 0x3033 JUMPI PUSH2 0x3032 PUSH2 0x2FE1 JUMP JUMPDEST JUMPDEST DUP3 DUP3 DIV SWAP1 POP SWAP3 SWAP2 POP POP JUMP JUMPDEST PUSH32 0x55534420616D6F756E74206D7573742062652067726561746572207468616E20 PUSH0 DUP3 ADD MSTORE PUSH32 0x3000000000000000000000000000000000000000000000000000000000000000 PUSH1 0x20 DUP3 ADD MSTORE POP JUMP JUMPDEST PUSH0 PUSH2 0x3098 PUSH1 0x21 DUP4 PUSH2 0x22DB JUMP JUMPDEST SWAP2 POP PUSH2 0x30A3 DUP3 PUSH2 0x303E JUMP JUMPDEST PUSH1 0x40 DUP3 ADD SWAP1 POP SWAP2 SWAP1 POP JUMP JUMPDEST PUSH0 PUSH1 0x20 DUP3 ADD SWAP1 POP DUP2 DUP2 SUB PUSH0 DUP4 ADD MSTORE PUSH2 0x30C5 DUP2 PUSH2 0x308C JUMP JUMPDEST SWAP1 POP SWAP2 SWAP1 POP JUMP JUMPDEST PUSH32 0x507269766174652053616C6520746F6B656E73206D7573742062652067726561 PUSH0 DUP3 ADD MSTORE PUSH32 0x746572207468616E203000000000000000000000000000000000000000000000 PUSH1 0x20 DUP3 ADD MSTORE POP JUMP JUMPDEST PUSH0 PUSH2 0x3126 PUSH1 0x2A DUP4 PUSH2 0x22DB JUMP JUMPDEST SWAP2 POP PUSH2 0x3131 DUP3 PUSH2 0x30CC JUMP JUMPDEST PUSH1 0x40 DUP3 ADD SWAP1 POP SWAP2 SWAP1 POP JUMP JUMPDEST PUSH0 PUSH1 0x20 DUP3 ADD SWAP1 POP DUP2 DUP2 SUB PUSH0 DUP4 ADD MSTORE PUSH2 0x3153 DUP2 PUSH2 0x311A JUMP JUMPDEST SWAP1 POP SWAP2 SWAP1 POP JUMP JUMPDEST PUSH32 0x507269766174652053616C6520736F6C6420746F6B656E732065786365656420 PUSH0 DUP3 ADD MSTORE PUSH32 0x617661696C61626C6520746F6B656E7300000000000000000000000000000000 PUSH1 0x20 DUP3 ADD MSTORE POP JUMP JUMPDEST PUSH0 PUSH2 0x31B4 PUSH1 0x30 DUP4 PUSH2 0x22DB JUMP JUMPDEST SWAP2 POP PUSH2 0x31BF DUP3 PUSH2 0x315A JUMP JUMPDEST PUSH1 0x40 DUP3 ADD SWAP1 POP SWAP2 SWAP1 POP JUMP JUMPDEST PUSH0 PUSH1 0x20 DUP3 ADD SWAP1 POP DUP2 DUP2 SUB PUSH0 DUP4 ADD MSTORE PUSH2 0x31E1 DUP2 PUSH2 0x31A8 JUMP JUMPDEST SWAP1 POP SWAP2 SWAP1 POP JUMP JUMPDEST PUSH32 0x496E76616C696420746F6B656E2070726963652063616C63756C617465640000 PUSH0 DUP3 ADD MSTORE POP JUMP JUMPDEST PUSH0 PUSH2 0x321C PUSH1 0x1E DUP4 PUSH2 0x22DB JUMP JUMPDEST SWAP2 POP PUSH2 0x3227 DUP3 PUSH2 0x31E8 JUMP JUMPDEST PUSH1 0x20 DUP3 ADD SWAP1 POP SWAP2 SWAP1 POP JUMP JUMPDEST PUSH0 PUSH1 0x20 DUP3 ADD SWAP1 POP DUP2 DUP2 SUB PUSH0 DUP4 ADD MSTORE PUSH2 0x3249 DUP2 PUSH2 0x3210 JUMP JUMPDEST SWAP1 POP SWAP2 SWAP1 POP JUMP JUMPDEST PUSH32 0x43616C63756C6174656420746F6B656E73206D75737420626520677265617465 PUSH0 DUP3 ADD MSTORE PUSH32 0x72207468616E2030000000000000000000000000000000000000000000000000 PUSH1 0x20 DUP3 ADD MSTORE POP JUMP JUMPDEST PUSH0 PUSH2 0x32AA PUSH1 0x28 DUP4 PUSH2 0x22DB JUMP JUMPDEST SWAP2 POP PUSH2 0x32B5 DUP3 PUSH2 0x3250 JUMP JUMPDEST PUSH1 0x40 DUP3 ADD SWAP1 POP SWAP2 SWAP1 POP JUMP JUMPDEST PUSH0 PUSH1 0x20 DUP3 ADD SWAP1 POP DUP2 DUP2 SUB PUSH0 DUP4 ADD MSTORE PUSH2 0x32D7 DUP2 PUSH2 0x329E JUMP JUMPDEST SWAP1 POP SWAP2 SWAP1 POP JUMP JUMPDEST PUSH0 PUSH2 0x32E8 DUP3 PUSH2 0x2457 JUMP JUMPDEST SWAP2 POP PUSH2 0x32F3 DUP4 PUSH2 0x2457 JUMP JUMPDEST SWAP3 POP DUP3 DUP3 ADD SWAP1 POP DUP1 DUP3 GT ISZERO PUSH2 0x330B JUMPI PUSH2 0x330A PUSH2 0x2F73 JUMP JUMPDEST JUMPDEST SWAP3 SWAP2 POP POP JUMP JUMPDEST PUSH0 PUSH2 0x331B DUP3 PUSH2 0x2457 JUMP JUMPDEST SWAP2 POP PUSH2 0x3326 DUP4 PUSH2 0x2457 JUMP JUMPDEST SWAP3 POP DUP3 DUP3 SUB SWAP1 POP DUP2 DUP2 GT ISZERO PUSH2 0x333E JUMPI PUSH2 0x333D PUSH2 0x2F73 JUMP JUMPDEST JUMPDEST SWAP3 SWAP2 POP POP JUMP INVALID LOG2 PUSH5 0x6970667358 0x22 SLT KECCAK256 PUSH31 0x52FFDDCA16469AC02C372FCB7231CEC9398546DE86C6CE0BC957967AA90081 PUSH5 0x736F6C6343 STOP ADDMOD BYTE STOP CALLER "
				},
				"gasEstimates": {
					"creation": {
						"codeDepositCost": "2635600",
						"executionCost": "infinite",
						"totalCost": "infinite"
					},
					"external": {
						"": "531",
						"TOTAL_SUPPLY()": "392",
						"allowance(address,address)": "infinite",
						"approve(address,uint256)": "infinite",
						"balanceOf(address)": "2875",
						"buyTokens(uint256)": "infinite",
						"decimals()": "406",
						"haltSales()": "infinite",
						"name()": "infinite",
						"owner()": "2627",
						"preSaleEndPrice()": "2470",
						"preSaleSoldTokens()": "2492",
						"preSaleStartPrice()": "2514",
						"preSaleTarget()": "2535",
						"preSaleTokens()": "2516",
						"priceOracle()": "infinite",
						"privateSaleEndPrice()": "2536",
						"privateSaleSoldTokens()": "2558",
						"privateSaleStartPrice()": "2470",
						"privateSaleTarget()": "2514",
						"privateSaleTokens()": "2491",
						"releaseVestedTokens()": "infinite",
						"renounceOwnership()": "infinite",
						"stage()": "2598",
						"stakeDuration()": "2492",
						"stakeTokens(uint256)": "infinite",
						"startPreSale()": "infinite",
						"startPrivateSale()": "infinite",
						"symbol()": "infinite",
						"totalSupply()": "2478",
						"transfer(address,uint256)": "infinite",
						"transferFrom(address,address,uint256)": "infinite",
						"transferOwnership(address)": "infinite",
						"vestingBalance(address)": "2870",
						"vestingDuration()": "2538",
						"vestingReleaseTime(address)": "2848",
						"withdrawFunds()": "infinite"
					},
					"internal": {
						"calculatePreSaleTokens(uint256)": "infinite",
						"calculatePrivateSaleTokens(uint256)": "infinite"
					}
				},
				"methodIdentifiers": {
					"TOTAL_SUPPLY()": "902d55a5",
					"allowance(address,address)": "dd62ed3e",
					"approve(address,uint256)": "095ea7b3",
					"balanceOf(address)": "70a08231",
					"buyTokens(uint256)": "3610724e",
					"decimals()": "313ce567",
					"haltSales()": "32c85ac0",
					"name()": "06fdde03",
					"owner()": "8da5cb5b",
					"preSaleEndPrice()": "8f7713ff",
					"preSaleSoldTokens()": "b68ed11f",
					"preSaleStartPrice()": "920168b3",
					"preSaleTarget()": "e6bd92b9",
					"preSaleTokens()": "0fe83bb8",
					"priceOracle()": "2630c12f",
					"privateSaleEndPrice()": "bda95633",
					"privateSaleSoldTokens()": "5fb3b944",
					"privateSaleStartPrice()": "b0e68630",
					"privateSaleTarget()": "ba20cf4c",
					"privateSaleTokens()": "c552e04b",
					"releaseVestedTokens()": "54dd1da4",
					"renounceOwnership()": "715018a6",
					"stage()": "c040e6b8",
					"stakeDuration()": "40f02ab6",
					"stakeTokens(uint256)": "7547c7a3",
					"startPreSale()": "55dd574c",
					"startPrivateSale()": "338dbf59",
					"symbol()": "95d89b41",
					"totalSupply()": "18160ddd",
					"transfer(address,uint256)": "a9059cbb",
					"transferFrom(address,address,uint256)": "23b872dd",
					"transferOwnership(address)": "f2fde38b",
					"vestingBalance(address)": "192399d1",
					"vestingDuration()": "1514617e",
					"vestingReleaseTime(address)": "2b1cbc38",
					"withdrawFunds()": "24600fc3"
				}
			},
			"storageLayout": {
				"storage": [
					{
						"astId": 372,
						"contract": "contracts/bettoken.sol:Bettoken",
						"label": "_balances",
						"offset": 0,
						"slot": "0",
						"type": "t_mapping(t_address,t_uint256)"
					},
					{
						"astId": 378,
						"contract": "contracts/bettoken.sol:Bettoken",
						"label": "_allowances",
						"offset": 0,
						"slot": "1",
						"type": "t_mapping(t_address,t_mapping(t_address,t_uint256))"
					},
					{
						"astId": 380,
						"contract": "contracts/bettoken.sol:Bettoken",
						"label": "_totalSupply",
						"offset": 0,
						"slot": "2",
						"type": "t_uint256"
					},
					{
						"astId": 382,
						"contract": "contracts/bettoken.sol:Bettoken",
						"label": "_name",
						"offset": 0,
						"slot": "3",
						"type": "t_string_storage"
					},
					{
						"astId": 384,
						"contract": "contracts/bettoken.sol:Bettoken",
						"label": "_symbol",
						"offset": 0,
						"slot": "4",
						"type": "t_string_storage"
					},
					{
						"astId": 8,
						"contract": "contracts/bettoken.sol:Bettoken",
						"label": "_owner",
						"offset": 0,
						"slot": "5",
						"type": "t_address"
					},
					{
						"astId": 295,
						"contract": "contracts/bettoken.sol:Bettoken",
						"label": "_status",
						"offset": 0,
						"slot": "6",
						"type": "t_uint256"
					},
					{
						"astId": 1345,
						"contract": "contracts/bettoken.sol:Bettoken",
						"label": "privateSaleTarget",
						"offset": 0,
						"slot": "7",
						"type": "t_uint256"
					},
					{
						"astId": 1352,
						"contract": "contracts/bettoken.sol:Bettoken",
						"label": "privateSaleTokens",
						"offset": 0,
						"slot": "8",
						"type": "t_uint256"
					},
					{
						"astId": 1359,
						"contract": "contracts/bettoken.sol:Bettoken",
						"label": "privateSaleStartPrice",
						"offset": 0,
						"slot": "9",
						"type": "t_uint256"
					},
					{
						"astId": 1366,
						"contract": "contracts/bettoken.sol:Bettoken",
						"label": "privateSaleEndPrice",
						"offset": 0,
						"slot": "10",
						"type": "t_uint256"
					},
					{
						"astId": 1369,
						"contract": "contracts/bettoken.sol:Bettoken",
						"label": "privateSaleSoldTokens",
						"offset": 0,
						"slot": "11",
						"type": "t_uint256"
					},
					{
						"astId": 1376,
						"contract": "contracts/bettoken.sol:Bettoken",
						"label": "preSaleTarget",
						"offset": 0,
						"slot": "12",
						"type": "t_uint256"
					},
					{
						"astId": 1383,
						"contract": "contracts/bettoken.sol:Bettoken",
						"label": "preSaleTokens",
						"offset": 0,
						"slot": "13",
						"type": "t_uint256"
					},
					{
						"astId": 1390,
						"contract": "contracts/bettoken.sol:Bettoken",
						"label": "preSaleStartPrice",
						"offset": 0,
						"slot": "14",
						"type": "t_uint256"
					},
					{
						"astId": 1397,
						"contract": "contracts/bettoken.sol:Bettoken",
						"label": "preSaleEndPrice",
						"offset": 0,
						"slot": "15",
						"type": "t_uint256"
					},
					{
						"astId": 1400,
						"contract": "contracts/bettoken.sol:Bettoken",
						"label": "preSaleSoldTokens",
						"offset": 0,
						"slot": "16",
						"type": "t_uint256"
					},
					{
						"astId": 1409,
						"contract": "contracts/bettoken.sol:Bettoken",
						"label": "stage",
						"offset": 0,
						"slot": "17",
						"type": "t_enum(SaleStage)1404"
					},
					{
						"astId": 1413,
						"contract": "contracts/bettoken.sol:Bettoken",
						"label": "vestingBalance",
						"offset": 0,
						"slot": "18",
						"type": "t_mapping(t_address,t_uint256)"
					},
					{
						"astId": 1417,
						"contract": "contracts/bettoken.sol:Bettoken",
						"label": "vestingReleaseTime",
						"offset": 0,
						"slot": "19",
						"type": "t_mapping(t_address,t_uint256)"
					},
					{
						"astId": 1420,
						"contract": "contracts/bettoken.sol:Bettoken",
						"label": "vestingDuration",
						"offset": 0,
						"slot": "20",
						"type": "t_uint256"
					},
					{
						"astId": 1423,
						"contract": "contracts/bettoken.sol:Bettoken",
						"label": "stakeDuration",
						"offset": 0,
						"slot": "21",
						"type": "t_uint256"
					},
					{
						"astId": 1426,
						"contract": "contracts/bettoken.sol:Bettoken",
						"label": "priceOracle",
						"offset": 0,
						"slot": "22",
						"type": "t_contract(IPriceOracle)1322"
					}
				],
				"types": {
					"t_address": {
						"encoding": "inplace",
						"label": "address",
						"numberOfBytes": "20"
					},
					"t_contract(IPriceOracle)1322": {
						"encoding": "inplace",
						"label": "contract IPriceOracle",
						"numberOfBytes": "20"
					},
					"t_enum(SaleStage)1404": {
						"encoding": "inplace",
						"label": "enum Bettoken.SaleStage",
						"numberOfBytes": "1"
					},
					"t_mapping(t_address,t_mapping(t_address,t_uint256))": {
						"encoding": "mapping",
						"key": "t_address",
						"label": "mapping(address => mapping(address => uint256))",
						"numberOfBytes": "32",
						"value": "t_mapping(t_address,t_uint256)"
					},
					"t_mapping(t_address,t_uint256)": {
						"encoding": "mapping",
						"key": "t_address",
						"label": "mapping(address => uint256)",
						"numberOfBytes": "32",
						"value": "t_uint256"
					},
					"t_string_storage": {
						"encoding": "bytes",
						"label": "string",
						"numberOfBytes": "32"
					},
					"t_uint256": {
						"encoding": "inplace",
						"label": "uint256",
						"numberOfBytes": "32"
					}
				}
			},
			"userdoc": {
				"kind": "user",
				"methods": {},
				"version": 1
			}
		}
	}
}