{
	"contracts/bet.sol": {
		"Bettoken": {
			"abi": [
				{
					"inputs": [],
					"stateMutability": "nonpayable",
					"type": "constructor"
				},
				{
					"inputs": [
						{
							"internalType": "address",
							"name": "spender",
							"type": "address"
						},
						{
							"internalType": "uint256",
							"name": "allowance",
							"type": "uint256"
						},
						{
							"internalType": "uint256",
							"name": "needed",
							"type": "uint256"
						}
					],
					"name": "ERC20InsufficientAllowance",
					"type": "error"
				},
				{
					"inputs": [
						{
							"internalType": "address",
							"name": "sender",
							"type": "address"
						},
						{
							"internalType": "uint256",
							"name": "balance",
							"type": "uint256"
						},
						{
							"internalType": "uint256",
							"name": "needed",
							"type": "uint256"
						}
					],
					"name": "ERC20InsufficientBalance",
					"type": "error"
				},
				{
					"inputs": [
						{
							"internalType": "address",
							"name": "approver",
							"type": "address"
						}
					],
					"name": "ERC20InvalidApprover",
					"type": "error"
				},
				{
					"inputs": [
						{
							"internalType": "address",
							"name": "receiver",
							"type": "address"
						}
					],
					"name": "ERC20InvalidReceiver",
					"type": "error"
				},
				{
					"inputs": [
						{
							"internalType": "address",
							"name": "sender",
							"type": "address"
						}
					],
					"name": "ERC20InvalidSender",
					"type": "error"
				},
				{
					"inputs": [
						{
							"internalType": "address",
							"name": "spender",
							"type": "address"
						}
					],
					"name": "ERC20InvalidSpender",
					"type": "error"
				},
				{
					"inputs": [
						{
							"internalType": "address",
							"name": "owner",
							"type": "address"
						}
					],
					"name": "OwnableInvalidOwner",
					"type": "error"
				},
				{
					"inputs": [
						{
							"internalType": "address",
							"name": "account",
							"type": "address"
						}
					],
					"name": "OwnableUnauthorizedAccount",
					"type": "error"
				},
				{
					"anonymous": false,
					"inputs": [
						{
							"indexed": true,
							"internalType": "address",
							"name": "affiliate",
							"type": "address"
						},
						{
							"indexed": false,
							"internalType": "uint256",
							"name": "reward",
							"type": "uint256"
						}
					],
					"name": "AffiliateRewardPaid",
					"type": "event"
				},
				{
					"anonymous": false,
					"inputs": [
						{
							"indexed": true,
							"internalType": "address",
							"name": "owner",
							"type": "address"
						},
						{
							"indexed": true,
							"internalType": "address",
							"name": "spender",
							"type": "address"
						},
						{
							"indexed": false,
							"internalType": "uint256",
							"name": "value",
							"type": "uint256"
						}
					],
					"name": "Approval",
					"type": "event"
				},
				{
					"anonymous": false,
					"inputs": [
						{
							"indexed": false,
							"internalType": "uint256",
							"name": "amount",
							"type": "uint256"
						}
					],
					"name": "ETHWithdrawn",
					"type": "event"
				},
				{
					"anonymous": false,
					"inputs": [
						{
							"indexed": true,
							"internalType": "address",
							"name": "previousOwner",
							"type": "address"
						},
						{
							"indexed": true,
							"internalType": "address",
							"name": "newOwner",
							"type": "address"
						}
					],
					"name": "OwnershipTransferred",
					"type": "event"
				},
				{
					"anonymous": false,
					"inputs": [
						{
							"indexed": false,
							"internalType": "address",
							"name": "account",
							"type": "address"
						}
					],
					"name": "Paused",
					"type": "event"
				},
				{
					"anonymous": false,
					"inputs": [],
					"name": "PreSaleEnded",
					"type": "event"
				},
				{
					"anonymous": false,
					"inputs": [
						{
							"indexed": false,
							"internalType": "uint256",
							"name": "startTime",
							"type": "uint256"
						}
					],
					"name": "PreSaleStarted",
					"type": "event"
				},
				{
					"anonymous": false,
					"inputs": [
						{
							"indexed": true,
							"internalType": "address",
							"name": "buyer",
							"type": "address"
						},
						{
							"indexed": false,
							"internalType": "uint256",
							"name": "amount",
							"type": "uint256"
						}
					],
					"name": "PrivateSale",
					"type": "event"
				},
				{
					"anonymous": false,
					"inputs": [],
					"name": "PrivateSaleEnded",
					"type": "event"
				},
				{
					"anonymous": false,
					"inputs": [
						{
							"indexed": false,
							"internalType": "uint256",
							"name": "affiliateRewardPercentage",
							"type": "uint256"
						},
						{
							"indexed": false,
							"internalType": "uint256",
							"name": "startTime",
							"type": "uint256"
						}
					],
					"name": "PrivateSaleStarted",
					"type": "event"
				},
				{
					"anonymous": false,
					"inputs": [
						{
							"indexed": true,
							"internalType": "address",
							"name": "staker",
							"type": "address"
						},
						{
							"indexed": false,
							"internalType": "uint256",
							"name": "amount",
							"type": "uint256"
						},
						{
							"indexed": false,
							"internalType": "uint256",
							"name": "releaseTime",
							"type": "uint256"
						}
					],
					"name": "TokensStaked",
					"type": "event"
				},
				{
					"anonymous": false,
					"inputs": [
						{
							"indexed": false,
							"internalType": "uint256",
							"name": "amount",
							"type": "uint256"
						}
					],
					"name": "TokensWithdrawn",
					"type": "event"
				},
				{
					"anonymous": false,
					"inputs": [
						{
							"indexed": true,
							"internalType": "address",
							"name": "from",
							"type": "address"
						},
						{
							"indexed": true,
							"internalType": "address",
							"name": "to",
							"type": "address"
						},
						{
							"indexed": false,
							"internalType": "uint256",
							"name": "value",
							"type": "uint256"
						}
					],
					"name": "Transfer",
					"type": "event"
				},
				{
					"anonymous": false,
					"inputs": [
						{
							"indexed": false,
							"internalType": "address",
							"name": "account",
							"type": "address"
						}
					],
					"name": "Unpaused",
					"type": "event"
				},
				{
					"anonymous": false,
					"inputs": [
						{
							"indexed": true,
							"internalType": "address",
							"name": "beneficiary",
							"type": "address"
						},
						{
							"indexed": false,
							"internalType": "uint256",
							"name": "amount",
							"type": "uint256"
						}
					],
					"name": "VestedTokensReleased",
					"type": "event"
				},
				{
					"inputs": [],
					"name": "TOTAL_SUPPLY",
					"outputs": [
						{
							"internalType": "uint256",
							"name": "",
							"type": "uint256"
						}
					],
					"stateMutability": "view",
					"type": "function"
				},
				{
					"inputs": [],
					"name": "affiliateRewardPercentage",
					"outputs": [
						{
							"internalType": "uint256",
							"name": "",
							"type": "uint256"
						}
					],
					"stateMutability": "view",
					"type": "function"
				},
				{
					"inputs": [
						{
							"internalType": "address",
							"name": "owner",
							"type": "address"
						},
						{
							"internalType": "address",
							"name": "spender",
							"type": "address"
						}
					],
					"name": "allowance",
					"outputs": [
						{
							"internalType": "uint256",
							"name": "",
							"type": "uint256"
						}
					],
					"stateMutability": "view",
					"type": "function"
				},
				{
					"inputs": [
						{
							"internalType": "address",
							"name": "spender",
							"type": "address"
						},
						{
							"internalType": "uint256",
							"name": "value",
							"type": "uint256"
						}
					],
					"name": "approve",
					"outputs": [
						{
							"internalType": "bool",
							"name": "",
							"type": "bool"
						}
					],
					"stateMutability": "nonpayable",
					"type": "function"
				},
				{
					"inputs": [
						{
							"internalType": "address",
							"name": "account",
							"type": "address"
						}
					],
					"name": "balanceOf",
					"outputs": [
						{
							"internalType": "uint256",
							"name": "",
							"type": "uint256"
						}
					],
					"stateMutability": "view",
					"type": "function"
				},
				{
					"inputs": [
						{
							"internalType": "uint256",
							"name": "usdAmount",
							"type": "uint256"
						}
					],
					"name": "buyTokensPreSale",
					"outputs": [],
					"stateMutability": "payable",
					"type": "function"
				},
				{
					"inputs": [
						{
							"internalType": "uint256",
							"name": "usdAmount",
							"type": "uint256"
						}
					],
					"name": "buyTokensPrivateSale",
					"outputs": [],
					"stateMutability": "payable",
					"type": "function"
				},
				{
					"inputs": [
						{
							"internalType": "uint256",
							"name": "usdAmount",
							"type": "uint256"
						}
					],
					"name": "calculateTokensPreSale",
					"outputs": [
						{
							"internalType": "uint256",
							"name": "",
							"type": "uint256"
						}
					],
					"stateMutability": "view",
					"type": "function"
				},
				{
					"inputs": [
						{
							"internalType": "uint256",
							"name": "usdAmount",
							"type": "uint256"
						}
					],
					"name": "calculateTokensPrivateSale",
					"outputs": [
						{
							"internalType": "uint256",
							"name": "",
							"type": "uint256"
						}
					],
					"stateMutability": "view",
					"type": "function"
				},
				{
					"inputs": [],
					"name": "decimals",
					"outputs": [
						{
							"internalType": "uint8",
							"name": "",
							"type": "uint8"
						}
					],
					"stateMutability": "view",
					"type": "function"
				},
				{
					"inputs": [],
					"name": "endPreSale",
					"outputs": [],
					"stateMutability": "nonpayable",
					"type": "function"
				},
				{
					"inputs": [],
					"name": "endPrivateSale",
					"outputs": [],
					"stateMutability": "nonpayable",
					"type": "function"
				},
				{
					"inputs": [],
					"name": "maxPurchaseAmountPreSale",
					"outputs": [
						{
							"internalType": "uint256",
							"name": "",
							"type": "uint256"
						}
					],
					"stateMutability": "view",
					"type": "function"
				},
				{
					"inputs": [],
					"name": "minPurchaseAmountPreSale",
					"outputs": [
						{
							"internalType": "uint256",
							"name": "",
							"type": "uint256"
						}
					],
					"stateMutability": "view",
					"type": "function"
				},
				{
					"inputs": [],
					"name": "name",
					"outputs": [
						{
							"internalType": "string",
							"name": "",
							"type": "string"
						}
					],
					"stateMutability": "view",
					"type": "function"
				},
				{
					"inputs": [],
					"name": "owner",
					"outputs": [
						{
							"internalType": "address",
							"name": "",
							"type": "address"
						}
					],
					"stateMutability": "view",
					"type": "function"
				},
				{
					"inputs": [],
					"name": "paused",
					"outputs": [
						{
							"internalType": "bool",
							"name": "",
							"type": "bool"
						}
					],
					"stateMutability": "view",
					"type": "function"
				},
				{
					"inputs": [],
					"name": "preSaleActive",
					"outputs": [
						{
							"internalType": "bool",
							"name": "",
							"type": "bool"
						}
					],
					"stateMutability": "view",
					"type": "function"
				},
				{
					"inputs": [],
					"name": "preSaleEndPrice",
					"outputs": [
						{
							"internalType": "uint256",
							"name": "",
							"type": "uint256"
						}
					],
					"stateMutability": "view",
					"type": "function"
				},
				{
					"inputs": [],
					"name": "preSaleSoldTokens",
					"outputs": [
						{
							"internalType": "uint256",
							"name": "",
							"type": "uint256"
						}
					],
					"stateMutability": "view",
					"type": "function"
				},
				{
					"inputs": [],
					"name": "preSaleStartPrice",
					"outputs": [
						{
							"internalType": "uint256",
							"name": "",
							"type": "uint256"
						}
					],
					"stateMutability": "view",
					"type": "function"
				},
				{
					"inputs": [],
					"name": "preSaleStartTime",
					"outputs": [
						{
							"internalType": "uint256",
							"name": "",
							"type": "uint256"
						}
					],
					"stateMutability": "view",
					"type": "function"
				},
				{
					"inputs": [],
					"name": "preSaleTargetFunds",
					"outputs": [
						{
							"internalType": "uint256",
							"name": "",
							"type": "uint256"
						}
					],
					"stateMutability": "view",
					"type": "function"
				},
				{
					"inputs": [],
					"name": "preSaleTokens",
					"outputs": [
						{
							"internalType": "uint256",
							"name": "",
							"type": "uint256"
						}
					],
					"stateMutability": "view",
					"type": "function"
				},
				{
					"inputs": [],
					"name": "privateSaleActive",
					"outputs": [
						{
							"internalType": "bool",
							"name": "",
							"type": "bool"
						}
					],
					"stateMutability": "view",
					"type": "function"
				},
				{
					"inputs": [],
					"name": "privateSaleEndPrice",
					"outputs": [
						{
							"internalType": "uint256",
							"name": "",
							"type": "uint256"
						}
					],
					"stateMutability": "view",
					"type": "function"
				},
				{
					"inputs": [],
					"name": "privateSaleSoldTokens",
					"outputs": [
						{
							"internalType": "uint256",
							"name": "",
							"type": "uint256"
						}
					],
					"stateMutability": "view",
					"type": "function"
				},
				{
					"inputs": [],
					"name": "privateSaleStartPrice",
					"outputs": [
						{
							"internalType": "uint256",
							"name": "",
							"type": "uint256"
						}
					],
					"stateMutability": "view",
					"type": "function"
				},
				{
					"inputs": [],
					"name": "privateSaleStartTime",
					"outputs": [
						{
							"internalType": "uint256",
							"name": "",
							"type": "uint256"
						}
					],
					"stateMutability": "view",
					"type": "function"
				},
				{
					"inputs": [],
					"name": "privateSaleTokens",
					"outputs": [
						{
							"internalType": "uint256",
							"name": "",
							"type": "uint256"
						}
					],
					"stateMutability": "view",
					"type": "function"
				},
				{
					"inputs": [],
					"name": "renounceOwnership",
					"outputs": [],
					"stateMutability": "nonpayable",
					"type": "function"
				},
				{
					"inputs": [],
					"name": "startPreSale",
					"outputs": [],
					"stateMutability": "nonpayable",
					"type": "function"
				},
				{
					"inputs": [
						{
							"internalType": "uint256",
							"name": "_affiliateRewardPercentage",
							"type": "uint256"
						}
					],
					"name": "startPrivateSale",
					"outputs": [],
					"stateMutability": "nonpayable",
					"type": "function"
				},
				{
					"inputs": [],
					"name": "symbol",
					"outputs": [
						{
							"internalType": "string",
							"name": "",
							"type": "string"
						}
					],
					"stateMutability": "view",
					"type": "function"
				},
				{
					"inputs": [],
					"name": "totalSupply",
					"outputs": [
						{
							"internalType": "uint256",
							"name": "",
							"type": "uint256"
						}
					],
					"stateMutability": "view",
					"type": "function"
				},
				{
					"inputs": [
						{
							"internalType": "address",
							"name": "to",
							"type": "address"
						},
						{
							"internalType": "uint256",
							"name": "value",
							"type": "uint256"
						}
					],
					"name": "transfer",
					"outputs": [
						{
							"internalType": "bool",
							"name": "",
							"type": "bool"
						}
					],
					"stateMutability": "nonpayable",
					"type": "function"
				},
				{
					"inputs": [
						{
							"internalType": "address",
							"name": "from",
							"type": "address"
						},
						{
							"internalType": "address",
							"name": "to",
							"type": "address"
						},
						{
							"internalType": "uint256",
							"name": "value",
							"type": "uint256"
						}
					],
					"name": "transferFrom",
					"outputs": [
						{
							"internalType": "bool",
							"name": "",
							"type": "bool"
						}
					],
					"stateMutability": "nonpayable",
					"type": "function"
				},
				{
					"inputs": [
						{
							"internalType": "address",
							"name": "newOwner",
							"type": "address"
						}
					],
					"name": "transferOwnership",
					"outputs": [],
					"stateMutability": "nonpayable",
					"type": "function"
				},
				{
					"inputs": [
						{
							"internalType": "address",
							"name": "",
							"type": "address"
						}
					],
					"name": "vestingSchedules",
					"outputs": [
						{
							"internalType": "uint256",
							"name": "totalAmount",
							"type": "uint256"
						},
						{
							"internalType": "uint256",
							"name": "releasedAmount",
							"type": "uint256"
						},
						{
							"internalType": "uint256",
							"name": "startTime",
							"type": "uint256"
						},
						{
							"internalType": "uint256",
							"name": "duration",
							"type": "uint256"
						},
						{
							"internalType": "uint256",
							"name": "interval",
							"type": "uint256"
						}
					],
					"stateMutability": "view",
					"type": "function"
				},
				{
					"inputs": [],
					"name": "withdrawETH",
					"outputs": [],
					"stateMutability": "nonpayable",
					"type": "function"
				},
				{
					"inputs": [],
					"name": "withdrawTokens",
					"outputs": [],
					"stateMutability": "nonpayable",
					"type": "function"
				}
			],
			"devdoc": {
				"errors": {
					"ERC20InsufficientAllowance(address,uint256,uint256)": [
						{
							"details": "Indicates a failure with the `spender`’s `allowance`. Used in transfers.",
							"params": {
								"allowance": "Amount of tokens a `spender` is allowed to operate with.",
								"needed": "Minimum amount required to perform a transfer.",
								"spender": "Address that may be allowed to operate on tokens without being their owner."
							}
						}
					],
					"ERC20InsufficientBalance(address,uint256,uint256)": [
						{
							"details": "Indicates an error related to the current `balance` of a `sender`. Used in transfers.",
							"params": {
								"balance": "Current balance for the interacting account.",
								"needed": "Minimum amount required to perform a transfer.",
								"sender": "Address whose tokens are being transferred."
							}
						}
					],
					"ERC20InvalidApprover(address)": [
						{
							"details": "Indicates a failure with the `approver` of a token to be approved. Used in approvals.",
							"params": {
								"approver": "Address initiating an approval operation."
							}
						}
					],
					"ERC20InvalidReceiver(address)": [
						{
							"details": "Indicates a failure with the token `receiver`. Used in transfers.",
							"params": {
								"receiver": "Address to which tokens are being transferred."
							}
						}
					],
					"ERC20InvalidSender(address)": [
						{
							"details": "Indicates a failure with the token `sender`. Used in transfers.",
							"params": {
								"sender": "Address whose tokens are being transferred."
							}
						}
					],
					"ERC20InvalidSpender(address)": [
						{
							"details": "Indicates a failure with the `spender` to be approved. Used in approvals.",
							"params": {
								"spender": "Address that may be allowed to operate on tokens without being their owner."
							}
						}
					],
					"OwnableInvalidOwner(address)": [
						{
							"details": "The owner is not a valid owner account. (eg. `address(0)`)"
						}
					],
					"OwnableUnauthorizedAccount(address)": [
						{
							"details": "The caller account is not authorized to perform an operation."
						}
					]
				},
				"events": {
					"Approval(address,address,uint256)": {
						"details": "Emitted when the allowance of a `spender` for an `owner` is set by a call to {approve}. `value` is the new allowance."
					},
					"Paused(address)": {
						"details": "Emitted when the pause is triggered by `account`."
					},
					"Transfer(address,address,uint256)": {
						"details": "Emitted when `value` tokens are moved from one account (`from`) to another (`to`). Note that `value` may be zero."
					},
					"Unpaused(address)": {
						"details": "Emitted when the pause is lifted by `account`."
					}
				},
				"kind": "dev",
				"methods": {
					"allowance(address,address)": {
						"details": "See {IERC20-allowance}."
					},
					"approve(address,uint256)": {
						"details": "See {IERC20-approve}. NOTE: If `value` is the maximum `uint256`, the allowance is not updated on `transferFrom`. This is semantically equivalent to an infinite approval. Requirements: - `spender` cannot be the zero address."
					},
					"balanceOf(address)": {
						"details": "See {IERC20-balanceOf}."
					},
					"buyTokensPreSale(uint256)": {
						"details": "Pre-Sale sırasında token satın alımını gerçekleştirir."
					},
					"buyTokensPrivateSale(uint256)": {
						"details": "Private Sale sırasında token satın alımını gerçekleştirir."
					},
					"calculateTokensPreSale(uint256)": {
						"details": "Pre-Sale için token fiyatını USD cinsinden hesaplar.",
						"params": {
							"usdAmount": "Satın alınacak token miktarının hesaplanacağı USD miktarı."
						},
						"returns": {
							"_0": "Satın alınacak token miktarı."
						}
					},
					"calculateTokensPrivateSale(uint256)": {
						"details": "Private Sale için token fiyatını USD cinsinden hesaplar."
					},
					"decimals()": {
						"details": "Returns the number of decimals used to get its user representation. For example, if `decimals` equals `2`, a balance of `505` tokens should be displayed to a user as `5.05` (`505 / 10 ** 2`). Tokens usually opt for a value of 18, imitating the relationship between Ether and Wei. This is the default value returned by this function, unless it's overridden. NOTE: This information is only used for _display_ purposes: it in no way affects any of the arithmetic of the contract, including {IERC20-balanceOf} and {IERC20-transfer}."
					},
					"endPreSale()": {
						"details": "Pre-Sale'i sonlandırır."
					},
					"endPrivateSale()": {
						"details": "Private Sale'i sonlandırır."
					},
					"name()": {
						"details": "Returns the name of the token."
					},
					"owner()": {
						"details": "Returns the address of the current owner."
					},
					"paused()": {
						"details": "Returns true if the contract is paused, and false otherwise."
					},
					"renounceOwnership()": {
						"details": "Leaves the contract without owner. It will not be possible to call `onlyOwner` functions. Can only be called by the current owner. NOTE: Renouncing ownership will leave the contract without an owner, thereby disabling any functionality that is only available to the owner."
					},
					"startPreSale()": {
						"details": "Pre-Sale'i başlatır."
					},
					"startPrivateSale(uint256)": {
						"details": "Private Sale'i başlatır ve affiliate ödül yüzdesini belirler.",
						"params": {
							"_affiliateRewardPercentage": "Affiliate ödül yüzdesi."
						}
					},
					"symbol()": {
						"details": "Returns the symbol of the token, usually a shorter version of the name."
					},
					"totalSupply()": {
						"details": "See {IERC20-totalSupply}."
					},
					"transfer(address,uint256)": {
						"details": "See {IERC20-transfer}. Requirements: - `to` cannot be the zero address. - the caller must have a balance of at least `value`."
					},
					"transferFrom(address,address,uint256)": {
						"details": "See {IERC20-transferFrom}. Emits an {Approval} event indicating the updated allowance. This is not required by the EIP. See the note at the beginning of {ERC20}. NOTE: Does not update the allowance if the current allowance is the maximum `uint256`. Requirements: - `from` and `to` cannot be the zero address. - `from` must have a balance of at least `value`. - the caller must have allowance for ``from``'s tokens of at least `value`."
					},
					"transferOwnership(address)": {
						"details": "Transfers ownership of the contract to a new account (`newOwner`). Can only be called by the current owner."
					},
					"withdrawETH()": {
						"details": "Kontratta bulunan ETH'yi çekmeye yarar."
					},
					"withdrawTokens()": {
						"details": "Kontratta bulunan tokenları çekmeye yarar."
					}
				},
				"version": 1
			},
			"evm": {
				"assembly": "    /* \"contracts/bet.sol\":286:8300  contract Bettoken is ERC20, Ownable, ReentrancyGuard, Pausable {... */\n  mstore(0x40, 0x80)\n    /* \"contracts/bet.sol\":523:544  38_835_764 * 10 ** 18 */\n  0x201fcafc2577d298500000\n    /* \"contracts/bet.sol\":488:544  uint256 public privateSaleTokens = 38_835_764 * 10 ** 18 */\n  0x08\n  sstore\n    /* \"contracts/bet.sol\":589:605  0.001 * 10 ** 18 */\n  0x038d7ea4c68000\n    /* \"contracts/bet.sol\":550:605  uint256 public privateSaleStartPrice = 0.001 * 10 ** 18 */\n  0x09\n  sstore\n    /* \"contracts/bet.sol\":682:699  0.0505 * 10 ** 18 */\n  0xb3697b81284000\n    /* \"contracts/bet.sol\":645:699  uint256 public privateSaleEndPrice = 0.0505 * 10 ** 18 */\n  0x0a\n  sstore\n    /* \"contracts/bet.sol\":773:774  0 */\n  0x00\n    /* \"contracts/bet.sol\":734:774  uint256 public privateSaleSoldTokens = 0 */\n  0x0b\n  sstore\n    /* \"contracts/bet.sol\":1054:1076  161_164_236 * 10 ** 18 */\n  0x854fdabd6aa1d32fb00000\n    /* \"contracts/bet.sol\":1023:1076  uint256 public preSaleTokens = 161_164_236 * 10 ** 18 */\n  0x0e\n  sstore\n    /* \"contracts/bet.sol\":1167:1188  19_000_000 * 10 ** 18 */\n  0x0fb768105935a2f3000000\n    /* \"contracts/bet.sol\":1131:1188  uint256 public preSaleTargetFunds = 19_000_000 * 10 ** 18 */\n  0x0f\n  sstore\n    /* \"contracts/bet.sol\":1272:1289  0.0505 * 10 ** 18 */\n  0xb3697b81284000\n    /* \"contracts/bet.sol\":1237:1289  uint256 public preSaleStartPrice = 0.0505 * 10 ** 18 */\n  0x10\n  sstore\n    /* \"contracts/bet.sol\":1361:1375  0.1 * 10 ** 18 */\n  0x016345785d8a0000\n    /* \"contracts/bet.sol\":1328:1375  uint256 public preSaleEndPrice = 0.1 * 10 ** 18 */\n  0x11\n  sstore\n    /* \"contracts/bet.sol\":1443:1444  0 */\n  0x00\n    /* \"contracts/bet.sol\":1408:1444  uint256 public preSaleSoldTokens = 0 */\n  0x12\n  sstore\n    /* \"contracts/bet.sol\":1548:1553  false */\n  0x00\n    /* \"contracts/bet.sol\":1520:1553  bool public preSaleActive = false */\n  0x14\n  exp(0x0100, 0x00)\n  dup2\n  sload\n  dup2\n  0xff\n  mul\n  not\n  and\n  swap1\n  dup4\n  iszero\n  iszero\n  mul\n  or\n  swap1\n  sstore\n  pop\n    /* \"contracts/bet.sol\":1665:1679  100 * 10 ** 18 */\n  0x056bc75e2d63100000\n    /* \"contracts/bet.sol\":1623:1679  uint256 public minPurchaseAmountPreSale = 100 * 10 ** 18 */\n  0x15\n  sstore\n    /* \"contracts/bet.sol\":1769:1784  3000 * 10 ** 18 */\n  0xa2a15d09519be00000\n    /* \"contracts/bet.sol\":1727:1784  uint256 public maxPurchaseAmountPreSale = 3000 * 10 ** 18 */\n  0x16\n  sstore\n    /* \"contracts/bet.sol\":2177:2182  false */\n  0x00\n    /* \"contracts/bet.sol\":2145:2182  bool public privateSaleActive = false */\n  0x18\n  exp(0x0100, 0x00)\n  dup2\n  sload\n  dup2\n  0xff\n  mul\n  not\n  and\n  swap1\n  dup4\n  iszero\n  iszero\n  mul\n  or\n  swap1\n  sstore\n  pop\n    /* \"contracts/bet.sol\":2836:2947  constructor() ERC20(\"Bettoken\", \"BETT\") Ownable(msg.sender) {... */\n  callvalue\n  dup1\n  iszero\n  tag_1\n  jumpi\n  0x00\n  dup1\n  revert\ntag_1:\n  pop\n    /* \"contracts/bet.sol\":2884:2894  msg.sender */\n  caller\n    /* \"@openzeppelin/contracts/token/ERC20/ERC20.sol\":1896:2009  constructor(string memory name_, string memory symbol_) {... */\n  mload(0x40)\n  dup1\n  0x40\n  add\n  0x40\n  mstore\n  dup1\n  0x08\n  dup2\n  mstore\n  0x20\n  add\n  0x426574746f6b656e000000000000000000000000000000000000000000000000\n  dup2\n  mstore\n  pop\n  mload(0x40)\n  dup1\n  0x40\n  add\n  0x40\n  mstore\n  dup1\n  0x04\n  dup2\n  mstore\n  0x20\n  add\n  0x4245545400000000000000000000000000000000000000000000000000000000\n  dup2\n  mstore\n  pop\n    /* \"@openzeppelin/contracts/token/ERC20/ERC20.sol\":1970:1975  name_ */\n  dup2\n    /* \"@openzeppelin/contracts/token/ERC20/ERC20.sol\":1962:1967  _name */\n  0x03\n    /* \"@openzeppelin/contracts/token/ERC20/ERC20.sol\":1962:1975  _name = name_ */\n  swap1\n  dup2\n  tag_8\n  swap2\n  swap1\n  tag_9\n  jump\t// in\ntag_8:\n  pop\n    /* \"@openzeppelin/contracts/token/ERC20/ERC20.sol\":1995:2002  symbol_ */\n  dup1\n    /* \"@openzeppelin/contracts/token/ERC20/ERC20.sol\":1985:1992  _symbol */\n  0x04\n    /* \"@openzeppelin/contracts/token/ERC20/ERC20.sol\":1985:2002  _symbol = symbol_ */\n  swap1\n  dup2\n  tag_10\n  swap2\n  swap1\n  tag_9\n  jump\t// in\ntag_10:\n  pop\n    /* \"@openzeppelin/contracts/token/ERC20/ERC20.sol\":1896:2009  constructor(string memory name_, string memory symbol_) {... */\n  pop\n  pop\n    /* \"@openzeppelin/contracts/access/Ownable.sol\":1297:1298  0 */\n  0x00\n    /* \"@openzeppelin/contracts/access/Ownable.sol\":1273:1299  initialOwner == address(0) */\n  0xffffffffffffffffffffffffffffffffffffffff\n  and\n    /* \"@openzeppelin/contracts/access/Ownable.sol\":1273:1285  initialOwner */\n  dup2\n    /* \"@openzeppelin/contracts/access/Ownable.sol\":1273:1299  initialOwner == address(0) */\n  0xffffffffffffffffffffffffffffffffffffffff\n  and\n  sub\n    /* \"@openzeppelin/contracts/access/Ownable.sol\":1269:1364  if (initialOwner == address(0)) {... */\n  tag_12\n  jumpi\n    /* \"@openzeppelin/contracts/access/Ownable.sol\":1350:1351  0 */\n  0x00\n    /* \"@openzeppelin/contracts/access/Ownable.sol\":1322:1353  OwnableInvalidOwner(address(0)) */\n  mload(0x40)\n  0x1e4fbdf700000000000000000000000000000000000000000000000000000000\n  dup2\n  mstore\n  0x04\n  add\n  tag_13\n  swap2\n  swap1\n  tag_14\n  jump\t// in\ntag_13:\n  mload(0x40)\n  dup1\n  swap2\n  sub\n  swap1\n  revert\n    /* \"@openzeppelin/contracts/access/Ownable.sol\":1269:1364  if (initialOwner == address(0)) {... */\ntag_12:\n    /* \"@openzeppelin/contracts/access/Ownable.sol\":1373:1405  _transferOwnership(initialOwner) */\n  tag_15\n    /* \"@openzeppelin/contracts/access/Ownable.sol\":1392:1404  initialOwner */\n  dup2\n    /* \"@openzeppelin/contracts/access/Ownable.sol\":1373:1391  _transferOwnership */\n  shl(0x20, tag_16)\n    /* \"@openzeppelin/contracts/access/Ownable.sol\":1373:1405  _transferOwnership(initialOwner) */\n  0x20\n  shr\n  jump\t// in\ntag_15:\n    /* \"@openzeppelin/contracts/access/Ownable.sol\":1225:1412  constructor(address initialOwner) {... */\n  pop\n    /* \"@openzeppelin/contracts/security/ReentrancyGuard.sol\":1716:1717  1 */\n  0x01\n    /* \"@openzeppelin/contracts/security/ReentrancyGuard.sol\":1821:1828  _status */\n  0x06\n    /* \"@openzeppelin/contracts/security/ReentrancyGuard.sol\":1821:1843  _status = _NOT_ENTERED */\n  dup2\n  swap1\n  sstore\n  pop\n    /* \"@openzeppelin/contracts/security/Pausable.sol\":1006:1011  false */\n  0x00\n    /* \"@openzeppelin/contracts/security/Pausable.sol\":996:1003  _paused */\n  0x07\n  0x00\n    /* \"@openzeppelin/contracts/security/Pausable.sol\":996:1011  _paused = false */\n  0x0100\n  exp\n  dup2\n  sload\n  dup2\n  0xff\n  mul\n  not\n  and\n  swap1\n  dup4\n  iszero\n  iszero\n  mul\n  or\n  swap1\n  sstore\n  pop\n    /* \"contracts/bet.sol\":2906:2940  _mint(address(this), TOTAL_SUPPLY) */\n  tag_20\n    /* \"contracts/bet.sol\":2920:2924  this */\n  address\n    /* \"contracts/bet.sol\":424:446  200_000_000 * 10 ** 18 */\n  0xa56fa5b99019a5c8000000\n    /* \"contracts/bet.sol\":2906:2911  _mint */\n  shl(0x20, tag_21)\n    /* \"contracts/bet.sol\":2906:2940  _mint(address(this), TOTAL_SUPPLY) */\n  0x20\n  shr\n  jump\t// in\ntag_20:\n    /* \"contracts/bet.sol\":286:8300  contract Bettoken is ERC20, Ownable, ReentrancyGuard, Pausable {... */\n  jump(tag_22)\n    /* \"@openzeppelin/contracts/access/Ownable.sol\":2912:3099  function _transferOwnership(address newOwner) internal virtual {... */\ntag_16:\n    /* \"@openzeppelin/contracts/access/Ownable.sol\":2985:3001  address oldOwner */\n  0x00\n    /* \"@openzeppelin/contracts/access/Ownable.sol\":3004:3010  _owner */\n  0x05\n  0x00\n  swap1\n  sload\n  swap1\n  0x0100\n  exp\n  swap1\n  div\n  0xffffffffffffffffffffffffffffffffffffffff\n  and\n    /* \"@openzeppelin/contracts/access/Ownable.sol\":2985:3010  address oldOwner = _owner */\n  swap1\n  pop\n    /* \"@openzeppelin/contracts/access/Ownable.sol\":3029:3037  newOwner */\n  dup2\n    /* \"@openzeppelin/contracts/access/Ownable.sol\":3020:3026  _owner */\n  0x05\n  0x00\n    /* \"@openzeppelin/contracts/access/Ownable.sol\":3020:3037  _owner = newOwner */\n  0x0100\n  exp\n  dup2\n  sload\n  dup2\n  0xffffffffffffffffffffffffffffffffffffffff\n  mul\n  not\n  and\n  swap1\n  dup4\n  0xffffffffffffffffffffffffffffffffffffffff\n  and\n  mul\n  or\n  swap1\n  sstore\n  pop\n    /* \"@openzeppelin/contracts/access/Ownable.sol\":3083:3091  newOwner */\n  dup2\n    /* \"@openzeppelin/contracts/access/Ownable.sol\":3052:3092  OwnershipTransferred(oldOwner, newOwner) */\n  0xffffffffffffffffffffffffffffffffffffffff\n  and\n    /* \"@openzeppelin/contracts/access/Ownable.sol\":3073:3081  oldOwner */\n  dup2\n    /* \"@openzeppelin/contracts/access/Ownable.sol\":3052:3092  OwnershipTransferred(oldOwner, newOwner) */\n  0xffffffffffffffffffffffffffffffffffffffff\n  and\n  0x8be0079c531659141344cd1fd0a4f28419497f9722a3daafe3b4186f6b6457e0\n  mload(0x40)\n  mload(0x40)\n  dup1\n  swap2\n  sub\n  swap1\n  log3\n    /* \"@openzeppelin/contracts/access/Ownable.sol\":2975:3099  {... */\n  pop\n    /* \"@openzeppelin/contracts/access/Ownable.sol\":2912:3099  function _transferOwnership(address newOwner) internal virtual {... */\n  pop\n  jump\t// out\n    /* \"@openzeppelin/contracts/token/ERC20/ERC20.sol\":7721:7929  function _mint(address account, uint256 value) internal {... */\ntag_21:\n    /* \"@openzeppelin/contracts/token/ERC20/ERC20.sol\":7810:7811  0 */\n  0x00\n    /* \"@openzeppelin/contracts/token/ERC20/ERC20.sol\":7791:7812  account == address(0) */\n  0xffffffffffffffffffffffffffffffffffffffff\n  and\n    /* \"@openzeppelin/contracts/token/ERC20/ERC20.sol\":7791:7798  account */\n  dup3\n    /* \"@openzeppelin/contracts/token/ERC20/ERC20.sol\":7791:7812  account == address(0) */\n  0xffffffffffffffffffffffffffffffffffffffff\n  and\n  sub\n    /* \"@openzeppelin/contracts/token/ERC20/ERC20.sol\":7787:7878  if (account == address(0)) {... */\n  tag_25\n  jumpi\n    /* \"@openzeppelin/contracts/token/ERC20/ERC20.sol\":7864:7865  0 */\n  0x00\n    /* \"@openzeppelin/contracts/token/ERC20/ERC20.sol\":7835:7867  ERC20InvalidReceiver(address(0)) */\n  mload(0x40)\n  0xec442f0500000000000000000000000000000000000000000000000000000000\n  dup2\n  mstore\n  0x04\n  add\n  tag_26\n  swap2\n  swap1\n  tag_14\n  jump\t// in\ntag_26:\n  mload(0x40)\n  dup1\n  swap2\n  sub\n  swap1\n  revert\n    /* \"@openzeppelin/contracts/token/ERC20/ERC20.sol\":7787:7878  if (account == address(0)) {... */\ntag_25:\n    /* \"@openzeppelin/contracts/token/ERC20/ERC20.sol\":7887:7922  _update(address(0), account, value) */\n  tag_27\n    /* \"@openzeppelin/contracts/token/ERC20/ERC20.sol\":7903:7904  0 */\n  0x00\n    /* \"@openzeppelin/contracts/token/ERC20/ERC20.sol\":7907:7914  account */\n  dup4\n    /* \"@openzeppelin/contracts/token/ERC20/ERC20.sol\":7916:7921  value */\n  dup4\n    /* \"@openzeppelin/contracts/token/ERC20/ERC20.sol\":7887:7894  _update */\n  shl(0x20, tag_28)\n    /* \"@openzeppelin/contracts/token/ERC20/ERC20.sol\":7887:7922  _update(address(0), account, value) */\n  0x20\n  shr\n  jump\t// in\ntag_27:\n    /* \"@openzeppelin/contracts/token/ERC20/ERC20.sol\":7721:7929  function _mint(address account, uint256 value) internal {... */\n  pop\n  pop\n  jump\t// out\n    /* \"@openzeppelin/contracts/token/ERC20/ERC20.sol\":6271:7378  function _update(address from, address to, uint256 value) internal virtual {... */\ntag_28:\n    /* \"@openzeppelin/contracts/token/ERC20/ERC20.sol\":6376:6377  0 */\n  0x00\n    /* \"@openzeppelin/contracts/token/ERC20/ERC20.sol\":6360:6378  from == address(0) */\n  0xffffffffffffffffffffffffffffffffffffffff\n  and\n    /* \"@openzeppelin/contracts/token/ERC20/ERC20.sol\":6360:6364  from */\n  dup4\n    /* \"@openzeppelin/contracts/token/ERC20/ERC20.sol\":6360:6378  from == address(0) */\n  0xffffffffffffffffffffffffffffffffffffffff\n  and\n  sub\n    /* \"@openzeppelin/contracts/token/ERC20/ERC20.sol\":6356:6896  if (from == address(0)) {... */\n  tag_30\n  jumpi\n    /* \"@openzeppelin/contracts/token/ERC20/ERC20.sol\":6512:6517  value */\n  dup1\n    /* \"@openzeppelin/contracts/token/ERC20/ERC20.sol\":6496:6508  _totalSupply */\n  0x02\n  0x00\n    /* \"@openzeppelin/contracts/token/ERC20/ERC20.sol\":6496:6517  _totalSupply += value */\n  dup3\n  dup3\n  sload\n  tag_31\n  swap2\n  swap1\n  tag_32\n  jump\t// in\ntag_31:\n  swap3\n  pop\n  pop\n  dup2\n  swap1\n  sstore\n  pop\n    /* \"@openzeppelin/contracts/token/ERC20/ERC20.sol\":6356:6896  if (from == address(0)) {... */\n  jump(tag_33)\ntag_30:\n    /* \"@openzeppelin/contracts/token/ERC20/ERC20.sol\":6548:6567  uint256 fromBalance */\n  0x00\n    /* \"@openzeppelin/contracts/token/ERC20/ERC20.sol\":6570:6579  _balances */\n  dup1\n    /* \"@openzeppelin/contracts/token/ERC20/ERC20.sol\":6570:6585  _balances[from] */\n  0x00\n    /* \"@openzeppelin/contracts/token/ERC20/ERC20.sol\":6580:6584  from */\n  dup6\n    /* \"@openzeppelin/contracts/token/ERC20/ERC20.sol\":6570:6585  _balances[from] */\n  0xffffffffffffffffffffffffffffffffffffffff\n  and\n  0xffffffffffffffffffffffffffffffffffffffff\n  and\n  dup2\n  mstore\n  0x20\n  add\n  swap1\n  dup2\n  mstore\n  0x20\n  add\n  0x00\n  keccak256\n  sload\n    /* \"@openzeppelin/contracts/token/ERC20/ERC20.sol\":6548:6585  uint256 fromBalance = _balances[from] */\n  swap1\n  pop\n    /* \"@openzeppelin/contracts/token/ERC20/ERC20.sol\":6617:6622  value */\n  dup2\n    /* \"@openzeppelin/contracts/token/ERC20/ERC20.sol\":6603:6614  fromBalance */\n  dup2\n    /* \"@openzeppelin/contracts/token/ERC20/ERC20.sol\":6603:6622  fromBalance < value */\n  lt\n    /* \"@openzeppelin/contracts/token/ERC20/ERC20.sol\":6599:6714  if (fromBalance < value) {... */\n  iszero\n  tag_34\n  jumpi\n    /* \"@openzeppelin/contracts/token/ERC20/ERC20.sol\":6674:6678  from */\n  dup4\n    /* \"@openzeppelin/contracts/token/ERC20/ERC20.sol\":6680:6691  fromBalance */\n  dup2\n    /* \"@openzeppelin/contracts/token/ERC20/ERC20.sol\":6693:6698  value */\n  dup4\n    /* \"@openzeppelin/contracts/token/ERC20/ERC20.sol\":6649:6699  ERC20InsufficientBalance(from, fromBalance, value) */\n  mload(0x40)\n  0xe450d38c00000000000000000000000000000000000000000000000000000000\n  dup2\n  mstore\n  0x04\n  add\n  tag_35\n  swap4\n  swap3\n  swap2\n  swap1\n  tag_36\n  jump\t// in\ntag_35:\n  mload(0x40)\n  dup1\n  swap2\n  sub\n  swap1\n  revert\n    /* \"@openzeppelin/contracts/token/ERC20/ERC20.sol\":6599:6714  if (fromBalance < value) {... */\ntag_34:\n    /* \"@openzeppelin/contracts/token/ERC20/ERC20.sol\":6866:6871  value */\n  dup2\n    /* \"@openzeppelin/contracts/token/ERC20/ERC20.sol\":6852:6863  fromBalance */\n  dup2\n    /* \"@openzeppelin/contracts/token/ERC20/ERC20.sol\":6852:6871  fromBalance - value */\n  sub\n    /* \"@openzeppelin/contracts/token/ERC20/ERC20.sol\":6834:6843  _balances */\n  0x00\n    /* \"@openzeppelin/contracts/token/ERC20/ERC20.sol\":6834:6849  _balances[from] */\n  dup1\n    /* \"@openzeppelin/contracts/token/ERC20/ERC20.sol\":6844:6848  from */\n  dup7\n    /* \"@openzeppelin/contracts/token/ERC20/ERC20.sol\":6834:6849  _balances[from] */\n  0xffffffffffffffffffffffffffffffffffffffff\n  and\n  0xffffffffffffffffffffffffffffffffffffffff\n  and\n  dup2\n  mstore\n  0x20\n  add\n  swap1\n  dup2\n  mstore\n  0x20\n  add\n  0x00\n  keccak256\n    /* \"@openzeppelin/contracts/token/ERC20/ERC20.sol\":6834:6871  _balances[from] = fromBalance - value */\n  dup2\n  swap1\n  sstore\n  pop\n    /* \"@openzeppelin/contracts/token/ERC20/ERC20.sol\":6534:6896  {... */\n  pop\n    /* \"@openzeppelin/contracts/token/ERC20/ERC20.sol\":6356:6896  if (from == address(0)) {... */\ntag_33:\n    /* \"@openzeppelin/contracts/token/ERC20/ERC20.sol\":6924:6925  0 */\n  0x00\n    /* \"@openzeppelin/contracts/token/ERC20/ERC20.sol\":6910:6926  to == address(0) */\n  0xffffffffffffffffffffffffffffffffffffffff\n  and\n    /* \"@openzeppelin/contracts/token/ERC20/ERC20.sol\":6910:6912  to */\n  dup3\n    /* \"@openzeppelin/contracts/token/ERC20/ERC20.sol\":6910:6926  to == address(0) */\n  0xffffffffffffffffffffffffffffffffffffffff\n  and\n  sub\n    /* \"@openzeppelin/contracts/token/ERC20/ERC20.sol\":6906:7331  if (to == address(0)) {... */\n  tag_37\n  jumpi\n    /* \"@openzeppelin/contracts/token/ERC20/ERC20.sol\":7089:7094  value */\n  dup1\n    /* \"@openzeppelin/contracts/token/ERC20/ERC20.sol\":7073:7085  _totalSupply */\n  0x02\n  0x00\n    /* \"@openzeppelin/contracts/token/ERC20/ERC20.sol\":7073:7094  _totalSupply -= value */\n  dup3\n  dup3\n  sload\n  sub\n  swap3\n  pop\n  pop\n  dup2\n  swap1\n  sstore\n  pop\n    /* \"@openzeppelin/contracts/token/ERC20/ERC20.sol\":6906:7331  if (to == address(0)) {... */\n  jump(tag_38)\ntag_37:\n    /* \"@openzeppelin/contracts/token/ERC20/ERC20.sol\":7301:7306  value */\n  dup1\n    /* \"@openzeppelin/contracts/token/ERC20/ERC20.sol\":7284:7293  _balances */\n  0x00\n    /* \"@openzeppelin/contracts/token/ERC20/ERC20.sol\":7284:7297  _balances[to] */\n  dup1\n    /* \"@openzeppelin/contracts/token/ERC20/ERC20.sol\":7294:7296  to */\n  dup5\n    /* \"@openzeppelin/contracts/token/ERC20/ERC20.sol\":7284:7297  _balances[to] */\n  0xffffffffffffffffffffffffffffffffffffffff\n  and\n  0xffffffffffffffffffffffffffffffffffffffff\n  and\n  dup2\n  mstore\n  0x20\n  add\n  swap1\n  dup2\n  mstore\n  0x20\n  add\n  0x00\n  keccak256\n  0x00\n    /* \"@openzeppelin/contracts/token/ERC20/ERC20.sol\":7284:7306  _balances[to] += value */\n  dup3\n  dup3\n  sload\n  add\n  swap3\n  pop\n  pop\n  dup2\n  swap1\n  sstore\n  pop\n    /* \"@openzeppelin/contracts/token/ERC20/ERC20.sol\":6906:7331  if (to == address(0)) {... */\ntag_38:\n    /* \"@openzeppelin/contracts/token/ERC20/ERC20.sol\":7361:7363  to */\n  dup2\n    /* \"@openzeppelin/contracts/token/ERC20/ERC20.sol\":7346:7371  Transfer(from, to, value) */\n  0xffffffffffffffffffffffffffffffffffffffff\n  and\n    /* \"@openzeppelin/contracts/token/ERC20/ERC20.sol\":7355:7359  from */\n  dup4\n    /* \"@openzeppelin/contracts/token/ERC20/ERC20.sol\":7346:7371  Transfer(from, to, value) */\n  0xffffffffffffffffffffffffffffffffffffffff\n  and\n  0xddf252ad1be2c89b69c2b068fc378daa952ba7f163c4a11628f55a4df523b3ef\n    /* \"@openzeppelin/contracts/token/ERC20/ERC20.sol\":7365:7370  value */\n  dup4\n    /* \"@openzeppelin/contracts/token/ERC20/ERC20.sol\":7346:7371  Transfer(from, to, value) */\n  mload(0x40)\n  tag_39\n  swap2\n  swap1\n  tag_40\n  jump\t// in\ntag_39:\n  mload(0x40)\n  dup1\n  swap2\n  sub\n  swap1\n  log3\n    /* \"@openzeppelin/contracts/token/ERC20/ERC20.sol\":6271:7378  function _update(address from, address to, uint256 value) internal virtual {... */\n  pop\n  pop\n  pop\n  jump\t// out\n    /* \"#utility.yul\":7:106   */\ntag_41:\n    /* \"#utility.yul\":59:65   */\n  0x00\n    /* \"#utility.yul\":93:98   */\n  dup2\n    /* \"#utility.yul\":87:99   */\n  mload\n    /* \"#utility.yul\":77:99   */\n  swap1\n  pop\n    /* \"#utility.yul\":7:106   */\n  swap2\n  swap1\n  pop\n  jump\t// out\n    /* \"#utility.yul\":112:292   */\ntag_42:\n    /* \"#utility.yul\":160:237   */\n  0x4e487b7100000000000000000000000000000000000000000000000000000000\n    /* \"#utility.yul\":157:158   */\n  0x00\n    /* \"#utility.yul\":150:238   */\n  mstore\n    /* \"#utility.yul\":257:261   */\n  0x41\n    /* \"#utility.yul\":254:255   */\n  0x04\n    /* \"#utility.yul\":247:262   */\n  mstore\n    /* \"#utility.yul\":281:285   */\n  0x24\n    /* \"#utility.yul\":278:279   */\n  0x00\n    /* \"#utility.yul\":271:286   */\n  revert\n    /* \"#utility.yul\":298:478   */\ntag_43:\n    /* \"#utility.yul\":346:423   */\n  0x4e487b7100000000000000000000000000000000000000000000000000000000\n    /* \"#utility.yul\":343:344   */\n  0x00\n    /* \"#utility.yul\":336:424   */\n  mstore\n    /* \"#utility.yul\":443:447   */\n  0x22\n    /* \"#utility.yul\":440:441   */\n  0x04\n    /* \"#utility.yul\":433:448   */\n  mstore\n    /* \"#utility.yul\":467:471   */\n  0x24\n    /* \"#utility.yul\":464:465   */\n  0x00\n    /* \"#utility.yul\":457:472   */\n  revert\n    /* \"#utility.yul\":484:804   */\ntag_44:\n    /* \"#utility.yul\":528:534   */\n  0x00\n    /* \"#utility.yul\":565:566   */\n  0x02\n    /* \"#utility.yul\":559:563   */\n  dup3\n    /* \"#utility.yul\":555:567   */\n  div\n    /* \"#utility.yul\":545:567   */\n  swap1\n  pop\n    /* \"#utility.yul\":612:613   */\n  0x01\n    /* \"#utility.yul\":606:610   */\n  dup3\n    /* \"#utility.yul\":602:614   */\n  and\n    /* \"#utility.yul\":633:651   */\n  dup1\n    /* \"#utility.yul\":623:704   */\n  tag_71\n  jumpi\n    /* \"#utility.yul\":689:693   */\n  0x7f\n    /* \"#utility.yul\":681:687   */\n  dup3\n    /* \"#utility.yul\":677:694   */\n  and\n    /* \"#utility.yul\":667:694   */\n  swap2\n  pop\n    /* \"#utility.yul\":623:704   */\ntag_71:\n    /* \"#utility.yul\":751:753   */\n  0x20\n    /* \"#utility.yul\":743:749   */\n  dup3\n    /* \"#utility.yul\":740:754   */\n  lt\n    /* \"#utility.yul\":720:738   */\n  dup2\n    /* \"#utility.yul\":717:755   */\n  sub\n    /* \"#utility.yul\":714:798   */\n  tag_72\n  jumpi\n    /* \"#utility.yul\":770:788   */\n  tag_73\n  tag_43\n  jump\t// in\ntag_73:\n    /* \"#utility.yul\":714:798   */\ntag_72:\n    /* \"#utility.yul\":535:804   */\n  pop\n    /* \"#utility.yul\":484:804   */\n  swap2\n  swap1\n  pop\n  jump\t// out\n    /* \"#utility.yul\":810:951   */\ntag_45:\n    /* \"#utility.yul\":859:863   */\n  0x00\n    /* \"#utility.yul\":882:885   */\n  dup2\n    /* \"#utility.yul\":874:885   */\n  swap1\n  pop\n    /* \"#utility.yul\":905:908   */\n  dup2\n    /* \"#utility.yul\":902:903   */\n  0x00\n    /* \"#utility.yul\":895:909   */\n  mstore\n    /* \"#utility.yul\":939:943   */\n  0x20\n    /* \"#utility.yul\":936:937   */\n  0x00\n    /* \"#utility.yul\":926:944   */\n  keccak256\n    /* \"#utility.yul\":918:944   */\n  swap1\n  pop\n    /* \"#utility.yul\":810:951   */\n  swap2\n  swap1\n  pop\n  jump\t// out\n    /* \"#utility.yul\":957:1050   */\ntag_46:\n    /* \"#utility.yul\":994:1000   */\n  0x00\n    /* \"#utility.yul\":1041:1043   */\n  0x20\n    /* \"#utility.yul\":1036:1038   */\n  0x1f\n    /* \"#utility.yul\":1029:1034   */\n  dup4\n    /* \"#utility.yul\":1025:1039   */\n  add\n    /* \"#utility.yul\":1021:1044   */\n  div\n    /* \"#utility.yul\":1011:1044   */\n  swap1\n  pop\n    /* \"#utility.yul\":957:1050   */\n  swap2\n  swap1\n  pop\n  jump\t// out\n    /* \"#utility.yul\":1056:1163   */\ntag_47:\n    /* \"#utility.yul\":1100:1108   */\n  0x00\n    /* \"#utility.yul\":1150:1155   */\n  dup3\n    /* \"#utility.yul\":1144:1148   */\n  dup3\n    /* \"#utility.yul\":1140:1156   */\n  shl\n    /* \"#utility.yul\":1119:1156   */\n  swap1\n  pop\n    /* \"#utility.yul\":1056:1163   */\n  swap3\n  swap2\n  pop\n  pop\n  jump\t// out\n    /* \"#utility.yul\":1169:1562   */\ntag_48:\n    /* \"#utility.yul\":1238:1244   */\n  0x00\n    /* \"#utility.yul\":1288:1289   */\n  0x08\n    /* \"#utility.yul\":1276:1286   */\n  dup4\n    /* \"#utility.yul\":1272:1290   */\n  mul\n    /* \"#utility.yul\":1311:1408   */\n  tag_78\n    /* \"#utility.yul\":1341:1407   */\n  0xffffffffffffffffffffffffffffffffffffffffffffffffffffffffffffffff\n    /* \"#utility.yul\":1330:1339   */\n  dup3\n    /* \"#utility.yul\":1311:1408   */\n  tag_47\n  jump\t// in\ntag_78:\n    /* \"#utility.yul\":1429:1468   */\n  tag_79\n    /* \"#utility.yul\":1459:1467   */\n  dup7\n    /* \"#utility.yul\":1448:1457   */\n  dup4\n    /* \"#utility.yul\":1429:1468   */\n  tag_47\n  jump\t// in\ntag_79:\n    /* \"#utility.yul\":1417:1468   */\n  swap6\n  pop\n    /* \"#utility.yul\":1501:1505   */\n  dup1\n    /* \"#utility.yul\":1497:1506   */\n  not\n    /* \"#utility.yul\":1490:1495   */\n  dup5\n    /* \"#utility.yul\":1486:1507   */\n  and\n    /* \"#utility.yul\":1477:1507   */\n  swap4\n  pop\n    /* \"#utility.yul\":1550:1554   */\n  dup1\n    /* \"#utility.yul\":1540:1548   */\n  dup7\n    /* \"#utility.yul\":1536:1555   */\n  and\n    /* \"#utility.yul\":1529:1534   */\n  dup5\n    /* \"#utility.yul\":1526:1556   */\n  or\n    /* \"#utility.yul\":1516:1556   */\n  swap3\n  pop\n    /* \"#utility.yul\":1245:1562   */\n  pop\n  pop\n    /* \"#utility.yul\":1169:1562   */\n  swap4\n  swap3\n  pop\n  pop\n  pop\n  jump\t// out\n    /* \"#utility.yul\":1568:1645   */\ntag_49:\n    /* \"#utility.yul\":1605:1612   */\n  0x00\n    /* \"#utility.yul\":1634:1639   */\n  dup2\n    /* \"#utility.yul\":1623:1639   */\n  swap1\n  pop\n    /* \"#utility.yul\":1568:1645   */\n  swap2\n  swap1\n  pop\n  jump\t// out\n    /* \"#utility.yul\":1651:1711   */\ntag_50:\n    /* \"#utility.yul\":1679:1682   */\n  0x00\n    /* \"#utility.yul\":1700:1705   */\n  dup2\n    /* \"#utility.yul\":1693:1705   */\n  swap1\n  pop\n    /* \"#utility.yul\":1651:1711   */\n  swap2\n  swap1\n  pop\n  jump\t// out\n    /* \"#utility.yul\":1717:1859   */\ntag_51:\n    /* \"#utility.yul\":1767:1776   */\n  0x00\n    /* \"#utility.yul\":1800:1853   */\n  tag_83\n    /* \"#utility.yul\":1818:1852   */\n  tag_84\n    /* \"#utility.yul\":1827:1851   */\n  tag_85\n    /* \"#utility.yul\":1845:1850   */\n  dup5\n    /* \"#utility.yul\":1827:1851   */\n  tag_49\n  jump\t// in\ntag_85:\n    /* \"#utility.yul\":1818:1852   */\n  tag_50\n  jump\t// in\ntag_84:\n    /* \"#utility.yul\":1800:1853   */\n  tag_49\n  jump\t// in\ntag_83:\n    /* \"#utility.yul\":1787:1853   */\n  swap1\n  pop\n    /* \"#utility.yul\":1717:1859   */\n  swap2\n  swap1\n  pop\n  jump\t// out\n    /* \"#utility.yul\":1865:1940   */\ntag_52:\n    /* \"#utility.yul\":1908:1911   */\n  0x00\n    /* \"#utility.yul\":1929:1934   */\n  dup2\n    /* \"#utility.yul\":1922:1934   */\n  swap1\n  pop\n    /* \"#utility.yul\":1865:1940   */\n  swap2\n  swap1\n  pop\n  jump\t// out\n    /* \"#utility.yul\":1946:2215   */\ntag_53:\n    /* \"#utility.yul\":2056:2095   */\n  tag_88\n    /* \"#utility.yul\":2087:2094   */\n  dup4\n    /* \"#utility.yul\":2056:2095   */\n  tag_51\n  jump\t// in\ntag_88:\n    /* \"#utility.yul\":2117:2208   */\n  tag_89\n    /* \"#utility.yul\":2166:2207   */\n  tag_90\n    /* \"#utility.yul\":2190:2206   */\n  dup3\n    /* \"#utility.yul\":2166:2207   */\n  tag_52\n  jump\t// in\ntag_90:\n    /* \"#utility.yul\":2158:2164   */\n  dup5\n    /* \"#utility.yul\":2151:2155   */\n  dup5\n    /* \"#utility.yul\":2145:2156   */\n  sload\n    /* \"#utility.yul\":2117:2208   */\n  tag_48\n  jump\t// in\ntag_89:\n    /* \"#utility.yul\":2111:2115   */\n  dup3\n    /* \"#utility.yul\":2104:2209   */\n  sstore\n    /* \"#utility.yul\":2022:2215   */\n  pop\n    /* \"#utility.yul\":1946:2215   */\n  pop\n  pop\n  pop\n  jump\t// out\n    /* \"#utility.yul\":2221:2294   */\ntag_54:\n    /* \"#utility.yul\":2266:2269   */\n  0x00\n    /* \"#utility.yul\":2221:2294   */\n  swap1\n  jump\t// out\n    /* \"#utility.yul\":2300:2489   */\ntag_55:\n    /* \"#utility.yul\":2377:2409   */\n  tag_93\n  tag_54\n  jump\t// in\ntag_93:\n    /* \"#utility.yul\":2418:2483   */\n  tag_94\n    /* \"#utility.yul\":2476:2482   */\n  dup2\n    /* \"#utility.yul\":2468:2474   */\n  dup5\n    /* \"#utility.yul\":2462:2466   */\n  dup5\n    /* \"#utility.yul\":2418:2483   */\n  tag_53\n  jump\t// in\ntag_94:\n    /* \"#utility.yul\":2353:2489   */\n  pop\n    /* \"#utility.yul\":2300:2489   */\n  pop\n  pop\n  jump\t// out\n    /* \"#utility.yul\":2495:2681   */\ntag_56:\n    /* \"#utility.yul\":2555:2675   */\ntag_96:\n    /* \"#utility.yul\":2572:2575   */\n  dup2\n    /* \"#utility.yul\":2565:2570   */\n  dup2\n    /* \"#utility.yul\":2562:2576   */\n  lt\n    /* \"#utility.yul\":2555:2675   */\n  iszero\n  tag_98\n  jumpi\n    /* \"#utility.yul\":2626:2665   */\n  tag_99\n    /* \"#utility.yul\":2663:2664   */\n  0x00\n    /* \"#utility.yul\":2656:2661   */\n  dup3\n    /* \"#utility.yul\":2626:2665   */\n  tag_55\n  jump\t// in\ntag_99:\n    /* \"#utility.yul\":2599:2600   */\n  0x01\n    /* \"#utility.yul\":2592:2597   */\n  dup2\n    /* \"#utility.yul\":2588:2601   */\n  add\n    /* \"#utility.yul\":2579:2601   */\n  swap1\n  pop\n    /* \"#utility.yul\":2555:2675   */\n  jump(tag_96)\ntag_98:\n    /* \"#utility.yul\":2495:2681   */\n  pop\n  pop\n  jump\t// out\n    /* \"#utility.yul\":2687:3230   */\ntag_57:\n    /* \"#utility.yul\":2788:2790   */\n  0x1f\n    /* \"#utility.yul\":2783:2786   */\n  dup3\n    /* \"#utility.yul\":2780:2791   */\n  gt\n    /* \"#utility.yul\":2777:3223   */\n  iszero\n  tag_101\n  jumpi\n    /* \"#utility.yul\":2822:2860   */\n  tag_102\n    /* \"#utility.yul\":2854:2859   */\n  dup2\n    /* \"#utility.yul\":2822:2860   */\n  tag_45\n  jump\t// in\ntag_102:\n    /* \"#utility.yul\":2906:2935   */\n  tag_103\n    /* \"#utility.yul\":2924:2934   */\n  dup5\n    /* \"#utility.yul\":2906:2935   */\n  tag_46\n  jump\t// in\ntag_103:\n    /* \"#utility.yul\":2896:2904   */\n  dup2\n    /* \"#utility.yul\":2892:2936   */\n  add\n    /* \"#utility.yul\":3089:3091   */\n  0x20\n    /* \"#utility.yul\":3077:3087   */\n  dup6\n    /* \"#utility.yul\":3074:3092   */\n  lt\n    /* \"#utility.yul\":3071:3120   */\n  iszero\n  tag_104\n  jumpi\n    /* \"#utility.yul\":3110:3118   */\n  dup2\n    /* \"#utility.yul\":3095:3118   */\n  swap1\n  pop\n    /* \"#utility.yul\":3071:3120   */\ntag_104:\n    /* \"#utility.yul\":3133:3213   */\n  tag_105\n    /* \"#utility.yul\":3189:3211   */\n  tag_106\n    /* \"#utility.yul\":3207:3210   */\n  dup6\n    /* \"#utility.yul\":3189:3211   */\n  tag_46\n  jump\t// in\ntag_106:\n    /* \"#utility.yul\":3179:3187   */\n  dup4\n    /* \"#utility.yul\":3175:3212   */\n  add\n    /* \"#utility.yul\":3162:3173   */\n  dup3\n    /* \"#utility.yul\":3133:3213   */\n  tag_56\n  jump\t// in\ntag_105:\n    /* \"#utility.yul\":2792:3223   */\n  pop\n  pop\n    /* \"#utility.yul\":2777:3223   */\ntag_101:\n    /* \"#utility.yul\":2687:3230   */\n  pop\n  pop\n  pop\n  jump\t// out\n    /* \"#utility.yul\":3236:3353   */\ntag_58:\n    /* \"#utility.yul\":3290:3298   */\n  0x00\n    /* \"#utility.yul\":3340:3345   */\n  dup3\n    /* \"#utility.yul\":3334:3338   */\n  dup3\n    /* \"#utility.yul\":3330:3346   */\n  shr\n    /* \"#utility.yul\":3309:3346   */\n  swap1\n  pop\n    /* \"#utility.yul\":3236:3353   */\n  swap3\n  swap2\n  pop\n  pop\n  jump\t// out\n    /* \"#utility.yul\":3359:3528   */\ntag_59:\n    /* \"#utility.yul\":3403:3409   */\n  0x00\n    /* \"#utility.yul\":3436:3487   */\n  tag_109\n    /* \"#utility.yul\":3484:3485   */\n  0x00\n    /* \"#utility.yul\":3480:3486   */\n  not\n    /* \"#utility.yul\":3472:3477   */\n  dup5\n    /* \"#utility.yul\":3469:3470   */\n  0x08\n    /* \"#utility.yul\":3465:3478   */\n  mul\n    /* \"#utility.yul\":3436:3487   */\n  tag_58\n  jump\t// in\ntag_109:\n    /* \"#utility.yul\":3432:3488   */\n  not\n    /* \"#utility.yul\":3517:3521   */\n  dup1\n    /* \"#utility.yul\":3511:3515   */\n  dup4\n    /* \"#utility.yul\":3507:3522   */\n  and\n    /* \"#utility.yul\":3497:3522   */\n  swap2\n  pop\n    /* \"#utility.yul\":3410:3528   */\n  pop\n    /* \"#utility.yul\":3359:3528   */\n  swap3\n  swap2\n  pop\n  pop\n  jump\t// out\n    /* \"#utility.yul\":3533:3828   */\ntag_60:\n    /* \"#utility.yul\":3609:3613   */\n  0x00\n    /* \"#utility.yul\":3755:3784   */\n  tag_111\n    /* \"#utility.yul\":3780:3783   */\n  dup4\n    /* \"#utility.yul\":3774:3778   */\n  dup4\n    /* \"#utility.yul\":3755:3784   */\n  tag_59\n  jump\t// in\ntag_111:\n    /* \"#utility.yul\":3747:3784   */\n  swap2\n  pop\n    /* \"#utility.yul\":3817:3820   */\n  dup3\n    /* \"#utility.yul\":3814:3815   */\n  0x02\n    /* \"#utility.yul\":3810:3821   */\n  mul\n    /* \"#utility.yul\":3804:3808   */\n  dup3\n    /* \"#utility.yul\":3801:3822   */\n  or\n    /* \"#utility.yul\":3793:3822   */\n  swap1\n  pop\n    /* \"#utility.yul\":3533:3828   */\n  swap3\n  swap2\n  pop\n  pop\n  jump\t// out\n    /* \"#utility.yul\":3833:5228   */\ntag_9:\n    /* \"#utility.yul\":3950:3987   */\n  tag_113\n    /* \"#utility.yul\":3983:3986   */\n  dup3\n    /* \"#utility.yul\":3950:3987   */\n  tag_41\n  jump\t// in\ntag_113:\n    /* \"#utility.yul\":4052:4070   */\n  0xffffffffffffffff\n    /* \"#utility.yul\":4044:4050   */\n  dup2\n    /* \"#utility.yul\":4041:4071   */\n  gt\n    /* \"#utility.yul\":4038:4094   */\n  iszero\n  tag_114\n  jumpi\n    /* \"#utility.yul\":4074:4092   */\n  tag_115\n  tag_42\n  jump\t// in\ntag_115:\n    /* \"#utility.yul\":4038:4094   */\ntag_114:\n    /* \"#utility.yul\":4118:4156   */\n  tag_116\n    /* \"#utility.yul\":4150:4154   */\n  dup3\n    /* \"#utility.yul\":4144:4155   */\n  sload\n    /* \"#utility.yul\":4118:4156   */\n  tag_44\n  jump\t// in\ntag_116:\n    /* \"#utility.yul\":4203:4270   */\n  tag_117\n    /* \"#utility.yul\":4263:4269   */\n  dup3\n    /* \"#utility.yul\":4255:4261   */\n  dup3\n    /* \"#utility.yul\":4249:4253   */\n  dup6\n    /* \"#utility.yul\":4203:4270   */\n  tag_57\n  jump\t// in\ntag_117:\n    /* \"#utility.yul\":4297:4298   */\n  0x00\n    /* \"#utility.yul\":4321:4325   */\n  0x20\n    /* \"#utility.yul\":4308:4325   */\n  swap1\n  pop\n    /* \"#utility.yul\":4353:4355   */\n  0x1f\n    /* \"#utility.yul\":4345:4351   */\n  dup4\n    /* \"#utility.yul\":4342:4356   */\n  gt\n    /* \"#utility.yul\":4370:4371   */\n  0x01\n    /* \"#utility.yul\":4365:4983   */\n  dup2\n  eq\n  tag_119\n  jumpi\n    /* \"#utility.yul\":5027:5028   */\n  0x00\n    /* \"#utility.yul\":5044:5050   */\n  dup5\n    /* \"#utility.yul\":5041:5118   */\n  iszero\n  tag_120\n  jumpi\n    /* \"#utility.yul\":5093:5102   */\n  dup3\n    /* \"#utility.yul\":5088:5091   */\n  dup8\n    /* \"#utility.yul\":5084:5103   */\n  add\n    /* \"#utility.yul\":5078:5104   */\n  mload\n    /* \"#utility.yul\":5069:5104   */\n  swap1\n  pop\n    /* \"#utility.yul\":5041:5118   */\ntag_120:\n    /* \"#utility.yul\":5144:5211   */\n  tag_121\n    /* \"#utility.yul\":5204:5210   */\n  dup6\n    /* \"#utility.yul\":5197:5202   */\n  dup3\n    /* \"#utility.yul\":5144:5211   */\n  tag_60\n  jump\t// in\ntag_121:\n    /* \"#utility.yul\":5138:5142   */\n  dup7\n    /* \"#utility.yul\":5131:5212   */\n  sstore\n    /* \"#utility.yul\":5000:5222   */\n  pop\n    /* \"#utility.yul\":4335:5222   */\n  jump(tag_118)\n    /* \"#utility.yul\":4365:4983   */\ntag_119:\n    /* \"#utility.yul\":4417:4421   */\n  0x1f\n    /* \"#utility.yul\":4413:4422   */\n  not\n    /* \"#utility.yul\":4405:4411   */\n  dup5\n    /* \"#utility.yul\":4401:4423   */\n  and\n    /* \"#utility.yul\":4451:4488   */\n  tag_122\n    /* \"#utility.yul\":4483:4487   */\n  dup7\n    /* \"#utility.yul\":4451:4488   */\n  tag_45\n  jump\t// in\ntag_122:\n    /* \"#utility.yul\":4510:4511   */\n  0x00\n    /* \"#utility.yul\":4524:4732   */\ntag_123:\n    /* \"#utility.yul\":4538:4545   */\n  dup3\n    /* \"#utility.yul\":4535:4536   */\n  dup2\n    /* \"#utility.yul\":4532:4546   */\n  lt\n    /* \"#utility.yul\":4524:4732   */\n  iszero\n  tag_125\n  jumpi\n    /* \"#utility.yul\":4617:4626   */\n  dup5\n    /* \"#utility.yul\":4612:4615   */\n  dup10\n    /* \"#utility.yul\":4608:4627   */\n  add\n    /* \"#utility.yul\":4602:4628   */\n  mload\n    /* \"#utility.yul\":4594:4600   */\n  dup3\n    /* \"#utility.yul\":4587:4629   */\n  sstore\n    /* \"#utility.yul\":4668:4669   */\n  0x01\n    /* \"#utility.yul\":4660:4666   */\n  dup3\n    /* \"#utility.yul\":4656:4670   */\n  add\n    /* \"#utility.yul\":4646:4670   */\n  swap2\n  pop\n    /* \"#utility.yul\":4715:4717   */\n  0x20\n    /* \"#utility.yul\":4704:4713   */\n  dup6\n    /* \"#utility.yul\":4700:4718   */\n  add\n    /* \"#utility.yul\":4687:4718   */\n  swap5\n  pop\n    /* \"#utility.yul\":4561:4565   */\n  0x20\n    /* \"#utility.yul\":4558:4559   */\n  dup2\n    /* \"#utility.yul\":4554:4566   */\n  add\n    /* \"#utility.yul\":4549:4566   */\n  swap1\n  pop\n    /* \"#utility.yul\":4524:4732   */\n  jump(tag_123)\ntag_125:\n    /* \"#utility.yul\":4760:4766   */\n  dup7\n    /* \"#utility.yul\":4751:4758   */\n  dup4\n    /* \"#utility.yul\":4748:4767   */\n  lt\n    /* \"#utility.yul\":4745:4924   */\n  iszero\n  tag_126\n  jumpi\n    /* \"#utility.yul\":4818:4827   */\n  dup5\n    /* \"#utility.yul\":4813:4816   */\n  dup10\n    /* \"#utility.yul\":4809:4828   */\n  add\n    /* \"#utility.yul\":4803:4829   */\n  mload\n    /* \"#utility.yul\":4861:4909   */\n  tag_127\n    /* \"#utility.yul\":4903:4907   */\n  0x1f\n    /* \"#utility.yul\":4895:4901   */\n  dup10\n    /* \"#utility.yul\":4891:4908   */\n  and\n    /* \"#utility.yul\":4880:4889   */\n  dup3\n    /* \"#utility.yul\":4861:4909   */\n  tag_59\n  jump\t// in\ntag_127:\n    /* \"#utility.yul\":4853:4859   */\n  dup4\n    /* \"#utility.yul\":4846:4910   */\n  sstore\n    /* \"#utility.yul\":4768:4924   */\n  pop\n    /* \"#utility.yul\":4745:4924   */\ntag_126:\n    /* \"#utility.yul\":4970:4971   */\n  0x01\n    /* \"#utility.yul\":4966:4967   */\n  0x02\n    /* \"#utility.yul\":4958:4964   */\n  dup9\n    /* \"#utility.yul\":4954:4968   */\n  mul\n    /* \"#utility.yul\":4950:4972   */\n  add\n    /* \"#utility.yul\":4944:4948   */\n  dup9\n    /* \"#utility.yul\":4937:4973   */\n  sstore\n    /* \"#utility.yul\":4372:4983   */\n  pop\n  pop\n  pop\n    /* \"#utility.yul\":4335:5222   */\ntag_118:\n  pop\n    /* \"#utility.yul\":3925:5228   */\n  pop\n  pop\n  pop\n    /* \"#utility.yul\":3833:5228   */\n  pop\n  pop\n  jump\t// out\n    /* \"#utility.yul\":5234:5360   */\ntag_61:\n    /* \"#utility.yul\":5271:5278   */\n  0x00\n    /* \"#utility.yul\":5311:5353   */\n  0xffffffffffffffffffffffffffffffffffffffff\n    /* \"#utility.yul\":5304:5309   */\n  dup3\n    /* \"#utility.yul\":5300:5354   */\n  and\n    /* \"#utility.yul\":5289:5354   */\n  swap1\n  pop\n    /* \"#utility.yul\":5234:5360   */\n  swap2\n  swap1\n  pop\n  jump\t// out\n    /* \"#utility.yul\":5366:5462   */\ntag_62:\n    /* \"#utility.yul\":5403:5410   */\n  0x00\n    /* \"#utility.yul\":5432:5456   */\n  tag_130\n    /* \"#utility.yul\":5450:5455   */\n  dup3\n    /* \"#utility.yul\":5432:5456   */\n  tag_61\n  jump\t// in\ntag_130:\n    /* \"#utility.yul\":5421:5456   */\n  swap1\n  pop\n    /* \"#utility.yul\":5366:5462   */\n  swap2\n  swap1\n  pop\n  jump\t// out\n    /* \"#utility.yul\":5468:5586   */\ntag_63:\n    /* \"#utility.yul\":5555:5579   */\n  tag_132\n    /* \"#utility.yul\":5573:5578   */\n  dup2\n    /* \"#utility.yul\":5555:5579   */\n  tag_62\n  jump\t// in\ntag_132:\n    /* \"#utility.yul\":5550:5553   */\n  dup3\n    /* \"#utility.yul\":5543:5580   */\n  mstore\n    /* \"#utility.yul\":5468:5586   */\n  pop\n  pop\n  jump\t// out\n    /* \"#utility.yul\":5592:5814   */\ntag_14:\n    /* \"#utility.yul\":5685:5689   */\n  0x00\n    /* \"#utility.yul\":5723:5725   */\n  0x20\n    /* \"#utility.yul\":5712:5721   */\n  dup3\n    /* \"#utility.yul\":5708:5726   */\n  add\n    /* \"#utility.yul\":5700:5726   */\n  swap1\n  pop\n    /* \"#utility.yul\":5736:5807   */\n  tag_134\n    /* \"#utility.yul\":5804:5805   */\n  0x00\n    /* \"#utility.yul\":5793:5802   */\n  dup4\n    /* \"#utility.yul\":5789:5806   */\n  add\n    /* \"#utility.yul\":5780:5786   */\n  dup5\n    /* \"#utility.yul\":5736:5807   */\n  tag_63\n  jump\t// in\ntag_134:\n    /* \"#utility.yul\":5592:5814   */\n  swap3\n  swap2\n  pop\n  pop\n  jump\t// out\n    /* \"#utility.yul\":5820:6000   */\ntag_64:\n    /* \"#utility.yul\":5868:5945   */\n  0x4e487b7100000000000000000000000000000000000000000000000000000000\n    /* \"#utility.yul\":5865:5866   */\n  0x00\n    /* \"#utility.yul\":5858:5946   */\n  mstore\n    /* \"#utility.yul\":5965:5969   */\n  0x11\n    /* \"#utility.yul\":5962:5963   */\n  0x04\n    /* \"#utility.yul\":5955:5970   */\n  mstore\n    /* \"#utility.yul\":5989:5993   */\n  0x24\n    /* \"#utility.yul\":5986:5987   */\n  0x00\n    /* \"#utility.yul\":5979:5994   */\n  revert\n    /* \"#utility.yul\":6006:6197   */\ntag_32:\n    /* \"#utility.yul\":6046:6049   */\n  0x00\n    /* \"#utility.yul\":6065:6085   */\n  tag_137\n    /* \"#utility.yul\":6083:6084   */\n  dup3\n    /* \"#utility.yul\":6065:6085   */\n  tag_49\n  jump\t// in\ntag_137:\n    /* \"#utility.yul\":6060:6085   */\n  swap2\n  pop\n    /* \"#utility.yul\":6099:6119   */\n  tag_138\n    /* \"#utility.yul\":6117:6118   */\n  dup4\n    /* \"#utility.yul\":6099:6119   */\n  tag_49\n  jump\t// in\ntag_138:\n    /* \"#utility.yul\":6094:6119   */\n  swap3\n  pop\n    /* \"#utility.yul\":6142:6143   */\n  dup3\n    /* \"#utility.yul\":6139:6140   */\n  dup3\n    /* \"#utility.yul\":6135:6144   */\n  add\n    /* \"#utility.yul\":6128:6144   */\n  swap1\n  pop\n    /* \"#utility.yul\":6163:6166   */\n  dup1\n    /* \"#utility.yul\":6160:6161   */\n  dup3\n    /* \"#utility.yul\":6157:6167   */\n  gt\n    /* \"#utility.yul\":6154:6190   */\n  iszero\n  tag_139\n  jumpi\n    /* \"#utility.yul\":6170:6188   */\n  tag_140\n  tag_64\n  jump\t// in\ntag_140:\n    /* \"#utility.yul\":6154:6190   */\ntag_139:\n    /* \"#utility.yul\":6006:6197   */\n  swap3\n  swap2\n  pop\n  pop\n  jump\t// out\n    /* \"#utility.yul\":6203:6321   */\ntag_65:\n    /* \"#utility.yul\":6290:6314   */\n  tag_142\n    /* \"#utility.yul\":6308:6313   */\n  dup2\n    /* \"#utility.yul\":6290:6314   */\n  tag_49\n  jump\t// in\ntag_142:\n    /* \"#utility.yul\":6285:6288   */\n  dup3\n    /* \"#utility.yul\":6278:6315   */\n  mstore\n    /* \"#utility.yul\":6203:6321   */\n  pop\n  pop\n  jump\t// out\n    /* \"#utility.yul\":6327:6769   */\ntag_36:\n    /* \"#utility.yul\":6476:6480   */\n  0x00\n    /* \"#utility.yul\":6514:6516   */\n  0x60\n    /* \"#utility.yul\":6503:6512   */\n  dup3\n    /* \"#utility.yul\":6499:6517   */\n  add\n    /* \"#utility.yul\":6491:6517   */\n  swap1\n  pop\n    /* \"#utility.yul\":6527:6598   */\n  tag_144\n    /* \"#utility.yul\":6595:6596   */\n  0x00\n    /* \"#utility.yul\":6584:6593   */\n  dup4\n    /* \"#utility.yul\":6580:6597   */\n  add\n    /* \"#utility.yul\":6571:6577   */\n  dup7\n    /* \"#utility.yul\":6527:6598   */\n  tag_63\n  jump\t// in\ntag_144:\n    /* \"#utility.yul\":6608:6680   */\n  tag_145\n    /* \"#utility.yul\":6676:6678   */\n  0x20\n    /* \"#utility.yul\":6665:6674   */\n  dup4\n    /* \"#utility.yul\":6661:6679   */\n  add\n    /* \"#utility.yul\":6652:6658   */\n  dup6\n    /* \"#utility.yul\":6608:6680   */\n  tag_65\n  jump\t// in\ntag_145:\n    /* \"#utility.yul\":6690:6762   */\n  tag_146\n    /* \"#utility.yul\":6758:6760   */\n  0x40\n    /* \"#utility.yul\":6747:6756   */\n  dup4\n    /* \"#utility.yul\":6743:6761   */\n  add\n    /* \"#utility.yul\":6734:6740   */\n  dup5\n    /* \"#utility.yul\":6690:6762   */\n  tag_65\n  jump\t// in\ntag_146:\n    /* \"#utility.yul\":6327:6769   */\n  swap5\n  swap4\n  pop\n  pop\n  pop\n  pop\n  jump\t// out\n    /* \"#utility.yul\":6775:6997   */\ntag_40:\n    /* \"#utility.yul\":6868:6872   */\n  0x00\n    /* \"#utility.yul\":6906:6908   */\n  0x20\n    /* \"#utility.yul\":6895:6904   */\n  dup3\n    /* \"#utility.yul\":6891:6909   */\n  add\n    /* \"#utility.yul\":6883:6909   */\n  swap1\n  pop\n    /* \"#utility.yul\":6919:6990   */\n  tag_148\n    /* \"#utility.yul\":6987:6988   */\n  0x00\n    /* \"#utility.yul\":6976:6985   */\n  dup4\n    /* \"#utility.yul\":6972:6989   */\n  add\n    /* \"#utility.yul\":6963:6969   */\n  dup5\n    /* \"#utility.yul\":6919:6990   */\n  tag_65\n  jump\t// in\ntag_148:\n    /* \"#utility.yul\":6775:6997   */\n  swap3\n  swap2\n  pop\n  pop\n  jump\t// out\n    /* \"contracts/bet.sol\":286:8300  contract Bettoken is ERC20, Ownable, ReentrancyGuard, Pausable {... */\ntag_22:\n  dataSize(sub_0)\n  dup1\n  dataOffset(sub_0)\n  0x00\n  codecopy\n  0x00\n  return\nstop\n\nsub_0: assembly {\n        /* \"contracts/bet.sol\":286:8300  contract Bettoken is ERC20, Ownable, ReentrancyGuard, Pausable {... */\n      mstore(0x40, 0x80)\n      jumpi(tag_1, lt(calldatasize, 0x04))\n      shr(0xe0, calldataload(0x00))\n      dup1\n      0x920168b3\n      gt\n      tag_43\n      jumpi\n      dup1\n      0xcb8dcfe6\n      gt\n      tag_44\n      jumpi\n      dup1\n      0xe6a23c3d\n      gt\n      tag_45\n      jumpi\n      dup1\n      0xe6a23c3d\n      eq\n      tag_37\n      jumpi\n      dup1\n      0xee889ed0\n      eq\n      tag_38\n      jumpi\n      dup1\n      0xef5b329c\n      eq\n      tag_39\n      jumpi\n      dup1\n      0xf15a41f6\n      eq\n      tag_40\n      jumpi\n      dup1\n      0xf2fde38b\n      eq\n      tag_41\n      jumpi\n      dup1\n      0xfdb20ccb\n      eq\n      tag_42\n      jumpi\n      jump(tag_1)\n    tag_45:\n      dup1\n      0xcb8dcfe6\n      eq\n      tag_32\n      jumpi\n      dup1\n      0xd414890a\n      eq\n      tag_33\n      jumpi\n      dup1\n      0xd50234c4\n      eq\n      tag_34\n      jumpi\n      dup1\n      0xdd62ed3e\n      eq\n      tag_35\n      jumpi\n      dup1\n      0xe086e5ec\n      eq\n      tag_36\n      jumpi\n      jump(tag_1)\n    tag_44:\n      dup1\n      0xac21694c\n      gt\n      tag_46\n      jumpi\n      dup1\n      0xac21694c\n      eq\n      tag_27\n      jumpi\n      dup1\n      0xb0e68630\n      eq\n      tag_28\n      jumpi\n      dup1\n      0xb68ed11f\n      eq\n      tag_29\n      jumpi\n      dup1\n      0xbda95633\n      eq\n      tag_30\n      jumpi\n      dup1\n      0xc552e04b\n      eq\n      tag_31\n      jumpi\n      jump(tag_1)\n    tag_46:\n      dup1\n      0x920168b3\n      eq\n      tag_22\n      jumpi\n      dup1\n      0x940de97e\n      eq\n      tag_23\n      jumpi\n      dup1\n      0x95d89b41\n      eq\n      tag_24\n      jumpi\n      dup1\n      0xa089de2f\n      eq\n      tag_25\n      jumpi\n      dup1\n      0xa9059cbb\n      eq\n      tag_26\n      jumpi\n      jump(tag_1)\n    tag_43:\n      dup1\n      0x55dd574c\n      gt\n      tag_47\n      jumpi\n      dup1\n      0x84494708\n      gt\n      tag_48\n      jumpi\n      dup1\n      0x84494708\n      eq\n      tag_17\n      jumpi\n      dup1\n      0x8d8f2adb\n      eq\n      tag_18\n      jumpi\n      dup1\n      0x8da5cb5b\n      eq\n      tag_19\n      jumpi\n      dup1\n      0x8f7713ff\n      eq\n      tag_20\n      jumpi\n      dup1\n      0x902d55a5\n      eq\n      tag_21\n      jumpi\n      jump(tag_1)\n    tag_48:\n      dup1\n      0x55dd574c\n      eq\n      tag_12\n      jumpi\n      dup1\n      0x5c975abb\n      eq\n      tag_13\n      jumpi\n      dup1\n      0x5fb3b944\n      eq\n      tag_14\n      jumpi\n      dup1\n      0x70a08231\n      eq\n      tag_15\n      jumpi\n      dup1\n      0x715018a6\n      eq\n      tag_16\n      jumpi\n      jump(tag_1)\n    tag_47:\n      dup1\n      0x1ecf8f4d\n      gt\n      tag_49\n      jumpi\n      dup1\n      0x1ecf8f4d\n      eq\n      tag_7\n      jumpi\n      dup1\n      0x23b872dd\n      eq\n      tag_8\n      jumpi\n      dup1\n      0x2a237bb6\n      eq\n      tag_9\n      jumpi\n      dup1\n      0x313ce567\n      eq\n      tag_10\n      jumpi\n      dup1\n      0x466c3f93\n      eq\n      tag_11\n      jumpi\n      jump(tag_1)\n    tag_49:\n      dup1\n      0x06d65af3\n      eq\n      tag_2\n      jumpi\n      dup1\n      0x06fdde03\n      eq\n      tag_3\n      jumpi\n      dup1\n      0x095ea7b3\n      eq\n      tag_4\n      jumpi\n      dup1\n      0x0fe83bb8\n      eq\n      tag_5\n      jumpi\n      dup1\n      0x18160ddd\n      eq\n      tag_6\n      jumpi\n    tag_1:\n      0x00\n      dup1\n      revert\n        /* \"contracts/bet.sol\":1450:1481  uint256 public preSaleStartTime */\n    tag_2:\n      callvalue\n      dup1\n      iszero\n      tag_50\n      jumpi\n      0x00\n      dup1\n      revert\n    tag_50:\n      pop\n      tag_51\n      tag_52\n      jump\t// in\n    tag_51:\n      mload(0x40)\n      tag_53\n      swap2\n      swap1\n      tag_54\n      jump\t// in\n    tag_53:\n      mload(0x40)\n      dup1\n      swap2\n      sub\n      swap1\n      return\n        /* \"@openzeppelin/contracts/token/ERC20/ERC20.sol\":2074:2163  function name() public view virtual returns (string memory) {... */\n    tag_3:\n      callvalue\n      dup1\n      iszero\n      tag_55\n      jumpi\n      0x00\n      dup1\n      revert\n    tag_55:\n      pop\n      tag_56\n      tag_57\n      jump\t// in\n    tag_56:\n      mload(0x40)\n      tag_58\n      swap2\n      swap1\n      tag_59\n      jump\t// in\n    tag_58:\n      mload(0x40)\n      dup1\n      swap2\n      sub\n      swap1\n      return\n        /* \"@openzeppelin/contracts/token/ERC20/ERC20.sol\":4293:4479  function approve(address spender, uint256 value) public virtual returns (bool) {... */\n    tag_4:\n      callvalue\n      dup1\n      iszero\n      tag_60\n      jumpi\n      0x00\n      dup1\n      revert\n    tag_60:\n      pop\n      tag_61\n      0x04\n      dup1\n      calldatasize\n      sub\n      dup2\n      add\n      swap1\n      tag_62\n      swap2\n      swap1\n      tag_63\n      jump\t// in\n    tag_62:\n      tag_64\n      jump\t// in\n    tag_61:\n      mload(0x40)\n      tag_65\n      swap2\n      swap1\n      tag_66\n      jump\t// in\n    tag_65:\n      mload(0x40)\n      dup1\n      swap2\n      sub\n      swap1\n      return\n        /* \"contracts/bet.sol\":1023:1076  uint256 public preSaleTokens = 161_164_236 * 10 ** 18 */\n    tag_5:\n      callvalue\n      dup1\n      iszero\n      tag_67\n      jumpi\n      0x00\n      dup1\n      revert\n    tag_67:\n      pop\n      tag_68\n      tag_69\n      jump\t// in\n    tag_68:\n      mload(0x40)\n      tag_70\n      swap2\n      swap1\n      tag_54\n      jump\t// in\n    tag_70:\n      mload(0x40)\n      dup1\n      swap2\n      sub\n      swap1\n      return\n        /* \"@openzeppelin/contracts/token/ERC20/ERC20.sol\":3144:3241  function totalSupply() public view virtual returns (uint256) {... */\n    tag_6:\n      callvalue\n      dup1\n      iszero\n      tag_71\n      jumpi\n      0x00\n      dup1\n      revert\n    tag_71:\n      pop\n      tag_72\n      tag_73\n      jump\t// in\n    tag_72:\n      mload(0x40)\n      tag_74\n      swap2\n      swap1\n      tag_54\n      jump\t// in\n    tag_74:\n      mload(0x40)\n      dup1\n      swap2\n      sub\n      swap1\n      return\n        /* \"contracts/bet.sol\":1623:1679  uint256 public minPurchaseAmountPreSale = 100 * 10 ** 18 */\n    tag_7:\n      callvalue\n      dup1\n      iszero\n      tag_75\n      jumpi\n      0x00\n      dup1\n      revert\n    tag_75:\n      pop\n      tag_76\n      tag_77\n      jump\t// in\n    tag_76:\n      mload(0x40)\n      tag_78\n      swap2\n      swap1\n      tag_54\n      jump\t// in\n    tag_78:\n      mload(0x40)\n      dup1\n      swap2\n      sub\n      swap1\n      return\n        /* \"@openzeppelin/contracts/token/ERC20/ERC20.sol\":5039:5283  function transferFrom(address from, address to, uint256 value) public virtual returns (bool) {... */\n    tag_8:\n      callvalue\n      dup1\n      iszero\n      tag_79\n      jumpi\n      0x00\n      dup1\n      revert\n    tag_79:\n      pop\n      tag_80\n      0x04\n      dup1\n      calldatasize\n      sub\n      dup2\n      add\n      swap1\n      tag_81\n      swap2\n      swap1\n      tag_82\n      jump\t// in\n    tag_81:\n      tag_83\n      jump\t// in\n    tag_80:\n      mload(0x40)\n      tag_84\n      swap2\n      swap1\n      tag_66\n      jump\t// in\n    tag_84:\n      mload(0x40)\n      dup1\n      swap2\n      sub\n      swap1\n      return\n        /* \"contracts/bet.sol\":2145:2182  bool public privateSaleActive = false */\n    tag_9:\n      callvalue\n      dup1\n      iszero\n      tag_85\n      jumpi\n      0x00\n      dup1\n      revert\n    tag_85:\n      pop\n      tag_86\n      tag_87\n      jump\t// in\n    tag_86:\n      mload(0x40)\n      tag_88\n      swap2\n      swap1\n      tag_66\n      jump\t// in\n    tag_88:\n      mload(0x40)\n      dup1\n      swap2\n      sub\n      swap1\n      return\n        /* \"@openzeppelin/contracts/token/ERC20/ERC20.sol\":3002:3084  function decimals() public view virtual returns (uint8) {... */\n    tag_10:\n      callvalue\n      dup1\n      iszero\n      tag_89\n      jumpi\n      0x00\n      dup1\n      revert\n    tag_89:\n      pop\n      tag_90\n      tag_91\n      jump\t// in\n    tag_90:\n      mload(0x40)\n      tag_92\n      swap2\n      swap1\n      tag_93\n      jump\t// in\n    tag_92:\n      mload(0x40)\n      dup1\n      swap2\n      sub\n      swap1\n      return\n        /* \"contracts/bet.sol\":4931:5677  function buyTokensPreSale(uint256 usdAmount) external payable nonReentrant whenNotPaused {... */\n    tag_11:\n      tag_94\n      0x04\n      dup1\n      calldatasize\n      sub\n      dup2\n      add\n      swap1\n      tag_95\n      swap2\n      swap1\n      tag_96\n      jump\t// in\n    tag_95:\n      tag_97\n      jump\t// in\n    tag_94:\n      stop\n        /* \"contracts/bet.sol\":4600:4834  function startPreSale() external onlyOwner {... */\n    tag_12:\n      callvalue\n      dup1\n      iszero\n      tag_98\n      jumpi\n      0x00\n      dup1\n      revert\n    tag_98:\n      pop\n      tag_99\n      tag_100\n      jump\t// in\n    tag_99:\n      stop\n        /* \"@openzeppelin/contracts/security/Pausable.sol\":1615:1699  function paused() public view virtual returns (bool) {... */\n    tag_13:\n      callvalue\n      dup1\n      iszero\n      tag_101\n      jumpi\n      0x00\n      dup1\n      revert\n    tag_101:\n      pop\n      tag_102\n      tag_103\n      jump\t// in\n    tag_102:\n      mload(0x40)\n      tag_104\n      swap2\n      swap1\n      tag_66\n      jump\t// in\n    tag_104:\n      mload(0x40)\n      dup1\n      swap2\n      sub\n      swap1\n      return\n        /* \"contracts/bet.sol\":734:774  uint256 public privateSaleSoldTokens = 0 */\n    tag_14:\n      callvalue\n      dup1\n      iszero\n      tag_105\n      jumpi\n      0x00\n      dup1\n      revert\n    tag_105:\n      pop\n      tag_106\n      tag_107\n      jump\t// in\n    tag_106:\n      mload(0x40)\n      tag_108\n      swap2\n      swap1\n      tag_54\n      jump\t// in\n    tag_108:\n      mload(0x40)\n      dup1\n      swap2\n      sub\n      swap1\n      return\n        /* \"@openzeppelin/contracts/token/ERC20/ERC20.sol\":3299:3415  function balanceOf(address account) public view virtual returns (uint256) {... */\n    tag_15:\n      callvalue\n      dup1\n      iszero\n      tag_109\n      jumpi\n      0x00\n      dup1\n      revert\n    tag_109:\n      pop\n      tag_110\n      0x04\n      dup1\n      calldatasize\n      sub\n      dup2\n      add\n      swap1\n      tag_111\n      swap2\n      swap1\n      tag_112\n      jump\t// in\n    tag_111:\n      tag_113\n      jump\t// in\n    tag_110:\n      mload(0x40)\n      tag_114\n      swap2\n      swap1\n      tag_54\n      jump\t// in\n    tag_114:\n      mload(0x40)\n      dup1\n      swap2\n      sub\n      swap1\n      return\n        /* \"@openzeppelin/contracts/access/Ownable.sol\":2293:2394  function renounceOwnership() public virtual onlyOwner {... */\n    tag_16:\n      callvalue\n      dup1\n      iszero\n      tag_115\n      jumpi\n      0x00\n      dup1\n      revert\n    tag_115:\n      pop\n      tag_116\n      tag_117\n      jump\t// in\n    tag_116:\n      stop\n        /* \"contracts/bet.sol\":1520:1553  bool public preSaleActive = false */\n    tag_17:\n      callvalue\n      dup1\n      iszero\n      tag_118\n      jumpi\n      0x00\n      dup1\n      revert\n    tag_118:\n      pop\n      tag_119\n      tag_120\n      jump\t// in\n    tag_119:\n      mload(0x40)\n      tag_121\n      swap2\n      swap1\n      tag_66\n      jump\t// in\n    tag_121:\n      mload(0x40)\n      dup1\n      swap2\n      sub\n      swap1\n      return\n        /* \"contracts/bet.sol\":7681:7931  function withdrawTokens() external onlyOwner {... */\n    tag_18:\n      callvalue\n      dup1\n      iszero\n      tag_122\n      jumpi\n      0x00\n      dup1\n      revert\n    tag_122:\n      pop\n      tag_123\n      tag_124\n      jump\t// in\n    tag_123:\n      stop\n        /* \"@openzeppelin/contracts/access/Ownable.sol\":1638:1723  function owner() public view virtual returns (address) {... */\n    tag_19:\n      callvalue\n      dup1\n      iszero\n      tag_125\n      jumpi\n      0x00\n      dup1\n      revert\n    tag_125:\n      pop\n      tag_126\n      tag_127\n      jump\t// in\n    tag_126:\n      mload(0x40)\n      tag_128\n      swap2\n      swap1\n      tag_129\n      jump\t// in\n    tag_128:\n      mload(0x40)\n      dup1\n      swap2\n      sub\n      swap1\n      return\n        /* \"contracts/bet.sol\":1328:1375  uint256 public preSaleEndPrice = 0.1 * 10 ** 18 */\n    tag_20:\n      callvalue\n      dup1\n      iszero\n      tag_130\n      jumpi\n      0x00\n      dup1\n      revert\n    tag_130:\n      pop\n      tag_131\n      tag_132\n      jump\t// in\n    tag_131:\n      mload(0x40)\n      tag_133\n      swap2\n      swap1\n      tag_54\n      jump\t// in\n    tag_133:\n      mload(0x40)\n      dup1\n      swap2\n      sub\n      swap1\n      return\n        /* \"contracts/bet.sol\":385:446  uint256 public constant TOTAL_SUPPLY = 200_000_000 * 10 ** 18 */\n    tag_21:\n      callvalue\n      dup1\n      iszero\n      tag_134\n      jumpi\n      0x00\n      dup1\n      revert\n    tag_134:\n      pop\n      tag_135\n      tag_136\n      jump\t// in\n    tag_135:\n      mload(0x40)\n      tag_137\n      swap2\n      swap1\n      tag_54\n      jump\t// in\n    tag_137:\n      mload(0x40)\n      dup1\n      swap2\n      sub\n      swap1\n      return\n        /* \"contracts/bet.sol\":1237:1289  uint256 public preSaleStartPrice = 0.0505 * 10 ** 18 */\n    tag_22:\n      callvalue\n      dup1\n      iszero\n      tag_138\n      jumpi\n      0x00\n      dup1\n      revert\n    tag_138:\n      pop\n      tag_139\n      tag_140\n      jump\t// in\n    tag_139:\n      mload(0x40)\n      tag_141\n      swap2\n      swap1\n      tag_54\n      jump\t// in\n    tag_141:\n      mload(0x40)\n      dup1\n      swap2\n      sub\n      swap1\n      return\n        /* \"contracts/bet.sol\":780:815  uint256 public privateSaleStartTime */\n    tag_23:\n      callvalue\n      dup1\n      iszero\n      tag_142\n      jumpi\n      0x00\n      dup1\n      revert\n    tag_142:\n      pop\n      tag_143\n      tag_144\n      jump\t// in\n    tag_143:\n      mload(0x40)\n      tag_145\n      swap2\n      swap1\n      tag_54\n      jump\t// in\n    tag_145:\n      mload(0x40)\n      dup1\n      swap2\n      sub\n      swap1\n      return\n        /* \"@openzeppelin/contracts/token/ERC20/ERC20.sol\":2276:2369  function symbol() public view virtual returns (string memory) {... */\n    tag_24:\n      callvalue\n      dup1\n      iszero\n      tag_146\n      jumpi\n      0x00\n      dup1\n      revert\n    tag_146:\n      pop\n      tag_147\n      tag_148\n      jump\t// in\n    tag_147:\n      mload(0x40)\n      tag_149\n      swap2\n      swap1\n      tag_59\n      jump\t// in\n    tag_149:\n      mload(0x40)\n      dup1\n      swap2\n      sub\n      swap1\n      return\n        /* \"contracts/bet.sol\":3116:3735  function startPrivateSale(uint256 _affiliateRewardPercentage) external onlyOwner {... */\n    tag_25:\n      callvalue\n      dup1\n      iszero\n      tag_150\n      jumpi\n      0x00\n      dup1\n      revert\n    tag_150:\n      pop\n      tag_151\n      0x04\n      dup1\n      calldatasize\n      sub\n      dup2\n      add\n      swap1\n      tag_152\n      swap2\n      swap1\n      tag_96\n      jump\t// in\n    tag_152:\n      tag_153\n      jump\t// in\n    tag_151:\n      stop\n        /* \"@openzeppelin/contracts/token/ERC20/ERC20.sol\":3610:3788  function transfer(address to, uint256 value) public virtual returns (bool) {... */\n    tag_26:\n      callvalue\n      dup1\n      iszero\n      tag_154\n      jumpi\n      0x00\n      dup1\n      revert\n    tag_154:\n      pop\n      tag_155\n      0x04\n      dup1\n      calldatasize\n      sub\n      dup2\n      add\n      swap1\n      tag_156\n      swap2\n      swap1\n      tag_63\n      jump\t// in\n    tag_156:\n      tag_157\n      jump\t// in\n    tag_155:\n      mload(0x40)\n      tag_158\n      swap2\n      swap1\n      tag_66\n      jump\t// in\n    tag_158:\n      mload(0x40)\n      dup1\n      swap2\n      sub\n      swap1\n      return\n        /* \"contracts/bet.sol\":1727:1784  uint256 public maxPurchaseAmountPreSale = 3000 * 10 ** 18 */\n    tag_27:\n      callvalue\n      dup1\n      iszero\n      tag_159\n      jumpi\n      0x00\n      dup1\n      revert\n    tag_159:\n      pop\n      tag_160\n      tag_161\n      jump\t// in\n    tag_160:\n      mload(0x40)\n      tag_162\n      swap2\n      swap1\n      tag_54\n      jump\t// in\n    tag_162:\n      mload(0x40)\n      dup1\n      swap2\n      sub\n      swap1\n      return\n        /* \"contracts/bet.sol\":550:605  uint256 public privateSaleStartPrice = 0.001 * 10 ** 18 */\n    tag_28:\n      callvalue\n      dup1\n      iszero\n      tag_163\n      jumpi\n      0x00\n      dup1\n      revert\n    tag_163:\n      pop\n      tag_164\n      tag_165\n      jump\t// in\n    tag_164:\n      mload(0x40)\n      tag_166\n      swap2\n      swap1\n      tag_54\n      jump\t// in\n    tag_166:\n      mload(0x40)\n      dup1\n      swap2\n      sub\n      swap1\n      return\n        /* \"contracts/bet.sol\":1408:1444  uint256 public preSaleSoldTokens = 0 */\n    tag_29:\n      callvalue\n      dup1\n      iszero\n      tag_167\n      jumpi\n      0x00\n      dup1\n      revert\n    tag_167:\n      pop\n      tag_168\n      tag_169\n      jump\t// in\n    tag_168:\n      mload(0x40)\n      tag_170\n      swap2\n      swap1\n      tag_54\n      jump\t// in\n    tag_170:\n      mload(0x40)\n      dup1\n      swap2\n      sub\n      swap1\n      return\n        /* \"contracts/bet.sol\":645:699  uint256 public privateSaleEndPrice = 0.0505 * 10 ** 18 */\n    tag_30:\n      callvalue\n      dup1\n      iszero\n      tag_171\n      jumpi\n      0x00\n      dup1\n      revert\n    tag_171:\n      pop\n      tag_172\n      tag_173\n      jump\t// in\n    tag_172:\n      mload(0x40)\n      tag_174\n      swap2\n      swap1\n      tag_54\n      jump\t// in\n    tag_174:\n      mload(0x40)\n      dup1\n      swap2\n      sub\n      swap1\n      return\n        /* \"contracts/bet.sol\":488:544  uint256 public privateSaleTokens = 38_835_764 * 10 ** 18 */\n    tag_31:\n      callvalue\n      dup1\n      iszero\n      tag_175\n      jumpi\n      0x00\n      dup1\n      revert\n    tag_175:\n      pop\n      tag_176\n      tag_177\n      jump\t// in\n    tag_176:\n      mload(0x40)\n      tag_178\n      swap2\n      swap1\n      tag_54\n      jump\t// in\n    tag_178:\n      mload(0x40)\n      dup1\n      swap2\n      sub\n      swap1\n      return\n        /* \"contracts/bet.sol\":5905:6217  function calculateTokensPreSale(uint256 usdAmount) public view returns (uint256) {... */\n    tag_32:\n      callvalue\n      dup1\n      iszero\n      tag_179\n      jumpi\n      0x00\n      dup1\n      revert\n    tag_179:\n      pop\n      tag_180\n      0x04\n      dup1\n      calldatasize\n      sub\n      dup2\n      add\n      swap1\n      tag_181\n      swap2\n      swap1\n      tag_96\n      jump\t// in\n    tag_181:\n      tag_182\n      jump\t// in\n    tag_180:\n      mload(0x40)\n      tag_183\n      swap2\n      swap1\n      tag_54\n      jump\t// in\n    tag_183:\n      mload(0x40)\n      dup1\n      swap2\n      sub\n      swap1\n      return\n        /* \"contracts/bet.sol\":3836:4542  function buyTokensPrivateSale(uint256 usdAmount) external payable nonReentrant whenNotPaused {... */\n    tag_33:\n      tag_184\n      0x04\n      dup1\n      calldatasize\n      sub\n      dup2\n      add\n      swap1\n      tag_185\n      swap2\n      swap1\n      tag_96\n      jump\t// in\n    tag_185:\n      tag_186\n      jump\t// in\n    tag_184:\n      stop\n        /* \"contracts/bet.sol\":892:932  uint256 public affiliateRewardPercentage */\n    tag_34:\n      callvalue\n      dup1\n      iszero\n      tag_187\n      jumpi\n      0x00\n      dup1\n      revert\n    tag_187:\n      pop\n      tag_188\n      tag_189\n      jump\t// in\n    tag_188:\n      mload(0x40)\n      tag_190\n      swap2\n      swap1\n      tag_54\n      jump\t// in\n    tag_190:\n      mload(0x40)\n      dup1\n      swap2\n      sub\n      swap1\n      return\n        /* \"@openzeppelin/contracts/token/ERC20/ERC20.sol\":3846:3986  function allowance(address owner, address spender) public view virtual returns (uint256) {... */\n    tag_35:\n      callvalue\n      dup1\n      iszero\n      tag_191\n      jumpi\n      0x00\n      dup1\n      revert\n    tag_191:\n      pop\n      tag_192\n      0x04\n      dup1\n      calldatasize\n      sub\n      dup2\n      add\n      swap1\n      tag_193\n      swap2\n      swap1\n      tag_194\n      jump\t// in\n    tag_193:\n      tag_195\n      jump\t// in\n    tag_192:\n      mload(0x40)\n      tag_196\n      swap2\n      swap1\n      tag_54\n      jump\t// in\n    tag_196:\n      mload(0x40)\n      dup1\n      swap2\n      sub\n      swap1\n      return\n        /* \"contracts/bet.sol\":8006:8298  function withdrawETH() external onlyOwner {... */\n    tag_36:\n      callvalue\n      dup1\n      iszero\n      tag_197\n      jumpi\n      0x00\n      dup1\n      revert\n    tag_197:\n      pop\n      tag_198\n      tag_199\n      jump\t// in\n    tag_198:\n      stop\n        /* \"contracts/bet.sol\":7190:7376  function endPrivateSale() external onlyOwner {... */\n    tag_37:\n      callvalue\n      dup1\n      iszero\n      tag_200\n      jumpi\n      0x00\n      dup1\n      revert\n    tag_200:\n      pop\n      tag_201\n      tag_202\n      jump\t// in\n    tag_201:\n      stop\n        /* \"contracts/bet.sol\":7436:7602  function endPreSale() external onlyOwner {... */\n    tag_38:\n      callvalue\n      dup1\n      iszero\n      tag_203\n      jumpi\n      0x00\n      dup1\n      revert\n    tag_203:\n      pop\n      tag_204\n      tag_205\n      jump\t// in\n    tag_204:\n      stop\n        /* \"contracts/bet.sol\":1131:1188  uint256 public preSaleTargetFunds = 19_000_000 * 10 ** 18 */\n    tag_39:\n      callvalue\n      dup1\n      iszero\n      tag_206\n      jumpi\n      0x00\n      dup1\n      revert\n    tag_206:\n      pop\n      tag_207\n      tag_208\n      jump\t// in\n    tag_207:\n      mload(0x40)\n      tag_209\n      swap2\n      swap1\n      tag_54\n      jump\t// in\n    tag_209:\n      mload(0x40)\n      dup1\n      swap2\n      sub\n      swap1\n      return\n        /* \"contracts/bet.sol\":6311:6647  function calculateTokensPrivateSale(uint256 usdAmount) public view returns (uint256) {... */\n    tag_40:\n      callvalue\n      dup1\n      iszero\n      tag_210\n      jumpi\n      0x00\n      dup1\n      revert\n    tag_210:\n      pop\n      tag_211\n      0x04\n      dup1\n      calldatasize\n      sub\n      dup2\n      add\n      swap1\n      tag_212\n      swap2\n      swap1\n      tag_96\n      jump\t// in\n    tag_212:\n      tag_213\n      jump\t// in\n    tag_211:\n      mload(0x40)\n      tag_214\n      swap2\n      swap1\n      tag_54\n      jump\t// in\n    tag_214:\n      mload(0x40)\n      dup1\n      swap2\n      sub\n      swap1\n      return\n        /* \"@openzeppelin/contracts/access/Ownable.sol\":2543:2758  function transferOwnership(address newOwner) public virtual onlyOwner {... */\n    tag_41:\n      callvalue\n      dup1\n      iszero\n      tag_215\n      jumpi\n      0x00\n      dup1\n      revert\n    tag_215:\n      pop\n      tag_216\n      0x04\n      dup1\n      calldatasize\n      sub\n      dup2\n      add\n      swap1\n      tag_217\n      swap2\n      swap1\n      tag_112\n      jump\t// in\n    tag_217:\n      tag_218\n      jump\t// in\n    tag_216:\n      stop\n        /* \"contracts/bet.sol\":2042:2101  mapping(address => VestingSchedule) public vestingSchedules */\n    tag_42:\n      callvalue\n      dup1\n      iszero\n      tag_219\n      jumpi\n      0x00\n      dup1\n      revert\n    tag_219:\n      pop\n      tag_220\n      0x04\n      dup1\n      calldatasize\n      sub\n      dup2\n      add\n      swap1\n      tag_221\n      swap2\n      swap1\n      tag_112\n      jump\t// in\n    tag_221:\n      tag_222\n      jump\t// in\n    tag_220:\n      mload(0x40)\n      tag_223\n      swap6\n      swap5\n      swap4\n      swap3\n      swap2\n      swap1\n      tag_224\n      jump\t// in\n    tag_223:\n      mload(0x40)\n      dup1\n      swap2\n      sub\n      swap1\n      return\n        /* \"contracts/bet.sol\":1450:1481  uint256 public preSaleStartTime */\n    tag_52:\n      sload(0x13)\n      dup2\n      jump\t// out\n        /* \"@openzeppelin/contracts/token/ERC20/ERC20.sol\":2074:2163  function name() public view virtual returns (string memory) {... */\n    tag_57:\n        /* \"@openzeppelin/contracts/token/ERC20/ERC20.sol\":2119:2132  string memory */\n      0x60\n        /* \"@openzeppelin/contracts/token/ERC20/ERC20.sol\":2151:2156  _name */\n      0x03\n        /* \"@openzeppelin/contracts/token/ERC20/ERC20.sol\":2144:2156  return _name */\n      dup1\n      sload\n      tag_226\n      swap1\n      tag_227\n      jump\t// in\n    tag_226:\n      dup1\n      0x1f\n      add\n      0x20\n      dup1\n      swap2\n      div\n      mul\n      0x20\n      add\n      mload(0x40)\n      swap1\n      dup2\n      add\n      0x40\n      mstore\n      dup1\n      swap3\n      swap2\n      swap1\n      dup2\n      dup2\n      mstore\n      0x20\n      add\n      dup3\n      dup1\n      sload\n      tag_228\n      swap1\n      tag_227\n      jump\t// in\n    tag_228:\n      dup1\n      iszero\n      tag_229\n      jumpi\n      dup1\n      0x1f\n      lt\n      tag_230\n      jumpi\n      0x0100\n      dup1\n      dup4\n      sload\n      div\n      mul\n      dup4\n      mstore\n      swap2\n      0x20\n      add\n      swap2\n      jump(tag_229)\n    tag_230:\n      dup3\n      add\n      swap2\n      swap1\n      0x00\n      mstore\n      keccak256(0x00, 0x20)\n      swap1\n    tag_231:\n      dup2\n      sload\n      dup2\n      mstore\n      swap1\n      0x01\n      add\n      swap1\n      0x20\n      add\n      dup1\n      dup4\n      gt\n      tag_231\n      jumpi\n      dup3\n      swap1\n      sub\n      0x1f\n      and\n      dup3\n      add\n      swap2\n    tag_229:\n      pop\n      pop\n      pop\n      pop\n      pop\n      swap1\n      pop\n        /* \"@openzeppelin/contracts/token/ERC20/ERC20.sol\":2074:2163  function name() public view virtual returns (string memory) {... */\n      swap1\n      jump\t// out\n        /* \"@openzeppelin/contracts/token/ERC20/ERC20.sol\":4293:4479  function approve(address spender, uint256 value) public virtual returns (bool) {... */\n    tag_64:\n        /* \"@openzeppelin/contracts/token/ERC20/ERC20.sol\":4366:4370  bool */\n      0x00\n        /* \"@openzeppelin/contracts/token/ERC20/ERC20.sol\":4382:4395  address owner */\n      dup1\n        /* \"@openzeppelin/contracts/token/ERC20/ERC20.sol\":4398:4410  _msgSender() */\n      tag_233\n        /* \"@openzeppelin/contracts/token/ERC20/ERC20.sol\":4398:4408  _msgSender */\n      tag_234\n        /* \"@openzeppelin/contracts/token/ERC20/ERC20.sol\":4398:4410  _msgSender() */\n      jump\t// in\n    tag_233:\n        /* \"@openzeppelin/contracts/token/ERC20/ERC20.sol\":4382:4410  address owner = _msgSender() */\n      swap1\n      pop\n        /* \"@openzeppelin/contracts/token/ERC20/ERC20.sol\":4420:4451  _approve(owner, spender, value) */\n      tag_235\n        /* \"@openzeppelin/contracts/token/ERC20/ERC20.sol\":4429:4434  owner */\n      dup2\n        /* \"@openzeppelin/contracts/token/ERC20/ERC20.sol\":4436:4443  spender */\n      dup6\n        /* \"@openzeppelin/contracts/token/ERC20/ERC20.sol\":4445:4450  value */\n      dup6\n        /* \"@openzeppelin/contracts/token/ERC20/ERC20.sol\":4420:4428  _approve */\n      tag_236\n        /* \"@openzeppelin/contracts/token/ERC20/ERC20.sol\":4420:4451  _approve(owner, spender, value) */\n      jump\t// in\n    tag_235:\n        /* \"@openzeppelin/contracts/token/ERC20/ERC20.sol\":4468:4472  true */\n      0x01\n        /* \"@openzeppelin/contracts/token/ERC20/ERC20.sol\":4461:4472  return true */\n      swap2\n      pop\n      pop\n        /* \"@openzeppelin/contracts/token/ERC20/ERC20.sol\":4293:4479  function approve(address spender, uint256 value) public virtual returns (bool) {... */\n      swap3\n      swap2\n      pop\n      pop\n      jump\t// out\n        /* \"contracts/bet.sol\":1023:1076  uint256 public preSaleTokens = 161_164_236 * 10 ** 18 */\n    tag_69:\n      sload(0x0e)\n      dup2\n      jump\t// out\n        /* \"@openzeppelin/contracts/token/ERC20/ERC20.sol\":3144:3241  function totalSupply() public view virtual returns (uint256) {... */\n    tag_73:\n        /* \"@openzeppelin/contracts/token/ERC20/ERC20.sol\":3196:3203  uint256 */\n      0x00\n        /* \"@openzeppelin/contracts/token/ERC20/ERC20.sol\":3222:3234  _totalSupply */\n      sload(0x02)\n        /* \"@openzeppelin/contracts/token/ERC20/ERC20.sol\":3215:3234  return _totalSupply */\n      swap1\n      pop\n        /* \"@openzeppelin/contracts/token/ERC20/ERC20.sol\":3144:3241  function totalSupply() public view virtual returns (uint256) {... */\n      swap1\n      jump\t// out\n        /* \"contracts/bet.sol\":1623:1679  uint256 public minPurchaseAmountPreSale = 100 * 10 ** 18 */\n    tag_77:\n      sload(0x15)\n      dup2\n      jump\t// out\n        /* \"@openzeppelin/contracts/token/ERC20/ERC20.sol\":5039:5283  function transferFrom(address from, address to, uint256 value) public virtual returns (bool) {... */\n    tag_83:\n        /* \"@openzeppelin/contracts/token/ERC20/ERC20.sol\":5126:5130  bool */\n      0x00\n        /* \"@openzeppelin/contracts/token/ERC20/ERC20.sol\":5142:5157  address spender */\n      dup1\n        /* \"@openzeppelin/contracts/token/ERC20/ERC20.sol\":5160:5172  _msgSender() */\n      tag_239\n        /* \"@openzeppelin/contracts/token/ERC20/ERC20.sol\":5160:5170  _msgSender */\n      tag_234\n        /* \"@openzeppelin/contracts/token/ERC20/ERC20.sol\":5160:5172  _msgSender() */\n      jump\t// in\n    tag_239:\n        /* \"@openzeppelin/contracts/token/ERC20/ERC20.sol\":5142:5172  address spender = _msgSender() */\n      swap1\n      pop\n        /* \"@openzeppelin/contracts/token/ERC20/ERC20.sol\":5182:5219  _spendAllowance(from, spender, value) */\n      tag_240\n        /* \"@openzeppelin/contracts/token/ERC20/ERC20.sol\":5198:5202  from */\n      dup6\n        /* \"@openzeppelin/contracts/token/ERC20/ERC20.sol\":5204:5211  spender */\n      dup3\n        /* \"@openzeppelin/contracts/token/ERC20/ERC20.sol\":5213:5218  value */\n      dup6\n        /* \"@openzeppelin/contracts/token/ERC20/ERC20.sol\":5182:5197  _spendAllowance */\n      tag_241\n        /* \"@openzeppelin/contracts/token/ERC20/ERC20.sol\":5182:5219  _spendAllowance(from, spender, value) */\n      jump\t// in\n    tag_240:\n        /* \"@openzeppelin/contracts/token/ERC20/ERC20.sol\":5229:5255  _transfer(from, to, value) */\n      tag_242\n        /* \"@openzeppelin/contracts/token/ERC20/ERC20.sol\":5239:5243  from */\n      dup6\n        /* \"@openzeppelin/contracts/token/ERC20/ERC20.sol\":5245:5247  to */\n      dup6\n        /* \"@openzeppelin/contracts/token/ERC20/ERC20.sol\":5249:5254  value */\n      dup6\n        /* \"@openzeppelin/contracts/token/ERC20/ERC20.sol\":5229:5238  _transfer */\n      tag_243\n        /* \"@openzeppelin/contracts/token/ERC20/ERC20.sol\":5229:5255  _transfer(from, to, value) */\n      jump\t// in\n    tag_242:\n        /* \"@openzeppelin/contracts/token/ERC20/ERC20.sol\":5272:5276  true */\n      0x01\n        /* \"@openzeppelin/contracts/token/ERC20/ERC20.sol\":5265:5276  return true */\n      swap2\n      pop\n      pop\n        /* \"@openzeppelin/contracts/token/ERC20/ERC20.sol\":5039:5283  function transferFrom(address from, address to, uint256 value) public virtual returns (bool) {... */\n      swap4\n      swap3\n      pop\n      pop\n      pop\n      jump\t// out\n        /* \"contracts/bet.sol\":2145:2182  bool public privateSaleActive = false */\n    tag_87:\n      0x18\n      0x00\n      swap1\n      sload\n      swap1\n      0x0100\n      exp\n      swap1\n      div\n      0xff\n      and\n      dup2\n      jump\t// out\n        /* \"@openzeppelin/contracts/token/ERC20/ERC20.sol\":3002:3084  function decimals() public view virtual returns (uint8) {... */\n    tag_91:\n        /* \"@openzeppelin/contracts/token/ERC20/ERC20.sol\":3051:3056  uint8 */\n      0x00\n        /* \"@openzeppelin/contracts/token/ERC20/ERC20.sol\":3075:3077  18 */\n      0x12\n        /* \"@openzeppelin/contracts/token/ERC20/ERC20.sol\":3068:3077  return 18 */\n      swap1\n      pop\n        /* \"@openzeppelin/contracts/token/ERC20/ERC20.sol\":3002:3084  function decimals() public view virtual returns (uint8) {... */\n      swap1\n      jump\t// out\n        /* \"contracts/bet.sol\":4931:5677  function buyTokensPreSale(uint256 usdAmount) external payable nonReentrant whenNotPaused {... */\n    tag_97:\n        /* \"@openzeppelin/contracts/security/ReentrancyGuard.sol\":2261:2282  _nonReentrantBefore() */\n      tag_246\n        /* \"@openzeppelin/contracts/security/ReentrancyGuard.sol\":2261:2280  _nonReentrantBefore */\n      tag_247\n        /* \"@openzeppelin/contracts/security/ReentrancyGuard.sol\":2261:2282  _nonReentrantBefore() */\n      jump\t// in\n    tag_246:\n        /* \"@openzeppelin/contracts/security/Pausable.sol\":1239:1258  _requireNotPaused() */\n      tag_249\n        /* \"@openzeppelin/contracts/security/Pausable.sol\":1239:1256  _requireNotPaused */\n      tag_250\n        /* \"@openzeppelin/contracts/security/Pausable.sol\":1239:1258  _requireNotPaused() */\n      jump\t// in\n    tag_249:\n        /* \"contracts/bet.sol\":5038:5051  preSaleActive */\n      0x14\n      0x00\n      swap1\n      sload\n      swap1\n      0x0100\n      exp\n      swap1\n      div\n      0xff\n      and\n        /* \"contracts/bet.sol\":5030:5078  require(preSaleActive, \"Pre-Sale is not active\") */\n      tag_252\n      jumpi\n      mload(0x40)\n      0x08c379a000000000000000000000000000000000000000000000000000000000\n      dup2\n      mstore\n      0x04\n      add\n      tag_253\n      swap1\n      tag_254\n      jump\t// in\n    tag_253:\n      mload(0x40)\n      dup1\n      swap2\n      sub\n      swap1\n      revert\n    tag_252:\n        /* \"contracts/bet.sol\":5109:5133  minPurchaseAmountPreSale */\n      sload(0x15)\n        /* \"contracts/bet.sol\":5096:5105  usdAmount */\n      dup2\n        /* \"contracts/bet.sol\":5096:5133  usdAmount >= minPurchaseAmountPreSale */\n      lt\n      iszero\n        /* \"contracts/bet.sol\":5088:5176  require(usdAmount >= minPurchaseAmountPreSale, \"Amount is below minimum purchase limit\") */\n      tag_255\n      jumpi\n      mload(0x40)\n      0x08c379a000000000000000000000000000000000000000000000000000000000\n      dup2\n      mstore\n      0x04\n      add\n      tag_256\n      swap1\n      tag_257\n      jump\t// in\n    tag_256:\n      mload(0x40)\n      dup1\n      swap2\n      sub\n      swap1\n      revert\n    tag_255:\n        /* \"contracts/bet.sol\":5207:5231  maxPurchaseAmountPreSale */\n      sload(0x16)\n        /* \"contracts/bet.sol\":5194:5203  usdAmount */\n      dup2\n        /* \"contracts/bet.sol\":5194:5231  usdAmount <= maxPurchaseAmountPreSale */\n      gt\n      iszero\n        /* \"contracts/bet.sol\":5186:5273  require(usdAmount <= maxPurchaseAmountPreSale, \"Amount exceeds maximum purchase limit\") */\n      tag_258\n      jumpi\n      mload(0x40)\n      0x08c379a000000000000000000000000000000000000000000000000000000000\n      dup2\n      mstore\n      0x04\n      add\n      tag_259\n      swap1\n      tag_260\n      jump\t// in\n    tag_259:\n      mload(0x40)\n      dup1\n      swap2\n      sub\n      swap1\n      revert\n    tag_258:\n        /* \"contracts/bet.sol\":5284:5303  uint256 tokensToBuy */\n      0x00\n        /* \"contracts/bet.sol\":5306:5339  calculateTokensPreSale(usdAmount) */\n      tag_261\n        /* \"contracts/bet.sol\":5329:5338  usdAmount */\n      dup3\n        /* \"contracts/bet.sol\":5306:5328  calculateTokensPreSale */\n      tag_182\n        /* \"contracts/bet.sol\":5306:5339  calculateTokensPreSale(usdAmount) */\n      jump\t// in\n    tag_261:\n        /* \"contracts/bet.sol\":5284:5339  uint256 tokensToBuy = calculateTokensPreSale(usdAmount) */\n      swap1\n      pop\n        /* \"contracts/bet.sol\":5392:5405  preSaleTokens */\n      sload(0x0e)\n        /* \"contracts/bet.sol\":5377:5388  tokensToBuy */\n      dup2\n        /* \"contracts/bet.sol\":5357:5374  preSaleSoldTokens */\n      sload(0x12)\n        /* \"contracts/bet.sol\":5357:5388  preSaleSoldTokens + tokensToBuy */\n      tag_262\n      swap2\n      swap1\n      tag_263\n      jump\t// in\n    tag_262:\n        /* \"contracts/bet.sol\":5357:5405  preSaleSoldTokens + tokensToBuy <= preSaleTokens */\n      gt\n      iszero\n        /* \"contracts/bet.sol\":5349:5438  require(preSaleSoldTokens + tokensToBuy <= preSaleTokens, \"Exceeds Pre-Sale token limit\") */\n      tag_264\n      jumpi\n      mload(0x40)\n      0x08c379a000000000000000000000000000000000000000000000000000000000\n      dup2\n      mstore\n      0x04\n      add\n      tag_265\n      swap1\n      tag_266\n      jump\t// in\n    tag_265:\n      mload(0x40)\n      dup1\n      swap2\n      sub\n      swap1\n      revert\n    tag_264:\n        /* \"contracts/bet.sol\":5470:5481  tokensToBuy */\n      dup1\n        /* \"contracts/bet.sol\":5449:5466  preSaleSoldTokens */\n      0x12\n      0x00\n        /* \"contracts/bet.sol\":5449:5481  preSaleSoldTokens += tokensToBuy */\n      dup3\n      dup3\n      sload\n      tag_267\n      swap2\n      swap1\n      tag_263\n      jump\t// in\n    tag_267:\n      swap3\n      pop\n      pop\n      dup2\n      swap1\n      sstore\n      pop\n        /* \"contracts/bet.sol\":5517:5530  preSaleTokens */\n      sload(0x0e)\n        /* \"contracts/bet.sol\":5496:5513  preSaleSoldTokens */\n      sload(0x12)\n        /* \"contracts/bet.sol\":5496:5530  preSaleSoldTokens >= preSaleTokens */\n      lt\n        /* \"contracts/bet.sol\":5492:5611  if (preSaleSoldTokens >= preSaleTokens) {... */\n      tag_268\n      jumpi\n        /* \"contracts/bet.sol\":5562:5567  false */\n      0x00\n        /* \"contracts/bet.sol\":5546:5559  preSaleActive */\n      0x14\n      0x00\n        /* \"contracts/bet.sol\":5546:5567  preSaleActive = false */\n      0x0100\n      exp\n      dup2\n      sload\n      dup2\n      0xff\n      mul\n      not\n      and\n      swap1\n      dup4\n      iszero\n      iszero\n      mul\n      or\n      swap1\n      sstore\n      pop\n        /* \"contracts/bet.sol\":5586:5600  PreSaleEnded() */\n      0xc82e6055d31de9b552cd0014f23a8b8ce120c288ed1afce01adb97150efc0185\n      mload(0x40)\n      mload(0x40)\n      dup1\n      swap2\n      sub\n      swap1\n      log1\n        /* \"contracts/bet.sol\":5492:5611  if (preSaleSoldTokens >= preSaleTokens) {... */\n    tag_268:\n        /* \"contracts/bet.sol\":5621:5670  _transfer(address(this), msg.sender, tokensToBuy) */\n      tag_269\n        /* \"contracts/bet.sol\":5639:5643  this */\n      address\n        /* \"contracts/bet.sol\":5646:5656  msg.sender */\n      caller\n        /* \"contracts/bet.sol\":5658:5669  tokensToBuy */\n      dup4\n        /* \"contracts/bet.sol\":5621:5630  _transfer */\n      tag_243\n        /* \"contracts/bet.sol\":5621:5670  _transfer(address(this), msg.sender, tokensToBuy) */\n      jump\t// in\n    tag_269:\n        /* \"contracts/bet.sol\":5020:5677  {... */\n      pop\n        /* \"@openzeppelin/contracts/security/ReentrancyGuard.sol\":2303:2323  _nonReentrantAfter() */\n      tag_270\n        /* \"@openzeppelin/contracts/security/ReentrancyGuard.sol\":2303:2321  _nonReentrantAfter */\n      tag_271\n        /* \"@openzeppelin/contracts/security/ReentrancyGuard.sol\":2303:2323  _nonReentrantAfter() */\n      jump\t// in\n    tag_270:\n        /* \"contracts/bet.sol\":4931:5677  function buyTokensPreSale(uint256 usdAmount) external payable nonReentrant whenNotPaused {... */\n      pop\n      jump\t// out\n        /* \"contracts/bet.sol\":4600:4834  function startPreSale() external onlyOwner {... */\n    tag_100:\n        /* \"@openzeppelin/contracts/access/Ownable.sol\":1531:1544  _checkOwner() */\n      tag_273\n        /* \"@openzeppelin/contracts/access/Ownable.sol\":1531:1542  _checkOwner */\n      tag_274\n        /* \"@openzeppelin/contracts/access/Ownable.sol\":1531:1544  _checkOwner() */\n      jump\t// in\n    tag_273:\n        /* \"contracts/bet.sol\":4662:4675  preSaleActive */\n      0x14\n      0x00\n      swap1\n      sload\n      swap1\n      0x0100\n      exp\n      swap1\n      div\n      0xff\n      and\n        /* \"contracts/bet.sol\":4661:4675  !preSaleActive */\n      iszero\n        /* \"contracts/bet.sol\":4653:4706  require(!preSaleActive, \"Pre-Sale is already active\") */\n      tag_276\n      jumpi\n      mload(0x40)\n      0x08c379a000000000000000000000000000000000000000000000000000000000\n      dup2\n      mstore\n      0x04\n      add\n      tag_277\n      swap1\n      tag_278\n      jump\t// in\n    tag_277:\n      mload(0x40)\n      dup1\n      swap2\n      sub\n      swap1\n      revert\n    tag_276:\n        /* \"contracts/bet.sol\":4732:4736  true */\n      0x01\n        /* \"contracts/bet.sol\":4716:4729  preSaleActive */\n      0x14\n      0x00\n        /* \"contracts/bet.sol\":4716:4736  preSaleActive = true */\n      0x0100\n      exp\n      dup2\n      sload\n      dup2\n      0xff\n      mul\n      not\n      and\n      swap1\n      dup4\n      iszero\n      iszero\n      mul\n      or\n      swap1\n      sstore\n      pop\n        /* \"contracts/bet.sol\":4765:4780  block.timestamp */\n      timestamp\n        /* \"contracts/bet.sol\":4746:4762  preSaleStartTime */\n      0x13\n        /* \"contracts/bet.sol\":4746:4780  preSaleStartTime = block.timestamp */\n      dup2\n      swap1\n      sstore\n      pop\n        /* \"contracts/bet.sol\":4795:4827  PreSaleStarted(preSaleStartTime) */\n      0x71d9b86cd8e742cc8d4d6b9d25c84d4e42f8ba8138c6ee54914285f4a9540056\n        /* \"contracts/bet.sol\":4810:4826  preSaleStartTime */\n      sload(0x13)\n        /* \"contracts/bet.sol\":4795:4827  PreSaleStarted(preSaleStartTime) */\n      mload(0x40)\n      tag_279\n      swap2\n      swap1\n      tag_54\n      jump\t// in\n    tag_279:\n      mload(0x40)\n      dup1\n      swap2\n      sub\n      swap1\n      log1\n        /* \"contracts/bet.sol\":4600:4834  function startPreSale() external onlyOwner {... */\n      jump\t// out\n        /* \"@openzeppelin/contracts/security/Pausable.sol\":1615:1699  function paused() public view virtual returns (bool) {... */\n    tag_103:\n        /* \"@openzeppelin/contracts/security/Pausable.sol\":1662:1666  bool */\n      0x00\n        /* \"@openzeppelin/contracts/security/Pausable.sol\":1685:1692  _paused */\n      0x07\n      0x00\n      swap1\n      sload\n      swap1\n      0x0100\n      exp\n      swap1\n      div\n      0xff\n      and\n        /* \"@openzeppelin/contracts/security/Pausable.sol\":1678:1692  return _paused */\n      swap1\n      pop\n        /* \"@openzeppelin/contracts/security/Pausable.sol\":1615:1699  function paused() public view virtual returns (bool) {... */\n      swap1\n      jump\t// out\n        /* \"contracts/bet.sol\":734:774  uint256 public privateSaleSoldTokens = 0 */\n    tag_107:\n      sload(0x0b)\n      dup2\n      jump\t// out\n        /* \"@openzeppelin/contracts/token/ERC20/ERC20.sol\":3299:3415  function balanceOf(address account) public view virtual returns (uint256) {... */\n    tag_113:\n        /* \"@openzeppelin/contracts/token/ERC20/ERC20.sol\":3364:3371  uint256 */\n      0x00\n        /* \"@openzeppelin/contracts/token/ERC20/ERC20.sol\":3390:3399  _balances */\n      dup1\n        /* \"@openzeppelin/contracts/token/ERC20/ERC20.sol\":3390:3408  _balances[account] */\n      0x00\n        /* \"@openzeppelin/contracts/token/ERC20/ERC20.sol\":3400:3407  account */\n      dup4\n        /* \"@openzeppelin/contracts/token/ERC20/ERC20.sol\":3390:3408  _balances[account] */\n      0xffffffffffffffffffffffffffffffffffffffff\n      and\n      0xffffffffffffffffffffffffffffffffffffffff\n      and\n      dup2\n      mstore\n      0x20\n      add\n      swap1\n      dup2\n      mstore\n      0x20\n      add\n      0x00\n      keccak256\n      sload\n        /* \"@openzeppelin/contracts/token/ERC20/ERC20.sol\":3383:3408  return _balances[account] */\n      swap1\n      pop\n        /* \"@openzeppelin/contracts/token/ERC20/ERC20.sol\":3299:3415  function balanceOf(address account) public view virtual returns (uint256) {... */\n      swap2\n      swap1\n      pop\n      jump\t// out\n        /* \"@openzeppelin/contracts/access/Ownable.sol\":2293:2394  function renounceOwnership() public virtual onlyOwner {... */\n    tag_117:\n        /* \"@openzeppelin/contracts/access/Ownable.sol\":1531:1544  _checkOwner() */\n      tag_283\n        /* \"@openzeppelin/contracts/access/Ownable.sol\":1531:1542  _checkOwner */\n      tag_274\n        /* \"@openzeppelin/contracts/access/Ownable.sol\":1531:1544  _checkOwner() */\n      jump\t// in\n    tag_283:\n        /* \"@openzeppelin/contracts/access/Ownable.sol\":2357:2387  _transferOwnership(address(0)) */\n      tag_285\n        /* \"@openzeppelin/contracts/access/Ownable.sol\":2384:2385  0 */\n      0x00\n        /* \"@openzeppelin/contracts/access/Ownable.sol\":2357:2375  _transferOwnership */\n      tag_286\n        /* \"@openzeppelin/contracts/access/Ownable.sol\":2357:2387  _transferOwnership(address(0)) */\n      jump\t// in\n    tag_285:\n        /* \"@openzeppelin/contracts/access/Ownable.sol\":2293:2394  function renounceOwnership() public virtual onlyOwner {... */\n      jump\t// out\n        /* \"contracts/bet.sol\":1520:1553  bool public preSaleActive = false */\n    tag_120:\n      0x14\n      0x00\n      swap1\n      sload\n      swap1\n      0x0100\n      exp\n      swap1\n      div\n      0xff\n      and\n      dup2\n      jump\t// out\n        /* \"contracts/bet.sol\":7681:7931  function withdrawTokens() external onlyOwner {... */\n    tag_124:\n        /* \"@openzeppelin/contracts/access/Ownable.sol\":1531:1544  _checkOwner() */\n      tag_288\n        /* \"@openzeppelin/contracts/access/Ownable.sol\":1531:1542  _checkOwner */\n      tag_274\n        /* \"@openzeppelin/contracts/access/Ownable.sol\":1531:1544  _checkOwner() */\n      jump\t// in\n    tag_288:\n        /* \"contracts/bet.sol\":7736:7751  uint256 balance */\n      0x00\n        /* \"contracts/bet.sol\":7754:7778  balanceOf(address(this)) */\n      tag_290\n        /* \"contracts/bet.sol\":7772:7776  this */\n      address\n        /* \"contracts/bet.sol\":7754:7763  balanceOf */\n      tag_113\n        /* \"contracts/bet.sol\":7754:7778  balanceOf(address(this)) */\n      jump\t// in\n    tag_290:\n        /* \"contracts/bet.sol\":7736:7778  uint256 balance = balanceOf(address(this)) */\n      swap1\n      pop\n        /* \"contracts/bet.sol\":7806:7807  0 */\n      0x00\n        /* \"contracts/bet.sol\":7796:7803  balance */\n      dup2\n        /* \"contracts/bet.sol\":7796:7807  balance > 0 */\n      gt\n        /* \"contracts/bet.sol\":7788:7833  require(balance > 0, \"No tokens to withdraw\") */\n      tag_291\n      jumpi\n      mload(0x40)\n      0x08c379a000000000000000000000000000000000000000000000000000000000\n      dup2\n      mstore\n      0x04\n      add\n      tag_292\n      swap1\n      tag_293\n      jump\t// in\n    tag_292:\n      mload(0x40)\n      dup1\n      swap2\n      sub\n      swap1\n      revert\n    tag_291:\n        /* \"contracts/bet.sol\":7843:7885  _transfer(address(this), owner(), balance) */\n      tag_294\n        /* \"contracts/bet.sol\":7861:7865  this */\n      address\n        /* \"contracts/bet.sol\":7868:7875  owner() */\n      tag_295\n        /* \"contracts/bet.sol\":7868:7873  owner */\n      tag_127\n        /* \"contracts/bet.sol\":7868:7875  owner() */\n      jump\t// in\n    tag_295:\n        /* \"contracts/bet.sol\":7877:7884  balance */\n      dup4\n        /* \"contracts/bet.sol\":7843:7852  _transfer */\n      tag_243\n        /* \"contracts/bet.sol\":7843:7885  _transfer(address(this), owner(), balance) */\n      jump\t// in\n    tag_294:\n        /* \"contracts/bet.sol\":7900:7924  TokensWithdrawn(balance) */\n      0x9c6393f251205f9e03559951cab4c9ae71767b6174f77944a5b0c2fa51fbda9f\n        /* \"contracts/bet.sol\":7916:7923  balance */\n      dup2\n        /* \"contracts/bet.sol\":7900:7924  TokensWithdrawn(balance) */\n      mload(0x40)\n      tag_296\n      swap2\n      swap1\n      tag_54\n      jump\t// in\n    tag_296:\n      mload(0x40)\n      dup1\n      swap2\n      sub\n      swap1\n      log1\n        /* \"contracts/bet.sol\":7726:7931  {... */\n      pop\n        /* \"contracts/bet.sol\":7681:7931  function withdrawTokens() external onlyOwner {... */\n      jump\t// out\n        /* \"@openzeppelin/contracts/access/Ownable.sol\":1638:1723  function owner() public view virtual returns (address) {... */\n    tag_127:\n        /* \"@openzeppelin/contracts/access/Ownable.sol\":1684:1691  address */\n      0x00\n        /* \"@openzeppelin/contracts/access/Ownable.sol\":1710:1716  _owner */\n      0x05\n      0x00\n      swap1\n      sload\n      swap1\n      0x0100\n      exp\n      swap1\n      div\n      0xffffffffffffffffffffffffffffffffffffffff\n      and\n        /* \"@openzeppelin/contracts/access/Ownable.sol\":1703:1716  return _owner */\n      swap1\n      pop\n        /* \"@openzeppelin/contracts/access/Ownable.sol\":1638:1723  function owner() public view virtual returns (address) {... */\n      swap1\n      jump\t// out\n        /* \"contracts/bet.sol\":1328:1375  uint256 public preSaleEndPrice = 0.1 * 10 ** 18 */\n    tag_132:\n      sload(0x11)\n      dup2\n      jump\t// out\n        /* \"contracts/bet.sol\":385:446  uint256 public constant TOTAL_SUPPLY = 200_000_000 * 10 ** 18 */\n    tag_136:\n        /* \"contracts/bet.sol\":424:446  200_000_000 * 10 ** 18 */\n      0xa56fa5b99019a5c8000000\n        /* \"contracts/bet.sol\":385:446  uint256 public constant TOTAL_SUPPLY = 200_000_000 * 10 ** 18 */\n      dup2\n      jump\t// out\n        /* \"contracts/bet.sol\":1237:1289  uint256 public preSaleStartPrice = 0.0505 * 10 ** 18 */\n    tag_140:\n      sload(0x10)\n      dup2\n      jump\t// out\n        /* \"contracts/bet.sol\":780:815  uint256 public privateSaleStartTime */\n    tag_144:\n      sload(0x0c)\n      dup2\n      jump\t// out\n        /* \"@openzeppelin/contracts/token/ERC20/ERC20.sol\":2276:2369  function symbol() public view virtual returns (string memory) {... */\n    tag_148:\n        /* \"@openzeppelin/contracts/token/ERC20/ERC20.sol\":2323:2336  string memory */\n      0x60\n        /* \"@openzeppelin/contracts/token/ERC20/ERC20.sol\":2355:2362  _symbol */\n      0x04\n        /* \"@openzeppelin/contracts/token/ERC20/ERC20.sol\":2348:2362  return _symbol */\n      dup1\n      sload\n      tag_299\n      swap1\n      tag_227\n      jump\t// in\n    tag_299:\n      dup1\n      0x1f\n      add\n      0x20\n      dup1\n      swap2\n      div\n      mul\n      0x20\n      add\n      mload(0x40)\n      swap1\n      dup2\n      add\n      0x40\n      mstore\n      dup1\n      swap3\n      swap2\n      swap1\n      dup2\n      dup2\n      mstore\n      0x20\n      add\n      dup3\n      dup1\n      sload\n      tag_300\n      swap1\n      tag_227\n      jump\t// in\n    tag_300:\n      dup1\n      iszero\n      tag_301\n      jumpi\n      dup1\n      0x1f\n      lt\n      tag_302\n      jumpi\n      0x0100\n      dup1\n      dup4\n      sload\n      div\n      mul\n      dup4\n      mstore\n      swap2\n      0x20\n      add\n      swap2\n      jump(tag_301)\n    tag_302:\n      dup3\n      add\n      swap2\n      swap1\n      0x00\n      mstore\n      keccak256(0x00, 0x20)\n      swap1\n    tag_303:\n      dup2\n      sload\n      dup2\n      mstore\n      swap1\n      0x01\n      add\n      swap1\n      0x20\n      add\n      dup1\n      dup4\n      gt\n      tag_303\n      jumpi\n      dup3\n      swap1\n      sub\n      0x1f\n      and\n      dup3\n      add\n      swap2\n    tag_301:\n      pop\n      pop\n      pop\n      pop\n      pop\n      swap1\n      pop\n        /* \"@openzeppelin/contracts/token/ERC20/ERC20.sol\":2276:2369  function symbol() public view virtual returns (string memory) {... */\n      swap1\n      jump\t// out\n        /* \"contracts/bet.sol\":3116:3735  function startPrivateSale(uint256 _affiliateRewardPercentage) external onlyOwner {... */\n    tag_153:\n        /* \"@openzeppelin/contracts/access/Ownable.sol\":1531:1544  _checkOwner() */\n      tag_305\n        /* \"@openzeppelin/contracts/access/Ownable.sol\":1531:1542  _checkOwner */\n      tag_274\n        /* \"@openzeppelin/contracts/access/Ownable.sol\":1531:1544  _checkOwner() */\n      jump\t// in\n    tag_305:\n        /* \"contracts/bet.sol\":3216:3233  privateSaleActive */\n      0x18\n      0x00\n      swap1\n      sload\n      swap1\n      0x0100\n      exp\n      swap1\n      div\n      0xff\n      and\n        /* \"contracts/bet.sol\":3215:3233  !privateSaleActive */\n      iszero\n        /* \"contracts/bet.sol\":3207:3265  require(!privateSaleActive, \"Private Sale already active\") */\n      tag_307\n      jumpi\n      mload(0x40)\n      0x08c379a000000000000000000000000000000000000000000000000000000000\n      dup2\n      mstore\n      0x04\n      add\n      tag_308\n      swap1\n      tag_309\n      jump\t// in\n    tag_308:\n      mload(0x40)\n      dup1\n      swap2\n      sub\n      swap1\n      revert\n    tag_307:\n        /* \"contracts/bet.sol\":3312:3313  0 */\n      0x00\n        /* \"contracts/bet.sol\":3283:3309  _affiliateRewardPercentage */\n      dup2\n        /* \"contracts/bet.sol\":3283:3313  _affiliateRewardPercentage > 0 */\n      gt\n        /* \"contracts/bet.sol\":3283:3350  _affiliateRewardPercentage > 0 && _affiliateRewardPercentage <= 100 */\n      dup1\n      iszero\n      tag_310\n      jumpi\n      pop\n        /* \"contracts/bet.sol\":3347:3350  100 */\n      0x64\n        /* \"contracts/bet.sol\":3317:3343  _affiliateRewardPercentage */\n      dup2\n        /* \"contracts/bet.sol\":3317:3350  _affiliateRewardPercentage <= 100 */\n      gt\n      iszero\n        /* \"contracts/bet.sol\":3283:3350  _affiliateRewardPercentage > 0 && _affiliateRewardPercentage <= 100 */\n    tag_310:\n        /* \"contracts/bet.sol\":3275:3373  require(_affiliateRewardPercentage > 0 && _affiliateRewardPercentage <= 100, \"Invalid percentage\") */\n      tag_311\n      jumpi\n      mload(0x40)\n      0x08c379a000000000000000000000000000000000000000000000000000000000\n      dup2\n      mstore\n      0x04\n      add\n      tag_312\n      swap1\n      tag_313\n      jump\t// in\n    tag_312:\n      mload(0x40)\n      dup1\n      swap2\n      sub\n      swap1\n      revert\n    tag_311:\n        /* \"contracts/bet.sol\":3412:3438  _affiliateRewardPercentage */\n      dup1\n        /* \"contracts/bet.sol\":3384:3409  affiliateRewardPercentage */\n      0x0d\n        /* \"contracts/bet.sol\":3384:3438  affiliateRewardPercentage = _affiliateRewardPercentage */\n      dup2\n      swap1\n      sstore\n      pop\n        /* \"contracts/bet.sol\":3499:3503  true */\n      0x01\n        /* \"contracts/bet.sol\":3479:3496  privateSaleActive */\n      0x18\n      0x00\n        /* \"contracts/bet.sol\":3479:3503  privateSaleActive = true */\n      0x0100\n      exp\n      dup2\n      sload\n      dup2\n      0xff\n      mul\n      not\n      and\n      swap1\n      dup4\n      iszero\n      iszero\n      mul\n      or\n      swap1\n      sstore\n      pop\n        /* \"contracts/bet.sol\":3558:3573  block.timestamp */\n      timestamp\n        /* \"contracts/bet.sol\":3535:3555  privateSaleStartTime */\n      0x0c\n        /* \"contracts/bet.sol\":3535:3573  privateSaleStartTime = block.timestamp */\n      dup2\n      swap1\n      sstore\n      pop\n        /* \"contracts/bet.sol\":3623:3690  PrivateSaleStarted(affiliateRewardPercentage, privateSaleStartTime) */\n      0xcbe7b2993d671ff089495ae9d90ae7a115f123db134c0a6d3c4bc6e0c72cf7e5\n        /* \"contracts/bet.sol\":3642:3667  affiliateRewardPercentage */\n      sload(0x0d)\n        /* \"contracts/bet.sol\":3669:3689  privateSaleStartTime */\n      sload(0x0c)\n        /* \"contracts/bet.sol\":3623:3690  PrivateSaleStarted(affiliateRewardPercentage, privateSaleStartTime) */\n      mload(0x40)\n      tag_314\n      swap3\n      swap2\n      swap1\n      tag_315\n      jump\t// in\n    tag_314:\n      mload(0x40)\n      dup1\n      swap2\n      sub\n      swap1\n      log1\n        /* \"contracts/bet.sol\":3116:3735  function startPrivateSale(uint256 _affiliateRewardPercentage) external onlyOwner {... */\n      pop\n      jump\t// out\n        /* \"@openzeppelin/contracts/token/ERC20/ERC20.sol\":3610:3788  function transfer(address to, uint256 value) public virtual returns (bool) {... */\n    tag_157:\n        /* \"@openzeppelin/contracts/token/ERC20/ERC20.sol\":3679:3683  bool */\n      0x00\n        /* \"@openzeppelin/contracts/token/ERC20/ERC20.sol\":3695:3708  address owner */\n      dup1\n        /* \"@openzeppelin/contracts/token/ERC20/ERC20.sol\":3711:3723  _msgSender() */\n      tag_317\n        /* \"@openzeppelin/contracts/token/ERC20/ERC20.sol\":3711:3721  _msgSender */\n      tag_234\n        /* \"@openzeppelin/contracts/token/ERC20/ERC20.sol\":3711:3723  _msgSender() */\n      jump\t// in\n    tag_317:\n        /* \"@openzeppelin/contracts/token/ERC20/ERC20.sol\":3695:3723  address owner = _msgSender() */\n      swap1\n      pop\n        /* \"@openzeppelin/contracts/token/ERC20/ERC20.sol\":3733:3760  _transfer(owner, to, value) */\n      tag_318\n        /* \"@openzeppelin/contracts/token/ERC20/ERC20.sol\":3743:3748  owner */\n      dup2\n        /* \"@openzeppelin/contracts/token/ERC20/ERC20.sol\":3750:3752  to */\n      dup6\n        /* \"@openzeppelin/contracts/token/ERC20/ERC20.sol\":3754:3759  value */\n      dup6\n        /* \"@openzeppelin/contracts/token/ERC20/ERC20.sol\":3733:3742  _transfer */\n      tag_243\n        /* \"@openzeppelin/contracts/token/ERC20/ERC20.sol\":3733:3760  _transfer(owner, to, value) */\n      jump\t// in\n    tag_318:\n        /* \"@openzeppelin/contracts/token/ERC20/ERC20.sol\":3777:3781  true */\n      0x01\n        /* \"@openzeppelin/contracts/token/ERC20/ERC20.sol\":3770:3781  return true */\n      swap2\n      pop\n      pop\n        /* \"@openzeppelin/contracts/token/ERC20/ERC20.sol\":3610:3788  function transfer(address to, uint256 value) public virtual returns (bool) {... */\n      swap3\n      swap2\n      pop\n      pop\n      jump\t// out\n        /* \"contracts/bet.sol\":1727:1784  uint256 public maxPurchaseAmountPreSale = 3000 * 10 ** 18 */\n    tag_161:\n      sload(0x16)\n      dup2\n      jump\t// out\n        /* \"contracts/bet.sol\":550:605  uint256 public privateSaleStartPrice = 0.001 * 10 ** 18 */\n    tag_165:\n      sload(0x09)\n      dup2\n      jump\t// out\n        /* \"contracts/bet.sol\":1408:1444  uint256 public preSaleSoldTokens = 0 */\n    tag_169:\n      sload(0x12)\n      dup2\n      jump\t// out\n        /* \"contracts/bet.sol\":645:699  uint256 public privateSaleEndPrice = 0.0505 * 10 ** 18 */\n    tag_173:\n      sload(0x0a)\n      dup2\n      jump\t// out\n        /* \"contracts/bet.sol\":488:544  uint256 public privateSaleTokens = 38_835_764 * 10 ** 18 */\n    tag_177:\n      sload(0x08)\n      dup2\n      jump\t// out\n        /* \"contracts/bet.sol\":5905:6217  function calculateTokensPreSale(uint256 usdAmount) public view returns (uint256) {... */\n    tag_182:\n        /* \"contracts/bet.sol\":5977:5984  uint256 */\n      0x00\n        /* \"contracts/bet.sol\":5996:6016  uint256 currentPrice */\n      dup1\n        /* \"contracts/bet.sol\":6113:6126  preSaleTokens */\n      sload(0x0e)\n        /* \"contracts/bet.sol\":6093:6110  preSaleSoldTokens */\n      sload(0x12)\n        /* \"contracts/bet.sol\":6072:6089  preSaleStartPrice */\n      sload(0x10)\n        /* \"contracts/bet.sol\":6054:6069  preSaleEndPrice */\n      sload(0x11)\n        /* \"contracts/bet.sol\":6054:6089  preSaleEndPrice - preSaleStartPrice */\n      tag_320\n      swap2\n      swap1\n      tag_321\n      jump\t// in\n    tag_320:\n        /* \"contracts/bet.sol\":6053:6110  (preSaleEndPrice - preSaleStartPrice) * preSaleSoldTokens */\n      tag_322\n      swap2\n      swap1\n      tag_323\n      jump\t// in\n    tag_322:\n        /* \"contracts/bet.sol\":6053:6126  (preSaleEndPrice - preSaleStartPrice) * preSaleSoldTokens / preSaleTokens */\n      tag_324\n      swap2\n      swap1\n      tag_325\n      jump\t// in\n    tag_324:\n        /* \"contracts/bet.sol\":6019:6036  preSaleStartPrice */\n      sload(0x10)\n        /* \"contracts/bet.sol\":6019:6136  preSaleStartPrice + (... */\n      tag_326\n      swap2\n      swap1\n      tag_263\n      jump\t// in\n    tag_326:\n        /* \"contracts/bet.sol\":5996:6136  uint256 currentPrice = preSaleStartPrice + (... */\n      swap1\n      pop\n        /* \"contracts/bet.sol\":6146:6160  uint256 tokens */\n      0x00\n        /* \"contracts/bet.sol\":6175:6187  currentPrice */\n      dup2\n        /* \"contracts/bet.sol\":6163:6172  usdAmount */\n      dup5\n        /* \"contracts/bet.sol\":6163:6187  usdAmount / currentPrice */\n      tag_327\n      swap2\n      swap1\n      tag_325\n      jump\t// in\n    tag_327:\n        /* \"contracts/bet.sol\":6146:6187  uint256 tokens = usdAmount / currentPrice */\n      swap1\n      pop\n        /* \"contracts/bet.sol\":6204:6210  tokens */\n      dup1\n        /* \"contracts/bet.sol\":6197:6210  return tokens */\n      swap3\n      pop\n      pop\n      pop\n        /* \"contracts/bet.sol\":5905:6217  function calculateTokensPreSale(uint256 usdAmount) public view returns (uint256) {... */\n      swap2\n      swap1\n      pop\n      jump\t// out\n        /* \"contracts/bet.sol\":3836:4542  function buyTokensPrivateSale(uint256 usdAmount) external payable nonReentrant whenNotPaused {... */\n    tag_186:\n        /* \"@openzeppelin/contracts/security/ReentrancyGuard.sol\":2261:2282  _nonReentrantBefore() */\n      tag_329\n        /* \"@openzeppelin/contracts/security/ReentrancyGuard.sol\":2261:2280  _nonReentrantBefore */\n      tag_247\n        /* \"@openzeppelin/contracts/security/ReentrancyGuard.sol\":2261:2282  _nonReentrantBefore() */\n      jump\t// in\n    tag_329:\n        /* \"@openzeppelin/contracts/security/Pausable.sol\":1239:1258  _requireNotPaused() */\n      tag_331\n        /* \"@openzeppelin/contracts/security/Pausable.sol\":1239:1256  _requireNotPaused */\n      tag_250\n        /* \"@openzeppelin/contracts/security/Pausable.sol\":1239:1258  _requireNotPaused() */\n      jump\t// in\n    tag_331:\n        /* \"contracts/bet.sol\":3947:3964  privateSaleActive */\n      0x18\n      0x00\n      swap1\n      sload\n      swap1\n      0x0100\n      exp\n      swap1\n      div\n      0xff\n      and\n        /* \"contracts/bet.sol\":3939:3995  require(privateSaleActive, \"Private Sale is not active\") */\n      tag_333\n      jumpi\n      mload(0x40)\n      0x08c379a000000000000000000000000000000000000000000000000000000000\n      dup2\n      mstore\n      0x04\n      add\n      tag_334\n      swap1\n      tag_335\n      jump\t// in\n    tag_334:\n      mload(0x40)\n      dup1\n      swap2\n      sub\n      swap1\n      revert\n    tag_333:\n        /* \"contracts/bet.sol\":4026:4039  50 * 10 ** 18 */\n      0x02b5e3af16b1880000\n        /* \"contracts/bet.sol\":4013:4022  usdAmount */\n      dup2\n        /* \"contracts/bet.sol\":4013:4039  usdAmount >= 50 * 10 ** 18 */\n      lt\n      iszero\n        /* \"contracts/bet.sol\":4005:4081  require(usdAmount >= 50 * 10 ** 18, \"Minimum USD amount required is 50 USD\") */\n      tag_336\n      jumpi\n      mload(0x40)\n      0x08c379a000000000000000000000000000000000000000000000000000000000\n      dup2\n      mstore\n      0x04\n      add\n      tag_337\n      swap1\n      tag_338\n      jump\t// in\n    tag_337:\n      mload(0x40)\n      dup1\n      swap2\n      sub\n      swap1\n      revert\n    tag_336:\n        /* \"contracts/bet.sol\":4091:4110  uint256 tokensToBuy */\n      0x00\n        /* \"contracts/bet.sol\":4113:4150  calculateTokensPrivateSale(usdAmount) */\n      tag_339\n        /* \"contracts/bet.sol\":4140:4149  usdAmount */\n      dup3\n        /* \"contracts/bet.sol\":4113:4139  calculateTokensPrivateSale */\n      tag_213\n        /* \"contracts/bet.sol\":4113:4150  calculateTokensPrivateSale(usdAmount) */\n      jump\t// in\n    tag_339:\n        /* \"contracts/bet.sol\":4091:4150  uint256 tokensToBuy = calculateTokensPrivateSale(usdAmount) */\n      swap1\n      pop\n        /* \"contracts/bet.sol\":4183:4198  1000 * 10 ** 18 */\n      0x3635c9adc5dea00000\n        /* \"contracts/bet.sol\":4168:4179  tokensToBuy */\n      dup2\n        /* \"contracts/bet.sol\":4168:4198  tokensToBuy <= 1000 * 10 ** 18 */\n      gt\n      iszero\n        /* \"contracts/bet.sol\":4160:4239  require(tokensToBuy <= 1000 * 10 ** 18, \"Exceeds maximum token purchase limit\") */\n      tag_340\n      jumpi\n      mload(0x40)\n      0x08c379a000000000000000000000000000000000000000000000000000000000\n      dup2\n      mstore\n      0x04\n      add\n      tag_341\n      swap1\n      tag_342\n      jump\t// in\n    tag_341:\n      mload(0x40)\n      dup1\n      swap2\n      sub\n      swap1\n      revert\n    tag_340:\n        /* \"contracts/bet.sol\":4275:4286  tokensToBuy */\n      dup1\n        /* \"contracts/bet.sol\":4250:4271  privateSaleSoldTokens */\n      0x0b\n      0x00\n        /* \"contracts/bet.sol\":4250:4286  privateSaleSoldTokens += tokensToBuy */\n      dup3\n      dup3\n      sload\n      tag_343\n      swap2\n      swap1\n      tag_263\n      jump\t// in\n    tag_343:\n      swap3\n      pop\n      pop\n      dup2\n      swap1\n      sstore\n      pop\n        /* \"contracts/bet.sol\":4326:4343  privateSaleTokens */\n      sload(0x08)\n        /* \"contracts/bet.sol\":4301:4322  privateSaleSoldTokens */\n      sload(0x0b)\n        /* \"contracts/bet.sol\":4301:4343  privateSaleSoldTokens >= privateSaleTokens */\n      lt\n        /* \"contracts/bet.sol\":4297:4432  if (privateSaleSoldTokens >= privateSaleTokens) {... */\n      tag_344\n      jumpi\n        /* \"contracts/bet.sol\":4379:4384  false */\n      0x00\n        /* \"contracts/bet.sol\":4359:4376  privateSaleActive */\n      0x18\n      0x00\n        /* \"contracts/bet.sol\":4359:4384  privateSaleActive = false */\n      0x0100\n      exp\n      dup2\n      sload\n      dup2\n      0xff\n      mul\n      not\n      and\n      swap1\n      dup4\n      iszero\n      iszero\n      mul\n      or\n      swap1\n      sstore\n      pop\n        /* \"contracts/bet.sol\":4403:4421  PrivateSaleEnded() */\n      0x8d80f5be79e7dd88d69814b57e8f5c7dd249b3d6bac194eb9144b8ca639db036\n      mload(0x40)\n      mload(0x40)\n      dup1\n      swap2\n      sub\n      swap1\n      log1\n        /* \"contracts/bet.sol\":4297:4432  if (privateSaleSoldTokens >= privateSaleTokens) {... */\n    tag_344:\n        /* \"contracts/bet.sol\":4442:4535  createVestingSchedule(msg.sender, tokensToBuy, block.timestamp + 365 days, 180 days, 30 days) */\n      tag_345\n        /* \"contracts/bet.sol\":4464:4474  msg.sender */\n      caller\n        /* \"contracts/bet.sol\":4476:4487  tokensToBuy */\n      dup3\n        /* \"contracts/bet.sol\":4507:4515  365 days */\n      0x01e13380\n        /* \"contracts/bet.sol\":4489:4504  block.timestamp */\n      timestamp\n        /* \"contracts/bet.sol\":4489:4515  block.timestamp + 365 days */\n      tag_346\n      swap2\n      swap1\n      tag_263\n      jump\t// in\n    tag_346:\n        /* \"contracts/bet.sol\":4517:4525  180 days */\n      0xed4e00\n        /* \"contracts/bet.sol\":4527:4534  30 days */\n      0x278d00\n        /* \"contracts/bet.sol\":4442:4463  createVestingSchedule */\n      tag_347\n        /* \"contracts/bet.sol\":4442:4535  createVestingSchedule(msg.sender, tokensToBuy, block.timestamp + 365 days, 180 days, 30 days) */\n      jump\t// in\n    tag_345:\n        /* \"contracts/bet.sol\":3929:4542  {... */\n      pop\n        /* \"@openzeppelin/contracts/security/ReentrancyGuard.sol\":2303:2323  _nonReentrantAfter() */\n      tag_348\n        /* \"@openzeppelin/contracts/security/ReentrancyGuard.sol\":2303:2321  _nonReentrantAfter */\n      tag_271\n        /* \"@openzeppelin/contracts/security/ReentrancyGuard.sol\":2303:2323  _nonReentrantAfter() */\n      jump\t// in\n    tag_348:\n        /* \"contracts/bet.sol\":3836:4542  function buyTokensPrivateSale(uint256 usdAmount) external payable nonReentrant whenNotPaused {... */\n      pop\n      jump\t// out\n        /* \"contracts/bet.sol\":892:932  uint256 public affiliateRewardPercentage */\n    tag_189:\n      sload(0x0d)\n      dup2\n      jump\t// out\n        /* \"@openzeppelin/contracts/token/ERC20/ERC20.sol\":3846:3986  function allowance(address owner, address spender) public view virtual returns (uint256) {... */\n    tag_195:\n        /* \"@openzeppelin/contracts/token/ERC20/ERC20.sol\":3926:3933  uint256 */\n      0x00\n        /* \"@openzeppelin/contracts/token/ERC20/ERC20.sol\":3952:3963  _allowances */\n      0x01\n        /* \"@openzeppelin/contracts/token/ERC20/ERC20.sol\":3952:3970  _allowances[owner] */\n      0x00\n        /* \"@openzeppelin/contracts/token/ERC20/ERC20.sol\":3964:3969  owner */\n      dup5\n        /* \"@openzeppelin/contracts/token/ERC20/ERC20.sol\":3952:3970  _allowances[owner] */\n      0xffffffffffffffffffffffffffffffffffffffff\n      and\n      0xffffffffffffffffffffffffffffffffffffffff\n      and\n      dup2\n      mstore\n      0x20\n      add\n      swap1\n      dup2\n      mstore\n      0x20\n      add\n      0x00\n      keccak256\n        /* \"@openzeppelin/contracts/token/ERC20/ERC20.sol\":3952:3979  _allowances[owner][spender] */\n      0x00\n        /* \"@openzeppelin/contracts/token/ERC20/ERC20.sol\":3971:3978  spender */\n      dup4\n        /* \"@openzeppelin/contracts/token/ERC20/ERC20.sol\":3952:3979  _allowances[owner][spender] */\n      0xffffffffffffffffffffffffffffffffffffffff\n      and\n      0xffffffffffffffffffffffffffffffffffffffff\n      and\n      dup2\n      mstore\n      0x20\n      add\n      swap1\n      dup2\n      mstore\n      0x20\n      add\n      0x00\n      keccak256\n      sload\n        /* \"@openzeppelin/contracts/token/ERC20/ERC20.sol\":3945:3979  return _allowances[owner][spender] */\n      swap1\n      pop\n        /* \"@openzeppelin/contracts/token/ERC20/ERC20.sol\":3846:3986  function allowance(address owner, address spender) public view virtual returns (uint256) {... */\n      swap3\n      swap2\n      pop\n      pop\n      jump\t// out\n        /* \"contracts/bet.sol\":8006:8298  function withdrawETH() external onlyOwner {... */\n    tag_199:\n        /* \"@openzeppelin/contracts/access/Ownable.sol\":1531:1544  _checkOwner() */\n      tag_351\n        /* \"@openzeppelin/contracts/access/Ownable.sol\":1531:1542  _checkOwner */\n      tag_274\n        /* \"@openzeppelin/contracts/access/Ownable.sol\":1531:1544  _checkOwner() */\n      jump\t// in\n    tag_351:\n        /* \"contracts/bet.sol\":8058:8073  uint256 balance */\n      0x00\n        /* \"contracts/bet.sol\":8076:8097  address(this).balance */\n      selfbalance\n        /* \"contracts/bet.sol\":8058:8097  uint256 balance = address(this).balance */\n      swap1\n      pop\n        /* \"contracts/bet.sol\":8125:8126  0 */\n      0x00\n        /* \"contracts/bet.sol\":8115:8122  balance */\n      dup2\n        /* \"contracts/bet.sol\":8115:8126  balance > 0 */\n      gt\n        /* \"contracts/bet.sol\":8107:8149  require(balance > 0, \"No ETH to withdraw\") */\n      tag_353\n      jumpi\n      mload(0x40)\n      0x08c379a000000000000000000000000000000000000000000000000000000000\n      dup2\n      mstore\n      0x04\n      add\n      tag_354\n      swap1\n      tag_355\n      jump\t// in\n    tag_354:\n      mload(0x40)\n      dup1\n      swap2\n      sub\n      swap1\n      revert\n    tag_353:\n        /* \"contracts/bet.sol\":8160:8172  bool success */\n      0x00\n        /* \"contracts/bet.sol\":8178:8185  owner() */\n      tag_356\n        /* \"contracts/bet.sol\":8178:8183  owner */\n      tag_127\n        /* \"contracts/bet.sol\":8178:8185  owner() */\n      jump\t// in\n    tag_356:\n        /* \"contracts/bet.sol\":8178:8190  owner().call */\n      0xffffffffffffffffffffffffffffffffffffffff\n      and\n        /* \"contracts/bet.sol\":8198:8205  balance */\n      dup3\n        /* \"contracts/bet.sol\":8178:8210  owner().call{value: balance}(\"\") */\n      mload(0x40)\n      tag_357\n      swap1\n      tag_358\n      jump\t// in\n    tag_357:\n      0x00\n      mload(0x40)\n      dup1\n      dup4\n      sub\n      dup2\n      dup6\n      dup8\n      gas\n      call\n      swap3\n      pop\n      pop\n      pop\n      returndatasize\n      dup1\n      0x00\n      dup2\n      eq\n      tag_361\n      jumpi\n      mload(0x40)\n      swap2\n      pop\n      and(add(returndatasize, 0x3f), not(0x1f))\n      dup3\n      add\n      0x40\n      mstore\n      returndatasize\n      dup3\n      mstore\n      returndatasize\n      0x00\n      0x20\n      dup5\n      add\n      returndatacopy\n      jump(tag_360)\n    tag_361:\n      0x60\n      swap2\n      pop\n    tag_360:\n      pop\n        /* \"contracts/bet.sol\":8159:8210  (bool success, ) = owner().call{value: balance}(\"\") */\n      pop\n      swap1\n      pop\n        /* \"contracts/bet.sol\":8228:8235  success */\n      dup1\n        /* \"contracts/bet.sol\":8220:8255  require(success, \"Transfer failed\") */\n      tag_362\n      jumpi\n      mload(0x40)\n      0x08c379a000000000000000000000000000000000000000000000000000000000\n      dup2\n      mstore\n      0x04\n      add\n      tag_363\n      swap1\n      tag_364\n      jump\t// in\n    tag_363:\n      mload(0x40)\n      dup1\n      swap2\n      sub\n      swap1\n      revert\n    tag_362:\n        /* \"contracts/bet.sol\":8270:8291  ETHWithdrawn(balance) */\n      0x043f607a14d3b4f0a11a0b2e192bbfcd894298ba5abf22553be6081406db28aa\n        /* \"contracts/bet.sol\":8283:8290  balance */\n      dup3\n        /* \"contracts/bet.sol\":8270:8291  ETHWithdrawn(balance) */\n      mload(0x40)\n      tag_365\n      swap2\n      swap1\n      tag_54\n      jump\t// in\n    tag_365:\n      mload(0x40)\n      dup1\n      swap2\n      sub\n      swap1\n      log1\n        /* \"contracts/bet.sol\":8048:8298  {... */\n      pop\n      pop\n        /* \"contracts/bet.sol\":8006:8298  function withdrawETH() external onlyOwner {... */\n      jump\t// out\n        /* \"contracts/bet.sol\":7190:7376  function endPrivateSale() external onlyOwner {... */\n    tag_202:\n        /* \"@openzeppelin/contracts/access/Ownable.sol\":1531:1544  _checkOwner() */\n      tag_367\n        /* \"@openzeppelin/contracts/access/Ownable.sol\":1531:1542  _checkOwner */\n      tag_274\n        /* \"@openzeppelin/contracts/access/Ownable.sol\":1531:1544  _checkOwner() */\n      jump\t// in\n    tag_367:\n        /* \"contracts/bet.sol\":7253:7270  privateSaleActive */\n      0x18\n      0x00\n      swap1\n      sload\n      swap1\n      0x0100\n      exp\n      swap1\n      div\n      0xff\n      and\n        /* \"contracts/bet.sol\":7245:7301  require(privateSaleActive, \"Private Sale is not active\") */\n      tag_369\n      jumpi\n      mload(0x40)\n      0x08c379a000000000000000000000000000000000000000000000000000000000\n      dup2\n      mstore\n      0x04\n      add\n      tag_370\n      swap1\n      tag_335\n      jump\t// in\n    tag_370:\n      mload(0x40)\n      dup1\n      swap2\n      sub\n      swap1\n      revert\n    tag_369:\n        /* \"contracts/bet.sol\":7331:7336  false */\n      0x00\n        /* \"contracts/bet.sol\":7311:7328  privateSaleActive */\n      0x18\n      0x00\n        /* \"contracts/bet.sol\":7311:7336  privateSaleActive = false */\n      0x0100\n      exp\n      dup2\n      sload\n      dup2\n      0xff\n      mul\n      not\n      and\n      swap1\n      dup4\n      iszero\n      iszero\n      mul\n      or\n      swap1\n      sstore\n      pop\n        /* \"contracts/bet.sol\":7351:7369  PrivateSaleEnded() */\n      0x8d80f5be79e7dd88d69814b57e8f5c7dd249b3d6bac194eb9144b8ca639db036\n      mload(0x40)\n      mload(0x40)\n      dup1\n      swap2\n      sub\n      swap1\n      log1\n        /* \"contracts/bet.sol\":7190:7376  function endPrivateSale() external onlyOwner {... */\n      jump\t// out\n        /* \"contracts/bet.sol\":7436:7602  function endPreSale() external onlyOwner {... */\n    tag_205:\n        /* \"@openzeppelin/contracts/access/Ownable.sol\":1531:1544  _checkOwner() */\n      tag_372\n        /* \"@openzeppelin/contracts/access/Ownable.sol\":1531:1542  _checkOwner */\n      tag_274\n        /* \"@openzeppelin/contracts/access/Ownable.sol\":1531:1544  _checkOwner() */\n      jump\t// in\n    tag_372:\n        /* \"contracts/bet.sol\":7495:7508  preSaleActive */\n      0x14\n      0x00\n      swap1\n      sload\n      swap1\n      0x0100\n      exp\n      swap1\n      div\n      0xff\n      and\n        /* \"contracts/bet.sol\":7487:7535  require(preSaleActive, \"Pre-Sale is not active\") */\n      tag_374\n      jumpi\n      mload(0x40)\n      0x08c379a000000000000000000000000000000000000000000000000000000000\n      dup2\n      mstore\n      0x04\n      add\n      tag_375\n      swap1\n      tag_254\n      jump\t// in\n    tag_375:\n      mload(0x40)\n      dup1\n      swap2\n      sub\n      swap1\n      revert\n    tag_374:\n        /* \"contracts/bet.sol\":7561:7566  false */\n      0x00\n        /* \"contracts/bet.sol\":7545:7558  preSaleActive */\n      0x14\n      0x00\n        /* \"contracts/bet.sol\":7545:7566  preSaleActive = false */\n      0x0100\n      exp\n      dup2\n      sload\n      dup2\n      0xff\n      mul\n      not\n      and\n      swap1\n      dup4\n      iszero\n      iszero\n      mul\n      or\n      swap1\n      sstore\n      pop\n        /* \"contracts/bet.sol\":7581:7595  PreSaleEnded() */\n      0xc82e6055d31de9b552cd0014f23a8b8ce120c288ed1afce01adb97150efc0185\n      mload(0x40)\n      mload(0x40)\n      dup1\n      swap2\n      sub\n      swap1\n      log1\n        /* \"contracts/bet.sol\":7436:7602  function endPreSale() external onlyOwner {... */\n      jump\t// out\n        /* \"contracts/bet.sol\":1131:1188  uint256 public preSaleTargetFunds = 19_000_000 * 10 ** 18 */\n    tag_208:\n      sload(0x0f)\n      dup2\n      jump\t// out\n        /* \"contracts/bet.sol\":6311:6647  function calculateTokensPrivateSale(uint256 usdAmount) public view returns (uint256) {... */\n    tag_213:\n        /* \"contracts/bet.sol\":6387:6394  uint256 */\n      0x00\n        /* \"contracts/bet.sol\":6406:6426  uint256 currentPrice */\n      dup1\n        /* \"contracts/bet.sol\":6539:6556  privateSaleTokens */\n      sload(0x08)\n        /* \"contracts/bet.sol\":6515:6536  privateSaleSoldTokens */\n      sload(0x0b)\n        /* \"contracts/bet.sol\":6490:6511  privateSaleStartPrice */\n      sload(0x09)\n        /* \"contracts/bet.sol\":6468:6487  privateSaleEndPrice */\n      sload(0x0a)\n        /* \"contracts/bet.sol\":6468:6511  privateSaleEndPrice - privateSaleStartPrice */\n      tag_377\n      swap2\n      swap1\n      tag_321\n      jump\t// in\n    tag_377:\n        /* \"contracts/bet.sol\":6467:6536  (privateSaleEndPrice - privateSaleStartPrice) * privateSaleSoldTokens */\n      tag_378\n      swap2\n      swap1\n      tag_323\n      jump\t// in\n    tag_378:\n        /* \"contracts/bet.sol\":6467:6556  (privateSaleEndPrice - privateSaleStartPrice) * privateSaleSoldTokens / privateSaleTokens */\n      tag_379\n      swap2\n      swap1\n      tag_325\n      jump\t// in\n    tag_379:\n        /* \"contracts/bet.sol\":6429:6450  privateSaleStartPrice */\n      sload(0x09)\n        /* \"contracts/bet.sol\":6429:6566  privateSaleStartPrice + (... */\n      tag_380\n      swap2\n      swap1\n      tag_263\n      jump\t// in\n    tag_380:\n        /* \"contracts/bet.sol\":6406:6566  uint256 currentPrice = privateSaleStartPrice + (... */\n      swap1\n      pop\n        /* \"contracts/bet.sol\":6576:6590  uint256 tokens */\n      0x00\n        /* \"contracts/bet.sol\":6605:6617  currentPrice */\n      dup2\n        /* \"contracts/bet.sol\":6593:6602  usdAmount */\n      dup5\n        /* \"contracts/bet.sol\":6593:6617  usdAmount / currentPrice */\n      tag_381\n      swap2\n      swap1\n      tag_325\n      jump\t// in\n    tag_381:\n        /* \"contracts/bet.sol\":6576:6617  uint256 tokens = usdAmount / currentPrice */\n      swap1\n      pop\n        /* \"contracts/bet.sol\":6634:6640  tokens */\n      dup1\n        /* \"contracts/bet.sol\":6627:6640  return tokens */\n      swap3\n      pop\n      pop\n      pop\n        /* \"contracts/bet.sol\":6311:6647  function calculateTokensPrivateSale(uint256 usdAmount) public view returns (uint256) {... */\n      swap2\n      swap1\n      pop\n      jump\t// out\n        /* \"@openzeppelin/contracts/access/Ownable.sol\":2543:2758  function transferOwnership(address newOwner) public virtual onlyOwner {... */\n    tag_218:\n        /* \"@openzeppelin/contracts/access/Ownable.sol\":1531:1544  _checkOwner() */\n      tag_383\n        /* \"@openzeppelin/contracts/access/Ownable.sol\":1531:1542  _checkOwner */\n      tag_274\n        /* \"@openzeppelin/contracts/access/Ownable.sol\":1531:1544  _checkOwner() */\n      jump\t// in\n    tag_383:\n        /* \"@openzeppelin/contracts/access/Ownable.sol\":2647:2648  0 */\n      0x00\n        /* \"@openzeppelin/contracts/access/Ownable.sol\":2627:2649  newOwner == address(0) */\n      0xffffffffffffffffffffffffffffffffffffffff\n      and\n        /* \"@openzeppelin/contracts/access/Ownable.sol\":2627:2635  newOwner */\n      dup2\n        /* \"@openzeppelin/contracts/access/Ownable.sol\":2627:2649  newOwner == address(0) */\n      0xffffffffffffffffffffffffffffffffffffffff\n      and\n      sub\n        /* \"@openzeppelin/contracts/access/Ownable.sol\":2623:2714  if (newOwner == address(0)) {... */\n      tag_385\n      jumpi\n        /* \"@openzeppelin/contracts/access/Ownable.sol\":2700:2701  0 */\n      0x00\n        /* \"@openzeppelin/contracts/access/Ownable.sol\":2672:2703  OwnableInvalidOwner(address(0)) */\n      mload(0x40)\n      0x1e4fbdf700000000000000000000000000000000000000000000000000000000\n      dup2\n      mstore\n      0x04\n      add\n      tag_386\n      swap2\n      swap1\n      tag_129\n      jump\t// in\n    tag_386:\n      mload(0x40)\n      dup1\n      swap2\n      sub\n      swap1\n      revert\n        /* \"@openzeppelin/contracts/access/Ownable.sol\":2623:2714  if (newOwner == address(0)) {... */\n    tag_385:\n        /* \"@openzeppelin/contracts/access/Ownable.sol\":2723:2751  _transferOwnership(newOwner) */\n      tag_387\n        /* \"@openzeppelin/contracts/access/Ownable.sol\":2742:2750  newOwner */\n      dup2\n        /* \"@openzeppelin/contracts/access/Ownable.sol\":2723:2741  _transferOwnership */\n      tag_286\n        /* \"@openzeppelin/contracts/access/Ownable.sol\":2723:2751  _transferOwnership(newOwner) */\n      jump\t// in\n    tag_387:\n        /* \"@openzeppelin/contracts/access/Ownable.sol\":2543:2758  function transferOwnership(address newOwner) public virtual onlyOwner {... */\n      pop\n      jump\t// out\n        /* \"contracts/bet.sol\":2042:2101  mapping(address => VestingSchedule) public vestingSchedules */\n    tag_222:\n      mstore(0x20, 0x17)\n      dup1\n      0x00\n      mstore\n      keccak256(0x00, 0x40)\n      0x00\n      swap2\n      pop\n      swap1\n      pop\n      dup1\n      0x00\n      add\n      sload\n      swap1\n      dup1\n      0x01\n      add\n      sload\n      swap1\n      dup1\n      0x02\n      add\n      sload\n      swap1\n      dup1\n      0x03\n      add\n      sload\n      swap1\n      dup1\n      0x04\n      add\n      sload\n      swap1\n      pop\n      dup6\n      jump\t// out\n        /* \"@openzeppelin/contracts/utils/Context.sol\":656:752  function _msgSender() internal view virtual returns (address) {... */\n    tag_234:\n        /* \"@openzeppelin/contracts/utils/Context.sol\":709:716  address */\n      0x00\n        /* \"@openzeppelin/contracts/utils/Context.sol\":735:745  msg.sender */\n      caller\n        /* \"@openzeppelin/contracts/utils/Context.sol\":728:745  return msg.sender */\n      swap1\n      pop\n        /* \"@openzeppelin/contracts/utils/Context.sol\":656:752  function _msgSender() internal view virtual returns (address) {... */\n      swap1\n      jump\t// out\n        /* \"@openzeppelin/contracts/token/ERC20/ERC20.sol\":8989:9117  function _approve(address owner, address spender, uint256 value) internal {... */\n    tag_236:\n        /* \"@openzeppelin/contracts/token/ERC20/ERC20.sol\":9073:9110  _approve(owner, spender, value, true) */\n      tag_390\n        /* \"@openzeppelin/contracts/token/ERC20/ERC20.sol\":9082:9087  owner */\n      dup4\n        /* \"@openzeppelin/contracts/token/ERC20/ERC20.sol\":9089:9096  spender */\n      dup4\n        /* \"@openzeppelin/contracts/token/ERC20/ERC20.sol\":9098:9103  value */\n      dup4\n        /* \"@openzeppelin/contracts/token/ERC20/ERC20.sol\":9105:9109  true */\n      0x01\n        /* \"@openzeppelin/contracts/token/ERC20/ERC20.sol\":9073:9081  _approve */\n      tag_391\n        /* \"@openzeppelin/contracts/token/ERC20/ERC20.sol\":9073:9110  _approve(owner, spender, value, true) */\n      jump\t// in\n    tag_390:\n        /* \"@openzeppelin/contracts/token/ERC20/ERC20.sol\":8989:9117  function _approve(address owner, address spender, uint256 value) internal {... */\n      pop\n      pop\n      pop\n      jump\t// out\n        /* \"@openzeppelin/contracts/token/ERC20/ERC20.sol\":10663:11140  function _spendAllowance(address owner, address spender, uint256 value) internal virtual {... */\n    tag_241:\n        /* \"@openzeppelin/contracts/token/ERC20/ERC20.sol\":10762:10786  uint256 currentAllowance */\n      0x00\n        /* \"@openzeppelin/contracts/token/ERC20/ERC20.sol\":10789:10814  allowance(owner, spender) */\n      tag_393\n        /* \"@openzeppelin/contracts/token/ERC20/ERC20.sol\":10799:10804  owner */\n      dup5\n        /* \"@openzeppelin/contracts/token/ERC20/ERC20.sol\":10806:10813  spender */\n      dup5\n        /* \"@openzeppelin/contracts/token/ERC20/ERC20.sol\":10789:10798  allowance */\n      tag_195\n        /* \"@openzeppelin/contracts/token/ERC20/ERC20.sol\":10789:10814  allowance(owner, spender) */\n      jump\t// in\n    tag_393:\n        /* \"@openzeppelin/contracts/token/ERC20/ERC20.sol\":10762:10814  uint256 currentAllowance = allowance(owner, spender) */\n      swap1\n      pop\n        /* \"@openzeppelin/contracts/token/ERC20/ERC20.sol\":10848:10865  type(uint256).max */\n      0xffffffffffffffffffffffffffffffffffffffffffffffffffffffffffffffff\n        /* \"@openzeppelin/contracts/token/ERC20/ERC20.sol\":10828:10844  currentAllowance */\n      dup2\n        /* \"@openzeppelin/contracts/token/ERC20/ERC20.sol\":10828:10865  currentAllowance != type(uint256).max */\n      eq\n        /* \"@openzeppelin/contracts/token/ERC20/ERC20.sol\":10824:11134  if (currentAllowance != type(uint256).max) {... */\n      tag_394\n      jumpi\n        /* \"@openzeppelin/contracts/token/ERC20/ERC20.sol\":10904:10909  value */\n      dup2\n        /* \"@openzeppelin/contracts/token/ERC20/ERC20.sol\":10885:10901  currentAllowance */\n      dup2\n        /* \"@openzeppelin/contracts/token/ERC20/ERC20.sol\":10885:10909  currentAllowance < value */\n      lt\n        /* \"@openzeppelin/contracts/token/ERC20/ERC20.sol\":10881:11011  if (currentAllowance < value) {... */\n      iszero\n      tag_395\n      jumpi\n        /* \"@openzeppelin/contracts/token/ERC20/ERC20.sol\":10963:10970  spender */\n      dup3\n        /* \"@openzeppelin/contracts/token/ERC20/ERC20.sol\":10972:10988  currentAllowance */\n      dup2\n        /* \"@openzeppelin/contracts/token/ERC20/ERC20.sol\":10990:10995  value */\n      dup4\n        /* \"@openzeppelin/contracts/token/ERC20/ERC20.sol\":10936:10996  ERC20InsufficientAllowance(spender, currentAllowance, value) */\n      mload(0x40)\n      0xfb8f41b200000000000000000000000000000000000000000000000000000000\n      dup2\n      mstore\n      0x04\n      add\n      tag_396\n      swap4\n      swap3\n      swap2\n      swap1\n      tag_397\n      jump\t// in\n    tag_396:\n      mload(0x40)\n      dup1\n      swap2\n      sub\n      swap1\n      revert\n        /* \"@openzeppelin/contracts/token/ERC20/ERC20.sol\":10881:11011  if (currentAllowance < value) {... */\n    tag_395:\n        /* \"@openzeppelin/contracts/token/ERC20/ERC20.sol\":11052:11109  _approve(owner, spender, currentAllowance - value, false) */\n      tag_398\n        /* \"@openzeppelin/contracts/token/ERC20/ERC20.sol\":11061:11066  owner */\n      dup5\n        /* \"@openzeppelin/contracts/token/ERC20/ERC20.sol\":11068:11075  spender */\n      dup5\n        /* \"@openzeppelin/contracts/token/ERC20/ERC20.sol\":11096:11101  value */\n      dup5\n        /* \"@openzeppelin/contracts/token/ERC20/ERC20.sol\":11077:11093  currentAllowance */\n      dup5\n        /* \"@openzeppelin/contracts/token/ERC20/ERC20.sol\":11077:11101  currentAllowance - value */\n      sub\n        /* \"@openzeppelin/contracts/token/ERC20/ERC20.sol\":11103:11108  false */\n      0x00\n        /* \"@openzeppelin/contracts/token/ERC20/ERC20.sol\":11052:11060  _approve */\n      tag_391\n        /* \"@openzeppelin/contracts/token/ERC20/ERC20.sol\":11052:11109  _approve(owner, spender, currentAllowance - value, false) */\n      jump\t// in\n    tag_398:\n        /* \"@openzeppelin/contracts/token/ERC20/ERC20.sol\":10824:11134  if (currentAllowance != type(uint256).max) {... */\n    tag_394:\n        /* \"@openzeppelin/contracts/token/ERC20/ERC20.sol\":10752:11140  {... */\n      pop\n        /* \"@openzeppelin/contracts/token/ERC20/ERC20.sol\":10663:11140  function _spendAllowance(address owner, address spender, uint256 value) internal virtual {... */\n      pop\n      pop\n      pop\n      jump\t// out\n        /* \"@openzeppelin/contracts/token/ERC20/ERC20.sol\":5656:5956  function _transfer(address from, address to, uint256 value) internal {... */\n    tag_243:\n        /* \"@openzeppelin/contracts/token/ERC20/ERC20.sol\":5755:5756  0 */\n      0x00\n        /* \"@openzeppelin/contracts/token/ERC20/ERC20.sol\":5739:5757  from == address(0) */\n      0xffffffffffffffffffffffffffffffffffffffff\n      and\n        /* \"@openzeppelin/contracts/token/ERC20/ERC20.sol\":5739:5743  from */\n      dup4\n        /* \"@openzeppelin/contracts/token/ERC20/ERC20.sol\":5739:5757  from == address(0) */\n      0xffffffffffffffffffffffffffffffffffffffff\n      and\n      sub\n        /* \"@openzeppelin/contracts/token/ERC20/ERC20.sol\":5735:5821  if (from == address(0)) {... */\n      tag_400\n      jumpi\n        /* \"@openzeppelin/contracts/token/ERC20/ERC20.sol\":5807:5808  0 */\n      0x00\n        /* \"@openzeppelin/contracts/token/ERC20/ERC20.sol\":5780:5810  ERC20InvalidSender(address(0)) */\n      mload(0x40)\n      0x96c6fd1e00000000000000000000000000000000000000000000000000000000\n      dup2\n      mstore\n      0x04\n      add\n      tag_401\n      swap2\n      swap1\n      tag_129\n      jump\t// in\n    tag_401:\n      mload(0x40)\n      dup1\n      swap2\n      sub\n      swap1\n      revert\n        /* \"@openzeppelin/contracts/token/ERC20/ERC20.sol\":5735:5821  if (from == address(0)) {... */\n    tag_400:\n        /* \"@openzeppelin/contracts/token/ERC20/ERC20.sol\":5848:5849  0 */\n      0x00\n        /* \"@openzeppelin/contracts/token/ERC20/ERC20.sol\":5834:5850  to == address(0) */\n      0xffffffffffffffffffffffffffffffffffffffff\n      and\n        /* \"@openzeppelin/contracts/token/ERC20/ERC20.sol\":5834:5836  to */\n      dup3\n        /* \"@openzeppelin/contracts/token/ERC20/ERC20.sol\":5834:5850  to == address(0) */\n      0xffffffffffffffffffffffffffffffffffffffff\n      and\n      sub\n        /* \"@openzeppelin/contracts/token/ERC20/ERC20.sol\":5830:5916  if (to == address(0)) {... */\n      tag_402\n      jumpi\n        /* \"@openzeppelin/contracts/token/ERC20/ERC20.sol\":5902:5903  0 */\n      0x00\n        /* \"@openzeppelin/contracts/token/ERC20/ERC20.sol\":5873:5905  ERC20InvalidReceiver(address(0)) */\n      mload(0x40)\n      0xec442f0500000000000000000000000000000000000000000000000000000000\n      dup2\n      mstore\n      0x04\n      add\n      tag_403\n      swap2\n      swap1\n      tag_129\n      jump\t// in\n    tag_403:\n      mload(0x40)\n      dup1\n      swap2\n      sub\n      swap1\n      revert\n        /* \"@openzeppelin/contracts/token/ERC20/ERC20.sol\":5830:5916  if (to == address(0)) {... */\n    tag_402:\n        /* \"@openzeppelin/contracts/token/ERC20/ERC20.sol\":5925:5949  _update(from, to, value) */\n      tag_404\n        /* \"@openzeppelin/contracts/token/ERC20/ERC20.sol\":5933:5937  from */\n      dup4\n        /* \"@openzeppelin/contracts/token/ERC20/ERC20.sol\":5939:5941  to */\n      dup4\n        /* \"@openzeppelin/contracts/token/ERC20/ERC20.sol\":5943:5948  value */\n      dup4\n        /* \"@openzeppelin/contracts/token/ERC20/ERC20.sol\":5925:5932  _update */\n      tag_405\n        /* \"@openzeppelin/contracts/token/ERC20/ERC20.sol\":5925:5949  _update(from, to, value) */\n      jump\t// in\n    tag_404:\n        /* \"@openzeppelin/contracts/token/ERC20/ERC20.sol\":5656:5956  function _transfer(address from, address to, uint256 value) internal {... */\n      pop\n      pop\n      pop\n      jump\t// out\n        /* \"@openzeppelin/contracts/security/ReentrancyGuard.sol\":2336:2623  function _nonReentrantBefore() private {... */\n    tag_247:\n        /* \"@openzeppelin/contracts/security/ReentrancyGuard.sol\":1759:1760  2 */\n      0x02\n        /* \"@openzeppelin/contracts/security/ReentrancyGuard.sol\":2468:2475  _status */\n      sload(0x06)\n        /* \"@openzeppelin/contracts/security/ReentrancyGuard.sol\":2468:2487  _status != _ENTERED */\n      sub\n        /* \"@openzeppelin/contracts/security/ReentrancyGuard.sol\":2460:2523  require(_status != _ENTERED, \"ReentrancyGuard: reentrant call\") */\n      tag_407\n      jumpi\n      mload(0x40)\n      0x08c379a000000000000000000000000000000000000000000000000000000000\n      dup2\n      mstore\n      0x04\n      add\n      tag_408\n      swap1\n      tag_409\n      jump\t// in\n    tag_408:\n      mload(0x40)\n      dup1\n      swap2\n      sub\n      swap1\n      revert\n    tag_407:\n        /* \"@openzeppelin/contracts/security/ReentrancyGuard.sol\":1759:1760  2 */\n      0x02\n        /* \"@openzeppelin/contracts/security/ReentrancyGuard.sol\":2598:2605  _status */\n      0x06\n        /* \"@openzeppelin/contracts/security/ReentrancyGuard.sol\":2598:2616  _status = _ENTERED */\n      dup2\n      swap1\n      sstore\n      pop\n        /* \"@openzeppelin/contracts/security/ReentrancyGuard.sol\":2336:2623  function _nonReentrantBefore() private {... */\n      jump\t// out\n        /* \"@openzeppelin/contracts/security/Pausable.sol\":1767:1873  function _requireNotPaused() internal view virtual {... */\n    tag_250:\n        /* \"@openzeppelin/contracts/security/Pausable.sol\":1837:1845  paused() */\n      tag_411\n        /* \"@openzeppelin/contracts/security/Pausable.sol\":1837:1843  paused */\n      tag_103\n        /* \"@openzeppelin/contracts/security/Pausable.sol\":1837:1845  paused() */\n      jump\t// in\n    tag_411:\n        /* \"@openzeppelin/contracts/security/Pausable.sol\":1836:1845  !paused() */\n      iszero\n        /* \"@openzeppelin/contracts/security/Pausable.sol\":1828:1866  require(!paused(), \"Pausable: paused\") */\n      tag_412\n      jumpi\n      mload(0x40)\n      0x08c379a000000000000000000000000000000000000000000000000000000000\n      dup2\n      mstore\n      0x04\n      add\n      tag_413\n      swap1\n      tag_414\n      jump\t// in\n    tag_413:\n      mload(0x40)\n      dup1\n      swap2\n      sub\n      swap1\n      revert\n    tag_412:\n        /* \"@openzeppelin/contracts/security/Pausable.sol\":1767:1873  function _requireNotPaused() internal view virtual {... */\n      jump\t// out\n        /* \"@openzeppelin/contracts/security/ReentrancyGuard.sol\":2629:2838  function _nonReentrantAfter() private {... */\n    tag_271:\n        /* \"@openzeppelin/contracts/security/ReentrancyGuard.sol\":1716:1717  1 */\n      0x01\n        /* \"@openzeppelin/contracts/security/ReentrancyGuard.sol\":2809:2816  _status */\n      0x06\n        /* \"@openzeppelin/contracts/security/ReentrancyGuard.sol\":2809:2831  _status = _NOT_ENTERED */\n      dup2\n      swap1\n      sstore\n      pop\n        /* \"@openzeppelin/contracts/security/ReentrancyGuard.sol\":2629:2838  function _nonReentrantAfter() private {... */\n      jump\t// out\n        /* \"@openzeppelin/contracts/access/Ownable.sol\":1796:1958  function _checkOwner() internal view virtual {... */\n    tag_274:\n        /* \"@openzeppelin/contracts/access/Ownable.sol\":1866:1878  _msgSender() */\n      tag_417\n        /* \"@openzeppelin/contracts/access/Ownable.sol\":1866:1876  _msgSender */\n      tag_234\n        /* \"@openzeppelin/contracts/access/Ownable.sol\":1866:1878  _msgSender() */\n      jump\t// in\n    tag_417:\n        /* \"@openzeppelin/contracts/access/Ownable.sol\":1855:1878  owner() != _msgSender() */\n      0xffffffffffffffffffffffffffffffffffffffff\n      and\n        /* \"@openzeppelin/contracts/access/Ownable.sol\":1855:1862  owner() */\n      tag_418\n        /* \"@openzeppelin/contracts/access/Ownable.sol\":1855:1860  owner */\n      tag_127\n        /* \"@openzeppelin/contracts/access/Ownable.sol\":1855:1862  owner() */\n      jump\t// in\n    tag_418:\n        /* \"@openzeppelin/contracts/access/Ownable.sol\":1855:1878  owner() != _msgSender() */\n      0xffffffffffffffffffffffffffffffffffffffff\n      and\n      eq\n        /* \"@openzeppelin/contracts/access/Ownable.sol\":1851:1952  if (owner() != _msgSender()) {... */\n      tag_419\n      jumpi\n        /* \"@openzeppelin/contracts/access/Ownable.sol\":1928:1940  _msgSender() */\n      tag_420\n        /* \"@openzeppelin/contracts/access/Ownable.sol\":1928:1938  _msgSender */\n      tag_234\n        /* \"@openzeppelin/contracts/access/Ownable.sol\":1928:1940  _msgSender() */\n      jump\t// in\n    tag_420:\n        /* \"@openzeppelin/contracts/access/Ownable.sol\":1901:1941  OwnableUnauthorizedAccount(_msgSender()) */\n      mload(0x40)\n      0x118cdaa700000000000000000000000000000000000000000000000000000000\n      dup2\n      mstore\n      0x04\n      add\n      tag_421\n      swap2\n      swap1\n      tag_129\n      jump\t// in\n    tag_421:\n      mload(0x40)\n      dup1\n      swap2\n      sub\n      swap1\n      revert\n        /* \"@openzeppelin/contracts/access/Ownable.sol\":1851:1952  if (owner() != _msgSender()) {... */\n    tag_419:\n        /* \"@openzeppelin/contracts/access/Ownable.sol\":1796:1958  function _checkOwner() internal view virtual {... */\n      jump\t// out\n        /* \"@openzeppelin/contracts/access/Ownable.sol\":2912:3099  function _transferOwnership(address newOwner) internal virtual {... */\n    tag_286:\n        /* \"@openzeppelin/contracts/access/Ownable.sol\":2985:3001  address oldOwner */\n      0x00\n        /* \"@openzeppelin/contracts/access/Ownable.sol\":3004:3010  _owner */\n      0x05\n      0x00\n      swap1\n      sload\n      swap1\n      0x0100\n      exp\n      swap1\n      div\n      0xffffffffffffffffffffffffffffffffffffffff\n      and\n        /* \"@openzeppelin/contracts/access/Ownable.sol\":2985:3010  address oldOwner = _owner */\n      swap1\n      pop\n        /* \"@openzeppelin/contracts/access/Ownable.sol\":3029:3037  newOwner */\n      dup2\n        /* \"@openzeppelin/contracts/access/Ownable.sol\":3020:3026  _owner */\n      0x05\n      0x00\n        /* \"@openzeppelin/contracts/access/Ownable.sol\":3020:3037  _owner = newOwner */\n      0x0100\n      exp\n      dup2\n      sload\n      dup2\n      0xffffffffffffffffffffffffffffffffffffffff\n      mul\n      not\n      and\n      swap1\n      dup4\n      0xffffffffffffffffffffffffffffffffffffffff\n      and\n      mul\n      or\n      swap1\n      sstore\n      pop\n        /* \"@openzeppelin/contracts/access/Ownable.sol\":3083:3091  newOwner */\n      dup2\n        /* \"@openzeppelin/contracts/access/Ownable.sol\":3052:3092  OwnershipTransferred(oldOwner, newOwner) */\n      0xffffffffffffffffffffffffffffffffffffffff\n      and\n        /* \"@openzeppelin/contracts/access/Ownable.sol\":3073:3081  oldOwner */\n      dup2\n        /* \"@openzeppelin/contracts/access/Ownable.sol\":3052:3092  OwnershipTransferred(oldOwner, newOwner) */\n      0xffffffffffffffffffffffffffffffffffffffff\n      and\n      0x8be0079c531659141344cd1fd0a4f28419497f9722a3daafe3b4186f6b6457e0\n      mload(0x40)\n      mload(0x40)\n      dup1\n      swap2\n      sub\n      swap1\n      log3\n        /* \"@openzeppelin/contracts/access/Ownable.sol\":2975:3099  {... */\n      pop\n        /* \"@openzeppelin/contracts/access/Ownable.sol\":2912:3099  function _transferOwnership(address newOwner) internal virtual {... */\n      pop\n      jump\t// out\n        /* \"contracts/bet.sol\":6711:7126  function createVestingSchedule(... */\n    tag_347:\n        /* \"contracts/bet.sol\":6899:6931  VestingSchedule storage schedule */\n      0x00\n        /* \"contracts/bet.sol\":6934:6950  vestingSchedules */\n      0x17\n        /* \"contracts/bet.sol\":6934:6963  vestingSchedules[beneficiary] */\n      0x00\n        /* \"contracts/bet.sol\":6951:6962  beneficiary */\n      dup8\n        /* \"contracts/bet.sol\":6934:6963  vestingSchedules[beneficiary] */\n      0xffffffffffffffffffffffffffffffffffffffff\n      and\n      0xffffffffffffffffffffffffffffffffffffffff\n      and\n      dup2\n      mstore\n      0x20\n      add\n      swap1\n      dup2\n      mstore\n      0x20\n      add\n      0x00\n      keccak256\n        /* \"contracts/bet.sol\":6899:6963  VestingSchedule storage schedule = vestingSchedules[beneficiary] */\n      swap1\n      pop\n        /* \"contracts/bet.sol\":6997:7003  amount */\n      dup5\n        /* \"contracts/bet.sol\":6973:6981  schedule */\n      dup2\n        /* \"contracts/bet.sol\":6973:6993  schedule.totalAmount */\n      0x00\n      add\n      0x00\n        /* \"contracts/bet.sol\":6973:7003  schedule.totalAmount += amount */\n      dup3\n      dup3\n      sload\n      tag_424\n      swap2\n      swap1\n      tag_263\n      jump\t// in\n    tag_424:\n      swap3\n      pop\n      pop\n      dup2\n      swap1\n      sstore\n      pop\n        /* \"contracts/bet.sol\":7034:7043  startTime */\n      dup4\n        /* \"contracts/bet.sol\":7013:7021  schedule */\n      dup2\n        /* \"contracts/bet.sol\":7013:7031  schedule.startTime */\n      0x02\n      add\n        /* \"contracts/bet.sol\":7013:7043  schedule.startTime = startTime */\n      dup2\n      swap1\n      sstore\n      pop\n        /* \"contracts/bet.sol\":7073:7081  duration */\n      dup3\n        /* \"contracts/bet.sol\":7053:7061  schedule */\n      dup2\n        /* \"contracts/bet.sol\":7053:7070  schedule.duration */\n      0x03\n      add\n        /* \"contracts/bet.sol\":7053:7081  schedule.duration = duration */\n      dup2\n      swap1\n      sstore\n      pop\n        /* \"contracts/bet.sol\":7111:7119  interval */\n      dup2\n        /* \"contracts/bet.sol\":7091:7099  schedule */\n      dup2\n        /* \"contracts/bet.sol\":7091:7108  schedule.interval */\n      0x04\n      add\n        /* \"contracts/bet.sol\":7091:7119  schedule.interval = interval */\n      dup2\n      swap1\n      sstore\n      pop\n        /* \"contracts/bet.sol\":6889:7126  {... */\n      pop\n        /* \"contracts/bet.sol\":6711:7126  function createVestingSchedule(... */\n      pop\n      pop\n      pop\n      pop\n      pop\n      jump\t// out\n        /* \"@openzeppelin/contracts/token/ERC20/ERC20.sol\":9949:10381  function _approve(address owner, address spender, uint256 value, bool emitEvent) internal virtual {... */\n    tag_391:\n        /* \"@openzeppelin/contracts/token/ERC20/ERC20.sol\":10078:10079  0 */\n      0x00\n        /* \"@openzeppelin/contracts/token/ERC20/ERC20.sol\":10061:10080  owner == address(0) */\n      0xffffffffffffffffffffffffffffffffffffffff\n      and\n        /* \"@openzeppelin/contracts/token/ERC20/ERC20.sol\":10061:10066  owner */\n      dup5\n        /* \"@openzeppelin/contracts/token/ERC20/ERC20.sol\":10061:10080  owner == address(0) */\n      0xffffffffffffffffffffffffffffffffffffffff\n      and\n      sub\n        /* \"@openzeppelin/contracts/token/ERC20/ERC20.sol\":10057:10146  if (owner == address(0)) {... */\n      tag_426\n      jumpi\n        /* \"@openzeppelin/contracts/token/ERC20/ERC20.sol\":10132:10133  0 */\n      0x00\n        /* \"@openzeppelin/contracts/token/ERC20/ERC20.sol\":10103:10135  ERC20InvalidApprover(address(0)) */\n      mload(0x40)\n      0xe602df0500000000000000000000000000000000000000000000000000000000\n      dup2\n      mstore\n      0x04\n      add\n      tag_427\n      swap2\n      swap1\n      tag_129\n      jump\t// in\n    tag_427:\n      mload(0x40)\n      dup1\n      swap2\n      sub\n      swap1\n      revert\n        /* \"@openzeppelin/contracts/token/ERC20/ERC20.sol\":10057:10146  if (owner == address(0)) {... */\n    tag_426:\n        /* \"@openzeppelin/contracts/token/ERC20/ERC20.sol\":10178:10179  0 */\n      0x00\n        /* \"@openzeppelin/contracts/token/ERC20/ERC20.sol\":10159:10180  spender == address(0) */\n      0xffffffffffffffffffffffffffffffffffffffff\n      and\n        /* \"@openzeppelin/contracts/token/ERC20/ERC20.sol\":10159:10166  spender */\n      dup4\n        /* \"@openzeppelin/contracts/token/ERC20/ERC20.sol\":10159:10180  spender == address(0) */\n      0xffffffffffffffffffffffffffffffffffffffff\n      and\n      sub\n        /* \"@openzeppelin/contracts/token/ERC20/ERC20.sol\":10155:10245  if (spender == address(0)) {... */\n      tag_428\n      jumpi\n        /* \"@openzeppelin/contracts/token/ERC20/ERC20.sol\":10231:10232  0 */\n      0x00\n        /* \"@openzeppelin/contracts/token/ERC20/ERC20.sol\":10203:10234  ERC20InvalidSpender(address(0)) */\n      mload(0x40)\n      0x94280d6200000000000000000000000000000000000000000000000000000000\n      dup2\n      mstore\n      0x04\n      add\n      tag_429\n      swap2\n      swap1\n      tag_129\n      jump\t// in\n    tag_429:\n      mload(0x40)\n      dup1\n      swap2\n      sub\n      swap1\n      revert\n        /* \"@openzeppelin/contracts/token/ERC20/ERC20.sol\":10155:10245  if (spender == address(0)) {... */\n    tag_428:\n        /* \"@openzeppelin/contracts/token/ERC20/ERC20.sol\":10284:10289  value */\n      dup2\n        /* \"@openzeppelin/contracts/token/ERC20/ERC20.sol\":10254:10265  _allowances */\n      0x01\n        /* \"@openzeppelin/contracts/token/ERC20/ERC20.sol\":10254:10272  _allowances[owner] */\n      0x00\n        /* \"@openzeppelin/contracts/token/ERC20/ERC20.sol\":10266:10271  owner */\n      dup7\n        /* \"@openzeppelin/contracts/token/ERC20/ERC20.sol\":10254:10272  _allowances[owner] */\n      0xffffffffffffffffffffffffffffffffffffffff\n      and\n      0xffffffffffffffffffffffffffffffffffffffff\n      and\n      dup2\n      mstore\n      0x20\n      add\n      swap1\n      dup2\n      mstore\n      0x20\n      add\n      0x00\n      keccak256\n        /* \"@openzeppelin/contracts/token/ERC20/ERC20.sol\":10254:10281  _allowances[owner][spender] */\n      0x00\n        /* \"@openzeppelin/contracts/token/ERC20/ERC20.sol\":10273:10280  spender */\n      dup6\n        /* \"@openzeppelin/contracts/token/ERC20/ERC20.sol\":10254:10281  _allowances[owner][spender] */\n      0xffffffffffffffffffffffffffffffffffffffff\n      and\n      0xffffffffffffffffffffffffffffffffffffffff\n      and\n      dup2\n      mstore\n      0x20\n      add\n      swap1\n      dup2\n      mstore\n      0x20\n      add\n      0x00\n      keccak256\n        /* \"@openzeppelin/contracts/token/ERC20/ERC20.sol\":10254:10289  _allowances[owner][spender] = value */\n      dup2\n      swap1\n      sstore\n      pop\n        /* \"@openzeppelin/contracts/token/ERC20/ERC20.sol\":10303:10312  emitEvent */\n      dup1\n        /* \"@openzeppelin/contracts/token/ERC20/ERC20.sol\":10299:10375  if (emitEvent) {... */\n      iszero\n      tag_430\n      jumpi\n        /* \"@openzeppelin/contracts/token/ERC20/ERC20.sol\":10349:10356  spender */\n      dup3\n        /* \"@openzeppelin/contracts/token/ERC20/ERC20.sol\":10333:10364  Approval(owner, spender, value) */\n      0xffffffffffffffffffffffffffffffffffffffff\n      and\n        /* \"@openzeppelin/contracts/token/ERC20/ERC20.sol\":10342:10347  owner */\n      dup5\n        /* \"@openzeppelin/contracts/token/ERC20/ERC20.sol\":10333:10364  Approval(owner, spender, value) */\n      0xffffffffffffffffffffffffffffffffffffffff\n      and\n      0x8c5be1e5ebec7d5bd14f71427d1e84f3dd0314c0f7b2291e5b200ac8c7c3b925\n        /* \"@openzeppelin/contracts/token/ERC20/ERC20.sol\":10358:10363  value */\n      dup5\n        /* \"@openzeppelin/contracts/token/ERC20/ERC20.sol\":10333:10364  Approval(owner, spender, value) */\n      mload(0x40)\n      tag_431\n      swap2\n      swap1\n      tag_54\n      jump\t// in\n    tag_431:\n      mload(0x40)\n      dup1\n      swap2\n      sub\n      swap1\n      log3\n        /* \"@openzeppelin/contracts/token/ERC20/ERC20.sol\":10299:10375  if (emitEvent) {... */\n    tag_430:\n        /* \"@openzeppelin/contracts/token/ERC20/ERC20.sol\":9949:10381  function _approve(address owner, address spender, uint256 value, bool emitEvent) internal virtual {... */\n      pop\n      pop\n      pop\n      pop\n      jump\t// out\n        /* \"@openzeppelin/contracts/token/ERC20/ERC20.sol\":6271:7378  function _update(address from, address to, uint256 value) internal virtual {... */\n    tag_405:\n        /* \"@openzeppelin/contracts/token/ERC20/ERC20.sol\":6376:6377  0 */\n      0x00\n        /* \"@openzeppelin/contracts/token/ERC20/ERC20.sol\":6360:6378  from == address(0) */\n      0xffffffffffffffffffffffffffffffffffffffff\n      and\n        /* \"@openzeppelin/contracts/token/ERC20/ERC20.sol\":6360:6364  from */\n      dup4\n        /* \"@openzeppelin/contracts/token/ERC20/ERC20.sol\":6360:6378  from == address(0) */\n      0xffffffffffffffffffffffffffffffffffffffff\n      and\n      sub\n        /* \"@openzeppelin/contracts/token/ERC20/ERC20.sol\":6356:6896  if (from == address(0)) {... */\n      tag_433\n      jumpi\n        /* \"@openzeppelin/contracts/token/ERC20/ERC20.sol\":6512:6517  value */\n      dup1\n        /* \"@openzeppelin/contracts/token/ERC20/ERC20.sol\":6496:6508  _totalSupply */\n      0x02\n      0x00\n        /* \"@openzeppelin/contracts/token/ERC20/ERC20.sol\":6496:6517  _totalSupply += value */\n      dup3\n      dup3\n      sload\n      tag_434\n      swap2\n      swap1\n      tag_263\n      jump\t// in\n    tag_434:\n      swap3\n      pop\n      pop\n      dup2\n      swap1\n      sstore\n      pop\n        /* \"@openzeppelin/contracts/token/ERC20/ERC20.sol\":6356:6896  if (from == address(0)) {... */\n      jump(tag_435)\n    tag_433:\n        /* \"@openzeppelin/contracts/token/ERC20/ERC20.sol\":6548:6567  uint256 fromBalance */\n      0x00\n        /* \"@openzeppelin/contracts/token/ERC20/ERC20.sol\":6570:6579  _balances */\n      dup1\n        /* \"@openzeppelin/contracts/token/ERC20/ERC20.sol\":6570:6585  _balances[from] */\n      0x00\n        /* \"@openzeppelin/contracts/token/ERC20/ERC20.sol\":6580:6584  from */\n      dup6\n        /* \"@openzeppelin/contracts/token/ERC20/ERC20.sol\":6570:6585  _balances[from] */\n      0xffffffffffffffffffffffffffffffffffffffff\n      and\n      0xffffffffffffffffffffffffffffffffffffffff\n      and\n      dup2\n      mstore\n      0x20\n      add\n      swap1\n      dup2\n      mstore\n      0x20\n      add\n      0x00\n      keccak256\n      sload\n        /* \"@openzeppelin/contracts/token/ERC20/ERC20.sol\":6548:6585  uint256 fromBalance = _balances[from] */\n      swap1\n      pop\n        /* \"@openzeppelin/contracts/token/ERC20/ERC20.sol\":6617:6622  value */\n      dup2\n        /* \"@openzeppelin/contracts/token/ERC20/ERC20.sol\":6603:6614  fromBalance */\n      dup2\n        /* \"@openzeppelin/contracts/token/ERC20/ERC20.sol\":6603:6622  fromBalance < value */\n      lt\n        /* \"@openzeppelin/contracts/token/ERC20/ERC20.sol\":6599:6714  if (fromBalance < value) {... */\n      iszero\n      tag_436\n      jumpi\n        /* \"@openzeppelin/contracts/token/ERC20/ERC20.sol\":6674:6678  from */\n      dup4\n        /* \"@openzeppelin/contracts/token/ERC20/ERC20.sol\":6680:6691  fromBalance */\n      dup2\n        /* \"@openzeppelin/contracts/token/ERC20/ERC20.sol\":6693:6698  value */\n      dup4\n        /* \"@openzeppelin/contracts/token/ERC20/ERC20.sol\":6649:6699  ERC20InsufficientBalance(from, fromBalance, value) */\n      mload(0x40)\n      0xe450d38c00000000000000000000000000000000000000000000000000000000\n      dup2\n      mstore\n      0x04\n      add\n      tag_437\n      swap4\n      swap3\n      swap2\n      swap1\n      tag_397\n      jump\t// in\n    tag_437:\n      mload(0x40)\n      dup1\n      swap2\n      sub\n      swap1\n      revert\n        /* \"@openzeppelin/contracts/token/ERC20/ERC20.sol\":6599:6714  if (fromBalance < value) {... */\n    tag_436:\n        /* \"@openzeppelin/contracts/token/ERC20/ERC20.sol\":6866:6871  value */\n      dup2\n        /* \"@openzeppelin/contracts/token/ERC20/ERC20.sol\":6852:6863  fromBalance */\n      dup2\n        /* \"@openzeppelin/contracts/token/ERC20/ERC20.sol\":6852:6871  fromBalance - value */\n      sub\n        /* \"@openzeppelin/contracts/token/ERC20/ERC20.sol\":6834:6843  _balances */\n      0x00\n        /* \"@openzeppelin/contracts/token/ERC20/ERC20.sol\":6834:6849  _balances[from] */\n      dup1\n        /* \"@openzeppelin/contracts/token/ERC20/ERC20.sol\":6844:6848  from */\n      dup7\n        /* \"@openzeppelin/contracts/token/ERC20/ERC20.sol\":6834:6849  _balances[from] */\n      0xffffffffffffffffffffffffffffffffffffffff\n      and\n      0xffffffffffffffffffffffffffffffffffffffff\n      and\n      dup2\n      mstore\n      0x20\n      add\n      swap1\n      dup2\n      mstore\n      0x20\n      add\n      0x00\n      keccak256\n        /* \"@openzeppelin/contracts/token/ERC20/ERC20.sol\":6834:6871  _balances[from] = fromBalance - value */\n      dup2\n      swap1\n      sstore\n      pop\n        /* \"@openzeppelin/contracts/token/ERC20/ERC20.sol\":6534:6896  {... */\n      pop\n        /* \"@openzeppelin/contracts/token/ERC20/ERC20.sol\":6356:6896  if (from == address(0)) {... */\n    tag_435:\n        /* \"@openzeppelin/contracts/token/ERC20/ERC20.sol\":6924:6925  0 */\n      0x00\n        /* \"@openzeppelin/contracts/token/ERC20/ERC20.sol\":6910:6926  to == address(0) */\n      0xffffffffffffffffffffffffffffffffffffffff\n      and\n        /* \"@openzeppelin/contracts/token/ERC20/ERC20.sol\":6910:6912  to */\n      dup3\n        /* \"@openzeppelin/contracts/token/ERC20/ERC20.sol\":6910:6926  to == address(0) */\n      0xffffffffffffffffffffffffffffffffffffffff\n      and\n      sub\n        /* \"@openzeppelin/contracts/token/ERC20/ERC20.sol\":6906:7331  if (to == address(0)) {... */\n      tag_438\n      jumpi\n        /* \"@openzeppelin/contracts/token/ERC20/ERC20.sol\":7089:7094  value */\n      dup1\n        /* \"@openzeppelin/contracts/token/ERC20/ERC20.sol\":7073:7085  _totalSupply */\n      0x02\n      0x00\n        /* \"@openzeppelin/contracts/token/ERC20/ERC20.sol\":7073:7094  _totalSupply -= value */\n      dup3\n      dup3\n      sload\n      sub\n      swap3\n      pop\n      pop\n      dup2\n      swap1\n      sstore\n      pop\n        /* \"@openzeppelin/contracts/token/ERC20/ERC20.sol\":6906:7331  if (to == address(0)) {... */\n      jump(tag_439)\n    tag_438:\n        /* \"@openzeppelin/contracts/token/ERC20/ERC20.sol\":7301:7306  value */\n      dup1\n        /* \"@openzeppelin/contracts/token/ERC20/ERC20.sol\":7284:7293  _balances */\n      0x00\n        /* \"@openzeppelin/contracts/token/ERC20/ERC20.sol\":7284:7297  _balances[to] */\n      dup1\n        /* \"@openzeppelin/contracts/token/ERC20/ERC20.sol\":7294:7296  to */\n      dup5\n        /* \"@openzeppelin/contracts/token/ERC20/ERC20.sol\":7284:7297  _balances[to] */\n      0xffffffffffffffffffffffffffffffffffffffff\n      and\n      0xffffffffffffffffffffffffffffffffffffffff\n      and\n      dup2\n      mstore\n      0x20\n      add\n      swap1\n      dup2\n      mstore\n      0x20\n      add\n      0x00\n      keccak256\n      0x00\n        /* \"@openzeppelin/contracts/token/ERC20/ERC20.sol\":7284:7306  _balances[to] += value */\n      dup3\n      dup3\n      sload\n      add\n      swap3\n      pop\n      pop\n      dup2\n      swap1\n      sstore\n      pop\n        /* \"@openzeppelin/contracts/token/ERC20/ERC20.sol\":6906:7331  if (to == address(0)) {... */\n    tag_439:\n        /* \"@openzeppelin/contracts/token/ERC20/ERC20.sol\":7361:7363  to */\n      dup2\n        /* \"@openzeppelin/contracts/token/ERC20/ERC20.sol\":7346:7371  Transfer(from, to, value) */\n      0xffffffffffffffffffffffffffffffffffffffff\n      and\n        /* \"@openzeppelin/contracts/token/ERC20/ERC20.sol\":7355:7359  from */\n      dup4\n        /* \"@openzeppelin/contracts/token/ERC20/ERC20.sol\":7346:7371  Transfer(from, to, value) */\n      0xffffffffffffffffffffffffffffffffffffffff\n      and\n      0xddf252ad1be2c89b69c2b068fc378daa952ba7f163c4a11628f55a4df523b3ef\n        /* \"@openzeppelin/contracts/token/ERC20/ERC20.sol\":7365:7370  value */\n      dup4\n        /* \"@openzeppelin/contracts/token/ERC20/ERC20.sol\":7346:7371  Transfer(from, to, value) */\n      mload(0x40)\n      tag_440\n      swap2\n      swap1\n      tag_54\n      jump\t// in\n    tag_440:\n      mload(0x40)\n      dup1\n      swap2\n      sub\n      swap1\n      log3\n        /* \"@openzeppelin/contracts/token/ERC20/ERC20.sol\":6271:7378  function _update(address from, address to, uint256 value) internal virtual {... */\n      pop\n      pop\n      pop\n      jump\t// out\n        /* \"#utility.yul\":7:84   */\n    tag_441:\n        /* \"#utility.yul\":44:51   */\n      0x00\n        /* \"#utility.yul\":73:78   */\n      dup2\n        /* \"#utility.yul\":62:78   */\n      swap1\n      pop\n        /* \"#utility.yul\":7:84   */\n      swap2\n      swap1\n      pop\n      jump\t// out\n        /* \"#utility.yul\":90:208   */\n    tag_442:\n        /* \"#utility.yul\":177:201   */\n      tag_501\n        /* \"#utility.yul\":195:200   */\n      dup2\n        /* \"#utility.yul\":177:201   */\n      tag_441\n      jump\t// in\n    tag_501:\n        /* \"#utility.yul\":172:175   */\n      dup3\n        /* \"#utility.yul\":165:202   */\n      mstore\n        /* \"#utility.yul\":90:208   */\n      pop\n      pop\n      jump\t// out\n        /* \"#utility.yul\":214:436   */\n    tag_54:\n        /* \"#utility.yul\":307:311   */\n      0x00\n        /* \"#utility.yul\":345:347   */\n      0x20\n        /* \"#utility.yul\":334:343   */\n      dup3\n        /* \"#utility.yul\":330:348   */\n      add\n        /* \"#utility.yul\":322:348   */\n      swap1\n      pop\n        /* \"#utility.yul\":358:429   */\n      tag_503\n        /* \"#utility.yul\":426:427   */\n      0x00\n        /* \"#utility.yul\":415:424   */\n      dup4\n        /* \"#utility.yul\":411:428   */\n      add\n        /* \"#utility.yul\":402:408   */\n      dup5\n        /* \"#utility.yul\":358:429   */\n      tag_442\n      jump\t// in\n    tag_503:\n        /* \"#utility.yul\":214:436   */\n      swap3\n      swap2\n      pop\n      pop\n      jump\t// out\n        /* \"#utility.yul\":442:541   */\n    tag_443:\n        /* \"#utility.yul\":494:500   */\n      0x00\n        /* \"#utility.yul\":528:533   */\n      dup2\n        /* \"#utility.yul\":522:534   */\n      mload\n        /* \"#utility.yul\":512:534   */\n      swap1\n      pop\n        /* \"#utility.yul\":442:541   */\n      swap2\n      swap1\n      pop\n      jump\t// out\n        /* \"#utility.yul\":547:716   */\n    tag_444:\n        /* \"#utility.yul\":631:642   */\n      0x00\n        /* \"#utility.yul\":665:671   */\n      dup3\n        /* \"#utility.yul\":660:663   */\n      dup3\n        /* \"#utility.yul\":653:672   */\n      mstore\n        /* \"#utility.yul\":705:709   */\n      0x20\n        /* \"#utility.yul\":700:703   */\n      dup3\n        /* \"#utility.yul\":696:710   */\n      add\n        /* \"#utility.yul\":681:710   */\n      swap1\n      pop\n        /* \"#utility.yul\":547:716   */\n      swap3\n      swap2\n      pop\n      pop\n      jump\t// out\n        /* \"#utility.yul\":722:970   */\n    tag_445:\n        /* \"#utility.yul\":804:805   */\n      0x00\n        /* \"#utility.yul\":814:927   */\n    tag_507:\n        /* \"#utility.yul\":828:834   */\n      dup4\n        /* \"#utility.yul\":825:826   */\n      dup2\n        /* \"#utility.yul\":822:835   */\n      lt\n        /* \"#utility.yul\":814:927   */\n      iszero\n      tag_509\n      jumpi\n        /* \"#utility.yul\":913:914   */\n      dup1\n        /* \"#utility.yul\":908:911   */\n      dup3\n        /* \"#utility.yul\":904:915   */\n      add\n        /* \"#utility.yul\":898:916   */\n      mload\n        /* \"#utility.yul\":894:895   */\n      dup2\n        /* \"#utility.yul\":889:892   */\n      dup5\n        /* \"#utility.yul\":885:896   */\n      add\n        /* \"#utility.yul\":878:917   */\n      mstore\n        /* \"#utility.yul\":850:852   */\n      0x20\n        /* \"#utility.yul\":847:848   */\n      dup2\n        /* \"#utility.yul\":843:853   */\n      add\n        /* \"#utility.yul\":838:853   */\n      swap1\n      pop\n        /* \"#utility.yul\":814:927   */\n      jump(tag_507)\n    tag_509:\n        /* \"#utility.yul\":961:962   */\n      0x00\n        /* \"#utility.yul\":952:958   */\n      dup5\n        /* \"#utility.yul\":947:950   */\n      dup5\n        /* \"#utility.yul\":943:959   */\n      add\n        /* \"#utility.yul\":936:963   */\n      mstore\n        /* \"#utility.yul\":784:970   */\n      pop\n        /* \"#utility.yul\":722:970   */\n      pop\n      pop\n      pop\n      jump\t// out\n        /* \"#utility.yul\":976:1078   */\n    tag_446:\n        /* \"#utility.yul\":1017:1023   */\n      0x00\n        /* \"#utility.yul\":1068:1070   */\n      0x1f\n        /* \"#utility.yul\":1064:1071   */\n      not\n        /* \"#utility.yul\":1059:1061   */\n      0x1f\n        /* \"#utility.yul\":1052:1057   */\n      dup4\n        /* \"#utility.yul\":1048:1062   */\n      add\n        /* \"#utility.yul\":1044:1072   */\n      and\n        /* \"#utility.yul\":1034:1072   */\n      swap1\n      pop\n        /* \"#utility.yul\":976:1078   */\n      swap2\n      swap1\n      pop\n      jump\t// out\n        /* \"#utility.yul\":1084:1461   */\n    tag_447:\n        /* \"#utility.yul\":1172:1175   */\n      0x00\n        /* \"#utility.yul\":1200:1239   */\n      tag_512\n        /* \"#utility.yul\":1233:1238   */\n      dup3\n        /* \"#utility.yul\":1200:1239   */\n      tag_443\n      jump\t// in\n    tag_512:\n        /* \"#utility.yul\":1255:1326   */\n      tag_513\n        /* \"#utility.yul\":1319:1325   */\n      dup2\n        /* \"#utility.yul\":1314:1317   */\n      dup6\n        /* \"#utility.yul\":1255:1326   */\n      tag_444\n      jump\t// in\n    tag_513:\n        /* \"#utility.yul\":1248:1326   */\n      swap4\n      pop\n        /* \"#utility.yul\":1335:1400   */\n      tag_514\n        /* \"#utility.yul\":1393:1399   */\n      dup2\n        /* \"#utility.yul\":1388:1391   */\n      dup6\n        /* \"#utility.yul\":1381:1385   */\n      0x20\n        /* \"#utility.yul\":1374:1379   */\n      dup7\n        /* \"#utility.yul\":1370:1386   */\n      add\n        /* \"#utility.yul\":1335:1400   */\n      tag_445\n      jump\t// in\n    tag_514:\n        /* \"#utility.yul\":1425:1454   */\n      tag_515\n        /* \"#utility.yul\":1447:1453   */\n      dup2\n        /* \"#utility.yul\":1425:1454   */\n      tag_446\n      jump\t// in\n    tag_515:\n        /* \"#utility.yul\":1420:1423   */\n      dup5\n        /* \"#utility.yul\":1416:1455   */\n      add\n        /* \"#utility.yul\":1409:1455   */\n      swap2\n      pop\n        /* \"#utility.yul\":1176:1461   */\n      pop\n        /* \"#utility.yul\":1084:1461   */\n      swap3\n      swap2\n      pop\n      pop\n      jump\t// out\n        /* \"#utility.yul\":1467:1780   */\n    tag_59:\n        /* \"#utility.yul\":1580:1584   */\n      0x00\n        /* \"#utility.yul\":1618:1620   */\n      0x20\n        /* \"#utility.yul\":1607:1616   */\n      dup3\n        /* \"#utility.yul\":1603:1621   */\n      add\n        /* \"#utility.yul\":1595:1621   */\n      swap1\n      pop\n        /* \"#utility.yul\":1667:1676   */\n      dup2\n        /* \"#utility.yul\":1661:1665   */\n      dup2\n        /* \"#utility.yul\":1657:1677   */\n      sub\n        /* \"#utility.yul\":1653:1654   */\n      0x00\n        /* \"#utility.yul\":1642:1651   */\n      dup4\n        /* \"#utility.yul\":1638:1655   */\n      add\n        /* \"#utility.yul\":1631:1678   */\n      mstore\n        /* \"#utility.yul\":1695:1773   */\n      tag_517\n        /* \"#utility.yul\":1768:1772   */\n      dup2\n        /* \"#utility.yul\":1759:1765   */\n      dup5\n        /* \"#utility.yul\":1695:1773   */\n      tag_447\n      jump\t// in\n    tag_517:\n        /* \"#utility.yul\":1687:1773   */\n      swap1\n      pop\n        /* \"#utility.yul\":1467:1780   */\n      swap3\n      swap2\n      pop\n      pop\n      jump\t// out\n        /* \"#utility.yul\":1867:1984   */\n    tag_449:\n        /* \"#utility.yul\":1976:1977   */\n      0x00\n        /* \"#utility.yul\":1973:1974   */\n      dup1\n        /* \"#utility.yul\":1966:1978   */\n      revert\n        /* \"#utility.yul\":2113:2239   */\n    tag_451:\n        /* \"#utility.yul\":2150:2157   */\n      0x00\n        /* \"#utility.yul\":2190:2232   */\n      0xffffffffffffffffffffffffffffffffffffffff\n        /* \"#utility.yul\":2183:2188   */\n      dup3\n        /* \"#utility.yul\":2179:2233   */\n      and\n        /* \"#utility.yul\":2168:2233   */\n      swap1\n      pop\n        /* \"#utility.yul\":2113:2239   */\n      swap2\n      swap1\n      pop\n      jump\t// out\n        /* \"#utility.yul\":2245:2341   */\n    tag_452:\n        /* \"#utility.yul\":2282:2289   */\n      0x00\n        /* \"#utility.yul\":2311:2335   */\n      tag_523\n        /* \"#utility.yul\":2329:2334   */\n      dup3\n        /* \"#utility.yul\":2311:2335   */\n      tag_451\n      jump\t// in\n    tag_523:\n        /* \"#utility.yul\":2300:2335   */\n      swap1\n      pop\n        /* \"#utility.yul\":2245:2341   */\n      swap2\n      swap1\n      pop\n      jump\t// out\n        /* \"#utility.yul\":2347:2469   */\n    tag_453:\n        /* \"#utility.yul\":2420:2444   */\n      tag_525\n        /* \"#utility.yul\":2438:2443   */\n      dup2\n        /* \"#utility.yul\":2420:2444   */\n      tag_452\n      jump\t// in\n    tag_525:\n        /* \"#utility.yul\":2413:2418   */\n      dup2\n        /* \"#utility.yul\":2410:2445   */\n      eq\n        /* \"#utility.yul\":2400:2463   */\n      tag_526\n      jumpi\n        /* \"#utility.yul\":2459:2460   */\n      0x00\n        /* \"#utility.yul\":2456:2457   */\n      dup1\n        /* \"#utility.yul\":2449:2461   */\n      revert\n        /* \"#utility.yul\":2400:2463   */\n    tag_526:\n        /* \"#utility.yul\":2347:2469   */\n      pop\n      jump\t// out\n        /* \"#utility.yul\":2475:2614   */\n    tag_454:\n        /* \"#utility.yul\":2521:2526   */\n      0x00\n        /* \"#utility.yul\":2559:2565   */\n      dup2\n        /* \"#utility.yul\":2546:2566   */\n      calldataload\n        /* \"#utility.yul\":2537:2566   */\n      swap1\n      pop\n        /* \"#utility.yul\":2575:2608   */\n      tag_528\n        /* \"#utility.yul\":2602:2607   */\n      dup2\n        /* \"#utility.yul\":2575:2608   */\n      tag_453\n      jump\t// in\n    tag_528:\n        /* \"#utility.yul\":2475:2614   */\n      swap3\n      swap2\n      pop\n      pop\n      jump\t// out\n        /* \"#utility.yul\":2620:2742   */\n    tag_455:\n        /* \"#utility.yul\":2693:2717   */\n      tag_530\n        /* \"#utility.yul\":2711:2716   */\n      dup2\n        /* \"#utility.yul\":2693:2717   */\n      tag_441\n      jump\t// in\n    tag_530:\n        /* \"#utility.yul\":2686:2691   */\n      dup2\n        /* \"#utility.yul\":2683:2718   */\n      eq\n        /* \"#utility.yul\":2673:2736   */\n      tag_531\n      jumpi\n        /* \"#utility.yul\":2732:2733   */\n      0x00\n        /* \"#utility.yul\":2729:2730   */\n      dup1\n        /* \"#utility.yul\":2722:2734   */\n      revert\n        /* \"#utility.yul\":2673:2736   */\n    tag_531:\n        /* \"#utility.yul\":2620:2742   */\n      pop\n      jump\t// out\n        /* \"#utility.yul\":2748:2887   */\n    tag_456:\n        /* \"#utility.yul\":2794:2799   */\n      0x00\n        /* \"#utility.yul\":2832:2838   */\n      dup2\n        /* \"#utility.yul\":2819:2839   */\n      calldataload\n        /* \"#utility.yul\":2810:2839   */\n      swap1\n      pop\n        /* \"#utility.yul\":2848:2881   */\n      tag_533\n        /* \"#utility.yul\":2875:2880   */\n      dup2\n        /* \"#utility.yul\":2848:2881   */\n      tag_455\n      jump\t// in\n    tag_533:\n        /* \"#utility.yul\":2748:2887   */\n      swap3\n      swap2\n      pop\n      pop\n      jump\t// out\n        /* \"#utility.yul\":2893:3367   */\n    tag_63:\n        /* \"#utility.yul\":2961:2967   */\n      0x00\n        /* \"#utility.yul\":2969:2975   */\n      dup1\n        /* \"#utility.yul\":3018:3020   */\n      0x40\n        /* \"#utility.yul\":3006:3015   */\n      dup4\n        /* \"#utility.yul\":2997:3004   */\n      dup6\n        /* \"#utility.yul\":2993:3016   */\n      sub\n        /* \"#utility.yul\":2989:3021   */\n      slt\n        /* \"#utility.yul\":2986:3105   */\n      iszero\n      tag_535\n      jumpi\n        /* \"#utility.yul\":3024:3103   */\n      tag_536\n      tag_449\n      jump\t// in\n    tag_536:\n        /* \"#utility.yul\":2986:3105   */\n    tag_535:\n        /* \"#utility.yul\":3144:3145   */\n      0x00\n        /* \"#utility.yul\":3169:3222   */\n      tag_537\n        /* \"#utility.yul\":3214:3221   */\n      dup6\n        /* \"#utility.yul\":3205:3211   */\n      dup3\n        /* \"#utility.yul\":3194:3203   */\n      dup7\n        /* \"#utility.yul\":3190:3212   */\n      add\n        /* \"#utility.yul\":3169:3222   */\n      tag_454\n      jump\t// in\n    tag_537:\n        /* \"#utility.yul\":3159:3222   */\n      swap3\n      pop\n        /* \"#utility.yul\":3115:3232   */\n      pop\n        /* \"#utility.yul\":3271:3273   */\n      0x20\n        /* \"#utility.yul\":3297:3350   */\n      tag_538\n        /* \"#utility.yul\":3342:3349   */\n      dup6\n        /* \"#utility.yul\":3333:3339   */\n      dup3\n        /* \"#utility.yul\":3322:3331   */\n      dup7\n        /* \"#utility.yul\":3318:3340   */\n      add\n        /* \"#utility.yul\":3297:3350   */\n      tag_456\n      jump\t// in\n    tag_538:\n        /* \"#utility.yul\":3287:3350   */\n      swap2\n      pop\n        /* \"#utility.yul\":3242:3360   */\n      pop\n        /* \"#utility.yul\":2893:3367   */\n      swap3\n      pop\n      swap3\n      swap1\n      pop\n      jump\t// out\n        /* \"#utility.yul\":3373:3463   */\n    tag_457:\n        /* \"#utility.yul\":3407:3414   */\n      0x00\n        /* \"#utility.yul\":3450:3455   */\n      dup2\n        /* \"#utility.yul\":3443:3456   */\n      iszero\n        /* \"#utility.yul\":3436:3457   */\n      iszero\n        /* \"#utility.yul\":3425:3457   */\n      swap1\n      pop\n        /* \"#utility.yul\":3373:3463   */\n      swap2\n      swap1\n      pop\n      jump\t// out\n        /* \"#utility.yul\":3469:3578   */\n    tag_458:\n        /* \"#utility.yul\":3550:3571   */\n      tag_541\n        /* \"#utility.yul\":3565:3570   */\n      dup2\n        /* \"#utility.yul\":3550:3571   */\n      tag_457\n      jump\t// in\n    tag_541:\n        /* \"#utility.yul\":3545:3548   */\n      dup3\n        /* \"#utility.yul\":3538:3572   */\n      mstore\n        /* \"#utility.yul\":3469:3578   */\n      pop\n      pop\n      jump\t// out\n        /* \"#utility.yul\":3584:3794   */\n    tag_66:\n        /* \"#utility.yul\":3671:3675   */\n      0x00\n        /* \"#utility.yul\":3709:3711   */\n      0x20\n        /* \"#utility.yul\":3698:3707   */\n      dup3\n        /* \"#utility.yul\":3694:3712   */\n      add\n        /* \"#utility.yul\":3686:3712   */\n      swap1\n      pop\n        /* \"#utility.yul\":3722:3787   */\n      tag_543\n        /* \"#utility.yul\":3784:3785   */\n      0x00\n        /* \"#utility.yul\":3773:3782   */\n      dup4\n        /* \"#utility.yul\":3769:3786   */\n      add\n        /* \"#utility.yul\":3760:3766   */\n      dup5\n        /* \"#utility.yul\":3722:3787   */\n      tag_458\n      jump\t// in\n    tag_543:\n        /* \"#utility.yul\":3584:3794   */\n      swap3\n      swap2\n      pop\n      pop\n      jump\t// out\n        /* \"#utility.yul\":3800:4419   */\n    tag_82:\n        /* \"#utility.yul\":3877:3883   */\n      0x00\n        /* \"#utility.yul\":3885:3891   */\n      dup1\n        /* \"#utility.yul\":3893:3899   */\n      0x00\n        /* \"#utility.yul\":3942:3944   */\n      0x60\n        /* \"#utility.yul\":3930:3939   */\n      dup5\n        /* \"#utility.yul\":3921:3928   */\n      dup7\n        /* \"#utility.yul\":3917:3940   */\n      sub\n        /* \"#utility.yul\":3913:3945   */\n      slt\n        /* \"#utility.yul\":3910:4029   */\n      iszero\n      tag_545\n      jumpi\n        /* \"#utility.yul\":3948:4027   */\n      tag_546\n      tag_449\n      jump\t// in\n    tag_546:\n        /* \"#utility.yul\":3910:4029   */\n    tag_545:\n        /* \"#utility.yul\":4068:4069   */\n      0x00\n        /* \"#utility.yul\":4093:4146   */\n      tag_547\n        /* \"#utility.yul\":4138:4145   */\n      dup7\n        /* \"#utility.yul\":4129:4135   */\n      dup3\n        /* \"#utility.yul\":4118:4127   */\n      dup8\n        /* \"#utility.yul\":4114:4136   */\n      add\n        /* \"#utility.yul\":4093:4146   */\n      tag_454\n      jump\t// in\n    tag_547:\n        /* \"#utility.yul\":4083:4146   */\n      swap4\n      pop\n        /* \"#utility.yul\":4039:4156   */\n      pop\n        /* \"#utility.yul\":4195:4197   */\n      0x20\n        /* \"#utility.yul\":4221:4274   */\n      tag_548\n        /* \"#utility.yul\":4266:4273   */\n      dup7\n        /* \"#utility.yul\":4257:4263   */\n      dup3\n        /* \"#utility.yul\":4246:4255   */\n      dup8\n        /* \"#utility.yul\":4242:4264   */\n      add\n        /* \"#utility.yul\":4221:4274   */\n      tag_454\n      jump\t// in\n    tag_548:\n        /* \"#utility.yul\":4211:4274   */\n      swap3\n      pop\n        /* \"#utility.yul\":4166:4284   */\n      pop\n        /* \"#utility.yul\":4323:4325   */\n      0x40\n        /* \"#utility.yul\":4349:4402   */\n      tag_549\n        /* \"#utility.yul\":4394:4401   */\n      dup7\n        /* \"#utility.yul\":4385:4391   */\n      dup3\n        /* \"#utility.yul\":4374:4383   */\n      dup8\n        /* \"#utility.yul\":4370:4392   */\n      add\n        /* \"#utility.yul\":4349:4402   */\n      tag_456\n      jump\t// in\n    tag_549:\n        /* \"#utility.yul\":4339:4402   */\n      swap2\n      pop\n        /* \"#utility.yul\":4294:4412   */\n      pop\n        /* \"#utility.yul\":3800:4419   */\n      swap3\n      pop\n      swap3\n      pop\n      swap3\n      jump\t// out\n        /* \"#utility.yul\":4425:4511   */\n    tag_459:\n        /* \"#utility.yul\":4460:4467   */\n      0x00\n        /* \"#utility.yul\":4500:4504   */\n      0xff\n        /* \"#utility.yul\":4493:4498   */\n      dup3\n        /* \"#utility.yul\":4489:4505   */\n      and\n        /* \"#utility.yul\":4478:4505   */\n      swap1\n      pop\n        /* \"#utility.yul\":4425:4511   */\n      swap2\n      swap1\n      pop\n      jump\t// out\n        /* \"#utility.yul\":4517:4629   */\n    tag_460:\n        /* \"#utility.yul\":4600:4622   */\n      tag_552\n        /* \"#utility.yul\":4616:4621   */\n      dup2\n        /* \"#utility.yul\":4600:4622   */\n      tag_459\n      jump\t// in\n    tag_552:\n        /* \"#utility.yul\":4595:4598   */\n      dup3\n        /* \"#utility.yul\":4588:4623   */\n      mstore\n        /* \"#utility.yul\":4517:4629   */\n      pop\n      pop\n      jump\t// out\n        /* \"#utility.yul\":4635:4849   */\n    tag_93:\n        /* \"#utility.yul\":4724:4728   */\n      0x00\n        /* \"#utility.yul\":4762:4764   */\n      0x20\n        /* \"#utility.yul\":4751:4760   */\n      dup3\n        /* \"#utility.yul\":4747:4765   */\n      add\n        /* \"#utility.yul\":4739:4765   */\n      swap1\n      pop\n        /* \"#utility.yul\":4775:4842   */\n      tag_554\n        /* \"#utility.yul\":4839:4840   */\n      0x00\n        /* \"#utility.yul\":4828:4837   */\n      dup4\n        /* \"#utility.yul\":4824:4841   */\n      add\n        /* \"#utility.yul\":4815:4821   */\n      dup5\n        /* \"#utility.yul\":4775:4842   */\n      tag_460\n      jump\t// in\n    tag_554:\n        /* \"#utility.yul\":4635:4849   */\n      swap3\n      swap2\n      pop\n      pop\n      jump\t// out\n        /* \"#utility.yul\":4855:5184   */\n    tag_96:\n        /* \"#utility.yul\":4914:4920   */\n      0x00\n        /* \"#utility.yul\":4963:4965   */\n      0x20\n        /* \"#utility.yul\":4951:4960   */\n      dup3\n        /* \"#utility.yul\":4942:4949   */\n      dup5\n        /* \"#utility.yul\":4938:4961   */\n      sub\n        /* \"#utility.yul\":4934:4966   */\n      slt\n        /* \"#utility.yul\":4931:5050   */\n      iszero\n      tag_556\n      jumpi\n        /* \"#utility.yul\":4969:5048   */\n      tag_557\n      tag_449\n      jump\t// in\n    tag_557:\n        /* \"#utility.yul\":4931:5050   */\n    tag_556:\n        /* \"#utility.yul\":5089:5090   */\n      0x00\n        /* \"#utility.yul\":5114:5167   */\n      tag_558\n        /* \"#utility.yul\":5159:5166   */\n      dup5\n        /* \"#utility.yul\":5150:5156   */\n      dup3\n        /* \"#utility.yul\":5139:5148   */\n      dup6\n        /* \"#utility.yul\":5135:5157   */\n      add\n        /* \"#utility.yul\":5114:5167   */\n      tag_456\n      jump\t// in\n    tag_558:\n        /* \"#utility.yul\":5104:5167   */\n      swap2\n      pop\n        /* \"#utility.yul\":5060:5177   */\n      pop\n        /* \"#utility.yul\":4855:5184   */\n      swap3\n      swap2\n      pop\n      pop\n      jump\t// out\n        /* \"#utility.yul\":5190:5519   */\n    tag_112:\n        /* \"#utility.yul\":5249:5255   */\n      0x00\n        /* \"#utility.yul\":5298:5300   */\n      0x20\n        /* \"#utility.yul\":5286:5295   */\n      dup3\n        /* \"#utility.yul\":5277:5284   */\n      dup5\n        /* \"#utility.yul\":5273:5296   */\n      sub\n        /* \"#utility.yul\":5269:5301   */\n      slt\n        /* \"#utility.yul\":5266:5385   */\n      iszero\n      tag_560\n      jumpi\n        /* \"#utility.yul\":5304:5383   */\n      tag_561\n      tag_449\n      jump\t// in\n    tag_561:\n        /* \"#utility.yul\":5266:5385   */\n    tag_560:\n        /* \"#utility.yul\":5424:5425   */\n      0x00\n        /* \"#utility.yul\":5449:5502   */\n      tag_562\n        /* \"#utility.yul\":5494:5501   */\n      dup5\n        /* \"#utility.yul\":5485:5491   */\n      dup3\n        /* \"#utility.yul\":5474:5483   */\n      dup6\n        /* \"#utility.yul\":5470:5492   */\n      add\n        /* \"#utility.yul\":5449:5502   */\n      tag_454\n      jump\t// in\n    tag_562:\n        /* \"#utility.yul\":5439:5502   */\n      swap2\n      pop\n        /* \"#utility.yul\":5395:5512   */\n      pop\n        /* \"#utility.yul\":5190:5519   */\n      swap3\n      swap2\n      pop\n      pop\n      jump\t// out\n        /* \"#utility.yul\":5525:5643   */\n    tag_461:\n        /* \"#utility.yul\":5612:5636   */\n      tag_564\n        /* \"#utility.yul\":5630:5635   */\n      dup2\n        /* \"#utility.yul\":5612:5636   */\n      tag_452\n      jump\t// in\n    tag_564:\n        /* \"#utility.yul\":5607:5610   */\n      dup3\n        /* \"#utility.yul\":5600:5637   */\n      mstore\n        /* \"#utility.yul\":5525:5643   */\n      pop\n      pop\n      jump\t// out\n        /* \"#utility.yul\":5649:5871   */\n    tag_129:\n        /* \"#utility.yul\":5742:5746   */\n      0x00\n        /* \"#utility.yul\":5780:5782   */\n      0x20\n        /* \"#utility.yul\":5769:5778   */\n      dup3\n        /* \"#utility.yul\":5765:5783   */\n      add\n        /* \"#utility.yul\":5757:5783   */\n      swap1\n      pop\n        /* \"#utility.yul\":5793:5864   */\n      tag_566\n        /* \"#utility.yul\":5861:5862   */\n      0x00\n        /* \"#utility.yul\":5850:5859   */\n      dup4\n        /* \"#utility.yul\":5846:5863   */\n      add\n        /* \"#utility.yul\":5837:5843   */\n      dup5\n        /* \"#utility.yul\":5793:5864   */\n      tag_461\n      jump\t// in\n    tag_566:\n        /* \"#utility.yul\":5649:5871   */\n      swap3\n      swap2\n      pop\n      pop\n      jump\t// out\n        /* \"#utility.yul\":5877:6351   */\n    tag_194:\n        /* \"#utility.yul\":5945:5951   */\n      0x00\n        /* \"#utility.yul\":5953:5959   */\n      dup1\n        /* \"#utility.yul\":6002:6004   */\n      0x40\n        /* \"#utility.yul\":5990:5999   */\n      dup4\n        /* \"#utility.yul\":5981:5988   */\n      dup6\n        /* \"#utility.yul\":5977:6000   */\n      sub\n        /* \"#utility.yul\":5973:6005   */\n      slt\n        /* \"#utility.yul\":5970:6089   */\n      iszero\n      tag_568\n      jumpi\n        /* \"#utility.yul\":6008:6087   */\n      tag_569\n      tag_449\n      jump\t// in\n    tag_569:\n        /* \"#utility.yul\":5970:6089   */\n    tag_568:\n        /* \"#utility.yul\":6128:6129   */\n      0x00\n        /* \"#utility.yul\":6153:6206   */\n      tag_570\n        /* \"#utility.yul\":6198:6205   */\n      dup6\n        /* \"#utility.yul\":6189:6195   */\n      dup3\n        /* \"#utility.yul\":6178:6187   */\n      dup7\n        /* \"#utility.yul\":6174:6196   */\n      add\n        /* \"#utility.yul\":6153:6206   */\n      tag_454\n      jump\t// in\n    tag_570:\n        /* \"#utility.yul\":6143:6206   */\n      swap3\n      pop\n        /* \"#utility.yul\":6099:6216   */\n      pop\n        /* \"#utility.yul\":6255:6257   */\n      0x20\n        /* \"#utility.yul\":6281:6334   */\n      tag_571\n        /* \"#utility.yul\":6326:6333   */\n      dup6\n        /* \"#utility.yul\":6317:6323   */\n      dup3\n        /* \"#utility.yul\":6306:6315   */\n      dup7\n        /* \"#utility.yul\":6302:6324   */\n      add\n        /* \"#utility.yul\":6281:6334   */\n      tag_454\n      jump\t// in\n    tag_571:\n        /* \"#utility.yul\":6271:6334   */\n      swap2\n      pop\n        /* \"#utility.yul\":6226:6344   */\n      pop\n        /* \"#utility.yul\":5877:6351   */\n      swap3\n      pop\n      swap3\n      swap1\n      pop\n      jump\t// out\n        /* \"#utility.yul\":6357:7021   */\n    tag_224:\n        /* \"#utility.yul\":6562:6566   */\n      0x00\n        /* \"#utility.yul\":6600:6603   */\n      0xa0\n        /* \"#utility.yul\":6589:6598   */\n      dup3\n        /* \"#utility.yul\":6585:6604   */\n      add\n        /* \"#utility.yul\":6577:6604   */\n      swap1\n      pop\n        /* \"#utility.yul\":6614:6685   */\n      tag_573\n        /* \"#utility.yul\":6682:6683   */\n      0x00\n        /* \"#utility.yul\":6671:6680   */\n      dup4\n        /* \"#utility.yul\":6667:6684   */\n      add\n        /* \"#utility.yul\":6658:6664   */\n      dup9\n        /* \"#utility.yul\":6614:6685   */\n      tag_442\n      jump\t// in\n    tag_573:\n        /* \"#utility.yul\":6695:6767   */\n      tag_574\n        /* \"#utility.yul\":6763:6765   */\n      0x20\n        /* \"#utility.yul\":6752:6761   */\n      dup4\n        /* \"#utility.yul\":6748:6766   */\n      add\n        /* \"#utility.yul\":6739:6745   */\n      dup8\n        /* \"#utility.yul\":6695:6767   */\n      tag_442\n      jump\t// in\n    tag_574:\n        /* \"#utility.yul\":6777:6849   */\n      tag_575\n        /* \"#utility.yul\":6845:6847   */\n      0x40\n        /* \"#utility.yul\":6834:6843   */\n      dup4\n        /* \"#utility.yul\":6830:6848   */\n      add\n        /* \"#utility.yul\":6821:6827   */\n      dup7\n        /* \"#utility.yul\":6777:6849   */\n      tag_442\n      jump\t// in\n    tag_575:\n        /* \"#utility.yul\":6859:6931   */\n      tag_576\n        /* \"#utility.yul\":6927:6929   */\n      0x60\n        /* \"#utility.yul\":6916:6925   */\n      dup4\n        /* \"#utility.yul\":6912:6930   */\n      add\n        /* \"#utility.yul\":6903:6909   */\n      dup6\n        /* \"#utility.yul\":6859:6931   */\n      tag_442\n      jump\t// in\n    tag_576:\n        /* \"#utility.yul\":6941:7014   */\n      tag_577\n        /* \"#utility.yul\":7009:7012   */\n      0x80\n        /* \"#utility.yul\":6998:7007   */\n      dup4\n        /* \"#utility.yul\":6994:7013   */\n      add\n        /* \"#utility.yul\":6985:6991   */\n      dup5\n        /* \"#utility.yul\":6941:7014   */\n      tag_442\n      jump\t// in\n    tag_577:\n        /* \"#utility.yul\":6357:7021   */\n      swap7\n      swap6\n      pop\n      pop\n      pop\n      pop\n      pop\n      pop\n      jump\t// out\n        /* \"#utility.yul\":7027:7207   */\n    tag_462:\n        /* \"#utility.yul\":7075:7152   */\n      0x4e487b7100000000000000000000000000000000000000000000000000000000\n        /* \"#utility.yul\":7072:7073   */\n      0x00\n        /* \"#utility.yul\":7065:7153   */\n      mstore\n        /* \"#utility.yul\":7172:7176   */\n      0x22\n        /* \"#utility.yul\":7169:7170   */\n      0x04\n        /* \"#utility.yul\":7162:7177   */\n      mstore\n        /* \"#utility.yul\":7196:7200   */\n      0x24\n        /* \"#utility.yul\":7193:7194   */\n      0x00\n        /* \"#utility.yul\":7186:7201   */\n      revert\n        /* \"#utility.yul\":7213:7533   */\n    tag_227:\n        /* \"#utility.yul\":7257:7263   */\n      0x00\n        /* \"#utility.yul\":7294:7295   */\n      0x02\n        /* \"#utility.yul\":7288:7292   */\n      dup3\n        /* \"#utility.yul\":7284:7296   */\n      div\n        /* \"#utility.yul\":7274:7296   */\n      swap1\n      pop\n        /* \"#utility.yul\":7341:7342   */\n      0x01\n        /* \"#utility.yul\":7335:7339   */\n      dup3\n        /* \"#utility.yul\":7331:7343   */\n      and\n        /* \"#utility.yul\":7362:7380   */\n      dup1\n        /* \"#utility.yul\":7352:7433   */\n      tag_580\n      jumpi\n        /* \"#utility.yul\":7418:7422   */\n      0x7f\n        /* \"#utility.yul\":7410:7416   */\n      dup3\n        /* \"#utility.yul\":7406:7423   */\n      and\n        /* \"#utility.yul\":7396:7423   */\n      swap2\n      pop\n        /* \"#utility.yul\":7352:7433   */\n    tag_580:\n        /* \"#utility.yul\":7480:7482   */\n      0x20\n        /* \"#utility.yul\":7472:7478   */\n      dup3\n        /* \"#utility.yul\":7469:7483   */\n      lt\n        /* \"#utility.yul\":7449:7467   */\n      dup2\n        /* \"#utility.yul\":7446:7484   */\n      sub\n        /* \"#utility.yul\":7443:7527   */\n      tag_581\n      jumpi\n        /* \"#utility.yul\":7499:7517   */\n      tag_582\n      tag_462\n      jump\t// in\n    tag_582:\n        /* \"#utility.yul\":7443:7527   */\n    tag_581:\n        /* \"#utility.yul\":7264:7533   */\n      pop\n        /* \"#utility.yul\":7213:7533   */\n      swap2\n      swap1\n      pop\n      jump\t// out\n        /* \"#utility.yul\":7539:7711   */\n    tag_463:\n        /* \"#utility.yul\":7679:7703   */\n      0x5072652d53616c65206973206e6f742061637469766500000000000000000000\n        /* \"#utility.yul\":7675:7676   */\n      0x00\n        /* \"#utility.yul\":7667:7673   */\n      dup3\n        /* \"#utility.yul\":7663:7677   */\n      add\n        /* \"#utility.yul\":7656:7704   */\n      mstore\n        /* \"#utility.yul\":7539:7711   */\n      pop\n      jump\t// out\n        /* \"#utility.yul\":7717:8083   */\n    tag_464:\n        /* \"#utility.yul\":7859:7862   */\n      0x00\n        /* \"#utility.yul\":7880:7947   */\n      tag_585\n        /* \"#utility.yul\":7944:7946   */\n      0x16\n        /* \"#utility.yul\":7939:7942   */\n      dup4\n        /* \"#utility.yul\":7880:7947   */\n      tag_444\n      jump\t// in\n    tag_585:\n        /* \"#utility.yul\":7873:7947   */\n      swap2\n      pop\n        /* \"#utility.yul\":7956:8049   */\n      tag_586\n        /* \"#utility.yul\":8045:8048   */\n      dup3\n        /* \"#utility.yul\":7956:8049   */\n      tag_463\n      jump\t// in\n    tag_586:\n        /* \"#utility.yul\":8074:8076   */\n      0x20\n        /* \"#utility.yul\":8069:8072   */\n      dup3\n        /* \"#utility.yul\":8065:8077   */\n      add\n        /* \"#utility.yul\":8058:8077   */\n      swap1\n      pop\n        /* \"#utility.yul\":7717:8083   */\n      swap2\n      swap1\n      pop\n      jump\t// out\n        /* \"#utility.yul\":8089:8508   */\n    tag_254:\n        /* \"#utility.yul\":8255:8259   */\n      0x00\n        /* \"#utility.yul\":8293:8295   */\n      0x20\n        /* \"#utility.yul\":8282:8291   */\n      dup3\n        /* \"#utility.yul\":8278:8296   */\n      add\n        /* \"#utility.yul\":8270:8296   */\n      swap1\n      pop\n        /* \"#utility.yul\":8342:8351   */\n      dup2\n        /* \"#utility.yul\":8336:8340   */\n      dup2\n        /* \"#utility.yul\":8332:8352   */\n      sub\n        /* \"#utility.yul\":8328:8329   */\n      0x00\n        /* \"#utility.yul\":8317:8326   */\n      dup4\n        /* \"#utility.yul\":8313:8330   */\n      add\n        /* \"#utility.yul\":8306:8353   */\n      mstore\n        /* \"#utility.yul\":8370:8501   */\n      tag_588\n        /* \"#utility.yul\":8496:8500   */\n      dup2\n        /* \"#utility.yul\":8370:8501   */\n      tag_464\n      jump\t// in\n    tag_588:\n        /* \"#utility.yul\":8362:8501   */\n      swap1\n      pop\n        /* \"#utility.yul\":8089:8508   */\n      swap2\n      swap1\n      pop\n      jump\t// out\n        /* \"#utility.yul\":8514:8739   */\n    tag_465:\n        /* \"#utility.yul\":8654:8688   */\n      0x416d6f756e742069732062656c6f77206d696e696d756d207075726368617365\n        /* \"#utility.yul\":8650:8651   */\n      0x00\n        /* \"#utility.yul\":8642:8648   */\n      dup3\n        /* \"#utility.yul\":8638:8652   */\n      add\n        /* \"#utility.yul\":8631:8689   */\n      mstore\n        /* \"#utility.yul\":8723:8731   */\n      0x206c696d69740000000000000000000000000000000000000000000000000000\n        /* \"#utility.yul\":8718:8720   */\n      0x20\n        /* \"#utility.yul\":8710:8716   */\n      dup3\n        /* \"#utility.yul\":8706:8721   */\n      add\n        /* \"#utility.yul\":8699:8732   */\n      mstore\n        /* \"#utility.yul\":8514:8739   */\n      pop\n      jump\t// out\n        /* \"#utility.yul\":8745:9111   */\n    tag_466:\n        /* \"#utility.yul\":8887:8890   */\n      0x00\n        /* \"#utility.yul\":8908:8975   */\n      tag_591\n        /* \"#utility.yul\":8972:8974   */\n      0x26\n        /* \"#utility.yul\":8967:8970   */\n      dup4\n        /* \"#utility.yul\":8908:8975   */\n      tag_444\n      jump\t// in\n    tag_591:\n        /* \"#utility.yul\":8901:8975   */\n      swap2\n      pop\n        /* \"#utility.yul\":8984:9077   */\n      tag_592\n        /* \"#utility.yul\":9073:9076   */\n      dup3\n        /* \"#utility.yul\":8984:9077   */\n      tag_465\n      jump\t// in\n    tag_592:\n        /* \"#utility.yul\":9102:9104   */\n      0x40\n        /* \"#utility.yul\":9097:9100   */\n      dup3\n        /* \"#utility.yul\":9093:9105   */\n      add\n        /* \"#utility.yul\":9086:9105   */\n      swap1\n      pop\n        /* \"#utility.yul\":8745:9111   */\n      swap2\n      swap1\n      pop\n      jump\t// out\n        /* \"#utility.yul\":9117:9536   */\n    tag_257:\n        /* \"#utility.yul\":9283:9287   */\n      0x00\n        /* \"#utility.yul\":9321:9323   */\n      0x20\n        /* \"#utility.yul\":9310:9319   */\n      dup3\n        /* \"#utility.yul\":9306:9324   */\n      add\n        /* \"#utility.yul\":9298:9324   */\n      swap1\n      pop\n        /* \"#utility.yul\":9370:9379   */\n      dup2\n        /* \"#utility.yul\":9364:9368   */\n      dup2\n        /* \"#utility.yul\":9360:9380   */\n      sub\n        /* \"#utility.yul\":9356:9357   */\n      0x00\n        /* \"#utility.yul\":9345:9354   */\n      dup4\n        /* \"#utility.yul\":9341:9358   */\n      add\n        /* \"#utility.yul\":9334:9381   */\n      mstore\n        /* \"#utility.yul\":9398:9529   */\n      tag_594\n        /* \"#utility.yul\":9524:9528   */\n      dup2\n        /* \"#utility.yul\":9398:9529   */\n      tag_466\n      jump\t// in\n    tag_594:\n        /* \"#utility.yul\":9390:9529   */\n      swap1\n      pop\n        /* \"#utility.yul\":9117:9536   */\n      swap2\n      swap1\n      pop\n      jump\t// out\n        /* \"#utility.yul\":9542:9766   */\n    tag_467:\n        /* \"#utility.yul\":9682:9716   */\n      0x416d6f756e742065786365656473206d6178696d756d20707572636861736520\n        /* \"#utility.yul\":9678:9679   */\n      0x00\n        /* \"#utility.yul\":9670:9676   */\n      dup3\n        /* \"#utility.yul\":9666:9680   */\n      add\n        /* \"#utility.yul\":9659:9717   */\n      mstore\n        /* \"#utility.yul\":9751:9758   */\n      0x6c696d6974000000000000000000000000000000000000000000000000000000\n        /* \"#utility.yul\":9746:9748   */\n      0x20\n        /* \"#utility.yul\":9738:9744   */\n      dup3\n        /* \"#utility.yul\":9734:9749   */\n      add\n        /* \"#utility.yul\":9727:9759   */\n      mstore\n        /* \"#utility.yul\":9542:9766   */\n      pop\n      jump\t// out\n        /* \"#utility.yul\":9772:10138   */\n    tag_468:\n        /* \"#utility.yul\":9914:9917   */\n      0x00\n        /* \"#utility.yul\":9935:10002   */\n      tag_597\n        /* \"#utility.yul\":9999:10001   */\n      0x25\n        /* \"#utility.yul\":9994:9997   */\n      dup4\n        /* \"#utility.yul\":9935:10002   */\n      tag_444\n      jump\t// in\n    tag_597:\n        /* \"#utility.yul\":9928:10002   */\n      swap2\n      pop\n        /* \"#utility.yul\":10011:10104   */\n      tag_598\n        /* \"#utility.yul\":10100:10103   */\n      dup3\n        /* \"#utility.yul\":10011:10104   */\n      tag_467\n      jump\t// in\n    tag_598:\n        /* \"#utility.yul\":10129:10131   */\n      0x40\n        /* \"#utility.yul\":10124:10127   */\n      dup3\n        /* \"#utility.yul\":10120:10132   */\n      add\n        /* \"#utility.yul\":10113:10132   */\n      swap1\n      pop\n        /* \"#utility.yul\":9772:10138   */\n      swap2\n      swap1\n      pop\n      jump\t// out\n        /* \"#utility.yul\":10144:10563   */\n    tag_260:\n        /* \"#utility.yul\":10310:10314   */\n      0x00\n        /* \"#utility.yul\":10348:10350   */\n      0x20\n        /* \"#utility.yul\":10337:10346   */\n      dup3\n        /* \"#utility.yul\":10333:10351   */\n      add\n        /* \"#utility.yul\":10325:10351   */\n      swap1\n      pop\n        /* \"#utility.yul\":10397:10406   */\n      dup2\n        /* \"#utility.yul\":10391:10395   */\n      dup2\n        /* \"#utility.yul\":10387:10407   */\n      sub\n        /* \"#utility.yul\":10383:10384   */\n      0x00\n        /* \"#utility.yul\":10372:10381   */\n      dup4\n        /* \"#utility.yul\":10368:10385   */\n      add\n        /* \"#utility.yul\":10361:10408   */\n      mstore\n        /* \"#utility.yul\":10425:10556   */\n      tag_600\n        /* \"#utility.yul\":10551:10555   */\n      dup2\n        /* \"#utility.yul\":10425:10556   */\n      tag_468\n      jump\t// in\n    tag_600:\n        /* \"#utility.yul\":10417:10556   */\n      swap1\n      pop\n        /* \"#utility.yul\":10144:10563   */\n      swap2\n      swap1\n      pop\n      jump\t// out\n        /* \"#utility.yul\":10569:10749   */\n    tag_469:\n        /* \"#utility.yul\":10617:10694   */\n      0x4e487b7100000000000000000000000000000000000000000000000000000000\n        /* \"#utility.yul\":10614:10615   */\n      0x00\n        /* \"#utility.yul\":10607:10695   */\n      mstore\n        /* \"#utility.yul\":10714:10718   */\n      0x11\n        /* \"#utility.yul\":10711:10712   */\n      0x04\n        /* \"#utility.yul\":10704:10719   */\n      mstore\n        /* \"#utility.yul\":10738:10742   */\n      0x24\n        /* \"#utility.yul\":10735:10736   */\n      0x00\n        /* \"#utility.yul\":10728:10743   */\n      revert\n        /* \"#utility.yul\":10755:10946   */\n    tag_263:\n        /* \"#utility.yul\":10795:10798   */\n      0x00\n        /* \"#utility.yul\":10814:10834   */\n      tag_603\n        /* \"#utility.yul\":10832:10833   */\n      dup3\n        /* \"#utility.yul\":10814:10834   */\n      tag_441\n      jump\t// in\n    tag_603:\n        /* \"#utility.yul\":10809:10834   */\n      swap2\n      pop\n        /* \"#utility.yul\":10848:10868   */\n      tag_604\n        /* \"#utility.yul\":10866:10867   */\n      dup4\n        /* \"#utility.yul\":10848:10868   */\n      tag_441\n      jump\t// in\n    tag_604:\n        /* \"#utility.yul\":10843:10868   */\n      swap3\n      pop\n        /* \"#utility.yul\":10891:10892   */\n      dup3\n        /* \"#utility.yul\":10888:10889   */\n      dup3\n        /* \"#utility.yul\":10884:10893   */\n      add\n        /* \"#utility.yul\":10877:10893   */\n      swap1\n      pop\n        /* \"#utility.yul\":10912:10915   */\n      dup1\n        /* \"#utility.yul\":10909:10910   */\n      dup3\n        /* \"#utility.yul\":10906:10916   */\n      gt\n        /* \"#utility.yul\":10903:10939   */\n      iszero\n      tag_605\n      jumpi\n        /* \"#utility.yul\":10919:10937   */\n      tag_606\n      tag_469\n      jump\t// in\n    tag_606:\n        /* \"#utility.yul\":10903:10939   */\n    tag_605:\n        /* \"#utility.yul\":10755:10946   */\n      swap3\n      swap2\n      pop\n      pop\n      jump\t// out\n        /* \"#utility.yul\":10952:11130   */\n    tag_470:\n        /* \"#utility.yul\":11092:11122   */\n      0x45786365656473205072652d53616c6520746f6b656e206c696d697400000000\n        /* \"#utility.yul\":11088:11089   */\n      0x00\n        /* \"#utility.yul\":11080:11086   */\n      dup3\n        /* \"#utility.yul\":11076:11090   */\n      add\n        /* \"#utility.yul\":11069:11123   */\n      mstore\n        /* \"#utility.yul\":10952:11130   */\n      pop\n      jump\t// out\n        /* \"#utility.yul\":11136:11502   */\n    tag_471:\n        /* \"#utility.yul\":11278:11281   */\n      0x00\n        /* \"#utility.yul\":11299:11366   */\n      tag_609\n        /* \"#utility.yul\":11363:11365   */\n      0x1c\n        /* \"#utility.yul\":11358:11361   */\n      dup4\n        /* \"#utility.yul\":11299:11366   */\n      tag_444\n      jump\t// in\n    tag_609:\n        /* \"#utility.yul\":11292:11366   */\n      swap2\n      pop\n        /* \"#utility.yul\":11375:11468   */\n      tag_610\n        /* \"#utility.yul\":11464:11467   */\n      dup3\n        /* \"#utility.yul\":11375:11468   */\n      tag_470\n      jump\t// in\n    tag_610:\n        /* \"#utility.yul\":11493:11495   */\n      0x20\n        /* \"#utility.yul\":11488:11491   */\n      dup3\n        /* \"#utility.yul\":11484:11496   */\n      add\n        /* \"#utility.yul\":11477:11496   */\n      swap1\n      pop\n        /* \"#utility.yul\":11136:11502   */\n      swap2\n      swap1\n      pop\n      jump\t// out\n        /* \"#utility.yul\":11508:11927   */\n    tag_266:\n        /* \"#utility.yul\":11674:11678   */\n      0x00\n        /* \"#utility.yul\":11712:11714   */\n      0x20\n        /* \"#utility.yul\":11701:11710   */\n      dup3\n        /* \"#utility.yul\":11697:11715   */\n      add\n        /* \"#utility.yul\":11689:11715   */\n      swap1\n      pop\n        /* \"#utility.yul\":11761:11770   */\n      dup2\n        /* \"#utility.yul\":11755:11759   */\n      dup2\n        /* \"#utility.yul\":11751:11771   */\n      sub\n        /* \"#utility.yul\":11747:11748   */\n      0x00\n        /* \"#utility.yul\":11736:11745   */\n      dup4\n        /* \"#utility.yul\":11732:11749   */\n      add\n        /* \"#utility.yul\":11725:11772   */\n      mstore\n        /* \"#utility.yul\":11789:11920   */\n      tag_612\n        /* \"#utility.yul\":11915:11919   */\n      dup2\n        /* \"#utility.yul\":11789:11920   */\n      tag_471\n      jump\t// in\n    tag_612:\n        /* \"#utility.yul\":11781:11920   */\n      swap1\n      pop\n        /* \"#utility.yul\":11508:11927   */\n      swap2\n      swap1\n      pop\n      jump\t// out\n        /* \"#utility.yul\":11933:12109   */\n    tag_472:\n        /* \"#utility.yul\":12073:12101   */\n      0x5072652d53616c6520697320616c726561647920616374697665000000000000\n        /* \"#utility.yul\":12069:12070   */\n      0x00\n        /* \"#utility.yul\":12061:12067   */\n      dup3\n        /* \"#utility.yul\":12057:12071   */\n      add\n        /* \"#utility.yul\":12050:12102   */\n      mstore\n        /* \"#utility.yul\":11933:12109   */\n      pop\n      jump\t// out\n        /* \"#utility.yul\":12115:12481   */\n    tag_473:\n        /* \"#utility.yul\":12257:12260   */\n      0x00\n        /* \"#utility.yul\":12278:12345   */\n      tag_615\n        /* \"#utility.yul\":12342:12344   */\n      0x1a\n        /* \"#utility.yul\":12337:12340   */\n      dup4\n        /* \"#utility.yul\":12278:12345   */\n      tag_444\n      jump\t// in\n    tag_615:\n        /* \"#utility.yul\":12271:12345   */\n      swap2\n      pop\n        /* \"#utility.yul\":12354:12447   */\n      tag_616\n        /* \"#utility.yul\":12443:12446   */\n      dup3\n        /* \"#utility.yul\":12354:12447   */\n      tag_472\n      jump\t// in\n    tag_616:\n        /* \"#utility.yul\":12472:12474   */\n      0x20\n        /* \"#utility.yul\":12467:12470   */\n      dup3\n        /* \"#utility.yul\":12463:12475   */\n      add\n        /* \"#utility.yul\":12456:12475   */\n      swap1\n      pop\n        /* \"#utility.yul\":12115:12481   */\n      swap2\n      swap1\n      pop\n      jump\t// out\n        /* \"#utility.yul\":12487:12906   */\n    tag_278:\n        /* \"#utility.yul\":12653:12657   */\n      0x00\n        /* \"#utility.yul\":12691:12693   */\n      0x20\n        /* \"#utility.yul\":12680:12689   */\n      dup3\n        /* \"#utility.yul\":12676:12694   */\n      add\n        /* \"#utility.yul\":12668:12694   */\n      swap1\n      pop\n        /* \"#utility.yul\":12740:12749   */\n      dup2\n        /* \"#utility.yul\":12734:12738   */\n      dup2\n        /* \"#utility.yul\":12730:12750   */\n      sub\n        /* \"#utility.yul\":12726:12727   */\n      0x00\n        /* \"#utility.yul\":12715:12724   */\n      dup4\n        /* \"#utility.yul\":12711:12728   */\n      add\n        /* \"#utility.yul\":12704:12751   */\n      mstore\n        /* \"#utility.yul\":12768:12899   */\n      tag_618\n        /* \"#utility.yul\":12894:12898   */\n      dup2\n        /* \"#utility.yul\":12768:12899   */\n      tag_473\n      jump\t// in\n    tag_618:\n        /* \"#utility.yul\":12760:12899   */\n      swap1\n      pop\n        /* \"#utility.yul\":12487:12906   */\n      swap2\n      swap1\n      pop\n      jump\t// out\n        /* \"#utility.yul\":12912:13083   */\n    tag_474:\n        /* \"#utility.yul\":13052:13075   */\n      0x4e6f20746f6b656e7320746f2077697468647261770000000000000000000000\n        /* \"#utility.yul\":13048:13049   */\n      0x00\n        /* \"#utility.yul\":13040:13046   */\n      dup3\n        /* \"#utility.yul\":13036:13050   */\n      add\n        /* \"#utility.yul\":13029:13076   */\n      mstore\n        /* \"#utility.yul\":12912:13083   */\n      pop\n      jump\t// out\n        /* \"#utility.yul\":13089:13455   */\n    tag_475:\n        /* \"#utility.yul\":13231:13234   */\n      0x00\n        /* \"#utility.yul\":13252:13319   */\n      tag_621\n        /* \"#utility.yul\":13316:13318   */\n      0x15\n        /* \"#utility.yul\":13311:13314   */\n      dup4\n        /* \"#utility.yul\":13252:13319   */\n      tag_444\n      jump\t// in\n    tag_621:\n        /* \"#utility.yul\":13245:13319   */\n      swap2\n      pop\n        /* \"#utility.yul\":13328:13421   */\n      tag_622\n        /* \"#utility.yul\":13417:13420   */\n      dup3\n        /* \"#utility.yul\":13328:13421   */\n      tag_474\n      jump\t// in\n    tag_622:\n        /* \"#utility.yul\":13446:13448   */\n      0x20\n        /* \"#utility.yul\":13441:13444   */\n      dup3\n        /* \"#utility.yul\":13437:13449   */\n      add\n        /* \"#utility.yul\":13430:13449   */\n      swap1\n      pop\n        /* \"#utility.yul\":13089:13455   */\n      swap2\n      swap1\n      pop\n      jump\t// out\n        /* \"#utility.yul\":13461:13880   */\n    tag_293:\n        /* \"#utility.yul\":13627:13631   */\n      0x00\n        /* \"#utility.yul\":13665:13667   */\n      0x20\n        /* \"#utility.yul\":13654:13663   */\n      dup3\n        /* \"#utility.yul\":13650:13668   */\n      add\n        /* \"#utility.yul\":13642:13668   */\n      swap1\n      pop\n        /* \"#utility.yul\":13714:13723   */\n      dup2\n        /* \"#utility.yul\":13708:13712   */\n      dup2\n        /* \"#utility.yul\":13704:13724   */\n      sub\n        /* \"#utility.yul\":13700:13701   */\n      0x00\n        /* \"#utility.yul\":13689:13698   */\n      dup4\n        /* \"#utility.yul\":13685:13702   */\n      add\n        /* \"#utility.yul\":13678:13725   */\n      mstore\n        /* \"#utility.yul\":13742:13873   */\n      tag_624\n        /* \"#utility.yul\":13868:13872   */\n      dup2\n        /* \"#utility.yul\":13742:13873   */\n      tag_475\n      jump\t// in\n    tag_624:\n        /* \"#utility.yul\":13734:13873   */\n      swap1\n      pop\n        /* \"#utility.yul\":13461:13880   */\n      swap2\n      swap1\n      pop\n      jump\t// out\n        /* \"#utility.yul\":13886:14063   */\n    tag_476:\n        /* \"#utility.yul\":14026:14055   */\n      0x507269766174652053616c6520616c7265616479206163746976650000000000\n        /* \"#utility.yul\":14022:14023   */\n      0x00\n        /* \"#utility.yul\":14014:14020   */\n      dup3\n        /* \"#utility.yul\":14010:14024   */\n      add\n        /* \"#utility.yul\":14003:14056   */\n      mstore\n        /* \"#utility.yul\":13886:14063   */\n      pop\n      jump\t// out\n        /* \"#utility.yul\":14069:14435   */\n    tag_477:\n        /* \"#utility.yul\":14211:14214   */\n      0x00\n        /* \"#utility.yul\":14232:14299   */\n      tag_627\n        /* \"#utility.yul\":14296:14298   */\n      0x1b\n        /* \"#utility.yul\":14291:14294   */\n      dup4\n        /* \"#utility.yul\":14232:14299   */\n      tag_444\n      jump\t// in\n    tag_627:\n        /* \"#utility.yul\":14225:14299   */\n      swap2\n      pop\n        /* \"#utility.yul\":14308:14401   */\n      tag_628\n        /* \"#utility.yul\":14397:14400   */\n      dup3\n        /* \"#utility.yul\":14308:14401   */\n      tag_476\n      jump\t// in\n    tag_628:\n        /* \"#utility.yul\":14426:14428   */\n      0x20\n        /* \"#utility.yul\":14421:14424   */\n      dup3\n        /* \"#utility.yul\":14417:14429   */\n      add\n        /* \"#utility.yul\":14410:14429   */\n      swap1\n      pop\n        /* \"#utility.yul\":14069:14435   */\n      swap2\n      swap1\n      pop\n      jump\t// out\n        /* \"#utility.yul\":14441:14860   */\n    tag_309:\n        /* \"#utility.yul\":14607:14611   */\n      0x00\n        /* \"#utility.yul\":14645:14647   */\n      0x20\n        /* \"#utility.yul\":14634:14643   */\n      dup3\n        /* \"#utility.yul\":14630:14648   */\n      add\n        /* \"#utility.yul\":14622:14648   */\n      swap1\n      pop\n        /* \"#utility.yul\":14694:14703   */\n      dup2\n        /* \"#utility.yul\":14688:14692   */\n      dup2\n        /* \"#utility.yul\":14684:14704   */\n      sub\n        /* \"#utility.yul\":14680:14681   */\n      0x00\n        /* \"#utility.yul\":14669:14678   */\n      dup4\n        /* \"#utility.yul\":14665:14682   */\n      add\n        /* \"#utility.yul\":14658:14705   */\n      mstore\n        /* \"#utility.yul\":14722:14853   */\n      tag_630\n        /* \"#utility.yul\":14848:14852   */\n      dup2\n        /* \"#utility.yul\":14722:14853   */\n      tag_477\n      jump\t// in\n    tag_630:\n        /* \"#utility.yul\":14714:14853   */\n      swap1\n      pop\n        /* \"#utility.yul\":14441:14860   */\n      swap2\n      swap1\n      pop\n      jump\t// out\n        /* \"#utility.yul\":14866:15034   */\n    tag_478:\n        /* \"#utility.yul\":15006:15026   */\n      0x496e76616c69642070657263656e746167650000000000000000000000000000\n        /* \"#utility.yul\":15002:15003   */\n      0x00\n        /* \"#utility.yul\":14994:15000   */\n      dup3\n        /* \"#utility.yul\":14990:15004   */\n      add\n        /* \"#utility.yul\":14983:15027   */\n      mstore\n        /* \"#utility.yul\":14866:15034   */\n      pop\n      jump\t// out\n        /* \"#utility.yul\":15040:15406   */\n    tag_479:\n        /* \"#utility.yul\":15182:15185   */\n      0x00\n        /* \"#utility.yul\":15203:15270   */\n      tag_633\n        /* \"#utility.yul\":15267:15269   */\n      0x12\n        /* \"#utility.yul\":15262:15265   */\n      dup4\n        /* \"#utility.yul\":15203:15270   */\n      tag_444\n      jump\t// in\n    tag_633:\n        /* \"#utility.yul\":15196:15270   */\n      swap2\n      pop\n        /* \"#utility.yul\":15279:15372   */\n      tag_634\n        /* \"#utility.yul\":15368:15371   */\n      dup3\n        /* \"#utility.yul\":15279:15372   */\n      tag_478\n      jump\t// in\n    tag_634:\n        /* \"#utility.yul\":15397:15399   */\n      0x20\n        /* \"#utility.yul\":15392:15395   */\n      dup3\n        /* \"#utility.yul\":15388:15400   */\n      add\n        /* \"#utility.yul\":15381:15400   */\n      swap1\n      pop\n        /* \"#utility.yul\":15040:15406   */\n      swap2\n      swap1\n      pop\n      jump\t// out\n        /* \"#utility.yul\":15412:15831   */\n    tag_313:\n        /* \"#utility.yul\":15578:15582   */\n      0x00\n        /* \"#utility.yul\":15616:15618   */\n      0x20\n        /* \"#utility.yul\":15605:15614   */\n      dup3\n        /* \"#utility.yul\":15601:15619   */\n      add\n        /* \"#utility.yul\":15593:15619   */\n      swap1\n      pop\n        /* \"#utility.yul\":15665:15674   */\n      dup2\n        /* \"#utility.yul\":15659:15663   */\n      dup2\n        /* \"#utility.yul\":15655:15675   */\n      sub\n        /* \"#utility.yul\":15651:15652   */\n      0x00\n        /* \"#utility.yul\":15640:15649   */\n      dup4\n        /* \"#utility.yul\":15636:15653   */\n      add\n        /* \"#utility.yul\":15629:15676   */\n      mstore\n        /* \"#utility.yul\":15693:15824   */\n      tag_636\n        /* \"#utility.yul\":15819:15823   */\n      dup2\n        /* \"#utility.yul\":15693:15824   */\n      tag_479\n      jump\t// in\n    tag_636:\n        /* \"#utility.yul\":15685:15824   */\n      swap1\n      pop\n        /* \"#utility.yul\":15412:15831   */\n      swap2\n      swap1\n      pop\n      jump\t// out\n        /* \"#utility.yul\":15837:16169   */\n    tag_315:\n        /* \"#utility.yul\":15958:15962   */\n      0x00\n        /* \"#utility.yul\":15996:15998   */\n      0x40\n        /* \"#utility.yul\":15985:15994   */\n      dup3\n        /* \"#utility.yul\":15981:15999   */\n      add\n        /* \"#utility.yul\":15973:15999   */\n      swap1\n      pop\n        /* \"#utility.yul\":16009:16080   */\n      tag_638\n        /* \"#utility.yul\":16077:16078   */\n      0x00\n        /* \"#utility.yul\":16066:16075   */\n      dup4\n        /* \"#utility.yul\":16062:16079   */\n      add\n        /* \"#utility.yul\":16053:16059   */\n      dup6\n        /* \"#utility.yul\":16009:16080   */\n      tag_442\n      jump\t// in\n    tag_638:\n        /* \"#utility.yul\":16090:16162   */\n      tag_639\n        /* \"#utility.yul\":16158:16160   */\n      0x20\n        /* \"#utility.yul\":16147:16156   */\n      dup4\n        /* \"#utility.yul\":16143:16161   */\n      add\n        /* \"#utility.yul\":16134:16140   */\n      dup5\n        /* \"#utility.yul\":16090:16162   */\n      tag_442\n      jump\t// in\n    tag_639:\n        /* \"#utility.yul\":15837:16169   */\n      swap4\n      swap3\n      pop\n      pop\n      pop\n      jump\t// out\n        /* \"#utility.yul\":16175:16369   */\n    tag_321:\n        /* \"#utility.yul\":16215:16219   */\n      0x00\n        /* \"#utility.yul\":16235:16255   */\n      tag_641\n        /* \"#utility.yul\":16253:16254   */\n      dup3\n        /* \"#utility.yul\":16235:16255   */\n      tag_441\n      jump\t// in\n    tag_641:\n        /* \"#utility.yul\":16230:16255   */\n      swap2\n      pop\n        /* \"#utility.yul\":16269:16289   */\n      tag_642\n        /* \"#utility.yul\":16287:16288   */\n      dup4\n        /* \"#utility.yul\":16269:16289   */\n      tag_441\n      jump\t// in\n    tag_642:\n        /* \"#utility.yul\":16264:16289   */\n      swap3\n      pop\n        /* \"#utility.yul\":16313:16314   */\n      dup3\n        /* \"#utility.yul\":16310:16311   */\n      dup3\n        /* \"#utility.yul\":16306:16315   */\n      sub\n        /* \"#utility.yul\":16298:16315   */\n      swap1\n      pop\n        /* \"#utility.yul\":16337:16338   */\n      dup2\n        /* \"#utility.yul\":16331:16335   */\n      dup2\n        /* \"#utility.yul\":16328:16339   */\n      gt\n        /* \"#utility.yul\":16325:16362   */\n      iszero\n      tag_643\n      jumpi\n        /* \"#utility.yul\":16342:16360   */\n      tag_644\n      tag_469\n      jump\t// in\n    tag_644:\n        /* \"#utility.yul\":16325:16362   */\n    tag_643:\n        /* \"#utility.yul\":16175:16369   */\n      swap3\n      swap2\n      pop\n      pop\n      jump\t// out\n        /* \"#utility.yul\":16375:16785   */\n    tag_323:\n        /* \"#utility.yul\":16415:16422   */\n      0x00\n        /* \"#utility.yul\":16438:16458   */\n      tag_646\n        /* \"#utility.yul\":16456:16457   */\n      dup3\n        /* \"#utility.yul\":16438:16458   */\n      tag_441\n      jump\t// in\n    tag_646:\n        /* \"#utility.yul\":16433:16458   */\n      swap2\n      pop\n        /* \"#utility.yul\":16472:16492   */\n      tag_647\n        /* \"#utility.yul\":16490:16491   */\n      dup4\n        /* \"#utility.yul\":16472:16492   */\n      tag_441\n      jump\t// in\n    tag_647:\n        /* \"#utility.yul\":16467:16492   */\n      swap3\n      pop\n        /* \"#utility.yul\":16527:16528   */\n      dup3\n        /* \"#utility.yul\":16524:16525   */\n      dup3\n        /* \"#utility.yul\":16520:16529   */\n      mul\n        /* \"#utility.yul\":16549:16579   */\n      tag_648\n        /* \"#utility.yul\":16567:16578   */\n      dup2\n        /* \"#utility.yul\":16549:16579   */\n      tag_441\n      jump\t// in\n    tag_648:\n        /* \"#utility.yul\":16538:16579   */\n      swap2\n      pop\n        /* \"#utility.yul\":16728:16729   */\n      dup3\n        /* \"#utility.yul\":16719:16726   */\n      dup3\n        /* \"#utility.yul\":16715:16730   */\n      div\n        /* \"#utility.yul\":16712:16713   */\n      dup5\n        /* \"#utility.yul\":16709:16731   */\n      eq\n        /* \"#utility.yul\":16689:16690   */\n      dup4\n        /* \"#utility.yul\":16682:16691   */\n      iszero\n        /* \"#utility.yul\":16662:16745   */\n      or\n        /* \"#utility.yul\":16639:16778   */\n      tag_649\n      jumpi\n        /* \"#utility.yul\":16758:16776   */\n      tag_650\n      tag_469\n      jump\t// in\n    tag_650:\n        /* \"#utility.yul\":16639:16778   */\n    tag_649:\n        /* \"#utility.yul\":16423:16785   */\n      pop\n        /* \"#utility.yul\":16375:16785   */\n      swap3\n      swap2\n      pop\n      pop\n      jump\t// out\n        /* \"#utility.yul\":16791:16971   */\n    tag_480:\n        /* \"#utility.yul\":16839:16916   */\n      0x4e487b7100000000000000000000000000000000000000000000000000000000\n        /* \"#utility.yul\":16836:16837   */\n      0x00\n        /* \"#utility.yul\":16829:16917   */\n      mstore\n        /* \"#utility.yul\":16936:16940   */\n      0x12\n        /* \"#utility.yul\":16933:16934   */\n      0x04\n        /* \"#utility.yul\":16926:16941   */\n      mstore\n        /* \"#utility.yul\":16960:16964   */\n      0x24\n        /* \"#utility.yul\":16957:16958   */\n      0x00\n        /* \"#utility.yul\":16950:16965   */\n      revert\n        /* \"#utility.yul\":16977:17162   */\n    tag_325:\n        /* \"#utility.yul\":17017:17018   */\n      0x00\n        /* \"#utility.yul\":17034:17054   */\n      tag_653\n        /* \"#utility.yul\":17052:17053   */\n      dup3\n        /* \"#utility.yul\":17034:17054   */\n      tag_441\n      jump\t// in\n    tag_653:\n        /* \"#utility.yul\":17029:17054   */\n      swap2\n      pop\n        /* \"#utility.yul\":17068:17088   */\n      tag_654\n        /* \"#utility.yul\":17086:17087   */\n      dup4\n        /* \"#utility.yul\":17068:17088   */\n      tag_441\n      jump\t// in\n    tag_654:\n        /* \"#utility.yul\":17063:17088   */\n      swap3\n      pop\n        /* \"#utility.yul\":17107:17108   */\n      dup3\n        /* \"#utility.yul\":17097:17132   */\n      tag_655\n      jumpi\n        /* \"#utility.yul\":17112:17130   */\n      tag_656\n      tag_480\n      jump\t// in\n    tag_656:\n        /* \"#utility.yul\":17097:17132   */\n    tag_655:\n        /* \"#utility.yul\":17154:17155   */\n      dup3\n        /* \"#utility.yul\":17151:17152   */\n      dup3\n        /* \"#utility.yul\":17147:17156   */\n      div\n        /* \"#utility.yul\":17142:17156   */\n      swap1\n      pop\n        /* \"#utility.yul\":16977:17162   */\n      swap3\n      swap2\n      pop\n      pop\n      jump\t// out\n        /* \"#utility.yul\":17168:17344   */\n    tag_481:\n        /* \"#utility.yul\":17308:17336   */\n      0x507269766174652053616c65206973206e6f7420616374697665000000000000\n        /* \"#utility.yul\":17304:17305   */\n      0x00\n        /* \"#utility.yul\":17296:17302   */\n      dup3\n        /* \"#utility.yul\":17292:17306   */\n      add\n        /* \"#utility.yul\":17285:17337   */\n      mstore\n        /* \"#utility.yul\":17168:17344   */\n      pop\n      jump\t// out\n        /* \"#utility.yul\":17350:17716   */\n    tag_482:\n        /* \"#utility.yul\":17492:17495   */\n      0x00\n        /* \"#utility.yul\":17513:17580   */\n      tag_659\n        /* \"#utility.yul\":17577:17579   */\n      0x1a\n        /* \"#utility.yul\":17572:17575   */\n      dup4\n        /* \"#utility.yul\":17513:17580   */\n      tag_444\n      jump\t// in\n    tag_659:\n        /* \"#utility.yul\":17506:17580   */\n      swap2\n      pop\n        /* \"#utility.yul\":17589:17682   */\n      tag_660\n        /* \"#utility.yul\":17678:17681   */\n      dup3\n        /* \"#utility.yul\":17589:17682   */\n      tag_481\n      jump\t// in\n    tag_660:\n        /* \"#utility.yul\":17707:17709   */\n      0x20\n        /* \"#utility.yul\":17702:17705   */\n      dup3\n        /* \"#utility.yul\":17698:17710   */\n      add\n        /* \"#utility.yul\":17691:17710   */\n      swap1\n      pop\n        /* \"#utility.yul\":17350:17716   */\n      swap2\n      swap1\n      pop\n      jump\t// out\n        /* \"#utility.yul\":17722:18141   */\n    tag_335:\n        /* \"#utility.yul\":17888:17892   */\n      0x00\n        /* \"#utility.yul\":17926:17928   */\n      0x20\n        /* \"#utility.yul\":17915:17924   */\n      dup3\n        /* \"#utility.yul\":17911:17929   */\n      add\n        /* \"#utility.yul\":17903:17929   */\n      swap1\n      pop\n        /* \"#utility.yul\":17975:17984   */\n      dup2\n        /* \"#utility.yul\":17969:17973   */\n      dup2\n        /* \"#utility.yul\":17965:17985   */\n      sub\n        /* \"#utility.yul\":17961:17962   */\n      0x00\n        /* \"#utility.yul\":17950:17959   */\n      dup4\n        /* \"#utility.yul\":17946:17963   */\n      add\n        /* \"#utility.yul\":17939:17986   */\n      mstore\n        /* \"#utility.yul\":18003:18134   */\n      tag_662\n        /* \"#utility.yul\":18129:18133   */\n      dup2\n        /* \"#utility.yul\":18003:18134   */\n      tag_482\n      jump\t// in\n    tag_662:\n        /* \"#utility.yul\":17995:18134   */\n      swap1\n      pop\n        /* \"#utility.yul\":17722:18141   */\n      swap2\n      swap1\n      pop\n      jump\t// out\n        /* \"#utility.yul\":18147:18371   */\n    tag_483:\n        /* \"#utility.yul\":18287:18321   */\n      0x4d696e696d756d2055534420616d6f756e742072657175697265642069732035\n        /* \"#utility.yul\":18283:18284   */\n      0x00\n        /* \"#utility.yul\":18275:18281   */\n      dup3\n        /* \"#utility.yul\":18271:18285   */\n      add\n        /* \"#utility.yul\":18264:18322   */\n      mstore\n        /* \"#utility.yul\":18356:18363   */\n      0x3020555344000000000000000000000000000000000000000000000000000000\n        /* \"#utility.yul\":18351:18353   */\n      0x20\n        /* \"#utility.yul\":18343:18349   */\n      dup3\n        /* \"#utility.yul\":18339:18354   */\n      add\n        /* \"#utility.yul\":18332:18364   */\n      mstore\n        /* \"#utility.yul\":18147:18371   */\n      pop\n      jump\t// out\n        /* \"#utility.yul\":18377:18743   */\n    tag_484:\n        /* \"#utility.yul\":18519:18522   */\n      0x00\n        /* \"#utility.yul\":18540:18607   */\n      tag_665\n        /* \"#utility.yul\":18604:18606   */\n      0x25\n        /* \"#utility.yul\":18599:18602   */\n      dup4\n        /* \"#utility.yul\":18540:18607   */\n      tag_444\n      jump\t// in\n    tag_665:\n        /* \"#utility.yul\":18533:18607   */\n      swap2\n      pop\n        /* \"#utility.yul\":18616:18709   */\n      tag_666\n        /* \"#utility.yul\":18705:18708   */\n      dup3\n        /* \"#utility.yul\":18616:18709   */\n      tag_483\n      jump\t// in\n    tag_666:\n        /* \"#utility.yul\":18734:18736   */\n      0x40\n        /* \"#utility.yul\":18729:18732   */\n      dup3\n        /* \"#utility.yul\":18725:18737   */\n      add\n        /* \"#utility.yul\":18718:18737   */\n      swap1\n      pop\n        /* \"#utility.yul\":18377:18743   */\n      swap2\n      swap1\n      pop\n      jump\t// out\n        /* \"#utility.yul\":18749:19168   */\n    tag_338:\n        /* \"#utility.yul\":18915:18919   */\n      0x00\n        /* \"#utility.yul\":18953:18955   */\n      0x20\n        /* \"#utility.yul\":18942:18951   */\n      dup3\n        /* \"#utility.yul\":18938:18956   */\n      add\n        /* \"#utility.yul\":18930:18956   */\n      swap1\n      pop\n        /* \"#utility.yul\":19002:19011   */\n      dup2\n        /* \"#utility.yul\":18996:19000   */\n      dup2\n        /* \"#utility.yul\":18992:19012   */\n      sub\n        /* \"#utility.yul\":18988:18989   */\n      0x00\n        /* \"#utility.yul\":18977:18986   */\n      dup4\n        /* \"#utility.yul\":18973:18990   */\n      add\n        /* \"#utility.yul\":18966:19013   */\n      mstore\n        /* \"#utility.yul\":19030:19161   */\n      tag_668\n        /* \"#utility.yul\":19156:19160   */\n      dup2\n        /* \"#utility.yul\":19030:19161   */\n      tag_484\n      jump\t// in\n    tag_668:\n        /* \"#utility.yul\":19022:19161   */\n      swap1\n      pop\n        /* \"#utility.yul\":18749:19168   */\n      swap2\n      swap1\n      pop\n      jump\t// out\n        /* \"#utility.yul\":19174:19397   */\n    tag_485:\n        /* \"#utility.yul\":19314:19348   */\n      0x45786365656473206d6178696d756d20746f6b656e207075726368617365206c\n        /* \"#utility.yul\":19310:19311   */\n      0x00\n        /* \"#utility.yul\":19302:19308   */\n      dup3\n        /* \"#utility.yul\":19298:19312   */\n      add\n        /* \"#utility.yul\":19291:19349   */\n      mstore\n        /* \"#utility.yul\":19383:19389   */\n      0x696d697400000000000000000000000000000000000000000000000000000000\n        /* \"#utility.yul\":19378:19380   */\n      0x20\n        /* \"#utility.yul\":19370:19376   */\n      dup3\n        /* \"#utility.yul\":19366:19381   */\n      add\n        /* \"#utility.yul\":19359:19390   */\n      mstore\n        /* \"#utility.yul\":19174:19397   */\n      pop\n      jump\t// out\n        /* \"#utility.yul\":19403:19769   */\n    tag_486:\n        /* \"#utility.yul\":19545:19548   */\n      0x00\n        /* \"#utility.yul\":19566:19633   */\n      tag_671\n        /* \"#utility.yul\":19630:19632   */\n      0x24\n        /* \"#utility.yul\":19625:19628   */\n      dup4\n        /* \"#utility.yul\":19566:19633   */\n      tag_444\n      jump\t// in\n    tag_671:\n        /* \"#utility.yul\":19559:19633   */\n      swap2\n      pop\n        /* \"#utility.yul\":19642:19735   */\n      tag_672\n        /* \"#utility.yul\":19731:19734   */\n      dup3\n        /* \"#utility.yul\":19642:19735   */\n      tag_485\n      jump\t// in\n    tag_672:\n        /* \"#utility.yul\":19760:19762   */\n      0x40\n        /* \"#utility.yul\":19755:19758   */\n      dup3\n        /* \"#utility.yul\":19751:19763   */\n      add\n        /* \"#utility.yul\":19744:19763   */\n      swap1\n      pop\n        /* \"#utility.yul\":19403:19769   */\n      swap2\n      swap1\n      pop\n      jump\t// out\n        /* \"#utility.yul\":19775:20194   */\n    tag_342:\n        /* \"#utility.yul\":19941:19945   */\n      0x00\n        /* \"#utility.yul\":19979:19981   */\n      0x20\n        /* \"#utility.yul\":19968:19977   */\n      dup3\n        /* \"#utility.yul\":19964:19982   */\n      add\n        /* \"#utility.yul\":19956:19982   */\n      swap1\n      pop\n        /* \"#utility.yul\":20028:20037   */\n      dup2\n        /* \"#utility.yul\":20022:20026   */\n      dup2\n        /* \"#utility.yul\":20018:20038   */\n      sub\n        /* \"#utility.yul\":20014:20015   */\n      0x00\n        /* \"#utility.yul\":20003:20012   */\n      dup4\n        /* \"#utility.yul\":19999:20016   */\n      add\n        /* \"#utility.yul\":19992:20039   */\n      mstore\n        /* \"#utility.yul\":20056:20187   */\n      tag_674\n        /* \"#utility.yul\":20182:20186   */\n      dup2\n        /* \"#utility.yul\":20056:20187   */\n      tag_486\n      jump\t// in\n    tag_674:\n        /* \"#utility.yul\":20048:20187   */\n      swap1\n      pop\n        /* \"#utility.yul\":19775:20194   */\n      swap2\n      swap1\n      pop\n      jump\t// out\n        /* \"#utility.yul\":20200:20368   */\n    tag_487:\n        /* \"#utility.yul\":20340:20360   */\n      0x4e6f2045544820746f2077697468647261770000000000000000000000000000\n        /* \"#utility.yul\":20336:20337   */\n      0x00\n        /* \"#utility.yul\":20328:20334   */\n      dup3\n        /* \"#utility.yul\":20324:20338   */\n      add\n        /* \"#utility.yul\":20317:20361   */\n      mstore\n        /* \"#utility.yul\":20200:20368   */\n      pop\n      jump\t// out\n        /* \"#utility.yul\":20374:20740   */\n    tag_488:\n        /* \"#utility.yul\":20516:20519   */\n      0x00\n        /* \"#utility.yul\":20537:20604   */\n      tag_677\n        /* \"#utility.yul\":20601:20603   */\n      0x12\n        /* \"#utility.yul\":20596:20599   */\n      dup4\n        /* \"#utility.yul\":20537:20604   */\n      tag_444\n      jump\t// in\n    tag_677:\n        /* \"#utility.yul\":20530:20604   */\n      swap2\n      pop\n        /* \"#utility.yul\":20613:20706   */\n      tag_678\n        /* \"#utility.yul\":20702:20705   */\n      dup3\n        /* \"#utility.yul\":20613:20706   */\n      tag_487\n      jump\t// in\n    tag_678:\n        /* \"#utility.yul\":20731:20733   */\n      0x20\n        /* \"#utility.yul\":20726:20729   */\n      dup3\n        /* \"#utility.yul\":20722:20734   */\n      add\n        /* \"#utility.yul\":20715:20734   */\n      swap1\n      pop\n        /* \"#utility.yul\":20374:20740   */\n      swap2\n      swap1\n      pop\n      jump\t// out\n        /* \"#utility.yul\":20746:21165   */\n    tag_355:\n        /* \"#utility.yul\":20912:20916   */\n      0x00\n        /* \"#utility.yul\":20950:20952   */\n      0x20\n        /* \"#utility.yul\":20939:20948   */\n      dup3\n        /* \"#utility.yul\":20935:20953   */\n      add\n        /* \"#utility.yul\":20927:20953   */\n      swap1\n      pop\n        /* \"#utility.yul\":20999:21008   */\n      dup2\n        /* \"#utility.yul\":20993:20997   */\n      dup2\n        /* \"#utility.yul\":20989:21009   */\n      sub\n        /* \"#utility.yul\":20985:20986   */\n      0x00\n        /* \"#utility.yul\":20974:20983   */\n      dup4\n        /* \"#utility.yul\":20970:20987   */\n      add\n        /* \"#utility.yul\":20963:21010   */\n      mstore\n        /* \"#utility.yul\":21027:21158   */\n      tag_680\n        /* \"#utility.yul\":21153:21157   */\n      dup2\n        /* \"#utility.yul\":21027:21158   */\n      tag_488\n      jump\t// in\n    tag_680:\n        /* \"#utility.yul\":21019:21158   */\n      swap1\n      pop\n        /* \"#utility.yul\":20746:21165   */\n      swap2\n      swap1\n      pop\n      jump\t// out\n        /* \"#utility.yul\":21171:21318   */\n    tag_489:\n        /* \"#utility.yul\":21272:21283   */\n      0x00\n        /* \"#utility.yul\":21309:21312   */\n      dup2\n        /* \"#utility.yul\":21294:21312   */\n      swap1\n      pop\n        /* \"#utility.yul\":21171:21318   */\n      swap3\n      swap2\n      pop\n      pop\n      jump\t// out\n        /* \"#utility.yul\":21324:21438   */\n    tag_490:\n      pop\n      jump\t// out\n        /* \"#utility.yul\":21444:21842   */\n    tag_491:\n        /* \"#utility.yul\":21603:21606   */\n      0x00\n        /* \"#utility.yul\":21624:21707   */\n      tag_684\n        /* \"#utility.yul\":21705:21706   */\n      0x00\n        /* \"#utility.yul\":21700:21703   */\n      dup4\n        /* \"#utility.yul\":21624:21707   */\n      tag_489\n      jump\t// in\n    tag_684:\n        /* \"#utility.yul\":21617:21707   */\n      swap2\n      pop\n        /* \"#utility.yul\":21716:21809   */\n      tag_685\n        /* \"#utility.yul\":21805:21808   */\n      dup3\n        /* \"#utility.yul\":21716:21809   */\n      tag_490\n      jump\t// in\n    tag_685:\n        /* \"#utility.yul\":21834:21835   */\n      0x00\n        /* \"#utility.yul\":21829:21832   */\n      dup3\n        /* \"#utility.yul\":21825:21836   */\n      add\n        /* \"#utility.yul\":21818:21836   */\n      swap1\n      pop\n        /* \"#utility.yul\":21444:21842   */\n      swap2\n      swap1\n      pop\n      jump\t// out\n        /* \"#utility.yul\":21848:22227   */\n    tag_358:\n        /* \"#utility.yul\":22032:22035   */\n      0x00\n        /* \"#utility.yul\":22054:22201   */\n      tag_687\n        /* \"#utility.yul\":22197:22200   */\n      dup3\n        /* \"#utility.yul\":22054:22201   */\n      tag_491\n      jump\t// in\n    tag_687:\n        /* \"#utility.yul\":22047:22201   */\n      swap2\n      pop\n        /* \"#utility.yul\":22218:22221   */\n      dup2\n        /* \"#utility.yul\":22211:22221   */\n      swap1\n      pop\n        /* \"#utility.yul\":21848:22227   */\n      swap2\n      swap1\n      pop\n      jump\t// out\n        /* \"#utility.yul\":22233:22398   */\n    tag_492:\n        /* \"#utility.yul\":22373:22390   */\n      0x5472616e73666572206661696c65640000000000000000000000000000000000\n        /* \"#utility.yul\":22369:22370   */\n      0x00\n        /* \"#utility.yul\":22361:22367   */\n      dup3\n        /* \"#utility.yul\":22357:22371   */\n      add\n        /* \"#utility.yul\":22350:22391   */\n      mstore\n        /* \"#utility.yul\":22233:22398   */\n      pop\n      jump\t// out\n        /* \"#utility.yul\":22404:22770   */\n    tag_493:\n        /* \"#utility.yul\":22546:22549   */\n      0x00\n        /* \"#utility.yul\":22567:22634   */\n      tag_690\n        /* \"#utility.yul\":22631:22633   */\n      0x0f\n        /* \"#utility.yul\":22626:22629   */\n      dup4\n        /* \"#utility.yul\":22567:22634   */\n      tag_444\n      jump\t// in\n    tag_690:\n        /* \"#utility.yul\":22560:22634   */\n      swap2\n      pop\n        /* \"#utility.yul\":22643:22736   */\n      tag_691\n        /* \"#utility.yul\":22732:22735   */\n      dup3\n        /* \"#utility.yul\":22643:22736   */\n      tag_492\n      jump\t// in\n    tag_691:\n        /* \"#utility.yul\":22761:22763   */\n      0x20\n        /* \"#utility.yul\":22756:22759   */\n      dup3\n        /* \"#utility.yul\":22752:22764   */\n      add\n        /* \"#utility.yul\":22745:22764   */\n      swap1\n      pop\n        /* \"#utility.yul\":22404:22770   */\n      swap2\n      swap1\n      pop\n      jump\t// out\n        /* \"#utility.yul\":22776:23195   */\n    tag_364:\n        /* \"#utility.yul\":22942:22946   */\n      0x00\n        /* \"#utility.yul\":22980:22982   */\n      0x20\n        /* \"#utility.yul\":22969:22978   */\n      dup3\n        /* \"#utility.yul\":22965:22983   */\n      add\n        /* \"#utility.yul\":22957:22983   */\n      swap1\n      pop\n        /* \"#utility.yul\":23029:23038   */\n      dup2\n        /* \"#utility.yul\":23023:23027   */\n      dup2\n        /* \"#utility.yul\":23019:23039   */\n      sub\n        /* \"#utility.yul\":23015:23016   */\n      0x00\n        /* \"#utility.yul\":23004:23013   */\n      dup4\n        /* \"#utility.yul\":23000:23017   */\n      add\n        /* \"#utility.yul\":22993:23040   */\n      mstore\n        /* \"#utility.yul\":23057:23188   */\n      tag_693\n        /* \"#utility.yul\":23183:23187   */\n      dup2\n        /* \"#utility.yul\":23057:23188   */\n      tag_493\n      jump\t// in\n    tag_693:\n        /* \"#utility.yul\":23049:23188   */\n      swap1\n      pop\n        /* \"#utility.yul\":22776:23195   */\n      swap2\n      swap1\n      pop\n      jump\t// out\n        /* \"#utility.yul\":23201:23643   */\n    tag_397:\n        /* \"#utility.yul\":23350:23354   */\n      0x00\n        /* \"#utility.yul\":23388:23390   */\n      0x60\n        /* \"#utility.yul\":23377:23386   */\n      dup3\n        /* \"#utility.yul\":23373:23391   */\n      add\n        /* \"#utility.yul\":23365:23391   */\n      swap1\n      pop\n        /* \"#utility.yul\":23401:23472   */\n      tag_695\n        /* \"#utility.yul\":23469:23470   */\n      0x00\n        /* \"#utility.yul\":23458:23467   */\n      dup4\n        /* \"#utility.yul\":23454:23471   */\n      add\n        /* \"#utility.yul\":23445:23451   */\n      dup7\n        /* \"#utility.yul\":23401:23472   */\n      tag_461\n      jump\t// in\n    tag_695:\n        /* \"#utility.yul\":23482:23554   */\n      tag_696\n        /* \"#utility.yul\":23550:23552   */\n      0x20\n        /* \"#utility.yul\":23539:23548   */\n      dup4\n        /* \"#utility.yul\":23535:23553   */\n      add\n        /* \"#utility.yul\":23526:23532   */\n      dup6\n        /* \"#utility.yul\":23482:23554   */\n      tag_442\n      jump\t// in\n    tag_696:\n        /* \"#utility.yul\":23564:23636   */\n      tag_697\n        /* \"#utility.yul\":23632:23634   */\n      0x40\n        /* \"#utility.yul\":23621:23630   */\n      dup4\n        /* \"#utility.yul\":23617:23635   */\n      add\n        /* \"#utility.yul\":23608:23614   */\n      dup5\n        /* \"#utility.yul\":23564:23636   */\n      tag_442\n      jump\t// in\n    tag_697:\n        /* \"#utility.yul\":23201:23643   */\n      swap5\n      swap4\n      pop\n      pop\n      pop\n      pop\n      jump\t// out\n        /* \"#utility.yul\":23649:23830   */\n    tag_494:\n        /* \"#utility.yul\":23789:23822   */\n      0x5265656e7472616e637947756172643a207265656e7472616e742063616c6c00\n        /* \"#utility.yul\":23785:23786   */\n      0x00\n        /* \"#utility.yul\":23777:23783   */\n      dup3\n        /* \"#utility.yul\":23773:23787   */\n      add\n        /* \"#utility.yul\":23766:23823   */\n      mstore\n        /* \"#utility.yul\":23649:23830   */\n      pop\n      jump\t// out\n        /* \"#utility.yul\":23836:24202   */\n    tag_495:\n        /* \"#utility.yul\":23978:23981   */\n      0x00\n        /* \"#utility.yul\":23999:24066   */\n      tag_700\n        /* \"#utility.yul\":24063:24065   */\n      0x1f\n        /* \"#utility.yul\":24058:24061   */\n      dup4\n        /* \"#utility.yul\":23999:24066   */\n      tag_444\n      jump\t// in\n    tag_700:\n        /* \"#utility.yul\":23992:24066   */\n      swap2\n      pop\n        /* \"#utility.yul\":24075:24168   */\n      tag_701\n        /* \"#utility.yul\":24164:24167   */\n      dup3\n        /* \"#utility.yul\":24075:24168   */\n      tag_494\n      jump\t// in\n    tag_701:\n        /* \"#utility.yul\":24193:24195   */\n      0x20\n        /* \"#utility.yul\":24188:24191   */\n      dup3\n        /* \"#utility.yul\":24184:24196   */\n      add\n        /* \"#utility.yul\":24177:24196   */\n      swap1\n      pop\n        /* \"#utility.yul\":23836:24202   */\n      swap2\n      swap1\n      pop\n      jump\t// out\n        /* \"#utility.yul\":24208:24627   */\n    tag_409:\n        /* \"#utility.yul\":24374:24378   */\n      0x00\n        /* \"#utility.yul\":24412:24414   */\n      0x20\n        /* \"#utility.yul\":24401:24410   */\n      dup3\n        /* \"#utility.yul\":24397:24415   */\n      add\n        /* \"#utility.yul\":24389:24415   */\n      swap1\n      pop\n        /* \"#utility.yul\":24461:24470   */\n      dup2\n        /* \"#utility.yul\":24455:24459   */\n      dup2\n        /* \"#utility.yul\":24451:24471   */\n      sub\n        /* \"#utility.yul\":24447:24448   */\n      0x00\n        /* \"#utility.yul\":24436:24445   */\n      dup4\n        /* \"#utility.yul\":24432:24449   */\n      add\n        /* \"#utility.yul\":24425:24472   */\n      mstore\n        /* \"#utility.yul\":24489:24620   */\n      tag_703\n        /* \"#utility.yul\":24615:24619   */\n      dup2\n        /* \"#utility.yul\":24489:24620   */\n      tag_495\n      jump\t// in\n    tag_703:\n        /* \"#utility.yul\":24481:24620   */\n      swap1\n      pop\n        /* \"#utility.yul\":24208:24627   */\n      swap2\n      swap1\n      pop\n      jump\t// out\n        /* \"#utility.yul\":24633:24799   */\n    tag_496:\n        /* \"#utility.yul\":24773:24791   */\n      0x5061757361626c653a2070617573656400000000000000000000000000000000\n        /* \"#utility.yul\":24769:24770   */\n      0x00\n        /* \"#utility.yul\":24761:24767   */\n      dup3\n        /* \"#utility.yul\":24757:24771   */\n      add\n        /* \"#utility.yul\":24750:24792   */\n      mstore\n        /* \"#utility.yul\":24633:24799   */\n      pop\n      jump\t// out\n        /* \"#utility.yul\":24805:25171   */\n    tag_497:\n        /* \"#utility.yul\":24947:24950   */\n      0x00\n        /* \"#utility.yul\":24968:25035   */\n      tag_706\n        /* \"#utility.yul\":25032:25034   */\n      0x10\n        /* \"#utility.yul\":25027:25030   */\n      dup4\n        /* \"#utility.yul\":24968:25035   */\n      tag_444\n      jump\t// in\n    tag_706:\n        /* \"#utility.yul\":24961:25035   */\n      swap2\n      pop\n        /* \"#utility.yul\":25044:25137   */\n      tag_707\n        /* \"#utility.yul\":25133:25136   */\n      dup3\n        /* \"#utility.yul\":25044:25137   */\n      tag_496\n      jump\t// in\n    tag_707:\n        /* \"#utility.yul\":25162:25164   */\n      0x20\n        /* \"#utility.yul\":25157:25160   */\n      dup3\n        /* \"#utility.yul\":25153:25165   */\n      add\n        /* \"#utility.yul\":25146:25165   */\n      swap1\n      pop\n        /* \"#utility.yul\":24805:25171   */\n      swap2\n      swap1\n      pop\n      jump\t// out\n        /* \"#utility.yul\":25177:25596   */\n    tag_414:\n        /* \"#utility.yul\":25343:25347   */\n      0x00\n        /* \"#utility.yul\":25381:25383   */\n      0x20\n        /* \"#utility.yul\":25370:25379   */\n      dup3\n        /* \"#utility.yul\":25366:25384   */\n      add\n        /* \"#utility.yul\":25358:25384   */\n      swap1\n      pop\n        /* \"#utility.yul\":25430:25439   */\n      dup2\n        /* \"#utility.yul\":25424:25428   */\n      dup2\n        /* \"#utility.yul\":25420:25440   */\n      sub\n        /* \"#utility.yul\":25416:25417   */\n      0x00\n        /* \"#utility.yul\":25405:25414   */\n      dup4\n        /* \"#utility.yul\":25401:25418   */\n      add\n        /* \"#utility.yul\":25394:25441   */\n      mstore\n        /* \"#utility.yul\":25458:25589   */\n      tag_709\n        /* \"#utility.yul\":25584:25588   */\n      dup2\n        /* \"#utility.yul\":25458:25589   */\n      tag_497\n      jump\t// in\n    tag_709:\n        /* \"#utility.yul\":25450:25589   */\n      swap1\n      pop\n        /* \"#utility.yul\":25177:25596   */\n      swap2\n      swap1\n      pop\n      jump\t// out\n\n    auxdata: 0xa26469706673582212202c575f5312aa1bd8d265f6ad810122ae121b03ce3360551c16897f42f03fffea64736f6c634300081a0033\n}\n",
				"bytecode": {
					"linkReferences": {},
					"object": "60806040526a201fcafc2577d29850000060085566038d7ea4c6800060095566b3697b81284000600a556000600b556a854fdabd6aa1d32fb00000600e556a0fb768105935a2f3000000600f5566b3697b8128400060105567016345785d8a000060115560006012556000601460006101000a81548160ff02191690831515021790555068056bc75e2d6310000060155568a2a15d09519be000006016556000601860006101000a81548160ff0219169083151502179055503480156100c457600080fd5b50336040518060400160405280600881526020017f426574746f6b656e0000000000000000000000000000000000000000000000008152506040518060400160405280600481526020017f4245545400000000000000000000000000000000000000000000000000000000815250816003908161014191906107dc565b50806004908161015191906107dc565b505050600073ffffffffffffffffffffffffffffffffffffffff168173ffffffffffffffffffffffffffffffffffffffff16036101c65760006040517f1e4fbdf70000000000000000000000000000000000000000000000000000000081526004016101bd91906108ef565b60405180910390fd5b6101d58161021960201b60201c565b5060016006819055506000600760006101000a81548160ff021916908315150217905550610214306aa56fa5b99019a5c80000006102df60201b60201c565b6109ce565b6000600560009054906101000a900473ffffffffffffffffffffffffffffffffffffffff16905081600560006101000a81548173ffffffffffffffffffffffffffffffffffffffff021916908373ffffffffffffffffffffffffffffffffffffffff1602179055508173ffffffffffffffffffffffffffffffffffffffff168173ffffffffffffffffffffffffffffffffffffffff167f8be0079c531659141344cd1fd0a4f28419497f9722a3daafe3b4186f6b6457e060405160405180910390a35050565b600073ffffffffffffffffffffffffffffffffffffffff168273ffffffffffffffffffffffffffffffffffffffff16036103515760006040517fec442f0500000000000000000000000000000000000000000000000000000000815260040161034891906108ef565b60405180910390fd5b6103636000838361036760201b60201c565b5050565b600073ffffffffffffffffffffffffffffffffffffffff168373ffffffffffffffffffffffffffffffffffffffff16036103b95780600260008282546103ad9190610939565b9250508190555061048c565b60008060008573ffffffffffffffffffffffffffffffffffffffff1673ffffffffffffffffffffffffffffffffffffffff16815260200190815260200160002054905081811015610445578381836040517fe450d38c00000000000000000000000000000000000000000000000000000000815260040161043c9392919061097c565b60405180910390fd5b8181036000808673ffffffffffffffffffffffffffffffffffffffff1673ffffffffffffffffffffffffffffffffffffffff16815260200190815260200160002081905550505b600073ffffffffffffffffffffffffffffffffffffffff168273ffffffffffffffffffffffffffffffffffffffff16036104d55780600260008282540392505081905550610522565b806000808473ffffffffffffffffffffffffffffffffffffffff1673ffffffffffffffffffffffffffffffffffffffff168152602001908152602001600020600082825401925050819055505b8173ffffffffffffffffffffffffffffffffffffffff168373ffffffffffffffffffffffffffffffffffffffff167fddf252ad1be2c89b69c2b068fc378daa952ba7f163c4a11628f55a4df523b3ef8360405161057f91906109b3565b60405180910390a3505050565b600081519050919050565b7f4e487b7100000000000000000000000000000000000000000000000000000000600052604160045260246000fd5b7f4e487b7100000000000000000000000000000000000000000000000000000000600052602260045260246000fd5b6000600282049050600182168061060d57607f821691505b6020821081036106205761061f6105c6565b5b50919050565b60008190508160005260206000209050919050565b60006020601f8301049050919050565b600082821b905092915050565b6000600883026106887fffffffffffffffffffffffffffffffffffffffffffffffffffffffffffffffff8261064b565b610692868361064b565b95508019841693508086168417925050509392505050565b6000819050919050565b6000819050919050565b60006106d96106d46106cf846106aa565b6106b4565b6106aa565b9050919050565b6000819050919050565b6106f3836106be565b6107076106ff826106e0565b848454610658565b825550505050565b600090565b61071c61070f565b6107278184846106ea565b505050565b5b8181101561074b57610740600082610714565b60018101905061072d565b5050565b601f8211156107905761076181610626565b61076a8461063b565b81016020851015610779578190505b61078d6107858561063b565b83018261072c565b50505b505050565b600082821c905092915050565b60006107b360001984600802610795565b1980831691505092915050565b60006107cc83836107a2565b9150826002028217905092915050565b6107e58261058c565b67ffffffffffffffff8111156107fe576107fd610597565b5b61080882546105f5565b61081382828561074f565b600060209050601f8311600181146108465760008415610834578287015190505b61083e85826107c0565b8655506108a6565b601f19841661085486610626565b60005b8281101561087c57848901518255600182019150602085019450602081019050610857565b868310156108995784890151610895601f8916826107a2565b8355505b6001600288020188555050505b505050505050565b600073ffffffffffffffffffffffffffffffffffffffff82169050919050565b60006108d9826108ae565b9050919050565b6108e9816108ce565b82525050565b600060208201905061090460008301846108e0565b92915050565b7f4e487b7100000000000000000000000000000000000000000000000000000000600052601160045260246000fd5b6000610944826106aa565b915061094f836106aa565b92508282019050808211156109675761096661090a565b5b92915050565b610976816106aa565b82525050565b600060608201905061099160008301866108e0565b61099e602083018561096d565b6109ab604083018461096d565b949350505050565b60006020820190506109c8600083018461096d565b92915050565b612b36806109dd6000396000f3fe6080604052600436106102465760003560e01c8063920168b311610139578063cb8dcfe6116100b6578063e6a23c3d1161007a578063e6a23c3d14610828578063ee889ed01461083f578063ef5b329c14610856578063f15a41f614610881578063f2fde38b146108be578063fdb20ccb146108e757610246565b8063cb8dcfe614610750578063d414890a1461078d578063d50234c4146107a9578063dd62ed3e146107d4578063e086e5ec1461081157610246565b8063ac21694c116100fd578063ac21694c14610679578063b0e68630146106a4578063b68ed11f146106cf578063bda95633146106fa578063c552e04b1461072557610246565b8063920168b314610592578063940de97e146105bd57806395d89b41146105e8578063a089de2f14610613578063a9059cbb1461063c57610246565b806355dd574c116101c7578063844947081161018b57806384494708146104cf5780638d8f2adb146104fa5780638da5cb5b146105115780638f7713ff1461053c578063902d55a51461056757610246565b806355dd574c1461040e5780635c975abb146104255780635fb3b9441461045057806370a082311461047b578063715018a6146104b857610246565b80631ecf8f4d1161020e5780631ecf8f4d1461033457806323b872dd1461035f5780632a237bb61461039c578063313ce567146103c7578063466c3f93146103f257610246565b806306d65af31461024b57806306fdde0314610276578063095ea7b3146102a15780630fe83bb8146102de57806318160ddd14610309575b600080fd5b34801561025757600080fd5b50610260610928565b60405161026d9190611e62565b60405180910390f35b34801561028257600080fd5b5061028b61092e565b6040516102989190611f0d565b60405180910390f35b3480156102ad57600080fd5b506102c860048036038101906102c39190611fbe565b6109c0565b6040516102d59190612019565b60405180910390f35b3480156102ea57600080fd5b506102f36109e3565b6040516103009190611e62565b60405180910390f35b34801561031557600080fd5b5061031e6109e9565b60405161032b9190611e62565b60405180910390f35b34801561034057600080fd5b506103496109f3565b6040516103569190611e62565b60405180910390f35b34801561036b57600080fd5b5061038660048036038101906103819190612034565b6109f9565b6040516103939190612019565b60405180910390f35b3480156103a857600080fd5b506103b1610a28565b6040516103be9190612019565b60405180910390f35b3480156103d357600080fd5b506103dc610a3b565b6040516103e991906120a3565b60405180910390f35b61040c600480360381019061040791906120be565b610a44565b005b34801561041a57600080fd5b50610423610c0f565b005b34801561043157600080fd5b5061043a610cc4565b6040516104479190612019565b60405180910390f35b34801561045c57600080fd5b50610465610cdb565b6040516104729190611e62565b60405180910390f35b34801561048757600080fd5b506104a2600480360381019061049d91906120eb565b610ce1565b6040516104af9190611e62565b60405180910390f35b3480156104c457600080fd5b506104cd610d29565b005b3480156104db57600080fd5b506104e4610d3d565b6040516104f19190612019565b60405180910390f35b34801561050657600080fd5b5061050f610d50565b005b34801561051d57600080fd5b50610526610df4565b6040516105339190612127565b60405180910390f35b34801561054857600080fd5b50610551610e1e565b60405161055e9190611e62565b60405180910390f35b34801561057357600080fd5b5061057c610e24565b6040516105899190611e62565b60405180910390f35b34801561059e57600080fd5b506105a7610e33565b6040516105b49190611e62565b60405180910390f35b3480156105c957600080fd5b506105d2610e39565b6040516105df9190611e62565b60405180910390f35b3480156105f457600080fd5b506105fd610e3f565b60405161060a9190611f0d565b60405180910390f35b34801561061f57600080fd5b5061063a600480360381019061063591906120be565b610ed1565b005b34801561064857600080fd5b50610663600480360381019061065e9190611fbe565b610fe2565b6040516106709190612019565b60405180910390f35b34801561068557600080fd5b5061068e611005565b60405161069b9190611e62565b60405180910390f35b3480156106b057600080fd5b506106b961100b565b6040516106c69190611e62565b60405180910390f35b3480156106db57600080fd5b506106e4611011565b6040516106f19190611e62565b60405180910390f35b34801561070657600080fd5b5061070f611017565b60405161071c9190611e62565b60405180910390f35b34801561073157600080fd5b5061073a61101d565b6040516107479190611e62565b60405180910390f35b34801561075c57600080fd5b50610777600480360381019061077291906120be565b611023565b6040516107849190611e62565b60405180910390f35b6107a760048036038101906107a291906120be565b611079565b005b3480156107b557600080fd5b506107be611217565b6040516107cb9190611e62565b60405180910390f35b3480156107e057600080fd5b506107fb60048036038101906107f69190612142565b61121d565b6040516108089190611e62565b60405180910390f35b34801561081d57600080fd5b506108266112a4565b005b34801561083457600080fd5b5061083d6113e2565b005b34801561084b57600080fd5b50610854611482565b005b34801561086257600080fd5b5061086b611522565b6040516108789190611e62565b60405180910390f35b34801561088d57600080fd5b506108a860048036038101906108a391906120be565b611528565b6040516108b59190611e62565b60405180910390f35b3480156108ca57600080fd5b506108e560048036038101906108e091906120eb565b61157e565b005b3480156108f357600080fd5b5061090e600480360381019061090991906120eb565b611604565b60405161091f959493929190612182565b60405180910390f35b60135481565b60606003805461093d90612204565b80601f016020809104026020016040519081016040528092919081815260200182805461096990612204565b80156109b65780601f1061098b576101008083540402835291602001916109b6565b820191906000526020600020905b81548152906001019060200180831161099957829003601f168201915b5050505050905090565b6000806109cb61163a565b90506109d8818585611642565b600191505092915050565b600e5481565b6000600254905090565b60155481565b600080610a0461163a565b9050610a11858285611654565b610a1c8585856116e8565b60019150509392505050565b601860009054906101000a900460ff1681565b60006012905090565b610a4c6117dc565b610a5461182b565b601460009054906101000a900460ff16610aa3576040517f08c379a0000000000000000000000000000000000000000000000000000000008152600401610a9a90612281565b60405180910390fd5b601554811015610ae8576040517f08c379a0000000000000000000000000000000000000000000000000000000008152600401610adf90612313565b60405180910390fd5b601654811115610b2d576040517f08c379a0000000000000000000000000000000000000000000000000000000008152600401610b24906123a5565b60405180910390fd5b6000610b3882611023565b9050600e5481601254610b4b91906123f4565b1115610b8c576040517f08c379a0000000000000000000000000000000000000000000000000000000008152600401610b8390612474565b60405180910390fd5b8060126000828254610b9e91906123f4565b92505081905550600e5460125410610bf8576000601460006101000a81548160ff0219169083151502179055507fc82e6055d31de9b552cd0014f23a8b8ce120c288ed1afce01adb97150efc018560405160405180910390a15b610c033033836116e8565b50610c0c611875565b50565b610c1761187f565b601460009054906101000a900460ff1615610c67576040517f08c379a0000000000000000000000000000000000000000000000000000000008152600401610c5e906124e0565b60405180910390fd5b6001601460006101000a81548160ff021916908315150217905550426013819055507f71d9b86cd8e742cc8d4d6b9d25c84d4e42f8ba8138c6ee54914285f4a9540056601354604051610cba9190611e62565b60405180910390a1565b6000600760009054906101000a900460ff16905090565b600b5481565b60008060008373ffffffffffffffffffffffffffffffffffffffff1673ffffffffffffffffffffffffffffffffffffffff168152602001908152602001600020549050919050565b610d3161187f565b610d3b6000611906565b565b601460009054906101000a900460ff1681565b610d5861187f565b6000610d6330610ce1565b905060008111610da8576040517f08c379a0000000000000000000000000000000000000000000000000000000008152600401610d9f9061254c565b60405180910390fd5b610dba30610db4610df4565b836116e8565b7f9c6393f251205f9e03559951cab4c9ae71767b6174f77944a5b0c2fa51fbda9f81604051610de99190611e62565b60405180910390a150565b6000600560009054906101000a900473ffffffffffffffffffffffffffffffffffffffff16905090565b60115481565b6aa56fa5b99019a5c800000081565b60105481565b600c5481565b606060048054610e4e90612204565b80601f0160208091040260200160405190810160405280929190818152602001828054610e7a90612204565b8015610ec75780601f10610e9c57610100808354040283529160200191610ec7565b820191906000526020600020905b815481529060010190602001808311610eaa57829003601f168201915b5050505050905090565b610ed961187f565b601860009054906101000a900460ff1615610f29576040517f08c379a0000000000000000000000000000000000000000000000000000000008152600401610f20906125b8565b60405180910390fd5b600081118015610f3a575060648111155b610f79576040517f08c379a0000000000000000000000000000000000000000000000000000000008152600401610f7090612624565b60405180910390fd5b80600d819055506001601860006101000a81548160ff02191690831515021790555042600c819055507fcbe7b2993d671ff089495ae9d90ae7a115f123db134c0a6d3c4bc6e0c72cf7e5600d54600c54604051610fd7929190612644565b60405180910390a150565b600080610fed61163a565b9050610ffa8185856116e8565b600191505092915050565b60165481565b60095481565b60125481565b600a5481565b60085481565b600080600e5460125460105460115461103c919061266d565b61104691906126a1565b6110509190612712565b60105461105d91906123f4565b90506000818461106d9190612712565b90508092505050919050565b6110816117dc565b61108961182b565b601860009054906101000a900460ff166110d8576040517f08c379a00000000000000000000000000000000000000000000000000000000081526004016110cf9061278f565b60405180910390fd5b6802b5e3af16b1880000811015611124576040517f08c379a000000000000000000000000000000000000000000000000000000000815260040161111b90612821565b60405180910390fd5b600061112f82611528565b9050683635c9adc5dea0000081111561117d576040517f08c379a0000000000000000000000000000000000000000000000000000000008152600401611174906128b3565b60405180910390fd5b80600b600082825461118f91906123f4565b92505081905550600854600b54106111e9576000601860006101000a81548160ff0219169083151502179055507f8d80f5be79e7dd88d69814b57e8f5c7dd249b3d6bac194eb9144b8ca639db03660405160405180910390a15b61120b33826301e13380426111fe91906123f4565b62ed4e0062278d006119cc565b50611214611875565b50565b600d5481565b6000600160008473ffffffffffffffffffffffffffffffffffffffff1673ffffffffffffffffffffffffffffffffffffffff16815260200190815260200160002060008373ffffffffffffffffffffffffffffffffffffffff1673ffffffffffffffffffffffffffffffffffffffff16815260200190815260200160002054905092915050565b6112ac61187f565b6000479050600081116112f4576040517f08c379a00000000000000000000000000000000000000000000000000000000081526004016112eb9061291f565b60405180910390fd5b60006112fe610df4565b73ffffffffffffffffffffffffffffffffffffffff168260405161132190612970565b60006040518083038185875af1925050503d806000811461135e576040519150601f19603f3d011682016040523d82523d6000602084013e611363565b606091505b50509050806113a7576040517f08c379a000000000000000000000000000000000000000000000000000000000815260040161139e906129d1565b60405180910390fd5b7f043f607a14d3b4f0a11a0b2e192bbfcd894298ba5abf22553be6081406db28aa826040516113d69190611e62565b60405180910390a15050565b6113ea61187f565b601860009054906101000a900460ff16611439576040517f08c379a00000000000000000000000000000000000000000000000000000000081526004016114309061278f565b60405180910390fd5b6000601860006101000a81548160ff0219169083151502179055507f8d80f5be79e7dd88d69814b57e8f5c7dd249b3d6bac194eb9144b8ca639db03660405160405180910390a1565b61148a61187f565b601460009054906101000a900460ff166114d9576040517f08c379a00000000000000000000000000000000000000000000000000000000081526004016114d090612281565b60405180910390fd5b6000601460006101000a81548160ff0219169083151502179055507fc82e6055d31de9b552cd0014f23a8b8ce120c288ed1afce01adb97150efc018560405160405180910390a1565b600f5481565b600080600854600b54600954600a54611541919061266d565b61154b91906126a1565b6115559190612712565b60095461156291906123f4565b9050600081846115729190612712565b90508092505050919050565b61158661187f565b600073ffffffffffffffffffffffffffffffffffffffff168173ffffffffffffffffffffffffffffffffffffffff16036115f85760006040517f1e4fbdf70000000000000000000000000000000000000000000000000000000081526004016115ef9190612127565b60405180910390fd5b61160181611906565b50565b60176020528060005260406000206000915090508060000154908060010154908060020154908060030154908060040154905085565b600033905090565b61164f8383836001611a4d565b505050565b6000611660848461121d565b90507fffffffffffffffffffffffffffffffffffffffffffffffffffffffffffffffff81146116e257818110156116d2578281836040517ffb8f41b20000000000000000000000000000000000000000000000000000000081526004016116c9939291906129f1565b60405180910390fd5b6116e184848484036000611a4d565b5b50505050565b600073ffffffffffffffffffffffffffffffffffffffff168373ffffffffffffffffffffffffffffffffffffffff160361175a5760006040517f96c6fd1e0000000000000000000000000000000000000000000000000000000081526004016117519190612127565b60405180910390fd5b600073ffffffffffffffffffffffffffffffffffffffff168273ffffffffffffffffffffffffffffffffffffffff16036117cc5760006040517fec442f050000000000000000000000000000000000000000000000000000000081526004016117c39190612127565b60405180910390fd5b6117d7838383611c24565b505050565b600260065403611821576040517f08c379a000000000000000000000000000000000000000000000000000000000815260040161181890612a74565b60405180910390fd5b6002600681905550565b611833610cc4565b15611873576040517f08c379a000000000000000000000000000000000000000000000000000000000815260040161186a90612ae0565b60405180910390fd5b565b6001600681905550565b61188761163a565b73ffffffffffffffffffffffffffffffffffffffff166118a5610df4565b73ffffffffffffffffffffffffffffffffffffffff1614611904576118c861163a565b6040517f118cdaa70000000000000000000000000000000000000000000000000000000081526004016118fb9190612127565b60405180910390fd5b565b6000600560009054906101000a900473ffffffffffffffffffffffffffffffffffffffff16905081600560006101000a81548173ffffffffffffffffffffffffffffffffffffffff021916908373ffffffffffffffffffffffffffffffffffffffff1602179055508173ffffffffffffffffffffffffffffffffffffffff168173ffffffffffffffffffffffffffffffffffffffff167f8be0079c531659141344cd1fd0a4f28419497f9722a3daafe3b4186f6b6457e060405160405180910390a35050565b6000601760008773ffffffffffffffffffffffffffffffffffffffff1673ffffffffffffffffffffffffffffffffffffffff168152602001908152602001600020905084816000016000828254611a2391906123f4565b92505081905550838160020181905550828160030181905550818160040181905550505050505050565b600073ffffffffffffffffffffffffffffffffffffffff168473ffffffffffffffffffffffffffffffffffffffff1603611abf5760006040517fe602df05000000000000000000000000000000000000000000000000000000008152600401611ab69190612127565b60405180910390fd5b600073ffffffffffffffffffffffffffffffffffffffff168373ffffffffffffffffffffffffffffffffffffffff1603611b315760006040517f94280d62000000000000000000000000000000000000000000000000000000008152600401611b289190612127565b60405180910390fd5b81600160008673ffffffffffffffffffffffffffffffffffffffff1673ffffffffffffffffffffffffffffffffffffffff16815260200190815260200160002060008573ffffffffffffffffffffffffffffffffffffffff1673ffffffffffffffffffffffffffffffffffffffff168152602001908152602001600020819055508015611c1e578273ffffffffffffffffffffffffffffffffffffffff168473ffffffffffffffffffffffffffffffffffffffff167f8c5be1e5ebec7d5bd14f71427d1e84f3dd0314c0f7b2291e5b200ac8c7c3b92584604051611c159190611e62565b60405180910390a35b50505050565b600073ffffffffffffffffffffffffffffffffffffffff168373ffffffffffffffffffffffffffffffffffffffff1603611c76578060026000828254611c6a91906123f4565b92505081905550611d49565b60008060008573ffffffffffffffffffffffffffffffffffffffff1673ffffffffffffffffffffffffffffffffffffffff16815260200190815260200160002054905081811015611d02578381836040517fe450d38c000000000000000000000000000000000000000000000000000000008152600401611cf9939291906129f1565b60405180910390fd5b8181036000808673ffffffffffffffffffffffffffffffffffffffff1673ffffffffffffffffffffffffffffffffffffffff16815260200190815260200160002081905550505b600073ffffffffffffffffffffffffffffffffffffffff168273ffffffffffffffffffffffffffffffffffffffff1603611d925780600260008282540392505081905550611ddf565b806000808473ffffffffffffffffffffffffffffffffffffffff1673ffffffffffffffffffffffffffffffffffffffff168152602001908152602001600020600082825401925050819055505b8173ffffffffffffffffffffffffffffffffffffffff168373ffffffffffffffffffffffffffffffffffffffff167fddf252ad1be2c89b69c2b068fc378daa952ba7f163c4a11628f55a4df523b3ef83604051611e3c9190611e62565b60405180910390a3505050565b6000819050919050565b611e5c81611e49565b82525050565b6000602082019050611e776000830184611e53565b92915050565b600081519050919050565b600082825260208201905092915050565b60005b83811015611eb7578082015181840152602081019050611e9c565b60008484015250505050565b6000601f19601f8301169050919050565b6000611edf82611e7d565b611ee98185611e88565b9350611ef9818560208601611e99565b611f0281611ec3565b840191505092915050565b60006020820190508181036000830152611f278184611ed4565b905092915050565b600080fd5b600073ffffffffffffffffffffffffffffffffffffffff82169050919050565b6000611f5f82611f34565b9050919050565b611f6f81611f54565b8114611f7a57600080fd5b50565b600081359050611f8c81611f66565b92915050565b611f9b81611e49565b8114611fa657600080fd5b50565b600081359050611fb881611f92565b92915050565b60008060408385031215611fd557611fd4611f2f565b5b6000611fe385828601611f7d565b9250506020611ff485828601611fa9565b9150509250929050565b60008115159050919050565b61201381611ffe565b82525050565b600060208201905061202e600083018461200a565b92915050565b60008060006060848603121561204d5761204c611f2f565b5b600061205b86828701611f7d565b935050602061206c86828701611f7d565b925050604061207d86828701611fa9565b9150509250925092565b600060ff82169050919050565b61209d81612087565b82525050565b60006020820190506120b86000830184612094565b92915050565b6000602082840312156120d4576120d3611f2f565b5b60006120e284828501611fa9565b91505092915050565b60006020828403121561210157612100611f2f565b5b600061210f84828501611f7d565b91505092915050565b61212181611f54565b82525050565b600060208201905061213c6000830184612118565b92915050565b6000806040838503121561215957612158611f2f565b5b600061216785828601611f7d565b925050602061217885828601611f7d565b9150509250929050565b600060a0820190506121976000830188611e53565b6121a46020830187611e53565b6121b16040830186611e53565b6121be6060830185611e53565b6121cb6080830184611e53565b9695505050505050565b7f4e487b7100000000000000000000000000000000000000000000000000000000600052602260045260246000fd5b6000600282049050600182168061221c57607f821691505b60208210810361222f5761222e6121d5565b5b50919050565b7f5072652d53616c65206973206e6f742061637469766500000000000000000000600082015250565b600061226b601683611e88565b915061227682612235565b602082019050919050565b6000602082019050818103600083015261229a8161225e565b9050919050565b7f416d6f756e742069732062656c6f77206d696e696d756d20707572636861736560008201527f206c696d69740000000000000000000000000000000000000000000000000000602082015250565b60006122fd602683611e88565b9150612308826122a1565b604082019050919050565b6000602082019050818103600083015261232c816122f0565b9050919050565b7f416d6f756e742065786365656473206d6178696d756d2070757263686173652060008201527f6c696d6974000000000000000000000000000000000000000000000000000000602082015250565b600061238f602583611e88565b915061239a82612333565b604082019050919050565b600060208201905081810360008301526123be81612382565b9050919050565b7f4e487b7100000000000000000000000000000000000000000000000000000000600052601160045260246000fd5b60006123ff82611e49565b915061240a83611e49565b9250828201905080821115612422576124216123c5565b5b92915050565b7f45786365656473205072652d53616c6520746f6b656e206c696d697400000000600082015250565b600061245e601c83611e88565b915061246982612428565b602082019050919050565b6000602082019050818103600083015261248d81612451565b9050919050565b7f5072652d53616c6520697320616c726561647920616374697665000000000000600082015250565b60006124ca601a83611e88565b91506124d582612494565b602082019050919050565b600060208201905081810360008301526124f9816124bd565b9050919050565b7f4e6f20746f6b656e7320746f2077697468647261770000000000000000000000600082015250565b6000612536601583611e88565b915061254182612500565b602082019050919050565b6000602082019050818103600083015261256581612529565b9050919050565b7f507269766174652053616c6520616c7265616479206163746976650000000000600082015250565b60006125a2601b83611e88565b91506125ad8261256c565b602082019050919050565b600060208201905081810360008301526125d181612595565b9050919050565b7f496e76616c69642070657263656e746167650000000000000000000000000000600082015250565b600061260e601283611e88565b9150612619826125d8565b602082019050919050565b6000602082019050818103600083015261263d81612601565b9050919050565b60006040820190506126596000830185611e53565b6126666020830184611e53565b9392505050565b600061267882611e49565b915061268383611e49565b925082820390508181111561269b5761269a6123c5565b5b92915050565b60006126ac82611e49565b91506126b783611e49565b92508282026126c581611e49565b915082820484148315176126dc576126db6123c5565b5b5092915050565b7f4e487b7100000000000000000000000000000000000000000000000000000000600052601260045260246000fd5b600061271d82611e49565b915061272883611e49565b925082612738576127376126e3565b5b828204905092915050565b7f507269766174652053616c65206973206e6f7420616374697665000000000000600082015250565b6000612779601a83611e88565b915061278482612743565b602082019050919050565b600060208201905081810360008301526127a88161276c565b9050919050565b7f4d696e696d756d2055534420616d6f756e74207265717569726564206973203560008201527f3020555344000000000000000000000000000000000000000000000000000000602082015250565b600061280b602583611e88565b9150612816826127af565b604082019050919050565b6000602082019050818103600083015261283a816127fe565b9050919050565b7f45786365656473206d6178696d756d20746f6b656e207075726368617365206c60008201527f696d697400000000000000000000000000000000000000000000000000000000602082015250565b600061289d602483611e88565b91506128a882612841565b604082019050919050565b600060208201905081810360008301526128cc81612890565b9050919050565b7f4e6f2045544820746f2077697468647261770000000000000000000000000000600082015250565b6000612909601283611e88565b9150612914826128d3565b602082019050919050565b60006020820190508181036000830152612938816128fc565b9050919050565b600081905092915050565b50565b600061295a60008361293f565b91506129658261294a565b600082019050919050565b600061297b8261294d565b9150819050919050565b7f5472616e73666572206661696c65640000000000000000000000000000000000600082015250565b60006129bb600f83611e88565b91506129c682612985565b602082019050919050565b600060208201905081810360008301526129ea816129ae565b9050919050565b6000606082019050612a066000830186612118565b612a136020830185611e53565b612a206040830184611e53565b949350505050565b7f5265656e7472616e637947756172643a207265656e7472616e742063616c6c00600082015250565b6000612a5e601f83611e88565b9150612a6982612a28565b602082019050919050565b60006020820190508181036000830152612a8d81612a51565b9050919050565b7f5061757361626c653a2070617573656400000000000000000000000000000000600082015250565b6000612aca601083611e88565b9150612ad582612a94565b602082019050919050565b60006020820190508181036000830152612af981612abd565b905091905056fea26469706673582212202c575f5312aa1bd8d265f6ad810122ae121b03ce3360551c16897f42f03fffea64736f6c634300081a0033",
					"opcodes": "PUSH1 0x80 PUSH1 0x40 MSTORE PUSH11 0x201FCAFC2577D298500000 PUSH1 0x8 SSTORE PUSH7 0x38D7EA4C68000 PUSH1 0x9 SSTORE PUSH7 0xB3697B81284000 PUSH1 0xA SSTORE PUSH1 0x0 PUSH1 0xB SSTORE PUSH11 0x854FDABD6AA1D32FB00000 PUSH1 0xE SSTORE PUSH11 0xFB768105935A2F3000000 PUSH1 0xF SSTORE PUSH7 0xB3697B81284000 PUSH1 0x10 SSTORE PUSH8 0x16345785D8A0000 PUSH1 0x11 SSTORE PUSH1 0x0 PUSH1 0x12 SSTORE PUSH1 0x0 PUSH1 0x14 PUSH1 0x0 PUSH2 0x100 EXP DUP2 SLOAD DUP2 PUSH1 0xFF MUL NOT AND SWAP1 DUP4 ISZERO ISZERO MUL OR SWAP1 SSTORE POP PUSH9 0x56BC75E2D63100000 PUSH1 0x15 SSTORE PUSH9 0xA2A15D09519BE00000 PUSH1 0x16 SSTORE PUSH1 0x0 PUSH1 0x18 PUSH1 0x0 PUSH2 0x100 EXP DUP2 SLOAD DUP2 PUSH1 0xFF MUL NOT AND SWAP1 DUP4 ISZERO ISZERO MUL OR SWAP1 SSTORE POP CALLVALUE DUP1 ISZERO PUSH2 0xC4 JUMPI PUSH1 0x0 DUP1 REVERT JUMPDEST POP CALLER PUSH1 0x40 MLOAD DUP1 PUSH1 0x40 ADD PUSH1 0x40 MSTORE DUP1 PUSH1 0x8 DUP2 MSTORE PUSH1 0x20 ADD PUSH32 0x426574746F6B656E000000000000000000000000000000000000000000000000 DUP2 MSTORE POP PUSH1 0x40 MLOAD DUP1 PUSH1 0x40 ADD PUSH1 0x40 MSTORE DUP1 PUSH1 0x4 DUP2 MSTORE PUSH1 0x20 ADD PUSH32 0x4245545400000000000000000000000000000000000000000000000000000000 DUP2 MSTORE POP DUP2 PUSH1 0x3 SWAP1 DUP2 PUSH2 0x141 SWAP2 SWAP1 PUSH2 0x7DC JUMP JUMPDEST POP DUP1 PUSH1 0x4 SWAP1 DUP2 PUSH2 0x151 SWAP2 SWAP1 PUSH2 0x7DC JUMP JUMPDEST POP POP POP PUSH1 0x0 PUSH20 0xFFFFFFFFFFFFFFFFFFFFFFFFFFFFFFFFFFFFFFFF AND DUP2 PUSH20 0xFFFFFFFFFFFFFFFFFFFFFFFFFFFFFFFFFFFFFFFF AND SUB PUSH2 0x1C6 JUMPI PUSH1 0x0 PUSH1 0x40 MLOAD PUSH32 0x1E4FBDF700000000000000000000000000000000000000000000000000000000 DUP2 MSTORE PUSH1 0x4 ADD PUSH2 0x1BD SWAP2 SWAP1 PUSH2 0x8EF JUMP JUMPDEST PUSH1 0x40 MLOAD DUP1 SWAP2 SUB SWAP1 REVERT JUMPDEST PUSH2 0x1D5 DUP2 PUSH2 0x219 PUSH1 0x20 SHL PUSH1 0x20 SHR JUMP JUMPDEST POP PUSH1 0x1 PUSH1 0x6 DUP2 SWAP1 SSTORE POP PUSH1 0x0 PUSH1 0x7 PUSH1 0x0 PUSH2 0x100 EXP DUP2 SLOAD DUP2 PUSH1 0xFF MUL NOT AND SWAP1 DUP4 ISZERO ISZERO MUL OR SWAP1 SSTORE POP PUSH2 0x214 ADDRESS PUSH11 0xA56FA5B99019A5C8000000 PUSH2 0x2DF PUSH1 0x20 SHL PUSH1 0x20 SHR JUMP JUMPDEST PUSH2 0x9CE JUMP JUMPDEST PUSH1 0x0 PUSH1 0x5 PUSH1 0x0 SWAP1 SLOAD SWAP1 PUSH2 0x100 EXP SWAP1 DIV PUSH20 0xFFFFFFFFFFFFFFFFFFFFFFFFFFFFFFFFFFFFFFFF AND SWAP1 POP DUP2 PUSH1 0x5 PUSH1 0x0 PUSH2 0x100 EXP DUP2 SLOAD DUP2 PUSH20 0xFFFFFFFFFFFFFFFFFFFFFFFFFFFFFFFFFFFFFFFF MUL NOT AND SWAP1 DUP4 PUSH20 0xFFFFFFFFFFFFFFFFFFFFFFFFFFFFFFFFFFFFFFFF AND MUL OR SWAP1 SSTORE POP DUP2 PUSH20 0xFFFFFFFFFFFFFFFFFFFFFFFFFFFFFFFFFFFFFFFF AND DUP2 PUSH20 0xFFFFFFFFFFFFFFFFFFFFFFFFFFFFFFFFFFFFFFFF AND PUSH32 0x8BE0079C531659141344CD1FD0A4F28419497F9722A3DAAFE3B4186F6B6457E0 PUSH1 0x40 MLOAD PUSH1 0x40 MLOAD DUP1 SWAP2 SUB SWAP1 LOG3 POP POP JUMP JUMPDEST PUSH1 0x0 PUSH20 0xFFFFFFFFFFFFFFFFFFFFFFFFFFFFFFFFFFFFFFFF AND DUP3 PUSH20 0xFFFFFFFFFFFFFFFFFFFFFFFFFFFFFFFFFFFFFFFF AND SUB PUSH2 0x351 JUMPI PUSH1 0x0 PUSH1 0x40 MLOAD PUSH32 0xEC442F0500000000000000000000000000000000000000000000000000000000 DUP2 MSTORE PUSH1 0x4 ADD PUSH2 0x348 SWAP2 SWAP1 PUSH2 0x8EF JUMP JUMPDEST PUSH1 0x40 MLOAD DUP1 SWAP2 SUB SWAP1 REVERT JUMPDEST PUSH2 0x363 PUSH1 0x0 DUP4 DUP4 PUSH2 0x367 PUSH1 0x20 SHL PUSH1 0x20 SHR JUMP JUMPDEST POP POP JUMP JUMPDEST PUSH1 0x0 PUSH20 0xFFFFFFFFFFFFFFFFFFFFFFFFFFFFFFFFFFFFFFFF AND DUP4 PUSH20 0xFFFFFFFFFFFFFFFFFFFFFFFFFFFFFFFFFFFFFFFF AND SUB PUSH2 0x3B9 JUMPI DUP1 PUSH1 0x2 PUSH1 0x0 DUP3 DUP3 SLOAD PUSH2 0x3AD SWAP2 SWAP1 PUSH2 0x939 JUMP JUMPDEST SWAP3 POP POP DUP2 SWAP1 SSTORE POP PUSH2 0x48C JUMP JUMPDEST PUSH1 0x0 DUP1 PUSH1 0x0 DUP6 PUSH20 0xFFFFFFFFFFFFFFFFFFFFFFFFFFFFFFFFFFFFFFFF AND PUSH20 0xFFFFFFFFFFFFFFFFFFFFFFFFFFFFFFFFFFFFFFFF AND DUP2 MSTORE PUSH1 0x20 ADD SWAP1 DUP2 MSTORE PUSH1 0x20 ADD PUSH1 0x0 KECCAK256 SLOAD SWAP1 POP DUP2 DUP2 LT ISZERO PUSH2 0x445 JUMPI DUP4 DUP2 DUP4 PUSH1 0x40 MLOAD PUSH32 0xE450D38C00000000000000000000000000000000000000000000000000000000 DUP2 MSTORE PUSH1 0x4 ADD PUSH2 0x43C SWAP4 SWAP3 SWAP2 SWAP1 PUSH2 0x97C JUMP JUMPDEST PUSH1 0x40 MLOAD DUP1 SWAP2 SUB SWAP1 REVERT JUMPDEST DUP2 DUP2 SUB PUSH1 0x0 DUP1 DUP7 PUSH20 0xFFFFFFFFFFFFFFFFFFFFFFFFFFFFFFFFFFFFFFFF AND PUSH20 0xFFFFFFFFFFFFFFFFFFFFFFFFFFFFFFFFFFFFFFFF AND DUP2 MSTORE PUSH1 0x20 ADD SWAP1 DUP2 MSTORE PUSH1 0x20 ADD PUSH1 0x0 KECCAK256 DUP2 SWAP1 SSTORE POP POP JUMPDEST PUSH1 0x0 PUSH20 0xFFFFFFFFFFFFFFFFFFFFFFFFFFFFFFFFFFFFFFFF AND DUP3 PUSH20 0xFFFFFFFFFFFFFFFFFFFFFFFFFFFFFFFFFFFFFFFF AND SUB PUSH2 0x4D5 JUMPI DUP1 PUSH1 0x2 PUSH1 0x0 DUP3 DUP3 SLOAD SUB SWAP3 POP POP DUP2 SWAP1 SSTORE POP PUSH2 0x522 JUMP JUMPDEST DUP1 PUSH1 0x0 DUP1 DUP5 PUSH20 0xFFFFFFFFFFFFFFFFFFFFFFFFFFFFFFFFFFFFFFFF AND PUSH20 0xFFFFFFFFFFFFFFFFFFFFFFFFFFFFFFFFFFFFFFFF AND DUP2 MSTORE PUSH1 0x20 ADD SWAP1 DUP2 MSTORE PUSH1 0x20 ADD PUSH1 0x0 KECCAK256 PUSH1 0x0 DUP3 DUP3 SLOAD ADD SWAP3 POP POP DUP2 SWAP1 SSTORE POP JUMPDEST DUP2 PUSH20 0xFFFFFFFFFFFFFFFFFFFFFFFFFFFFFFFFFFFFFFFF AND DUP4 PUSH20 0xFFFFFFFFFFFFFFFFFFFFFFFFFFFFFFFFFFFFFFFF AND PUSH32 0xDDF252AD1BE2C89B69C2B068FC378DAA952BA7F163C4A11628F55A4DF523B3EF DUP4 PUSH1 0x40 MLOAD PUSH2 0x57F SWAP2 SWAP1 PUSH2 0x9B3 JUMP JUMPDEST PUSH1 0x40 MLOAD DUP1 SWAP2 SUB SWAP1 LOG3 POP POP POP JUMP JUMPDEST PUSH1 0x0 DUP2 MLOAD SWAP1 POP SWAP2 SWAP1 POP JUMP JUMPDEST PUSH32 0x4E487B7100000000000000000000000000000000000000000000000000000000 PUSH1 0x0 MSTORE PUSH1 0x41 PUSH1 0x4 MSTORE PUSH1 0x24 PUSH1 0x0 REVERT JUMPDEST PUSH32 0x4E487B7100000000000000000000000000000000000000000000000000000000 PUSH1 0x0 MSTORE PUSH1 0x22 PUSH1 0x4 MSTORE PUSH1 0x24 PUSH1 0x0 REVERT JUMPDEST PUSH1 0x0 PUSH1 0x2 DUP3 DIV SWAP1 POP PUSH1 0x1 DUP3 AND DUP1 PUSH2 0x60D JUMPI PUSH1 0x7F DUP3 AND SWAP2 POP JUMPDEST PUSH1 0x20 DUP3 LT DUP2 SUB PUSH2 0x620 JUMPI PUSH2 0x61F PUSH2 0x5C6 JUMP JUMPDEST JUMPDEST POP SWAP2 SWAP1 POP JUMP JUMPDEST PUSH1 0x0 DUP2 SWAP1 POP DUP2 PUSH1 0x0 MSTORE PUSH1 0x20 PUSH1 0x0 KECCAK256 SWAP1 POP SWAP2 SWAP1 POP JUMP JUMPDEST PUSH1 0x0 PUSH1 0x20 PUSH1 0x1F DUP4 ADD DIV SWAP1 POP SWAP2 SWAP1 POP JUMP JUMPDEST PUSH1 0x0 DUP3 DUP3 SHL SWAP1 POP SWAP3 SWAP2 POP POP JUMP JUMPDEST PUSH1 0x0 PUSH1 0x8 DUP4 MUL PUSH2 0x688 PUSH32 0xFFFFFFFFFFFFFFFFFFFFFFFFFFFFFFFFFFFFFFFFFFFFFFFFFFFFFFFFFFFFFFFF DUP3 PUSH2 0x64B JUMP JUMPDEST PUSH2 0x692 DUP7 DUP4 PUSH2 0x64B JUMP JUMPDEST SWAP6 POP DUP1 NOT DUP5 AND SWAP4 POP DUP1 DUP7 AND DUP5 OR SWAP3 POP POP POP SWAP4 SWAP3 POP POP POP JUMP JUMPDEST PUSH1 0x0 DUP2 SWAP1 POP SWAP2 SWAP1 POP JUMP JUMPDEST PUSH1 0x0 DUP2 SWAP1 POP SWAP2 SWAP1 POP JUMP JUMPDEST PUSH1 0x0 PUSH2 0x6D9 PUSH2 0x6D4 PUSH2 0x6CF DUP5 PUSH2 0x6AA JUMP JUMPDEST PUSH2 0x6B4 JUMP JUMPDEST PUSH2 0x6AA JUMP JUMPDEST SWAP1 POP SWAP2 SWAP1 POP JUMP JUMPDEST PUSH1 0x0 DUP2 SWAP1 POP SWAP2 SWAP1 POP JUMP JUMPDEST PUSH2 0x6F3 DUP4 PUSH2 0x6BE JUMP JUMPDEST PUSH2 0x707 PUSH2 0x6FF DUP3 PUSH2 0x6E0 JUMP JUMPDEST DUP5 DUP5 SLOAD PUSH2 0x658 JUMP JUMPDEST DUP3 SSTORE POP POP POP POP JUMP JUMPDEST PUSH1 0x0 SWAP1 JUMP JUMPDEST PUSH2 0x71C PUSH2 0x70F JUMP JUMPDEST PUSH2 0x727 DUP2 DUP5 DUP5 PUSH2 0x6EA JUMP JUMPDEST POP POP POP JUMP JUMPDEST JUMPDEST DUP2 DUP2 LT ISZERO PUSH2 0x74B JUMPI PUSH2 0x740 PUSH1 0x0 DUP3 PUSH2 0x714 JUMP JUMPDEST PUSH1 0x1 DUP2 ADD SWAP1 POP PUSH2 0x72D JUMP JUMPDEST POP POP JUMP JUMPDEST PUSH1 0x1F DUP3 GT ISZERO PUSH2 0x790 JUMPI PUSH2 0x761 DUP2 PUSH2 0x626 JUMP JUMPDEST PUSH2 0x76A DUP5 PUSH2 0x63B JUMP JUMPDEST DUP2 ADD PUSH1 0x20 DUP6 LT ISZERO PUSH2 0x779 JUMPI DUP2 SWAP1 POP JUMPDEST PUSH2 0x78D PUSH2 0x785 DUP6 PUSH2 0x63B JUMP JUMPDEST DUP4 ADD DUP3 PUSH2 0x72C JUMP JUMPDEST POP POP JUMPDEST POP POP POP JUMP JUMPDEST PUSH1 0x0 DUP3 DUP3 SHR SWAP1 POP SWAP3 SWAP2 POP POP JUMP JUMPDEST PUSH1 0x0 PUSH2 0x7B3 PUSH1 0x0 NOT DUP5 PUSH1 0x8 MUL PUSH2 0x795 JUMP JUMPDEST NOT DUP1 DUP4 AND SWAP2 POP POP SWAP3 SWAP2 POP POP JUMP JUMPDEST PUSH1 0x0 PUSH2 0x7CC DUP4 DUP4 PUSH2 0x7A2 JUMP JUMPDEST SWAP2 POP DUP3 PUSH1 0x2 MUL DUP3 OR SWAP1 POP SWAP3 SWAP2 POP POP JUMP JUMPDEST PUSH2 0x7E5 DUP3 PUSH2 0x58C JUMP JUMPDEST PUSH8 0xFFFFFFFFFFFFFFFF DUP2 GT ISZERO PUSH2 0x7FE JUMPI PUSH2 0x7FD PUSH2 0x597 JUMP JUMPDEST JUMPDEST PUSH2 0x808 DUP3 SLOAD PUSH2 0x5F5 JUMP JUMPDEST PUSH2 0x813 DUP3 DUP3 DUP6 PUSH2 0x74F JUMP JUMPDEST PUSH1 0x0 PUSH1 0x20 SWAP1 POP PUSH1 0x1F DUP4 GT PUSH1 0x1 DUP2 EQ PUSH2 0x846 JUMPI PUSH1 0x0 DUP5 ISZERO PUSH2 0x834 JUMPI DUP3 DUP8 ADD MLOAD SWAP1 POP JUMPDEST PUSH2 0x83E DUP6 DUP3 PUSH2 0x7C0 JUMP JUMPDEST DUP7 SSTORE POP PUSH2 0x8A6 JUMP JUMPDEST PUSH1 0x1F NOT DUP5 AND PUSH2 0x854 DUP7 PUSH2 0x626 JUMP JUMPDEST PUSH1 0x0 JUMPDEST DUP3 DUP2 LT ISZERO PUSH2 0x87C JUMPI DUP5 DUP10 ADD MLOAD DUP3 SSTORE PUSH1 0x1 DUP3 ADD SWAP2 POP PUSH1 0x20 DUP6 ADD SWAP5 POP PUSH1 0x20 DUP2 ADD SWAP1 POP PUSH2 0x857 JUMP JUMPDEST DUP7 DUP4 LT ISZERO PUSH2 0x899 JUMPI DUP5 DUP10 ADD MLOAD PUSH2 0x895 PUSH1 0x1F DUP10 AND DUP3 PUSH2 0x7A2 JUMP JUMPDEST DUP4 SSTORE POP JUMPDEST PUSH1 0x1 PUSH1 0x2 DUP9 MUL ADD DUP9 SSTORE POP POP POP JUMPDEST POP POP POP POP POP POP JUMP JUMPDEST PUSH1 0x0 PUSH20 0xFFFFFFFFFFFFFFFFFFFFFFFFFFFFFFFFFFFFFFFF DUP3 AND SWAP1 POP SWAP2 SWAP1 POP JUMP JUMPDEST PUSH1 0x0 PUSH2 0x8D9 DUP3 PUSH2 0x8AE JUMP JUMPDEST SWAP1 POP SWAP2 SWAP1 POP JUMP JUMPDEST PUSH2 0x8E9 DUP2 PUSH2 0x8CE JUMP JUMPDEST DUP3 MSTORE POP POP JUMP JUMPDEST PUSH1 0x0 PUSH1 0x20 DUP3 ADD SWAP1 POP PUSH2 0x904 PUSH1 0x0 DUP4 ADD DUP5 PUSH2 0x8E0 JUMP JUMPDEST SWAP3 SWAP2 POP POP JUMP JUMPDEST PUSH32 0x4E487B7100000000000000000000000000000000000000000000000000000000 PUSH1 0x0 MSTORE PUSH1 0x11 PUSH1 0x4 MSTORE PUSH1 0x24 PUSH1 0x0 REVERT JUMPDEST PUSH1 0x0 PUSH2 0x944 DUP3 PUSH2 0x6AA JUMP JUMPDEST SWAP2 POP PUSH2 0x94F DUP4 PUSH2 0x6AA JUMP JUMPDEST SWAP3 POP DUP3 DUP3 ADD SWAP1 POP DUP1 DUP3 GT ISZERO PUSH2 0x967 JUMPI PUSH2 0x966 PUSH2 0x90A JUMP JUMPDEST JUMPDEST SWAP3 SWAP2 POP POP JUMP JUMPDEST PUSH2 0x976 DUP2 PUSH2 0x6AA JUMP JUMPDEST DUP3 MSTORE POP POP JUMP JUMPDEST PUSH1 0x0 PUSH1 0x60 DUP3 ADD SWAP1 POP PUSH2 0x991 PUSH1 0x0 DUP4 ADD DUP7 PUSH2 0x8E0 JUMP JUMPDEST PUSH2 0x99E PUSH1 0x20 DUP4 ADD DUP6 PUSH2 0x96D JUMP JUMPDEST PUSH2 0x9AB PUSH1 0x40 DUP4 ADD DUP5 PUSH2 0x96D JUMP JUMPDEST SWAP5 SWAP4 POP POP POP POP JUMP JUMPDEST PUSH1 0x0 PUSH1 0x20 DUP3 ADD SWAP1 POP PUSH2 0x9C8 PUSH1 0x0 DUP4 ADD DUP5 PUSH2 0x96D JUMP JUMPDEST SWAP3 SWAP2 POP POP JUMP JUMPDEST PUSH2 0x2B36 DUP1 PUSH2 0x9DD PUSH1 0x0 CODECOPY PUSH1 0x0 RETURN INVALID PUSH1 0x80 PUSH1 0x40 MSTORE PUSH1 0x4 CALLDATASIZE LT PUSH2 0x246 JUMPI PUSH1 0x0 CALLDATALOAD PUSH1 0xE0 SHR DUP1 PUSH4 0x920168B3 GT PUSH2 0x139 JUMPI DUP1 PUSH4 0xCB8DCFE6 GT PUSH2 0xB6 JUMPI DUP1 PUSH4 0xE6A23C3D GT PUSH2 0x7A JUMPI DUP1 PUSH4 0xE6A23C3D EQ PUSH2 0x828 JUMPI DUP1 PUSH4 0xEE889ED0 EQ PUSH2 0x83F JUMPI DUP1 PUSH4 0xEF5B329C EQ PUSH2 0x856 JUMPI DUP1 PUSH4 0xF15A41F6 EQ PUSH2 0x881 JUMPI DUP1 PUSH4 0xF2FDE38B EQ PUSH2 0x8BE JUMPI DUP1 PUSH4 0xFDB20CCB EQ PUSH2 0x8E7 JUMPI PUSH2 0x246 JUMP JUMPDEST DUP1 PUSH4 0xCB8DCFE6 EQ PUSH2 0x750 JUMPI DUP1 PUSH4 0xD414890A EQ PUSH2 0x78D JUMPI DUP1 PUSH4 0xD50234C4 EQ PUSH2 0x7A9 JUMPI DUP1 PUSH4 0xDD62ED3E EQ PUSH2 0x7D4 JUMPI DUP1 PUSH4 0xE086E5EC EQ PUSH2 0x811 JUMPI PUSH2 0x246 JUMP JUMPDEST DUP1 PUSH4 0xAC21694C GT PUSH2 0xFD JUMPI DUP1 PUSH4 0xAC21694C EQ PUSH2 0x679 JUMPI DUP1 PUSH4 0xB0E68630 EQ PUSH2 0x6A4 JUMPI DUP1 PUSH4 0xB68ED11F EQ PUSH2 0x6CF JUMPI DUP1 PUSH4 0xBDA95633 EQ PUSH2 0x6FA JUMPI DUP1 PUSH4 0xC552E04B EQ PUSH2 0x725 JUMPI PUSH2 0x246 JUMP JUMPDEST DUP1 PUSH4 0x920168B3 EQ PUSH2 0x592 JUMPI DUP1 PUSH4 0x940DE97E EQ PUSH2 0x5BD JUMPI DUP1 PUSH4 0x95D89B41 EQ PUSH2 0x5E8 JUMPI DUP1 PUSH4 0xA089DE2F EQ PUSH2 0x613 JUMPI DUP1 PUSH4 0xA9059CBB EQ PUSH2 0x63C JUMPI PUSH2 0x246 JUMP JUMPDEST DUP1 PUSH4 0x55DD574C GT PUSH2 0x1C7 JUMPI DUP1 PUSH4 0x84494708 GT PUSH2 0x18B JUMPI DUP1 PUSH4 0x84494708 EQ PUSH2 0x4CF JUMPI DUP1 PUSH4 0x8D8F2ADB EQ PUSH2 0x4FA JUMPI DUP1 PUSH4 0x8DA5CB5B EQ PUSH2 0x511 JUMPI DUP1 PUSH4 0x8F7713FF EQ PUSH2 0x53C JUMPI DUP1 PUSH4 0x902D55A5 EQ PUSH2 0x567 JUMPI PUSH2 0x246 JUMP JUMPDEST DUP1 PUSH4 0x55DD574C EQ PUSH2 0x40E JUMPI DUP1 PUSH4 0x5C975ABB EQ PUSH2 0x425 JUMPI DUP1 PUSH4 0x5FB3B944 EQ PUSH2 0x450 JUMPI DUP1 PUSH4 0x70A08231 EQ PUSH2 0x47B JUMPI DUP1 PUSH4 0x715018A6 EQ PUSH2 0x4B8 JUMPI PUSH2 0x246 JUMP JUMPDEST DUP1 PUSH4 0x1ECF8F4D GT PUSH2 0x20E JUMPI DUP1 PUSH4 0x1ECF8F4D EQ PUSH2 0x334 JUMPI DUP1 PUSH4 0x23B872DD EQ PUSH2 0x35F JUMPI DUP1 PUSH4 0x2A237BB6 EQ PUSH2 0x39C JUMPI DUP1 PUSH4 0x313CE567 EQ PUSH2 0x3C7 JUMPI DUP1 PUSH4 0x466C3F93 EQ PUSH2 0x3F2 JUMPI PUSH2 0x246 JUMP JUMPDEST DUP1 PUSH4 0x6D65AF3 EQ PUSH2 0x24B JUMPI DUP1 PUSH4 0x6FDDE03 EQ PUSH2 0x276 JUMPI DUP1 PUSH4 0x95EA7B3 EQ PUSH2 0x2A1 JUMPI DUP1 PUSH4 0xFE83BB8 EQ PUSH2 0x2DE JUMPI DUP1 PUSH4 0x18160DDD EQ PUSH2 0x309 JUMPI JUMPDEST PUSH1 0x0 DUP1 REVERT JUMPDEST CALLVALUE DUP1 ISZERO PUSH2 0x257 JUMPI PUSH1 0x0 DUP1 REVERT JUMPDEST POP PUSH2 0x260 PUSH2 0x928 JUMP JUMPDEST PUSH1 0x40 MLOAD PUSH2 0x26D SWAP2 SWAP1 PUSH2 0x1E62 JUMP JUMPDEST PUSH1 0x40 MLOAD DUP1 SWAP2 SUB SWAP1 RETURN JUMPDEST CALLVALUE DUP1 ISZERO PUSH2 0x282 JUMPI PUSH1 0x0 DUP1 REVERT JUMPDEST POP PUSH2 0x28B PUSH2 0x92E JUMP JUMPDEST PUSH1 0x40 MLOAD PUSH2 0x298 SWAP2 SWAP1 PUSH2 0x1F0D JUMP JUMPDEST PUSH1 0x40 MLOAD DUP1 SWAP2 SUB SWAP1 RETURN JUMPDEST CALLVALUE DUP1 ISZERO PUSH2 0x2AD JUMPI PUSH1 0x0 DUP1 REVERT JUMPDEST POP PUSH2 0x2C8 PUSH1 0x4 DUP1 CALLDATASIZE SUB DUP2 ADD SWAP1 PUSH2 0x2C3 SWAP2 SWAP1 PUSH2 0x1FBE JUMP JUMPDEST PUSH2 0x9C0 JUMP JUMPDEST PUSH1 0x40 MLOAD PUSH2 0x2D5 SWAP2 SWAP1 PUSH2 0x2019 JUMP JUMPDEST PUSH1 0x40 MLOAD DUP1 SWAP2 SUB SWAP1 RETURN JUMPDEST CALLVALUE DUP1 ISZERO PUSH2 0x2EA JUMPI PUSH1 0x0 DUP1 REVERT JUMPDEST POP PUSH2 0x2F3 PUSH2 0x9E3 JUMP JUMPDEST PUSH1 0x40 MLOAD PUSH2 0x300 SWAP2 SWAP1 PUSH2 0x1E62 JUMP JUMPDEST PUSH1 0x40 MLOAD DUP1 SWAP2 SUB SWAP1 RETURN JUMPDEST CALLVALUE DUP1 ISZERO PUSH2 0x315 JUMPI PUSH1 0x0 DUP1 REVERT JUMPDEST POP PUSH2 0x31E PUSH2 0x9E9 JUMP JUMPDEST PUSH1 0x40 MLOAD PUSH2 0x32B SWAP2 SWAP1 PUSH2 0x1E62 JUMP JUMPDEST PUSH1 0x40 MLOAD DUP1 SWAP2 SUB SWAP1 RETURN JUMPDEST CALLVALUE DUP1 ISZERO PUSH2 0x340 JUMPI PUSH1 0x0 DUP1 REVERT JUMPDEST POP PUSH2 0x349 PUSH2 0x9F3 JUMP JUMPDEST PUSH1 0x40 MLOAD PUSH2 0x356 SWAP2 SWAP1 PUSH2 0x1E62 JUMP JUMPDEST PUSH1 0x40 MLOAD DUP1 SWAP2 SUB SWAP1 RETURN JUMPDEST CALLVALUE DUP1 ISZERO PUSH2 0x36B JUMPI PUSH1 0x0 DUP1 REVERT JUMPDEST POP PUSH2 0x386 PUSH1 0x4 DUP1 CALLDATASIZE SUB DUP2 ADD SWAP1 PUSH2 0x381 SWAP2 SWAP1 PUSH2 0x2034 JUMP JUMPDEST PUSH2 0x9F9 JUMP JUMPDEST PUSH1 0x40 MLOAD PUSH2 0x393 SWAP2 SWAP1 PUSH2 0x2019 JUMP JUMPDEST PUSH1 0x40 MLOAD DUP1 SWAP2 SUB SWAP1 RETURN JUMPDEST CALLVALUE DUP1 ISZERO PUSH2 0x3A8 JUMPI PUSH1 0x0 DUP1 REVERT JUMPDEST POP PUSH2 0x3B1 PUSH2 0xA28 JUMP JUMPDEST PUSH1 0x40 MLOAD PUSH2 0x3BE SWAP2 SWAP1 PUSH2 0x2019 JUMP JUMPDEST PUSH1 0x40 MLOAD DUP1 SWAP2 SUB SWAP1 RETURN JUMPDEST CALLVALUE DUP1 ISZERO PUSH2 0x3D3 JUMPI PUSH1 0x0 DUP1 REVERT JUMPDEST POP PUSH2 0x3DC PUSH2 0xA3B JUMP JUMPDEST PUSH1 0x40 MLOAD PUSH2 0x3E9 SWAP2 SWAP1 PUSH2 0x20A3 JUMP JUMPDEST PUSH1 0x40 MLOAD DUP1 SWAP2 SUB SWAP1 RETURN JUMPDEST PUSH2 0x40C PUSH1 0x4 DUP1 CALLDATASIZE SUB DUP2 ADD SWAP1 PUSH2 0x407 SWAP2 SWAP1 PUSH2 0x20BE JUMP JUMPDEST PUSH2 0xA44 JUMP JUMPDEST STOP JUMPDEST CALLVALUE DUP1 ISZERO PUSH2 0x41A JUMPI PUSH1 0x0 DUP1 REVERT JUMPDEST POP PUSH2 0x423 PUSH2 0xC0F JUMP JUMPDEST STOP JUMPDEST CALLVALUE DUP1 ISZERO PUSH2 0x431 JUMPI PUSH1 0x0 DUP1 REVERT JUMPDEST POP PUSH2 0x43A PUSH2 0xCC4 JUMP JUMPDEST PUSH1 0x40 MLOAD PUSH2 0x447 SWAP2 SWAP1 PUSH2 0x2019 JUMP JUMPDEST PUSH1 0x40 MLOAD DUP1 SWAP2 SUB SWAP1 RETURN JUMPDEST CALLVALUE DUP1 ISZERO PUSH2 0x45C JUMPI PUSH1 0x0 DUP1 REVERT JUMPDEST POP PUSH2 0x465 PUSH2 0xCDB JUMP JUMPDEST PUSH1 0x40 MLOAD PUSH2 0x472 SWAP2 SWAP1 PUSH2 0x1E62 JUMP JUMPDEST PUSH1 0x40 MLOAD DUP1 SWAP2 SUB SWAP1 RETURN JUMPDEST CALLVALUE DUP1 ISZERO PUSH2 0x487 JUMPI PUSH1 0x0 DUP1 REVERT JUMPDEST POP PUSH2 0x4A2 PUSH1 0x4 DUP1 CALLDATASIZE SUB DUP2 ADD SWAP1 PUSH2 0x49D SWAP2 SWAP1 PUSH2 0x20EB JUMP JUMPDEST PUSH2 0xCE1 JUMP JUMPDEST PUSH1 0x40 MLOAD PUSH2 0x4AF SWAP2 SWAP1 PUSH2 0x1E62 JUMP JUMPDEST PUSH1 0x40 MLOAD DUP1 SWAP2 SUB SWAP1 RETURN JUMPDEST CALLVALUE DUP1 ISZERO PUSH2 0x4C4 JUMPI PUSH1 0x0 DUP1 REVERT JUMPDEST POP PUSH2 0x4CD PUSH2 0xD29 JUMP JUMPDEST STOP JUMPDEST CALLVALUE DUP1 ISZERO PUSH2 0x4DB JUMPI PUSH1 0x0 DUP1 REVERT JUMPDEST POP PUSH2 0x4E4 PUSH2 0xD3D JUMP JUMPDEST PUSH1 0x40 MLOAD PUSH2 0x4F1 SWAP2 SWAP1 PUSH2 0x2019 JUMP JUMPDEST PUSH1 0x40 MLOAD DUP1 SWAP2 SUB SWAP1 RETURN JUMPDEST CALLVALUE DUP1 ISZERO PUSH2 0x506 JUMPI PUSH1 0x0 DUP1 REVERT JUMPDEST POP PUSH2 0x50F PUSH2 0xD50 JUMP JUMPDEST STOP JUMPDEST CALLVALUE DUP1 ISZERO PUSH2 0x51D JUMPI PUSH1 0x0 DUP1 REVERT JUMPDEST POP PUSH2 0x526 PUSH2 0xDF4 JUMP JUMPDEST PUSH1 0x40 MLOAD PUSH2 0x533 SWAP2 SWAP1 PUSH2 0x2127 JUMP JUMPDEST PUSH1 0x40 MLOAD DUP1 SWAP2 SUB SWAP1 RETURN JUMPDEST CALLVALUE DUP1 ISZERO PUSH2 0x548 JUMPI PUSH1 0x0 DUP1 REVERT JUMPDEST POP PUSH2 0x551 PUSH2 0xE1E JUMP JUMPDEST PUSH1 0x40 MLOAD PUSH2 0x55E SWAP2 SWAP1 PUSH2 0x1E62 JUMP JUMPDEST PUSH1 0x40 MLOAD DUP1 SWAP2 SUB SWAP1 RETURN JUMPDEST CALLVALUE DUP1 ISZERO PUSH2 0x573 JUMPI PUSH1 0x0 DUP1 REVERT JUMPDEST POP PUSH2 0x57C PUSH2 0xE24 JUMP JUMPDEST PUSH1 0x40 MLOAD PUSH2 0x589 SWAP2 SWAP1 PUSH2 0x1E62 JUMP JUMPDEST PUSH1 0x40 MLOAD DUP1 SWAP2 SUB SWAP1 RETURN JUMPDEST CALLVALUE DUP1 ISZERO PUSH2 0x59E JUMPI PUSH1 0x0 DUP1 REVERT JUMPDEST POP PUSH2 0x5A7 PUSH2 0xE33 JUMP JUMPDEST PUSH1 0x40 MLOAD PUSH2 0x5B4 SWAP2 SWAP1 PUSH2 0x1E62 JUMP JUMPDEST PUSH1 0x40 MLOAD DUP1 SWAP2 SUB SWAP1 RETURN JUMPDEST CALLVALUE DUP1 ISZERO PUSH2 0x5C9 JUMPI PUSH1 0x0 DUP1 REVERT JUMPDEST POP PUSH2 0x5D2 PUSH2 0xE39 JUMP JUMPDEST PUSH1 0x40 MLOAD PUSH2 0x5DF SWAP2 SWAP1 PUSH2 0x1E62 JUMP JUMPDEST PUSH1 0x40 MLOAD DUP1 SWAP2 SUB SWAP1 RETURN JUMPDEST CALLVALUE DUP1 ISZERO PUSH2 0x5F4 JUMPI PUSH1 0x0 DUP1 REVERT JUMPDEST POP PUSH2 0x5FD PUSH2 0xE3F JUMP JUMPDEST PUSH1 0x40 MLOAD PUSH2 0x60A SWAP2 SWAP1 PUSH2 0x1F0D JUMP JUMPDEST PUSH1 0x40 MLOAD DUP1 SWAP2 SUB SWAP1 RETURN JUMPDEST CALLVALUE DUP1 ISZERO PUSH2 0x61F JUMPI PUSH1 0x0 DUP1 REVERT JUMPDEST POP PUSH2 0x63A PUSH1 0x4 DUP1 CALLDATASIZE SUB DUP2 ADD SWAP1 PUSH2 0x635 SWAP2 SWAP1 PUSH2 0x20BE JUMP JUMPDEST PUSH2 0xED1 JUMP JUMPDEST STOP JUMPDEST CALLVALUE DUP1 ISZERO PUSH2 0x648 JUMPI PUSH1 0x0 DUP1 REVERT JUMPDEST POP PUSH2 0x663 PUSH1 0x4 DUP1 CALLDATASIZE SUB DUP2 ADD SWAP1 PUSH2 0x65E SWAP2 SWAP1 PUSH2 0x1FBE JUMP JUMPDEST PUSH2 0xFE2 JUMP JUMPDEST PUSH1 0x40 MLOAD PUSH2 0x670 SWAP2 SWAP1 PUSH2 0x2019 JUMP JUMPDEST PUSH1 0x40 MLOAD DUP1 SWAP2 SUB SWAP1 RETURN JUMPDEST CALLVALUE DUP1 ISZERO PUSH2 0x685 JUMPI PUSH1 0x0 DUP1 REVERT JUMPDEST POP PUSH2 0x68E PUSH2 0x1005 JUMP JUMPDEST PUSH1 0x40 MLOAD PUSH2 0x69B SWAP2 SWAP1 PUSH2 0x1E62 JUMP JUMPDEST PUSH1 0x40 MLOAD DUP1 SWAP2 SUB SWAP1 RETURN JUMPDEST CALLVALUE DUP1 ISZERO PUSH2 0x6B0 JUMPI PUSH1 0x0 DUP1 REVERT JUMPDEST POP PUSH2 0x6B9 PUSH2 0x100B JUMP JUMPDEST PUSH1 0x40 MLOAD PUSH2 0x6C6 SWAP2 SWAP1 PUSH2 0x1E62 JUMP JUMPDEST PUSH1 0x40 MLOAD DUP1 SWAP2 SUB SWAP1 RETURN JUMPDEST CALLVALUE DUP1 ISZERO PUSH2 0x6DB JUMPI PUSH1 0x0 DUP1 REVERT JUMPDEST POP PUSH2 0x6E4 PUSH2 0x1011 JUMP JUMPDEST PUSH1 0x40 MLOAD PUSH2 0x6F1 SWAP2 SWAP1 PUSH2 0x1E62 JUMP JUMPDEST PUSH1 0x40 MLOAD DUP1 SWAP2 SUB SWAP1 RETURN JUMPDEST CALLVALUE DUP1 ISZERO PUSH2 0x706 JUMPI PUSH1 0x0 DUP1 REVERT JUMPDEST POP PUSH2 0x70F PUSH2 0x1017 JUMP JUMPDEST PUSH1 0x40 MLOAD PUSH2 0x71C SWAP2 SWAP1 PUSH2 0x1E62 JUMP JUMPDEST PUSH1 0x40 MLOAD DUP1 SWAP2 SUB SWAP1 RETURN JUMPDEST CALLVALUE DUP1 ISZERO PUSH2 0x731 JUMPI PUSH1 0x0 DUP1 REVERT JUMPDEST POP PUSH2 0x73A PUSH2 0x101D JUMP JUMPDEST PUSH1 0x40 MLOAD PUSH2 0x747 SWAP2 SWAP1 PUSH2 0x1E62 JUMP JUMPDEST PUSH1 0x40 MLOAD DUP1 SWAP2 SUB SWAP1 RETURN JUMPDEST CALLVALUE DUP1 ISZERO PUSH2 0x75C JUMPI PUSH1 0x0 DUP1 REVERT JUMPDEST POP PUSH2 0x777 PUSH1 0x4 DUP1 CALLDATASIZE SUB DUP2 ADD SWAP1 PUSH2 0x772 SWAP2 SWAP1 PUSH2 0x20BE JUMP JUMPDEST PUSH2 0x1023 JUMP JUMPDEST PUSH1 0x40 MLOAD PUSH2 0x784 SWAP2 SWAP1 PUSH2 0x1E62 JUMP JUMPDEST PUSH1 0x40 MLOAD DUP1 SWAP2 SUB SWAP1 RETURN JUMPDEST PUSH2 0x7A7 PUSH1 0x4 DUP1 CALLDATASIZE SUB DUP2 ADD SWAP1 PUSH2 0x7A2 SWAP2 SWAP1 PUSH2 0x20BE JUMP JUMPDEST PUSH2 0x1079 JUMP JUMPDEST STOP JUMPDEST CALLVALUE DUP1 ISZERO PUSH2 0x7B5 JUMPI PUSH1 0x0 DUP1 REVERT JUMPDEST POP PUSH2 0x7BE PUSH2 0x1217 JUMP JUMPDEST PUSH1 0x40 MLOAD PUSH2 0x7CB SWAP2 SWAP1 PUSH2 0x1E62 JUMP JUMPDEST PUSH1 0x40 MLOAD DUP1 SWAP2 SUB SWAP1 RETURN JUMPDEST CALLVALUE DUP1 ISZERO PUSH2 0x7E0 JUMPI PUSH1 0x0 DUP1 REVERT JUMPDEST POP PUSH2 0x7FB PUSH1 0x4 DUP1 CALLDATASIZE SUB DUP2 ADD SWAP1 PUSH2 0x7F6 SWAP2 SWAP1 PUSH2 0x2142 JUMP JUMPDEST PUSH2 0x121D JUMP JUMPDEST PUSH1 0x40 MLOAD PUSH2 0x808 SWAP2 SWAP1 PUSH2 0x1E62 JUMP JUMPDEST PUSH1 0x40 MLOAD DUP1 SWAP2 SUB SWAP1 RETURN JUMPDEST CALLVALUE DUP1 ISZERO PUSH2 0x81D JUMPI PUSH1 0x0 DUP1 REVERT JUMPDEST POP PUSH2 0x826 PUSH2 0x12A4 JUMP JUMPDEST STOP JUMPDEST CALLVALUE DUP1 ISZERO PUSH2 0x834 JUMPI PUSH1 0x0 DUP1 REVERT JUMPDEST POP PUSH2 0x83D PUSH2 0x13E2 JUMP JUMPDEST STOP JUMPDEST CALLVALUE DUP1 ISZERO PUSH2 0x84B JUMPI PUSH1 0x0 DUP1 REVERT JUMPDEST POP PUSH2 0x854 PUSH2 0x1482 JUMP JUMPDEST STOP JUMPDEST CALLVALUE DUP1 ISZERO PUSH2 0x862 JUMPI PUSH1 0x0 DUP1 REVERT JUMPDEST POP PUSH2 0x86B PUSH2 0x1522 JUMP JUMPDEST PUSH1 0x40 MLOAD PUSH2 0x878 SWAP2 SWAP1 PUSH2 0x1E62 JUMP JUMPDEST PUSH1 0x40 MLOAD DUP1 SWAP2 SUB SWAP1 RETURN JUMPDEST CALLVALUE DUP1 ISZERO PUSH2 0x88D JUMPI PUSH1 0x0 DUP1 REVERT JUMPDEST POP PUSH2 0x8A8 PUSH1 0x4 DUP1 CALLDATASIZE SUB DUP2 ADD SWAP1 PUSH2 0x8A3 SWAP2 SWAP1 PUSH2 0x20BE JUMP JUMPDEST PUSH2 0x1528 JUMP JUMPDEST PUSH1 0x40 MLOAD PUSH2 0x8B5 SWAP2 SWAP1 PUSH2 0x1E62 JUMP JUMPDEST PUSH1 0x40 MLOAD DUP1 SWAP2 SUB SWAP1 RETURN JUMPDEST CALLVALUE DUP1 ISZERO PUSH2 0x8CA JUMPI PUSH1 0x0 DUP1 REVERT JUMPDEST POP PUSH2 0x8E5 PUSH1 0x4 DUP1 CALLDATASIZE SUB DUP2 ADD SWAP1 PUSH2 0x8E0 SWAP2 SWAP1 PUSH2 0x20EB JUMP JUMPDEST PUSH2 0x157E JUMP JUMPDEST STOP JUMPDEST CALLVALUE DUP1 ISZERO PUSH2 0x8F3 JUMPI PUSH1 0x0 DUP1 REVERT JUMPDEST POP PUSH2 0x90E PUSH1 0x4 DUP1 CALLDATASIZE SUB DUP2 ADD SWAP1 PUSH2 0x909 SWAP2 SWAP1 PUSH2 0x20EB JUMP JUMPDEST PUSH2 0x1604 JUMP JUMPDEST PUSH1 0x40 MLOAD PUSH2 0x91F SWAP6 SWAP5 SWAP4 SWAP3 SWAP2 SWAP1 PUSH2 0x2182 JUMP JUMPDEST PUSH1 0x40 MLOAD DUP1 SWAP2 SUB SWAP1 RETURN JUMPDEST PUSH1 0x13 SLOAD DUP2 JUMP JUMPDEST PUSH1 0x60 PUSH1 0x3 DUP1 SLOAD PUSH2 0x93D SWAP1 PUSH2 0x2204 JUMP JUMPDEST DUP1 PUSH1 0x1F ADD PUSH1 0x20 DUP1 SWAP2 DIV MUL PUSH1 0x20 ADD PUSH1 0x40 MLOAD SWAP1 DUP2 ADD PUSH1 0x40 MSTORE DUP1 SWAP3 SWAP2 SWAP1 DUP2 DUP2 MSTORE PUSH1 0x20 ADD DUP3 DUP1 SLOAD PUSH2 0x969 SWAP1 PUSH2 0x2204 JUMP JUMPDEST DUP1 ISZERO PUSH2 0x9B6 JUMPI DUP1 PUSH1 0x1F LT PUSH2 0x98B JUMPI PUSH2 0x100 DUP1 DUP4 SLOAD DIV MUL DUP4 MSTORE SWAP2 PUSH1 0x20 ADD SWAP2 PUSH2 0x9B6 JUMP JUMPDEST DUP3 ADD SWAP2 SWAP1 PUSH1 0x0 MSTORE PUSH1 0x20 PUSH1 0x0 KECCAK256 SWAP1 JUMPDEST DUP2 SLOAD DUP2 MSTORE SWAP1 PUSH1 0x1 ADD SWAP1 PUSH1 0x20 ADD DUP1 DUP4 GT PUSH2 0x999 JUMPI DUP3 SWAP1 SUB PUSH1 0x1F AND DUP3 ADD SWAP2 JUMPDEST POP POP POP POP POP SWAP1 POP SWAP1 JUMP JUMPDEST PUSH1 0x0 DUP1 PUSH2 0x9CB PUSH2 0x163A JUMP JUMPDEST SWAP1 POP PUSH2 0x9D8 DUP2 DUP6 DUP6 PUSH2 0x1642 JUMP JUMPDEST PUSH1 0x1 SWAP2 POP POP SWAP3 SWAP2 POP POP JUMP JUMPDEST PUSH1 0xE SLOAD DUP2 JUMP JUMPDEST PUSH1 0x0 PUSH1 0x2 SLOAD SWAP1 POP SWAP1 JUMP JUMPDEST PUSH1 0x15 SLOAD DUP2 JUMP JUMPDEST PUSH1 0x0 DUP1 PUSH2 0xA04 PUSH2 0x163A JUMP JUMPDEST SWAP1 POP PUSH2 0xA11 DUP6 DUP3 DUP6 PUSH2 0x1654 JUMP JUMPDEST PUSH2 0xA1C DUP6 DUP6 DUP6 PUSH2 0x16E8 JUMP JUMPDEST PUSH1 0x1 SWAP2 POP POP SWAP4 SWAP3 POP POP POP JUMP JUMPDEST PUSH1 0x18 PUSH1 0x0 SWAP1 SLOAD SWAP1 PUSH2 0x100 EXP SWAP1 DIV PUSH1 0xFF AND DUP2 JUMP JUMPDEST PUSH1 0x0 PUSH1 0x12 SWAP1 POP SWAP1 JUMP JUMPDEST PUSH2 0xA4C PUSH2 0x17DC JUMP JUMPDEST PUSH2 0xA54 PUSH2 0x182B JUMP JUMPDEST PUSH1 0x14 PUSH1 0x0 SWAP1 SLOAD SWAP1 PUSH2 0x100 EXP SWAP1 DIV PUSH1 0xFF AND PUSH2 0xAA3 JUMPI PUSH1 0x40 MLOAD PUSH32 0x8C379A000000000000000000000000000000000000000000000000000000000 DUP2 MSTORE PUSH1 0x4 ADD PUSH2 0xA9A SWAP1 PUSH2 0x2281 JUMP JUMPDEST PUSH1 0x40 MLOAD DUP1 SWAP2 SUB SWAP1 REVERT JUMPDEST PUSH1 0x15 SLOAD DUP2 LT ISZERO PUSH2 0xAE8 JUMPI PUSH1 0x40 MLOAD PUSH32 0x8C379A000000000000000000000000000000000000000000000000000000000 DUP2 MSTORE PUSH1 0x4 ADD PUSH2 0xADF SWAP1 PUSH2 0x2313 JUMP JUMPDEST PUSH1 0x40 MLOAD DUP1 SWAP2 SUB SWAP1 REVERT JUMPDEST PUSH1 0x16 SLOAD DUP2 GT ISZERO PUSH2 0xB2D JUMPI PUSH1 0x40 MLOAD PUSH32 0x8C379A000000000000000000000000000000000000000000000000000000000 DUP2 MSTORE PUSH1 0x4 ADD PUSH2 0xB24 SWAP1 PUSH2 0x23A5 JUMP JUMPDEST PUSH1 0x40 MLOAD DUP1 SWAP2 SUB SWAP1 REVERT JUMPDEST PUSH1 0x0 PUSH2 0xB38 DUP3 PUSH2 0x1023 JUMP JUMPDEST SWAP1 POP PUSH1 0xE SLOAD DUP2 PUSH1 0x12 SLOAD PUSH2 0xB4B SWAP2 SWAP1 PUSH2 0x23F4 JUMP JUMPDEST GT ISZERO PUSH2 0xB8C JUMPI PUSH1 0x40 MLOAD PUSH32 0x8C379A000000000000000000000000000000000000000000000000000000000 DUP2 MSTORE PUSH1 0x4 ADD PUSH2 0xB83 SWAP1 PUSH2 0x2474 JUMP JUMPDEST PUSH1 0x40 MLOAD DUP1 SWAP2 SUB SWAP1 REVERT JUMPDEST DUP1 PUSH1 0x12 PUSH1 0x0 DUP3 DUP3 SLOAD PUSH2 0xB9E SWAP2 SWAP1 PUSH2 0x23F4 JUMP JUMPDEST SWAP3 POP POP DUP2 SWAP1 SSTORE POP PUSH1 0xE SLOAD PUSH1 0x12 SLOAD LT PUSH2 0xBF8 JUMPI PUSH1 0x0 PUSH1 0x14 PUSH1 0x0 PUSH2 0x100 EXP DUP2 SLOAD DUP2 PUSH1 0xFF MUL NOT AND SWAP1 DUP4 ISZERO ISZERO MUL OR SWAP1 SSTORE POP PUSH32 0xC82E6055D31DE9B552CD0014F23A8B8CE120C288ED1AFCE01ADB97150EFC0185 PUSH1 0x40 MLOAD PUSH1 0x40 MLOAD DUP1 SWAP2 SUB SWAP1 LOG1 JUMPDEST PUSH2 0xC03 ADDRESS CALLER DUP4 PUSH2 0x16E8 JUMP JUMPDEST POP PUSH2 0xC0C PUSH2 0x1875 JUMP JUMPDEST POP JUMP JUMPDEST PUSH2 0xC17 PUSH2 0x187F JUMP JUMPDEST PUSH1 0x14 PUSH1 0x0 SWAP1 SLOAD SWAP1 PUSH2 0x100 EXP SWAP1 DIV PUSH1 0xFF AND ISZERO PUSH2 0xC67 JUMPI PUSH1 0x40 MLOAD PUSH32 0x8C379A000000000000000000000000000000000000000000000000000000000 DUP2 MSTORE PUSH1 0x4 ADD PUSH2 0xC5E SWAP1 PUSH2 0x24E0 JUMP JUMPDEST PUSH1 0x40 MLOAD DUP1 SWAP2 SUB SWAP1 REVERT JUMPDEST PUSH1 0x1 PUSH1 0x14 PUSH1 0x0 PUSH2 0x100 EXP DUP2 SLOAD DUP2 PUSH1 0xFF MUL NOT AND SWAP1 DUP4 ISZERO ISZERO MUL OR SWAP1 SSTORE POP TIMESTAMP PUSH1 0x13 DUP2 SWAP1 SSTORE POP PUSH32 0x71D9B86CD8E742CC8D4D6B9D25C84D4E42F8BA8138C6EE54914285F4A9540056 PUSH1 0x13 SLOAD PUSH1 0x40 MLOAD PUSH2 0xCBA SWAP2 SWAP1 PUSH2 0x1E62 JUMP JUMPDEST PUSH1 0x40 MLOAD DUP1 SWAP2 SUB SWAP1 LOG1 JUMP JUMPDEST PUSH1 0x0 PUSH1 0x7 PUSH1 0x0 SWAP1 SLOAD SWAP1 PUSH2 0x100 EXP SWAP1 DIV PUSH1 0xFF AND SWAP1 POP SWAP1 JUMP JUMPDEST PUSH1 0xB SLOAD DUP2 JUMP JUMPDEST PUSH1 0x0 DUP1 PUSH1 0x0 DUP4 PUSH20 0xFFFFFFFFFFFFFFFFFFFFFFFFFFFFFFFFFFFFFFFF AND PUSH20 0xFFFFFFFFFFFFFFFFFFFFFFFFFFFFFFFFFFFFFFFF AND DUP2 MSTORE PUSH1 0x20 ADD SWAP1 DUP2 MSTORE PUSH1 0x20 ADD PUSH1 0x0 KECCAK256 SLOAD SWAP1 POP SWAP2 SWAP1 POP JUMP JUMPDEST PUSH2 0xD31 PUSH2 0x187F JUMP JUMPDEST PUSH2 0xD3B PUSH1 0x0 PUSH2 0x1906 JUMP JUMPDEST JUMP JUMPDEST PUSH1 0x14 PUSH1 0x0 SWAP1 SLOAD SWAP1 PUSH2 0x100 EXP SWAP1 DIV PUSH1 0xFF AND DUP2 JUMP JUMPDEST PUSH2 0xD58 PUSH2 0x187F JUMP JUMPDEST PUSH1 0x0 PUSH2 0xD63 ADDRESS PUSH2 0xCE1 JUMP JUMPDEST SWAP1 POP PUSH1 0x0 DUP2 GT PUSH2 0xDA8 JUMPI PUSH1 0x40 MLOAD PUSH32 0x8C379A000000000000000000000000000000000000000000000000000000000 DUP2 MSTORE PUSH1 0x4 ADD PUSH2 0xD9F SWAP1 PUSH2 0x254C JUMP JUMPDEST PUSH1 0x40 MLOAD DUP1 SWAP2 SUB SWAP1 REVERT JUMPDEST PUSH2 0xDBA ADDRESS PUSH2 0xDB4 PUSH2 0xDF4 JUMP JUMPDEST DUP4 PUSH2 0x16E8 JUMP JUMPDEST PUSH32 0x9C6393F251205F9E03559951CAB4C9AE71767B6174F77944A5B0C2FA51FBDA9F DUP2 PUSH1 0x40 MLOAD PUSH2 0xDE9 SWAP2 SWAP1 PUSH2 0x1E62 JUMP JUMPDEST PUSH1 0x40 MLOAD DUP1 SWAP2 SUB SWAP1 LOG1 POP JUMP JUMPDEST PUSH1 0x0 PUSH1 0x5 PUSH1 0x0 SWAP1 SLOAD SWAP1 PUSH2 0x100 EXP SWAP1 DIV PUSH20 0xFFFFFFFFFFFFFFFFFFFFFFFFFFFFFFFFFFFFFFFF AND SWAP1 POP SWAP1 JUMP JUMPDEST PUSH1 0x11 SLOAD DUP2 JUMP JUMPDEST PUSH11 0xA56FA5B99019A5C8000000 DUP2 JUMP JUMPDEST PUSH1 0x10 SLOAD DUP2 JUMP JUMPDEST PUSH1 0xC SLOAD DUP2 JUMP JUMPDEST PUSH1 0x60 PUSH1 0x4 DUP1 SLOAD PUSH2 0xE4E SWAP1 PUSH2 0x2204 JUMP JUMPDEST DUP1 PUSH1 0x1F ADD PUSH1 0x20 DUP1 SWAP2 DIV MUL PUSH1 0x20 ADD PUSH1 0x40 MLOAD SWAP1 DUP2 ADD PUSH1 0x40 MSTORE DUP1 SWAP3 SWAP2 SWAP1 DUP2 DUP2 MSTORE PUSH1 0x20 ADD DUP3 DUP1 SLOAD PUSH2 0xE7A SWAP1 PUSH2 0x2204 JUMP JUMPDEST DUP1 ISZERO PUSH2 0xEC7 JUMPI DUP1 PUSH1 0x1F LT PUSH2 0xE9C JUMPI PUSH2 0x100 DUP1 DUP4 SLOAD DIV MUL DUP4 MSTORE SWAP2 PUSH1 0x20 ADD SWAP2 PUSH2 0xEC7 JUMP JUMPDEST DUP3 ADD SWAP2 SWAP1 PUSH1 0x0 MSTORE PUSH1 0x20 PUSH1 0x0 KECCAK256 SWAP1 JUMPDEST DUP2 SLOAD DUP2 MSTORE SWAP1 PUSH1 0x1 ADD SWAP1 PUSH1 0x20 ADD DUP1 DUP4 GT PUSH2 0xEAA JUMPI DUP3 SWAP1 SUB PUSH1 0x1F AND DUP3 ADD SWAP2 JUMPDEST POP POP POP POP POP SWAP1 POP SWAP1 JUMP JUMPDEST PUSH2 0xED9 PUSH2 0x187F JUMP JUMPDEST PUSH1 0x18 PUSH1 0x0 SWAP1 SLOAD SWAP1 PUSH2 0x100 EXP SWAP1 DIV PUSH1 0xFF AND ISZERO PUSH2 0xF29 JUMPI PUSH1 0x40 MLOAD PUSH32 0x8C379A000000000000000000000000000000000000000000000000000000000 DUP2 MSTORE PUSH1 0x4 ADD PUSH2 0xF20 SWAP1 PUSH2 0x25B8 JUMP JUMPDEST PUSH1 0x40 MLOAD DUP1 SWAP2 SUB SWAP1 REVERT JUMPDEST PUSH1 0x0 DUP2 GT DUP1 ISZERO PUSH2 0xF3A JUMPI POP PUSH1 0x64 DUP2 GT ISZERO JUMPDEST PUSH2 0xF79 JUMPI PUSH1 0x40 MLOAD PUSH32 0x8C379A000000000000000000000000000000000000000000000000000000000 DUP2 MSTORE PUSH1 0x4 ADD PUSH2 0xF70 SWAP1 PUSH2 0x2624 JUMP JUMPDEST PUSH1 0x40 MLOAD DUP1 SWAP2 SUB SWAP1 REVERT JUMPDEST DUP1 PUSH1 0xD DUP2 SWAP1 SSTORE POP PUSH1 0x1 PUSH1 0x18 PUSH1 0x0 PUSH2 0x100 EXP DUP2 SLOAD DUP2 PUSH1 0xFF MUL NOT AND SWAP1 DUP4 ISZERO ISZERO MUL OR SWAP1 SSTORE POP TIMESTAMP PUSH1 0xC DUP2 SWAP1 SSTORE POP PUSH32 0xCBE7B2993D671FF089495AE9D90AE7A115F123DB134C0A6D3C4BC6E0C72CF7E5 PUSH1 0xD SLOAD PUSH1 0xC SLOAD PUSH1 0x40 MLOAD PUSH2 0xFD7 SWAP3 SWAP2 SWAP1 PUSH2 0x2644 JUMP JUMPDEST PUSH1 0x40 MLOAD DUP1 SWAP2 SUB SWAP1 LOG1 POP JUMP JUMPDEST PUSH1 0x0 DUP1 PUSH2 0xFED PUSH2 0x163A JUMP JUMPDEST SWAP1 POP PUSH2 0xFFA DUP2 DUP6 DUP6 PUSH2 0x16E8 JUMP JUMPDEST PUSH1 0x1 SWAP2 POP POP SWAP3 SWAP2 POP POP JUMP JUMPDEST PUSH1 0x16 SLOAD DUP2 JUMP JUMPDEST PUSH1 0x9 SLOAD DUP2 JUMP JUMPDEST PUSH1 0x12 SLOAD DUP2 JUMP JUMPDEST PUSH1 0xA SLOAD DUP2 JUMP JUMPDEST PUSH1 0x8 SLOAD DUP2 JUMP JUMPDEST PUSH1 0x0 DUP1 PUSH1 0xE SLOAD PUSH1 0x12 SLOAD PUSH1 0x10 SLOAD PUSH1 0x11 SLOAD PUSH2 0x103C SWAP2 SWAP1 PUSH2 0x266D JUMP JUMPDEST PUSH2 0x1046 SWAP2 SWAP1 PUSH2 0x26A1 JUMP JUMPDEST PUSH2 0x1050 SWAP2 SWAP1 PUSH2 0x2712 JUMP JUMPDEST PUSH1 0x10 SLOAD PUSH2 0x105D SWAP2 SWAP1 PUSH2 0x23F4 JUMP JUMPDEST SWAP1 POP PUSH1 0x0 DUP2 DUP5 PUSH2 0x106D SWAP2 SWAP1 PUSH2 0x2712 JUMP JUMPDEST SWAP1 POP DUP1 SWAP3 POP POP POP SWAP2 SWAP1 POP JUMP JUMPDEST PUSH2 0x1081 PUSH2 0x17DC JUMP JUMPDEST PUSH2 0x1089 PUSH2 0x182B JUMP JUMPDEST PUSH1 0x18 PUSH1 0x0 SWAP1 SLOAD SWAP1 PUSH2 0x100 EXP SWAP1 DIV PUSH1 0xFF AND PUSH2 0x10D8 JUMPI PUSH1 0x40 MLOAD PUSH32 0x8C379A000000000000000000000000000000000000000000000000000000000 DUP2 MSTORE PUSH1 0x4 ADD PUSH2 0x10CF SWAP1 PUSH2 0x278F JUMP JUMPDEST PUSH1 0x40 MLOAD DUP1 SWAP2 SUB SWAP1 REVERT JUMPDEST PUSH9 0x2B5E3AF16B1880000 DUP2 LT ISZERO PUSH2 0x1124 JUMPI PUSH1 0x40 MLOAD PUSH32 0x8C379A000000000000000000000000000000000000000000000000000000000 DUP2 MSTORE PUSH1 0x4 ADD PUSH2 0x111B SWAP1 PUSH2 0x2821 JUMP JUMPDEST PUSH1 0x40 MLOAD DUP1 SWAP2 SUB SWAP1 REVERT JUMPDEST PUSH1 0x0 PUSH2 0x112F DUP3 PUSH2 0x1528 JUMP JUMPDEST SWAP1 POP PUSH9 0x3635C9ADC5DEA00000 DUP2 GT ISZERO PUSH2 0x117D JUMPI PUSH1 0x40 MLOAD PUSH32 0x8C379A000000000000000000000000000000000000000000000000000000000 DUP2 MSTORE PUSH1 0x4 ADD PUSH2 0x1174 SWAP1 PUSH2 0x28B3 JUMP JUMPDEST PUSH1 0x40 MLOAD DUP1 SWAP2 SUB SWAP1 REVERT JUMPDEST DUP1 PUSH1 0xB PUSH1 0x0 DUP3 DUP3 SLOAD PUSH2 0x118F SWAP2 SWAP1 PUSH2 0x23F4 JUMP JUMPDEST SWAP3 POP POP DUP2 SWAP1 SSTORE POP PUSH1 0x8 SLOAD PUSH1 0xB SLOAD LT PUSH2 0x11E9 JUMPI PUSH1 0x0 PUSH1 0x18 PUSH1 0x0 PUSH2 0x100 EXP DUP2 SLOAD DUP2 PUSH1 0xFF MUL NOT AND SWAP1 DUP4 ISZERO ISZERO MUL OR SWAP1 SSTORE POP PUSH32 0x8D80F5BE79E7DD88D69814B57E8F5C7DD249B3D6BAC194EB9144B8CA639DB036 PUSH1 0x40 MLOAD PUSH1 0x40 MLOAD DUP1 SWAP2 SUB SWAP1 LOG1 JUMPDEST PUSH2 0x120B CALLER DUP3 PUSH4 0x1E13380 TIMESTAMP PUSH2 0x11FE SWAP2 SWAP1 PUSH2 0x23F4 JUMP JUMPDEST PUSH3 0xED4E00 PUSH3 0x278D00 PUSH2 0x19CC JUMP JUMPDEST POP PUSH2 0x1214 PUSH2 0x1875 JUMP JUMPDEST POP JUMP JUMPDEST PUSH1 0xD SLOAD DUP2 JUMP JUMPDEST PUSH1 0x0 PUSH1 0x1 PUSH1 0x0 DUP5 PUSH20 0xFFFFFFFFFFFFFFFFFFFFFFFFFFFFFFFFFFFFFFFF AND PUSH20 0xFFFFFFFFFFFFFFFFFFFFFFFFFFFFFFFFFFFFFFFF AND DUP2 MSTORE PUSH1 0x20 ADD SWAP1 DUP2 MSTORE PUSH1 0x20 ADD PUSH1 0x0 KECCAK256 PUSH1 0x0 DUP4 PUSH20 0xFFFFFFFFFFFFFFFFFFFFFFFFFFFFFFFFFFFFFFFF AND PUSH20 0xFFFFFFFFFFFFFFFFFFFFFFFFFFFFFFFFFFFFFFFF AND DUP2 MSTORE PUSH1 0x20 ADD SWAP1 DUP2 MSTORE PUSH1 0x20 ADD PUSH1 0x0 KECCAK256 SLOAD SWAP1 POP SWAP3 SWAP2 POP POP JUMP JUMPDEST PUSH2 0x12AC PUSH2 0x187F JUMP JUMPDEST PUSH1 0x0 SELFBALANCE SWAP1 POP PUSH1 0x0 DUP2 GT PUSH2 0x12F4 JUMPI PUSH1 0x40 MLOAD PUSH32 0x8C379A000000000000000000000000000000000000000000000000000000000 DUP2 MSTORE PUSH1 0x4 ADD PUSH2 0x12EB SWAP1 PUSH2 0x291F JUMP JUMPDEST PUSH1 0x40 MLOAD DUP1 SWAP2 SUB SWAP1 REVERT JUMPDEST PUSH1 0x0 PUSH2 0x12FE PUSH2 0xDF4 JUMP JUMPDEST PUSH20 0xFFFFFFFFFFFFFFFFFFFFFFFFFFFFFFFFFFFFFFFF AND DUP3 PUSH1 0x40 MLOAD PUSH2 0x1321 SWAP1 PUSH2 0x2970 JUMP JUMPDEST PUSH1 0x0 PUSH1 0x40 MLOAD DUP1 DUP4 SUB DUP2 DUP6 DUP8 GAS CALL SWAP3 POP POP POP RETURNDATASIZE DUP1 PUSH1 0x0 DUP2 EQ PUSH2 0x135E JUMPI PUSH1 0x40 MLOAD SWAP2 POP PUSH1 0x1F NOT PUSH1 0x3F RETURNDATASIZE ADD AND DUP3 ADD PUSH1 0x40 MSTORE RETURNDATASIZE DUP3 MSTORE RETURNDATASIZE PUSH1 0x0 PUSH1 0x20 DUP5 ADD RETURNDATACOPY PUSH2 0x1363 JUMP JUMPDEST PUSH1 0x60 SWAP2 POP JUMPDEST POP POP SWAP1 POP DUP1 PUSH2 0x13A7 JUMPI PUSH1 0x40 MLOAD PUSH32 0x8C379A000000000000000000000000000000000000000000000000000000000 DUP2 MSTORE PUSH1 0x4 ADD PUSH2 0x139E SWAP1 PUSH2 0x29D1 JUMP JUMPDEST PUSH1 0x40 MLOAD DUP1 SWAP2 SUB SWAP1 REVERT JUMPDEST PUSH32 0x43F607A14D3B4F0A11A0B2E192BBFCD894298BA5ABF22553BE6081406DB28AA DUP3 PUSH1 0x40 MLOAD PUSH2 0x13D6 SWAP2 SWAP1 PUSH2 0x1E62 JUMP JUMPDEST PUSH1 0x40 MLOAD DUP1 SWAP2 SUB SWAP1 LOG1 POP POP JUMP JUMPDEST PUSH2 0x13EA PUSH2 0x187F JUMP JUMPDEST PUSH1 0x18 PUSH1 0x0 SWAP1 SLOAD SWAP1 PUSH2 0x100 EXP SWAP1 DIV PUSH1 0xFF AND PUSH2 0x1439 JUMPI PUSH1 0x40 MLOAD PUSH32 0x8C379A000000000000000000000000000000000000000000000000000000000 DUP2 MSTORE PUSH1 0x4 ADD PUSH2 0x1430 SWAP1 PUSH2 0x278F JUMP JUMPDEST PUSH1 0x40 MLOAD DUP1 SWAP2 SUB SWAP1 REVERT JUMPDEST PUSH1 0x0 PUSH1 0x18 PUSH1 0x0 PUSH2 0x100 EXP DUP2 SLOAD DUP2 PUSH1 0xFF MUL NOT AND SWAP1 DUP4 ISZERO ISZERO MUL OR SWAP1 SSTORE POP PUSH32 0x8D80F5BE79E7DD88D69814B57E8F5C7DD249B3D6BAC194EB9144B8CA639DB036 PUSH1 0x40 MLOAD PUSH1 0x40 MLOAD DUP1 SWAP2 SUB SWAP1 LOG1 JUMP JUMPDEST PUSH2 0x148A PUSH2 0x187F JUMP JUMPDEST PUSH1 0x14 PUSH1 0x0 SWAP1 SLOAD SWAP1 PUSH2 0x100 EXP SWAP1 DIV PUSH1 0xFF AND PUSH2 0x14D9 JUMPI PUSH1 0x40 MLOAD PUSH32 0x8C379A000000000000000000000000000000000000000000000000000000000 DUP2 MSTORE PUSH1 0x4 ADD PUSH2 0x14D0 SWAP1 PUSH2 0x2281 JUMP JUMPDEST PUSH1 0x40 MLOAD DUP1 SWAP2 SUB SWAP1 REVERT JUMPDEST PUSH1 0x0 PUSH1 0x14 PUSH1 0x0 PUSH2 0x100 EXP DUP2 SLOAD DUP2 PUSH1 0xFF MUL NOT AND SWAP1 DUP4 ISZERO ISZERO MUL OR SWAP1 SSTORE POP PUSH32 0xC82E6055D31DE9B552CD0014F23A8B8CE120C288ED1AFCE01ADB97150EFC0185 PUSH1 0x40 MLOAD PUSH1 0x40 MLOAD DUP1 SWAP2 SUB SWAP1 LOG1 JUMP JUMPDEST PUSH1 0xF SLOAD DUP2 JUMP JUMPDEST PUSH1 0x0 DUP1 PUSH1 0x8 SLOAD PUSH1 0xB SLOAD PUSH1 0x9 SLOAD PUSH1 0xA SLOAD PUSH2 0x1541 SWAP2 SWAP1 PUSH2 0x266D JUMP JUMPDEST PUSH2 0x154B SWAP2 SWAP1 PUSH2 0x26A1 JUMP JUMPDEST PUSH2 0x1555 SWAP2 SWAP1 PUSH2 0x2712 JUMP JUMPDEST PUSH1 0x9 SLOAD PUSH2 0x1562 SWAP2 SWAP1 PUSH2 0x23F4 JUMP JUMPDEST SWAP1 POP PUSH1 0x0 DUP2 DUP5 PUSH2 0x1572 SWAP2 SWAP1 PUSH2 0x2712 JUMP JUMPDEST SWAP1 POP DUP1 SWAP3 POP POP POP SWAP2 SWAP1 POP JUMP JUMPDEST PUSH2 0x1586 PUSH2 0x187F JUMP JUMPDEST PUSH1 0x0 PUSH20 0xFFFFFFFFFFFFFFFFFFFFFFFFFFFFFFFFFFFFFFFF AND DUP2 PUSH20 0xFFFFFFFFFFFFFFFFFFFFFFFFFFFFFFFFFFFFFFFF AND SUB PUSH2 0x15F8 JUMPI PUSH1 0x0 PUSH1 0x40 MLOAD PUSH32 0x1E4FBDF700000000000000000000000000000000000000000000000000000000 DUP2 MSTORE PUSH1 0x4 ADD PUSH2 0x15EF SWAP2 SWAP1 PUSH2 0x2127 JUMP JUMPDEST PUSH1 0x40 MLOAD DUP1 SWAP2 SUB SWAP1 REVERT JUMPDEST PUSH2 0x1601 DUP2 PUSH2 0x1906 JUMP JUMPDEST POP JUMP JUMPDEST PUSH1 0x17 PUSH1 0x20 MSTORE DUP1 PUSH1 0x0 MSTORE PUSH1 0x40 PUSH1 0x0 KECCAK256 PUSH1 0x0 SWAP2 POP SWAP1 POP DUP1 PUSH1 0x0 ADD SLOAD SWAP1 DUP1 PUSH1 0x1 ADD SLOAD SWAP1 DUP1 PUSH1 0x2 ADD SLOAD SWAP1 DUP1 PUSH1 0x3 ADD SLOAD SWAP1 DUP1 PUSH1 0x4 ADD SLOAD SWAP1 POP DUP6 JUMP JUMPDEST PUSH1 0x0 CALLER SWAP1 POP SWAP1 JUMP JUMPDEST PUSH2 0x164F DUP4 DUP4 DUP4 PUSH1 0x1 PUSH2 0x1A4D JUMP JUMPDEST POP POP POP JUMP JUMPDEST PUSH1 0x0 PUSH2 0x1660 DUP5 DUP5 PUSH2 0x121D JUMP JUMPDEST SWAP1 POP PUSH32 0xFFFFFFFFFFFFFFFFFFFFFFFFFFFFFFFFFFFFFFFFFFFFFFFFFFFFFFFFFFFFFFFF DUP2 EQ PUSH2 0x16E2 JUMPI DUP2 DUP2 LT ISZERO PUSH2 0x16D2 JUMPI DUP3 DUP2 DUP4 PUSH1 0x40 MLOAD PUSH32 0xFB8F41B200000000000000000000000000000000000000000000000000000000 DUP2 MSTORE PUSH1 0x4 ADD PUSH2 0x16C9 SWAP4 SWAP3 SWAP2 SWAP1 PUSH2 0x29F1 JUMP JUMPDEST PUSH1 0x40 MLOAD DUP1 SWAP2 SUB SWAP1 REVERT JUMPDEST PUSH2 0x16E1 DUP5 DUP5 DUP5 DUP5 SUB PUSH1 0x0 PUSH2 0x1A4D JUMP JUMPDEST JUMPDEST POP POP POP POP JUMP JUMPDEST PUSH1 0x0 PUSH20 0xFFFFFFFFFFFFFFFFFFFFFFFFFFFFFFFFFFFFFFFF AND DUP4 PUSH20 0xFFFFFFFFFFFFFFFFFFFFFFFFFFFFFFFFFFFFFFFF AND SUB PUSH2 0x175A JUMPI PUSH1 0x0 PUSH1 0x40 MLOAD PUSH32 0x96C6FD1E00000000000000000000000000000000000000000000000000000000 DUP2 MSTORE PUSH1 0x4 ADD PUSH2 0x1751 SWAP2 SWAP1 PUSH2 0x2127 JUMP JUMPDEST PUSH1 0x40 MLOAD DUP1 SWAP2 SUB SWAP1 REVERT JUMPDEST PUSH1 0x0 PUSH20 0xFFFFFFFFFFFFFFFFFFFFFFFFFFFFFFFFFFFFFFFF AND DUP3 PUSH20 0xFFFFFFFFFFFFFFFFFFFFFFFFFFFFFFFFFFFFFFFF AND SUB PUSH2 0x17CC JUMPI PUSH1 0x0 PUSH1 0x40 MLOAD PUSH32 0xEC442F0500000000000000000000000000000000000000000000000000000000 DUP2 MSTORE PUSH1 0x4 ADD PUSH2 0x17C3 SWAP2 SWAP1 PUSH2 0x2127 JUMP JUMPDEST PUSH1 0x40 MLOAD DUP1 SWAP2 SUB SWAP1 REVERT JUMPDEST PUSH2 0x17D7 DUP4 DUP4 DUP4 PUSH2 0x1C24 JUMP JUMPDEST POP POP POP JUMP JUMPDEST PUSH1 0x2 PUSH1 0x6 SLOAD SUB PUSH2 0x1821 JUMPI PUSH1 0x40 MLOAD PUSH32 0x8C379A000000000000000000000000000000000000000000000000000000000 DUP2 MSTORE PUSH1 0x4 ADD PUSH2 0x1818 SWAP1 PUSH2 0x2A74 JUMP JUMPDEST PUSH1 0x40 MLOAD DUP1 SWAP2 SUB SWAP1 REVERT JUMPDEST PUSH1 0x2 PUSH1 0x6 DUP2 SWAP1 SSTORE POP JUMP JUMPDEST PUSH2 0x1833 PUSH2 0xCC4 JUMP JUMPDEST ISZERO PUSH2 0x1873 JUMPI PUSH1 0x40 MLOAD PUSH32 0x8C379A000000000000000000000000000000000000000000000000000000000 DUP2 MSTORE PUSH1 0x4 ADD PUSH2 0x186A SWAP1 PUSH2 0x2AE0 JUMP JUMPDEST PUSH1 0x40 MLOAD DUP1 SWAP2 SUB SWAP1 REVERT JUMPDEST JUMP JUMPDEST PUSH1 0x1 PUSH1 0x6 DUP2 SWAP1 SSTORE POP JUMP JUMPDEST PUSH2 0x1887 PUSH2 0x163A JUMP JUMPDEST PUSH20 0xFFFFFFFFFFFFFFFFFFFFFFFFFFFFFFFFFFFFFFFF AND PUSH2 0x18A5 PUSH2 0xDF4 JUMP JUMPDEST PUSH20 0xFFFFFFFFFFFFFFFFFFFFFFFFFFFFFFFFFFFFFFFF AND EQ PUSH2 0x1904 JUMPI PUSH2 0x18C8 PUSH2 0x163A JUMP JUMPDEST PUSH1 0x40 MLOAD PUSH32 0x118CDAA700000000000000000000000000000000000000000000000000000000 DUP2 MSTORE PUSH1 0x4 ADD PUSH2 0x18FB SWAP2 SWAP1 PUSH2 0x2127 JUMP JUMPDEST PUSH1 0x40 MLOAD DUP1 SWAP2 SUB SWAP1 REVERT JUMPDEST JUMP JUMPDEST PUSH1 0x0 PUSH1 0x5 PUSH1 0x0 SWAP1 SLOAD SWAP1 PUSH2 0x100 EXP SWAP1 DIV PUSH20 0xFFFFFFFFFFFFFFFFFFFFFFFFFFFFFFFFFFFFFFFF AND SWAP1 POP DUP2 PUSH1 0x5 PUSH1 0x0 PUSH2 0x100 EXP DUP2 SLOAD DUP2 PUSH20 0xFFFFFFFFFFFFFFFFFFFFFFFFFFFFFFFFFFFFFFFF MUL NOT AND SWAP1 DUP4 PUSH20 0xFFFFFFFFFFFFFFFFFFFFFFFFFFFFFFFFFFFFFFFF AND MUL OR SWAP1 SSTORE POP DUP2 PUSH20 0xFFFFFFFFFFFFFFFFFFFFFFFFFFFFFFFFFFFFFFFF AND DUP2 PUSH20 0xFFFFFFFFFFFFFFFFFFFFFFFFFFFFFFFFFFFFFFFF AND PUSH32 0x8BE0079C531659141344CD1FD0A4F28419497F9722A3DAAFE3B4186F6B6457E0 PUSH1 0x40 MLOAD PUSH1 0x40 MLOAD DUP1 SWAP2 SUB SWAP1 LOG3 POP POP JUMP JUMPDEST PUSH1 0x0 PUSH1 0x17 PUSH1 0x0 DUP8 PUSH20 0xFFFFFFFFFFFFFFFFFFFFFFFFFFFFFFFFFFFFFFFF AND PUSH20 0xFFFFFFFFFFFFFFFFFFFFFFFFFFFFFFFFFFFFFFFF AND DUP2 MSTORE PUSH1 0x20 ADD SWAP1 DUP2 MSTORE PUSH1 0x20 ADD PUSH1 0x0 KECCAK256 SWAP1 POP DUP5 DUP2 PUSH1 0x0 ADD PUSH1 0x0 DUP3 DUP3 SLOAD PUSH2 0x1A23 SWAP2 SWAP1 PUSH2 0x23F4 JUMP JUMPDEST SWAP3 POP POP DUP2 SWAP1 SSTORE POP DUP4 DUP2 PUSH1 0x2 ADD DUP2 SWAP1 SSTORE POP DUP3 DUP2 PUSH1 0x3 ADD DUP2 SWAP1 SSTORE POP DUP2 DUP2 PUSH1 0x4 ADD DUP2 SWAP1 SSTORE POP POP POP POP POP POP POP JUMP JUMPDEST PUSH1 0x0 PUSH20 0xFFFFFFFFFFFFFFFFFFFFFFFFFFFFFFFFFFFFFFFF AND DUP5 PUSH20 0xFFFFFFFFFFFFFFFFFFFFFFFFFFFFFFFFFFFFFFFF AND SUB PUSH2 0x1ABF JUMPI PUSH1 0x0 PUSH1 0x40 MLOAD PUSH32 0xE602DF0500000000000000000000000000000000000000000000000000000000 DUP2 MSTORE PUSH1 0x4 ADD PUSH2 0x1AB6 SWAP2 SWAP1 PUSH2 0x2127 JUMP JUMPDEST PUSH1 0x40 MLOAD DUP1 SWAP2 SUB SWAP1 REVERT JUMPDEST PUSH1 0x0 PUSH20 0xFFFFFFFFFFFFFFFFFFFFFFFFFFFFFFFFFFFFFFFF AND DUP4 PUSH20 0xFFFFFFFFFFFFFFFFFFFFFFFFFFFFFFFFFFFFFFFF AND SUB PUSH2 0x1B31 JUMPI PUSH1 0x0 PUSH1 0x40 MLOAD PUSH32 0x94280D6200000000000000000000000000000000000000000000000000000000 DUP2 MSTORE PUSH1 0x4 ADD PUSH2 0x1B28 SWAP2 SWAP1 PUSH2 0x2127 JUMP JUMPDEST PUSH1 0x40 MLOAD DUP1 SWAP2 SUB SWAP1 REVERT JUMPDEST DUP2 PUSH1 0x1 PUSH1 0x0 DUP7 PUSH20 0xFFFFFFFFFFFFFFFFFFFFFFFFFFFFFFFFFFFFFFFF AND PUSH20 0xFFFFFFFFFFFFFFFFFFFFFFFFFFFFFFFFFFFFFFFF AND DUP2 MSTORE PUSH1 0x20 ADD SWAP1 DUP2 MSTORE PUSH1 0x20 ADD PUSH1 0x0 KECCAK256 PUSH1 0x0 DUP6 PUSH20 0xFFFFFFFFFFFFFFFFFFFFFFFFFFFFFFFFFFFFFFFF AND PUSH20 0xFFFFFFFFFFFFFFFFFFFFFFFFFFFFFFFFFFFFFFFF AND DUP2 MSTORE PUSH1 0x20 ADD SWAP1 DUP2 MSTORE PUSH1 0x20 ADD PUSH1 0x0 KECCAK256 DUP2 SWAP1 SSTORE POP DUP1 ISZERO PUSH2 0x1C1E JUMPI DUP3 PUSH20 0xFFFFFFFFFFFFFFFFFFFFFFFFFFFFFFFFFFFFFFFF AND DUP5 PUSH20 0xFFFFFFFFFFFFFFFFFFFFFFFFFFFFFFFFFFFFFFFF AND PUSH32 0x8C5BE1E5EBEC7D5BD14F71427D1E84F3DD0314C0F7B2291E5B200AC8C7C3B925 DUP5 PUSH1 0x40 MLOAD PUSH2 0x1C15 SWAP2 SWAP1 PUSH2 0x1E62 JUMP JUMPDEST PUSH1 0x40 MLOAD DUP1 SWAP2 SUB SWAP1 LOG3 JUMPDEST POP POP POP POP JUMP JUMPDEST PUSH1 0x0 PUSH20 0xFFFFFFFFFFFFFFFFFFFFFFFFFFFFFFFFFFFFFFFF AND DUP4 PUSH20 0xFFFFFFFFFFFFFFFFFFFFFFFFFFFFFFFFFFFFFFFF AND SUB PUSH2 0x1C76 JUMPI DUP1 PUSH1 0x2 PUSH1 0x0 DUP3 DUP3 SLOAD PUSH2 0x1C6A SWAP2 SWAP1 PUSH2 0x23F4 JUMP JUMPDEST SWAP3 POP POP DUP2 SWAP1 SSTORE POP PUSH2 0x1D49 JUMP JUMPDEST PUSH1 0x0 DUP1 PUSH1 0x0 DUP6 PUSH20 0xFFFFFFFFFFFFFFFFFFFFFFFFFFFFFFFFFFFFFFFF AND PUSH20 0xFFFFFFFFFFFFFFFFFFFFFFFFFFFFFFFFFFFFFFFF AND DUP2 MSTORE PUSH1 0x20 ADD SWAP1 DUP2 MSTORE PUSH1 0x20 ADD PUSH1 0x0 KECCAK256 SLOAD SWAP1 POP DUP2 DUP2 LT ISZERO PUSH2 0x1D02 JUMPI DUP4 DUP2 DUP4 PUSH1 0x40 MLOAD PUSH32 0xE450D38C00000000000000000000000000000000000000000000000000000000 DUP2 MSTORE PUSH1 0x4 ADD PUSH2 0x1CF9 SWAP4 SWAP3 SWAP2 SWAP1 PUSH2 0x29F1 JUMP JUMPDEST PUSH1 0x40 MLOAD DUP1 SWAP2 SUB SWAP1 REVERT JUMPDEST DUP2 DUP2 SUB PUSH1 0x0 DUP1 DUP7 PUSH20 0xFFFFFFFFFFFFFFFFFFFFFFFFFFFFFFFFFFFFFFFF AND PUSH20 0xFFFFFFFFFFFFFFFFFFFFFFFFFFFFFFFFFFFFFFFF AND DUP2 MSTORE PUSH1 0x20 ADD SWAP1 DUP2 MSTORE PUSH1 0x20 ADD PUSH1 0x0 KECCAK256 DUP2 SWAP1 SSTORE POP POP JUMPDEST PUSH1 0x0 PUSH20 0xFFFFFFFFFFFFFFFFFFFFFFFFFFFFFFFFFFFFFFFF AND DUP3 PUSH20 0xFFFFFFFFFFFFFFFFFFFFFFFFFFFFFFFFFFFFFFFF AND SUB PUSH2 0x1D92 JUMPI DUP1 PUSH1 0x2 PUSH1 0x0 DUP3 DUP3 SLOAD SUB SWAP3 POP POP DUP2 SWAP1 SSTORE POP PUSH2 0x1DDF JUMP JUMPDEST DUP1 PUSH1 0x0 DUP1 DUP5 PUSH20 0xFFFFFFFFFFFFFFFFFFFFFFFFFFFFFFFFFFFFFFFF AND PUSH20 0xFFFFFFFFFFFFFFFFFFFFFFFFFFFFFFFFFFFFFFFF AND DUP2 MSTORE PUSH1 0x20 ADD SWAP1 DUP2 MSTORE PUSH1 0x20 ADD PUSH1 0x0 KECCAK256 PUSH1 0x0 DUP3 DUP3 SLOAD ADD SWAP3 POP POP DUP2 SWAP1 SSTORE POP JUMPDEST DUP2 PUSH20 0xFFFFFFFFFFFFFFFFFFFFFFFFFFFFFFFFFFFFFFFF AND DUP4 PUSH20 0xFFFFFFFFFFFFFFFFFFFFFFFFFFFFFFFFFFFFFFFF AND PUSH32 0xDDF252AD1BE2C89B69C2B068FC378DAA952BA7F163C4A11628F55A4DF523B3EF DUP4 PUSH1 0x40 MLOAD PUSH2 0x1E3C SWAP2 SWAP1 PUSH2 0x1E62 JUMP JUMPDEST PUSH1 0x40 MLOAD DUP1 SWAP2 SUB SWAP1 LOG3 POP POP POP JUMP JUMPDEST PUSH1 0x0 DUP2 SWAP1 POP SWAP2 SWAP1 POP JUMP JUMPDEST PUSH2 0x1E5C DUP2 PUSH2 0x1E49 JUMP JUMPDEST DUP3 MSTORE POP POP JUMP JUMPDEST PUSH1 0x0 PUSH1 0x20 DUP3 ADD SWAP1 POP PUSH2 0x1E77 PUSH1 0x0 DUP4 ADD DUP5 PUSH2 0x1E53 JUMP JUMPDEST SWAP3 SWAP2 POP POP JUMP JUMPDEST PUSH1 0x0 DUP2 MLOAD SWAP1 POP SWAP2 SWAP1 POP JUMP JUMPDEST PUSH1 0x0 DUP3 DUP3 MSTORE PUSH1 0x20 DUP3 ADD SWAP1 POP SWAP3 SWAP2 POP POP JUMP JUMPDEST PUSH1 0x0 JUMPDEST DUP4 DUP2 LT ISZERO PUSH2 0x1EB7 JUMPI DUP1 DUP3 ADD MLOAD DUP2 DUP5 ADD MSTORE PUSH1 0x20 DUP2 ADD SWAP1 POP PUSH2 0x1E9C JUMP JUMPDEST PUSH1 0x0 DUP5 DUP5 ADD MSTORE POP POP POP POP JUMP JUMPDEST PUSH1 0x0 PUSH1 0x1F NOT PUSH1 0x1F DUP4 ADD AND SWAP1 POP SWAP2 SWAP1 POP JUMP JUMPDEST PUSH1 0x0 PUSH2 0x1EDF DUP3 PUSH2 0x1E7D JUMP JUMPDEST PUSH2 0x1EE9 DUP2 DUP6 PUSH2 0x1E88 JUMP JUMPDEST SWAP4 POP PUSH2 0x1EF9 DUP2 DUP6 PUSH1 0x20 DUP7 ADD PUSH2 0x1E99 JUMP JUMPDEST PUSH2 0x1F02 DUP2 PUSH2 0x1EC3 JUMP JUMPDEST DUP5 ADD SWAP2 POP POP SWAP3 SWAP2 POP POP JUMP JUMPDEST PUSH1 0x0 PUSH1 0x20 DUP3 ADD SWAP1 POP DUP2 DUP2 SUB PUSH1 0x0 DUP4 ADD MSTORE PUSH2 0x1F27 DUP2 DUP5 PUSH2 0x1ED4 JUMP JUMPDEST SWAP1 POP SWAP3 SWAP2 POP POP JUMP JUMPDEST PUSH1 0x0 DUP1 REVERT JUMPDEST PUSH1 0x0 PUSH20 0xFFFFFFFFFFFFFFFFFFFFFFFFFFFFFFFFFFFFFFFF DUP3 AND SWAP1 POP SWAP2 SWAP1 POP JUMP JUMPDEST PUSH1 0x0 PUSH2 0x1F5F DUP3 PUSH2 0x1F34 JUMP JUMPDEST SWAP1 POP SWAP2 SWAP1 POP JUMP JUMPDEST PUSH2 0x1F6F DUP2 PUSH2 0x1F54 JUMP JUMPDEST DUP2 EQ PUSH2 0x1F7A JUMPI PUSH1 0x0 DUP1 REVERT JUMPDEST POP JUMP JUMPDEST PUSH1 0x0 DUP2 CALLDATALOAD SWAP1 POP PUSH2 0x1F8C DUP2 PUSH2 0x1F66 JUMP JUMPDEST SWAP3 SWAP2 POP POP JUMP JUMPDEST PUSH2 0x1F9B DUP2 PUSH2 0x1E49 JUMP JUMPDEST DUP2 EQ PUSH2 0x1FA6 JUMPI PUSH1 0x0 DUP1 REVERT JUMPDEST POP JUMP JUMPDEST PUSH1 0x0 DUP2 CALLDATALOAD SWAP1 POP PUSH2 0x1FB8 DUP2 PUSH2 0x1F92 JUMP JUMPDEST SWAP3 SWAP2 POP POP JUMP JUMPDEST PUSH1 0x0 DUP1 PUSH1 0x40 DUP4 DUP6 SUB SLT ISZERO PUSH2 0x1FD5 JUMPI PUSH2 0x1FD4 PUSH2 0x1F2F JUMP JUMPDEST JUMPDEST PUSH1 0x0 PUSH2 0x1FE3 DUP6 DUP3 DUP7 ADD PUSH2 0x1F7D JUMP JUMPDEST SWAP3 POP POP PUSH1 0x20 PUSH2 0x1FF4 DUP6 DUP3 DUP7 ADD PUSH2 0x1FA9 JUMP JUMPDEST SWAP2 POP POP SWAP3 POP SWAP3 SWAP1 POP JUMP JUMPDEST PUSH1 0x0 DUP2 ISZERO ISZERO SWAP1 POP SWAP2 SWAP1 POP JUMP JUMPDEST PUSH2 0x2013 DUP2 PUSH2 0x1FFE JUMP JUMPDEST DUP3 MSTORE POP POP JUMP JUMPDEST PUSH1 0x0 PUSH1 0x20 DUP3 ADD SWAP1 POP PUSH2 0x202E PUSH1 0x0 DUP4 ADD DUP5 PUSH2 0x200A JUMP JUMPDEST SWAP3 SWAP2 POP POP JUMP JUMPDEST PUSH1 0x0 DUP1 PUSH1 0x0 PUSH1 0x60 DUP5 DUP7 SUB SLT ISZERO PUSH2 0x204D JUMPI PUSH2 0x204C PUSH2 0x1F2F JUMP JUMPDEST JUMPDEST PUSH1 0x0 PUSH2 0x205B DUP7 DUP3 DUP8 ADD PUSH2 0x1F7D JUMP JUMPDEST SWAP4 POP POP PUSH1 0x20 PUSH2 0x206C DUP7 DUP3 DUP8 ADD PUSH2 0x1F7D JUMP JUMPDEST SWAP3 POP POP PUSH1 0x40 PUSH2 0x207D DUP7 DUP3 DUP8 ADD PUSH2 0x1FA9 JUMP JUMPDEST SWAP2 POP POP SWAP3 POP SWAP3 POP SWAP3 JUMP JUMPDEST PUSH1 0x0 PUSH1 0xFF DUP3 AND SWAP1 POP SWAP2 SWAP1 POP JUMP JUMPDEST PUSH2 0x209D DUP2 PUSH2 0x2087 JUMP JUMPDEST DUP3 MSTORE POP POP JUMP JUMPDEST PUSH1 0x0 PUSH1 0x20 DUP3 ADD SWAP1 POP PUSH2 0x20B8 PUSH1 0x0 DUP4 ADD DUP5 PUSH2 0x2094 JUMP JUMPDEST SWAP3 SWAP2 POP POP JUMP JUMPDEST PUSH1 0x0 PUSH1 0x20 DUP3 DUP5 SUB SLT ISZERO PUSH2 0x20D4 JUMPI PUSH2 0x20D3 PUSH2 0x1F2F JUMP JUMPDEST JUMPDEST PUSH1 0x0 PUSH2 0x20E2 DUP5 DUP3 DUP6 ADD PUSH2 0x1FA9 JUMP JUMPDEST SWAP2 POP POP SWAP3 SWAP2 POP POP JUMP JUMPDEST PUSH1 0x0 PUSH1 0x20 DUP3 DUP5 SUB SLT ISZERO PUSH2 0x2101 JUMPI PUSH2 0x2100 PUSH2 0x1F2F JUMP JUMPDEST JUMPDEST PUSH1 0x0 PUSH2 0x210F DUP5 DUP3 DUP6 ADD PUSH2 0x1F7D JUMP JUMPDEST SWAP2 POP POP SWAP3 SWAP2 POP POP JUMP JUMPDEST PUSH2 0x2121 DUP2 PUSH2 0x1F54 JUMP JUMPDEST DUP3 MSTORE POP POP JUMP JUMPDEST PUSH1 0x0 PUSH1 0x20 DUP3 ADD SWAP1 POP PUSH2 0x213C PUSH1 0x0 DUP4 ADD DUP5 PUSH2 0x2118 JUMP JUMPDEST SWAP3 SWAP2 POP POP JUMP JUMPDEST PUSH1 0x0 DUP1 PUSH1 0x40 DUP4 DUP6 SUB SLT ISZERO PUSH2 0x2159 JUMPI PUSH2 0x2158 PUSH2 0x1F2F JUMP JUMPDEST JUMPDEST PUSH1 0x0 PUSH2 0x2167 DUP6 DUP3 DUP7 ADD PUSH2 0x1F7D JUMP JUMPDEST SWAP3 POP POP PUSH1 0x20 PUSH2 0x2178 DUP6 DUP3 DUP7 ADD PUSH2 0x1F7D JUMP JUMPDEST SWAP2 POP POP SWAP3 POP SWAP3 SWAP1 POP JUMP JUMPDEST PUSH1 0x0 PUSH1 0xA0 DUP3 ADD SWAP1 POP PUSH2 0x2197 PUSH1 0x0 DUP4 ADD DUP9 PUSH2 0x1E53 JUMP JUMPDEST PUSH2 0x21A4 PUSH1 0x20 DUP4 ADD DUP8 PUSH2 0x1E53 JUMP JUMPDEST PUSH2 0x21B1 PUSH1 0x40 DUP4 ADD DUP7 PUSH2 0x1E53 JUMP JUMPDEST PUSH2 0x21BE PUSH1 0x60 DUP4 ADD DUP6 PUSH2 0x1E53 JUMP JUMPDEST PUSH2 0x21CB PUSH1 0x80 DUP4 ADD DUP5 PUSH2 0x1E53 JUMP JUMPDEST SWAP7 SWAP6 POP POP POP POP POP POP JUMP JUMPDEST PUSH32 0x4E487B7100000000000000000000000000000000000000000000000000000000 PUSH1 0x0 MSTORE PUSH1 0x22 PUSH1 0x4 MSTORE PUSH1 0x24 PUSH1 0x0 REVERT JUMPDEST PUSH1 0x0 PUSH1 0x2 DUP3 DIV SWAP1 POP PUSH1 0x1 DUP3 AND DUP1 PUSH2 0x221C JUMPI PUSH1 0x7F DUP3 AND SWAP2 POP JUMPDEST PUSH1 0x20 DUP3 LT DUP2 SUB PUSH2 0x222F JUMPI PUSH2 0x222E PUSH2 0x21D5 JUMP JUMPDEST JUMPDEST POP SWAP2 SWAP1 POP JUMP JUMPDEST PUSH32 0x5072652D53616C65206973206E6F742061637469766500000000000000000000 PUSH1 0x0 DUP3 ADD MSTORE POP JUMP JUMPDEST PUSH1 0x0 PUSH2 0x226B PUSH1 0x16 DUP4 PUSH2 0x1E88 JUMP JUMPDEST SWAP2 POP PUSH2 0x2276 DUP3 PUSH2 0x2235 JUMP JUMPDEST PUSH1 0x20 DUP3 ADD SWAP1 POP SWAP2 SWAP1 POP JUMP JUMPDEST PUSH1 0x0 PUSH1 0x20 DUP3 ADD SWAP1 POP DUP2 DUP2 SUB PUSH1 0x0 DUP4 ADD MSTORE PUSH2 0x229A DUP2 PUSH2 0x225E JUMP JUMPDEST SWAP1 POP SWAP2 SWAP1 POP JUMP JUMPDEST PUSH32 0x416D6F756E742069732062656C6F77206D696E696D756D207075726368617365 PUSH1 0x0 DUP3 ADD MSTORE PUSH32 0x206C696D69740000000000000000000000000000000000000000000000000000 PUSH1 0x20 DUP3 ADD MSTORE POP JUMP JUMPDEST PUSH1 0x0 PUSH2 0x22FD PUSH1 0x26 DUP4 PUSH2 0x1E88 JUMP JUMPDEST SWAP2 POP PUSH2 0x2308 DUP3 PUSH2 0x22A1 JUMP JUMPDEST PUSH1 0x40 DUP3 ADD SWAP1 POP SWAP2 SWAP1 POP JUMP JUMPDEST PUSH1 0x0 PUSH1 0x20 DUP3 ADD SWAP1 POP DUP2 DUP2 SUB PUSH1 0x0 DUP4 ADD MSTORE PUSH2 0x232C DUP2 PUSH2 0x22F0 JUMP JUMPDEST SWAP1 POP SWAP2 SWAP1 POP JUMP JUMPDEST PUSH32 0x416D6F756E742065786365656473206D6178696D756D20707572636861736520 PUSH1 0x0 DUP3 ADD MSTORE PUSH32 0x6C696D6974000000000000000000000000000000000000000000000000000000 PUSH1 0x20 DUP3 ADD MSTORE POP JUMP JUMPDEST PUSH1 0x0 PUSH2 0x238F PUSH1 0x25 DUP4 PUSH2 0x1E88 JUMP JUMPDEST SWAP2 POP PUSH2 0x239A DUP3 PUSH2 0x2333 JUMP JUMPDEST PUSH1 0x40 DUP3 ADD SWAP1 POP SWAP2 SWAP1 POP JUMP JUMPDEST PUSH1 0x0 PUSH1 0x20 DUP3 ADD SWAP1 POP DUP2 DUP2 SUB PUSH1 0x0 DUP4 ADD MSTORE PUSH2 0x23BE DUP2 PUSH2 0x2382 JUMP JUMPDEST SWAP1 POP SWAP2 SWAP1 POP JUMP JUMPDEST PUSH32 0x4E487B7100000000000000000000000000000000000000000000000000000000 PUSH1 0x0 MSTORE PUSH1 0x11 PUSH1 0x4 MSTORE PUSH1 0x24 PUSH1 0x0 REVERT JUMPDEST PUSH1 0x0 PUSH2 0x23FF DUP3 PUSH2 0x1E49 JUMP JUMPDEST SWAP2 POP PUSH2 0x240A DUP4 PUSH2 0x1E49 JUMP JUMPDEST SWAP3 POP DUP3 DUP3 ADD SWAP1 POP DUP1 DUP3 GT ISZERO PUSH2 0x2422 JUMPI PUSH2 0x2421 PUSH2 0x23C5 JUMP JUMPDEST JUMPDEST SWAP3 SWAP2 POP POP JUMP JUMPDEST PUSH32 0x45786365656473205072652D53616C6520746F6B656E206C696D697400000000 PUSH1 0x0 DUP3 ADD MSTORE POP JUMP JUMPDEST PUSH1 0x0 PUSH2 0x245E PUSH1 0x1C DUP4 PUSH2 0x1E88 JUMP JUMPDEST SWAP2 POP PUSH2 0x2469 DUP3 PUSH2 0x2428 JUMP JUMPDEST PUSH1 0x20 DUP3 ADD SWAP1 POP SWAP2 SWAP1 POP JUMP JUMPDEST PUSH1 0x0 PUSH1 0x20 DUP3 ADD SWAP1 POP DUP2 DUP2 SUB PUSH1 0x0 DUP4 ADD MSTORE PUSH2 0x248D DUP2 PUSH2 0x2451 JUMP JUMPDEST SWAP1 POP SWAP2 SWAP1 POP JUMP JUMPDEST PUSH32 0x5072652D53616C6520697320616C726561647920616374697665000000000000 PUSH1 0x0 DUP3 ADD MSTORE POP JUMP JUMPDEST PUSH1 0x0 PUSH2 0x24CA PUSH1 0x1A DUP4 PUSH2 0x1E88 JUMP JUMPDEST SWAP2 POP PUSH2 0x24D5 DUP3 PUSH2 0x2494 JUMP JUMPDEST PUSH1 0x20 DUP3 ADD SWAP1 POP SWAP2 SWAP1 POP JUMP JUMPDEST PUSH1 0x0 PUSH1 0x20 DUP3 ADD SWAP1 POP DUP2 DUP2 SUB PUSH1 0x0 DUP4 ADD MSTORE PUSH2 0x24F9 DUP2 PUSH2 0x24BD JUMP JUMPDEST SWAP1 POP SWAP2 SWAP1 POP JUMP JUMPDEST PUSH32 0x4E6F20746F6B656E7320746F2077697468647261770000000000000000000000 PUSH1 0x0 DUP3 ADD MSTORE POP JUMP JUMPDEST PUSH1 0x0 PUSH2 0x2536 PUSH1 0x15 DUP4 PUSH2 0x1E88 JUMP JUMPDEST SWAP2 POP PUSH2 0x2541 DUP3 PUSH2 0x2500 JUMP JUMPDEST PUSH1 0x20 DUP3 ADD SWAP1 POP SWAP2 SWAP1 POP JUMP JUMPDEST PUSH1 0x0 PUSH1 0x20 DUP3 ADD SWAP1 POP DUP2 DUP2 SUB PUSH1 0x0 DUP4 ADD MSTORE PUSH2 0x2565 DUP2 PUSH2 0x2529 JUMP JUMPDEST SWAP1 POP SWAP2 SWAP1 POP JUMP JUMPDEST PUSH32 0x507269766174652053616C6520616C7265616479206163746976650000000000 PUSH1 0x0 DUP3 ADD MSTORE POP JUMP JUMPDEST PUSH1 0x0 PUSH2 0x25A2 PUSH1 0x1B DUP4 PUSH2 0x1E88 JUMP JUMPDEST SWAP2 POP PUSH2 0x25AD DUP3 PUSH2 0x256C JUMP JUMPDEST PUSH1 0x20 DUP3 ADD SWAP1 POP SWAP2 SWAP1 POP JUMP JUMPDEST PUSH1 0x0 PUSH1 0x20 DUP3 ADD SWAP1 POP DUP2 DUP2 SUB PUSH1 0x0 DUP4 ADD MSTORE PUSH2 0x25D1 DUP2 PUSH2 0x2595 JUMP JUMPDEST SWAP1 POP SWAP2 SWAP1 POP JUMP JUMPDEST PUSH32 0x496E76616C69642070657263656E746167650000000000000000000000000000 PUSH1 0x0 DUP3 ADD MSTORE POP JUMP JUMPDEST PUSH1 0x0 PUSH2 0x260E PUSH1 0x12 DUP4 PUSH2 0x1E88 JUMP JUMPDEST SWAP2 POP PUSH2 0x2619 DUP3 PUSH2 0x25D8 JUMP JUMPDEST PUSH1 0x20 DUP3 ADD SWAP1 POP SWAP2 SWAP1 POP JUMP JUMPDEST PUSH1 0x0 PUSH1 0x20 DUP3 ADD SWAP1 POP DUP2 DUP2 SUB PUSH1 0x0 DUP4 ADD MSTORE PUSH2 0x263D DUP2 PUSH2 0x2601 JUMP JUMPDEST SWAP1 POP SWAP2 SWAP1 POP JUMP JUMPDEST PUSH1 0x0 PUSH1 0x40 DUP3 ADD SWAP1 POP PUSH2 0x2659 PUSH1 0x0 DUP4 ADD DUP6 PUSH2 0x1E53 JUMP JUMPDEST PUSH2 0x2666 PUSH1 0x20 DUP4 ADD DUP5 PUSH2 0x1E53 JUMP JUMPDEST SWAP4 SWAP3 POP POP POP JUMP JUMPDEST PUSH1 0x0 PUSH2 0x2678 DUP3 PUSH2 0x1E49 JUMP JUMPDEST SWAP2 POP PUSH2 0x2683 DUP4 PUSH2 0x1E49 JUMP JUMPDEST SWAP3 POP DUP3 DUP3 SUB SWAP1 POP DUP2 DUP2 GT ISZERO PUSH2 0x269B JUMPI PUSH2 0x269A PUSH2 0x23C5 JUMP JUMPDEST JUMPDEST SWAP3 SWAP2 POP POP JUMP JUMPDEST PUSH1 0x0 PUSH2 0x26AC DUP3 PUSH2 0x1E49 JUMP JUMPDEST SWAP2 POP PUSH2 0x26B7 DUP4 PUSH2 0x1E49 JUMP JUMPDEST SWAP3 POP DUP3 DUP3 MUL PUSH2 0x26C5 DUP2 PUSH2 0x1E49 JUMP JUMPDEST SWAP2 POP DUP3 DUP3 DIV DUP5 EQ DUP4 ISZERO OR PUSH2 0x26DC JUMPI PUSH2 0x26DB PUSH2 0x23C5 JUMP JUMPDEST JUMPDEST POP SWAP3 SWAP2 POP POP JUMP JUMPDEST PUSH32 0x4E487B7100000000000000000000000000000000000000000000000000000000 PUSH1 0x0 MSTORE PUSH1 0x12 PUSH1 0x4 MSTORE PUSH1 0x24 PUSH1 0x0 REVERT JUMPDEST PUSH1 0x0 PUSH2 0x271D DUP3 PUSH2 0x1E49 JUMP JUMPDEST SWAP2 POP PUSH2 0x2728 DUP4 PUSH2 0x1E49 JUMP JUMPDEST SWAP3 POP DUP3 PUSH2 0x2738 JUMPI PUSH2 0x2737 PUSH2 0x26E3 JUMP JUMPDEST JUMPDEST DUP3 DUP3 DIV SWAP1 POP SWAP3 SWAP2 POP POP JUMP JUMPDEST PUSH32 0x507269766174652053616C65206973206E6F7420616374697665000000000000 PUSH1 0x0 DUP3 ADD MSTORE POP JUMP JUMPDEST PUSH1 0x0 PUSH2 0x2779 PUSH1 0x1A DUP4 PUSH2 0x1E88 JUMP JUMPDEST SWAP2 POP PUSH2 0x2784 DUP3 PUSH2 0x2743 JUMP JUMPDEST PUSH1 0x20 DUP3 ADD SWAP1 POP SWAP2 SWAP1 POP JUMP JUMPDEST PUSH1 0x0 PUSH1 0x20 DUP3 ADD SWAP1 POP DUP2 DUP2 SUB PUSH1 0x0 DUP4 ADD MSTORE PUSH2 0x27A8 DUP2 PUSH2 0x276C JUMP JUMPDEST SWAP1 POP SWAP2 SWAP1 POP JUMP JUMPDEST PUSH32 0x4D696E696D756D2055534420616D6F756E742072657175697265642069732035 PUSH1 0x0 DUP3 ADD MSTORE PUSH32 0x3020555344000000000000000000000000000000000000000000000000000000 PUSH1 0x20 DUP3 ADD MSTORE POP JUMP JUMPDEST PUSH1 0x0 PUSH2 0x280B PUSH1 0x25 DUP4 PUSH2 0x1E88 JUMP JUMPDEST SWAP2 POP PUSH2 0x2816 DUP3 PUSH2 0x27AF JUMP JUMPDEST PUSH1 0x40 DUP3 ADD SWAP1 POP SWAP2 SWAP1 POP JUMP JUMPDEST PUSH1 0x0 PUSH1 0x20 DUP3 ADD SWAP1 POP DUP2 DUP2 SUB PUSH1 0x0 DUP4 ADD MSTORE PUSH2 0x283A DUP2 PUSH2 0x27FE JUMP JUMPDEST SWAP1 POP SWAP2 SWAP1 POP JUMP JUMPDEST PUSH32 0x45786365656473206D6178696D756D20746F6B656E207075726368617365206C PUSH1 0x0 DUP3 ADD MSTORE PUSH32 0x696D697400000000000000000000000000000000000000000000000000000000 PUSH1 0x20 DUP3 ADD MSTORE POP JUMP JUMPDEST PUSH1 0x0 PUSH2 0x289D PUSH1 0x24 DUP4 PUSH2 0x1E88 JUMP JUMPDEST SWAP2 POP PUSH2 0x28A8 DUP3 PUSH2 0x2841 JUMP JUMPDEST PUSH1 0x40 DUP3 ADD SWAP1 POP SWAP2 SWAP1 POP JUMP JUMPDEST PUSH1 0x0 PUSH1 0x20 DUP3 ADD SWAP1 POP DUP2 DUP2 SUB PUSH1 0x0 DUP4 ADD MSTORE PUSH2 0x28CC DUP2 PUSH2 0x2890 JUMP JUMPDEST SWAP1 POP SWAP2 SWAP1 POP JUMP JUMPDEST PUSH32 0x4E6F2045544820746F2077697468647261770000000000000000000000000000 PUSH1 0x0 DUP3 ADD MSTORE POP JUMP JUMPDEST PUSH1 0x0 PUSH2 0x2909 PUSH1 0x12 DUP4 PUSH2 0x1E88 JUMP JUMPDEST SWAP2 POP PUSH2 0x2914 DUP3 PUSH2 0x28D3 JUMP JUMPDEST PUSH1 0x20 DUP3 ADD SWAP1 POP SWAP2 SWAP1 POP JUMP JUMPDEST PUSH1 0x0 PUSH1 0x20 DUP3 ADD SWAP1 POP DUP2 DUP2 SUB PUSH1 0x0 DUP4 ADD MSTORE PUSH2 0x2938 DUP2 PUSH2 0x28FC JUMP JUMPDEST SWAP1 POP SWAP2 SWAP1 POP JUMP JUMPDEST PUSH1 0x0 DUP2 SWAP1 POP SWAP3 SWAP2 POP POP JUMP JUMPDEST POP JUMP JUMPDEST PUSH1 0x0 PUSH2 0x295A PUSH1 0x0 DUP4 PUSH2 0x293F JUMP JUMPDEST SWAP2 POP PUSH2 0x2965 DUP3 PUSH2 0x294A JUMP JUMPDEST PUSH1 0x0 DUP3 ADD SWAP1 POP SWAP2 SWAP1 POP JUMP JUMPDEST PUSH1 0x0 PUSH2 0x297B DUP3 PUSH2 0x294D JUMP JUMPDEST SWAP2 POP DUP2 SWAP1 POP SWAP2 SWAP1 POP JUMP JUMPDEST PUSH32 0x5472616E73666572206661696C65640000000000000000000000000000000000 PUSH1 0x0 DUP3 ADD MSTORE POP JUMP JUMPDEST PUSH1 0x0 PUSH2 0x29BB PUSH1 0xF DUP4 PUSH2 0x1E88 JUMP JUMPDEST SWAP2 POP PUSH2 0x29C6 DUP3 PUSH2 0x2985 JUMP JUMPDEST PUSH1 0x20 DUP3 ADD SWAP1 POP SWAP2 SWAP1 POP JUMP JUMPDEST PUSH1 0x0 PUSH1 0x20 DUP3 ADD SWAP1 POP DUP2 DUP2 SUB PUSH1 0x0 DUP4 ADD MSTORE PUSH2 0x29EA DUP2 PUSH2 0x29AE JUMP JUMPDEST SWAP1 POP SWAP2 SWAP1 POP JUMP JUMPDEST PUSH1 0x0 PUSH1 0x60 DUP3 ADD SWAP1 POP PUSH2 0x2A06 PUSH1 0x0 DUP4 ADD DUP7 PUSH2 0x2118 JUMP JUMPDEST PUSH2 0x2A13 PUSH1 0x20 DUP4 ADD DUP6 PUSH2 0x1E53 JUMP JUMPDEST PUSH2 0x2A20 PUSH1 0x40 DUP4 ADD DUP5 PUSH2 0x1E53 JUMP JUMPDEST SWAP5 SWAP4 POP POP POP POP JUMP JUMPDEST PUSH32 0x5265656E7472616E637947756172643A207265656E7472616E742063616C6C00 PUSH1 0x0 DUP3 ADD MSTORE POP JUMP JUMPDEST PUSH1 0x0 PUSH2 0x2A5E PUSH1 0x1F DUP4 PUSH2 0x1E88 JUMP JUMPDEST SWAP2 POP PUSH2 0x2A69 DUP3 PUSH2 0x2A28 JUMP JUMPDEST PUSH1 0x20 DUP3 ADD SWAP1 POP SWAP2 SWAP1 POP JUMP JUMPDEST PUSH1 0x0 PUSH1 0x20 DUP3 ADD SWAP1 POP DUP2 DUP2 SUB PUSH1 0x0 DUP4 ADD MSTORE PUSH2 0x2A8D DUP2 PUSH2 0x2A51 JUMP JUMPDEST SWAP1 POP SWAP2 SWAP1 POP JUMP JUMPDEST PUSH32 0x5061757361626C653A2070617573656400000000000000000000000000000000 PUSH1 0x0 DUP3 ADD MSTORE POP JUMP JUMPDEST PUSH1 0x0 PUSH2 0x2ACA PUSH1 0x10 DUP4 PUSH2 0x1E88 JUMP JUMPDEST SWAP2 POP PUSH2 0x2AD5 DUP3 PUSH2 0x2A94 JUMP JUMPDEST PUSH1 0x20 DUP3 ADD SWAP1 POP SWAP2 SWAP1 POP JUMP JUMPDEST PUSH1 0x0 PUSH1 0x20 DUP3 ADD SWAP1 POP DUP2 DUP2 SUB PUSH1 0x0 DUP4 ADD MSTORE PUSH2 0x2AF9 DUP2 PUSH2 0x2ABD JUMP JUMPDEST SWAP1 POP SWAP2 SWAP1 POP JUMP INVALID LOG2 PUSH5 0x6970667358 0x22 SLT KECCAK256 0x2C JUMPI PUSH0 MSTORE8 SLT 0xAA SHL 0xD8 0xD2 PUSH6 0xF6AD810122AE SLT SHL SUB 0xCE CALLER PUSH1 0x55 SHR AND DUP10 PUSH32 0x42F03FFFEA64736F6C634300081A003300000000000000000000000000000000 "
				},
				"gasEstimates": {
					"creation": {
						"codeDepositCost": "2212400",
						"executionCost": "infinite",
						"totalCost": "infinite"
					},
					"external": {
						"TOTAL_SUPPLY()": "462",
						"affiliateRewardPercentage()": "1218",
						"allowance(address,address)": "infinite",
						"approve(address,uint256)": "infinite",
						"balanceOf(address)": "1653",
						"buyTokensPreSale(uint256)": "infinite",
						"buyTokensPrivateSale(uint256)": "infinite",
						"calculateTokensPreSale(uint256)": "infinite",
						"calculateTokensPrivateSale(uint256)": "infinite",
						"decimals()": "455",
						"endPreSale()": "infinite",
						"endPrivateSale()": "infinite",
						"maxPurchaseAmountPreSale()": "1174",
						"minPurchaseAmountPreSale()": "1175",
						"name()": "infinite",
						"owner()": "1311",
						"paused()": "1247",
						"preSaleActive()": "1216",
						"preSaleEndPrice()": "1240",
						"preSaleSoldTokens()": "1218",
						"preSaleStartPrice()": "1175",
						"preSaleStartTime()": "1176",
						"preSaleTargetFunds()": "1217",
						"preSaleTokens()": "1242",
						"privateSaleActive()": "1261",
						"privateSaleEndPrice()": "1240",
						"privateSaleSoldTokens()": "1219",
						"privateSaleStartPrice()": "1196",
						"privateSaleStartTime()": "1197",
						"privateSaleTokens()": "1262",
						"renounceOwnership()": "infinite",
						"startPreSale()": "infinite",
						"startPrivateSale(uint256)": "infinite",
						"symbol()": "infinite",
						"totalSupply()": "1272",
						"transfer(address,uint256)": "infinite",
						"transferFrom(address,address,uint256)": "infinite",
						"transferOwnership(address)": "infinite",
						"vestingSchedules(address)": "infinite",
						"withdrawETH()": "infinite",
						"withdrawTokens()": "infinite"
					},
					"internal": {
						"createVestingSchedule(address,uint256,uint256,uint256,uint256)": "infinite"
					}
				},
				"methodIdentifiers": {
					"TOTAL_SUPPLY()": "902d55a5",
					"affiliateRewardPercentage()": "d50234c4",
					"allowance(address,address)": "dd62ed3e",
					"approve(address,uint256)": "095ea7b3",
					"balanceOf(address)": "70a08231",
					"buyTokensPreSale(uint256)": "466c3f93",
					"buyTokensPrivateSale(uint256)": "d414890a",
					"calculateTokensPreSale(uint256)": "cb8dcfe6",
					"calculateTokensPrivateSale(uint256)": "f15a41f6",
					"decimals()": "313ce567",
					"endPreSale()": "ee889ed0",
					"endPrivateSale()": "e6a23c3d",
					"maxPurchaseAmountPreSale()": "ac21694c",
					"minPurchaseAmountPreSale()": "1ecf8f4d",
					"name()": "06fdde03",
					"owner()": "8da5cb5b",
					"paused()": "5c975abb",
					"preSaleActive()": "84494708",
					"preSaleEndPrice()": "8f7713ff",
					"preSaleSoldTokens()": "b68ed11f",
					"preSaleStartPrice()": "920168b3",
					"preSaleStartTime()": "06d65af3",
					"preSaleTargetFunds()": "ef5b329c",
					"preSaleTokens()": "0fe83bb8",
					"privateSaleActive()": "2a237bb6",
					"privateSaleEndPrice()": "bda95633",
					"privateSaleSoldTokens()": "5fb3b944",
					"privateSaleStartPrice()": "b0e68630",
					"privateSaleStartTime()": "940de97e",
					"privateSaleTokens()": "c552e04b",
					"renounceOwnership()": "715018a6",
					"startPreSale()": "55dd574c",
					"startPrivateSale(uint256)": "a089de2f",
					"symbol()": "95d89b41",
					"totalSupply()": "18160ddd",
					"transfer(address,uint256)": "a9059cbb",
					"transferFrom(address,address,uint256)": "23b872dd",
					"transferOwnership(address)": "f2fde38b",
					"vestingSchedules(address)": "fdb20ccb",
					"withdrawETH()": "e086e5ec",
					"withdrawTokens()": "8d8f2adb"
				}
			},
			"storageLayout": {
				"storage": [
					{
						"astId": 480,
						"contract": "contracts/bet.sol:Bettoken",
						"label": "_balances",
						"offset": 0,
						"slot": "0",
						"type": "t_mapping(t_address,t_uint256)"
					},
					{
						"astId": 486,
						"contract": "contracts/bet.sol:Bettoken",
						"label": "_allowances",
						"offset": 0,
						"slot": "1",
						"type": "t_mapping(t_address,t_mapping(t_address,t_uint256))"
					},
					{
						"astId": 488,
						"contract": "contracts/bet.sol:Bettoken",
						"label": "_totalSupply",
						"offset": 0,
						"slot": "2",
						"type": "t_uint256"
					},
					{
						"astId": 490,
						"contract": "contracts/bet.sol:Bettoken",
						"label": "_name",
						"offset": 0,
						"slot": "3",
						"type": "t_string_storage"
					},
					{
						"astId": 492,
						"contract": "contracts/bet.sol:Bettoken",
						"label": "_symbol",
						"offset": 0,
						"slot": "4",
						"type": "t_string_storage"
					},
					{
						"astId": 8,
						"contract": "contracts/bet.sol:Bettoken",
						"label": "_owner",
						"offset": 0,
						"slot": "5",
						"type": "t_address"
					},
					{
						"astId": 403,
						"contract": "contracts/bet.sol:Bettoken",
						"label": "_status",
						"offset": 0,
						"slot": "6",
						"type": "t_uint256"
					},
					{
						"astId": 302,
						"contract": "contracts/bet.sol:Bettoken",
						"label": "_paused",
						"offset": 0,
						"slot": "7",
						"type": "t_bool"
					},
					{
						"astId": 1134,
						"contract": "contracts/bet.sol:Bettoken",
						"label": "privateSaleTokens",
						"offset": 0,
						"slot": "8",
						"type": "t_uint256"
					},
					{
						"astId": 1141,
						"contract": "contracts/bet.sol:Bettoken",
						"label": "privateSaleStartPrice",
						"offset": 0,
						"slot": "9",
						"type": "t_uint256"
					},
					{
						"astId": 1148,
						"contract": "contracts/bet.sol:Bettoken",
						"label": "privateSaleEndPrice",
						"offset": 0,
						"slot": "10",
						"type": "t_uint256"
					},
					{
						"astId": 1151,
						"contract": "contracts/bet.sol:Bettoken",
						"label": "privateSaleSoldTokens",
						"offset": 0,
						"slot": "11",
						"type": "t_uint256"
					},
					{
						"astId": 1153,
						"contract": "contracts/bet.sol:Bettoken",
						"label": "privateSaleStartTime",
						"offset": 0,
						"slot": "12",
						"type": "t_uint256"
					},
					{
						"astId": 1155,
						"contract": "contracts/bet.sol:Bettoken",
						"label": "affiliateRewardPercentage",
						"offset": 0,
						"slot": "13",
						"type": "t_uint256"
					},
					{
						"astId": 1162,
						"contract": "contracts/bet.sol:Bettoken",
						"label": "preSaleTokens",
						"offset": 0,
						"slot": "14",
						"type": "t_uint256"
					},
					{
						"astId": 1169,
						"contract": "contracts/bet.sol:Bettoken",
						"label": "preSaleTargetFunds",
						"offset": 0,
						"slot": "15",
						"type": "t_uint256"
					},
					{
						"astId": 1176,
						"contract": "contracts/bet.sol:Bettoken",
						"label": "preSaleStartPrice",
						"offset": 0,
						"slot": "16",
						"type": "t_uint256"
					},
					{
						"astId": 1183,
						"contract": "contracts/bet.sol:Bettoken",
						"label": "preSaleEndPrice",
						"offset": 0,
						"slot": "17",
						"type": "t_uint256"
					},
					{
						"astId": 1186,
						"contract": "contracts/bet.sol:Bettoken",
						"label": "preSaleSoldTokens",
						"offset": 0,
						"slot": "18",
						"type": "t_uint256"
					},
					{
						"astId": 1188,
						"contract": "contracts/bet.sol:Bettoken",
						"label": "preSaleStartTime",
						"offset": 0,
						"slot": "19",
						"type": "t_uint256"
					},
					{
						"astId": 1191,
						"contract": "contracts/bet.sol:Bettoken",
						"label": "preSaleActive",
						"offset": 0,
						"slot": "20",
						"type": "t_bool"
					},
					{
						"astId": 1198,
						"contract": "contracts/bet.sol:Bettoken",
						"label": "minPurchaseAmountPreSale",
						"offset": 0,
						"slot": "21",
						"type": "t_uint256"
					},
					{
						"astId": 1205,
						"contract": "contracts/bet.sol:Bettoken",
						"label": "maxPurchaseAmountPreSale",
						"offset": 0,
						"slot": "22",
						"type": "t_uint256"
					},
					{
						"astId": 1221,
						"contract": "contracts/bet.sol:Bettoken",
						"label": "vestingSchedules",
						"offset": 0,
						"slot": "23",
						"type": "t_mapping(t_address,t_struct(VestingSchedule)1216_storage)"
					},
					{
						"astId": 1224,
						"contract": "contracts/bet.sol:Bettoken",
						"label": "privateSaleActive",
						"offset": 0,
						"slot": "24",
						"type": "t_bool"
					}
				],
				"types": {
					"t_address": {
						"encoding": "inplace",
						"label": "address",
						"numberOfBytes": "20"
					},
					"t_bool": {
						"encoding": "inplace",
						"label": "bool",
						"numberOfBytes": "1"
					},
					"t_mapping(t_address,t_mapping(t_address,t_uint256))": {
						"encoding": "mapping",
						"key": "t_address",
						"label": "mapping(address => mapping(address => uint256))",
						"numberOfBytes": "32",
						"value": "t_mapping(t_address,t_uint256)"
					},
					"t_mapping(t_address,t_struct(VestingSchedule)1216_storage)": {
						"encoding": "mapping",
						"key": "t_address",
						"label": "mapping(address => struct Bettoken.VestingSchedule)",
						"numberOfBytes": "32",
						"value": "t_struct(VestingSchedule)1216_storage"
					},
					"t_mapping(t_address,t_uint256)": {
						"encoding": "mapping",
						"key": "t_address",
						"label": "mapping(address => uint256)",
						"numberOfBytes": "32",
						"value": "t_uint256"
					},
					"t_string_storage": {
						"encoding": "bytes",
						"label": "string",
						"numberOfBytes": "32"
					},
					"t_struct(VestingSchedule)1216_storage": {
						"encoding": "inplace",
						"label": "struct Bettoken.VestingSchedule",
						"members": [
							{
								"astId": 1207,
								"contract": "contracts/bet.sol:Bettoken",
								"label": "totalAmount",
								"offset": 0,
								"slot": "0",
								"type": "t_uint256"
							},
							{
								"astId": 1209,
								"contract": "contracts/bet.sol:Bettoken",
								"label": "releasedAmount",
								"offset": 0,
								"slot": "1",
								"type": "t_uint256"
							},
							{
								"astId": 1211,
								"contract": "contracts/bet.sol:Bettoken",
								"label": "startTime",
								"offset": 0,
								"slot": "2",
								"type": "t_uint256"
							},
							{
								"astId": 1213,
								"contract": "contracts/bet.sol:Bettoken",
								"label": "duration",
								"offset": 0,
								"slot": "3",
								"type": "t_uint256"
							},
							{
								"astId": 1215,
								"contract": "contracts/bet.sol:Bettoken",
								"label": "interval",
								"offset": 0,
								"slot": "4",
								"type": "t_uint256"
							}
						],
						"numberOfBytes": "160"
					},
					"t_uint256": {
						"encoding": "inplace",
						"label": "uint256",
						"numberOfBytes": "32"
					}
				}
			},
			"userdoc": {
				"kind": "user",
				"methods": {},
				"version": 1
			}
		}
	}
}