{
	"data": {
		"bytecode": {
			"linkReferences": {},
			"object": "6101606040526000600f60006101000a81548160ff021916908315150217905550600060115566038d7ea4c680006012556611c37937e08000601355683635c9adc5dea000006014556000601560006101000a81548160ff02191690831515021790555060006016556611c37937e0800060175567016345785d8a000060185568056bc75e2d6310000060195568a2a15d09519be00000601a556000601b60006101000a81548160ff0219169083151502179055506005602460006101000a81548160ff021916908360ff160217905550348015620000dd57600080fd5b506040518060400160405280600881526020017f426574746f6b656e000000000000000000000000000000000000000000000000815250806040518060400160405280600181526020017f3100000000000000000000000000000000000000000000000000000000000000815250336040518060400160405280600881526020017f426574746f6b656e0000000000000000000000000000000000000000000000008152506040518060400160405280600481526020017f42455454000000000000000000000000000000000000000000000000000000008152508160039081620001c9919062000c3f565b508060049081620001db919062000c3f565b505050600073ffffffffffffffffffffffffffffffffffffffff168173ffffffffffffffffffffffffffffffffffffffff1603620002535760006040517f1e4fbdf70000000000000000000000000000000000000000000000000000000081526004016200024a919062000d6b565b60405180910390fd5b62000264816200041460201b60201c565b5060016006819055506000600760006101000a81548160ff0219169083151502179055506200029e600883620004da60201b90919060201c565b6101208181525050620002bc600982620004da60201b90919060201c565b6101408181525050818051906020012060e08181525050808051906020012061010081815250504660a08181525050620002fb6200053260201b60201c565b608081815250503073ffffffffffffffffffffffffffffffffffffffff1660c08173ffffffffffffffffffffffffffffffffffffffff168152505050505062000357306b033b2e3c9fd0803ce80000006200058f60201b60201c565b6200037630336b019d971e4fe8401e740000006200061c60201b60201c565b6200039430336a7c13bc4b2c133c560000006200061c60201b60201c565b620003b230336a295be96e640669720000006200061c60201b60201c565b6301e1338042620003c4919062000db7565b6010819055507fbddc4f8670f571be4409ca0d3264084e2a3f0fce1bce3458bf062822a6dde4406a52b7d2dcc80cd2e400000060405162000406919062000e03565b60405180910390a16200102a565b6000600560009054906101000a900473ffffffffffffffffffffffffffffffffffffffff16905081600560006101000a81548173ffffffffffffffffffffffffffffffffffffffff021916908373ffffffffffffffffffffffffffffffffffffffff1602179055508173ffffffffffffffffffffffffffffffffffffffff168173ffffffffffffffffffffffffffffffffffffffff167f8be0079c531659141344cd1fd0a4f28419497f9722a3daafe3b4186f6b6457e060405160405180910390a35050565b60006020835110156200050057620004f8836200071e60201b60201c565b90506200052c565b8262000512836200078b60201b60201c565b600001908162000523919062000c3f565b5060ff60001b90505b92915050565b60007f8b73c3c69bb8fe3d512ecc4cf759cc79239f7b179b0ffacaa9a75d522b39400f60e0516101005146306040516020016200057495949392919062000e3b565b60405160208183030381529060405280519060200120905090565b600073ffffffffffffffffffffffffffffffffffffffff168273ffffffffffffffffffffffffffffffffffffffff1603620006045760006040517fec442f05000000000000000000000000000000000000000000000000000000008152600401620005fb919062000d6b565b60405180910390fd5b62000618600083836200079560201b60201c565b5050565b600073ffffffffffffffffffffffffffffffffffffffff168373ffffffffffffffffffffffffffffffffffffffff1603620006915760006040517f96c6fd1e00000000000000000000000000000000000000000000000000000000815260040162000688919062000d6b565b60405180910390fd5b600073ffffffffffffffffffffffffffffffffffffffff168273ffffffffffffffffffffffffffffffffffffffff1603620007065760006040517fec442f05000000000000000000000000000000000000000000000000000000008152600401620006fd919062000d6b565b60405180910390fd5b620007198383836200079560201b60201c565b505050565b600080829050601f815111156200076e57826040517f305a27a900000000000000000000000000000000000000000000000000000000815260040162000765919062000f27565b60405180910390fd5b8051816200077c9062000f7d565b60001c1760001b915050919050565b6000819050919050565b600073ffffffffffffffffffffffffffffffffffffffff168373ffffffffffffffffffffffffffffffffffffffff1603620007eb578060026000828254620007de919062000db7565b92505081905550620008c1565b60008060008573ffffffffffffffffffffffffffffffffffffffff1673ffffffffffffffffffffffffffffffffffffffff168152602001908152602001600020549050818110156200087a578381836040517fe450d38c000000000000000000000000000000000000000000000000000000008152600401620008719392919062000fed565b60405180910390fd5b8181036000808673ffffffffffffffffffffffffffffffffffffffff1673ffffffffffffffffffffffffffffffffffffffff16815260200190815260200160002081905550505b600073ffffffffffffffffffffffffffffffffffffffff168273ffffffffffffffffffffffffffffffffffffffff16036200090c578060026000828254039250508190555062000959565b806000808473ffffffffffffffffffffffffffffffffffffffff1673ffffffffffffffffffffffffffffffffffffffff168152602001908152602001600020600082825401925050819055505b8173ffffffffffffffffffffffffffffffffffffffff168373ffffffffffffffffffffffffffffffffffffffff167fddf252ad1be2c89b69c2b068fc378daa952ba7f163c4a11628f55a4df523b3ef83604051620009b8919062000e03565b60405180910390a3505050565b600081519050919050565b7f4e487b7100000000000000000000000000000000000000000000000000000000600052604160045260246000fd5b7f4e487b7100000000000000000000000000000000000000000000000000000000600052602260045260246000fd5b6000600282049050600182168062000a4757607f821691505b60208210810362000a5d5762000a5c620009ff565b5b50919050565b60008190508160005260206000209050919050565b60006020601f8301049050919050565b600082821b905092915050565b60006008830262000ac77fffffffffffffffffffffffffffffffffffffffffffffffffffffffffffffffff8262000a88565b62000ad3868362000a88565b95508019841693508086168417925050509392505050565b6000819050919050565b6000819050919050565b600062000b2062000b1a62000b148462000aeb565b62000af5565b62000aeb565b9050919050565b6000819050919050565b62000b3c8362000aff565b62000b5462000b4b8262000b27565b84845462000a95565b825550505050565b600090565b62000b6b62000b5c565b62000b7881848462000b31565b505050565b5b8181101562000ba05762000b9460008262000b61565b60018101905062000b7e565b5050565b601f82111562000bef5762000bb98162000a63565b62000bc48462000a78565b8101602085101562000bd4578190505b62000bec62000be38562000a78565b83018262000b7d565b50505b505050565b600082821c905092915050565b600062000c146000198460080262000bf4565b1980831691505092915050565b600062000c2f838362000c01565b9150826002028217905092915050565b62000c4a82620009c5565b67ffffffffffffffff81111562000c665762000c65620009d0565b5b62000c72825462000a2e565b62000c7f82828562000ba4565b600060209050601f83116001811462000cb7576000841562000ca2578287015190505b62000cae858262000c21565b86555062000d1e565b601f19841662000cc78662000a63565b60005b8281101562000cf15784890151825560018201915060208501945060208101905062000cca565b8683101562000d11578489015162000d0d601f89168262000c01565b8355505b6001600288020188555050505b505050505050565b600073ffffffffffffffffffffffffffffffffffffffff82169050919050565b600062000d538262000d26565b9050919050565b62000d658162000d46565b82525050565b600060208201905062000d82600083018462000d5a565b92915050565b7f4e487b7100000000000000000000000000000000000000000000000000000000600052601160045260246000fd5b600062000dc48262000aeb565b915062000dd18362000aeb565b925082820190508082111562000dec5762000deb62000d88565b5b92915050565b62000dfd8162000aeb565b82525050565b600060208201905062000e1a600083018462000df2565b92915050565b6000819050919050565b62000e358162000e20565b82525050565b600060a08201905062000e52600083018862000e2a565b62000e61602083018762000e2a565b62000e70604083018662000e2a565b62000e7f606083018562000df2565b62000e8e608083018462000d5a565b9695505050505050565b600082825260208201905092915050565b60005b8381101562000ec957808201518184015260208101905062000eac565b60008484015250505050565b6000601f19601f8301169050919050565b600062000ef382620009c5565b62000eff818562000e98565b935062000f1181856020860162000ea9565b62000f1c8162000ed5565b840191505092915050565b6000602082019050818103600083015262000f43818462000ee6565b905092915050565b600081519050919050565b6000819050602082019050919050565b600062000f74825162000e20565b80915050919050565b600062000f8a8262000f4b565b8262000f968462000f56565b905062000fa38162000f66565b9250602082101562000fe65762000fe17fffffffffffffffffffffffffffffffffffffffffffffffffffffffffffffffff8360200360080262000a88565b831692505b5050919050565b600060608201905062001004600083018662000d5a565b62001013602083018562000df2565b62001022604083018462000df2565b949350505050565b60805160a05160c05160e0516101005161012051610140516159846200108560003960006134a00152600061346501526000613a6d01526000613a4c01526000613059015260006130af015260006130d801526159846000f3fe60806040526004361061041f5760003560e01c8063715018a61161021e578063b0e6863011610123578063cce29ea7116100ab578063e43252d71161007a578063e43252d71461104b578063f2fde38b14611074578063fd5661b61461109d578063fd99cbed146110b4578063fdb20ccb146110df5761045f565b8063cce29ea714610f8f578063d50234c414610fba578063d505accf14610fe5578063dd62ed3e1461100e5761045f565b8063bda95633116100f2578063bda9563314610ea6578063bde7a37a14610ed1578063c7b5a48c14610efc578063c7ba026614610f27578063cb4b4ff914610f645761045f565b8063b0e6863014610e09578063b144662d14610e34578063b31c2f7214610e50578063b68ed11f14610e7b5761045f565b8063902d55a5116101a65780639b19251a116101755780639b19251a14610cfe578063a6c3e53114610d3b578063a81c804e14610d66578063a9059cbb14610d8f578063ab39f08a14610dcc5761045f565b8063902d55a514610c52578063920168b314610c7d57806395d89b4114610ca85780639843eae314610cd35761045f565b8063806019c1116101ed578063806019c114610b7757806384b0196e14610ba25780638ab1d68114610bd35780638da5cb5b14610bfc5780638f7713ff14610c275761045f565b8063715018a614610acf5780637343b05c14610ae65780637547c7a314610b115780637ecebe0014610b3a5761045f565b806350195f81116103245780635fb3b944116102ac5780636ad7ed371161027b5780636ad7ed37146109e65780636afb630a14610a115780636b0651db14610a3c5780636ddb627c14610a6757806370a0823114610a925761045f565b80635fb3b9441461093c578063644fe3ae146109675780636705a0031461097e5780636985e6d8146109a95761045f565b806359fa61a0116102f357806359fa61a0146108555780635b884160146108925780635c975abb146108bd5780635d5f26fe146108e85780635e39922a146109255761045f565b806350195f81146107e057806351858e27146107fc57806354dd1da414610813578063598cf1951461082a5761045f565b8063313ce567116103a75780633af32abf116103765780633af32abf1461070b5780633f4ba83a1461074857806340306fb61461075f578063432480841461078a5780634cfc4d30146107b55761045f565b8063313ce56714610661578063315a095d1461068c57806334d70532146106b55780633644e515146106e05761045f565b806318160ddd116103ee57806318160ddd1461057c57806323b872dd146105a757806324600fc3146105e4578063297155c9146105fb5780632b1cbc38146106245761045f565b806303f0cc641461049a57806306fdde03146104d7578063095ea7b31461050257806316934fc41461053f5761045f565b3661045f576040517f08c379a000000000000000000000000000000000000000000000000000000000815260040161045690613f8d565b60405180910390fd5b6040517f08c379a000000000000000000000000000000000000000000000000000000000815260040161049190613f8d565b60405180910390fd5b3480156104a657600080fd5b506104c160048036038101906104bc919061401f565b611120565b6040516104ce91906140cb565b60405180910390f35b3480156104e357600080fd5b506104ec6111c0565b6040516104f991906140cb565b60405180910390f35b34801561050e57600080fd5b5061052960048036038101906105249190614123565b611252565b604051610536919061417e565b60405180910390f35b34801561054b57600080fd5b506105666004803603810190610561919061401f565b611275565b60405161057391906141a8565b60405180910390f35b34801561058857600080fd5b5061059161128d565b60405161059e91906141a8565b60405180910390f35b3480156105b357600080fd5b506105ce60048036038101906105c991906141c3565b611297565b6040516105db919061417e565b60405180910390f35b3480156105f057600080fd5b506105f96112c6565b005b34801561060757600080fd5b50610622600480360381019061061d9190614216565b611414565b005b34801561063057600080fd5b5061064b6004803603810190610646919061401f565b611483565b60405161065891906141a8565b60405180910390f35b34801561066d57600080fd5b5061067661149a565b604051610683919061425f565b60405180910390f35b34801561069857600080fd5b506106b360048036038101906106ae9190614216565b6114a3565b005b3480156106c157600080fd5b506106ca611552565b6040516106d791906141a8565b60405180910390f35b3480156106ec57600080fd5b506106f5611558565b6040516107029190614293565b60405180910390f35b34801561071757600080fd5b50610732600480360381019061072d919061401f565b611567565b60405161073f919061417e565b60405180910390f35b34801561075457600080fd5b5061075d6115bd565b005b34801561076b57600080fd5b506107746115cf565b60405161078191906141a8565b60405180910390f35b34801561079657600080fd5b5061079f6115d5565b6040516107ac919061417e565b60405180910390f35b3480156107c157600080fd5b506107ca6115e8565b6040516107d791906141a8565b60405180910390f35b6107fa60048036038101906107f59190614313565b6115ef565b005b34801561080857600080fd5b50610811611997565b005b34801561081f57600080fd5b506108286119a9565b005b34801561083657600080fd5b5061083f611bef565b60405161084c91906141a8565b60405180910390f35b34801561086157600080fd5b5061087c600480360381019061087791906144a3565b611bfe565b60405161088991906144fb565b60405180910390f35b34801561089e57600080fd5b506108a7611c47565b6040516108b491906141a8565b60405180910390f35b3480156108c957600080fd5b506108d2611c57565b6040516108df919061417e565b60405180910390f35b3480156108f457600080fd5b5061090f600480360381019061090a919061401f565b611c6e565b60405161091c91906141a8565b60405180910390f35b34801561093157600080fd5b5061093a611c86565b005b34801561094857600080fd5b50610951611d2e565b60405161095e91906141a8565b60405180910390f35b34801561097357600080fd5b5061097c611d34565b005b34801561098a57600080fd5b50610993611dd0565b6040516109a091906141a8565b60405180910390f35b3480156109b557600080fd5b506109d060048036038101906109cb919061401f565b611dd6565b6040516109dd91906141a8565b60405180910390f35b3480156109f257600080fd5b506109fb611dee565b604051610a0891906141a8565b60405180910390f35b348015610a1d57600080fd5b50610a26611df4565b604051610a3391906141a8565b60405180910390f35b348015610a4857600080fd5b50610a51611dfc565b604051610a5e91906141a8565b60405180910390f35b348015610a7357600080fd5b50610a7c611e0b565b604051610a8991906141a8565b60405180910390f35b348015610a9e57600080fd5b50610ab96004803603810190610ab4919061401f565b611e1a565b604051610ac691906141a8565b60405180910390f35b348015610adb57600080fd5b50610ae4611e62565b005b348015610af257600080fd5b50610afb611e76565b604051610b08919061417e565b60405180910390f35b348015610b1d57600080fd5b50610b386004803603810190610b339190614216565b611e89565b005b348015610b4657600080fd5b50610b616004803603810190610b5c919061401f565b612116565b604051610b6e91906141a8565b60405180910390f35b348015610b8357600080fd5b50610b8c612128565b604051610b9991906141a8565b60405180910390f35b348015610bae57600080fd5b50610bb761212e565b604051610bca979695949392919061460f565b60405180910390f35b348015610bdf57600080fd5b50610bfa6004803603810190610bf5919061401f565b6121d8565b005b348015610c0857600080fd5b50610c116122be565b604051610c1e91906144fb565b60405180910390f35b348015610c3357600080fd5b50610c3c6122e8565b604051610c4991906141a8565b60405180910390f35b348015610c5e57600080fd5b50610c676122ee565b604051610c7491906141a8565b60405180910390f35b348015610c8957600080fd5b50610c926122fe565b604051610c9f91906141a8565b60405180910390f35b348015610cb457600080fd5b50610cbd612304565b604051610cca91906140cb565b60405180910390f35b348015610cdf57600080fd5b50610ce8612396565b604051610cf5919061417e565b60405180910390f35b348015610d0a57600080fd5b50610d256004803603810190610d20919061401f565b6123a9565b604051610d32919061417e565b60405180910390f35b348015610d4757600080fd5b50610d506123c9565b604051610d5d91906141a8565b60405180910390f35b348015610d7257600080fd5b50610d8d6004803603810190610d8891906146e9565b6123d8565b005b348015610d9b57600080fd5b50610db66004803603810190610db19190614123565b6124fe565b604051610dc3919061417e565b60405180910390f35b348015610dd857600080fd5b50610df36004803603810190610dee919061401f565b612521565b604051610e00919061417e565b60405180910390f35b348015610e1557600080fd5b50610e1e612541565b604051610e2b91906141a8565b60405180910390f35b610e4e6004803603810190610e499190614313565b612547565b005b348015610e5c57600080fd5b50610e6561294a565b604051610e7291906141a8565b60405180910390f35b348015610e8757600080fd5b50610e90612950565b604051610e9d91906141a8565b60405180910390f35b348015610eb257600080fd5b50610ebb612956565b604051610ec891906141a8565b60405180910390f35b348015610edd57600080fd5b50610ee661295c565b604051610ef391906141a8565b60405180910390f35b348015610f0857600080fd5b50610f11612962565b604051610f1e91906141a8565b60405180910390f35b348015610f3357600080fd5b50610f4e6004803603810190610f49919061401f565b612971565b604051610f5b91906141a8565b60405180910390f35b348015610f7057600080fd5b50610f79612989565b604051610f8691906141a8565b60405180910390f35b348015610f9b57600080fd5b50610fa4612998565b604051610fb191906141a8565b60405180910390f35b348015610fc657600080fd5b50610fcf61299e565b604051610fdc919061425f565b60405180910390f35b348015610ff157600080fd5b5061100c6004803603810190611007919061478e565b6129b1565b005b34801561101a57600080fd5b5061103560048036038101906110309190614830565b612af9565b60405161104291906141a8565b60405180910390f35b34801561105757600080fd5b50611072600480360381019061106d919061401f565b612b80565b005b34801561108057600080fd5b5061109b6004803603810190611096919061401f565b612c70565b005b3480156110a957600080fd5b506110b2612cf6565b005b3480156110c057600080fd5b506110c9612d97565b6040516110d691906141a8565b60405180910390f35b3480156110eb57600080fd5b506111066004803603810190611101919061401f565b612da6565b604051611117959493929190614870565b60405180910390f35b6022602052806000526040600020600091509050805461113f906148f2565b80601f016020809104026020016040519081016040528092919081815260200182805461116b906148f2565b80156111b85780601f1061118d576101008083540402835291602001916111b8565b820191906000526020600020905b81548152906001019060200180831161119b57829003601f168201915b505050505081565b6060600380546111cf906148f2565b80601f01602080910402602001604051908101604052809291908181526020018280546111fb906148f2565b80156112485780601f1061121d57610100808354040283529160200191611248565b820191906000526020600020905b81548152906001019060200180831161122b57829003601f168201915b5050505050905090565b60008061125d612ddc565b905061126a818585612de4565b600191505092915050565b601e6020528060005260406000206000915090505481565b6000600254905090565b6000806112a2612ddc565b90506112af858285612df6565b6112ba858585612e8a565b60019150509392505050565b6112ce612f7e565b6112d6613005565b60004790506000811161131e576040517f08c379a00000000000000000000000000000000000000000000000000000000081526004016113159061496f565b60405180910390fd5b60006113286122be565b73ffffffffffffffffffffffffffffffffffffffff168260405161134b906149c0565b60006040518083038185875af1925050503d8060008114611388576040519150601f19603f3d011682016040523d82523d6000602084013e61138d565b606091505b50509050806113d1576040517f08c379a00000000000000000000000000000000000000000000000000000000081526004016113c890614a21565b60405180910390fd5b7f4a37b25aab49761ecf63117fe82b98d750917451133cf797507bc9fb5b96044a8260405161140091906141a8565b60405180910390a1505061141261304b565b565b61141c612f7e565b8061142630611e1a565b1015611467576040517f08c379a000000000000000000000000000000000000000000000000000000000815260040161145e90614ab3565b60405180910390fd5b80600b60008282546114799190614b02565b9250508190555050565b602080528060005260406000206000915090505481565b60006012905090565b6114ab612f7e565b6114b3613005565b806114bd30611e1a565b10156114fe576040517f08c379a00000000000000000000000000000000000000000000000000000000081526004016114f590614b82565b60405180910390fd5b6115103061150a6122be565b83612e8a565b7f9c6393f251205f9e03559951cab4c9ae71767b6174f77944a5b0c2fa51fbda9f8160405161153f91906141a8565b60405180910390a161154f61304b565b50565b60195481565b6000611562613055565b905090565b6000602660008373ffffffffffffffffffffffffffffffffffffffff1673ffffffffffffffffffffffffffffffffffffffff16815260200190815260200160002060009054906101000a900460ff169050919050565b6115c5612f7e565b6115cd61310c565b565b600c5481565b601b60009054906101000a900460ff1681565b62ed4e0081565b6115f7613005565b6115ff61316f565b602660003373ffffffffffffffffffffffffffffffffffffffff1673ffffffffffffffffffffffffffffffffffffffff16815260200190815260200160002060009054906101000a900460ff1661168b576040517f08c379a000000000000000000000000000000000000000000000000000000000815260040161168290614bee565b60405180910390fd5b601560009054906101000a900460ff16156116db576040517f08c379a00000000000000000000000000000000000000000000000000000000081526004016116d290614c5a565b60405180910390fd5b601454831015611720576040517f08c379a000000000000000000000000000000000000000000000000000000000815260040161171790614cec565b60405180910390fd5b6a295be96e640669720000006011541061176f576040517f08c379a000000000000000000000000000000000000000000000000000000000815260040161176690614d58565b60405180910390fd5b600061177a846131b0565b9050806011600082825461178e9190614b02565b925050819055506a295be96e6406697200000060115411156117e5576040517f08c379a00000000000000000000000000000000000000000000000000000000081526004016117dc90614dc4565b60405180910390fd5b600083839050111561192c57600060238484604051611805929190614e14565b908152602001604051809103902060009054906101000a900473ffffffffffffffffffffffffffffffffffffffff169050600073ffffffffffffffffffffffffffffffffffffffff168173ffffffffffffffffffffffffffffffffffffffff16036118a5576040517f08c379a000000000000000000000000000000000000000000000000000000000815260040161189c90614e79565b60405180910390fd5b60006064602460009054906101000a900460ff1660ff16846118c79190614e99565b6118d19190614f0a565b905080602560008473ffffffffffffffffffffffffffffffffffffffff1673ffffffffffffffffffffffffffffffffffffffff16815260200190815260200160002060008282546119229190614b02565b9250508190555050505b611937303383612e8a565b3373ffffffffffffffffffffffffffffffffffffffff167f25dd73b03754ef2fb74e5ae3ba497df2dd6275f098501ba76082ea0a1a13017882858560405161198193929190614f68565b60405180910390a25061199261304b565b505050565b61199f612f7e565b6119a7613268565b565b6119b1613005565b6119b961316f565b6000601e60003373ffffffffffffffffffffffffffffffffffffffff1673ffffffffffffffffffffffffffffffffffffffff1681526020019081526020016000205411611a3b576040517f08c379a0000000000000000000000000000000000000000000000000000000008152600401611a3290614fe6565b60405180910390fd5b602060003373ffffffffffffffffffffffffffffffffffffffff1673ffffffffffffffffffffffffffffffffffffffff16815260200190815260200160002054421015611abd576040517f08c379a0000000000000000000000000000000000000000000000000000000008152600401611ab490615078565b60405180910390fd5b6000601e60003373ffffffffffffffffffffffffffffffffffffffff1673ffffffffffffffffffffffffffffffffffffffff1681526020019081526020016000205490506000601e60003373ffffffffffffffffffffffffffffffffffffffff1673ffffffffffffffffffffffffffffffffffffffff168152602001908152602001600020819055506000602060003373ffffffffffffffffffffffffffffffffffffffff1673ffffffffffffffffffffffffffffffffffffffff16815260200190815260200160002081905550611b96303383612e8a565b3373ffffffffffffffffffffffffffffffffffffffff167f6bc5063c7239b75c8bf325a2a2238f726fada322163996bb6c93d5594fb119f082604051611bdc91906141a8565b60405180910390a250611bed61304b565b565b6a7c13bc4b2c133c5600000081565b6023818051602081018201805184825260208301602085012081835280955050505050506000915054906101000a900473ffffffffffffffffffffffffffffffffffffffff1681565b6b019d971e4fe8401e7400000081565b6000600760009054906101000a900460ff16905090565b60216020528060005260406000206000915090505481565b611c8e612f7e565b601b60009054906101000a900460ff1615611cde576040517f08c379a0000000000000000000000000000000000000000000000000000000008152600401611cd5906150e4565b60405180910390fd5b6001601b60006101000a81548160ff02191690831515021790555042601c819055507f1e3e27630243df12c61f4fd689e14b5388b09e8da13877de9378fb84e99c42fa60405160405180910390a1565b60115481565b611d3c612f7e565b6000600b5411611d81576040517f08c379a0000000000000000000000000000000000000000000000000000000008152600401611d7890615150565b60405180910390fd5b611d8d30600b546132cb565b7f6ef4855b666dcc7884561072e4358b28dfe01feb1b7f4dcebc00e62d50394ac7600b54604051611dbe91906141a8565b60405180910390a16000600b81905550565b60105481565b601f6020528060005260406000206000915090505481565b600b5481565b6301e1338081565b6a295be96e6406697200000081565b6a7c13bc4b2c133c5600000081565b60008060008373ffffffffffffffffffffffffffffffffffffffff1673ffffffffffffffffffffffffffffffffffffffff168152602001908152602001600020549050919050565b611e6a612f7e565b611e74600061334d565b565b601560009054906101000a900460ff1681565b611e91613005565b611e9961316f565b60008111611edc576040517f08c379a0000000000000000000000000000000000000000000000000000000008152600401611ed3906151e2565b60405180910390fd5b80611ee633611e1a565b1015611f27576040517f08c379a0000000000000000000000000000000000000000000000000000000008152600401611f1e9061524e565b60405180910390fd5b601b60009054906101000a900460ff16611f76576040517f08c379a0000000000000000000000000000000000000000000000000000000008152600401611f6d906152e0565b60405180910390fd5b611f81333083612e8a565b80601e60003373ffffffffffffffffffffffffffffffffffffffff1673ffffffffffffffffffffffffffffffffffffffff1681526020019081526020016000206000828254611fd09190614b02565b9250508190555042601f60003373ffffffffffffffffffffffffffffffffffffffff1673ffffffffffffffffffffffffffffffffffffffff1681526020019081526020016000208190555062ed4e006301e133804261202f9190614b02565b6120399190614b02565b602060003373ffffffffffffffffffffffffffffffffffffffff1673ffffffffffffffffffffffffffffffffffffffff168152602001908152602001600020819055503373ffffffffffffffffffffffffffffffffffffffff167fdd2a19c3bdd089cbe77c04f5655f83de0504d6140d12c8667646f55d0557c4dc82602060003373ffffffffffffffffffffffffffffffffffffffff1673ffffffffffffffffffffffffffffffffffffffff16815260200190815260200160002054604051612103929190615300565b60405180910390a261211361304b565b50565b600061212182613413565b9050919050565b600d5481565b60006060806000806000606061214261345c565b61214a613497565b46306000801b600067ffffffffffffffff81111561216b5761216a614378565b5b6040519080825280602002602001820160405280156121995781602001602082028036833780820191505090505b507f0f00000000000000000000000000000000000000000000000000000000000000959493929190965096509650965096509650965090919293949596565b6121e0612f7e565b602660008273ffffffffffffffffffffffffffffffffffffffff1673ffffffffffffffffffffffffffffffffffffffff16815260200190815260200160002060009054906101000a900460ff1661226c576040517f08c379a000000000000000000000000000000000000000000000000000000000815260040161226390615375565b60405180910390fd5b602660008273ffffffffffffffffffffffffffffffffffffffff1673ffffffffffffffffffffffffffffffffffffffff16815260200190815260200160002060006101000a81549060ff021916905550565b6000600560009054906101000a900473ffffffffffffffffffffffffffffffffffffffff16905090565b60185481565b6b033b2e3c9fd0803ce800000081565b60175481565b606060048054612313906148f2565b80601f016020809104026020016040519081016040528092919081815260200182805461233f906148f2565b801561238c5780601f106123615761010080835404028352916020019161238c565b820191906000526020600020905b81548152906001019060200180831161236f57829003601f168201915b5050505050905090565b600f60009054906101000a900460ff1681565b60266020528060005260406000206000915054906101000a900460ff1681565b6a295be96e6406697200000081565b6123e0612f7e565b60005b828290508110156124f9576026600084848481811061240557612404615395565b5b905060200201602081019061241a919061401f565b73ffffffffffffffffffffffffffffffffffffffff1673ffffffffffffffffffffffffffffffffffffffff16815260200190815260200160002060009054906101000a900460ff166124e65760016026600085858581811061247f5761247e615395565b5b9050602002016020810190612494919061401f565b73ffffffffffffffffffffffffffffffffffffffff1673ffffffffffffffffffffffffffffffffffffffff16815260200190815260200160002060006101000a81548160ff0219169083151502179055505b80806124f1906153c4565b9150506123e3565b505050565b600080612509612ddc565b9050612516818585612e8a565b600191505092915050565b600e6020528060005260406000206000915054906101000a900460ff1681565b60125481565b61254f613005565b61255761316f565b601b60009054906101000a900460ff16156125a7576040517f08c379a000000000000000000000000000000000000000000000000000000000815260040161259e90615458565b60405180910390fd5b60195483101580156125bb5750601a548311155b6125fa576040517f08c379a00000000000000000000000000000000000000000000000000000000081526004016125f1906154c4565b60405180910390fd5b6a7c13bc4b2c133c5600000060165410612649576040517f08c379a000000000000000000000000000000000000000000000000000000000815260040161264090615530565b60405180910390fd5b6000612654846134d2565b9050600084602160003373ffffffffffffffffffffffffffffffffffffffff1673ffffffffffffffffffffffffffffffffffffffff168152602001908152602001600020546126a39190614b02565b9050601a548111156126ea576040517f08c379a00000000000000000000000000000000000000000000000000000000081526004016126e1906155c2565b60405180910390fd5b80602160003373ffffffffffffffffffffffffffffffffffffffff1673ffffffffffffffffffffffffffffffffffffffff1681526020019081526020016000208190555081601660008282546127409190614b02565b925050819055506a7c13bc4b2c133c560000006016541115612797576040517f08c379a000000000000000000000000000000000000000000000000000000000815260040161278e9061562e565b60405180910390fd5b60008484905011156128de576000602385856040516127b7929190614e14565b908152602001604051809103902060009054906101000a900473ffffffffffffffffffffffffffffffffffffffff169050600073ffffffffffffffffffffffffffffffffffffffff168173ffffffffffffffffffffffffffffffffffffffff1603612857576040517f08c379a000000000000000000000000000000000000000000000000000000000815260040161284e90614e79565b60405180910390fd5b60006064602460009054906101000a900460ff1660ff16856128799190614e99565b6128839190614f0a565b905080602560008473ffffffffffffffffffffffffffffffffffffffff1673ffffffffffffffffffffffffffffffffffffffff16815260200190815260200160002060008282546128d49190614b02565b9250508190555050505b6128e9303384612e8a565b3373ffffffffffffffffffffffffffffffffffffffff167f3607c497e362683edfec3f75d9cf47e46ad5d2febcdb84bc5f7c1264ee9d9d7883868660405161293393929190614f68565b60405180910390a2505061294561304b565b505050565b601a5481565b60165481565b60135481565b60145481565b6a7c13bc4b2c133c5600000081565b60256020528060005260406000206000915090505481565b6a295be96e6406697200000081565b601c5481565b602460009054906101000a900460ff1681565b834211156129f657836040517f627913020000000000000000000000000000000000000000000000000000000081526004016129ed91906141a8565b60405180910390fd5b60007f6e71edae12b1b97f4d1f60370fef10105fa2faae0126114a169c64845d6126c9888888612a258c61358a565b89604051602001612a3b9695949392919061564e565b6040516020818303038152906040528051906020012090506000612a5e826135e1565b90506000612a6e828787876135fb565b90508973ffffffffffffffffffffffffffffffffffffffff168173ffffffffffffffffffffffffffffffffffffffff1614612ae257808a6040517f4b800e46000000000000000000000000000000000000000000000000000000008152600401612ad99291906156af565b60405180910390fd5b612aed8a8a8a612de4565b50505050505050505050565b6000600160008473ffffffffffffffffffffffffffffffffffffffff1673ffffffffffffffffffffffffffffffffffffffff16815260200190815260200160002060008373ffffffffffffffffffffffffffffffffffffffff1673ffffffffffffffffffffffffffffffffffffffff16815260200190815260200160002054905092915050565b612b88612f7e565b602660008273ffffffffffffffffffffffffffffffffffffffff1673ffffffffffffffffffffffffffffffffffffffff16815260200190815260200160002060009054906101000a900460ff1615612c15576040517f08c379a0000000000000000000000000000000000000000000000000000000008152600401612c0c90615724565b60405180910390fd5b6001602660008373ffffffffffffffffffffffffffffffffffffffff1673ffffffffffffffffffffffffffffffffffffffff16815260200190815260200160002060006101000a81548160ff02191690831515021790555050565b612c78612f7e565b600073ffffffffffffffffffffffffffffffffffffffff168173ffffffffffffffffffffffffffffffffffffffff1603612cea5760006040517f1e4fbdf7000000000000000000000000000000000000000000000000000000008152600401612ce191906144fb565b60405180910390fd5b612cf38161334d565b50565b612cfe612f7e565b601560009054906101000a900460ff1615612d4e576040517f08c379a0000000000000000000000000000000000000000000000000000000008152600401612d4590615790565b60405180910390fd5b6001601560006101000a81548160ff0219169083151502179055507f12fcd070c773929ce838b1791e3a5b8a7630d567bada259980130258a27dfe5860405160405180910390a1565b6a52b7d2dcc80cd2e400000081565b601d6020528060005260406000206000915090508060000154908060010154908060020154908060030154908060040154905085565b600033905090565b612df1838383600161362b565b505050565b6000612e028484612af9565b90507fffffffffffffffffffffffffffffffffffffffffffffffffffffffffffffffff8114612e845781811015612e74578281836040517ffb8f41b2000000000000000000000000000000000000000000000000000000008152600401612e6b939291906157b0565b60405180910390fd5b612e838484848403600061362b565b5b50505050565b600073ffffffffffffffffffffffffffffffffffffffff168373ffffffffffffffffffffffffffffffffffffffff1603612efc5760006040517f96c6fd1e000000000000000000000000000000000000000000000000000000008152600401612ef391906144fb565b60405180910390fd5b600073ffffffffffffffffffffffffffffffffffffffff168273ffffffffffffffffffffffffffffffffffffffff1603612f6e5760006040517fec442f05000000000000000000000000000000000000000000000000000000008152600401612f6591906144fb565b60405180910390fd5b612f79838383613802565b505050565b612f86612ddc565b73ffffffffffffffffffffffffffffffffffffffff16612fa46122be565b73ffffffffffffffffffffffffffffffffffffffff161461300357612fc7612ddc565b6040517f118cdaa7000000000000000000000000000000000000000000000000000000008152600401612ffa91906144fb565b60405180910390fd5b565b600260065403613041576040517f3ee5aeb500000000000000000000000000000000000000000000000000000000815260040160405180910390fd5b6002600681905550565b6001600681905550565b60007f000000000000000000000000000000000000000000000000000000000000000073ffffffffffffffffffffffffffffffffffffffff163073ffffffffffffffffffffffffffffffffffffffff161480156130d157507f000000000000000000000000000000000000000000000000000000000000000046145b156130fe577f00000000000000000000000000000000000000000000000000000000000000009050613109565b613106613a27565b90505b90565b613114613abd565b6000600760006101000a81548160ff0219169083151502179055507f5db9ee0a495bf2e6ff9c91a7834c1ba4fdd244a5e8aa4e537bd38aeae4b073aa613158612ddc565b60405161316591906144fb565b60405180910390a1565b613177611c57565b156131ae576040517fd93c066500000000000000000000000000000000000000000000000000000000815260040160405180910390fd5b565b6000806012546013546131c391906157e7565b905060006a295be96e64066972000000601154836131e19190614e99565b6131eb9190614f0a565b6012546131f89190614b02565b9050601254811015801561320e57506013548111155b61324d576040517f08c379a000000000000000000000000000000000000000000000000000000000815260040161324490615867565b60405180910390fd5b6000818561325b9190614f0a565b9050809350505050919050565b61327061316f565b6001600760006101000a81548160ff0219169083151502179055507f62e78cea01bee320cd4e420270b5ea74000d11b0c9f74754ebdbfc544b05a2586132b4612ddc565b6040516132c191906144fb565b60405180910390a1565b600073ffffffffffffffffffffffffffffffffffffffff168273ffffffffffffffffffffffffffffffffffffffff160361333d5760006040517f96c6fd1e00000000000000000000000000000000000000000000000000000000815260040161333491906144fb565b60405180910390fd5b61334982600083613802565b5050565b6000600560009054906101000a900473ffffffffffffffffffffffffffffffffffffffff16905081600560006101000a81548173ffffffffffffffffffffffffffffffffffffffff021916908373ffffffffffffffffffffffffffffffffffffffff1602179055508173ffffffffffffffffffffffffffffffffffffffff168173ffffffffffffffffffffffffffffffffffffffff167f8be0079c531659141344cd1fd0a4f28419497f9722a3daafe3b4186f6b6457e060405160405180910390a35050565b6000600a60008373ffffffffffffffffffffffffffffffffffffffff1673ffffffffffffffffffffffffffffffffffffffff168152602001908152602001600020549050919050565b606061349260087f0000000000000000000000000000000000000000000000000000000000000000613afd90919063ffffffff16565b905090565b60606134cd60097f0000000000000000000000000000000000000000000000000000000000000000613afd90919063ffffffff16565b905090565b6000806017546018546134e591906157e7565b905060006a7c13bc4b2c133c56000000601654836135039190614e99565b61350d9190614f0a565b60175461351a9190614b02565b9050601754811015801561353057506018548111155b61356f576040517f08c379a000000000000000000000000000000000000000000000000000000000815260040161356690615867565b60405180910390fd5b6000818561357d9190614f0a565b9050809350505050919050565b6000600a60008373ffffffffffffffffffffffffffffffffffffffff1673ffffffffffffffffffffffffffffffffffffffff1681526020019081526020016000206000815480929190600101919050559050919050565b60006135f46135ee613055565b83613bad565b9050919050565b60008060008061360d88888888613bee565b92509250925061361d8282613ce2565b829350505050949350505050565b600073ffffffffffffffffffffffffffffffffffffffff168473ffffffffffffffffffffffffffffffffffffffff160361369d5760006040517fe602df0500000000000000000000000000000000000000000000000000000000815260040161369491906144fb565b60405180910390fd5b600073ffffffffffffffffffffffffffffffffffffffff168373ffffffffffffffffffffffffffffffffffffffff160361370f5760006040517f94280d6200000000000000000000000000000000000000000000000000000000815260040161370691906144fb565b60405180910390fd5b81600160008673ffffffffffffffffffffffffffffffffffffffff1673ffffffffffffffffffffffffffffffffffffffff16815260200190815260200160002060008573ffffffffffffffffffffffffffffffffffffffff1673ffffffffffffffffffffffffffffffffffffffff1681526020019081526020016000208190555080156137fc578273ffffffffffffffffffffffffffffffffffffffff168473ffffffffffffffffffffffffffffffffffffffff167f8c5be1e5ebec7d5bd14f71427d1e84f3dd0314c0f7b2291e5b200ac8c7c3b925846040516137f391906141a8565b60405180910390a35b50505050565b600073ffffffffffffffffffffffffffffffffffffffff168373ffffffffffffffffffffffffffffffffffffffff16036138545780600260008282546138489190614b02565b92505081905550613927565b60008060008573ffffffffffffffffffffffffffffffffffffffff1673ffffffffffffffffffffffffffffffffffffffff168152602001908152602001600020549050818110156138e0578381836040517fe450d38c0000000000000000000000000000000000000000000000000000000081526004016138d7939291906157b0565b60405180910390fd5b8181036000808673ffffffffffffffffffffffffffffffffffffffff1673ffffffffffffffffffffffffffffffffffffffff16815260200190815260200160002081905550505b600073ffffffffffffffffffffffffffffffffffffffff168273ffffffffffffffffffffffffffffffffffffffff160361397057806002600082825403925050819055506139bd565b806000808473ffffffffffffffffffffffffffffffffffffffff1673ffffffffffffffffffffffffffffffffffffffff168152602001908152602001600020600082825401925050819055505b8173ffffffffffffffffffffffffffffffffffffffff168373ffffffffffffffffffffffffffffffffffffffff167fddf252ad1be2c89b69c2b068fc378daa952ba7f163c4a11628f55a4df523b3ef83604051613a1a91906141a8565b60405180910390a3505050565b60007f8b73c3c69bb8fe3d512ecc4cf759cc79239f7b179b0ffacaa9a75d522b39400f7f00000000000000000000000000000000000000000000000000000000000000007f00000000000000000000000000000000000000000000000000000000000000004630604051602001613aa2959493929190615887565b60405160208183030381529060405280519060200120905090565b613ac5611c57565b613afb576040517f8dfc202b00000000000000000000000000000000000000000000000000000000815260040160405180910390fd5b565b606060ff60001b8314613b1a57613b1383613e46565b9050613ba7565b818054613b26906148f2565b80601f0160208091040260200160405190810160405280929190818152602001828054613b52906148f2565b8015613b9f5780601f10613b7457610100808354040283529160200191613b9f565b820191906000526020600020905b815481529060010190602001808311613b8257829003601f168201915b505050505090505b92915050565b60006040517f190100000000000000000000000000000000000000000000000000000000000081528360028201528260228201526042812091505092915050565b60008060007f7fffffffffffffffffffffffffffffff5d576e7357a4501ddfe92f46681b20a08460001c1115613c2e576000600385925092509250613cd8565b600060018888888860405160008152602001604052604051613c5394939291906158da565b6020604051602081039080840390855afa158015613c75573d6000803e3d6000fd5b505050602060405103519050600073ffffffffffffffffffffffffffffffffffffffff168173ffffffffffffffffffffffffffffffffffffffff1603613cc957600060016000801b93509350935050613cd8565b8060008060001b935093509350505b9450945094915050565b60006003811115613cf657613cf561591f565b5b826003811115613d0957613d0861591f565b5b0315613e425760016003811115613d2357613d2261591f565b5b826003811115613d3657613d3561591f565b5b03613d6d576040517ff645eedf00000000000000000000000000000000000000000000000000000000815260040160405180910390fd5b60026003811115613d8157613d8061591f565b5b826003811115613d9457613d9361591f565b5b03613dd9578060001c6040517ffce698f7000000000000000000000000000000000000000000000000000000008152600401613dd091906141a8565b60405180910390fd5b600380811115613dec57613deb61591f565b5b826003811115613dff57613dfe61591f565b5b03613e4157806040517fd78bce0c000000000000000000000000000000000000000000000000000000008152600401613e389190614293565b60405180910390fd5b5b5050565b60606000613e5383613eba565b90506000602067ffffffffffffffff811115613e7257613e71614378565b5b6040519080825280601f01601f191660200182016040528015613ea45781602001600182028036833780820191505090505b5090508181528360208201528092505050919050565b60008060ff8360001c169050601f811115613f01576040517fb3512b0c00000000000000000000000000000000000000000000000000000000815260040160405180910390fd5b80915050919050565b600082825260208201905092915050565b7f44697265637420455448207472616e7366657273206e6f7420616c6c6f77656460008201527f2e00000000000000000000000000000000000000000000000000000000000000602082015250565b6000613f77602183613f0a565b9150613f8282613f1b565b604082019050919050565b60006020820190508181036000830152613fa681613f6a565b9050919050565b6000604051905090565b600080fd5b600080fd5b600073ffffffffffffffffffffffffffffffffffffffff82169050919050565b6000613fec82613fc1565b9050919050565b613ffc81613fe1565b811461400757600080fd5b50565b60008135905061401981613ff3565b92915050565b60006020828403121561403557614034613fb7565b5b60006140438482850161400a565b91505092915050565b600081519050919050565b60005b8381101561407557808201518184015260208101905061405a565b60008484015250505050565b6000601f19601f8301169050919050565b600061409d8261404c565b6140a78185613f0a565b93506140b7818560208601614057565b6140c081614081565b840191505092915050565b600060208201905081810360008301526140e58184614092565b905092915050565b6000819050919050565b614100816140ed565b811461410b57600080fd5b50565b60008135905061411d816140f7565b92915050565b6000806040838503121561413a57614139613fb7565b5b60006141488582860161400a565b92505060206141598582860161410e565b9150509250929050565b60008115159050919050565b61417881614163565b82525050565b6000602082019050614193600083018461416f565b92915050565b6141a2816140ed565b82525050565b60006020820190506141bd6000830184614199565b92915050565b6000806000606084860312156141dc576141db613fb7565b5b60006141ea8682870161400a565b93505060206141fb8682870161400a565b925050604061420c8682870161410e565b9150509250925092565b60006020828403121561422c5761422b613fb7565b5b600061423a8482850161410e565b91505092915050565b600060ff82169050919050565b61425981614243565b82525050565b60006020820190506142746000830184614250565b92915050565b6000819050919050565b61428d8161427a565b82525050565b60006020820190506142a86000830184614284565b92915050565b600080fd5b600080fd5b600080fd5b60008083601f8401126142d3576142d26142ae565b5b8235905067ffffffffffffffff8111156142f0576142ef6142b3565b5b60208301915083600182028301111561430c5761430b6142b8565b5b9250929050565b60008060006040848603121561432c5761432b613fb7565b5b600061433a8682870161410e565b935050602084013567ffffffffffffffff81111561435b5761435a613fbc565b5b614367868287016142bd565b92509250509250925092565b600080fd5b7f4e487b7100000000000000000000000000000000000000000000000000000000600052604160045260246000fd5b6143b082614081565b810181811067ffffffffffffffff821117156143cf576143ce614378565b5b80604052505050565b60006143e2613fad565b90506143ee82826143a7565b919050565b600067ffffffffffffffff82111561440e5761440d614378565b5b61441782614081565b9050602081019050919050565b82818337600083830152505050565b6000614446614441846143f3565b6143d8565b90508281526020810184848401111561446257614461614373565b5b61446d848285614424565b509392505050565b600082601f83011261448a576144896142ae565b5b813561449a848260208601614433565b91505092915050565b6000602082840312156144b9576144b8613fb7565b5b600082013567ffffffffffffffff8111156144d7576144d6613fbc565b5b6144e384828501614475565b91505092915050565b6144f581613fe1565b82525050565b600060208201905061451060008301846144ec565b92915050565b60007fff0000000000000000000000000000000000000000000000000000000000000082169050919050565b61454b81614516565b82525050565b600081519050919050565b600082825260208201905092915050565b6000819050602082019050919050565b614586816140ed565b82525050565b6000614598838361457d565b60208301905092915050565b6000602082019050919050565b60006145bc82614551565b6145c6818561455c565b93506145d18361456d565b8060005b838110156146025781516145e9888261458c565b97506145f4836145a4565b9250506001810190506145d5565b5085935050505092915050565b600060e082019050614624600083018a614542565b81810360208301526146368189614092565b9050818103604083015261464a8188614092565b90506146596060830187614199565b61466660808301866144ec565b61467360a0830185614284565b81810360c083015261468581846145b1565b905098975050505050505050565b60008083601f8401126146a9576146a86142ae565b5b8235905067ffffffffffffffff8111156146c6576146c56142b3565b5b6020830191508360208202830111156146e2576146e16142b8565b5b9250929050565b60008060208385031215614700576146ff613fb7565b5b600083013567ffffffffffffffff81111561471e5761471d613fbc565b5b61472a85828601614693565b92509250509250929050565b61473f81614243565b811461474a57600080fd5b50565b60008135905061475c81614736565b92915050565b61476b8161427a565b811461477657600080fd5b50565b60008135905061478881614762565b92915050565b600080600080600080600060e0888a0312156147ad576147ac613fb7565b5b60006147bb8a828b0161400a565b97505060206147cc8a828b0161400a565b96505060406147dd8a828b0161410e565b95505060606147ee8a828b0161410e565b94505060806147ff8a828b0161474d565b93505060a06148108a828b01614779565b92505060c06148218a828b01614779565b91505092959891949750929550565b6000806040838503121561484757614846613fb7565b5b60006148558582860161400a565b92505060206148668582860161400a565b9150509250929050565b600060a0820190506148856000830188614199565b6148926020830187614199565b61489f6040830186614199565b6148ac6060830185614199565b6148b96080830184614199565b9695505050505050565b7f4e487b7100000000000000000000000000000000000000000000000000000000600052602260045260246000fd5b6000600282049050600182168061490a57607f821691505b60208210810361491d5761491c6148c3565b5b50919050565b7f4e6f2045544820746f2077697468647261770000000000000000000000000000600082015250565b6000614959601283613f0a565b915061496482614923565b602082019050919050565b600060208201905081810360008301526149888161494c565b9050919050565b600081905092915050565b50565b60006149aa60008361498f565b91506149b58261499a565b600082019050919050565b60006149cb8261499d565b9150819050919050565b7f5769746864726177206661696c65640000000000000000000000000000000000600082015250565b6000614a0b600f83613f0a565b9150614a16826149d5565b602082019050919050565b60006020820190508181036000830152614a3a816149fe565b9050919050565b7f496e73756666696369656e7420746f6b656e7320696e20636f6e74726163742060008201527f746f206275726e00000000000000000000000000000000000000000000000000602082015250565b6000614a9d602783613f0a565b9150614aa882614a41565b604082019050919050565b60006020820190508181036000830152614acc81614a90565b9050919050565b7f4e487b7100000000000000000000000000000000000000000000000000000000600052601160045260246000fd5b6000614b0d826140ed565b9150614b18836140ed565b9250828201905080821115614b3057614b2f614ad3565b5b92915050565b7f496e73756666696369656e7420746f6b656e7320696e20636f6e747261637400600082015250565b6000614b6c601f83613f0a565b9150614b7782614b36565b602082019050919050565b60006020820190508181036000830152614b9b81614b5f565b9050919050565b7f41646472657373206e6f742077686974656c6973746564000000000000000000600082015250565b6000614bd8601783613f0a565b9150614be382614ba2565b602082019050919050565b60006020820190508181036000830152614c0781614bcb565b9050919050565b7f507269766174652053616c652068617320656e64656400000000000000000000600082015250565b6000614c44601683613f0a565b9150614c4f82614c0e565b602082019050919050565b60006020820190508181036000830152614c7381614c37565b9050919050565b7f4d696e696d756d20696e766573746d656e7420616d6f756e74206e6f74206d6560008201527f7400000000000000000000000000000000000000000000000000000000000000602082015250565b6000614cd6602183613f0a565b9150614ce182614c7a565b604082019050919050565b60006020820190508181036000830152614d0581614cc9565b9050919050565b7f507269766174652053616c6520736f6c64206f75740000000000000000000000600082015250565b6000614d42601583613f0a565b9150614d4d82614d0c565b602082019050919050565b60006020820190508181036000830152614d7181614d35565b9050919050565b7f4578636565647320507269766174652053616c6520746f6b656e206c696d6974600082015250565b6000614dae602083613f0a565b9150614db982614d78565b602082019050919050565b60006020820190508181036000830152614ddd81614da1565b9050919050565b600081905092915050565b6000614dfb8385614de4565b9350614e08838584614424565b82840190509392505050565b6000614e21828486614def565b91508190509392505050565b7f496e76616c696420616666696c6961746520636f646500000000000000000000600082015250565b6000614e63601683613f0a565b9150614e6e82614e2d565b602082019050919050565b60006020820190508181036000830152614e9281614e56565b9050919050565b6000614ea4826140ed565b9150614eaf836140ed565b9250828202614ebd816140ed565b91508282048414831517614ed457614ed3614ad3565b5b5092915050565b7f4e487b7100000000000000000000000000000000000000000000000000000000600052601260045260246000fd5b6000614f15826140ed565b9150614f20836140ed565b925082614f3057614f2f614edb565b5b828204905092915050565b6000614f478385613f0a565b9350614f54838584614424565b614f5d83614081565b840190509392505050565b6000604082019050614f7d6000830186614199565b8181036020830152614f90818486614f3b565b9050949350505050565b7f4e6f207374616b656420746f6b656e7320746f2072656c656173650000000000600082015250565b6000614fd0601b83613f0a565b9150614fdb82614f9a565b602082019050919050565b60006020820190508181036000830152614fff81614fc3565b9050919050565b7f546f6b656e7320617265207374696c6c20696e2076657374696e67207065726960008201527f6f64000000000000000000000000000000000000000000000000000000000000602082015250565b6000615062602283613f0a565b915061506d82615006565b604082019050919050565b6000602082019050818103600083015261509181615055565b9050919050565b7f5072652d53616c6520616c726561647920636f6d706c65746564000000000000600082015250565b60006150ce601a83613f0a565b91506150d982615098565b602082019050919050565b600060208201905081810360008301526150fd816150c1565b9050919050565b7f4e6f2070656e64696e6720746f6b656e7320746f206275726e00000000000000600082015250565b600061513a601983613f0a565b915061514582615104565b602082019050919050565b600060208201905081810360008301526151698161512d565b9050919050565b7f5374616b6520616d6f756e74206d75737420626520677265617465722074686160008201527f6e207a65726f0000000000000000000000000000000000000000000000000000602082015250565b60006151cc602683613f0a565b91506151d782615170565b604082019050919050565b600060208201905081810360008301526151fb816151bf565b9050919050565b7f496e73756666696369656e742062616c616e636520746f207374616b65000000600082015250565b6000615238601d83613f0a565b915061524382615202565b602082019050919050565b600060208201905081810360008301526152678161522b565b9050919050565b7f5072652d73616c65206d75737420626520636f6d706c65746564206265666f7260008201527f65207374616b696e670000000000000000000000000000000000000000000000602082015250565b60006152ca602983613f0a565b91506152d58261526e565b604082019050919050565b600060208201905081810360008301526152f9816152bd565b9050919050565b60006040820190506153156000830185614199565b6153226020830184614199565b9392505050565b7f41646472657373206973206e6f742077686974656c6973746564000000000000600082015250565b600061535f601a83613f0a565b915061536a82615329565b602082019050919050565b6000602082019050818103600083015261538e81615352565b9050919050565b7f4e487b7100000000000000000000000000000000000000000000000000000000600052603260045260246000fd5b60006153cf826140ed565b91507fffffffffffffffffffffffffffffffffffffffffffffffffffffffffffffffff820361540157615400614ad3565b5b600182019050919050565b7f5072652d53616c652068617320656e6465640000000000000000000000000000600082015250565b6000615442601283613f0a565b915061544d8261540c565b602082019050919050565b6000602082019050818103600083015261547181615435565b9050919050565b7f507572636861736520616d6f756e74206f7574206f66206c696d697473000000600082015250565b60006154ae601d83613f0a565b91506154b982615478565b602082019050919050565b600060208201905081810360008301526154dd816154a1565b9050919050565b7f5072652d53616c6520736f6c64206f7574000000000000000000000000000000600082015250565b600061551a601183613f0a565b9150615525826154e4565b602082019050919050565b600060208201905081810360008301526155498161550d565b9050919050565b7f45786365656473206d6178696d756d207075726368617365206c696d6974207060008201527f6572207573657200000000000000000000000000000000000000000000000000602082015250565b60006155ac602783613f0a565b91506155b782615550565b604082019050919050565b600060208201905081810360008301526155db8161559f565b9050919050565b7f45786365656473205072652d53616c6520746f6b656e206c696d697400000000600082015250565b6000615618601c83613f0a565b9150615623826155e2565b602082019050919050565b600060208201905081810360008301526156478161560b565b9050919050565b600060c0820190506156636000830189614284565b61567060208301886144ec565b61567d60408301876144ec565b61568a6060830186614199565b6156976080830185614199565b6156a460a0830184614199565b979650505050505050565b60006040820190506156c460008301856144ec565b6156d160208301846144ec565b9392505050565b7f4164647265737320697320616c72656164792077686974656c69737465640000600082015250565b600061570e601e83613f0a565b9150615719826156d8565b602082019050919050565b6000602082019050818103600083015261573d81615701565b9050919050565b7f507269766174652053616c6520616c726561647920636f6d706c657465640000600082015250565b600061577a601e83613f0a565b915061578582615744565b602082019050919050565b600060208201905081810360008301526157a98161576d565b9050919050565b60006060820190506157c560008301866144ec565b6157d26020830185614199565b6157df6040830184614199565b949350505050565b60006157f2826140ed565b91506157fd836140ed565b925082820390508181111561581557615814614ad3565b5b92915050565b7f496e76616c69642070726963652063616c63756c6174696f6e00000000000000600082015250565b6000615851601983613f0a565b915061585c8261581b565b602082019050919050565b6000602082019050818103600083015261588081615844565b9050919050565b600060a08201905061589c6000830188614284565b6158a96020830187614284565b6158b66040830186614284565b6158c36060830185614199565b6158d060808301846144ec565b9695505050505050565b60006080820190506158ef6000830187614284565b6158fc6020830186614250565b6159096040830185614284565b6159166060830184614284565b95945050505050565b7f4e487b7100000000000000000000000000000000000000000000000000000000600052602160045260246000fdfea2646970667358221220ec5a7ffb926c082de63e1ff3ba75620c836678515a97b06b2bbbba975b68e2e564736f6c63430008140033",
			"opcodes": "PUSH2 0x160 PUSH1 0x40 MSTORE PUSH1 0x0 PUSH1 0xF PUSH1 0x0 PUSH2 0x100 EXP DUP2 SLOAD DUP2 PUSH1 0xFF MUL NOT AND SWAP1 DUP4 ISZERO ISZERO MUL OR SWAP1 SSTORE POP PUSH1 0x0 PUSH1 0x11 SSTORE PUSH7 0x38D7EA4C68000 PUSH1 0x12 SSTORE PUSH7 0x11C37937E08000 PUSH1 0x13 SSTORE PUSH9 0x3635C9ADC5DEA00000 PUSH1 0x14 SSTORE PUSH1 0x0 PUSH1 0x15 PUSH1 0x0 PUSH2 0x100 EXP DUP2 SLOAD DUP2 PUSH1 0xFF MUL NOT AND SWAP1 DUP4 ISZERO ISZERO MUL OR SWAP1 SSTORE POP PUSH1 0x0 PUSH1 0x16 SSTORE PUSH7 0x11C37937E08000 PUSH1 0x17 SSTORE PUSH8 0x16345785D8A0000 PUSH1 0x18 SSTORE PUSH9 0x56BC75E2D63100000 PUSH1 0x19 SSTORE PUSH9 0xA2A15D09519BE00000 PUSH1 0x1A SSTORE PUSH1 0x0 PUSH1 0x1B PUSH1 0x0 PUSH2 0x100 EXP DUP2 SLOAD DUP2 PUSH1 0xFF MUL NOT AND SWAP1 DUP4 ISZERO ISZERO MUL OR SWAP1 SSTORE POP PUSH1 0x5 PUSH1 0x24 PUSH1 0x0 PUSH2 0x100 EXP DUP2 SLOAD DUP2 PUSH1 0xFF MUL NOT AND SWAP1 DUP4 PUSH1 0xFF AND MUL OR SWAP1 SSTORE POP CALLVALUE DUP1 ISZERO PUSH3 0xDD JUMPI PUSH1 0x0 DUP1 REVERT JUMPDEST POP PUSH1 0x40 MLOAD DUP1 PUSH1 0x40 ADD PUSH1 0x40 MSTORE DUP1 PUSH1 0x8 DUP2 MSTORE PUSH1 0x20 ADD PUSH32 0x426574746F6B656E000000000000000000000000000000000000000000000000 DUP2 MSTORE POP DUP1 PUSH1 0x40 MLOAD DUP1 PUSH1 0x40 ADD PUSH1 0x40 MSTORE DUP1 PUSH1 0x1 DUP2 MSTORE PUSH1 0x20 ADD PUSH32 0x3100000000000000000000000000000000000000000000000000000000000000 DUP2 MSTORE POP CALLER PUSH1 0x40 MLOAD DUP1 PUSH1 0x40 ADD PUSH1 0x40 MSTORE DUP1 PUSH1 0x8 DUP2 MSTORE PUSH1 0x20 ADD PUSH32 0x426574746F6B656E000000000000000000000000000000000000000000000000 DUP2 MSTORE POP PUSH1 0x40 MLOAD DUP1 PUSH1 0x40 ADD PUSH1 0x40 MSTORE DUP1 PUSH1 0x4 DUP2 MSTORE PUSH1 0x20 ADD PUSH32 0x4245545400000000000000000000000000000000000000000000000000000000 DUP2 MSTORE POP DUP2 PUSH1 0x3 SWAP1 DUP2 PUSH3 0x1C9 SWAP2 SWAP1 PUSH3 0xC3F JUMP JUMPDEST POP DUP1 PUSH1 0x4 SWAP1 DUP2 PUSH3 0x1DB SWAP2 SWAP1 PUSH3 0xC3F JUMP JUMPDEST POP POP POP PUSH1 0x0 PUSH20 0xFFFFFFFFFFFFFFFFFFFFFFFFFFFFFFFFFFFFFFFF AND DUP2 PUSH20 0xFFFFFFFFFFFFFFFFFFFFFFFFFFFFFFFFFFFFFFFF AND SUB PUSH3 0x253 JUMPI PUSH1 0x0 PUSH1 0x40 MLOAD PUSH32 0x1E4FBDF700000000000000000000000000000000000000000000000000000000 DUP2 MSTORE PUSH1 0x4 ADD PUSH3 0x24A SWAP2 SWAP1 PUSH3 0xD6B JUMP JUMPDEST PUSH1 0x40 MLOAD DUP1 SWAP2 SUB SWAP1 REVERT JUMPDEST PUSH3 0x264 DUP2 PUSH3 0x414 PUSH1 0x20 SHL PUSH1 0x20 SHR JUMP JUMPDEST POP PUSH1 0x1 PUSH1 0x6 DUP2 SWAP1 SSTORE POP PUSH1 0x0 PUSH1 0x7 PUSH1 0x0 PUSH2 0x100 EXP DUP2 SLOAD DUP2 PUSH1 0xFF MUL NOT AND SWAP1 DUP4 ISZERO ISZERO MUL OR SWAP1 SSTORE POP PUSH3 0x29E PUSH1 0x8 DUP4 PUSH3 0x4DA PUSH1 0x20 SHL SWAP1 SWAP2 SWAP1 PUSH1 0x20 SHR JUMP JUMPDEST PUSH2 0x120 DUP2 DUP2 MSTORE POP POP PUSH3 0x2BC PUSH1 0x9 DUP3 PUSH3 0x4DA PUSH1 0x20 SHL SWAP1 SWAP2 SWAP1 PUSH1 0x20 SHR JUMP JUMPDEST PUSH2 0x140 DUP2 DUP2 MSTORE POP POP DUP2 DUP1 MLOAD SWAP1 PUSH1 0x20 ADD KECCAK256 PUSH1 0xE0 DUP2 DUP2 MSTORE POP POP DUP1 DUP1 MLOAD SWAP1 PUSH1 0x20 ADD KECCAK256 PUSH2 0x100 DUP2 DUP2 MSTORE POP POP CHAINID PUSH1 0xA0 DUP2 DUP2 MSTORE POP POP PUSH3 0x2FB PUSH3 0x532 PUSH1 0x20 SHL PUSH1 0x20 SHR JUMP JUMPDEST PUSH1 0x80 DUP2 DUP2 MSTORE POP POP ADDRESS PUSH20 0xFFFFFFFFFFFFFFFFFFFFFFFFFFFFFFFFFFFFFFFF AND PUSH1 0xC0 DUP2 PUSH20 0xFFFFFFFFFFFFFFFFFFFFFFFFFFFFFFFFFFFFFFFF AND DUP2 MSTORE POP POP POP POP POP PUSH3 0x357 ADDRESS PUSH12 0x33B2E3C9FD0803CE8000000 PUSH3 0x58F PUSH1 0x20 SHL PUSH1 0x20 SHR JUMP JUMPDEST PUSH3 0x376 ADDRESS CALLER PUSH12 0x19D971E4FE8401E74000000 PUSH3 0x61C PUSH1 0x20 SHL PUSH1 0x20 SHR JUMP JUMPDEST PUSH3 0x394 ADDRESS CALLER PUSH11 0x7C13BC4B2C133C56000000 PUSH3 0x61C PUSH1 0x20 SHL PUSH1 0x20 SHR JUMP JUMPDEST PUSH3 0x3B2 ADDRESS CALLER PUSH11 0x295BE96E64066972000000 PUSH3 0x61C PUSH1 0x20 SHL PUSH1 0x20 SHR JUMP JUMPDEST PUSH4 0x1E13380 TIMESTAMP PUSH3 0x3C4 SWAP2 SWAP1 PUSH3 0xDB7 JUMP JUMPDEST PUSH1 0x10 DUP2 SWAP1 SSTORE POP PUSH32 0xBDDC4F8670F571BE4409CA0D3264084E2A3F0FCE1BCE3458BF062822A6DDE440 PUSH11 0x52B7D2DCC80CD2E4000000 PUSH1 0x40 MLOAD PUSH3 0x406 SWAP2 SWAP1 PUSH3 0xE03 JUMP JUMPDEST PUSH1 0x40 MLOAD DUP1 SWAP2 SUB SWAP1 LOG1 PUSH3 0x102A JUMP JUMPDEST PUSH1 0x0 PUSH1 0x5 PUSH1 0x0 SWAP1 SLOAD SWAP1 PUSH2 0x100 EXP SWAP1 DIV PUSH20 0xFFFFFFFFFFFFFFFFFFFFFFFFFFFFFFFFFFFFFFFF AND SWAP1 POP DUP2 PUSH1 0x5 PUSH1 0x0 PUSH2 0x100 EXP DUP2 SLOAD DUP2 PUSH20 0xFFFFFFFFFFFFFFFFFFFFFFFFFFFFFFFFFFFFFFFF MUL NOT AND SWAP1 DUP4 PUSH20 0xFFFFFFFFFFFFFFFFFFFFFFFFFFFFFFFFFFFFFFFF AND MUL OR SWAP1 SSTORE POP DUP2 PUSH20 0xFFFFFFFFFFFFFFFFFFFFFFFFFFFFFFFFFFFFFFFF AND DUP2 PUSH20 0xFFFFFFFFFFFFFFFFFFFFFFFFFFFFFFFFFFFFFFFF AND PUSH32 0x8BE0079C531659141344CD1FD0A4F28419497F9722A3DAAFE3B4186F6B6457E0 PUSH1 0x40 MLOAD PUSH1 0x40 MLOAD DUP1 SWAP2 SUB SWAP1 LOG3 POP POP JUMP JUMPDEST PUSH1 0x0 PUSH1 0x20 DUP4 MLOAD LT ISZERO PUSH3 0x500 JUMPI PUSH3 0x4F8 DUP4 PUSH3 0x71E PUSH1 0x20 SHL PUSH1 0x20 SHR JUMP JUMPDEST SWAP1 POP PUSH3 0x52C JUMP JUMPDEST DUP3 PUSH3 0x512 DUP4 PUSH3 0x78B PUSH1 0x20 SHL PUSH1 0x20 SHR JUMP JUMPDEST PUSH1 0x0 ADD SWAP1 DUP2 PUSH3 0x523 SWAP2 SWAP1 PUSH3 0xC3F JUMP JUMPDEST POP PUSH1 0xFF PUSH1 0x0 SHL SWAP1 POP JUMPDEST SWAP3 SWAP2 POP POP JUMP JUMPDEST PUSH1 0x0 PUSH32 0x8B73C3C69BB8FE3D512ECC4CF759CC79239F7B179B0FFACAA9A75D522B39400F PUSH1 0xE0 MLOAD PUSH2 0x100 MLOAD CHAINID ADDRESS PUSH1 0x40 MLOAD PUSH1 0x20 ADD PUSH3 0x574 SWAP6 SWAP5 SWAP4 SWAP3 SWAP2 SWAP1 PUSH3 0xE3B JUMP JUMPDEST PUSH1 0x40 MLOAD PUSH1 0x20 DUP2 DUP4 SUB SUB DUP2 MSTORE SWAP1 PUSH1 0x40 MSTORE DUP1 MLOAD SWAP1 PUSH1 0x20 ADD KECCAK256 SWAP1 POP SWAP1 JUMP JUMPDEST PUSH1 0x0 PUSH20 0xFFFFFFFFFFFFFFFFFFFFFFFFFFFFFFFFFFFFFFFF AND DUP3 PUSH20 0xFFFFFFFFFFFFFFFFFFFFFFFFFFFFFFFFFFFFFFFF AND SUB PUSH3 0x604 JUMPI PUSH1 0x0 PUSH1 0x40 MLOAD PUSH32 0xEC442F0500000000000000000000000000000000000000000000000000000000 DUP2 MSTORE PUSH1 0x4 ADD PUSH3 0x5FB SWAP2 SWAP1 PUSH3 0xD6B JUMP JUMPDEST PUSH1 0x40 MLOAD DUP1 SWAP2 SUB SWAP1 REVERT JUMPDEST PUSH3 0x618 PUSH1 0x0 DUP4 DUP4 PUSH3 0x795 PUSH1 0x20 SHL PUSH1 0x20 SHR JUMP JUMPDEST POP POP JUMP JUMPDEST PUSH1 0x0 PUSH20 0xFFFFFFFFFFFFFFFFFFFFFFFFFFFFFFFFFFFFFFFF AND DUP4 PUSH20 0xFFFFFFFFFFFFFFFFFFFFFFFFFFFFFFFFFFFFFFFF AND SUB PUSH3 0x691 JUMPI PUSH1 0x0 PUSH1 0x40 MLOAD PUSH32 0x96C6FD1E00000000000000000000000000000000000000000000000000000000 DUP2 MSTORE PUSH1 0x4 ADD PUSH3 0x688 SWAP2 SWAP1 PUSH3 0xD6B JUMP JUMPDEST PUSH1 0x40 MLOAD DUP1 SWAP2 SUB SWAP1 REVERT JUMPDEST PUSH1 0x0 PUSH20 0xFFFFFFFFFFFFFFFFFFFFFFFFFFFFFFFFFFFFFFFF AND DUP3 PUSH20 0xFFFFFFFFFFFFFFFFFFFFFFFFFFFFFFFFFFFFFFFF AND SUB PUSH3 0x706 JUMPI PUSH1 0x0 PUSH1 0x40 MLOAD PUSH32 0xEC442F0500000000000000000000000000000000000000000000000000000000 DUP2 MSTORE PUSH1 0x4 ADD PUSH3 0x6FD SWAP2 SWAP1 PUSH3 0xD6B JUMP JUMPDEST PUSH1 0x40 MLOAD DUP1 SWAP2 SUB SWAP1 REVERT JUMPDEST PUSH3 0x719 DUP4 DUP4 DUP4 PUSH3 0x795 PUSH1 0x20 SHL PUSH1 0x20 SHR JUMP JUMPDEST POP POP POP JUMP JUMPDEST PUSH1 0x0 DUP1 DUP3 SWAP1 POP PUSH1 0x1F DUP2 MLOAD GT ISZERO PUSH3 0x76E JUMPI DUP3 PUSH1 0x40 MLOAD PUSH32 0x305A27A900000000000000000000000000000000000000000000000000000000 DUP2 MSTORE PUSH1 0x4 ADD PUSH3 0x765 SWAP2 SWAP1 PUSH3 0xF27 JUMP JUMPDEST PUSH1 0x40 MLOAD DUP1 SWAP2 SUB SWAP1 REVERT JUMPDEST DUP1 MLOAD DUP2 PUSH3 0x77C SWAP1 PUSH3 0xF7D JUMP JUMPDEST PUSH1 0x0 SHR OR PUSH1 0x0 SHL SWAP2 POP POP SWAP2 SWAP1 POP JUMP JUMPDEST PUSH1 0x0 DUP2 SWAP1 POP SWAP2 SWAP1 POP JUMP JUMPDEST PUSH1 0x0 PUSH20 0xFFFFFFFFFFFFFFFFFFFFFFFFFFFFFFFFFFFFFFFF AND DUP4 PUSH20 0xFFFFFFFFFFFFFFFFFFFFFFFFFFFFFFFFFFFFFFFF AND SUB PUSH3 0x7EB JUMPI DUP1 PUSH1 0x2 PUSH1 0x0 DUP3 DUP3 SLOAD PUSH3 0x7DE SWAP2 SWAP1 PUSH3 0xDB7 JUMP JUMPDEST SWAP3 POP POP DUP2 SWAP1 SSTORE POP PUSH3 0x8C1 JUMP JUMPDEST PUSH1 0x0 DUP1 PUSH1 0x0 DUP6 PUSH20 0xFFFFFFFFFFFFFFFFFFFFFFFFFFFFFFFFFFFFFFFF AND PUSH20 0xFFFFFFFFFFFFFFFFFFFFFFFFFFFFFFFFFFFFFFFF AND DUP2 MSTORE PUSH1 0x20 ADD SWAP1 DUP2 MSTORE PUSH1 0x20 ADD PUSH1 0x0 KECCAK256 SLOAD SWAP1 POP DUP2 DUP2 LT ISZERO PUSH3 0x87A JUMPI DUP4 DUP2 DUP4 PUSH1 0x40 MLOAD PUSH32 0xE450D38C00000000000000000000000000000000000000000000000000000000 DUP2 MSTORE PUSH1 0x4 ADD PUSH3 0x871 SWAP4 SWAP3 SWAP2 SWAP1 PUSH3 0xFED JUMP JUMPDEST PUSH1 0x40 MLOAD DUP1 SWAP2 SUB SWAP1 REVERT JUMPDEST DUP2 DUP2 SUB PUSH1 0x0 DUP1 DUP7 PUSH20 0xFFFFFFFFFFFFFFFFFFFFFFFFFFFFFFFFFFFFFFFF AND PUSH20 0xFFFFFFFFFFFFFFFFFFFFFFFFFFFFFFFFFFFFFFFF AND DUP2 MSTORE PUSH1 0x20 ADD SWAP1 DUP2 MSTORE PUSH1 0x20 ADD PUSH1 0x0 KECCAK256 DUP2 SWAP1 SSTORE POP POP JUMPDEST PUSH1 0x0 PUSH20 0xFFFFFFFFFFFFFFFFFFFFFFFFFFFFFFFFFFFFFFFF AND DUP3 PUSH20 0xFFFFFFFFFFFFFFFFFFFFFFFFFFFFFFFFFFFFFFFF AND SUB PUSH3 0x90C JUMPI DUP1 PUSH1 0x2 PUSH1 0x0 DUP3 DUP3 SLOAD SUB SWAP3 POP POP DUP2 SWAP1 SSTORE POP PUSH3 0x959 JUMP JUMPDEST DUP1 PUSH1 0x0 DUP1 DUP5 PUSH20 0xFFFFFFFFFFFFFFFFFFFFFFFFFFFFFFFFFFFFFFFF AND PUSH20 0xFFFFFFFFFFFFFFFFFFFFFFFFFFFFFFFFFFFFFFFF AND DUP2 MSTORE PUSH1 0x20 ADD SWAP1 DUP2 MSTORE PUSH1 0x20 ADD PUSH1 0x0 KECCAK256 PUSH1 0x0 DUP3 DUP3 SLOAD ADD SWAP3 POP POP DUP2 SWAP1 SSTORE POP JUMPDEST DUP2 PUSH20 0xFFFFFFFFFFFFFFFFFFFFFFFFFFFFFFFFFFFFFFFF AND DUP4 PUSH20 0xFFFFFFFFFFFFFFFFFFFFFFFFFFFFFFFFFFFFFFFF AND PUSH32 0xDDF252AD1BE2C89B69C2B068FC378DAA952BA7F163C4A11628F55A4DF523B3EF DUP4 PUSH1 0x40 MLOAD PUSH3 0x9B8 SWAP2 SWAP1 PUSH3 0xE03 JUMP JUMPDEST PUSH1 0x40 MLOAD DUP1 SWAP2 SUB SWAP1 LOG3 POP POP POP JUMP JUMPDEST PUSH1 0x0 DUP2 MLOAD SWAP1 POP SWAP2 SWAP1 POP JUMP JUMPDEST PUSH32 0x4E487B7100000000000000000000000000000000000000000000000000000000 PUSH1 0x0 MSTORE PUSH1 0x41 PUSH1 0x4 MSTORE PUSH1 0x24 PUSH1 0x0 REVERT JUMPDEST PUSH32 0x4E487B7100000000000000000000000000000000000000000000000000000000 PUSH1 0x0 MSTORE PUSH1 0x22 PUSH1 0x4 MSTORE PUSH1 0x24 PUSH1 0x0 REVERT JUMPDEST PUSH1 0x0 PUSH1 0x2 DUP3 DIV SWAP1 POP PUSH1 0x1 DUP3 AND DUP1 PUSH3 0xA47 JUMPI PUSH1 0x7F DUP3 AND SWAP2 POP JUMPDEST PUSH1 0x20 DUP3 LT DUP2 SUB PUSH3 0xA5D JUMPI PUSH3 0xA5C PUSH3 0x9FF JUMP JUMPDEST JUMPDEST POP SWAP2 SWAP1 POP JUMP JUMPDEST PUSH1 0x0 DUP2 SWAP1 POP DUP2 PUSH1 0x0 MSTORE PUSH1 0x20 PUSH1 0x0 KECCAK256 SWAP1 POP SWAP2 SWAP1 POP JUMP JUMPDEST PUSH1 0x0 PUSH1 0x20 PUSH1 0x1F DUP4 ADD DIV SWAP1 POP SWAP2 SWAP1 POP JUMP JUMPDEST PUSH1 0x0 DUP3 DUP3 SHL SWAP1 POP SWAP3 SWAP2 POP POP JUMP JUMPDEST PUSH1 0x0 PUSH1 0x8 DUP4 MUL PUSH3 0xAC7 PUSH32 0xFFFFFFFFFFFFFFFFFFFFFFFFFFFFFFFFFFFFFFFFFFFFFFFFFFFFFFFFFFFFFFFF DUP3 PUSH3 0xA88 JUMP JUMPDEST PUSH3 0xAD3 DUP7 DUP4 PUSH3 0xA88 JUMP JUMPDEST SWAP6 POP DUP1 NOT DUP5 AND SWAP4 POP DUP1 DUP7 AND DUP5 OR SWAP3 POP POP POP SWAP4 SWAP3 POP POP POP JUMP JUMPDEST PUSH1 0x0 DUP2 SWAP1 POP SWAP2 SWAP1 POP JUMP JUMPDEST PUSH1 0x0 DUP2 SWAP1 POP SWAP2 SWAP1 POP JUMP JUMPDEST PUSH1 0x0 PUSH3 0xB20 PUSH3 0xB1A PUSH3 0xB14 DUP5 PUSH3 0xAEB JUMP JUMPDEST PUSH3 0xAF5 JUMP JUMPDEST PUSH3 0xAEB JUMP JUMPDEST SWAP1 POP SWAP2 SWAP1 POP JUMP JUMPDEST PUSH1 0x0 DUP2 SWAP1 POP SWAP2 SWAP1 POP JUMP JUMPDEST PUSH3 0xB3C DUP4 PUSH3 0xAFF JUMP JUMPDEST PUSH3 0xB54 PUSH3 0xB4B DUP3 PUSH3 0xB27 JUMP JUMPDEST DUP5 DUP5 SLOAD PUSH3 0xA95 JUMP JUMPDEST DUP3 SSTORE POP POP POP POP JUMP JUMPDEST PUSH1 0x0 SWAP1 JUMP JUMPDEST PUSH3 0xB6B PUSH3 0xB5C JUMP JUMPDEST PUSH3 0xB78 DUP2 DUP5 DUP5 PUSH3 0xB31 JUMP JUMPDEST POP POP POP JUMP JUMPDEST JUMPDEST DUP2 DUP2 LT ISZERO PUSH3 0xBA0 JUMPI PUSH3 0xB94 PUSH1 0x0 DUP3 PUSH3 0xB61 JUMP JUMPDEST PUSH1 0x1 DUP2 ADD SWAP1 POP PUSH3 0xB7E JUMP JUMPDEST POP POP JUMP JUMPDEST PUSH1 0x1F DUP3 GT ISZERO PUSH3 0xBEF JUMPI PUSH3 0xBB9 DUP2 PUSH3 0xA63 JUMP JUMPDEST PUSH3 0xBC4 DUP5 PUSH3 0xA78 JUMP JUMPDEST DUP2 ADD PUSH1 0x20 DUP6 LT ISZERO PUSH3 0xBD4 JUMPI DUP2 SWAP1 POP JUMPDEST PUSH3 0xBEC PUSH3 0xBE3 DUP6 PUSH3 0xA78 JUMP JUMPDEST DUP4 ADD DUP3 PUSH3 0xB7D JUMP JUMPDEST POP POP JUMPDEST POP POP POP JUMP JUMPDEST PUSH1 0x0 DUP3 DUP3 SHR SWAP1 POP SWAP3 SWAP2 POP POP JUMP JUMPDEST PUSH1 0x0 PUSH3 0xC14 PUSH1 0x0 NOT DUP5 PUSH1 0x8 MUL PUSH3 0xBF4 JUMP JUMPDEST NOT DUP1 DUP4 AND SWAP2 POP POP SWAP3 SWAP2 POP POP JUMP JUMPDEST PUSH1 0x0 PUSH3 0xC2F DUP4 DUP4 PUSH3 0xC01 JUMP JUMPDEST SWAP2 POP DUP3 PUSH1 0x2 MUL DUP3 OR SWAP1 POP SWAP3 SWAP2 POP POP JUMP JUMPDEST PUSH3 0xC4A DUP3 PUSH3 0x9C5 JUMP JUMPDEST PUSH8 0xFFFFFFFFFFFFFFFF DUP2 GT ISZERO PUSH3 0xC66 JUMPI PUSH3 0xC65 PUSH3 0x9D0 JUMP JUMPDEST JUMPDEST PUSH3 0xC72 DUP3 SLOAD PUSH3 0xA2E JUMP JUMPDEST PUSH3 0xC7F DUP3 DUP3 DUP6 PUSH3 0xBA4 JUMP JUMPDEST PUSH1 0x0 PUSH1 0x20 SWAP1 POP PUSH1 0x1F DUP4 GT PUSH1 0x1 DUP2 EQ PUSH3 0xCB7 JUMPI PUSH1 0x0 DUP5 ISZERO PUSH3 0xCA2 JUMPI DUP3 DUP8 ADD MLOAD SWAP1 POP JUMPDEST PUSH3 0xCAE DUP6 DUP3 PUSH3 0xC21 JUMP JUMPDEST DUP7 SSTORE POP PUSH3 0xD1E JUMP JUMPDEST PUSH1 0x1F NOT DUP5 AND PUSH3 0xCC7 DUP7 PUSH3 0xA63 JUMP JUMPDEST PUSH1 0x0 JUMPDEST DUP3 DUP2 LT ISZERO PUSH3 0xCF1 JUMPI DUP5 DUP10 ADD MLOAD DUP3 SSTORE PUSH1 0x1 DUP3 ADD SWAP2 POP PUSH1 0x20 DUP6 ADD SWAP5 POP PUSH1 0x20 DUP2 ADD SWAP1 POP PUSH3 0xCCA JUMP JUMPDEST DUP7 DUP4 LT ISZERO PUSH3 0xD11 JUMPI DUP5 DUP10 ADD MLOAD PUSH3 0xD0D PUSH1 0x1F DUP10 AND DUP3 PUSH3 0xC01 JUMP JUMPDEST DUP4 SSTORE POP JUMPDEST PUSH1 0x1 PUSH1 0x2 DUP9 MUL ADD DUP9 SSTORE POP POP POP JUMPDEST POP POP POP POP POP POP JUMP JUMPDEST PUSH1 0x0 PUSH20 0xFFFFFFFFFFFFFFFFFFFFFFFFFFFFFFFFFFFFFFFF DUP3 AND SWAP1 POP SWAP2 SWAP1 POP JUMP JUMPDEST PUSH1 0x0 PUSH3 0xD53 DUP3 PUSH3 0xD26 JUMP JUMPDEST SWAP1 POP SWAP2 SWAP1 POP JUMP JUMPDEST PUSH3 0xD65 DUP2 PUSH3 0xD46 JUMP JUMPDEST DUP3 MSTORE POP POP JUMP JUMPDEST PUSH1 0x0 PUSH1 0x20 DUP3 ADD SWAP1 POP PUSH3 0xD82 PUSH1 0x0 DUP4 ADD DUP5 PUSH3 0xD5A JUMP JUMPDEST SWAP3 SWAP2 POP POP JUMP JUMPDEST PUSH32 0x4E487B7100000000000000000000000000000000000000000000000000000000 PUSH1 0x0 MSTORE PUSH1 0x11 PUSH1 0x4 MSTORE PUSH1 0x24 PUSH1 0x0 REVERT JUMPDEST PUSH1 0x0 PUSH3 0xDC4 DUP3 PUSH3 0xAEB JUMP JUMPDEST SWAP2 POP PUSH3 0xDD1 DUP4 PUSH3 0xAEB JUMP JUMPDEST SWAP3 POP DUP3 DUP3 ADD SWAP1 POP DUP1 DUP3 GT ISZERO PUSH3 0xDEC JUMPI PUSH3 0xDEB PUSH3 0xD88 JUMP JUMPDEST JUMPDEST SWAP3 SWAP2 POP POP JUMP JUMPDEST PUSH3 0xDFD DUP2 PUSH3 0xAEB JUMP JUMPDEST DUP3 MSTORE POP POP JUMP JUMPDEST PUSH1 0x0 PUSH1 0x20 DUP3 ADD SWAP1 POP PUSH3 0xE1A PUSH1 0x0 DUP4 ADD DUP5 PUSH3 0xDF2 JUMP JUMPDEST SWAP3 SWAP2 POP POP JUMP JUMPDEST PUSH1 0x0 DUP2 SWAP1 POP SWAP2 SWAP1 POP JUMP JUMPDEST PUSH3 0xE35 DUP2 PUSH3 0xE20 JUMP JUMPDEST DUP3 MSTORE POP POP JUMP JUMPDEST PUSH1 0x0 PUSH1 0xA0 DUP3 ADD SWAP1 POP PUSH3 0xE52 PUSH1 0x0 DUP4 ADD DUP9 PUSH3 0xE2A JUMP JUMPDEST PUSH3 0xE61 PUSH1 0x20 DUP4 ADD DUP8 PUSH3 0xE2A JUMP JUMPDEST PUSH3 0xE70 PUSH1 0x40 DUP4 ADD DUP7 PUSH3 0xE2A JUMP JUMPDEST PUSH3 0xE7F PUSH1 0x60 DUP4 ADD DUP6 PUSH3 0xDF2 JUMP JUMPDEST PUSH3 0xE8E PUSH1 0x80 DUP4 ADD DUP5 PUSH3 0xD5A JUMP JUMPDEST SWAP7 SWAP6 POP POP POP POP POP POP JUMP JUMPDEST PUSH1 0x0 DUP3 DUP3 MSTORE PUSH1 0x20 DUP3 ADD SWAP1 POP SWAP3 SWAP2 POP POP JUMP JUMPDEST PUSH1 0x0 JUMPDEST DUP4 DUP2 LT ISZERO PUSH3 0xEC9 JUMPI DUP1 DUP3 ADD MLOAD DUP2 DUP5 ADD MSTORE PUSH1 0x20 DUP2 ADD SWAP1 POP PUSH3 0xEAC JUMP JUMPDEST PUSH1 0x0 DUP5 DUP5 ADD MSTORE POP POP POP POP JUMP JUMPDEST PUSH1 0x0 PUSH1 0x1F NOT PUSH1 0x1F DUP4 ADD AND SWAP1 POP SWAP2 SWAP1 POP JUMP JUMPDEST PUSH1 0x0 PUSH3 0xEF3 DUP3 PUSH3 0x9C5 JUMP JUMPDEST PUSH3 0xEFF DUP2 DUP6 PUSH3 0xE98 JUMP JUMPDEST SWAP4 POP PUSH3 0xF11 DUP2 DUP6 PUSH1 0x20 DUP7 ADD PUSH3 0xEA9 JUMP JUMPDEST PUSH3 0xF1C DUP2 PUSH3 0xED5 JUMP JUMPDEST DUP5 ADD SWAP2 POP POP SWAP3 SWAP2 POP POP JUMP JUMPDEST PUSH1 0x0 PUSH1 0x20 DUP3 ADD SWAP1 POP DUP2 DUP2 SUB PUSH1 0x0 DUP4 ADD MSTORE PUSH3 0xF43 DUP2 DUP5 PUSH3 0xEE6 JUMP JUMPDEST SWAP1 POP SWAP3 SWAP2 POP POP JUMP JUMPDEST PUSH1 0x0 DUP2 MLOAD SWAP1 POP SWAP2 SWAP1 POP JUMP JUMPDEST PUSH1 0x0 DUP2 SWAP1 POP PUSH1 0x20 DUP3 ADD SWAP1 POP SWAP2 SWAP1 POP JUMP JUMPDEST PUSH1 0x0 PUSH3 0xF74 DUP3 MLOAD PUSH3 0xE20 JUMP JUMPDEST DUP1 SWAP2 POP POP SWAP2 SWAP1 POP JUMP JUMPDEST PUSH1 0x0 PUSH3 0xF8A DUP3 PUSH3 0xF4B JUMP JUMPDEST DUP3 PUSH3 0xF96 DUP5 PUSH3 0xF56 JUMP JUMPDEST SWAP1 POP PUSH3 0xFA3 DUP2 PUSH3 0xF66 JUMP JUMPDEST SWAP3 POP PUSH1 0x20 DUP3 LT ISZERO PUSH3 0xFE6 JUMPI PUSH3 0xFE1 PUSH32 0xFFFFFFFFFFFFFFFFFFFFFFFFFFFFFFFFFFFFFFFFFFFFFFFFFFFFFFFFFFFFFFFF DUP4 PUSH1 0x20 SUB PUSH1 0x8 MUL PUSH3 0xA88 JUMP JUMPDEST DUP4 AND SWAP3 POP JUMPDEST POP POP SWAP2 SWAP1 POP JUMP JUMPDEST PUSH1 0x0 PUSH1 0x60 DUP3 ADD SWAP1 POP PUSH3 0x1004 PUSH1 0x0 DUP4 ADD DUP7 PUSH3 0xD5A JUMP JUMPDEST PUSH3 0x1013 PUSH1 0x20 DUP4 ADD DUP6 PUSH3 0xDF2 JUMP JUMPDEST PUSH3 0x1022 PUSH1 0x40 DUP4 ADD DUP5 PUSH3 0xDF2 JUMP JUMPDEST SWAP5 SWAP4 POP POP POP POP JUMP JUMPDEST PUSH1 0x80 MLOAD PUSH1 0xA0 MLOAD PUSH1 0xC0 MLOAD PUSH1 0xE0 MLOAD PUSH2 0x100 MLOAD PUSH2 0x120 MLOAD PUSH2 0x140 MLOAD PUSH2 0x5984 PUSH3 0x1085 PUSH1 0x0 CODECOPY PUSH1 0x0 PUSH2 0x34A0 ADD MSTORE PUSH1 0x0 PUSH2 0x3465 ADD MSTORE PUSH1 0x0 PUSH2 0x3A6D ADD MSTORE PUSH1 0x0 PUSH2 0x3A4C ADD MSTORE PUSH1 0x0 PUSH2 0x3059 ADD MSTORE PUSH1 0x0 PUSH2 0x30AF ADD MSTORE PUSH1 0x0 PUSH2 0x30D8 ADD MSTORE PUSH2 0x5984 PUSH1 0x0 RETURN INVALID PUSH1 0x80 PUSH1 0x40 MSTORE PUSH1 0x4 CALLDATASIZE LT PUSH2 0x41F JUMPI PUSH1 0x0 CALLDATALOAD PUSH1 0xE0 SHR DUP1 PUSH4 0x715018A6 GT PUSH2 0x21E JUMPI DUP1 PUSH4 0xB0E68630 GT PUSH2 0x123 JUMPI DUP1 PUSH4 0xCCE29EA7 GT PUSH2 0xAB JUMPI DUP1 PUSH4 0xE43252D7 GT PUSH2 0x7A JUMPI DUP1 PUSH4 0xE43252D7 EQ PUSH2 0x104B JUMPI DUP1 PUSH4 0xF2FDE38B EQ PUSH2 0x1074 JUMPI DUP1 PUSH4 0xFD5661B6 EQ PUSH2 0x109D JUMPI DUP1 PUSH4 0xFD99CBED EQ PUSH2 0x10B4 JUMPI DUP1 PUSH4 0xFDB20CCB EQ PUSH2 0x10DF JUMPI PUSH2 0x45F JUMP JUMPDEST DUP1 PUSH4 0xCCE29EA7 EQ PUSH2 0xF8F JUMPI DUP1 PUSH4 0xD50234C4 EQ PUSH2 0xFBA JUMPI DUP1 PUSH4 0xD505ACCF EQ PUSH2 0xFE5 JUMPI DUP1 PUSH4 0xDD62ED3E EQ PUSH2 0x100E JUMPI PUSH2 0x45F JUMP JUMPDEST DUP1 PUSH4 0xBDA95633 GT PUSH2 0xF2 JUMPI DUP1 PUSH4 0xBDA95633 EQ PUSH2 0xEA6 JUMPI DUP1 PUSH4 0xBDE7A37A EQ PUSH2 0xED1 JUMPI DUP1 PUSH4 0xC7B5A48C EQ PUSH2 0xEFC JUMPI DUP1 PUSH4 0xC7BA0266 EQ PUSH2 0xF27 JUMPI DUP1 PUSH4 0xCB4B4FF9 EQ PUSH2 0xF64 JUMPI PUSH2 0x45F JUMP JUMPDEST DUP1 PUSH4 0xB0E68630 EQ PUSH2 0xE09 JUMPI DUP1 PUSH4 0xB144662D EQ PUSH2 0xE34 JUMPI DUP1 PUSH4 0xB31C2F72 EQ PUSH2 0xE50 JUMPI DUP1 PUSH4 0xB68ED11F EQ PUSH2 0xE7B JUMPI PUSH2 0x45F JUMP JUMPDEST DUP1 PUSH4 0x902D55A5 GT PUSH2 0x1A6 JUMPI DUP1 PUSH4 0x9B19251A GT PUSH2 0x175 JUMPI DUP1 PUSH4 0x9B19251A EQ PUSH2 0xCFE JUMPI DUP1 PUSH4 0xA6C3E531 EQ PUSH2 0xD3B JUMPI DUP1 PUSH4 0xA81C804E EQ PUSH2 0xD66 JUMPI DUP1 PUSH4 0xA9059CBB EQ PUSH2 0xD8F JUMPI DUP1 PUSH4 0xAB39F08A EQ PUSH2 0xDCC JUMPI PUSH2 0x45F JUMP JUMPDEST DUP1 PUSH4 0x902D55A5 EQ PUSH2 0xC52 JUMPI DUP1 PUSH4 0x920168B3 EQ PUSH2 0xC7D JUMPI DUP1 PUSH4 0x95D89B41 EQ PUSH2 0xCA8 JUMPI DUP1 PUSH4 0x9843EAE3 EQ PUSH2 0xCD3 JUMPI PUSH2 0x45F JUMP JUMPDEST DUP1 PUSH4 0x806019C1 GT PUSH2 0x1ED JUMPI DUP1 PUSH4 0x806019C1 EQ PUSH2 0xB77 JUMPI DUP1 PUSH4 0x84B0196E EQ PUSH2 0xBA2 JUMPI DUP1 PUSH4 0x8AB1D681 EQ PUSH2 0xBD3 JUMPI DUP1 PUSH4 0x8DA5CB5B EQ PUSH2 0xBFC JUMPI DUP1 PUSH4 0x8F7713FF EQ PUSH2 0xC27 JUMPI PUSH2 0x45F JUMP JUMPDEST DUP1 PUSH4 0x715018A6 EQ PUSH2 0xACF JUMPI DUP1 PUSH4 0x7343B05C EQ PUSH2 0xAE6 JUMPI DUP1 PUSH4 0x7547C7A3 EQ PUSH2 0xB11 JUMPI DUP1 PUSH4 0x7ECEBE00 EQ PUSH2 0xB3A JUMPI PUSH2 0x45F JUMP JUMPDEST DUP1 PUSH4 0x50195F81 GT PUSH2 0x324 JUMPI DUP1 PUSH4 0x5FB3B944 GT PUSH2 0x2AC JUMPI DUP1 PUSH4 0x6AD7ED37 GT PUSH2 0x27B JUMPI DUP1 PUSH4 0x6AD7ED37 EQ PUSH2 0x9E6 JUMPI DUP1 PUSH4 0x6AFB630A EQ PUSH2 0xA11 JUMPI DUP1 PUSH4 0x6B0651DB EQ PUSH2 0xA3C JUMPI DUP1 PUSH4 0x6DDB627C EQ PUSH2 0xA67 JUMPI DUP1 PUSH4 0x70A08231 EQ PUSH2 0xA92 JUMPI PUSH2 0x45F JUMP JUMPDEST DUP1 PUSH4 0x5FB3B944 EQ PUSH2 0x93C JUMPI DUP1 PUSH4 0x644FE3AE EQ PUSH2 0x967 JUMPI DUP1 PUSH4 0x6705A003 EQ PUSH2 0x97E JUMPI DUP1 PUSH4 0x6985E6D8 EQ PUSH2 0x9A9 JUMPI PUSH2 0x45F JUMP JUMPDEST DUP1 PUSH4 0x59FA61A0 GT PUSH2 0x2F3 JUMPI DUP1 PUSH4 0x59FA61A0 EQ PUSH2 0x855 JUMPI DUP1 PUSH4 0x5B884160 EQ PUSH2 0x892 JUMPI DUP1 PUSH4 0x5C975ABB EQ PUSH2 0x8BD JUMPI DUP1 PUSH4 0x5D5F26FE EQ PUSH2 0x8E8 JUMPI DUP1 PUSH4 0x5E39922A EQ PUSH2 0x925 JUMPI PUSH2 0x45F JUMP JUMPDEST DUP1 PUSH4 0x50195F81 EQ PUSH2 0x7E0 JUMPI DUP1 PUSH4 0x51858E27 EQ PUSH2 0x7FC JUMPI DUP1 PUSH4 0x54DD1DA4 EQ PUSH2 0x813 JUMPI DUP1 PUSH4 0x598CF195 EQ PUSH2 0x82A JUMPI PUSH2 0x45F JUMP JUMPDEST DUP1 PUSH4 0x313CE567 GT PUSH2 0x3A7 JUMPI DUP1 PUSH4 0x3AF32ABF GT PUSH2 0x376 JUMPI DUP1 PUSH4 0x3AF32ABF EQ PUSH2 0x70B JUMPI DUP1 PUSH4 0x3F4BA83A EQ PUSH2 0x748 JUMPI DUP1 PUSH4 0x40306FB6 EQ PUSH2 0x75F JUMPI DUP1 PUSH4 0x43248084 EQ PUSH2 0x78A JUMPI DUP1 PUSH4 0x4CFC4D30 EQ PUSH2 0x7B5 JUMPI PUSH2 0x45F JUMP JUMPDEST DUP1 PUSH4 0x313CE567 EQ PUSH2 0x661 JUMPI DUP1 PUSH4 0x315A095D EQ PUSH2 0x68C JUMPI DUP1 PUSH4 0x34D70532 EQ PUSH2 0x6B5 JUMPI DUP1 PUSH4 0x3644E515 EQ PUSH2 0x6E0 JUMPI PUSH2 0x45F JUMP JUMPDEST DUP1 PUSH4 0x18160DDD GT PUSH2 0x3EE JUMPI DUP1 PUSH4 0x18160DDD EQ PUSH2 0x57C JUMPI DUP1 PUSH4 0x23B872DD EQ PUSH2 0x5A7 JUMPI DUP1 PUSH4 0x24600FC3 EQ PUSH2 0x5E4 JUMPI DUP1 PUSH4 0x297155C9 EQ PUSH2 0x5FB JUMPI DUP1 PUSH4 0x2B1CBC38 EQ PUSH2 0x624 JUMPI PUSH2 0x45F JUMP JUMPDEST DUP1 PUSH4 0x3F0CC64 EQ PUSH2 0x49A JUMPI DUP1 PUSH4 0x6FDDE03 EQ PUSH2 0x4D7 JUMPI DUP1 PUSH4 0x95EA7B3 EQ PUSH2 0x502 JUMPI DUP1 PUSH4 0x16934FC4 EQ PUSH2 0x53F JUMPI PUSH2 0x45F JUMP JUMPDEST CALLDATASIZE PUSH2 0x45F JUMPI PUSH1 0x40 MLOAD PUSH32 0x8C379A000000000000000000000000000000000000000000000000000000000 DUP2 MSTORE PUSH1 0x4 ADD PUSH2 0x456 SWAP1 PUSH2 0x3F8D JUMP JUMPDEST PUSH1 0x40 MLOAD DUP1 SWAP2 SUB SWAP1 REVERT JUMPDEST PUSH1 0x40 MLOAD PUSH32 0x8C379A000000000000000000000000000000000000000000000000000000000 DUP2 MSTORE PUSH1 0x4 ADD PUSH2 0x491 SWAP1 PUSH2 0x3F8D JUMP JUMPDEST PUSH1 0x40 MLOAD DUP1 SWAP2 SUB SWAP1 REVERT JUMPDEST CALLVALUE DUP1 ISZERO PUSH2 0x4A6 JUMPI PUSH1 0x0 DUP1 REVERT JUMPDEST POP PUSH2 0x4C1 PUSH1 0x4 DUP1 CALLDATASIZE SUB DUP2 ADD SWAP1 PUSH2 0x4BC SWAP2 SWAP1 PUSH2 0x401F JUMP JUMPDEST PUSH2 0x1120 JUMP JUMPDEST PUSH1 0x40 MLOAD PUSH2 0x4CE SWAP2 SWAP1 PUSH2 0x40CB JUMP JUMPDEST PUSH1 0x40 MLOAD DUP1 SWAP2 SUB SWAP1 RETURN JUMPDEST CALLVALUE DUP1 ISZERO PUSH2 0x4E3 JUMPI PUSH1 0x0 DUP1 REVERT JUMPDEST POP PUSH2 0x4EC PUSH2 0x11C0 JUMP JUMPDEST PUSH1 0x40 MLOAD PUSH2 0x4F9 SWAP2 SWAP1 PUSH2 0x40CB JUMP JUMPDEST PUSH1 0x40 MLOAD DUP1 SWAP2 SUB SWAP1 RETURN JUMPDEST CALLVALUE DUP1 ISZERO PUSH2 0x50E JUMPI PUSH1 0x0 DUP1 REVERT JUMPDEST POP PUSH2 0x529 PUSH1 0x4 DUP1 CALLDATASIZE SUB DUP2 ADD SWAP1 PUSH2 0x524 SWAP2 SWAP1 PUSH2 0x4123 JUMP JUMPDEST PUSH2 0x1252 JUMP JUMPDEST PUSH1 0x40 MLOAD PUSH2 0x536 SWAP2 SWAP1 PUSH2 0x417E JUMP JUMPDEST PUSH1 0x40 MLOAD DUP1 SWAP2 SUB SWAP1 RETURN JUMPDEST CALLVALUE DUP1 ISZERO PUSH2 0x54B JUMPI PUSH1 0x0 DUP1 REVERT JUMPDEST POP PUSH2 0x566 PUSH1 0x4 DUP1 CALLDATASIZE SUB DUP2 ADD SWAP1 PUSH2 0x561 SWAP2 SWAP1 PUSH2 0x401F JUMP JUMPDEST PUSH2 0x1275 JUMP JUMPDEST PUSH1 0x40 MLOAD PUSH2 0x573 SWAP2 SWAP1 PUSH2 0x41A8 JUMP JUMPDEST PUSH1 0x40 MLOAD DUP1 SWAP2 SUB SWAP1 RETURN JUMPDEST CALLVALUE DUP1 ISZERO PUSH2 0x588 JUMPI PUSH1 0x0 DUP1 REVERT JUMPDEST POP PUSH2 0x591 PUSH2 0x128D JUMP JUMPDEST PUSH1 0x40 MLOAD PUSH2 0x59E SWAP2 SWAP1 PUSH2 0x41A8 JUMP JUMPDEST PUSH1 0x40 MLOAD DUP1 SWAP2 SUB SWAP1 RETURN JUMPDEST CALLVALUE DUP1 ISZERO PUSH2 0x5B3 JUMPI PUSH1 0x0 DUP1 REVERT JUMPDEST POP PUSH2 0x5CE PUSH1 0x4 DUP1 CALLDATASIZE SUB DUP2 ADD SWAP1 PUSH2 0x5C9 SWAP2 SWAP1 PUSH2 0x41C3 JUMP JUMPDEST PUSH2 0x1297 JUMP JUMPDEST PUSH1 0x40 MLOAD PUSH2 0x5DB SWAP2 SWAP1 PUSH2 0x417E JUMP JUMPDEST PUSH1 0x40 MLOAD DUP1 SWAP2 SUB SWAP1 RETURN JUMPDEST CALLVALUE DUP1 ISZERO PUSH2 0x5F0 JUMPI PUSH1 0x0 DUP1 REVERT JUMPDEST POP PUSH2 0x5F9 PUSH2 0x12C6 JUMP JUMPDEST STOP JUMPDEST CALLVALUE DUP1 ISZERO PUSH2 0x607 JUMPI PUSH1 0x0 DUP1 REVERT JUMPDEST POP PUSH2 0x622 PUSH1 0x4 DUP1 CALLDATASIZE SUB DUP2 ADD SWAP1 PUSH2 0x61D SWAP2 SWAP1 PUSH2 0x4216 JUMP JUMPDEST PUSH2 0x1414 JUMP JUMPDEST STOP JUMPDEST CALLVALUE DUP1 ISZERO PUSH2 0x630 JUMPI PUSH1 0x0 DUP1 REVERT JUMPDEST POP PUSH2 0x64B PUSH1 0x4 DUP1 CALLDATASIZE SUB DUP2 ADD SWAP1 PUSH2 0x646 SWAP2 SWAP1 PUSH2 0x401F JUMP JUMPDEST PUSH2 0x1483 JUMP JUMPDEST PUSH1 0x40 MLOAD PUSH2 0x658 SWAP2 SWAP1 PUSH2 0x41A8 JUMP JUMPDEST PUSH1 0x40 MLOAD DUP1 SWAP2 SUB SWAP1 RETURN JUMPDEST CALLVALUE DUP1 ISZERO PUSH2 0x66D JUMPI PUSH1 0x0 DUP1 REVERT JUMPDEST POP PUSH2 0x676 PUSH2 0x149A JUMP JUMPDEST PUSH1 0x40 MLOAD PUSH2 0x683 SWAP2 SWAP1 PUSH2 0x425F JUMP JUMPDEST PUSH1 0x40 MLOAD DUP1 SWAP2 SUB SWAP1 RETURN JUMPDEST CALLVALUE DUP1 ISZERO PUSH2 0x698 JUMPI PUSH1 0x0 DUP1 REVERT JUMPDEST POP PUSH2 0x6B3 PUSH1 0x4 DUP1 CALLDATASIZE SUB DUP2 ADD SWAP1 PUSH2 0x6AE SWAP2 SWAP1 PUSH2 0x4216 JUMP JUMPDEST PUSH2 0x14A3 JUMP JUMPDEST STOP JUMPDEST CALLVALUE DUP1 ISZERO PUSH2 0x6C1 JUMPI PUSH1 0x0 DUP1 REVERT JUMPDEST POP PUSH2 0x6CA PUSH2 0x1552 JUMP JUMPDEST PUSH1 0x40 MLOAD PUSH2 0x6D7 SWAP2 SWAP1 PUSH2 0x41A8 JUMP JUMPDEST PUSH1 0x40 MLOAD DUP1 SWAP2 SUB SWAP1 RETURN JUMPDEST CALLVALUE DUP1 ISZERO PUSH2 0x6EC JUMPI PUSH1 0x0 DUP1 REVERT JUMPDEST POP PUSH2 0x6F5 PUSH2 0x1558 JUMP JUMPDEST PUSH1 0x40 MLOAD PUSH2 0x702 SWAP2 SWAP1 PUSH2 0x4293 JUMP JUMPDEST PUSH1 0x40 MLOAD DUP1 SWAP2 SUB SWAP1 RETURN JUMPDEST CALLVALUE DUP1 ISZERO PUSH2 0x717 JUMPI PUSH1 0x0 DUP1 REVERT JUMPDEST POP PUSH2 0x732 PUSH1 0x4 DUP1 CALLDATASIZE SUB DUP2 ADD SWAP1 PUSH2 0x72D SWAP2 SWAP1 PUSH2 0x401F JUMP JUMPDEST PUSH2 0x1567 JUMP JUMPDEST PUSH1 0x40 MLOAD PUSH2 0x73F SWAP2 SWAP1 PUSH2 0x417E JUMP JUMPDEST PUSH1 0x40 MLOAD DUP1 SWAP2 SUB SWAP1 RETURN JUMPDEST CALLVALUE DUP1 ISZERO PUSH2 0x754 JUMPI PUSH1 0x0 DUP1 REVERT JUMPDEST POP PUSH2 0x75D PUSH2 0x15BD JUMP JUMPDEST STOP JUMPDEST CALLVALUE DUP1 ISZERO PUSH2 0x76B JUMPI PUSH1 0x0 DUP1 REVERT JUMPDEST POP PUSH2 0x774 PUSH2 0x15CF JUMP JUMPDEST PUSH1 0x40 MLOAD PUSH2 0x781 SWAP2 SWAP1 PUSH2 0x41A8 JUMP JUMPDEST PUSH1 0x40 MLOAD DUP1 SWAP2 SUB SWAP1 RETURN JUMPDEST CALLVALUE DUP1 ISZERO PUSH2 0x796 JUMPI PUSH1 0x0 DUP1 REVERT JUMPDEST POP PUSH2 0x79F PUSH2 0x15D5 JUMP JUMPDEST PUSH1 0x40 MLOAD PUSH2 0x7AC SWAP2 SWAP1 PUSH2 0x417E JUMP JUMPDEST PUSH1 0x40 MLOAD DUP1 SWAP2 SUB SWAP1 RETURN JUMPDEST CALLVALUE DUP1 ISZERO PUSH2 0x7C1 JUMPI PUSH1 0x0 DUP1 REVERT JUMPDEST POP PUSH2 0x7CA PUSH2 0x15E8 JUMP JUMPDEST PUSH1 0x40 MLOAD PUSH2 0x7D7 SWAP2 SWAP1 PUSH2 0x41A8 JUMP JUMPDEST PUSH1 0x40 MLOAD DUP1 SWAP2 SUB SWAP1 RETURN JUMPDEST PUSH2 0x7FA PUSH1 0x4 DUP1 CALLDATASIZE SUB DUP2 ADD SWAP1 PUSH2 0x7F5 SWAP2 SWAP1 PUSH2 0x4313 JUMP JUMPDEST PUSH2 0x15EF JUMP JUMPDEST STOP JUMPDEST CALLVALUE DUP1 ISZERO PUSH2 0x808 JUMPI PUSH1 0x0 DUP1 REVERT JUMPDEST POP PUSH2 0x811 PUSH2 0x1997 JUMP JUMPDEST STOP JUMPDEST CALLVALUE DUP1 ISZERO PUSH2 0x81F JUMPI PUSH1 0x0 DUP1 REVERT JUMPDEST POP PUSH2 0x828 PUSH2 0x19A9 JUMP JUMPDEST STOP JUMPDEST CALLVALUE DUP1 ISZERO PUSH2 0x836 JUMPI PUSH1 0x0 DUP1 REVERT JUMPDEST POP PUSH2 0x83F PUSH2 0x1BEF JUMP JUMPDEST PUSH1 0x40 MLOAD PUSH2 0x84C SWAP2 SWAP1 PUSH2 0x41A8 JUMP JUMPDEST PUSH1 0x40 MLOAD DUP1 SWAP2 SUB SWAP1 RETURN JUMPDEST CALLVALUE DUP1 ISZERO PUSH2 0x861 JUMPI PUSH1 0x0 DUP1 REVERT JUMPDEST POP PUSH2 0x87C PUSH1 0x4 DUP1 CALLDATASIZE SUB DUP2 ADD SWAP1 PUSH2 0x877 SWAP2 SWAP1 PUSH2 0x44A3 JUMP JUMPDEST PUSH2 0x1BFE JUMP JUMPDEST PUSH1 0x40 MLOAD PUSH2 0x889 SWAP2 SWAP1 PUSH2 0x44FB JUMP JUMPDEST PUSH1 0x40 MLOAD DUP1 SWAP2 SUB SWAP1 RETURN JUMPDEST CALLVALUE DUP1 ISZERO PUSH2 0x89E JUMPI PUSH1 0x0 DUP1 REVERT JUMPDEST POP PUSH2 0x8A7 PUSH2 0x1C47 JUMP JUMPDEST PUSH1 0x40 MLOAD PUSH2 0x8B4 SWAP2 SWAP1 PUSH2 0x41A8 JUMP JUMPDEST PUSH1 0x40 MLOAD DUP1 SWAP2 SUB SWAP1 RETURN JUMPDEST CALLVALUE DUP1 ISZERO PUSH2 0x8C9 JUMPI PUSH1 0x0 DUP1 REVERT JUMPDEST POP PUSH2 0x8D2 PUSH2 0x1C57 JUMP JUMPDEST PUSH1 0x40 MLOAD PUSH2 0x8DF SWAP2 SWAP1 PUSH2 0x417E JUMP JUMPDEST PUSH1 0x40 MLOAD DUP1 SWAP2 SUB SWAP1 RETURN JUMPDEST CALLVALUE DUP1 ISZERO PUSH2 0x8F4 JUMPI PUSH1 0x0 DUP1 REVERT JUMPDEST POP PUSH2 0x90F PUSH1 0x4 DUP1 CALLDATASIZE SUB DUP2 ADD SWAP1 PUSH2 0x90A SWAP2 SWAP1 PUSH2 0x401F JUMP JUMPDEST PUSH2 0x1C6E JUMP JUMPDEST PUSH1 0x40 MLOAD PUSH2 0x91C SWAP2 SWAP1 PUSH2 0x41A8 JUMP JUMPDEST PUSH1 0x40 MLOAD DUP1 SWAP2 SUB SWAP1 RETURN JUMPDEST CALLVALUE DUP1 ISZERO PUSH2 0x931 JUMPI PUSH1 0x0 DUP1 REVERT JUMPDEST POP PUSH2 0x93A PUSH2 0x1C86 JUMP JUMPDEST STOP JUMPDEST CALLVALUE DUP1 ISZERO PUSH2 0x948 JUMPI PUSH1 0x0 DUP1 REVERT JUMPDEST POP PUSH2 0x951 PUSH2 0x1D2E JUMP JUMPDEST PUSH1 0x40 MLOAD PUSH2 0x95E SWAP2 SWAP1 PUSH2 0x41A8 JUMP JUMPDEST PUSH1 0x40 MLOAD DUP1 SWAP2 SUB SWAP1 RETURN JUMPDEST CALLVALUE DUP1 ISZERO PUSH2 0x973 JUMPI PUSH1 0x0 DUP1 REVERT JUMPDEST POP PUSH2 0x97C PUSH2 0x1D34 JUMP JUMPDEST STOP JUMPDEST CALLVALUE DUP1 ISZERO PUSH2 0x98A JUMPI PUSH1 0x0 DUP1 REVERT JUMPDEST POP PUSH2 0x993 PUSH2 0x1DD0 JUMP JUMPDEST PUSH1 0x40 MLOAD PUSH2 0x9A0 SWAP2 SWAP1 PUSH2 0x41A8 JUMP JUMPDEST PUSH1 0x40 MLOAD DUP1 SWAP2 SUB SWAP1 RETURN JUMPDEST CALLVALUE DUP1 ISZERO PUSH2 0x9B5 JUMPI PUSH1 0x0 DUP1 REVERT JUMPDEST POP PUSH2 0x9D0 PUSH1 0x4 DUP1 CALLDATASIZE SUB DUP2 ADD SWAP1 PUSH2 0x9CB SWAP2 SWAP1 PUSH2 0x401F JUMP JUMPDEST PUSH2 0x1DD6 JUMP JUMPDEST PUSH1 0x40 MLOAD PUSH2 0x9DD SWAP2 SWAP1 PUSH2 0x41A8 JUMP JUMPDEST PUSH1 0x40 MLOAD DUP1 SWAP2 SUB SWAP1 RETURN JUMPDEST CALLVALUE DUP1 ISZERO PUSH2 0x9F2 JUMPI PUSH1 0x0 DUP1 REVERT JUMPDEST POP PUSH2 0x9FB PUSH2 0x1DEE JUMP JUMPDEST PUSH1 0x40 MLOAD PUSH2 0xA08 SWAP2 SWAP1 PUSH2 0x41A8 JUMP JUMPDEST PUSH1 0x40 MLOAD DUP1 SWAP2 SUB SWAP1 RETURN JUMPDEST CALLVALUE DUP1 ISZERO PUSH2 0xA1D JUMPI PUSH1 0x0 DUP1 REVERT JUMPDEST POP PUSH2 0xA26 PUSH2 0x1DF4 JUMP JUMPDEST PUSH1 0x40 MLOAD PUSH2 0xA33 SWAP2 SWAP1 PUSH2 0x41A8 JUMP JUMPDEST PUSH1 0x40 MLOAD DUP1 SWAP2 SUB SWAP1 RETURN JUMPDEST CALLVALUE DUP1 ISZERO PUSH2 0xA48 JUMPI PUSH1 0x0 DUP1 REVERT JUMPDEST POP PUSH2 0xA51 PUSH2 0x1DFC JUMP JUMPDEST PUSH1 0x40 MLOAD PUSH2 0xA5E SWAP2 SWAP1 PUSH2 0x41A8 JUMP JUMPDEST PUSH1 0x40 MLOAD DUP1 SWAP2 SUB SWAP1 RETURN JUMPDEST CALLVALUE DUP1 ISZERO PUSH2 0xA73 JUMPI PUSH1 0x0 DUP1 REVERT JUMPDEST POP PUSH2 0xA7C PUSH2 0x1E0B JUMP JUMPDEST PUSH1 0x40 MLOAD PUSH2 0xA89 SWAP2 SWAP1 PUSH2 0x41A8 JUMP JUMPDEST PUSH1 0x40 MLOAD DUP1 SWAP2 SUB SWAP1 RETURN JUMPDEST CALLVALUE DUP1 ISZERO PUSH2 0xA9E JUMPI PUSH1 0x0 DUP1 REVERT JUMPDEST POP PUSH2 0xAB9 PUSH1 0x4 DUP1 CALLDATASIZE SUB DUP2 ADD SWAP1 PUSH2 0xAB4 SWAP2 SWAP1 PUSH2 0x401F JUMP JUMPDEST PUSH2 0x1E1A JUMP JUMPDEST PUSH1 0x40 MLOAD PUSH2 0xAC6 SWAP2 SWAP1 PUSH2 0x41A8 JUMP JUMPDEST PUSH1 0x40 MLOAD DUP1 SWAP2 SUB SWAP1 RETURN JUMPDEST CALLVALUE DUP1 ISZERO PUSH2 0xADB JUMPI PUSH1 0x0 DUP1 REVERT JUMPDEST POP PUSH2 0xAE4 PUSH2 0x1E62 JUMP JUMPDEST STOP JUMPDEST CALLVALUE DUP1 ISZERO PUSH2 0xAF2 JUMPI PUSH1 0x0 DUP1 REVERT JUMPDEST POP PUSH2 0xAFB PUSH2 0x1E76 JUMP JUMPDEST PUSH1 0x40 MLOAD PUSH2 0xB08 SWAP2 SWAP1 PUSH2 0x417E JUMP JUMPDEST PUSH1 0x40 MLOAD DUP1 SWAP2 SUB SWAP1 RETURN JUMPDEST CALLVALUE DUP1 ISZERO PUSH2 0xB1D JUMPI PUSH1 0x0 DUP1 REVERT JUMPDEST POP PUSH2 0xB38 PUSH1 0x4 DUP1 CALLDATASIZE SUB DUP2 ADD SWAP1 PUSH2 0xB33 SWAP2 SWAP1 PUSH2 0x4216 JUMP JUMPDEST PUSH2 0x1E89 JUMP JUMPDEST STOP JUMPDEST CALLVALUE DUP1 ISZERO PUSH2 0xB46 JUMPI PUSH1 0x0 DUP1 REVERT JUMPDEST POP PUSH2 0xB61 PUSH1 0x4 DUP1 CALLDATASIZE SUB DUP2 ADD SWAP1 PUSH2 0xB5C SWAP2 SWAP1 PUSH2 0x401F JUMP JUMPDEST PUSH2 0x2116 JUMP JUMPDEST PUSH1 0x40 MLOAD PUSH2 0xB6E SWAP2 SWAP1 PUSH2 0x41A8 JUMP JUMPDEST PUSH1 0x40 MLOAD DUP1 SWAP2 SUB SWAP1 RETURN JUMPDEST CALLVALUE DUP1 ISZERO PUSH2 0xB83 JUMPI PUSH1 0x0 DUP1 REVERT JUMPDEST POP PUSH2 0xB8C PUSH2 0x2128 JUMP JUMPDEST PUSH1 0x40 MLOAD PUSH2 0xB99 SWAP2 SWAP1 PUSH2 0x41A8 JUMP JUMPDEST PUSH1 0x40 MLOAD DUP1 SWAP2 SUB SWAP1 RETURN JUMPDEST CALLVALUE DUP1 ISZERO PUSH2 0xBAE JUMPI PUSH1 0x0 DUP1 REVERT JUMPDEST POP PUSH2 0xBB7 PUSH2 0x212E JUMP JUMPDEST PUSH1 0x40 MLOAD PUSH2 0xBCA SWAP8 SWAP7 SWAP6 SWAP5 SWAP4 SWAP3 SWAP2 SWAP1 PUSH2 0x460F JUMP JUMPDEST PUSH1 0x40 MLOAD DUP1 SWAP2 SUB SWAP1 RETURN JUMPDEST CALLVALUE DUP1 ISZERO PUSH2 0xBDF JUMPI PUSH1 0x0 DUP1 REVERT JUMPDEST POP PUSH2 0xBFA PUSH1 0x4 DUP1 CALLDATASIZE SUB DUP2 ADD SWAP1 PUSH2 0xBF5 SWAP2 SWAP1 PUSH2 0x401F JUMP JUMPDEST PUSH2 0x21D8 JUMP JUMPDEST STOP JUMPDEST CALLVALUE DUP1 ISZERO PUSH2 0xC08 JUMPI PUSH1 0x0 DUP1 REVERT JUMPDEST POP PUSH2 0xC11 PUSH2 0x22BE JUMP JUMPDEST PUSH1 0x40 MLOAD PUSH2 0xC1E SWAP2 SWAP1 PUSH2 0x44FB JUMP JUMPDEST PUSH1 0x40 MLOAD DUP1 SWAP2 SUB SWAP1 RETURN JUMPDEST CALLVALUE DUP1 ISZERO PUSH2 0xC33 JUMPI PUSH1 0x0 DUP1 REVERT JUMPDEST POP PUSH2 0xC3C PUSH2 0x22E8 JUMP JUMPDEST PUSH1 0x40 MLOAD PUSH2 0xC49 SWAP2 SWAP1 PUSH2 0x41A8 JUMP JUMPDEST PUSH1 0x40 MLOAD DUP1 SWAP2 SUB SWAP1 RETURN JUMPDEST CALLVALUE DUP1 ISZERO PUSH2 0xC5E JUMPI PUSH1 0x0 DUP1 REVERT JUMPDEST POP PUSH2 0xC67 PUSH2 0x22EE JUMP JUMPDEST PUSH1 0x40 MLOAD PUSH2 0xC74 SWAP2 SWAP1 PUSH2 0x41A8 JUMP JUMPDEST PUSH1 0x40 MLOAD DUP1 SWAP2 SUB SWAP1 RETURN JUMPDEST CALLVALUE DUP1 ISZERO PUSH2 0xC89 JUMPI PUSH1 0x0 DUP1 REVERT JUMPDEST POP PUSH2 0xC92 PUSH2 0x22FE JUMP JUMPDEST PUSH1 0x40 MLOAD PUSH2 0xC9F SWAP2 SWAP1 PUSH2 0x41A8 JUMP JUMPDEST PUSH1 0x40 MLOAD DUP1 SWAP2 SUB SWAP1 RETURN JUMPDEST CALLVALUE DUP1 ISZERO PUSH2 0xCB4 JUMPI PUSH1 0x0 DUP1 REVERT JUMPDEST POP PUSH2 0xCBD PUSH2 0x2304 JUMP JUMPDEST PUSH1 0x40 MLOAD PUSH2 0xCCA SWAP2 SWAP1 PUSH2 0x40CB JUMP JUMPDEST PUSH1 0x40 MLOAD DUP1 SWAP2 SUB SWAP1 RETURN JUMPDEST CALLVALUE DUP1 ISZERO PUSH2 0xCDF JUMPI PUSH1 0x0 DUP1 REVERT JUMPDEST POP PUSH2 0xCE8 PUSH2 0x2396 JUMP JUMPDEST PUSH1 0x40 MLOAD PUSH2 0xCF5 SWAP2 SWAP1 PUSH2 0x417E JUMP JUMPDEST PUSH1 0x40 MLOAD DUP1 SWAP2 SUB SWAP1 RETURN JUMPDEST CALLVALUE DUP1 ISZERO PUSH2 0xD0A JUMPI PUSH1 0x0 DUP1 REVERT JUMPDEST POP PUSH2 0xD25 PUSH1 0x4 DUP1 CALLDATASIZE SUB DUP2 ADD SWAP1 PUSH2 0xD20 SWAP2 SWAP1 PUSH2 0x401F JUMP JUMPDEST PUSH2 0x23A9 JUMP JUMPDEST PUSH1 0x40 MLOAD PUSH2 0xD32 SWAP2 SWAP1 PUSH2 0x417E JUMP JUMPDEST PUSH1 0x40 MLOAD DUP1 SWAP2 SUB SWAP1 RETURN JUMPDEST CALLVALUE DUP1 ISZERO PUSH2 0xD47 JUMPI PUSH1 0x0 DUP1 REVERT JUMPDEST POP PUSH2 0xD50 PUSH2 0x23C9 JUMP JUMPDEST PUSH1 0x40 MLOAD PUSH2 0xD5D SWAP2 SWAP1 PUSH2 0x41A8 JUMP JUMPDEST PUSH1 0x40 MLOAD DUP1 SWAP2 SUB SWAP1 RETURN JUMPDEST CALLVALUE DUP1 ISZERO PUSH2 0xD72 JUMPI PUSH1 0x0 DUP1 REVERT JUMPDEST POP PUSH2 0xD8D PUSH1 0x4 DUP1 CALLDATASIZE SUB DUP2 ADD SWAP1 PUSH2 0xD88 SWAP2 SWAP1 PUSH2 0x46E9 JUMP JUMPDEST PUSH2 0x23D8 JUMP JUMPDEST STOP JUMPDEST CALLVALUE DUP1 ISZERO PUSH2 0xD9B JUMPI PUSH1 0x0 DUP1 REVERT JUMPDEST POP PUSH2 0xDB6 PUSH1 0x4 DUP1 CALLDATASIZE SUB DUP2 ADD SWAP1 PUSH2 0xDB1 SWAP2 SWAP1 PUSH2 0x4123 JUMP JUMPDEST PUSH2 0x24FE JUMP JUMPDEST PUSH1 0x40 MLOAD PUSH2 0xDC3 SWAP2 SWAP1 PUSH2 0x417E JUMP JUMPDEST PUSH1 0x40 MLOAD DUP1 SWAP2 SUB SWAP1 RETURN JUMPDEST CALLVALUE DUP1 ISZERO PUSH2 0xDD8 JUMPI PUSH1 0x0 DUP1 REVERT JUMPDEST POP PUSH2 0xDF3 PUSH1 0x4 DUP1 CALLDATASIZE SUB DUP2 ADD SWAP1 PUSH2 0xDEE SWAP2 SWAP1 PUSH2 0x401F JUMP JUMPDEST PUSH2 0x2521 JUMP JUMPDEST PUSH1 0x40 MLOAD PUSH2 0xE00 SWAP2 SWAP1 PUSH2 0x417E JUMP JUMPDEST PUSH1 0x40 MLOAD DUP1 SWAP2 SUB SWAP1 RETURN JUMPDEST CALLVALUE DUP1 ISZERO PUSH2 0xE15 JUMPI PUSH1 0x0 DUP1 REVERT JUMPDEST POP PUSH2 0xE1E PUSH2 0x2541 JUMP JUMPDEST PUSH1 0x40 MLOAD PUSH2 0xE2B SWAP2 SWAP1 PUSH2 0x41A8 JUMP JUMPDEST PUSH1 0x40 MLOAD DUP1 SWAP2 SUB SWAP1 RETURN JUMPDEST PUSH2 0xE4E PUSH1 0x4 DUP1 CALLDATASIZE SUB DUP2 ADD SWAP1 PUSH2 0xE49 SWAP2 SWAP1 PUSH2 0x4313 JUMP JUMPDEST PUSH2 0x2547 JUMP JUMPDEST STOP JUMPDEST CALLVALUE DUP1 ISZERO PUSH2 0xE5C JUMPI PUSH1 0x0 DUP1 REVERT JUMPDEST POP PUSH2 0xE65 PUSH2 0x294A JUMP JUMPDEST PUSH1 0x40 MLOAD PUSH2 0xE72 SWAP2 SWAP1 PUSH2 0x41A8 JUMP JUMPDEST PUSH1 0x40 MLOAD DUP1 SWAP2 SUB SWAP1 RETURN JUMPDEST CALLVALUE DUP1 ISZERO PUSH2 0xE87 JUMPI PUSH1 0x0 DUP1 REVERT JUMPDEST POP PUSH2 0xE90 PUSH2 0x2950 JUMP JUMPDEST PUSH1 0x40 MLOAD PUSH2 0xE9D SWAP2 SWAP1 PUSH2 0x41A8 JUMP JUMPDEST PUSH1 0x40 MLOAD DUP1 SWAP2 SUB SWAP1 RETURN JUMPDEST CALLVALUE DUP1 ISZERO PUSH2 0xEB2 JUMPI PUSH1 0x0 DUP1 REVERT JUMPDEST POP PUSH2 0xEBB PUSH2 0x2956 JUMP JUMPDEST PUSH1 0x40 MLOAD PUSH2 0xEC8 SWAP2 SWAP1 PUSH2 0x41A8 JUMP JUMPDEST PUSH1 0x40 MLOAD DUP1 SWAP2 SUB SWAP1 RETURN JUMPDEST CALLVALUE DUP1 ISZERO PUSH2 0xEDD JUMPI PUSH1 0x0 DUP1 REVERT JUMPDEST POP PUSH2 0xEE6 PUSH2 0x295C JUMP JUMPDEST PUSH1 0x40 MLOAD PUSH2 0xEF3 SWAP2 SWAP1 PUSH2 0x41A8 JUMP JUMPDEST PUSH1 0x40 MLOAD DUP1 SWAP2 SUB SWAP1 RETURN JUMPDEST CALLVALUE DUP1 ISZERO PUSH2 0xF08 JUMPI PUSH1 0x0 DUP1 REVERT JUMPDEST POP PUSH2 0xF11 PUSH2 0x2962 JUMP JUMPDEST PUSH1 0x40 MLOAD PUSH2 0xF1E SWAP2 SWAP1 PUSH2 0x41A8 JUMP JUMPDEST PUSH1 0x40 MLOAD DUP1 SWAP2 SUB SWAP1 RETURN JUMPDEST CALLVALUE DUP1 ISZERO PUSH2 0xF33 JUMPI PUSH1 0x0 DUP1 REVERT JUMPDEST POP PUSH2 0xF4E PUSH1 0x4 DUP1 CALLDATASIZE SUB DUP2 ADD SWAP1 PUSH2 0xF49 SWAP2 SWAP1 PUSH2 0x401F JUMP JUMPDEST PUSH2 0x2971 JUMP JUMPDEST PUSH1 0x40 MLOAD PUSH2 0xF5B SWAP2 SWAP1 PUSH2 0x41A8 JUMP JUMPDEST PUSH1 0x40 MLOAD DUP1 SWAP2 SUB SWAP1 RETURN JUMPDEST CALLVALUE DUP1 ISZERO PUSH2 0xF70 JUMPI PUSH1 0x0 DUP1 REVERT JUMPDEST POP PUSH2 0xF79 PUSH2 0x2989 JUMP JUMPDEST PUSH1 0x40 MLOAD PUSH2 0xF86 SWAP2 SWAP1 PUSH2 0x41A8 JUMP JUMPDEST PUSH1 0x40 MLOAD DUP1 SWAP2 SUB SWAP1 RETURN JUMPDEST CALLVALUE DUP1 ISZERO PUSH2 0xF9B JUMPI PUSH1 0x0 DUP1 REVERT JUMPDEST POP PUSH2 0xFA4 PUSH2 0x2998 JUMP JUMPDEST PUSH1 0x40 MLOAD PUSH2 0xFB1 SWAP2 SWAP1 PUSH2 0x41A8 JUMP JUMPDEST PUSH1 0x40 MLOAD DUP1 SWAP2 SUB SWAP1 RETURN JUMPDEST CALLVALUE DUP1 ISZERO PUSH2 0xFC6 JUMPI PUSH1 0x0 DUP1 REVERT JUMPDEST POP PUSH2 0xFCF PUSH2 0x299E JUMP JUMPDEST PUSH1 0x40 MLOAD PUSH2 0xFDC SWAP2 SWAP1 PUSH2 0x425F JUMP JUMPDEST PUSH1 0x40 MLOAD DUP1 SWAP2 SUB SWAP1 RETURN JUMPDEST CALLVALUE DUP1 ISZERO PUSH2 0xFF1 JUMPI PUSH1 0x0 DUP1 REVERT JUMPDEST POP PUSH2 0x100C PUSH1 0x4 DUP1 CALLDATASIZE SUB DUP2 ADD SWAP1 PUSH2 0x1007 SWAP2 SWAP1 PUSH2 0x478E JUMP JUMPDEST PUSH2 0x29B1 JUMP JUMPDEST STOP JUMPDEST CALLVALUE DUP1 ISZERO PUSH2 0x101A JUMPI PUSH1 0x0 DUP1 REVERT JUMPDEST POP PUSH2 0x1035 PUSH1 0x4 DUP1 CALLDATASIZE SUB DUP2 ADD SWAP1 PUSH2 0x1030 SWAP2 SWAP1 PUSH2 0x4830 JUMP JUMPDEST PUSH2 0x2AF9 JUMP JUMPDEST PUSH1 0x40 MLOAD PUSH2 0x1042 SWAP2 SWAP1 PUSH2 0x41A8 JUMP JUMPDEST PUSH1 0x40 MLOAD DUP1 SWAP2 SUB SWAP1 RETURN JUMPDEST CALLVALUE DUP1 ISZERO PUSH2 0x1057 JUMPI PUSH1 0x0 DUP1 REVERT JUMPDEST POP PUSH2 0x1072 PUSH1 0x4 DUP1 CALLDATASIZE SUB DUP2 ADD SWAP1 PUSH2 0x106D SWAP2 SWAP1 PUSH2 0x401F JUMP JUMPDEST PUSH2 0x2B80 JUMP JUMPDEST STOP JUMPDEST CALLVALUE DUP1 ISZERO PUSH2 0x1080 JUMPI PUSH1 0x0 DUP1 REVERT JUMPDEST POP PUSH2 0x109B PUSH1 0x4 DUP1 CALLDATASIZE SUB DUP2 ADD SWAP1 PUSH2 0x1096 SWAP2 SWAP1 PUSH2 0x401F JUMP JUMPDEST PUSH2 0x2C70 JUMP JUMPDEST STOP JUMPDEST CALLVALUE DUP1 ISZERO PUSH2 0x10A9 JUMPI PUSH1 0x0 DUP1 REVERT JUMPDEST POP PUSH2 0x10B2 PUSH2 0x2CF6 JUMP JUMPDEST STOP JUMPDEST CALLVALUE DUP1 ISZERO PUSH2 0x10C0 JUMPI PUSH1 0x0 DUP1 REVERT JUMPDEST POP PUSH2 0x10C9 PUSH2 0x2D97 JUMP JUMPDEST PUSH1 0x40 MLOAD PUSH2 0x10D6 SWAP2 SWAP1 PUSH2 0x41A8 JUMP JUMPDEST PUSH1 0x40 MLOAD DUP1 SWAP2 SUB SWAP1 RETURN JUMPDEST CALLVALUE DUP1 ISZERO PUSH2 0x10EB JUMPI PUSH1 0x0 DUP1 REVERT JUMPDEST POP PUSH2 0x1106 PUSH1 0x4 DUP1 CALLDATASIZE SUB DUP2 ADD SWAP1 PUSH2 0x1101 SWAP2 SWAP1 PUSH2 0x401F JUMP JUMPDEST PUSH2 0x2DA6 JUMP JUMPDEST PUSH1 0x40 MLOAD PUSH2 0x1117 SWAP6 SWAP5 SWAP4 SWAP3 SWAP2 SWAP1 PUSH2 0x4870 JUMP JUMPDEST PUSH1 0x40 MLOAD DUP1 SWAP2 SUB SWAP1 RETURN JUMPDEST PUSH1 0x22 PUSH1 0x20 MSTORE DUP1 PUSH1 0x0 MSTORE PUSH1 0x40 PUSH1 0x0 KECCAK256 PUSH1 0x0 SWAP2 POP SWAP1 POP DUP1 SLOAD PUSH2 0x113F SWAP1 PUSH2 0x48F2 JUMP JUMPDEST DUP1 PUSH1 0x1F ADD PUSH1 0x20 DUP1 SWAP2 DIV MUL PUSH1 0x20 ADD PUSH1 0x40 MLOAD SWAP1 DUP2 ADD PUSH1 0x40 MSTORE DUP1 SWAP3 SWAP2 SWAP1 DUP2 DUP2 MSTORE PUSH1 0x20 ADD DUP3 DUP1 SLOAD PUSH2 0x116B SWAP1 PUSH2 0x48F2 JUMP JUMPDEST DUP1 ISZERO PUSH2 0x11B8 JUMPI DUP1 PUSH1 0x1F LT PUSH2 0x118D JUMPI PUSH2 0x100 DUP1 DUP4 SLOAD DIV MUL DUP4 MSTORE SWAP2 PUSH1 0x20 ADD SWAP2 PUSH2 0x11B8 JUMP JUMPDEST DUP3 ADD SWAP2 SWAP1 PUSH1 0x0 MSTORE PUSH1 0x20 PUSH1 0x0 KECCAK256 SWAP1 JUMPDEST DUP2 SLOAD DUP2 MSTORE SWAP1 PUSH1 0x1 ADD SWAP1 PUSH1 0x20 ADD DUP1 DUP4 GT PUSH2 0x119B JUMPI DUP3 SWAP1 SUB PUSH1 0x1F AND DUP3 ADD SWAP2 JUMPDEST POP POP POP POP POP DUP2 JUMP JUMPDEST PUSH1 0x60 PUSH1 0x3 DUP1 SLOAD PUSH2 0x11CF SWAP1 PUSH2 0x48F2 JUMP JUMPDEST DUP1 PUSH1 0x1F ADD PUSH1 0x20 DUP1 SWAP2 DIV MUL PUSH1 0x20 ADD PUSH1 0x40 MLOAD SWAP1 DUP2 ADD PUSH1 0x40 MSTORE DUP1 SWAP3 SWAP2 SWAP1 DUP2 DUP2 MSTORE PUSH1 0x20 ADD DUP3 DUP1 SLOAD PUSH2 0x11FB SWAP1 PUSH2 0x48F2 JUMP JUMPDEST DUP1 ISZERO PUSH2 0x1248 JUMPI DUP1 PUSH1 0x1F LT PUSH2 0x121D JUMPI PUSH2 0x100 DUP1 DUP4 SLOAD DIV MUL DUP4 MSTORE SWAP2 PUSH1 0x20 ADD SWAP2 PUSH2 0x1248 JUMP JUMPDEST DUP3 ADD SWAP2 SWAP1 PUSH1 0x0 MSTORE PUSH1 0x20 PUSH1 0x0 KECCAK256 SWAP1 JUMPDEST DUP2 SLOAD DUP2 MSTORE SWAP1 PUSH1 0x1 ADD SWAP1 PUSH1 0x20 ADD DUP1 DUP4 GT PUSH2 0x122B JUMPI DUP3 SWAP1 SUB PUSH1 0x1F AND DUP3 ADD SWAP2 JUMPDEST POP POP POP POP POP SWAP1 POP SWAP1 JUMP JUMPDEST PUSH1 0x0 DUP1 PUSH2 0x125D PUSH2 0x2DDC JUMP JUMPDEST SWAP1 POP PUSH2 0x126A DUP2 DUP6 DUP6 PUSH2 0x2DE4 JUMP JUMPDEST PUSH1 0x1 SWAP2 POP POP SWAP3 SWAP2 POP POP JUMP JUMPDEST PUSH1 0x1E PUSH1 0x20 MSTORE DUP1 PUSH1 0x0 MSTORE PUSH1 0x40 PUSH1 0x0 KECCAK256 PUSH1 0x0 SWAP2 POP SWAP1 POP SLOAD DUP2 JUMP JUMPDEST PUSH1 0x0 PUSH1 0x2 SLOAD SWAP1 POP SWAP1 JUMP JUMPDEST PUSH1 0x0 DUP1 PUSH2 0x12A2 PUSH2 0x2DDC JUMP JUMPDEST SWAP1 POP PUSH2 0x12AF DUP6 DUP3 DUP6 PUSH2 0x2DF6 JUMP JUMPDEST PUSH2 0x12BA DUP6 DUP6 DUP6 PUSH2 0x2E8A JUMP JUMPDEST PUSH1 0x1 SWAP2 POP POP SWAP4 SWAP3 POP POP POP JUMP JUMPDEST PUSH2 0x12CE PUSH2 0x2F7E JUMP JUMPDEST PUSH2 0x12D6 PUSH2 0x3005 JUMP JUMPDEST PUSH1 0x0 SELFBALANCE SWAP1 POP PUSH1 0x0 DUP2 GT PUSH2 0x131E JUMPI PUSH1 0x40 MLOAD PUSH32 0x8C379A000000000000000000000000000000000000000000000000000000000 DUP2 MSTORE PUSH1 0x4 ADD PUSH2 0x1315 SWAP1 PUSH2 0x496F JUMP JUMPDEST PUSH1 0x40 MLOAD DUP1 SWAP2 SUB SWAP1 REVERT JUMPDEST PUSH1 0x0 PUSH2 0x1328 PUSH2 0x22BE JUMP JUMPDEST PUSH20 0xFFFFFFFFFFFFFFFFFFFFFFFFFFFFFFFFFFFFFFFF AND DUP3 PUSH1 0x40 MLOAD PUSH2 0x134B SWAP1 PUSH2 0x49C0 JUMP JUMPDEST PUSH1 0x0 PUSH1 0x40 MLOAD DUP1 DUP4 SUB DUP2 DUP6 DUP8 GAS CALL SWAP3 POP POP POP RETURNDATASIZE DUP1 PUSH1 0x0 DUP2 EQ PUSH2 0x1388 JUMPI PUSH1 0x40 MLOAD SWAP2 POP PUSH1 0x1F NOT PUSH1 0x3F RETURNDATASIZE ADD AND DUP3 ADD PUSH1 0x40 MSTORE RETURNDATASIZE DUP3 MSTORE RETURNDATASIZE PUSH1 0x0 PUSH1 0x20 DUP5 ADD RETURNDATACOPY PUSH2 0x138D JUMP JUMPDEST PUSH1 0x60 SWAP2 POP JUMPDEST POP POP SWAP1 POP DUP1 PUSH2 0x13D1 JUMPI PUSH1 0x40 MLOAD PUSH32 0x8C379A000000000000000000000000000000000000000000000000000000000 DUP2 MSTORE PUSH1 0x4 ADD PUSH2 0x13C8 SWAP1 PUSH2 0x4A21 JUMP JUMPDEST PUSH1 0x40 MLOAD DUP1 SWAP2 SUB SWAP1 REVERT JUMPDEST PUSH32 0x4A37B25AAB49761ECF63117FE82B98D750917451133CF797507BC9FB5B96044A DUP3 PUSH1 0x40 MLOAD PUSH2 0x1400 SWAP2 SWAP1 PUSH2 0x41A8 JUMP JUMPDEST PUSH1 0x40 MLOAD DUP1 SWAP2 SUB SWAP1 LOG1 POP POP PUSH2 0x1412 PUSH2 0x304B JUMP JUMPDEST JUMP JUMPDEST PUSH2 0x141C PUSH2 0x2F7E JUMP JUMPDEST DUP1 PUSH2 0x1426 ADDRESS PUSH2 0x1E1A JUMP JUMPDEST LT ISZERO PUSH2 0x1467 JUMPI PUSH1 0x40 MLOAD PUSH32 0x8C379A000000000000000000000000000000000000000000000000000000000 DUP2 MSTORE PUSH1 0x4 ADD PUSH2 0x145E SWAP1 PUSH2 0x4AB3 JUMP JUMPDEST PUSH1 0x40 MLOAD DUP1 SWAP2 SUB SWAP1 REVERT JUMPDEST DUP1 PUSH1 0xB PUSH1 0x0 DUP3 DUP3 SLOAD PUSH2 0x1479 SWAP2 SWAP1 PUSH2 0x4B02 JUMP JUMPDEST SWAP3 POP POP DUP2 SWAP1 SSTORE POP POP JUMP JUMPDEST PUSH1 0x20 DUP1 MSTORE DUP1 PUSH1 0x0 MSTORE PUSH1 0x40 PUSH1 0x0 KECCAK256 PUSH1 0x0 SWAP2 POP SWAP1 POP SLOAD DUP2 JUMP JUMPDEST PUSH1 0x0 PUSH1 0x12 SWAP1 POP SWAP1 JUMP JUMPDEST PUSH2 0x14AB PUSH2 0x2F7E JUMP JUMPDEST PUSH2 0x14B3 PUSH2 0x3005 JUMP JUMPDEST DUP1 PUSH2 0x14BD ADDRESS PUSH2 0x1E1A JUMP JUMPDEST LT ISZERO PUSH2 0x14FE JUMPI PUSH1 0x40 MLOAD PUSH32 0x8C379A000000000000000000000000000000000000000000000000000000000 DUP2 MSTORE PUSH1 0x4 ADD PUSH2 0x14F5 SWAP1 PUSH2 0x4B82 JUMP JUMPDEST PUSH1 0x40 MLOAD DUP1 SWAP2 SUB SWAP1 REVERT JUMPDEST PUSH2 0x1510 ADDRESS PUSH2 0x150A PUSH2 0x22BE JUMP JUMPDEST DUP4 PUSH2 0x2E8A JUMP JUMPDEST PUSH32 0x9C6393F251205F9E03559951CAB4C9AE71767B6174F77944A5B0C2FA51FBDA9F DUP2 PUSH1 0x40 MLOAD PUSH2 0x153F SWAP2 SWAP1 PUSH2 0x41A8 JUMP JUMPDEST PUSH1 0x40 MLOAD DUP1 SWAP2 SUB SWAP1 LOG1 PUSH2 0x154F PUSH2 0x304B JUMP JUMPDEST POP JUMP JUMPDEST PUSH1 0x19 SLOAD DUP2 JUMP JUMPDEST PUSH1 0x0 PUSH2 0x1562 PUSH2 0x3055 JUMP JUMPDEST SWAP1 POP SWAP1 JUMP JUMPDEST PUSH1 0x0 PUSH1 0x26 PUSH1 0x0 DUP4 PUSH20 0xFFFFFFFFFFFFFFFFFFFFFFFFFFFFFFFFFFFFFFFF AND PUSH20 0xFFFFFFFFFFFFFFFFFFFFFFFFFFFFFFFFFFFFFFFF AND DUP2 MSTORE PUSH1 0x20 ADD SWAP1 DUP2 MSTORE PUSH1 0x20 ADD PUSH1 0x0 KECCAK256 PUSH1 0x0 SWAP1 SLOAD SWAP1 PUSH2 0x100 EXP SWAP1 DIV PUSH1 0xFF AND SWAP1 POP SWAP2 SWAP1 POP JUMP JUMPDEST PUSH2 0x15C5 PUSH2 0x2F7E JUMP JUMPDEST PUSH2 0x15CD PUSH2 0x310C JUMP JUMPDEST JUMP JUMPDEST PUSH1 0xC SLOAD DUP2 JUMP JUMPDEST PUSH1 0x1B PUSH1 0x0 SWAP1 SLOAD SWAP1 PUSH2 0x100 EXP SWAP1 DIV PUSH1 0xFF AND DUP2 JUMP JUMPDEST PUSH3 0xED4E00 DUP2 JUMP JUMPDEST PUSH2 0x15F7 PUSH2 0x3005 JUMP JUMPDEST PUSH2 0x15FF PUSH2 0x316F JUMP JUMPDEST PUSH1 0x26 PUSH1 0x0 CALLER PUSH20 0xFFFFFFFFFFFFFFFFFFFFFFFFFFFFFFFFFFFFFFFF AND PUSH20 0xFFFFFFFFFFFFFFFFFFFFFFFFFFFFFFFFFFFFFFFF AND DUP2 MSTORE PUSH1 0x20 ADD SWAP1 DUP2 MSTORE PUSH1 0x20 ADD PUSH1 0x0 KECCAK256 PUSH1 0x0 SWAP1 SLOAD SWAP1 PUSH2 0x100 EXP SWAP1 DIV PUSH1 0xFF AND PUSH2 0x168B JUMPI PUSH1 0x40 MLOAD PUSH32 0x8C379A000000000000000000000000000000000000000000000000000000000 DUP2 MSTORE PUSH1 0x4 ADD PUSH2 0x1682 SWAP1 PUSH2 0x4BEE JUMP JUMPDEST PUSH1 0x40 MLOAD DUP1 SWAP2 SUB SWAP1 REVERT JUMPDEST PUSH1 0x15 PUSH1 0x0 SWAP1 SLOAD SWAP1 PUSH2 0x100 EXP SWAP1 DIV PUSH1 0xFF AND ISZERO PUSH2 0x16DB JUMPI PUSH1 0x40 MLOAD PUSH32 0x8C379A000000000000000000000000000000000000000000000000000000000 DUP2 MSTORE PUSH1 0x4 ADD PUSH2 0x16D2 SWAP1 PUSH2 0x4C5A JUMP JUMPDEST PUSH1 0x40 MLOAD DUP1 SWAP2 SUB SWAP1 REVERT JUMPDEST PUSH1 0x14 SLOAD DUP4 LT ISZERO PUSH2 0x1720 JUMPI PUSH1 0x40 MLOAD PUSH32 0x8C379A000000000000000000000000000000000000000000000000000000000 DUP2 MSTORE PUSH1 0x4 ADD PUSH2 0x1717 SWAP1 PUSH2 0x4CEC JUMP JUMPDEST PUSH1 0x40 MLOAD DUP1 SWAP2 SUB SWAP1 REVERT JUMPDEST PUSH11 0x295BE96E64066972000000 PUSH1 0x11 SLOAD LT PUSH2 0x176F JUMPI PUSH1 0x40 MLOAD PUSH32 0x8C379A000000000000000000000000000000000000000000000000000000000 DUP2 MSTORE PUSH1 0x4 ADD PUSH2 0x1766 SWAP1 PUSH2 0x4D58 JUMP JUMPDEST PUSH1 0x40 MLOAD DUP1 SWAP2 SUB SWAP1 REVERT JUMPDEST PUSH1 0x0 PUSH2 0x177A DUP5 PUSH2 0x31B0 JUMP JUMPDEST SWAP1 POP DUP1 PUSH1 0x11 PUSH1 0x0 DUP3 DUP3 SLOAD PUSH2 0x178E SWAP2 SWAP1 PUSH2 0x4B02 JUMP JUMPDEST SWAP3 POP POP DUP2 SWAP1 SSTORE POP PUSH11 0x295BE96E64066972000000 PUSH1 0x11 SLOAD GT ISZERO PUSH2 0x17E5 JUMPI PUSH1 0x40 MLOAD PUSH32 0x8C379A000000000000000000000000000000000000000000000000000000000 DUP2 MSTORE PUSH1 0x4 ADD PUSH2 0x17DC SWAP1 PUSH2 0x4DC4 JUMP JUMPDEST PUSH1 0x40 MLOAD DUP1 SWAP2 SUB SWAP1 REVERT JUMPDEST PUSH1 0x0 DUP4 DUP4 SWAP1 POP GT ISZERO PUSH2 0x192C JUMPI PUSH1 0x0 PUSH1 0x23 DUP5 DUP5 PUSH1 0x40 MLOAD PUSH2 0x1805 SWAP3 SWAP2 SWAP1 PUSH2 0x4E14 JUMP JUMPDEST SWAP1 DUP2 MSTORE PUSH1 0x20 ADD PUSH1 0x40 MLOAD DUP1 SWAP2 SUB SWAP1 KECCAK256 PUSH1 0x0 SWAP1 SLOAD SWAP1 PUSH2 0x100 EXP SWAP1 DIV PUSH20 0xFFFFFFFFFFFFFFFFFFFFFFFFFFFFFFFFFFFFFFFF AND SWAP1 POP PUSH1 0x0 PUSH20 0xFFFFFFFFFFFFFFFFFFFFFFFFFFFFFFFFFFFFFFFF AND DUP2 PUSH20 0xFFFFFFFFFFFFFFFFFFFFFFFFFFFFFFFFFFFFFFFF AND SUB PUSH2 0x18A5 JUMPI PUSH1 0x40 MLOAD PUSH32 0x8C379A000000000000000000000000000000000000000000000000000000000 DUP2 MSTORE PUSH1 0x4 ADD PUSH2 0x189C SWAP1 PUSH2 0x4E79 JUMP JUMPDEST PUSH1 0x40 MLOAD DUP1 SWAP2 SUB SWAP1 REVERT JUMPDEST PUSH1 0x0 PUSH1 0x64 PUSH1 0x24 PUSH1 0x0 SWAP1 SLOAD SWAP1 PUSH2 0x100 EXP SWAP1 DIV PUSH1 0xFF AND PUSH1 0xFF AND DUP5 PUSH2 0x18C7 SWAP2 SWAP1 PUSH2 0x4E99 JUMP JUMPDEST PUSH2 0x18D1 SWAP2 SWAP1 PUSH2 0x4F0A JUMP JUMPDEST SWAP1 POP DUP1 PUSH1 0x25 PUSH1 0x0 DUP5 PUSH20 0xFFFFFFFFFFFFFFFFFFFFFFFFFFFFFFFFFFFFFFFF AND PUSH20 0xFFFFFFFFFFFFFFFFFFFFFFFFFFFFFFFFFFFFFFFF AND DUP2 MSTORE PUSH1 0x20 ADD SWAP1 DUP2 MSTORE PUSH1 0x20 ADD PUSH1 0x0 KECCAK256 PUSH1 0x0 DUP3 DUP3 SLOAD PUSH2 0x1922 SWAP2 SWAP1 PUSH2 0x4B02 JUMP JUMPDEST SWAP3 POP POP DUP2 SWAP1 SSTORE POP POP POP JUMPDEST PUSH2 0x1937 ADDRESS CALLER DUP4 PUSH2 0x2E8A JUMP JUMPDEST CALLER PUSH20 0xFFFFFFFFFFFFFFFFFFFFFFFFFFFFFFFFFFFFFFFF AND PUSH32 0x25DD73B03754EF2FB74E5AE3BA497DF2DD6275F098501BA76082EA0A1A130178 DUP3 DUP6 DUP6 PUSH1 0x40 MLOAD PUSH2 0x1981 SWAP4 SWAP3 SWAP2 SWAP1 PUSH2 0x4F68 JUMP JUMPDEST PUSH1 0x40 MLOAD DUP1 SWAP2 SUB SWAP1 LOG2 POP PUSH2 0x1992 PUSH2 0x304B JUMP JUMPDEST POP POP POP JUMP JUMPDEST PUSH2 0x199F PUSH2 0x2F7E JUMP JUMPDEST PUSH2 0x19A7 PUSH2 0x3268 JUMP JUMPDEST JUMP JUMPDEST PUSH2 0x19B1 PUSH2 0x3005 JUMP JUMPDEST PUSH2 0x19B9 PUSH2 0x316F JUMP JUMPDEST PUSH1 0x0 PUSH1 0x1E PUSH1 0x0 CALLER PUSH20 0xFFFFFFFFFFFFFFFFFFFFFFFFFFFFFFFFFFFFFFFF AND PUSH20 0xFFFFFFFFFFFFFFFFFFFFFFFFFFFFFFFFFFFFFFFF AND DUP2 MSTORE PUSH1 0x20 ADD SWAP1 DUP2 MSTORE PUSH1 0x20 ADD PUSH1 0x0 KECCAK256 SLOAD GT PUSH2 0x1A3B JUMPI PUSH1 0x40 MLOAD PUSH32 0x8C379A000000000000000000000000000000000000000000000000000000000 DUP2 MSTORE PUSH1 0x4 ADD PUSH2 0x1A32 SWAP1 PUSH2 0x4FE6 JUMP JUMPDEST PUSH1 0x40 MLOAD DUP1 SWAP2 SUB SWAP1 REVERT JUMPDEST PUSH1 0x20 PUSH1 0x0 CALLER PUSH20 0xFFFFFFFFFFFFFFFFFFFFFFFFFFFFFFFFFFFFFFFF AND PUSH20 0xFFFFFFFFFFFFFFFFFFFFFFFFFFFFFFFFFFFFFFFF AND DUP2 MSTORE PUSH1 0x20 ADD SWAP1 DUP2 MSTORE PUSH1 0x20 ADD PUSH1 0x0 KECCAK256 SLOAD TIMESTAMP LT ISZERO PUSH2 0x1ABD JUMPI PUSH1 0x40 MLOAD PUSH32 0x8C379A000000000000000000000000000000000000000000000000000000000 DUP2 MSTORE PUSH1 0x4 ADD PUSH2 0x1AB4 SWAP1 PUSH2 0x5078 JUMP JUMPDEST PUSH1 0x40 MLOAD DUP1 SWAP2 SUB SWAP1 REVERT JUMPDEST PUSH1 0x0 PUSH1 0x1E PUSH1 0x0 CALLER PUSH20 0xFFFFFFFFFFFFFFFFFFFFFFFFFFFFFFFFFFFFFFFF AND PUSH20 0xFFFFFFFFFFFFFFFFFFFFFFFFFFFFFFFFFFFFFFFF AND DUP2 MSTORE PUSH1 0x20 ADD SWAP1 DUP2 MSTORE PUSH1 0x20 ADD PUSH1 0x0 KECCAK256 SLOAD SWAP1 POP PUSH1 0x0 PUSH1 0x1E PUSH1 0x0 CALLER PUSH20 0xFFFFFFFFFFFFFFFFFFFFFFFFFFFFFFFFFFFFFFFF AND PUSH20 0xFFFFFFFFFFFFFFFFFFFFFFFFFFFFFFFFFFFFFFFF AND DUP2 MSTORE PUSH1 0x20 ADD SWAP1 DUP2 MSTORE PUSH1 0x20 ADD PUSH1 0x0 KECCAK256 DUP2 SWAP1 SSTORE POP PUSH1 0x0 PUSH1 0x20 PUSH1 0x0 CALLER PUSH20 0xFFFFFFFFFFFFFFFFFFFFFFFFFFFFFFFFFFFFFFFF AND PUSH20 0xFFFFFFFFFFFFFFFFFFFFFFFFFFFFFFFFFFFFFFFF AND DUP2 MSTORE PUSH1 0x20 ADD SWAP1 DUP2 MSTORE PUSH1 0x20 ADD PUSH1 0x0 KECCAK256 DUP2 SWAP1 SSTORE POP PUSH2 0x1B96 ADDRESS CALLER DUP4 PUSH2 0x2E8A JUMP JUMPDEST CALLER PUSH20 0xFFFFFFFFFFFFFFFFFFFFFFFFFFFFFFFFFFFFFFFF AND PUSH32 0x6BC5063C7239B75C8BF325A2A2238F726FADA322163996BB6C93D5594FB119F0 DUP3 PUSH1 0x40 MLOAD PUSH2 0x1BDC SWAP2 SWAP1 PUSH2 0x41A8 JUMP JUMPDEST PUSH1 0x40 MLOAD DUP1 SWAP2 SUB SWAP1 LOG2 POP PUSH2 0x1BED PUSH2 0x304B JUMP JUMPDEST JUMP JUMPDEST PUSH11 0x7C13BC4B2C133C56000000 DUP2 JUMP JUMPDEST PUSH1 0x23 DUP2 DUP1 MLOAD PUSH1 0x20 DUP2 ADD DUP3 ADD DUP1 MLOAD DUP5 DUP3 MSTORE PUSH1 0x20 DUP4 ADD PUSH1 0x20 DUP6 ADD KECCAK256 DUP2 DUP4 MSTORE DUP1 SWAP6 POP POP POP POP POP POP PUSH1 0x0 SWAP2 POP SLOAD SWAP1 PUSH2 0x100 EXP SWAP1 DIV PUSH20 0xFFFFFFFFFFFFFFFFFFFFFFFFFFFFFFFFFFFFFFFF AND DUP2 JUMP JUMPDEST PUSH12 0x19D971E4FE8401E74000000 DUP2 JUMP JUMPDEST PUSH1 0x0 PUSH1 0x7 PUSH1 0x0 SWAP1 SLOAD SWAP1 PUSH2 0x100 EXP SWAP1 DIV PUSH1 0xFF AND SWAP1 POP SWAP1 JUMP JUMPDEST PUSH1 0x21 PUSH1 0x20 MSTORE DUP1 PUSH1 0x0 MSTORE PUSH1 0x40 PUSH1 0x0 KECCAK256 PUSH1 0x0 SWAP2 POP SWAP1 POP SLOAD DUP2 JUMP JUMPDEST PUSH2 0x1C8E PUSH2 0x2F7E JUMP JUMPDEST PUSH1 0x1B PUSH1 0x0 SWAP1 SLOAD SWAP1 PUSH2 0x100 EXP SWAP1 DIV PUSH1 0xFF AND ISZERO PUSH2 0x1CDE JUMPI PUSH1 0x40 MLOAD PUSH32 0x8C379A000000000000000000000000000000000000000000000000000000000 DUP2 MSTORE PUSH1 0x4 ADD PUSH2 0x1CD5 SWAP1 PUSH2 0x50E4 JUMP JUMPDEST PUSH1 0x40 MLOAD DUP1 SWAP2 SUB SWAP1 REVERT JUMPDEST PUSH1 0x1 PUSH1 0x1B PUSH1 0x0 PUSH2 0x100 EXP DUP2 SLOAD DUP2 PUSH1 0xFF MUL NOT AND SWAP1 DUP4 ISZERO ISZERO MUL OR SWAP1 SSTORE POP TIMESTAMP PUSH1 0x1C DUP2 SWAP1 SSTORE POP PUSH32 0x1E3E27630243DF12C61F4FD689E14B5388B09E8DA13877DE9378FB84E99C42FA PUSH1 0x40 MLOAD PUSH1 0x40 MLOAD DUP1 SWAP2 SUB SWAP1 LOG1 JUMP JUMPDEST PUSH1 0x11 SLOAD DUP2 JUMP JUMPDEST PUSH2 0x1D3C PUSH2 0x2F7E JUMP JUMPDEST PUSH1 0x0 PUSH1 0xB SLOAD GT PUSH2 0x1D81 JUMPI PUSH1 0x40 MLOAD PUSH32 0x8C379A000000000000000000000000000000000000000000000000000000000 DUP2 MSTORE PUSH1 0x4 ADD PUSH2 0x1D78 SWAP1 PUSH2 0x5150 JUMP JUMPDEST PUSH1 0x40 MLOAD DUP1 SWAP2 SUB SWAP1 REVERT JUMPDEST PUSH2 0x1D8D ADDRESS PUSH1 0xB SLOAD PUSH2 0x32CB JUMP JUMPDEST PUSH32 0x6EF4855B666DCC7884561072E4358B28DFE01FEB1B7F4DCEBC00E62D50394AC7 PUSH1 0xB SLOAD PUSH1 0x40 MLOAD PUSH2 0x1DBE SWAP2 SWAP1 PUSH2 0x41A8 JUMP JUMPDEST PUSH1 0x40 MLOAD DUP1 SWAP2 SUB SWAP1 LOG1 PUSH1 0x0 PUSH1 0xB DUP2 SWAP1 SSTORE POP JUMP JUMPDEST PUSH1 0x10 SLOAD DUP2 JUMP JUMPDEST PUSH1 0x1F PUSH1 0x20 MSTORE DUP1 PUSH1 0x0 MSTORE PUSH1 0x40 PUSH1 0x0 KECCAK256 PUSH1 0x0 SWAP2 POP SWAP1 POP SLOAD DUP2 JUMP JUMPDEST PUSH1 0xB SLOAD DUP2 JUMP JUMPDEST PUSH4 0x1E13380 DUP2 JUMP JUMPDEST PUSH11 0x295BE96E64066972000000 DUP2 JUMP JUMPDEST PUSH11 0x7C13BC4B2C133C56000000 DUP2 JUMP JUMPDEST PUSH1 0x0 DUP1 PUSH1 0x0 DUP4 PUSH20 0xFFFFFFFFFFFFFFFFFFFFFFFFFFFFFFFFFFFFFFFF AND PUSH20 0xFFFFFFFFFFFFFFFFFFFFFFFFFFFFFFFFFFFFFFFF AND DUP2 MSTORE PUSH1 0x20 ADD SWAP1 DUP2 MSTORE PUSH1 0x20 ADD PUSH1 0x0 KECCAK256 SLOAD SWAP1 POP SWAP2 SWAP1 POP JUMP JUMPDEST PUSH2 0x1E6A PUSH2 0x2F7E JUMP JUMPDEST PUSH2 0x1E74 PUSH1 0x0 PUSH2 0x334D JUMP JUMPDEST JUMP JUMPDEST PUSH1 0x15 PUSH1 0x0 SWAP1 SLOAD SWAP1 PUSH2 0x100 EXP SWAP1 DIV PUSH1 0xFF AND DUP2 JUMP JUMPDEST PUSH2 0x1E91 PUSH2 0x3005 JUMP JUMPDEST PUSH2 0x1E99 PUSH2 0x316F JUMP JUMPDEST PUSH1 0x0 DUP2 GT PUSH2 0x1EDC JUMPI PUSH1 0x40 MLOAD PUSH32 0x8C379A000000000000000000000000000000000000000000000000000000000 DUP2 MSTORE PUSH1 0x4 ADD PUSH2 0x1ED3 SWAP1 PUSH2 0x51E2 JUMP JUMPDEST PUSH1 0x40 MLOAD DUP1 SWAP2 SUB SWAP1 REVERT JUMPDEST DUP1 PUSH2 0x1EE6 CALLER PUSH2 0x1E1A JUMP JUMPDEST LT ISZERO PUSH2 0x1F27 JUMPI PUSH1 0x40 MLOAD PUSH32 0x8C379A000000000000000000000000000000000000000000000000000000000 DUP2 MSTORE PUSH1 0x4 ADD PUSH2 0x1F1E SWAP1 PUSH2 0x524E JUMP JUMPDEST PUSH1 0x40 MLOAD DUP1 SWAP2 SUB SWAP1 REVERT JUMPDEST PUSH1 0x1B PUSH1 0x0 SWAP1 SLOAD SWAP1 PUSH2 0x100 EXP SWAP1 DIV PUSH1 0xFF AND PUSH2 0x1F76 JUMPI PUSH1 0x40 MLOAD PUSH32 0x8C379A000000000000000000000000000000000000000000000000000000000 DUP2 MSTORE PUSH1 0x4 ADD PUSH2 0x1F6D SWAP1 PUSH2 0x52E0 JUMP JUMPDEST PUSH1 0x40 MLOAD DUP1 SWAP2 SUB SWAP1 REVERT JUMPDEST PUSH2 0x1F81 CALLER ADDRESS DUP4 PUSH2 0x2E8A JUMP JUMPDEST DUP1 PUSH1 0x1E PUSH1 0x0 CALLER PUSH20 0xFFFFFFFFFFFFFFFFFFFFFFFFFFFFFFFFFFFFFFFF AND PUSH20 0xFFFFFFFFFFFFFFFFFFFFFFFFFFFFFFFFFFFFFFFF AND DUP2 MSTORE PUSH1 0x20 ADD SWAP1 DUP2 MSTORE PUSH1 0x20 ADD PUSH1 0x0 KECCAK256 PUSH1 0x0 DUP3 DUP3 SLOAD PUSH2 0x1FD0 SWAP2 SWAP1 PUSH2 0x4B02 JUMP JUMPDEST SWAP3 POP POP DUP2 SWAP1 SSTORE POP TIMESTAMP PUSH1 0x1F PUSH1 0x0 CALLER PUSH20 0xFFFFFFFFFFFFFFFFFFFFFFFFFFFFFFFFFFFFFFFF AND PUSH20 0xFFFFFFFFFFFFFFFFFFFFFFFFFFFFFFFFFFFFFFFF AND DUP2 MSTORE PUSH1 0x20 ADD SWAP1 DUP2 MSTORE PUSH1 0x20 ADD PUSH1 0x0 KECCAK256 DUP2 SWAP1 SSTORE POP PUSH3 0xED4E00 PUSH4 0x1E13380 TIMESTAMP PUSH2 0x202F SWAP2 SWAP1 PUSH2 0x4B02 JUMP JUMPDEST PUSH2 0x2039 SWAP2 SWAP1 PUSH2 0x4B02 JUMP JUMPDEST PUSH1 0x20 PUSH1 0x0 CALLER PUSH20 0xFFFFFFFFFFFFFFFFFFFFFFFFFFFFFFFFFFFFFFFF AND PUSH20 0xFFFFFFFFFFFFFFFFFFFFFFFFFFFFFFFFFFFFFFFF AND DUP2 MSTORE PUSH1 0x20 ADD SWAP1 DUP2 MSTORE PUSH1 0x20 ADD PUSH1 0x0 KECCAK256 DUP2 SWAP1 SSTORE POP CALLER PUSH20 0xFFFFFFFFFFFFFFFFFFFFFFFFFFFFFFFFFFFFFFFF AND PUSH32 0xDD2A19C3BDD089CBE77C04F5655F83DE0504D6140D12C8667646F55D0557C4DC DUP3 PUSH1 0x20 PUSH1 0x0 CALLER PUSH20 0xFFFFFFFFFFFFFFFFFFFFFFFFFFFFFFFFFFFFFFFF AND PUSH20 0xFFFFFFFFFFFFFFFFFFFFFFFFFFFFFFFFFFFFFFFF AND DUP2 MSTORE PUSH1 0x20 ADD SWAP1 DUP2 MSTORE PUSH1 0x20 ADD PUSH1 0x0 KECCAK256 SLOAD PUSH1 0x40 MLOAD PUSH2 0x2103 SWAP3 SWAP2 SWAP1 PUSH2 0x5300 JUMP JUMPDEST PUSH1 0x40 MLOAD DUP1 SWAP2 SUB SWAP1 LOG2 PUSH2 0x2113 PUSH2 0x304B JUMP JUMPDEST POP JUMP JUMPDEST PUSH1 0x0 PUSH2 0x2121 DUP3 PUSH2 0x3413 JUMP JUMPDEST SWAP1 POP SWAP2 SWAP1 POP JUMP JUMPDEST PUSH1 0xD SLOAD DUP2 JUMP JUMPDEST PUSH1 0x0 PUSH1 0x60 DUP1 PUSH1 0x0 DUP1 PUSH1 0x0 PUSH1 0x60 PUSH2 0x2142 PUSH2 0x345C JUMP JUMPDEST PUSH2 0x214A PUSH2 0x3497 JUMP JUMPDEST CHAINID ADDRESS PUSH1 0x0 DUP1 SHL PUSH1 0x0 PUSH8 0xFFFFFFFFFFFFFFFF DUP2 GT ISZERO PUSH2 0x216B JUMPI PUSH2 0x216A PUSH2 0x4378 JUMP JUMPDEST JUMPDEST PUSH1 0x40 MLOAD SWAP1 DUP1 DUP3 MSTORE DUP1 PUSH1 0x20 MUL PUSH1 0x20 ADD DUP3 ADD PUSH1 0x40 MSTORE DUP1 ISZERO PUSH2 0x2199 JUMPI DUP2 PUSH1 0x20 ADD PUSH1 0x20 DUP3 MUL DUP1 CALLDATASIZE DUP4 CALLDATACOPY DUP1 DUP3 ADD SWAP2 POP POP SWAP1 POP JUMPDEST POP PUSH32 0xF00000000000000000000000000000000000000000000000000000000000000 SWAP6 SWAP5 SWAP4 SWAP3 SWAP2 SWAP1 SWAP7 POP SWAP7 POP SWAP7 POP SWAP7 POP SWAP7 POP SWAP7 POP SWAP7 POP SWAP1 SWAP2 SWAP3 SWAP4 SWAP5 SWAP6 SWAP7 JUMP JUMPDEST PUSH2 0x21E0 PUSH2 0x2F7E JUMP JUMPDEST PUSH1 0x26 PUSH1 0x0 DUP3 PUSH20 0xFFFFFFFFFFFFFFFFFFFFFFFFFFFFFFFFFFFFFFFF AND PUSH20 0xFFFFFFFFFFFFFFFFFFFFFFFFFFFFFFFFFFFFFFFF AND DUP2 MSTORE PUSH1 0x20 ADD SWAP1 DUP2 MSTORE PUSH1 0x20 ADD PUSH1 0x0 KECCAK256 PUSH1 0x0 SWAP1 SLOAD SWAP1 PUSH2 0x100 EXP SWAP1 DIV PUSH1 0xFF AND PUSH2 0x226C JUMPI PUSH1 0x40 MLOAD PUSH32 0x8C379A000000000000000000000000000000000000000000000000000000000 DUP2 MSTORE PUSH1 0x4 ADD PUSH2 0x2263 SWAP1 PUSH2 0x5375 JUMP JUMPDEST PUSH1 0x40 MLOAD DUP1 SWAP2 SUB SWAP1 REVERT JUMPDEST PUSH1 0x26 PUSH1 0x0 DUP3 PUSH20 0xFFFFFFFFFFFFFFFFFFFFFFFFFFFFFFFFFFFFFFFF AND PUSH20 0xFFFFFFFFFFFFFFFFFFFFFFFFFFFFFFFFFFFFFFFF AND DUP2 MSTORE PUSH1 0x20 ADD SWAP1 DUP2 MSTORE PUSH1 0x20 ADD PUSH1 0x0 KECCAK256 PUSH1 0x0 PUSH2 0x100 EXP DUP2 SLOAD SWAP1 PUSH1 0xFF MUL NOT AND SWAP1 SSTORE POP JUMP JUMPDEST PUSH1 0x0 PUSH1 0x5 PUSH1 0x0 SWAP1 SLOAD SWAP1 PUSH2 0x100 EXP SWAP1 DIV PUSH20 0xFFFFFFFFFFFFFFFFFFFFFFFFFFFFFFFFFFFFFFFF AND SWAP1 POP SWAP1 JUMP JUMPDEST PUSH1 0x18 SLOAD DUP2 JUMP JUMPDEST PUSH12 0x33B2E3C9FD0803CE8000000 DUP2 JUMP JUMPDEST PUSH1 0x17 SLOAD DUP2 JUMP JUMPDEST PUSH1 0x60 PUSH1 0x4 DUP1 SLOAD PUSH2 0x2313 SWAP1 PUSH2 0x48F2 JUMP JUMPDEST DUP1 PUSH1 0x1F ADD PUSH1 0x20 DUP1 SWAP2 DIV MUL PUSH1 0x20 ADD PUSH1 0x40 MLOAD SWAP1 DUP2 ADD PUSH1 0x40 MSTORE DUP1 SWAP3 SWAP2 SWAP1 DUP2 DUP2 MSTORE PUSH1 0x20 ADD DUP3 DUP1 SLOAD PUSH2 0x233F SWAP1 PUSH2 0x48F2 JUMP JUMPDEST DUP1 ISZERO PUSH2 0x238C JUMPI DUP1 PUSH1 0x1F LT PUSH2 0x2361 JUMPI PUSH2 0x100 DUP1 DUP4 SLOAD DIV MUL DUP4 MSTORE SWAP2 PUSH1 0x20 ADD SWAP2 PUSH2 0x238C JUMP JUMPDEST DUP3 ADD SWAP2 SWAP1 PUSH1 0x0 MSTORE PUSH1 0x20 PUSH1 0x0 KECCAK256 SWAP1 JUMPDEST DUP2 SLOAD DUP2 MSTORE SWAP1 PUSH1 0x1 ADD SWAP1 PUSH1 0x20 ADD DUP1 DUP4 GT PUSH2 0x236F JUMPI DUP3 SWAP1 SUB PUSH1 0x1F AND DUP3 ADD SWAP2 JUMPDEST POP POP POP POP POP SWAP1 POP SWAP1 JUMP JUMPDEST PUSH1 0xF PUSH1 0x0 SWAP1 SLOAD SWAP1 PUSH2 0x100 EXP SWAP1 DIV PUSH1 0xFF AND DUP2 JUMP JUMPDEST PUSH1 0x26 PUSH1 0x20 MSTORE DUP1 PUSH1 0x0 MSTORE PUSH1 0x40 PUSH1 0x0 KECCAK256 PUSH1 0x0 SWAP2 POP SLOAD SWAP1 PUSH2 0x100 EXP SWAP1 DIV PUSH1 0xFF AND DUP2 JUMP JUMPDEST PUSH11 0x295BE96E64066972000000 DUP2 JUMP JUMPDEST PUSH2 0x23E0 PUSH2 0x2F7E JUMP JUMPDEST PUSH1 0x0 JUMPDEST DUP3 DUP3 SWAP1 POP DUP2 LT ISZERO PUSH2 0x24F9 JUMPI PUSH1 0x26 PUSH1 0x0 DUP5 DUP5 DUP5 DUP2 DUP2 LT PUSH2 0x2405 JUMPI PUSH2 0x2404 PUSH2 0x5395 JUMP JUMPDEST JUMPDEST SWAP1 POP PUSH1 0x20 MUL ADD PUSH1 0x20 DUP2 ADD SWAP1 PUSH2 0x241A SWAP2 SWAP1 PUSH2 0x401F JUMP JUMPDEST PUSH20 0xFFFFFFFFFFFFFFFFFFFFFFFFFFFFFFFFFFFFFFFF AND PUSH20 0xFFFFFFFFFFFFFFFFFFFFFFFFFFFFFFFFFFFFFFFF AND DUP2 MSTORE PUSH1 0x20 ADD SWAP1 DUP2 MSTORE PUSH1 0x20 ADD PUSH1 0x0 KECCAK256 PUSH1 0x0 SWAP1 SLOAD SWAP1 PUSH2 0x100 EXP SWAP1 DIV PUSH1 0xFF AND PUSH2 0x24E6 JUMPI PUSH1 0x1 PUSH1 0x26 PUSH1 0x0 DUP6 DUP6 DUP6 DUP2 DUP2 LT PUSH2 0x247F JUMPI PUSH2 0x247E PUSH2 0x5395 JUMP JUMPDEST JUMPDEST SWAP1 POP PUSH1 0x20 MUL ADD PUSH1 0x20 DUP2 ADD SWAP1 PUSH2 0x2494 SWAP2 SWAP1 PUSH2 0x401F JUMP JUMPDEST PUSH20 0xFFFFFFFFFFFFFFFFFFFFFFFFFFFFFFFFFFFFFFFF AND PUSH20 0xFFFFFFFFFFFFFFFFFFFFFFFFFFFFFFFFFFFFFFFF AND DUP2 MSTORE PUSH1 0x20 ADD SWAP1 DUP2 MSTORE PUSH1 0x20 ADD PUSH1 0x0 KECCAK256 PUSH1 0x0 PUSH2 0x100 EXP DUP2 SLOAD DUP2 PUSH1 0xFF MUL NOT AND SWAP1 DUP4 ISZERO ISZERO MUL OR SWAP1 SSTORE POP JUMPDEST DUP1 DUP1 PUSH2 0x24F1 SWAP1 PUSH2 0x53C4 JUMP JUMPDEST SWAP2 POP POP PUSH2 0x23E3 JUMP JUMPDEST POP POP POP JUMP JUMPDEST PUSH1 0x0 DUP1 PUSH2 0x2509 PUSH2 0x2DDC JUMP JUMPDEST SWAP1 POP PUSH2 0x2516 DUP2 DUP6 DUP6 PUSH2 0x2E8A JUMP JUMPDEST PUSH1 0x1 SWAP2 POP POP SWAP3 SWAP2 POP POP JUMP JUMPDEST PUSH1 0xE PUSH1 0x20 MSTORE DUP1 PUSH1 0x0 MSTORE PUSH1 0x40 PUSH1 0x0 KECCAK256 PUSH1 0x0 SWAP2 POP SLOAD SWAP1 PUSH2 0x100 EXP SWAP1 DIV PUSH1 0xFF AND DUP2 JUMP JUMPDEST PUSH1 0x12 SLOAD DUP2 JUMP JUMPDEST PUSH2 0x254F PUSH2 0x3005 JUMP JUMPDEST PUSH2 0x2557 PUSH2 0x316F JUMP JUMPDEST PUSH1 0x1B PUSH1 0x0 SWAP1 SLOAD SWAP1 PUSH2 0x100 EXP SWAP1 DIV PUSH1 0xFF AND ISZERO PUSH2 0x25A7 JUMPI PUSH1 0x40 MLOAD PUSH32 0x8C379A000000000000000000000000000000000000000000000000000000000 DUP2 MSTORE PUSH1 0x4 ADD PUSH2 0x259E SWAP1 PUSH2 0x5458 JUMP JUMPDEST PUSH1 0x40 MLOAD DUP1 SWAP2 SUB SWAP1 REVERT JUMPDEST PUSH1 0x19 SLOAD DUP4 LT ISZERO DUP1 ISZERO PUSH2 0x25BB JUMPI POP PUSH1 0x1A SLOAD DUP4 GT ISZERO JUMPDEST PUSH2 0x25FA JUMPI PUSH1 0x40 MLOAD PUSH32 0x8C379A000000000000000000000000000000000000000000000000000000000 DUP2 MSTORE PUSH1 0x4 ADD PUSH2 0x25F1 SWAP1 PUSH2 0x54C4 JUMP JUMPDEST PUSH1 0x40 MLOAD DUP1 SWAP2 SUB SWAP1 REVERT JUMPDEST PUSH11 0x7C13BC4B2C133C56000000 PUSH1 0x16 SLOAD LT PUSH2 0x2649 JUMPI PUSH1 0x40 MLOAD PUSH32 0x8C379A000000000000000000000000000000000000000000000000000000000 DUP2 MSTORE PUSH1 0x4 ADD PUSH2 0x2640 SWAP1 PUSH2 0x5530 JUMP JUMPDEST PUSH1 0x40 MLOAD DUP1 SWAP2 SUB SWAP1 REVERT JUMPDEST PUSH1 0x0 PUSH2 0x2654 DUP5 PUSH2 0x34D2 JUMP JUMPDEST SWAP1 POP PUSH1 0x0 DUP5 PUSH1 0x21 PUSH1 0x0 CALLER PUSH20 0xFFFFFFFFFFFFFFFFFFFFFFFFFFFFFFFFFFFFFFFF AND PUSH20 0xFFFFFFFFFFFFFFFFFFFFFFFFFFFFFFFFFFFFFFFF AND DUP2 MSTORE PUSH1 0x20 ADD SWAP1 DUP2 MSTORE PUSH1 0x20 ADD PUSH1 0x0 KECCAK256 SLOAD PUSH2 0x26A3 SWAP2 SWAP1 PUSH2 0x4B02 JUMP JUMPDEST SWAP1 POP PUSH1 0x1A SLOAD DUP2 GT ISZERO PUSH2 0x26EA JUMPI PUSH1 0x40 MLOAD PUSH32 0x8C379A000000000000000000000000000000000000000000000000000000000 DUP2 MSTORE PUSH1 0x4 ADD PUSH2 0x26E1 SWAP1 PUSH2 0x55C2 JUMP JUMPDEST PUSH1 0x40 MLOAD DUP1 SWAP2 SUB SWAP1 REVERT JUMPDEST DUP1 PUSH1 0x21 PUSH1 0x0 CALLER PUSH20 0xFFFFFFFFFFFFFFFFFFFFFFFFFFFFFFFFFFFFFFFF AND PUSH20 0xFFFFFFFFFFFFFFFFFFFFFFFFFFFFFFFFFFFFFFFF AND DUP2 MSTORE PUSH1 0x20 ADD SWAP1 DUP2 MSTORE PUSH1 0x20 ADD PUSH1 0x0 KECCAK256 DUP2 SWAP1 SSTORE POP DUP2 PUSH1 0x16 PUSH1 0x0 DUP3 DUP3 SLOAD PUSH2 0x2740 SWAP2 SWAP1 PUSH2 0x4B02 JUMP JUMPDEST SWAP3 POP POP DUP2 SWAP1 SSTORE POP PUSH11 0x7C13BC4B2C133C56000000 PUSH1 0x16 SLOAD GT ISZERO PUSH2 0x2797 JUMPI PUSH1 0x40 MLOAD PUSH32 0x8C379A000000000000000000000000000000000000000000000000000000000 DUP2 MSTORE PUSH1 0x4 ADD PUSH2 0x278E SWAP1 PUSH2 0x562E JUMP JUMPDEST PUSH1 0x40 MLOAD DUP1 SWAP2 SUB SWAP1 REVERT JUMPDEST PUSH1 0x0 DUP5 DUP5 SWAP1 POP GT ISZERO PUSH2 0x28DE JUMPI PUSH1 0x0 PUSH1 0x23 DUP6 DUP6 PUSH1 0x40 MLOAD PUSH2 0x27B7 SWAP3 SWAP2 SWAP1 PUSH2 0x4E14 JUMP JUMPDEST SWAP1 DUP2 MSTORE PUSH1 0x20 ADD PUSH1 0x40 MLOAD DUP1 SWAP2 SUB SWAP1 KECCAK256 PUSH1 0x0 SWAP1 SLOAD SWAP1 PUSH2 0x100 EXP SWAP1 DIV PUSH20 0xFFFFFFFFFFFFFFFFFFFFFFFFFFFFFFFFFFFFFFFF AND SWAP1 POP PUSH1 0x0 PUSH20 0xFFFFFFFFFFFFFFFFFFFFFFFFFFFFFFFFFFFFFFFF AND DUP2 PUSH20 0xFFFFFFFFFFFFFFFFFFFFFFFFFFFFFFFFFFFFFFFF AND SUB PUSH2 0x2857 JUMPI PUSH1 0x40 MLOAD PUSH32 0x8C379A000000000000000000000000000000000000000000000000000000000 DUP2 MSTORE PUSH1 0x4 ADD PUSH2 0x284E SWAP1 PUSH2 0x4E79 JUMP JUMPDEST PUSH1 0x40 MLOAD DUP1 SWAP2 SUB SWAP1 REVERT JUMPDEST PUSH1 0x0 PUSH1 0x64 PUSH1 0x24 PUSH1 0x0 SWAP1 SLOAD SWAP1 PUSH2 0x100 EXP SWAP1 DIV PUSH1 0xFF AND PUSH1 0xFF AND DUP6 PUSH2 0x2879 SWAP2 SWAP1 PUSH2 0x4E99 JUMP JUMPDEST PUSH2 0x2883 SWAP2 SWAP1 PUSH2 0x4F0A JUMP JUMPDEST SWAP1 POP DUP1 PUSH1 0x25 PUSH1 0x0 DUP5 PUSH20 0xFFFFFFFFFFFFFFFFFFFFFFFFFFFFFFFFFFFFFFFF AND PUSH20 0xFFFFFFFFFFFFFFFFFFFFFFFFFFFFFFFFFFFFFFFF AND DUP2 MSTORE PUSH1 0x20 ADD SWAP1 DUP2 MSTORE PUSH1 0x20 ADD PUSH1 0x0 KECCAK256 PUSH1 0x0 DUP3 DUP3 SLOAD PUSH2 0x28D4 SWAP2 SWAP1 PUSH2 0x4B02 JUMP JUMPDEST SWAP3 POP POP DUP2 SWAP1 SSTORE POP POP POP JUMPDEST PUSH2 0x28E9 ADDRESS CALLER DUP5 PUSH2 0x2E8A JUMP JUMPDEST CALLER PUSH20 0xFFFFFFFFFFFFFFFFFFFFFFFFFFFFFFFFFFFFFFFF AND PUSH32 0x3607C497E362683EDFEC3F75D9CF47E46AD5D2FEBCDB84BC5F7C1264EE9D9D78 DUP4 DUP7 DUP7 PUSH1 0x40 MLOAD PUSH2 0x2933 SWAP4 SWAP3 SWAP2 SWAP1 PUSH2 0x4F68 JUMP JUMPDEST PUSH1 0x40 MLOAD DUP1 SWAP2 SUB SWAP1 LOG2 POP POP PUSH2 0x2945 PUSH2 0x304B JUMP JUMPDEST POP POP POP JUMP JUMPDEST PUSH1 0x1A SLOAD DUP2 JUMP JUMPDEST PUSH1 0x16 SLOAD DUP2 JUMP JUMPDEST PUSH1 0x13 SLOAD DUP2 JUMP JUMPDEST PUSH1 0x14 SLOAD DUP2 JUMP JUMPDEST PUSH11 0x7C13BC4B2C133C56000000 DUP2 JUMP JUMPDEST PUSH1 0x25 PUSH1 0x20 MSTORE DUP1 PUSH1 0x0 MSTORE PUSH1 0x40 PUSH1 0x0 KECCAK256 PUSH1 0x0 SWAP2 POP SWAP1 POP SLOAD DUP2 JUMP JUMPDEST PUSH11 0x295BE96E64066972000000 DUP2 JUMP JUMPDEST PUSH1 0x1C SLOAD DUP2 JUMP JUMPDEST PUSH1 0x24 PUSH1 0x0 SWAP1 SLOAD SWAP1 PUSH2 0x100 EXP SWAP1 DIV PUSH1 0xFF AND DUP2 JUMP JUMPDEST DUP4 TIMESTAMP GT ISZERO PUSH2 0x29F6 JUMPI DUP4 PUSH1 0x40 MLOAD PUSH32 0x6279130200000000000000000000000000000000000000000000000000000000 DUP2 MSTORE PUSH1 0x4 ADD PUSH2 0x29ED SWAP2 SWAP1 PUSH2 0x41A8 JUMP JUMPDEST PUSH1 0x40 MLOAD DUP1 SWAP2 SUB SWAP1 REVERT JUMPDEST PUSH1 0x0 PUSH32 0x6E71EDAE12B1B97F4D1F60370FEF10105FA2FAAE0126114A169C64845D6126C9 DUP9 DUP9 DUP9 PUSH2 0x2A25 DUP13 PUSH2 0x358A JUMP JUMPDEST DUP10 PUSH1 0x40 MLOAD PUSH1 0x20 ADD PUSH2 0x2A3B SWAP7 SWAP6 SWAP5 SWAP4 SWAP3 SWAP2 SWAP1 PUSH2 0x564E JUMP JUMPDEST PUSH1 0x40 MLOAD PUSH1 0x20 DUP2 DUP4 SUB SUB DUP2 MSTORE SWAP1 PUSH1 0x40 MSTORE DUP1 MLOAD SWAP1 PUSH1 0x20 ADD KECCAK256 SWAP1 POP PUSH1 0x0 PUSH2 0x2A5E DUP3 PUSH2 0x35E1 JUMP JUMPDEST SWAP1 POP PUSH1 0x0 PUSH2 0x2A6E DUP3 DUP8 DUP8 DUP8 PUSH2 0x35FB JUMP JUMPDEST SWAP1 POP DUP10 PUSH20 0xFFFFFFFFFFFFFFFFFFFFFFFFFFFFFFFFFFFFFFFF AND DUP2 PUSH20 0xFFFFFFFFFFFFFFFFFFFFFFFFFFFFFFFFFFFFFFFF AND EQ PUSH2 0x2AE2 JUMPI DUP1 DUP11 PUSH1 0x40 MLOAD PUSH32 0x4B800E4600000000000000000000000000000000000000000000000000000000 DUP2 MSTORE PUSH1 0x4 ADD PUSH2 0x2AD9 SWAP3 SWAP2 SWAP1 PUSH2 0x56AF JUMP JUMPDEST PUSH1 0x40 MLOAD DUP1 SWAP2 SUB SWAP1 REVERT JUMPDEST PUSH2 0x2AED DUP11 DUP11 DUP11 PUSH2 0x2DE4 JUMP JUMPDEST POP POP POP POP POP POP POP POP POP POP JUMP JUMPDEST PUSH1 0x0 PUSH1 0x1 PUSH1 0x0 DUP5 PUSH20 0xFFFFFFFFFFFFFFFFFFFFFFFFFFFFFFFFFFFFFFFF AND PUSH20 0xFFFFFFFFFFFFFFFFFFFFFFFFFFFFFFFFFFFFFFFF AND DUP2 MSTORE PUSH1 0x20 ADD SWAP1 DUP2 MSTORE PUSH1 0x20 ADD PUSH1 0x0 KECCAK256 PUSH1 0x0 DUP4 PUSH20 0xFFFFFFFFFFFFFFFFFFFFFFFFFFFFFFFFFFFFFFFF AND PUSH20 0xFFFFFFFFFFFFFFFFFFFFFFFFFFFFFFFFFFFFFFFF AND DUP2 MSTORE PUSH1 0x20 ADD SWAP1 DUP2 MSTORE PUSH1 0x20 ADD PUSH1 0x0 KECCAK256 SLOAD SWAP1 POP SWAP3 SWAP2 POP POP JUMP JUMPDEST PUSH2 0x2B88 PUSH2 0x2F7E JUMP JUMPDEST PUSH1 0x26 PUSH1 0x0 DUP3 PUSH20 0xFFFFFFFFFFFFFFFFFFFFFFFFFFFFFFFFFFFFFFFF AND PUSH20 0xFFFFFFFFFFFFFFFFFFFFFFFFFFFFFFFFFFFFFFFF AND DUP2 MSTORE PUSH1 0x20 ADD SWAP1 DUP2 MSTORE PUSH1 0x20 ADD PUSH1 0x0 KECCAK256 PUSH1 0x0 SWAP1 SLOAD SWAP1 PUSH2 0x100 EXP SWAP1 DIV PUSH1 0xFF AND ISZERO PUSH2 0x2C15 JUMPI PUSH1 0x40 MLOAD PUSH32 0x8C379A000000000000000000000000000000000000000000000000000000000 DUP2 MSTORE PUSH1 0x4 ADD PUSH2 0x2C0C SWAP1 PUSH2 0x5724 JUMP JUMPDEST PUSH1 0x40 MLOAD DUP1 SWAP2 SUB SWAP1 REVERT JUMPDEST PUSH1 0x1 PUSH1 0x26 PUSH1 0x0 DUP4 PUSH20 0xFFFFFFFFFFFFFFFFFFFFFFFFFFFFFFFFFFFFFFFF AND PUSH20 0xFFFFFFFFFFFFFFFFFFFFFFFFFFFFFFFFFFFFFFFF AND DUP2 MSTORE PUSH1 0x20 ADD SWAP1 DUP2 MSTORE PUSH1 0x20 ADD PUSH1 0x0 KECCAK256 PUSH1 0x0 PUSH2 0x100 EXP DUP2 SLOAD DUP2 PUSH1 0xFF MUL NOT AND SWAP1 DUP4 ISZERO ISZERO MUL OR SWAP1 SSTORE POP POP JUMP JUMPDEST PUSH2 0x2C78 PUSH2 0x2F7E JUMP JUMPDEST PUSH1 0x0 PUSH20 0xFFFFFFFFFFFFFFFFFFFFFFFFFFFFFFFFFFFFFFFF AND DUP2 PUSH20 0xFFFFFFFFFFFFFFFFFFFFFFFFFFFFFFFFFFFFFFFF AND SUB PUSH2 0x2CEA JUMPI PUSH1 0x0 PUSH1 0x40 MLOAD PUSH32 0x1E4FBDF700000000000000000000000000000000000000000000000000000000 DUP2 MSTORE PUSH1 0x4 ADD PUSH2 0x2CE1 SWAP2 SWAP1 PUSH2 0x44FB JUMP JUMPDEST PUSH1 0x40 MLOAD DUP1 SWAP2 SUB SWAP1 REVERT JUMPDEST PUSH2 0x2CF3 DUP2 PUSH2 0x334D JUMP JUMPDEST POP JUMP JUMPDEST PUSH2 0x2CFE PUSH2 0x2F7E JUMP JUMPDEST PUSH1 0x15 PUSH1 0x0 SWAP1 SLOAD SWAP1 PUSH2 0x100 EXP SWAP1 DIV PUSH1 0xFF AND ISZERO PUSH2 0x2D4E JUMPI PUSH1 0x40 MLOAD PUSH32 0x8C379A000000000000000000000000000000000000000000000000000000000 DUP2 MSTORE PUSH1 0x4 ADD PUSH2 0x2D45 SWAP1 PUSH2 0x5790 JUMP JUMPDEST PUSH1 0x40 MLOAD DUP1 SWAP2 SUB SWAP1 REVERT JUMPDEST PUSH1 0x1 PUSH1 0x15 PUSH1 0x0 PUSH2 0x100 EXP DUP2 SLOAD DUP2 PUSH1 0xFF MUL NOT AND SWAP1 DUP4 ISZERO ISZERO MUL OR SWAP1 SSTORE POP PUSH32 0x12FCD070C773929CE838B1791E3A5B8A7630D567BADA259980130258A27DFE58 PUSH1 0x40 MLOAD PUSH1 0x40 MLOAD DUP1 SWAP2 SUB SWAP1 LOG1 JUMP JUMPDEST PUSH11 0x52B7D2DCC80CD2E4000000 DUP2 JUMP JUMPDEST PUSH1 0x1D PUSH1 0x20 MSTORE DUP1 PUSH1 0x0 MSTORE PUSH1 0x40 PUSH1 0x0 KECCAK256 PUSH1 0x0 SWAP2 POP SWAP1 POP DUP1 PUSH1 0x0 ADD SLOAD SWAP1 DUP1 PUSH1 0x1 ADD SLOAD SWAP1 DUP1 PUSH1 0x2 ADD SLOAD SWAP1 DUP1 PUSH1 0x3 ADD SLOAD SWAP1 DUP1 PUSH1 0x4 ADD SLOAD SWAP1 POP DUP6 JUMP JUMPDEST PUSH1 0x0 CALLER SWAP1 POP SWAP1 JUMP JUMPDEST PUSH2 0x2DF1 DUP4 DUP4 DUP4 PUSH1 0x1 PUSH2 0x362B JUMP JUMPDEST POP POP POP JUMP JUMPDEST PUSH1 0x0 PUSH2 0x2E02 DUP5 DUP5 PUSH2 0x2AF9 JUMP JUMPDEST SWAP1 POP PUSH32 0xFFFFFFFFFFFFFFFFFFFFFFFFFFFFFFFFFFFFFFFFFFFFFFFFFFFFFFFFFFFFFFFF DUP2 EQ PUSH2 0x2E84 JUMPI DUP2 DUP2 LT ISZERO PUSH2 0x2E74 JUMPI DUP3 DUP2 DUP4 PUSH1 0x40 MLOAD PUSH32 0xFB8F41B200000000000000000000000000000000000000000000000000000000 DUP2 MSTORE PUSH1 0x4 ADD PUSH2 0x2E6B SWAP4 SWAP3 SWAP2 SWAP1 PUSH2 0x57B0 JUMP JUMPDEST PUSH1 0x40 MLOAD DUP1 SWAP2 SUB SWAP1 REVERT JUMPDEST PUSH2 0x2E83 DUP5 DUP5 DUP5 DUP5 SUB PUSH1 0x0 PUSH2 0x362B JUMP JUMPDEST JUMPDEST POP POP POP POP JUMP JUMPDEST PUSH1 0x0 PUSH20 0xFFFFFFFFFFFFFFFFFFFFFFFFFFFFFFFFFFFFFFFF AND DUP4 PUSH20 0xFFFFFFFFFFFFFFFFFFFFFFFFFFFFFFFFFFFFFFFF AND SUB PUSH2 0x2EFC JUMPI PUSH1 0x0 PUSH1 0x40 MLOAD PUSH32 0x96C6FD1E00000000000000000000000000000000000000000000000000000000 DUP2 MSTORE PUSH1 0x4 ADD PUSH2 0x2EF3 SWAP2 SWAP1 PUSH2 0x44FB JUMP JUMPDEST PUSH1 0x40 MLOAD DUP1 SWAP2 SUB SWAP1 REVERT JUMPDEST PUSH1 0x0 PUSH20 0xFFFFFFFFFFFFFFFFFFFFFFFFFFFFFFFFFFFFFFFF AND DUP3 PUSH20 0xFFFFFFFFFFFFFFFFFFFFFFFFFFFFFFFFFFFFFFFF AND SUB PUSH2 0x2F6E JUMPI PUSH1 0x0 PUSH1 0x40 MLOAD PUSH32 0xEC442F0500000000000000000000000000000000000000000000000000000000 DUP2 MSTORE PUSH1 0x4 ADD PUSH2 0x2F65 SWAP2 SWAP1 PUSH2 0x44FB JUMP JUMPDEST PUSH1 0x40 MLOAD DUP1 SWAP2 SUB SWAP1 REVERT JUMPDEST PUSH2 0x2F79 DUP4 DUP4 DUP4 PUSH2 0x3802 JUMP JUMPDEST POP POP POP JUMP JUMPDEST PUSH2 0x2F86 PUSH2 0x2DDC JUMP JUMPDEST PUSH20 0xFFFFFFFFFFFFFFFFFFFFFFFFFFFFFFFFFFFFFFFF AND PUSH2 0x2FA4 PUSH2 0x22BE JUMP JUMPDEST PUSH20 0xFFFFFFFFFFFFFFFFFFFFFFFFFFFFFFFFFFFFFFFF AND EQ PUSH2 0x3003 JUMPI PUSH2 0x2FC7 PUSH2 0x2DDC JUMP JUMPDEST PUSH1 0x40 MLOAD PUSH32 0x118CDAA700000000000000000000000000000000000000000000000000000000 DUP2 MSTORE PUSH1 0x4 ADD PUSH2 0x2FFA SWAP2 SWAP1 PUSH2 0x44FB JUMP JUMPDEST PUSH1 0x40 MLOAD DUP1 SWAP2 SUB SWAP1 REVERT JUMPDEST JUMP JUMPDEST PUSH1 0x2 PUSH1 0x6 SLOAD SUB PUSH2 0x3041 JUMPI PUSH1 0x40 MLOAD PUSH32 0x3EE5AEB500000000000000000000000000000000000000000000000000000000 DUP2 MSTORE PUSH1 0x4 ADD PUSH1 0x40 MLOAD DUP1 SWAP2 SUB SWAP1 REVERT JUMPDEST PUSH1 0x2 PUSH1 0x6 DUP2 SWAP1 SSTORE POP JUMP JUMPDEST PUSH1 0x1 PUSH1 0x6 DUP2 SWAP1 SSTORE POP JUMP JUMPDEST PUSH1 0x0 PUSH32 0x0 PUSH20 0xFFFFFFFFFFFFFFFFFFFFFFFFFFFFFFFFFFFFFFFF AND ADDRESS PUSH20 0xFFFFFFFFFFFFFFFFFFFFFFFFFFFFFFFFFFFFFFFF AND EQ DUP1 ISZERO PUSH2 0x30D1 JUMPI POP PUSH32 0x0 CHAINID EQ JUMPDEST ISZERO PUSH2 0x30FE JUMPI PUSH32 0x0 SWAP1 POP PUSH2 0x3109 JUMP JUMPDEST PUSH2 0x3106 PUSH2 0x3A27 JUMP JUMPDEST SWAP1 POP JUMPDEST SWAP1 JUMP JUMPDEST PUSH2 0x3114 PUSH2 0x3ABD JUMP JUMPDEST PUSH1 0x0 PUSH1 0x7 PUSH1 0x0 PUSH2 0x100 EXP DUP2 SLOAD DUP2 PUSH1 0xFF MUL NOT AND SWAP1 DUP4 ISZERO ISZERO MUL OR SWAP1 SSTORE POP PUSH32 0x5DB9EE0A495BF2E6FF9C91A7834C1BA4FDD244A5E8AA4E537BD38AEAE4B073AA PUSH2 0x3158 PUSH2 0x2DDC JUMP JUMPDEST PUSH1 0x40 MLOAD PUSH2 0x3165 SWAP2 SWAP1 PUSH2 0x44FB JUMP JUMPDEST PUSH1 0x40 MLOAD DUP1 SWAP2 SUB SWAP1 LOG1 JUMP JUMPDEST PUSH2 0x3177 PUSH2 0x1C57 JUMP JUMPDEST ISZERO PUSH2 0x31AE JUMPI PUSH1 0x40 MLOAD PUSH32 0xD93C066500000000000000000000000000000000000000000000000000000000 DUP2 MSTORE PUSH1 0x4 ADD PUSH1 0x40 MLOAD DUP1 SWAP2 SUB SWAP1 REVERT JUMPDEST JUMP JUMPDEST PUSH1 0x0 DUP1 PUSH1 0x12 SLOAD PUSH1 0x13 SLOAD PUSH2 0x31C3 SWAP2 SWAP1 PUSH2 0x57E7 JUMP JUMPDEST SWAP1 POP PUSH1 0x0 PUSH11 0x295BE96E64066972000000 PUSH1 0x11 SLOAD DUP4 PUSH2 0x31E1 SWAP2 SWAP1 PUSH2 0x4E99 JUMP JUMPDEST PUSH2 0x31EB SWAP2 SWAP1 PUSH2 0x4F0A JUMP JUMPDEST PUSH1 0x12 SLOAD PUSH2 0x31F8 SWAP2 SWAP1 PUSH2 0x4B02 JUMP JUMPDEST SWAP1 POP PUSH1 0x12 SLOAD DUP2 LT ISZERO DUP1 ISZERO PUSH2 0x320E JUMPI POP PUSH1 0x13 SLOAD DUP2 GT ISZERO JUMPDEST PUSH2 0x324D JUMPI PUSH1 0x40 MLOAD PUSH32 0x8C379A000000000000000000000000000000000000000000000000000000000 DUP2 MSTORE PUSH1 0x4 ADD PUSH2 0x3244 SWAP1 PUSH2 0x5867 JUMP JUMPDEST PUSH1 0x40 MLOAD DUP1 SWAP2 SUB SWAP1 REVERT JUMPDEST PUSH1 0x0 DUP2 DUP6 PUSH2 0x325B SWAP2 SWAP1 PUSH2 0x4F0A JUMP JUMPDEST SWAP1 POP DUP1 SWAP4 POP POP POP POP SWAP2 SWAP1 POP JUMP JUMPDEST PUSH2 0x3270 PUSH2 0x316F JUMP JUMPDEST PUSH1 0x1 PUSH1 0x7 PUSH1 0x0 PUSH2 0x100 EXP DUP2 SLOAD DUP2 PUSH1 0xFF MUL NOT AND SWAP1 DUP4 ISZERO ISZERO MUL OR SWAP1 SSTORE POP PUSH32 0x62E78CEA01BEE320CD4E420270B5EA74000D11B0C9F74754EBDBFC544B05A258 PUSH2 0x32B4 PUSH2 0x2DDC JUMP JUMPDEST PUSH1 0x40 MLOAD PUSH2 0x32C1 SWAP2 SWAP1 PUSH2 0x44FB JUMP JUMPDEST PUSH1 0x40 MLOAD DUP1 SWAP2 SUB SWAP1 LOG1 JUMP JUMPDEST PUSH1 0x0 PUSH20 0xFFFFFFFFFFFFFFFFFFFFFFFFFFFFFFFFFFFFFFFF AND DUP3 PUSH20 0xFFFFFFFFFFFFFFFFFFFFFFFFFFFFFFFFFFFFFFFF AND SUB PUSH2 0x333D JUMPI PUSH1 0x0 PUSH1 0x40 MLOAD PUSH32 0x96C6FD1E00000000000000000000000000000000000000000000000000000000 DUP2 MSTORE PUSH1 0x4 ADD PUSH2 0x3334 SWAP2 SWAP1 PUSH2 0x44FB JUMP JUMPDEST PUSH1 0x40 MLOAD DUP1 SWAP2 SUB SWAP1 REVERT JUMPDEST PUSH2 0x3349 DUP3 PUSH1 0x0 DUP4 PUSH2 0x3802 JUMP JUMPDEST POP POP JUMP JUMPDEST PUSH1 0x0 PUSH1 0x5 PUSH1 0x0 SWAP1 SLOAD SWAP1 PUSH2 0x100 EXP SWAP1 DIV PUSH20 0xFFFFFFFFFFFFFFFFFFFFFFFFFFFFFFFFFFFFFFFF AND SWAP1 POP DUP2 PUSH1 0x5 PUSH1 0x0 PUSH2 0x100 EXP DUP2 SLOAD DUP2 PUSH20 0xFFFFFFFFFFFFFFFFFFFFFFFFFFFFFFFFFFFFFFFF MUL NOT AND SWAP1 DUP4 PUSH20 0xFFFFFFFFFFFFFFFFFFFFFFFFFFFFFFFFFFFFFFFF AND MUL OR SWAP1 SSTORE POP DUP2 PUSH20 0xFFFFFFFFFFFFFFFFFFFFFFFFFFFFFFFFFFFFFFFF AND DUP2 PUSH20 0xFFFFFFFFFFFFFFFFFFFFFFFFFFFFFFFFFFFFFFFF AND PUSH32 0x8BE0079C531659141344CD1FD0A4F28419497F9722A3DAAFE3B4186F6B6457E0 PUSH1 0x40 MLOAD PUSH1 0x40 MLOAD DUP1 SWAP2 SUB SWAP1 LOG3 POP POP JUMP JUMPDEST PUSH1 0x0 PUSH1 0xA PUSH1 0x0 DUP4 PUSH20 0xFFFFFFFFFFFFFFFFFFFFFFFFFFFFFFFFFFFFFFFF AND PUSH20 0xFFFFFFFFFFFFFFFFFFFFFFFFFFFFFFFFFFFFFFFF AND DUP2 MSTORE PUSH1 0x20 ADD SWAP1 DUP2 MSTORE PUSH1 0x20 ADD PUSH1 0x0 KECCAK256 SLOAD SWAP1 POP SWAP2 SWAP1 POP JUMP JUMPDEST PUSH1 0x60 PUSH2 0x3492 PUSH1 0x8 PUSH32 0x0 PUSH2 0x3AFD SWAP1 SWAP2 SWAP1 PUSH4 0xFFFFFFFF AND JUMP JUMPDEST SWAP1 POP SWAP1 JUMP JUMPDEST PUSH1 0x60 PUSH2 0x34CD PUSH1 0x9 PUSH32 0x0 PUSH2 0x3AFD SWAP1 SWAP2 SWAP1 PUSH4 0xFFFFFFFF AND JUMP JUMPDEST SWAP1 POP SWAP1 JUMP JUMPDEST PUSH1 0x0 DUP1 PUSH1 0x17 SLOAD PUSH1 0x18 SLOAD PUSH2 0x34E5 SWAP2 SWAP1 PUSH2 0x57E7 JUMP JUMPDEST SWAP1 POP PUSH1 0x0 PUSH11 0x7C13BC4B2C133C56000000 PUSH1 0x16 SLOAD DUP4 PUSH2 0x3503 SWAP2 SWAP1 PUSH2 0x4E99 JUMP JUMPDEST PUSH2 0x350D SWAP2 SWAP1 PUSH2 0x4F0A JUMP JUMPDEST PUSH1 0x17 SLOAD PUSH2 0x351A SWAP2 SWAP1 PUSH2 0x4B02 JUMP JUMPDEST SWAP1 POP PUSH1 0x17 SLOAD DUP2 LT ISZERO DUP1 ISZERO PUSH2 0x3530 JUMPI POP PUSH1 0x18 SLOAD DUP2 GT ISZERO JUMPDEST PUSH2 0x356F JUMPI PUSH1 0x40 MLOAD PUSH32 0x8C379A000000000000000000000000000000000000000000000000000000000 DUP2 MSTORE PUSH1 0x4 ADD PUSH2 0x3566 SWAP1 PUSH2 0x5867 JUMP JUMPDEST PUSH1 0x40 MLOAD DUP1 SWAP2 SUB SWAP1 REVERT JUMPDEST PUSH1 0x0 DUP2 DUP6 PUSH2 0x357D SWAP2 SWAP1 PUSH2 0x4F0A JUMP JUMPDEST SWAP1 POP DUP1 SWAP4 POP POP POP POP SWAP2 SWAP1 POP JUMP JUMPDEST PUSH1 0x0 PUSH1 0xA PUSH1 0x0 DUP4 PUSH20 0xFFFFFFFFFFFFFFFFFFFFFFFFFFFFFFFFFFFFFFFF AND PUSH20 0xFFFFFFFFFFFFFFFFFFFFFFFFFFFFFFFFFFFFFFFF AND DUP2 MSTORE PUSH1 0x20 ADD SWAP1 DUP2 MSTORE PUSH1 0x20 ADD PUSH1 0x0 KECCAK256 PUSH1 0x0 DUP2 SLOAD DUP1 SWAP3 SWAP2 SWAP1 PUSH1 0x1 ADD SWAP2 SWAP1 POP SSTORE SWAP1 POP SWAP2 SWAP1 POP JUMP JUMPDEST PUSH1 0x0 PUSH2 0x35F4 PUSH2 0x35EE PUSH2 0x3055 JUMP JUMPDEST DUP4 PUSH2 0x3BAD JUMP JUMPDEST SWAP1 POP SWAP2 SWAP1 POP JUMP JUMPDEST PUSH1 0x0 DUP1 PUSH1 0x0 DUP1 PUSH2 0x360D DUP9 DUP9 DUP9 DUP9 PUSH2 0x3BEE JUMP JUMPDEST SWAP3 POP SWAP3 POP SWAP3 POP PUSH2 0x361D DUP3 DUP3 PUSH2 0x3CE2 JUMP JUMPDEST DUP3 SWAP4 POP POP POP POP SWAP5 SWAP4 POP POP POP POP JUMP JUMPDEST PUSH1 0x0 PUSH20 0xFFFFFFFFFFFFFFFFFFFFFFFFFFFFFFFFFFFFFFFF AND DUP5 PUSH20 0xFFFFFFFFFFFFFFFFFFFFFFFFFFFFFFFFFFFFFFFF AND SUB PUSH2 0x369D JUMPI PUSH1 0x0 PUSH1 0x40 MLOAD PUSH32 0xE602DF0500000000000000000000000000000000000000000000000000000000 DUP2 MSTORE PUSH1 0x4 ADD PUSH2 0x3694 SWAP2 SWAP1 PUSH2 0x44FB JUMP JUMPDEST PUSH1 0x40 MLOAD DUP1 SWAP2 SUB SWAP1 REVERT JUMPDEST PUSH1 0x0 PUSH20 0xFFFFFFFFFFFFFFFFFFFFFFFFFFFFFFFFFFFFFFFF AND DUP4 PUSH20 0xFFFFFFFFFFFFFFFFFFFFFFFFFFFFFFFFFFFFFFFF AND SUB PUSH2 0x370F JUMPI PUSH1 0x0 PUSH1 0x40 MLOAD PUSH32 0x94280D6200000000000000000000000000000000000000000000000000000000 DUP2 MSTORE PUSH1 0x4 ADD PUSH2 0x3706 SWAP2 SWAP1 PUSH2 0x44FB JUMP JUMPDEST PUSH1 0x40 MLOAD DUP1 SWAP2 SUB SWAP1 REVERT JUMPDEST DUP2 PUSH1 0x1 PUSH1 0x0 DUP7 PUSH20 0xFFFFFFFFFFFFFFFFFFFFFFFFFFFFFFFFFFFFFFFF AND PUSH20 0xFFFFFFFFFFFFFFFFFFFFFFFFFFFFFFFFFFFFFFFF AND DUP2 MSTORE PUSH1 0x20 ADD SWAP1 DUP2 MSTORE PUSH1 0x20 ADD PUSH1 0x0 KECCAK256 PUSH1 0x0 DUP6 PUSH20 0xFFFFFFFFFFFFFFFFFFFFFFFFFFFFFFFFFFFFFFFF AND PUSH20 0xFFFFFFFFFFFFFFFFFFFFFFFFFFFFFFFFFFFFFFFF AND DUP2 MSTORE PUSH1 0x20 ADD SWAP1 DUP2 MSTORE PUSH1 0x20 ADD PUSH1 0x0 KECCAK256 DUP2 SWAP1 SSTORE POP DUP1 ISZERO PUSH2 0x37FC JUMPI DUP3 PUSH20 0xFFFFFFFFFFFFFFFFFFFFFFFFFFFFFFFFFFFFFFFF AND DUP5 PUSH20 0xFFFFFFFFFFFFFFFFFFFFFFFFFFFFFFFFFFFFFFFF AND PUSH32 0x8C5BE1E5EBEC7D5BD14F71427D1E84F3DD0314C0F7B2291E5B200AC8C7C3B925 DUP5 PUSH1 0x40 MLOAD PUSH2 0x37F3 SWAP2 SWAP1 PUSH2 0x41A8 JUMP JUMPDEST PUSH1 0x40 MLOAD DUP1 SWAP2 SUB SWAP1 LOG3 JUMPDEST POP POP POP POP JUMP JUMPDEST PUSH1 0x0 PUSH20 0xFFFFFFFFFFFFFFFFFFFFFFFFFFFFFFFFFFFFFFFF AND DUP4 PUSH20 0xFFFFFFFFFFFFFFFFFFFFFFFFFFFFFFFFFFFFFFFF AND SUB PUSH2 0x3854 JUMPI DUP1 PUSH1 0x2 PUSH1 0x0 DUP3 DUP3 SLOAD PUSH2 0x3848 SWAP2 SWAP1 PUSH2 0x4B02 JUMP JUMPDEST SWAP3 POP POP DUP2 SWAP1 SSTORE POP PUSH2 0x3927 JUMP JUMPDEST PUSH1 0x0 DUP1 PUSH1 0x0 DUP6 PUSH20 0xFFFFFFFFFFFFFFFFFFFFFFFFFFFFFFFFFFFFFFFF AND PUSH20 0xFFFFFFFFFFFFFFFFFFFFFFFFFFFFFFFFFFFFFFFF AND DUP2 MSTORE PUSH1 0x20 ADD SWAP1 DUP2 MSTORE PUSH1 0x20 ADD PUSH1 0x0 KECCAK256 SLOAD SWAP1 POP DUP2 DUP2 LT ISZERO PUSH2 0x38E0 JUMPI DUP4 DUP2 DUP4 PUSH1 0x40 MLOAD PUSH32 0xE450D38C00000000000000000000000000000000000000000000000000000000 DUP2 MSTORE PUSH1 0x4 ADD PUSH2 0x38D7 SWAP4 SWAP3 SWAP2 SWAP1 PUSH2 0x57B0 JUMP JUMPDEST PUSH1 0x40 MLOAD DUP1 SWAP2 SUB SWAP1 REVERT JUMPDEST DUP2 DUP2 SUB PUSH1 0x0 DUP1 DUP7 PUSH20 0xFFFFFFFFFFFFFFFFFFFFFFFFFFFFFFFFFFFFFFFF AND PUSH20 0xFFFFFFFFFFFFFFFFFFFFFFFFFFFFFFFFFFFFFFFF AND DUP2 MSTORE PUSH1 0x20 ADD SWAP1 DUP2 MSTORE PUSH1 0x20 ADD PUSH1 0x0 KECCAK256 DUP2 SWAP1 SSTORE POP POP JUMPDEST PUSH1 0x0 PUSH20 0xFFFFFFFFFFFFFFFFFFFFFFFFFFFFFFFFFFFFFFFF AND DUP3 PUSH20 0xFFFFFFFFFFFFFFFFFFFFFFFFFFFFFFFFFFFFFFFF AND SUB PUSH2 0x3970 JUMPI DUP1 PUSH1 0x2 PUSH1 0x0 DUP3 DUP3 SLOAD SUB SWAP3 POP POP DUP2 SWAP1 SSTORE POP PUSH2 0x39BD JUMP JUMPDEST DUP1 PUSH1 0x0 DUP1 DUP5 PUSH20 0xFFFFFFFFFFFFFFFFFFFFFFFFFFFFFFFFFFFFFFFF AND PUSH20 0xFFFFFFFFFFFFFFFFFFFFFFFFFFFFFFFFFFFFFFFF AND DUP2 MSTORE PUSH1 0x20 ADD SWAP1 DUP2 MSTORE PUSH1 0x20 ADD PUSH1 0x0 KECCAK256 PUSH1 0x0 DUP3 DUP3 SLOAD ADD SWAP3 POP POP DUP2 SWAP1 SSTORE POP JUMPDEST DUP2 PUSH20 0xFFFFFFFFFFFFFFFFFFFFFFFFFFFFFFFFFFFFFFFF AND DUP4 PUSH20 0xFFFFFFFFFFFFFFFFFFFFFFFFFFFFFFFFFFFFFFFF AND PUSH32 0xDDF252AD1BE2C89B69C2B068FC378DAA952BA7F163C4A11628F55A4DF523B3EF DUP4 PUSH1 0x40 MLOAD PUSH2 0x3A1A SWAP2 SWAP1 PUSH2 0x41A8 JUMP JUMPDEST PUSH1 0x40 MLOAD DUP1 SWAP2 SUB SWAP1 LOG3 POP POP POP JUMP JUMPDEST PUSH1 0x0 PUSH32 0x8B73C3C69BB8FE3D512ECC4CF759CC79239F7B179B0FFACAA9A75D522B39400F PUSH32 0x0 PUSH32 0x0 CHAINID ADDRESS PUSH1 0x40 MLOAD PUSH1 0x20 ADD PUSH2 0x3AA2 SWAP6 SWAP5 SWAP4 SWAP3 SWAP2 SWAP1 PUSH2 0x5887 JUMP JUMPDEST PUSH1 0x40 MLOAD PUSH1 0x20 DUP2 DUP4 SUB SUB DUP2 MSTORE SWAP1 PUSH1 0x40 MSTORE DUP1 MLOAD SWAP1 PUSH1 0x20 ADD KECCAK256 SWAP1 POP SWAP1 JUMP JUMPDEST PUSH2 0x3AC5 PUSH2 0x1C57 JUMP JUMPDEST PUSH2 0x3AFB JUMPI PUSH1 0x40 MLOAD PUSH32 0x8DFC202B00000000000000000000000000000000000000000000000000000000 DUP2 MSTORE PUSH1 0x4 ADD PUSH1 0x40 MLOAD DUP1 SWAP2 SUB SWAP1 REVERT JUMPDEST JUMP JUMPDEST PUSH1 0x60 PUSH1 0xFF PUSH1 0x0 SHL DUP4 EQ PUSH2 0x3B1A JUMPI PUSH2 0x3B13 DUP4 PUSH2 0x3E46 JUMP JUMPDEST SWAP1 POP PUSH2 0x3BA7 JUMP JUMPDEST DUP2 DUP1 SLOAD PUSH2 0x3B26 SWAP1 PUSH2 0x48F2 JUMP JUMPDEST DUP1 PUSH1 0x1F ADD PUSH1 0x20 DUP1 SWAP2 DIV MUL PUSH1 0x20 ADD PUSH1 0x40 MLOAD SWAP1 DUP2 ADD PUSH1 0x40 MSTORE DUP1 SWAP3 SWAP2 SWAP1 DUP2 DUP2 MSTORE PUSH1 0x20 ADD DUP3 DUP1 SLOAD PUSH2 0x3B52 SWAP1 PUSH2 0x48F2 JUMP JUMPDEST DUP1 ISZERO PUSH2 0x3B9F JUMPI DUP1 PUSH1 0x1F LT PUSH2 0x3B74 JUMPI PUSH2 0x100 DUP1 DUP4 SLOAD DIV MUL DUP4 MSTORE SWAP2 PUSH1 0x20 ADD SWAP2 PUSH2 0x3B9F JUMP JUMPDEST DUP3 ADD SWAP2 SWAP1 PUSH1 0x0 MSTORE PUSH1 0x20 PUSH1 0x0 KECCAK256 SWAP1 JUMPDEST DUP2 SLOAD DUP2 MSTORE SWAP1 PUSH1 0x1 ADD SWAP1 PUSH1 0x20 ADD DUP1 DUP4 GT PUSH2 0x3B82 JUMPI DUP3 SWAP1 SUB PUSH1 0x1F AND DUP3 ADD SWAP2 JUMPDEST POP POP POP POP POP SWAP1 POP JUMPDEST SWAP3 SWAP2 POP POP JUMP JUMPDEST PUSH1 0x0 PUSH1 0x40 MLOAD PUSH32 0x1901000000000000000000000000000000000000000000000000000000000000 DUP2 MSTORE DUP4 PUSH1 0x2 DUP3 ADD MSTORE DUP3 PUSH1 0x22 DUP3 ADD MSTORE PUSH1 0x42 DUP2 KECCAK256 SWAP2 POP POP SWAP3 SWAP2 POP POP JUMP JUMPDEST PUSH1 0x0 DUP1 PUSH1 0x0 PUSH32 0x7FFFFFFFFFFFFFFFFFFFFFFFFFFFFFFF5D576E7357A4501DDFE92F46681B20A0 DUP5 PUSH1 0x0 SHR GT ISZERO PUSH2 0x3C2E JUMPI PUSH1 0x0 PUSH1 0x3 DUP6 SWAP3 POP SWAP3 POP SWAP3 POP PUSH2 0x3CD8 JUMP JUMPDEST PUSH1 0x0 PUSH1 0x1 DUP9 DUP9 DUP9 DUP9 PUSH1 0x40 MLOAD PUSH1 0x0 DUP2 MSTORE PUSH1 0x20 ADD PUSH1 0x40 MSTORE PUSH1 0x40 MLOAD PUSH2 0x3C53 SWAP5 SWAP4 SWAP3 SWAP2 SWAP1 PUSH2 0x58DA JUMP JUMPDEST PUSH1 0x20 PUSH1 0x40 MLOAD PUSH1 0x20 DUP2 SUB SWAP1 DUP1 DUP5 SUB SWAP1 DUP6 GAS STATICCALL ISZERO DUP1 ISZERO PUSH2 0x3C75 JUMPI RETURNDATASIZE PUSH1 0x0 DUP1 RETURNDATACOPY RETURNDATASIZE PUSH1 0x0 REVERT JUMPDEST POP POP POP PUSH1 0x20 PUSH1 0x40 MLOAD SUB MLOAD SWAP1 POP PUSH1 0x0 PUSH20 0xFFFFFFFFFFFFFFFFFFFFFFFFFFFFFFFFFFFFFFFF AND DUP2 PUSH20 0xFFFFFFFFFFFFFFFFFFFFFFFFFFFFFFFFFFFFFFFF AND SUB PUSH2 0x3CC9 JUMPI PUSH1 0x0 PUSH1 0x1 PUSH1 0x0 DUP1 SHL SWAP4 POP SWAP4 POP SWAP4 POP POP PUSH2 0x3CD8 JUMP JUMPDEST DUP1 PUSH1 0x0 DUP1 PUSH1 0x0 SHL SWAP4 POP SWAP4 POP SWAP4 POP POP JUMPDEST SWAP5 POP SWAP5 POP SWAP5 SWAP2 POP POP JUMP JUMPDEST PUSH1 0x0 PUSH1 0x3 DUP2 GT ISZERO PUSH2 0x3CF6 JUMPI PUSH2 0x3CF5 PUSH2 0x591F JUMP JUMPDEST JUMPDEST DUP3 PUSH1 0x3 DUP2 GT ISZERO PUSH2 0x3D09 JUMPI PUSH2 0x3D08 PUSH2 0x591F JUMP JUMPDEST JUMPDEST SUB ISZERO PUSH2 0x3E42 JUMPI PUSH1 0x1 PUSH1 0x3 DUP2 GT ISZERO PUSH2 0x3D23 JUMPI PUSH2 0x3D22 PUSH2 0x591F JUMP JUMPDEST JUMPDEST DUP3 PUSH1 0x3 DUP2 GT ISZERO PUSH2 0x3D36 JUMPI PUSH2 0x3D35 PUSH2 0x591F JUMP JUMPDEST JUMPDEST SUB PUSH2 0x3D6D JUMPI PUSH1 0x40 MLOAD PUSH32 0xF645EEDF00000000000000000000000000000000000000000000000000000000 DUP2 MSTORE PUSH1 0x4 ADD PUSH1 0x40 MLOAD DUP1 SWAP2 SUB SWAP1 REVERT JUMPDEST PUSH1 0x2 PUSH1 0x3 DUP2 GT ISZERO PUSH2 0x3D81 JUMPI PUSH2 0x3D80 PUSH2 0x591F JUMP JUMPDEST JUMPDEST DUP3 PUSH1 0x3 DUP2 GT ISZERO PUSH2 0x3D94 JUMPI PUSH2 0x3D93 PUSH2 0x591F JUMP JUMPDEST JUMPDEST SUB PUSH2 0x3DD9 JUMPI DUP1 PUSH1 0x0 SHR PUSH1 0x40 MLOAD PUSH32 0xFCE698F700000000000000000000000000000000000000000000000000000000 DUP2 MSTORE PUSH1 0x4 ADD PUSH2 0x3DD0 SWAP2 SWAP1 PUSH2 0x41A8 JUMP JUMPDEST PUSH1 0x40 MLOAD DUP1 SWAP2 SUB SWAP1 REVERT JUMPDEST PUSH1 0x3 DUP1 DUP2 GT ISZERO PUSH2 0x3DEC JUMPI PUSH2 0x3DEB PUSH2 0x591F JUMP JUMPDEST JUMPDEST DUP3 PUSH1 0x3 DUP2 GT ISZERO PUSH2 0x3DFF JUMPI PUSH2 0x3DFE PUSH2 0x591F JUMP JUMPDEST JUMPDEST SUB PUSH2 0x3E41 JUMPI DUP1 PUSH1 0x40 MLOAD PUSH32 0xD78BCE0C00000000000000000000000000000000000000000000000000000000 DUP2 MSTORE PUSH1 0x4 ADD PUSH2 0x3E38 SWAP2 SWAP1 PUSH2 0x4293 JUMP JUMPDEST PUSH1 0x40 MLOAD DUP1 SWAP2 SUB SWAP1 REVERT JUMPDEST JUMPDEST POP POP JUMP JUMPDEST PUSH1 0x60 PUSH1 0x0 PUSH2 0x3E53 DUP4 PUSH2 0x3EBA JUMP JUMPDEST SWAP1 POP PUSH1 0x0 PUSH1 0x20 PUSH8 0xFFFFFFFFFFFFFFFF DUP2 GT ISZERO PUSH2 0x3E72 JUMPI PUSH2 0x3E71 PUSH2 0x4378 JUMP JUMPDEST JUMPDEST PUSH1 0x40 MLOAD SWAP1 DUP1 DUP3 MSTORE DUP1 PUSH1 0x1F ADD PUSH1 0x1F NOT AND PUSH1 0x20 ADD DUP3 ADD PUSH1 0x40 MSTORE DUP1 ISZERO PUSH2 0x3EA4 JUMPI DUP2 PUSH1 0x20 ADD PUSH1 0x1 DUP3 MUL DUP1 CALLDATASIZE DUP4 CALLDATACOPY DUP1 DUP3 ADD SWAP2 POP POP SWAP1 POP JUMPDEST POP SWAP1 POP DUP2 DUP2 MSTORE DUP4 PUSH1 0x20 DUP3 ADD MSTORE DUP1 SWAP3 POP POP POP SWAP2 SWAP1 POP JUMP JUMPDEST PUSH1 0x0 DUP1 PUSH1 0xFF DUP4 PUSH1 0x0 SHR AND SWAP1 POP PUSH1 0x1F DUP2 GT ISZERO PUSH2 0x3F01 JUMPI PUSH1 0x40 MLOAD PUSH32 0xB3512B0C00000000000000000000000000000000000000000000000000000000 DUP2 MSTORE PUSH1 0x4 ADD PUSH1 0x40 MLOAD DUP1 SWAP2 SUB SWAP1 REVERT JUMPDEST DUP1 SWAP2 POP POP SWAP2 SWAP1 POP JUMP JUMPDEST PUSH1 0x0 DUP3 DUP3 MSTORE PUSH1 0x20 DUP3 ADD SWAP1 POP SWAP3 SWAP2 POP POP JUMP JUMPDEST PUSH32 0x44697265637420455448207472616E7366657273206E6F7420616C6C6F776564 PUSH1 0x0 DUP3 ADD MSTORE PUSH32 0x2E00000000000000000000000000000000000000000000000000000000000000 PUSH1 0x20 DUP3 ADD MSTORE POP JUMP JUMPDEST PUSH1 0x0 PUSH2 0x3F77 PUSH1 0x21 DUP4 PUSH2 0x3F0A JUMP JUMPDEST SWAP2 POP PUSH2 0x3F82 DUP3 PUSH2 0x3F1B JUMP JUMPDEST PUSH1 0x40 DUP3 ADD SWAP1 POP SWAP2 SWAP1 POP JUMP JUMPDEST PUSH1 0x0 PUSH1 0x20 DUP3 ADD SWAP1 POP DUP2 DUP2 SUB PUSH1 0x0 DUP4 ADD MSTORE PUSH2 0x3FA6 DUP2 PUSH2 0x3F6A JUMP JUMPDEST SWAP1 POP SWAP2 SWAP1 POP JUMP JUMPDEST PUSH1 0x0 PUSH1 0x40 MLOAD SWAP1 POP SWAP1 JUMP JUMPDEST PUSH1 0x0 DUP1 REVERT JUMPDEST PUSH1 0x0 DUP1 REVERT JUMPDEST PUSH1 0x0 PUSH20 0xFFFFFFFFFFFFFFFFFFFFFFFFFFFFFFFFFFFFFFFF DUP3 AND SWAP1 POP SWAP2 SWAP1 POP JUMP JUMPDEST PUSH1 0x0 PUSH2 0x3FEC DUP3 PUSH2 0x3FC1 JUMP JUMPDEST SWAP1 POP SWAP2 SWAP1 POP JUMP JUMPDEST PUSH2 0x3FFC DUP2 PUSH2 0x3FE1 JUMP JUMPDEST DUP2 EQ PUSH2 0x4007 JUMPI PUSH1 0x0 DUP1 REVERT JUMPDEST POP JUMP JUMPDEST PUSH1 0x0 DUP2 CALLDATALOAD SWAP1 POP PUSH2 0x4019 DUP2 PUSH2 0x3FF3 JUMP JUMPDEST SWAP3 SWAP2 POP POP JUMP JUMPDEST PUSH1 0x0 PUSH1 0x20 DUP3 DUP5 SUB SLT ISZERO PUSH2 0x4035 JUMPI PUSH2 0x4034 PUSH2 0x3FB7 JUMP JUMPDEST JUMPDEST PUSH1 0x0 PUSH2 0x4043 DUP5 DUP3 DUP6 ADD PUSH2 0x400A JUMP JUMPDEST SWAP2 POP POP SWAP3 SWAP2 POP POP JUMP JUMPDEST PUSH1 0x0 DUP2 MLOAD SWAP1 POP SWAP2 SWAP1 POP JUMP JUMPDEST PUSH1 0x0 JUMPDEST DUP4 DUP2 LT ISZERO PUSH2 0x4075 JUMPI DUP1 DUP3 ADD MLOAD DUP2 DUP5 ADD MSTORE PUSH1 0x20 DUP2 ADD SWAP1 POP PUSH2 0x405A JUMP JUMPDEST PUSH1 0x0 DUP5 DUP5 ADD MSTORE POP POP POP POP JUMP JUMPDEST PUSH1 0x0 PUSH1 0x1F NOT PUSH1 0x1F DUP4 ADD AND SWAP1 POP SWAP2 SWAP1 POP JUMP JUMPDEST PUSH1 0x0 PUSH2 0x409D DUP3 PUSH2 0x404C JUMP JUMPDEST PUSH2 0x40A7 DUP2 DUP6 PUSH2 0x3F0A JUMP JUMPDEST SWAP4 POP PUSH2 0x40B7 DUP2 DUP6 PUSH1 0x20 DUP7 ADD PUSH2 0x4057 JUMP JUMPDEST PUSH2 0x40C0 DUP2 PUSH2 0x4081 JUMP JUMPDEST DUP5 ADD SWAP2 POP POP SWAP3 SWAP2 POP POP JUMP JUMPDEST PUSH1 0x0 PUSH1 0x20 DUP3 ADD SWAP1 POP DUP2 DUP2 SUB PUSH1 0x0 DUP4 ADD MSTORE PUSH2 0x40E5 DUP2 DUP5 PUSH2 0x4092 JUMP JUMPDEST SWAP1 POP SWAP3 SWAP2 POP POP JUMP JUMPDEST PUSH1 0x0 DUP2 SWAP1 POP SWAP2 SWAP1 POP JUMP JUMPDEST PUSH2 0x4100 DUP2 PUSH2 0x40ED JUMP JUMPDEST DUP2 EQ PUSH2 0x410B JUMPI PUSH1 0x0 DUP1 REVERT JUMPDEST POP JUMP JUMPDEST PUSH1 0x0 DUP2 CALLDATALOAD SWAP1 POP PUSH2 0x411D DUP2 PUSH2 0x40F7 JUMP JUMPDEST SWAP3 SWAP2 POP POP JUMP JUMPDEST PUSH1 0x0 DUP1 PUSH1 0x40 DUP4 DUP6 SUB SLT ISZERO PUSH2 0x413A JUMPI PUSH2 0x4139 PUSH2 0x3FB7 JUMP JUMPDEST JUMPDEST PUSH1 0x0 PUSH2 0x4148 DUP6 DUP3 DUP7 ADD PUSH2 0x400A JUMP JUMPDEST SWAP3 POP POP PUSH1 0x20 PUSH2 0x4159 DUP6 DUP3 DUP7 ADD PUSH2 0x410E JUMP JUMPDEST SWAP2 POP POP SWAP3 POP SWAP3 SWAP1 POP JUMP JUMPDEST PUSH1 0x0 DUP2 ISZERO ISZERO SWAP1 POP SWAP2 SWAP1 POP JUMP JUMPDEST PUSH2 0x4178 DUP2 PUSH2 0x4163 JUMP JUMPDEST DUP3 MSTORE POP POP JUMP JUMPDEST PUSH1 0x0 PUSH1 0x20 DUP3 ADD SWAP1 POP PUSH2 0x4193 PUSH1 0x0 DUP4 ADD DUP5 PUSH2 0x416F JUMP JUMPDEST SWAP3 SWAP2 POP POP JUMP JUMPDEST PUSH2 0x41A2 DUP2 PUSH2 0x40ED JUMP JUMPDEST DUP3 MSTORE POP POP JUMP JUMPDEST PUSH1 0x0 PUSH1 0x20 DUP3 ADD SWAP1 POP PUSH2 0x41BD PUSH1 0x0 DUP4 ADD DUP5 PUSH2 0x4199 JUMP JUMPDEST SWAP3 SWAP2 POP POP JUMP JUMPDEST PUSH1 0x0 DUP1 PUSH1 0x0 PUSH1 0x60 DUP5 DUP7 SUB SLT ISZERO PUSH2 0x41DC JUMPI PUSH2 0x41DB PUSH2 0x3FB7 JUMP JUMPDEST JUMPDEST PUSH1 0x0 PUSH2 0x41EA DUP7 DUP3 DUP8 ADD PUSH2 0x400A JUMP JUMPDEST SWAP4 POP POP PUSH1 0x20 PUSH2 0x41FB DUP7 DUP3 DUP8 ADD PUSH2 0x400A JUMP JUMPDEST SWAP3 POP POP PUSH1 0x40 PUSH2 0x420C DUP7 DUP3 DUP8 ADD PUSH2 0x410E JUMP JUMPDEST SWAP2 POP POP SWAP3 POP SWAP3 POP SWAP3 JUMP JUMPDEST PUSH1 0x0 PUSH1 0x20 DUP3 DUP5 SUB SLT ISZERO PUSH2 0x422C JUMPI PUSH2 0x422B PUSH2 0x3FB7 JUMP JUMPDEST JUMPDEST PUSH1 0x0 PUSH2 0x423A DUP5 DUP3 DUP6 ADD PUSH2 0x410E JUMP JUMPDEST SWAP2 POP POP SWAP3 SWAP2 POP POP JUMP JUMPDEST PUSH1 0x0 PUSH1 0xFF DUP3 AND SWAP1 POP SWAP2 SWAP1 POP JUMP JUMPDEST PUSH2 0x4259 DUP2 PUSH2 0x4243 JUMP JUMPDEST DUP3 MSTORE POP POP JUMP JUMPDEST PUSH1 0x0 PUSH1 0x20 DUP3 ADD SWAP1 POP PUSH2 0x4274 PUSH1 0x0 DUP4 ADD DUP5 PUSH2 0x4250 JUMP JUMPDEST SWAP3 SWAP2 POP POP JUMP JUMPDEST PUSH1 0x0 DUP2 SWAP1 POP SWAP2 SWAP1 POP JUMP JUMPDEST PUSH2 0x428D DUP2 PUSH2 0x427A JUMP JUMPDEST DUP3 MSTORE POP POP JUMP JUMPDEST PUSH1 0x0 PUSH1 0x20 DUP3 ADD SWAP1 POP PUSH2 0x42A8 PUSH1 0x0 DUP4 ADD DUP5 PUSH2 0x4284 JUMP JUMPDEST SWAP3 SWAP2 POP POP JUMP JUMPDEST PUSH1 0x0 DUP1 REVERT JUMPDEST PUSH1 0x0 DUP1 REVERT JUMPDEST PUSH1 0x0 DUP1 REVERT JUMPDEST PUSH1 0x0 DUP1 DUP4 PUSH1 0x1F DUP5 ADD SLT PUSH2 0x42D3 JUMPI PUSH2 0x42D2 PUSH2 0x42AE JUMP JUMPDEST JUMPDEST DUP3 CALLDATALOAD SWAP1 POP PUSH8 0xFFFFFFFFFFFFFFFF DUP2 GT ISZERO PUSH2 0x42F0 JUMPI PUSH2 0x42EF PUSH2 0x42B3 JUMP JUMPDEST JUMPDEST PUSH1 0x20 DUP4 ADD SWAP2 POP DUP4 PUSH1 0x1 DUP3 MUL DUP4 ADD GT ISZERO PUSH2 0x430C JUMPI PUSH2 0x430B PUSH2 0x42B8 JUMP JUMPDEST JUMPDEST SWAP3 POP SWAP3 SWAP1 POP JUMP JUMPDEST PUSH1 0x0 DUP1 PUSH1 0x0 PUSH1 0x40 DUP5 DUP7 SUB SLT ISZERO PUSH2 0x432C JUMPI PUSH2 0x432B PUSH2 0x3FB7 JUMP JUMPDEST JUMPDEST PUSH1 0x0 PUSH2 0x433A DUP7 DUP3 DUP8 ADD PUSH2 0x410E JUMP JUMPDEST SWAP4 POP POP PUSH1 0x20 DUP5 ADD CALLDATALOAD PUSH8 0xFFFFFFFFFFFFFFFF DUP2 GT ISZERO PUSH2 0x435B JUMPI PUSH2 0x435A PUSH2 0x3FBC JUMP JUMPDEST JUMPDEST PUSH2 0x4367 DUP7 DUP3 DUP8 ADD PUSH2 0x42BD JUMP JUMPDEST SWAP3 POP SWAP3 POP POP SWAP3 POP SWAP3 POP SWAP3 JUMP JUMPDEST PUSH1 0x0 DUP1 REVERT JUMPDEST PUSH32 0x4E487B7100000000000000000000000000000000000000000000000000000000 PUSH1 0x0 MSTORE PUSH1 0x41 PUSH1 0x4 MSTORE PUSH1 0x24 PUSH1 0x0 REVERT JUMPDEST PUSH2 0x43B0 DUP3 PUSH2 0x4081 JUMP JUMPDEST DUP2 ADD DUP2 DUP2 LT PUSH8 0xFFFFFFFFFFFFFFFF DUP3 GT OR ISZERO PUSH2 0x43CF JUMPI PUSH2 0x43CE PUSH2 0x4378 JUMP JUMPDEST JUMPDEST DUP1 PUSH1 0x40 MSTORE POP POP POP JUMP JUMPDEST PUSH1 0x0 PUSH2 0x43E2 PUSH2 0x3FAD JUMP JUMPDEST SWAP1 POP PUSH2 0x43EE DUP3 DUP3 PUSH2 0x43A7 JUMP JUMPDEST SWAP2 SWAP1 POP JUMP JUMPDEST PUSH1 0x0 PUSH8 0xFFFFFFFFFFFFFFFF DUP3 GT ISZERO PUSH2 0x440E JUMPI PUSH2 0x440D PUSH2 0x4378 JUMP JUMPDEST JUMPDEST PUSH2 0x4417 DUP3 PUSH2 0x4081 JUMP JUMPDEST SWAP1 POP PUSH1 0x20 DUP2 ADD SWAP1 POP SWAP2 SWAP1 POP JUMP JUMPDEST DUP3 DUP2 DUP4 CALLDATACOPY PUSH1 0x0 DUP4 DUP4 ADD MSTORE POP POP POP JUMP JUMPDEST PUSH1 0x0 PUSH2 0x4446 PUSH2 0x4441 DUP5 PUSH2 0x43F3 JUMP JUMPDEST PUSH2 0x43D8 JUMP JUMPDEST SWAP1 POP DUP3 DUP2 MSTORE PUSH1 0x20 DUP2 ADD DUP5 DUP5 DUP5 ADD GT ISZERO PUSH2 0x4462 JUMPI PUSH2 0x4461 PUSH2 0x4373 JUMP JUMPDEST JUMPDEST PUSH2 0x446D DUP5 DUP3 DUP6 PUSH2 0x4424 JUMP JUMPDEST POP SWAP4 SWAP3 POP POP POP JUMP JUMPDEST PUSH1 0x0 DUP3 PUSH1 0x1F DUP4 ADD SLT PUSH2 0x448A JUMPI PUSH2 0x4489 PUSH2 0x42AE JUMP JUMPDEST JUMPDEST DUP2 CALLDATALOAD PUSH2 0x449A DUP5 DUP3 PUSH1 0x20 DUP7 ADD PUSH2 0x4433 JUMP JUMPDEST SWAP2 POP POP SWAP3 SWAP2 POP POP JUMP JUMPDEST PUSH1 0x0 PUSH1 0x20 DUP3 DUP5 SUB SLT ISZERO PUSH2 0x44B9 JUMPI PUSH2 0x44B8 PUSH2 0x3FB7 JUMP JUMPDEST JUMPDEST PUSH1 0x0 DUP3 ADD CALLDATALOAD PUSH8 0xFFFFFFFFFFFFFFFF DUP2 GT ISZERO PUSH2 0x44D7 JUMPI PUSH2 0x44D6 PUSH2 0x3FBC JUMP JUMPDEST JUMPDEST PUSH2 0x44E3 DUP5 DUP3 DUP6 ADD PUSH2 0x4475 JUMP JUMPDEST SWAP2 POP POP SWAP3 SWAP2 POP POP JUMP JUMPDEST PUSH2 0x44F5 DUP2 PUSH2 0x3FE1 JUMP JUMPDEST DUP3 MSTORE POP POP JUMP JUMPDEST PUSH1 0x0 PUSH1 0x20 DUP3 ADD SWAP1 POP PUSH2 0x4510 PUSH1 0x0 DUP4 ADD DUP5 PUSH2 0x44EC JUMP JUMPDEST SWAP3 SWAP2 POP POP JUMP JUMPDEST PUSH1 0x0 PUSH32 0xFF00000000000000000000000000000000000000000000000000000000000000 DUP3 AND SWAP1 POP SWAP2 SWAP1 POP JUMP JUMPDEST PUSH2 0x454B DUP2 PUSH2 0x4516 JUMP JUMPDEST DUP3 MSTORE POP POP JUMP JUMPDEST PUSH1 0x0 DUP2 MLOAD SWAP1 POP SWAP2 SWAP1 POP JUMP JUMPDEST PUSH1 0x0 DUP3 DUP3 MSTORE PUSH1 0x20 DUP3 ADD SWAP1 POP SWAP3 SWAP2 POP POP JUMP JUMPDEST PUSH1 0x0 DUP2 SWAP1 POP PUSH1 0x20 DUP3 ADD SWAP1 POP SWAP2 SWAP1 POP JUMP JUMPDEST PUSH2 0x4586 DUP2 PUSH2 0x40ED JUMP JUMPDEST DUP3 MSTORE POP POP JUMP JUMPDEST PUSH1 0x0 PUSH2 0x4598 DUP4 DUP4 PUSH2 0x457D JUMP JUMPDEST PUSH1 0x20 DUP4 ADD SWAP1 POP SWAP3 SWAP2 POP POP JUMP JUMPDEST PUSH1 0x0 PUSH1 0x20 DUP3 ADD SWAP1 POP SWAP2 SWAP1 POP JUMP JUMPDEST PUSH1 0x0 PUSH2 0x45BC DUP3 PUSH2 0x4551 JUMP JUMPDEST PUSH2 0x45C6 DUP2 DUP6 PUSH2 0x455C JUMP JUMPDEST SWAP4 POP PUSH2 0x45D1 DUP4 PUSH2 0x456D JUMP JUMPDEST DUP1 PUSH1 0x0 JUMPDEST DUP4 DUP2 LT ISZERO PUSH2 0x4602 JUMPI DUP2 MLOAD PUSH2 0x45E9 DUP9 DUP3 PUSH2 0x458C JUMP JUMPDEST SWAP8 POP PUSH2 0x45F4 DUP4 PUSH2 0x45A4 JUMP JUMPDEST SWAP3 POP POP PUSH1 0x1 DUP2 ADD SWAP1 POP PUSH2 0x45D5 JUMP JUMPDEST POP DUP6 SWAP4 POP POP POP POP SWAP3 SWAP2 POP POP JUMP JUMPDEST PUSH1 0x0 PUSH1 0xE0 DUP3 ADD SWAP1 POP PUSH2 0x4624 PUSH1 0x0 DUP4 ADD DUP11 PUSH2 0x4542 JUMP JUMPDEST DUP2 DUP2 SUB PUSH1 0x20 DUP4 ADD MSTORE PUSH2 0x4636 DUP2 DUP10 PUSH2 0x4092 JUMP JUMPDEST SWAP1 POP DUP2 DUP2 SUB PUSH1 0x40 DUP4 ADD MSTORE PUSH2 0x464A DUP2 DUP9 PUSH2 0x4092 JUMP JUMPDEST SWAP1 POP PUSH2 0x4659 PUSH1 0x60 DUP4 ADD DUP8 PUSH2 0x4199 JUMP JUMPDEST PUSH2 0x4666 PUSH1 0x80 DUP4 ADD DUP7 PUSH2 0x44EC JUMP JUMPDEST PUSH2 0x4673 PUSH1 0xA0 DUP4 ADD DUP6 PUSH2 0x4284 JUMP JUMPDEST DUP2 DUP2 SUB PUSH1 0xC0 DUP4 ADD MSTORE PUSH2 0x4685 DUP2 DUP5 PUSH2 0x45B1 JUMP JUMPDEST SWAP1 POP SWAP9 SWAP8 POP POP POP POP POP POP POP POP JUMP JUMPDEST PUSH1 0x0 DUP1 DUP4 PUSH1 0x1F DUP5 ADD SLT PUSH2 0x46A9 JUMPI PUSH2 0x46A8 PUSH2 0x42AE JUMP JUMPDEST JUMPDEST DUP3 CALLDATALOAD SWAP1 POP PUSH8 0xFFFFFFFFFFFFFFFF DUP2 GT ISZERO PUSH2 0x46C6 JUMPI PUSH2 0x46C5 PUSH2 0x42B3 JUMP JUMPDEST JUMPDEST PUSH1 0x20 DUP4 ADD SWAP2 POP DUP4 PUSH1 0x20 DUP3 MUL DUP4 ADD GT ISZERO PUSH2 0x46E2 JUMPI PUSH2 0x46E1 PUSH2 0x42B8 JUMP JUMPDEST JUMPDEST SWAP3 POP SWAP3 SWAP1 POP JUMP JUMPDEST PUSH1 0x0 DUP1 PUSH1 0x20 DUP4 DUP6 SUB SLT ISZERO PUSH2 0x4700 JUMPI PUSH2 0x46FF PUSH2 0x3FB7 JUMP JUMPDEST JUMPDEST PUSH1 0x0 DUP4 ADD CALLDATALOAD PUSH8 0xFFFFFFFFFFFFFFFF DUP2 GT ISZERO PUSH2 0x471E JUMPI PUSH2 0x471D PUSH2 0x3FBC JUMP JUMPDEST JUMPDEST PUSH2 0x472A DUP6 DUP3 DUP7 ADD PUSH2 0x4693 JUMP JUMPDEST SWAP3 POP SWAP3 POP POP SWAP3 POP SWAP3 SWAP1 POP JUMP JUMPDEST PUSH2 0x473F DUP2 PUSH2 0x4243 JUMP JUMPDEST DUP2 EQ PUSH2 0x474A JUMPI PUSH1 0x0 DUP1 REVERT JUMPDEST POP JUMP JUMPDEST PUSH1 0x0 DUP2 CALLDATALOAD SWAP1 POP PUSH2 0x475C DUP2 PUSH2 0x4736 JUMP JUMPDEST SWAP3 SWAP2 POP POP JUMP JUMPDEST PUSH2 0x476B DUP2 PUSH2 0x427A JUMP JUMPDEST DUP2 EQ PUSH2 0x4776 JUMPI PUSH1 0x0 DUP1 REVERT JUMPDEST POP JUMP JUMPDEST PUSH1 0x0 DUP2 CALLDATALOAD SWAP1 POP PUSH2 0x4788 DUP2 PUSH2 0x4762 JUMP JUMPDEST SWAP3 SWAP2 POP POP JUMP JUMPDEST PUSH1 0x0 DUP1 PUSH1 0x0 DUP1 PUSH1 0x0 DUP1 PUSH1 0x0 PUSH1 0xE0 DUP9 DUP11 SUB SLT ISZERO PUSH2 0x47AD JUMPI PUSH2 0x47AC PUSH2 0x3FB7 JUMP JUMPDEST JUMPDEST PUSH1 0x0 PUSH2 0x47BB DUP11 DUP3 DUP12 ADD PUSH2 0x400A JUMP JUMPDEST SWAP8 POP POP PUSH1 0x20 PUSH2 0x47CC DUP11 DUP3 DUP12 ADD PUSH2 0x400A JUMP JUMPDEST SWAP7 POP POP PUSH1 0x40 PUSH2 0x47DD DUP11 DUP3 DUP12 ADD PUSH2 0x410E JUMP JUMPDEST SWAP6 POP POP PUSH1 0x60 PUSH2 0x47EE DUP11 DUP3 DUP12 ADD PUSH2 0x410E JUMP JUMPDEST SWAP5 POP POP PUSH1 0x80 PUSH2 0x47FF DUP11 DUP3 DUP12 ADD PUSH2 0x474D JUMP JUMPDEST SWAP4 POP POP PUSH1 0xA0 PUSH2 0x4810 DUP11 DUP3 DUP12 ADD PUSH2 0x4779 JUMP JUMPDEST SWAP3 POP POP PUSH1 0xC0 PUSH2 0x4821 DUP11 DUP3 DUP12 ADD PUSH2 0x4779 JUMP JUMPDEST SWAP2 POP POP SWAP3 SWAP6 SWAP9 SWAP2 SWAP5 SWAP8 POP SWAP3 SWAP6 POP JUMP JUMPDEST PUSH1 0x0 DUP1 PUSH1 0x40 DUP4 DUP6 SUB SLT ISZERO PUSH2 0x4847 JUMPI PUSH2 0x4846 PUSH2 0x3FB7 JUMP JUMPDEST JUMPDEST PUSH1 0x0 PUSH2 0x4855 DUP6 DUP3 DUP7 ADD PUSH2 0x400A JUMP JUMPDEST SWAP3 POP POP PUSH1 0x20 PUSH2 0x4866 DUP6 DUP3 DUP7 ADD PUSH2 0x400A JUMP JUMPDEST SWAP2 POP POP SWAP3 POP SWAP3 SWAP1 POP JUMP JUMPDEST PUSH1 0x0 PUSH1 0xA0 DUP3 ADD SWAP1 POP PUSH2 0x4885 PUSH1 0x0 DUP4 ADD DUP9 PUSH2 0x4199 JUMP JUMPDEST PUSH2 0x4892 PUSH1 0x20 DUP4 ADD DUP8 PUSH2 0x4199 JUMP JUMPDEST PUSH2 0x489F PUSH1 0x40 DUP4 ADD DUP7 PUSH2 0x4199 JUMP JUMPDEST PUSH2 0x48AC PUSH1 0x60 DUP4 ADD DUP6 PUSH2 0x4199 JUMP JUMPDEST PUSH2 0x48B9 PUSH1 0x80 DUP4 ADD DUP5 PUSH2 0x4199 JUMP JUMPDEST SWAP7 SWAP6 POP POP POP POP POP POP JUMP JUMPDEST PUSH32 0x4E487B7100000000000000000000000000000000000000000000000000000000 PUSH1 0x0 MSTORE PUSH1 0x22 PUSH1 0x4 MSTORE PUSH1 0x24 PUSH1 0x0 REVERT JUMPDEST PUSH1 0x0 PUSH1 0x2 DUP3 DIV SWAP1 POP PUSH1 0x1 DUP3 AND DUP1 PUSH2 0x490A JUMPI PUSH1 0x7F DUP3 AND SWAP2 POP JUMPDEST PUSH1 0x20 DUP3 LT DUP2 SUB PUSH2 0x491D JUMPI PUSH2 0x491C PUSH2 0x48C3 JUMP JUMPDEST JUMPDEST POP SWAP2 SWAP1 POP JUMP JUMPDEST PUSH32 0x4E6F2045544820746F2077697468647261770000000000000000000000000000 PUSH1 0x0 DUP3 ADD MSTORE POP JUMP JUMPDEST PUSH1 0x0 PUSH2 0x4959 PUSH1 0x12 DUP4 PUSH2 0x3F0A JUMP JUMPDEST SWAP2 POP PUSH2 0x4964 DUP3 PUSH2 0x4923 JUMP JUMPDEST PUSH1 0x20 DUP3 ADD SWAP1 POP SWAP2 SWAP1 POP JUMP JUMPDEST PUSH1 0x0 PUSH1 0x20 DUP3 ADD SWAP1 POP DUP2 DUP2 SUB PUSH1 0x0 DUP4 ADD MSTORE PUSH2 0x4988 DUP2 PUSH2 0x494C JUMP JUMPDEST SWAP1 POP SWAP2 SWAP1 POP JUMP JUMPDEST PUSH1 0x0 DUP2 SWAP1 POP SWAP3 SWAP2 POP POP JUMP JUMPDEST POP JUMP JUMPDEST PUSH1 0x0 PUSH2 0x49AA PUSH1 0x0 DUP4 PUSH2 0x498F JUMP JUMPDEST SWAP2 POP PUSH2 0x49B5 DUP3 PUSH2 0x499A JUMP JUMPDEST PUSH1 0x0 DUP3 ADD SWAP1 POP SWAP2 SWAP1 POP JUMP JUMPDEST PUSH1 0x0 PUSH2 0x49CB DUP3 PUSH2 0x499D JUMP JUMPDEST SWAP2 POP DUP2 SWAP1 POP SWAP2 SWAP1 POP JUMP JUMPDEST PUSH32 0x5769746864726177206661696C65640000000000000000000000000000000000 PUSH1 0x0 DUP3 ADD MSTORE POP JUMP JUMPDEST PUSH1 0x0 PUSH2 0x4A0B PUSH1 0xF DUP4 PUSH2 0x3F0A JUMP JUMPDEST SWAP2 POP PUSH2 0x4A16 DUP3 PUSH2 0x49D5 JUMP JUMPDEST PUSH1 0x20 DUP3 ADD SWAP1 POP SWAP2 SWAP1 POP JUMP JUMPDEST PUSH1 0x0 PUSH1 0x20 DUP3 ADD SWAP1 POP DUP2 DUP2 SUB PUSH1 0x0 DUP4 ADD MSTORE PUSH2 0x4A3A DUP2 PUSH2 0x49FE JUMP JUMPDEST SWAP1 POP SWAP2 SWAP1 POP JUMP JUMPDEST PUSH32 0x496E73756666696369656E7420746F6B656E7320696E20636F6E747261637420 PUSH1 0x0 DUP3 ADD MSTORE PUSH32 0x746F206275726E00000000000000000000000000000000000000000000000000 PUSH1 0x20 DUP3 ADD MSTORE POP JUMP JUMPDEST PUSH1 0x0 PUSH2 0x4A9D PUSH1 0x27 DUP4 PUSH2 0x3F0A JUMP JUMPDEST SWAP2 POP PUSH2 0x4AA8 DUP3 PUSH2 0x4A41 JUMP JUMPDEST PUSH1 0x40 DUP3 ADD SWAP1 POP SWAP2 SWAP1 POP JUMP JUMPDEST PUSH1 0x0 PUSH1 0x20 DUP3 ADD SWAP1 POP DUP2 DUP2 SUB PUSH1 0x0 DUP4 ADD MSTORE PUSH2 0x4ACC DUP2 PUSH2 0x4A90 JUMP JUMPDEST SWAP1 POP SWAP2 SWAP1 POP JUMP JUMPDEST PUSH32 0x4E487B7100000000000000000000000000000000000000000000000000000000 PUSH1 0x0 MSTORE PUSH1 0x11 PUSH1 0x4 MSTORE PUSH1 0x24 PUSH1 0x0 REVERT JUMPDEST PUSH1 0x0 PUSH2 0x4B0D DUP3 PUSH2 0x40ED JUMP JUMPDEST SWAP2 POP PUSH2 0x4B18 DUP4 PUSH2 0x40ED JUMP JUMPDEST SWAP3 POP DUP3 DUP3 ADD SWAP1 POP DUP1 DUP3 GT ISZERO PUSH2 0x4B30 JUMPI PUSH2 0x4B2F PUSH2 0x4AD3 JUMP JUMPDEST JUMPDEST SWAP3 SWAP2 POP POP JUMP JUMPDEST PUSH32 0x496E73756666696369656E7420746F6B656E7320696E20636F6E747261637400 PUSH1 0x0 DUP3 ADD MSTORE POP JUMP JUMPDEST PUSH1 0x0 PUSH2 0x4B6C PUSH1 0x1F DUP4 PUSH2 0x3F0A JUMP JUMPDEST SWAP2 POP PUSH2 0x4B77 DUP3 PUSH2 0x4B36 JUMP JUMPDEST PUSH1 0x20 DUP3 ADD SWAP1 POP SWAP2 SWAP1 POP JUMP JUMPDEST PUSH1 0x0 PUSH1 0x20 DUP3 ADD SWAP1 POP DUP2 DUP2 SUB PUSH1 0x0 DUP4 ADD MSTORE PUSH2 0x4B9B DUP2 PUSH2 0x4B5F JUMP JUMPDEST SWAP1 POP SWAP2 SWAP1 POP JUMP JUMPDEST PUSH32 0x41646472657373206E6F742077686974656C6973746564000000000000000000 PUSH1 0x0 DUP3 ADD MSTORE POP JUMP JUMPDEST PUSH1 0x0 PUSH2 0x4BD8 PUSH1 0x17 DUP4 PUSH2 0x3F0A JUMP JUMPDEST SWAP2 POP PUSH2 0x4BE3 DUP3 PUSH2 0x4BA2 JUMP JUMPDEST PUSH1 0x20 DUP3 ADD SWAP1 POP SWAP2 SWAP1 POP JUMP JUMPDEST PUSH1 0x0 PUSH1 0x20 DUP3 ADD SWAP1 POP DUP2 DUP2 SUB PUSH1 0x0 DUP4 ADD MSTORE PUSH2 0x4C07 DUP2 PUSH2 0x4BCB JUMP JUMPDEST SWAP1 POP SWAP2 SWAP1 POP JUMP JUMPDEST PUSH32 0x507269766174652053616C652068617320656E64656400000000000000000000 PUSH1 0x0 DUP3 ADD MSTORE POP JUMP JUMPDEST PUSH1 0x0 PUSH2 0x4C44 PUSH1 0x16 DUP4 PUSH2 0x3F0A JUMP JUMPDEST SWAP2 POP PUSH2 0x4C4F DUP3 PUSH2 0x4C0E JUMP JUMPDEST PUSH1 0x20 DUP3 ADD SWAP1 POP SWAP2 SWAP1 POP JUMP JUMPDEST PUSH1 0x0 PUSH1 0x20 DUP3 ADD SWAP1 POP DUP2 DUP2 SUB PUSH1 0x0 DUP4 ADD MSTORE PUSH2 0x4C73 DUP2 PUSH2 0x4C37 JUMP JUMPDEST SWAP1 POP SWAP2 SWAP1 POP JUMP JUMPDEST PUSH32 0x4D696E696D756D20696E766573746D656E7420616D6F756E74206E6F74206D65 PUSH1 0x0 DUP3 ADD MSTORE PUSH32 0x7400000000000000000000000000000000000000000000000000000000000000 PUSH1 0x20 DUP3 ADD MSTORE POP JUMP JUMPDEST PUSH1 0x0 PUSH2 0x4CD6 PUSH1 0x21 DUP4 PUSH2 0x3F0A JUMP JUMPDEST SWAP2 POP PUSH2 0x4CE1 DUP3 PUSH2 0x4C7A JUMP JUMPDEST PUSH1 0x40 DUP3 ADD SWAP1 POP SWAP2 SWAP1 POP JUMP JUMPDEST PUSH1 0x0 PUSH1 0x20 DUP3 ADD SWAP1 POP DUP2 DUP2 SUB PUSH1 0x0 DUP4 ADD MSTORE PUSH2 0x4D05 DUP2 PUSH2 0x4CC9 JUMP JUMPDEST SWAP1 POP SWAP2 SWAP1 POP JUMP JUMPDEST PUSH32 0x507269766174652053616C6520736F6C64206F75740000000000000000000000 PUSH1 0x0 DUP3 ADD MSTORE POP JUMP JUMPDEST PUSH1 0x0 PUSH2 0x4D42 PUSH1 0x15 DUP4 PUSH2 0x3F0A JUMP JUMPDEST SWAP2 POP PUSH2 0x4D4D DUP3 PUSH2 0x4D0C JUMP JUMPDEST PUSH1 0x20 DUP3 ADD SWAP1 POP SWAP2 SWAP1 POP JUMP JUMPDEST PUSH1 0x0 PUSH1 0x20 DUP3 ADD SWAP1 POP DUP2 DUP2 SUB PUSH1 0x0 DUP4 ADD MSTORE PUSH2 0x4D71 DUP2 PUSH2 0x4D35 JUMP JUMPDEST SWAP1 POP SWAP2 SWAP1 POP JUMP JUMPDEST PUSH32 0x4578636565647320507269766174652053616C6520746F6B656E206C696D6974 PUSH1 0x0 DUP3 ADD MSTORE POP JUMP JUMPDEST PUSH1 0x0 PUSH2 0x4DAE PUSH1 0x20 DUP4 PUSH2 0x3F0A JUMP JUMPDEST SWAP2 POP PUSH2 0x4DB9 DUP3 PUSH2 0x4D78 JUMP JUMPDEST PUSH1 0x20 DUP3 ADD SWAP1 POP SWAP2 SWAP1 POP JUMP JUMPDEST PUSH1 0x0 PUSH1 0x20 DUP3 ADD SWAP1 POP DUP2 DUP2 SUB PUSH1 0x0 DUP4 ADD MSTORE PUSH2 0x4DDD DUP2 PUSH2 0x4DA1 JUMP JUMPDEST SWAP1 POP SWAP2 SWAP1 POP JUMP JUMPDEST PUSH1 0x0 DUP2 SWAP1 POP SWAP3 SWAP2 POP POP JUMP JUMPDEST PUSH1 0x0 PUSH2 0x4DFB DUP4 DUP6 PUSH2 0x4DE4 JUMP JUMPDEST SWAP4 POP PUSH2 0x4E08 DUP4 DUP6 DUP5 PUSH2 0x4424 JUMP JUMPDEST DUP3 DUP5 ADD SWAP1 POP SWAP4 SWAP3 POP POP POP JUMP JUMPDEST PUSH1 0x0 PUSH2 0x4E21 DUP3 DUP5 DUP7 PUSH2 0x4DEF JUMP JUMPDEST SWAP2 POP DUP2 SWAP1 POP SWAP4 SWAP3 POP POP POP JUMP JUMPDEST PUSH32 0x496E76616C696420616666696C6961746520636F646500000000000000000000 PUSH1 0x0 DUP3 ADD MSTORE POP JUMP JUMPDEST PUSH1 0x0 PUSH2 0x4E63 PUSH1 0x16 DUP4 PUSH2 0x3F0A JUMP JUMPDEST SWAP2 POP PUSH2 0x4E6E DUP3 PUSH2 0x4E2D JUMP JUMPDEST PUSH1 0x20 DUP3 ADD SWAP1 POP SWAP2 SWAP1 POP JUMP JUMPDEST PUSH1 0x0 PUSH1 0x20 DUP3 ADD SWAP1 POP DUP2 DUP2 SUB PUSH1 0x0 DUP4 ADD MSTORE PUSH2 0x4E92 DUP2 PUSH2 0x4E56 JUMP JUMPDEST SWAP1 POP SWAP2 SWAP1 POP JUMP JUMPDEST PUSH1 0x0 PUSH2 0x4EA4 DUP3 PUSH2 0x40ED JUMP JUMPDEST SWAP2 POP PUSH2 0x4EAF DUP4 PUSH2 0x40ED JUMP JUMPDEST SWAP3 POP DUP3 DUP3 MUL PUSH2 0x4EBD DUP2 PUSH2 0x40ED JUMP JUMPDEST SWAP2 POP DUP3 DUP3 DIV DUP5 EQ DUP4 ISZERO OR PUSH2 0x4ED4 JUMPI PUSH2 0x4ED3 PUSH2 0x4AD3 JUMP JUMPDEST JUMPDEST POP SWAP3 SWAP2 POP POP JUMP JUMPDEST PUSH32 0x4E487B7100000000000000000000000000000000000000000000000000000000 PUSH1 0x0 MSTORE PUSH1 0x12 PUSH1 0x4 MSTORE PUSH1 0x24 PUSH1 0x0 REVERT JUMPDEST PUSH1 0x0 PUSH2 0x4F15 DUP3 PUSH2 0x40ED JUMP JUMPDEST SWAP2 POP PUSH2 0x4F20 DUP4 PUSH2 0x40ED JUMP JUMPDEST SWAP3 POP DUP3 PUSH2 0x4F30 JUMPI PUSH2 0x4F2F PUSH2 0x4EDB JUMP JUMPDEST JUMPDEST DUP3 DUP3 DIV SWAP1 POP SWAP3 SWAP2 POP POP JUMP JUMPDEST PUSH1 0x0 PUSH2 0x4F47 DUP4 DUP6 PUSH2 0x3F0A JUMP JUMPDEST SWAP4 POP PUSH2 0x4F54 DUP4 DUP6 DUP5 PUSH2 0x4424 JUMP JUMPDEST PUSH2 0x4F5D DUP4 PUSH2 0x4081 JUMP JUMPDEST DUP5 ADD SWAP1 POP SWAP4 SWAP3 POP POP POP JUMP JUMPDEST PUSH1 0x0 PUSH1 0x40 DUP3 ADD SWAP1 POP PUSH2 0x4F7D PUSH1 0x0 DUP4 ADD DUP7 PUSH2 0x4199 JUMP JUMPDEST DUP2 DUP2 SUB PUSH1 0x20 DUP4 ADD MSTORE PUSH2 0x4F90 DUP2 DUP5 DUP7 PUSH2 0x4F3B JUMP JUMPDEST SWAP1 POP SWAP5 SWAP4 POP POP POP POP JUMP JUMPDEST PUSH32 0x4E6F207374616B656420746F6B656E7320746F2072656C656173650000000000 PUSH1 0x0 DUP3 ADD MSTORE POP JUMP JUMPDEST PUSH1 0x0 PUSH2 0x4FD0 PUSH1 0x1B DUP4 PUSH2 0x3F0A JUMP JUMPDEST SWAP2 POP PUSH2 0x4FDB DUP3 PUSH2 0x4F9A JUMP JUMPDEST PUSH1 0x20 DUP3 ADD SWAP1 POP SWAP2 SWAP1 POP JUMP JUMPDEST PUSH1 0x0 PUSH1 0x20 DUP3 ADD SWAP1 POP DUP2 DUP2 SUB PUSH1 0x0 DUP4 ADD MSTORE PUSH2 0x4FFF DUP2 PUSH2 0x4FC3 JUMP JUMPDEST SWAP1 POP SWAP2 SWAP1 POP JUMP JUMPDEST PUSH32 0x546F6B656E7320617265207374696C6C20696E2076657374696E672070657269 PUSH1 0x0 DUP3 ADD MSTORE PUSH32 0x6F64000000000000000000000000000000000000000000000000000000000000 PUSH1 0x20 DUP3 ADD MSTORE POP JUMP JUMPDEST PUSH1 0x0 PUSH2 0x5062 PUSH1 0x22 DUP4 PUSH2 0x3F0A JUMP JUMPDEST SWAP2 POP PUSH2 0x506D DUP3 PUSH2 0x5006 JUMP JUMPDEST PUSH1 0x40 DUP3 ADD SWAP1 POP SWAP2 SWAP1 POP JUMP JUMPDEST PUSH1 0x0 PUSH1 0x20 DUP3 ADD SWAP1 POP DUP2 DUP2 SUB PUSH1 0x0 DUP4 ADD MSTORE PUSH2 0x5091 DUP2 PUSH2 0x5055 JUMP JUMPDEST SWAP1 POP SWAP2 SWAP1 POP JUMP JUMPDEST PUSH32 0x5072652D53616C6520616C726561647920636F6D706C65746564000000000000 PUSH1 0x0 DUP3 ADD MSTORE POP JUMP JUMPDEST PUSH1 0x0 PUSH2 0x50CE PUSH1 0x1A DUP4 PUSH2 0x3F0A JUMP JUMPDEST SWAP2 POP PUSH2 0x50D9 DUP3 PUSH2 0x5098 JUMP JUMPDEST PUSH1 0x20 DUP3 ADD SWAP1 POP SWAP2 SWAP1 POP JUMP JUMPDEST PUSH1 0x0 PUSH1 0x20 DUP3 ADD SWAP1 POP DUP2 DUP2 SUB PUSH1 0x0 DUP4 ADD MSTORE PUSH2 0x50FD DUP2 PUSH2 0x50C1 JUMP JUMPDEST SWAP1 POP SWAP2 SWAP1 POP JUMP JUMPDEST PUSH32 0x4E6F2070656E64696E6720746F6B656E7320746F206275726E00000000000000 PUSH1 0x0 DUP3 ADD MSTORE POP JUMP JUMPDEST PUSH1 0x0 PUSH2 0x513A PUSH1 0x19 DUP4 PUSH2 0x3F0A JUMP JUMPDEST SWAP2 POP PUSH2 0x5145 DUP3 PUSH2 0x5104 JUMP JUMPDEST PUSH1 0x20 DUP3 ADD SWAP1 POP SWAP2 SWAP1 POP JUMP JUMPDEST PUSH1 0x0 PUSH1 0x20 DUP3 ADD SWAP1 POP DUP2 DUP2 SUB PUSH1 0x0 DUP4 ADD MSTORE PUSH2 0x5169 DUP2 PUSH2 0x512D JUMP JUMPDEST SWAP1 POP SWAP2 SWAP1 POP JUMP JUMPDEST PUSH32 0x5374616B6520616D6F756E74206D757374206265206772656174657220746861 PUSH1 0x0 DUP3 ADD MSTORE PUSH32 0x6E207A65726F0000000000000000000000000000000000000000000000000000 PUSH1 0x20 DUP3 ADD MSTORE POP JUMP JUMPDEST PUSH1 0x0 PUSH2 0x51CC PUSH1 0x26 DUP4 PUSH2 0x3F0A JUMP JUMPDEST SWAP2 POP PUSH2 0x51D7 DUP3 PUSH2 0x5170 JUMP JUMPDEST PUSH1 0x40 DUP3 ADD SWAP1 POP SWAP2 SWAP1 POP JUMP JUMPDEST PUSH1 0x0 PUSH1 0x20 DUP3 ADD SWAP1 POP DUP2 DUP2 SUB PUSH1 0x0 DUP4 ADD MSTORE PUSH2 0x51FB DUP2 PUSH2 0x51BF JUMP JUMPDEST SWAP1 POP SWAP2 SWAP1 POP JUMP JUMPDEST PUSH32 0x496E73756666696369656E742062616C616E636520746F207374616B65000000 PUSH1 0x0 DUP3 ADD MSTORE POP JUMP JUMPDEST PUSH1 0x0 PUSH2 0x5238 PUSH1 0x1D DUP4 PUSH2 0x3F0A JUMP JUMPDEST SWAP2 POP PUSH2 0x5243 DUP3 PUSH2 0x5202 JUMP JUMPDEST PUSH1 0x20 DUP3 ADD SWAP1 POP SWAP2 SWAP1 POP JUMP JUMPDEST PUSH1 0x0 PUSH1 0x20 DUP3 ADD SWAP1 POP DUP2 DUP2 SUB PUSH1 0x0 DUP4 ADD MSTORE PUSH2 0x5267 DUP2 PUSH2 0x522B JUMP JUMPDEST SWAP1 POP SWAP2 SWAP1 POP JUMP JUMPDEST PUSH32 0x5072652D73616C65206D75737420626520636F6D706C65746564206265666F72 PUSH1 0x0 DUP3 ADD MSTORE PUSH32 0x65207374616B696E670000000000000000000000000000000000000000000000 PUSH1 0x20 DUP3 ADD MSTORE POP JUMP JUMPDEST PUSH1 0x0 PUSH2 0x52CA PUSH1 0x29 DUP4 PUSH2 0x3F0A JUMP JUMPDEST SWAP2 POP PUSH2 0x52D5 DUP3 PUSH2 0x526E JUMP JUMPDEST PUSH1 0x40 DUP3 ADD SWAP1 POP SWAP2 SWAP1 POP JUMP JUMPDEST PUSH1 0x0 PUSH1 0x20 DUP3 ADD SWAP1 POP DUP2 DUP2 SUB PUSH1 0x0 DUP4 ADD MSTORE PUSH2 0x52F9 DUP2 PUSH2 0x52BD JUMP JUMPDEST SWAP1 POP SWAP2 SWAP1 POP JUMP JUMPDEST PUSH1 0x0 PUSH1 0x40 DUP3 ADD SWAP1 POP PUSH2 0x5315 PUSH1 0x0 DUP4 ADD DUP6 PUSH2 0x4199 JUMP JUMPDEST PUSH2 0x5322 PUSH1 0x20 DUP4 ADD DUP5 PUSH2 0x4199 JUMP JUMPDEST SWAP4 SWAP3 POP POP POP JUMP JUMPDEST PUSH32 0x41646472657373206973206E6F742077686974656C6973746564000000000000 PUSH1 0x0 DUP3 ADD MSTORE POP JUMP JUMPDEST PUSH1 0x0 PUSH2 0x535F PUSH1 0x1A DUP4 PUSH2 0x3F0A JUMP JUMPDEST SWAP2 POP PUSH2 0x536A DUP3 PUSH2 0x5329 JUMP JUMPDEST PUSH1 0x20 DUP3 ADD SWAP1 POP SWAP2 SWAP1 POP JUMP JUMPDEST PUSH1 0x0 PUSH1 0x20 DUP3 ADD SWAP1 POP DUP2 DUP2 SUB PUSH1 0x0 DUP4 ADD MSTORE PUSH2 0x538E DUP2 PUSH2 0x5352 JUMP JUMPDEST SWAP1 POP SWAP2 SWAP1 POP JUMP JUMPDEST PUSH32 0x4E487B7100000000000000000000000000000000000000000000000000000000 PUSH1 0x0 MSTORE PUSH1 0x32 PUSH1 0x4 MSTORE PUSH1 0x24 PUSH1 0x0 REVERT JUMPDEST PUSH1 0x0 PUSH2 0x53CF DUP3 PUSH2 0x40ED JUMP JUMPDEST SWAP2 POP PUSH32 0xFFFFFFFFFFFFFFFFFFFFFFFFFFFFFFFFFFFFFFFFFFFFFFFFFFFFFFFFFFFFFFFF DUP3 SUB PUSH2 0x5401 JUMPI PUSH2 0x5400 PUSH2 0x4AD3 JUMP JUMPDEST JUMPDEST PUSH1 0x1 DUP3 ADD SWAP1 POP SWAP2 SWAP1 POP JUMP JUMPDEST PUSH32 0x5072652D53616C652068617320656E6465640000000000000000000000000000 PUSH1 0x0 DUP3 ADD MSTORE POP JUMP JUMPDEST PUSH1 0x0 PUSH2 0x5442 PUSH1 0x12 DUP4 PUSH2 0x3F0A JUMP JUMPDEST SWAP2 POP PUSH2 0x544D DUP3 PUSH2 0x540C JUMP JUMPDEST PUSH1 0x20 DUP3 ADD SWAP1 POP SWAP2 SWAP1 POP JUMP JUMPDEST PUSH1 0x0 PUSH1 0x20 DUP3 ADD SWAP1 POP DUP2 DUP2 SUB PUSH1 0x0 DUP4 ADD MSTORE PUSH2 0x5471 DUP2 PUSH2 0x5435 JUMP JUMPDEST SWAP1 POP SWAP2 SWAP1 POP JUMP JUMPDEST PUSH32 0x507572636861736520616D6F756E74206F7574206F66206C696D697473000000 PUSH1 0x0 DUP3 ADD MSTORE POP JUMP JUMPDEST PUSH1 0x0 PUSH2 0x54AE PUSH1 0x1D DUP4 PUSH2 0x3F0A JUMP JUMPDEST SWAP2 POP PUSH2 0x54B9 DUP3 PUSH2 0x5478 JUMP JUMPDEST PUSH1 0x20 DUP3 ADD SWAP1 POP SWAP2 SWAP1 POP JUMP JUMPDEST PUSH1 0x0 PUSH1 0x20 DUP3 ADD SWAP1 POP DUP2 DUP2 SUB PUSH1 0x0 DUP4 ADD MSTORE PUSH2 0x54DD DUP2 PUSH2 0x54A1 JUMP JUMPDEST SWAP1 POP SWAP2 SWAP1 POP JUMP JUMPDEST PUSH32 0x5072652D53616C6520736F6C64206F7574000000000000000000000000000000 PUSH1 0x0 DUP3 ADD MSTORE POP JUMP JUMPDEST PUSH1 0x0 PUSH2 0x551A PUSH1 0x11 DUP4 PUSH2 0x3F0A JUMP JUMPDEST SWAP2 POP PUSH2 0x5525 DUP3 PUSH2 0x54E4 JUMP JUMPDEST PUSH1 0x20 DUP3 ADD SWAP1 POP SWAP2 SWAP1 POP JUMP JUMPDEST PUSH1 0x0 PUSH1 0x20 DUP3 ADD SWAP1 POP DUP2 DUP2 SUB PUSH1 0x0 DUP4 ADD MSTORE PUSH2 0x5549 DUP2 PUSH2 0x550D JUMP JUMPDEST SWAP1 POP SWAP2 SWAP1 POP JUMP JUMPDEST PUSH32 0x45786365656473206D6178696D756D207075726368617365206C696D69742070 PUSH1 0x0 DUP3 ADD MSTORE PUSH32 0x6572207573657200000000000000000000000000000000000000000000000000 PUSH1 0x20 DUP3 ADD MSTORE POP JUMP JUMPDEST PUSH1 0x0 PUSH2 0x55AC PUSH1 0x27 DUP4 PUSH2 0x3F0A JUMP JUMPDEST SWAP2 POP PUSH2 0x55B7 DUP3 PUSH2 0x5550 JUMP JUMPDEST PUSH1 0x40 DUP3 ADD SWAP1 POP SWAP2 SWAP1 POP JUMP JUMPDEST PUSH1 0x0 PUSH1 0x20 DUP3 ADD SWAP1 POP DUP2 DUP2 SUB PUSH1 0x0 DUP4 ADD MSTORE PUSH2 0x55DB DUP2 PUSH2 0x559F JUMP JUMPDEST SWAP1 POP SWAP2 SWAP1 POP JUMP JUMPDEST PUSH32 0x45786365656473205072652D53616C6520746F6B656E206C696D697400000000 PUSH1 0x0 DUP3 ADD MSTORE POP JUMP JUMPDEST PUSH1 0x0 PUSH2 0x5618 PUSH1 0x1C DUP4 PUSH2 0x3F0A JUMP JUMPDEST SWAP2 POP PUSH2 0x5623 DUP3 PUSH2 0x55E2 JUMP JUMPDEST PUSH1 0x20 DUP3 ADD SWAP1 POP SWAP2 SWAP1 POP JUMP JUMPDEST PUSH1 0x0 PUSH1 0x20 DUP3 ADD SWAP1 POP DUP2 DUP2 SUB PUSH1 0x0 DUP4 ADD MSTORE PUSH2 0x5647 DUP2 PUSH2 0x560B JUMP JUMPDEST SWAP1 POP SWAP2 SWAP1 POP JUMP JUMPDEST PUSH1 0x0 PUSH1 0xC0 DUP3 ADD SWAP1 POP PUSH2 0x5663 PUSH1 0x0 DUP4 ADD DUP10 PUSH2 0x4284 JUMP JUMPDEST PUSH2 0x5670 PUSH1 0x20 DUP4 ADD DUP9 PUSH2 0x44EC JUMP JUMPDEST PUSH2 0x567D PUSH1 0x40 DUP4 ADD DUP8 PUSH2 0x44EC JUMP JUMPDEST PUSH2 0x568A PUSH1 0x60 DUP4 ADD DUP7 PUSH2 0x4199 JUMP JUMPDEST PUSH2 0x5697 PUSH1 0x80 DUP4 ADD DUP6 PUSH2 0x4199 JUMP JUMPDEST PUSH2 0x56A4 PUSH1 0xA0 DUP4 ADD DUP5 PUSH2 0x4199 JUMP JUMPDEST SWAP8 SWAP7 POP POP POP POP POP POP POP JUMP JUMPDEST PUSH1 0x0 PUSH1 0x40 DUP3 ADD SWAP1 POP PUSH2 0x56C4 PUSH1 0x0 DUP4 ADD DUP6 PUSH2 0x44EC JUMP JUMPDEST PUSH2 0x56D1 PUSH1 0x20 DUP4 ADD DUP5 PUSH2 0x44EC JUMP JUMPDEST SWAP4 SWAP3 POP POP POP JUMP JUMPDEST PUSH32 0x4164647265737320697320616C72656164792077686974656C69737465640000 PUSH1 0x0 DUP3 ADD MSTORE POP JUMP JUMPDEST PUSH1 0x0 PUSH2 0x570E PUSH1 0x1E DUP4 PUSH2 0x3F0A JUMP JUMPDEST SWAP2 POP PUSH2 0x5719 DUP3 PUSH2 0x56D8 JUMP JUMPDEST PUSH1 0x20 DUP3 ADD SWAP1 POP SWAP2 SWAP1 POP JUMP JUMPDEST PUSH1 0x0 PUSH1 0x20 DUP3 ADD SWAP1 POP DUP2 DUP2 SUB PUSH1 0x0 DUP4 ADD MSTORE PUSH2 0x573D DUP2 PUSH2 0x5701 JUMP JUMPDEST SWAP1 POP SWAP2 SWAP1 POP JUMP JUMPDEST PUSH32 0x507269766174652053616C6520616C726561647920636F6D706C657465640000 PUSH1 0x0 DUP3 ADD MSTORE POP JUMP JUMPDEST PUSH1 0x0 PUSH2 0x577A PUSH1 0x1E DUP4 PUSH2 0x3F0A JUMP JUMPDEST SWAP2 POP PUSH2 0x5785 DUP3 PUSH2 0x5744 JUMP JUMPDEST PUSH1 0x20 DUP3 ADD SWAP1 POP SWAP2 SWAP1 POP JUMP JUMPDEST PUSH1 0x0 PUSH1 0x20 DUP3 ADD SWAP1 POP DUP2 DUP2 SUB PUSH1 0x0 DUP4 ADD MSTORE PUSH2 0x57A9 DUP2 PUSH2 0x576D JUMP JUMPDEST SWAP1 POP SWAP2 SWAP1 POP JUMP JUMPDEST PUSH1 0x0 PUSH1 0x60 DUP3 ADD SWAP1 POP PUSH2 0x57C5 PUSH1 0x0 DUP4 ADD DUP7 PUSH2 0x44EC JUMP JUMPDEST PUSH2 0x57D2 PUSH1 0x20 DUP4 ADD DUP6 PUSH2 0x4199 JUMP JUMPDEST PUSH2 0x57DF PUSH1 0x40 DUP4 ADD DUP5 PUSH2 0x4199 JUMP JUMPDEST SWAP5 SWAP4 POP POP POP POP JUMP JUMPDEST PUSH1 0x0 PUSH2 0x57F2 DUP3 PUSH2 0x40ED JUMP JUMPDEST SWAP2 POP PUSH2 0x57FD DUP4 PUSH2 0x40ED JUMP JUMPDEST SWAP3 POP DUP3 DUP3 SUB SWAP1 POP DUP2 DUP2 GT ISZERO PUSH2 0x5815 JUMPI PUSH2 0x5814 PUSH2 0x4AD3 JUMP JUMPDEST JUMPDEST SWAP3 SWAP2 POP POP JUMP JUMPDEST PUSH32 0x496E76616C69642070726963652063616C63756C6174696F6E00000000000000 PUSH1 0x0 DUP3 ADD MSTORE POP JUMP JUMPDEST PUSH1 0x0 PUSH2 0x5851 PUSH1 0x19 DUP4 PUSH2 0x3F0A JUMP JUMPDEST SWAP2 POP PUSH2 0x585C DUP3 PUSH2 0x581B JUMP JUMPDEST PUSH1 0x20 DUP3 ADD SWAP1 POP SWAP2 SWAP1 POP JUMP JUMPDEST PUSH1 0x0 PUSH1 0x20 DUP3 ADD SWAP1 POP DUP2 DUP2 SUB PUSH1 0x0 DUP4 ADD MSTORE PUSH2 0x5880 DUP2 PUSH2 0x5844 JUMP JUMPDEST SWAP1 POP SWAP2 SWAP1 POP JUMP JUMPDEST PUSH1 0x0 PUSH1 0xA0 DUP3 ADD SWAP1 POP PUSH2 0x589C PUSH1 0x0 DUP4 ADD DUP9 PUSH2 0x4284 JUMP JUMPDEST PUSH2 0x58A9 PUSH1 0x20 DUP4 ADD DUP8 PUSH2 0x4284 JUMP JUMPDEST PUSH2 0x58B6 PUSH1 0x40 DUP4 ADD DUP7 PUSH2 0x4284 JUMP JUMPDEST PUSH2 0x58C3 PUSH1 0x60 DUP4 ADD DUP6 PUSH2 0x4199 JUMP JUMPDEST PUSH2 0x58D0 PUSH1 0x80 DUP4 ADD DUP5 PUSH2 0x44EC JUMP JUMPDEST SWAP7 SWAP6 POP POP POP POP POP POP JUMP JUMPDEST PUSH1 0x0 PUSH1 0x80 DUP3 ADD SWAP1 POP PUSH2 0x58EF PUSH1 0x0 DUP4 ADD DUP8 PUSH2 0x4284 JUMP JUMPDEST PUSH2 0x58FC PUSH1 0x20 DUP4 ADD DUP7 PUSH2 0x4250 JUMP JUMPDEST PUSH2 0x5909 PUSH1 0x40 DUP4 ADD DUP6 PUSH2 0x4284 JUMP JUMPDEST PUSH2 0x5916 PUSH1 0x60 DUP4 ADD DUP5 PUSH2 0x4284 JUMP JUMPDEST SWAP6 SWAP5 POP POP POP POP POP JUMP JUMPDEST PUSH32 0x4E487B7100000000000000000000000000000000000000000000000000000000 PUSH1 0x0 MSTORE PUSH1 0x21 PUSH1 0x4 MSTORE PUSH1 0x24 PUSH1 0x0 REVERT INVALID LOG2 PUSH5 0x6970667358 0x22 SLT KECCAK256 0xEC GAS PUSH32 0xFB926C082DE63E1FF3BA75620C836678515A97B06B2BBBBA975B68E2E564736F PUSH13 0x63430008140033000000000000 "
		},
		"gasEstimates": {
			"creation": {
				"codeDepositCost": "4583200",
				"executionCost": "infinite",
				"totalCost": "infinite"
			},
			"external": {
				"": "560",
				"AIRDROP_ALLOCATION()": "484",
				"BURN_ALLOCATION()": "464",
				"DOMAIN_SEPARATOR()": "infinite",
				"MARKET_ALLOCATION()": "419",
				"PRESALE_ALLOCATION()": "440",
				"PRESALE_TOKENS()": "462",
				"PRIVATE_SALE_ALLOCATION()": "418",
				"PRIVATE_SALE_TOKENS()": "440",
				"STAKE_DURATION()": "418",
				"TEAM_ALLOCATION()": "461",
				"TOTAL_SUPPLY()": "397",
				"VESTING_DURATION()": "485",
				"addToPendingBurn(uint256)": "infinite",
				"addToWhitelist(address)": "infinite",
				"addToWhitelistBulk(address[])": "infinite",
				"affiliateCodes(address)": "infinite",
				"affiliateOwners(string)": "infinite",
				"affiliateRewardPercentage()": "1260",
				"affiliateRewards(address)": "1647",
				"airdropActive()": "1305",
				"airdropEligible(address)": "1700",
				"airdropEndTime()": "1197",
				"airdropStartTime()": "1241",
				"allowance(address,address)": "infinite",
				"approve(address,uint256)": "infinite",
				"balanceOf(address)": "1696",
				"burnPendingTokens()": "infinite",
				"buyTokensPreSale(uint256,string)": "infinite",
				"buyTokensPrivateSale(uint256,string)": "infinite",
				"completePreSale()": "infinite",
				"completePrivateSale()": "infinite",
				"decimals()": "412",
				"eip712Domain()": "infinite",
				"emergencyPause()": "infinite",
				"isWhitelisted(address)": "1651",
				"maxPreSaleAmount()": "1241",
				"minPreSaleAmount()": "1242",
				"minPrivateSaleAmount()": "1218",
				"name()": "infinite",
				"nonces(address)": "1719",
				"owner()": "1356",
				"paused()": "1291",
				"pendingBurnTokens()": "1196",
				"permit(address,address,uint256,uint256,uint8,bytes32,bytes32)": "infinite",
				"preSaleCompleted()": "1305",
				"preSaleEndPrice()": "1285",
				"preSaleEndTime()": "1196",
				"preSaleSoldTokens()": "1263",
				"preSaleStartPrice()": "1219",
				"privateSaleCompleted()": "1262",
				"privateSaleEndPrice()": "1196",
				"privateSaleSoldTokens()": "1197",
				"privateSaleStartPrice()": "1197",
				"releaseVestedTokens()": "infinite",
				"removeFromWhitelist(address)": "infinite",
				"renounceOwnership()": "infinite",
				"stakeStartTime(address)": "1648",
				"stakeTokens(uint256)": "infinite",
				"stakes(address)": "1650",
				"symbol()": "infinite",
				"teamTokenReleaseTime()": "1241",
				"totalSupply()": "1206",
				"transfer(address,uint256)": "infinite",
				"transferFrom(address,address,uint256)": "infinite",
				"transferOwnership(address)": "infinite",
				"unpause()": "infinite",
				"userPurchaseAmounts(address)": "1648",
				"vestingReleaseTime(address)": "1671",
				"vestingSchedules(address)": "infinite",
				"whitelist(address)": "1612",
				"withdrawFunds()": "infinite",
				"withdrawTokens(uint256)": "infinite"
			},
			"internal": {
				"calculateTokensPreSale(uint256)": "infinite",
				"calculateTokensPrivateSale(uint256)": "infinite"
			}
		},
		"methodIdentifiers": {
			"AIRDROP_ALLOCATION()": "cb4b4ff9",
			"BURN_ALLOCATION()": "598cf195",
			"DOMAIN_SEPARATOR()": "3644e515",
			"MARKET_ALLOCATION()": "5b884160",
			"PRESALE_ALLOCATION()": "c7b5a48c",
			"PRESALE_TOKENS()": "6ddb627c",
			"PRIVATE_SALE_ALLOCATION()": "a6c3e531",
			"PRIVATE_SALE_TOKENS()": "6b0651db",
			"STAKE_DURATION()": "6afb630a",
			"TEAM_ALLOCATION()": "fd99cbed",
			"TOTAL_SUPPLY()": "902d55a5",
			"VESTING_DURATION()": "4cfc4d30",
			"addToPendingBurn(uint256)": "297155c9",
			"addToWhitelist(address)": "e43252d7",
			"addToWhitelistBulk(address[])": "a81c804e",
			"affiliateCodes(address)": "03f0cc64",
			"affiliateOwners(string)": "59fa61a0",
			"affiliateRewardPercentage()": "d50234c4",
			"affiliateRewards(address)": "c7ba0266",
			"airdropActive()": "9843eae3",
			"airdropEligible(address)": "ab39f08a",
			"airdropEndTime()": "806019c1",
			"airdropStartTime()": "40306fb6",
			"allowance(address,address)": "dd62ed3e",
			"approve(address,uint256)": "095ea7b3",
			"balanceOf(address)": "70a08231",
			"burnPendingTokens()": "644fe3ae",
			"buyTokensPreSale(uint256,string)": "b144662d",
			"buyTokensPrivateSale(uint256,string)": "50195f81",
			"completePreSale()": "5e39922a",
			"completePrivateSale()": "fd5661b6",
			"decimals()": "313ce567",
			"eip712Domain()": "84b0196e",
			"emergencyPause()": "51858e27",
			"isWhitelisted(address)": "3af32abf",
			"maxPreSaleAmount()": "b31c2f72",
			"minPreSaleAmount()": "34d70532",
			"minPrivateSaleAmount()": "bde7a37a",
			"name()": "06fdde03",
			"nonces(address)": "7ecebe00",
			"owner()": "8da5cb5b",
			"paused()": "5c975abb",
			"pendingBurnTokens()": "6ad7ed37",
			"permit(address,address,uint256,uint256,uint8,bytes32,bytes32)": "d505accf",
			"preSaleCompleted()": "43248084",
			"preSaleEndPrice()": "8f7713ff",
			"preSaleEndTime()": "cce29ea7",
			"preSaleSoldTokens()": "b68ed11f",
			"preSaleStartPrice()": "920168b3",
			"privateSaleCompleted()": "7343b05c",
			"privateSaleEndPrice()": "bda95633",
			"privateSaleSoldTokens()": "5fb3b944",
			"privateSaleStartPrice()": "b0e68630",
			"releaseVestedTokens()": "54dd1da4",
			"removeFromWhitelist(address)": "8ab1d681",
			"renounceOwnership()": "715018a6",
			"stakeStartTime(address)": "6985e6d8",
			"stakeTokens(uint256)": "7547c7a3",
			"stakes(address)": "16934fc4",
			"symbol()": "95d89b41",
			"teamTokenReleaseTime()": "6705a003",
			"totalSupply()": "18160ddd",
			"transfer(address,uint256)": "a9059cbb",
			"transferFrom(address,address,uint256)": "23b872dd",
			"transferOwnership(address)": "f2fde38b",
			"unpause()": "3f4ba83a",
			"userPurchaseAmounts(address)": "5d5f26fe",
			"vestingReleaseTime(address)": "2b1cbc38",
			"vestingSchedules(address)": "fdb20ccb",
			"whitelist(address)": "9b19251a",
			"withdrawFunds()": "24600fc3",
			"withdrawTokens(uint256)": "315a095d"
		}
	},
	"abi": [
		{
			"inputs": [],
			"stateMutability": "nonpayable",
			"type": "constructor"
		},
		{
			"inputs": [],
			"name": "ECDSAInvalidSignature",
			"type": "error"
		},
		{
			"inputs": [
				{
					"internalType": "uint256",
					"name": "length",
					"type": "uint256"
				}
			],
			"name": "ECDSAInvalidSignatureLength",
			"type": "error"
		},
		{
			"inputs": [
				{
					"internalType": "bytes32",
					"name": "s",
					"type": "bytes32"
				}
			],
			"name": "ECDSAInvalidSignatureS",
			"type": "error"
		},
		{
			"inputs": [
				{
					"internalType": "address",
					"name": "spender",
					"type": "address"
				},
				{
					"internalType": "uint256",
					"name": "allowance",
					"type": "uint256"
				},
				{
					"internalType": "uint256",
					"name": "needed",
					"type": "uint256"
				}
			],
			"name": "ERC20InsufficientAllowance",
			"type": "error"
		},
		{
			"inputs": [
				{
					"internalType": "address",
					"name": "sender",
					"type": "address"
				},
				{
					"internalType": "uint256",
					"name": "balance",
					"type": "uint256"
				},
				{
					"internalType": "uint256",
					"name": "needed",
					"type": "uint256"
				}
			],
			"name": "ERC20InsufficientBalance",
			"type": "error"
		},
		{
			"inputs": [
				{
					"internalType": "address",
					"name": "approver",
					"type": "address"
				}
			],
			"name": "ERC20InvalidApprover",
			"type": "error"
		},
		{
			"inputs": [
				{
					"internalType": "address",
					"name": "receiver",
					"type": "address"
				}
			],
			"name": "ERC20InvalidReceiver",
			"type": "error"
		},
		{
			"inputs": [
				{
					"internalType": "address",
					"name": "sender",
					"type": "address"
				}
			],
			"name": "ERC20InvalidSender",
			"type": "error"
		},
		{
			"inputs": [
				{
					"internalType": "address",
					"name": "spender",
					"type": "address"
				}
			],
			"name": "ERC20InvalidSpender",
			"type": "error"
		},
		{
			"inputs": [
				{
					"internalType": "uint256",
					"name": "deadline",
					"type": "uint256"
				}
			],
			"name": "ERC2612ExpiredSignature",
			"type": "error"
		},
		{
			"inputs": [
				{
					"internalType": "address",
					"name": "signer",
					"type": "address"
				},
				{
					"internalType": "address",
					"name": "owner",
					"type": "address"
				}
			],
			"name": "ERC2612InvalidSigner",
			"type": "error"
		},
		{
			"inputs": [],
			"name": "EnforcedPause",
			"type": "error"
		},
		{
			"inputs": [],
			"name": "ExpectedPause",
			"type": "error"
		},
		{
			"inputs": [
				{
					"internalType": "address",
					"name": "account",
					"type": "address"
				},
				{
					"internalType": "uint256",
					"name": "currentNonce",
					"type": "uint256"
				}
			],
			"name": "InvalidAccountNonce",
			"type": "error"
		},
		{
			"inputs": [],
			"name": "InvalidShortString",
			"type": "error"
		},
		{
			"inputs": [
				{
					"internalType": "address",
					"name": "owner",
					"type": "address"
				}
			],
			"name": "OwnableInvalidOwner",
			"type": "error"
		},
		{
			"inputs": [
				{
					"internalType": "address",
					"name": "account",
					"type": "address"
				}
			],
			"name": "OwnableUnauthorizedAccount",
			"type": "error"
		},
		{
			"inputs": [],
			"name": "ReentrancyGuardReentrantCall",
			"type": "error"
		},
		{
			"inputs": [
				{
					"internalType": "string",
					"name": "str",
					"type": "string"
				}
			],
			"name": "StringTooLong",
			"type": "error"
		},
		{
			"anonymous": false,
			"inputs": [
				{
					"indexed": true,
					"internalType": "address",
					"name": "affiliate",
					"type": "address"
				},
				{
					"indexed": false,
					"internalType": "uint256",
					"name": "reward",
					"type": "uint256"
				}
			],
			"name": "AffiliateRewardPaid",
			"type": "event"
		},
		{
			"anonymous": false,
			"inputs": [
				{
					"indexed": true,
					"internalType": "address",
					"name": "recipient",
					"type": "address"
				},
				{
					"indexed": false,
					"internalType": "uint256",
					"name": "amount",
					"type": "uint256"
				}
			],
			"name": "AirdropDistributed",
			"type": "event"
		},
		{
			"anonymous": false,
			"inputs": [],
			"name": "AirdropEnded",
			"type": "event"
		},
		{
			"anonymous": false,
			"inputs": [
				{
					"indexed": false,
					"internalType": "uint256",
					"name": "startTime",
					"type": "uint256"
				},
				{
					"indexed": false,
					"internalType": "uint256",
					"name": "endTime",
					"type": "uint256"
				}
			],
			"name": "AirdropStarted",
			"type": "event"
		},
		{
			"anonymous": false,
			"inputs": [
				{
					"indexed": true,
					"internalType": "address",
					"name": "owner",
					"type": "address"
				},
				{
					"indexed": true,
					"internalType": "address",
					"name": "spender",
					"type": "address"
				},
				{
					"indexed": false,
					"internalType": "uint256",
					"name": "value",
					"type": "uint256"
				}
			],
			"name": "Approval",
			"type": "event"
		},
		{
			"anonymous": false,
			"inputs": [],
			"name": "EIP712DomainChanged",
			"type": "event"
		},
		{
			"anonymous": false,
			"inputs": [
				{
					"indexed": false,
					"internalType": "uint256",
					"name": "amount",
					"type": "uint256"
				}
			],
			"name": "FundsWithdrawn",
			"type": "event"
		},
		{
			"anonymous": false,
			"inputs": [
				{
					"indexed": true,
					"internalType": "address",
					"name": "previousOwner",
					"type": "address"
				},
				{
					"indexed": true,
					"internalType": "address",
					"name": "newOwner",
					"type": "address"
				}
			],
			"name": "OwnershipTransferred",
			"type": "event"
		},
		{
			"anonymous": false,
			"inputs": [
				{
					"indexed": false,
					"internalType": "address",
					"name": "account",
					"type": "address"
				}
			],
			"name": "Paused",
			"type": "event"
		},
		{
			"anonymous": false,
			"inputs": [
				{
					"indexed": true,
					"internalType": "address",
					"name": "buyer",
					"type": "address"
				},
				{
					"indexed": false,
					"internalType": "uint256",
					"name": "amount",
					"type": "uint256"
				},
				{
					"indexed": false,
					"internalType": "string",
					"name": "affiliateCode",
					"type": "string"
				}
			],
			"name": "PreSale",
			"type": "event"
		},
		{
			"anonymous": false,
			"inputs": [],
			"name": "PreSaleCompleted",
			"type": "event"
		},
		{
			"anonymous": false,
			"inputs": [
				{
					"indexed": true,
					"internalType": "address",
					"name": "buyer",
					"type": "address"
				},
				{
					"indexed": false,
					"internalType": "uint256",
					"name": "amount",
					"type": "uint256"
				},
				{
					"indexed": false,
					"internalType": "string",
					"name": "affiliateCode",
					"type": "string"
				}
			],
			"name": "PrivateSale",
			"type": "event"
		},
		{
			"anonymous": false,
			"inputs": [],
			"name": "PrivateSaleCompleted",
			"type": "event"
		},
		{
			"anonymous": false,
			"inputs": [
				{
					"indexed": false,
					"internalType": "uint256",
					"name": "amount",
					"type": "uint256"
				}
			],
			"name": "TeamTokensLocked",
			"type": "event"
		},
		{
			"anonymous": false,
			"inputs": [
				{
					"indexed": false,
					"internalType": "uint256",
					"name": "amount",
					"type": "uint256"
				}
			],
			"name": "TeamTokensReleased",
			"type": "event"
		},
		{
			"anonymous": false,
			"inputs": [
				{
					"indexed": false,
					"internalType": "uint256",
					"name": "amount",
					"type": "uint256"
				}
			],
			"name": "TokensBurned",
			"type": "event"
		},
		{
			"anonymous": false,
			"inputs": [
				{
					"indexed": true,
					"internalType": "address",
					"name": "staker",
					"type": "address"
				},
				{
					"indexed": false,
					"internalType": "uint256",
					"name": "amount",
					"type": "uint256"
				},
				{
					"indexed": false,
					"internalType": "uint256",
					"name": "releaseTime",
					"type": "uint256"
				}
			],
			"name": "TokensStaked",
			"type": "event"
		},
		{
			"anonymous": false,
			"inputs": [
				{
					"indexed": false,
					"internalType": "uint256",
					"name": "amount",
					"type": "uint256"
				}
			],
			"name": "TokensWithdrawn",
			"type": "event"
		},
		{
			"anonymous": false,
			"inputs": [
				{
					"indexed": true,
					"internalType": "address",
					"name": "from",
					"type": "address"
				},
				{
					"indexed": true,
					"internalType": "address",
					"name": "to",
					"type": "address"
				},
				{
					"indexed": false,
					"internalType": "uint256",
					"name": "value",
					"type": "uint256"
				}
			],
			"name": "Transfer",
			"type": "event"
		},
		{
			"anonymous": false,
			"inputs": [
				{
					"indexed": false,
					"internalType": "address",
					"name": "account",
					"type": "address"
				}
			],
			"name": "Unpaused",
			"type": "event"
		},
		{
			"anonymous": false,
			"inputs": [
				{
					"indexed": true,
					"internalType": "address",
					"name": "beneficiary",
					"type": "address"
				},
				{
					"indexed": false,
					"internalType": "uint256",
					"name": "amount",
					"type": "uint256"
				}
			],
			"name": "VestedTokensReleased",
			"type": "event"
		},
		{
			"stateMutability": "payable",
			"type": "fallback"
		},
		{
			"inputs": [],
			"name": "AIRDROP_ALLOCATION",
			"outputs": [
				{
					"internalType": "uint256",
					"name": "",
					"type": "uint256"
				}
			],
			"stateMutability": "view",
			"type": "function"
		},
		{
			"inputs": [],
			"name": "BURN_ALLOCATION",
			"outputs": [
				{
					"internalType": "uint256",
					"name": "",
					"type": "uint256"
				}
			],
			"stateMutability": "view",
			"type": "function"
		},
		{
			"inputs": [],
			"name": "DOMAIN_SEPARATOR",
			"outputs": [
				{
					"internalType": "bytes32",
					"name": "",
					"type": "bytes32"
				}
			],
			"stateMutability": "view",
			"type": "function"
		},
		{
			"inputs": [],
			"name": "MARKET_ALLOCATION",
			"outputs": [
				{
					"internalType": "uint256",
					"name": "",
					"type": "uint256"
				}
			],
			"stateMutability": "view",
			"type": "function"
		},
		{
			"inputs": [],
			"name": "PRESALE_ALLOCATION",
			"outputs": [
				{
					"internalType": "uint256",
					"name": "",
					"type": "uint256"
				}
			],
			"stateMutability": "view",
			"type": "function"
		},
		{
			"inputs": [],
			"name": "PRESALE_TOKENS",
			"outputs": [
				{
					"internalType": "uint256",
					"name": "",
					"type": "uint256"
				}
			],
			"stateMutability": "view",
			"type": "function"
		},
		{
			"inputs": [],
			"name": "PRIVATE_SALE_ALLOCATION",
			"outputs": [
				{
					"internalType": "uint256",
					"name": "",
					"type": "uint256"
				}
			],
			"stateMutability": "view",
			"type": "function"
		},
		{
			"inputs": [],
			"name": "PRIVATE_SALE_TOKENS",
			"outputs": [
				{
					"internalType": "uint256",
					"name": "",
					"type": "uint256"
				}
			],
			"stateMutability": "view",
			"type": "function"
		},
		{
			"inputs": [],
			"name": "STAKE_DURATION",
			"outputs": [
				{
					"internalType": "uint256",
					"name": "",
					"type": "uint256"
				}
			],
			"stateMutability": "view",
			"type": "function"
		},
		{
			"inputs": [],
			"name": "TEAM_ALLOCATION",
			"outputs": [
				{
					"internalType": "uint256",
					"name": "",
					"type": "uint256"
				}
			],
			"stateMutability": "view",
			"type": "function"
		},
		{
			"inputs": [],
			"name": "TOTAL_SUPPLY",
			"outputs": [
				{
					"internalType": "uint256",
					"name": "",
					"type": "uint256"
				}
			],
			"stateMutability": "view",
			"type": "function"
		},
		{
			"inputs": [],
			"name": "VESTING_DURATION",
			"outputs": [
				{
					"internalType": "uint256",
					"name": "",
					"type": "uint256"
				}
			],
			"stateMutability": "view",
			"type": "function"
		},
		{
			"inputs": [
				{
					"internalType": "uint256",
					"name": "amount",
					"type": "uint256"
				}
			],
			"name": "addToPendingBurn",
			"outputs": [],
			"stateMutability": "nonpayable",
			"type": "function"
		},
		{
			"inputs": [
				{
					"internalType": "address",
					"name": "user",
					"type": "address"
				}
			],
			"name": "addToWhitelist",
			"outputs": [],
			"stateMutability": "nonpayable",
			"type": "function"
		},
		{
			"inputs": [
				{
					"internalType": "address[]",
					"name": "users",
					"type": "address[]"
				}
			],
			"name": "addToWhitelistBulk",
			"outputs": [],
			"stateMutability": "nonpayable",
			"type": "function"
		},
		{
			"inputs": [
				{
					"internalType": "address",
					"name": "",
					"type": "address"
				}
			],
			"name": "affiliateCodes",
			"outputs": [
				{
					"internalType": "string",
					"name": "",
					"type": "string"
				}
			],
			"stateMutability": "view",
			"type": "function"
		},
		{
			"inputs": [
				{
					"internalType": "string",
					"name": "",
					"type": "string"
				}
			],
			"name": "affiliateOwners",
			"outputs": [
				{
					"internalType": "address",
					"name": "",
					"type": "address"
				}
			],
			"stateMutability": "view",
			"type": "function"
		},
		{
			"inputs": [],
			"name": "affiliateRewardPercentage",
			"outputs": [
				{
					"internalType": "uint8",
					"name": "",
					"type": "uint8"
				}
			],
			"stateMutability": "view",
			"type": "function"
		},
		{
			"inputs": [
				{
					"internalType": "address",
					"name": "",
					"type": "address"
				}
			],
			"name": "affiliateRewards",
			"outputs": [
				{
					"internalType": "uint256",
					"name": "",
					"type": "uint256"
				}
			],
			"stateMutability": "view",
			"type": "function"
		},
		{
			"inputs": [],
			"name": "airdropActive",
			"outputs": [
				{
					"internalType": "bool",
					"name": "",
					"type": "bool"
				}
			],
			"stateMutability": "view",
			"type": "function"
		},
		{
			"inputs": [
				{
					"internalType": "address",
					"name": "",
					"type": "address"
				}
			],
			"name": "airdropEligible",
			"outputs": [
				{
					"internalType": "bool",
					"name": "",
					"type": "bool"
				}
			],
			"stateMutability": "view",
			"type": "function"
		},
		{
			"inputs": [],
			"name": "airdropEndTime",
			"outputs": [
				{
					"internalType": "uint256",
					"name": "",
					"type": "uint256"
				}
			],
			"stateMutability": "view",
			"type": "function"
		},
		{
			"inputs": [],
			"name": "airdropStartTime",
			"outputs": [
				{
					"internalType": "uint256",
					"name": "",
					"type": "uint256"
				}
			],
			"stateMutability": "view",
			"type": "function"
		},
		{
			"inputs": [
				{
					"internalType": "address",
					"name": "owner",
					"type": "address"
				},
				{
					"internalType": "address",
					"name": "spender",
					"type": "address"
				}
			],
			"name": "allowance",
			"outputs": [
				{
					"internalType": "uint256",
					"name": "",
					"type": "uint256"
				}
			],
			"stateMutability": "view",
			"type": "function"
		},
		{
			"inputs": [
				{
					"internalType": "address",
					"name": "spender",
					"type": "address"
				},
				{
					"internalType": "uint256",
					"name": "value",
					"type": "uint256"
				}
			],
			"name": "approve",
			"outputs": [
				{
					"internalType": "bool",
					"name": "",
					"type": "bool"
				}
			],
			"stateMutability": "nonpayable",
			"type": "function"
		},
		{
			"inputs": [
				{
					"internalType": "address",
					"name": "account",
					"type": "address"
				}
			],
			"name": "balanceOf",
			"outputs": [
				{
					"internalType": "uint256",
					"name": "",
					"type": "uint256"
				}
			],
			"stateMutability": "view",
			"type": "function"
		},
		{
			"inputs": [],
			"name": "burnPendingTokens",
			"outputs": [],
			"stateMutability": "nonpayable",
			"type": "function"
		},
		{
			"inputs": [
				{
					"internalType": "uint256",
					"name": "usdAmount",
					"type": "uint256"
				},
				{
					"internalType": "string",
					"name": "affiliateCode",
					"type": "string"
				}
			],
			"name": "buyTokensPreSale",
			"outputs": [],
			"stateMutability": "payable",
			"type": "function"
		},
		{
			"inputs": [
				{
					"internalType": "uint256",
					"name": "usdAmount",
					"type": "uint256"
				},
				{
					"internalType": "string",
					"name": "affiliateCode",
					"type": "string"
				}
			],
			"name": "buyTokensPrivateSale",
			"outputs": [],
			"stateMutability": "payable",
			"type": "function"
		},
		{
			"inputs": [],
			"name": "completePreSale",
			"outputs": [],
			"stateMutability": "nonpayable",
			"type": "function"
		},
		{
			"inputs": [],
			"name": "completePrivateSale",
			"outputs": [],
			"stateMutability": "nonpayable",
			"type": "function"
		},
		{
			"inputs": [],
			"name": "decimals",
			"outputs": [
				{
					"internalType": "uint8",
					"name": "",
					"type": "uint8"
				}
			],
			"stateMutability": "view",
			"type": "function"
		},
		{
			"inputs": [],
			"name": "eip712Domain",
			"outputs": [
				{
					"internalType": "bytes1",
					"name": "fields",
					"type": "bytes1"
				},
				{
					"internalType": "string",
					"name": "name",
					"type": "string"
				},
				{
					"internalType": "string",
					"name": "version",
					"type": "string"
				},
				{
					"internalType": "uint256",
					"name": "chainId",
					"type": "uint256"
				},
				{
					"internalType": "address",
					"name": "verifyingContract",
					"type": "address"
				},
				{
					"internalType": "bytes32",
					"name": "salt",
					"type": "bytes32"
				},
				{
					"internalType": "uint256[]",
					"name": "extensions",
					"type": "uint256[]"
				}
			],
			"stateMutability": "view",
			"type": "function"
		},
		{
			"inputs": [],
			"name": "emergencyPause",
			"outputs": [],
			"stateMutability": "nonpayable",
			"type": "function"
		},
		{
			"inputs": [
				{
					"internalType": "address",
					"name": "user",
					"type": "address"
				}
			],
			"name": "isWhitelisted",
			"outputs": [
				{
					"internalType": "bool",
					"name": "",
					"type": "bool"
				}
			],
			"stateMutability": "view",
			"type": "function"
		},
		{
			"inputs": [],
			"name": "maxPreSaleAmount",
			"outputs": [
				{
					"internalType": "uint256",
					"name": "",
					"type": "uint256"
				}
			],
			"stateMutability": "view",
			"type": "function"
		},
		{
			"inputs": [],
			"name": "minPreSaleAmount",
			"outputs": [
				{
					"internalType": "uint256",
					"name": "",
					"type": "uint256"
				}
			],
			"stateMutability": "view",
			"type": "function"
		},
		{
			"inputs": [],
			"name": "minPrivateSaleAmount",
			"outputs": [
				{
					"internalType": "uint256",
					"name": "",
					"type": "uint256"
				}
			],
			"stateMutability": "view",
			"type": "function"
		},
		{
			"inputs": [],
			"name": "name",
			"outputs": [
				{
					"internalType": "string",
					"name": "",
					"type": "string"
				}
			],
			"stateMutability": "view",
			"type": "function"
		},
		{
			"inputs": [
				{
					"internalType": "address",
					"name": "owner",
					"type": "address"
				}
			],
			"name": "nonces",
			"outputs": [
				{
					"internalType": "uint256",
					"name": "",
					"type": "uint256"
				}
			],
			"stateMutability": "view",
			"type": "function"
		},
		{
			"inputs": [],
			"name": "owner",
			"outputs": [
				{
					"internalType": "address",
					"name": "",
					"type": "address"
				}
			],
			"stateMutability": "view",
			"type": "function"
		},
		{
			"inputs": [],
			"name": "paused",
			"outputs": [
				{
					"internalType": "bool",
					"name": "",
					"type": "bool"
				}
			],
			"stateMutability": "view",
			"type": "function"
		},
		{
			"inputs": [],
			"name": "pendingBurnTokens",
			"outputs": [
				{
					"internalType": "uint256",
					"name": "",
					"type": "uint256"
				}
			],
			"stateMutability": "view",
			"type": "function"
		},
		{
			"inputs": [
				{
					"internalType": "address",
					"name": "owner",
					"type": "address"
				},
				{
					"internalType": "address",
					"name": "spender",
					"type": "address"
				},
				{
					"internalType": "uint256",
					"name": "value",
					"type": "uint256"
				},
				{
					"internalType": "uint256",
					"name": "deadline",
					"type": "uint256"
				},
				{
					"internalType": "uint8",
					"name": "v",
					"type": "uint8"
				},
				{
					"internalType": "bytes32",
					"name": "r",
					"type": "bytes32"
				},
				{
					"internalType": "bytes32",
					"name": "s",
					"type": "bytes32"
				}
			],
			"name": "permit",
			"outputs": [],
			"stateMutability": "nonpayable",
			"type": "function"
		},
		{
			"inputs": [],
			"name": "preSaleCompleted",
			"outputs": [
				{
					"internalType": "bool",
					"name": "",
					"type": "bool"
				}
			],
			"stateMutability": "view",
			"type": "function"
		},
		{
			"inputs": [],
			"name": "preSaleEndPrice",
			"outputs": [
				{
					"internalType": "uint256",
					"name": "",
					"type": "uint256"
				}
			],
			"stateMutability": "view",
			"type": "function"
		},
		{
			"inputs": [],
			"name": "preSaleEndTime",
			"outputs": [
				{
					"internalType": "uint256",
					"name": "",
					"type": "uint256"
				}
			],
			"stateMutability": "view",
			"type": "function"
		},
		{
			"inputs": [],
			"name": "preSaleSoldTokens",
			"outputs": [
				{
					"internalType": "uint256",
					"name": "",
					"type": "uint256"
				}
			],
			"stateMutability": "view",
			"type": "function"
		},
		{
			"inputs": [],
			"name": "preSaleStartPrice",
			"outputs": [
				{
					"internalType": "uint256",
					"name": "",
					"type": "uint256"
				}
			],
			"stateMutability": "view",
			"type": "function"
		},
		{
			"inputs": [],
			"name": "privateSaleCompleted",
			"outputs": [
				{
					"internalType": "bool",
					"name": "",
					"type": "bool"
				}
			],
			"stateMutability": "view",
			"type": "function"
		},
		{
			"inputs": [],
			"name": "privateSaleEndPrice",
			"outputs": [
				{
					"internalType": "uint256",
					"name": "",
					"type": "uint256"
				}
			],
			"stateMutability": "view",
			"type": "function"
		},
		{
			"inputs": [],
			"name": "privateSaleSoldTokens",
			"outputs": [
				{
					"internalType": "uint256",
					"name": "",
					"type": "uint256"
				}
			],
			"stateMutability": "view",
			"type": "function"
		},
		{
			"inputs": [],
			"name": "privateSaleStartPrice",
			"outputs": [
				{
					"internalType": "uint256",
					"name": "",
					"type": "uint256"
				}
			],
			"stateMutability": "view",
			"type": "function"
		},
		{
			"inputs": [],
			"name": "releaseVestedTokens",
			"outputs": [],
			"stateMutability": "nonpayable",
			"type": "function"
		},
		{
			"inputs": [
				{
					"internalType": "address",
					"name": "user",
					"type": "address"
				}
			],
			"name": "removeFromWhitelist",
			"outputs": [],
			"stateMutability": "nonpayable",
			"type": "function"
		},
		{
			"inputs": [],
			"name": "renounceOwnership",
			"outputs": [],
			"stateMutability": "nonpayable",
			"type": "function"
		},
		{
			"inputs": [
				{
					"internalType": "address",
					"name": "",
					"type": "address"
				}
			],
			"name": "stakeStartTime",
			"outputs": [
				{
					"internalType": "uint256",
					"name": "",
					"type": "uint256"
				}
			],
			"stateMutability": "view",
			"type": "function"
		},
		{
			"inputs": [
				{
					"internalType": "uint256",
					"name": "amount",
					"type": "uint256"
				}
			],
			"name": "stakeTokens",
			"outputs": [],
			"stateMutability": "nonpayable",
			"type": "function"
		},
		{
			"inputs": [
				{
					"internalType": "address",
					"name": "",
					"type": "address"
				}
			],
			"name": "stakes",
			"outputs": [
				{
					"internalType": "uint256",
					"name": "",
					"type": "uint256"
				}
			],
			"stateMutability": "view",
			"type": "function"
		},
		{
			"inputs": [],
			"name": "symbol",
			"outputs": [
				{
					"internalType": "string",
					"name": "",
					"type": "string"
				}
			],
			"stateMutability": "view",
			"type": "function"
		},
		{
			"inputs": [],
			"name": "teamTokenReleaseTime",
			"outputs": [
				{
					"internalType": "uint256",
					"name": "",
					"type": "uint256"
				}
			],
			"stateMutability": "view",
			"type": "function"
		},
		{
			"inputs": [],
			"name": "totalSupply",
			"outputs": [
				{
					"internalType": "uint256",
					"name": "",
					"type": "uint256"
				}
			],
			"stateMutability": "view",
			"type": "function"
		},
		{
			"inputs": [
				{
					"internalType": "address",
					"name": "to",
					"type": "address"
				},
				{
					"internalType": "uint256",
					"name": "value",
					"type": "uint256"
				}
			],
			"name": "transfer",
			"outputs": [
				{
					"internalType": "bool",
					"name": "",
					"type": "bool"
				}
			],
			"stateMutability": "nonpayable",
			"type": "function"
		},
		{
			"inputs": [
				{
					"internalType": "address",
					"name": "from",
					"type": "address"
				},
				{
					"internalType": "address",
					"name": "to",
					"type": "address"
				},
				{
					"internalType": "uint256",
					"name": "value",
					"type": "uint256"
				}
			],
			"name": "transferFrom",
			"outputs": [
				{
					"internalType": "bool",
					"name": "",
					"type": "bool"
				}
			],
			"stateMutability": "nonpayable",
			"type": "function"
		},
		{
			"inputs": [
				{
					"internalType": "address",
					"name": "newOwner",
					"type": "address"
				}
			],
			"name": "transferOwnership",
			"outputs": [],
			"stateMutability": "nonpayable",
			"type": "function"
		},
		{
			"inputs": [],
			"name": "unpause",
			"outputs": [],
			"stateMutability": "nonpayable",
			"type": "function"
		},
		{
			"inputs": [
				{
					"internalType": "address",
					"name": "",
					"type": "address"
				}
			],
			"name": "userPurchaseAmounts",
			"outputs": [
				{
					"internalType": "uint256",
					"name": "",
					"type": "uint256"
				}
			],
			"stateMutability": "view",
			"type": "function"
		},
		{
			"inputs": [
				{
					"internalType": "address",
					"name": "",
					"type": "address"
				}
			],
			"name": "vestingReleaseTime",
			"outputs": [
				{
					"internalType": "uint256",
					"name": "",
					"type": "uint256"
				}
			],
			"stateMutability": "view",
			"type": "function"
		},
		{
			"inputs": [
				{
					"internalType": "address",
					"name": "",
					"type": "address"
				}
			],
			"name": "vestingSchedules",
			"outputs": [
				{
					"internalType": "uint256",
					"name": "totalAmount",
					"type": "uint256"
				},
				{
					"internalType": "uint256",
					"name": "releasedAmount",
					"type": "uint256"
				},
				{
					"internalType": "uint256",
					"name": "startTime",
					"type": "uint256"
				},
				{
					"internalType": "uint256",
					"name": "duration",
					"type": "uint256"
				},
				{
					"internalType": "uint256",
					"name": "interval",
					"type": "uint256"
				}
			],
			"stateMutability": "view",
			"type": "function"
		},
		{
			"inputs": [
				{
					"internalType": "address",
					"name": "",
					"type": "address"
				}
			],
			"name": "whitelist",
			"outputs": [
				{
					"internalType": "bool",
					"name": "",
					"type": "bool"
				}
			],
			"stateMutability": "view",
			"type": "function"
		},
		{
			"inputs": [],
			"name": "withdrawFunds",
			"outputs": [],
			"stateMutability": "nonpayable",
			"type": "function"
		},
		{
			"inputs": [
				{
					"internalType": "uint256",
					"name": "amount",
					"type": "uint256"
				}
			],
			"name": "withdrawTokens",
			"outputs": [],
			"stateMutability": "nonpayable",
			"type": "function"
		},
		{
			"stateMutability": "payable",
			"type": "receive"
		}
	]
}