{
	"data": {
		"bytecode": {
			"linkReferences": {},
			"object": "6101606040526000600f60006101000a81548160ff021916908315150217905550600060115566038d7ea4c680006012556611c37937e08000601355683635c9adc5dea000006014556000601560006101000a81548160ff02191690831515021790555060006016556611c37937e0800060175567016345785d8a000060185568056bc75e2d6310000060195568a2a15d09519be00000601a556000601b60006101000a81548160ff0219169083151502179055506005602460006101000a81548160ff021916908360ff1602179055503480156100dc57600080fd5b506040518060400160405280600881526020017f426574746f6b656e000000000000000000000000000000000000000000000000815250806040518060400160405280600181526020017f3100000000000000000000000000000000000000000000000000000000000000815250336040518060400160405280600881526020017f426574746f6b656e0000000000000000000000000000000000000000000000008152506040518060400160405280600481526020017f424554540000000000000000000000000000000000000000000000000000000081525081600390816101c69190610bd1565b5080600490816101d69190610bd1565b505050600073ffffffffffffffffffffffffffffffffffffffff168173ffffffffffffffffffffffffffffffffffffffff160361024b5760006040517f1e4fbdf70000000000000000000000000000000000000000000000000000000081526004016102429190610ce4565b60405180910390fd5b61025a816103f760201b60201c565b5060016006819055506000600760006101000a81548160ff0219169083151502179055506102926008836104bd60201b90919060201c565b61012081815250506102ae6009826104bd60201b90919060201c565b6101408181525050818051906020012060e08181525050808051906020012061010081815250504660a081815250506102eb61050d60201b60201c565b608081815250503073ffffffffffffffffffffffffffffffffffffffff1660c08173ffffffffffffffffffffffffffffffffffffffff1681525050505050610345306b033b2e3c9fd0803ce800000061056860201b60201c565b61036230336b019d971e4fe8401e740000006105f060201b60201c565b61037e30336a7c13bc4b2c133c560000006105f060201b60201c565b61039a30336a295be96e640669720000006105f060201b60201c565b6301e13380426103aa9190610d2e565b6010819055507fbddc4f8670f571be4409ca0d3264084e2a3f0fce1bce3458bf062822a6dde4406a52b7d2dcc80cd2e40000006040516103ea9190610d71565b60405180910390a1610f6d565b6000600560009054906101000a900473ffffffffffffffffffffffffffffffffffffffff16905081600560006101000a81548173ffffffffffffffffffffffffffffffffffffffff021916908373ffffffffffffffffffffffffffffffffffffffff1602179055508173ffffffffffffffffffffffffffffffffffffffff168173ffffffffffffffffffffffffffffffffffffffff167f8be0079c531659141344cd1fd0a4f28419497f9722a3daafe3b4186f6b6457e060405160405180910390a35050565b60006020835110156104df576104d8836106ea60201b60201c565b9050610507565b826104ef8361075260201b60201c565b60000190816104fe9190610bd1565b5060ff60001b90505b92915050565b60007f8b73c3c69bb8fe3d512ecc4cf759cc79239f7b179b0ffacaa9a75d522b39400f60e05161010051463060405160200161054d959493929190610da5565b60405160208183030381529060405280519060200120905090565b600073ffffffffffffffffffffffffffffffffffffffff168273ffffffffffffffffffffffffffffffffffffffff16036105da5760006040517fec442f050000000000000000000000000000000000000000000000000000000081526004016105d19190610ce4565b60405180910390fd5b6105ec6000838361075c60201b60201c565b5050565b600073ffffffffffffffffffffffffffffffffffffffff168373ffffffffffffffffffffffffffffffffffffffff16036106625760006040517f96c6fd1e0000000000000000000000000000000000000000000000000000000081526004016106599190610ce4565b60405180910390fd5b600073ffffffffffffffffffffffffffffffffffffffff168273ffffffffffffffffffffffffffffffffffffffff16036106d45760006040517fec442f050000000000000000000000000000000000000000000000000000000081526004016106cb9190610ce4565b60405180910390fd5b6106e583838361075c60201b60201c565b505050565b600080829050601f8151111561073757826040517f305a27a900000000000000000000000000000000000000000000000000000000815260040161072e9190610e7d565b60405180910390fd5b80518161074390610ecf565b60001c1760001b915050919050565b6000819050919050565b600073ffffffffffffffffffffffffffffffffffffffff168373ffffffffffffffffffffffffffffffffffffffff16036107ae5780600260008282546107a29190610d2e565b92505081905550610881565b60008060008573ffffffffffffffffffffffffffffffffffffffff1673ffffffffffffffffffffffffffffffffffffffff1681526020019081526020016000205490508181101561083a578381836040517fe450d38c00000000000000000000000000000000000000000000000000000000815260040161083193929190610f36565b60405180910390fd5b8181036000808673ffffffffffffffffffffffffffffffffffffffff1673ffffffffffffffffffffffffffffffffffffffff16815260200190815260200160002081905550505b600073ffffffffffffffffffffffffffffffffffffffff168273ffffffffffffffffffffffffffffffffffffffff16036108ca5780600260008282540392505081905550610917565b806000808473ffffffffffffffffffffffffffffffffffffffff1673ffffffffffffffffffffffffffffffffffffffff168152602001908152602001600020600082825401925050819055505b8173ffffffffffffffffffffffffffffffffffffffff168373ffffffffffffffffffffffffffffffffffffffff167fddf252ad1be2c89b69c2b068fc378daa952ba7f163c4a11628f55a4df523b3ef836040516109749190610d71565b60405180910390a3505050565b600081519050919050565b7f4e487b7100000000000000000000000000000000000000000000000000000000600052604160045260246000fd5b7f4e487b7100000000000000000000000000000000000000000000000000000000600052602260045260246000fd5b60006002820490506001821680610a0257607f821691505b602082108103610a1557610a146109bb565b5b50919050565b60008190508160005260206000209050919050565b60006020601f8301049050919050565b600082821b905092915050565b600060088302610a7d7fffffffffffffffffffffffffffffffffffffffffffffffffffffffffffffffff82610a40565b610a878683610a40565b95508019841693508086168417925050509392505050565b6000819050919050565b6000819050919050565b6000610ace610ac9610ac484610a9f565b610aa9565b610a9f565b9050919050565b6000819050919050565b610ae883610ab3565b610afc610af482610ad5565b848454610a4d565b825550505050565b600090565b610b11610b04565b610b1c818484610adf565b505050565b5b81811015610b4057610b35600082610b09565b600181019050610b22565b5050565b601f821115610b8557610b5681610a1b565b610b5f84610a30565b81016020851015610b6e578190505b610b82610b7a85610a30565b830182610b21565b50505b505050565b600082821c905092915050565b6000610ba860001984600802610b8a565b1980831691505092915050565b6000610bc18383610b97565b9150826002028217905092915050565b610bda82610981565b67ffffffffffffffff811115610bf357610bf261098c565b5b610bfd82546109ea565b610c08828285610b44565b600060209050601f831160018114610c3b5760008415610c29578287015190505b610c338582610bb5565b865550610c9b565b601f198416610c4986610a1b565b60005b82811015610c7157848901518255600182019150602085019450602081019050610c4c565b86831015610c8e5784890151610c8a601f891682610b97565b8355505b6001600288020188555050505b505050505050565b600073ffffffffffffffffffffffffffffffffffffffff82169050919050565b6000610cce82610ca3565b9050919050565b610cde81610cc3565b82525050565b6000602082019050610cf96000830184610cd5565b92915050565b7f4e487b7100000000000000000000000000000000000000000000000000000000600052601160045260246000fd5b6000610d3982610a9f565b9150610d4483610a9f565b9250828201905080821115610d5c57610d5b610cff565b5b92915050565b610d6b81610a9f565b82525050565b6000602082019050610d866000830184610d62565b92915050565b6000819050919050565b610d9f81610d8c565b82525050565b600060a082019050610dba6000830188610d96565b610dc76020830187610d96565b610dd46040830186610d96565b610de16060830185610d62565b610dee6080830184610cd5565b9695505050505050565b600082825260208201905092915050565b60005b83811015610e27578082015181840152602081019050610e0c565b60008484015250505050565b6000601f19601f8301169050919050565b6000610e4f82610981565b610e598185610df8565b9350610e69818560208601610e09565b610e7281610e33565b840191505092915050565b60006020820190508181036000830152610e978184610e44565b905092915050565b600081519050919050565b6000819050602082019050919050565b6000610ec68251610d8c565b80915050919050565b6000610eda82610e9f565b82610ee484610eaa565b9050610eef81610eba565b92506020821015610f2f57610f2a7fffffffffffffffffffffffffffffffffffffffffffffffffffffffffffffffff83602003600802610a40565b831692505b5050919050565b6000606082019050610f4b6000830186610cd5565b610f586020830185610d62565b610f656040830184610d62565b949350505050565b60805160a05160c05160e051610100516101205161014051615610610fc760003960006131d1015260006131960152600061379e0152600061377d01526000612d8101526000612dd701526000612e0001526156106000f3fe6080604052600436106104145760003560e01c8063715018a61161021e578063ab39f08a11610123578063cb4b4ff9116100ab578063dd62ed3e1161007a578063dd62ed3e14611007578063f2fde38b14611044578063fd5661b61461106d578063fd99cbed14611084578063fdb20ccb146110af57610454565b8063cb4b4ff914610f5d578063cce29ea714610f88578063d50234c414610fb3578063d505accf14610fde57610454565b8063b68ed11f116100f2578063b68ed11f14610e74578063bda9563314610e9f578063bde7a37a14610eca578063c7b5a48c14610ef5578063c7ba026614610f2057610454565b8063ab39f08a14610dc5578063b0e6863014610e02578063b144662d14610e2d578063b31c2f7214610e4957610454565b8063902d55a5116101a65780639b19251a116101755780639b19251a14610cb85780639e54585f14610cf5578063a290eb2d14610d32578063a6c3e53114610d5d578063a9059cbb14610d8857610454565b8063902d55a514610c0c578063920168b314610c3757806395d89b4114610c625780639843eae314610c8d57610454565b80637ecebe00116101ed5780637ecebe0014610b1d578063806019c114610b5a57806384b0196e14610b855780638da5cb5b14610bb65780638f7713ff14610be157610454565b8063715018a614610a875780637343b05c14610a9e5780637547c7a314610ac957806378d9169c14610af257610454565b806350195f81116103245780635fb3b944116102ac5780636ad7ed371161027b5780636ad7ed371461099e5780636afb630a146109c95780636b0651db146109f45780636ddb627c14610a1f57806370a0823114610a4a57610454565b80635fb3b944146108f4578063644fe3ae1461091f5780636705a003146109365780636985e6d81461096157610454565b806359fa61a0116102f357806359fa61a01461080d5780635b8841601461084a5780635c975abb146108755780635d5f26fe146108a05780635e39922a146108dd57610454565b806350195f811461079857806351858e27146107b457806354dd1da4146107cb578063598cf195146107e257610454565b80632b1cbc38116103a75780633644e515116103765780633644e515146106d55780633f4ba83a1461070057806340306fb61461071757806343248084146107425780634cfc4d301461076d57610454565b80632b1cbc3814610619578063313ce56714610656578063315a095d1461068157806334d70532146106aa57610454565b806318160ddd116103e357806318160ddd1461057157806323b872dd1461059c57806324600fc3146105d9578063297155c9146105f057610454565b806303f0cc641461048f57806306fdde03146104cc578063095ea7b3146104f757806316934fc41461053457610454565b36610454576040517f08c379a000000000000000000000000000000000000000000000000000000000815260040161044b90613cc7565b60405180910390fd5b6040517f08c379a000000000000000000000000000000000000000000000000000000000815260040161048690613cc7565b60405180910390fd5b34801561049b57600080fd5b506104b660048036038101906104b19190613d59565b6110f0565b6040516104c39190613e05565b60405180910390f35b3480156104d857600080fd5b506104e1611190565b6040516104ee9190613e05565b60405180910390f35b34801561050357600080fd5b5061051e60048036038101906105199190613e5d565b611222565b60405161052b9190613eb8565b60405180910390f35b34801561054057600080fd5b5061055b60048036038101906105569190613d59565b611245565b6040516105689190613ee2565b60405180910390f35b34801561057d57600080fd5b5061058661125d565b6040516105939190613ee2565b60405180910390f35b3480156105a857600080fd5b506105c360048036038101906105be9190613efd565b611267565b6040516105d09190613eb8565b60405180910390f35b3480156105e557600080fd5b506105ee611296565b005b3480156105fc57600080fd5b5061061760048036038101906106129190613f50565b6113ad565b005b34801561062557600080fd5b50610640600480360381019061063b9190613d59565b61141c565b60405161064d9190613ee2565b60405180910390f35b34801561066257600080fd5b5061066b611433565b6040516106789190613f99565b60405180910390f35b34801561068d57600080fd5b506106a860048036038101906106a39190613f50565b61143c565b005b3480156106b657600080fd5b506106bf6114b4565b6040516106cc9190613ee2565b60405180910390f35b3480156106e157600080fd5b506106ea6114ba565b6040516106f79190613fcd565b60405180910390f35b34801561070c57600080fd5b506107156114c9565b005b34801561072357600080fd5b5061072c6114db565b6040516107399190613ee2565b60405180910390f35b34801561074e57600080fd5b506107576114e1565b6040516107649190613eb8565b60405180910390f35b34801561077957600080fd5b506107826114f4565b60405161078f9190613ee2565b60405180910390f35b6107b260048036038101906107ad919061404d565b6114fb565b005b3480156107c057600080fd5b506107c96118fc565b005b3480156107d757600080fd5b506107e061190e565b005b3480156107ee57600080fd5b506107f7611b54565b6040516108049190613ee2565b60405180910390f35b34801561081957600080fd5b50610834600480360381019061082f91906141dd565b611b63565b6040516108419190614235565b60405180910390f35b34801561085657600080fd5b5061085f611bac565b60405161086c9190613ee2565b60405180910390f35b34801561088157600080fd5b5061088a611bbc565b6040516108979190613eb8565b60405180910390f35b3480156108ac57600080fd5b506108c760048036038101906108c29190613d59565b611bd3565b6040516108d49190613ee2565b60405180910390f35b3480156108e957600080fd5b506108f2611beb565b005b34801561090057600080fd5b50610909611c93565b6040516109169190613ee2565b60405180910390f35b34801561092b57600080fd5b50610934611c99565b005b34801561094257600080fd5b5061094b611d35565b6040516109589190613ee2565b60405180910390f35b34801561096d57600080fd5b5061098860048036038101906109839190613d59565b611d3b565b6040516109959190613ee2565b60405180910390f35b3480156109aa57600080fd5b506109b3611d53565b6040516109c09190613ee2565b60405180910390f35b3480156109d557600080fd5b506109de611d59565b6040516109eb9190613ee2565b60405180910390f35b348015610a0057600080fd5b50610a09611d61565b604051610a169190613ee2565b60405180910390f35b348015610a2b57600080fd5b50610a34611d70565b604051610a419190613ee2565b60405180910390f35b348015610a5657600080fd5b50610a716004803603810190610a6c9190613d59565b611d7f565b604051610a7e9190613ee2565b60405180910390f35b348015610a9357600080fd5b50610a9c611dc7565b005b348015610aaa57600080fd5b50610ab3611ddb565b604051610ac09190613eb8565b60405180910390f35b348015610ad557600080fd5b50610af06004803603810190610aeb9190613f50565b611dee565b005b348015610afe57600080fd5b50610b0761207b565b604051610b149190613ee2565b60405180910390f35b348015610b2957600080fd5b50610b446004803603810190610b3f9190613d59565b612085565b604051610b519190613ee2565b60405180910390f35b348015610b6657600080fd5b50610b6f612097565b604051610b7c9190613ee2565b60405180910390f35b348015610b9157600080fd5b50610b9a61209d565b604051610bad9796959493929190614349565b60405180910390f35b348015610bc257600080fd5b50610bcb612147565b604051610bd89190614235565b60405180910390f35b348015610bed57600080fd5b50610bf6612171565b604051610c039190613ee2565b60405180910390f35b348015610c1857600080fd5b50610c21612177565b604051610c2e9190613ee2565b60405180910390f35b348015610c4357600080fd5b50610c4c612187565b604051610c599190613ee2565b60405180910390f35b348015610c6e57600080fd5b50610c7761218d565b604051610c849190613e05565b60405180910390f35b348015610c9957600080fd5b50610ca261221f565b604051610caf9190613eb8565b60405180910390f35b348015610cc457600080fd5b50610cdf6004803603810190610cda9190613d59565b612232565b604051610cec9190613eb8565b60405180910390f35b348015610d0157600080fd5b50610d1c6004803603810190610d179190613d59565b612252565b604051610d299190613ee2565b60405180910390f35b348015610d3e57600080fd5b50610d4761229b565b604051610d549190613ee2565b60405180910390f35b348015610d6957600080fd5b50610d726122a5565b604051610d7f9190613ee2565b60405180910390f35b348015610d9457600080fd5b50610daf6004803603810190610daa9190613e5d565b6122b4565b604051610dbc9190613eb8565b60405180910390f35b348015610dd157600080fd5b50610dec6004803603810190610de79190613d59565b6122d7565b604051610df99190613eb8565b60405180910390f35b348015610e0e57600080fd5b50610e176122f7565b604051610e249190613ee2565b60405180910390f35b610e476004803603810190610e42919061404d565b6122fd565b005b348015610e5557600080fd5b50610e5e612759565b604051610e6b9190613ee2565b60405180910390f35b348015610e8057600080fd5b50610e8961275f565b604051610e969190613ee2565b60405180910390f35b348015610eab57600080fd5b50610eb4612765565b604051610ec19190613ee2565b60405180910390f35b348015610ed657600080fd5b50610edf61276b565b604051610eec9190613ee2565b60405180910390f35b348015610f0157600080fd5b50610f0a612771565b604051610f179190613ee2565b60405180910390f35b348015610f2c57600080fd5b50610f476004803603810190610f429190613d59565b612780565b604051610f549190613ee2565b60405180910390f35b348015610f6957600080fd5b50610f72612798565b604051610f7f9190613ee2565b60405180910390f35b348015610f9457600080fd5b50610f9d6127a7565b604051610faa9190613ee2565b60405180910390f35b348015610fbf57600080fd5b50610fc86127ad565b604051610fd59190613f99565b60405180910390f35b348015610fea57600080fd5b5061100560048036038101906110009190614425565b6127c0565b005b34801561101357600080fd5b5061102e600480360381019061102991906144c7565b612908565b60405161103b9190613ee2565b60405180910390f35b34801561105057600080fd5b5061106b60048036038101906110669190613d59565b61298f565b005b34801561107957600080fd5b50611082612a15565b005b34801561109057600080fd5b50611099612ab6565b6040516110a69190613ee2565b60405180910390f35b3480156110bb57600080fd5b506110d660048036038101906110d19190613d59565b612ac5565b6040516110e7959493929190614507565b60405180910390f35b6022602052806000526040600020600091509050805461110f90614589565b80601f016020809104026020016040519081016040528092919081815260200182805461113b90614589565b80156111885780601f1061115d57610100808354040283529160200191611188565b820191906000526020600020905b81548152906001019060200180831161116b57829003601f168201915b505050505081565b60606003805461119f90614589565b80601f01602080910402602001604051908101604052809291908181526020018280546111cb90614589565b80156112185780601f106111ed57610100808354040283529160200191611218565b820191906000526020600020905b8154815290600101906020018083116111fb57829003601f168201915b5050505050905090565b60008061122d612afb565b905061123a818585612b03565b600191505092915050565b601e6020528060005260406000206000915090505481565b6000600254905090565b600080611272612afb565b905061127f858285612b15565b61128a858585612ba9565b60019150509392505050565b61129e612c9d565b6112a6612d24565b6000479050600081116112ee576040517f08c379a00000000000000000000000000000000000000000000000000000000081526004016112e590614606565b60405180910390fd5b60006112f8612147565b73ffffffffffffffffffffffffffffffffffffffff168260405161131b90614657565b60006040518083038185875af1925050503d8060008114611358576040519150601f19603f3d011682016040523d82523d6000602084013e61135d565b606091505b50509050806113a1576040517f08c379a0000000000000000000000000000000000000000000000000000000008152600401611398906146b8565b60405180910390fd5b50506113ab612d73565b565b6113b5612c9d565b806113bf30611d7f565b1015611400576040517f08c379a00000000000000000000000000000000000000000000000000000000081526004016113f79061474a565b60405180910390fd5b80600b60008282546114129190614799565b9250508190555050565b602080528060005260406000206000915090505481565b60006012905090565b611444612c9d565b61144c612d24565b8061145630611d7f565b1015611497576040517f08c379a000000000000000000000000000000000000000000000000000000000815260040161148e90614819565b60405180910390fd5b6114a9306114a3612147565b83612ba9565b6114b1612d73565b50565b60195481565b60006114c4612d7d565b905090565b6114d1612c9d565b6114d9612e34565b565b600c5481565b601b60009054906101000a900460ff1681565b62ed4e0081565b611503612d24565b61150b612e97565b602660003373ffffffffffffffffffffffffffffffffffffffff1673ffffffffffffffffffffffffffffffffffffffff16815260200190815260200160002060009054906101000a900460ff16611597576040517f08c379a000000000000000000000000000000000000000000000000000000000815260040161158e90614885565b60405180910390fd5b601560009054906101000a900460ff16156115e7576040517f08c379a00000000000000000000000000000000000000000000000000000000081526004016115de906148f1565b60405180910390fd5b60145483101561162c576040517f08c379a000000000000000000000000000000000000000000000000000000000815260040161162390614983565b60405180910390fd5b6a295be96e640669720000006011541061167b576040517f08c379a0000000000000000000000000000000000000000000000000000000008152600401611672906149ef565b60405180910390fd5b600061168684612ee1565b9050806011600082825461169a9190614799565b925050819055506a295be96e6406697200000060115411156116f1576040517f08c379a00000000000000000000000000000000000000000000000000000000081526004016116e890614a5b565b60405180910390fd5b6116fc303383612ba9565b600083839050111561189c5760006023848460405161171c929190614aab565b908152602001604051809103902060009054906101000a900473ffffffffffffffffffffffffffffffffffffffff169050600073ffffffffffffffffffffffffffffffffffffffff168173ffffffffffffffffffffffffffffffffffffffff16036117bc576040517f08c379a00000000000000000000000000000000000000000000000000000000081526004016117b390614b10565b60405180910390fd5b60006064602460009054906101000a900460ff1660ff16846117de9190614b30565b6117e89190614ba1565b905080602560008473ffffffffffffffffffffffffffffffffffffffff1673ffffffffffffffffffffffffffffffffffffffff16815260200190815260200160002060008282546118399190614799565b9250508190555061184b308383612ba9565b8173ffffffffffffffffffffffffffffffffffffffff167f9b23ec14d4683ac0abe619d3ec67f86c8957e134eb62bdff7044e5072ba02b16826040516118919190613ee2565b60405180910390a250505b3373ffffffffffffffffffffffffffffffffffffffff167f25dd73b03754ef2fb74e5ae3ba497df2dd6275f098501ba76082ea0a1a1301788285856040516118e693929190614bff565b60405180910390a2506118f7612d73565b505050565b611904612c9d565b61190c612f99565b565b611916612d24565b61191e612e97565b6000601e60003373ffffffffffffffffffffffffffffffffffffffff1673ffffffffffffffffffffffffffffffffffffffff16815260200190815260200160002054116119a0576040517f08c379a000000000000000000000000000000000000000000000000000000000815260040161199790614c7d565b60405180910390fd5b602060003373ffffffffffffffffffffffffffffffffffffffff1673ffffffffffffffffffffffffffffffffffffffff16815260200190815260200160002054421015611a22576040517f08c379a0000000000000000000000000000000000000000000000000000000008152600401611a1990614d0f565b60405180910390fd5b6000601e60003373ffffffffffffffffffffffffffffffffffffffff1673ffffffffffffffffffffffffffffffffffffffff1681526020019081526020016000205490506000601e60003373ffffffffffffffffffffffffffffffffffffffff1673ffffffffffffffffffffffffffffffffffffffff168152602001908152602001600020819055506000602060003373ffffffffffffffffffffffffffffffffffffffff1673ffffffffffffffffffffffffffffffffffffffff16815260200190815260200160002081905550611afb303383612ba9565b3373ffffffffffffffffffffffffffffffffffffffff167f6bc5063c7239b75c8bf325a2a2238f726fada322163996bb6c93d5594fb119f082604051611b419190613ee2565b60405180910390a250611b52612d73565b565b6a7c13bc4b2c133c5600000081565b6023818051602081018201805184825260208301602085012081835280955050505050506000915054906101000a900473ffffffffffffffffffffffffffffffffffffffff1681565b6b019d971e4fe8401e7400000081565b6000600760009054906101000a900460ff16905090565b60216020528060005260406000206000915090505481565b611bf3612c9d565b601b60009054906101000a900460ff1615611c43576040517f08c379a0000000000000000000000000000000000000000000000000000000008152600401611c3a90614d7b565b60405180910390fd5b6001601b60006101000a81548160ff02191690831515021790555042601c819055507f1e3e27630243df12c61f4fd689e14b5388b09e8da13877de9378fb84e99c42fa60405160405180910390a1565b60115481565b611ca1612c9d565b6000600b5411611ce6576040517f08c379a0000000000000000000000000000000000000000000000000000000008152600401611cdd90614de7565b60405180910390fd5b611cf230600b54612ffc565b7f6ef4855b666dcc7884561072e4358b28dfe01feb1b7f4dcebc00e62d50394ac7600b54604051611d239190613ee2565b60405180910390a16000600b81905550565b60105481565b601f6020528060005260406000206000915090505481565b600b5481565b6301e1338081565b6a295be96e6406697200000081565b6a7c13bc4b2c133c5600000081565b60008060008373ffffffffffffffffffffffffffffffffffffffff1673ffffffffffffffffffffffffffffffffffffffff168152602001908152602001600020549050919050565b611dcf612c9d565b611dd9600061307e565b565b601560009054906101000a900460ff1681565b611df6612d24565b611dfe612e97565b60008111611e41576040517f08c379a0000000000000000000000000000000000000000000000000000000008152600401611e3890614e79565b60405180910390fd5b80611e4b33611d7f565b1015611e8c576040517f08c379a0000000000000000000000000000000000000000000000000000000008152600401611e8390614ee5565b60405180910390fd5b601b60009054906101000a900460ff16611edb576040517f08c379a0000000000000000000000000000000000000000000000000000000008152600401611ed290614f77565b60405180910390fd5b611ee6333083612ba9565b80601e60003373ffffffffffffffffffffffffffffffffffffffff1673ffffffffffffffffffffffffffffffffffffffff1681526020019081526020016000206000828254611f359190614799565b9250508190555042601f60003373ffffffffffffffffffffffffffffffffffffffff1673ffffffffffffffffffffffffffffffffffffffff1681526020019081526020016000208190555062ed4e006301e1338042611f949190614799565b611f9e9190614799565b602060003373ffffffffffffffffffffffffffffffffffffffff1673ffffffffffffffffffffffffffffffffffffffff168152602001908152602001600020819055503373ffffffffffffffffffffffffffffffffffffffff167fdd2a19c3bdd089cbe77c04f5655f83de0504d6140d12c8667646f55d0557c4dc82602060003373ffffffffffffffffffffffffffffffffffffffff1673ffffffffffffffffffffffffffffffffffffffff16815260200190815260200160002054604051612068929190614f97565b60405180910390a2612078612d73565b50565b6000601154905090565b600061209082613144565b9050919050565b600d5481565b6000606080600080600060606120b161318d565b6120b96131c8565b46306000801b600067ffffffffffffffff8111156120da576120d96140b2565b5b6040519080825280602002602001820160405280156121085781602001602082028036833780820191505090505b507f0f00000000000000000000000000000000000000000000000000000000000000959493929190965096509650965096509650965090919293949596565b6000600560009054906101000a900473ffffffffffffffffffffffffffffffffffffffff16905090565b60185481565b6b033b2e3c9fd0803ce800000081565b60175481565b60606004805461219c90614589565b80601f01602080910402602001604051908101604052809291908181526020018280546121c890614589565b80156122155780601f106121ea57610100808354040283529160200191612215565b820191906000526020600020905b8154815290600101906020018083116121f857829003601f168201915b5050505050905090565b600f60009054906101000a900460ff1681565b60266020528060005260406000206000915054906101000a900460ff1681565b6000602560008373ffffffffffffffffffffffffffffffffffffffff1673ffffffffffffffffffffffffffffffffffffffff168152602001908152602001600020549050919050565b6000601654905090565b6a295be96e6406697200000081565b6000806122bf612afb565b90506122cc818585612ba9565b600191505092915050565b600e6020528060005260406000206000915054906101000a900460ff1681565b60125481565b612305612d24565b61230d612e97565b601b60009054906101000a900460ff161561235d576040517f08c379a00000000000000000000000000000000000000000000000000000000081526004016123549061500c565b60405180910390fd5b60195483101580156123715750601a548311155b6123b0576040517f08c379a00000000000000000000000000000000000000000000000000000000081526004016123a790615078565b60405180910390fd5b6a7c13bc4b2c133c56000000601654106123ff576040517f08c379a00000000000000000000000000000000000000000000000000000000081526004016123f6906150e4565b60405180910390fd5b600061240a84613203565b9050600084602160003373ffffffffffffffffffffffffffffffffffffffff1673ffffffffffffffffffffffffffffffffffffffff168152602001908152602001600020546124599190614799565b9050601a548111156124a0576040517f08c379a000000000000000000000000000000000000000000000000000000000815260040161249790615176565b60405180910390fd5b80602160003373ffffffffffffffffffffffffffffffffffffffff1673ffffffffffffffffffffffffffffffffffffffff1681526020019081526020016000208190555081601660008282546124f69190614799565b925050819055506a7c13bc4b2c133c56000000601654111561254d576040517f08c379a0000000000000000000000000000000000000000000000000000000008152600401612544906151e2565b60405180910390fd5b612558303384612ba9565b60008484905011156126f857600060238585604051612578929190614aab565b908152602001604051809103902060009054906101000a900473ffffffffffffffffffffffffffffffffffffffff169050600073ffffffffffffffffffffffffffffffffffffffff168173ffffffffffffffffffffffffffffffffffffffff1603612618576040517f08c379a000000000000000000000000000000000000000000000000000000000815260040161260f90614b10565b60405180910390fd5b60006064602460009054906101000a900460ff1660ff168561263a9190614b30565b6126449190614ba1565b905080602560008473ffffffffffffffffffffffffffffffffffffffff1673ffffffffffffffffffffffffffffffffffffffff16815260200190815260200160002060008282546126959190614799565b925050819055506126a7308383612ba9565b8173ffffffffffffffffffffffffffffffffffffffff167f9b23ec14d4683ac0abe619d3ec67f86c8957e134eb62bdff7044e5072ba02b16826040516126ed9190613ee2565b60405180910390a250505b3373ffffffffffffffffffffffffffffffffffffffff167f3607c497e362683edfec3f75d9cf47e46ad5d2febcdb84bc5f7c1264ee9d9d7883868660405161274293929190614bff565b60405180910390a25050612754612d73565b505050565b601a5481565b60165481565b60135481565b60145481565b6a7c13bc4b2c133c5600000081565b60256020528060005260406000206000915090505481565b6a295be96e6406697200000081565b601c5481565b602460009054906101000a900460ff1681565b8342111561280557836040517f627913020000000000000000000000000000000000000000000000000000000081526004016127fc9190613ee2565b60405180910390fd5b60007f6e71edae12b1b97f4d1f60370fef10105fa2faae0126114a169c64845d6126c98888886128348c6132bb565b8960405160200161284a96959493929190615202565b604051602081830303815290604052805190602001209050600061286d82613312565b9050600061287d8287878761332c565b90508973ffffffffffffffffffffffffffffffffffffffff168173ffffffffffffffffffffffffffffffffffffffff16146128f157808a6040517f4b800e460000000000000000000000000000000000000000000000000000000081526004016128e8929190615263565b60405180910390fd5b6128fc8a8a8a612b03565b50505050505050505050565b6000600160008473ffffffffffffffffffffffffffffffffffffffff1673ffffffffffffffffffffffffffffffffffffffff16815260200190815260200160002060008373ffffffffffffffffffffffffffffffffffffffff1673ffffffffffffffffffffffffffffffffffffffff16815260200190815260200160002054905092915050565b612997612c9d565b600073ffffffffffffffffffffffffffffffffffffffff168173ffffffffffffffffffffffffffffffffffffffff1603612a095760006040517f1e4fbdf7000000000000000000000000000000000000000000000000000000008152600401612a009190614235565b60405180910390fd5b612a128161307e565b50565b612a1d612c9d565b601560009054906101000a900460ff1615612a6d576040517f08c379a0000000000000000000000000000000000000000000000000000000008152600401612a64906152d8565b60405180910390fd5b6001601560006101000a81548160ff0219169083151502179055507f12fcd070c773929ce838b1791e3a5b8a7630d567bada259980130258a27dfe5860405160405180910390a1565b6a52b7d2dcc80cd2e400000081565b601d6020528060005260406000206000915090508060000154908060010154908060020154908060030154908060040154905085565b600033905090565b612b10838383600161335c565b505050565b6000612b218484612908565b90507fffffffffffffffffffffffffffffffffffffffffffffffffffffffffffffffff8114612ba35781811015612b93578281836040517ffb8f41b2000000000000000000000000000000000000000000000000000000008152600401612b8a939291906152f8565b60405180910390fd5b612ba28484848403600061335c565b5b50505050565b600073ffffffffffffffffffffffffffffffffffffffff168373ffffffffffffffffffffffffffffffffffffffff1603612c1b5760006040517f96c6fd1e000000000000000000000000000000000000000000000000000000008152600401612c129190614235565b60405180910390fd5b600073ffffffffffffffffffffffffffffffffffffffff168273ffffffffffffffffffffffffffffffffffffffff1603612c8d5760006040517fec442f05000000000000000000000000000000000000000000000000000000008152600401612c849190614235565b60405180910390fd5b612c98838383613533565b505050565b612ca5612afb565b73ffffffffffffffffffffffffffffffffffffffff16612cc3612147565b73ffffffffffffffffffffffffffffffffffffffff1614612d2257612ce6612afb565b6040517f118cdaa7000000000000000000000000000000000000000000000000000000008152600401612d199190614235565b60405180910390fd5b565b600260065403612d69576040517f08c379a0000000000000000000000000000000000000000000000000000000008152600401612d609061537b565b60405180910390fd5b6002600681905550565b6001600681905550565b60007f000000000000000000000000000000000000000000000000000000000000000073ffffffffffffffffffffffffffffffffffffffff163073ffffffffffffffffffffffffffffffffffffffff16148015612df957507f000000000000000000000000000000000000000000000000000000000000000046145b15612e26577f00000000000000000000000000000000000000000000000000000000000000009050612e31565b612e2e613758565b90505b90565b612e3c6137ee565b6000600760006101000a81548160ff0219169083151502179055507f5db9ee0a495bf2e6ff9c91a7834c1ba4fdd244a5e8aa4e537bd38aeae4b073aa612e80612afb565b604051612e8d9190614235565b60405180910390a1565b612e9f611bbc565b15612edf576040517f08c379a0000000000000000000000000000000000000000000000000000000008152600401612ed6906153e7565b60405180910390fd5b565b600080601254601354612ef49190615407565b905060006a295be96e6406697200000060115483612f129190614b30565b612f1c9190614ba1565b601254612f299190614799565b90506012548110158015612f3f57506013548111155b612f7e576040517f08c379a0000000000000000000000000000000000000000000000000000000008152600401612f7590615487565b60405180910390fd5b60008185612f8c9190614ba1565b9050809350505050919050565b612fa1612e97565b6001600760006101000a81548160ff0219169083151502179055507f62e78cea01bee320cd4e420270b5ea74000d11b0c9f74754ebdbfc544b05a258612fe5612afb565b604051612ff29190614235565b60405180910390a1565b600073ffffffffffffffffffffffffffffffffffffffff168273ffffffffffffffffffffffffffffffffffffffff160361306e5760006040517f96c6fd1e0000000000000000000000000000000000000000000000000000000081526004016130659190614235565b60405180910390fd5b61307a82600083613533565b5050565b6000600560009054906101000a900473ffffffffffffffffffffffffffffffffffffffff16905081600560006101000a81548173ffffffffffffffffffffffffffffffffffffffff021916908373ffffffffffffffffffffffffffffffffffffffff1602179055508173ffffffffffffffffffffffffffffffffffffffff168173ffffffffffffffffffffffffffffffffffffffff167f8be0079c531659141344cd1fd0a4f28419497f9722a3daafe3b4186f6b6457e060405160405180910390a35050565b6000600a60008373ffffffffffffffffffffffffffffffffffffffff1673ffffffffffffffffffffffffffffffffffffffff168152602001908152602001600020549050919050565b60606131c360087f000000000000000000000000000000000000000000000000000000000000000061383790919063ffffffff16565b905090565b60606131fe60097f000000000000000000000000000000000000000000000000000000000000000061383790919063ffffffff16565b905090565b6000806017546018546132169190615407565b905060006a7c13bc4b2c133c56000000601654836132349190614b30565b61323e9190614ba1565b60175461324b9190614799565b9050601754811015801561326157506018548111155b6132a0576040517f08c379a000000000000000000000000000000000000000000000000000000000815260040161329790615487565b60405180910390fd5b600081856132ae9190614ba1565b9050809350505050919050565b6000600a60008373ffffffffffffffffffffffffffffffffffffffff1673ffffffffffffffffffffffffffffffffffffffff1681526020019081526020016000206000815480929190600101919050559050919050565b600061332561331f612d7d565b836138e7565b9050919050565b60008060008061333e88888888613928565b92509250925061334e8282613a1c565b829350505050949350505050565b600073ffffffffffffffffffffffffffffffffffffffff168473ffffffffffffffffffffffffffffffffffffffff16036133ce5760006040517fe602df050000000000000000000000000000000000000000000000000000000081526004016133c59190614235565b60405180910390fd5b600073ffffffffffffffffffffffffffffffffffffffff168373ffffffffffffffffffffffffffffffffffffffff16036134405760006040517f94280d620000000000000000000000000000000000000000000000000000000081526004016134379190614235565b60405180910390fd5b81600160008673ffffffffffffffffffffffffffffffffffffffff1673ffffffffffffffffffffffffffffffffffffffff16815260200190815260200160002060008573ffffffffffffffffffffffffffffffffffffffff1673ffffffffffffffffffffffffffffffffffffffff16815260200190815260200160002081905550801561352d578273ffffffffffffffffffffffffffffffffffffffff168473ffffffffffffffffffffffffffffffffffffffff167f8c5be1e5ebec7d5bd14f71427d1e84f3dd0314c0f7b2291e5b200ac8c7c3b925846040516135249190613ee2565b60405180910390a35b50505050565b600073ffffffffffffffffffffffffffffffffffffffff168373ffffffffffffffffffffffffffffffffffffffff16036135855780600260008282546135799190614799565b92505081905550613658565b60008060008573ffffffffffffffffffffffffffffffffffffffff1673ffffffffffffffffffffffffffffffffffffffff16815260200190815260200160002054905081811015613611578381836040517fe450d38c000000000000000000000000000000000000000000000000000000008152600401613608939291906152f8565b60405180910390fd5b8181036000808673ffffffffffffffffffffffffffffffffffffffff1673ffffffffffffffffffffffffffffffffffffffff16815260200190815260200160002081905550505b600073ffffffffffffffffffffffffffffffffffffffff168273ffffffffffffffffffffffffffffffffffffffff16036136a157806002600082825403925050819055506136ee565b806000808473ffffffffffffffffffffffffffffffffffffffff1673ffffffffffffffffffffffffffffffffffffffff168152602001908152602001600020600082825401925050819055505b8173ffffffffffffffffffffffffffffffffffffffff168373ffffffffffffffffffffffffffffffffffffffff167fddf252ad1be2c89b69c2b068fc378daa952ba7f163c4a11628f55a4df523b3ef8360405161374b9190613ee2565b60405180910390a3505050565b60007f8b73c3c69bb8fe3d512ecc4cf759cc79239f7b179b0ffacaa9a75d522b39400f7f00000000000000000000000000000000000000000000000000000000000000007f000000000000000000000000000000000000000000000000000000000000000046306040516020016137d39594939291906154a7565b60405160208183030381529060405280519060200120905090565b6137f6611bbc565b613835576040517f08c379a000000000000000000000000000000000000000000000000000000000815260040161382c90615546565b60405180910390fd5b565b606060ff60001b83146138545761384d83613b80565b90506138e1565b81805461386090614589565b80601f016020809104026020016040519081016040528092919081815260200182805461388c90614589565b80156138d95780601f106138ae576101008083540402835291602001916138d9565b820191906000526020600020905b8154815290600101906020018083116138bc57829003601f168201915b505050505090505b92915050565b60006040517f190100000000000000000000000000000000000000000000000000000000000081528360028201528260228201526042812091505092915050565b60008060007f7fffffffffffffffffffffffffffffff5d576e7357a4501ddfe92f46681b20a08460001c1115613968576000600385925092509250613a12565b60006001888888886040516000815260200160405260405161398d9493929190615566565b6020604051602081039080840390855afa1580156139af573d6000803e3d6000fd5b505050602060405103519050600073ffffffffffffffffffffffffffffffffffffffff168173ffffffffffffffffffffffffffffffffffffffff1603613a0357600060016000801b93509350935050613a12565b8060008060001b935093509350505b9450945094915050565b60006003811115613a3057613a2f6155ab565b5b826003811115613a4357613a426155ab565b5b0315613b7c5760016003811115613a5d57613a5c6155ab565b5b826003811115613a7057613a6f6155ab565b5b03613aa7576040517ff645eedf00000000000000000000000000000000000000000000000000000000815260040160405180910390fd5b60026003811115613abb57613aba6155ab565b5b826003811115613ace57613acd6155ab565b5b03613b13578060001c6040517ffce698f7000000000000000000000000000000000000000000000000000000008152600401613b0a9190613ee2565b60405180910390fd5b600380811115613b2657613b256155ab565b5b826003811115613b3957613b386155ab565b5b03613b7b57806040517fd78bce0c000000000000000000000000000000000000000000000000000000008152600401613b729190613fcd565b60405180910390fd5b5b5050565b60606000613b8d83613bf4565b90506000602067ffffffffffffffff811115613bac57613bab6140b2565b5b6040519080825280601f01601f191660200182016040528015613bde5781602001600182028036833780820191505090505b5090508181528360208201528092505050919050565b60008060ff8360001c169050601f811115613c3b576040517fb3512b0c00000000000000000000000000000000000000000000000000000000815260040160405180910390fd5b80915050919050565b600082825260208201905092915050565b7f44697265637420455448207472616e7366657273206e6f7420616c6c6f77656460008201527f2e00000000000000000000000000000000000000000000000000000000000000602082015250565b6000613cb1602183613c44565b9150613cbc82613c55565b604082019050919050565b60006020820190508181036000830152613ce081613ca4565b9050919050565b6000604051905090565b600080fd5b600080fd5b600073ffffffffffffffffffffffffffffffffffffffff82169050919050565b6000613d2682613cfb565b9050919050565b613d3681613d1b565b8114613d4157600080fd5b50565b600081359050613d5381613d2d565b92915050565b600060208284031215613d6f57613d6e613cf1565b5b6000613d7d84828501613d44565b91505092915050565b600081519050919050565b60005b83811015613daf578082015181840152602081019050613d94565b60008484015250505050565b6000601f19601f8301169050919050565b6000613dd782613d86565b613de18185613c44565b9350613df1818560208601613d91565b613dfa81613dbb565b840191505092915050565b60006020820190508181036000830152613e1f8184613dcc565b905092915050565b6000819050919050565b613e3a81613e27565b8114613e4557600080fd5b50565b600081359050613e5781613e31565b92915050565b60008060408385031215613e7457613e73613cf1565b5b6000613e8285828601613d44565b9250506020613e9385828601613e48565b9150509250929050565b60008115159050919050565b613eb281613e9d565b82525050565b6000602082019050613ecd6000830184613ea9565b92915050565b613edc81613e27565b82525050565b6000602082019050613ef76000830184613ed3565b92915050565b600080600060608486031215613f1657613f15613cf1565b5b6000613f2486828701613d44565b9350506020613f3586828701613d44565b9250506040613f4686828701613e48565b9150509250925092565b600060208284031215613f6657613f65613cf1565b5b6000613f7484828501613e48565b91505092915050565b600060ff82169050919050565b613f9381613f7d565b82525050565b6000602082019050613fae6000830184613f8a565b92915050565b6000819050919050565b613fc781613fb4565b82525050565b6000602082019050613fe26000830184613fbe565b92915050565b600080fd5b600080fd5b600080fd5b60008083601f84011261400d5761400c613fe8565b5b8235905067ffffffffffffffff81111561402a57614029613fed565b5b60208301915083600182028301111561404657614045613ff2565b5b9250929050565b60008060006040848603121561406657614065613cf1565b5b600061407486828701613e48565b935050602084013567ffffffffffffffff81111561409557614094613cf6565b5b6140a186828701613ff7565b92509250509250925092565b600080fd5b7f4e487b7100000000000000000000000000000000000000000000000000000000600052604160045260246000fd5b6140ea82613dbb565b810181811067ffffffffffffffff82111715614109576141086140b2565b5b80604052505050565b600061411c613ce7565b905061412882826140e1565b919050565b600067ffffffffffffffff821115614148576141476140b2565b5b61415182613dbb565b9050602081019050919050565b82818337600083830152505050565b600061418061417b8461412d565b614112565b90508281526020810184848401111561419c5761419b6140ad565b5b6141a784828561415e565b509392505050565b600082601f8301126141c4576141c3613fe8565b5b81356141d484826020860161416d565b91505092915050565b6000602082840312156141f3576141f2613cf1565b5b600082013567ffffffffffffffff81111561421157614210613cf6565b5b61421d848285016141af565b91505092915050565b61422f81613d1b565b82525050565b600060208201905061424a6000830184614226565b92915050565b60007fff0000000000000000000000000000000000000000000000000000000000000082169050919050565b61428581614250565b82525050565b600081519050919050565b600082825260208201905092915050565b6000819050602082019050919050565b6142c081613e27565b82525050565b60006142d283836142b7565b60208301905092915050565b6000602082019050919050565b60006142f68261428b565b6143008185614296565b935061430b836142a7565b8060005b8381101561433c57815161432388826142c6565b975061432e836142de565b92505060018101905061430f565b5085935050505092915050565b600060e08201905061435e600083018a61427c565b81810360208301526143708189613dcc565b905081810360408301526143848188613dcc565b90506143936060830187613ed3565b6143a06080830186614226565b6143ad60a0830185613fbe565b81810360c08301526143bf81846142eb565b905098975050505050505050565b6143d681613f7d565b81146143e157600080fd5b50565b6000813590506143f3816143cd565b92915050565b61440281613fb4565b811461440d57600080fd5b50565b60008135905061441f816143f9565b92915050565b600080600080600080600060e0888a03121561444457614443613cf1565b5b60006144528a828b01613d44565b97505060206144638a828b01613d44565b96505060406144748a828b01613e48565b95505060606144858a828b01613e48565b94505060806144968a828b016143e4565b93505060a06144a78a828b01614410565b92505060c06144b88a828b01614410565b91505092959891949750929550565b600080604083850312156144de576144dd613cf1565b5b60006144ec85828601613d44565b92505060206144fd85828601613d44565b9150509250929050565b600060a08201905061451c6000830188613ed3565b6145296020830187613ed3565b6145366040830186613ed3565b6145436060830185613ed3565b6145506080830184613ed3565b9695505050505050565b7f4e487b7100000000000000000000000000000000000000000000000000000000600052602260045260246000fd5b600060028204905060018216806145a157607f821691505b6020821081036145b4576145b361455a565b5b50919050565b7f4e6f2045544820746f2077697468647261770000000000000000000000000000600082015250565b60006145f0601283613c44565b91506145fb826145ba565b602082019050919050565b6000602082019050818103600083015261461f816145e3565b9050919050565b600081905092915050565b50565b6000614641600083614626565b915061464c82614631565b600082019050919050565b600061466282614634565b9150819050919050565b7f5769746864726177206661696c65640000000000000000000000000000000000600082015250565b60006146a2600f83613c44565b91506146ad8261466c565b602082019050919050565b600060208201905081810360008301526146d181614695565b9050919050565b7f496e73756666696369656e7420746f6b656e7320696e20636f6e74726163742060008201527f746f206275726e00000000000000000000000000000000000000000000000000602082015250565b6000614734602783613c44565b915061473f826146d8565b604082019050919050565b6000602082019050818103600083015261476381614727565b9050919050565b7f4e487b7100000000000000000000000000000000000000000000000000000000600052601160045260246000fd5b60006147a482613e27565b91506147af83613e27565b92508282019050808211156147c7576147c661476a565b5b92915050565b7f496e73756666696369656e7420746f6b656e7320696e20636f6e747261637400600082015250565b6000614803601f83613c44565b915061480e826147cd565b602082019050919050565b60006020820190508181036000830152614832816147f6565b9050919050565b7f41646472657373206e6f742077686974656c6973746564000000000000000000600082015250565b600061486f601783613c44565b915061487a82614839565b602082019050919050565b6000602082019050818103600083015261489e81614862565b9050919050565b7f507269766174652053616c652068617320656e64656400000000000000000000600082015250565b60006148db601683613c44565b91506148e6826148a5565b602082019050919050565b6000602082019050818103600083015261490a816148ce565b9050919050565b7f4d696e696d756d20696e766573746d656e7420616d6f756e74206e6f74206d6560008201527f7400000000000000000000000000000000000000000000000000000000000000602082015250565b600061496d602183613c44565b915061497882614911565b604082019050919050565b6000602082019050818103600083015261499c81614960565b9050919050565b7f507269766174652053616c6520736f6c64206f75740000000000000000000000600082015250565b60006149d9601583613c44565b91506149e4826149a3565b602082019050919050565b60006020820190508181036000830152614a08816149cc565b9050919050565b7f4578636565647320507269766174652053616c6520746f6b656e206c696d6974600082015250565b6000614a45602083613c44565b9150614a5082614a0f565b602082019050919050565b60006020820190508181036000830152614a7481614a38565b9050919050565b600081905092915050565b6000614a928385614a7b565b9350614a9f83858461415e565b82840190509392505050565b6000614ab8828486614a86565b91508190509392505050565b7f496e76616c696420616666696c6961746520636f646500000000000000000000600082015250565b6000614afa601683613c44565b9150614b0582614ac4565b602082019050919050565b60006020820190508181036000830152614b2981614aed565b9050919050565b6000614b3b82613e27565b9150614b4683613e27565b9250828202614b5481613e27565b91508282048414831517614b6b57614b6a61476a565b5b5092915050565b7f4e487b7100000000000000000000000000000000000000000000000000000000600052601260045260246000fd5b6000614bac82613e27565b9150614bb783613e27565b925082614bc757614bc6614b72565b5b828204905092915050565b6000614bde8385613c44565b9350614beb83858461415e565b614bf483613dbb565b840190509392505050565b6000604082019050614c146000830186613ed3565b8181036020830152614c27818486614bd2565b9050949350505050565b7f4e6f207374616b656420746f6b656e7320746f2072656c656173650000000000600082015250565b6000614c67601b83613c44565b9150614c7282614c31565b602082019050919050565b60006020820190508181036000830152614c9681614c5a565b9050919050565b7f546f6b656e7320617265207374696c6c20696e2076657374696e67207065726960008201527f6f64000000000000000000000000000000000000000000000000000000000000602082015250565b6000614cf9602283613c44565b9150614d0482614c9d565b604082019050919050565b60006020820190508181036000830152614d2881614cec565b9050919050565b7f5072652d53616c6520616c726561647920636f6d706c65746564000000000000600082015250565b6000614d65601a83613c44565b9150614d7082614d2f565b602082019050919050565b60006020820190508181036000830152614d9481614d58565b9050919050565b7f4e6f2070656e64696e6720746f6b656e7320746f206275726e00000000000000600082015250565b6000614dd1601983613c44565b9150614ddc82614d9b565b602082019050919050565b60006020820190508181036000830152614e0081614dc4565b9050919050565b7f5374616b6520616d6f756e74206d75737420626520677265617465722074686160008201527f6e207a65726f0000000000000000000000000000000000000000000000000000602082015250565b6000614e63602683613c44565b9150614e6e82614e07565b604082019050919050565b60006020820190508181036000830152614e9281614e56565b9050919050565b7f496e73756666696369656e742062616c616e636520746f207374616b65000000600082015250565b6000614ecf601d83613c44565b9150614eda82614e99565b602082019050919050565b60006020820190508181036000830152614efe81614ec2565b9050919050565b7f5072652d73616c65206d75737420626520636f6d706c65746564206265666f7260008201527f65207374616b696e670000000000000000000000000000000000000000000000602082015250565b6000614f61602983613c44565b9150614f6c82614f05565b604082019050919050565b60006020820190508181036000830152614f9081614f54565b9050919050565b6000604082019050614fac6000830185613ed3565b614fb96020830184613ed3565b9392505050565b7f5072652d53616c652068617320656e6465640000000000000000000000000000600082015250565b6000614ff6601283613c44565b915061500182614fc0565b602082019050919050565b6000602082019050818103600083015261502581614fe9565b9050919050565b7f507572636861736520616d6f756e74206f7574206f66206c696d697473000000600082015250565b6000615062601d83613c44565b915061506d8261502c565b602082019050919050565b6000602082019050818103600083015261509181615055565b9050919050565b7f5072652d53616c6520736f6c64206f7574000000000000000000000000000000600082015250565b60006150ce601183613c44565b91506150d982615098565b602082019050919050565b600060208201905081810360008301526150fd816150c1565b9050919050565b7f45786365656473206d6178696d756d207075726368617365206c696d6974207060008201527f6572207573657200000000000000000000000000000000000000000000000000602082015250565b6000615160602783613c44565b915061516b82615104565b604082019050919050565b6000602082019050818103600083015261518f81615153565b9050919050565b7f45786365656473205072652d53616c6520746f6b656e206c696d697400000000600082015250565b60006151cc601c83613c44565b91506151d782615196565b602082019050919050565b600060208201905081810360008301526151fb816151bf565b9050919050565b600060c0820190506152176000830189613fbe565b6152246020830188614226565b6152316040830187614226565b61523e6060830186613ed3565b61524b6080830185613ed3565b61525860a0830184613ed3565b979650505050505050565b60006040820190506152786000830185614226565b6152856020830184614226565b9392505050565b7f507269766174652053616c6520616c726561647920636f6d706c657465640000600082015250565b60006152c2601e83613c44565b91506152cd8261528c565b602082019050919050565b600060208201905081810360008301526152f1816152b5565b9050919050565b600060608201905061530d6000830186614226565b61531a6020830185613ed3565b6153276040830184613ed3565b949350505050565b7f5265656e7472616e637947756172643a207265656e7472616e742063616c6c00600082015250565b6000615365601f83613c44565b91506153708261532f565b602082019050919050565b6000602082019050818103600083015261539481615358565b9050919050565b7f5061757361626c653a2070617573656400000000000000000000000000000000600082015250565b60006153d1601083613c44565b91506153dc8261539b565b602082019050919050565b60006020820190508181036000830152615400816153c4565b9050919050565b600061541282613e27565b915061541d83613e27565b92508282039050818111156154355761543461476a565b5b92915050565b7f496e76616c69642070726963652063616c63756c6174696f6e00000000000000600082015250565b6000615471601983613c44565b915061547c8261543b565b602082019050919050565b600060208201905081810360008301526154a081615464565b9050919050565b600060a0820190506154bc6000830188613fbe565b6154c96020830187613fbe565b6154d66040830186613fbe565b6154e36060830185613ed3565b6154f06080830184614226565b9695505050505050565b7f5061757361626c653a206e6f7420706175736564000000000000000000000000600082015250565b6000615530601483613c44565b915061553b826154fa565b602082019050919050565b6000602082019050818103600083015261555f81615523565b9050919050565b600060808201905061557b6000830187613fbe565b6155886020830186613f8a565b6155956040830185613fbe565b6155a26060830184613fbe565b95945050505050565b7f4e487b7100000000000000000000000000000000000000000000000000000000600052602160045260246000fdfea2646970667358221220162588aa393a4918d71207bfbfcc6fae7097e8e8e51a6694e611911855ec489a64736f6c634300081a0033",
			"opcodes": "PUSH2 0x160 PUSH1 0x40 MSTORE PUSH1 0x0 PUSH1 0xF PUSH1 0x0 PUSH2 0x100 EXP DUP2 SLOAD DUP2 PUSH1 0xFF MUL NOT AND SWAP1 DUP4 ISZERO ISZERO MUL OR SWAP1 SSTORE POP PUSH1 0x0 PUSH1 0x11 SSTORE PUSH7 0x38D7EA4C68000 PUSH1 0x12 SSTORE PUSH7 0x11C37937E08000 PUSH1 0x13 SSTORE PUSH9 0x3635C9ADC5DEA00000 PUSH1 0x14 SSTORE PUSH1 0x0 PUSH1 0x15 PUSH1 0x0 PUSH2 0x100 EXP DUP2 SLOAD DUP2 PUSH1 0xFF MUL NOT AND SWAP1 DUP4 ISZERO ISZERO MUL OR SWAP1 SSTORE POP PUSH1 0x0 PUSH1 0x16 SSTORE PUSH7 0x11C37937E08000 PUSH1 0x17 SSTORE PUSH8 0x16345785D8A0000 PUSH1 0x18 SSTORE PUSH9 0x56BC75E2D63100000 PUSH1 0x19 SSTORE PUSH9 0xA2A15D09519BE00000 PUSH1 0x1A SSTORE PUSH1 0x0 PUSH1 0x1B PUSH1 0x0 PUSH2 0x100 EXP DUP2 SLOAD DUP2 PUSH1 0xFF MUL NOT AND SWAP1 DUP4 ISZERO ISZERO MUL OR SWAP1 SSTORE POP PUSH1 0x5 PUSH1 0x24 PUSH1 0x0 PUSH2 0x100 EXP DUP2 SLOAD DUP2 PUSH1 0xFF MUL NOT AND SWAP1 DUP4 PUSH1 0xFF AND MUL OR SWAP1 SSTORE POP CALLVALUE DUP1 ISZERO PUSH2 0xDC JUMPI PUSH1 0x0 DUP1 REVERT JUMPDEST POP PUSH1 0x40 MLOAD DUP1 PUSH1 0x40 ADD PUSH1 0x40 MSTORE DUP1 PUSH1 0x8 DUP2 MSTORE PUSH1 0x20 ADD PUSH32 0x426574746F6B656E000000000000000000000000000000000000000000000000 DUP2 MSTORE POP DUP1 PUSH1 0x40 MLOAD DUP1 PUSH1 0x40 ADD PUSH1 0x40 MSTORE DUP1 PUSH1 0x1 DUP2 MSTORE PUSH1 0x20 ADD PUSH32 0x3100000000000000000000000000000000000000000000000000000000000000 DUP2 MSTORE POP CALLER PUSH1 0x40 MLOAD DUP1 PUSH1 0x40 ADD PUSH1 0x40 MSTORE DUP1 PUSH1 0x8 DUP2 MSTORE PUSH1 0x20 ADD PUSH32 0x426574746F6B656E000000000000000000000000000000000000000000000000 DUP2 MSTORE POP PUSH1 0x40 MLOAD DUP1 PUSH1 0x40 ADD PUSH1 0x40 MSTORE DUP1 PUSH1 0x4 DUP2 MSTORE PUSH1 0x20 ADD PUSH32 0x4245545400000000000000000000000000000000000000000000000000000000 DUP2 MSTORE POP DUP2 PUSH1 0x3 SWAP1 DUP2 PUSH2 0x1C6 SWAP2 SWAP1 PUSH2 0xBD1 JUMP JUMPDEST POP DUP1 PUSH1 0x4 SWAP1 DUP2 PUSH2 0x1D6 SWAP2 SWAP1 PUSH2 0xBD1 JUMP JUMPDEST POP POP POP PUSH1 0x0 PUSH20 0xFFFFFFFFFFFFFFFFFFFFFFFFFFFFFFFFFFFFFFFF AND DUP2 PUSH20 0xFFFFFFFFFFFFFFFFFFFFFFFFFFFFFFFFFFFFFFFF AND SUB PUSH2 0x24B JUMPI PUSH1 0x0 PUSH1 0x40 MLOAD PUSH32 0x1E4FBDF700000000000000000000000000000000000000000000000000000000 DUP2 MSTORE PUSH1 0x4 ADD PUSH2 0x242 SWAP2 SWAP1 PUSH2 0xCE4 JUMP JUMPDEST PUSH1 0x40 MLOAD DUP1 SWAP2 SUB SWAP1 REVERT JUMPDEST PUSH2 0x25A DUP2 PUSH2 0x3F7 PUSH1 0x20 SHL PUSH1 0x20 SHR JUMP JUMPDEST POP PUSH1 0x1 PUSH1 0x6 DUP2 SWAP1 SSTORE POP PUSH1 0x0 PUSH1 0x7 PUSH1 0x0 PUSH2 0x100 EXP DUP2 SLOAD DUP2 PUSH1 0xFF MUL NOT AND SWAP1 DUP4 ISZERO ISZERO MUL OR SWAP1 SSTORE POP PUSH2 0x292 PUSH1 0x8 DUP4 PUSH2 0x4BD PUSH1 0x20 SHL SWAP1 SWAP2 SWAP1 PUSH1 0x20 SHR JUMP JUMPDEST PUSH2 0x120 DUP2 DUP2 MSTORE POP POP PUSH2 0x2AE PUSH1 0x9 DUP3 PUSH2 0x4BD PUSH1 0x20 SHL SWAP1 SWAP2 SWAP1 PUSH1 0x20 SHR JUMP JUMPDEST PUSH2 0x140 DUP2 DUP2 MSTORE POP POP DUP2 DUP1 MLOAD SWAP1 PUSH1 0x20 ADD KECCAK256 PUSH1 0xE0 DUP2 DUP2 MSTORE POP POP DUP1 DUP1 MLOAD SWAP1 PUSH1 0x20 ADD KECCAK256 PUSH2 0x100 DUP2 DUP2 MSTORE POP POP CHAINID PUSH1 0xA0 DUP2 DUP2 MSTORE POP POP PUSH2 0x2EB PUSH2 0x50D PUSH1 0x20 SHL PUSH1 0x20 SHR JUMP JUMPDEST PUSH1 0x80 DUP2 DUP2 MSTORE POP POP ADDRESS PUSH20 0xFFFFFFFFFFFFFFFFFFFFFFFFFFFFFFFFFFFFFFFF AND PUSH1 0xC0 DUP2 PUSH20 0xFFFFFFFFFFFFFFFFFFFFFFFFFFFFFFFFFFFFFFFF AND DUP2 MSTORE POP POP POP POP POP PUSH2 0x345 ADDRESS PUSH12 0x33B2E3C9FD0803CE8000000 PUSH2 0x568 PUSH1 0x20 SHL PUSH1 0x20 SHR JUMP JUMPDEST PUSH2 0x362 ADDRESS CALLER PUSH12 0x19D971E4FE8401E74000000 PUSH2 0x5F0 PUSH1 0x20 SHL PUSH1 0x20 SHR JUMP JUMPDEST PUSH2 0x37E ADDRESS CALLER PUSH11 0x7C13BC4B2C133C56000000 PUSH2 0x5F0 PUSH1 0x20 SHL PUSH1 0x20 SHR JUMP JUMPDEST PUSH2 0x39A ADDRESS CALLER PUSH11 0x295BE96E64066972000000 PUSH2 0x5F0 PUSH1 0x20 SHL PUSH1 0x20 SHR JUMP JUMPDEST PUSH4 0x1E13380 TIMESTAMP PUSH2 0x3AA SWAP2 SWAP1 PUSH2 0xD2E JUMP JUMPDEST PUSH1 0x10 DUP2 SWAP1 SSTORE POP PUSH32 0xBDDC4F8670F571BE4409CA0D3264084E2A3F0FCE1BCE3458BF062822A6DDE440 PUSH11 0x52B7D2DCC80CD2E4000000 PUSH1 0x40 MLOAD PUSH2 0x3EA SWAP2 SWAP1 PUSH2 0xD71 JUMP JUMPDEST PUSH1 0x40 MLOAD DUP1 SWAP2 SUB SWAP1 LOG1 PUSH2 0xF6D JUMP JUMPDEST PUSH1 0x0 PUSH1 0x5 PUSH1 0x0 SWAP1 SLOAD SWAP1 PUSH2 0x100 EXP SWAP1 DIV PUSH20 0xFFFFFFFFFFFFFFFFFFFFFFFFFFFFFFFFFFFFFFFF AND SWAP1 POP DUP2 PUSH1 0x5 PUSH1 0x0 PUSH2 0x100 EXP DUP2 SLOAD DUP2 PUSH20 0xFFFFFFFFFFFFFFFFFFFFFFFFFFFFFFFFFFFFFFFF MUL NOT AND SWAP1 DUP4 PUSH20 0xFFFFFFFFFFFFFFFFFFFFFFFFFFFFFFFFFFFFFFFF AND MUL OR SWAP1 SSTORE POP DUP2 PUSH20 0xFFFFFFFFFFFFFFFFFFFFFFFFFFFFFFFFFFFFFFFF AND DUP2 PUSH20 0xFFFFFFFFFFFFFFFFFFFFFFFFFFFFFFFFFFFFFFFF AND PUSH32 0x8BE0079C531659141344CD1FD0A4F28419497F9722A3DAAFE3B4186F6B6457E0 PUSH1 0x40 MLOAD PUSH1 0x40 MLOAD DUP1 SWAP2 SUB SWAP1 LOG3 POP POP JUMP JUMPDEST PUSH1 0x0 PUSH1 0x20 DUP4 MLOAD LT ISZERO PUSH2 0x4DF JUMPI PUSH2 0x4D8 DUP4 PUSH2 0x6EA PUSH1 0x20 SHL PUSH1 0x20 SHR JUMP JUMPDEST SWAP1 POP PUSH2 0x507 JUMP JUMPDEST DUP3 PUSH2 0x4EF DUP4 PUSH2 0x752 PUSH1 0x20 SHL PUSH1 0x20 SHR JUMP JUMPDEST PUSH1 0x0 ADD SWAP1 DUP2 PUSH2 0x4FE SWAP2 SWAP1 PUSH2 0xBD1 JUMP JUMPDEST POP PUSH1 0xFF PUSH1 0x0 SHL SWAP1 POP JUMPDEST SWAP3 SWAP2 POP POP JUMP JUMPDEST PUSH1 0x0 PUSH32 0x8B73C3C69BB8FE3D512ECC4CF759CC79239F7B179B0FFACAA9A75D522B39400F PUSH1 0xE0 MLOAD PUSH2 0x100 MLOAD CHAINID ADDRESS PUSH1 0x40 MLOAD PUSH1 0x20 ADD PUSH2 0x54D SWAP6 SWAP5 SWAP4 SWAP3 SWAP2 SWAP1 PUSH2 0xDA5 JUMP JUMPDEST PUSH1 0x40 MLOAD PUSH1 0x20 DUP2 DUP4 SUB SUB DUP2 MSTORE SWAP1 PUSH1 0x40 MSTORE DUP1 MLOAD SWAP1 PUSH1 0x20 ADD KECCAK256 SWAP1 POP SWAP1 JUMP JUMPDEST PUSH1 0x0 PUSH20 0xFFFFFFFFFFFFFFFFFFFFFFFFFFFFFFFFFFFFFFFF AND DUP3 PUSH20 0xFFFFFFFFFFFFFFFFFFFFFFFFFFFFFFFFFFFFFFFF AND SUB PUSH2 0x5DA JUMPI PUSH1 0x0 PUSH1 0x40 MLOAD PUSH32 0xEC442F0500000000000000000000000000000000000000000000000000000000 DUP2 MSTORE PUSH1 0x4 ADD PUSH2 0x5D1 SWAP2 SWAP1 PUSH2 0xCE4 JUMP JUMPDEST PUSH1 0x40 MLOAD DUP1 SWAP2 SUB SWAP1 REVERT JUMPDEST PUSH2 0x5EC PUSH1 0x0 DUP4 DUP4 PUSH2 0x75C PUSH1 0x20 SHL PUSH1 0x20 SHR JUMP JUMPDEST POP POP JUMP JUMPDEST PUSH1 0x0 PUSH20 0xFFFFFFFFFFFFFFFFFFFFFFFFFFFFFFFFFFFFFFFF AND DUP4 PUSH20 0xFFFFFFFFFFFFFFFFFFFFFFFFFFFFFFFFFFFFFFFF AND SUB PUSH2 0x662 JUMPI PUSH1 0x0 PUSH1 0x40 MLOAD PUSH32 0x96C6FD1E00000000000000000000000000000000000000000000000000000000 DUP2 MSTORE PUSH1 0x4 ADD PUSH2 0x659 SWAP2 SWAP1 PUSH2 0xCE4 JUMP JUMPDEST PUSH1 0x40 MLOAD DUP1 SWAP2 SUB SWAP1 REVERT JUMPDEST PUSH1 0x0 PUSH20 0xFFFFFFFFFFFFFFFFFFFFFFFFFFFFFFFFFFFFFFFF AND DUP3 PUSH20 0xFFFFFFFFFFFFFFFFFFFFFFFFFFFFFFFFFFFFFFFF AND SUB PUSH2 0x6D4 JUMPI PUSH1 0x0 PUSH1 0x40 MLOAD PUSH32 0xEC442F0500000000000000000000000000000000000000000000000000000000 DUP2 MSTORE PUSH1 0x4 ADD PUSH2 0x6CB SWAP2 SWAP1 PUSH2 0xCE4 JUMP JUMPDEST PUSH1 0x40 MLOAD DUP1 SWAP2 SUB SWAP1 REVERT JUMPDEST PUSH2 0x6E5 DUP4 DUP4 DUP4 PUSH2 0x75C PUSH1 0x20 SHL PUSH1 0x20 SHR JUMP JUMPDEST POP POP POP JUMP JUMPDEST PUSH1 0x0 DUP1 DUP3 SWAP1 POP PUSH1 0x1F DUP2 MLOAD GT ISZERO PUSH2 0x737 JUMPI DUP3 PUSH1 0x40 MLOAD PUSH32 0x305A27A900000000000000000000000000000000000000000000000000000000 DUP2 MSTORE PUSH1 0x4 ADD PUSH2 0x72E SWAP2 SWAP1 PUSH2 0xE7D JUMP JUMPDEST PUSH1 0x40 MLOAD DUP1 SWAP2 SUB SWAP1 REVERT JUMPDEST DUP1 MLOAD DUP2 PUSH2 0x743 SWAP1 PUSH2 0xECF JUMP JUMPDEST PUSH1 0x0 SHR OR PUSH1 0x0 SHL SWAP2 POP POP SWAP2 SWAP1 POP JUMP JUMPDEST PUSH1 0x0 DUP2 SWAP1 POP SWAP2 SWAP1 POP JUMP JUMPDEST PUSH1 0x0 PUSH20 0xFFFFFFFFFFFFFFFFFFFFFFFFFFFFFFFFFFFFFFFF AND DUP4 PUSH20 0xFFFFFFFFFFFFFFFFFFFFFFFFFFFFFFFFFFFFFFFF AND SUB PUSH2 0x7AE JUMPI DUP1 PUSH1 0x2 PUSH1 0x0 DUP3 DUP3 SLOAD PUSH2 0x7A2 SWAP2 SWAP1 PUSH2 0xD2E JUMP JUMPDEST SWAP3 POP POP DUP2 SWAP1 SSTORE POP PUSH2 0x881 JUMP JUMPDEST PUSH1 0x0 DUP1 PUSH1 0x0 DUP6 PUSH20 0xFFFFFFFFFFFFFFFFFFFFFFFFFFFFFFFFFFFFFFFF AND PUSH20 0xFFFFFFFFFFFFFFFFFFFFFFFFFFFFFFFFFFFFFFFF AND DUP2 MSTORE PUSH1 0x20 ADD SWAP1 DUP2 MSTORE PUSH1 0x20 ADD PUSH1 0x0 KECCAK256 SLOAD SWAP1 POP DUP2 DUP2 LT ISZERO PUSH2 0x83A JUMPI DUP4 DUP2 DUP4 PUSH1 0x40 MLOAD PUSH32 0xE450D38C00000000000000000000000000000000000000000000000000000000 DUP2 MSTORE PUSH1 0x4 ADD PUSH2 0x831 SWAP4 SWAP3 SWAP2 SWAP1 PUSH2 0xF36 JUMP JUMPDEST PUSH1 0x40 MLOAD DUP1 SWAP2 SUB SWAP1 REVERT JUMPDEST DUP2 DUP2 SUB PUSH1 0x0 DUP1 DUP7 PUSH20 0xFFFFFFFFFFFFFFFFFFFFFFFFFFFFFFFFFFFFFFFF AND PUSH20 0xFFFFFFFFFFFFFFFFFFFFFFFFFFFFFFFFFFFFFFFF AND DUP2 MSTORE PUSH1 0x20 ADD SWAP1 DUP2 MSTORE PUSH1 0x20 ADD PUSH1 0x0 KECCAK256 DUP2 SWAP1 SSTORE POP POP JUMPDEST PUSH1 0x0 PUSH20 0xFFFFFFFFFFFFFFFFFFFFFFFFFFFFFFFFFFFFFFFF AND DUP3 PUSH20 0xFFFFFFFFFFFFFFFFFFFFFFFFFFFFFFFFFFFFFFFF AND SUB PUSH2 0x8CA JUMPI DUP1 PUSH1 0x2 PUSH1 0x0 DUP3 DUP3 SLOAD SUB SWAP3 POP POP DUP2 SWAP1 SSTORE POP PUSH2 0x917 JUMP JUMPDEST DUP1 PUSH1 0x0 DUP1 DUP5 PUSH20 0xFFFFFFFFFFFFFFFFFFFFFFFFFFFFFFFFFFFFFFFF AND PUSH20 0xFFFFFFFFFFFFFFFFFFFFFFFFFFFFFFFFFFFFFFFF AND DUP2 MSTORE PUSH1 0x20 ADD SWAP1 DUP2 MSTORE PUSH1 0x20 ADD PUSH1 0x0 KECCAK256 PUSH1 0x0 DUP3 DUP3 SLOAD ADD SWAP3 POP POP DUP2 SWAP1 SSTORE POP JUMPDEST DUP2 PUSH20 0xFFFFFFFFFFFFFFFFFFFFFFFFFFFFFFFFFFFFFFFF AND DUP4 PUSH20 0xFFFFFFFFFFFFFFFFFFFFFFFFFFFFFFFFFFFFFFFF AND PUSH32 0xDDF252AD1BE2C89B69C2B068FC378DAA952BA7F163C4A11628F55A4DF523B3EF DUP4 PUSH1 0x40 MLOAD PUSH2 0x974 SWAP2 SWAP1 PUSH2 0xD71 JUMP JUMPDEST PUSH1 0x40 MLOAD DUP1 SWAP2 SUB SWAP1 LOG3 POP POP POP JUMP JUMPDEST PUSH1 0x0 DUP2 MLOAD SWAP1 POP SWAP2 SWAP1 POP JUMP JUMPDEST PUSH32 0x4E487B7100000000000000000000000000000000000000000000000000000000 PUSH1 0x0 MSTORE PUSH1 0x41 PUSH1 0x4 MSTORE PUSH1 0x24 PUSH1 0x0 REVERT JUMPDEST PUSH32 0x4E487B7100000000000000000000000000000000000000000000000000000000 PUSH1 0x0 MSTORE PUSH1 0x22 PUSH1 0x4 MSTORE PUSH1 0x24 PUSH1 0x0 REVERT JUMPDEST PUSH1 0x0 PUSH1 0x2 DUP3 DIV SWAP1 POP PUSH1 0x1 DUP3 AND DUP1 PUSH2 0xA02 JUMPI PUSH1 0x7F DUP3 AND SWAP2 POP JUMPDEST PUSH1 0x20 DUP3 LT DUP2 SUB PUSH2 0xA15 JUMPI PUSH2 0xA14 PUSH2 0x9BB JUMP JUMPDEST JUMPDEST POP SWAP2 SWAP1 POP JUMP JUMPDEST PUSH1 0x0 DUP2 SWAP1 POP DUP2 PUSH1 0x0 MSTORE PUSH1 0x20 PUSH1 0x0 KECCAK256 SWAP1 POP SWAP2 SWAP1 POP JUMP JUMPDEST PUSH1 0x0 PUSH1 0x20 PUSH1 0x1F DUP4 ADD DIV SWAP1 POP SWAP2 SWAP1 POP JUMP JUMPDEST PUSH1 0x0 DUP3 DUP3 SHL SWAP1 POP SWAP3 SWAP2 POP POP JUMP JUMPDEST PUSH1 0x0 PUSH1 0x8 DUP4 MUL PUSH2 0xA7D PUSH32 0xFFFFFFFFFFFFFFFFFFFFFFFFFFFFFFFFFFFFFFFFFFFFFFFFFFFFFFFFFFFFFFFF DUP3 PUSH2 0xA40 JUMP JUMPDEST PUSH2 0xA87 DUP7 DUP4 PUSH2 0xA40 JUMP JUMPDEST SWAP6 POP DUP1 NOT DUP5 AND SWAP4 POP DUP1 DUP7 AND DUP5 OR SWAP3 POP POP POP SWAP4 SWAP3 POP POP POP JUMP JUMPDEST PUSH1 0x0 DUP2 SWAP1 POP SWAP2 SWAP1 POP JUMP JUMPDEST PUSH1 0x0 DUP2 SWAP1 POP SWAP2 SWAP1 POP JUMP JUMPDEST PUSH1 0x0 PUSH2 0xACE PUSH2 0xAC9 PUSH2 0xAC4 DUP5 PUSH2 0xA9F JUMP JUMPDEST PUSH2 0xAA9 JUMP JUMPDEST PUSH2 0xA9F JUMP JUMPDEST SWAP1 POP SWAP2 SWAP1 POP JUMP JUMPDEST PUSH1 0x0 DUP2 SWAP1 POP SWAP2 SWAP1 POP JUMP JUMPDEST PUSH2 0xAE8 DUP4 PUSH2 0xAB3 JUMP JUMPDEST PUSH2 0xAFC PUSH2 0xAF4 DUP3 PUSH2 0xAD5 JUMP JUMPDEST DUP5 DUP5 SLOAD PUSH2 0xA4D JUMP JUMPDEST DUP3 SSTORE POP POP POP POP JUMP JUMPDEST PUSH1 0x0 SWAP1 JUMP JUMPDEST PUSH2 0xB11 PUSH2 0xB04 JUMP JUMPDEST PUSH2 0xB1C DUP2 DUP5 DUP5 PUSH2 0xADF JUMP JUMPDEST POP POP POP JUMP JUMPDEST JUMPDEST DUP2 DUP2 LT ISZERO PUSH2 0xB40 JUMPI PUSH2 0xB35 PUSH1 0x0 DUP3 PUSH2 0xB09 JUMP JUMPDEST PUSH1 0x1 DUP2 ADD SWAP1 POP PUSH2 0xB22 JUMP JUMPDEST POP POP JUMP JUMPDEST PUSH1 0x1F DUP3 GT ISZERO PUSH2 0xB85 JUMPI PUSH2 0xB56 DUP2 PUSH2 0xA1B JUMP JUMPDEST PUSH2 0xB5F DUP5 PUSH2 0xA30 JUMP JUMPDEST DUP2 ADD PUSH1 0x20 DUP6 LT ISZERO PUSH2 0xB6E JUMPI DUP2 SWAP1 POP JUMPDEST PUSH2 0xB82 PUSH2 0xB7A DUP6 PUSH2 0xA30 JUMP JUMPDEST DUP4 ADD DUP3 PUSH2 0xB21 JUMP JUMPDEST POP POP JUMPDEST POP POP POP JUMP JUMPDEST PUSH1 0x0 DUP3 DUP3 SHR SWAP1 POP SWAP3 SWAP2 POP POP JUMP JUMPDEST PUSH1 0x0 PUSH2 0xBA8 PUSH1 0x0 NOT DUP5 PUSH1 0x8 MUL PUSH2 0xB8A JUMP JUMPDEST NOT DUP1 DUP4 AND SWAP2 POP POP SWAP3 SWAP2 POP POP JUMP JUMPDEST PUSH1 0x0 PUSH2 0xBC1 DUP4 DUP4 PUSH2 0xB97 JUMP JUMPDEST SWAP2 POP DUP3 PUSH1 0x2 MUL DUP3 OR SWAP1 POP SWAP3 SWAP2 POP POP JUMP JUMPDEST PUSH2 0xBDA DUP3 PUSH2 0x981 JUMP JUMPDEST PUSH8 0xFFFFFFFFFFFFFFFF DUP2 GT ISZERO PUSH2 0xBF3 JUMPI PUSH2 0xBF2 PUSH2 0x98C JUMP JUMPDEST JUMPDEST PUSH2 0xBFD DUP3 SLOAD PUSH2 0x9EA JUMP JUMPDEST PUSH2 0xC08 DUP3 DUP3 DUP6 PUSH2 0xB44 JUMP JUMPDEST PUSH1 0x0 PUSH1 0x20 SWAP1 POP PUSH1 0x1F DUP4 GT PUSH1 0x1 DUP2 EQ PUSH2 0xC3B JUMPI PUSH1 0x0 DUP5 ISZERO PUSH2 0xC29 JUMPI DUP3 DUP8 ADD MLOAD SWAP1 POP JUMPDEST PUSH2 0xC33 DUP6 DUP3 PUSH2 0xBB5 JUMP JUMPDEST DUP7 SSTORE POP PUSH2 0xC9B JUMP JUMPDEST PUSH1 0x1F NOT DUP5 AND PUSH2 0xC49 DUP7 PUSH2 0xA1B JUMP JUMPDEST PUSH1 0x0 JUMPDEST DUP3 DUP2 LT ISZERO PUSH2 0xC71 JUMPI DUP5 DUP10 ADD MLOAD DUP3 SSTORE PUSH1 0x1 DUP3 ADD SWAP2 POP PUSH1 0x20 DUP6 ADD SWAP5 POP PUSH1 0x20 DUP2 ADD SWAP1 POP PUSH2 0xC4C JUMP JUMPDEST DUP7 DUP4 LT ISZERO PUSH2 0xC8E JUMPI DUP5 DUP10 ADD MLOAD PUSH2 0xC8A PUSH1 0x1F DUP10 AND DUP3 PUSH2 0xB97 JUMP JUMPDEST DUP4 SSTORE POP JUMPDEST PUSH1 0x1 PUSH1 0x2 DUP9 MUL ADD DUP9 SSTORE POP POP POP JUMPDEST POP POP POP POP POP POP JUMP JUMPDEST PUSH1 0x0 PUSH20 0xFFFFFFFFFFFFFFFFFFFFFFFFFFFFFFFFFFFFFFFF DUP3 AND SWAP1 POP SWAP2 SWAP1 POP JUMP JUMPDEST PUSH1 0x0 PUSH2 0xCCE DUP3 PUSH2 0xCA3 JUMP JUMPDEST SWAP1 POP SWAP2 SWAP1 POP JUMP JUMPDEST PUSH2 0xCDE DUP2 PUSH2 0xCC3 JUMP JUMPDEST DUP3 MSTORE POP POP JUMP JUMPDEST PUSH1 0x0 PUSH1 0x20 DUP3 ADD SWAP1 POP PUSH2 0xCF9 PUSH1 0x0 DUP4 ADD DUP5 PUSH2 0xCD5 JUMP JUMPDEST SWAP3 SWAP2 POP POP JUMP JUMPDEST PUSH32 0x4E487B7100000000000000000000000000000000000000000000000000000000 PUSH1 0x0 MSTORE PUSH1 0x11 PUSH1 0x4 MSTORE PUSH1 0x24 PUSH1 0x0 REVERT JUMPDEST PUSH1 0x0 PUSH2 0xD39 DUP3 PUSH2 0xA9F JUMP JUMPDEST SWAP2 POP PUSH2 0xD44 DUP4 PUSH2 0xA9F JUMP JUMPDEST SWAP3 POP DUP3 DUP3 ADD SWAP1 POP DUP1 DUP3 GT ISZERO PUSH2 0xD5C JUMPI PUSH2 0xD5B PUSH2 0xCFF JUMP JUMPDEST JUMPDEST SWAP3 SWAP2 POP POP JUMP JUMPDEST PUSH2 0xD6B DUP2 PUSH2 0xA9F JUMP JUMPDEST DUP3 MSTORE POP POP JUMP JUMPDEST PUSH1 0x0 PUSH1 0x20 DUP3 ADD SWAP1 POP PUSH2 0xD86 PUSH1 0x0 DUP4 ADD DUP5 PUSH2 0xD62 JUMP JUMPDEST SWAP3 SWAP2 POP POP JUMP JUMPDEST PUSH1 0x0 DUP2 SWAP1 POP SWAP2 SWAP1 POP JUMP JUMPDEST PUSH2 0xD9F DUP2 PUSH2 0xD8C JUMP JUMPDEST DUP3 MSTORE POP POP JUMP JUMPDEST PUSH1 0x0 PUSH1 0xA0 DUP3 ADD SWAP1 POP PUSH2 0xDBA PUSH1 0x0 DUP4 ADD DUP9 PUSH2 0xD96 JUMP JUMPDEST PUSH2 0xDC7 PUSH1 0x20 DUP4 ADD DUP8 PUSH2 0xD96 JUMP JUMPDEST PUSH2 0xDD4 PUSH1 0x40 DUP4 ADD DUP7 PUSH2 0xD96 JUMP JUMPDEST PUSH2 0xDE1 PUSH1 0x60 DUP4 ADD DUP6 PUSH2 0xD62 JUMP JUMPDEST PUSH2 0xDEE PUSH1 0x80 DUP4 ADD DUP5 PUSH2 0xCD5 JUMP JUMPDEST SWAP7 SWAP6 POP POP POP POP POP POP JUMP JUMPDEST PUSH1 0x0 DUP3 DUP3 MSTORE PUSH1 0x20 DUP3 ADD SWAP1 POP SWAP3 SWAP2 POP POP JUMP JUMPDEST PUSH1 0x0 JUMPDEST DUP4 DUP2 LT ISZERO PUSH2 0xE27 JUMPI DUP1 DUP3 ADD MLOAD DUP2 DUP5 ADD MSTORE PUSH1 0x20 DUP2 ADD SWAP1 POP PUSH2 0xE0C JUMP JUMPDEST PUSH1 0x0 DUP5 DUP5 ADD MSTORE POP POP POP POP JUMP JUMPDEST PUSH1 0x0 PUSH1 0x1F NOT PUSH1 0x1F DUP4 ADD AND SWAP1 POP SWAP2 SWAP1 POP JUMP JUMPDEST PUSH1 0x0 PUSH2 0xE4F DUP3 PUSH2 0x981 JUMP JUMPDEST PUSH2 0xE59 DUP2 DUP6 PUSH2 0xDF8 JUMP JUMPDEST SWAP4 POP PUSH2 0xE69 DUP2 DUP6 PUSH1 0x20 DUP7 ADD PUSH2 0xE09 JUMP JUMPDEST PUSH2 0xE72 DUP2 PUSH2 0xE33 JUMP JUMPDEST DUP5 ADD SWAP2 POP POP SWAP3 SWAP2 POP POP JUMP JUMPDEST PUSH1 0x0 PUSH1 0x20 DUP3 ADD SWAP1 POP DUP2 DUP2 SUB PUSH1 0x0 DUP4 ADD MSTORE PUSH2 0xE97 DUP2 DUP5 PUSH2 0xE44 JUMP JUMPDEST SWAP1 POP SWAP3 SWAP2 POP POP JUMP JUMPDEST PUSH1 0x0 DUP2 MLOAD SWAP1 POP SWAP2 SWAP1 POP JUMP JUMPDEST PUSH1 0x0 DUP2 SWAP1 POP PUSH1 0x20 DUP3 ADD SWAP1 POP SWAP2 SWAP1 POP JUMP JUMPDEST PUSH1 0x0 PUSH2 0xEC6 DUP3 MLOAD PUSH2 0xD8C JUMP JUMPDEST DUP1 SWAP2 POP POP SWAP2 SWAP1 POP JUMP JUMPDEST PUSH1 0x0 PUSH2 0xEDA DUP3 PUSH2 0xE9F JUMP JUMPDEST DUP3 PUSH2 0xEE4 DUP5 PUSH2 0xEAA JUMP JUMPDEST SWAP1 POP PUSH2 0xEEF DUP2 PUSH2 0xEBA JUMP JUMPDEST SWAP3 POP PUSH1 0x20 DUP3 LT ISZERO PUSH2 0xF2F JUMPI PUSH2 0xF2A PUSH32 0xFFFFFFFFFFFFFFFFFFFFFFFFFFFFFFFFFFFFFFFFFFFFFFFFFFFFFFFFFFFFFFFF DUP4 PUSH1 0x20 SUB PUSH1 0x8 MUL PUSH2 0xA40 JUMP JUMPDEST DUP4 AND SWAP3 POP JUMPDEST POP POP SWAP2 SWAP1 POP JUMP JUMPDEST PUSH1 0x0 PUSH1 0x60 DUP3 ADD SWAP1 POP PUSH2 0xF4B PUSH1 0x0 DUP4 ADD DUP7 PUSH2 0xCD5 JUMP JUMPDEST PUSH2 0xF58 PUSH1 0x20 DUP4 ADD DUP6 PUSH2 0xD62 JUMP JUMPDEST PUSH2 0xF65 PUSH1 0x40 DUP4 ADD DUP5 PUSH2 0xD62 JUMP JUMPDEST SWAP5 SWAP4 POP POP POP POP JUMP JUMPDEST PUSH1 0x80 MLOAD PUSH1 0xA0 MLOAD PUSH1 0xC0 MLOAD PUSH1 0xE0 MLOAD PUSH2 0x100 MLOAD PUSH2 0x120 MLOAD PUSH2 0x140 MLOAD PUSH2 0x5610 PUSH2 0xFC7 PUSH1 0x0 CODECOPY PUSH1 0x0 PUSH2 0x31D1 ADD MSTORE PUSH1 0x0 PUSH2 0x3196 ADD MSTORE PUSH1 0x0 PUSH2 0x379E ADD MSTORE PUSH1 0x0 PUSH2 0x377D ADD MSTORE PUSH1 0x0 PUSH2 0x2D81 ADD MSTORE PUSH1 0x0 PUSH2 0x2DD7 ADD MSTORE PUSH1 0x0 PUSH2 0x2E00 ADD MSTORE PUSH2 0x5610 PUSH1 0x0 RETURN INVALID PUSH1 0x80 PUSH1 0x40 MSTORE PUSH1 0x4 CALLDATASIZE LT PUSH2 0x414 JUMPI PUSH1 0x0 CALLDATALOAD PUSH1 0xE0 SHR DUP1 PUSH4 0x715018A6 GT PUSH2 0x21E JUMPI DUP1 PUSH4 0xAB39F08A GT PUSH2 0x123 JUMPI DUP1 PUSH4 0xCB4B4FF9 GT PUSH2 0xAB JUMPI DUP1 PUSH4 0xDD62ED3E GT PUSH2 0x7A JUMPI DUP1 PUSH4 0xDD62ED3E EQ PUSH2 0x1007 JUMPI DUP1 PUSH4 0xF2FDE38B EQ PUSH2 0x1044 JUMPI DUP1 PUSH4 0xFD5661B6 EQ PUSH2 0x106D JUMPI DUP1 PUSH4 0xFD99CBED EQ PUSH2 0x1084 JUMPI DUP1 PUSH4 0xFDB20CCB EQ PUSH2 0x10AF JUMPI PUSH2 0x454 JUMP JUMPDEST DUP1 PUSH4 0xCB4B4FF9 EQ PUSH2 0xF5D JUMPI DUP1 PUSH4 0xCCE29EA7 EQ PUSH2 0xF88 JUMPI DUP1 PUSH4 0xD50234C4 EQ PUSH2 0xFB3 JUMPI DUP1 PUSH4 0xD505ACCF EQ PUSH2 0xFDE JUMPI PUSH2 0x454 JUMP JUMPDEST DUP1 PUSH4 0xB68ED11F GT PUSH2 0xF2 JUMPI DUP1 PUSH4 0xB68ED11F EQ PUSH2 0xE74 JUMPI DUP1 PUSH4 0xBDA95633 EQ PUSH2 0xE9F JUMPI DUP1 PUSH4 0xBDE7A37A EQ PUSH2 0xECA JUMPI DUP1 PUSH4 0xC7B5A48C EQ PUSH2 0xEF5 JUMPI DUP1 PUSH4 0xC7BA0266 EQ PUSH2 0xF20 JUMPI PUSH2 0x454 JUMP JUMPDEST DUP1 PUSH4 0xAB39F08A EQ PUSH2 0xDC5 JUMPI DUP1 PUSH4 0xB0E68630 EQ PUSH2 0xE02 JUMPI DUP1 PUSH4 0xB144662D EQ PUSH2 0xE2D JUMPI DUP1 PUSH4 0xB31C2F72 EQ PUSH2 0xE49 JUMPI PUSH2 0x454 JUMP JUMPDEST DUP1 PUSH4 0x902D55A5 GT PUSH2 0x1A6 JUMPI DUP1 PUSH4 0x9B19251A GT PUSH2 0x175 JUMPI DUP1 PUSH4 0x9B19251A EQ PUSH2 0xCB8 JUMPI DUP1 PUSH4 0x9E54585F EQ PUSH2 0xCF5 JUMPI DUP1 PUSH4 0xA290EB2D EQ PUSH2 0xD32 JUMPI DUP1 PUSH4 0xA6C3E531 EQ PUSH2 0xD5D JUMPI DUP1 PUSH4 0xA9059CBB EQ PUSH2 0xD88 JUMPI PUSH2 0x454 JUMP JUMPDEST DUP1 PUSH4 0x902D55A5 EQ PUSH2 0xC0C JUMPI DUP1 PUSH4 0x920168B3 EQ PUSH2 0xC37 JUMPI DUP1 PUSH4 0x95D89B41 EQ PUSH2 0xC62 JUMPI DUP1 PUSH4 0x9843EAE3 EQ PUSH2 0xC8D JUMPI PUSH2 0x454 JUMP JUMPDEST DUP1 PUSH4 0x7ECEBE00 GT PUSH2 0x1ED JUMPI DUP1 PUSH4 0x7ECEBE00 EQ PUSH2 0xB1D JUMPI DUP1 PUSH4 0x806019C1 EQ PUSH2 0xB5A JUMPI DUP1 PUSH4 0x84B0196E EQ PUSH2 0xB85 JUMPI DUP1 PUSH4 0x8DA5CB5B EQ PUSH2 0xBB6 JUMPI DUP1 PUSH4 0x8F7713FF EQ PUSH2 0xBE1 JUMPI PUSH2 0x454 JUMP JUMPDEST DUP1 PUSH4 0x715018A6 EQ PUSH2 0xA87 JUMPI DUP1 PUSH4 0x7343B05C EQ PUSH2 0xA9E JUMPI DUP1 PUSH4 0x7547C7A3 EQ PUSH2 0xAC9 JUMPI DUP1 PUSH4 0x78D9169C EQ PUSH2 0xAF2 JUMPI PUSH2 0x454 JUMP JUMPDEST DUP1 PUSH4 0x50195F81 GT PUSH2 0x324 JUMPI DUP1 PUSH4 0x5FB3B944 GT PUSH2 0x2AC JUMPI DUP1 PUSH4 0x6AD7ED37 GT PUSH2 0x27B JUMPI DUP1 PUSH4 0x6AD7ED37 EQ PUSH2 0x99E JUMPI DUP1 PUSH4 0x6AFB630A EQ PUSH2 0x9C9 JUMPI DUP1 PUSH4 0x6B0651DB EQ PUSH2 0x9F4 JUMPI DUP1 PUSH4 0x6DDB627C EQ PUSH2 0xA1F JUMPI DUP1 PUSH4 0x70A08231 EQ PUSH2 0xA4A JUMPI PUSH2 0x454 JUMP JUMPDEST DUP1 PUSH4 0x5FB3B944 EQ PUSH2 0x8F4 JUMPI DUP1 PUSH4 0x644FE3AE EQ PUSH2 0x91F JUMPI DUP1 PUSH4 0x6705A003 EQ PUSH2 0x936 JUMPI DUP1 PUSH4 0x6985E6D8 EQ PUSH2 0x961 JUMPI PUSH2 0x454 JUMP JUMPDEST DUP1 PUSH4 0x59FA61A0 GT PUSH2 0x2F3 JUMPI DUP1 PUSH4 0x59FA61A0 EQ PUSH2 0x80D JUMPI DUP1 PUSH4 0x5B884160 EQ PUSH2 0x84A JUMPI DUP1 PUSH4 0x5C975ABB EQ PUSH2 0x875 JUMPI DUP1 PUSH4 0x5D5F26FE EQ PUSH2 0x8A0 JUMPI DUP1 PUSH4 0x5E39922A EQ PUSH2 0x8DD JUMPI PUSH2 0x454 JUMP JUMPDEST DUP1 PUSH4 0x50195F81 EQ PUSH2 0x798 JUMPI DUP1 PUSH4 0x51858E27 EQ PUSH2 0x7B4 JUMPI DUP1 PUSH4 0x54DD1DA4 EQ PUSH2 0x7CB JUMPI DUP1 PUSH4 0x598CF195 EQ PUSH2 0x7E2 JUMPI PUSH2 0x454 JUMP JUMPDEST DUP1 PUSH4 0x2B1CBC38 GT PUSH2 0x3A7 JUMPI DUP1 PUSH4 0x3644E515 GT PUSH2 0x376 JUMPI DUP1 PUSH4 0x3644E515 EQ PUSH2 0x6D5 JUMPI DUP1 PUSH4 0x3F4BA83A EQ PUSH2 0x700 JUMPI DUP1 PUSH4 0x40306FB6 EQ PUSH2 0x717 JUMPI DUP1 PUSH4 0x43248084 EQ PUSH2 0x742 JUMPI DUP1 PUSH4 0x4CFC4D30 EQ PUSH2 0x76D JUMPI PUSH2 0x454 JUMP JUMPDEST DUP1 PUSH4 0x2B1CBC38 EQ PUSH2 0x619 JUMPI DUP1 PUSH4 0x313CE567 EQ PUSH2 0x656 JUMPI DUP1 PUSH4 0x315A095D EQ PUSH2 0x681 JUMPI DUP1 PUSH4 0x34D70532 EQ PUSH2 0x6AA JUMPI PUSH2 0x454 JUMP JUMPDEST DUP1 PUSH4 0x18160DDD GT PUSH2 0x3E3 JUMPI DUP1 PUSH4 0x18160DDD EQ PUSH2 0x571 JUMPI DUP1 PUSH4 0x23B872DD EQ PUSH2 0x59C JUMPI DUP1 PUSH4 0x24600FC3 EQ PUSH2 0x5D9 JUMPI DUP1 PUSH4 0x297155C9 EQ PUSH2 0x5F0 JUMPI PUSH2 0x454 JUMP JUMPDEST DUP1 PUSH4 0x3F0CC64 EQ PUSH2 0x48F JUMPI DUP1 PUSH4 0x6FDDE03 EQ PUSH2 0x4CC JUMPI DUP1 PUSH4 0x95EA7B3 EQ PUSH2 0x4F7 JUMPI DUP1 PUSH4 0x16934FC4 EQ PUSH2 0x534 JUMPI PUSH2 0x454 JUMP JUMPDEST CALLDATASIZE PUSH2 0x454 JUMPI PUSH1 0x40 MLOAD PUSH32 0x8C379A000000000000000000000000000000000000000000000000000000000 DUP2 MSTORE PUSH1 0x4 ADD PUSH2 0x44B SWAP1 PUSH2 0x3CC7 JUMP JUMPDEST PUSH1 0x40 MLOAD DUP1 SWAP2 SUB SWAP1 REVERT JUMPDEST PUSH1 0x40 MLOAD PUSH32 0x8C379A000000000000000000000000000000000000000000000000000000000 DUP2 MSTORE PUSH1 0x4 ADD PUSH2 0x486 SWAP1 PUSH2 0x3CC7 JUMP JUMPDEST PUSH1 0x40 MLOAD DUP1 SWAP2 SUB SWAP1 REVERT JUMPDEST CALLVALUE DUP1 ISZERO PUSH2 0x49B JUMPI PUSH1 0x0 DUP1 REVERT JUMPDEST POP PUSH2 0x4B6 PUSH1 0x4 DUP1 CALLDATASIZE SUB DUP2 ADD SWAP1 PUSH2 0x4B1 SWAP2 SWAP1 PUSH2 0x3D59 JUMP JUMPDEST PUSH2 0x10F0 JUMP JUMPDEST PUSH1 0x40 MLOAD PUSH2 0x4C3 SWAP2 SWAP1 PUSH2 0x3E05 JUMP JUMPDEST PUSH1 0x40 MLOAD DUP1 SWAP2 SUB SWAP1 RETURN JUMPDEST CALLVALUE DUP1 ISZERO PUSH2 0x4D8 JUMPI PUSH1 0x0 DUP1 REVERT JUMPDEST POP PUSH2 0x4E1 PUSH2 0x1190 JUMP JUMPDEST PUSH1 0x40 MLOAD PUSH2 0x4EE SWAP2 SWAP1 PUSH2 0x3E05 JUMP JUMPDEST PUSH1 0x40 MLOAD DUP1 SWAP2 SUB SWAP1 RETURN JUMPDEST CALLVALUE DUP1 ISZERO PUSH2 0x503 JUMPI PUSH1 0x0 DUP1 REVERT JUMPDEST POP PUSH2 0x51E PUSH1 0x4 DUP1 CALLDATASIZE SUB DUP2 ADD SWAP1 PUSH2 0x519 SWAP2 SWAP1 PUSH2 0x3E5D JUMP JUMPDEST PUSH2 0x1222 JUMP JUMPDEST PUSH1 0x40 MLOAD PUSH2 0x52B SWAP2 SWAP1 PUSH2 0x3EB8 JUMP JUMPDEST PUSH1 0x40 MLOAD DUP1 SWAP2 SUB SWAP1 RETURN JUMPDEST CALLVALUE DUP1 ISZERO PUSH2 0x540 JUMPI PUSH1 0x0 DUP1 REVERT JUMPDEST POP PUSH2 0x55B PUSH1 0x4 DUP1 CALLDATASIZE SUB DUP2 ADD SWAP1 PUSH2 0x556 SWAP2 SWAP1 PUSH2 0x3D59 JUMP JUMPDEST PUSH2 0x1245 JUMP JUMPDEST PUSH1 0x40 MLOAD PUSH2 0x568 SWAP2 SWAP1 PUSH2 0x3EE2 JUMP JUMPDEST PUSH1 0x40 MLOAD DUP1 SWAP2 SUB SWAP1 RETURN JUMPDEST CALLVALUE DUP1 ISZERO PUSH2 0x57D JUMPI PUSH1 0x0 DUP1 REVERT JUMPDEST POP PUSH2 0x586 PUSH2 0x125D JUMP JUMPDEST PUSH1 0x40 MLOAD PUSH2 0x593 SWAP2 SWAP1 PUSH2 0x3EE2 JUMP JUMPDEST PUSH1 0x40 MLOAD DUP1 SWAP2 SUB SWAP1 RETURN JUMPDEST CALLVALUE DUP1 ISZERO PUSH2 0x5A8 JUMPI PUSH1 0x0 DUP1 REVERT JUMPDEST POP PUSH2 0x5C3 PUSH1 0x4 DUP1 CALLDATASIZE SUB DUP2 ADD SWAP1 PUSH2 0x5BE SWAP2 SWAP1 PUSH2 0x3EFD JUMP JUMPDEST PUSH2 0x1267 JUMP JUMPDEST PUSH1 0x40 MLOAD PUSH2 0x5D0 SWAP2 SWAP1 PUSH2 0x3EB8 JUMP JUMPDEST PUSH1 0x40 MLOAD DUP1 SWAP2 SUB SWAP1 RETURN JUMPDEST CALLVALUE DUP1 ISZERO PUSH2 0x5E5 JUMPI PUSH1 0x0 DUP1 REVERT JUMPDEST POP PUSH2 0x5EE PUSH2 0x1296 JUMP JUMPDEST STOP JUMPDEST CALLVALUE DUP1 ISZERO PUSH2 0x5FC JUMPI PUSH1 0x0 DUP1 REVERT JUMPDEST POP PUSH2 0x617 PUSH1 0x4 DUP1 CALLDATASIZE SUB DUP2 ADD SWAP1 PUSH2 0x612 SWAP2 SWAP1 PUSH2 0x3F50 JUMP JUMPDEST PUSH2 0x13AD JUMP JUMPDEST STOP JUMPDEST CALLVALUE DUP1 ISZERO PUSH2 0x625 JUMPI PUSH1 0x0 DUP1 REVERT JUMPDEST POP PUSH2 0x640 PUSH1 0x4 DUP1 CALLDATASIZE SUB DUP2 ADD SWAP1 PUSH2 0x63B SWAP2 SWAP1 PUSH2 0x3D59 JUMP JUMPDEST PUSH2 0x141C JUMP JUMPDEST PUSH1 0x40 MLOAD PUSH2 0x64D SWAP2 SWAP1 PUSH2 0x3EE2 JUMP JUMPDEST PUSH1 0x40 MLOAD DUP1 SWAP2 SUB SWAP1 RETURN JUMPDEST CALLVALUE DUP1 ISZERO PUSH2 0x662 JUMPI PUSH1 0x0 DUP1 REVERT JUMPDEST POP PUSH2 0x66B PUSH2 0x1433 JUMP JUMPDEST PUSH1 0x40 MLOAD PUSH2 0x678 SWAP2 SWAP1 PUSH2 0x3F99 JUMP JUMPDEST PUSH1 0x40 MLOAD DUP1 SWAP2 SUB SWAP1 RETURN JUMPDEST CALLVALUE DUP1 ISZERO PUSH2 0x68D JUMPI PUSH1 0x0 DUP1 REVERT JUMPDEST POP PUSH2 0x6A8 PUSH1 0x4 DUP1 CALLDATASIZE SUB DUP2 ADD SWAP1 PUSH2 0x6A3 SWAP2 SWAP1 PUSH2 0x3F50 JUMP JUMPDEST PUSH2 0x143C JUMP JUMPDEST STOP JUMPDEST CALLVALUE DUP1 ISZERO PUSH2 0x6B6 JUMPI PUSH1 0x0 DUP1 REVERT JUMPDEST POP PUSH2 0x6BF PUSH2 0x14B4 JUMP JUMPDEST PUSH1 0x40 MLOAD PUSH2 0x6CC SWAP2 SWAP1 PUSH2 0x3EE2 JUMP JUMPDEST PUSH1 0x40 MLOAD DUP1 SWAP2 SUB SWAP1 RETURN JUMPDEST CALLVALUE DUP1 ISZERO PUSH2 0x6E1 JUMPI PUSH1 0x0 DUP1 REVERT JUMPDEST POP PUSH2 0x6EA PUSH2 0x14BA JUMP JUMPDEST PUSH1 0x40 MLOAD PUSH2 0x6F7 SWAP2 SWAP1 PUSH2 0x3FCD JUMP JUMPDEST PUSH1 0x40 MLOAD DUP1 SWAP2 SUB SWAP1 RETURN JUMPDEST CALLVALUE DUP1 ISZERO PUSH2 0x70C JUMPI PUSH1 0x0 DUP1 REVERT JUMPDEST POP PUSH2 0x715 PUSH2 0x14C9 JUMP JUMPDEST STOP JUMPDEST CALLVALUE DUP1 ISZERO PUSH2 0x723 JUMPI PUSH1 0x0 DUP1 REVERT JUMPDEST POP PUSH2 0x72C PUSH2 0x14DB JUMP JUMPDEST PUSH1 0x40 MLOAD PUSH2 0x739 SWAP2 SWAP1 PUSH2 0x3EE2 JUMP JUMPDEST PUSH1 0x40 MLOAD DUP1 SWAP2 SUB SWAP1 RETURN JUMPDEST CALLVALUE DUP1 ISZERO PUSH2 0x74E JUMPI PUSH1 0x0 DUP1 REVERT JUMPDEST POP PUSH2 0x757 PUSH2 0x14E1 JUMP JUMPDEST PUSH1 0x40 MLOAD PUSH2 0x764 SWAP2 SWAP1 PUSH2 0x3EB8 JUMP JUMPDEST PUSH1 0x40 MLOAD DUP1 SWAP2 SUB SWAP1 RETURN JUMPDEST CALLVALUE DUP1 ISZERO PUSH2 0x779 JUMPI PUSH1 0x0 DUP1 REVERT JUMPDEST POP PUSH2 0x782 PUSH2 0x14F4 JUMP JUMPDEST PUSH1 0x40 MLOAD PUSH2 0x78F SWAP2 SWAP1 PUSH2 0x3EE2 JUMP JUMPDEST PUSH1 0x40 MLOAD DUP1 SWAP2 SUB SWAP1 RETURN JUMPDEST PUSH2 0x7B2 PUSH1 0x4 DUP1 CALLDATASIZE SUB DUP2 ADD SWAP1 PUSH2 0x7AD SWAP2 SWAP1 PUSH2 0x404D JUMP JUMPDEST PUSH2 0x14FB JUMP JUMPDEST STOP JUMPDEST CALLVALUE DUP1 ISZERO PUSH2 0x7C0 JUMPI PUSH1 0x0 DUP1 REVERT JUMPDEST POP PUSH2 0x7C9 PUSH2 0x18FC JUMP JUMPDEST STOP JUMPDEST CALLVALUE DUP1 ISZERO PUSH2 0x7D7 JUMPI PUSH1 0x0 DUP1 REVERT JUMPDEST POP PUSH2 0x7E0 PUSH2 0x190E JUMP JUMPDEST STOP JUMPDEST CALLVALUE DUP1 ISZERO PUSH2 0x7EE JUMPI PUSH1 0x0 DUP1 REVERT JUMPDEST POP PUSH2 0x7F7 PUSH2 0x1B54 JUMP JUMPDEST PUSH1 0x40 MLOAD PUSH2 0x804 SWAP2 SWAP1 PUSH2 0x3EE2 JUMP JUMPDEST PUSH1 0x40 MLOAD DUP1 SWAP2 SUB SWAP1 RETURN JUMPDEST CALLVALUE DUP1 ISZERO PUSH2 0x819 JUMPI PUSH1 0x0 DUP1 REVERT JUMPDEST POP PUSH2 0x834 PUSH1 0x4 DUP1 CALLDATASIZE SUB DUP2 ADD SWAP1 PUSH2 0x82F SWAP2 SWAP1 PUSH2 0x41DD JUMP JUMPDEST PUSH2 0x1B63 JUMP JUMPDEST PUSH1 0x40 MLOAD PUSH2 0x841 SWAP2 SWAP1 PUSH2 0x4235 JUMP JUMPDEST PUSH1 0x40 MLOAD DUP1 SWAP2 SUB SWAP1 RETURN JUMPDEST CALLVALUE DUP1 ISZERO PUSH2 0x856 JUMPI PUSH1 0x0 DUP1 REVERT JUMPDEST POP PUSH2 0x85F PUSH2 0x1BAC JUMP JUMPDEST PUSH1 0x40 MLOAD PUSH2 0x86C SWAP2 SWAP1 PUSH2 0x3EE2 JUMP JUMPDEST PUSH1 0x40 MLOAD DUP1 SWAP2 SUB SWAP1 RETURN JUMPDEST CALLVALUE DUP1 ISZERO PUSH2 0x881 JUMPI PUSH1 0x0 DUP1 REVERT JUMPDEST POP PUSH2 0x88A PUSH2 0x1BBC JUMP JUMPDEST PUSH1 0x40 MLOAD PUSH2 0x897 SWAP2 SWAP1 PUSH2 0x3EB8 JUMP JUMPDEST PUSH1 0x40 MLOAD DUP1 SWAP2 SUB SWAP1 RETURN JUMPDEST CALLVALUE DUP1 ISZERO PUSH2 0x8AC JUMPI PUSH1 0x0 DUP1 REVERT JUMPDEST POP PUSH2 0x8C7 PUSH1 0x4 DUP1 CALLDATASIZE SUB DUP2 ADD SWAP1 PUSH2 0x8C2 SWAP2 SWAP1 PUSH2 0x3D59 JUMP JUMPDEST PUSH2 0x1BD3 JUMP JUMPDEST PUSH1 0x40 MLOAD PUSH2 0x8D4 SWAP2 SWAP1 PUSH2 0x3EE2 JUMP JUMPDEST PUSH1 0x40 MLOAD DUP1 SWAP2 SUB SWAP1 RETURN JUMPDEST CALLVALUE DUP1 ISZERO PUSH2 0x8E9 JUMPI PUSH1 0x0 DUP1 REVERT JUMPDEST POP PUSH2 0x8F2 PUSH2 0x1BEB JUMP JUMPDEST STOP JUMPDEST CALLVALUE DUP1 ISZERO PUSH2 0x900 JUMPI PUSH1 0x0 DUP1 REVERT JUMPDEST POP PUSH2 0x909 PUSH2 0x1C93 JUMP JUMPDEST PUSH1 0x40 MLOAD PUSH2 0x916 SWAP2 SWAP1 PUSH2 0x3EE2 JUMP JUMPDEST PUSH1 0x40 MLOAD DUP1 SWAP2 SUB SWAP1 RETURN JUMPDEST CALLVALUE DUP1 ISZERO PUSH2 0x92B JUMPI PUSH1 0x0 DUP1 REVERT JUMPDEST POP PUSH2 0x934 PUSH2 0x1C99 JUMP JUMPDEST STOP JUMPDEST CALLVALUE DUP1 ISZERO PUSH2 0x942 JUMPI PUSH1 0x0 DUP1 REVERT JUMPDEST POP PUSH2 0x94B PUSH2 0x1D35 JUMP JUMPDEST PUSH1 0x40 MLOAD PUSH2 0x958 SWAP2 SWAP1 PUSH2 0x3EE2 JUMP JUMPDEST PUSH1 0x40 MLOAD DUP1 SWAP2 SUB SWAP1 RETURN JUMPDEST CALLVALUE DUP1 ISZERO PUSH2 0x96D JUMPI PUSH1 0x0 DUP1 REVERT JUMPDEST POP PUSH2 0x988 PUSH1 0x4 DUP1 CALLDATASIZE SUB DUP2 ADD SWAP1 PUSH2 0x983 SWAP2 SWAP1 PUSH2 0x3D59 JUMP JUMPDEST PUSH2 0x1D3B JUMP JUMPDEST PUSH1 0x40 MLOAD PUSH2 0x995 SWAP2 SWAP1 PUSH2 0x3EE2 JUMP JUMPDEST PUSH1 0x40 MLOAD DUP1 SWAP2 SUB SWAP1 RETURN JUMPDEST CALLVALUE DUP1 ISZERO PUSH2 0x9AA JUMPI PUSH1 0x0 DUP1 REVERT JUMPDEST POP PUSH2 0x9B3 PUSH2 0x1D53 JUMP JUMPDEST PUSH1 0x40 MLOAD PUSH2 0x9C0 SWAP2 SWAP1 PUSH2 0x3EE2 JUMP JUMPDEST PUSH1 0x40 MLOAD DUP1 SWAP2 SUB SWAP1 RETURN JUMPDEST CALLVALUE DUP1 ISZERO PUSH2 0x9D5 JUMPI PUSH1 0x0 DUP1 REVERT JUMPDEST POP PUSH2 0x9DE PUSH2 0x1D59 JUMP JUMPDEST PUSH1 0x40 MLOAD PUSH2 0x9EB SWAP2 SWAP1 PUSH2 0x3EE2 JUMP JUMPDEST PUSH1 0x40 MLOAD DUP1 SWAP2 SUB SWAP1 RETURN JUMPDEST CALLVALUE DUP1 ISZERO PUSH2 0xA00 JUMPI PUSH1 0x0 DUP1 REVERT JUMPDEST POP PUSH2 0xA09 PUSH2 0x1D61 JUMP JUMPDEST PUSH1 0x40 MLOAD PUSH2 0xA16 SWAP2 SWAP1 PUSH2 0x3EE2 JUMP JUMPDEST PUSH1 0x40 MLOAD DUP1 SWAP2 SUB SWAP1 RETURN JUMPDEST CALLVALUE DUP1 ISZERO PUSH2 0xA2B JUMPI PUSH1 0x0 DUP1 REVERT JUMPDEST POP PUSH2 0xA34 PUSH2 0x1D70 JUMP JUMPDEST PUSH1 0x40 MLOAD PUSH2 0xA41 SWAP2 SWAP1 PUSH2 0x3EE2 JUMP JUMPDEST PUSH1 0x40 MLOAD DUP1 SWAP2 SUB SWAP1 RETURN JUMPDEST CALLVALUE DUP1 ISZERO PUSH2 0xA56 JUMPI PUSH1 0x0 DUP1 REVERT JUMPDEST POP PUSH2 0xA71 PUSH1 0x4 DUP1 CALLDATASIZE SUB DUP2 ADD SWAP1 PUSH2 0xA6C SWAP2 SWAP1 PUSH2 0x3D59 JUMP JUMPDEST PUSH2 0x1D7F JUMP JUMPDEST PUSH1 0x40 MLOAD PUSH2 0xA7E SWAP2 SWAP1 PUSH2 0x3EE2 JUMP JUMPDEST PUSH1 0x40 MLOAD DUP1 SWAP2 SUB SWAP1 RETURN JUMPDEST CALLVALUE DUP1 ISZERO PUSH2 0xA93 JUMPI PUSH1 0x0 DUP1 REVERT JUMPDEST POP PUSH2 0xA9C PUSH2 0x1DC7 JUMP JUMPDEST STOP JUMPDEST CALLVALUE DUP1 ISZERO PUSH2 0xAAA JUMPI PUSH1 0x0 DUP1 REVERT JUMPDEST POP PUSH2 0xAB3 PUSH2 0x1DDB JUMP JUMPDEST PUSH1 0x40 MLOAD PUSH2 0xAC0 SWAP2 SWAP1 PUSH2 0x3EB8 JUMP JUMPDEST PUSH1 0x40 MLOAD DUP1 SWAP2 SUB SWAP1 RETURN JUMPDEST CALLVALUE DUP1 ISZERO PUSH2 0xAD5 JUMPI PUSH1 0x0 DUP1 REVERT JUMPDEST POP PUSH2 0xAF0 PUSH1 0x4 DUP1 CALLDATASIZE SUB DUP2 ADD SWAP1 PUSH2 0xAEB SWAP2 SWAP1 PUSH2 0x3F50 JUMP JUMPDEST PUSH2 0x1DEE JUMP JUMPDEST STOP JUMPDEST CALLVALUE DUP1 ISZERO PUSH2 0xAFE JUMPI PUSH1 0x0 DUP1 REVERT JUMPDEST POP PUSH2 0xB07 PUSH2 0x207B JUMP JUMPDEST PUSH1 0x40 MLOAD PUSH2 0xB14 SWAP2 SWAP1 PUSH2 0x3EE2 JUMP JUMPDEST PUSH1 0x40 MLOAD DUP1 SWAP2 SUB SWAP1 RETURN JUMPDEST CALLVALUE DUP1 ISZERO PUSH2 0xB29 JUMPI PUSH1 0x0 DUP1 REVERT JUMPDEST POP PUSH2 0xB44 PUSH1 0x4 DUP1 CALLDATASIZE SUB DUP2 ADD SWAP1 PUSH2 0xB3F SWAP2 SWAP1 PUSH2 0x3D59 JUMP JUMPDEST PUSH2 0x2085 JUMP JUMPDEST PUSH1 0x40 MLOAD PUSH2 0xB51 SWAP2 SWAP1 PUSH2 0x3EE2 JUMP JUMPDEST PUSH1 0x40 MLOAD DUP1 SWAP2 SUB SWAP1 RETURN JUMPDEST CALLVALUE DUP1 ISZERO PUSH2 0xB66 JUMPI PUSH1 0x0 DUP1 REVERT JUMPDEST POP PUSH2 0xB6F PUSH2 0x2097 JUMP JUMPDEST PUSH1 0x40 MLOAD PUSH2 0xB7C SWAP2 SWAP1 PUSH2 0x3EE2 JUMP JUMPDEST PUSH1 0x40 MLOAD DUP1 SWAP2 SUB SWAP1 RETURN JUMPDEST CALLVALUE DUP1 ISZERO PUSH2 0xB91 JUMPI PUSH1 0x0 DUP1 REVERT JUMPDEST POP PUSH2 0xB9A PUSH2 0x209D JUMP JUMPDEST PUSH1 0x40 MLOAD PUSH2 0xBAD SWAP8 SWAP7 SWAP6 SWAP5 SWAP4 SWAP3 SWAP2 SWAP1 PUSH2 0x4349 JUMP JUMPDEST PUSH1 0x40 MLOAD DUP1 SWAP2 SUB SWAP1 RETURN JUMPDEST CALLVALUE DUP1 ISZERO PUSH2 0xBC2 JUMPI PUSH1 0x0 DUP1 REVERT JUMPDEST POP PUSH2 0xBCB PUSH2 0x2147 JUMP JUMPDEST PUSH1 0x40 MLOAD PUSH2 0xBD8 SWAP2 SWAP1 PUSH2 0x4235 JUMP JUMPDEST PUSH1 0x40 MLOAD DUP1 SWAP2 SUB SWAP1 RETURN JUMPDEST CALLVALUE DUP1 ISZERO PUSH2 0xBED JUMPI PUSH1 0x0 DUP1 REVERT JUMPDEST POP PUSH2 0xBF6 PUSH2 0x2171 JUMP JUMPDEST PUSH1 0x40 MLOAD PUSH2 0xC03 SWAP2 SWAP1 PUSH2 0x3EE2 JUMP JUMPDEST PUSH1 0x40 MLOAD DUP1 SWAP2 SUB SWAP1 RETURN JUMPDEST CALLVALUE DUP1 ISZERO PUSH2 0xC18 JUMPI PUSH1 0x0 DUP1 REVERT JUMPDEST POP PUSH2 0xC21 PUSH2 0x2177 JUMP JUMPDEST PUSH1 0x40 MLOAD PUSH2 0xC2E SWAP2 SWAP1 PUSH2 0x3EE2 JUMP JUMPDEST PUSH1 0x40 MLOAD DUP1 SWAP2 SUB SWAP1 RETURN JUMPDEST CALLVALUE DUP1 ISZERO PUSH2 0xC43 JUMPI PUSH1 0x0 DUP1 REVERT JUMPDEST POP PUSH2 0xC4C PUSH2 0x2187 JUMP JUMPDEST PUSH1 0x40 MLOAD PUSH2 0xC59 SWAP2 SWAP1 PUSH2 0x3EE2 JUMP JUMPDEST PUSH1 0x40 MLOAD DUP1 SWAP2 SUB SWAP1 RETURN JUMPDEST CALLVALUE DUP1 ISZERO PUSH2 0xC6E JUMPI PUSH1 0x0 DUP1 REVERT JUMPDEST POP PUSH2 0xC77 PUSH2 0x218D JUMP JUMPDEST PUSH1 0x40 MLOAD PUSH2 0xC84 SWAP2 SWAP1 PUSH2 0x3E05 JUMP JUMPDEST PUSH1 0x40 MLOAD DUP1 SWAP2 SUB SWAP1 RETURN JUMPDEST CALLVALUE DUP1 ISZERO PUSH2 0xC99 JUMPI PUSH1 0x0 DUP1 REVERT JUMPDEST POP PUSH2 0xCA2 PUSH2 0x221F JUMP JUMPDEST PUSH1 0x40 MLOAD PUSH2 0xCAF SWAP2 SWAP1 PUSH2 0x3EB8 JUMP JUMPDEST PUSH1 0x40 MLOAD DUP1 SWAP2 SUB SWAP1 RETURN JUMPDEST CALLVALUE DUP1 ISZERO PUSH2 0xCC4 JUMPI PUSH1 0x0 DUP1 REVERT JUMPDEST POP PUSH2 0xCDF PUSH1 0x4 DUP1 CALLDATASIZE SUB DUP2 ADD SWAP1 PUSH2 0xCDA SWAP2 SWAP1 PUSH2 0x3D59 JUMP JUMPDEST PUSH2 0x2232 JUMP JUMPDEST PUSH1 0x40 MLOAD PUSH2 0xCEC SWAP2 SWAP1 PUSH2 0x3EB8 JUMP JUMPDEST PUSH1 0x40 MLOAD DUP1 SWAP2 SUB SWAP1 RETURN JUMPDEST CALLVALUE DUP1 ISZERO PUSH2 0xD01 JUMPI PUSH1 0x0 DUP1 REVERT JUMPDEST POP PUSH2 0xD1C PUSH1 0x4 DUP1 CALLDATASIZE SUB DUP2 ADD SWAP1 PUSH2 0xD17 SWAP2 SWAP1 PUSH2 0x3D59 JUMP JUMPDEST PUSH2 0x2252 JUMP JUMPDEST PUSH1 0x40 MLOAD PUSH2 0xD29 SWAP2 SWAP1 PUSH2 0x3EE2 JUMP JUMPDEST PUSH1 0x40 MLOAD DUP1 SWAP2 SUB SWAP1 RETURN JUMPDEST CALLVALUE DUP1 ISZERO PUSH2 0xD3E JUMPI PUSH1 0x0 DUP1 REVERT JUMPDEST POP PUSH2 0xD47 PUSH2 0x229B JUMP JUMPDEST PUSH1 0x40 MLOAD PUSH2 0xD54 SWAP2 SWAP1 PUSH2 0x3EE2 JUMP JUMPDEST PUSH1 0x40 MLOAD DUP1 SWAP2 SUB SWAP1 RETURN JUMPDEST CALLVALUE DUP1 ISZERO PUSH2 0xD69 JUMPI PUSH1 0x0 DUP1 REVERT JUMPDEST POP PUSH2 0xD72 PUSH2 0x22A5 JUMP JUMPDEST PUSH1 0x40 MLOAD PUSH2 0xD7F SWAP2 SWAP1 PUSH2 0x3EE2 JUMP JUMPDEST PUSH1 0x40 MLOAD DUP1 SWAP2 SUB SWAP1 RETURN JUMPDEST CALLVALUE DUP1 ISZERO PUSH2 0xD94 JUMPI PUSH1 0x0 DUP1 REVERT JUMPDEST POP PUSH2 0xDAF PUSH1 0x4 DUP1 CALLDATASIZE SUB DUP2 ADD SWAP1 PUSH2 0xDAA SWAP2 SWAP1 PUSH2 0x3E5D JUMP JUMPDEST PUSH2 0x22B4 JUMP JUMPDEST PUSH1 0x40 MLOAD PUSH2 0xDBC SWAP2 SWAP1 PUSH2 0x3EB8 JUMP JUMPDEST PUSH1 0x40 MLOAD DUP1 SWAP2 SUB SWAP1 RETURN JUMPDEST CALLVALUE DUP1 ISZERO PUSH2 0xDD1 JUMPI PUSH1 0x0 DUP1 REVERT JUMPDEST POP PUSH2 0xDEC PUSH1 0x4 DUP1 CALLDATASIZE SUB DUP2 ADD SWAP1 PUSH2 0xDE7 SWAP2 SWAP1 PUSH2 0x3D59 JUMP JUMPDEST PUSH2 0x22D7 JUMP JUMPDEST PUSH1 0x40 MLOAD PUSH2 0xDF9 SWAP2 SWAP1 PUSH2 0x3EB8 JUMP JUMPDEST PUSH1 0x40 MLOAD DUP1 SWAP2 SUB SWAP1 RETURN JUMPDEST CALLVALUE DUP1 ISZERO PUSH2 0xE0E JUMPI PUSH1 0x0 DUP1 REVERT JUMPDEST POP PUSH2 0xE17 PUSH2 0x22F7 JUMP JUMPDEST PUSH1 0x40 MLOAD PUSH2 0xE24 SWAP2 SWAP1 PUSH2 0x3EE2 JUMP JUMPDEST PUSH1 0x40 MLOAD DUP1 SWAP2 SUB SWAP1 RETURN JUMPDEST PUSH2 0xE47 PUSH1 0x4 DUP1 CALLDATASIZE SUB DUP2 ADD SWAP1 PUSH2 0xE42 SWAP2 SWAP1 PUSH2 0x404D JUMP JUMPDEST PUSH2 0x22FD JUMP JUMPDEST STOP JUMPDEST CALLVALUE DUP1 ISZERO PUSH2 0xE55 JUMPI PUSH1 0x0 DUP1 REVERT JUMPDEST POP PUSH2 0xE5E PUSH2 0x2759 JUMP JUMPDEST PUSH1 0x40 MLOAD PUSH2 0xE6B SWAP2 SWAP1 PUSH2 0x3EE2 JUMP JUMPDEST PUSH1 0x40 MLOAD DUP1 SWAP2 SUB SWAP1 RETURN JUMPDEST CALLVALUE DUP1 ISZERO PUSH2 0xE80 JUMPI PUSH1 0x0 DUP1 REVERT JUMPDEST POP PUSH2 0xE89 PUSH2 0x275F JUMP JUMPDEST PUSH1 0x40 MLOAD PUSH2 0xE96 SWAP2 SWAP1 PUSH2 0x3EE2 JUMP JUMPDEST PUSH1 0x40 MLOAD DUP1 SWAP2 SUB SWAP1 RETURN JUMPDEST CALLVALUE DUP1 ISZERO PUSH2 0xEAB JUMPI PUSH1 0x0 DUP1 REVERT JUMPDEST POP PUSH2 0xEB4 PUSH2 0x2765 JUMP JUMPDEST PUSH1 0x40 MLOAD PUSH2 0xEC1 SWAP2 SWAP1 PUSH2 0x3EE2 JUMP JUMPDEST PUSH1 0x40 MLOAD DUP1 SWAP2 SUB SWAP1 RETURN JUMPDEST CALLVALUE DUP1 ISZERO PUSH2 0xED6 JUMPI PUSH1 0x0 DUP1 REVERT JUMPDEST POP PUSH2 0xEDF PUSH2 0x276B JUMP JUMPDEST PUSH1 0x40 MLOAD PUSH2 0xEEC SWAP2 SWAP1 PUSH2 0x3EE2 JUMP JUMPDEST PUSH1 0x40 MLOAD DUP1 SWAP2 SUB SWAP1 RETURN JUMPDEST CALLVALUE DUP1 ISZERO PUSH2 0xF01 JUMPI PUSH1 0x0 DUP1 REVERT JUMPDEST POP PUSH2 0xF0A PUSH2 0x2771 JUMP JUMPDEST PUSH1 0x40 MLOAD PUSH2 0xF17 SWAP2 SWAP1 PUSH2 0x3EE2 JUMP JUMPDEST PUSH1 0x40 MLOAD DUP1 SWAP2 SUB SWAP1 RETURN JUMPDEST CALLVALUE DUP1 ISZERO PUSH2 0xF2C JUMPI PUSH1 0x0 DUP1 REVERT JUMPDEST POP PUSH2 0xF47 PUSH1 0x4 DUP1 CALLDATASIZE SUB DUP2 ADD SWAP1 PUSH2 0xF42 SWAP2 SWAP1 PUSH2 0x3D59 JUMP JUMPDEST PUSH2 0x2780 JUMP JUMPDEST PUSH1 0x40 MLOAD PUSH2 0xF54 SWAP2 SWAP1 PUSH2 0x3EE2 JUMP JUMPDEST PUSH1 0x40 MLOAD DUP1 SWAP2 SUB SWAP1 RETURN JUMPDEST CALLVALUE DUP1 ISZERO PUSH2 0xF69 JUMPI PUSH1 0x0 DUP1 REVERT JUMPDEST POP PUSH2 0xF72 PUSH2 0x2798 JUMP JUMPDEST PUSH1 0x40 MLOAD PUSH2 0xF7F SWAP2 SWAP1 PUSH2 0x3EE2 JUMP JUMPDEST PUSH1 0x40 MLOAD DUP1 SWAP2 SUB SWAP1 RETURN JUMPDEST CALLVALUE DUP1 ISZERO PUSH2 0xF94 JUMPI PUSH1 0x0 DUP1 REVERT JUMPDEST POP PUSH2 0xF9D PUSH2 0x27A7 JUMP JUMPDEST PUSH1 0x40 MLOAD PUSH2 0xFAA SWAP2 SWAP1 PUSH2 0x3EE2 JUMP JUMPDEST PUSH1 0x40 MLOAD DUP1 SWAP2 SUB SWAP1 RETURN JUMPDEST CALLVALUE DUP1 ISZERO PUSH2 0xFBF JUMPI PUSH1 0x0 DUP1 REVERT JUMPDEST POP PUSH2 0xFC8 PUSH2 0x27AD JUMP JUMPDEST PUSH1 0x40 MLOAD PUSH2 0xFD5 SWAP2 SWAP1 PUSH2 0x3F99 JUMP JUMPDEST PUSH1 0x40 MLOAD DUP1 SWAP2 SUB SWAP1 RETURN JUMPDEST CALLVALUE DUP1 ISZERO PUSH2 0xFEA JUMPI PUSH1 0x0 DUP1 REVERT JUMPDEST POP PUSH2 0x1005 PUSH1 0x4 DUP1 CALLDATASIZE SUB DUP2 ADD SWAP1 PUSH2 0x1000 SWAP2 SWAP1 PUSH2 0x4425 JUMP JUMPDEST PUSH2 0x27C0 JUMP JUMPDEST STOP JUMPDEST CALLVALUE DUP1 ISZERO PUSH2 0x1013 JUMPI PUSH1 0x0 DUP1 REVERT JUMPDEST POP PUSH2 0x102E PUSH1 0x4 DUP1 CALLDATASIZE SUB DUP2 ADD SWAP1 PUSH2 0x1029 SWAP2 SWAP1 PUSH2 0x44C7 JUMP JUMPDEST PUSH2 0x2908 JUMP JUMPDEST PUSH1 0x40 MLOAD PUSH2 0x103B SWAP2 SWAP1 PUSH2 0x3EE2 JUMP JUMPDEST PUSH1 0x40 MLOAD DUP1 SWAP2 SUB SWAP1 RETURN JUMPDEST CALLVALUE DUP1 ISZERO PUSH2 0x1050 JUMPI PUSH1 0x0 DUP1 REVERT JUMPDEST POP PUSH2 0x106B PUSH1 0x4 DUP1 CALLDATASIZE SUB DUP2 ADD SWAP1 PUSH2 0x1066 SWAP2 SWAP1 PUSH2 0x3D59 JUMP JUMPDEST PUSH2 0x298F JUMP JUMPDEST STOP JUMPDEST CALLVALUE DUP1 ISZERO PUSH2 0x1079 JUMPI PUSH1 0x0 DUP1 REVERT JUMPDEST POP PUSH2 0x1082 PUSH2 0x2A15 JUMP JUMPDEST STOP JUMPDEST CALLVALUE DUP1 ISZERO PUSH2 0x1090 JUMPI PUSH1 0x0 DUP1 REVERT JUMPDEST POP PUSH2 0x1099 PUSH2 0x2AB6 JUMP JUMPDEST PUSH1 0x40 MLOAD PUSH2 0x10A6 SWAP2 SWAP1 PUSH2 0x3EE2 JUMP JUMPDEST PUSH1 0x40 MLOAD DUP1 SWAP2 SUB SWAP1 RETURN JUMPDEST CALLVALUE DUP1 ISZERO PUSH2 0x10BB JUMPI PUSH1 0x0 DUP1 REVERT JUMPDEST POP PUSH2 0x10D6 PUSH1 0x4 DUP1 CALLDATASIZE SUB DUP2 ADD SWAP1 PUSH2 0x10D1 SWAP2 SWAP1 PUSH2 0x3D59 JUMP JUMPDEST PUSH2 0x2AC5 JUMP JUMPDEST PUSH1 0x40 MLOAD PUSH2 0x10E7 SWAP6 SWAP5 SWAP4 SWAP3 SWAP2 SWAP1 PUSH2 0x4507 JUMP JUMPDEST PUSH1 0x40 MLOAD DUP1 SWAP2 SUB SWAP1 RETURN JUMPDEST PUSH1 0x22 PUSH1 0x20 MSTORE DUP1 PUSH1 0x0 MSTORE PUSH1 0x40 PUSH1 0x0 KECCAK256 PUSH1 0x0 SWAP2 POP SWAP1 POP DUP1 SLOAD PUSH2 0x110F SWAP1 PUSH2 0x4589 JUMP JUMPDEST DUP1 PUSH1 0x1F ADD PUSH1 0x20 DUP1 SWAP2 DIV MUL PUSH1 0x20 ADD PUSH1 0x40 MLOAD SWAP1 DUP2 ADD PUSH1 0x40 MSTORE DUP1 SWAP3 SWAP2 SWAP1 DUP2 DUP2 MSTORE PUSH1 0x20 ADD DUP3 DUP1 SLOAD PUSH2 0x113B SWAP1 PUSH2 0x4589 JUMP JUMPDEST DUP1 ISZERO PUSH2 0x1188 JUMPI DUP1 PUSH1 0x1F LT PUSH2 0x115D JUMPI PUSH2 0x100 DUP1 DUP4 SLOAD DIV MUL DUP4 MSTORE SWAP2 PUSH1 0x20 ADD SWAP2 PUSH2 0x1188 JUMP JUMPDEST DUP3 ADD SWAP2 SWAP1 PUSH1 0x0 MSTORE PUSH1 0x20 PUSH1 0x0 KECCAK256 SWAP1 JUMPDEST DUP2 SLOAD DUP2 MSTORE SWAP1 PUSH1 0x1 ADD SWAP1 PUSH1 0x20 ADD DUP1 DUP4 GT PUSH2 0x116B JUMPI DUP3 SWAP1 SUB PUSH1 0x1F AND DUP3 ADD SWAP2 JUMPDEST POP POP POP POP POP DUP2 JUMP JUMPDEST PUSH1 0x60 PUSH1 0x3 DUP1 SLOAD PUSH2 0x119F SWAP1 PUSH2 0x4589 JUMP JUMPDEST DUP1 PUSH1 0x1F ADD PUSH1 0x20 DUP1 SWAP2 DIV MUL PUSH1 0x20 ADD PUSH1 0x40 MLOAD SWAP1 DUP2 ADD PUSH1 0x40 MSTORE DUP1 SWAP3 SWAP2 SWAP1 DUP2 DUP2 MSTORE PUSH1 0x20 ADD DUP3 DUP1 SLOAD PUSH2 0x11CB SWAP1 PUSH2 0x4589 JUMP JUMPDEST DUP1 ISZERO PUSH2 0x1218 JUMPI DUP1 PUSH1 0x1F LT PUSH2 0x11ED JUMPI PUSH2 0x100 DUP1 DUP4 SLOAD DIV MUL DUP4 MSTORE SWAP2 PUSH1 0x20 ADD SWAP2 PUSH2 0x1218 JUMP JUMPDEST DUP3 ADD SWAP2 SWAP1 PUSH1 0x0 MSTORE PUSH1 0x20 PUSH1 0x0 KECCAK256 SWAP1 JUMPDEST DUP2 SLOAD DUP2 MSTORE SWAP1 PUSH1 0x1 ADD SWAP1 PUSH1 0x20 ADD DUP1 DUP4 GT PUSH2 0x11FB JUMPI DUP3 SWAP1 SUB PUSH1 0x1F AND DUP3 ADD SWAP2 JUMPDEST POP POP POP POP POP SWAP1 POP SWAP1 JUMP JUMPDEST PUSH1 0x0 DUP1 PUSH2 0x122D PUSH2 0x2AFB JUMP JUMPDEST SWAP1 POP PUSH2 0x123A DUP2 DUP6 DUP6 PUSH2 0x2B03 JUMP JUMPDEST PUSH1 0x1 SWAP2 POP POP SWAP3 SWAP2 POP POP JUMP JUMPDEST PUSH1 0x1E PUSH1 0x20 MSTORE DUP1 PUSH1 0x0 MSTORE PUSH1 0x40 PUSH1 0x0 KECCAK256 PUSH1 0x0 SWAP2 POP SWAP1 POP SLOAD DUP2 JUMP JUMPDEST PUSH1 0x0 PUSH1 0x2 SLOAD SWAP1 POP SWAP1 JUMP JUMPDEST PUSH1 0x0 DUP1 PUSH2 0x1272 PUSH2 0x2AFB JUMP JUMPDEST SWAP1 POP PUSH2 0x127F DUP6 DUP3 DUP6 PUSH2 0x2B15 JUMP JUMPDEST PUSH2 0x128A DUP6 DUP6 DUP6 PUSH2 0x2BA9 JUMP JUMPDEST PUSH1 0x1 SWAP2 POP POP SWAP4 SWAP3 POP POP POP JUMP JUMPDEST PUSH2 0x129E PUSH2 0x2C9D JUMP JUMPDEST PUSH2 0x12A6 PUSH2 0x2D24 JUMP JUMPDEST PUSH1 0x0 SELFBALANCE SWAP1 POP PUSH1 0x0 DUP2 GT PUSH2 0x12EE JUMPI PUSH1 0x40 MLOAD PUSH32 0x8C379A000000000000000000000000000000000000000000000000000000000 DUP2 MSTORE PUSH1 0x4 ADD PUSH2 0x12E5 SWAP1 PUSH2 0x4606 JUMP JUMPDEST PUSH1 0x40 MLOAD DUP1 SWAP2 SUB SWAP1 REVERT JUMPDEST PUSH1 0x0 PUSH2 0x12F8 PUSH2 0x2147 JUMP JUMPDEST PUSH20 0xFFFFFFFFFFFFFFFFFFFFFFFFFFFFFFFFFFFFFFFF AND DUP3 PUSH1 0x40 MLOAD PUSH2 0x131B SWAP1 PUSH2 0x4657 JUMP JUMPDEST PUSH1 0x0 PUSH1 0x40 MLOAD DUP1 DUP4 SUB DUP2 DUP6 DUP8 GAS CALL SWAP3 POP POP POP RETURNDATASIZE DUP1 PUSH1 0x0 DUP2 EQ PUSH2 0x1358 JUMPI PUSH1 0x40 MLOAD SWAP2 POP PUSH1 0x1F NOT PUSH1 0x3F RETURNDATASIZE ADD AND DUP3 ADD PUSH1 0x40 MSTORE RETURNDATASIZE DUP3 MSTORE RETURNDATASIZE PUSH1 0x0 PUSH1 0x20 DUP5 ADD RETURNDATACOPY PUSH2 0x135D JUMP JUMPDEST PUSH1 0x60 SWAP2 POP JUMPDEST POP POP SWAP1 POP DUP1 PUSH2 0x13A1 JUMPI PUSH1 0x40 MLOAD PUSH32 0x8C379A000000000000000000000000000000000000000000000000000000000 DUP2 MSTORE PUSH1 0x4 ADD PUSH2 0x1398 SWAP1 PUSH2 0x46B8 JUMP JUMPDEST PUSH1 0x40 MLOAD DUP1 SWAP2 SUB SWAP1 REVERT JUMPDEST POP POP PUSH2 0x13AB PUSH2 0x2D73 JUMP JUMPDEST JUMP JUMPDEST PUSH2 0x13B5 PUSH2 0x2C9D JUMP JUMPDEST DUP1 PUSH2 0x13BF ADDRESS PUSH2 0x1D7F JUMP JUMPDEST LT ISZERO PUSH2 0x1400 JUMPI PUSH1 0x40 MLOAD PUSH32 0x8C379A000000000000000000000000000000000000000000000000000000000 DUP2 MSTORE PUSH1 0x4 ADD PUSH2 0x13F7 SWAP1 PUSH2 0x474A JUMP JUMPDEST PUSH1 0x40 MLOAD DUP1 SWAP2 SUB SWAP1 REVERT JUMPDEST DUP1 PUSH1 0xB PUSH1 0x0 DUP3 DUP3 SLOAD PUSH2 0x1412 SWAP2 SWAP1 PUSH2 0x4799 JUMP JUMPDEST SWAP3 POP POP DUP2 SWAP1 SSTORE POP POP JUMP JUMPDEST PUSH1 0x20 DUP1 MSTORE DUP1 PUSH1 0x0 MSTORE PUSH1 0x40 PUSH1 0x0 KECCAK256 PUSH1 0x0 SWAP2 POP SWAP1 POP SLOAD DUP2 JUMP JUMPDEST PUSH1 0x0 PUSH1 0x12 SWAP1 POP SWAP1 JUMP JUMPDEST PUSH2 0x1444 PUSH2 0x2C9D JUMP JUMPDEST PUSH2 0x144C PUSH2 0x2D24 JUMP JUMPDEST DUP1 PUSH2 0x1456 ADDRESS PUSH2 0x1D7F JUMP JUMPDEST LT ISZERO PUSH2 0x1497 JUMPI PUSH1 0x40 MLOAD PUSH32 0x8C379A000000000000000000000000000000000000000000000000000000000 DUP2 MSTORE PUSH1 0x4 ADD PUSH2 0x148E SWAP1 PUSH2 0x4819 JUMP JUMPDEST PUSH1 0x40 MLOAD DUP1 SWAP2 SUB SWAP1 REVERT JUMPDEST PUSH2 0x14A9 ADDRESS PUSH2 0x14A3 PUSH2 0x2147 JUMP JUMPDEST DUP4 PUSH2 0x2BA9 JUMP JUMPDEST PUSH2 0x14B1 PUSH2 0x2D73 JUMP JUMPDEST POP JUMP JUMPDEST PUSH1 0x19 SLOAD DUP2 JUMP JUMPDEST PUSH1 0x0 PUSH2 0x14C4 PUSH2 0x2D7D JUMP JUMPDEST SWAP1 POP SWAP1 JUMP JUMPDEST PUSH2 0x14D1 PUSH2 0x2C9D JUMP JUMPDEST PUSH2 0x14D9 PUSH2 0x2E34 JUMP JUMPDEST JUMP JUMPDEST PUSH1 0xC SLOAD DUP2 JUMP JUMPDEST PUSH1 0x1B PUSH1 0x0 SWAP1 SLOAD SWAP1 PUSH2 0x100 EXP SWAP1 DIV PUSH1 0xFF AND DUP2 JUMP JUMPDEST PUSH3 0xED4E00 DUP2 JUMP JUMPDEST PUSH2 0x1503 PUSH2 0x2D24 JUMP JUMPDEST PUSH2 0x150B PUSH2 0x2E97 JUMP JUMPDEST PUSH1 0x26 PUSH1 0x0 CALLER PUSH20 0xFFFFFFFFFFFFFFFFFFFFFFFFFFFFFFFFFFFFFFFF AND PUSH20 0xFFFFFFFFFFFFFFFFFFFFFFFFFFFFFFFFFFFFFFFF AND DUP2 MSTORE PUSH1 0x20 ADD SWAP1 DUP2 MSTORE PUSH1 0x20 ADD PUSH1 0x0 KECCAK256 PUSH1 0x0 SWAP1 SLOAD SWAP1 PUSH2 0x100 EXP SWAP1 DIV PUSH1 0xFF AND PUSH2 0x1597 JUMPI PUSH1 0x40 MLOAD PUSH32 0x8C379A000000000000000000000000000000000000000000000000000000000 DUP2 MSTORE PUSH1 0x4 ADD PUSH2 0x158E SWAP1 PUSH2 0x4885 JUMP JUMPDEST PUSH1 0x40 MLOAD DUP1 SWAP2 SUB SWAP1 REVERT JUMPDEST PUSH1 0x15 PUSH1 0x0 SWAP1 SLOAD SWAP1 PUSH2 0x100 EXP SWAP1 DIV PUSH1 0xFF AND ISZERO PUSH2 0x15E7 JUMPI PUSH1 0x40 MLOAD PUSH32 0x8C379A000000000000000000000000000000000000000000000000000000000 DUP2 MSTORE PUSH1 0x4 ADD PUSH2 0x15DE SWAP1 PUSH2 0x48F1 JUMP JUMPDEST PUSH1 0x40 MLOAD DUP1 SWAP2 SUB SWAP1 REVERT JUMPDEST PUSH1 0x14 SLOAD DUP4 LT ISZERO PUSH2 0x162C JUMPI PUSH1 0x40 MLOAD PUSH32 0x8C379A000000000000000000000000000000000000000000000000000000000 DUP2 MSTORE PUSH1 0x4 ADD PUSH2 0x1623 SWAP1 PUSH2 0x4983 JUMP JUMPDEST PUSH1 0x40 MLOAD DUP1 SWAP2 SUB SWAP1 REVERT JUMPDEST PUSH11 0x295BE96E64066972000000 PUSH1 0x11 SLOAD LT PUSH2 0x167B JUMPI PUSH1 0x40 MLOAD PUSH32 0x8C379A000000000000000000000000000000000000000000000000000000000 DUP2 MSTORE PUSH1 0x4 ADD PUSH2 0x1672 SWAP1 PUSH2 0x49EF JUMP JUMPDEST PUSH1 0x40 MLOAD DUP1 SWAP2 SUB SWAP1 REVERT JUMPDEST PUSH1 0x0 PUSH2 0x1686 DUP5 PUSH2 0x2EE1 JUMP JUMPDEST SWAP1 POP DUP1 PUSH1 0x11 PUSH1 0x0 DUP3 DUP3 SLOAD PUSH2 0x169A SWAP2 SWAP1 PUSH2 0x4799 JUMP JUMPDEST SWAP3 POP POP DUP2 SWAP1 SSTORE POP PUSH11 0x295BE96E64066972000000 PUSH1 0x11 SLOAD GT ISZERO PUSH2 0x16F1 JUMPI PUSH1 0x40 MLOAD PUSH32 0x8C379A000000000000000000000000000000000000000000000000000000000 DUP2 MSTORE PUSH1 0x4 ADD PUSH2 0x16E8 SWAP1 PUSH2 0x4A5B JUMP JUMPDEST PUSH1 0x40 MLOAD DUP1 SWAP2 SUB SWAP1 REVERT JUMPDEST PUSH2 0x16FC ADDRESS CALLER DUP4 PUSH2 0x2BA9 JUMP JUMPDEST PUSH1 0x0 DUP4 DUP4 SWAP1 POP GT ISZERO PUSH2 0x189C JUMPI PUSH1 0x0 PUSH1 0x23 DUP5 DUP5 PUSH1 0x40 MLOAD PUSH2 0x171C SWAP3 SWAP2 SWAP1 PUSH2 0x4AAB JUMP JUMPDEST SWAP1 DUP2 MSTORE PUSH1 0x20 ADD PUSH1 0x40 MLOAD DUP1 SWAP2 SUB SWAP1 KECCAK256 PUSH1 0x0 SWAP1 SLOAD SWAP1 PUSH2 0x100 EXP SWAP1 DIV PUSH20 0xFFFFFFFFFFFFFFFFFFFFFFFFFFFFFFFFFFFFFFFF AND SWAP1 POP PUSH1 0x0 PUSH20 0xFFFFFFFFFFFFFFFFFFFFFFFFFFFFFFFFFFFFFFFF AND DUP2 PUSH20 0xFFFFFFFFFFFFFFFFFFFFFFFFFFFFFFFFFFFFFFFF AND SUB PUSH2 0x17BC JUMPI PUSH1 0x40 MLOAD PUSH32 0x8C379A000000000000000000000000000000000000000000000000000000000 DUP2 MSTORE PUSH1 0x4 ADD PUSH2 0x17B3 SWAP1 PUSH2 0x4B10 JUMP JUMPDEST PUSH1 0x40 MLOAD DUP1 SWAP2 SUB SWAP1 REVERT JUMPDEST PUSH1 0x0 PUSH1 0x64 PUSH1 0x24 PUSH1 0x0 SWAP1 SLOAD SWAP1 PUSH2 0x100 EXP SWAP1 DIV PUSH1 0xFF AND PUSH1 0xFF AND DUP5 PUSH2 0x17DE SWAP2 SWAP1 PUSH2 0x4B30 JUMP JUMPDEST PUSH2 0x17E8 SWAP2 SWAP1 PUSH2 0x4BA1 JUMP JUMPDEST SWAP1 POP DUP1 PUSH1 0x25 PUSH1 0x0 DUP5 PUSH20 0xFFFFFFFFFFFFFFFFFFFFFFFFFFFFFFFFFFFFFFFF AND PUSH20 0xFFFFFFFFFFFFFFFFFFFFFFFFFFFFFFFFFFFFFFFF AND DUP2 MSTORE PUSH1 0x20 ADD SWAP1 DUP2 MSTORE PUSH1 0x20 ADD PUSH1 0x0 KECCAK256 PUSH1 0x0 DUP3 DUP3 SLOAD PUSH2 0x1839 SWAP2 SWAP1 PUSH2 0x4799 JUMP JUMPDEST SWAP3 POP POP DUP2 SWAP1 SSTORE POP PUSH2 0x184B ADDRESS DUP4 DUP4 PUSH2 0x2BA9 JUMP JUMPDEST DUP2 PUSH20 0xFFFFFFFFFFFFFFFFFFFFFFFFFFFFFFFFFFFFFFFF AND PUSH32 0x9B23EC14D4683AC0ABE619D3EC67F86C8957E134EB62BDFF7044E5072BA02B16 DUP3 PUSH1 0x40 MLOAD PUSH2 0x1891 SWAP2 SWAP1 PUSH2 0x3EE2 JUMP JUMPDEST PUSH1 0x40 MLOAD DUP1 SWAP2 SUB SWAP1 LOG2 POP POP JUMPDEST CALLER PUSH20 0xFFFFFFFFFFFFFFFFFFFFFFFFFFFFFFFFFFFFFFFF AND PUSH32 0x25DD73B03754EF2FB74E5AE3BA497DF2DD6275F098501BA76082EA0A1A130178 DUP3 DUP6 DUP6 PUSH1 0x40 MLOAD PUSH2 0x18E6 SWAP4 SWAP3 SWAP2 SWAP1 PUSH2 0x4BFF JUMP JUMPDEST PUSH1 0x40 MLOAD DUP1 SWAP2 SUB SWAP1 LOG2 POP PUSH2 0x18F7 PUSH2 0x2D73 JUMP JUMPDEST POP POP POP JUMP JUMPDEST PUSH2 0x1904 PUSH2 0x2C9D JUMP JUMPDEST PUSH2 0x190C PUSH2 0x2F99 JUMP JUMPDEST JUMP JUMPDEST PUSH2 0x1916 PUSH2 0x2D24 JUMP JUMPDEST PUSH2 0x191E PUSH2 0x2E97 JUMP JUMPDEST PUSH1 0x0 PUSH1 0x1E PUSH1 0x0 CALLER PUSH20 0xFFFFFFFFFFFFFFFFFFFFFFFFFFFFFFFFFFFFFFFF AND PUSH20 0xFFFFFFFFFFFFFFFFFFFFFFFFFFFFFFFFFFFFFFFF AND DUP2 MSTORE PUSH1 0x20 ADD SWAP1 DUP2 MSTORE PUSH1 0x20 ADD PUSH1 0x0 KECCAK256 SLOAD GT PUSH2 0x19A0 JUMPI PUSH1 0x40 MLOAD PUSH32 0x8C379A000000000000000000000000000000000000000000000000000000000 DUP2 MSTORE PUSH1 0x4 ADD PUSH2 0x1997 SWAP1 PUSH2 0x4C7D JUMP JUMPDEST PUSH1 0x40 MLOAD DUP1 SWAP2 SUB SWAP1 REVERT JUMPDEST PUSH1 0x20 PUSH1 0x0 CALLER PUSH20 0xFFFFFFFFFFFFFFFFFFFFFFFFFFFFFFFFFFFFFFFF AND PUSH20 0xFFFFFFFFFFFFFFFFFFFFFFFFFFFFFFFFFFFFFFFF AND DUP2 MSTORE PUSH1 0x20 ADD SWAP1 DUP2 MSTORE PUSH1 0x20 ADD PUSH1 0x0 KECCAK256 SLOAD TIMESTAMP LT ISZERO PUSH2 0x1A22 JUMPI PUSH1 0x40 MLOAD PUSH32 0x8C379A000000000000000000000000000000000000000000000000000000000 DUP2 MSTORE PUSH1 0x4 ADD PUSH2 0x1A19 SWAP1 PUSH2 0x4D0F JUMP JUMPDEST PUSH1 0x40 MLOAD DUP1 SWAP2 SUB SWAP1 REVERT JUMPDEST PUSH1 0x0 PUSH1 0x1E PUSH1 0x0 CALLER PUSH20 0xFFFFFFFFFFFFFFFFFFFFFFFFFFFFFFFFFFFFFFFF AND PUSH20 0xFFFFFFFFFFFFFFFFFFFFFFFFFFFFFFFFFFFFFFFF AND DUP2 MSTORE PUSH1 0x20 ADD SWAP1 DUP2 MSTORE PUSH1 0x20 ADD PUSH1 0x0 KECCAK256 SLOAD SWAP1 POP PUSH1 0x0 PUSH1 0x1E PUSH1 0x0 CALLER PUSH20 0xFFFFFFFFFFFFFFFFFFFFFFFFFFFFFFFFFFFFFFFF AND PUSH20 0xFFFFFFFFFFFFFFFFFFFFFFFFFFFFFFFFFFFFFFFF AND DUP2 MSTORE PUSH1 0x20 ADD SWAP1 DUP2 MSTORE PUSH1 0x20 ADD PUSH1 0x0 KECCAK256 DUP2 SWAP1 SSTORE POP PUSH1 0x0 PUSH1 0x20 PUSH1 0x0 CALLER PUSH20 0xFFFFFFFFFFFFFFFFFFFFFFFFFFFFFFFFFFFFFFFF AND PUSH20 0xFFFFFFFFFFFFFFFFFFFFFFFFFFFFFFFFFFFFFFFF AND DUP2 MSTORE PUSH1 0x20 ADD SWAP1 DUP2 MSTORE PUSH1 0x20 ADD PUSH1 0x0 KECCAK256 DUP2 SWAP1 SSTORE POP PUSH2 0x1AFB ADDRESS CALLER DUP4 PUSH2 0x2BA9 JUMP JUMPDEST CALLER PUSH20 0xFFFFFFFFFFFFFFFFFFFFFFFFFFFFFFFFFFFFFFFF AND PUSH32 0x6BC5063C7239B75C8BF325A2A2238F726FADA322163996BB6C93D5594FB119F0 DUP3 PUSH1 0x40 MLOAD PUSH2 0x1B41 SWAP2 SWAP1 PUSH2 0x3EE2 JUMP JUMPDEST PUSH1 0x40 MLOAD DUP1 SWAP2 SUB SWAP1 LOG2 POP PUSH2 0x1B52 PUSH2 0x2D73 JUMP JUMPDEST JUMP JUMPDEST PUSH11 0x7C13BC4B2C133C56000000 DUP2 JUMP JUMPDEST PUSH1 0x23 DUP2 DUP1 MLOAD PUSH1 0x20 DUP2 ADD DUP3 ADD DUP1 MLOAD DUP5 DUP3 MSTORE PUSH1 0x20 DUP4 ADD PUSH1 0x20 DUP6 ADD KECCAK256 DUP2 DUP4 MSTORE DUP1 SWAP6 POP POP POP POP POP POP PUSH1 0x0 SWAP2 POP SLOAD SWAP1 PUSH2 0x100 EXP SWAP1 DIV PUSH20 0xFFFFFFFFFFFFFFFFFFFFFFFFFFFFFFFFFFFFFFFF AND DUP2 JUMP JUMPDEST PUSH12 0x19D971E4FE8401E74000000 DUP2 JUMP JUMPDEST PUSH1 0x0 PUSH1 0x7 PUSH1 0x0 SWAP1 SLOAD SWAP1 PUSH2 0x100 EXP SWAP1 DIV PUSH1 0xFF AND SWAP1 POP SWAP1 JUMP JUMPDEST PUSH1 0x21 PUSH1 0x20 MSTORE DUP1 PUSH1 0x0 MSTORE PUSH1 0x40 PUSH1 0x0 KECCAK256 PUSH1 0x0 SWAP2 POP SWAP1 POP SLOAD DUP2 JUMP JUMPDEST PUSH2 0x1BF3 PUSH2 0x2C9D JUMP JUMPDEST PUSH1 0x1B PUSH1 0x0 SWAP1 SLOAD SWAP1 PUSH2 0x100 EXP SWAP1 DIV PUSH1 0xFF AND ISZERO PUSH2 0x1C43 JUMPI PUSH1 0x40 MLOAD PUSH32 0x8C379A000000000000000000000000000000000000000000000000000000000 DUP2 MSTORE PUSH1 0x4 ADD PUSH2 0x1C3A SWAP1 PUSH2 0x4D7B JUMP JUMPDEST PUSH1 0x40 MLOAD DUP1 SWAP2 SUB SWAP1 REVERT JUMPDEST PUSH1 0x1 PUSH1 0x1B PUSH1 0x0 PUSH2 0x100 EXP DUP2 SLOAD DUP2 PUSH1 0xFF MUL NOT AND SWAP1 DUP4 ISZERO ISZERO MUL OR SWAP1 SSTORE POP TIMESTAMP PUSH1 0x1C DUP2 SWAP1 SSTORE POP PUSH32 0x1E3E27630243DF12C61F4FD689E14B5388B09E8DA13877DE9378FB84E99C42FA PUSH1 0x40 MLOAD PUSH1 0x40 MLOAD DUP1 SWAP2 SUB SWAP1 LOG1 JUMP JUMPDEST PUSH1 0x11 SLOAD DUP2 JUMP JUMPDEST PUSH2 0x1CA1 PUSH2 0x2C9D JUMP JUMPDEST PUSH1 0x0 PUSH1 0xB SLOAD GT PUSH2 0x1CE6 JUMPI PUSH1 0x40 MLOAD PUSH32 0x8C379A000000000000000000000000000000000000000000000000000000000 DUP2 MSTORE PUSH1 0x4 ADD PUSH2 0x1CDD SWAP1 PUSH2 0x4DE7 JUMP JUMPDEST PUSH1 0x40 MLOAD DUP1 SWAP2 SUB SWAP1 REVERT JUMPDEST PUSH2 0x1CF2 ADDRESS PUSH1 0xB SLOAD PUSH2 0x2FFC JUMP JUMPDEST PUSH32 0x6EF4855B666DCC7884561072E4358B28DFE01FEB1B7F4DCEBC00E62D50394AC7 PUSH1 0xB SLOAD PUSH1 0x40 MLOAD PUSH2 0x1D23 SWAP2 SWAP1 PUSH2 0x3EE2 JUMP JUMPDEST PUSH1 0x40 MLOAD DUP1 SWAP2 SUB SWAP1 LOG1 PUSH1 0x0 PUSH1 0xB DUP2 SWAP1 SSTORE POP JUMP JUMPDEST PUSH1 0x10 SLOAD DUP2 JUMP JUMPDEST PUSH1 0x1F PUSH1 0x20 MSTORE DUP1 PUSH1 0x0 MSTORE PUSH1 0x40 PUSH1 0x0 KECCAK256 PUSH1 0x0 SWAP2 POP SWAP1 POP SLOAD DUP2 JUMP JUMPDEST PUSH1 0xB SLOAD DUP2 JUMP JUMPDEST PUSH4 0x1E13380 DUP2 JUMP JUMPDEST PUSH11 0x295BE96E64066972000000 DUP2 JUMP JUMPDEST PUSH11 0x7C13BC4B2C133C56000000 DUP2 JUMP JUMPDEST PUSH1 0x0 DUP1 PUSH1 0x0 DUP4 PUSH20 0xFFFFFFFFFFFFFFFFFFFFFFFFFFFFFFFFFFFFFFFF AND PUSH20 0xFFFFFFFFFFFFFFFFFFFFFFFFFFFFFFFFFFFFFFFF AND DUP2 MSTORE PUSH1 0x20 ADD SWAP1 DUP2 MSTORE PUSH1 0x20 ADD PUSH1 0x0 KECCAK256 SLOAD SWAP1 POP SWAP2 SWAP1 POP JUMP JUMPDEST PUSH2 0x1DCF PUSH2 0x2C9D JUMP JUMPDEST PUSH2 0x1DD9 PUSH1 0x0 PUSH2 0x307E JUMP JUMPDEST JUMP JUMPDEST PUSH1 0x15 PUSH1 0x0 SWAP1 SLOAD SWAP1 PUSH2 0x100 EXP SWAP1 DIV PUSH1 0xFF AND DUP2 JUMP JUMPDEST PUSH2 0x1DF6 PUSH2 0x2D24 JUMP JUMPDEST PUSH2 0x1DFE PUSH2 0x2E97 JUMP JUMPDEST PUSH1 0x0 DUP2 GT PUSH2 0x1E41 JUMPI PUSH1 0x40 MLOAD PUSH32 0x8C379A000000000000000000000000000000000000000000000000000000000 DUP2 MSTORE PUSH1 0x4 ADD PUSH2 0x1E38 SWAP1 PUSH2 0x4E79 JUMP JUMPDEST PUSH1 0x40 MLOAD DUP1 SWAP2 SUB SWAP1 REVERT JUMPDEST DUP1 PUSH2 0x1E4B CALLER PUSH2 0x1D7F JUMP JUMPDEST LT ISZERO PUSH2 0x1E8C JUMPI PUSH1 0x40 MLOAD PUSH32 0x8C379A000000000000000000000000000000000000000000000000000000000 DUP2 MSTORE PUSH1 0x4 ADD PUSH2 0x1E83 SWAP1 PUSH2 0x4EE5 JUMP JUMPDEST PUSH1 0x40 MLOAD DUP1 SWAP2 SUB SWAP1 REVERT JUMPDEST PUSH1 0x1B PUSH1 0x0 SWAP1 SLOAD SWAP1 PUSH2 0x100 EXP SWAP1 DIV PUSH1 0xFF AND PUSH2 0x1EDB JUMPI PUSH1 0x40 MLOAD PUSH32 0x8C379A000000000000000000000000000000000000000000000000000000000 DUP2 MSTORE PUSH1 0x4 ADD PUSH2 0x1ED2 SWAP1 PUSH2 0x4F77 JUMP JUMPDEST PUSH1 0x40 MLOAD DUP1 SWAP2 SUB SWAP1 REVERT JUMPDEST PUSH2 0x1EE6 CALLER ADDRESS DUP4 PUSH2 0x2BA9 JUMP JUMPDEST DUP1 PUSH1 0x1E PUSH1 0x0 CALLER PUSH20 0xFFFFFFFFFFFFFFFFFFFFFFFFFFFFFFFFFFFFFFFF AND PUSH20 0xFFFFFFFFFFFFFFFFFFFFFFFFFFFFFFFFFFFFFFFF AND DUP2 MSTORE PUSH1 0x20 ADD SWAP1 DUP2 MSTORE PUSH1 0x20 ADD PUSH1 0x0 KECCAK256 PUSH1 0x0 DUP3 DUP3 SLOAD PUSH2 0x1F35 SWAP2 SWAP1 PUSH2 0x4799 JUMP JUMPDEST SWAP3 POP POP DUP2 SWAP1 SSTORE POP TIMESTAMP PUSH1 0x1F PUSH1 0x0 CALLER PUSH20 0xFFFFFFFFFFFFFFFFFFFFFFFFFFFFFFFFFFFFFFFF AND PUSH20 0xFFFFFFFFFFFFFFFFFFFFFFFFFFFFFFFFFFFFFFFF AND DUP2 MSTORE PUSH1 0x20 ADD SWAP1 DUP2 MSTORE PUSH1 0x20 ADD PUSH1 0x0 KECCAK256 DUP2 SWAP1 SSTORE POP PUSH3 0xED4E00 PUSH4 0x1E13380 TIMESTAMP PUSH2 0x1F94 SWAP2 SWAP1 PUSH2 0x4799 JUMP JUMPDEST PUSH2 0x1F9E SWAP2 SWAP1 PUSH2 0x4799 JUMP JUMPDEST PUSH1 0x20 PUSH1 0x0 CALLER PUSH20 0xFFFFFFFFFFFFFFFFFFFFFFFFFFFFFFFFFFFFFFFF AND PUSH20 0xFFFFFFFFFFFFFFFFFFFFFFFFFFFFFFFFFFFFFFFF AND DUP2 MSTORE PUSH1 0x20 ADD SWAP1 DUP2 MSTORE PUSH1 0x20 ADD PUSH1 0x0 KECCAK256 DUP2 SWAP1 SSTORE POP CALLER PUSH20 0xFFFFFFFFFFFFFFFFFFFFFFFFFFFFFFFFFFFFFFFF AND PUSH32 0xDD2A19C3BDD089CBE77C04F5655F83DE0504D6140D12C8667646F55D0557C4DC DUP3 PUSH1 0x20 PUSH1 0x0 CALLER PUSH20 0xFFFFFFFFFFFFFFFFFFFFFFFFFFFFFFFFFFFFFFFF AND PUSH20 0xFFFFFFFFFFFFFFFFFFFFFFFFFFFFFFFFFFFFFFFF AND DUP2 MSTORE PUSH1 0x20 ADD SWAP1 DUP2 MSTORE PUSH1 0x20 ADD PUSH1 0x0 KECCAK256 SLOAD PUSH1 0x40 MLOAD PUSH2 0x2068 SWAP3 SWAP2 SWAP1 PUSH2 0x4F97 JUMP JUMPDEST PUSH1 0x40 MLOAD DUP1 SWAP2 SUB SWAP1 LOG2 PUSH2 0x2078 PUSH2 0x2D73 JUMP JUMPDEST POP JUMP JUMPDEST PUSH1 0x0 PUSH1 0x11 SLOAD SWAP1 POP SWAP1 JUMP JUMPDEST PUSH1 0x0 PUSH2 0x2090 DUP3 PUSH2 0x3144 JUMP JUMPDEST SWAP1 POP SWAP2 SWAP1 POP JUMP JUMPDEST PUSH1 0xD SLOAD DUP2 JUMP JUMPDEST PUSH1 0x0 PUSH1 0x60 DUP1 PUSH1 0x0 DUP1 PUSH1 0x0 PUSH1 0x60 PUSH2 0x20B1 PUSH2 0x318D JUMP JUMPDEST PUSH2 0x20B9 PUSH2 0x31C8 JUMP JUMPDEST CHAINID ADDRESS PUSH1 0x0 DUP1 SHL PUSH1 0x0 PUSH8 0xFFFFFFFFFFFFFFFF DUP2 GT ISZERO PUSH2 0x20DA JUMPI PUSH2 0x20D9 PUSH2 0x40B2 JUMP JUMPDEST JUMPDEST PUSH1 0x40 MLOAD SWAP1 DUP1 DUP3 MSTORE DUP1 PUSH1 0x20 MUL PUSH1 0x20 ADD DUP3 ADD PUSH1 0x40 MSTORE DUP1 ISZERO PUSH2 0x2108 JUMPI DUP2 PUSH1 0x20 ADD PUSH1 0x20 DUP3 MUL DUP1 CALLDATASIZE DUP4 CALLDATACOPY DUP1 DUP3 ADD SWAP2 POP POP SWAP1 POP JUMPDEST POP PUSH32 0xF00000000000000000000000000000000000000000000000000000000000000 SWAP6 SWAP5 SWAP4 SWAP3 SWAP2 SWAP1 SWAP7 POP SWAP7 POP SWAP7 POP SWAP7 POP SWAP7 POP SWAP7 POP SWAP7 POP SWAP1 SWAP2 SWAP3 SWAP4 SWAP5 SWAP6 SWAP7 JUMP JUMPDEST PUSH1 0x0 PUSH1 0x5 PUSH1 0x0 SWAP1 SLOAD SWAP1 PUSH2 0x100 EXP SWAP1 DIV PUSH20 0xFFFFFFFFFFFFFFFFFFFFFFFFFFFFFFFFFFFFFFFF AND SWAP1 POP SWAP1 JUMP JUMPDEST PUSH1 0x18 SLOAD DUP2 JUMP JUMPDEST PUSH12 0x33B2E3C9FD0803CE8000000 DUP2 JUMP JUMPDEST PUSH1 0x17 SLOAD DUP2 JUMP JUMPDEST PUSH1 0x60 PUSH1 0x4 DUP1 SLOAD PUSH2 0x219C SWAP1 PUSH2 0x4589 JUMP JUMPDEST DUP1 PUSH1 0x1F ADD PUSH1 0x20 DUP1 SWAP2 DIV MUL PUSH1 0x20 ADD PUSH1 0x40 MLOAD SWAP1 DUP2 ADD PUSH1 0x40 MSTORE DUP1 SWAP3 SWAP2 SWAP1 DUP2 DUP2 MSTORE PUSH1 0x20 ADD DUP3 DUP1 SLOAD PUSH2 0x21C8 SWAP1 PUSH2 0x4589 JUMP JUMPDEST DUP1 ISZERO PUSH2 0x2215 JUMPI DUP1 PUSH1 0x1F LT PUSH2 0x21EA JUMPI PUSH2 0x100 DUP1 DUP4 SLOAD DIV MUL DUP4 MSTORE SWAP2 PUSH1 0x20 ADD SWAP2 PUSH2 0x2215 JUMP JUMPDEST DUP3 ADD SWAP2 SWAP1 PUSH1 0x0 MSTORE PUSH1 0x20 PUSH1 0x0 KECCAK256 SWAP1 JUMPDEST DUP2 SLOAD DUP2 MSTORE SWAP1 PUSH1 0x1 ADD SWAP1 PUSH1 0x20 ADD DUP1 DUP4 GT PUSH2 0x21F8 JUMPI DUP3 SWAP1 SUB PUSH1 0x1F AND DUP3 ADD SWAP2 JUMPDEST POP POP POP POP POP SWAP1 POP SWAP1 JUMP JUMPDEST PUSH1 0xF PUSH1 0x0 SWAP1 SLOAD SWAP1 PUSH2 0x100 EXP SWAP1 DIV PUSH1 0xFF AND DUP2 JUMP JUMPDEST PUSH1 0x26 PUSH1 0x20 MSTORE DUP1 PUSH1 0x0 MSTORE PUSH1 0x40 PUSH1 0x0 KECCAK256 PUSH1 0x0 SWAP2 POP SLOAD SWAP1 PUSH2 0x100 EXP SWAP1 DIV PUSH1 0xFF AND DUP2 JUMP JUMPDEST PUSH1 0x0 PUSH1 0x25 PUSH1 0x0 DUP4 PUSH20 0xFFFFFFFFFFFFFFFFFFFFFFFFFFFFFFFFFFFFFFFF AND PUSH20 0xFFFFFFFFFFFFFFFFFFFFFFFFFFFFFFFFFFFFFFFF AND DUP2 MSTORE PUSH1 0x20 ADD SWAP1 DUP2 MSTORE PUSH1 0x20 ADD PUSH1 0x0 KECCAK256 SLOAD SWAP1 POP SWAP2 SWAP1 POP JUMP JUMPDEST PUSH1 0x0 PUSH1 0x16 SLOAD SWAP1 POP SWAP1 JUMP JUMPDEST PUSH11 0x295BE96E64066972000000 DUP2 JUMP JUMPDEST PUSH1 0x0 DUP1 PUSH2 0x22BF PUSH2 0x2AFB JUMP JUMPDEST SWAP1 POP PUSH2 0x22CC DUP2 DUP6 DUP6 PUSH2 0x2BA9 JUMP JUMPDEST PUSH1 0x1 SWAP2 POP POP SWAP3 SWAP2 POP POP JUMP JUMPDEST PUSH1 0xE PUSH1 0x20 MSTORE DUP1 PUSH1 0x0 MSTORE PUSH1 0x40 PUSH1 0x0 KECCAK256 PUSH1 0x0 SWAP2 POP SLOAD SWAP1 PUSH2 0x100 EXP SWAP1 DIV PUSH1 0xFF AND DUP2 JUMP JUMPDEST PUSH1 0x12 SLOAD DUP2 JUMP JUMPDEST PUSH2 0x2305 PUSH2 0x2D24 JUMP JUMPDEST PUSH2 0x230D PUSH2 0x2E97 JUMP JUMPDEST PUSH1 0x1B PUSH1 0x0 SWAP1 SLOAD SWAP1 PUSH2 0x100 EXP SWAP1 DIV PUSH1 0xFF AND ISZERO PUSH2 0x235D JUMPI PUSH1 0x40 MLOAD PUSH32 0x8C379A000000000000000000000000000000000000000000000000000000000 DUP2 MSTORE PUSH1 0x4 ADD PUSH2 0x2354 SWAP1 PUSH2 0x500C JUMP JUMPDEST PUSH1 0x40 MLOAD DUP1 SWAP2 SUB SWAP1 REVERT JUMPDEST PUSH1 0x19 SLOAD DUP4 LT ISZERO DUP1 ISZERO PUSH2 0x2371 JUMPI POP PUSH1 0x1A SLOAD DUP4 GT ISZERO JUMPDEST PUSH2 0x23B0 JUMPI PUSH1 0x40 MLOAD PUSH32 0x8C379A000000000000000000000000000000000000000000000000000000000 DUP2 MSTORE PUSH1 0x4 ADD PUSH2 0x23A7 SWAP1 PUSH2 0x5078 JUMP JUMPDEST PUSH1 0x40 MLOAD DUP1 SWAP2 SUB SWAP1 REVERT JUMPDEST PUSH11 0x7C13BC4B2C133C56000000 PUSH1 0x16 SLOAD LT PUSH2 0x23FF JUMPI PUSH1 0x40 MLOAD PUSH32 0x8C379A000000000000000000000000000000000000000000000000000000000 DUP2 MSTORE PUSH1 0x4 ADD PUSH2 0x23F6 SWAP1 PUSH2 0x50E4 JUMP JUMPDEST PUSH1 0x40 MLOAD DUP1 SWAP2 SUB SWAP1 REVERT JUMPDEST PUSH1 0x0 PUSH2 0x240A DUP5 PUSH2 0x3203 JUMP JUMPDEST SWAP1 POP PUSH1 0x0 DUP5 PUSH1 0x21 PUSH1 0x0 CALLER PUSH20 0xFFFFFFFFFFFFFFFFFFFFFFFFFFFFFFFFFFFFFFFF AND PUSH20 0xFFFFFFFFFFFFFFFFFFFFFFFFFFFFFFFFFFFFFFFF AND DUP2 MSTORE PUSH1 0x20 ADD SWAP1 DUP2 MSTORE PUSH1 0x20 ADD PUSH1 0x0 KECCAK256 SLOAD PUSH2 0x2459 SWAP2 SWAP1 PUSH2 0x4799 JUMP JUMPDEST SWAP1 POP PUSH1 0x1A SLOAD DUP2 GT ISZERO PUSH2 0x24A0 JUMPI PUSH1 0x40 MLOAD PUSH32 0x8C379A000000000000000000000000000000000000000000000000000000000 DUP2 MSTORE PUSH1 0x4 ADD PUSH2 0x2497 SWAP1 PUSH2 0x5176 JUMP JUMPDEST PUSH1 0x40 MLOAD DUP1 SWAP2 SUB SWAP1 REVERT JUMPDEST DUP1 PUSH1 0x21 PUSH1 0x0 CALLER PUSH20 0xFFFFFFFFFFFFFFFFFFFFFFFFFFFFFFFFFFFFFFFF AND PUSH20 0xFFFFFFFFFFFFFFFFFFFFFFFFFFFFFFFFFFFFFFFF AND DUP2 MSTORE PUSH1 0x20 ADD SWAP1 DUP2 MSTORE PUSH1 0x20 ADD PUSH1 0x0 KECCAK256 DUP2 SWAP1 SSTORE POP DUP2 PUSH1 0x16 PUSH1 0x0 DUP3 DUP3 SLOAD PUSH2 0x24F6 SWAP2 SWAP1 PUSH2 0x4799 JUMP JUMPDEST SWAP3 POP POP DUP2 SWAP1 SSTORE POP PUSH11 0x7C13BC4B2C133C56000000 PUSH1 0x16 SLOAD GT ISZERO PUSH2 0x254D JUMPI PUSH1 0x40 MLOAD PUSH32 0x8C379A000000000000000000000000000000000000000000000000000000000 DUP2 MSTORE PUSH1 0x4 ADD PUSH2 0x2544 SWAP1 PUSH2 0x51E2 JUMP JUMPDEST PUSH1 0x40 MLOAD DUP1 SWAP2 SUB SWAP1 REVERT JUMPDEST PUSH2 0x2558 ADDRESS CALLER DUP5 PUSH2 0x2BA9 JUMP JUMPDEST PUSH1 0x0 DUP5 DUP5 SWAP1 POP GT ISZERO PUSH2 0x26F8 JUMPI PUSH1 0x0 PUSH1 0x23 DUP6 DUP6 PUSH1 0x40 MLOAD PUSH2 0x2578 SWAP3 SWAP2 SWAP1 PUSH2 0x4AAB JUMP JUMPDEST SWAP1 DUP2 MSTORE PUSH1 0x20 ADD PUSH1 0x40 MLOAD DUP1 SWAP2 SUB SWAP1 KECCAK256 PUSH1 0x0 SWAP1 SLOAD SWAP1 PUSH2 0x100 EXP SWAP1 DIV PUSH20 0xFFFFFFFFFFFFFFFFFFFFFFFFFFFFFFFFFFFFFFFF AND SWAP1 POP PUSH1 0x0 PUSH20 0xFFFFFFFFFFFFFFFFFFFFFFFFFFFFFFFFFFFFFFFF AND DUP2 PUSH20 0xFFFFFFFFFFFFFFFFFFFFFFFFFFFFFFFFFFFFFFFF AND SUB PUSH2 0x2618 JUMPI PUSH1 0x40 MLOAD PUSH32 0x8C379A000000000000000000000000000000000000000000000000000000000 DUP2 MSTORE PUSH1 0x4 ADD PUSH2 0x260F SWAP1 PUSH2 0x4B10 JUMP JUMPDEST PUSH1 0x40 MLOAD DUP1 SWAP2 SUB SWAP1 REVERT JUMPDEST PUSH1 0x0 PUSH1 0x64 PUSH1 0x24 PUSH1 0x0 SWAP1 SLOAD SWAP1 PUSH2 0x100 EXP SWAP1 DIV PUSH1 0xFF AND PUSH1 0xFF AND DUP6 PUSH2 0x263A SWAP2 SWAP1 PUSH2 0x4B30 JUMP JUMPDEST PUSH2 0x2644 SWAP2 SWAP1 PUSH2 0x4BA1 JUMP JUMPDEST SWAP1 POP DUP1 PUSH1 0x25 PUSH1 0x0 DUP5 PUSH20 0xFFFFFFFFFFFFFFFFFFFFFFFFFFFFFFFFFFFFFFFF AND PUSH20 0xFFFFFFFFFFFFFFFFFFFFFFFFFFFFFFFFFFFFFFFF AND DUP2 MSTORE PUSH1 0x20 ADD SWAP1 DUP2 MSTORE PUSH1 0x20 ADD PUSH1 0x0 KECCAK256 PUSH1 0x0 DUP3 DUP3 SLOAD PUSH2 0x2695 SWAP2 SWAP1 PUSH2 0x4799 JUMP JUMPDEST SWAP3 POP POP DUP2 SWAP1 SSTORE POP PUSH2 0x26A7 ADDRESS DUP4 DUP4 PUSH2 0x2BA9 JUMP JUMPDEST DUP2 PUSH20 0xFFFFFFFFFFFFFFFFFFFFFFFFFFFFFFFFFFFFFFFF AND PUSH32 0x9B23EC14D4683AC0ABE619D3EC67F86C8957E134EB62BDFF7044E5072BA02B16 DUP3 PUSH1 0x40 MLOAD PUSH2 0x26ED SWAP2 SWAP1 PUSH2 0x3EE2 JUMP JUMPDEST PUSH1 0x40 MLOAD DUP1 SWAP2 SUB SWAP1 LOG2 POP POP JUMPDEST CALLER PUSH20 0xFFFFFFFFFFFFFFFFFFFFFFFFFFFFFFFFFFFFFFFF AND PUSH32 0x3607C497E362683EDFEC3F75D9CF47E46AD5D2FEBCDB84BC5F7C1264EE9D9D78 DUP4 DUP7 DUP7 PUSH1 0x40 MLOAD PUSH2 0x2742 SWAP4 SWAP3 SWAP2 SWAP1 PUSH2 0x4BFF JUMP JUMPDEST PUSH1 0x40 MLOAD DUP1 SWAP2 SUB SWAP1 LOG2 POP POP PUSH2 0x2754 PUSH2 0x2D73 JUMP JUMPDEST POP POP POP JUMP JUMPDEST PUSH1 0x1A SLOAD DUP2 JUMP JUMPDEST PUSH1 0x16 SLOAD DUP2 JUMP JUMPDEST PUSH1 0x13 SLOAD DUP2 JUMP JUMPDEST PUSH1 0x14 SLOAD DUP2 JUMP JUMPDEST PUSH11 0x7C13BC4B2C133C56000000 DUP2 JUMP JUMPDEST PUSH1 0x25 PUSH1 0x20 MSTORE DUP1 PUSH1 0x0 MSTORE PUSH1 0x40 PUSH1 0x0 KECCAK256 PUSH1 0x0 SWAP2 POP SWAP1 POP SLOAD DUP2 JUMP JUMPDEST PUSH11 0x295BE96E64066972000000 DUP2 JUMP JUMPDEST PUSH1 0x1C SLOAD DUP2 JUMP JUMPDEST PUSH1 0x24 PUSH1 0x0 SWAP1 SLOAD SWAP1 PUSH2 0x100 EXP SWAP1 DIV PUSH1 0xFF AND DUP2 JUMP JUMPDEST DUP4 TIMESTAMP GT ISZERO PUSH2 0x2805 JUMPI DUP4 PUSH1 0x40 MLOAD PUSH32 0x6279130200000000000000000000000000000000000000000000000000000000 DUP2 MSTORE PUSH1 0x4 ADD PUSH2 0x27FC SWAP2 SWAP1 PUSH2 0x3EE2 JUMP JUMPDEST PUSH1 0x40 MLOAD DUP1 SWAP2 SUB SWAP1 REVERT JUMPDEST PUSH1 0x0 PUSH32 0x6E71EDAE12B1B97F4D1F60370FEF10105FA2FAAE0126114A169C64845D6126C9 DUP9 DUP9 DUP9 PUSH2 0x2834 DUP13 PUSH2 0x32BB JUMP JUMPDEST DUP10 PUSH1 0x40 MLOAD PUSH1 0x20 ADD PUSH2 0x284A SWAP7 SWAP6 SWAP5 SWAP4 SWAP3 SWAP2 SWAP1 PUSH2 0x5202 JUMP JUMPDEST PUSH1 0x40 MLOAD PUSH1 0x20 DUP2 DUP4 SUB SUB DUP2 MSTORE SWAP1 PUSH1 0x40 MSTORE DUP1 MLOAD SWAP1 PUSH1 0x20 ADD KECCAK256 SWAP1 POP PUSH1 0x0 PUSH2 0x286D DUP3 PUSH2 0x3312 JUMP JUMPDEST SWAP1 POP PUSH1 0x0 PUSH2 0x287D DUP3 DUP8 DUP8 DUP8 PUSH2 0x332C JUMP JUMPDEST SWAP1 POP DUP10 PUSH20 0xFFFFFFFFFFFFFFFFFFFFFFFFFFFFFFFFFFFFFFFF AND DUP2 PUSH20 0xFFFFFFFFFFFFFFFFFFFFFFFFFFFFFFFFFFFFFFFF AND EQ PUSH2 0x28F1 JUMPI DUP1 DUP11 PUSH1 0x40 MLOAD PUSH32 0x4B800E4600000000000000000000000000000000000000000000000000000000 DUP2 MSTORE PUSH1 0x4 ADD PUSH2 0x28E8 SWAP3 SWAP2 SWAP1 PUSH2 0x5263 JUMP JUMPDEST PUSH1 0x40 MLOAD DUP1 SWAP2 SUB SWAP1 REVERT JUMPDEST PUSH2 0x28FC DUP11 DUP11 DUP11 PUSH2 0x2B03 JUMP JUMPDEST POP POP POP POP POP POP POP POP POP POP JUMP JUMPDEST PUSH1 0x0 PUSH1 0x1 PUSH1 0x0 DUP5 PUSH20 0xFFFFFFFFFFFFFFFFFFFFFFFFFFFFFFFFFFFFFFFF AND PUSH20 0xFFFFFFFFFFFFFFFFFFFFFFFFFFFFFFFFFFFFFFFF AND DUP2 MSTORE PUSH1 0x20 ADD SWAP1 DUP2 MSTORE PUSH1 0x20 ADD PUSH1 0x0 KECCAK256 PUSH1 0x0 DUP4 PUSH20 0xFFFFFFFFFFFFFFFFFFFFFFFFFFFFFFFFFFFFFFFF AND PUSH20 0xFFFFFFFFFFFFFFFFFFFFFFFFFFFFFFFFFFFFFFFF AND DUP2 MSTORE PUSH1 0x20 ADD SWAP1 DUP2 MSTORE PUSH1 0x20 ADD PUSH1 0x0 KECCAK256 SLOAD SWAP1 POP SWAP3 SWAP2 POP POP JUMP JUMPDEST PUSH2 0x2997 PUSH2 0x2C9D JUMP JUMPDEST PUSH1 0x0 PUSH20 0xFFFFFFFFFFFFFFFFFFFFFFFFFFFFFFFFFFFFFFFF AND DUP2 PUSH20 0xFFFFFFFFFFFFFFFFFFFFFFFFFFFFFFFFFFFFFFFF AND SUB PUSH2 0x2A09 JUMPI PUSH1 0x0 PUSH1 0x40 MLOAD PUSH32 0x1E4FBDF700000000000000000000000000000000000000000000000000000000 DUP2 MSTORE PUSH1 0x4 ADD PUSH2 0x2A00 SWAP2 SWAP1 PUSH2 0x4235 JUMP JUMPDEST PUSH1 0x40 MLOAD DUP1 SWAP2 SUB SWAP1 REVERT JUMPDEST PUSH2 0x2A12 DUP2 PUSH2 0x307E JUMP JUMPDEST POP JUMP JUMPDEST PUSH2 0x2A1D PUSH2 0x2C9D JUMP JUMPDEST PUSH1 0x15 PUSH1 0x0 SWAP1 SLOAD SWAP1 PUSH2 0x100 EXP SWAP1 DIV PUSH1 0xFF AND ISZERO PUSH2 0x2A6D JUMPI PUSH1 0x40 MLOAD PUSH32 0x8C379A000000000000000000000000000000000000000000000000000000000 DUP2 MSTORE PUSH1 0x4 ADD PUSH2 0x2A64 SWAP1 PUSH2 0x52D8 JUMP JUMPDEST PUSH1 0x40 MLOAD DUP1 SWAP2 SUB SWAP1 REVERT JUMPDEST PUSH1 0x1 PUSH1 0x15 PUSH1 0x0 PUSH2 0x100 EXP DUP2 SLOAD DUP2 PUSH1 0xFF MUL NOT AND SWAP1 DUP4 ISZERO ISZERO MUL OR SWAP1 SSTORE POP PUSH32 0x12FCD070C773929CE838B1791E3A5B8A7630D567BADA259980130258A27DFE58 PUSH1 0x40 MLOAD PUSH1 0x40 MLOAD DUP1 SWAP2 SUB SWAP1 LOG1 JUMP JUMPDEST PUSH11 0x52B7D2DCC80CD2E4000000 DUP2 JUMP JUMPDEST PUSH1 0x1D PUSH1 0x20 MSTORE DUP1 PUSH1 0x0 MSTORE PUSH1 0x40 PUSH1 0x0 KECCAK256 PUSH1 0x0 SWAP2 POP SWAP1 POP DUP1 PUSH1 0x0 ADD SLOAD SWAP1 DUP1 PUSH1 0x1 ADD SLOAD SWAP1 DUP1 PUSH1 0x2 ADD SLOAD SWAP1 DUP1 PUSH1 0x3 ADD SLOAD SWAP1 DUP1 PUSH1 0x4 ADD SLOAD SWAP1 POP DUP6 JUMP JUMPDEST PUSH1 0x0 CALLER SWAP1 POP SWAP1 JUMP JUMPDEST PUSH2 0x2B10 DUP4 DUP4 DUP4 PUSH1 0x1 PUSH2 0x335C JUMP JUMPDEST POP POP POP JUMP JUMPDEST PUSH1 0x0 PUSH2 0x2B21 DUP5 DUP5 PUSH2 0x2908 JUMP JUMPDEST SWAP1 POP PUSH32 0xFFFFFFFFFFFFFFFFFFFFFFFFFFFFFFFFFFFFFFFFFFFFFFFFFFFFFFFFFFFFFFFF DUP2 EQ PUSH2 0x2BA3 JUMPI DUP2 DUP2 LT ISZERO PUSH2 0x2B93 JUMPI DUP3 DUP2 DUP4 PUSH1 0x40 MLOAD PUSH32 0xFB8F41B200000000000000000000000000000000000000000000000000000000 DUP2 MSTORE PUSH1 0x4 ADD PUSH2 0x2B8A SWAP4 SWAP3 SWAP2 SWAP1 PUSH2 0x52F8 JUMP JUMPDEST PUSH1 0x40 MLOAD DUP1 SWAP2 SUB SWAP1 REVERT JUMPDEST PUSH2 0x2BA2 DUP5 DUP5 DUP5 DUP5 SUB PUSH1 0x0 PUSH2 0x335C JUMP JUMPDEST JUMPDEST POP POP POP POP JUMP JUMPDEST PUSH1 0x0 PUSH20 0xFFFFFFFFFFFFFFFFFFFFFFFFFFFFFFFFFFFFFFFF AND DUP4 PUSH20 0xFFFFFFFFFFFFFFFFFFFFFFFFFFFFFFFFFFFFFFFF AND SUB PUSH2 0x2C1B JUMPI PUSH1 0x0 PUSH1 0x40 MLOAD PUSH32 0x96C6FD1E00000000000000000000000000000000000000000000000000000000 DUP2 MSTORE PUSH1 0x4 ADD PUSH2 0x2C12 SWAP2 SWAP1 PUSH2 0x4235 JUMP JUMPDEST PUSH1 0x40 MLOAD DUP1 SWAP2 SUB SWAP1 REVERT JUMPDEST PUSH1 0x0 PUSH20 0xFFFFFFFFFFFFFFFFFFFFFFFFFFFFFFFFFFFFFFFF AND DUP3 PUSH20 0xFFFFFFFFFFFFFFFFFFFFFFFFFFFFFFFFFFFFFFFF AND SUB PUSH2 0x2C8D JUMPI PUSH1 0x0 PUSH1 0x40 MLOAD PUSH32 0xEC442F0500000000000000000000000000000000000000000000000000000000 DUP2 MSTORE PUSH1 0x4 ADD PUSH2 0x2C84 SWAP2 SWAP1 PUSH2 0x4235 JUMP JUMPDEST PUSH1 0x40 MLOAD DUP1 SWAP2 SUB SWAP1 REVERT JUMPDEST PUSH2 0x2C98 DUP4 DUP4 DUP4 PUSH2 0x3533 JUMP JUMPDEST POP POP POP JUMP JUMPDEST PUSH2 0x2CA5 PUSH2 0x2AFB JUMP JUMPDEST PUSH20 0xFFFFFFFFFFFFFFFFFFFFFFFFFFFFFFFFFFFFFFFF AND PUSH2 0x2CC3 PUSH2 0x2147 JUMP JUMPDEST PUSH20 0xFFFFFFFFFFFFFFFFFFFFFFFFFFFFFFFFFFFFFFFF AND EQ PUSH2 0x2D22 JUMPI PUSH2 0x2CE6 PUSH2 0x2AFB JUMP JUMPDEST PUSH1 0x40 MLOAD PUSH32 0x118CDAA700000000000000000000000000000000000000000000000000000000 DUP2 MSTORE PUSH1 0x4 ADD PUSH2 0x2D19 SWAP2 SWAP1 PUSH2 0x4235 JUMP JUMPDEST PUSH1 0x40 MLOAD DUP1 SWAP2 SUB SWAP1 REVERT JUMPDEST JUMP JUMPDEST PUSH1 0x2 PUSH1 0x6 SLOAD SUB PUSH2 0x2D69 JUMPI PUSH1 0x40 MLOAD PUSH32 0x8C379A000000000000000000000000000000000000000000000000000000000 DUP2 MSTORE PUSH1 0x4 ADD PUSH2 0x2D60 SWAP1 PUSH2 0x537B JUMP JUMPDEST PUSH1 0x40 MLOAD DUP1 SWAP2 SUB SWAP1 REVERT JUMPDEST PUSH1 0x2 PUSH1 0x6 DUP2 SWAP1 SSTORE POP JUMP JUMPDEST PUSH1 0x1 PUSH1 0x6 DUP2 SWAP1 SSTORE POP JUMP JUMPDEST PUSH1 0x0 PUSH32 0x0 PUSH20 0xFFFFFFFFFFFFFFFFFFFFFFFFFFFFFFFFFFFFFFFF AND ADDRESS PUSH20 0xFFFFFFFFFFFFFFFFFFFFFFFFFFFFFFFFFFFFFFFF AND EQ DUP1 ISZERO PUSH2 0x2DF9 JUMPI POP PUSH32 0x0 CHAINID EQ JUMPDEST ISZERO PUSH2 0x2E26 JUMPI PUSH32 0x0 SWAP1 POP PUSH2 0x2E31 JUMP JUMPDEST PUSH2 0x2E2E PUSH2 0x3758 JUMP JUMPDEST SWAP1 POP JUMPDEST SWAP1 JUMP JUMPDEST PUSH2 0x2E3C PUSH2 0x37EE JUMP JUMPDEST PUSH1 0x0 PUSH1 0x7 PUSH1 0x0 PUSH2 0x100 EXP DUP2 SLOAD DUP2 PUSH1 0xFF MUL NOT AND SWAP1 DUP4 ISZERO ISZERO MUL OR SWAP1 SSTORE POP PUSH32 0x5DB9EE0A495BF2E6FF9C91A7834C1BA4FDD244A5E8AA4E537BD38AEAE4B073AA PUSH2 0x2E80 PUSH2 0x2AFB JUMP JUMPDEST PUSH1 0x40 MLOAD PUSH2 0x2E8D SWAP2 SWAP1 PUSH2 0x4235 JUMP JUMPDEST PUSH1 0x40 MLOAD DUP1 SWAP2 SUB SWAP1 LOG1 JUMP JUMPDEST PUSH2 0x2E9F PUSH2 0x1BBC JUMP JUMPDEST ISZERO PUSH2 0x2EDF JUMPI PUSH1 0x40 MLOAD PUSH32 0x8C379A000000000000000000000000000000000000000000000000000000000 DUP2 MSTORE PUSH1 0x4 ADD PUSH2 0x2ED6 SWAP1 PUSH2 0x53E7 JUMP JUMPDEST PUSH1 0x40 MLOAD DUP1 SWAP2 SUB SWAP1 REVERT JUMPDEST JUMP JUMPDEST PUSH1 0x0 DUP1 PUSH1 0x12 SLOAD PUSH1 0x13 SLOAD PUSH2 0x2EF4 SWAP2 SWAP1 PUSH2 0x5407 JUMP JUMPDEST SWAP1 POP PUSH1 0x0 PUSH11 0x295BE96E64066972000000 PUSH1 0x11 SLOAD DUP4 PUSH2 0x2F12 SWAP2 SWAP1 PUSH2 0x4B30 JUMP JUMPDEST PUSH2 0x2F1C SWAP2 SWAP1 PUSH2 0x4BA1 JUMP JUMPDEST PUSH1 0x12 SLOAD PUSH2 0x2F29 SWAP2 SWAP1 PUSH2 0x4799 JUMP JUMPDEST SWAP1 POP PUSH1 0x12 SLOAD DUP2 LT ISZERO DUP1 ISZERO PUSH2 0x2F3F JUMPI POP PUSH1 0x13 SLOAD DUP2 GT ISZERO JUMPDEST PUSH2 0x2F7E JUMPI PUSH1 0x40 MLOAD PUSH32 0x8C379A000000000000000000000000000000000000000000000000000000000 DUP2 MSTORE PUSH1 0x4 ADD PUSH2 0x2F75 SWAP1 PUSH2 0x5487 JUMP JUMPDEST PUSH1 0x40 MLOAD DUP1 SWAP2 SUB SWAP1 REVERT JUMPDEST PUSH1 0x0 DUP2 DUP6 PUSH2 0x2F8C SWAP2 SWAP1 PUSH2 0x4BA1 JUMP JUMPDEST SWAP1 POP DUP1 SWAP4 POP POP POP POP SWAP2 SWAP1 POP JUMP JUMPDEST PUSH2 0x2FA1 PUSH2 0x2E97 JUMP JUMPDEST PUSH1 0x1 PUSH1 0x7 PUSH1 0x0 PUSH2 0x100 EXP DUP2 SLOAD DUP2 PUSH1 0xFF MUL NOT AND SWAP1 DUP4 ISZERO ISZERO MUL OR SWAP1 SSTORE POP PUSH32 0x62E78CEA01BEE320CD4E420270B5EA74000D11B0C9F74754EBDBFC544B05A258 PUSH2 0x2FE5 PUSH2 0x2AFB JUMP JUMPDEST PUSH1 0x40 MLOAD PUSH2 0x2FF2 SWAP2 SWAP1 PUSH2 0x4235 JUMP JUMPDEST PUSH1 0x40 MLOAD DUP1 SWAP2 SUB SWAP1 LOG1 JUMP JUMPDEST PUSH1 0x0 PUSH20 0xFFFFFFFFFFFFFFFFFFFFFFFFFFFFFFFFFFFFFFFF AND DUP3 PUSH20 0xFFFFFFFFFFFFFFFFFFFFFFFFFFFFFFFFFFFFFFFF AND SUB PUSH2 0x306E JUMPI PUSH1 0x0 PUSH1 0x40 MLOAD PUSH32 0x96C6FD1E00000000000000000000000000000000000000000000000000000000 DUP2 MSTORE PUSH1 0x4 ADD PUSH2 0x3065 SWAP2 SWAP1 PUSH2 0x4235 JUMP JUMPDEST PUSH1 0x40 MLOAD DUP1 SWAP2 SUB SWAP1 REVERT JUMPDEST PUSH2 0x307A DUP3 PUSH1 0x0 DUP4 PUSH2 0x3533 JUMP JUMPDEST POP POP JUMP JUMPDEST PUSH1 0x0 PUSH1 0x5 PUSH1 0x0 SWAP1 SLOAD SWAP1 PUSH2 0x100 EXP SWAP1 DIV PUSH20 0xFFFFFFFFFFFFFFFFFFFFFFFFFFFFFFFFFFFFFFFF AND SWAP1 POP DUP2 PUSH1 0x5 PUSH1 0x0 PUSH2 0x100 EXP DUP2 SLOAD DUP2 PUSH20 0xFFFFFFFFFFFFFFFFFFFFFFFFFFFFFFFFFFFFFFFF MUL NOT AND SWAP1 DUP4 PUSH20 0xFFFFFFFFFFFFFFFFFFFFFFFFFFFFFFFFFFFFFFFF AND MUL OR SWAP1 SSTORE POP DUP2 PUSH20 0xFFFFFFFFFFFFFFFFFFFFFFFFFFFFFFFFFFFFFFFF AND DUP2 PUSH20 0xFFFFFFFFFFFFFFFFFFFFFFFFFFFFFFFFFFFFFFFF AND PUSH32 0x8BE0079C531659141344CD1FD0A4F28419497F9722A3DAAFE3B4186F6B6457E0 PUSH1 0x40 MLOAD PUSH1 0x40 MLOAD DUP1 SWAP2 SUB SWAP1 LOG3 POP POP JUMP JUMPDEST PUSH1 0x0 PUSH1 0xA PUSH1 0x0 DUP4 PUSH20 0xFFFFFFFFFFFFFFFFFFFFFFFFFFFFFFFFFFFFFFFF AND PUSH20 0xFFFFFFFFFFFFFFFFFFFFFFFFFFFFFFFFFFFFFFFF AND DUP2 MSTORE PUSH1 0x20 ADD SWAP1 DUP2 MSTORE PUSH1 0x20 ADD PUSH1 0x0 KECCAK256 SLOAD SWAP1 POP SWAP2 SWAP1 POP JUMP JUMPDEST PUSH1 0x60 PUSH2 0x31C3 PUSH1 0x8 PUSH32 0x0 PUSH2 0x3837 SWAP1 SWAP2 SWAP1 PUSH4 0xFFFFFFFF AND JUMP JUMPDEST SWAP1 POP SWAP1 JUMP JUMPDEST PUSH1 0x60 PUSH2 0x31FE PUSH1 0x9 PUSH32 0x0 PUSH2 0x3837 SWAP1 SWAP2 SWAP1 PUSH4 0xFFFFFFFF AND JUMP JUMPDEST SWAP1 POP SWAP1 JUMP JUMPDEST PUSH1 0x0 DUP1 PUSH1 0x17 SLOAD PUSH1 0x18 SLOAD PUSH2 0x3216 SWAP2 SWAP1 PUSH2 0x5407 JUMP JUMPDEST SWAP1 POP PUSH1 0x0 PUSH11 0x7C13BC4B2C133C56000000 PUSH1 0x16 SLOAD DUP4 PUSH2 0x3234 SWAP2 SWAP1 PUSH2 0x4B30 JUMP JUMPDEST PUSH2 0x323E SWAP2 SWAP1 PUSH2 0x4BA1 JUMP JUMPDEST PUSH1 0x17 SLOAD PUSH2 0x324B SWAP2 SWAP1 PUSH2 0x4799 JUMP JUMPDEST SWAP1 POP PUSH1 0x17 SLOAD DUP2 LT ISZERO DUP1 ISZERO PUSH2 0x3261 JUMPI POP PUSH1 0x18 SLOAD DUP2 GT ISZERO JUMPDEST PUSH2 0x32A0 JUMPI PUSH1 0x40 MLOAD PUSH32 0x8C379A000000000000000000000000000000000000000000000000000000000 DUP2 MSTORE PUSH1 0x4 ADD PUSH2 0x3297 SWAP1 PUSH2 0x5487 JUMP JUMPDEST PUSH1 0x40 MLOAD DUP1 SWAP2 SUB SWAP1 REVERT JUMPDEST PUSH1 0x0 DUP2 DUP6 PUSH2 0x32AE SWAP2 SWAP1 PUSH2 0x4BA1 JUMP JUMPDEST SWAP1 POP DUP1 SWAP4 POP POP POP POP SWAP2 SWAP1 POP JUMP JUMPDEST PUSH1 0x0 PUSH1 0xA PUSH1 0x0 DUP4 PUSH20 0xFFFFFFFFFFFFFFFFFFFFFFFFFFFFFFFFFFFFFFFF AND PUSH20 0xFFFFFFFFFFFFFFFFFFFFFFFFFFFFFFFFFFFFFFFF AND DUP2 MSTORE PUSH1 0x20 ADD SWAP1 DUP2 MSTORE PUSH1 0x20 ADD PUSH1 0x0 KECCAK256 PUSH1 0x0 DUP2 SLOAD DUP1 SWAP3 SWAP2 SWAP1 PUSH1 0x1 ADD SWAP2 SWAP1 POP SSTORE SWAP1 POP SWAP2 SWAP1 POP JUMP JUMPDEST PUSH1 0x0 PUSH2 0x3325 PUSH2 0x331F PUSH2 0x2D7D JUMP JUMPDEST DUP4 PUSH2 0x38E7 JUMP JUMPDEST SWAP1 POP SWAP2 SWAP1 POP JUMP JUMPDEST PUSH1 0x0 DUP1 PUSH1 0x0 DUP1 PUSH2 0x333E DUP9 DUP9 DUP9 DUP9 PUSH2 0x3928 JUMP JUMPDEST SWAP3 POP SWAP3 POP SWAP3 POP PUSH2 0x334E DUP3 DUP3 PUSH2 0x3A1C JUMP JUMPDEST DUP3 SWAP4 POP POP POP POP SWAP5 SWAP4 POP POP POP POP JUMP JUMPDEST PUSH1 0x0 PUSH20 0xFFFFFFFFFFFFFFFFFFFFFFFFFFFFFFFFFFFFFFFF AND DUP5 PUSH20 0xFFFFFFFFFFFFFFFFFFFFFFFFFFFFFFFFFFFFFFFF AND SUB PUSH2 0x33CE JUMPI PUSH1 0x0 PUSH1 0x40 MLOAD PUSH32 0xE602DF0500000000000000000000000000000000000000000000000000000000 DUP2 MSTORE PUSH1 0x4 ADD PUSH2 0x33C5 SWAP2 SWAP1 PUSH2 0x4235 JUMP JUMPDEST PUSH1 0x40 MLOAD DUP1 SWAP2 SUB SWAP1 REVERT JUMPDEST PUSH1 0x0 PUSH20 0xFFFFFFFFFFFFFFFFFFFFFFFFFFFFFFFFFFFFFFFF AND DUP4 PUSH20 0xFFFFFFFFFFFFFFFFFFFFFFFFFFFFFFFFFFFFFFFF AND SUB PUSH2 0x3440 JUMPI PUSH1 0x0 PUSH1 0x40 MLOAD PUSH32 0x94280D6200000000000000000000000000000000000000000000000000000000 DUP2 MSTORE PUSH1 0x4 ADD PUSH2 0x3437 SWAP2 SWAP1 PUSH2 0x4235 JUMP JUMPDEST PUSH1 0x40 MLOAD DUP1 SWAP2 SUB SWAP1 REVERT JUMPDEST DUP2 PUSH1 0x1 PUSH1 0x0 DUP7 PUSH20 0xFFFFFFFFFFFFFFFFFFFFFFFFFFFFFFFFFFFFFFFF AND PUSH20 0xFFFFFFFFFFFFFFFFFFFFFFFFFFFFFFFFFFFFFFFF AND DUP2 MSTORE PUSH1 0x20 ADD SWAP1 DUP2 MSTORE PUSH1 0x20 ADD PUSH1 0x0 KECCAK256 PUSH1 0x0 DUP6 PUSH20 0xFFFFFFFFFFFFFFFFFFFFFFFFFFFFFFFFFFFFFFFF AND PUSH20 0xFFFFFFFFFFFFFFFFFFFFFFFFFFFFFFFFFFFFFFFF AND DUP2 MSTORE PUSH1 0x20 ADD SWAP1 DUP2 MSTORE PUSH1 0x20 ADD PUSH1 0x0 KECCAK256 DUP2 SWAP1 SSTORE POP DUP1 ISZERO PUSH2 0x352D JUMPI DUP3 PUSH20 0xFFFFFFFFFFFFFFFFFFFFFFFFFFFFFFFFFFFFFFFF AND DUP5 PUSH20 0xFFFFFFFFFFFFFFFFFFFFFFFFFFFFFFFFFFFFFFFF AND PUSH32 0x8C5BE1E5EBEC7D5BD14F71427D1E84F3DD0314C0F7B2291E5B200AC8C7C3B925 DUP5 PUSH1 0x40 MLOAD PUSH2 0x3524 SWAP2 SWAP1 PUSH2 0x3EE2 JUMP JUMPDEST PUSH1 0x40 MLOAD DUP1 SWAP2 SUB SWAP1 LOG3 JUMPDEST POP POP POP POP JUMP JUMPDEST PUSH1 0x0 PUSH20 0xFFFFFFFFFFFFFFFFFFFFFFFFFFFFFFFFFFFFFFFF AND DUP4 PUSH20 0xFFFFFFFFFFFFFFFFFFFFFFFFFFFFFFFFFFFFFFFF AND SUB PUSH2 0x3585 JUMPI DUP1 PUSH1 0x2 PUSH1 0x0 DUP3 DUP3 SLOAD PUSH2 0x3579 SWAP2 SWAP1 PUSH2 0x4799 JUMP JUMPDEST SWAP3 POP POP DUP2 SWAP1 SSTORE POP PUSH2 0x3658 JUMP JUMPDEST PUSH1 0x0 DUP1 PUSH1 0x0 DUP6 PUSH20 0xFFFFFFFFFFFFFFFFFFFFFFFFFFFFFFFFFFFFFFFF AND PUSH20 0xFFFFFFFFFFFFFFFFFFFFFFFFFFFFFFFFFFFFFFFF AND DUP2 MSTORE PUSH1 0x20 ADD SWAP1 DUP2 MSTORE PUSH1 0x20 ADD PUSH1 0x0 KECCAK256 SLOAD SWAP1 POP DUP2 DUP2 LT ISZERO PUSH2 0x3611 JUMPI DUP4 DUP2 DUP4 PUSH1 0x40 MLOAD PUSH32 0xE450D38C00000000000000000000000000000000000000000000000000000000 DUP2 MSTORE PUSH1 0x4 ADD PUSH2 0x3608 SWAP4 SWAP3 SWAP2 SWAP1 PUSH2 0x52F8 JUMP JUMPDEST PUSH1 0x40 MLOAD DUP1 SWAP2 SUB SWAP1 REVERT JUMPDEST DUP2 DUP2 SUB PUSH1 0x0 DUP1 DUP7 PUSH20 0xFFFFFFFFFFFFFFFFFFFFFFFFFFFFFFFFFFFFFFFF AND PUSH20 0xFFFFFFFFFFFFFFFFFFFFFFFFFFFFFFFFFFFFFFFF AND DUP2 MSTORE PUSH1 0x20 ADD SWAP1 DUP2 MSTORE PUSH1 0x20 ADD PUSH1 0x0 KECCAK256 DUP2 SWAP1 SSTORE POP POP JUMPDEST PUSH1 0x0 PUSH20 0xFFFFFFFFFFFFFFFFFFFFFFFFFFFFFFFFFFFFFFFF AND DUP3 PUSH20 0xFFFFFFFFFFFFFFFFFFFFFFFFFFFFFFFFFFFFFFFF AND SUB PUSH2 0x36A1 JUMPI DUP1 PUSH1 0x2 PUSH1 0x0 DUP3 DUP3 SLOAD SUB SWAP3 POP POP DUP2 SWAP1 SSTORE POP PUSH2 0x36EE JUMP JUMPDEST DUP1 PUSH1 0x0 DUP1 DUP5 PUSH20 0xFFFFFFFFFFFFFFFFFFFFFFFFFFFFFFFFFFFFFFFF AND PUSH20 0xFFFFFFFFFFFFFFFFFFFFFFFFFFFFFFFFFFFFFFFF AND DUP2 MSTORE PUSH1 0x20 ADD SWAP1 DUP2 MSTORE PUSH1 0x20 ADD PUSH1 0x0 KECCAK256 PUSH1 0x0 DUP3 DUP3 SLOAD ADD SWAP3 POP POP DUP2 SWAP1 SSTORE POP JUMPDEST DUP2 PUSH20 0xFFFFFFFFFFFFFFFFFFFFFFFFFFFFFFFFFFFFFFFF AND DUP4 PUSH20 0xFFFFFFFFFFFFFFFFFFFFFFFFFFFFFFFFFFFFFFFF AND PUSH32 0xDDF252AD1BE2C89B69C2B068FC378DAA952BA7F163C4A11628F55A4DF523B3EF DUP4 PUSH1 0x40 MLOAD PUSH2 0x374B SWAP2 SWAP1 PUSH2 0x3EE2 JUMP JUMPDEST PUSH1 0x40 MLOAD DUP1 SWAP2 SUB SWAP1 LOG3 POP POP POP JUMP JUMPDEST PUSH1 0x0 PUSH32 0x8B73C3C69BB8FE3D512ECC4CF759CC79239F7B179B0FFACAA9A75D522B39400F PUSH32 0x0 PUSH32 0x0 CHAINID ADDRESS PUSH1 0x40 MLOAD PUSH1 0x20 ADD PUSH2 0x37D3 SWAP6 SWAP5 SWAP4 SWAP3 SWAP2 SWAP1 PUSH2 0x54A7 JUMP JUMPDEST PUSH1 0x40 MLOAD PUSH1 0x20 DUP2 DUP4 SUB SUB DUP2 MSTORE SWAP1 PUSH1 0x40 MSTORE DUP1 MLOAD SWAP1 PUSH1 0x20 ADD KECCAK256 SWAP1 POP SWAP1 JUMP JUMPDEST PUSH2 0x37F6 PUSH2 0x1BBC JUMP JUMPDEST PUSH2 0x3835 JUMPI PUSH1 0x40 MLOAD PUSH32 0x8C379A000000000000000000000000000000000000000000000000000000000 DUP2 MSTORE PUSH1 0x4 ADD PUSH2 0x382C SWAP1 PUSH2 0x5546 JUMP JUMPDEST PUSH1 0x40 MLOAD DUP1 SWAP2 SUB SWAP1 REVERT JUMPDEST JUMP JUMPDEST PUSH1 0x60 PUSH1 0xFF PUSH1 0x0 SHL DUP4 EQ PUSH2 0x3854 JUMPI PUSH2 0x384D DUP4 PUSH2 0x3B80 JUMP JUMPDEST SWAP1 POP PUSH2 0x38E1 JUMP JUMPDEST DUP2 DUP1 SLOAD PUSH2 0x3860 SWAP1 PUSH2 0x4589 JUMP JUMPDEST DUP1 PUSH1 0x1F ADD PUSH1 0x20 DUP1 SWAP2 DIV MUL PUSH1 0x20 ADD PUSH1 0x40 MLOAD SWAP1 DUP2 ADD PUSH1 0x40 MSTORE DUP1 SWAP3 SWAP2 SWAP1 DUP2 DUP2 MSTORE PUSH1 0x20 ADD DUP3 DUP1 SLOAD PUSH2 0x388C SWAP1 PUSH2 0x4589 JUMP JUMPDEST DUP1 ISZERO PUSH2 0x38D9 JUMPI DUP1 PUSH1 0x1F LT PUSH2 0x38AE JUMPI PUSH2 0x100 DUP1 DUP4 SLOAD DIV MUL DUP4 MSTORE SWAP2 PUSH1 0x20 ADD SWAP2 PUSH2 0x38D9 JUMP JUMPDEST DUP3 ADD SWAP2 SWAP1 PUSH1 0x0 MSTORE PUSH1 0x20 PUSH1 0x0 KECCAK256 SWAP1 JUMPDEST DUP2 SLOAD DUP2 MSTORE SWAP1 PUSH1 0x1 ADD SWAP1 PUSH1 0x20 ADD DUP1 DUP4 GT PUSH2 0x38BC JUMPI DUP3 SWAP1 SUB PUSH1 0x1F AND DUP3 ADD SWAP2 JUMPDEST POP POP POP POP POP SWAP1 POP JUMPDEST SWAP3 SWAP2 POP POP JUMP JUMPDEST PUSH1 0x0 PUSH1 0x40 MLOAD PUSH32 0x1901000000000000000000000000000000000000000000000000000000000000 DUP2 MSTORE DUP4 PUSH1 0x2 DUP3 ADD MSTORE DUP3 PUSH1 0x22 DUP3 ADD MSTORE PUSH1 0x42 DUP2 KECCAK256 SWAP2 POP POP SWAP3 SWAP2 POP POP JUMP JUMPDEST PUSH1 0x0 DUP1 PUSH1 0x0 PUSH32 0x7FFFFFFFFFFFFFFFFFFFFFFFFFFFFFFF5D576E7357A4501DDFE92F46681B20A0 DUP5 PUSH1 0x0 SHR GT ISZERO PUSH2 0x3968 JUMPI PUSH1 0x0 PUSH1 0x3 DUP6 SWAP3 POP SWAP3 POP SWAP3 POP PUSH2 0x3A12 JUMP JUMPDEST PUSH1 0x0 PUSH1 0x1 DUP9 DUP9 DUP9 DUP9 PUSH1 0x40 MLOAD PUSH1 0x0 DUP2 MSTORE PUSH1 0x20 ADD PUSH1 0x40 MSTORE PUSH1 0x40 MLOAD PUSH2 0x398D SWAP5 SWAP4 SWAP3 SWAP2 SWAP1 PUSH2 0x5566 JUMP JUMPDEST PUSH1 0x20 PUSH1 0x40 MLOAD PUSH1 0x20 DUP2 SUB SWAP1 DUP1 DUP5 SUB SWAP1 DUP6 GAS STATICCALL ISZERO DUP1 ISZERO PUSH2 0x39AF JUMPI RETURNDATASIZE PUSH1 0x0 DUP1 RETURNDATACOPY RETURNDATASIZE PUSH1 0x0 REVERT JUMPDEST POP POP POP PUSH1 0x20 PUSH1 0x40 MLOAD SUB MLOAD SWAP1 POP PUSH1 0x0 PUSH20 0xFFFFFFFFFFFFFFFFFFFFFFFFFFFFFFFFFFFFFFFF AND DUP2 PUSH20 0xFFFFFFFFFFFFFFFFFFFFFFFFFFFFFFFFFFFFFFFF AND SUB PUSH2 0x3A03 JUMPI PUSH1 0x0 PUSH1 0x1 PUSH1 0x0 DUP1 SHL SWAP4 POP SWAP4 POP SWAP4 POP POP PUSH2 0x3A12 JUMP JUMPDEST DUP1 PUSH1 0x0 DUP1 PUSH1 0x0 SHL SWAP4 POP SWAP4 POP SWAP4 POP POP JUMPDEST SWAP5 POP SWAP5 POP SWAP5 SWAP2 POP POP JUMP JUMPDEST PUSH1 0x0 PUSH1 0x3 DUP2 GT ISZERO PUSH2 0x3A30 JUMPI PUSH2 0x3A2F PUSH2 0x55AB JUMP JUMPDEST JUMPDEST DUP3 PUSH1 0x3 DUP2 GT ISZERO PUSH2 0x3A43 JUMPI PUSH2 0x3A42 PUSH2 0x55AB JUMP JUMPDEST JUMPDEST SUB ISZERO PUSH2 0x3B7C JUMPI PUSH1 0x1 PUSH1 0x3 DUP2 GT ISZERO PUSH2 0x3A5D JUMPI PUSH2 0x3A5C PUSH2 0x55AB JUMP JUMPDEST JUMPDEST DUP3 PUSH1 0x3 DUP2 GT ISZERO PUSH2 0x3A70 JUMPI PUSH2 0x3A6F PUSH2 0x55AB JUMP JUMPDEST JUMPDEST SUB PUSH2 0x3AA7 JUMPI PUSH1 0x40 MLOAD PUSH32 0xF645EEDF00000000000000000000000000000000000000000000000000000000 DUP2 MSTORE PUSH1 0x4 ADD PUSH1 0x40 MLOAD DUP1 SWAP2 SUB SWAP1 REVERT JUMPDEST PUSH1 0x2 PUSH1 0x3 DUP2 GT ISZERO PUSH2 0x3ABB JUMPI PUSH2 0x3ABA PUSH2 0x55AB JUMP JUMPDEST JUMPDEST DUP3 PUSH1 0x3 DUP2 GT ISZERO PUSH2 0x3ACE JUMPI PUSH2 0x3ACD PUSH2 0x55AB JUMP JUMPDEST JUMPDEST SUB PUSH2 0x3B13 JUMPI DUP1 PUSH1 0x0 SHR PUSH1 0x40 MLOAD PUSH32 0xFCE698F700000000000000000000000000000000000000000000000000000000 DUP2 MSTORE PUSH1 0x4 ADD PUSH2 0x3B0A SWAP2 SWAP1 PUSH2 0x3EE2 JUMP JUMPDEST PUSH1 0x40 MLOAD DUP1 SWAP2 SUB SWAP1 REVERT JUMPDEST PUSH1 0x3 DUP1 DUP2 GT ISZERO PUSH2 0x3B26 JUMPI PUSH2 0x3B25 PUSH2 0x55AB JUMP JUMPDEST JUMPDEST DUP3 PUSH1 0x3 DUP2 GT ISZERO PUSH2 0x3B39 JUMPI PUSH2 0x3B38 PUSH2 0x55AB JUMP JUMPDEST JUMPDEST SUB PUSH2 0x3B7B JUMPI DUP1 PUSH1 0x40 MLOAD PUSH32 0xD78BCE0C00000000000000000000000000000000000000000000000000000000 DUP2 MSTORE PUSH1 0x4 ADD PUSH2 0x3B72 SWAP2 SWAP1 PUSH2 0x3FCD JUMP JUMPDEST PUSH1 0x40 MLOAD DUP1 SWAP2 SUB SWAP1 REVERT JUMPDEST JUMPDEST POP POP JUMP JUMPDEST PUSH1 0x60 PUSH1 0x0 PUSH2 0x3B8D DUP4 PUSH2 0x3BF4 JUMP JUMPDEST SWAP1 POP PUSH1 0x0 PUSH1 0x20 PUSH8 0xFFFFFFFFFFFFFFFF DUP2 GT ISZERO PUSH2 0x3BAC JUMPI PUSH2 0x3BAB PUSH2 0x40B2 JUMP JUMPDEST JUMPDEST PUSH1 0x40 MLOAD SWAP1 DUP1 DUP3 MSTORE DUP1 PUSH1 0x1F ADD PUSH1 0x1F NOT AND PUSH1 0x20 ADD DUP3 ADD PUSH1 0x40 MSTORE DUP1 ISZERO PUSH2 0x3BDE JUMPI DUP2 PUSH1 0x20 ADD PUSH1 0x1 DUP3 MUL DUP1 CALLDATASIZE DUP4 CALLDATACOPY DUP1 DUP3 ADD SWAP2 POP POP SWAP1 POP JUMPDEST POP SWAP1 POP DUP2 DUP2 MSTORE DUP4 PUSH1 0x20 DUP3 ADD MSTORE DUP1 SWAP3 POP POP POP SWAP2 SWAP1 POP JUMP JUMPDEST PUSH1 0x0 DUP1 PUSH1 0xFF DUP4 PUSH1 0x0 SHR AND SWAP1 POP PUSH1 0x1F DUP2 GT ISZERO PUSH2 0x3C3B JUMPI PUSH1 0x40 MLOAD PUSH32 0xB3512B0C00000000000000000000000000000000000000000000000000000000 DUP2 MSTORE PUSH1 0x4 ADD PUSH1 0x40 MLOAD DUP1 SWAP2 SUB SWAP1 REVERT JUMPDEST DUP1 SWAP2 POP POP SWAP2 SWAP1 POP JUMP JUMPDEST PUSH1 0x0 DUP3 DUP3 MSTORE PUSH1 0x20 DUP3 ADD SWAP1 POP SWAP3 SWAP2 POP POP JUMP JUMPDEST PUSH32 0x44697265637420455448207472616E7366657273206E6F7420616C6C6F776564 PUSH1 0x0 DUP3 ADD MSTORE PUSH32 0x2E00000000000000000000000000000000000000000000000000000000000000 PUSH1 0x20 DUP3 ADD MSTORE POP JUMP JUMPDEST PUSH1 0x0 PUSH2 0x3CB1 PUSH1 0x21 DUP4 PUSH2 0x3C44 JUMP JUMPDEST SWAP2 POP PUSH2 0x3CBC DUP3 PUSH2 0x3C55 JUMP JUMPDEST PUSH1 0x40 DUP3 ADD SWAP1 POP SWAP2 SWAP1 POP JUMP JUMPDEST PUSH1 0x0 PUSH1 0x20 DUP3 ADD SWAP1 POP DUP2 DUP2 SUB PUSH1 0x0 DUP4 ADD MSTORE PUSH2 0x3CE0 DUP2 PUSH2 0x3CA4 JUMP JUMPDEST SWAP1 POP SWAP2 SWAP1 POP JUMP JUMPDEST PUSH1 0x0 PUSH1 0x40 MLOAD SWAP1 POP SWAP1 JUMP JUMPDEST PUSH1 0x0 DUP1 REVERT JUMPDEST PUSH1 0x0 DUP1 REVERT JUMPDEST PUSH1 0x0 PUSH20 0xFFFFFFFFFFFFFFFFFFFFFFFFFFFFFFFFFFFFFFFF DUP3 AND SWAP1 POP SWAP2 SWAP1 POP JUMP JUMPDEST PUSH1 0x0 PUSH2 0x3D26 DUP3 PUSH2 0x3CFB JUMP JUMPDEST SWAP1 POP SWAP2 SWAP1 POP JUMP JUMPDEST PUSH2 0x3D36 DUP2 PUSH2 0x3D1B JUMP JUMPDEST DUP2 EQ PUSH2 0x3D41 JUMPI PUSH1 0x0 DUP1 REVERT JUMPDEST POP JUMP JUMPDEST PUSH1 0x0 DUP2 CALLDATALOAD SWAP1 POP PUSH2 0x3D53 DUP2 PUSH2 0x3D2D JUMP JUMPDEST SWAP3 SWAP2 POP POP JUMP JUMPDEST PUSH1 0x0 PUSH1 0x20 DUP3 DUP5 SUB SLT ISZERO PUSH2 0x3D6F JUMPI PUSH2 0x3D6E PUSH2 0x3CF1 JUMP JUMPDEST JUMPDEST PUSH1 0x0 PUSH2 0x3D7D DUP5 DUP3 DUP6 ADD PUSH2 0x3D44 JUMP JUMPDEST SWAP2 POP POP SWAP3 SWAP2 POP POP JUMP JUMPDEST PUSH1 0x0 DUP2 MLOAD SWAP1 POP SWAP2 SWAP1 POP JUMP JUMPDEST PUSH1 0x0 JUMPDEST DUP4 DUP2 LT ISZERO PUSH2 0x3DAF JUMPI DUP1 DUP3 ADD MLOAD DUP2 DUP5 ADD MSTORE PUSH1 0x20 DUP2 ADD SWAP1 POP PUSH2 0x3D94 JUMP JUMPDEST PUSH1 0x0 DUP5 DUP5 ADD MSTORE POP POP POP POP JUMP JUMPDEST PUSH1 0x0 PUSH1 0x1F NOT PUSH1 0x1F DUP4 ADD AND SWAP1 POP SWAP2 SWAP1 POP JUMP JUMPDEST PUSH1 0x0 PUSH2 0x3DD7 DUP3 PUSH2 0x3D86 JUMP JUMPDEST PUSH2 0x3DE1 DUP2 DUP6 PUSH2 0x3C44 JUMP JUMPDEST SWAP4 POP PUSH2 0x3DF1 DUP2 DUP6 PUSH1 0x20 DUP7 ADD PUSH2 0x3D91 JUMP JUMPDEST PUSH2 0x3DFA DUP2 PUSH2 0x3DBB JUMP JUMPDEST DUP5 ADD SWAP2 POP POP SWAP3 SWAP2 POP POP JUMP JUMPDEST PUSH1 0x0 PUSH1 0x20 DUP3 ADD SWAP1 POP DUP2 DUP2 SUB PUSH1 0x0 DUP4 ADD MSTORE PUSH2 0x3E1F DUP2 DUP5 PUSH2 0x3DCC JUMP JUMPDEST SWAP1 POP SWAP3 SWAP2 POP POP JUMP JUMPDEST PUSH1 0x0 DUP2 SWAP1 POP SWAP2 SWAP1 POP JUMP JUMPDEST PUSH2 0x3E3A DUP2 PUSH2 0x3E27 JUMP JUMPDEST DUP2 EQ PUSH2 0x3E45 JUMPI PUSH1 0x0 DUP1 REVERT JUMPDEST POP JUMP JUMPDEST PUSH1 0x0 DUP2 CALLDATALOAD SWAP1 POP PUSH2 0x3E57 DUP2 PUSH2 0x3E31 JUMP JUMPDEST SWAP3 SWAP2 POP POP JUMP JUMPDEST PUSH1 0x0 DUP1 PUSH1 0x40 DUP4 DUP6 SUB SLT ISZERO PUSH2 0x3E74 JUMPI PUSH2 0x3E73 PUSH2 0x3CF1 JUMP JUMPDEST JUMPDEST PUSH1 0x0 PUSH2 0x3E82 DUP6 DUP3 DUP7 ADD PUSH2 0x3D44 JUMP JUMPDEST SWAP3 POP POP PUSH1 0x20 PUSH2 0x3E93 DUP6 DUP3 DUP7 ADD PUSH2 0x3E48 JUMP JUMPDEST SWAP2 POP POP SWAP3 POP SWAP3 SWAP1 POP JUMP JUMPDEST PUSH1 0x0 DUP2 ISZERO ISZERO SWAP1 POP SWAP2 SWAP1 POP JUMP JUMPDEST PUSH2 0x3EB2 DUP2 PUSH2 0x3E9D JUMP JUMPDEST DUP3 MSTORE POP POP JUMP JUMPDEST PUSH1 0x0 PUSH1 0x20 DUP3 ADD SWAP1 POP PUSH2 0x3ECD PUSH1 0x0 DUP4 ADD DUP5 PUSH2 0x3EA9 JUMP JUMPDEST SWAP3 SWAP2 POP POP JUMP JUMPDEST PUSH2 0x3EDC DUP2 PUSH2 0x3E27 JUMP JUMPDEST DUP3 MSTORE POP POP JUMP JUMPDEST PUSH1 0x0 PUSH1 0x20 DUP3 ADD SWAP1 POP PUSH2 0x3EF7 PUSH1 0x0 DUP4 ADD DUP5 PUSH2 0x3ED3 JUMP JUMPDEST SWAP3 SWAP2 POP POP JUMP JUMPDEST PUSH1 0x0 DUP1 PUSH1 0x0 PUSH1 0x60 DUP5 DUP7 SUB SLT ISZERO PUSH2 0x3F16 JUMPI PUSH2 0x3F15 PUSH2 0x3CF1 JUMP JUMPDEST JUMPDEST PUSH1 0x0 PUSH2 0x3F24 DUP7 DUP3 DUP8 ADD PUSH2 0x3D44 JUMP JUMPDEST SWAP4 POP POP PUSH1 0x20 PUSH2 0x3F35 DUP7 DUP3 DUP8 ADD PUSH2 0x3D44 JUMP JUMPDEST SWAP3 POP POP PUSH1 0x40 PUSH2 0x3F46 DUP7 DUP3 DUP8 ADD PUSH2 0x3E48 JUMP JUMPDEST SWAP2 POP POP SWAP3 POP SWAP3 POP SWAP3 JUMP JUMPDEST PUSH1 0x0 PUSH1 0x20 DUP3 DUP5 SUB SLT ISZERO PUSH2 0x3F66 JUMPI PUSH2 0x3F65 PUSH2 0x3CF1 JUMP JUMPDEST JUMPDEST PUSH1 0x0 PUSH2 0x3F74 DUP5 DUP3 DUP6 ADD PUSH2 0x3E48 JUMP JUMPDEST SWAP2 POP POP SWAP3 SWAP2 POP POP JUMP JUMPDEST PUSH1 0x0 PUSH1 0xFF DUP3 AND SWAP1 POP SWAP2 SWAP1 POP JUMP JUMPDEST PUSH2 0x3F93 DUP2 PUSH2 0x3F7D JUMP JUMPDEST DUP3 MSTORE POP POP JUMP JUMPDEST PUSH1 0x0 PUSH1 0x20 DUP3 ADD SWAP1 POP PUSH2 0x3FAE PUSH1 0x0 DUP4 ADD DUP5 PUSH2 0x3F8A JUMP JUMPDEST SWAP3 SWAP2 POP POP JUMP JUMPDEST PUSH1 0x0 DUP2 SWAP1 POP SWAP2 SWAP1 POP JUMP JUMPDEST PUSH2 0x3FC7 DUP2 PUSH2 0x3FB4 JUMP JUMPDEST DUP3 MSTORE POP POP JUMP JUMPDEST PUSH1 0x0 PUSH1 0x20 DUP3 ADD SWAP1 POP PUSH2 0x3FE2 PUSH1 0x0 DUP4 ADD DUP5 PUSH2 0x3FBE JUMP JUMPDEST SWAP3 SWAP2 POP POP JUMP JUMPDEST PUSH1 0x0 DUP1 REVERT JUMPDEST PUSH1 0x0 DUP1 REVERT JUMPDEST PUSH1 0x0 DUP1 REVERT JUMPDEST PUSH1 0x0 DUP1 DUP4 PUSH1 0x1F DUP5 ADD SLT PUSH2 0x400D JUMPI PUSH2 0x400C PUSH2 0x3FE8 JUMP JUMPDEST JUMPDEST DUP3 CALLDATALOAD SWAP1 POP PUSH8 0xFFFFFFFFFFFFFFFF DUP2 GT ISZERO PUSH2 0x402A JUMPI PUSH2 0x4029 PUSH2 0x3FED JUMP JUMPDEST JUMPDEST PUSH1 0x20 DUP4 ADD SWAP2 POP DUP4 PUSH1 0x1 DUP3 MUL DUP4 ADD GT ISZERO PUSH2 0x4046 JUMPI PUSH2 0x4045 PUSH2 0x3FF2 JUMP JUMPDEST JUMPDEST SWAP3 POP SWAP3 SWAP1 POP JUMP JUMPDEST PUSH1 0x0 DUP1 PUSH1 0x0 PUSH1 0x40 DUP5 DUP7 SUB SLT ISZERO PUSH2 0x4066 JUMPI PUSH2 0x4065 PUSH2 0x3CF1 JUMP JUMPDEST JUMPDEST PUSH1 0x0 PUSH2 0x4074 DUP7 DUP3 DUP8 ADD PUSH2 0x3E48 JUMP JUMPDEST SWAP4 POP POP PUSH1 0x20 DUP5 ADD CALLDATALOAD PUSH8 0xFFFFFFFFFFFFFFFF DUP2 GT ISZERO PUSH2 0x4095 JUMPI PUSH2 0x4094 PUSH2 0x3CF6 JUMP JUMPDEST JUMPDEST PUSH2 0x40A1 DUP7 DUP3 DUP8 ADD PUSH2 0x3FF7 JUMP JUMPDEST SWAP3 POP SWAP3 POP POP SWAP3 POP SWAP3 POP SWAP3 JUMP JUMPDEST PUSH1 0x0 DUP1 REVERT JUMPDEST PUSH32 0x4E487B7100000000000000000000000000000000000000000000000000000000 PUSH1 0x0 MSTORE PUSH1 0x41 PUSH1 0x4 MSTORE PUSH1 0x24 PUSH1 0x0 REVERT JUMPDEST PUSH2 0x40EA DUP3 PUSH2 0x3DBB JUMP JUMPDEST DUP2 ADD DUP2 DUP2 LT PUSH8 0xFFFFFFFFFFFFFFFF DUP3 GT OR ISZERO PUSH2 0x4109 JUMPI PUSH2 0x4108 PUSH2 0x40B2 JUMP JUMPDEST JUMPDEST DUP1 PUSH1 0x40 MSTORE POP POP POP JUMP JUMPDEST PUSH1 0x0 PUSH2 0x411C PUSH2 0x3CE7 JUMP JUMPDEST SWAP1 POP PUSH2 0x4128 DUP3 DUP3 PUSH2 0x40E1 JUMP JUMPDEST SWAP2 SWAP1 POP JUMP JUMPDEST PUSH1 0x0 PUSH8 0xFFFFFFFFFFFFFFFF DUP3 GT ISZERO PUSH2 0x4148 JUMPI PUSH2 0x4147 PUSH2 0x40B2 JUMP JUMPDEST JUMPDEST PUSH2 0x4151 DUP3 PUSH2 0x3DBB JUMP JUMPDEST SWAP1 POP PUSH1 0x20 DUP2 ADD SWAP1 POP SWAP2 SWAP1 POP JUMP JUMPDEST DUP3 DUP2 DUP4 CALLDATACOPY PUSH1 0x0 DUP4 DUP4 ADD MSTORE POP POP POP JUMP JUMPDEST PUSH1 0x0 PUSH2 0x4180 PUSH2 0x417B DUP5 PUSH2 0x412D JUMP JUMPDEST PUSH2 0x4112 JUMP JUMPDEST SWAP1 POP DUP3 DUP2 MSTORE PUSH1 0x20 DUP2 ADD DUP5 DUP5 DUP5 ADD GT ISZERO PUSH2 0x419C JUMPI PUSH2 0x419B PUSH2 0x40AD JUMP JUMPDEST JUMPDEST PUSH2 0x41A7 DUP5 DUP3 DUP6 PUSH2 0x415E JUMP JUMPDEST POP SWAP4 SWAP3 POP POP POP JUMP JUMPDEST PUSH1 0x0 DUP3 PUSH1 0x1F DUP4 ADD SLT PUSH2 0x41C4 JUMPI PUSH2 0x41C3 PUSH2 0x3FE8 JUMP JUMPDEST JUMPDEST DUP2 CALLDATALOAD PUSH2 0x41D4 DUP5 DUP3 PUSH1 0x20 DUP7 ADD PUSH2 0x416D JUMP JUMPDEST SWAP2 POP POP SWAP3 SWAP2 POP POP JUMP JUMPDEST PUSH1 0x0 PUSH1 0x20 DUP3 DUP5 SUB SLT ISZERO PUSH2 0x41F3 JUMPI PUSH2 0x41F2 PUSH2 0x3CF1 JUMP JUMPDEST JUMPDEST PUSH1 0x0 DUP3 ADD CALLDATALOAD PUSH8 0xFFFFFFFFFFFFFFFF DUP2 GT ISZERO PUSH2 0x4211 JUMPI PUSH2 0x4210 PUSH2 0x3CF6 JUMP JUMPDEST JUMPDEST PUSH2 0x421D DUP5 DUP3 DUP6 ADD PUSH2 0x41AF JUMP JUMPDEST SWAP2 POP POP SWAP3 SWAP2 POP POP JUMP JUMPDEST PUSH2 0x422F DUP2 PUSH2 0x3D1B JUMP JUMPDEST DUP3 MSTORE POP POP JUMP JUMPDEST PUSH1 0x0 PUSH1 0x20 DUP3 ADD SWAP1 POP PUSH2 0x424A PUSH1 0x0 DUP4 ADD DUP5 PUSH2 0x4226 JUMP JUMPDEST SWAP3 SWAP2 POP POP JUMP JUMPDEST PUSH1 0x0 PUSH32 0xFF00000000000000000000000000000000000000000000000000000000000000 DUP3 AND SWAP1 POP SWAP2 SWAP1 POP JUMP JUMPDEST PUSH2 0x4285 DUP2 PUSH2 0x4250 JUMP JUMPDEST DUP3 MSTORE POP POP JUMP JUMPDEST PUSH1 0x0 DUP2 MLOAD SWAP1 POP SWAP2 SWAP1 POP JUMP JUMPDEST PUSH1 0x0 DUP3 DUP3 MSTORE PUSH1 0x20 DUP3 ADD SWAP1 POP SWAP3 SWAP2 POP POP JUMP JUMPDEST PUSH1 0x0 DUP2 SWAP1 POP PUSH1 0x20 DUP3 ADD SWAP1 POP SWAP2 SWAP1 POP JUMP JUMPDEST PUSH2 0x42C0 DUP2 PUSH2 0x3E27 JUMP JUMPDEST DUP3 MSTORE POP POP JUMP JUMPDEST PUSH1 0x0 PUSH2 0x42D2 DUP4 DUP4 PUSH2 0x42B7 JUMP JUMPDEST PUSH1 0x20 DUP4 ADD SWAP1 POP SWAP3 SWAP2 POP POP JUMP JUMPDEST PUSH1 0x0 PUSH1 0x20 DUP3 ADD SWAP1 POP SWAP2 SWAP1 POP JUMP JUMPDEST PUSH1 0x0 PUSH2 0x42F6 DUP3 PUSH2 0x428B JUMP JUMPDEST PUSH2 0x4300 DUP2 DUP6 PUSH2 0x4296 JUMP JUMPDEST SWAP4 POP PUSH2 0x430B DUP4 PUSH2 0x42A7 JUMP JUMPDEST DUP1 PUSH1 0x0 JUMPDEST DUP4 DUP2 LT ISZERO PUSH2 0x433C JUMPI DUP2 MLOAD PUSH2 0x4323 DUP9 DUP3 PUSH2 0x42C6 JUMP JUMPDEST SWAP8 POP PUSH2 0x432E DUP4 PUSH2 0x42DE JUMP JUMPDEST SWAP3 POP POP PUSH1 0x1 DUP2 ADD SWAP1 POP PUSH2 0x430F JUMP JUMPDEST POP DUP6 SWAP4 POP POP POP POP SWAP3 SWAP2 POP POP JUMP JUMPDEST PUSH1 0x0 PUSH1 0xE0 DUP3 ADD SWAP1 POP PUSH2 0x435E PUSH1 0x0 DUP4 ADD DUP11 PUSH2 0x427C JUMP JUMPDEST DUP2 DUP2 SUB PUSH1 0x20 DUP4 ADD MSTORE PUSH2 0x4370 DUP2 DUP10 PUSH2 0x3DCC JUMP JUMPDEST SWAP1 POP DUP2 DUP2 SUB PUSH1 0x40 DUP4 ADD MSTORE PUSH2 0x4384 DUP2 DUP9 PUSH2 0x3DCC JUMP JUMPDEST SWAP1 POP PUSH2 0x4393 PUSH1 0x60 DUP4 ADD DUP8 PUSH2 0x3ED3 JUMP JUMPDEST PUSH2 0x43A0 PUSH1 0x80 DUP4 ADD DUP7 PUSH2 0x4226 JUMP JUMPDEST PUSH2 0x43AD PUSH1 0xA0 DUP4 ADD DUP6 PUSH2 0x3FBE JUMP JUMPDEST DUP2 DUP2 SUB PUSH1 0xC0 DUP4 ADD MSTORE PUSH2 0x43BF DUP2 DUP5 PUSH2 0x42EB JUMP JUMPDEST SWAP1 POP SWAP9 SWAP8 POP POP POP POP POP POP POP POP JUMP JUMPDEST PUSH2 0x43D6 DUP2 PUSH2 0x3F7D JUMP JUMPDEST DUP2 EQ PUSH2 0x43E1 JUMPI PUSH1 0x0 DUP1 REVERT JUMPDEST POP JUMP JUMPDEST PUSH1 0x0 DUP2 CALLDATALOAD SWAP1 POP PUSH2 0x43F3 DUP2 PUSH2 0x43CD JUMP JUMPDEST SWAP3 SWAP2 POP POP JUMP JUMPDEST PUSH2 0x4402 DUP2 PUSH2 0x3FB4 JUMP JUMPDEST DUP2 EQ PUSH2 0x440D JUMPI PUSH1 0x0 DUP1 REVERT JUMPDEST POP JUMP JUMPDEST PUSH1 0x0 DUP2 CALLDATALOAD SWAP1 POP PUSH2 0x441F DUP2 PUSH2 0x43F9 JUMP JUMPDEST SWAP3 SWAP2 POP POP JUMP JUMPDEST PUSH1 0x0 DUP1 PUSH1 0x0 DUP1 PUSH1 0x0 DUP1 PUSH1 0x0 PUSH1 0xE0 DUP9 DUP11 SUB SLT ISZERO PUSH2 0x4444 JUMPI PUSH2 0x4443 PUSH2 0x3CF1 JUMP JUMPDEST JUMPDEST PUSH1 0x0 PUSH2 0x4452 DUP11 DUP3 DUP12 ADD PUSH2 0x3D44 JUMP JUMPDEST SWAP8 POP POP PUSH1 0x20 PUSH2 0x4463 DUP11 DUP3 DUP12 ADD PUSH2 0x3D44 JUMP JUMPDEST SWAP7 POP POP PUSH1 0x40 PUSH2 0x4474 DUP11 DUP3 DUP12 ADD PUSH2 0x3E48 JUMP JUMPDEST SWAP6 POP POP PUSH1 0x60 PUSH2 0x4485 DUP11 DUP3 DUP12 ADD PUSH2 0x3E48 JUMP JUMPDEST SWAP5 POP POP PUSH1 0x80 PUSH2 0x4496 DUP11 DUP3 DUP12 ADD PUSH2 0x43E4 JUMP JUMPDEST SWAP4 POP POP PUSH1 0xA0 PUSH2 0x44A7 DUP11 DUP3 DUP12 ADD PUSH2 0x4410 JUMP JUMPDEST SWAP3 POP POP PUSH1 0xC0 PUSH2 0x44B8 DUP11 DUP3 DUP12 ADD PUSH2 0x4410 JUMP JUMPDEST SWAP2 POP POP SWAP3 SWAP6 SWAP9 SWAP2 SWAP5 SWAP8 POP SWAP3 SWAP6 POP JUMP JUMPDEST PUSH1 0x0 DUP1 PUSH1 0x40 DUP4 DUP6 SUB SLT ISZERO PUSH2 0x44DE JUMPI PUSH2 0x44DD PUSH2 0x3CF1 JUMP JUMPDEST JUMPDEST PUSH1 0x0 PUSH2 0x44EC DUP6 DUP3 DUP7 ADD PUSH2 0x3D44 JUMP JUMPDEST SWAP3 POP POP PUSH1 0x20 PUSH2 0x44FD DUP6 DUP3 DUP7 ADD PUSH2 0x3D44 JUMP JUMPDEST SWAP2 POP POP SWAP3 POP SWAP3 SWAP1 POP JUMP JUMPDEST PUSH1 0x0 PUSH1 0xA0 DUP3 ADD SWAP1 POP PUSH2 0x451C PUSH1 0x0 DUP4 ADD DUP9 PUSH2 0x3ED3 JUMP JUMPDEST PUSH2 0x4529 PUSH1 0x20 DUP4 ADD DUP8 PUSH2 0x3ED3 JUMP JUMPDEST PUSH2 0x4536 PUSH1 0x40 DUP4 ADD DUP7 PUSH2 0x3ED3 JUMP JUMPDEST PUSH2 0x4543 PUSH1 0x60 DUP4 ADD DUP6 PUSH2 0x3ED3 JUMP JUMPDEST PUSH2 0x4550 PUSH1 0x80 DUP4 ADD DUP5 PUSH2 0x3ED3 JUMP JUMPDEST SWAP7 SWAP6 POP POP POP POP POP POP JUMP JUMPDEST PUSH32 0x4E487B7100000000000000000000000000000000000000000000000000000000 PUSH1 0x0 MSTORE PUSH1 0x22 PUSH1 0x4 MSTORE PUSH1 0x24 PUSH1 0x0 REVERT JUMPDEST PUSH1 0x0 PUSH1 0x2 DUP3 DIV SWAP1 POP PUSH1 0x1 DUP3 AND DUP1 PUSH2 0x45A1 JUMPI PUSH1 0x7F DUP3 AND SWAP2 POP JUMPDEST PUSH1 0x20 DUP3 LT DUP2 SUB PUSH2 0x45B4 JUMPI PUSH2 0x45B3 PUSH2 0x455A JUMP JUMPDEST JUMPDEST POP SWAP2 SWAP1 POP JUMP JUMPDEST PUSH32 0x4E6F2045544820746F2077697468647261770000000000000000000000000000 PUSH1 0x0 DUP3 ADD MSTORE POP JUMP JUMPDEST PUSH1 0x0 PUSH2 0x45F0 PUSH1 0x12 DUP4 PUSH2 0x3C44 JUMP JUMPDEST SWAP2 POP PUSH2 0x45FB DUP3 PUSH2 0x45BA JUMP JUMPDEST PUSH1 0x20 DUP3 ADD SWAP1 POP SWAP2 SWAP1 POP JUMP JUMPDEST PUSH1 0x0 PUSH1 0x20 DUP3 ADD SWAP1 POP DUP2 DUP2 SUB PUSH1 0x0 DUP4 ADD MSTORE PUSH2 0x461F DUP2 PUSH2 0x45E3 JUMP JUMPDEST SWAP1 POP SWAP2 SWAP1 POP JUMP JUMPDEST PUSH1 0x0 DUP2 SWAP1 POP SWAP3 SWAP2 POP POP JUMP JUMPDEST POP JUMP JUMPDEST PUSH1 0x0 PUSH2 0x4641 PUSH1 0x0 DUP4 PUSH2 0x4626 JUMP JUMPDEST SWAP2 POP PUSH2 0x464C DUP3 PUSH2 0x4631 JUMP JUMPDEST PUSH1 0x0 DUP3 ADD SWAP1 POP SWAP2 SWAP1 POP JUMP JUMPDEST PUSH1 0x0 PUSH2 0x4662 DUP3 PUSH2 0x4634 JUMP JUMPDEST SWAP2 POP DUP2 SWAP1 POP SWAP2 SWAP1 POP JUMP JUMPDEST PUSH32 0x5769746864726177206661696C65640000000000000000000000000000000000 PUSH1 0x0 DUP3 ADD MSTORE POP JUMP JUMPDEST PUSH1 0x0 PUSH2 0x46A2 PUSH1 0xF DUP4 PUSH2 0x3C44 JUMP JUMPDEST SWAP2 POP PUSH2 0x46AD DUP3 PUSH2 0x466C JUMP JUMPDEST PUSH1 0x20 DUP3 ADD SWAP1 POP SWAP2 SWAP1 POP JUMP JUMPDEST PUSH1 0x0 PUSH1 0x20 DUP3 ADD SWAP1 POP DUP2 DUP2 SUB PUSH1 0x0 DUP4 ADD MSTORE PUSH2 0x46D1 DUP2 PUSH2 0x4695 JUMP JUMPDEST SWAP1 POP SWAP2 SWAP1 POP JUMP JUMPDEST PUSH32 0x496E73756666696369656E7420746F6B656E7320696E20636F6E747261637420 PUSH1 0x0 DUP3 ADD MSTORE PUSH32 0x746F206275726E00000000000000000000000000000000000000000000000000 PUSH1 0x20 DUP3 ADD MSTORE POP JUMP JUMPDEST PUSH1 0x0 PUSH2 0x4734 PUSH1 0x27 DUP4 PUSH2 0x3C44 JUMP JUMPDEST SWAP2 POP PUSH2 0x473F DUP3 PUSH2 0x46D8 JUMP JUMPDEST PUSH1 0x40 DUP3 ADD SWAP1 POP SWAP2 SWAP1 POP JUMP JUMPDEST PUSH1 0x0 PUSH1 0x20 DUP3 ADD SWAP1 POP DUP2 DUP2 SUB PUSH1 0x0 DUP4 ADD MSTORE PUSH2 0x4763 DUP2 PUSH2 0x4727 JUMP JUMPDEST SWAP1 POP SWAP2 SWAP1 POP JUMP JUMPDEST PUSH32 0x4E487B7100000000000000000000000000000000000000000000000000000000 PUSH1 0x0 MSTORE PUSH1 0x11 PUSH1 0x4 MSTORE PUSH1 0x24 PUSH1 0x0 REVERT JUMPDEST PUSH1 0x0 PUSH2 0x47A4 DUP3 PUSH2 0x3E27 JUMP JUMPDEST SWAP2 POP PUSH2 0x47AF DUP4 PUSH2 0x3E27 JUMP JUMPDEST SWAP3 POP DUP3 DUP3 ADD SWAP1 POP DUP1 DUP3 GT ISZERO PUSH2 0x47C7 JUMPI PUSH2 0x47C6 PUSH2 0x476A JUMP JUMPDEST JUMPDEST SWAP3 SWAP2 POP POP JUMP JUMPDEST PUSH32 0x496E73756666696369656E7420746F6B656E7320696E20636F6E747261637400 PUSH1 0x0 DUP3 ADD MSTORE POP JUMP JUMPDEST PUSH1 0x0 PUSH2 0x4803 PUSH1 0x1F DUP4 PUSH2 0x3C44 JUMP JUMPDEST SWAP2 POP PUSH2 0x480E DUP3 PUSH2 0x47CD JUMP JUMPDEST PUSH1 0x20 DUP3 ADD SWAP1 POP SWAP2 SWAP1 POP JUMP JUMPDEST PUSH1 0x0 PUSH1 0x20 DUP3 ADD SWAP1 POP DUP2 DUP2 SUB PUSH1 0x0 DUP4 ADD MSTORE PUSH2 0x4832 DUP2 PUSH2 0x47F6 JUMP JUMPDEST SWAP1 POP SWAP2 SWAP1 POP JUMP JUMPDEST PUSH32 0x41646472657373206E6F742077686974656C6973746564000000000000000000 PUSH1 0x0 DUP3 ADD MSTORE POP JUMP JUMPDEST PUSH1 0x0 PUSH2 0x486F PUSH1 0x17 DUP4 PUSH2 0x3C44 JUMP JUMPDEST SWAP2 POP PUSH2 0x487A DUP3 PUSH2 0x4839 JUMP JUMPDEST PUSH1 0x20 DUP3 ADD SWAP1 POP SWAP2 SWAP1 POP JUMP JUMPDEST PUSH1 0x0 PUSH1 0x20 DUP3 ADD SWAP1 POP DUP2 DUP2 SUB PUSH1 0x0 DUP4 ADD MSTORE PUSH2 0x489E DUP2 PUSH2 0x4862 JUMP JUMPDEST SWAP1 POP SWAP2 SWAP1 POP JUMP JUMPDEST PUSH32 0x507269766174652053616C652068617320656E64656400000000000000000000 PUSH1 0x0 DUP3 ADD MSTORE POP JUMP JUMPDEST PUSH1 0x0 PUSH2 0x48DB PUSH1 0x16 DUP4 PUSH2 0x3C44 JUMP JUMPDEST SWAP2 POP PUSH2 0x48E6 DUP3 PUSH2 0x48A5 JUMP JUMPDEST PUSH1 0x20 DUP3 ADD SWAP1 POP SWAP2 SWAP1 POP JUMP JUMPDEST PUSH1 0x0 PUSH1 0x20 DUP3 ADD SWAP1 POP DUP2 DUP2 SUB PUSH1 0x0 DUP4 ADD MSTORE PUSH2 0x490A DUP2 PUSH2 0x48CE JUMP JUMPDEST SWAP1 POP SWAP2 SWAP1 POP JUMP JUMPDEST PUSH32 0x4D696E696D756D20696E766573746D656E7420616D6F756E74206E6F74206D65 PUSH1 0x0 DUP3 ADD MSTORE PUSH32 0x7400000000000000000000000000000000000000000000000000000000000000 PUSH1 0x20 DUP3 ADD MSTORE POP JUMP JUMPDEST PUSH1 0x0 PUSH2 0x496D PUSH1 0x21 DUP4 PUSH2 0x3C44 JUMP JUMPDEST SWAP2 POP PUSH2 0x4978 DUP3 PUSH2 0x4911 JUMP JUMPDEST PUSH1 0x40 DUP3 ADD SWAP1 POP SWAP2 SWAP1 POP JUMP JUMPDEST PUSH1 0x0 PUSH1 0x20 DUP3 ADD SWAP1 POP DUP2 DUP2 SUB PUSH1 0x0 DUP4 ADD MSTORE PUSH2 0x499C DUP2 PUSH2 0x4960 JUMP JUMPDEST SWAP1 POP SWAP2 SWAP1 POP JUMP JUMPDEST PUSH32 0x507269766174652053616C6520736F6C64206F75740000000000000000000000 PUSH1 0x0 DUP3 ADD MSTORE POP JUMP JUMPDEST PUSH1 0x0 PUSH2 0x49D9 PUSH1 0x15 DUP4 PUSH2 0x3C44 JUMP JUMPDEST SWAP2 POP PUSH2 0x49E4 DUP3 PUSH2 0x49A3 JUMP JUMPDEST PUSH1 0x20 DUP3 ADD SWAP1 POP SWAP2 SWAP1 POP JUMP JUMPDEST PUSH1 0x0 PUSH1 0x20 DUP3 ADD SWAP1 POP DUP2 DUP2 SUB PUSH1 0x0 DUP4 ADD MSTORE PUSH2 0x4A08 DUP2 PUSH2 0x49CC JUMP JUMPDEST SWAP1 POP SWAP2 SWAP1 POP JUMP JUMPDEST PUSH32 0x4578636565647320507269766174652053616C6520746F6B656E206C696D6974 PUSH1 0x0 DUP3 ADD MSTORE POP JUMP JUMPDEST PUSH1 0x0 PUSH2 0x4A45 PUSH1 0x20 DUP4 PUSH2 0x3C44 JUMP JUMPDEST SWAP2 POP PUSH2 0x4A50 DUP3 PUSH2 0x4A0F JUMP JUMPDEST PUSH1 0x20 DUP3 ADD SWAP1 POP SWAP2 SWAP1 POP JUMP JUMPDEST PUSH1 0x0 PUSH1 0x20 DUP3 ADD SWAP1 POP DUP2 DUP2 SUB PUSH1 0x0 DUP4 ADD MSTORE PUSH2 0x4A74 DUP2 PUSH2 0x4A38 JUMP JUMPDEST SWAP1 POP SWAP2 SWAP1 POP JUMP JUMPDEST PUSH1 0x0 DUP2 SWAP1 POP SWAP3 SWAP2 POP POP JUMP JUMPDEST PUSH1 0x0 PUSH2 0x4A92 DUP4 DUP6 PUSH2 0x4A7B JUMP JUMPDEST SWAP4 POP PUSH2 0x4A9F DUP4 DUP6 DUP5 PUSH2 0x415E JUMP JUMPDEST DUP3 DUP5 ADD SWAP1 POP SWAP4 SWAP3 POP POP POP JUMP JUMPDEST PUSH1 0x0 PUSH2 0x4AB8 DUP3 DUP5 DUP7 PUSH2 0x4A86 JUMP JUMPDEST SWAP2 POP DUP2 SWAP1 POP SWAP4 SWAP3 POP POP POP JUMP JUMPDEST PUSH32 0x496E76616C696420616666696C6961746520636F646500000000000000000000 PUSH1 0x0 DUP3 ADD MSTORE POP JUMP JUMPDEST PUSH1 0x0 PUSH2 0x4AFA PUSH1 0x16 DUP4 PUSH2 0x3C44 JUMP JUMPDEST SWAP2 POP PUSH2 0x4B05 DUP3 PUSH2 0x4AC4 JUMP JUMPDEST PUSH1 0x20 DUP3 ADD SWAP1 POP SWAP2 SWAP1 POP JUMP JUMPDEST PUSH1 0x0 PUSH1 0x20 DUP3 ADD SWAP1 POP DUP2 DUP2 SUB PUSH1 0x0 DUP4 ADD MSTORE PUSH2 0x4B29 DUP2 PUSH2 0x4AED JUMP JUMPDEST SWAP1 POP SWAP2 SWAP1 POP JUMP JUMPDEST PUSH1 0x0 PUSH2 0x4B3B DUP3 PUSH2 0x3E27 JUMP JUMPDEST SWAP2 POP PUSH2 0x4B46 DUP4 PUSH2 0x3E27 JUMP JUMPDEST SWAP3 POP DUP3 DUP3 MUL PUSH2 0x4B54 DUP2 PUSH2 0x3E27 JUMP JUMPDEST SWAP2 POP DUP3 DUP3 DIV DUP5 EQ DUP4 ISZERO OR PUSH2 0x4B6B JUMPI PUSH2 0x4B6A PUSH2 0x476A JUMP JUMPDEST JUMPDEST POP SWAP3 SWAP2 POP POP JUMP JUMPDEST PUSH32 0x4E487B7100000000000000000000000000000000000000000000000000000000 PUSH1 0x0 MSTORE PUSH1 0x12 PUSH1 0x4 MSTORE PUSH1 0x24 PUSH1 0x0 REVERT JUMPDEST PUSH1 0x0 PUSH2 0x4BAC DUP3 PUSH2 0x3E27 JUMP JUMPDEST SWAP2 POP PUSH2 0x4BB7 DUP4 PUSH2 0x3E27 JUMP JUMPDEST SWAP3 POP DUP3 PUSH2 0x4BC7 JUMPI PUSH2 0x4BC6 PUSH2 0x4B72 JUMP JUMPDEST JUMPDEST DUP3 DUP3 DIV SWAP1 POP SWAP3 SWAP2 POP POP JUMP JUMPDEST PUSH1 0x0 PUSH2 0x4BDE DUP4 DUP6 PUSH2 0x3C44 JUMP JUMPDEST SWAP4 POP PUSH2 0x4BEB DUP4 DUP6 DUP5 PUSH2 0x415E JUMP JUMPDEST PUSH2 0x4BF4 DUP4 PUSH2 0x3DBB JUMP JUMPDEST DUP5 ADD SWAP1 POP SWAP4 SWAP3 POP POP POP JUMP JUMPDEST PUSH1 0x0 PUSH1 0x40 DUP3 ADD SWAP1 POP PUSH2 0x4C14 PUSH1 0x0 DUP4 ADD DUP7 PUSH2 0x3ED3 JUMP JUMPDEST DUP2 DUP2 SUB PUSH1 0x20 DUP4 ADD MSTORE PUSH2 0x4C27 DUP2 DUP5 DUP7 PUSH2 0x4BD2 JUMP JUMPDEST SWAP1 POP SWAP5 SWAP4 POP POP POP POP JUMP JUMPDEST PUSH32 0x4E6F207374616B656420746F6B656E7320746F2072656C656173650000000000 PUSH1 0x0 DUP3 ADD MSTORE POP JUMP JUMPDEST PUSH1 0x0 PUSH2 0x4C67 PUSH1 0x1B DUP4 PUSH2 0x3C44 JUMP JUMPDEST SWAP2 POP PUSH2 0x4C72 DUP3 PUSH2 0x4C31 JUMP JUMPDEST PUSH1 0x20 DUP3 ADD SWAP1 POP SWAP2 SWAP1 POP JUMP JUMPDEST PUSH1 0x0 PUSH1 0x20 DUP3 ADD SWAP1 POP DUP2 DUP2 SUB PUSH1 0x0 DUP4 ADD MSTORE PUSH2 0x4C96 DUP2 PUSH2 0x4C5A JUMP JUMPDEST SWAP1 POP SWAP2 SWAP1 POP JUMP JUMPDEST PUSH32 0x546F6B656E7320617265207374696C6C20696E2076657374696E672070657269 PUSH1 0x0 DUP3 ADD MSTORE PUSH32 0x6F64000000000000000000000000000000000000000000000000000000000000 PUSH1 0x20 DUP3 ADD MSTORE POP JUMP JUMPDEST PUSH1 0x0 PUSH2 0x4CF9 PUSH1 0x22 DUP4 PUSH2 0x3C44 JUMP JUMPDEST SWAP2 POP PUSH2 0x4D04 DUP3 PUSH2 0x4C9D JUMP JUMPDEST PUSH1 0x40 DUP3 ADD SWAP1 POP SWAP2 SWAP1 POP JUMP JUMPDEST PUSH1 0x0 PUSH1 0x20 DUP3 ADD SWAP1 POP DUP2 DUP2 SUB PUSH1 0x0 DUP4 ADD MSTORE PUSH2 0x4D28 DUP2 PUSH2 0x4CEC JUMP JUMPDEST SWAP1 POP SWAP2 SWAP1 POP JUMP JUMPDEST PUSH32 0x5072652D53616C6520616C726561647920636F6D706C65746564000000000000 PUSH1 0x0 DUP3 ADD MSTORE POP JUMP JUMPDEST PUSH1 0x0 PUSH2 0x4D65 PUSH1 0x1A DUP4 PUSH2 0x3C44 JUMP JUMPDEST SWAP2 POP PUSH2 0x4D70 DUP3 PUSH2 0x4D2F JUMP JUMPDEST PUSH1 0x20 DUP3 ADD SWAP1 POP SWAP2 SWAP1 POP JUMP JUMPDEST PUSH1 0x0 PUSH1 0x20 DUP3 ADD SWAP1 POP DUP2 DUP2 SUB PUSH1 0x0 DUP4 ADD MSTORE PUSH2 0x4D94 DUP2 PUSH2 0x4D58 JUMP JUMPDEST SWAP1 POP SWAP2 SWAP1 POP JUMP JUMPDEST PUSH32 0x4E6F2070656E64696E6720746F6B656E7320746F206275726E00000000000000 PUSH1 0x0 DUP3 ADD MSTORE POP JUMP JUMPDEST PUSH1 0x0 PUSH2 0x4DD1 PUSH1 0x19 DUP4 PUSH2 0x3C44 JUMP JUMPDEST SWAP2 POP PUSH2 0x4DDC DUP3 PUSH2 0x4D9B JUMP JUMPDEST PUSH1 0x20 DUP3 ADD SWAP1 POP SWAP2 SWAP1 POP JUMP JUMPDEST PUSH1 0x0 PUSH1 0x20 DUP3 ADD SWAP1 POP DUP2 DUP2 SUB PUSH1 0x0 DUP4 ADD MSTORE PUSH2 0x4E00 DUP2 PUSH2 0x4DC4 JUMP JUMPDEST SWAP1 POP SWAP2 SWAP1 POP JUMP JUMPDEST PUSH32 0x5374616B6520616D6F756E74206D757374206265206772656174657220746861 PUSH1 0x0 DUP3 ADD MSTORE PUSH32 0x6E207A65726F0000000000000000000000000000000000000000000000000000 PUSH1 0x20 DUP3 ADD MSTORE POP JUMP JUMPDEST PUSH1 0x0 PUSH2 0x4E63 PUSH1 0x26 DUP4 PUSH2 0x3C44 JUMP JUMPDEST SWAP2 POP PUSH2 0x4E6E DUP3 PUSH2 0x4E07 JUMP JUMPDEST PUSH1 0x40 DUP3 ADD SWAP1 POP SWAP2 SWAP1 POP JUMP JUMPDEST PUSH1 0x0 PUSH1 0x20 DUP3 ADD SWAP1 POP DUP2 DUP2 SUB PUSH1 0x0 DUP4 ADD MSTORE PUSH2 0x4E92 DUP2 PUSH2 0x4E56 JUMP JUMPDEST SWAP1 POP SWAP2 SWAP1 POP JUMP JUMPDEST PUSH32 0x496E73756666696369656E742062616C616E636520746F207374616B65000000 PUSH1 0x0 DUP3 ADD MSTORE POP JUMP JUMPDEST PUSH1 0x0 PUSH2 0x4ECF PUSH1 0x1D DUP4 PUSH2 0x3C44 JUMP JUMPDEST SWAP2 POP PUSH2 0x4EDA DUP3 PUSH2 0x4E99 JUMP JUMPDEST PUSH1 0x20 DUP3 ADD SWAP1 POP SWAP2 SWAP1 POP JUMP JUMPDEST PUSH1 0x0 PUSH1 0x20 DUP3 ADD SWAP1 POP DUP2 DUP2 SUB PUSH1 0x0 DUP4 ADD MSTORE PUSH2 0x4EFE DUP2 PUSH2 0x4EC2 JUMP JUMPDEST SWAP1 POP SWAP2 SWAP1 POP JUMP JUMPDEST PUSH32 0x5072652D73616C65206D75737420626520636F6D706C65746564206265666F72 PUSH1 0x0 DUP3 ADD MSTORE PUSH32 0x65207374616B696E670000000000000000000000000000000000000000000000 PUSH1 0x20 DUP3 ADD MSTORE POP JUMP JUMPDEST PUSH1 0x0 PUSH2 0x4F61 PUSH1 0x29 DUP4 PUSH2 0x3C44 JUMP JUMPDEST SWAP2 POP PUSH2 0x4F6C DUP3 PUSH2 0x4F05 JUMP JUMPDEST PUSH1 0x40 DUP3 ADD SWAP1 POP SWAP2 SWAP1 POP JUMP JUMPDEST PUSH1 0x0 PUSH1 0x20 DUP3 ADD SWAP1 POP DUP2 DUP2 SUB PUSH1 0x0 DUP4 ADD MSTORE PUSH2 0x4F90 DUP2 PUSH2 0x4F54 JUMP JUMPDEST SWAP1 POP SWAP2 SWAP1 POP JUMP JUMPDEST PUSH1 0x0 PUSH1 0x40 DUP3 ADD SWAP1 POP PUSH2 0x4FAC PUSH1 0x0 DUP4 ADD DUP6 PUSH2 0x3ED3 JUMP JUMPDEST PUSH2 0x4FB9 PUSH1 0x20 DUP4 ADD DUP5 PUSH2 0x3ED3 JUMP JUMPDEST SWAP4 SWAP3 POP POP POP JUMP JUMPDEST PUSH32 0x5072652D53616C652068617320656E6465640000000000000000000000000000 PUSH1 0x0 DUP3 ADD MSTORE POP JUMP JUMPDEST PUSH1 0x0 PUSH2 0x4FF6 PUSH1 0x12 DUP4 PUSH2 0x3C44 JUMP JUMPDEST SWAP2 POP PUSH2 0x5001 DUP3 PUSH2 0x4FC0 JUMP JUMPDEST PUSH1 0x20 DUP3 ADD SWAP1 POP SWAP2 SWAP1 POP JUMP JUMPDEST PUSH1 0x0 PUSH1 0x20 DUP3 ADD SWAP1 POP DUP2 DUP2 SUB PUSH1 0x0 DUP4 ADD MSTORE PUSH2 0x5025 DUP2 PUSH2 0x4FE9 JUMP JUMPDEST SWAP1 POP SWAP2 SWAP1 POP JUMP JUMPDEST PUSH32 0x507572636861736520616D6F756E74206F7574206F66206C696D697473000000 PUSH1 0x0 DUP3 ADD MSTORE POP JUMP JUMPDEST PUSH1 0x0 PUSH2 0x5062 PUSH1 0x1D DUP4 PUSH2 0x3C44 JUMP JUMPDEST SWAP2 POP PUSH2 0x506D DUP3 PUSH2 0x502C JUMP JUMPDEST PUSH1 0x20 DUP3 ADD SWAP1 POP SWAP2 SWAP1 POP JUMP JUMPDEST PUSH1 0x0 PUSH1 0x20 DUP3 ADD SWAP1 POP DUP2 DUP2 SUB PUSH1 0x0 DUP4 ADD MSTORE PUSH2 0x5091 DUP2 PUSH2 0x5055 JUMP JUMPDEST SWAP1 POP SWAP2 SWAP1 POP JUMP JUMPDEST PUSH32 0x5072652D53616C6520736F6C64206F7574000000000000000000000000000000 PUSH1 0x0 DUP3 ADD MSTORE POP JUMP JUMPDEST PUSH1 0x0 PUSH2 0x50CE PUSH1 0x11 DUP4 PUSH2 0x3C44 JUMP JUMPDEST SWAP2 POP PUSH2 0x50D9 DUP3 PUSH2 0x5098 JUMP JUMPDEST PUSH1 0x20 DUP3 ADD SWAP1 POP SWAP2 SWAP1 POP JUMP JUMPDEST PUSH1 0x0 PUSH1 0x20 DUP3 ADD SWAP1 POP DUP2 DUP2 SUB PUSH1 0x0 DUP4 ADD MSTORE PUSH2 0x50FD DUP2 PUSH2 0x50C1 JUMP JUMPDEST SWAP1 POP SWAP2 SWAP1 POP JUMP JUMPDEST PUSH32 0x45786365656473206D6178696D756D207075726368617365206C696D69742070 PUSH1 0x0 DUP3 ADD MSTORE PUSH32 0x6572207573657200000000000000000000000000000000000000000000000000 PUSH1 0x20 DUP3 ADD MSTORE POP JUMP JUMPDEST PUSH1 0x0 PUSH2 0x5160 PUSH1 0x27 DUP4 PUSH2 0x3C44 JUMP JUMPDEST SWAP2 POP PUSH2 0x516B DUP3 PUSH2 0x5104 JUMP JUMPDEST PUSH1 0x40 DUP3 ADD SWAP1 POP SWAP2 SWAP1 POP JUMP JUMPDEST PUSH1 0x0 PUSH1 0x20 DUP3 ADD SWAP1 POP DUP2 DUP2 SUB PUSH1 0x0 DUP4 ADD MSTORE PUSH2 0x518F DUP2 PUSH2 0x5153 JUMP JUMPDEST SWAP1 POP SWAP2 SWAP1 POP JUMP JUMPDEST PUSH32 0x45786365656473205072652D53616C6520746F6B656E206C696D697400000000 PUSH1 0x0 DUP3 ADD MSTORE POP JUMP JUMPDEST PUSH1 0x0 PUSH2 0x51CC PUSH1 0x1C DUP4 PUSH2 0x3C44 JUMP JUMPDEST SWAP2 POP PUSH2 0x51D7 DUP3 PUSH2 0x5196 JUMP JUMPDEST PUSH1 0x20 DUP3 ADD SWAP1 POP SWAP2 SWAP1 POP JUMP JUMPDEST PUSH1 0x0 PUSH1 0x20 DUP3 ADD SWAP1 POP DUP2 DUP2 SUB PUSH1 0x0 DUP4 ADD MSTORE PUSH2 0x51FB DUP2 PUSH2 0x51BF JUMP JUMPDEST SWAP1 POP SWAP2 SWAP1 POP JUMP JUMPDEST PUSH1 0x0 PUSH1 0xC0 DUP3 ADD SWAP1 POP PUSH2 0x5217 PUSH1 0x0 DUP4 ADD DUP10 PUSH2 0x3FBE JUMP JUMPDEST PUSH2 0x5224 PUSH1 0x20 DUP4 ADD DUP9 PUSH2 0x4226 JUMP JUMPDEST PUSH2 0x5231 PUSH1 0x40 DUP4 ADD DUP8 PUSH2 0x4226 JUMP JUMPDEST PUSH2 0x523E PUSH1 0x60 DUP4 ADD DUP7 PUSH2 0x3ED3 JUMP JUMPDEST PUSH2 0x524B PUSH1 0x80 DUP4 ADD DUP6 PUSH2 0x3ED3 JUMP JUMPDEST PUSH2 0x5258 PUSH1 0xA0 DUP4 ADD DUP5 PUSH2 0x3ED3 JUMP JUMPDEST SWAP8 SWAP7 POP POP POP POP POP POP POP JUMP JUMPDEST PUSH1 0x0 PUSH1 0x40 DUP3 ADD SWAP1 POP PUSH2 0x5278 PUSH1 0x0 DUP4 ADD DUP6 PUSH2 0x4226 JUMP JUMPDEST PUSH2 0x5285 PUSH1 0x20 DUP4 ADD DUP5 PUSH2 0x4226 JUMP JUMPDEST SWAP4 SWAP3 POP POP POP JUMP JUMPDEST PUSH32 0x507269766174652053616C6520616C726561647920636F6D706C657465640000 PUSH1 0x0 DUP3 ADD MSTORE POP JUMP JUMPDEST PUSH1 0x0 PUSH2 0x52C2 PUSH1 0x1E DUP4 PUSH2 0x3C44 JUMP JUMPDEST SWAP2 POP PUSH2 0x52CD DUP3 PUSH2 0x528C JUMP JUMPDEST PUSH1 0x20 DUP3 ADD SWAP1 POP SWAP2 SWAP1 POP JUMP JUMPDEST PUSH1 0x0 PUSH1 0x20 DUP3 ADD SWAP1 POP DUP2 DUP2 SUB PUSH1 0x0 DUP4 ADD MSTORE PUSH2 0x52F1 DUP2 PUSH2 0x52B5 JUMP JUMPDEST SWAP1 POP SWAP2 SWAP1 POP JUMP JUMPDEST PUSH1 0x0 PUSH1 0x60 DUP3 ADD SWAP1 POP PUSH2 0x530D PUSH1 0x0 DUP4 ADD DUP7 PUSH2 0x4226 JUMP JUMPDEST PUSH2 0x531A PUSH1 0x20 DUP4 ADD DUP6 PUSH2 0x3ED3 JUMP JUMPDEST PUSH2 0x5327 PUSH1 0x40 DUP4 ADD DUP5 PUSH2 0x3ED3 JUMP JUMPDEST SWAP5 SWAP4 POP POP POP POP JUMP JUMPDEST PUSH32 0x5265656E7472616E637947756172643A207265656E7472616E742063616C6C00 PUSH1 0x0 DUP3 ADD MSTORE POP JUMP JUMPDEST PUSH1 0x0 PUSH2 0x5365 PUSH1 0x1F DUP4 PUSH2 0x3C44 JUMP JUMPDEST SWAP2 POP PUSH2 0x5370 DUP3 PUSH2 0x532F JUMP JUMPDEST PUSH1 0x20 DUP3 ADD SWAP1 POP SWAP2 SWAP1 POP JUMP JUMPDEST PUSH1 0x0 PUSH1 0x20 DUP3 ADD SWAP1 POP DUP2 DUP2 SUB PUSH1 0x0 DUP4 ADD MSTORE PUSH2 0x5394 DUP2 PUSH2 0x5358 JUMP JUMPDEST SWAP1 POP SWAP2 SWAP1 POP JUMP JUMPDEST PUSH32 0x5061757361626C653A2070617573656400000000000000000000000000000000 PUSH1 0x0 DUP3 ADD MSTORE POP JUMP JUMPDEST PUSH1 0x0 PUSH2 0x53D1 PUSH1 0x10 DUP4 PUSH2 0x3C44 JUMP JUMPDEST SWAP2 POP PUSH2 0x53DC DUP3 PUSH2 0x539B JUMP JUMPDEST PUSH1 0x20 DUP3 ADD SWAP1 POP SWAP2 SWAP1 POP JUMP JUMPDEST PUSH1 0x0 PUSH1 0x20 DUP3 ADD SWAP1 POP DUP2 DUP2 SUB PUSH1 0x0 DUP4 ADD MSTORE PUSH2 0x5400 DUP2 PUSH2 0x53C4 JUMP JUMPDEST SWAP1 POP SWAP2 SWAP1 POP JUMP JUMPDEST PUSH1 0x0 PUSH2 0x5412 DUP3 PUSH2 0x3E27 JUMP JUMPDEST SWAP2 POP PUSH2 0x541D DUP4 PUSH2 0x3E27 JUMP JUMPDEST SWAP3 POP DUP3 DUP3 SUB SWAP1 POP DUP2 DUP2 GT ISZERO PUSH2 0x5435 JUMPI PUSH2 0x5434 PUSH2 0x476A JUMP JUMPDEST JUMPDEST SWAP3 SWAP2 POP POP JUMP JUMPDEST PUSH32 0x496E76616C69642070726963652063616C63756C6174696F6E00000000000000 PUSH1 0x0 DUP3 ADD MSTORE POP JUMP JUMPDEST PUSH1 0x0 PUSH2 0x5471 PUSH1 0x19 DUP4 PUSH2 0x3C44 JUMP JUMPDEST SWAP2 POP PUSH2 0x547C DUP3 PUSH2 0x543B JUMP JUMPDEST PUSH1 0x20 DUP3 ADD SWAP1 POP SWAP2 SWAP1 POP JUMP JUMPDEST PUSH1 0x0 PUSH1 0x20 DUP3 ADD SWAP1 POP DUP2 DUP2 SUB PUSH1 0x0 DUP4 ADD MSTORE PUSH2 0x54A0 DUP2 PUSH2 0x5464 JUMP JUMPDEST SWAP1 POP SWAP2 SWAP1 POP JUMP JUMPDEST PUSH1 0x0 PUSH1 0xA0 DUP3 ADD SWAP1 POP PUSH2 0x54BC PUSH1 0x0 DUP4 ADD DUP9 PUSH2 0x3FBE JUMP JUMPDEST PUSH2 0x54C9 PUSH1 0x20 DUP4 ADD DUP8 PUSH2 0x3FBE JUMP JUMPDEST PUSH2 0x54D6 PUSH1 0x40 DUP4 ADD DUP7 PUSH2 0x3FBE JUMP JUMPDEST PUSH2 0x54E3 PUSH1 0x60 DUP4 ADD DUP6 PUSH2 0x3ED3 JUMP JUMPDEST PUSH2 0x54F0 PUSH1 0x80 DUP4 ADD DUP5 PUSH2 0x4226 JUMP JUMPDEST SWAP7 SWAP6 POP POP POP POP POP POP JUMP JUMPDEST PUSH32 0x5061757361626C653A206E6F7420706175736564000000000000000000000000 PUSH1 0x0 DUP3 ADD MSTORE POP JUMP JUMPDEST PUSH1 0x0 PUSH2 0x5530 PUSH1 0x14 DUP4 PUSH2 0x3C44 JUMP JUMPDEST SWAP2 POP PUSH2 0x553B DUP3 PUSH2 0x54FA JUMP JUMPDEST PUSH1 0x20 DUP3 ADD SWAP1 POP SWAP2 SWAP1 POP JUMP JUMPDEST PUSH1 0x0 PUSH1 0x20 DUP3 ADD SWAP1 POP DUP2 DUP2 SUB PUSH1 0x0 DUP4 ADD MSTORE PUSH2 0x555F DUP2 PUSH2 0x5523 JUMP JUMPDEST SWAP1 POP SWAP2 SWAP1 POP JUMP JUMPDEST PUSH1 0x0 PUSH1 0x80 DUP3 ADD SWAP1 POP PUSH2 0x557B PUSH1 0x0 DUP4 ADD DUP8 PUSH2 0x3FBE JUMP JUMPDEST PUSH2 0x5588 PUSH1 0x20 DUP4 ADD DUP7 PUSH2 0x3F8A JUMP JUMPDEST PUSH2 0x5595 PUSH1 0x40 DUP4 ADD DUP6 PUSH2 0x3FBE JUMP JUMPDEST PUSH2 0x55A2 PUSH1 0x60 DUP4 ADD DUP5 PUSH2 0x3FBE JUMP JUMPDEST SWAP6 SWAP5 POP POP POP POP POP JUMP JUMPDEST PUSH32 0x4E487B7100000000000000000000000000000000000000000000000000000000 PUSH1 0x0 MSTORE PUSH1 0x21 PUSH1 0x4 MSTORE PUSH1 0x24 PUSH1 0x0 REVERT INVALID LOG2 PUSH5 0x6970667358 0x22 SLT KECCAK256 AND 0x25 DUP9 0xAA CODECOPY GASPRICE BLOBHASH XOR 0xD7 SLT SMOD 0xBF 0xBF 0xCC PUSH16 0xAE7097E8E8E51A6694E611911855EC48 SWAP11 PUSH5 0x736F6C6343 STOP ADDMOD BYTE STOP CALLER "
		},
		"gasEstimates": {
			"creation": {
				"codeDepositCost": "4406400",
				"executionCost": "infinite",
				"totalCost": "infinite"
			},
			"external": {
				"": "560",
				"AIRDROP_ALLOCATION()": "396",
				"BURN_ALLOCATION()": "464",
				"DOMAIN_SEPARATOR()": "infinite",
				"MARKET_ALLOCATION()": "419",
				"PRESALE_ALLOCATION()": "462",
				"PRESALE_TOKENS()": "462",
				"PRIVATE_SALE_ALLOCATION()": "462",
				"PRIVATE_SALE_TOKENS()": "440",
				"STAKE_DURATION()": "418",
				"TEAM_ALLOCATION()": "461",
				"TOTAL_SUPPLY()": "397",
				"VESTING_DURATION()": "485",
				"addToPendingBurn(uint256)": "infinite",
				"affiliateCodes(address)": "infinite",
				"affiliateOwners(string)": "infinite",
				"affiliateRewardPercentage()": "1282",
				"affiliateRewards(address)": "1669",
				"airdropActive()": "1305",
				"airdropEligible(address)": "1613",
				"airdropEndTime()": "1219",
				"airdropStartTime()": "1241",
				"allowance(address,address)": "infinite",
				"approve(address,uint256)": "infinite",
				"balanceOf(address)": "1696",
				"burnPendingTokens()": "infinite",
				"buyTokensPreSale(uint256,string)": "infinite",
				"buyTokensPrivateSale(uint256,string)": "infinite",
				"completePreSale()": "infinite",
				"completePrivateSale()": "infinite",
				"decimals()": "434",
				"eip712Domain()": "infinite",
				"emergencyPause()": "infinite",
				"getAffiliateReward(address)": "1630",
				"getTotalPreSaleSoldTokens()": "1248",
				"getTotalPrivateSaleSoldTokens()": "1272",
				"maxPreSaleAmount()": "1263",
				"minPreSaleAmount()": "1264",
				"minPrivateSaleAmount()": "1240",
				"name()": "infinite",
				"nonces(address)": "1652",
				"owner()": "1356",
				"paused()": "1291",
				"pendingBurnTokens()": "1196",
				"permit(address,address,uint256,uint256,uint8,bytes32,bytes32)": "infinite",
				"preSaleCompleted()": "1305",
				"preSaleEndPrice()": "1285",
				"preSaleEndTime()": "1218",
				"preSaleSoldTokens()": "1196",
				"preSaleStartPrice()": "1219",
				"privateSaleCompleted()": "1262",
				"privateSaleEndPrice()": "1218",
				"privateSaleSoldTokens()": "1197",
				"privateSaleStartPrice()": "1219",
				"releaseVestedTokens()": "infinite",
				"renounceOwnership()": "infinite",
				"stakeStartTime(address)": "1648",
				"stakeTokens(uint256)": "infinite",
				"stakes(address)": "1650",
				"symbol()": "infinite",
				"teamTokenReleaseTime()": "1241",
				"totalSupply()": "1206",
				"transfer(address,uint256)": "infinite",
				"transferFrom(address,address,uint256)": "infinite",
				"transferOwnership(address)": "infinite",
				"unpause()": "infinite",
				"userPurchaseAmounts(address)": "1648",
				"vestingReleaseTime(address)": "1583",
				"vestingSchedules(address)": "infinite",
				"whitelist(address)": "1612",
				"withdrawFunds()": "infinite",
				"withdrawTokens(uint256)": "infinite"
			},
			"internal": {
				"calculateTokensPreSale(uint256)": "infinite",
				"calculateTokensPrivateSale(uint256)": "infinite"
			}
		},
		"methodIdentifiers": {
			"AIRDROP_ALLOCATION()": "cb4b4ff9",
			"BURN_ALLOCATION()": "598cf195",
			"DOMAIN_SEPARATOR()": "3644e515",
			"MARKET_ALLOCATION()": "5b884160",
			"PRESALE_ALLOCATION()": "c7b5a48c",
			"PRESALE_TOKENS()": "6ddb627c",
			"PRIVATE_SALE_ALLOCATION()": "a6c3e531",
			"PRIVATE_SALE_TOKENS()": "6b0651db",
			"STAKE_DURATION()": "6afb630a",
			"TEAM_ALLOCATION()": "fd99cbed",
			"TOTAL_SUPPLY()": "902d55a5",
			"VESTING_DURATION()": "4cfc4d30",
			"addToPendingBurn(uint256)": "297155c9",
			"affiliateCodes(address)": "03f0cc64",
			"affiliateOwners(string)": "59fa61a0",
			"affiliateRewardPercentage()": "d50234c4",
			"affiliateRewards(address)": "c7ba0266",
			"airdropActive()": "9843eae3",
			"airdropEligible(address)": "ab39f08a",
			"airdropEndTime()": "806019c1",
			"airdropStartTime()": "40306fb6",
			"allowance(address,address)": "dd62ed3e",
			"approve(address,uint256)": "095ea7b3",
			"balanceOf(address)": "70a08231",
			"burnPendingTokens()": "644fe3ae",
			"buyTokensPreSale(uint256,string)": "b144662d",
			"buyTokensPrivateSale(uint256,string)": "50195f81",
			"completePreSale()": "5e39922a",
			"completePrivateSale()": "fd5661b6",
			"decimals()": "313ce567",
			"eip712Domain()": "84b0196e",
			"emergencyPause()": "51858e27",
			"getAffiliateReward(address)": "9e54585f",
			"getTotalPreSaleSoldTokens()": "a290eb2d",
			"getTotalPrivateSaleSoldTokens()": "78d9169c",
			"maxPreSaleAmount()": "b31c2f72",
			"minPreSaleAmount()": "34d70532",
			"minPrivateSaleAmount()": "bde7a37a",
			"name()": "06fdde03",
			"nonces(address)": "7ecebe00",
			"owner()": "8da5cb5b",
			"paused()": "5c975abb",
			"pendingBurnTokens()": "6ad7ed37",
			"permit(address,address,uint256,uint256,uint8,bytes32,bytes32)": "d505accf",
			"preSaleCompleted()": "43248084",
			"preSaleEndPrice()": "8f7713ff",
			"preSaleEndTime()": "cce29ea7",
			"preSaleSoldTokens()": "b68ed11f",
			"preSaleStartPrice()": "920168b3",
			"privateSaleCompleted()": "7343b05c",
			"privateSaleEndPrice()": "bda95633",
			"privateSaleSoldTokens()": "5fb3b944",
			"privateSaleStartPrice()": "b0e68630",
			"releaseVestedTokens()": "54dd1da4",
			"renounceOwnership()": "715018a6",
			"stakeStartTime(address)": "6985e6d8",
			"stakeTokens(uint256)": "7547c7a3",
			"stakes(address)": "16934fc4",
			"symbol()": "95d89b41",
			"teamTokenReleaseTime()": "6705a003",
			"totalSupply()": "18160ddd",
			"transfer(address,uint256)": "a9059cbb",
			"transferFrom(address,address,uint256)": "23b872dd",
			"transferOwnership(address)": "f2fde38b",
			"unpause()": "3f4ba83a",
			"userPurchaseAmounts(address)": "5d5f26fe",
			"vestingReleaseTime(address)": "2b1cbc38",
			"vestingSchedules(address)": "fdb20ccb",
			"whitelist(address)": "9b19251a",
			"withdrawFunds()": "24600fc3",
			"withdrawTokens(uint256)": "315a095d"
		}
	},
	"abi": [
		{
			"inputs": [],
			"stateMutability": "nonpayable",
			"type": "constructor"
		},
		{
			"inputs": [],
			"name": "ECDSAInvalidSignature",
			"type": "error"
		},
		{
			"inputs": [
				{
					"internalType": "uint256",
					"name": "length",
					"type": "uint256"
				}
			],
			"name": "ECDSAInvalidSignatureLength",
			"type": "error"
		},
		{
			"inputs": [
				{
					"internalType": "bytes32",
					"name": "s",
					"type": "bytes32"
				}
			],
			"name": "ECDSAInvalidSignatureS",
			"type": "error"
		},
		{
			"inputs": [
				{
					"internalType": "address",
					"name": "spender",
					"type": "address"
				},
				{
					"internalType": "uint256",
					"name": "allowance",
					"type": "uint256"
				},
				{
					"internalType": "uint256",
					"name": "needed",
					"type": "uint256"
				}
			],
			"name": "ERC20InsufficientAllowance",
			"type": "error"
		},
		{
			"inputs": [
				{
					"internalType": "address",
					"name": "sender",
					"type": "address"
				},
				{
					"internalType": "uint256",
					"name": "balance",
					"type": "uint256"
				},
				{
					"internalType": "uint256",
					"name": "needed",
					"type": "uint256"
				}
			],
			"name": "ERC20InsufficientBalance",
			"type": "error"
		},
		{
			"inputs": [
				{
					"internalType": "address",
					"name": "approver",
					"type": "address"
				}
			],
			"name": "ERC20InvalidApprover",
			"type": "error"
		},
		{
			"inputs": [
				{
					"internalType": "address",
					"name": "receiver",
					"type": "address"
				}
			],
			"name": "ERC20InvalidReceiver",
			"type": "error"
		},
		{
			"inputs": [
				{
					"internalType": "address",
					"name": "sender",
					"type": "address"
				}
			],
			"name": "ERC20InvalidSender",
			"type": "error"
		},
		{
			"inputs": [
				{
					"internalType": "address",
					"name": "spender",
					"type": "address"
				}
			],
			"name": "ERC20InvalidSpender",
			"type": "error"
		},
		{
			"inputs": [
				{
					"internalType": "uint256",
					"name": "deadline",
					"type": "uint256"
				}
			],
			"name": "ERC2612ExpiredSignature",
			"type": "error"
		},
		{
			"inputs": [
				{
					"internalType": "address",
					"name": "signer",
					"type": "address"
				},
				{
					"internalType": "address",
					"name": "owner",
					"type": "address"
				}
			],
			"name": "ERC2612InvalidSigner",
			"type": "error"
		},
		{
			"inputs": [
				{
					"internalType": "address",
					"name": "account",
					"type": "address"
				},
				{
					"internalType": "uint256",
					"name": "currentNonce",
					"type": "uint256"
				}
			],
			"name": "InvalidAccountNonce",
			"type": "error"
		},
		{
			"inputs": [],
			"name": "InvalidShortString",
			"type": "error"
		},
		{
			"inputs": [
				{
					"internalType": "address",
					"name": "owner",
					"type": "address"
				}
			],
			"name": "OwnableInvalidOwner",
			"type": "error"
		},
		{
			"inputs": [
				{
					"internalType": "address",
					"name": "account",
					"type": "address"
				}
			],
			"name": "OwnableUnauthorizedAccount",
			"type": "error"
		},
		{
			"inputs": [
				{
					"internalType": "string",
					"name": "str",
					"type": "string"
				}
			],
			"name": "StringTooLong",
			"type": "error"
		},
		{
			"anonymous": false,
			"inputs": [
				{
					"indexed": true,
					"internalType": "address",
					"name": "affiliate",
					"type": "address"
				},
				{
					"indexed": false,
					"internalType": "uint256",
					"name": "reward",
					"type": "uint256"
				}
			],
			"name": "AffiliateRewardPaid",
			"type": "event"
		},
		{
			"anonymous": false,
			"inputs": [
				{
					"indexed": true,
					"internalType": "address",
					"name": "recipient",
					"type": "address"
				},
				{
					"indexed": false,
					"internalType": "uint256",
					"name": "amount",
					"type": "uint256"
				}
			],
			"name": "AirdropDistributed",
			"type": "event"
		},
		{
			"anonymous": false,
			"inputs": [],
			"name": "AirdropEnded",
			"type": "event"
		},
		{
			"anonymous": false,
			"inputs": [
				{
					"indexed": false,
					"internalType": "uint256",
					"name": "startTime",
					"type": "uint256"
				},
				{
					"indexed": false,
					"internalType": "uint256",
					"name": "endTime",
					"type": "uint256"
				}
			],
			"name": "AirdropStarted",
			"type": "event"
		},
		{
			"anonymous": false,
			"inputs": [
				{
					"indexed": true,
					"internalType": "address",
					"name": "owner",
					"type": "address"
				},
				{
					"indexed": true,
					"internalType": "address",
					"name": "spender",
					"type": "address"
				},
				{
					"indexed": false,
					"internalType": "uint256",
					"name": "value",
					"type": "uint256"
				}
			],
			"name": "Approval",
			"type": "event"
		},
		{
			"anonymous": false,
			"inputs": [],
			"name": "EIP712DomainChanged",
			"type": "event"
		},
		{
			"anonymous": false,
			"inputs": [
				{
					"indexed": true,
					"internalType": "address",
					"name": "previousOwner",
					"type": "address"
				},
				{
					"indexed": true,
					"internalType": "address",
					"name": "newOwner",
					"type": "address"
				}
			],
			"name": "OwnershipTransferred",
			"type": "event"
		},
		{
			"anonymous": false,
			"inputs": [
				{
					"indexed": false,
					"internalType": "address",
					"name": "account",
					"type": "address"
				}
			],
			"name": "Paused",
			"type": "event"
		},
		{
			"anonymous": false,
			"inputs": [
				{
					"indexed": true,
					"internalType": "address",
					"name": "buyer",
					"type": "address"
				},
				{
					"indexed": false,
					"internalType": "uint256",
					"name": "amount",
					"type": "uint256"
				},
				{
					"indexed": false,
					"internalType": "string",
					"name": "affiliateCode",
					"type": "string"
				}
			],
			"name": "PreSale",
			"type": "event"
		},
		{
			"anonymous": false,
			"inputs": [],
			"name": "PreSaleCompleted",
			"type": "event"
		},
		{
			"anonymous": false,
			"inputs": [
				{
					"indexed": true,
					"internalType": "address",
					"name": "buyer",
					"type": "address"
				},
				{
					"indexed": false,
					"internalType": "uint256",
					"name": "amount",
					"type": "uint256"
				},
				{
					"indexed": false,
					"internalType": "string",
					"name": "affiliateCode",
					"type": "string"
				}
			],
			"name": "PrivateSale",
			"type": "event"
		},
		{
			"anonymous": false,
			"inputs": [],
			"name": "PrivateSaleCompleted",
			"type": "event"
		},
		{
			"anonymous": false,
			"inputs": [
				{
					"indexed": false,
					"internalType": "uint256",
					"name": "amount",
					"type": "uint256"
				}
			],
			"name": "TeamTokensLocked",
			"type": "event"
		},
		{
			"anonymous": false,
			"inputs": [
				{
					"indexed": false,
					"internalType": "uint256",
					"name": "amount",
					"type": "uint256"
				}
			],
			"name": "TeamTokensReleased",
			"type": "event"
		},
		{
			"anonymous": false,
			"inputs": [
				{
					"indexed": false,
					"internalType": "uint256",
					"name": "amount",
					"type": "uint256"
				}
			],
			"name": "TokensBurned",
			"type": "event"
		},
		{
			"anonymous": false,
			"inputs": [
				{
					"indexed": true,
					"internalType": "address",
					"name": "staker",
					"type": "address"
				},
				{
					"indexed": false,
					"internalType": "uint256",
					"name": "amount",
					"type": "uint256"
				},
				{
					"indexed": false,
					"internalType": "uint256",
					"name": "releaseTime",
					"type": "uint256"
				}
			],
			"name": "TokensStaked",
			"type": "event"
		},
		{
			"anonymous": false,
			"inputs": [
				{
					"indexed": true,
					"internalType": "address",
					"name": "from",
					"type": "address"
				},
				{
					"indexed": true,
					"internalType": "address",
					"name": "to",
					"type": "address"
				},
				{
					"indexed": false,
					"internalType": "uint256",
					"name": "value",
					"type": "uint256"
				}
			],
			"name": "Transfer",
			"type": "event"
		},
		{
			"anonymous": false,
			"inputs": [
				{
					"indexed": false,
					"internalType": "address",
					"name": "account",
					"type": "address"
				}
			],
			"name": "Unpaused",
			"type": "event"
		},
		{
			"anonymous": false,
			"inputs": [
				{
					"indexed": true,
					"internalType": "address",
					"name": "beneficiary",
					"type": "address"
				},
				{
					"indexed": false,
					"internalType": "uint256",
					"name": "amount",
					"type": "uint256"
				}
			],
			"name": "VestedTokensReleased",
			"type": "event"
		},
		{
			"stateMutability": "payable",
			"type": "fallback"
		},
		{
			"inputs": [],
			"name": "AIRDROP_ALLOCATION",
			"outputs": [
				{
					"internalType": "uint256",
					"name": "",
					"type": "uint256"
				}
			],
			"stateMutability": "view",
			"type": "function"
		},
		{
			"inputs": [],
			"name": "BURN_ALLOCATION",
			"outputs": [
				{
					"internalType": "uint256",
					"name": "",
					"type": "uint256"
				}
			],
			"stateMutability": "view",
			"type": "function"
		},
		{
			"inputs": [],
			"name": "DOMAIN_SEPARATOR",
			"outputs": [
				{
					"internalType": "bytes32",
					"name": "",
					"type": "bytes32"
				}
			],
			"stateMutability": "view",
			"type": "function"
		},
		{
			"inputs": [],
			"name": "MARKET_ALLOCATION",
			"outputs": [
				{
					"internalType": "uint256",
					"name": "",
					"type": "uint256"
				}
			],
			"stateMutability": "view",
			"type": "function"
		},
		{
			"inputs": [],
			"name": "PRESALE_ALLOCATION",
			"outputs": [
				{
					"internalType": "uint256",
					"name": "",
					"type": "uint256"
				}
			],
			"stateMutability": "view",
			"type": "function"
		},
		{
			"inputs": [],
			"name": "PRESALE_TOKENS",
			"outputs": [
				{
					"internalType": "uint256",
					"name": "",
					"type": "uint256"
				}
			],
			"stateMutability": "view",
			"type": "function"
		},
		{
			"inputs": [],
			"name": "PRIVATE_SALE_ALLOCATION",
			"outputs": [
				{
					"internalType": "uint256",
					"name": "",
					"type": "uint256"
				}
			],
			"stateMutability": "view",
			"type": "function"
		},
		{
			"inputs": [],
			"name": "PRIVATE_SALE_TOKENS",
			"outputs": [
				{
					"internalType": "uint256",
					"name": "",
					"type": "uint256"
				}
			],
			"stateMutability": "view",
			"type": "function"
		},
		{
			"inputs": [],
			"name": "STAKE_DURATION",
			"outputs": [
				{
					"internalType": "uint256",
					"name": "",
					"type": "uint256"
				}
			],
			"stateMutability": "view",
			"type": "function"
		},
		{
			"inputs": [],
			"name": "TEAM_ALLOCATION",
			"outputs": [
				{
					"internalType": "uint256",
					"name": "",
					"type": "uint256"
				}
			],
			"stateMutability": "view",
			"type": "function"
		},
		{
			"inputs": [],
			"name": "TOTAL_SUPPLY",
			"outputs": [
				{
					"internalType": "uint256",
					"name": "",
					"type": "uint256"
				}
			],
			"stateMutability": "view",
			"type": "function"
		},
		{
			"inputs": [],
			"name": "VESTING_DURATION",
			"outputs": [
				{
					"internalType": "uint256",
					"name": "",
					"type": "uint256"
				}
			],
			"stateMutability": "view",
			"type": "function"
		},
		{
			"inputs": [
				{
					"internalType": "uint256",
					"name": "amount",
					"type": "uint256"
				}
			],
			"name": "addToPendingBurn",
			"outputs": [],
			"stateMutability": "nonpayable",
			"type": "function"
		},
		{
			"inputs": [
				{
					"internalType": "address",
					"name": "",
					"type": "address"
				}
			],
			"name": "affiliateCodes",
			"outputs": [
				{
					"internalType": "string",
					"name": "",
					"type": "string"
				}
			],
			"stateMutability": "view",
			"type": "function"
		},
		{
			"inputs": [
				{
					"internalType": "string",
					"name": "",
					"type": "string"
				}
			],
			"name": "affiliateOwners",
			"outputs": [
				{
					"internalType": "address",
					"name": "",
					"type": "address"
				}
			],
			"stateMutability": "view",
			"type": "function"
		},
		{
			"inputs": [],
			"name": "affiliateRewardPercentage",
			"outputs": [
				{
					"internalType": "uint8",
					"name": "",
					"type": "uint8"
				}
			],
			"stateMutability": "view",
			"type": "function"
		},
		{
			"inputs": [
				{
					"internalType": "address",
					"name": "",
					"type": "address"
				}
			],
			"name": "affiliateRewards",
			"outputs": [
				{
					"internalType": "uint256",
					"name": "",
					"type": "uint256"
				}
			],
			"stateMutability": "view",
			"type": "function"
		},
		{
			"inputs": [],
			"name": "airdropActive",
			"outputs": [
				{
					"internalType": "bool",
					"name": "",
					"type": "bool"
				}
			],
			"stateMutability": "view",
			"type": "function"
		},
		{
			"inputs": [
				{
					"internalType": "address",
					"name": "",
					"type": "address"
				}
			],
			"name": "airdropEligible",
			"outputs": [
				{
					"internalType": "bool",
					"name": "",
					"type": "bool"
				}
			],
			"stateMutability": "view",
			"type": "function"
		},
		{
			"inputs": [],
			"name": "airdropEndTime",
			"outputs": [
				{
					"internalType": "uint256",
					"name": "",
					"type": "uint256"
				}
			],
			"stateMutability": "view",
			"type": "function"
		},
		{
			"inputs": [],
			"name": "airdropStartTime",
			"outputs": [
				{
					"internalType": "uint256",
					"name": "",
					"type": "uint256"
				}
			],
			"stateMutability": "view",
			"type": "function"
		},
		{
			"inputs": [
				{
					"internalType": "address",
					"name": "owner",
					"type": "address"
				},
				{
					"internalType": "address",
					"name": "spender",
					"type": "address"
				}
			],
			"name": "allowance",
			"outputs": [
				{
					"internalType": "uint256",
					"name": "",
					"type": "uint256"
				}
			],
			"stateMutability": "view",
			"type": "function"
		},
		{
			"inputs": [
				{
					"internalType": "address",
					"name": "spender",
					"type": "address"
				},
				{
					"internalType": "uint256",
					"name": "value",
					"type": "uint256"
				}
			],
			"name": "approve",
			"outputs": [
				{
					"internalType": "bool",
					"name": "",
					"type": "bool"
				}
			],
			"stateMutability": "nonpayable",
			"type": "function"
		},
		{
			"inputs": [
				{
					"internalType": "address",
					"name": "account",
					"type": "address"
				}
			],
			"name": "balanceOf",
			"outputs": [
				{
					"internalType": "uint256",
					"name": "",
					"type": "uint256"
				}
			],
			"stateMutability": "view",
			"type": "function"
		},
		{
			"inputs": [],
			"name": "burnPendingTokens",
			"outputs": [],
			"stateMutability": "nonpayable",
			"type": "function"
		},
		{
			"inputs": [
				{
					"internalType": "uint256",
					"name": "usdAmount",
					"type": "uint256"
				},
				{
					"internalType": "string",
					"name": "affiliateCode",
					"type": "string"
				}
			],
			"name": "buyTokensPreSale",
			"outputs": [],
			"stateMutability": "payable",
			"type": "function"
		},
		{
			"inputs": [
				{
					"internalType": "uint256",
					"name": "usdAmount",
					"type": "uint256"
				},
				{
					"internalType": "string",
					"name": "affiliateCode",
					"type": "string"
				}
			],
			"name": "buyTokensPrivateSale",
			"outputs": [],
			"stateMutability": "payable",
			"type": "function"
		},
		{
			"inputs": [],
			"name": "completePreSale",
			"outputs": [],
			"stateMutability": "nonpayable",
			"type": "function"
		},
		{
			"inputs": [],
			"name": "completePrivateSale",
			"outputs": [],
			"stateMutability": "nonpayable",
			"type": "function"
		},
		{
			"inputs": [],
			"name": "decimals",
			"outputs": [
				{
					"internalType": "uint8",
					"name": "",
					"type": "uint8"
				}
			],
			"stateMutability": "view",
			"type": "function"
		},
		{
			"inputs": [],
			"name": "eip712Domain",
			"outputs": [
				{
					"internalType": "bytes1",
					"name": "fields",
					"type": "bytes1"
				},
				{
					"internalType": "string",
					"name": "name",
					"type": "string"
				},
				{
					"internalType": "string",
					"name": "version",
					"type": "string"
				},
				{
					"internalType": "uint256",
					"name": "chainId",
					"type": "uint256"
				},
				{
					"internalType": "address",
					"name": "verifyingContract",
					"type": "address"
				},
				{
					"internalType": "bytes32",
					"name": "salt",
					"type": "bytes32"
				},
				{
					"internalType": "uint256[]",
					"name": "extensions",
					"type": "uint256[]"
				}
			],
			"stateMutability": "view",
			"type": "function"
		},
		{
			"inputs": [],
			"name": "emergencyPause",
			"outputs": [],
			"stateMutability": "nonpayable",
			"type": "function"
		},
		{
			"inputs": [
				{
					"internalType": "address",
					"name": "affiliate",
					"type": "address"
				}
			],
			"name": "getAffiliateReward",
			"outputs": [
				{
					"internalType": "uint256",
					"name": "",
					"type": "uint256"
				}
			],
			"stateMutability": "view",
			"type": "function"
		},
		{
			"inputs": [],
			"name": "getTotalPreSaleSoldTokens",
			"outputs": [
				{
					"internalType": "uint256",
					"name": "",
					"type": "uint256"
				}
			],
			"stateMutability": "view",
			"type": "function"
		},
		{
			"inputs": [],
			"name": "getTotalPrivateSaleSoldTokens",
			"outputs": [
				{
					"internalType": "uint256",
					"name": "",
					"type": "uint256"
				}
			],
			"stateMutability": "view",
			"type": "function"
		},
		{
			"inputs": [],
			"name": "maxPreSaleAmount",
			"outputs": [
				{
					"internalType": "uint256",
					"name": "",
					"type": "uint256"
				}
			],
			"stateMutability": "view",
			"type": "function"
		},
		{
			"inputs": [],
			"name": "minPreSaleAmount",
			"outputs": [
				{
					"internalType": "uint256",
					"name": "",
					"type": "uint256"
				}
			],
			"stateMutability": "view",
			"type": "function"
		},
		{
			"inputs": [],
			"name": "minPrivateSaleAmount",
			"outputs": [
				{
					"internalType": "uint256",
					"name": "",
					"type": "uint256"
				}
			],
			"stateMutability": "view",
			"type": "function"
		},
		{
			"inputs": [],
			"name": "name",
			"outputs": [
				{
					"internalType": "string",
					"name": "",
					"type": "string"
				}
			],
			"stateMutability": "view",
			"type": "function"
		},
		{
			"inputs": [
				{
					"internalType": "address",
					"name": "owner",
					"type": "address"
				}
			],
			"name": "nonces",
			"outputs": [
				{
					"internalType": "uint256",
					"name": "",
					"type": "uint256"
				}
			],
			"stateMutability": "view",
			"type": "function"
		},
		{
			"inputs": [],
			"name": "owner",
			"outputs": [
				{
					"internalType": "address",
					"name": "",
					"type": "address"
				}
			],
			"stateMutability": "view",
			"type": "function"
		},
		{
			"inputs": [],
			"name": "paused",
			"outputs": [
				{
					"internalType": "bool",
					"name": "",
					"type": "bool"
				}
			],
			"stateMutability": "view",
			"type": "function"
		},
		{
			"inputs": [],
			"name": "pendingBurnTokens",
			"outputs": [
				{
					"internalType": "uint256",
					"name": "",
					"type": "uint256"
				}
			],
			"stateMutability": "view",
			"type": "function"
		},
		{
			"inputs": [
				{
					"internalType": "address",
					"name": "owner",
					"type": "address"
				},
				{
					"internalType": "address",
					"name": "spender",
					"type": "address"
				},
				{
					"internalType": "uint256",
					"name": "value",
					"type": "uint256"
				},
				{
					"internalType": "uint256",
					"name": "deadline",
					"type": "uint256"
				},
				{
					"internalType": "uint8",
					"name": "v",
					"type": "uint8"
				},
				{
					"internalType": "bytes32",
					"name": "r",
					"type": "bytes32"
				},
				{
					"internalType": "bytes32",
					"name": "s",
					"type": "bytes32"
				}
			],
			"name": "permit",
			"outputs": [],
			"stateMutability": "nonpayable",
			"type": "function"
		},
		{
			"inputs": [],
			"name": "preSaleCompleted",
			"outputs": [
				{
					"internalType": "bool",
					"name": "",
					"type": "bool"
				}
			],
			"stateMutability": "view",
			"type": "function"
		},
		{
			"inputs": [],
			"name": "preSaleEndPrice",
			"outputs": [
				{
					"internalType": "uint256",
					"name": "",
					"type": "uint256"
				}
			],
			"stateMutability": "view",
			"type": "function"
		},
		{
			"inputs": [],
			"name": "preSaleEndTime",
			"outputs": [
				{
					"internalType": "uint256",
					"name": "",
					"type": "uint256"
				}
			],
			"stateMutability": "view",
			"type": "function"
		},
		{
			"inputs": [],
			"name": "preSaleSoldTokens",
			"outputs": [
				{
					"internalType": "uint256",
					"name": "",
					"type": "uint256"
				}
			],
			"stateMutability": "view",
			"type": "function"
		},
		{
			"inputs": [],
			"name": "preSaleStartPrice",
			"outputs": [
				{
					"internalType": "uint256",
					"name": "",
					"type": "uint256"
				}
			],
			"stateMutability": "view",
			"type": "function"
		},
		{
			"inputs": [],
			"name": "privateSaleCompleted",
			"outputs": [
				{
					"internalType": "bool",
					"name": "",
					"type": "bool"
				}
			],
			"stateMutability": "view",
			"type": "function"
		},
		{
			"inputs": [],
			"name": "privateSaleEndPrice",
			"outputs": [
				{
					"internalType": "uint256",
					"name": "",
					"type": "uint256"
				}
			],
			"stateMutability": "view",
			"type": "function"
		},
		{
			"inputs": [],
			"name": "privateSaleSoldTokens",
			"outputs": [
				{
					"internalType": "uint256",
					"name": "",
					"type": "uint256"
				}
			],
			"stateMutability": "view",
			"type": "function"
		},
		{
			"inputs": [],
			"name": "privateSaleStartPrice",
			"outputs": [
				{
					"internalType": "uint256",
					"name": "",
					"type": "uint256"
				}
			],
			"stateMutability": "view",
			"type": "function"
		},
		{
			"inputs": [],
			"name": "releaseVestedTokens",
			"outputs": [],
			"stateMutability": "nonpayable",
			"type": "function"
		},
		{
			"inputs": [],
			"name": "renounceOwnership",
			"outputs": [],
			"stateMutability": "nonpayable",
			"type": "function"
		},
		{
			"inputs": [
				{
					"internalType": "address",
					"name": "",
					"type": "address"
				}
			],
			"name": "stakeStartTime",
			"outputs": [
				{
					"internalType": "uint256",
					"name": "",
					"type": "uint256"
				}
			],
			"stateMutability": "view",
			"type": "function"
		},
		{
			"inputs": [
				{
					"internalType": "uint256",
					"name": "amount",
					"type": "uint256"
				}
			],
			"name": "stakeTokens",
			"outputs": [],
			"stateMutability": "nonpayable",
			"type": "function"
		},
		{
			"inputs": [
				{
					"internalType": "address",
					"name": "",
					"type": "address"
				}
			],
			"name": "stakes",
			"outputs": [
				{
					"internalType": "uint256",
					"name": "",
					"type": "uint256"
				}
			],
			"stateMutability": "view",
			"type": "function"
		},
		{
			"inputs": [],
			"name": "symbol",
			"outputs": [
				{
					"internalType": "string",
					"name": "",
					"type": "string"
				}
			],
			"stateMutability": "view",
			"type": "function"
		},
		{
			"inputs": [],
			"name": "teamTokenReleaseTime",
			"outputs": [
				{
					"internalType": "uint256",
					"name": "",
					"type": "uint256"
				}
			],
			"stateMutability": "view",
			"type": "function"
		},
		{
			"inputs": [],
			"name": "totalSupply",
			"outputs": [
				{
					"internalType": "uint256",
					"name": "",
					"type": "uint256"
				}
			],
			"stateMutability": "view",
			"type": "function"
		},
		{
			"inputs": [
				{
					"internalType": "address",
					"name": "to",
					"type": "address"
				},
				{
					"internalType": "uint256",
					"name": "value",
					"type": "uint256"
				}
			],
			"name": "transfer",
			"outputs": [
				{
					"internalType": "bool",
					"name": "",
					"type": "bool"
				}
			],
			"stateMutability": "nonpayable",
			"type": "function"
		},
		{
			"inputs": [
				{
					"internalType": "address",
					"name": "from",
					"type": "address"
				},
				{
					"internalType": "address",
					"name": "to",
					"type": "address"
				},
				{
					"internalType": "uint256",
					"name": "value",
					"type": "uint256"
				}
			],
			"name": "transferFrom",
			"outputs": [
				{
					"internalType": "bool",
					"name": "",
					"type": "bool"
				}
			],
			"stateMutability": "nonpayable",
			"type": "function"
		},
		{
			"inputs": [
				{
					"internalType": "address",
					"name": "newOwner",
					"type": "address"
				}
			],
			"name": "transferOwnership",
			"outputs": [],
			"stateMutability": "nonpayable",
			"type": "function"
		},
		{
			"inputs": [],
			"name": "unpause",
			"outputs": [],
			"stateMutability": "nonpayable",
			"type": "function"
		},
		{
			"inputs": [
				{
					"internalType": "address",
					"name": "",
					"type": "address"
				}
			],
			"name": "userPurchaseAmounts",
			"outputs": [
				{
					"internalType": "uint256",
					"name": "",
					"type": "uint256"
				}
			],
			"stateMutability": "view",
			"type": "function"
		},
		{
			"inputs": [
				{
					"internalType": "address",
					"name": "",
					"type": "address"
				}
			],
			"name": "vestingReleaseTime",
			"outputs": [
				{
					"internalType": "uint256",
					"name": "",
					"type": "uint256"
				}
			],
			"stateMutability": "view",
			"type": "function"
		},
		{
			"inputs": [
				{
					"internalType": "address",
					"name": "",
					"type": "address"
				}
			],
			"name": "vestingSchedules",
			"outputs": [
				{
					"internalType": "uint256",
					"name": "totalAmount",
					"type": "uint256"
				},
				{
					"internalType": "uint256",
					"name": "releasedAmount",
					"type": "uint256"
				},
				{
					"internalType": "uint256",
					"name": "startTime",
					"type": "uint256"
				},
				{
					"internalType": "uint256",
					"name": "duration",
					"type": "uint256"
				},
				{
					"internalType": "uint256",
					"name": "interval",
					"type": "uint256"
				}
			],
			"stateMutability": "view",
			"type": "function"
		},
		{
			"inputs": [
				{
					"internalType": "address",
					"name": "",
					"type": "address"
				}
			],
			"name": "whitelist",
			"outputs": [
				{
					"internalType": "bool",
					"name": "",
					"type": "bool"
				}
			],
			"stateMutability": "view",
			"type": "function"
		},
		{
			"inputs": [],
			"name": "withdrawFunds",
			"outputs": [],
			"stateMutability": "nonpayable",
			"type": "function"
		},
		{
			"inputs": [
				{
					"internalType": "uint256",
					"name": "amount",
					"type": "uint256"
				}
			],
			"name": "withdrawTokens",
			"outputs": [],
			"stateMutability": "nonpayable",
			"type": "function"
		},
		{
			"stateMutability": "payable",
			"type": "receive"
		}
	]
}